{
  "_format": "hh-sol-artifact-1",
  "contractName": "INOManager",
  "sourceName": "contracts/nft-marketplace/INO/INOManager.sol",
  "abi": [
    {
      "anonymous": false,
      "inputs": [
        {
          "indexed": false,
          "internalType": "address",
          "name": "_inoAddress",
          "type": "address"
        },
        {
          "indexed": false,
          "internalType": "address",
          "name": "_nftContract",
          "type": "address"
        }
      ],
      "name": "NewINO",
      "type": "event"
    },
    {
      "anonymous": false,
      "inputs": [
        {
          "indexed": true,
          "internalType": "address",
          "name": "previousOwner",
          "type": "address"
        },
        {
          "indexed": true,
          "internalType": "address",
          "name": "newOwner",
          "type": "address"
        }
      ],
      "name": "OwnershipTransferred",
      "type": "event"
    },
    {
      "inputs": [
        {
          "internalType": "address",
          "name": "_inoAddress",
          "type": "address"
        },
        {
          "internalType": "address",
          "name": "_nftContract",
          "type": "address"
        }
      ],
      "name": "addINO",
      "outputs": [],
      "stateMutability": "nonpayable",
      "type": "function"
    },
    {
      "inputs": [
        {
          "internalType": "uint256",
          "name": "index",
          "type": "uint256"
        }
      ],
      "name": "getINO",
      "outputs": [
        {
          "internalType": "address",
          "name": "",
          "type": "address"
        }
      ],
      "stateMutability": "view",
      "type": "function"
    },
    {
      "inputs": [
        {
          "internalType": "address",
          "name": "inoAddress",
          "type": "address"
        }
      ],
      "name": "getNFTContract",
      "outputs": [
        {
          "internalType": "address",
          "name": "",
          "type": "address"
        }
      ],
      "stateMutability": "view",
      "type": "function"
    },
    {
      "inputs": [
        {
          "internalType": "uint256",
          "name": "",
          "type": "uint256"
        }
      ],
      "name": "inoList",
      "outputs": [
        {
          "internalType": "address",
          "name": "",
          "type": "address"
        }
      ],
      "stateMutability": "view",
      "type": "function"
    },
    {
      "inputs": [],
      "name": "owner",
      "outputs": [
        {
          "internalType": "address",
          "name": "",
          "type": "address"
        }
      ],
      "stateMutability": "view",
      "type": "function"
    },
    {
      "inputs": [],
      "name": "renounceOwnership",
      "outputs": [],
      "stateMutability": "nonpayable",
      "type": "function"
    },
    {
      "inputs": [],
      "name": "totalINO",
      "outputs": [
        {
          "internalType": "uint256",
          "name": "",
          "type": "uint256"
        }
      ],
      "stateMutability": "view",
      "type": "function"
    },
    {
      "inputs": [
        {
          "internalType": "address",
          "name": "newOwner",
          "type": "address"
        }
      ],
      "name": "transferOwnership",
      "outputs": [],
      "stateMutability": "nonpayable",
      "type": "function"
    }
  ],
  "bytecode": "0x608060405234801561001057600080fd5b5061001a3361001f565b61006f565b600080546001600160a01b038381166001600160a01b0319831681178455604051919092169283917f8be0079c531659141344cd1fd0a4f28419497f9722a3daafe3b4186f6b6457e09190a35050565b6104598061007e6000396000f3fe608060405234801561001057600080fd5b50600436106100885760003560e01c8063a1244c691161005b578063a1244c6914610102578063cb5344db14610115578063f2fde38b14610128578063f910d8a31461013b57600080fd5b80631f99150e1461008d57806347718642146100a3578063715018a6146100e75780638da5cb5b146100f1575b600080fd5b6001546040519081526020015b60405180910390f35b6100cf6100b13660046103b8565b6001600160a01b039081166000908152600260205260409020541690565b6040516001600160a01b03909116815260200161009a565b6100ef61014e565b005b6000546001600160a01b03166100cf565b6100cf61011036600461040b565b610162565b6100cf61012336600461040b565b61018c565b6100ef6101363660046103b8565b6101ca565b6100ef6101493660046103d9565b610248565b6101566102f2565b610160600061034c565b565b6001818154811061017257600080fd5b6000918252602090912001546001600160a01b0316905081565b6000600182815481106101af57634e487b7160e01b600052603260045260246000fd5b6000918252602090912001546001600160a01b031692915050565b6101d26102f2565b6001600160a01b03811661023c5760405162461bcd60e51b815260206004820152602660248201527f4f776e61626c653a206e6577206f776e657220697320746865207a65726f206160448201526564647265737360d01b60648201526084015b60405180910390fd5b6102458161034c565b50565b6102506102f2565b600180548082019091557fb10e2d527612073b26eecdfd717e6a320cf44b4afac2b0732d9fcbe2b7fa0cf60180546001600160a01b038481166001600160a01b0319928316811790935560008381526002602090815260409182902080549387169390941683179093558051938452918301527f16993ed76ba6d451216b10f72439ef1481f25ee38b741eaf4caba3b75ad28510910160405180910390a15050565b6000546001600160a01b031633146101605760405162461bcd60e51b815260206004820181905260248201527f4f776e61626c653a2063616c6c6572206973206e6f7420746865206f776e65726044820152606401610233565b600080546001600160a01b038381166001600160a01b0319831681178455604051919092169283917f8be0079c531659141344cd1fd0a4f28419497f9722a3daafe3b4186f6b6457e09190a35050565b80356001600160a01b03811681146103b357600080fd5b919050565b6000602082840312156103c9578081fd5b6103d28261039c565b9392505050565b600080604083850312156103eb578081fd5b6103f48361039c565b91506104026020840161039c565b90509250929050565b60006020828403121561041c578081fd5b503591905056fea264697066735822122037fc1fe1e817b3813220ddaf861ab2d6b9ac9812122be96dbdce084e396396ae64736f6c63430008040033",
  "linkReferences": {},
  "deployedLinkReferences": {}
}