{
  "_format": "hh-sol-artifact-1",
  "contractName": "FundRaising",
  "sourceName": "contracts/launchpad/tier/FundRaising.sol",
  "abi": [
    {
      "inputs": [
        {
          "internalType": "contract ERC20",
          "name": "_buyToken",
          "type": "address"
        },
        {
          "internalType": "contract ERC20",
          "name": "_offeringToken",
          "type": "address"
        },
        {
          "internalType": "uint256",
          "name": "_startTime",
          "type": "uint256"
        },
        {
          "internalType": "uint256",
          "name": "_endTime",
          "type": "uint256"
        },
        {
          "internalType": "uint256",
          "name": "_harvestTime",
          "type": "uint256"
        },
        {
          "internalType": "uint256",
          "name": "_offeringAmount",
          "type": "uint256"
        },
        {
          "internalType": "uint256",
          "name": "_raisingAmount",
          "type": "uint256"
        },
        {
          "internalType": "contract ITierSystem",
          "name": "_tierSystem",
          "type": "address"
        },
        {
          "internalType": "uint256",
          "name": "_snapshotFrom",
          "type": "uint256"
        },
        {
          "internalType": "uint256",
          "name": "_snapshotTo",
          "type": "uint256"
        },
        {
          "internalType": "uint256",
          "name": "_multiplier",
          "type": "uint256"
        }
      ],
      "stateMutability": "nonpayable",
      "type": "constructor"
    },
    {
      "anonymous": false,
      "inputs": [
        {
          "indexed": true,
          "internalType": "address",
          "name": "user",
          "type": "address"
        },
        {
          "indexed": false,
          "internalType": "uint256",
          "name": "amount",
          "type": "uint256"
        }
      ],
      "name": "Deposit",
      "type": "event"
    },
    {
      "anonymous": false,
      "inputs": [
        {
          "indexed": true,
          "internalType": "address",
          "name": "user",
          "type": "address"
        },
        {
          "indexed": false,
          "internalType": "uint256",
          "name": "offeringAmount",
          "type": "uint256"
        },
        {
          "indexed": false,
          "internalType": "uint256",
          "name": "excessAmount",
          "type": "uint256"
        }
      ],
      "name": "Harvest",
      "type": "event"
    },
    {
      "anonymous": false,
      "inputs": [
        {
          "indexed": true,
          "internalType": "address",
          "name": "previousOwner",
          "type": "address"
        },
        {
          "indexed": true,
          "internalType": "address",
          "name": "newOwner",
          "type": "address"
        }
      ],
      "name": "OwnershipTransferred",
      "type": "event"
    },
    {
      "anonymous": false,
      "inputs": [
        {
          "indexed": false,
          "internalType": "address",
          "name": "account",
          "type": "address"
        }
      ],
      "name": "Paused",
      "type": "event"
    },
    {
      "anonymous": false,
      "inputs": [
        {
          "indexed": false,
          "internalType": "address",
          "name": "account",
          "type": "address"
        }
      ],
      "name": "Unpaused",
      "type": "event"
    },
    {
      "stateMutability": "payable",
      "type": "fallback"
    },
    {
      "inputs": [
        {
          "internalType": "uint256",
          "name": "",
          "type": "uint256"
        }
      ],
      "name": "addressList",
      "outputs": [
        {
          "internalType": "address",
          "name": "",
          "type": "address"
        }
      ],
      "stateMutability": "view",
      "type": "function"
    },
    {
      "inputs": [
        {
          "internalType": "uint256",
          "name": "_tier",
          "type": "uint256"
        }
      ],
      "name": "allocations",
      "outputs": [
        {
          "internalType": "uint256",
          "name": "",
          "type": "uint256"
        }
      ],
      "stateMutability": "view",
      "type": "function"
    },
    {
      "inputs": [],
      "name": "buyToken",
      "outputs": [
        {
          "internalType": "contract ERC20",
          "name": "",
          "type": "address"
        }
      ],
      "stateMutability": "view",
      "type": "function"
    },
    {
      "inputs": [
        {
          "internalType": "uint256",
          "name": "_amount",
          "type": "uint256"
        }
      ],
      "name": "deposit",
      "outputs": [],
      "stateMutability": "payable",
      "type": "function"
    },
    {
      "inputs": [
        {
          "internalType": "address",
          "name": "token",
          "type": "address"
        },
        {
          "internalType": "address payable",
          "name": "to",
          "type": "address"
        }
      ],
      "name": "emergencyWithdraw",
      "outputs": [],
      "stateMutability": "nonpayable",
      "type": "function"
    },
    {
      "inputs": [],
      "name": "endTime",
      "outputs": [
        {
          "internalType": "uint256",
          "name": "",
          "type": "uint256"
        }
      ],
      "stateMutability": "view",
      "type": "function"
    },
    {
      "inputs": [
        {
          "internalType": "address",
          "name": "_destination",
          "type": "address"
        }
      ],
      "name": "finalWithdraw",
      "outputs": [],
      "stateMutability": "nonpayable",
      "type": "function"
    },
    {
      "inputs": [],
      "name": "getAddressListLength",
      "outputs": [
        {
          "internalType": "uint256",
          "name": "",
          "type": "uint256"
        }
      ],
      "stateMutability": "view",
      "type": "function"
    },
    {
      "inputs": [
        {
          "internalType": "address",
          "name": "_account",
          "type": "address"
        }
      ],
      "name": "getAllocation",
      "outputs": [
        {
          "internalType": "uint256",
          "name": "",
          "type": "uint256"
        }
      ],
      "stateMutability": "view",
      "type": "function"
    },
    {
      "inputs": [
        {
          "internalType": "address",
          "name": "_account",
          "type": "address"
        }
      ],
      "name": "getAllocationPoint",
      "outputs": [
        {
          "internalType": "uint256",
          "name": "",
          "type": "uint256"
        }
      ],
      "stateMutability": "view",
      "type": "function"
    },
    {
      "inputs": [],
      "name": "getInfo",
      "outputs": [
        {
          "components": [
            {
              "internalType": "contract ERC20",
              "name": "token",
              "type": "address"
            },
            {
              "internalType": "uint256",
              "name": "decimals",
              "type": "uint256"
            },
            {
              "internalType": "string",
              "name": "name",
              "type": "string"
            },
            {
              "internalType": "string",
              "name": "symbol",
              "type": "string"
            }
          ],
          "internalType": "struct FundRaising.TokenInfo",
          "name": "",
          "type": "tuple"
        },
        {
          "components": [
            {
              "internalType": "contract ERC20",
              "name": "token",
              "type": "address"
            },
            {
              "internalType": "uint256",
              "name": "decimals",
              "type": "uint256"
            },
            {
              "internalType": "string",
              "name": "name",
              "type": "string"
            },
            {
              "internalType": "string",
              "name": "symbol",
              "type": "string"
            }
          ],
          "internalType": "struct FundRaising.TokenInfo",
          "name": "",
          "type": "tuple"
        },
        {
          "internalType": "uint256",
          "name": "",
          "type": "uint256"
        },
        {
          "internalType": "uint256",
          "name": "",
          "type": "uint256"
        },
        {
          "internalType": "uint256",
          "name": "",
          "type": "uint256"
        },
        {
          "internalType": "uint256",
          "name": "",
          "type": "uint256"
        },
        {
          "internalType": "uint256",
          "name": "",
          "type": "uint256"
        }
      ],
      "stateMutability": "view",
      "type": "function"
    },
    {
      "inputs": [
        {
          "internalType": "address",
          "name": "_user",
          "type": "address"
        }
      ],
      "name": "getOfferingAmount",
      "outputs": [
        {
          "internalType": "uint256",
          "name": "",
          "type": "uint256"
        }
      ],
      "stateMutability": "view",
      "type": "function"
    },
    {
      "inputs": [
        {
          "internalType": "address",
          "name": "_user",
          "type": "address"
        }
      ],
      "name": "getRefundingAmount",
      "outputs": [
        {
          "internalType": "uint256",
          "name": "",
          "type": "uint256"
        }
      ],
      "stateMutability": "view",
      "type": "function"
    },
    {
      "inputs": [
        {
          "internalType": "address",
          "name": "_account",
          "type": "address"
        }
      ],
      "name": "getTier",
      "outputs": [
        {
          "internalType": "uint256",
          "name": "",
          "type": "uint256"
        }
      ],
      "stateMutability": "view",
      "type": "function"
    },
    {
      "inputs": [
        {
          "internalType": "address",
          "name": "_user",
          "type": "address"
        }
      ],
      "name": "getUserAllocation",
      "outputs": [
        {
          "internalType": "uint256",
          "name": "",
          "type": "uint256"
        }
      ],
      "stateMutability": "view",
      "type": "function"
    },
    {
      "inputs": [],
      "name": "harvest",
      "outputs": [],
      "stateMutability": "nonpayable",
      "type": "function"
    },
    {
      "inputs": [],
      "name": "harvestTime",
      "outputs": [
        {
          "internalType": "uint256",
          "name": "",
          "type": "uint256"
        }
      ],
      "stateMutability": "view",
      "type": "function"
    },
    {
      "inputs": [
        {
          "internalType": "address",
          "name": "_user",
          "type": "address"
        }
      ],
      "name": "hasHarvest",
      "outputs": [
        {
          "internalType": "bool",
          "name": "",
          "type": "bool"
        }
      ],
      "stateMutability": "view",
      "type": "function"
    },
    {
      "inputs": [],
      "name": "multiplier",
      "outputs": [
        {
          "internalType": "uint256",
          "name": "",
          "type": "uint256"
        }
      ],
      "stateMutability": "view",
      "type": "function"
    },
    {
      "inputs": [],
      "name": "offeringAmount",
      "outputs": [
        {
          "internalType": "uint256",
          "name": "",
          "type": "uint256"
        }
      ],
      "stateMutability": "view",
      "type": "function"
    },
    {
      "inputs": [],
      "name": "offeringToken",
      "outputs": [
        {
          "internalType": "contract ERC20",
          "name": "",
          "type": "address"
        }
      ],
      "stateMutability": "view",
      "type": "function"
    },
    {
      "inputs": [],
      "name": "owner",
      "outputs": [
        {
          "internalType": "address",
          "name": "",
          "type": "address"
        }
      ],
      "stateMutability": "view",
      "type": "function"
    },
    {
      "inputs": [],
      "name": "pause",
      "outputs": [],
      "stateMutability": "nonpayable",
      "type": "function"
    },
    {
      "inputs": [],
      "name": "paused",
      "outputs": [
        {
          "internalType": "bool",
          "name": "",
          "type": "bool"
        }
      ],
      "stateMutability": "view",
      "type": "function"
    },
    {
      "inputs": [],
      "name": "raisingAmount",
      "outputs": [
        {
          "internalType": "uint256",
          "name": "",
          "type": "uint256"
        }
      ],
      "stateMutability": "view",
      "type": "function"
    },
    {
      "inputs": [],
      "name": "remainingToken",
      "outputs": [
        {
          "internalType": "uint256",
          "name": "",
          "type": "uint256"
        }
      ],
      "stateMutability": "view",
      "type": "function"
    },
    {
      "inputs": [],
      "name": "renounceOwnership",
      "outputs": [],
      "stateMutability": "nonpayable",
      "type": "function"
    },
    {
      "inputs": [
        {
          "internalType": "uint256",
          "name": "mul",
          "type": "uint256"
        }
      ],
      "name": "setMultiplier",
      "outputs": [],
      "stateMutability": "nonpayable",
      "type": "function"
    },
    {
      "inputs": [
        {
          "internalType": "uint256",
          "name": "_offerAmount",
          "type": "uint256"
        }
      ],
      "name": "setOfferingAmount",
      "outputs": [],
      "stateMutability": "nonpayable",
      "type": "function"
    },
    {
      "inputs": [
        {
          "internalType": "uint256",
          "name": "_raisingAmount",
          "type": "uint256"
        }
      ],
      "name": "setRaisingAmount",
      "outputs": [],
      "stateMutability": "nonpayable",
      "type": "function"
    },
    {
      "inputs": [
        {
          "internalType": "uint256",
          "name": "id",
          "type": "uint256"
        }
      ],
      "name": "setSnapshotFrom",
      "outputs": [],
      "stateMutability": "nonpayable",
      "type": "function"
    },
    {
      "inputs": [
        {
          "internalType": "uint256",
          "name": "id",
          "type": "uint256"
        }
      ],
      "name": "setSnapshotTo",
      "outputs": [],
      "stateMutability": "nonpayable",
      "type": "function"
    },
    {
      "inputs": [],
      "name": "snapshotFrom",
      "outputs": [
        {
          "internalType": "uint256",
          "name": "",
          "type": "uint256"
        }
      ],
      "stateMutability": "view",
      "type": "function"
    },
    {
      "inputs": [],
      "name": "snapshotTo",
      "outputs": [
        {
          "internalType": "uint256",
          "name": "",
          "type": "uint256"
        }
      ],
      "stateMutability": "view",
      "type": "function"
    },
    {
      "inputs": [],
      "name": "soldTokenAmount",
      "outputs": [
        {
          "internalType": "uint256",
          "name": "",
          "type": "uint256"
        }
      ],
      "stateMutability": "view",
      "type": "function"
    },
    {
      "inputs": [],
      "name": "startTime",
      "outputs": [
        {
          "internalType": "uint256",
          "name": "",
          "type": "uint256"
        }
      ],
      "stateMutability": "view",
      "type": "function"
    },
    {
      "inputs": [],
      "name": "tierSystem",
      "outputs": [
        {
          "internalType": "contract ITierSystem",
          "name": "",
          "type": "address"
        }
      ],
      "stateMutability": "view",
      "type": "function"
    },
    {
      "inputs": [],
      "name": "totalAmount",
      "outputs": [
        {
          "internalType": "uint256",
          "name": "",
          "type": "uint256"
        }
      ],
      "stateMutability": "view",
      "type": "function"
    },
    {
      "inputs": [
        {
          "internalType": "address",
          "name": "newOwner",
          "type": "address"
        }
      ],
      "name": "transferOwnership",
      "outputs": [],
      "stateMutability": "nonpayable",
      "type": "function"
    },
    {
      "inputs": [],
      "name": "unpause",
      "outputs": [],
      "stateMutability": "nonpayable",
      "type": "function"
    },
    {
      "inputs": [
        {
          "internalType": "uint256",
          "name": "_newTime",
          "type": "uint256"
        }
      ],
      "name": "updateEndTime",
      "outputs": [],
      "stateMutability": "nonpayable",
      "type": "function"
    },
    {
      "inputs": [
        {
          "internalType": "uint256",
          "name": "_newTime",
          "type": "uint256"
        }
      ],
      "name": "updateHarvestTime",
      "outputs": [],
      "stateMutability": "nonpayable",
      "type": "function"
    },
    {
      "inputs": [
        {
          "internalType": "address",
          "name": "_newToken",
          "type": "address"
        }
      ],
      "name": "updateOfferingToken",
      "outputs": [],
      "stateMutability": "nonpayable",
      "type": "function"
    },
    {
      "inputs": [
        {
          "internalType": "address",
          "name": "",
          "type": "address"
        }
      ],
      "name": "userInfo",
      "outputs": [
        {
          "internalType": "uint256",
          "name": "amount",
          "type": "uint256"
        },
        {
          "internalType": "bool",
          "name": "claimed",
          "type": "bool"
        }
      ],
      "stateMutability": "view",
      "type": "function"
    },
    {
      "inputs": [
        {
          "internalType": "address",
          "name": "_destination",
          "type": "address"
        }
      ],
      "name": "withdrawRemainingOfferingToken",
      "outputs": [],
      "stateMutability": "nonpayable",
      "type": "function"
    }
  ],
  "bytecode": "0x60806040523480156200001157600080fd5b50604051620026393803806200263983398101604081905262000034916200013a565b60016000556200004433620000e8565b6001805460ff60a01b191690558787108015906200006157508888115b80156200006d57504289115b6200007757600080fd5b600280546001600160a01b03199081166001600160a01b039d8e16179091556003805482169b8d169b909b17909a556004989098556005969096556006949094556008929092556007556000600955600c8054909516951694909417909255600d92909255600e55600f55620001f8565b600180546001600160a01b038381166001600160a01b0319831681179093556040519116919082907f8be0079c531659141344cd1fd0a4f28419497f9722a3daafe3b4186f6b6457e090600090a35050565b60008060008060008060008060008060006101608c8e0312156200015c578687fd5b8b516200016981620001df565b60208d0151909b506200017c81620001df565b809a505060408c0151985060608c0151975060808c0151965060a08c0151955060c08c0151945060e08c0151620001b381620001df565b809450506101008c015192506101208c015191506101408c015190509295989b509295989b9093969950565b6001600160a01b0381168114620001f557600080fd5b50565b61243180620002086000396000f3fe60806040526004361061025d5760003560e01c8063715018a611610143578063b6b55f25116100bb578063e1af9a9511610077578063e1af9a951461072a578063eadbd78814610740578063f2fde38b14610760578063f480821014610780578063f8caa7e514610796578063fc00358e146107b657005b8063b6b55f2514610677578063b78136071461068a578063b810fb43146106aa578063b920ade2146106ca578063c2c9721b146106ea578063d16bba941461070a57005b80638da5cb5b1161010a5780638da5cb5b146105ba5780638ed76287146105ec5780639c0a766914610601578063a482171914610617578063ac3ff91214610637578063b45aae521461065757005b8063715018a61461053a57806376ea6ee01461054f57806378e979251461056f5780638456cb591461058557806387e97bc61461059a57005b80634225c32f116101d65780636382d9ad1161019d5780636382d9ad1461045e578063641579a61461047e57806364ce9fff1461049e5780636a2ce513146104da5780636ab3846b146104fa57806370647c211461051a57005b80634225c32f146103c15780634641257d146103e157806347bfbab0146103f65780635a9b0b891461040b5780635c975abb1461043357005b806322b331751161022557806322b331751461032a57806327d1b1a2146103405780632f5105f8146103605780633197cbb614610380578063343e31f5146103965780633f4ba83a146103ac57005b80630a2642bf1461025f5780630e022923146102925780631959a002146102b25780631a39d8ef146102fe5780631b3ed72214610314575b005b34801561026b57600080fd5b5061027f61027a3660046120a6565b6107cb565b6040519081526020015b60405180910390f35b34801561029e57600080fd5b5061027f6102ad366004611f94565b610941565b3480156102be57600080fd5b506102e96102cd366004611f94565b600a602052600090815260409020805460019091015460ff1682565b60408051928352901515602083015201610289565b34801561030a57600080fd5b5061027f60095481565b34801561032057600080fd5b5061027f600f5481565b34801561033657600080fd5b5061027f600e5481565b34801561034c57600080fd5b5061025d61035b3660046120a6565b6109e7565b34801561036c57600080fd5b5061027f61037b366004611f94565b610a1e565b34801561038c57600080fd5b5061027f60055481565b3480156103a257600080fd5b5061027f600d5481565b3480156103b857600080fd5b5061025d610a9f565b3480156103cd57600080fd5b5061025d6103dc3660046120a6565b610ab1565b3480156103ed57600080fd5b5061025d610adf565b34801561040257600080fd5b5061027f610d00565b34801561041757600080fd5b50610420610d47565b60405161028997969594939291906121e2565b34801561043f57600080fd5b50600154600160a01b900460ff165b6040519015158152602001610289565b34801561046a57600080fd5b5061025d610479366004611fb0565b610e3f565b34801561048a57600080fd5b5061025d6104993660046120a6565b610f21565b3480156104aa57600080fd5b5061044e6104b9366004611f94565b6001600160a01b03166000908152600a602052604090206001015460ff1690565b3480156104e657600080fd5b5061027f6104f5366004611f94565b610f2e565b34801561050657600080fd5b5061025d6105153660046120a6565b611047565b34801561052657600080fd5b5061025d610535366004611f94565b6110a1565b34801561054657600080fd5b5061025d611113565b34801561055b57600080fd5b5061025d61056a3660046120a6565b611125565b34801561057b57600080fd5b5061027f60045481565b34801561059157600080fd5b5061025d61117f565b3480156105a657600080fd5b5061027f6105b5366004611f94565b61118f565b3480156105c657600080fd5b506001546001600160a01b03165b6040516001600160a01b039091168152602001610289565b3480156105f857600080fd5b5061027f6111ff565b34801561060d57600080fd5b5061027f60075481565b34801561062357600080fd5b506002546105d4906001600160a01b031681565b34801561064357600080fd5b5061025d610652366004611f94565b611220565b34801561066357600080fd5b5061027f610672366004611f94565b6112bb565b61025d6106853660046120a6565b611344565b34801561069657600080fd5b506003546105d4906001600160a01b031681565b3480156106b657600080fd5b506105d46106c53660046120a6565b611624565b3480156106d657600080fd5b5061027f6106e5366004611f94565b61164e565b3480156106f657600080fd5b5061025d6107053660046120a6565b611682565b34801561071657600080fd5b5061025d6107253660046120a6565b6116cc565b34801561073657600080fd5b5061027f60085481565b34801561074c57600080fd5b5061025d61075b366004611f94565b611716565b34801561076c57600080fd5b5061025d61077b366004611f94565b611766565b34801561078c57600080fd5b5061027f60065481565b3480156107a257600080fd5b50600c546105d4906001600160a01b031681565b3480156107c257600080fd5b50600b5461027f565b600c5460405163bbc3f7cf60e01b81526004810183905260009182916001600160a01b039091169063bbc3f7cf9060240160206040518083038186803b15801561081457600080fd5b505afa158015610828573d6000803e3d6000fd5b505050506040513d601f19601f8201168201806040525081019061084c91906120be565b6002549091506001600160a01b03166108995761089261271061088c670de0b6b3a7640000610886600f54866117df90919063ffffffff16565b906117df565b906117eb565b9392505050565b61089261271061088c600260009054906101000a90046001600160a01b03166001600160a01b031663313ce5676040518163ffffffff1660e01b815260040160206040518083038186803b1580156108f057600080fd5b505afa158015610904573d6000803e3d6000fd5b505050506040513d601f19601f8201168201806040525081019061092891906120d6565b61093390600a6122ad565b600f546108869086906117df565b600c54600d54600e54604051636002de6760e01b815260009384936001600160a01b0390911692636002de679261097e9288929091600401612192565b60206040518083038186803b15801561099657600080fd5b505afa1580156109aa573d6000803e3d6000fd5b505050506040513d601f19601f820116820180604052508101906109ce91906120be565b9050806109de5750600092915050565b610892816107cb565b6109ef6117f7565b6004544210610a195760405162461bcd60e51b8152600401610a10906121c6565b60405180910390fd5b600855565b600060075460095411610a3357506000919050565b6000610a3e8361164e565b90506000610a63670de0b6b3a764000061088c846007546117df90919063ffffffff16565b6001600160a01b0385166000908152600a6020526040902054909150610a979061271090610a919084611851565b90611851565b949350505050565b610aa76117f7565b610aaf61185d565b565b610ab96117f7565b6004544210610ada5760405162461bcd60e51b8152600401610a10906121c6565b600755565b60026000541415610b325760405162461bcd60e51b815260206004820152601f60248201527f5265656e7472616e637947756172643a207265656e7472616e742063616c6c006044820152606401610a10565b60026000556006544211610b7b5760405162461bcd60e51b815260206004820152601060248201526f6e6f7420686172766573742074696d6560801b6044820152606401610a10565b336000908152600a6020526040902054610bd05760405162461bcd60e51b81526020600482015260166024820152756861766520796f75207061727469636970617465643f60501b6044820152606401610a10565b336000908152600a602052604090206001015460ff1615610c285760405162461bcd60e51b81526020600482015260126024820152711b9bdd1a1a5b99c81d1bc81a185c9d995cdd60721b6044820152606401610a10565b610c306118b2565b6000610c3b3361118f565b90506000610c4833610a1e565b600354909150610c62906001600160a01b031633846118ff565b8015610c9e576002546001600160a01b0316610c8757610c823382611962565b610c9e565b600254610c9e906001600160a01b031633836118ff565b336000818152600a60209081526040918290206001908101805460ff1916909117905581518581529081018490527f71bab65ced2e5750775a0613be067df48ef06cf92a496ebf7663ae0660924954910160405180910390a250506001600055565b600060095460001415610d135750600090565b60075460095410610d25575060085490565b610d4260075461088c6009546008546117df90919063ffffffff16565b905090565b610d4f611f63565b610d57611f63565b6000806000806000610d67611f63565b6002546001600160a01b0316610de857604051806080016040528060006001600160a01b03168152602001601281526020016040518060400160405280600b81526020016a25b0b93234b0a1b430b4b760a91b8152508152602001604051806040016040528060038152602001624b414960e81b8152508152509050610e00565b600254610dfd906001600160a01b0316611a2b565b90505b600354600090610e18906001600160a01b0316611a2b565b600454600554600654600854600754969e949d50929b509099509750955091935090915050565b610e476117f7565b6001600160a01b038216610e8f576040516001600160a01b038216904780156108fc02916000818181858888f19350505050158015610e8a573d6000803e3d6000fd5b505050565b6040516370a0823160e01b8152306004820152610f1d9082906001600160a01b038516906370a082319060240160206040518083038186803b158015610ed457600080fd5b505afa158015610ee8573d6000803e3d6000fd5b505050506040513d601f19601f82011682018060405250810190610f0c91906120be565b6001600160a01b03851691906118ff565b5050565b610f296117f7565b600f55565b600c54600d54600e54604051636002de6760e01b815260009384936001600160a01b0390911692636002de6792610f6b9288929091600401612192565b60206040518083038186803b158015610f8357600080fd5b505afa158015610f97573d6000803e3d6000fd5b505050506040513d601f19601f82011682018060405250810190610fbb91906120be565b905080610fcb5750600092915050565b600c5460405163bbc3f7cf60e01b8152600481018390526001600160a01b039091169063bbc3f7cf9060240160206040518083038186803b15801561100f57600080fd5b505afa158015611023573d6000803e3d6000fd5b505050506040513d601f19601f8201168201806040525081019061089291906120be565b61104f6117f7565b428111801561105f575060065481105b61109c5760405162461bcd60e51b815260206004820152600e60248201526d74696d6520696e76616c6964212160901b6044820152606401610a10565b600555565b6110a96117f7565b42600554106110ef5760405162461bcd60e51b81526020600482015260126024820152711d1a5b59481a185cc81b9bdd08195b99195960721b6044820152606401610a10565b60006110f96111ff565b600354909150610f1d906001600160a01b031683836118ff565b61111b6117f7565b610aaf6000611bbd565b61112d6117f7565b428111801561113d575060055481115b61117a5760405162461bcd60e51b815260206004820152600e60248201526d74696d6520696e76616c6964212160901b6044820152606401610a10565b600655565b6111876117f7565b610aaf611c0f565b600060075460095411156111cb5760006111a88361164e565b9050610892670de0b6b3a764000061088c836008546117df90919063ffffffff16565b6007546008546001600160a01b0384166000908152600a60205260409020546111f9929161088c91906117df565b92915050565b60008061120a610d00565b60085490915061121a9082611851565b91505090565b6112286117f7565b426005541061126e5760405162461bcd60e51b81526020600482015260126024820152711d1a5b59481a185cc81b9bdd08195b99195960721b6044820152606401610a10565b60006007546009541061128357600754611287565b6009545b6002549091506001600160a01b03166112a457610f1d8282611962565b600254610f1d906001600160a01b031683836118ff565b600c54600d54600e54604051636002de6760e01b81526000936001600160a01b031692636002de67926112f49287929190600401612192565b60206040518083038186803b15801561130c57600080fd5b505afa158015611320573d6000803e3d6000fd5b505050506040513d601f19601f820116820180604052508101906111f991906120be565b600260005414156113975760405162461bcd60e51b815260206004820152601f60248201527f5265656e7472616e637947756172643a207265656e7472616e742063616c6c006044820152606401610a10565b60026000556004548190421180156113b0575060055442105b6113ef5760405162461bcd60e51b815260206004820152601060248201526f6e6f742072616973696e672074696d6560801b6044820152606401610a10565b600081116114325760405162461bcd60e51b815260206004820152601060248201526f06e656564205f616d6f756e74203e20360841b6044820152606401610a10565b61143a6118b2565b600061144533611c52565b336000908152600a6020526040902054909150811161149e5760405162461bcd60e51b81526020600482015260156024820152746e6f7420656c696769626c6520616d6f756e74212160581b6044820152606401610a10565b336000908152600a60205260408120546114b89083612377565b905083808210156114c65750805b6002546001600160a01b031661153a578034101561151a5760405162461bcd60e51b81526020600482015260116024820152700c2dadeeadce840dcdee840cadcdeeaced607b1b6044820152606401610a10565b8034111561153557611535336115308334612377565b611962565b611552565b600254611552906001600160a01b0316333084611ce3565b336000908152600a60205260409020546115a957600b80546001810182556000919091527f0175b7a638427703f0dbe7bb9bbf987a2551717b34e79f33b5b1008d1fa01db90180546001600160a01b031916331790555b336000908152600a60205260409020546115c39082611d21565b336000908152600a60205260409020556009546115e09082611d21565b60095560405181815233907fe1fffcc4923d04b559f4d29a8bfc6cda04eb5b0d3c460751c2402c5c5cc9109c9060200160405180910390a250506001600055505050565b600b818154811061163457600080fd5b6000918252602090912001546001600160a01b0316905081565b6009546001600160a01b0382166000908152600a602052604081205490916111f99161088c90670de0b6b3a76400006117df565b61168a6117f7565b600081116116c75760405162461bcd60e51b815260206004820152600a6024820152691259081a5b9d985b1a5960b21b6044820152606401610a10565b600e55565b6116d46117f7565b600081116117115760405162461bcd60e51b815260206004820152600a6024820152691259081a5b9d985b1a5960b21b6044820152606401610a10565b600d55565b61171e6117f7565b6001600160a01b0381166117445760405162461bcd60e51b8152600401610a10906121c6565b600380546001600160a01b0319166001600160a01b0392909216919091179055565b61176e6117f7565b6001600160a01b0381166117d35760405162461bcd60e51b815260206004820152602660248201527f4f776e61626c653a206e6577206f776e657220697320746865207a65726f206160448201526564647265737360d01b6064820152608401610a10565b6117dc81611bbd565b50565b60006108928284612358565b6000610892828461224a565b6001546001600160a01b03163314610aaf5760405162461bcd60e51b815260206004820181905260248201527f4f776e61626c653a2063616c6c6572206973206e6f7420746865206f776e65726044820152606401610a10565b60006108928284612377565b611865611d2d565b6001805460ff60a01b191690557f5db9ee0a495bf2e6ff9c91a7834c1ba4fdd244a5e8aa4e537bd38aeae4b073aa335b6040516001600160a01b03909116815260200160405180910390a1565b600154600160a01b900460ff1615610aaf5760405162461bcd60e51b815260206004820152601060248201526f14185d5cd8589b194e881c185d5cd95960821b6044820152606401610a10565b6040516001600160a01b038316602482015260448101829052610e8a90849063a9059cbb60e01b906064015b60408051601f198184030181529190526020810180516001600160e01b03166001600160e01b031990931692909217909152611d7d565b604080516000808252602082019092526001600160a01b03841690839060405161198c9190612176565b60006040518083038185875af1925050503d80600081146119c9576040519150601f19603f3d011682016040523d82523d6000602084013e6119ce565b606091505b5050905080610e8a5760405162461bcd60e51b815260206004820152602360248201527f5472616e7366657248656c7065723a204b41495f5452414e534645525f46414960448201526213115160ea1b6064820152608401610a10565b611a33611f63565b6040518060800160405280836001600160a01b03168152602001836001600160a01b031663313ce5676040518163ffffffff1660e01b815260040160206040518083038186803b158015611a8657600080fd5b505afa158015611a9a573d6000803e3d6000fd5b505050506040513d601f19601f82011682018060405250810190611abe91906120d6565b60ff168152602001836001600160a01b03166306fdde036040518163ffffffff1660e01b815260040160006040518083038186803b158015611aff57600080fd5b505afa158015611b13573d6000803e3d6000fd5b505050506040513d6000823e601f3d908101601f19168201604052611b3b9190810190612008565b8152602001836001600160a01b03166395d89b416040518163ffffffff1660e01b815260040160006040518083038186803b158015611b7957600080fd5b505afa158015611b8d573d6000803e3d6000fd5b505050506040513d6000823e601f3d908101601f19168201604052611bb59190810190612008565b905292915050565b600180546001600160a01b038381166001600160a01b0319831681179093556040519116919082907f8be0079c531659141344cd1fd0a4f28419497f9722a3daafe3b4186f6b6457e090600090a35050565b611c176118b2565b6001805460ff60a01b1916600160a01b1790557f62e78cea01bee320cd4e420270b5ea74000d11b0c9f74754ebdbfc544b05a2586118953390565b600080600d54118015611c685750600d54600e54115b611caa5760405162461bcd60e51b815260206004820152601360248201527214db985c1cda1bdd081a59081b9bdd081cd95d606a1b6044820152606401610a10565b600c54600d54600e54604051636002de6760e01b81526000936001600160a01b031692636002de679261097e9288929190600401612192565b6040516001600160a01b0380851660248301528316604482015260648101829052611d1b9085906323b872dd60e01b9060840161192b565b50505050565b60006108928284612232565b600154600160a01b900460ff16610aaf5760405162461bcd60e51b815260206004820152601460248201527314185d5cd8589b194e881b9bdd081c185d5cd95960621b6044820152606401610a10565b6000611dd2826040518060400160405280602081526020017f5361666545524332303a206c6f772d6c6576656c2063616c6c206661696c6564815250856001600160a01b0316611e4f9092919063ffffffff16565b805190915015610e8a5780806020019051810190611df09190611fe8565b610e8a5760405162461bcd60e51b815260206004820152602a60248201527f5361666545524332303a204552433230206f7065726174696f6e20646964206e6044820152691bdd081cdd58d8d9595960b21b6064820152608401610a10565b6060610a978484600085856001600160a01b0385163b611eb15760405162461bcd60e51b815260206004820152601d60248201527f416464726573733a2063616c6c20746f206e6f6e2d636f6e74726163740000006044820152606401610a10565b600080866001600160a01b03168587604051611ecd9190612176565b60006040518083038185875af1925050503d8060008114611f0a576040519150601f19603f3d011682016040523d82523d6000602084013e611f0f565b606091505b5091509150611f1f828286611f2a565b979650505050505050565b60608315611f39575081610892565b825115611f495782518084602001fd5b8160405162461bcd60e51b8152600401610a1091906121b3565b604051806080016040528060006001600160a01b031681526020016000815260200160608152602001606081525090565b600060208284031215611fa5578081fd5b8135610892816123e6565b60008060408385031215611fc2578081fd5b8235611fcd816123e6565b91506020830135611fdd816123e6565b809150509250929050565b600060208284031215611ff9578081fd5b81518015158114610892578182fd5b600060208284031215612019578081fd5b815167ffffffffffffffff80821115612030578283fd5b818401915084601f830112612043578283fd5b815181811115612055576120556123d0565b604051601f8201601f19908116603f0116810190838211818310171561207d5761207d6123d0565b81604052828152876020848701011115612095578586fd5b611f1f83602083016020880161238e565b6000602082840312156120b7578081fd5b5035919050565b6000602082840312156120cf578081fd5b5051919050565b6000602082840312156120e7578081fd5b815160ff81168114610892578182fd5b6000815180845261210f81602086016020860161238e565b601f01601f19169290920160200192915050565b60018060a01b03815116825260208101516020830152600060408201516080604085015261215460808501826120f7565b90506060830151848203606086015261216d82826120f7565b95945050505050565b6000825161218881846020870161238e565b9190910192915050565b6001600160a01b039390931683526020830191909152604082015260600190565b60208152600061089260208301846120f7565b6020808252600290820152616e6f60f01b604082015260600190565b60e0815260006121f560e083018a612123565b8281036020840152612207818a612123565b604084019890985250506060810194909452608084019290925260a083015260c09091015292915050565b60008219821115612245576122456123ba565b500190565b60008261226557634e487b7160e01b81526012600452602481fd5b500490565b600181815b808511156122a557816000190482111561228b5761228b6123ba565b8085161561229857918102915b93841c939080029061226f565b509250929050565b600061089260ff8416836000826122c6575060016111f9565b816122d3575060006111f9565b81600181146122e957600281146122f35761230f565b60019150506111f9565b60ff841115612304576123046123ba565b50506001821b6111f9565b5060208310610133831016604e8410600b8410161715612332575081810a6111f9565b61233c838361226a565b8060001904821115612350576123506123ba565b029392505050565b6000816000190483118215151615612372576123726123ba565b500290565b600082821015612389576123896123ba565b500390565b60005b838110156123a9578181015183820152602001612391565b83811115611d1b5750506000910152565b634e487b7160e01b600052601160045260246000fd5b634e487b7160e01b600052604160045260246000fd5b6001600160a01b03811681146117dc57600080fdfea2646970667358221220cbe6557dbcb696649de17caa9f80dfdf3d44eb255488849674568d53cb88756a64736f6c63430008040033",
  "linkReferences": {},
  "deployedLinkReferences": {}
}