{
  "_format": "hh-sol-artifact-1",
  "contractName": "FundRaising",
  "sourceName": "contracts/launchpad/tier/FundRaising.sol",
  "abi": [
    {
      "inputs": [
        {
          "internalType": "contract ERC20",
          "name": "_buyToken",
          "type": "address"
        },
        {
          "internalType": "contract ERC20",
          "name": "_offeringToken",
          "type": "address"
        },
        {
          "internalType": "uint256",
          "name": "_startTime",
          "type": "uint256"
        },
        {
          "internalType": "uint256",
          "name": "_endTime",
          "type": "uint256"
        },
        {
          "internalType": "uint256",
          "name": "_harvestTime",
          "type": "uint256"
        },
        {
          "internalType": "uint256",
          "name": "_offeringAmount",
          "type": "uint256"
        },
        {
          "internalType": "uint256",
          "name": "_raisingAmount",
          "type": "uint256"
        },
        {
          "internalType": "contract ITierSystem",
          "name": "_tierSystem",
          "type": "address"
        },
        {
          "internalType": "uint256",
          "name": "_snapshotFrom",
          "type": "uint256"
        },
        {
          "internalType": "uint256",
          "name": "_snapshotTo",
          "type": "uint256"
        },
        {
          "internalType": "uint256",
          "name": "_multiplier",
          "type": "uint256"
        }
      ],
      "stateMutability": "nonpayable",
      "type": "constructor"
    },
    {
      "anonymous": false,
      "inputs": [
        {
          "indexed": true,
          "internalType": "address",
          "name": "user",
          "type": "address"
        },
        {
          "indexed": false,
          "internalType": "uint256",
          "name": "amount",
          "type": "uint256"
        }
      ],
      "name": "Deposit",
      "type": "event"
    },
    {
      "anonymous": false,
      "inputs": [
        {
          "indexed": true,
          "internalType": "address",
          "name": "user",
          "type": "address"
        },
        {
          "indexed": false,
          "internalType": "uint256",
          "name": "offeringAmount",
          "type": "uint256"
        },
        {
          "indexed": false,
          "internalType": "uint256",
          "name": "excessAmount",
          "type": "uint256"
        }
      ],
      "name": "Harvest",
      "type": "event"
    },
    {
      "anonymous": false,
      "inputs": [
        {
          "indexed": true,
          "internalType": "address",
          "name": "previousOwner",
          "type": "address"
        },
        {
          "indexed": true,
          "internalType": "address",
          "name": "newOwner",
          "type": "address"
        }
      ],
      "name": "OwnershipTransferred",
      "type": "event"
    },
    {
      "anonymous": false,
      "inputs": [
        {
          "indexed": false,
          "internalType": "address",
          "name": "account",
          "type": "address"
        }
      ],
      "name": "Paused",
      "type": "event"
    },
    {
      "anonymous": false,
      "inputs": [
        {
          "indexed": false,
          "internalType": "address",
          "name": "account",
          "type": "address"
        }
      ],
      "name": "Unpaused",
      "type": "event"
    },
    {
      "inputs": [
        {
          "internalType": "uint256",
          "name": "",
          "type": "uint256"
        }
      ],
      "name": "addressList",
      "outputs": [
        {
          "internalType": "address",
          "name": "",
          "type": "address"
        }
      ],
      "stateMutability": "view",
      "type": "function"
    },
    {
      "inputs": [
        {
          "internalType": "uint256",
          "name": "_tier",
          "type": "uint256"
        }
      ],
      "name": "allocations",
      "outputs": [
        {
          "internalType": "uint256",
          "name": "",
          "type": "uint256"
        }
      ],
      "stateMutability": "view",
      "type": "function"
    },
    {
      "inputs": [],
      "name": "buyToken",
      "outputs": [
        {
          "internalType": "contract ERC20",
          "name": "",
          "type": "address"
        }
      ],
      "stateMutability": "view",
      "type": "function"
    },
    {
      "inputs": [
        {
          "internalType": "uint256",
          "name": "_amount",
          "type": "uint256"
        }
      ],
      "name": "deposit",
      "outputs": [],
      "stateMutability": "payable",
      "type": "function"
    },
    {
      "inputs": [
        {
          "internalType": "address",
          "name": "token",
          "type": "address"
        },
        {
          "internalType": "address payable",
          "name": "to",
          "type": "address"
        }
      ],
      "name": "emergencyWithdraw",
      "outputs": [],
      "stateMutability": "nonpayable",
      "type": "function"
    },
    {
      "inputs": [],
      "name": "endTime",
      "outputs": [
        {
          "internalType": "uint256",
          "name": "",
          "type": "uint256"
        }
      ],
      "stateMutability": "view",
      "type": "function"
    },
    {
      "inputs": [
        {
          "internalType": "address",
          "name": "_destination",
          "type": "address"
        }
      ],
      "name": "finalWithdraw",
      "outputs": [],
      "stateMutability": "nonpayable",
      "type": "function"
    },
    {
      "inputs": [],
      "name": "getAddressListLength",
      "outputs": [
        {
          "internalType": "uint256",
          "name": "",
          "type": "uint256"
        }
      ],
      "stateMutability": "view",
      "type": "function"
    },
    {
      "inputs": [
        {
          "internalType": "address",
          "name": "_account",
          "type": "address"
        }
      ],
      "name": "getAllocation",
      "outputs": [
        {
          "internalType": "uint256",
          "name": "",
          "type": "uint256"
        }
      ],
      "stateMutability": "view",
      "type": "function"
    },
    {
      "inputs": [
        {
          "internalType": "address",
          "name": "_account",
          "type": "address"
        }
      ],
      "name": "getAllocationPoint",
      "outputs": [
        {
          "internalType": "uint256",
          "name": "",
          "type": "uint256"
        }
      ],
      "stateMutability": "view",
      "type": "function"
    },
    {
      "inputs": [],
      "name": "getInfo",
      "outputs": [
        {
          "components": [
            {
              "internalType": "contract ERC20",
              "name": "token",
              "type": "address"
            },
            {
              "internalType": "uint256",
              "name": "decimals",
              "type": "uint256"
            },
            {
              "internalType": "string",
              "name": "name",
              "type": "string"
            },
            {
              "internalType": "string",
              "name": "symbol",
              "type": "string"
            }
          ],
          "internalType": "struct FundRaising.TokenInfo",
          "name": "",
          "type": "tuple"
        },
        {
          "components": [
            {
              "internalType": "contract ERC20",
              "name": "token",
              "type": "address"
            },
            {
              "internalType": "uint256",
              "name": "decimals",
              "type": "uint256"
            },
            {
              "internalType": "string",
              "name": "name",
              "type": "string"
            },
            {
              "internalType": "string",
              "name": "symbol",
              "type": "string"
            }
          ],
          "internalType": "struct FundRaising.TokenInfo",
          "name": "",
          "type": "tuple"
        },
        {
          "internalType": "uint256",
          "name": "",
          "type": "uint256"
        },
        {
          "internalType": "uint256",
          "name": "",
          "type": "uint256"
        },
        {
          "internalType": "uint256",
          "name": "",
          "type": "uint256"
        },
        {
          "internalType": "uint256",
          "name": "",
          "type": "uint256"
        },
        {
          "internalType": "uint256",
          "name": "",
          "type": "uint256"
        }
      ],
      "stateMutability": "view",
      "type": "function"
    },
    {
      "inputs": [
        {
          "internalType": "address",
          "name": "_user",
          "type": "address"
        }
      ],
      "name": "getOfferingAmount",
      "outputs": [
        {
          "internalType": "uint256",
          "name": "",
          "type": "uint256"
        }
      ],
      "stateMutability": "view",
      "type": "function"
    },
    {
      "inputs": [
        {
          "internalType": "address",
          "name": "_user",
          "type": "address"
        }
      ],
      "name": "getRefundingAmount",
      "outputs": [
        {
          "internalType": "uint256",
          "name": "",
          "type": "uint256"
        }
      ],
      "stateMutability": "view",
      "type": "function"
    },
    {
      "inputs": [
        {
          "internalType": "address",
          "name": "_account",
          "type": "address"
        }
      ],
      "name": "getTier",
      "outputs": [
        {
          "internalType": "uint256",
          "name": "",
          "type": "uint256"
        }
      ],
      "stateMutability": "view",
      "type": "function"
    },
    {
      "inputs": [
        {
          "internalType": "address",
          "name": "_user",
          "type": "address"
        }
      ],
      "name": "getUserAllocation",
      "outputs": [
        {
          "internalType": "uint256",
          "name": "",
          "type": "uint256"
        }
      ],
      "stateMutability": "view",
      "type": "function"
    },
    {
      "inputs": [],
      "name": "harvest",
      "outputs": [],
      "stateMutability": "nonpayable",
      "type": "function"
    },
    {
      "inputs": [],
      "name": "harvestTime",
      "outputs": [
        {
          "internalType": "uint256",
          "name": "",
          "type": "uint256"
        }
      ],
      "stateMutability": "view",
      "type": "function"
    },
    {
      "inputs": [
        {
          "internalType": "address",
          "name": "_user",
          "type": "address"
        }
      ],
      "name": "hasHarvest",
      "outputs": [
        {
          "internalType": "bool",
          "name": "",
          "type": "bool"
        }
      ],
      "stateMutability": "view",
      "type": "function"
    },
    {
      "inputs": [],
      "name": "multiplier",
      "outputs": [
        {
          "internalType": "uint256",
          "name": "",
          "type": "uint256"
        }
      ],
      "stateMutability": "view",
      "type": "function"
    },
    {
      "inputs": [],
      "name": "offeringAmount",
      "outputs": [
        {
          "internalType": "uint256",
          "name": "",
          "type": "uint256"
        }
      ],
      "stateMutability": "view",
      "type": "function"
    },
    {
      "inputs": [],
      "name": "offeringToken",
      "outputs": [
        {
          "internalType": "contract ERC20",
          "name": "",
          "type": "address"
        }
      ],
      "stateMutability": "view",
      "type": "function"
    },
    {
      "inputs": [],
      "name": "owner",
      "outputs": [
        {
          "internalType": "address",
          "name": "",
          "type": "address"
        }
      ],
      "stateMutability": "view",
      "type": "function"
    },
    {
      "inputs": [],
      "name": "pause",
      "outputs": [],
      "stateMutability": "nonpayable",
      "type": "function"
    },
    {
      "inputs": [],
      "name": "paused",
      "outputs": [
        {
          "internalType": "bool",
          "name": "",
          "type": "bool"
        }
      ],
      "stateMutability": "view",
      "type": "function"
    },
    {
      "inputs": [],
      "name": "raisingAmount",
      "outputs": [
        {
          "internalType": "uint256",
          "name": "",
          "type": "uint256"
        }
      ],
      "stateMutability": "view",
      "type": "function"
    },
    {
      "inputs": [],
      "name": "renounceOwnership",
      "outputs": [],
      "stateMutability": "nonpayable",
      "type": "function"
    },
    {
      "inputs": [
        {
          "internalType": "uint256",
          "name": "_offerAmount",
          "type": "uint256"
        }
      ],
      "name": "setOfferingAmount",
      "outputs": [],
      "stateMutability": "nonpayable",
      "type": "function"
    },
    {
      "inputs": [
        {
          "internalType": "uint256",
          "name": "_raisingAmount",
          "type": "uint256"
        }
      ],
      "name": "setRaisingAmount",
      "outputs": [],
      "stateMutability": "nonpayable",
      "type": "function"
    },
    {
      "inputs": [
        {
          "internalType": "uint256",
          "name": "id",
          "type": "uint256"
        }
      ],
      "name": "setSnapshotFrom",
      "outputs": [],
      "stateMutability": "nonpayable",
      "type": "function"
    },
    {
      "inputs": [
        {
          "internalType": "uint256",
          "name": "id",
          "type": "uint256"
        }
      ],
      "name": "setSnapshotTo",
      "outputs": [],
      "stateMutability": "nonpayable",
      "type": "function"
    },
    {
      "inputs": [],
      "name": "snapshotFrom",
      "outputs": [
        {
          "internalType": "uint256",
          "name": "",
          "type": "uint256"
        }
      ],
      "stateMutability": "view",
      "type": "function"
    },
    {
      "inputs": [],
      "name": "snapshotTo",
      "outputs": [
        {
          "internalType": "uint256",
          "name": "",
          "type": "uint256"
        }
      ],
      "stateMutability": "view",
      "type": "function"
    },
    {
      "inputs": [],
      "name": "startTime",
      "outputs": [
        {
          "internalType": "uint256",
          "name": "",
          "type": "uint256"
        }
      ],
      "stateMutability": "view",
      "type": "function"
    },
    {
      "inputs": [],
      "name": "tierSystem",
      "outputs": [
        {
          "internalType": "contract ITierSystem",
          "name": "",
          "type": "address"
        }
      ],
      "stateMutability": "view",
      "type": "function"
    },
    {
      "inputs": [],
      "name": "totalAmount",
      "outputs": [
        {
          "internalType": "uint256",
          "name": "",
          "type": "uint256"
        }
      ],
      "stateMutability": "view",
      "type": "function"
    },
    {
      "inputs": [
        {
          "internalType": "address",
          "name": "newOwner",
          "type": "address"
        }
      ],
      "name": "transferOwnership",
      "outputs": [],
      "stateMutability": "nonpayable",
      "type": "function"
    },
    {
      "inputs": [],
      "name": "unpause",
      "outputs": [],
      "stateMutability": "nonpayable",
      "type": "function"
    },
    {
      "inputs": [
        {
          "internalType": "uint256",
          "name": "_newTime",
          "type": "uint256"
        }
      ],
      "name": "updateEndTime",
      "outputs": [],
      "stateMutability": "nonpayable",
      "type": "function"
    },
    {
      "inputs": [
        {
          "internalType": "uint256",
          "name": "_newTime",
          "type": "uint256"
        }
      ],
      "name": "updateHarvestTime",
      "outputs": [],
      "stateMutability": "nonpayable",
      "type": "function"
    },
    {
      "inputs": [
        {
          "internalType": "address",
          "name": "",
          "type": "address"
        }
      ],
      "name": "userInfo",
      "outputs": [
        {
          "internalType": "uint256",
          "name": "amount",
          "type": "uint256"
        },
        {
          "internalType": "bool",
          "name": "claimed",
          "type": "bool"
        }
      ],
      "stateMutability": "view",
      "type": "function"
    }
  ],
  "bytecode": "0x60806040523480156200001157600080fd5b50604051620026243803806200262483398101604081905262000034916200013a565b60016000556200004433620000e8565b6001805460ff60a01b191690558787108015906200006157508888115b80156200006d57504289115b6200007757600080fd5b600280546001600160a01b03199081166001600160a01b039d8e16179091556003805482169b8d169b909b17909a556004989098556005969096556006949094556008929092556007556000600955600c8054909516951694909417909255600d92909255600e55600f55620001f8565b600180546001600160a01b038381166001600160a01b0319831681179093556040519116919082907f8be0079c531659141344cd1fd0a4f28419497f9722a3daafe3b4186f6b6457e090600090a35050565b60008060008060008060008060008060006101608c8e0312156200015c578687fd5b8b516200016981620001df565b60208d0151909b506200017c81620001df565b809a505060408c0151985060608c0151975060808c0151965060a08c0151955060c08c0151945060e08c0151620001b381620001df565b809450506101008c015192506101208c015191506101408c015190509295989b509295989b9093969950565b6001600160a01b0381168114620001f557600080fd5b50565b61241c80620002086000396000f3fe60806040526004361061023b5760003560e01c806376ea6ee01161012e578063b7813607116100ab578063e1af9a951161006f578063e1af9a95146106a3578063f2fde38b146106b9578063f4808210146106d9578063f8caa7e5146106ef578063fc00358e1461070f57600080fd5b8063b781360714610603578063b810fb4314610623578063b920ade214610643578063c2c9721b14610663578063d16bba941461068357600080fd5b80639c0a7669116100f25780639c0a76691461057a578063a482171914610590578063ac3ff912146105b0578063b45aae52146105d0578063b6b55f25146105f057600080fd5b806376ea6ee0146104dd57806378e97925146104fd5780638456cb591461051357806387e97bc6146105285780638da5cb5b1461054857600080fd5b80633f4ba83a116101bc5780636382d9ad116101805780636382d9ad1461042c57806364ce9fff1461044c5780636a2ce513146104885780636ab3846b146104a8578063715018a6146104c857600080fd5b80633f4ba83a1461038f5780634225c32f146103a45780634641257d146103c45780635a9b0b89146103d95780635c975abb1461040157600080fd5b806322b331751161020357806322b331751461030b57806327d1b1a2146103215780632f5105f8146103435780633197cbb614610363578063343e31f51461037957600080fd5b80630a2642bf146102405780630e022923146102735780631959a002146102935780631a39d8ef146102df5780631b3ed722146102f5575b600080fd5b34801561024c57600080fd5b5061026061025b36600461204e565b610724565b6040519081526020015b60405180910390f35b34801561027f57600080fd5b5061026061028e366004611f3c565b61089a565b34801561029f57600080fd5b506102ca6102ae366004611f3c565b600a602052600090815260409020805460019091015460ff1682565b6040805192835290151560208301520161026a565b3480156102eb57600080fd5b5061026060095481565b34801561030157600080fd5b50610260600f5481565b34801561031757600080fd5b50610260600e5481565b34801561032d57600080fd5b5061034161033c36600461204e565b610940565b005b34801561034f57600080fd5b5061026061035e366004611f3c565b6109ae565b34801561036f57600080fd5b5061026060055481565b34801561038557600080fd5b50610260600d5481565b34801561039b57600080fd5b50610341610a21565b3480156103b057600080fd5b506103416103bf36600461204e565b610a55565b3480156103d057600080fd5b50610341610aba565b3480156103e557600080fd5b506103ee610cfd565b60405161026a97969594939291906121cd565b34801561040d57600080fd5b50600154600160a01b900460ff165b604051901515815260200161026a565b34801561043857600080fd5b50610341610447366004611f58565b610df5565b34801561045857600080fd5b5061041c610467366004611f3c565b6001600160a01b03166000908152600a602052604090206001015460ff1690565b34801561049457600080fd5b506102606104a3366004611f3c565b610ef9565b3480156104b457600080fd5b506103416104c336600461204e565b611012565b3480156104d457600080fd5b5061034161108e565b3480156104e957600080fd5b506103416104f836600461204e565b6110c2565b34801561050957600080fd5b5061026060045481565b34801561051f57600080fd5b5061034161113e565b34801561053457600080fd5b50610260610543366004611f3c565b611170565b34801561055457600080fd5b506001546001600160a01b03165b6040516001600160a01b03909116815260200161026a565b34801561058657600080fd5b5061026060075481565b34801561059c57600080fd5b50600254610562906001600160a01b031681565b3480156105bc57600080fd5b506103416105cb366004611f3c565b6111e0565b3480156105dc57600080fd5b506102606105eb366004611f3c565b6112bb565b6103416105fe36600461204e565b611344565b34801561060f57600080fd5b50600354610562906001600160a01b031681565b34801561062f57600080fd5b5061056261063e36600461204e565b611646565b34801561064f57600080fd5b5061026061065e366004611f3c565b611670565b34801561066f57600080fd5b5061034161067e36600461204e565b6116a4565b34801561068f57600080fd5b5061034161069e36600461204e565b611710565b3480156106af57600080fd5b5061026060085481565b3480156106c557600080fd5b506103416106d4366004611f3c565b61177c565b3480156106e557600080fd5b5061026060065481565b3480156106fb57600080fd5b50600c54610562906001600160a01b031681565b34801561071b57600080fd5b50600b54610260565b600c5460405163bbc3f7cf60e01b81526004810183905260009182916001600160a01b039091169063bbc3f7cf9060240160206040518083038186803b15801561076d57600080fd5b505afa158015610781573d6000803e3d6000fd5b505050506040513d601f19601f820116820180604052508101906107a59190612066565b6002549091506001600160a01b03166107f2576107eb6127106107e5670de0b6b3a76400006107df600f548661181490919063ffffffff16565b90611814565b90611820565b9392505050565b6107eb6127106107e5600260009054906101000a90046001600160a01b03166001600160a01b031663313ce5676040518163ffffffff1660e01b815260040160206040518083038186803b15801561084957600080fd5b505afa15801561085d573d6000803e3d6000fd5b505050506040513d601f19601f82011682018060405250810190610881919061207e565b61088c90600a612298565b600f546107df908690611814565b600c54600d54600e54604051636002de6760e01b815260009384936001600160a01b0390911692636002de67926108d7928892909160040161213a565b60206040518083038186803b1580156108ef57600080fd5b505afa158015610903573d6000803e3d6000fd5b505050506040513d601f19601f820116820180604052508101906109279190612066565b9050806109375750600092915050565b6107eb81610724565b6001546001600160a01b031633146109735760405162461bcd60e51b815260040161096a90612198565b60405180910390fd5b60045442106109a95760405162461bcd60e51b81526020600482015260026024820152616e6f60f01b604482015260640161096a565b600855565b6000600754600954116109c357506000919050565b60006109ce83611670565b905060006109f3670de0b6b3a76400006107e58460075461181490919063ffffffff16565b6001600160a01b0385166000908152600a6020526040902054909150610a19908261182c565b949350505050565b6001546001600160a01b03163314610a4b5760405162461bcd60e51b815260040161096a90612198565b610a53611838565b565b6001546001600160a01b03163314610a7f5760405162461bcd60e51b815260040161096a90612198565b6004544210610ab55760405162461bcd60e51b81526020600482015260026024820152616e6f60f01b604482015260640161096a565b600755565b60026000541415610b0d5760405162461bcd60e51b815260206004820152601f60248201527f5265656e7472616e637947756172643a207265656e7472616e742063616c6c00604482015260640161096a565b60026000556006544211610b565760405162461bcd60e51b815260206004820152601060248201526f6e6f7420686172766573742074696d6560801b604482015260640161096a565b336000908152600a6020526040902054610bab5760405162461bcd60e51b81526020600482015260166024820152756861766520796f75207061727469636970617465643f60501b604482015260640161096a565b336000908152600a602052604090206001015460ff1615610c035760405162461bcd60e51b81526020600482015260126024820152711b9bdd1a1a5b99c81d1bc81a185c9d995cdd60721b604482015260640161096a565b600154600160a01b900460ff1615610c2d5760405162461bcd60e51b815260040161096a9061216e565b6000610c3833611170565b90506000610c45336109ae565b600354909150610c5f906001600160a01b031633846118d5565b8015610c9b576002546001600160a01b0316610c8457610c7f3382611938565b610c9b565b600254610c9b906001600160a01b031633836118d5565b336000818152600a60209081526040918290206001908101805460ff1916909117905581518581529081018490527f71bab65ced2e5750775a0613be067df48ef06cf92a496ebf7663ae0660924954910160405180910390a250506001600055565b610d05611f0b565b610d0d611f0b565b6000806000806000610d1d611f0b565b6002546001600160a01b0316610d9e57604051806080016040528060006001600160a01b03168152602001601281526020016040518060400160405280600b81526020016a25b0b93234b0a1b430b4b760a91b8152508152602001604051806040016040528060038152602001624b414960e81b8152508152509050610db6565b600254610db3906001600160a01b0316611a01565b90505b600354600090610dce906001600160a01b0316611a01565b600454600554600654600854600754969e949d50929b509099509750955091935090915050565b6001546001600160a01b03163314610e1f5760405162461bcd60e51b815260040161096a90612198565b6001600160a01b038216610e67576040516001600160a01b038216904780156108fc02916000818181858888f19350505050158015610e62573d6000803e3d6000fd5b505050565b6040516370a0823160e01b8152306004820152610ef59082906001600160a01b038516906370a082319060240160206040518083038186803b158015610eac57600080fd5b505afa158015610ec0573d6000803e3d6000fd5b505050506040513d601f19601f82011682018060405250810190610ee49190612066565b6001600160a01b03851691906118d5565b5050565b600c54600d54600e54604051636002de6760e01b815260009384936001600160a01b0390911692636002de6792610f36928892909160040161213a565b60206040518083038186803b158015610f4e57600080fd5b505afa158015610f62573d6000803e3d6000fd5b505050506040513d601f19601f82011682018060405250810190610f869190612066565b905080610f965750600092915050565b600c5460405163bbc3f7cf60e01b8152600481018390526001600160a01b039091169063bbc3f7cf9060240160206040518083038186803b158015610fda57600080fd5b505afa158015610fee573d6000803e3d6000fd5b505050506040513d601f19601f820116820180604052508101906107eb9190612066565b6001546001600160a01b0316331461103c5760405162461bcd60e51b815260040161096a90612198565b428111801561104c575060065481105b6110895760405162461bcd60e51b815260206004820152600e60248201526d74696d6520696e76616c6964212160901b604482015260640161096a565b600555565b6001546001600160a01b031633146110b85760405162461bcd60e51b815260040161096a90612198565b610a536000611b93565b6001546001600160a01b031633146110ec5760405162461bcd60e51b815260040161096a90612198565b42811180156110fc575060055481115b6111395760405162461bcd60e51b815260206004820152600e60248201526d74696d6520696e76616c6964212160901b604482015260640161096a565b600655565b6001546001600160a01b031633146111685760405162461bcd60e51b815260040161096a90612198565b610a53611be5565b600060075460095411156111ac57600061118983611670565b90506107eb670de0b6b3a76400006107e58360085461181490919063ffffffff16565b6007546008546001600160a01b0384166000908152600a60205260409020546111da92916107e59190611814565b92915050565b6001546001600160a01b0316331461120a5760405162461bcd60e51b815260040161096a90612198565b6002546001600160a01b0316611227576112248147611938565b50565b6002546040516370a0823160e01b81523060048201526112249183916001600160a01b03909116906370a082319060240160206040518083038186803b15801561127057600080fd5b505afa158015611284573d6000803e3d6000fd5b505050506040513d601f19601f820116820180604052508101906112a89190612066565b6002546001600160a01b031691906118d5565b600c54600d54600e54604051636002de6760e01b81526000936001600160a01b031692636002de67926112f4928792919060040161213a565b60206040518083038186803b15801561130c57600080fd5b505afa158015611320573d6000803e3d6000fd5b505050506040513d601f19601f820116820180604052508101906111da9190612066565b600260005414156113975760405162461bcd60e51b815260206004820152601f60248201527f5265656e7472616e637947756172643a207265656e7472616e742063616c6c00604482015260640161096a565b60026000556004548190421180156113b0575060055442105b6113ef5760405162461bcd60e51b815260206004820152601060248201526f6e6f742072616973696e672074696d6560801b604482015260640161096a565b600081116114325760405162461bcd60e51b815260206004820152601060248201526f06e656564205f616d6f756e74203e20360841b604482015260640161096a565b600154600160a01b900460ff161561145c5760405162461bcd60e51b815260040161096a9061216e565b600061146733611c4a565b336000908152600a602052604090205490915081116114c05760405162461bcd60e51b81526020600482015260156024820152746e6f7420656c696769626c6520616d6f756e74212160581b604482015260640161096a565b336000908152600a60205260408120546114da9083612362565b905083808210156114e85750805b6002546001600160a01b031661155c578034101561153c5760405162461bcd60e51b81526020600482015260116024820152700c2dadeeadce840dcdee840cadcdeeaced607b1b604482015260640161096a565b8034111561155757611557336115528334612362565b611938565b611574565b600254611574906001600160a01b0316333084611cdb565b336000908152600a60205260409020546115cb57600b80546001810182556000919091527f0175b7a638427703f0dbe7bb9bbf987a2551717b34e79f33b5b1008d1fa01db90180546001600160a01b031916331790555b336000908152600a60205260409020546115e59082611d19565b336000908152600a60205260409020556009546116029082611d19565b60095560405181815233907fe1fffcc4923d04b559f4d29a8bfc6cda04eb5b0d3c460751c2402c5c5cc9109c9060200160405180910390a250506001600055505050565b600b818154811061165657600080fd5b6000918252602090912001546001600160a01b0316905081565b6009546001600160a01b0382166000908152600a602052604081205490916111da916107e590670de0b6b3a7640000611814565b6001546001600160a01b031633146116ce5760405162461bcd60e51b815260040161096a90612198565b6000811161170b5760405162461bcd60e51b815260206004820152600a6024820152691259081a5b9d985b1a5960b21b604482015260640161096a565b600e55565b6001546001600160a01b0316331461173a5760405162461bcd60e51b815260040161096a90612198565b600081116117775760405162461bcd60e51b815260206004820152600a6024820152691259081a5b9d985b1a5960b21b604482015260640161096a565b600d55565b6001546001600160a01b031633146117a65760405162461bcd60e51b815260040161096a90612198565b6001600160a01b03811661180b5760405162461bcd60e51b815260206004820152602660248201527f4f776e61626c653a206e6577206f776e657220697320746865207a65726f206160448201526564647265737360d01b606482015260840161096a565b61122481611b93565b60006107eb8284612343565b60006107eb8284612235565b60006107eb8284612362565b600154600160a01b900460ff166118885760405162461bcd60e51b815260206004820152601460248201527314185d5cd8589b194e881b9bdd081c185d5cd95960621b604482015260640161096a565b6001805460ff60a01b191690557f5db9ee0a495bf2e6ff9c91a7834c1ba4fdd244a5e8aa4e537bd38aeae4b073aa335b6040516001600160a01b03909116815260200160405180910390a1565b6040516001600160a01b038316602482015260448101829052610e6290849063a9059cbb60e01b906064015b60408051601f198184030181529190526020810180516001600160e01b03166001600160e01b031990931692909217909152611d25565b604080516000808252602082019092526001600160a01b038416908390604051611962919061211e565b60006040518083038185875af1925050503d806000811461199f576040519150601f19603f3d011682016040523d82523d6000602084013e6119a4565b606091505b5050905080610e625760405162461bcd60e51b815260206004820152602360248201527f5472616e7366657248656c7065723a204b41495f5452414e534645525f46414960448201526213115160ea1b606482015260840161096a565b611a09611f0b565b6040518060800160405280836001600160a01b03168152602001836001600160a01b031663313ce5676040518163ffffffff1660e01b815260040160206040518083038186803b158015611a5c57600080fd5b505afa158015611a70573d6000803e3d6000fd5b505050506040513d601f19601f82011682018060405250810190611a94919061207e565b60ff168152602001836001600160a01b03166306fdde036040518163ffffffff1660e01b815260040160006040518083038186803b158015611ad557600080fd5b505afa158015611ae9573d6000803e3d6000fd5b505050506040513d6000823e601f3d908101601f19168201604052611b119190810190611fb0565b8152602001836001600160a01b03166395d89b416040518163ffffffff1660e01b815260040160006040518083038186803b158015611b4f57600080fd5b505afa158015611b63573d6000803e3d6000fd5b505050506040513d6000823e601f3d908101601f19168201604052611b8b9190810190611fb0565b905292915050565b600180546001600160a01b038381166001600160a01b0319831681179093556040519116919082907f8be0079c531659141344cd1fd0a4f28419497f9722a3daafe3b4186f6b6457e090600090a35050565b600154600160a01b900460ff1615611c0f5760405162461bcd60e51b815260040161096a9061216e565b6001805460ff60a01b1916600160a01b1790557f62e78cea01bee320cd4e420270b5ea74000d11b0c9f74754ebdbfc544b05a2586118b83390565b600080600d54118015611c605750600d54600e54115b611ca25760405162461bcd60e51b815260206004820152601360248201527214db985c1cda1bdd081a59081b9bdd081cd95d606a1b604482015260640161096a565b600c54600d54600e54604051636002de6760e01b81526000936001600160a01b031692636002de67926108d7928892919060040161213a565b6040516001600160a01b0380851660248301528316604482015260648101829052611d139085906323b872dd60e01b90608401611901565b50505050565b60006107eb828461221d565b6000611d7a826040518060400160405280602081526020017f5361666545524332303a206c6f772d6c6576656c2063616c6c206661696c6564815250856001600160a01b0316611df79092919063ffffffff16565b805190915015610e625780806020019051810190611d989190611f90565b610e625760405162461bcd60e51b815260206004820152602a60248201527f5361666545524332303a204552433230206f7065726174696f6e20646964206e6044820152691bdd081cdd58d8d9595960b21b606482015260840161096a565b6060610a198484600085856001600160a01b0385163b611e595760405162461bcd60e51b815260206004820152601d60248201527f416464726573733a2063616c6c20746f206e6f6e2d636f6e7472616374000000604482015260640161096a565b600080866001600160a01b03168587604051611e75919061211e565b60006040518083038185875af1925050503d8060008114611eb2576040519150601f19603f3d011682016040523d82523d6000602084013e611eb7565b606091505b5091509150611ec7828286611ed2565b979650505050505050565b60608315611ee15750816107eb565b825115611ef15782518084602001fd5b8160405162461bcd60e51b815260040161096a919061215b565b604051806080016040528060006001600160a01b031681526020016000815260200160608152602001606081525090565b600060208284031215611f4d578081fd5b81356107eb816123d1565b60008060408385031215611f6a578081fd5b8235611f75816123d1565b91506020830135611f85816123d1565b809150509250929050565b600060208284031215611fa1578081fd5b815180151581146107eb578182fd5b600060208284031215611fc1578081fd5b815167ffffffffffffffff80821115611fd8578283fd5b818401915084601f830112611feb578283fd5b815181811115611ffd57611ffd6123bb565b604051601f8201601f19908116603f01168101908382118183101715612025576120256123bb565b8160405282815287602084870101111561203d578586fd5b611ec7836020830160208801612379565b60006020828403121561205f578081fd5b5035919050565b600060208284031215612077578081fd5b5051919050565b60006020828403121561208f578081fd5b815160ff811681146107eb578182fd5b600081518084526120b7816020860160208601612379565b601f01601f19169290920160200192915050565b60018060a01b0381511682526020810151602083015260006040820151608060408501526120fc608085018261209f565b905060608301518482036060860152612115828261209f565b95945050505050565b60008251612130818460208701612379565b9190910192915050565b6001600160a01b039390931683526020830191909152604082015260600190565b6020815260006107eb602083018461209f565b60208082526010908201526f14185d5cd8589b194e881c185d5cd95960821b604082015260600190565b6020808252818101527f4f776e61626c653a2063616c6c6572206973206e6f7420746865206f776e6572604082015260600190565b60e0815260006121e060e083018a6120cb565b82810360208401526121f2818a6120cb565b604084019890985250506060810194909452608084019290925260a083015260c09091015292915050565b60008219821115612230576122306123a5565b500190565b60008261225057634e487b7160e01b81526012600452602481fd5b500490565b600181815b80851115612290578160001904821115612276576122766123a5565b8085161561228357918102915b93841c939080029061225a565b509250929050565b60006107eb60ff8416836000826122b1575060016111da565b816122be575060006111da565b81600181146122d457600281146122de576122fa565b60019150506111da565b60ff8411156122ef576122ef6123a5565b50506001821b6111da565b5060208310610133831016604e8410600b841016171561231d575081810a6111da565b6123278383612255565b806000190482111561233b5761233b6123a5565b029392505050565b600081600019048311821515161561235d5761235d6123a5565b500290565b600082821015612374576123746123a5565b500390565b60005b8381101561239457818101518382015260200161237c565b83811115611d135750506000910152565b634e487b7160e01b600052601160045260246000fd5b634e487b7160e01b600052604160045260246000fd5b6001600160a01b038116811461122457600080fdfea2646970667358221220646c942a15f7a9a4ec2c41a1e4eb4c918dcf46f326b977997b24f4ba758cb33c64736f6c63430008040033",
  "linkReferences": {},
  "deployedLinkReferences": {}
}