{
  "_format": "hh-sol-artifact-1",
  "contractName": "FundRaising",
  "sourceName": "contracts/launchpad/tier/FundRaising.sol",
  "abi": [
    {
      "inputs": [
        {
          "internalType": "contract ERC20",
          "name": "_buyToken",
          "type": "address"
        },
        {
          "internalType": "contract ERC20",
          "name": "_offeringToken",
          "type": "address"
        },
        {
          "internalType": "uint256",
          "name": "_startTime",
          "type": "uint256"
        },
        {
          "internalType": "uint256",
          "name": "_endTime",
          "type": "uint256"
        },
        {
          "internalType": "uint256",
          "name": "_harvestTime",
          "type": "uint256"
        },
        {
          "internalType": "uint256",
          "name": "_offeringAmount",
          "type": "uint256"
        },
        {
          "internalType": "uint256",
          "name": "_raisingAmount",
          "type": "uint256"
        },
        {
          "internalType": "contract ITierSystem",
          "name": "_tierSystem",
          "type": "address"
        },
        {
          "internalType": "uint256",
          "name": "_snapshotFrom",
          "type": "uint256"
        },
        {
          "internalType": "uint256",
          "name": "_snapshotTo",
          "type": "uint256"
        },
        {
          "internalType": "uint256",
          "name": "_multiplier",
          "type": "uint256"
        }
      ],
      "stateMutability": "nonpayable",
      "type": "constructor"
    },
    {
      "anonymous": false,
      "inputs": [
        {
          "indexed": true,
          "internalType": "address",
          "name": "user",
          "type": "address"
        },
        {
          "indexed": false,
          "internalType": "uint256",
          "name": "amount",
          "type": "uint256"
        }
      ],
      "name": "Deposit",
      "type": "event"
    },
    {
      "anonymous": false,
      "inputs": [
        {
          "indexed": true,
          "internalType": "address",
          "name": "user",
          "type": "address"
        },
        {
          "indexed": false,
          "internalType": "uint256",
          "name": "offeringAmount",
          "type": "uint256"
        },
        {
          "indexed": false,
          "internalType": "uint256",
          "name": "excessAmount",
          "type": "uint256"
        }
      ],
      "name": "Harvest",
      "type": "event"
    },
    {
      "anonymous": false,
      "inputs": [
        {
          "indexed": true,
          "internalType": "address",
          "name": "previousOwner",
          "type": "address"
        },
        {
          "indexed": true,
          "internalType": "address",
          "name": "newOwner",
          "type": "address"
        }
      ],
      "name": "OwnershipTransferred",
      "type": "event"
    },
    {
      "anonymous": false,
      "inputs": [
        {
          "indexed": false,
          "internalType": "address",
          "name": "account",
          "type": "address"
        }
      ],
      "name": "Paused",
      "type": "event"
    },
    {
      "anonymous": false,
      "inputs": [
        {
          "indexed": false,
          "internalType": "address",
          "name": "account",
          "type": "address"
        }
      ],
      "name": "Unpaused",
      "type": "event"
    },
    {
      "inputs": [
        {
          "internalType": "uint256",
          "name": "",
          "type": "uint256"
        }
      ],
      "name": "addressList",
      "outputs": [
        {
          "internalType": "address",
          "name": "",
          "type": "address"
        }
      ],
      "stateMutability": "view",
      "type": "function"
    },
    {
      "inputs": [
        {
          "internalType": "uint256",
          "name": "_tier",
          "type": "uint256"
        }
      ],
      "name": "allocations",
      "outputs": [
        {
          "internalType": "uint256",
          "name": "",
          "type": "uint256"
        }
      ],
      "stateMutability": "view",
      "type": "function"
    },
    {
      "inputs": [],
      "name": "buyToken",
      "outputs": [
        {
          "internalType": "contract ERC20",
          "name": "",
          "type": "address"
        }
      ],
      "stateMutability": "view",
      "type": "function"
    },
    {
      "inputs": [
        {
          "internalType": "uint256",
          "name": "_amount",
          "type": "uint256"
        }
      ],
      "name": "deposit",
      "outputs": [],
      "stateMutability": "payable",
      "type": "function"
    },
    {
      "inputs": [
        {
          "internalType": "address",
          "name": "token",
          "type": "address"
        },
        {
          "internalType": "address payable",
          "name": "to",
          "type": "address"
        }
      ],
      "name": "emergencyWithdraw",
      "outputs": [],
      "stateMutability": "nonpayable",
      "type": "function"
    },
    {
      "inputs": [],
      "name": "endTime",
      "outputs": [
        {
          "internalType": "uint256",
          "name": "",
          "type": "uint256"
        }
      ],
      "stateMutability": "view",
      "type": "function"
    },
    {
      "inputs": [
        {
          "internalType": "address",
          "name": "_destination",
          "type": "address"
        }
      ],
      "name": "finalWithdraw",
      "outputs": [],
      "stateMutability": "nonpayable",
      "type": "function"
    },
    {
      "inputs": [],
      "name": "getAddressListLength",
      "outputs": [
        {
          "internalType": "uint256",
          "name": "",
          "type": "uint256"
        }
      ],
      "stateMutability": "view",
      "type": "function"
    },
    {
      "inputs": [
        {
          "internalType": "address",
          "name": "_account",
          "type": "address"
        }
      ],
      "name": "getAllocation",
      "outputs": [
        {
          "internalType": "uint256",
          "name": "",
          "type": "uint256"
        }
      ],
      "stateMutability": "view",
      "type": "function"
    },
    {
      "inputs": [
        {
          "internalType": "address",
          "name": "_account",
          "type": "address"
        }
      ],
      "name": "getAllocationPoint",
      "outputs": [
        {
          "internalType": "uint256",
          "name": "",
          "type": "uint256"
        }
      ],
      "stateMutability": "view",
      "type": "function"
    },
    {
      "inputs": [],
      "name": "getInfo",
      "outputs": [
        {
          "components": [
            {
              "internalType": "contract ERC20",
              "name": "token",
              "type": "address"
            },
            {
              "internalType": "uint256",
              "name": "decimals",
              "type": "uint256"
            },
            {
              "internalType": "string",
              "name": "name",
              "type": "string"
            },
            {
              "internalType": "string",
              "name": "symbol",
              "type": "string"
            }
          ],
          "internalType": "struct FundRaising.TokenInfo",
          "name": "",
          "type": "tuple"
        },
        {
          "components": [
            {
              "internalType": "contract ERC20",
              "name": "token",
              "type": "address"
            },
            {
              "internalType": "uint256",
              "name": "decimals",
              "type": "uint256"
            },
            {
              "internalType": "string",
              "name": "name",
              "type": "string"
            },
            {
              "internalType": "string",
              "name": "symbol",
              "type": "string"
            }
          ],
          "internalType": "struct FundRaising.TokenInfo",
          "name": "",
          "type": "tuple"
        },
        {
          "internalType": "uint256",
          "name": "",
          "type": "uint256"
        },
        {
          "internalType": "uint256",
          "name": "",
          "type": "uint256"
        },
        {
          "internalType": "uint256",
          "name": "",
          "type": "uint256"
        },
        {
          "internalType": "uint256",
          "name": "",
          "type": "uint256"
        },
        {
          "internalType": "uint256",
          "name": "",
          "type": "uint256"
        }
      ],
      "stateMutability": "view",
      "type": "function"
    },
    {
      "inputs": [
        {
          "internalType": "address",
          "name": "_user",
          "type": "address"
        }
      ],
      "name": "getOfferingAmount",
      "outputs": [
        {
          "internalType": "uint256",
          "name": "",
          "type": "uint256"
        }
      ],
      "stateMutability": "view",
      "type": "function"
    },
    {
      "inputs": [
        {
          "internalType": "address",
          "name": "_user",
          "type": "address"
        }
      ],
      "name": "getRefundingAmount",
      "outputs": [
        {
          "internalType": "uint256",
          "name": "",
          "type": "uint256"
        }
      ],
      "stateMutability": "view",
      "type": "function"
    },
    {
      "inputs": [
        {
          "internalType": "address",
          "name": "_account",
          "type": "address"
        }
      ],
      "name": "getTier",
      "outputs": [
        {
          "internalType": "uint256",
          "name": "",
          "type": "uint256"
        }
      ],
      "stateMutability": "view",
      "type": "function"
    },
    {
      "inputs": [
        {
          "internalType": "address",
          "name": "_user",
          "type": "address"
        }
      ],
      "name": "getUserAllocation",
      "outputs": [
        {
          "internalType": "uint256",
          "name": "",
          "type": "uint256"
        }
      ],
      "stateMutability": "view",
      "type": "function"
    },
    {
      "inputs": [],
      "name": "harvest",
      "outputs": [],
      "stateMutability": "nonpayable",
      "type": "function"
    },
    {
      "inputs": [],
      "name": "harvestTime",
      "outputs": [
        {
          "internalType": "uint256",
          "name": "",
          "type": "uint256"
        }
      ],
      "stateMutability": "view",
      "type": "function"
    },
    {
      "inputs": [
        {
          "internalType": "address",
          "name": "_user",
          "type": "address"
        }
      ],
      "name": "hasHarvest",
      "outputs": [
        {
          "internalType": "bool",
          "name": "",
          "type": "bool"
        }
      ],
      "stateMutability": "view",
      "type": "function"
    },
    {
      "inputs": [],
      "name": "multiplier",
      "outputs": [
        {
          "internalType": "uint256",
          "name": "",
          "type": "uint256"
        }
      ],
      "stateMutability": "view",
      "type": "function"
    },
    {
      "inputs": [],
      "name": "offeringAmount",
      "outputs": [
        {
          "internalType": "uint256",
          "name": "",
          "type": "uint256"
        }
      ],
      "stateMutability": "view",
      "type": "function"
    },
    {
      "inputs": [],
      "name": "offeringToken",
      "outputs": [
        {
          "internalType": "contract ERC20",
          "name": "",
          "type": "address"
        }
      ],
      "stateMutability": "view",
      "type": "function"
    },
    {
      "inputs": [],
      "name": "owner",
      "outputs": [
        {
          "internalType": "address",
          "name": "",
          "type": "address"
        }
      ],
      "stateMutability": "view",
      "type": "function"
    },
    {
      "inputs": [],
      "name": "pause",
      "outputs": [],
      "stateMutability": "nonpayable",
      "type": "function"
    },
    {
      "inputs": [],
      "name": "paused",
      "outputs": [
        {
          "internalType": "bool",
          "name": "",
          "type": "bool"
        }
      ],
      "stateMutability": "view",
      "type": "function"
    },
    {
      "inputs": [],
      "name": "raisingAmount",
      "outputs": [
        {
          "internalType": "uint256",
          "name": "",
          "type": "uint256"
        }
      ],
      "stateMutability": "view",
      "type": "function"
    },
    {
      "inputs": [],
      "name": "renounceOwnership",
      "outputs": [],
      "stateMutability": "nonpayable",
      "type": "function"
    },
    {
      "inputs": [
        {
          "internalType": "uint256",
          "name": "mul",
          "type": "uint256"
        }
      ],
      "name": "setMultiplier",
      "outputs": [],
      "stateMutability": "nonpayable",
      "type": "function"
    },
    {
      "inputs": [
        {
          "internalType": "uint256",
          "name": "_offerAmount",
          "type": "uint256"
        }
      ],
      "name": "setOfferingAmount",
      "outputs": [],
      "stateMutability": "nonpayable",
      "type": "function"
    },
    {
      "inputs": [
        {
          "internalType": "uint256",
          "name": "_raisingAmount",
          "type": "uint256"
        }
      ],
      "name": "setRaisingAmount",
      "outputs": [],
      "stateMutability": "nonpayable",
      "type": "function"
    },
    {
      "inputs": [
        {
          "internalType": "uint256",
          "name": "id",
          "type": "uint256"
        }
      ],
      "name": "setSnapshotFrom",
      "outputs": [],
      "stateMutability": "nonpayable",
      "type": "function"
    },
    {
      "inputs": [
        {
          "internalType": "uint256",
          "name": "id",
          "type": "uint256"
        }
      ],
      "name": "setSnapshotTo",
      "outputs": [],
      "stateMutability": "nonpayable",
      "type": "function"
    },
    {
      "inputs": [],
      "name": "snapshotFrom",
      "outputs": [
        {
          "internalType": "uint256",
          "name": "",
          "type": "uint256"
        }
      ],
      "stateMutability": "view",
      "type": "function"
    },
    {
      "inputs": [],
      "name": "snapshotTo",
      "outputs": [
        {
          "internalType": "uint256",
          "name": "",
          "type": "uint256"
        }
      ],
      "stateMutability": "view",
      "type": "function"
    },
    {
      "inputs": [],
      "name": "startTime",
      "outputs": [
        {
          "internalType": "uint256",
          "name": "",
          "type": "uint256"
        }
      ],
      "stateMutability": "view",
      "type": "function"
    },
    {
      "inputs": [],
      "name": "tierSystem",
      "outputs": [
        {
          "internalType": "contract ITierSystem",
          "name": "",
          "type": "address"
        }
      ],
      "stateMutability": "view",
      "type": "function"
    },
    {
      "inputs": [],
      "name": "totalAmount",
      "outputs": [
        {
          "internalType": "uint256",
          "name": "",
          "type": "uint256"
        }
      ],
      "stateMutability": "view",
      "type": "function"
    },
    {
      "inputs": [
        {
          "internalType": "address",
          "name": "newOwner",
          "type": "address"
        }
      ],
      "name": "transferOwnership",
      "outputs": [],
      "stateMutability": "nonpayable",
      "type": "function"
    },
    {
      "inputs": [],
      "name": "unpause",
      "outputs": [],
      "stateMutability": "nonpayable",
      "type": "function"
    },
    {
      "inputs": [
        {
          "internalType": "uint256",
          "name": "_newTime",
          "type": "uint256"
        }
      ],
      "name": "updateEndTime",
      "outputs": [],
      "stateMutability": "nonpayable",
      "type": "function"
    },
    {
      "inputs": [
        {
          "internalType": "uint256",
          "name": "_newTime",
          "type": "uint256"
        }
      ],
      "name": "updateHarvestTime",
      "outputs": [],
      "stateMutability": "nonpayable",
      "type": "function"
    },
    {
      "inputs": [
        {
          "internalType": "address",
          "name": "",
          "type": "address"
        }
      ],
      "name": "userInfo",
      "outputs": [
        {
          "internalType": "uint256",
          "name": "amount",
          "type": "uint256"
        },
        {
          "internalType": "bool",
          "name": "claimed",
          "type": "bool"
        }
      ],
      "stateMutability": "view",
      "type": "function"
    }
  ],
  "bytecode": "0x60806040523480156200001157600080fd5b50604051620024aa380380620024aa83398101604081905262000034916200013a565b60016000556200004433620000e8565b6001805460ff60a01b191690558787108015906200006157508888115b80156200006d57504289115b6200007757600080fd5b600280546001600160a01b03199081166001600160a01b039d8e16179091556003805482169b8d169b909b17909a556004989098556005969096556006949094556008929092556007556000600955600c8054909516951694909417909255600d92909255600e55600f55620001f8565b600180546001600160a01b038381166001600160a01b0319831681179093556040519116919082907f8be0079c531659141344cd1fd0a4f28419497f9722a3daafe3b4186f6b6457e090600090a35050565b60008060008060008060008060008060006101608c8e0312156200015c578687fd5b8b516200016981620001df565b60208d0151909b506200017c81620001df565b809a505060408c0151985060608c0151975060808c0151965060a08c0151955060c08c0151945060e08c0151620001b381620001df565b809450506101008c015192506101208c015191506101408c015190509295989b509295989b9093969950565b6001600160a01b0381168114620001f557600080fd5b50565b6122a280620002086000396000f3fe6080604052600436106102465760003560e01c8063715018a611610139578063b6b55f25116100b6578063d16bba941161007a578063d16bba94146106ae578063e1af9a95146106ce578063f2fde38b146106e4578063f480821014610704578063f8caa7e51461071a578063fc00358e1461073a57600080fd5b8063b6b55f251461061b578063b78136071461062e578063b810fb431461064e578063b920ade21461066e578063c2c9721b1461068e57600080fd5b80638da5cb5b116100fd5780638da5cb5b146105735780639c0a7669146105a5578063a4821719146105bb578063ac3ff912146105db578063b45aae52146105fb57600080fd5b8063715018a6146104f357806376ea6ee01461050857806378e97925146105285780638456cb591461053e57806387e97bc61461055357600080fd5b80633f4ba83a116101c75780636382d9ad1161018b5780636382d9ad14610437578063641579a61461045757806364ce9fff146104775780636a2ce513146104b35780636ab3846b146104d357600080fd5b80633f4ba83a1461039a5780634225c32f146103af5780634641257d146103cf5780635a9b0b89146103e45780635c975abb1461040c57600080fd5b806322b331751161020e57806322b331751461031657806327d1b1a21461032c5780632f5105f81461034e5780633197cbb61461036e578063343e31f51461038457600080fd5b80630a2642bf1461024b5780630e0229231461027e5780631959a0021461029e5780631a39d8ef146102ea5780631b3ed72214610300575b600080fd5b34801561025757600080fd5b5061026b610266366004611f33565b61074f565b6040519081526020015b60405180910390f35b34801561028a57600080fd5b5061026b610299366004611e21565b6108c5565b3480156102aa57600080fd5b506102d56102b9366004611e21565b600a602052600090815260409020805460019091015460ff1682565b60408051928352901515602083015201610275565b3480156102f657600080fd5b5061026b60095481565b34801561030c57600080fd5b5061026b600f5481565b34801561032257600080fd5b5061026b600e5481565b34801561033857600080fd5b5061034c610347366004611f33565b61096b565b005b34801561035a57600080fd5b5061026b610369366004611e21565b6109b3565b34801561037a57600080fd5b5061026b60055481565b34801561039057600080fd5b5061026b600d5481565b3480156103a657600080fd5b5061034c610a26565b3480156103bb57600080fd5b5061034c6103ca366004611f33565b610a38565b3480156103db57600080fd5b5061034c610a7b565b3480156103f057600080fd5b506103f9610c9c565b6040516102759796959493929190612053565b34801561041857600080fd5b50600154600160a01b900460ff165b6040519015158152602001610275565b34801561044357600080fd5b5061034c610452366004611e3d565b610d94565b34801561046357600080fd5b5061034c610472366004611f33565b610e76565b34801561048357600080fd5b50610427610492366004611e21565b6001600160a01b03166000908152600a602052604090206001015460ff1690565b3480156104bf57600080fd5b5061026b6104ce366004611e21565b610e83565b3480156104df57600080fd5b5061034c6104ee366004611f33565b610f9c565b3480156104ff57600080fd5b5061034c610ff6565b34801561051457600080fd5b5061034c610523366004611f33565b611008565b34801561053457600080fd5b5061026b60045481565b34801561054a57600080fd5b5061034c611062565b34801561055f57600080fd5b5061026b61056e366004611e21565b611072565b34801561057f57600080fd5b506001546001600160a01b03165b6040516001600160a01b039091168152602001610275565b3480156105b157600080fd5b5061026b60075481565b3480156105c757600080fd5b5060025461058d906001600160a01b031681565b3480156105e757600080fd5b5061034c6105f6366004611e21565b6110e2565b34801561060757600080fd5b5061026b610616366004611e21565b61119b565b61034c610629366004611f33565b611224565b34801561063a57600080fd5b5060035461058d906001600160a01b031681565b34801561065a57600080fd5b5061058d610669366004611f33565b611504565b34801561067a57600080fd5b5061026b610689366004611e21565b61152e565b34801561069a57600080fd5b5061034c6106a9366004611f33565b611562565b3480156106ba57600080fd5b5061034c6106c9366004611f33565b6115ac565b3480156106da57600080fd5b5061026b60085481565b3480156106f057600080fd5b5061034c6106ff366004611e21565b6115f6565b34801561071057600080fd5b5061026b60065481565b34801561072657600080fd5b50600c5461058d906001600160a01b031681565b34801561074657600080fd5b50600b5461026b565b600c5460405163bbc3f7cf60e01b81526004810183905260009182916001600160a01b039091169063bbc3f7cf9060240160206040518083038186803b15801561079857600080fd5b505afa1580156107ac573d6000803e3d6000fd5b505050506040513d601f19601f820116820180604052508101906107d09190611f4b565b6002549091506001600160a01b031661081d57610816612710610810670de0b6b3a764000061080a600f548661166c90919063ffffffff16565b9061166c565b90611678565b9392505050565b610816612710610810600260009054906101000a90046001600160a01b03166001600160a01b031663313ce5676040518163ffffffff1660e01b815260040160206040518083038186803b15801561087457600080fd5b505afa158015610888573d6000803e3d6000fd5b505050506040513d601f19601f820116820180604052508101906108ac9190611f63565b6108b790600a61211e565b600f5461080a90869061166c565b600c54600d54600e54604051636002de6760e01b815260009384936001600160a01b0390911692636002de6792610902928892909160040161201f565b60206040518083038186803b15801561091a57600080fd5b505afa15801561092e573d6000803e3d6000fd5b505050506040513d601f19601f820116820180604052508101906109529190611f4b565b9050806109625750600092915050565b6108168161074f565b610973611684565b60045442106109ae5760405162461bcd60e51b81526020600482015260026024820152616e6f60f01b60448201526064015b60405180910390fd5b600855565b6000600754600954116109c857506000919050565b60006109d38361152e565b905060006109f8670de0b6b3a76400006108108460075461166c90919063ffffffff16565b6001600160a01b0385166000908152600a6020526040902054909150610a1e90826116de565b949350505050565b610a2e611684565b610a366116ea565b565b610a40611684565b6004544210610a765760405162461bcd60e51b81526020600482015260026024820152616e6f60f01b60448201526064016109a5565b600755565b60026000541415610ace5760405162461bcd60e51b815260206004820152601f60248201527f5265656e7472616e637947756172643a207265656e7472616e742063616c6c0060448201526064016109a5565b60026000556006544211610b175760405162461bcd60e51b815260206004820152601060248201526f6e6f7420686172766573742074696d6560801b60448201526064016109a5565b336000908152600a6020526040902054610b6c5760405162461bcd60e51b81526020600482015260166024820152756861766520796f75207061727469636970617465643f60501b60448201526064016109a5565b336000908152600a602052604090206001015460ff1615610bc45760405162461bcd60e51b81526020600482015260126024820152711b9bdd1a1a5b99c81d1bc81a185c9d995cdd60721b60448201526064016109a5565b610bcc61173f565b6000610bd733611072565b90506000610be4336109b3565b600354909150610bfe906001600160a01b0316338461178c565b8015610c3a576002546001600160a01b0316610c2357610c1e33826117ef565b610c3a565b600254610c3a906001600160a01b0316338361178c565b336000818152600a60209081526040918290206001908101805460ff1916909117905581518581529081018490527f71bab65ced2e5750775a0613be067df48ef06cf92a496ebf7663ae0660924954910160405180910390a250506001600055565b610ca4611df0565b610cac611df0565b6000806000806000610cbc611df0565b6002546001600160a01b0316610d3d57604051806080016040528060006001600160a01b03168152602001601281526020016040518060400160405280600b81526020016a25b0b93234b0a1b430b4b760a91b8152508152602001604051806040016040528060038152602001624b414960e81b8152508152509050610d55565b600254610d52906001600160a01b03166118b8565b90505b600354600090610d6d906001600160a01b03166118b8565b600454600554600654600854600754969e949d50929b509099509750955091935090915050565b610d9c611684565b6001600160a01b038216610de4576040516001600160a01b038216904780156108fc02916000818181858888f19350505050158015610ddf573d6000803e3d6000fd5b505050565b6040516370a0823160e01b8152306004820152610e729082906001600160a01b038516906370a082319060240160206040518083038186803b158015610e2957600080fd5b505afa158015610e3d573d6000803e3d6000fd5b505050506040513d601f19601f82011682018060405250810190610e619190611f4b565b6001600160a01b038516919061178c565b5050565b610e7e611684565b600f55565b600c54600d54600e54604051636002de6760e01b815260009384936001600160a01b0390911692636002de6792610ec0928892909160040161201f565b60206040518083038186803b158015610ed857600080fd5b505afa158015610eec573d6000803e3d6000fd5b505050506040513d601f19601f82011682018060405250810190610f109190611f4b565b905080610f205750600092915050565b600c5460405163bbc3f7cf60e01b8152600481018390526001600160a01b039091169063bbc3f7cf9060240160206040518083038186803b158015610f6457600080fd5b505afa158015610f78573d6000803e3d6000fd5b505050506040513d601f19601f820116820180604052508101906108169190611f4b565b610fa4611684565b4281118015610fb4575060065481105b610ff15760405162461bcd60e51b815260206004820152600e60248201526d74696d6520696e76616c6964212160901b60448201526064016109a5565b600555565b610ffe611684565b610a366000611a4a565b611010611684565b4281118015611020575060055481115b61105d5760405162461bcd60e51b815260206004820152600e60248201526d74696d6520696e76616c6964212160901b60448201526064016109a5565b600655565b61106a611684565b610a36611a9c565b600060075460095411156110ae57600061108b8361152e565b9050610816670de0b6b3a76400006108108360085461166c90919063ffffffff16565b6007546008546001600160a01b0384166000908152600a60205260409020546110dc9291610810919061166c565b92915050565b6110ea611684565b6002546001600160a01b03166111075761110481476117ef565b50565b6002546040516370a0823160e01b81523060048201526111049183916001600160a01b03909116906370a082319060240160206040518083038186803b15801561115057600080fd5b505afa158015611164573d6000803e3d6000fd5b505050506040513d601f19601f820116820180604052508101906111889190611f4b565b6002546001600160a01b0316919061178c565b600c54600d54600e54604051636002de6760e01b81526000936001600160a01b031692636002de67926111d4928792919060040161201f565b60206040518083038186803b1580156111ec57600080fd5b505afa158015611200573d6000803e3d6000fd5b505050506040513d601f19601f820116820180604052508101906110dc9190611f4b565b600260005414156112775760405162461bcd60e51b815260206004820152601f60248201527f5265656e7472616e637947756172643a207265656e7472616e742063616c6c0060448201526064016109a5565b6002600055600454819042118015611290575060055442105b6112cf5760405162461bcd60e51b815260206004820152601060248201526f6e6f742072616973696e672074696d6560801b60448201526064016109a5565b600081116113125760405162461bcd60e51b815260206004820152601060248201526f06e656564205f616d6f756e74203e20360841b60448201526064016109a5565b61131a61173f565b600061132533611adf565b336000908152600a6020526040902054909150811161137e5760405162461bcd60e51b81526020600482015260156024820152746e6f7420656c696769626c6520616d6f756e74212160581b60448201526064016109a5565b336000908152600a602052604081205461139890836121e8565b905083808210156113a65750805b6002546001600160a01b031661141a57803410156113fa5760405162461bcd60e51b81526020600482015260116024820152700c2dadeeadce840dcdee840cadcdeeaced607b1b60448201526064016109a5565b80341115611415576114153361141083346121e8565b6117ef565b611432565b600254611432906001600160a01b0316333084611b70565b336000908152600a602052604090205461148957600b80546001810182556000919091527f0175b7a638427703f0dbe7bb9bbf987a2551717b34e79f33b5b1008d1fa01db90180546001600160a01b031916331790555b336000908152600a60205260409020546114a39082611bae565b336000908152600a60205260409020556009546114c09082611bae565b60095560405181815233907fe1fffcc4923d04b559f4d29a8bfc6cda04eb5b0d3c460751c2402c5c5cc9109c9060200160405180910390a250506001600055505050565b600b818154811061151457600080fd5b6000918252602090912001546001600160a01b0316905081565b6009546001600160a01b0382166000908152600a602052604081205490916110dc9161081090670de0b6b3a764000061166c565b61156a611684565b600081116115a75760405162461bcd60e51b815260206004820152600a6024820152691259081a5b9d985b1a5960b21b60448201526064016109a5565b600e55565b6115b4611684565b600081116115f15760405162461bcd60e51b815260206004820152600a6024820152691259081a5b9d985b1a5960b21b60448201526064016109a5565b600d55565b6115fe611684565b6001600160a01b0381166116635760405162461bcd60e51b815260206004820152602660248201527f4f776e61626c653a206e6577206f776e657220697320746865207a65726f206160448201526564647265737360d01b60648201526084016109a5565b61110481611a4a565b600061081682846121c9565b600061081682846120bb565b6001546001600160a01b03163314610a365760405162461bcd60e51b815260206004820181905260248201527f4f776e61626c653a2063616c6c6572206973206e6f7420746865206f776e657260448201526064016109a5565b600061081682846121e8565b6116f2611bba565b6001805460ff60a01b191690557f5db9ee0a495bf2e6ff9c91a7834c1ba4fdd244a5e8aa4e537bd38aeae4b073aa335b6040516001600160a01b03909116815260200160405180910390a1565b600154600160a01b900460ff1615610a365760405162461bcd60e51b815260206004820152601060248201526f14185d5cd8589b194e881c185d5cd95960821b60448201526064016109a5565b6040516001600160a01b038316602482015260448101829052610ddf90849063a9059cbb60e01b906064015b60408051601f198184030181529190526020810180516001600160e01b03166001600160e01b031990931692909217909152611c0a565b604080516000808252602082019092526001600160a01b0384169083906040516118199190612003565b60006040518083038185875af1925050503d8060008114611856576040519150601f19603f3d011682016040523d82523d6000602084013e61185b565b606091505b5050905080610ddf5760405162461bcd60e51b815260206004820152602360248201527f5472616e7366657248656c7065723a204b41495f5452414e534645525f46414960448201526213115160ea1b60648201526084016109a5565b6118c0611df0565b6040518060800160405280836001600160a01b03168152602001836001600160a01b031663313ce5676040518163ffffffff1660e01b815260040160206040518083038186803b15801561191357600080fd5b505afa158015611927573d6000803e3d6000fd5b505050506040513d601f19601f8201168201806040525081019061194b9190611f63565b60ff168152602001836001600160a01b03166306fdde036040518163ffffffff1660e01b815260040160006040518083038186803b15801561198c57600080fd5b505afa1580156119a0573d6000803e3d6000fd5b505050506040513d6000823e601f3d908101601f191682016040526119c89190810190611e95565b8152602001836001600160a01b03166395d89b416040518163ffffffff1660e01b815260040160006040518083038186803b158015611a0657600080fd5b505afa158015611a1a573d6000803e3d6000fd5b505050506040513d6000823e601f3d908101601f19168201604052611a429190810190611e95565b905292915050565b600180546001600160a01b038381166001600160a01b0319831681179093556040519116919082907f8be0079c531659141344cd1fd0a4f28419497f9722a3daafe3b4186f6b6457e090600090a35050565b611aa461173f565b6001805460ff60a01b1916600160a01b1790557f62e78cea01bee320cd4e420270b5ea74000d11b0c9f74754ebdbfc544b05a2586117223390565b600080600d54118015611af55750600d54600e54115b611b375760405162461bcd60e51b815260206004820152601360248201527214db985c1cda1bdd081a59081b9bdd081cd95d606a1b60448201526064016109a5565b600c54600d54600e54604051636002de6760e01b81526000936001600160a01b031692636002de6792610902928892919060040161201f565b6040516001600160a01b0380851660248301528316604482015260648101829052611ba89085906323b872dd60e01b906084016117b8565b50505050565b600061081682846120a3565b600154600160a01b900460ff16610a365760405162461bcd60e51b815260206004820152601460248201527314185d5cd8589b194e881b9bdd081c185d5cd95960621b60448201526064016109a5565b6000611c5f826040518060400160405280602081526020017f5361666545524332303a206c6f772d6c6576656c2063616c6c206661696c6564815250856001600160a01b0316611cdc9092919063ffffffff16565b805190915015610ddf5780806020019051810190611c7d9190611e75565b610ddf5760405162461bcd60e51b815260206004820152602a60248201527f5361666545524332303a204552433230206f7065726174696f6e20646964206e6044820152691bdd081cdd58d8d9595960b21b60648201526084016109a5565b6060610a1e8484600085856001600160a01b0385163b611d3e5760405162461bcd60e51b815260206004820152601d60248201527f416464726573733a2063616c6c20746f206e6f6e2d636f6e747261637400000060448201526064016109a5565b600080866001600160a01b03168587604051611d5a9190612003565b60006040518083038185875af1925050503d8060008114611d97576040519150601f19603f3d011682016040523d82523d6000602084013e611d9c565b606091505b5091509150611dac828286611db7565b979650505050505050565b60608315611dc6575081610816565b825115611dd65782518084602001fd5b8160405162461bcd60e51b81526004016109a59190612040565b604051806080016040528060006001600160a01b031681526020016000815260200160608152602001606081525090565b600060208284031215611e32578081fd5b813561081681612257565b60008060408385031215611e4f578081fd5b8235611e5a81612257565b91506020830135611e6a81612257565b809150509250929050565b600060208284031215611e86578081fd5b81518015158114610816578182fd5b600060208284031215611ea6578081fd5b815167ffffffffffffffff80821115611ebd578283fd5b818401915084601f830112611ed0578283fd5b815181811115611ee257611ee2612241565b604051601f8201601f19908116603f01168101908382118183101715611f0a57611f0a612241565b81604052828152876020848701011115611f22578586fd5b611dac8360208301602088016121ff565b600060208284031215611f44578081fd5b5035919050565b600060208284031215611f5c578081fd5b5051919050565b600060208284031215611f74578081fd5b815160ff81168114610816578182fd5b60008151808452611f9c8160208601602086016121ff565b601f01601f19169290920160200192915050565b60018060a01b038151168252602081015160208301526000604082015160806040850152611fe16080850182611f84565b905060608301518482036060860152611ffa8282611f84565b95945050505050565b600082516120158184602087016121ff565b9190910192915050565b6001600160a01b039390931683526020830191909152604082015260600190565b6020815260006108166020830184611f84565b60e08152600061206660e083018a611fb0565b8281036020840152612078818a611fb0565b604084019890985250506060810194909452608084019290925260a083015260c09091015292915050565b600082198211156120b6576120b661222b565b500190565b6000826120d657634e487b7160e01b81526012600452602481fd5b500490565b600181815b808511156121165781600019048211156120fc576120fc61222b565b8085161561210957918102915b93841c93908002906120e0565b509250929050565b600061081660ff841683600082612137575060016110dc565b81612144575060006110dc565b816001811461215a576002811461216457612180565b60019150506110dc565b60ff8411156121755761217561222b565b50506001821b6110dc565b5060208310610133831016604e8410600b84101617156121a3575081810a6110dc565b6121ad83836120db565b80600019048211156121c1576121c161222b565b029392505050565b60008160001904831182151516156121e3576121e361222b565b500290565b6000828210156121fa576121fa61222b565b500390565b60005b8381101561221a578181015183820152602001612202565b83811115611ba85750506000910152565b634e487b7160e01b600052601160045260246000fd5b634e487b7160e01b600052604160045260246000fd5b6001600160a01b038116811461110457600080fdfea264697066735822122027b00d1540056ca264c738900083b8e1d544efcb36b6ec5ef256b77a11659ed164736f6c63430008040033",
  "linkReferences": {},
  "deployedLinkReferences": {}
}