{
  "_format": "hh-sol-artifact-1",
  "contractName": "FundRaising",
  "sourceName": "contracts/launchpad/tier/FundRaising.sol",
  "abi": [
    {
      "inputs": [
        {
          "internalType": "contract ERC20",
          "name": "_buyToken",
          "type": "address"
        },
        {
          "internalType": "contract ERC20",
          "name": "_offeringToken",
          "type": "address"
        },
        {
          "internalType": "uint256",
          "name": "_startTime",
          "type": "uint256"
        },
        {
          "internalType": "uint256",
          "name": "_endTime",
          "type": "uint256"
        },
        {
          "internalType": "uint256",
          "name": "_harvestTime",
          "type": "uint256"
        },
        {
          "internalType": "uint256",
          "name": "_offeringAmount",
          "type": "uint256"
        },
        {
          "internalType": "uint256",
          "name": "_raisingAmount",
          "type": "uint256"
        },
        {
          "internalType": "contract ITierSystem",
          "name": "_tierSystem",
          "type": "address"
        },
        {
          "internalType": "uint256",
          "name": "_snapshotFrom",
          "type": "uint256"
        },
        {
          "internalType": "uint256",
          "name": "_snapshotTo",
          "type": "uint256"
        },
        {
          "internalType": "uint256",
          "name": "_multiplier",
          "type": "uint256"
        }
      ],
      "stateMutability": "nonpayable",
      "type": "constructor"
    },
    {
      "anonymous": false,
      "inputs": [
        {
          "indexed": true,
          "internalType": "address",
          "name": "user",
          "type": "address"
        },
        {
          "indexed": false,
          "internalType": "uint256",
          "name": "amount",
          "type": "uint256"
        }
      ],
      "name": "Deposit",
      "type": "event"
    },
    {
      "anonymous": false,
      "inputs": [
        {
          "indexed": true,
          "internalType": "address",
          "name": "user",
          "type": "address"
        },
        {
          "indexed": false,
          "internalType": "uint256",
          "name": "offeringAmount",
          "type": "uint256"
        },
        {
          "indexed": false,
          "internalType": "uint256",
          "name": "excessAmount",
          "type": "uint256"
        }
      ],
      "name": "Harvest",
      "type": "event"
    },
    {
      "anonymous": false,
      "inputs": [
        {
          "indexed": true,
          "internalType": "address",
          "name": "previousOwner",
          "type": "address"
        },
        {
          "indexed": true,
          "internalType": "address",
          "name": "newOwner",
          "type": "address"
        }
      ],
      "name": "OwnershipTransferred",
      "type": "event"
    },
    {
      "anonymous": false,
      "inputs": [
        {
          "indexed": false,
          "internalType": "address",
          "name": "account",
          "type": "address"
        }
      ],
      "name": "Paused",
      "type": "event"
    },
    {
      "anonymous": false,
      "inputs": [
        {
          "indexed": false,
          "internalType": "address",
          "name": "account",
          "type": "address"
        }
      ],
      "name": "Unpaused",
      "type": "event"
    },
    {
      "stateMutability": "payable",
      "type": "fallback"
    },
    {
      "inputs": [
        {
          "internalType": "uint256",
          "name": "",
          "type": "uint256"
        }
      ],
      "name": "addressList",
      "outputs": [
        {
          "internalType": "address",
          "name": "",
          "type": "address"
        }
      ],
      "stateMutability": "view",
      "type": "function"
    },
    {
      "inputs": [
        {
          "internalType": "uint256",
          "name": "_tier",
          "type": "uint256"
        }
      ],
      "name": "allocations",
      "outputs": [
        {
          "internalType": "uint256",
          "name": "",
          "type": "uint256"
        }
      ],
      "stateMutability": "view",
      "type": "function"
    },
    {
      "inputs": [],
      "name": "buyToken",
      "outputs": [
        {
          "internalType": "contract ERC20",
          "name": "",
          "type": "address"
        }
      ],
      "stateMutability": "view",
      "type": "function"
    },
    {
      "inputs": [
        {
          "internalType": "uint256",
          "name": "_amount",
          "type": "uint256"
        }
      ],
      "name": "deposit",
      "outputs": [],
      "stateMutability": "payable",
      "type": "function"
    },
    {
      "inputs": [
        {
          "internalType": "address",
          "name": "token",
          "type": "address"
        },
        {
          "internalType": "address payable",
          "name": "to",
          "type": "address"
        }
      ],
      "name": "emergencyWithdraw",
      "outputs": [],
      "stateMutability": "nonpayable",
      "type": "function"
    },
    {
      "inputs": [],
      "name": "endTime",
      "outputs": [
        {
          "internalType": "uint256",
          "name": "",
          "type": "uint256"
        }
      ],
      "stateMutability": "view",
      "type": "function"
    },
    {
      "inputs": [
        {
          "internalType": "address",
          "name": "_destination",
          "type": "address"
        }
      ],
      "name": "finalWithdraw",
      "outputs": [],
      "stateMutability": "nonpayable",
      "type": "function"
    },
    {
      "inputs": [],
      "name": "getAddressListLength",
      "outputs": [
        {
          "internalType": "uint256",
          "name": "",
          "type": "uint256"
        }
      ],
      "stateMutability": "view",
      "type": "function"
    },
    {
      "inputs": [
        {
          "internalType": "address",
          "name": "_account",
          "type": "address"
        }
      ],
      "name": "getAllocation",
      "outputs": [
        {
          "internalType": "uint256",
          "name": "",
          "type": "uint256"
        }
      ],
      "stateMutability": "view",
      "type": "function"
    },
    {
      "inputs": [
        {
          "internalType": "address",
          "name": "_account",
          "type": "address"
        }
      ],
      "name": "getAllocationPoint",
      "outputs": [
        {
          "internalType": "uint256",
          "name": "",
          "type": "uint256"
        }
      ],
      "stateMutability": "view",
      "type": "function"
    },
    {
      "inputs": [],
      "name": "getInfo",
      "outputs": [
        {
          "components": [
            {
              "internalType": "contract ERC20",
              "name": "token",
              "type": "address"
            },
            {
              "internalType": "uint256",
              "name": "decimals",
              "type": "uint256"
            },
            {
              "internalType": "string",
              "name": "name",
              "type": "string"
            },
            {
              "internalType": "string",
              "name": "symbol",
              "type": "string"
            }
          ],
          "internalType": "struct FundRaising.TokenInfo",
          "name": "",
          "type": "tuple"
        },
        {
          "components": [
            {
              "internalType": "contract ERC20",
              "name": "token",
              "type": "address"
            },
            {
              "internalType": "uint256",
              "name": "decimals",
              "type": "uint256"
            },
            {
              "internalType": "string",
              "name": "name",
              "type": "string"
            },
            {
              "internalType": "string",
              "name": "symbol",
              "type": "string"
            }
          ],
          "internalType": "struct FundRaising.TokenInfo",
          "name": "",
          "type": "tuple"
        },
        {
          "internalType": "uint256",
          "name": "",
          "type": "uint256"
        },
        {
          "internalType": "uint256",
          "name": "",
          "type": "uint256"
        },
        {
          "internalType": "uint256",
          "name": "",
          "type": "uint256"
        },
        {
          "internalType": "uint256",
          "name": "",
          "type": "uint256"
        },
        {
          "internalType": "uint256",
          "name": "",
          "type": "uint256"
        }
      ],
      "stateMutability": "view",
      "type": "function"
    },
    {
      "inputs": [
        {
          "internalType": "address",
          "name": "_user",
          "type": "address"
        }
      ],
      "name": "getOfferingAmount",
      "outputs": [
        {
          "internalType": "uint256",
          "name": "",
          "type": "uint256"
        }
      ],
      "stateMutability": "view",
      "type": "function"
    },
    {
      "inputs": [
        {
          "internalType": "address",
          "name": "_user",
          "type": "address"
        }
      ],
      "name": "getRefundingAmount",
      "outputs": [
        {
          "internalType": "uint256",
          "name": "",
          "type": "uint256"
        }
      ],
      "stateMutability": "view",
      "type": "function"
    },
    {
      "inputs": [
        {
          "internalType": "address",
          "name": "_account",
          "type": "address"
        }
      ],
      "name": "getTier",
      "outputs": [
        {
          "internalType": "uint256",
          "name": "",
          "type": "uint256"
        }
      ],
      "stateMutability": "view",
      "type": "function"
    },
    {
      "inputs": [
        {
          "internalType": "address",
          "name": "_user",
          "type": "address"
        }
      ],
      "name": "getUserAllocation",
      "outputs": [
        {
          "internalType": "uint256",
          "name": "",
          "type": "uint256"
        }
      ],
      "stateMutability": "view",
      "type": "function"
    },
    {
      "inputs": [],
      "name": "harvest",
      "outputs": [],
      "stateMutability": "nonpayable",
      "type": "function"
    },
    {
      "inputs": [],
      "name": "harvestTime",
      "outputs": [
        {
          "internalType": "uint256",
          "name": "",
          "type": "uint256"
        }
      ],
      "stateMutability": "view",
      "type": "function"
    },
    {
      "inputs": [
        {
          "internalType": "address",
          "name": "_user",
          "type": "address"
        }
      ],
      "name": "hasHarvest",
      "outputs": [
        {
          "internalType": "bool",
          "name": "",
          "type": "bool"
        }
      ],
      "stateMutability": "view",
      "type": "function"
    },
    {
      "inputs": [],
      "name": "multiplier",
      "outputs": [
        {
          "internalType": "uint256",
          "name": "",
          "type": "uint256"
        }
      ],
      "stateMutability": "view",
      "type": "function"
    },
    {
      "inputs": [],
      "name": "offeringAmount",
      "outputs": [
        {
          "internalType": "uint256",
          "name": "",
          "type": "uint256"
        }
      ],
      "stateMutability": "view",
      "type": "function"
    },
    {
      "inputs": [],
      "name": "offeringToken",
      "outputs": [
        {
          "internalType": "contract ERC20",
          "name": "",
          "type": "address"
        }
      ],
      "stateMutability": "view",
      "type": "function"
    },
    {
      "inputs": [],
      "name": "owner",
      "outputs": [
        {
          "internalType": "address",
          "name": "",
          "type": "address"
        }
      ],
      "stateMutability": "view",
      "type": "function"
    },
    {
      "inputs": [],
      "name": "pause",
      "outputs": [],
      "stateMutability": "nonpayable",
      "type": "function"
    },
    {
      "inputs": [],
      "name": "paused",
      "outputs": [
        {
          "internalType": "bool",
          "name": "",
          "type": "bool"
        }
      ],
      "stateMutability": "view",
      "type": "function"
    },
    {
      "inputs": [],
      "name": "raisingAmount",
      "outputs": [
        {
          "internalType": "uint256",
          "name": "",
          "type": "uint256"
        }
      ],
      "stateMutability": "view",
      "type": "function"
    },
    {
      "inputs": [],
      "name": "renounceOwnership",
      "outputs": [],
      "stateMutability": "nonpayable",
      "type": "function"
    },
    {
      "inputs": [
        {
          "internalType": "uint256",
          "name": "mul",
          "type": "uint256"
        }
      ],
      "name": "setMultiplier",
      "outputs": [],
      "stateMutability": "nonpayable",
      "type": "function"
    },
    {
      "inputs": [
        {
          "internalType": "uint256",
          "name": "_offerAmount",
          "type": "uint256"
        }
      ],
      "name": "setOfferingAmount",
      "outputs": [],
      "stateMutability": "nonpayable",
      "type": "function"
    },
    {
      "inputs": [
        {
          "internalType": "uint256",
          "name": "_raisingAmount",
          "type": "uint256"
        }
      ],
      "name": "setRaisingAmount",
      "outputs": [],
      "stateMutability": "nonpayable",
      "type": "function"
    },
    {
      "inputs": [
        {
          "internalType": "uint256",
          "name": "id",
          "type": "uint256"
        }
      ],
      "name": "setSnapshotFrom",
      "outputs": [],
      "stateMutability": "nonpayable",
      "type": "function"
    },
    {
      "inputs": [
        {
          "internalType": "uint256",
          "name": "id",
          "type": "uint256"
        }
      ],
      "name": "setSnapshotTo",
      "outputs": [],
      "stateMutability": "nonpayable",
      "type": "function"
    },
    {
      "inputs": [],
      "name": "snapshotFrom",
      "outputs": [
        {
          "internalType": "uint256",
          "name": "",
          "type": "uint256"
        }
      ],
      "stateMutability": "view",
      "type": "function"
    },
    {
      "inputs": [],
      "name": "snapshotTo",
      "outputs": [
        {
          "internalType": "uint256",
          "name": "",
          "type": "uint256"
        }
      ],
      "stateMutability": "view",
      "type": "function"
    },
    {
      "inputs": [],
      "name": "startTime",
      "outputs": [
        {
          "internalType": "uint256",
          "name": "",
          "type": "uint256"
        }
      ],
      "stateMutability": "view",
      "type": "function"
    },
    {
      "inputs": [],
      "name": "tierSystem",
      "outputs": [
        {
          "internalType": "contract ITierSystem",
          "name": "",
          "type": "address"
        }
      ],
      "stateMutability": "view",
      "type": "function"
    },
    {
      "inputs": [],
      "name": "totalAmount",
      "outputs": [
        {
          "internalType": "uint256",
          "name": "",
          "type": "uint256"
        }
      ],
      "stateMutability": "view",
      "type": "function"
    },
    {
      "inputs": [
        {
          "internalType": "address",
          "name": "newOwner",
          "type": "address"
        }
      ],
      "name": "transferOwnership",
      "outputs": [],
      "stateMutability": "nonpayable",
      "type": "function"
    },
    {
      "inputs": [],
      "name": "unpause",
      "outputs": [],
      "stateMutability": "nonpayable",
      "type": "function"
    },
    {
      "inputs": [
        {
          "internalType": "uint256",
          "name": "_newTime",
          "type": "uint256"
        }
      ],
      "name": "updateEndTime",
      "outputs": [],
      "stateMutability": "nonpayable",
      "type": "function"
    },
    {
      "inputs": [
        {
          "internalType": "uint256",
          "name": "_newTime",
          "type": "uint256"
        }
      ],
      "name": "updateHarvestTime",
      "outputs": [],
      "stateMutability": "nonpayable",
      "type": "function"
    },
    {
      "inputs": [
        {
          "internalType": "address",
          "name": "_newToken",
          "type": "address"
        }
      ],
      "name": "updateOfferingToken",
      "outputs": [],
      "stateMutability": "nonpayable",
      "type": "function"
    },
    {
      "inputs": [
        {
          "internalType": "address",
          "name": "",
          "type": "address"
        }
      ],
      "name": "userInfo",
      "outputs": [
        {
          "internalType": "uint256",
          "name": "amount",
          "type": "uint256"
        },
        {
          "internalType": "bool",
          "name": "claimed",
          "type": "bool"
        }
      ],
      "stateMutability": "view",
      "type": "function"
    }
  ],
  "bytecode": "0x60806040523480156200001157600080fd5b50604051620025b4380380620025b483398101604081905262000034916200013a565b60016000556200004433620000e8565b6001805460ff60a01b191690558787108015906200006157508888115b80156200006d57504289115b6200007757600080fd5b600280546001600160a01b03199081166001600160a01b039d8e16179091556003805482169b8d169b909b17909a556004989098556005969096556006949094556008929092556007556000600955600c8054909516951694909417909255600d92909255600e55600f55620001f8565b600180546001600160a01b038381166001600160a01b0319831681179093556040519116919082907f8be0079c531659141344cd1fd0a4f28419497f9722a3daafe3b4186f6b6457e090600090a35050565b60008060008060008060008060008060006101608c8e0312156200015c578687fd5b8b516200016981620001df565b60208d0151909b506200017c81620001df565b809a505060408c0151985060608c0151975060808c0151965060a08c0151955060c08c0151945060e08c0151620001b381620001df565b809450506101008c015192506101208c015191506101408c015190509295989b509295989b9093969950565b6001600160a01b0381168114620001f557600080fd5b50565b6123ac80620002086000396000f3fe60806040526004361061023c5760003560e01c806376ea6ee01161012d578063b7813607116100b0578063e1af9a9511610077578063e1af9a95146106bf578063eadbd788146106d5578063f2fde38b146106f5578063f480821014610715578063f8caa7e51461072b578063fc00358e1461074b57005b8063b78136071461061f578063b810fb431461063f578063b920ade21461065f578063c2c9721b1461067f578063d16bba941461069f57005b80639c0a7669116100f45780639c0a766914610596578063a4821719146105ac578063ac3ff912146105cc578063b45aae52146105ec578063b6b55f251461060c57005b806376ea6ee0146104f957806378e97925146105195780638456cb591461052f57806387e97bc6146105445780638da5cb5b1461056457005b80633f4ba83a116101c05780636382d9ad116101875780636382d9ad14610428578063641579a61461044857806364ce9fff146104685780636a2ce513146104a45780636ab3846b146104c4578063715018a6146104e457005b80633f4ba83a1461038b5780634225c32f146103a05780634641257d146103c05780635a9b0b89146103d55780635c975abb146103fd57005b806322b331751161020457806322b331751461030957806327d1b1a21461031f5780632f5105f81461033f5780633197cbb61461035f578063343e31f51461037557005b80630a2642bf1461023e5780630e022923146102715780631959a002146102915780631a39d8ef146102dd5780631b3ed722146102f3575b005b34801561024a57600080fd5b5061025e610259366004612021565b610760565b6040519081526020015b60405180910390f35b34801561027d57600080fd5b5061025e61028c366004611f0f565b6108d6565b34801561029d57600080fd5b506102c86102ac366004611f0f565b600a602052600090815260409020805460019091015460ff1682565b60408051928352901515602083015201610268565b3480156102e957600080fd5b5061025e60095481565b3480156102ff57600080fd5b5061025e600f5481565b34801561031557600080fd5b5061025e600e5481565b34801561032b57600080fd5b5061023c61033a366004612021565b61097c565b34801561034b57600080fd5b5061025e61035a366004611f0f565b6109b3565b34801561036b57600080fd5b5061025e60055481565b34801561038157600080fd5b5061025e600d5481565b34801561039757600080fd5b5061023c610a34565b3480156103ac57600080fd5b5061023c6103bb366004612021565b610a46565b3480156103cc57600080fd5b5061023c610a74565b3480156103e157600080fd5b506103ea610c95565b604051610268979695949392919061215d565b34801561040957600080fd5b50600154600160a01b900460ff165b6040519015158152602001610268565b34801561043457600080fd5b5061023c610443366004611f2b565b610d8d565b34801561045457600080fd5b5061023c610463366004612021565b610e6f565b34801561047457600080fd5b50610418610483366004611f0f565b6001600160a01b03166000908152600a602052604090206001015460ff1690565b3480156104b057600080fd5b5061025e6104bf366004611f0f565b610e7c565b3480156104d057600080fd5b5061023c6104df366004612021565b610f95565b3480156104f057600080fd5b5061023c610fef565b34801561050557600080fd5b5061023c610514366004612021565b611001565b34801561052557600080fd5b5061025e60045481565b34801561053b57600080fd5b5061023c61105b565b34801561055057600080fd5b5061025e61055f366004611f0f565b61106b565b34801561057057600080fd5b506001546001600160a01b03165b6040516001600160a01b039091168152602001610268565b3480156105a257600080fd5b5061025e60075481565b3480156105b857600080fd5b5060025461057e906001600160a01b031681565b3480156105d857600080fd5b5061023c6105e7366004611f0f565b6110db565b3480156105f857600080fd5b5061025e610607366004611f0f565b611239565b61023c61061a366004612021565b6112c2565b34801561062b57600080fd5b5060035461057e906001600160a01b031681565b34801561064b57600080fd5b5061057e61065a366004612021565b6115a2565b34801561066b57600080fd5b5061025e61067a366004611f0f565b6115cc565b34801561068b57600080fd5b5061023c61069a366004612021565b611600565b3480156106ab57600080fd5b5061023c6106ba366004612021565b61164a565b3480156106cb57600080fd5b5061025e60085481565b3480156106e157600080fd5b5061023c6106f0366004611f0f565b611694565b34801561070157600080fd5b5061023c610710366004611f0f565b6116e4565b34801561072157600080fd5b5061025e60065481565b34801561073757600080fd5b50600c5461057e906001600160a01b031681565b34801561075757600080fd5b50600b5461025e565b600c5460405163bbc3f7cf60e01b81526004810183905260009182916001600160a01b039091169063bbc3f7cf9060240160206040518083038186803b1580156107a957600080fd5b505afa1580156107bd573d6000803e3d6000fd5b505050506040513d601f19601f820116820180604052508101906107e19190612039565b6002549091506001600160a01b031661082e57610827612710610821670de0b6b3a764000061081b600f548661175a90919063ffffffff16565b9061175a565b90611766565b9392505050565b610827612710610821600260009054906101000a90046001600160a01b03166001600160a01b031663313ce5676040518163ffffffff1660e01b815260040160206040518083038186803b15801561088557600080fd5b505afa158015610899573d6000803e3d6000fd5b505050506040513d601f19601f820116820180604052508101906108bd9190612051565b6108c890600a612228565b600f5461081b90869061175a565b600c54600d54600e54604051636002de6760e01b815260009384936001600160a01b0390911692636002de6792610913928892909160040161210d565b60206040518083038186803b15801561092b57600080fd5b505afa15801561093f573d6000803e3d6000fd5b505050506040513d601f19601f820116820180604052508101906109639190612039565b9050806109735750600092915050565b61082781610760565b610984611772565b60045442106109ae5760405162461bcd60e51b81526004016109a590612141565b60405180910390fd5b600855565b6000600754600954116109c857506000919050565b60006109d3836115cc565b905060006109f8670de0b6b3a76400006108218460075461175a90919063ffffffff16565b6001600160a01b0385166000908152600a6020526040902054909150610a2c9061271090610a2690846117cc565b906117cc565b949350505050565b610a3c611772565b610a446117d8565b565b610a4e611772565b6004544210610a6f5760405162461bcd60e51b81526004016109a590612141565b600755565b60026000541415610ac75760405162461bcd60e51b815260206004820152601f60248201527f5265656e7472616e637947756172643a207265656e7472616e742063616c6c0060448201526064016109a5565b60026000556006544211610b105760405162461bcd60e51b815260206004820152601060248201526f6e6f7420686172766573742074696d6560801b60448201526064016109a5565b336000908152600a6020526040902054610b655760405162461bcd60e51b81526020600482015260166024820152756861766520796f75207061727469636970617465643f60501b60448201526064016109a5565b336000908152600a602052604090206001015460ff1615610bbd5760405162461bcd60e51b81526020600482015260126024820152711b9bdd1a1a5b99c81d1bc81a185c9d995cdd60721b60448201526064016109a5565b610bc561182d565b6000610bd03361106b565b90506000610bdd336109b3565b600354909150610bf7906001600160a01b0316338461187a565b8015610c33576002546001600160a01b0316610c1c57610c1733826118dd565b610c33565b600254610c33906001600160a01b0316338361187a565b336000818152600a60209081526040918290206001908101805460ff1916909117905581518581529081018490527f71bab65ced2e5750775a0613be067df48ef06cf92a496ebf7663ae0660924954910160405180910390a250506001600055565b610c9d611ede565b610ca5611ede565b6000806000806000610cb5611ede565b6002546001600160a01b0316610d3657604051806080016040528060006001600160a01b03168152602001601281526020016040518060400160405280600b81526020016a25b0b93234b0a1b430b4b760a91b8152508152602001604051806040016040528060038152602001624b414960e81b8152508152509050610d4e565b600254610d4b906001600160a01b03166119a6565b90505b600354600090610d66906001600160a01b03166119a6565b600454600554600654600854600754969e949d50929b509099509750955091935090915050565b610d95611772565b6001600160a01b038216610ddd576040516001600160a01b038216904780156108fc02916000818181858888f19350505050158015610dd8573d6000803e3d6000fd5b505050565b6040516370a0823160e01b8152306004820152610e6b9082906001600160a01b038516906370a082319060240160206040518083038186803b158015610e2257600080fd5b505afa158015610e36573d6000803e3d6000fd5b505050506040513d601f19601f82011682018060405250810190610e5a9190612039565b6001600160a01b038516919061187a565b5050565b610e77611772565b600f55565b600c54600d54600e54604051636002de6760e01b815260009384936001600160a01b0390911692636002de6792610eb9928892909160040161210d565b60206040518083038186803b158015610ed157600080fd5b505afa158015610ee5573d6000803e3d6000fd5b505050506040513d601f19601f82011682018060405250810190610f099190612039565b905080610f195750600092915050565b600c5460405163bbc3f7cf60e01b8152600481018390526001600160a01b039091169063bbc3f7cf9060240160206040518083038186803b158015610f5d57600080fd5b505afa158015610f71573d6000803e3d6000fd5b505050506040513d601f19601f820116820180604052508101906108279190612039565b610f9d611772565b4281118015610fad575060065481105b610fea5760405162461bcd60e51b815260206004820152600e60248201526d74696d6520696e76616c6964212160901b60448201526064016109a5565b600555565b610ff7611772565b610a446000611b38565b611009611772565b4281118015611019575060055481115b6110565760405162461bcd60e51b815260206004820152600e60248201526d74696d6520696e76616c6964212160901b60448201526064016109a5565b600655565b611063611772565b610a44611b8a565b600060075460095411156110a7576000611084836115cc565b9050610827670de0b6b3a76400006108218360085461175a90919063ffffffff16565b6007546008546001600160a01b0384166000908152600a60205260409020546110d59291610821919061175a565b92915050565b6110e3611772565b6002546001600160a01b0316611114576000600754471061110657600754611108565b475b9050610e6b82826118dd565b6007546002546040516370a0823160e01b8152306004820152600092916001600160a01b0316906370a082319060240160206040518083038186803b15801561115c57600080fd5b505afa158015611170573d6000803e3d6000fd5b505050506040513d601f19601f820116820180604052508101906111949190612039565b106111a15760075461121c565b6002546040516370a0823160e01b81523060048201526001600160a01b03909116906370a082319060240160206040518083038186803b1580156111e457600080fd5b505afa1580156111f8573d6000803e3d6000fd5b505050506040513d601f19601f8201168201806040525081019061121c9190612039565b600254909150610e6b906001600160a01b0316838361187a565b50565b600c54600d54600e54604051636002de6760e01b81526000936001600160a01b031692636002de6792611272928792919060040161210d565b60206040518083038186803b15801561128a57600080fd5b505afa15801561129e573d6000803e3d6000fd5b505050506040513d601f19601f820116820180604052508101906110d59190612039565b600260005414156113155760405162461bcd60e51b815260206004820152601f60248201527f5265656e7472616e637947756172643a207265656e7472616e742063616c6c0060448201526064016109a5565b600260005560045481904211801561132e575060055442105b61136d5760405162461bcd60e51b815260206004820152601060248201526f6e6f742072616973696e672074696d6560801b60448201526064016109a5565b600081116113b05760405162461bcd60e51b815260206004820152601060248201526f06e656564205f616d6f756e74203e20360841b60448201526064016109a5565b6113b861182d565b60006113c333611bcd565b336000908152600a6020526040902054909150811161141c5760405162461bcd60e51b81526020600482015260156024820152746e6f7420656c696769626c6520616d6f756e74212160581b60448201526064016109a5565b336000908152600a602052604081205461143690836122f2565b905083808210156114445750805b6002546001600160a01b03166114b857803410156114985760405162461bcd60e51b81526020600482015260116024820152700c2dadeeadce840dcdee840cadcdeeaced607b1b60448201526064016109a5565b803411156114b3576114b3336114ae83346122f2565b6118dd565b6114d0565b6002546114d0906001600160a01b0316333084611c5e565b336000908152600a602052604090205461152757600b80546001810182556000919091527f0175b7a638427703f0dbe7bb9bbf987a2551717b34e79f33b5b1008d1fa01db90180546001600160a01b031916331790555b336000908152600a60205260409020546115419082611c9c565b336000908152600a602052604090205560095461155e9082611c9c565b60095560405181815233907fe1fffcc4923d04b559f4d29a8bfc6cda04eb5b0d3c460751c2402c5c5cc9109c9060200160405180910390a250506001600055505050565b600b81815481106115b257600080fd5b6000918252602090912001546001600160a01b0316905081565b6009546001600160a01b0382166000908152600a602052604081205490916110d59161082190670de0b6b3a764000061175a565b611608611772565b600081116116455760405162461bcd60e51b815260206004820152600a6024820152691259081a5b9d985b1a5960b21b60448201526064016109a5565b600e55565b611652611772565b6000811161168f5760405162461bcd60e51b815260206004820152600a6024820152691259081a5b9d985b1a5960b21b60448201526064016109a5565b600d55565b61169c611772565b6001600160a01b0381166116c25760405162461bcd60e51b81526004016109a590612141565b600380546001600160a01b0319166001600160a01b0392909216919091179055565b6116ec611772565b6001600160a01b0381166117515760405162461bcd60e51b815260206004820152602660248201527f4f776e61626c653a206e6577206f776e657220697320746865207a65726f206160448201526564647265737360d01b60648201526084016109a5565b61123681611b38565b600061082782846122d3565b600061082782846121c5565b6001546001600160a01b03163314610a445760405162461bcd60e51b815260206004820181905260248201527f4f776e61626c653a2063616c6c6572206973206e6f7420746865206f776e657260448201526064016109a5565b600061082782846122f2565b6117e0611ca8565b6001805460ff60a01b191690557f5db9ee0a495bf2e6ff9c91a7834c1ba4fdd244a5e8aa4e537bd38aeae4b073aa335b6040516001600160a01b03909116815260200160405180910390a1565b600154600160a01b900460ff1615610a445760405162461bcd60e51b815260206004820152601060248201526f14185d5cd8589b194e881c185d5cd95960821b60448201526064016109a5565b6040516001600160a01b038316602482015260448101829052610dd890849063a9059cbb60e01b906064015b60408051601f198184030181529190526020810180516001600160e01b03166001600160e01b031990931692909217909152611cf8565b604080516000808252602082019092526001600160a01b03841690839060405161190791906120f1565b60006040518083038185875af1925050503d8060008114611944576040519150601f19603f3d011682016040523d82523d6000602084013e611949565b606091505b5050905080610dd85760405162461bcd60e51b815260206004820152602360248201527f5472616e7366657248656c7065723a204b41495f5452414e534645525f46414960448201526213115160ea1b60648201526084016109a5565b6119ae611ede565b6040518060800160405280836001600160a01b03168152602001836001600160a01b031663313ce5676040518163ffffffff1660e01b815260040160206040518083038186803b158015611a0157600080fd5b505afa158015611a15573d6000803e3d6000fd5b505050506040513d601f19601f82011682018060405250810190611a399190612051565b60ff168152602001836001600160a01b03166306fdde036040518163ffffffff1660e01b815260040160006040518083038186803b158015611a7a57600080fd5b505afa158015611a8e573d6000803e3d6000fd5b505050506040513d6000823e601f3d908101601f19168201604052611ab69190810190611f83565b8152602001836001600160a01b03166395d89b416040518163ffffffff1660e01b815260040160006040518083038186803b158015611af457600080fd5b505afa158015611b08573d6000803e3d6000fd5b505050506040513d6000823e601f3d908101601f19168201604052611b309190810190611f83565b905292915050565b600180546001600160a01b038381166001600160a01b0319831681179093556040519116919082907f8be0079c531659141344cd1fd0a4f28419497f9722a3daafe3b4186f6b6457e090600090a35050565b611b9261182d565b6001805460ff60a01b1916600160a01b1790557f62e78cea01bee320cd4e420270b5ea74000d11b0c9f74754ebdbfc544b05a2586118103390565b600080600d54118015611be35750600d54600e54115b611c255760405162461bcd60e51b815260206004820152601360248201527214db985c1cda1bdd081a59081b9bdd081cd95d606a1b60448201526064016109a5565b600c54600d54600e54604051636002de6760e01b81526000936001600160a01b031692636002de6792610913928892919060040161210d565b6040516001600160a01b0380851660248301528316604482015260648101829052611c969085906323b872dd60e01b906084016118a6565b50505050565b600061082782846121ad565b600154600160a01b900460ff16610a445760405162461bcd60e51b815260206004820152601460248201527314185d5cd8589b194e881b9bdd081c185d5cd95960621b60448201526064016109a5565b6000611d4d826040518060400160405280602081526020017f5361666545524332303a206c6f772d6c6576656c2063616c6c206661696c6564815250856001600160a01b0316611dca9092919063ffffffff16565b805190915015610dd85780806020019051810190611d6b9190611f63565b610dd85760405162461bcd60e51b815260206004820152602a60248201527f5361666545524332303a204552433230206f7065726174696f6e20646964206e6044820152691bdd081cdd58d8d9595960b21b60648201526084016109a5565b6060610a2c8484600085856001600160a01b0385163b611e2c5760405162461bcd60e51b815260206004820152601d60248201527f416464726573733a2063616c6c20746f206e6f6e2d636f6e747261637400000060448201526064016109a5565b600080866001600160a01b03168587604051611e4891906120f1565b60006040518083038185875af1925050503d8060008114611e85576040519150601f19603f3d011682016040523d82523d6000602084013e611e8a565b606091505b5091509150611e9a828286611ea5565b979650505050505050565b60608315611eb4575081610827565b825115611ec45782518084602001fd5b8160405162461bcd60e51b81526004016109a5919061212e565b604051806080016040528060006001600160a01b031681526020016000815260200160608152602001606081525090565b600060208284031215611f20578081fd5b813561082781612361565b60008060408385031215611f3d578081fd5b8235611f4881612361565b91506020830135611f5881612361565b809150509250929050565b600060208284031215611f74578081fd5b81518015158114610827578182fd5b600060208284031215611f94578081fd5b815167ffffffffffffffff80821115611fab578283fd5b818401915084601f830112611fbe578283fd5b815181811115611fd057611fd061234b565b604051601f8201601f19908116603f01168101908382118183101715611ff857611ff861234b565b81604052828152876020848701011115612010578586fd5b611e9a836020830160208801612309565b600060208284031215612032578081fd5b5035919050565b60006020828403121561204a578081fd5b5051919050565b600060208284031215612062578081fd5b815160ff81168114610827578182fd5b6000815180845261208a816020860160208601612309565b601f01601f19169290920160200192915050565b60018060a01b0381511682526020810151602083015260006040820151608060408501526120cf6080850182612072565b9050606083015184820360608601526120e88282612072565b95945050505050565b60008251612103818460208701612309565b9190910192915050565b6001600160a01b039390931683526020830191909152604082015260600190565b6020815260006108276020830184612072565b6020808252600290820152616e6f60f01b604082015260600190565b60e08152600061217060e083018a61209e565b8281036020840152612182818a61209e565b604084019890985250506060810194909452608084019290925260a083015260c09091015292915050565b600082198211156121c0576121c0612335565b500190565b6000826121e057634e487b7160e01b81526012600452602481fd5b500490565b600181815b8085111561222057816000190482111561220657612206612335565b8085161561221357918102915b93841c93908002906121ea565b509250929050565b600061082760ff841683600082612241575060016110d5565b8161224e575060006110d5565b8160018114612264576002811461226e5761228a565b60019150506110d5565b60ff84111561227f5761227f612335565b50506001821b6110d5565b5060208310610133831016604e8410600b84101617156122ad575081810a6110d5565b6122b783836121e5565b80600019048211156122cb576122cb612335565b029392505050565b60008160001904831182151516156122ed576122ed612335565b500290565b60008282101561230457612304612335565b500390565b60005b8381101561232457818101518382015260200161230c565b83811115611c965750506000910152565b634e487b7160e01b600052601160045260246000fd5b634e487b7160e01b600052604160045260246000fd5b6001600160a01b038116811461123657600080fdfea2646970667358221220178de440012f8cf5e24e2a516cd60ef4565067d09c81617b47a81d07c501441164736f6c63430008040033",
  "linkReferences": {},
  "deployedLinkReferences": {}
}