{
  "_format": "hh-sol-artifact-1",
  "contractName": "FundRaising",
  "sourceName": "contracts/launchpad/tier/FundRaising.sol",
  "abi": [
    {
      "inputs": [
        {
          "internalType": "contract ERC20",
          "name": "_buyToken",
          "type": "address"
        },
        {
          "internalType": "contract ERC20",
          "name": "_offeringToken",
          "type": "address"
        },
        {
          "internalType": "uint256",
          "name": "_startTime",
          "type": "uint256"
        },
        {
          "internalType": "uint256",
          "name": "_endTime",
          "type": "uint256"
        },
        {
          "internalType": "uint256",
          "name": "_harvestTime",
          "type": "uint256"
        },
        {
          "internalType": "uint256",
          "name": "_offeringAmount",
          "type": "uint256"
        },
        {
          "internalType": "uint256",
          "name": "_raisingAmount",
          "type": "uint256"
        },
        {
          "internalType": "contract ITierSystem",
          "name": "_tierSystem",
          "type": "address"
        },
        {
          "internalType": "uint256",
          "name": "_snapshotFrom",
          "type": "uint256"
        },
        {
          "internalType": "uint256",
          "name": "_snapshotTo",
          "type": "uint256"
        },
        {
          "internalType": "uint256",
          "name": "_multiplier",
          "type": "uint256"
        }
      ],
      "stateMutability": "nonpayable",
      "type": "constructor"
    },
    {
      "anonymous": false,
      "inputs": [
        {
          "indexed": true,
          "internalType": "address",
          "name": "user",
          "type": "address"
        },
        {
          "indexed": false,
          "internalType": "uint256",
          "name": "amount",
          "type": "uint256"
        }
      ],
      "name": "Deposit",
      "type": "event"
    },
    {
      "anonymous": false,
      "inputs": [
        {
          "indexed": true,
          "internalType": "address",
          "name": "user",
          "type": "address"
        },
        {
          "indexed": false,
          "internalType": "uint256",
          "name": "offeringAmount",
          "type": "uint256"
        },
        {
          "indexed": false,
          "internalType": "uint256",
          "name": "excessAmount",
          "type": "uint256"
        }
      ],
      "name": "Harvest",
      "type": "event"
    },
    {
      "anonymous": false,
      "inputs": [
        {
          "indexed": true,
          "internalType": "address",
          "name": "previousOwner",
          "type": "address"
        },
        {
          "indexed": true,
          "internalType": "address",
          "name": "newOwner",
          "type": "address"
        }
      ],
      "name": "OwnershipTransferred",
      "type": "event"
    },
    {
      "anonymous": false,
      "inputs": [
        {
          "indexed": false,
          "internalType": "address",
          "name": "account",
          "type": "address"
        }
      ],
      "name": "Paused",
      "type": "event"
    },
    {
      "anonymous": false,
      "inputs": [
        {
          "indexed": false,
          "internalType": "address",
          "name": "account",
          "type": "address"
        }
      ],
      "name": "Unpaused",
      "type": "event"
    },
    {
      "inputs": [
        {
          "internalType": "uint256",
          "name": "",
          "type": "uint256"
        }
      ],
      "name": "addressList",
      "outputs": [
        {
          "internalType": "address",
          "name": "",
          "type": "address"
        }
      ],
      "stateMutability": "view",
      "type": "function"
    },
    {
      "inputs": [
        {
          "internalType": "uint256",
          "name": "_tier",
          "type": "uint256"
        }
      ],
      "name": "allocations",
      "outputs": [
        {
          "internalType": "uint256",
          "name": "",
          "type": "uint256"
        }
      ],
      "stateMutability": "view",
      "type": "function"
    },
    {
      "inputs": [],
      "name": "buyToken",
      "outputs": [
        {
          "internalType": "contract ERC20",
          "name": "",
          "type": "address"
        }
      ],
      "stateMutability": "view",
      "type": "function"
    },
    {
      "inputs": [
        {
          "internalType": "uint256",
          "name": "_amount",
          "type": "uint256"
        }
      ],
      "name": "deposit",
      "outputs": [],
      "stateMutability": "payable",
      "type": "function"
    },
    {
      "inputs": [
        {
          "internalType": "address",
          "name": "token",
          "type": "address"
        },
        {
          "internalType": "address payable",
          "name": "to",
          "type": "address"
        }
      ],
      "name": "emergencyWithdraw",
      "outputs": [],
      "stateMutability": "nonpayable",
      "type": "function"
    },
    {
      "inputs": [],
      "name": "endTime",
      "outputs": [
        {
          "internalType": "uint256",
          "name": "",
          "type": "uint256"
        }
      ],
      "stateMutability": "view",
      "type": "function"
    },
    {
      "inputs": [
        {
          "internalType": "address",
          "name": "_destination",
          "type": "address"
        }
      ],
      "name": "finalWithdraw",
      "outputs": [],
      "stateMutability": "nonpayable",
      "type": "function"
    },
    {
      "inputs": [],
      "name": "getAddressListLength",
      "outputs": [
        {
          "internalType": "uint256",
          "name": "",
          "type": "uint256"
        }
      ],
      "stateMutability": "view",
      "type": "function"
    },
    {
      "inputs": [
        {
          "internalType": "address",
          "name": "_account",
          "type": "address"
        }
      ],
      "name": "getAllocation",
      "outputs": [
        {
          "internalType": "uint256",
          "name": "",
          "type": "uint256"
        }
      ],
      "stateMutability": "view",
      "type": "function"
    },
    {
      "inputs": [
        {
          "internalType": "address",
          "name": "_account",
          "type": "address"
        }
      ],
      "name": "getAllocationPoint",
      "outputs": [
        {
          "internalType": "uint256",
          "name": "",
          "type": "uint256"
        }
      ],
      "stateMutability": "view",
      "type": "function"
    },
    {
      "inputs": [],
      "name": "getInfo",
      "outputs": [
        {
          "components": [
            {
              "internalType": "contract ERC20",
              "name": "token",
              "type": "address"
            },
            {
              "internalType": "uint256",
              "name": "decimals",
              "type": "uint256"
            },
            {
              "internalType": "string",
              "name": "name",
              "type": "string"
            },
            {
              "internalType": "string",
              "name": "symbol",
              "type": "string"
            }
          ],
          "internalType": "struct FundRaising.TokenInfo",
          "name": "",
          "type": "tuple"
        },
        {
          "components": [
            {
              "internalType": "contract ERC20",
              "name": "token",
              "type": "address"
            },
            {
              "internalType": "uint256",
              "name": "decimals",
              "type": "uint256"
            },
            {
              "internalType": "string",
              "name": "name",
              "type": "string"
            },
            {
              "internalType": "string",
              "name": "symbol",
              "type": "string"
            }
          ],
          "internalType": "struct FundRaising.TokenInfo",
          "name": "",
          "type": "tuple"
        },
        {
          "internalType": "uint256",
          "name": "",
          "type": "uint256"
        },
        {
          "internalType": "uint256",
          "name": "",
          "type": "uint256"
        },
        {
          "internalType": "uint256",
          "name": "",
          "type": "uint256"
        },
        {
          "internalType": "uint256",
          "name": "",
          "type": "uint256"
        },
        {
          "internalType": "uint256",
          "name": "",
          "type": "uint256"
        }
      ],
      "stateMutability": "view",
      "type": "function"
    },
    {
      "inputs": [
        {
          "internalType": "address",
          "name": "_user",
          "type": "address"
        }
      ],
      "name": "getOfferingAmount",
      "outputs": [
        {
          "internalType": "uint256",
          "name": "",
          "type": "uint256"
        }
      ],
      "stateMutability": "view",
      "type": "function"
    },
    {
      "inputs": [
        {
          "internalType": "address",
          "name": "_user",
          "type": "address"
        }
      ],
      "name": "getRefundingAmount",
      "outputs": [
        {
          "internalType": "uint256",
          "name": "",
          "type": "uint256"
        }
      ],
      "stateMutability": "view",
      "type": "function"
    },
    {
      "inputs": [
        {
          "internalType": "address",
          "name": "_account",
          "type": "address"
        }
      ],
      "name": "getTier",
      "outputs": [
        {
          "internalType": "uint256",
          "name": "",
          "type": "uint256"
        }
      ],
      "stateMutability": "view",
      "type": "function"
    },
    {
      "inputs": [
        {
          "internalType": "address",
          "name": "_user",
          "type": "address"
        }
      ],
      "name": "getUserAllocation",
      "outputs": [
        {
          "internalType": "uint256",
          "name": "",
          "type": "uint256"
        }
      ],
      "stateMutability": "view",
      "type": "function"
    },
    {
      "inputs": [],
      "name": "harvest",
      "outputs": [],
      "stateMutability": "nonpayable",
      "type": "function"
    },
    {
      "inputs": [],
      "name": "harvestTime",
      "outputs": [
        {
          "internalType": "uint256",
          "name": "",
          "type": "uint256"
        }
      ],
      "stateMutability": "view",
      "type": "function"
    },
    {
      "inputs": [
        {
          "internalType": "address",
          "name": "_user",
          "type": "address"
        }
      ],
      "name": "hasHarvest",
      "outputs": [
        {
          "internalType": "bool",
          "name": "",
          "type": "bool"
        }
      ],
      "stateMutability": "view",
      "type": "function"
    },
    {
      "inputs": [],
      "name": "multiplier",
      "outputs": [
        {
          "internalType": "uint256",
          "name": "",
          "type": "uint256"
        }
      ],
      "stateMutability": "view",
      "type": "function"
    },
    {
      "inputs": [],
      "name": "offeringAmount",
      "outputs": [
        {
          "internalType": "uint256",
          "name": "",
          "type": "uint256"
        }
      ],
      "stateMutability": "view",
      "type": "function"
    },
    {
      "inputs": [],
      "name": "offeringToken",
      "outputs": [
        {
          "internalType": "contract ERC20",
          "name": "",
          "type": "address"
        }
      ],
      "stateMutability": "view",
      "type": "function"
    },
    {
      "inputs": [],
      "name": "owner",
      "outputs": [
        {
          "internalType": "address",
          "name": "",
          "type": "address"
        }
      ],
      "stateMutability": "view",
      "type": "function"
    },
    {
      "inputs": [],
      "name": "pause",
      "outputs": [],
      "stateMutability": "nonpayable",
      "type": "function"
    },
    {
      "inputs": [],
      "name": "paused",
      "outputs": [
        {
          "internalType": "bool",
          "name": "",
          "type": "bool"
        }
      ],
      "stateMutability": "view",
      "type": "function"
    },
    {
      "inputs": [],
      "name": "raisingAmount",
      "outputs": [
        {
          "internalType": "uint256",
          "name": "",
          "type": "uint256"
        }
      ],
      "stateMutability": "view",
      "type": "function"
    },
    {
      "inputs": [],
      "name": "renounceOwnership",
      "outputs": [],
      "stateMutability": "nonpayable",
      "type": "function"
    },
    {
      "inputs": [
        {
          "internalType": "uint256",
          "name": "mul",
          "type": "uint256"
        }
      ],
      "name": "setMultiplier",
      "outputs": [],
      "stateMutability": "nonpayable",
      "type": "function"
    },
    {
      "inputs": [
        {
          "internalType": "uint256",
          "name": "_offerAmount",
          "type": "uint256"
        }
      ],
      "name": "setOfferingAmount",
      "outputs": [],
      "stateMutability": "nonpayable",
      "type": "function"
    },
    {
      "inputs": [
        {
          "internalType": "uint256",
          "name": "_raisingAmount",
          "type": "uint256"
        }
      ],
      "name": "setRaisingAmount",
      "outputs": [],
      "stateMutability": "nonpayable",
      "type": "function"
    },
    {
      "inputs": [
        {
          "internalType": "uint256",
          "name": "id",
          "type": "uint256"
        }
      ],
      "name": "setSnapshotFrom",
      "outputs": [],
      "stateMutability": "nonpayable",
      "type": "function"
    },
    {
      "inputs": [
        {
          "internalType": "uint256",
          "name": "id",
          "type": "uint256"
        }
      ],
      "name": "setSnapshotTo",
      "outputs": [],
      "stateMutability": "nonpayable",
      "type": "function"
    },
    {
      "inputs": [],
      "name": "snapshotFrom",
      "outputs": [
        {
          "internalType": "uint256",
          "name": "",
          "type": "uint256"
        }
      ],
      "stateMutability": "view",
      "type": "function"
    },
    {
      "inputs": [],
      "name": "snapshotTo",
      "outputs": [
        {
          "internalType": "uint256",
          "name": "",
          "type": "uint256"
        }
      ],
      "stateMutability": "view",
      "type": "function"
    },
    {
      "inputs": [],
      "name": "startTime",
      "outputs": [
        {
          "internalType": "uint256",
          "name": "",
          "type": "uint256"
        }
      ],
      "stateMutability": "view",
      "type": "function"
    },
    {
      "inputs": [],
      "name": "tierSystem",
      "outputs": [
        {
          "internalType": "contract ITierSystem",
          "name": "",
          "type": "address"
        }
      ],
      "stateMutability": "view",
      "type": "function"
    },
    {
      "inputs": [],
      "name": "totalAmount",
      "outputs": [
        {
          "internalType": "uint256",
          "name": "",
          "type": "uint256"
        }
      ],
      "stateMutability": "view",
      "type": "function"
    },
    {
      "inputs": [
        {
          "internalType": "address",
          "name": "newOwner",
          "type": "address"
        }
      ],
      "name": "transferOwnership",
      "outputs": [],
      "stateMutability": "nonpayable",
      "type": "function"
    },
    {
      "inputs": [],
      "name": "unpause",
      "outputs": [],
      "stateMutability": "nonpayable",
      "type": "function"
    },
    {
      "inputs": [
        {
          "internalType": "uint256",
          "name": "_newTime",
          "type": "uint256"
        }
      ],
      "name": "updateEndTime",
      "outputs": [],
      "stateMutability": "nonpayable",
      "type": "function"
    },
    {
      "inputs": [
        {
          "internalType": "uint256",
          "name": "_newTime",
          "type": "uint256"
        }
      ],
      "name": "updateHarvestTime",
      "outputs": [],
      "stateMutability": "nonpayable",
      "type": "function"
    },
    {
      "inputs": [
        {
          "internalType": "address",
          "name": "",
          "type": "address"
        }
      ],
      "name": "userInfo",
      "outputs": [
        {
          "internalType": "uint256",
          "name": "amount",
          "type": "uint256"
        },
        {
          "internalType": "bool",
          "name": "claimed",
          "type": "bool"
        }
      ],
      "stateMutability": "view",
      "type": "function"
    }
  ],
  "bytecode": "0x60806040523480156200001157600080fd5b506040516200267e3803806200267e83398101604081905262000034916200013a565b60016000556200004433620000e8565b6001805460ff60a01b191690558787108015906200006157508888115b80156200006d57504289115b6200007757600080fd5b600280546001600160a01b03199081166001600160a01b039d8e16179091556003805482169b8d169b909b17909a556004989098556005969096556006949094556008929092556007556000600955600c8054909516951694909417909255600d92909255600e55600f55620001f8565b600180546001600160a01b038381166001600160a01b0319831681179093556040519116919082907f8be0079c531659141344cd1fd0a4f28419497f9722a3daafe3b4186f6b6457e090600090a35050565b60008060008060008060008060008060006101608c8e0312156200015c578687fd5b8b516200016981620001df565b60208d0151909b506200017c81620001df565b809a505060408c0151985060608c0151975060808c0151965060a08c0151955060c08c0151945060e08c0151620001b381620001df565b809450506101008c015192506101208c015191506101408c015190509295989b509295989b9093969950565b6001600160a01b0381168114620001f557600080fd5b50565b61247680620002086000396000f3fe6080604052600436106102465760003560e01c8063715018a611610139578063b6b55f25116100b6578063d16bba941161007a578063d16bba94146106ae578063e1af9a95146106ce578063f2fde38b146106e4578063f480821014610704578063f8caa7e51461071a578063fc00358e1461073a57600080fd5b8063b6b55f251461061b578063b78136071461062e578063b810fb431461064e578063b920ade21461066e578063c2c9721b1461068e57600080fd5b80638da5cb5b116100fd5780638da5cb5b146105735780639c0a7669146105a5578063a4821719146105bb578063ac3ff912146105db578063b45aae52146105fb57600080fd5b8063715018a6146104f357806376ea6ee01461050857806378e97925146105285780638456cb591461053e57806387e97bc61461055357600080fd5b80633f4ba83a116101c75780636382d9ad1161018b5780636382d9ad14610437578063641579a61461045757806364ce9fff146104775780636a2ce513146104b35780636ab3846b146104d357600080fd5b80633f4ba83a1461039a5780634225c32f146103af5780634641257d146103cf5780635a9b0b89146103e45780635c975abb1461040c57600080fd5b806322b331751161020e57806322b331751461031657806327d1b1a21461032c5780632f5105f81461034e5780633197cbb61461036e578063343e31f51461038457600080fd5b80630a2642bf1461024b5780630e0229231461027e5780631959a0021461029e5780631a39d8ef146102ea5780631b3ed72214610300575b600080fd5b34801561025757600080fd5b5061026b6102663660046120a8565b61074f565b6040519081526020015b60405180910390f35b34801561028a57600080fd5b5061026b610299366004611f96565b6108c5565b3480156102aa57600080fd5b506102d56102b9366004611f96565b600a602052600090815260409020805460019091015460ff1682565b60408051928352901515602083015201610275565b3480156102f657600080fd5b5061026b60095481565b34801561030c57600080fd5b5061026b600f5481565b34801561032257600080fd5b5061026b600e5481565b34801561033857600080fd5b5061034c6103473660046120a8565b61096b565b005b34801561035a57600080fd5b5061026b610369366004611f96565b6109d9565b34801561037a57600080fd5b5061026b60055481565b34801561039057600080fd5b5061026b600d5481565b3480156103a657600080fd5b5061034c610a4c565b3480156103bb57600080fd5b5061034c6103ca3660046120a8565b610a80565b3480156103db57600080fd5b5061034c610ae5565b3480156103f057600080fd5b506103f9610d28565b6040516102759796959493929190612227565b34801561041857600080fd5b50600154600160a01b900460ff165b6040519015158152602001610275565b34801561044357600080fd5b5061034c610452366004611fb2565b610e20565b34801561046357600080fd5b5061034c6104723660046120a8565b610f24565b34801561048357600080fd5b50610427610492366004611f96565b6001600160a01b03166000908152600a602052604090206001015460ff1690565b3480156104bf57600080fd5b5061026b6104ce366004611f96565b610f53565b3480156104df57600080fd5b5061034c6104ee3660046120a8565b61106c565b3480156104ff57600080fd5b5061034c6110e8565b34801561051457600080fd5b5061034c6105233660046120a8565b61111c565b34801561053457600080fd5b5061026b60045481565b34801561054a57600080fd5b5061034c611198565b34801561055f57600080fd5b5061026b61056e366004611f96565b6111ca565b34801561057f57600080fd5b506001546001600160a01b03165b6040516001600160a01b039091168152602001610275565b3480156105b157600080fd5b5061026b60075481565b3480156105c757600080fd5b5060025461058d906001600160a01b031681565b3480156105e757600080fd5b5061034c6105f6366004611f96565b61123a565b34801561060757600080fd5b5061026b610616366004611f96565b611315565b61034c6106293660046120a8565b61139e565b34801561063a57600080fd5b5060035461058d906001600160a01b031681565b34801561065a57600080fd5b5061058d6106693660046120a8565b6116a0565b34801561067a57600080fd5b5061026b610689366004611f96565b6116ca565b34801561069a57600080fd5b5061034c6106a93660046120a8565b6116fe565b3480156106ba57600080fd5b5061034c6106c93660046120a8565b61176a565b3480156106da57600080fd5b5061026b60085481565b3480156106f057600080fd5b5061034c6106ff366004611f96565b6117d6565b34801561071057600080fd5b5061026b60065481565b34801561072657600080fd5b50600c5461058d906001600160a01b031681565b34801561074657600080fd5b50600b5461026b565b600c5460405163bbc3f7cf60e01b81526004810183905260009182916001600160a01b039091169063bbc3f7cf9060240160206040518083038186803b15801561079857600080fd5b505afa1580156107ac573d6000803e3d6000fd5b505050506040513d601f19601f820116820180604052508101906107d091906120c0565b6002549091506001600160a01b031661081d57610816612710610810670de0b6b3a764000061080a600f548661186e90919063ffffffff16565b9061186e565b9061187a565b9392505050565b610816612710610810600260009054906101000a90046001600160a01b03166001600160a01b031663313ce5676040518163ffffffff1660e01b815260040160206040518083038186803b15801561087457600080fd5b505afa158015610888573d6000803e3d6000fd5b505050506040513d601f19601f820116820180604052508101906108ac91906120d8565b6108b790600a6122f2565b600f5461080a90869061186e565b600c54600d54600e54604051636002de6760e01b815260009384936001600160a01b0390911692636002de67926109029288929091600401612194565b60206040518083038186803b15801561091a57600080fd5b505afa15801561092e573d6000803e3d6000fd5b505050506040513d601f19601f8201168201806040525081019061095291906120c0565b9050806109625750600092915050565b6108168161074f565b6001546001600160a01b0316331461099e5760405162461bcd60e51b8152600401610995906121f2565b60405180910390fd5b60045442106109d45760405162461bcd60e51b81526020600482015260026024820152616e6f60f01b6044820152606401610995565b600855565b6000600754600954116109ee57506000919050565b60006109f9836116ca565b90506000610a1e670de0b6b3a76400006108108460075461186e90919063ffffffff16565b6001600160a01b0385166000908152600a6020526040902054909150610a449082611886565b949350505050565b6001546001600160a01b03163314610a765760405162461bcd60e51b8152600401610995906121f2565b610a7e611892565b565b6001546001600160a01b03163314610aaa5760405162461bcd60e51b8152600401610995906121f2565b6004544210610ae05760405162461bcd60e51b81526020600482015260026024820152616e6f60f01b6044820152606401610995565b600755565b60026000541415610b385760405162461bcd60e51b815260206004820152601f60248201527f5265656e7472616e637947756172643a207265656e7472616e742063616c6c006044820152606401610995565b60026000556006544211610b815760405162461bcd60e51b815260206004820152601060248201526f6e6f7420686172766573742074696d6560801b6044820152606401610995565b336000908152600a6020526040902054610bd65760405162461bcd60e51b81526020600482015260166024820152756861766520796f75207061727469636970617465643f60501b6044820152606401610995565b336000908152600a602052604090206001015460ff1615610c2e5760405162461bcd60e51b81526020600482015260126024820152711b9bdd1a1a5b99c81d1bc81a185c9d995cdd60721b6044820152606401610995565b600154600160a01b900460ff1615610c585760405162461bcd60e51b8152600401610995906121c8565b6000610c63336111ca565b90506000610c70336109d9565b600354909150610c8a906001600160a01b0316338461192f565b8015610cc6576002546001600160a01b0316610caf57610caa3382611992565b610cc6565b600254610cc6906001600160a01b0316338361192f565b336000818152600a60209081526040918290206001908101805460ff1916909117905581518581529081018490527f71bab65ced2e5750775a0613be067df48ef06cf92a496ebf7663ae0660924954910160405180910390a250506001600055565b610d30611f65565b610d38611f65565b6000806000806000610d48611f65565b6002546001600160a01b0316610dc957604051806080016040528060006001600160a01b03168152602001601281526020016040518060400160405280600b81526020016a25b0b93234b0a1b430b4b760a91b8152508152602001604051806040016040528060038152602001624b414960e81b8152508152509050610de1565b600254610dde906001600160a01b0316611a5b565b90505b600354600090610df9906001600160a01b0316611a5b565b600454600554600654600854600754969e949d50929b509099509750955091935090915050565b6001546001600160a01b03163314610e4a5760405162461bcd60e51b8152600401610995906121f2565b6001600160a01b038216610e92576040516001600160a01b038216904780156108fc02916000818181858888f19350505050158015610e8d573d6000803e3d6000fd5b505050565b6040516370a0823160e01b8152306004820152610f209082906001600160a01b038516906370a082319060240160206040518083038186803b158015610ed757600080fd5b505afa158015610eeb573d6000803e3d6000fd5b505050506040513d601f19601f82011682018060405250810190610f0f91906120c0565b6001600160a01b038516919061192f565b5050565b6001546001600160a01b03163314610f4e5760405162461bcd60e51b8152600401610995906121f2565b600f55565b600c54600d54600e54604051636002de6760e01b815260009384936001600160a01b0390911692636002de6792610f909288929091600401612194565b60206040518083038186803b158015610fa857600080fd5b505afa158015610fbc573d6000803e3d6000fd5b505050506040513d601f19601f82011682018060405250810190610fe091906120c0565b905080610ff05750600092915050565b600c5460405163bbc3f7cf60e01b8152600481018390526001600160a01b039091169063bbc3f7cf9060240160206040518083038186803b15801561103457600080fd5b505afa158015611048573d6000803e3d6000fd5b505050506040513d601f19601f8201168201806040525081019061081691906120c0565b6001546001600160a01b031633146110965760405162461bcd60e51b8152600401610995906121f2565b42811180156110a6575060065481105b6110e35760405162461bcd60e51b815260206004820152600e60248201526d74696d6520696e76616c6964212160901b6044820152606401610995565b600555565b6001546001600160a01b031633146111125760405162461bcd60e51b8152600401610995906121f2565b610a7e6000611bed565b6001546001600160a01b031633146111465760405162461bcd60e51b8152600401610995906121f2565b4281118015611156575060055481115b6111935760405162461bcd60e51b815260206004820152600e60248201526d74696d6520696e76616c6964212160901b6044820152606401610995565b600655565b6001546001600160a01b031633146111c25760405162461bcd60e51b8152600401610995906121f2565b610a7e611c3f565b600060075460095411156112065760006111e3836116ca565b9050610816670de0b6b3a76400006108108360085461186e90919063ffffffff16565b6007546008546001600160a01b0384166000908152600a60205260409020546112349291610810919061186e565b92915050565b6001546001600160a01b031633146112645760405162461bcd60e51b8152600401610995906121f2565b6002546001600160a01b03166112815761127e8147611992565b50565b6002546040516370a0823160e01b815230600482015261127e9183916001600160a01b03909116906370a082319060240160206040518083038186803b1580156112ca57600080fd5b505afa1580156112de573d6000803e3d6000fd5b505050506040513d601f19601f8201168201806040525081019061130291906120c0565b6002546001600160a01b0316919061192f565b600c54600d54600e54604051636002de6760e01b81526000936001600160a01b031692636002de679261134e9287929190600401612194565b60206040518083038186803b15801561136657600080fd5b505afa15801561137a573d6000803e3d6000fd5b505050506040513d601f19601f8201168201806040525081019061123491906120c0565b600260005414156113f15760405162461bcd60e51b815260206004820152601f60248201527f5265656e7472616e637947756172643a207265656e7472616e742063616c6c006044820152606401610995565b600260005560045481904211801561140a575060055442105b6114495760405162461bcd60e51b815260206004820152601060248201526f6e6f742072616973696e672074696d6560801b6044820152606401610995565b6000811161148c5760405162461bcd60e51b815260206004820152601060248201526f06e656564205f616d6f756e74203e20360841b6044820152606401610995565b600154600160a01b900460ff16156114b65760405162461bcd60e51b8152600401610995906121c8565b60006114c133611ca4565b336000908152600a6020526040902054909150811161151a5760405162461bcd60e51b81526020600482015260156024820152746e6f7420656c696769626c6520616d6f756e74212160581b6044820152606401610995565b336000908152600a602052604081205461153490836123bc565b905083808210156115425750805b6002546001600160a01b03166115b657803410156115965760405162461bcd60e51b81526020600482015260116024820152700c2dadeeadce840dcdee840cadcdeeaced607b1b6044820152606401610995565b803411156115b1576115b1336115ac83346123bc565b611992565b6115ce565b6002546115ce906001600160a01b0316333084611d35565b336000908152600a602052604090205461162557600b80546001810182556000919091527f0175b7a638427703f0dbe7bb9bbf987a2551717b34e79f33b5b1008d1fa01db90180546001600160a01b031916331790555b336000908152600a602052604090205461163f9082611d73565b336000908152600a602052604090205560095461165c9082611d73565b60095560405181815233907fe1fffcc4923d04b559f4d29a8bfc6cda04eb5b0d3c460751c2402c5c5cc9109c9060200160405180910390a250506001600055505050565b600b81815481106116b057600080fd5b6000918252602090912001546001600160a01b0316905081565b6009546001600160a01b0382166000908152600a602052604081205490916112349161081090670de0b6b3a764000061186e565b6001546001600160a01b031633146117285760405162461bcd60e51b8152600401610995906121f2565b600081116117655760405162461bcd60e51b815260206004820152600a6024820152691259081a5b9d985b1a5960b21b6044820152606401610995565b600e55565b6001546001600160a01b031633146117945760405162461bcd60e51b8152600401610995906121f2565b600081116117d15760405162461bcd60e51b815260206004820152600a6024820152691259081a5b9d985b1a5960b21b6044820152606401610995565b600d55565b6001546001600160a01b031633146118005760405162461bcd60e51b8152600401610995906121f2565b6001600160a01b0381166118655760405162461bcd60e51b815260206004820152602660248201527f4f776e61626c653a206e6577206f776e657220697320746865207a65726f206160448201526564647265737360d01b6064820152608401610995565b61127e81611bed565b6000610816828461239d565b6000610816828461228f565b600061081682846123bc565b600154600160a01b900460ff166118e25760405162461bcd60e51b815260206004820152601460248201527314185d5cd8589b194e881b9bdd081c185d5cd95960621b6044820152606401610995565b6001805460ff60a01b191690557f5db9ee0a495bf2e6ff9c91a7834c1ba4fdd244a5e8aa4e537bd38aeae4b073aa335b6040516001600160a01b03909116815260200160405180910390a1565b6040516001600160a01b038316602482015260448101829052610e8d90849063a9059cbb60e01b906064015b60408051601f198184030181529190526020810180516001600160e01b03166001600160e01b031990931692909217909152611d7f565b604080516000808252602082019092526001600160a01b0384169083906040516119bc9190612178565b60006040518083038185875af1925050503d80600081146119f9576040519150601f19603f3d011682016040523d82523d6000602084013e6119fe565b606091505b5050905080610e8d5760405162461bcd60e51b815260206004820152602360248201527f5472616e7366657248656c7065723a204b41495f5452414e534645525f46414960448201526213115160ea1b6064820152608401610995565b611a63611f65565b6040518060800160405280836001600160a01b03168152602001836001600160a01b031663313ce5676040518163ffffffff1660e01b815260040160206040518083038186803b158015611ab657600080fd5b505afa158015611aca573d6000803e3d6000fd5b505050506040513d601f19601f82011682018060405250810190611aee91906120d8565b60ff168152602001836001600160a01b03166306fdde036040518163ffffffff1660e01b815260040160006040518083038186803b158015611b2f57600080fd5b505afa158015611b43573d6000803e3d6000fd5b505050506040513d6000823e601f3d908101601f19168201604052611b6b919081019061200a565b8152602001836001600160a01b03166395d89b416040518163ffffffff1660e01b815260040160006040518083038186803b158015611ba957600080fd5b505afa158015611bbd573d6000803e3d6000fd5b505050506040513d6000823e601f3d908101601f19168201604052611be5919081019061200a565b905292915050565b600180546001600160a01b038381166001600160a01b0319831681179093556040519116919082907f8be0079c531659141344cd1fd0a4f28419497f9722a3daafe3b4186f6b6457e090600090a35050565b600154600160a01b900460ff1615611c695760405162461bcd60e51b8152600401610995906121c8565b6001805460ff60a01b1916600160a01b1790557f62e78cea01bee320cd4e420270b5ea74000d11b0c9f74754ebdbfc544b05a2586119123390565b600080600d54118015611cba5750600d54600e54115b611cfc5760405162461bcd60e51b815260206004820152601360248201527214db985c1cda1bdd081a59081b9bdd081cd95d606a1b6044820152606401610995565b600c54600d54600e54604051636002de6760e01b81526000936001600160a01b031692636002de67926109029288929190600401612194565b6040516001600160a01b0380851660248301528316604482015260648101829052611d6d9085906323b872dd60e01b9060840161195b565b50505050565b60006108168284612277565b6000611dd4826040518060400160405280602081526020017f5361666545524332303a206c6f772d6c6576656c2063616c6c206661696c6564815250856001600160a01b0316611e519092919063ffffffff16565b805190915015610e8d5780806020019051810190611df29190611fea565b610e8d5760405162461bcd60e51b815260206004820152602a60248201527f5361666545524332303a204552433230206f7065726174696f6e20646964206e6044820152691bdd081cdd58d8d9595960b21b6064820152608401610995565b6060610a448484600085856001600160a01b0385163b611eb35760405162461bcd60e51b815260206004820152601d60248201527f416464726573733a2063616c6c20746f206e6f6e2d636f6e74726163740000006044820152606401610995565b600080866001600160a01b03168587604051611ecf9190612178565b60006040518083038185875af1925050503d8060008114611f0c576040519150601f19603f3d011682016040523d82523d6000602084013e611f11565b606091505b5091509150611f21828286611f2c565b979650505050505050565b60608315611f3b575081610816565b825115611f4b5782518084602001fd5b8160405162461bcd60e51b815260040161099591906121b5565b604051806080016040528060006001600160a01b031681526020016000815260200160608152602001606081525090565b600060208284031215611fa7578081fd5b81356108168161242b565b60008060408385031215611fc4578081fd5b8235611fcf8161242b565b91506020830135611fdf8161242b565b809150509250929050565b600060208284031215611ffb578081fd5b81518015158114610816578182fd5b60006020828403121561201b578081fd5b815167ffffffffffffffff80821115612032578283fd5b818401915084601f830112612045578283fd5b81518181111561205757612057612415565b604051601f8201601f19908116603f0116810190838211818310171561207f5761207f612415565b81604052828152876020848701011115612097578586fd5b611f218360208301602088016123d3565b6000602082840312156120b9578081fd5b5035919050565b6000602082840312156120d1578081fd5b5051919050565b6000602082840312156120e9578081fd5b815160ff81168114610816578182fd5b600081518084526121118160208601602086016123d3565b601f01601f19169290920160200192915050565b60018060a01b03815116825260208101516020830152600060408201516080604085015261215660808501826120f9565b90506060830151848203606086015261216f82826120f9565b95945050505050565b6000825161218a8184602087016123d3565b9190910192915050565b6001600160a01b039390931683526020830191909152604082015260600190565b60208152600061081660208301846120f9565b60208082526010908201526f14185d5cd8589b194e881c185d5cd95960821b604082015260600190565b6020808252818101527f4f776e61626c653a2063616c6c6572206973206e6f7420746865206f776e6572604082015260600190565b60e08152600061223a60e083018a612125565b828103602084015261224c818a612125565b604084019890985250506060810194909452608084019290925260a083015260c09091015292915050565b6000821982111561228a5761228a6123ff565b500190565b6000826122aa57634e487b7160e01b81526012600452602481fd5b500490565b600181815b808511156122ea5781600019048211156122d0576122d06123ff565b808516156122dd57918102915b93841c93908002906122b4565b509250929050565b600061081660ff84168360008261230b57506001611234565b8161231857506000611234565b816001811461232e576002811461233857612354565b6001915050611234565b60ff841115612349576123496123ff565b50506001821b611234565b5060208310610133831016604e8410600b8410161715612377575081810a611234565b61238183836122af565b8060001904821115612395576123956123ff565b029392505050565b60008160001904831182151516156123b7576123b76123ff565b500290565b6000828210156123ce576123ce6123ff565b500390565b60005b838110156123ee5781810151838201526020016123d6565b83811115611d6d5750506000910152565b634e487b7160e01b600052601160045260246000fd5b634e487b7160e01b600052604160045260246000fd5b6001600160a01b038116811461127e57600080fdfea264697066735822122077ba6dc9c6586c6742952998af6f5039ab198be62346929c4f0fd91b3a258c7664736f6c63430008040033",
  "linkReferences": {},
  "deployedLinkReferences": {}
}