{
  "_format": "hh-sol-artifact-1",
  "contractName": "SwapExactTokensForTokensCodec",
  "sourceName": "contracts/crosschain-swap/codecs/SwapExactTokensForTokensCodec.sol",
  "abi": [
    {
      "inputs": [
        {
          "components": [
            {
              "internalType": "address",
              "name": "dex",
              "type": "address"
            },
            {
              "internalType": "bytes",
              "name": "data",
              "type": "bytes"
            }
          ],
          "internalType": "struct ICodec.SwapDescription",
          "name": "_swap",
          "type": "tuple"
        }
      ],
      "name": "decodeCalldata",
      "outputs": [
        {
          "internalType": "uint256",
          "name": "amountIn",
          "type": "uint256"
        },
        {
          "internalType": "address",
          "name": "tokenIn",
          "type": "address"
        },
        {
          "internalType": "address",
          "name": "tokenOut",
          "type": "address"
        }
      ],
      "stateMutability": "pure",
      "type": "function"
    },
    {
      "inputs": [
        {
          "internalType": "bytes",
          "name": "_data",
          "type": "bytes"
        },
        {
          "internalType": "uint256",
          "name": "_amountInOverride",
          "type": "uint256"
        },
        {
          "internalType": "address",
          "name": "_receiverOverride",
          "type": "address"
        }
      ],
      "name": "encodeCalldataWithOverride",
      "outputs": [
        {
          "internalType": "bytes",
          "name": "swapCalldata",
          "type": "bytes"
        }
      ],
      "stateMutability": "pure",
      "type": "function"
    }
  ],
  "bytecode": "0x608060405234801561001057600080fd5b506105a4806100206000396000f3fe608060405234801561001057600080fd5b50600436106100365760003560e01c8063358f0e1c1461003b5780634c6da26914610078575b600080fd5b61004e6100493660046102b2565b610098565b604080519384526001600160a01b0392831660208501529116908201526060015b60405180910390f35b61008b61008636600461022c565b61013b565b60405161006f91906103e6565b6000808080806100ab60208701876104a9565b6100b99160049082906104f5565b8101906100c691906102f1565b5050925050915081816000815181106100ef57634e487b7160e01b600052603260045260246000fd5b60200260200101518260018451610106919061051d565b8151811061012457634e487b7160e01b600052603260045260246000fd5b602002602001015194509450945050509193909250565b6060600061017e86868080601f01602080910402602001604051908101604052809392919081815260200183838082843760009201919091525061020092505050565b905060008080610191886004818c6104f5565b81019061019e91906102f1565b94505093509350508387848489856040516024016101c0959493929190610439565b60408051601f198184030181529190526020810180516001600160e01b03166001600160e01b031990931692909217909152945050505050949350505050565b600081516000141561021457506000919050565b506020015190565b803561022781610556565b919050565b60008060008060608587031215610241578384fd5b843567ffffffffffffffff80821115610258578586fd5b818701915087601f83011261026b578586fd5b813581811115610279578687fd5b88602082850101111561028a578687fd5b60209283019650945050850135915060408501356102a781610556565b939692955090935050565b6000602082840312156102c3578081fd5b813567ffffffffffffffff8111156102d9578182fd5b8201604081850312156102ea578182fd5b9392505050565b600080600080600060a08688031215610308578081fd5b853594506020808701359450604087013567ffffffffffffffff8082111561032e578384fd5b818901915089601f830112610341578384fd5b81358181111561035357610353610540565b8060051b604051601f19603f8301168101818110858211171561037857610378610540565b604052828152858101935084860182860187018e1015610396578788fd5b8795505b838610156103bf576103ab8161021c565b85526001959095019493860193860161039a565b508098505050505050506103d56060870161021c565b949793965091946080013592915050565b6000602080835283518082850152825b81811015610412578581018301518582016040015282016103f6565b818111156104235783604083870101525b50601f01601f1916929092016040019392505050565b600060a082018783526020878185015260a0604085015281875180845260c0860191508289019350845b818110156104885784516001600160a01b031683529383019391830191600101610463565b50506001600160a01b03969096166060850152505050608001529392505050565b6000808335601e198436030181126104bf578283fd5b83018035915067ffffffffffffffff8211156104d9578283fd5b6020019150368190038213156104ee57600080fd5b9250929050565b60008085851115610504578182fd5b83861115610510578182fd5b5050820193919092039150565b60008282101561053b57634e487b7160e01b81526011600452602481fd5b500390565b634e487b7160e01b600052604160045260246000fd5b6001600160a01b038116811461056b57600080fd5b5056fea26469706673582212202db5e564e378f9815fc6de00ef52ec3005ca9a18c986645eaa0aaa793b967f4f64736f6c63430008040033",
  "linkReferences": {},
  "deployedLinkReferences": {}
}