{
  "_format": "hh-sol-artifact-1",
  "contractName": "KaidexMaker",
  "sourceName": "contracts/farming/KaidexMaker.sol",
  "abi": [
    {
      "inputs": [
        {
          "internalType": "address",
          "name": "_factory",
          "type": "address"
        },
        {
          "internalType": "address",
          "name": "_bar",
          "type": "address"
        },
        {
          "internalType": "address",
          "name": "_kdx",
          "type": "address"
        },
        {
          "internalType": "address",
          "name": "_wkai",
          "type": "address"
        }
      ],
      "stateMutability": "nonpayable",
      "type": "constructor"
    },
    {
      "anonymous": false,
      "inputs": [
        {
          "indexed": true,
          "internalType": "address",
          "name": "token",
          "type": "address"
        },
        {
          "indexed": true,
          "internalType": "address",
          "name": "bridge",
          "type": "address"
        }
      ],
      "name": "LogBridgeSet",
      "type": "event"
    },
    {
      "anonymous": false,
      "inputs": [
        {
          "indexed": true,
          "internalType": "address",
          "name": "server",
          "type": "address"
        },
        {
          "indexed": true,
          "internalType": "address",
          "name": "token0",
          "type": "address"
        },
        {
          "indexed": true,
          "internalType": "address",
          "name": "token1",
          "type": "address"
        },
        {
          "indexed": false,
          "internalType": "uint256",
          "name": "amount0",
          "type": "uint256"
        },
        {
          "indexed": false,
          "internalType": "uint256",
          "name": "amount1",
          "type": "uint256"
        },
        {
          "indexed": false,
          "internalType": "uint256",
          "name": "amountKDX",
          "type": "uint256"
        }
      ],
      "name": "LogConvert",
      "type": "event"
    },
    {
      "anonymous": false,
      "inputs": [
        {
          "indexed": true,
          "internalType": "address",
          "name": "previousOwner",
          "type": "address"
        },
        {
          "indexed": true,
          "internalType": "address",
          "name": "newOwner",
          "type": "address"
        }
      ],
      "name": "OwnershipTransferred",
      "type": "event"
    },
    {
      "inputs": [],
      "name": "bar",
      "outputs": [
        {
          "internalType": "address",
          "name": "",
          "type": "address"
        }
      ],
      "stateMutability": "view",
      "type": "function"
    },
    {
      "inputs": [
        {
          "internalType": "address",
          "name": "token",
          "type": "address"
        }
      ],
      "name": "bridgeFor",
      "outputs": [
        {
          "internalType": "address",
          "name": "bridge",
          "type": "address"
        }
      ],
      "stateMutability": "view",
      "type": "function"
    },
    {
      "inputs": [
        {
          "internalType": "address",
          "name": "token0",
          "type": "address"
        },
        {
          "internalType": "address",
          "name": "token1",
          "type": "address"
        }
      ],
      "name": "convert",
      "outputs": [],
      "stateMutability": "nonpayable",
      "type": "function"
    },
    {
      "inputs": [
        {
          "internalType": "address[]",
          "name": "token0",
          "type": "address[]"
        },
        {
          "internalType": "address[]",
          "name": "token1",
          "type": "address[]"
        }
      ],
      "name": "convertMultiple",
      "outputs": [],
      "stateMutability": "nonpayable",
      "type": "function"
    },
    {
      "inputs": [],
      "name": "converter",
      "outputs": [
        {
          "internalType": "address",
          "name": "",
          "type": "address"
        }
      ],
      "stateMutability": "view",
      "type": "function"
    },
    {
      "inputs": [
        {
          "internalType": "address",
          "name": "token",
          "type": "address"
        },
        {
          "internalType": "uint256",
          "name": "amount",
          "type": "uint256"
        },
        {
          "internalType": "address payable",
          "name": "to",
          "type": "address"
        }
      ],
      "name": "emergencyWithdraw",
      "outputs": [],
      "stateMutability": "nonpayable",
      "type": "function"
    },
    {
      "inputs": [],
      "name": "factory",
      "outputs": [
        {
          "internalType": "contract IKaiDexFactory",
          "name": "",
          "type": "address"
        }
      ],
      "stateMutability": "view",
      "type": "function"
    },
    {
      "inputs": [],
      "name": "kdx",
      "outputs": [
        {
          "internalType": "address",
          "name": "",
          "type": "address"
        }
      ],
      "stateMutability": "view",
      "type": "function"
    },
    {
      "inputs": [],
      "name": "owner",
      "outputs": [
        {
          "internalType": "address",
          "name": "",
          "type": "address"
        }
      ],
      "stateMutability": "view",
      "type": "function"
    },
    {
      "inputs": [],
      "name": "renounceOwnership",
      "outputs": [],
      "stateMutability": "nonpayable",
      "type": "function"
    },
    {
      "inputs": [
        {
          "internalType": "address",
          "name": "_bar",
          "type": "address"
        }
      ],
      "name": "setBar",
      "outputs": [],
      "stateMutability": "nonpayable",
      "type": "function"
    },
    {
      "inputs": [
        {
          "internalType": "address",
          "name": "token",
          "type": "address"
        },
        {
          "internalType": "address",
          "name": "bridge",
          "type": "address"
        }
      ],
      "name": "setBridge",
      "outputs": [],
      "stateMutability": "nonpayable",
      "type": "function"
    },
    {
      "inputs": [
        {
          "internalType": "address",
          "name": "_new",
          "type": "address"
        }
      ],
      "name": "setConverter",
      "outputs": [],
      "stateMutability": "nonpayable",
      "type": "function"
    },
    {
      "inputs": [
        {
          "internalType": "address",
          "name": "_kdx",
          "type": "address"
        }
      ],
      "name": "setKDX",
      "outputs": [],
      "stateMutability": "nonpayable",
      "type": "function"
    },
    {
      "inputs": [
        {
          "internalType": "address",
          "name": "newOwner",
          "type": "address"
        }
      ],
      "name": "transferOwnership",
      "outputs": [],
      "stateMutability": "nonpayable",
      "type": "function"
    },
    {
      "inputs": [],
      "name": "wkai",
      "outputs": [
        {
          "internalType": "address",
          "name": "",
          "type": "address"
        }
      ],
      "stateMutability": "view",
      "type": "function"
    }
  ],
  "bytecode": "0x60c06040523480156200001157600080fd5b5060405162001af838038062001af8833981016040819052620000349162000108565b6200003f336200009b565b6001600160601b0319606094851b8116608052600180546001600160a01b039586166001600160a01b03199182161790915560028054949095169381169390931790935590921b1660a052600480549091163317905562000164565b600080546001600160a01b038381166001600160a01b0319831681178455604051919092169283917f8be0079c531659141344cd1fd0a4f28419497f9722a3daafe3b4186f6b6457e09190a35050565b80516001600160a01b03811681146200010357600080fd5b919050565b600080600080608085870312156200011e578384fd5b6200012985620000eb565b93506200013960208601620000eb565b92506200014960408601620000eb565b91506200015960608601620000eb565b905092959194509250565b60805160601c60a05160601c611914620001e460003960008181610132015281816105110152818161062a01528181610bf601528181610c3301528181610d2201528181610d5f01528181610d8801528181610db501528181610df20152610e1b015260008181610213015281816107c8015261106801526119146000f3fe608060405234801561001057600080fd5b50600436106101005760003560e01c8063a761a93911610097578063c45a015511610066578063c45a01551461020e578063dae4781814610235578063f2fde38b14610248578063febb0f7e1461025b57600080fd5b8063a761a939146101c2578063b19337a4146101d5578063bd1b820c146101e8578063bd38837b146101fb57600080fd5b8063715018a6116100d3578063715018a61461018357806375fd6ce91461018b5780638da5cb5b1461019e5780639d22ae8c146101af57600080fd5b8063303e6aa4146101055780633371e8e81461011a5780634a8ee9c21461012d578063551512de14610170575b600080fd5b610118610113366004611647565b61026e565b005b610118610128366004611596565b610371565b6101547f000000000000000000000000000000000000000000000000000000000000000081565b6040516001600160a01b03909116815260200160405180910390f35b61011861017e366004611606565b6103bd565b61011861044a565b610118610199366004611596565b610480565b6000546001600160a01b0316610154565b6101186101bd3660046115ce565b6104cc565b6101546101d0366004611596565b610607565b6101186101e3366004611596565b61064f565b6101186101f63660046115ce565b61069b565b600454610154906001600160a01b031681565b6101547f000000000000000000000000000000000000000000000000000000000000000081565b600254610154906001600160a01b031681565b610118610256366004611596565b610703565b600154610154906001600160a01b031681565b6004546001600160a01b031633146102cd5760405162461bcd60e51b815260206004820152601f60248201527f4b61696465784d616b65723a206d7573742075736520436f6e7665727465720060448201526064015b60405180910390fd5b828181146102da57600080fd5b60005b818110156103695761035786868381811061030857634e487b7160e01b600052603260045260246000fd5b905060200201602081019061031d9190611596565b85858481811061033d57634e487b7160e01b600052603260045260246000fd5b90506020020160208101906103529190611596565b61079e565b8061036181611898565b9150506102dd565b505050505050565b6000546001600160a01b0316331461039b5760405162461bcd60e51b81526004016102c4906117e0565b600280546001600160a01b0319166001600160a01b0392909216919091179055565b6000546001600160a01b031633146103e75760405162461bcd60e51b81526004016102c4906117e0565b6001600160a01b038316610431576040516001600160a01b0382169083156108fc029084906000818181858888f1935050505015801561042b573d6000803e3d6000fd5b50505050565b6104456001600160a01b0384168284610aa2565b505050565b6000546001600160a01b031633146104745760405162461bcd60e51b81526004016102c4906117e0565b61047e6000610af4565b565b6000546001600160a01b031633146104aa5760405162461bcd60e51b81526004016102c4906117e0565b600180546001600160a01b0319166001600160a01b0392909216919091179055565b6000546001600160a01b031633146104f65760405162461bcd60e51b81526004016102c4906117e0565b6002546001600160a01b0383811691161480159061054657507f00000000000000000000000000000000000000000000000000000000000000006001600160a01b0316826001600160a01b031614155b80156105645750806001600160a01b0316826001600160a01b031614155b6105b05760405162461bcd60e51b815260206004820152601b60248201527f4b61696465784d616b65723a20496e76616c696420627269646765000000000060448201526064016102c4565b6001600160a01b0382811660008181526003602052604080822080546001600160a01b0319169486169485179055517f2e103aa707acc565f9a1547341914802b2bfe977fd79c595209f248ae4b006139190a35050565b6001600160a01b03808216600090815260036020526040902054168061064a57507f00000000000000000000000000000000000000000000000000000000000000005b919050565b6000546001600160a01b031633146106795760405162461bcd60e51b81526004016102c4906117e0565b600480546001600160a01b0319166001600160a01b0392909216919091179055565b6004546001600160a01b031633146106f55760405162461bcd60e51b815260206004820152601f60248201527f4b61696465784d616b65723a206d7573742075736520436f6e7665727465720060448201526064016102c4565b6106ff828261079e565b5050565b6000546001600160a01b0316331461072d5760405162461bcd60e51b81526004016102c4906117e0565b6001600160a01b0381166107925760405162461bcd60e51b815260206004820152602660248201527f4f776e61626c653a206e6577206f776e657220697320746865207a65726f206160448201526564647265737360d01b60648201526084016102c4565b61079b81610af4565b50565b60405163e6a4390560e01b81526001600160a01b03838116600483015282811660248301526000917f00000000000000000000000000000000000000000000000000000000000000009091169063e6a439059060440160206040518083038186803b15801561080c57600080fd5b505afa158015610820573d6000803e3d6000fd5b505050506040513d601f19601f8201168201806040525081019061084491906115b2565b90506001600160a01b03811661089c5760405162461bcd60e51b815260206004820152601960248201527f4b61696465784d616b65723a20496e76616c696420706169720000000000000060448201526064016102c4565b6040516370a0823160e01b815230600482015261092a9082906001600160a01b038216906370a082319060240160206040518083038186803b1580156108e157600080fd5b505afa1580156108f5573d6000803e3d6000fd5b505050506040513d601f19601f820116820180604052508101906109199190611713565b6001600160a01b0384169190610aa2565b60405163226bf2d160e21b815230600482015260009081906001600160a01b038416906389afcb44906024016040805180830381600087803b15801561096f57600080fd5b505af1158015610983573d6000803e3d6000fd5b505050506040513d601f19601f820116820180604052508101906109a7919061172b565b91509150826001600160a01b0316630dfe16816040518163ffffffff1660e01b815260040160206040518083038186803b1580156109e457600080fd5b505afa1580156109f8573d6000803e3d6000fd5b505050506040513d601f19601f82011682018060405250810190610a1c91906115b2565b6001600160a01b0316856001600160a01b031614610a3657905b6000610a4486868585610b44565b60408051858152602081018590529081018290529091506001600160a01b03808716919088169033907fd06b1d7ed79b664d17472c6f6997b929f1abe463ccccb4e5b6a0038f2f730c159060600160405180910390a4505050505050565b604080516001600160a01b038416602482015260448082018490528251808303909101815260649091019091526020810180516001600160e01b031663a9059cbb60e01b179052610445908490610eef565b600080546001600160a01b038381166001600160a01b0319831681178455604051919092169283917f8be0079c531659141344cd1fd0a4f28419497f9722a3daafe3b4186f6b6457e09190a35050565b6001546000906001600160a01b0316610b905760405162461bcd60e51b815260206004820152600e60248201526d18985c881a5cc81b9bdd081cd95d60921b60448201526064016102c4565b836001600160a01b0316856001600160a01b03161415610c91576000610bb68484610fc1565b6002549091506001600160a01b0387811691161415610bf457600154600254610bec916001600160a01b03918216911683610aa2565b809150610c8b565b7f00000000000000000000000000000000000000000000000000000000000000006001600160a01b0316866001600160a01b03161415610c5f57610c587f000000000000000000000000000000000000000000000000000000000000000082610fd4565b9150610c8b565b6000610c6a87610607565b9050610c788782843061103c565b9150610c878182846000610b44565b9250505b50610ee7565b6002546001600160a01b0386811691161415610cdf57600154600254610cc4916001600160a01b03918216911685610aa2565b610cd883610cd28685610fd4565b90610fc1565b9050610ee7565b6002546001600160a01b0385811691161415610d2057600154600254610d12916001600160a01b03918216911684610aa2565b610cd882610cd28786610fd4565b7f00000000000000000000000000000000000000000000000000000000000000006001600160a01b0316856001600160a01b03161415610db357610cd87f0000000000000000000000000000000000000000000000000000000000000000610dae85610cd2887f0000000000000000000000000000000000000000000000000000000000000000883061103c565b610fd4565b7f00000000000000000000000000000000000000000000000000000000000000006001600160a01b0316846001600160a01b03161415610e4157610cd87f0000000000000000000000000000000000000000000000000000000000000000610dae84610cd2897f0000000000000000000000000000000000000000000000000000000000000000893061103c565b6000610e4c86610607565b90506000610e5986610607565b9050856001600160a01b0316826001600160a01b03161415610e9357610e8c8287610e868a868a3061103c565b87610b44565b9250610ee4565b866001600160a01b0316816001600160a01b03161415610ec457610e8c878287610ebf8a868a3061103c565b610b44565b610ee18282610ed58a868a3061103c565b610ebf8a868a3061103c565b92505b50505b949350505050565b6000610f44826040518060400160405280602081526020017f5361666545524332303a206c6f772d6c6576656c2063616c6c206661696c6564815250856001600160a01b03166113c09092919063ffffffff16565b8051909150156104455780806020019051810190610f6291906116b0565b6104455760405162461bcd60e51b815260206004820152602a60248201527f5361666545524332303a204552433230206f7065726174696f6e20646964206e6044820152691bdd081cdd58d8d9595960b21b60648201526084016102c4565b6000610fcd8284611815565b9392505050565b6001546000906001600160a01b03166110205760405162461bcd60e51b815260206004820152600e60248201526d18985c881a5cc81b9bdd081cd95d60921b60448201526064016102c4565b600254600154610fcd9185916001600160a01b03918216918691165b60405163e6a4390560e01b81526001600160a01b038581166004830152848116602483015260009182917f0000000000000000000000000000000000000000000000000000000000000000169063e6a439059060440160206040518083038186803b1580156110aa57600080fd5b505afa1580156110be573d6000803e3d6000fd5b505050506040513d601f19601f820116820180604052508101906110e291906115b2565b90506001600160a01b03811661113a5760405162461bcd60e51b815260206004820152601b60248201527f4b61696465784d616b65723a2043616e6e6f7420636f6e76657274000000000060448201526064016102c4565b600080826001600160a01b0316630902f1ac6040518163ffffffff1660e01b815260040160606040518083038186803b15801561117657600080fd5b505afa15801561118a573d6000803e3d6000fd5b505050506040513d601f19601f820116820180604052508101906111ae91906116d0565b506001600160701b03918216935016905060006111cd876103e56113cf565b9050836001600160a01b0316630dfe16816040518163ffffffff1660e01b815260040160206040518083038186803b15801561120857600080fd5b505afa15801561121c573d6000803e3d6000fd5b505050506040513d601f19601f8201168201806040525081019061124091906115b2565b6001600160a01b0316896001600160a01b031614156113095761126981610cd2856103e86113cf565b61127382846113cf565b61127d919061182d565b94506112936001600160a01b038a168589610aa2565b604080516000808252602082019283905263022c0d9f60e01b9092526001600160a01b0386169163022c0d9f916112d2919089908b9060248101611796565b600060405180830381600087803b1580156112ec57600080fd5b505af1158015611300573d6000803e3d6000fd5b505050506113b4565b61131981610cd2846103e86113cf565b61132382856113cf565b61132d919061182d565b94506113436001600160a01b038a168589610aa2565b604080516000808252602082019283905263022c0d9f60e01b9092526001600160a01b0386169163022c0d9f916113819189918b9060248101611796565b600060405180830381600087803b15801561139b57600080fd5b505af11580156113af573d6000803e3d6000fd5b505050505b50505050949350505050565b6060610ee784846000856113db565b6000610fcd828461184d565b60608247101561143c5760405162461bcd60e51b815260206004820152602660248201527f416464726573733a20696e73756666696369656e742062616c616e636520666f6044820152651c8818d85b1b60d21b60648201526084016102c4565b6001600160a01b0385163b6114935760405162461bcd60e51b815260206004820152601d60248201527f416464726573733a2063616c6c20746f206e6f6e2d636f6e747261637400000060448201526064016102c4565b600080866001600160a01b031685876040516114af919061177a565b60006040518083038185875af1925050503d80600081146114ec576040519150601f19603f3d011682016040523d82523d6000602084013e6114f1565b606091505b5091509150610ee18282866060831561150b575081610fcd565b82511561151b5782518084602001fd5b8160405162461bcd60e51b81526004016102c491906117cd565b60008083601f840112611546578182fd5b50813567ffffffffffffffff81111561155d578182fd5b6020830191508360208260051b850101111561157857600080fd5b9250929050565b80516001600160701b038116811461064a57600080fd5b6000602082840312156115a7578081fd5b8135610fcd816118c9565b6000602082840312156115c3578081fd5b8151610fcd816118c9565b600080604083850312156115e0578081fd5b82356115eb816118c9565b915060208301356115fb816118c9565b809150509250929050565b60008060006060848603121561161a578081fd5b8335611625816118c9565b925060208401359150604084013561163c816118c9565b809150509250925092565b6000806000806040858703121561165c578081fd5b843567ffffffffffffffff80821115611673578283fd5b61167f88838901611535565b90965094506020870135915080821115611697578283fd5b506116a487828801611535565b95989497509550505050565b6000602082840312156116c1578081fd5b81518015158114610fcd578182fd5b6000806000606084860312156116e4578283fd5b6116ed8461157f565b92506116fb6020850161157f565b9150604084015163ffffffff8116811461163c578182fd5b600060208284031215611724578081fd5b5051919050565b6000806040838503121561173d578182fd5b505080516020909101519092909150565b6000815180845261176681602086016020860161186c565b601f01601f19169290920160200192915050565b6000825161178c81846020870161186c565b9190910192915050565b84815283602082015260018060a01b03831660408201526080606082015260006117c3608083018461174e565b9695505050505050565b602081526000610fcd602083018461174e565b6020808252818101527f4f776e61626c653a2063616c6c6572206973206e6f7420746865206f776e6572604082015260600190565b60008219821115611828576118286118b3565b500190565b60008261184857634e487b7160e01b81526012600452602481fd5b500490565b6000816000190483118215151615611867576118676118b3565b500290565b60005b8381101561188757818101518382015260200161186f565b8381111561042b5750506000910152565b60006000198214156118ac576118ac6118b3565b5060010190565b634e487b7160e01b600052601160045260246000fd5b6001600160a01b038116811461079b57600080fdfea26469706673582212202ed32fa54745bb66e5d6d13ac6a19ba9eb944917f1335cdf480a246b118910df64736f6c63430008040033",
  "linkReferences": {},
  "deployedLinkReferences": {}
}