{
  "_format": "hh-sol-artifact-1",
  "contractName": "KaidexMaker",
  "sourceName": "contracts/farming/KaidexMaker.sol",
  "abi": [
    {
      "inputs": [
        {
          "internalType": "address",
          "name": "_factory",
          "type": "address"
        },
        {
          "internalType": "address",
          "name": "_bar",
          "type": "address"
        },
        {
          "internalType": "address",
          "name": "_kdx",
          "type": "address"
        },
        {
          "internalType": "address",
          "name": "_wkai",
          "type": "address"
        }
      ],
      "stateMutability": "nonpayable",
      "type": "constructor"
    },
    {
      "anonymous": false,
      "inputs": [
        {
          "indexed": true,
          "internalType": "address",
          "name": "token",
          "type": "address"
        },
        {
          "indexed": true,
          "internalType": "address",
          "name": "bridge",
          "type": "address"
        }
      ],
      "name": "LogBridgeSet",
      "type": "event"
    },
    {
      "anonymous": false,
      "inputs": [
        {
          "indexed": true,
          "internalType": "address",
          "name": "server",
          "type": "address"
        },
        {
          "indexed": true,
          "internalType": "address",
          "name": "token0",
          "type": "address"
        },
        {
          "indexed": true,
          "internalType": "address",
          "name": "token1",
          "type": "address"
        },
        {
          "indexed": false,
          "internalType": "uint256",
          "name": "amount0",
          "type": "uint256"
        },
        {
          "indexed": false,
          "internalType": "uint256",
          "name": "amount1",
          "type": "uint256"
        },
        {
          "indexed": false,
          "internalType": "uint256",
          "name": "amountKDX",
          "type": "uint256"
        }
      ],
      "name": "LogConvert",
      "type": "event"
    },
    {
      "anonymous": false,
      "inputs": [
        {
          "indexed": true,
          "internalType": "address",
          "name": "previousOwner",
          "type": "address"
        },
        {
          "indexed": true,
          "internalType": "address",
          "name": "newOwner",
          "type": "address"
        }
      ],
      "name": "OwnershipTransferred",
      "type": "event"
    },
    {
      "inputs": [],
      "name": "bar",
      "outputs": [
        {
          "internalType": "address",
          "name": "",
          "type": "address"
        }
      ],
      "stateMutability": "view",
      "type": "function"
    },
    {
      "inputs": [
        {
          "internalType": "address",
          "name": "token",
          "type": "address"
        }
      ],
      "name": "bridgeFor",
      "outputs": [
        {
          "internalType": "address",
          "name": "bridge",
          "type": "address"
        }
      ],
      "stateMutability": "view",
      "type": "function"
    },
    {
      "inputs": [
        {
          "internalType": "address",
          "name": "token0",
          "type": "address"
        },
        {
          "internalType": "address",
          "name": "token1",
          "type": "address"
        }
      ],
      "name": "convert",
      "outputs": [],
      "stateMutability": "nonpayable",
      "type": "function"
    },
    {
      "inputs": [
        {
          "internalType": "address[]",
          "name": "token0",
          "type": "address[]"
        },
        {
          "internalType": "address[]",
          "name": "token1",
          "type": "address[]"
        }
      ],
      "name": "convertMultiple",
      "outputs": [],
      "stateMutability": "nonpayable",
      "type": "function"
    },
    {
      "inputs": [],
      "name": "converter",
      "outputs": [
        {
          "internalType": "address",
          "name": "",
          "type": "address"
        }
      ],
      "stateMutability": "view",
      "type": "function"
    },
    {
      "inputs": [
        {
          "internalType": "address",
          "name": "token",
          "type": "address"
        },
        {
          "internalType": "uint256",
          "name": "amount",
          "type": "uint256"
        },
        {
          "internalType": "address payable",
          "name": "to",
          "type": "address"
        }
      ],
      "name": "emergencyWithdraw",
      "outputs": [],
      "stateMutability": "nonpayable",
      "type": "function"
    },
    {
      "inputs": [],
      "name": "factory",
      "outputs": [
        {
          "internalType": "contract IKaiDexFactory",
          "name": "",
          "type": "address"
        }
      ],
      "stateMutability": "view",
      "type": "function"
    },
    {
      "inputs": [],
      "name": "kdx",
      "outputs": [
        {
          "internalType": "address",
          "name": "",
          "type": "address"
        }
      ],
      "stateMutability": "view",
      "type": "function"
    },
    {
      "inputs": [],
      "name": "owner",
      "outputs": [
        {
          "internalType": "address",
          "name": "",
          "type": "address"
        }
      ],
      "stateMutability": "view",
      "type": "function"
    },
    {
      "inputs": [],
      "name": "renounceOwnership",
      "outputs": [],
      "stateMutability": "nonpayable",
      "type": "function"
    },
    {
      "inputs": [
        {
          "internalType": "address",
          "name": "token",
          "type": "address"
        },
        {
          "internalType": "address",
          "name": "bridge",
          "type": "address"
        }
      ],
      "name": "setBridge",
      "outputs": [],
      "stateMutability": "nonpayable",
      "type": "function"
    },
    {
      "inputs": [
        {
          "internalType": "address",
          "name": "_new",
          "type": "address"
        }
      ],
      "name": "setConverter",
      "outputs": [],
      "stateMutability": "nonpayable",
      "type": "function"
    },
    {
      "inputs": [
        {
          "internalType": "address",
          "name": "newOwner",
          "type": "address"
        }
      ],
      "name": "transferOwnership",
      "outputs": [],
      "stateMutability": "nonpayable",
      "type": "function"
    },
    {
      "inputs": [],
      "name": "wkai",
      "outputs": [
        {
          "internalType": "address",
          "name": "",
          "type": "address"
        }
      ],
      "stateMutability": "view",
      "type": "function"
    }
  ],
  "bytecode": "0x6101006040523480156200001257600080fd5b5060405162001b5838038062001b588339810160408190526200003591620000ef565b620000403362000082565b6001600160601b0319606094851b811660805292841b831660a05290831b821660c05290911b1660e052600280546001600160a01b031916331790556200014b565b600080546001600160a01b038381166001600160a01b0319831681178455604051919092169283917f8be0079c531659141344cd1fd0a4f28419497f9722a3daafe3b4186f6b6457e09190a35050565b80516001600160a01b0381168114620000ea57600080fd5b919050565b6000806000806080858703121562000105578384fd5b6200011085620000d2565b93506200012060208601620000d2565b92506200013060408601620000d2565b91506200014060608601620000d2565b905092959194509250565b60805160601c60a05160601c60c05160601c60e05160601c61191f62000239600039600081816101090152818161047d0152818161059601528181610b6901528181610ba601528181610d4b01528181610d8801528181610db101528181610dde01528181610e1b0152610e440152600081816101fe0152818161044001528181610ad301528181610b1801528181610c0601528181610c4b01528181610caf01528181610cf4015261100501526000818161023801528181610b3a01528181610c6d01528181610d1601526110270152600081816101d7015281816107340152611073015261191f6000f3fe608060405234801561001057600080fd5b50600436106100ea5760003560e01c8063b19337a41161008c578063c45a015511610066578063c45a0155146101d2578063dae47818146101f9578063f2fde38b14610220578063febb0f7e1461023357600080fd5b8063b19337a414610199578063bd1b820c146101ac578063bd38837b146101bf57600080fd5b8063715018a6116100c8578063715018a61461015a5780638da5cb5b146101625780639d22ae8c14610173578063a761a9391461018657600080fd5b8063303e6aa4146100ef5780634a8ee9c214610104578063551512de14610147575b600080fd5b6101026100fd366004611652565b61025a565b005b61012b7f000000000000000000000000000000000000000000000000000000000000000081565b6040516001600160a01b03909116815260200160405180910390f35b610102610155366004611611565b610351565b6101026103de565b6000546001600160a01b031661012b565b6101026101813660046115d9565b610414565b61012b6101943660046115a1565b610573565b6101026101a73660046115a1565b6105bb565b6101026101ba3660046115d9565b610607565b60025461012b906001600160a01b031681565b61012b7f000000000000000000000000000000000000000000000000000000000000000081565b61012b7f000000000000000000000000000000000000000000000000000000000000000081565b61010261022e3660046115a1565b61066f565b61012b7f000000000000000000000000000000000000000000000000000000000000000081565b6002546001600160a01b031633146102b95760405162461bcd60e51b815260206004820152601f60248201527f4b61696465784d616b65723a206d7573742075736520436f6e7665727465720060448201526064015b60405180910390fd5b8260005b81811015610349576103378686838181106102e857634e487b7160e01b600052603260045260246000fd5b90506020020160208101906102fd91906115a1565b85858481811061031d57634e487b7160e01b600052603260045260246000fd5b905060200201602081019061033291906115a1565b61070a565b80610341816118a3565b9150506102bd565b505050505050565b6000546001600160a01b0316331461037b5760405162461bcd60e51b81526004016102b0906117eb565b6001600160a01b0383166103c5576040516001600160a01b0382169083156108fc029084906000818181858888f193505050501580156103bf573d6000803e3d6000fd5b50505050565b6103d96001600160a01b0384168284610a05565b505050565b6000546001600160a01b031633146104085760405162461bcd60e51b81526004016102b0906117eb565b6104126000610a57565b565b6000546001600160a01b0316331461043e5760405162461bcd60e51b81526004016102b0906117eb565b7f00000000000000000000000000000000000000000000000000000000000000006001600160a01b0316826001600160a01b0316141580156104b257507f00000000000000000000000000000000000000000000000000000000000000006001600160a01b0316826001600160a01b031614155b80156104d05750806001600160a01b0316826001600160a01b031614155b61051c5760405162461bcd60e51b815260206004820152601b60248201527f4b61696465784d616b65723a20496e76616c696420627269646765000000000060448201526064016102b0565b6001600160a01b0382811660008181526001602052604080822080546001600160a01b0319169486169485179055517f2e103aa707acc565f9a1547341914802b2bfe977fd79c595209f248ae4b006139190a35050565b6001600160a01b0380821660009081526001602052604090205416806105b657507f00000000000000000000000000000000000000000000000000000000000000005b919050565b6000546001600160a01b031633146105e55760405162461bcd60e51b81526004016102b0906117eb565b600280546001600160a01b0319166001600160a01b0392909216919091179055565b6002546001600160a01b031633146106615760405162461bcd60e51b815260206004820152601f60248201527f4b61696465784d616b65723a206d7573742075736520436f6e7665727465720060448201526064016102b0565b61066b828261070a565b5050565b6000546001600160a01b031633146106995760405162461bcd60e51b81526004016102b0906117eb565b6001600160a01b0381166106fe5760405162461bcd60e51b815260206004820152602660248201527f4f776e61626c653a206e6577206f776e657220697320746865207a65726f206160448201526564647265737360d01b60648201526084016102b0565b61070781610a57565b50565b60405163e6a4390560e01b81526001600160a01b03838116600483015282811660248301526000917f00000000000000000000000000000000000000000000000000000000000000009091169063e6a439059060440160206040518083038186803b15801561077857600080fd5b505afa15801561078c573d6000803e3d6000fd5b505050506040513d601f19601f820116820180604052508101906107b091906115bd565b90506001600160a01b0381166108085760405162461bcd60e51b815260206004820152601960248201527f4b61696465784d616b65723a20496e76616c696420706169720000000000000060448201526064016102b0565b6040516370a0823160e01b81523060048201526108969082906001600160a01b038216906370a082319060240160206040518083038186803b15801561084d57600080fd5b505afa158015610861573d6000803e3d6000fd5b505050506040513d601f19601f82011682018060405250810190610885919061171e565b6001600160a01b0384169190610a05565b60405163226bf2d160e21b815230600482015260009081906001600160a01b038416906389afcb44906024016040805180830381600087803b1580156108db57600080fd5b505af11580156108ef573d6000803e3d6000fd5b505050506040513d601f19601f820116820180604052508101906109139190611736565b91509150826001600160a01b0316630dfe16816040518163ffffffff1660e01b815260040160206040518083038186803b15801561095057600080fd5b505afa158015610964573d6000803e3d6000fd5b505050506040513d601f19601f8201168201806040525081019061098891906115bd565b6001600160a01b0316856001600160a01b0316146109a257905b6001600160a01b03808516908616337fd06b1d7ed79b664d17472c6f6997b929f1abe463ccccb4e5b6a0038f2f730c1585856109e08b8b8484610aa7565b6040805193845260208401929092529082015260600160405180910390a45050505050565b604080516001600160a01b038416602482015260448082018490528251808303909101815260649091019091526020810180516001600160e01b031663a9059cbb60e01b1790526103d9908490610f18565b600080546001600160a01b038381166001600160a01b0319831681178455604051919092169283917f8be0079c531659141344cd1fd0a4f28419497f9722a3daafe3b4186f6b6457e09190a35050565b6000836001600160a01b0316856001600160a01b03161415610c04576000610acf8484610fea565b90507f00000000000000000000000000000000000000000000000000000000000000006001600160a01b0316866001600160a01b03161415610b6757610b5f6001600160a01b037f0000000000000000000000000000000000000000000000000000000000000000167f000000000000000000000000000000000000000000000000000000000000000083610a05565b809150610bfe565b7f00000000000000000000000000000000000000000000000000000000000000006001600160a01b0316866001600160a01b03161415610bd257610bcb7f000000000000000000000000000000000000000000000000000000000000000082610ffd565b9150610bfe565b6000610bdd87610573565b9050610beb87828430611047565b9150610bfa8182846000610aa7565b9250505b50610f10565b7f00000000000000000000000000000000000000000000000000000000000000006001600160a01b0316856001600160a01b03161415610cad57610c926001600160a01b037f0000000000000000000000000000000000000000000000000000000000000000167f000000000000000000000000000000000000000000000000000000000000000085610a05565b610ca683610ca08685610ffd565b90610fea565b9050610f10565b7f00000000000000000000000000000000000000000000000000000000000000006001600160a01b0316846001600160a01b03161415610d4957610d3b6001600160a01b037f0000000000000000000000000000000000000000000000000000000000000000167f000000000000000000000000000000000000000000000000000000000000000084610a05565b610ca682610ca08786610ffd565b7f00000000000000000000000000000000000000000000000000000000000000006001600160a01b0316856001600160a01b03161415610ddc57610ca67f0000000000000000000000000000000000000000000000000000000000000000610dd785610ca0887f00000000000000000000000000000000000000000000000000000000000000008830611047565b610ffd565b7f00000000000000000000000000000000000000000000000000000000000000006001600160a01b0316846001600160a01b03161415610e6a57610ca67f0000000000000000000000000000000000000000000000000000000000000000610dd784610ca0897f00000000000000000000000000000000000000000000000000000000000000008930611047565b6000610e7586610573565b90506000610e8286610573565b9050856001600160a01b0316826001600160a01b03161415610ebc57610eb58287610eaf8a868a30611047565b87610aa7565b9250610f0d565b866001600160a01b0316816001600160a01b03161415610eed57610eb5878287610ee88a868a30611047565b610aa7565b610f0a8282610efe8a868a30611047565b610ee88a868a30611047565b92505b50505b949350505050565b6000610f6d826040518060400160405280602081526020017f5361666545524332303a206c6f772d6c6576656c2063616c6c206661696c6564815250856001600160a01b03166113cb9092919063ffffffff16565b8051909150156103d95780806020019051810190610f8b91906116bb565b6103d95760405162461bcd60e51b815260206004820152602a60248201527f5361666545524332303a204552433230206f7065726174696f6e20646964206e6044820152691bdd081cdd58d8d9595960b21b60648201526084016102b0565b6000610ff68284611820565b9392505050565b6000610ff6837f0000000000000000000000000000000000000000000000000000000000000000847f00000000000000000000000000000000000000000000000000000000000000005b60405163e6a4390560e01b81526001600160a01b038581166004830152848116602483015260009182917f0000000000000000000000000000000000000000000000000000000000000000169063e6a439059060440160206040518083038186803b1580156110b557600080fd5b505afa1580156110c9573d6000803e3d6000fd5b505050506040513d601f19601f820116820180604052508101906110ed91906115bd565b90506001600160a01b0381166111455760405162461bcd60e51b815260206004820152601b60248201527f4b61696465784d616b65723a2043616e6e6f7420636f6e76657274000000000060448201526064016102b0565b600080826001600160a01b0316630902f1ac6040518163ffffffff1660e01b815260040160606040518083038186803b15801561118157600080fd5b505afa158015611195573d6000803e3d6000fd5b505050506040513d601f19601f820116820180604052508101906111b991906116db565b506001600160701b03918216935016905060006111d8876103e56113da565b9050836001600160a01b0316630dfe16816040518163ffffffff1660e01b815260040160206040518083038186803b15801561121357600080fd5b505afa158015611227573d6000803e3d6000fd5b505050506040513d601f19601f8201168201806040525081019061124b91906115bd565b6001600160a01b0316896001600160a01b031614156113145761127481610ca0856103e86113da565b61127e82846113da565b6112889190611838565b945061129e6001600160a01b038a168589610a05565b604080516000808252602082019283905263022c0d9f60e01b9092526001600160a01b0386169163022c0d9f916112dd919089908b90602481016117a1565b600060405180830381600087803b1580156112f757600080fd5b505af115801561130b573d6000803e3d6000fd5b505050506113bf565b61132481610ca0846103e86113da565b61132e82856113da565b6113389190611838565b945061134e6001600160a01b038a168589610a05565b604080516000808252602082019283905263022c0d9f60e01b9092526001600160a01b0386169163022c0d9f9161138c9189918b90602481016117a1565b600060405180830381600087803b1580156113a657600080fd5b505af11580156113ba573d6000803e3d6000fd5b505050505b50505050949350505050565b6060610f1084846000856113e6565b6000610ff68284611858565b6060824710156114475760405162461bcd60e51b815260206004820152602660248201527f416464726573733a20696e73756666696369656e742062616c616e636520666f6044820152651c8818d85b1b60d21b60648201526084016102b0565b6001600160a01b0385163b61149e5760405162461bcd60e51b815260206004820152601d60248201527f416464726573733a2063616c6c20746f206e6f6e2d636f6e747261637400000060448201526064016102b0565b600080866001600160a01b031685876040516114ba9190611785565b60006040518083038185875af1925050503d80600081146114f7576040519150601f19603f3d011682016040523d82523d6000602084013e6114fc565b606091505b5091509150610f0a82828660608315611516575081610ff6565b8251156115265782518084602001fd5b8160405162461bcd60e51b81526004016102b091906117d8565b60008083601f840112611551578182fd5b50813567ffffffffffffffff811115611568578182fd5b6020830191508360208260051b850101111561158357600080fd5b9250929050565b80516001600160701b03811681146105b657600080fd5b6000602082840312156115b2578081fd5b8135610ff6816118d4565b6000602082840312156115ce578081fd5b8151610ff6816118d4565b600080604083850312156115eb578081fd5b82356115f6816118d4565b91506020830135611606816118d4565b809150509250929050565b600080600060608486031215611625578081fd5b8335611630816118d4565b9250602084013591506040840135611647816118d4565b809150509250925092565b60008060008060408587031215611667578081fd5b843567ffffffffffffffff8082111561167e578283fd5b61168a88838901611540565b909650945060208701359150808211156116a2578283fd5b506116af87828801611540565b95989497509550505050565b6000602082840312156116cc578081fd5b81518015158114610ff6578182fd5b6000806000606084860312156116ef578283fd5b6116f88461158a565b92506117066020850161158a565b9150604084015163ffffffff81168114611647578182fd5b60006020828403121561172f578081fd5b5051919050565b60008060408385031215611748578182fd5b505080516020909101519092909150565b60008151808452611771816020860160208601611877565b601f01601f19169290920160200192915050565b60008251611797818460208701611877565b9190910192915050565b84815283602082015260018060a01b03831660408201526080606082015260006117ce6080830184611759565b9695505050505050565b602081526000610ff66020830184611759565b6020808252818101527f4f776e61626c653a2063616c6c6572206973206e6f7420746865206f776e6572604082015260600190565b60008219821115611833576118336118be565b500190565b60008261185357634e487b7160e01b81526012600452602481fd5b500490565b6000816000190483118215151615611872576118726118be565b500290565b60005b8381101561189257818101518382015260200161187a565b838111156103bf5750506000910152565b60006000198214156118b7576118b76118be565b5060010190565b634e487b7160e01b600052601160045260246000fd5b6001600160a01b038116811461070757600080fdfea26469706673582212204cd58179773e477e2c12390510a81238ec01d0c8315b72f3d3441e319ccecae264736f6c63430008040033",
  "linkReferences": {},
  "deployedLinkReferences": {}
}