{
  "_format": "hh-sol-artifact-1",
  "contractName": "KaidexMaker",
  "sourceName": "contracts/farming/KaidexMaker.sol",
  "abi": [
    {
      "inputs": [
        {
          "internalType": "address",
          "name": "_factory",
          "type": "address"
        },
        {
          "internalType": "address",
          "name": "_bar",
          "type": "address"
        },
        {
          "internalType": "address",
          "name": "_kdx",
          "type": "address"
        },
        {
          "internalType": "address",
          "name": "_wkai",
          "type": "address"
        }
      ],
      "stateMutability": "nonpayable",
      "type": "constructor"
    },
    {
      "anonymous": false,
      "inputs": [
        {
          "indexed": true,
          "internalType": "address",
          "name": "token",
          "type": "address"
        },
        {
          "indexed": true,
          "internalType": "address",
          "name": "bridge",
          "type": "address"
        }
      ],
      "name": "LogBridgeSet",
      "type": "event"
    },
    {
      "anonymous": false,
      "inputs": [
        {
          "indexed": true,
          "internalType": "address",
          "name": "server",
          "type": "address"
        },
        {
          "indexed": true,
          "internalType": "address",
          "name": "token0",
          "type": "address"
        },
        {
          "indexed": true,
          "internalType": "address",
          "name": "token1",
          "type": "address"
        },
        {
          "indexed": false,
          "internalType": "uint256",
          "name": "amount0",
          "type": "uint256"
        },
        {
          "indexed": false,
          "internalType": "uint256",
          "name": "amount1",
          "type": "uint256"
        },
        {
          "indexed": false,
          "internalType": "uint256",
          "name": "amountKDX",
          "type": "uint256"
        }
      ],
      "name": "LogConvert",
      "type": "event"
    },
    {
      "anonymous": false,
      "inputs": [
        {
          "indexed": true,
          "internalType": "address",
          "name": "previousOwner",
          "type": "address"
        },
        {
          "indexed": true,
          "internalType": "address",
          "name": "newOwner",
          "type": "address"
        }
      ],
      "name": "OwnershipTransferred",
      "type": "event"
    },
    {
      "inputs": [],
      "name": "bar",
      "outputs": [
        {
          "internalType": "address",
          "name": "",
          "type": "address"
        }
      ],
      "stateMutability": "view",
      "type": "function"
    },
    {
      "inputs": [
        {
          "internalType": "address",
          "name": "token",
          "type": "address"
        }
      ],
      "name": "bridgeFor",
      "outputs": [
        {
          "internalType": "address",
          "name": "bridge",
          "type": "address"
        }
      ],
      "stateMutability": "view",
      "type": "function"
    },
    {
      "inputs": [
        {
          "internalType": "address",
          "name": "token0",
          "type": "address"
        },
        {
          "internalType": "address",
          "name": "token1",
          "type": "address"
        }
      ],
      "name": "convert",
      "outputs": [],
      "stateMutability": "nonpayable",
      "type": "function"
    },
    {
      "inputs": [
        {
          "internalType": "address[]",
          "name": "token0",
          "type": "address[]"
        },
        {
          "internalType": "address[]",
          "name": "token1",
          "type": "address[]"
        }
      ],
      "name": "convertMultiple",
      "outputs": [],
      "stateMutability": "nonpayable",
      "type": "function"
    },
    {
      "inputs": [],
      "name": "converter",
      "outputs": [
        {
          "internalType": "address",
          "name": "",
          "type": "address"
        }
      ],
      "stateMutability": "view",
      "type": "function"
    },
    {
      "inputs": [
        {
          "internalType": "address",
          "name": "token",
          "type": "address"
        },
        {
          "internalType": "uint256",
          "name": "amount",
          "type": "uint256"
        },
        {
          "internalType": "address payable",
          "name": "to",
          "type": "address"
        }
      ],
      "name": "emergencyWithdraw",
      "outputs": [],
      "stateMutability": "nonpayable",
      "type": "function"
    },
    {
      "inputs": [],
      "name": "factory",
      "outputs": [
        {
          "internalType": "contract IKaiDexFactory",
          "name": "",
          "type": "address"
        }
      ],
      "stateMutability": "view",
      "type": "function"
    },
    {
      "inputs": [],
      "name": "kdx",
      "outputs": [
        {
          "internalType": "address",
          "name": "",
          "type": "address"
        }
      ],
      "stateMutability": "view",
      "type": "function"
    },
    {
      "inputs": [],
      "name": "owner",
      "outputs": [
        {
          "internalType": "address",
          "name": "",
          "type": "address"
        }
      ],
      "stateMutability": "view",
      "type": "function"
    },
    {
      "inputs": [],
      "name": "renounceOwnership",
      "outputs": [],
      "stateMutability": "nonpayable",
      "type": "function"
    },
    {
      "inputs": [
        {
          "internalType": "address",
          "name": "_bar",
          "type": "address"
        }
      ],
      "name": "setBar",
      "outputs": [],
      "stateMutability": "nonpayable",
      "type": "function"
    },
    {
      "inputs": [
        {
          "internalType": "address",
          "name": "token",
          "type": "address"
        },
        {
          "internalType": "address",
          "name": "bridge",
          "type": "address"
        }
      ],
      "name": "setBridge",
      "outputs": [],
      "stateMutability": "nonpayable",
      "type": "function"
    },
    {
      "inputs": [
        {
          "internalType": "address",
          "name": "_new",
          "type": "address"
        }
      ],
      "name": "setConverter",
      "outputs": [],
      "stateMutability": "nonpayable",
      "type": "function"
    },
    {
      "inputs": [
        {
          "internalType": "address",
          "name": "_kdx",
          "type": "address"
        }
      ],
      "name": "setKDX",
      "outputs": [],
      "stateMutability": "nonpayable",
      "type": "function"
    },
    {
      "inputs": [
        {
          "internalType": "address",
          "name": "newOwner",
          "type": "address"
        }
      ],
      "name": "transferOwnership",
      "outputs": [],
      "stateMutability": "nonpayable",
      "type": "function"
    },
    {
      "inputs": [],
      "name": "wkai",
      "outputs": [
        {
          "internalType": "address",
          "name": "",
          "type": "address"
        }
      ],
      "stateMutability": "view",
      "type": "function"
    }
  ],
  "bytecode": "0x60c06040523480156200001157600080fd5b5060405162001a2f38038062001a2f833981016040819052620000349162000108565b6200003f336200009b565b6001600160601b0319606094851b8116608052600180546001600160a01b039586166001600160a01b03199182161790915560028054949095169381169390931790935590921b1660a052600480549091163317905562000164565b600080546001600160a01b038381166001600160a01b0319831681178455604051919092169283917f8be0079c531659141344cd1fd0a4f28419497f9722a3daafe3b4186f6b6457e09190a35050565b80516001600160a01b03811681146200010357600080fd5b919050565b600080600080608085870312156200011e578384fd5b6200012985620000eb565b93506200013960208601620000eb565b92506200014960408601620000eb565b91506200015960608601620000eb565b905092959194509250565b60805160601c60a05160601c61184b620001e460003960008181610132015281816104670152818161058001528181610b6201528181610b9f01528181610c8e01528181610ccb01528181610cf401528181610d2101528181610d5e0152610d87015260008181610213015281816106da0152610fd4015261184b6000f3fe608060405234801561001057600080fd5b50600436106101005760003560e01c8063a761a93911610097578063c45a015511610066578063c45a01551461020e578063dae4781814610235578063f2fde38b14610248578063febb0f7e1461025b57600080fd5b8063a761a939146101c2578063b19337a4146101d5578063bd1b820c146101e8578063bd38837b146101fb57600080fd5b8063715018a6116100d3578063715018a61461018357806375fd6ce91461018b5780638da5cb5b1461019e5780639d22ae8c146101af57600080fd5b8063303e6aa4146101055780633371e8e81461011a5780634a8ee9c21461012d578063551512de14610170575b600080fd5b6101186101133660046115b3565b61026e565b005b610118610128366004611502565b610371565b6101547f000000000000000000000000000000000000000000000000000000000000000081565b6040516001600160a01b03909116815260200160405180910390f35b61011861017e366004611572565b61039b565b610118610406565b610118610199366004611502565b61041a565b6000546001600160a01b0316610154565b6101186101bd36600461153a565b610444565b6101546101d0366004611502565b61055d565b6101186101e3366004611502565b6105a5565b6101186101f636600461153a565b6105cf565b600454610154906001600160a01b031681565b6101547f000000000000000000000000000000000000000000000000000000000000000081565b600254610154906001600160a01b031681565b610118610256366004611502565b610637565b600154610154906001600160a01b031681565b6004546001600160a01b031633146102cd5760405162461bcd60e51b815260206004820152601f60248201527f4b61696465784d616b65723a206d7573742075736520436f6e7665727465720060448201526064015b60405180910390fd5b828181146102da57600080fd5b60005b818110156103695761035786868381811061030857634e487b7160e01b600052603260045260246000fd5b905060200201602081019061031d9190611502565b85858481811061033d57634e487b7160e01b600052603260045260246000fd5b90506020020160208101906103529190611502565b6106b0565b80610361816117cf565b9150506102dd565b505050505050565b6103796109b4565b600280546001600160a01b0319166001600160a01b0392909216919091179055565b6103a36109b4565b6001600160a01b0383166103ed576040516001600160a01b0382169083156108fc029084906000818181858888f193505050501580156103e7573d6000803e3d6000fd5b50505050565b6104016001600160a01b0384168284610a0e565b505050565b61040e6109b4565b6104186000610a60565b565b6104226109b4565b600180546001600160a01b0319166001600160a01b0392909216919091179055565b61044c6109b4565b6002546001600160a01b0383811691161480159061049c57507f00000000000000000000000000000000000000000000000000000000000000006001600160a01b0316826001600160a01b031614155b80156104ba5750806001600160a01b0316826001600160a01b031614155b6105065760405162461bcd60e51b815260206004820152601b60248201527f4b61696465784d616b65723a20496e76616c696420627269646765000000000060448201526064016102c4565b6001600160a01b0382811660008181526003602052604080822080546001600160a01b0319169486169485179055517f2e103aa707acc565f9a1547341914802b2bfe977fd79c595209f248ae4b006139190a35050565b6001600160a01b0380821660009081526003602052604090205416806105a057507f00000000000000000000000000000000000000000000000000000000000000005b919050565b6105ad6109b4565b600480546001600160a01b0319166001600160a01b0392909216919091179055565b6004546001600160a01b031633146106295760405162461bcd60e51b815260206004820152601f60248201527f4b61696465784d616b65723a206d7573742075736520436f6e7665727465720060448201526064016102c4565b61063382826106b0565b5050565b61063f6109b4565b6001600160a01b0381166106a45760405162461bcd60e51b815260206004820152602660248201527f4f776e61626c653a206e6577206f776e657220697320746865207a65726f206160448201526564647265737360d01b60648201526084016102c4565b6106ad81610a60565b50565b60405163e6a4390560e01b81526001600160a01b03838116600483015282811660248301526000917f00000000000000000000000000000000000000000000000000000000000000009091169063e6a439059060440160206040518083038186803b15801561071e57600080fd5b505afa158015610732573d6000803e3d6000fd5b505050506040513d601f19601f82011682018060405250810190610756919061151e565b90506001600160a01b0381166107ae5760405162461bcd60e51b815260206004820152601960248201527f4b61696465784d616b65723a20496e76616c696420706169720000000000000060448201526064016102c4565b6040516370a0823160e01b815230600482015261083c9082906001600160a01b038216906370a082319060240160206040518083038186803b1580156107f357600080fd5b505afa158015610807573d6000803e3d6000fd5b505050506040513d601f19601f8201168201806040525081019061082b919061167f565b6001600160a01b0384169190610a0e565b60405163226bf2d160e21b815230600482015260009081906001600160a01b038416906389afcb44906024016040805180830381600087803b15801561088157600080fd5b505af1158015610895573d6000803e3d6000fd5b505050506040513d601f19601f820116820180604052508101906108b99190611697565b91509150826001600160a01b0316630dfe16816040518163ffffffff1660e01b815260040160206040518083038186803b1580156108f657600080fd5b505afa15801561090a573d6000803e3d6000fd5b505050506040513d601f19601f8201168201806040525081019061092e919061151e565b6001600160a01b0316856001600160a01b03161461094857905b600061095686868585610ab0565b60408051858152602081018590529081018290529091506001600160a01b03808716919088169033907fd06b1d7ed79b664d17472c6f6997b929f1abe463ccccb4e5b6a0038f2f730c159060600160405180910390a4505050505050565b6000546001600160a01b031633146104185760405162461bcd60e51b815260206004820181905260248201527f4f776e61626c653a2063616c6c6572206973206e6f7420746865206f776e657260448201526064016102c4565b604080516001600160a01b038416602482015260448082018490528251808303909101815260649091019091526020810180516001600160e01b031663a9059cbb60e01b179052610401908490610e5b565b600080546001600160a01b038381166001600160a01b0319831681178455604051919092169283917f8be0079c531659141344cd1fd0a4f28419497f9722a3daafe3b4186f6b6457e09190a35050565b6001546000906001600160a01b0316610afc5760405162461bcd60e51b815260206004820152600e60248201526d18985c881a5cc81b9bdd081cd95d60921b60448201526064016102c4565b836001600160a01b0316856001600160a01b03161415610bfd576000610b228484610f2d565b6002549091506001600160a01b0387811691161415610b6057600154600254610b58916001600160a01b03918216911683610a0e565b809150610bf7565b7f00000000000000000000000000000000000000000000000000000000000000006001600160a01b0316866001600160a01b03161415610bcb57610bc47f000000000000000000000000000000000000000000000000000000000000000082610f40565b9150610bf7565b6000610bd68761055d565b9050610be487828430610fa8565b9150610bf38182846000610ab0565b9250505b50610e53565b6002546001600160a01b0386811691161415610c4b57600154600254610c30916001600160a01b03918216911685610a0e565b610c4483610c3e8685610f40565b90610f2d565b9050610e53565b6002546001600160a01b0385811691161415610c8c57600154600254610c7e916001600160a01b03918216911684610a0e565b610c4482610c3e8786610f40565b7f00000000000000000000000000000000000000000000000000000000000000006001600160a01b0316856001600160a01b03161415610d1f57610c447f0000000000000000000000000000000000000000000000000000000000000000610d1a85610c3e887f00000000000000000000000000000000000000000000000000000000000000008830610fa8565b610f40565b7f00000000000000000000000000000000000000000000000000000000000000006001600160a01b0316846001600160a01b03161415610dad57610c447f0000000000000000000000000000000000000000000000000000000000000000610d1a84610c3e897f00000000000000000000000000000000000000000000000000000000000000008930610fa8565b6000610db88661055d565b90506000610dc58661055d565b9050856001600160a01b0316826001600160a01b03161415610dff57610df88287610df28a868a30610fa8565b87610ab0565b9250610e50565b866001600160a01b0316816001600160a01b03161415610e3057610df8878287610e2b8a868a30610fa8565b610ab0565b610e4d8282610e418a868a30610fa8565b610e2b8a868a30610fa8565b92505b50505b949350505050565b6000610eb0826040518060400160405280602081526020017f5361666545524332303a206c6f772d6c6576656c2063616c6c206661696c6564815250856001600160a01b031661132c9092919063ffffffff16565b8051909150156104015780806020019051810190610ece919061161c565b6104015760405162461bcd60e51b815260206004820152602a60248201527f5361666545524332303a204552433230206f7065726174696f6e20646964206e6044820152691bdd081cdd58d8d9595960b21b60648201526084016102c4565b6000610f39828461174c565b9392505050565b6001546000906001600160a01b0316610f8c5760405162461bcd60e51b815260206004820152600e60248201526d18985c881a5cc81b9bdd081cd95d60921b60448201526064016102c4565b600254600154610f399185916001600160a01b03918216918691165b60405163e6a4390560e01b81526001600160a01b038581166004830152848116602483015260009182917f0000000000000000000000000000000000000000000000000000000000000000169063e6a439059060440160206040518083038186803b15801561101657600080fd5b505afa15801561102a573d6000803e3d6000fd5b505050506040513d601f19601f8201168201806040525081019061104e919061151e565b90506001600160a01b0381166110a65760405162461bcd60e51b815260206004820152601b60248201527f4b61696465784d616b65723a2043616e6e6f7420636f6e76657274000000000060448201526064016102c4565b600080826001600160a01b0316630902f1ac6040518163ffffffff1660e01b815260040160606040518083038186803b1580156110e257600080fd5b505afa1580156110f6573d6000803e3d6000fd5b505050506040513d601f19601f8201168201806040525081019061111a919061163c565b506001600160701b0391821693501690506000611139876103e561133b565b9050836001600160a01b0316630dfe16816040518163ffffffff1660e01b815260040160206040518083038186803b15801561117457600080fd5b505afa158015611188573d6000803e3d6000fd5b505050506040513d601f19601f820116820180604052508101906111ac919061151e565b6001600160a01b0316896001600160a01b03161415611275576111d581610c3e856103e861133b565b6111df828461133b565b6111e99190611764565b94506111ff6001600160a01b038a168589610a0e565b604080516000808252602082019283905263022c0d9f60e01b9092526001600160a01b0386169163022c0d9f9161123e919089908b9060248101611702565b600060405180830381600087803b15801561125857600080fd5b505af115801561126c573d6000803e3d6000fd5b50505050611320565b61128581610c3e846103e861133b565b61128f828561133b565b6112999190611764565b94506112af6001600160a01b038a168589610a0e565b604080516000808252602082019283905263022c0d9f60e01b9092526001600160a01b0386169163022c0d9f916112ed9189918b9060248101611702565b600060405180830381600087803b15801561130757600080fd5b505af115801561131b573d6000803e3d6000fd5b505050505b50505050949350505050565b6060610e538484600085611347565b6000610f398284611784565b6060824710156113a85760405162461bcd60e51b815260206004820152602660248201527f416464726573733a20696e73756666696369656e742062616c616e636520666f6044820152651c8818d85b1b60d21b60648201526084016102c4565b6001600160a01b0385163b6113ff5760405162461bcd60e51b815260206004820152601d60248201527f416464726573733a2063616c6c20746f206e6f6e2d636f6e747261637400000060448201526064016102c4565b600080866001600160a01b0316858760405161141b91906116e6565b60006040518083038185875af1925050503d8060008114611458576040519150601f19603f3d011682016040523d82523d6000602084013e61145d565b606091505b5091509150610e4d82828660608315611477575081610f39565b8251156114875782518084602001fd5b8160405162461bcd60e51b81526004016102c49190611739565b60008083601f8401126114b2578182fd5b50813567ffffffffffffffff8111156114c9578182fd5b6020830191508360208260051b85010111156114e457600080fd5b9250929050565b80516001600160701b03811681146105a057600080fd5b600060208284031215611513578081fd5b8135610f3981611800565b60006020828403121561152f578081fd5b8151610f3981611800565b6000806040838503121561154c578081fd5b823561155781611800565b9150602083013561156781611800565b809150509250929050565b600080600060608486031215611586578081fd5b833561159181611800565b92506020840135915060408401356115a881611800565b809150509250925092565b600080600080604085870312156115c8578081fd5b843567ffffffffffffffff808211156115df578283fd5b6115eb888389016114a1565b90965094506020870135915080821115611603578283fd5b50611610878288016114a1565b95989497509550505050565b60006020828403121561162d578081fd5b81518015158114610f39578182fd5b600080600060608486031215611650578283fd5b611659846114eb565b9250611667602085016114eb565b9150604084015163ffffffff811681146115a8578182fd5b600060208284031215611690578081fd5b5051919050565b600080604083850312156116a9578182fd5b505080516020909101519092909150565b600081518084526116d28160208601602086016117a3565b601f01601f19169290920160200192915050565b600082516116f88184602087016117a3565b9190910192915050565b84815283602082015260018060a01b038316604082015260806060820152600061172f60808301846116ba565b9695505050505050565b602081526000610f3960208301846116ba565b6000821982111561175f5761175f6117ea565b500190565b60008261177f57634e487b7160e01b81526012600452602481fd5b500490565b600081600019048311821515161561179e5761179e6117ea565b500290565b60005b838110156117be5781810151838201526020016117a6565b838111156103e75750506000910152565b60006000198214156117e3576117e36117ea565b5060010190565b634e487b7160e01b600052601160045260246000fd5b6001600160a01b03811681146106ad57600080fdfea264697066735822122060741b751c8fabe2eebba012742eda8bcded52f0906b110ab6d0dcce7890920f64736f6c63430008040033",
  "linkReferences": {},
  "deployedLinkReferences": {}
}