{
  "_format": "hh-sol-artifact-1",
  "contractName": "KaidexMaker",
  "sourceName": "contracts/farming/KaidexMaker.sol",
  "abi": [
    {
      "inputs": [
        {
          "internalType": "address",
          "name": "_factory",
          "type": "address"
        },
        {
          "internalType": "address",
          "name": "_bar",
          "type": "address"
        },
        {
          "internalType": "address",
          "name": "_kdx",
          "type": "address"
        },
        {
          "internalType": "address",
          "name": "_wkai",
          "type": "address"
        }
      ],
      "stateMutability": "nonpayable",
      "type": "constructor"
    },
    {
      "anonymous": false,
      "inputs": [
        {
          "indexed": true,
          "internalType": "address",
          "name": "token",
          "type": "address"
        },
        {
          "indexed": true,
          "internalType": "address",
          "name": "bridge",
          "type": "address"
        }
      ],
      "name": "LogBridgeSet",
      "type": "event"
    },
    {
      "anonymous": false,
      "inputs": [
        {
          "indexed": true,
          "internalType": "address",
          "name": "server",
          "type": "address"
        },
        {
          "indexed": true,
          "internalType": "address",
          "name": "token0",
          "type": "address"
        },
        {
          "indexed": true,
          "internalType": "address",
          "name": "token1",
          "type": "address"
        },
        {
          "indexed": false,
          "internalType": "uint256",
          "name": "amount0",
          "type": "uint256"
        },
        {
          "indexed": false,
          "internalType": "uint256",
          "name": "amount1",
          "type": "uint256"
        },
        {
          "indexed": false,
          "internalType": "uint256",
          "name": "amountKDX",
          "type": "uint256"
        }
      ],
      "name": "LogConvert",
      "type": "event"
    },
    {
      "anonymous": false,
      "inputs": [
        {
          "indexed": true,
          "internalType": "address",
          "name": "previousOwner",
          "type": "address"
        },
        {
          "indexed": true,
          "internalType": "address",
          "name": "newOwner",
          "type": "address"
        }
      ],
      "name": "OwnershipTransferred",
      "type": "event"
    },
    {
      "inputs": [],
      "name": "bar",
      "outputs": [
        {
          "internalType": "address",
          "name": "",
          "type": "address"
        }
      ],
      "stateMutability": "view",
      "type": "function"
    },
    {
      "inputs": [
        {
          "internalType": "address",
          "name": "token",
          "type": "address"
        }
      ],
      "name": "bridgeFor",
      "outputs": [
        {
          "internalType": "address",
          "name": "bridge",
          "type": "address"
        }
      ],
      "stateMutability": "view",
      "type": "function"
    },
    {
      "inputs": [
        {
          "internalType": "address",
          "name": "token0",
          "type": "address"
        },
        {
          "internalType": "address",
          "name": "token1",
          "type": "address"
        }
      ],
      "name": "convert",
      "outputs": [],
      "stateMutability": "nonpayable",
      "type": "function"
    },
    {
      "inputs": [
        {
          "internalType": "address[]",
          "name": "token0",
          "type": "address[]"
        },
        {
          "internalType": "address[]",
          "name": "token1",
          "type": "address[]"
        }
      ],
      "name": "convertMultiple",
      "outputs": [],
      "stateMutability": "nonpayable",
      "type": "function"
    },
    {
      "inputs": [
        {
          "internalType": "address",
          "name": "token",
          "type": "address"
        },
        {
          "internalType": "uint256",
          "name": "amount",
          "type": "uint256"
        },
        {
          "internalType": "address payable",
          "name": "to",
          "type": "address"
        }
      ],
      "name": "emergencyWithdraw",
      "outputs": [],
      "stateMutability": "nonpayable",
      "type": "function"
    },
    {
      "inputs": [],
      "name": "factory",
      "outputs": [
        {
          "internalType": "contract IKaiDexFactory",
          "name": "",
          "type": "address"
        }
      ],
      "stateMutability": "view",
      "type": "function"
    },
    {
      "inputs": [],
      "name": "kdx",
      "outputs": [
        {
          "internalType": "address",
          "name": "",
          "type": "address"
        }
      ],
      "stateMutability": "view",
      "type": "function"
    },
    {
      "inputs": [],
      "name": "owner",
      "outputs": [
        {
          "internalType": "address",
          "name": "",
          "type": "address"
        }
      ],
      "stateMutability": "view",
      "type": "function"
    },
    {
      "inputs": [],
      "name": "renounceOwnership",
      "outputs": [],
      "stateMutability": "nonpayable",
      "type": "function"
    },
    {
      "inputs": [
        {
          "internalType": "address",
          "name": "token",
          "type": "address"
        },
        {
          "internalType": "address",
          "name": "bridge",
          "type": "address"
        }
      ],
      "name": "setBridge",
      "outputs": [],
      "stateMutability": "nonpayable",
      "type": "function"
    },
    {
      "inputs": [
        {
          "internalType": "address",
          "name": "newOwner",
          "type": "address"
        }
      ],
      "name": "transferOwnership",
      "outputs": [],
      "stateMutability": "nonpayable",
      "type": "function"
    },
    {
      "inputs": [],
      "name": "wkai",
      "outputs": [
        {
          "internalType": "address",
          "name": "",
          "type": "address"
        }
      ],
      "stateMutability": "view",
      "type": "function"
    }
  ],
  "bytecode": "0x6101006040523480156200001257600080fd5b5060405162002ee738038062002ee7833981810160405281019062000038919062000221565b620000586200004c6200013e60201b60201c565b6200014660201b60201c565b8373ffffffffffffffffffffffffffffffffffffffff1660808173ffffffffffffffffffffffffffffffffffffffff1660601b815250508273ffffffffffffffffffffffffffffffffffffffff1660a08173ffffffffffffffffffffffffffffffffffffffff1660601b815250508173ffffffffffffffffffffffffffffffffffffffff1660c08173ffffffffffffffffffffffffffffffffffffffff1660601b815250508073ffffffffffffffffffffffffffffffffffffffff1660e08173ffffffffffffffffffffffffffffffffffffffff1660601b8152505050505050620002db565b600033905090565b60008060009054906101000a900473ffffffffffffffffffffffffffffffffffffffff169050816000806101000a81548173ffffffffffffffffffffffffffffffffffffffff021916908373ffffffffffffffffffffffffffffffffffffffff1602179055508173ffffffffffffffffffffffffffffffffffffffff168173ffffffffffffffffffffffffffffffffffffffff167f8be0079c531659141344cd1fd0a4f28419497f9722a3daafe3b4186f6b6457e060405160405180910390a35050565b6000815190506200021b81620002c1565b92915050565b600080600080608085870312156200023857600080fd5b600062000248878288016200020a565b94505060206200025b878288016200020a565b93505060406200026e878288016200020a565b925050606062000281878288016200020a565b91505092959194509250565b60006200029a82620002a1565b9050919050565b600073ffffffffffffffffffffffffffffffffffffffff82169050919050565b620002cc816200028d565b8114620002d857600080fd5b50565b60805160601c60a05160601c60c05160601c60e05160601c612b1e620003c9600039600081816103570152818161062d0152818161086a01528181611089015281816110e0015281816113050152818161135c01528181611385015281816113c70152818161141e01526114470152600081816105d60152818161093301528181610fc20152818161103b01528181611141015281816111ba015281816112230152818161129c015261165f015260008181610a4f01528181611019015281816111980152818161127a015261168101526000818161090f01528181610a7501526116b20152612b1e6000f3fe608060405234801561001057600080fd5b50600436106100b45760003560e01c8063a761a93911610071578063a761a93914610153578063bd1b820c14610183578063c45a01551461019f578063dae47818146101bd578063f2fde38b146101db578063febb0f7e146101f7576100b4565b8063303e6aa4146100b95780634a8ee9c2146100d5578063551512de146100f3578063715018a61461010f5780638da5cb5b146101195780639d22ae8c14610137575b600080fd5b6100d360048036038101906100ce9190611f96565b610215565b005b6100dd610355565b6040516100ea9190612319565b60405180910390f35b61010d60048036038101906101089190611f47565b610379565b005b6101176104a7565b005b61012161052f565b60405161012e9190612319565b60405180910390f35b610151600480360381019061014c9190611f0b565b610558565b005b61016d60048036038101906101689190611eb9565b6107cf565b60405161017a9190612319565b60405180910390f35b61019d60048036038101906101989190611f0b565b610891565b005b6101a761090d565b6040516101b49190612386565b60405180910390f35b6101c5610931565b6040516101d29190612319565b60405180910390f35b6101f560048036038101906101f09190611eb9565b610955565b005b6101ff610a4d565b60405161020c9190612319565b60405180910390f35b3273ffffffffffffffffffffffffffffffffffffffff163373ffffffffffffffffffffffffffffffffffffffff1614610283576040517f08c379a000000000000000000000000000000000000000000000000000000000815260040161027a9061240f565b60405180910390fd5b600084849050905060005b8181101561034d5761033a8686838181106102d2577f4e487b7100000000000000000000000000000000000000000000000000000000600052603260045260246000fd5b90506020020160208101906102e79190611eb9565b858584818110610320577f4e487b7100000000000000000000000000000000000000000000000000000000600052603260045260246000fd5b90506020020160208101906103359190611eb9565b610a71565b8080610345906127c3565b91505061028e565b505050505050565b7f000000000000000000000000000000000000000000000000000000000000000081565b610381610e21565b73ffffffffffffffffffffffffffffffffffffffff1661039f61052f565b73ffffffffffffffffffffffffffffffffffffffff16146103f5576040517f08c379a00000000000000000000000000000000000000000000000000000000081526004016103ec906124af565b60405180910390fd5b600073ffffffffffffffffffffffffffffffffffffffff168373ffffffffffffffffffffffffffffffffffffffff161415610476578073ffffffffffffffffffffffffffffffffffffffff166108fc839081150290604051600060405180830381858888f19350505050158015610470573d6000803e3d6000fd5b506104a2565b6104a181838573ffffffffffffffffffffffffffffffffffffffff16610e299092919063ffffffff16565b5b505050565b6104af610e21565b73ffffffffffffffffffffffffffffffffffffffff166104cd61052f565b73ffffffffffffffffffffffffffffffffffffffff1614610523576040517f08c379a000000000000000000000000000000000000000000000000000000000815260040161051a906124af565b60405180910390fd5b61052d6000610eaf565b565b60008060009054906101000a900473ffffffffffffffffffffffffffffffffffffffff16905090565b610560610e21565b73ffffffffffffffffffffffffffffffffffffffff1661057e61052f565b73ffffffffffffffffffffffffffffffffffffffff16146105d4576040517f08c379a00000000000000000000000000000000000000000000000000000000081526004016105cb906124af565b60405180910390fd5b7f000000000000000000000000000000000000000000000000000000000000000073ffffffffffffffffffffffffffffffffffffffff168273ffffffffffffffffffffffffffffffffffffffff161415801561067c57507f000000000000000000000000000000000000000000000000000000000000000073ffffffffffffffffffffffffffffffffffffffff168273ffffffffffffffffffffffffffffffffffffffff1614155b80156106b457508073ffffffffffffffffffffffffffffffffffffffff168273ffffffffffffffffffffffffffffffffffffffff1614155b6106f3576040517f08c379a00000000000000000000000000000000000000000000000000000000081526004016106ea906124cf565b60405180910390fd5b80600160008473ffffffffffffffffffffffffffffffffffffffff1673ffffffffffffffffffffffffffffffffffffffff16815260200190815260200160002060006101000a81548173ffffffffffffffffffffffffffffffffffffffff021916908373ffffffffffffffffffffffffffffffffffffffff1602179055508073ffffffffffffffffffffffffffffffffffffffff168273ffffffffffffffffffffffffffffffffffffffff167f2e103aa707acc565f9a1547341914802b2bfe977fd79c595209f248ae4b0061360405160405180910390a35050565b6000600160008373ffffffffffffffffffffffffffffffffffffffff1673ffffffffffffffffffffffffffffffffffffffff16815260200190815260200160002060009054906101000a900473ffffffffffffffffffffffffffffffffffffffff169050600073ffffffffffffffffffffffffffffffffffffffff168173ffffffffffffffffffffffffffffffffffffffff16141561088c577f000000000000000000000000000000000000000000000000000000000000000090505b919050565b3273ffffffffffffffffffffffffffffffffffffffff163373ffffffffffffffffffffffffffffffffffffffff16146108ff576040517f08c379a00000000000000000000000000000000000000000000000000000000081526004016108f69061240f565b60405180910390fd5b6109098282610a71565b5050565b7f000000000000000000000000000000000000000000000000000000000000000081565b7f000000000000000000000000000000000000000000000000000000000000000081565b61095d610e21565b73ffffffffffffffffffffffffffffffffffffffff1661097b61052f565b73ffffffffffffffffffffffffffffffffffffffff16146109d1576040517f08c379a00000000000000000000000000000000000000000000000000000000081526004016109c8906124af565b60405180910390fd5b600073ffffffffffffffffffffffffffffffffffffffff168173ffffffffffffffffffffffffffffffffffffffff161415610a41576040517f08c379a0000000000000000000000000000000000000000000000000000000008152600401610a389061242f565b60405180910390fd5b610a4a81610eaf565b50565b7f000000000000000000000000000000000000000000000000000000000000000081565b60007f000000000000000000000000000000000000000000000000000000000000000073ffffffffffffffffffffffffffffffffffffffff1663e6a4390584846040518363ffffffff1660e01b8152600401610ace929190612334565b60206040518083038186803b158015610ae657600080fd5b505afa158015610afa573d6000803e3d6000fd5b505050506040513d601f19601f82011682018060405250810190610b1e9190611ee2565b9050600073ffffffffffffffffffffffffffffffffffffffff168173ffffffffffffffffffffffffffffffffffffffff161415610b90576040517f08c379a0000000000000000000000000000000000000000000000000000000008152600401610b879061248f565b60405180910390fd5b610c43818273ffffffffffffffffffffffffffffffffffffffff166370a08231306040518263ffffffff1660e01b8152600401610bcd9190612319565b60206040518083038186803b158015610be557600080fd5b505afa158015610bf9573d6000803e3d6000fd5b505050506040513d601f19601f82011682018060405250810190610c1d9190612083565b8373ffffffffffffffffffffffffffffffffffffffff16610e299092919063ffffffff16565b6000808273ffffffffffffffffffffffffffffffffffffffff166389afcb44306040518263ffffffff1660e01b8152600401610c7f9190612319565b6040805180830381600087803b158015610c9857600080fd5b505af1158015610cac573d6000803e3d6000fd5b505050506040513d601f19601f82011682018060405250810190610cd091906120ac565b915091508273ffffffffffffffffffffffffffffffffffffffff16630dfe16816040518163ffffffff1660e01b815260040160206040518083038186803b158015610d1a57600080fd5b505afa158015610d2e573d6000803e3d6000fd5b505050506040513d601f19601f82011682018060405250810190610d529190611ee2565b73ffffffffffffffffffffffffffffffffffffffff168573ffffffffffffffffffffffffffffffffffffffff1614610d8f57808280925081935050505b8373ffffffffffffffffffffffffffffffffffffffff168573ffffffffffffffffffffffffffffffffffffffff163373ffffffffffffffffffffffffffffffffffffffff167fd06b1d7ed79b664d17472c6f6997b929f1abe463ccccb4e5b6a0038f2f730c158585610e038b8b8a8a610f73565b604051610e129392919061257b565b60405180910390a45050505050565b600033905090565b610eaa8363a9059cbb60e01b8484604051602401610e4892919061235d565b604051602081830303815290604052907bffffffffffffffffffffffffffffffffffffffffffffffffffffffff19166020820180517bffffffffffffffffffffffffffffffffffffffffffffffffffffffff838183161783525050505061157a565b505050565b60008060009054906101000a900473ffffffffffffffffffffffffffffffffffffffff169050816000806101000a81548173ffffffffffffffffffffffffffffffffffffffff021916908373ffffffffffffffffffffffffffffffffffffffff1602179055508173ffffffffffffffffffffffffffffffffffffffff168173ffffffffffffffffffffffffffffffffffffffff167f8be0079c531659141344cd1fd0a4f28419497f9722a3daafe3b4186f6b6457e060405160405180910390a35050565b60008373ffffffffffffffffffffffffffffffffffffffff168573ffffffffffffffffffffffffffffffffffffffff16141561113f576000610fbe838561164190919063ffffffff16565b90507f000000000000000000000000000000000000000000000000000000000000000073ffffffffffffffffffffffffffffffffffffffff168673ffffffffffffffffffffffffffffffffffffffff1614156110875761107f7f0000000000000000000000000000000000000000000000000000000000000000827f000000000000000000000000000000000000000000000000000000000000000073ffffffffffffffffffffffffffffffffffffffff16610e299092919063ffffffff16565b809150611139565b7f000000000000000000000000000000000000000000000000000000000000000073ffffffffffffffffffffffffffffffffffffffff168673ffffffffffffffffffffffffffffffffffffffff16141561110c576111057f000000000000000000000000000000000000000000000000000000000000000082611657565b9150611138565b6000611117876107cf565b9050611125878284306116ad565b91506111348182846000610f73565b9250505b5b50611572565b7f000000000000000000000000000000000000000000000000000000000000000073ffffffffffffffffffffffffffffffffffffffff168573ffffffffffffffffffffffffffffffffffffffff161415611221576111fe7f0000000000000000000000000000000000000000000000000000000000000000847f000000000000000000000000000000000000000000000000000000000000000073ffffffffffffffffffffffffffffffffffffffff16610e299092919063ffffffff16565b61121a8361120c8685611657565b61164190919063ffffffff16565b9050611571565b7f000000000000000000000000000000000000000000000000000000000000000073ffffffffffffffffffffffffffffffffffffffff168473ffffffffffffffffffffffffffffffffffffffff161415611303576112e07f0000000000000000000000000000000000000000000000000000000000000000837f000000000000000000000000000000000000000000000000000000000000000073ffffffffffffffffffffffffffffffffffffffff16610e299092919063ffffffff16565b6112fc826112ee8786611657565b61164190919063ffffffff16565b9050611570565b7f000000000000000000000000000000000000000000000000000000000000000073ffffffffffffffffffffffffffffffffffffffff168573ffffffffffffffffffffffffffffffffffffffff1614156113c5576113be7f00000000000000000000000000000000000000000000000000000000000000006113b9856113ab887f000000000000000000000000000000000000000000000000000000000000000088306116ad565b61164190919063ffffffff16565b611657565b905061156f565b7f000000000000000000000000000000000000000000000000000000000000000073ffffffffffffffffffffffffffffffffffffffff168473ffffffffffffffffffffffffffffffffffffffff161415611487576114807f000000000000000000000000000000000000000000000000000000000000000061147b8461146d897f000000000000000000000000000000000000000000000000000000000000000089306116ad565b61164190919063ffffffff16565b611657565b905061156e565b6000611492866107cf565b9050600061149f866107cf565b90508573ffffffffffffffffffffffffffffffffffffffff168273ffffffffffffffffffffffffffffffffffffffff1614156114f3576114ec82876114e68a868a306116ad565b87610f73565b925061156b565b8673ffffffffffffffffffffffffffffffffffffffff168173ffffffffffffffffffffffffffffffffffffffff1614156115455761153e8782876115398a868a306116ad565b610f73565b925061156a565b61156782826115568a868a306116ad565b6115628a868a306116ad565b610f73565b92505b5b50505b5b5b5b5b949350505050565b60006115dc826040518060400160405280602081526020017f5361666545524332303a206c6f772d6c6576656c2063616c6c206661696c65648152508573ffffffffffffffffffffffffffffffffffffffff16611bfb9092919063ffffffff16565b905060008151111561163c57808060200190518101906115fc919061200b565b61163b576040517f08c379a00000000000000000000000000000000000000000000000000000000081526004016116329061250f565b60405180910390fd5b5b505050565b6000818361164f91906125f5565b905092915050565b60006116a5837f0000000000000000000000000000000000000000000000000000000000000000847f00000000000000000000000000000000000000000000000000000000000000006116ad565b905092915050565b6000807f000000000000000000000000000000000000000000000000000000000000000073ffffffffffffffffffffffffffffffffffffffff1663e6a4390587876040518363ffffffff1660e01b815260040161170b929190612334565b60206040518083038186803b15801561172357600080fd5b505afa158015611737573d6000803e3d6000fd5b505050506040513d601f19601f8201168201806040525081019061175b9190611ee2565b9050600073ffffffffffffffffffffffffffffffffffffffff168173ffffffffffffffffffffffffffffffffffffffff1614156117cd576040517f08c379a00000000000000000000000000000000000000000000000000000000081526004016117c49061244f565b60405180910390fd5b6000808273ffffffffffffffffffffffffffffffffffffffff16630902f1ac6040518163ffffffff1660e01b815260040160606040518083038186803b15801561181657600080fd5b505afa15801561182a573d6000803e3d6000fd5b505050506040513d601f19601f8201168201806040525081019061184e9190612034565b506dffffffffffffffffffffffffffff1691506dffffffffffffffffffffffffffff169150600061188a6103e588611c1390919063ffffffff16565b90508373ffffffffffffffffffffffffffffffffffffffff16630dfe16816040518163ffffffff1660e01b815260040160206040518083038186803b1580156118d257600080fd5b505afa1580156118e6573d6000803e3d6000fd5b505050506040513d601f19601f8201168201806040525081019061190a9190611ee2565b73ffffffffffffffffffffffffffffffffffffffff168973ffffffffffffffffffffffffffffffffffffffff161415611a9857611964816119566103e886611c1390919063ffffffff16565b61164190919063ffffffff16565b6119778383611c1390919063ffffffff16565b611981919061264b565b94506119ae84888b73ffffffffffffffffffffffffffffffffffffffff16610e299092919063ffffffff16565b8373ffffffffffffffffffffffffffffffffffffffff1663022c0d9f60008789600067ffffffffffffffff811115611a0f577f4e487b7100000000000000000000000000000000000000000000000000000000600052604160045260246000fd5b6040519080825280601f01601f191660200182016040528015611a415781602001600182028036833780820191505090505b506040518563ffffffff1660e01b8152600401611a6194939291906123a1565b600060405180830381600087803b158015611a7b57600080fd5b505af1158015611a8f573d6000803e3d6000fd5b50505050611bef565b611abf81611ab16103e885611c1390919063ffffffff16565b61164190919063ffffffff16565b611ad28483611c1390919063ffffffff16565b611adc919061264b565b9450611b0984888b73ffffffffffffffffffffffffffffffffffffffff16610e299092919063ffffffff16565b8373ffffffffffffffffffffffffffffffffffffffff1663022c0d9f86600089600067ffffffffffffffff811115611b6a577f4e487b7100000000000000000000000000000000000000000000000000000000600052604160045260246000fd5b6040519080825280601f01601f191660200182016040528015611b9c5781602001600182028036833780820191505090505b506040518563ffffffff1660e01b8152600401611bbc949392919061252f565b600060405180830381600087803b158015611bd657600080fd5b505af1158015611bea573d6000803e3d6000fd5b505050505b50505050949350505050565b6060611c0a8484600085611c29565b90509392505050565b60008183611c21919061267c565b905092915050565b606082471015611c6e576040517f08c379a0000000000000000000000000000000000000000000000000000000008152600401611c659061246f565b60405180910390fd5b611c7785611d3d565b611cb6576040517f08c379a0000000000000000000000000000000000000000000000000000000008152600401611cad906124ef565b60405180910390fd5b6000808673ffffffffffffffffffffffffffffffffffffffff168587604051611cdf9190612302565b60006040518083038185875af1925050503d8060008114611d1c576040519150601f19603f3d011682016040523d82523d6000602084013e611d21565b606091505b5091509150611d31828286611d60565b92505050949350505050565b6000808273ffffffffffffffffffffffffffffffffffffffff163b119050919050565b60608315611d7057829050611dc0565b600083511115611d835782518084602001fd5b816040517f08c379a0000000000000000000000000000000000000000000000000000000008152600401611db791906123ed565b60405180910390fd5b9392505050565b600081359050611dd681612a5e565b92915050565b600081519050611deb81612a5e565b92915050565b600081359050611e0081612a75565b92915050565b60008083601f840112611e1857600080fd5b8235905067ffffffffffffffff811115611e3157600080fd5b602083019150836020820283011115611e4957600080fd5b9250929050565b600081519050611e5f81612a8c565b92915050565b600081519050611e7481612aa3565b92915050565b600081359050611e8981612aba565b92915050565b600081519050611e9e81612aba565b92915050565b600081519050611eb381612ad1565b92915050565b600060208284031215611ecb57600080fd5b6000611ed984828501611dc7565b91505092915050565b600060208284031215611ef457600080fd5b6000611f0284828501611ddc565b91505092915050565b60008060408385031215611f1e57600080fd5b6000611f2c85828601611dc7565b9250506020611f3d85828601611dc7565b9150509250929050565b600080600060608486031215611f5c57600080fd5b6000611f6a86828701611dc7565b9350506020611f7b86828701611e7a565b9250506040611f8c86828701611df1565b9150509250925092565b60008060008060408587031215611fac57600080fd5b600085013567ffffffffffffffff811115611fc657600080fd5b611fd287828801611e06565b9450945050602085013567ffffffffffffffff811115611ff157600080fd5b611ffd87828801611e06565b925092505092959194509250565b60006020828403121561201d57600080fd5b600061202b84828501611e50565b91505092915050565b60008060006060848603121561204957600080fd5b600061205786828701611e65565b935050602061206886828701611e65565b925050604061207986828701611ea4565b9150509250925092565b60006020828403121561209557600080fd5b60006120a384828501611e8f565b91505092915050565b600080604083850312156120bf57600080fd5b60006120cd85828601611e8f565b92505060206120de85828601611e8f565b9150509250929050565b6120f1816126d6565b82525050565b6000612102826125b2565b61210c81856125c8565b935061211c818560208601612790565b6121258161286a565b840191505092915050565b600061213b826125b2565b61214581856125d9565b9350612155818560208601612790565b80840191505092915050565b61216a8161275a565b82525050565b6121798161277e565b82525050565b600061218a826125bd565b61219481856125e4565b93506121a4818560208601612790565b6121ad8161286a565b840191505092915050565b60006121c56019836125e4565b91506121d08261287b565b602082019050919050565b60006121e86026836125e4565b91506121f3826128a4565b604082019050919050565b600061220b601b836125e4565b9150612216826128f3565b602082019050919050565b600061222e6026836125e4565b91506122398261291c565b604082019050919050565b60006122516019836125e4565b915061225c8261296b565b602082019050919050565b60006122746020836125e4565b915061227f82612994565b602082019050919050565b6000612297601b836125e4565b91506122a2826129bd565b602082019050919050565b60006122ba601d836125e4565b91506122c5826129e6565b602082019050919050565b60006122dd602a836125e4565b91506122e882612a0f565b604082019050919050565b6122fc81612740565b82525050565b600061230e8284612130565b915081905092915050565b600060208201905061232e60008301846120e8565b92915050565b600060408201905061234960008301856120e8565b61235660208301846120e8565b9392505050565b600060408201905061237260008301856120e8565b61237f60208301846122f3565b9392505050565b600060208201905061239b6000830184612161565b92915050565b60006080820190506123b66000830187612170565b6123c360208301866122f3565b6123d060408301856120e8565b81810360608301526123e281846120f7565b905095945050505050565b60006020820190508181036000830152612407818461217f565b905092915050565b60006020820190508181036000830152612428816121b8565b9050919050565b60006020820190508181036000830152612448816121db565b9050919050565b60006020820190508181036000830152612468816121fe565b9050919050565b6000602082019050818103600083015261248881612221565b9050919050565b600060208201905081810360008301526124a881612244565b9050919050565b600060208201905081810360008301526124c881612267565b9050919050565b600060208201905081810360008301526124e88161228a565b9050919050565b60006020820190508181036000830152612508816122ad565b9050919050565b60006020820190508181036000830152612528816122d0565b9050919050565b600060808201905061254460008301876122f3565b6125516020830186612170565b61255e60408301856120e8565b818103606083015261257081846120f7565b905095945050505050565b600060608201905061259060008301866122f3565b61259d60208301856122f3565b6125aa60408301846122f3565b949350505050565b600081519050919050565b600081519050919050565b600082825260208201905092915050565b600081905092915050565b600082825260208201905092915050565b600061260082612740565b915061260b83612740565b9250827fffffffffffffffffffffffffffffffffffffffffffffffffffffffffffffffff038211156126405761263f61280c565b5b828201905092915050565b600061265682612740565b915061266183612740565b9250826126715761267061283b565b5b828204905092915050565b600061268782612740565b915061269283612740565b9250817fffffffffffffffffffffffffffffffffffffffffffffffffffffffffffffffff04831182151516156126cb576126ca61280c565b5b828202905092915050565b60006126e182612720565b9050919050565b60006126f382612720565b9050919050565b60008115159050919050565b60006dffffffffffffffffffffffffffff82169050919050565b600073ffffffffffffffffffffffffffffffffffffffff82169050919050565b6000819050919050565b600063ffffffff82169050919050565b60006127658261276c565b9050919050565b600061277782612720565b9050919050565b600061278982612740565b9050919050565b60005b838110156127ae578082015181840152602081019050612793565b838111156127bd576000848401525b50505050565b60006127ce82612740565b91507fffffffffffffffffffffffffffffffffffffffffffffffffffffffffffffffff8214156128015761280061280c565b5b600182019050919050565b7f4e487b7100000000000000000000000000000000000000000000000000000000600052601160045260246000fd5b7f4e487b7100000000000000000000000000000000000000000000000000000000600052601260045260246000fd5b6000601f19601f8301169050919050565b7f4b61696465784d616b65723a206d7573742075736520454f4100000000000000600082015250565b7f4f776e61626c653a206e6577206f776e657220697320746865207a65726f206160008201527f6464726573730000000000000000000000000000000000000000000000000000602082015250565b7f4b61696465784d616b65723a2043616e6e6f7420636f6e766572740000000000600082015250565b7f416464726573733a20696e73756666696369656e742062616c616e636520666f60008201527f722063616c6c0000000000000000000000000000000000000000000000000000602082015250565b7f4b61696465784d616b65723a20496e76616c6964207061697200000000000000600082015250565b7f4f776e61626c653a2063616c6c6572206973206e6f7420746865206f776e6572600082015250565b7f4b61696465784d616b65723a20496e76616c6964206272696467650000000000600082015250565b7f416464726573733a2063616c6c20746f206e6f6e2d636f6e7472616374000000600082015250565b7f5361666545524332303a204552433230206f7065726174696f6e20646964206e60008201527f6f74207375636365656400000000000000000000000000000000000000000000602082015250565b612a67816126d6565b8114612a7257600080fd5b50565b612a7e816126e8565b8114612a8957600080fd5b50565b612a95816126fa565b8114612aa057600080fd5b50565b612aac81612706565b8114612ab757600080fd5b50565b612ac381612740565b8114612ace57600080fd5b50565b612ada8161274a565b8114612ae557600080fd5b5056fea2646970667358221220f5c507636b6b4684b3f815d2e3d928700d2deecbc57a3a1c83202c36b357277264736f6c63430008040033",
  "linkReferences": {},
  "deployedLinkReferences": {}
}