{
  "_format": "hh-sol-artifact-1",
  "contractName": "KaidexMaker",
  "sourceName": "contracts/farming/KaidexMaker.sol",
  "abi": [
    {
      "inputs": [
        {
          "internalType": "address",
          "name": "_factory",
          "type": "address"
        },
        {
          "internalType": "address",
          "name": "_bar",
          "type": "address"
        },
        {
          "internalType": "address",
          "name": "_kdx",
          "type": "address"
        },
        {
          "internalType": "address",
          "name": "_wkai",
          "type": "address"
        }
      ],
      "stateMutability": "nonpayable",
      "type": "constructor"
    },
    {
      "anonymous": false,
      "inputs": [
        {
          "indexed": true,
          "internalType": "address",
          "name": "token",
          "type": "address"
        },
        {
          "indexed": true,
          "internalType": "address",
          "name": "bridge",
          "type": "address"
        }
      ],
      "name": "LogBridgeSet",
      "type": "event"
    },
    {
      "anonymous": false,
      "inputs": [
        {
          "indexed": true,
          "internalType": "address",
          "name": "server",
          "type": "address"
        },
        {
          "indexed": true,
          "internalType": "address",
          "name": "token0",
          "type": "address"
        },
        {
          "indexed": true,
          "internalType": "address",
          "name": "token1",
          "type": "address"
        },
        {
          "indexed": false,
          "internalType": "uint256",
          "name": "amount0",
          "type": "uint256"
        },
        {
          "indexed": false,
          "internalType": "uint256",
          "name": "amount1",
          "type": "uint256"
        },
        {
          "indexed": false,
          "internalType": "uint256",
          "name": "amountKDX",
          "type": "uint256"
        }
      ],
      "name": "LogConvert",
      "type": "event"
    },
    {
      "anonymous": false,
      "inputs": [
        {
          "indexed": true,
          "internalType": "address",
          "name": "previousOwner",
          "type": "address"
        },
        {
          "indexed": true,
          "internalType": "address",
          "name": "newOwner",
          "type": "address"
        }
      ],
      "name": "OwnershipTransferred",
      "type": "event"
    },
    {
      "inputs": [],
      "name": "bar",
      "outputs": [
        {
          "internalType": "address",
          "name": "",
          "type": "address"
        }
      ],
      "stateMutability": "view",
      "type": "function"
    },
    {
      "inputs": [
        {
          "internalType": "address",
          "name": "token",
          "type": "address"
        }
      ],
      "name": "bridgeFor",
      "outputs": [
        {
          "internalType": "address",
          "name": "bridge",
          "type": "address"
        }
      ],
      "stateMutability": "view",
      "type": "function"
    },
    {
      "inputs": [
        {
          "internalType": "address",
          "name": "token0",
          "type": "address"
        },
        {
          "internalType": "address",
          "name": "token1",
          "type": "address"
        }
      ],
      "name": "convert",
      "outputs": [],
      "stateMutability": "nonpayable",
      "type": "function"
    },
    {
      "inputs": [
        {
          "internalType": "address[]",
          "name": "token0",
          "type": "address[]"
        },
        {
          "internalType": "address[]",
          "name": "token1",
          "type": "address[]"
        }
      ],
      "name": "convertMultiple",
      "outputs": [],
      "stateMutability": "nonpayable",
      "type": "function"
    },
    {
      "inputs": [],
      "name": "factory",
      "outputs": [
        {
          "internalType": "contract IKaiDexFactory",
          "name": "",
          "type": "address"
        }
      ],
      "stateMutability": "view",
      "type": "function"
    },
    {
      "inputs": [],
      "name": "kdx",
      "outputs": [
        {
          "internalType": "address",
          "name": "",
          "type": "address"
        }
      ],
      "stateMutability": "view",
      "type": "function"
    },
    {
      "inputs": [],
      "name": "owner",
      "outputs": [
        {
          "internalType": "address",
          "name": "",
          "type": "address"
        }
      ],
      "stateMutability": "view",
      "type": "function"
    },
    {
      "inputs": [],
      "name": "renounceOwnership",
      "outputs": [],
      "stateMutability": "nonpayable",
      "type": "function"
    },
    {
      "inputs": [
        {
          "internalType": "address",
          "name": "token",
          "type": "address"
        },
        {
          "internalType": "address",
          "name": "bridge",
          "type": "address"
        }
      ],
      "name": "setBridge",
      "outputs": [],
      "stateMutability": "nonpayable",
      "type": "function"
    },
    {
      "inputs": [
        {
          "internalType": "address",
          "name": "newOwner",
          "type": "address"
        }
      ],
      "name": "transferOwnership",
      "outputs": [],
      "stateMutability": "nonpayable",
      "type": "function"
    },
    {
      "inputs": [],
      "name": "wkai",
      "outputs": [
        {
          "internalType": "address",
          "name": "",
          "type": "address"
        }
      ],
      "stateMutability": "view",
      "type": "function"
    }
  ],
  "bytecode": "0x6101006040523480156200001257600080fd5b5060405162002cf038038062002cf0833981810160405281019062000038919062000221565b620000586200004c6200013e60201b60201c565b6200014660201b60201c565b8373ffffffffffffffffffffffffffffffffffffffff1660808173ffffffffffffffffffffffffffffffffffffffff1660601b815250508273ffffffffffffffffffffffffffffffffffffffff1660a08173ffffffffffffffffffffffffffffffffffffffff1660601b815250508173ffffffffffffffffffffffffffffffffffffffff1660c08173ffffffffffffffffffffffffffffffffffffffff1660601b815250508073ffffffffffffffffffffffffffffffffffffffff1660e08173ffffffffffffffffffffffffffffffffffffffff1660601b8152505050505050620002db565b600033905090565b60008060009054906101000a900473ffffffffffffffffffffffffffffffffffffffff169050816000806101000a81548173ffffffffffffffffffffffffffffffffffffffff021916908373ffffffffffffffffffffffffffffffffffffffff1602179055508173ffffffffffffffffffffffffffffffffffffffff168173ffffffffffffffffffffffffffffffffffffffff167f8be0079c531659141344cd1fd0a4f28419497f9722a3daafe3b4186f6b6457e060405160405180910390a35050565b6000815190506200021b81620002c1565b92915050565b600080600080608085870312156200023857600080fd5b600062000248878288016200020a565b94505060206200025b878288016200020a565b93505060406200026e878288016200020a565b925050606062000281878288016200020a565b91505092959194509250565b60006200029a82620002a1565b9050919050565b600073ffffffffffffffffffffffffffffffffffffffff82169050919050565b620002cc816200028d565b8114620002d857600080fd5b50565b60805160601c60a05160601c60c05160601c60e05160601c612927620003c960003960008181610330015281816104d80152818161071501528181610f3401528181610f8b015281816111b0015281816112070152818161123001528181611272015281816112c901526112f2015260008181610481015281816107de01528181610e6d01528181610ee601528181610fec01528181611065015281816110ce01528181611147015261150a0152600081816108fa01528181610ec40152818161104301528181611125015261152c0152600081816107ba01528181610920015261155d01526129276000f3fe608060405234801561001057600080fd5b50600436106100a95760003560e01c8063a761a93911610071578063a761a9391461012c578063bd1b820c1461015c578063c45a015514610178578063dae4781814610196578063f2fde38b146101b4578063febb0f7e146101d0576100a9565b8063303e6aa4146100ae5780634a8ee9c2146100ca578063715018a6146100e85780638da5cb5b146100f25780639d22ae8c14610110575b600080fd5b6100c860048036038101906100c39190611dc8565b6101ee565b005b6100d261032e565b6040516100df919061214b565b60405180910390f35b6100f0610352565b005b6100fa6103da565b604051610107919061214b565b60405180910390f35b61012a60048036038101906101259190611d8c565b610403565b005b61014660048036038101906101419190611d3a565b61067a565b604051610153919061214b565b60405180910390f35b61017660048036038101906101719190611d8c565b61073c565b005b6101806107b8565b60405161018d91906121b8565b60405180910390f35b61019e6107dc565b6040516101ab919061214b565b60405180910390f35b6101ce60048036038101906101c99190611d3a565b610800565b005b6101d86108f8565b6040516101e5919061214b565b60405180910390f35b3273ffffffffffffffffffffffffffffffffffffffff163373ffffffffffffffffffffffffffffffffffffffff161461025c576040517f08c379a000000000000000000000000000000000000000000000000000000000815260040161025390612241565b60405180910390fd5b600084849050905060005b81811015610326576103138686838181106102ab577f4e487b7100000000000000000000000000000000000000000000000000000000600052603260045260246000fd5b90506020020160208101906102c09190611d3a565b8585848181106102f9577f4e487b7100000000000000000000000000000000000000000000000000000000600052603260045260246000fd5b905060200201602081019061030e9190611d3a565b61091c565b808061031e906125e3565b915050610267565b505050505050565b7f000000000000000000000000000000000000000000000000000000000000000081565b61035a610ccc565b73ffffffffffffffffffffffffffffffffffffffff166103786103da565b73ffffffffffffffffffffffffffffffffffffffff16146103ce576040517f08c379a00000000000000000000000000000000000000000000000000000000081526004016103c5906122e1565b60405180910390fd5b6103d86000610cd4565b565b60008060009054906101000a900473ffffffffffffffffffffffffffffffffffffffff16905090565b61040b610ccc565b73ffffffffffffffffffffffffffffffffffffffff166104296103da565b73ffffffffffffffffffffffffffffffffffffffff161461047f576040517f08c379a0000000000000000000000000000000000000000000000000000000008152600401610476906122e1565b60405180910390fd5b7f000000000000000000000000000000000000000000000000000000000000000073ffffffffffffffffffffffffffffffffffffffff168273ffffffffffffffffffffffffffffffffffffffff161415801561052757507f000000000000000000000000000000000000000000000000000000000000000073ffffffffffffffffffffffffffffffffffffffff168273ffffffffffffffffffffffffffffffffffffffff1614155b801561055f57508073ffffffffffffffffffffffffffffffffffffffff168273ffffffffffffffffffffffffffffffffffffffff1614155b61059e576040517f08c379a000000000000000000000000000000000000000000000000000000000815260040161059590612301565b60405180910390fd5b80600160008473ffffffffffffffffffffffffffffffffffffffff1673ffffffffffffffffffffffffffffffffffffffff16815260200190815260200160002060006101000a81548173ffffffffffffffffffffffffffffffffffffffff021916908373ffffffffffffffffffffffffffffffffffffffff1602179055508073ffffffffffffffffffffffffffffffffffffffff168273ffffffffffffffffffffffffffffffffffffffff167f2e103aa707acc565f9a1547341914802b2bfe977fd79c595209f248ae4b0061360405160405180910390a35050565b6000600160008373ffffffffffffffffffffffffffffffffffffffff1673ffffffffffffffffffffffffffffffffffffffff16815260200190815260200160002060009054906101000a900473ffffffffffffffffffffffffffffffffffffffff169050600073ffffffffffffffffffffffffffffffffffffffff168173ffffffffffffffffffffffffffffffffffffffff161415610737577f000000000000000000000000000000000000000000000000000000000000000090505b919050565b3273ffffffffffffffffffffffffffffffffffffffff163373ffffffffffffffffffffffffffffffffffffffff16146107aa576040517f08c379a00000000000000000000000000000000000000000000000000000000081526004016107a190612241565b60405180910390fd5b6107b4828261091c565b5050565b7f000000000000000000000000000000000000000000000000000000000000000081565b7f000000000000000000000000000000000000000000000000000000000000000081565b610808610ccc565b73ffffffffffffffffffffffffffffffffffffffff166108266103da565b73ffffffffffffffffffffffffffffffffffffffff161461087c576040517f08c379a0000000000000000000000000000000000000000000000000000000008152600401610873906122e1565b60405180910390fd5b600073ffffffffffffffffffffffffffffffffffffffff168173ffffffffffffffffffffffffffffffffffffffff1614156108ec576040517f08c379a00000000000000000000000000000000000000000000000000000000081526004016108e390612261565b60405180910390fd5b6108f581610cd4565b50565b7f000000000000000000000000000000000000000000000000000000000000000081565b60007f000000000000000000000000000000000000000000000000000000000000000073ffffffffffffffffffffffffffffffffffffffff1663e6a4390584846040518363ffffffff1660e01b8152600401610979929190612166565b60206040518083038186803b15801561099157600080fd5b505afa1580156109a5573d6000803e3d6000fd5b505050506040513d601f19601f820116820180604052508101906109c99190611d63565b9050600073ffffffffffffffffffffffffffffffffffffffff168173ffffffffffffffffffffffffffffffffffffffff161415610a3b576040517f08c379a0000000000000000000000000000000000000000000000000000000008152600401610a32906122c1565b60405180910390fd5b610aee818273ffffffffffffffffffffffffffffffffffffffff166370a08231306040518263ffffffff1660e01b8152600401610a78919061214b565b60206040518083038186803b158015610a9057600080fd5b505afa158015610aa4573d6000803e3d6000fd5b505050506040513d601f19601f82011682018060405250810190610ac89190611eb5565b8373ffffffffffffffffffffffffffffffffffffffff16610d989092919063ffffffff16565b6000808273ffffffffffffffffffffffffffffffffffffffff166389afcb44306040518263ffffffff1660e01b8152600401610b2a919061214b565b6040805180830381600087803b158015610b4357600080fd5b505af1158015610b57573d6000803e3d6000fd5b505050506040513d601f19601f82011682018060405250810190610b7b9190611ede565b915091508273ffffffffffffffffffffffffffffffffffffffff16630dfe16816040518163ffffffff1660e01b815260040160206040518083038186803b158015610bc557600080fd5b505afa158015610bd9573d6000803e3d6000fd5b505050506040513d601f19601f82011682018060405250810190610bfd9190611d63565b73ffffffffffffffffffffffffffffffffffffffff168573ffffffffffffffffffffffffffffffffffffffff1614610c3a57808280925081935050505b8373ffffffffffffffffffffffffffffffffffffffff168573ffffffffffffffffffffffffffffffffffffffff163373ffffffffffffffffffffffffffffffffffffffff167fd06b1d7ed79b664d17472c6f6997b929f1abe463ccccb4e5b6a0038f2f730c158585610cae8b8b8a8a610e1e565b604051610cbd939291906123ad565b60405180910390a45050505050565b600033905090565b60008060009054906101000a900473ffffffffffffffffffffffffffffffffffffffff169050816000806101000a81548173ffffffffffffffffffffffffffffffffffffffff021916908373ffffffffffffffffffffffffffffffffffffffff1602179055508173ffffffffffffffffffffffffffffffffffffffff168173ffffffffffffffffffffffffffffffffffffffff167f8be0079c531659141344cd1fd0a4f28419497f9722a3daafe3b4186f6b6457e060405160405180910390a35050565b610e198363a9059cbb60e01b8484604051602401610db792919061218f565b604051602081830303815290604052907bffffffffffffffffffffffffffffffffffffffffffffffffffffffff19166020820180517bffffffffffffffffffffffffffffffffffffffffffffffffffffffff8381831617835250505050611425565b505050565b60008373ffffffffffffffffffffffffffffffffffffffff168573ffffffffffffffffffffffffffffffffffffffff161415610fea576000610e6983856114ec90919063ffffffff16565b90507f000000000000000000000000000000000000000000000000000000000000000073ffffffffffffffffffffffffffffffffffffffff168673ffffffffffffffffffffffffffffffffffffffff161415610f3257610f2a7f0000000000000000000000000000000000000000000000000000000000000000827f000000000000000000000000000000000000000000000000000000000000000073ffffffffffffffffffffffffffffffffffffffff16610d989092919063ffffffff16565b809150610fe4565b7f000000000000000000000000000000000000000000000000000000000000000073ffffffffffffffffffffffffffffffffffffffff168673ffffffffffffffffffffffffffffffffffffffff161415610fb757610fb07f000000000000000000000000000000000000000000000000000000000000000082611502565b9150610fe3565b6000610fc28761067a565b9050610fd087828430611558565b9150610fdf8182846000610e1e565b9250505b5b5061141d565b7f000000000000000000000000000000000000000000000000000000000000000073ffffffffffffffffffffffffffffffffffffffff168573ffffffffffffffffffffffffffffffffffffffff1614156110cc576110a97f0000000000000000000000000000000000000000000000000000000000000000847f000000000000000000000000000000000000000000000000000000000000000073ffffffffffffffffffffffffffffffffffffffff16610d989092919063ffffffff16565b6110c5836110b78685611502565b6114ec90919063ffffffff16565b905061141c565b7f000000000000000000000000000000000000000000000000000000000000000073ffffffffffffffffffffffffffffffffffffffff168473ffffffffffffffffffffffffffffffffffffffff1614156111ae5761118b7f0000000000000000000000000000000000000000000000000000000000000000837f000000000000000000000000000000000000000000000000000000000000000073ffffffffffffffffffffffffffffffffffffffff16610d989092919063ffffffff16565b6111a7826111998786611502565b6114ec90919063ffffffff16565b905061141b565b7f000000000000000000000000000000000000000000000000000000000000000073ffffffffffffffffffffffffffffffffffffffff168573ffffffffffffffffffffffffffffffffffffffff161415611270576112697f000000000000000000000000000000000000000000000000000000000000000061126485611256887f00000000000000000000000000000000000000000000000000000000000000008830611558565b6114ec90919063ffffffff16565b611502565b905061141a565b7f000000000000000000000000000000000000000000000000000000000000000073ffffffffffffffffffffffffffffffffffffffff168473ffffffffffffffffffffffffffffffffffffffff1614156113325761132b7f000000000000000000000000000000000000000000000000000000000000000061132684611318897f00000000000000000000000000000000000000000000000000000000000000008930611558565b6114ec90919063ffffffff16565b611502565b9050611419565b600061133d8661067a565b9050600061134a8661067a565b90508573ffffffffffffffffffffffffffffffffffffffff168273ffffffffffffffffffffffffffffffffffffffff16141561139e5761139782876113918a868a30611558565b87610e1e565b9250611416565b8673ffffffffffffffffffffffffffffffffffffffff168173ffffffffffffffffffffffffffffffffffffffff1614156113f0576113e98782876113e48a868a30611558565b610e1e565b9250611415565b61141282826114018a868a30611558565b61140d8a868a30611558565b610e1e565b92505b5b50505b5b5b5b5b949350505050565b6000611487826040518060400160405280602081526020017f5361666545524332303a206c6f772d6c6576656c2063616c6c206661696c65648152508573ffffffffffffffffffffffffffffffffffffffff16611aa69092919063ffffffff16565b90506000815111156114e757808060200190518101906114a79190611e3d565b6114e6576040517f08c379a00000000000000000000000000000000000000000000000000000000081526004016114dd90612341565b60405180910390fd5b5b505050565b600081836114fa9190612427565b905092915050565b6000611550837f0000000000000000000000000000000000000000000000000000000000000000847f0000000000000000000000000000000000000000000000000000000000000000611558565b905092915050565b6000807f000000000000000000000000000000000000000000000000000000000000000073ffffffffffffffffffffffffffffffffffffffff1663e6a4390587876040518363ffffffff1660e01b81526004016115b6929190612166565b60206040518083038186803b1580156115ce57600080fd5b505afa1580156115e2573d6000803e3d6000fd5b505050506040513d601f19601f820116820180604052508101906116069190611d63565b9050600073ffffffffffffffffffffffffffffffffffffffff168173ffffffffffffffffffffffffffffffffffffffff161415611678576040517f08c379a000000000000000000000000000000000000000000000000000000000815260040161166f90612281565b60405180910390fd5b6000808273ffffffffffffffffffffffffffffffffffffffff16630902f1ac6040518163ffffffff1660e01b815260040160606040518083038186803b1580156116c157600080fd5b505afa1580156116d5573d6000803e3d6000fd5b505050506040513d601f19601f820116820180604052508101906116f99190611e66565b506dffffffffffffffffffffffffffff1691506dffffffffffffffffffffffffffff16915060006117356103e588611abe90919063ffffffff16565b90508373ffffffffffffffffffffffffffffffffffffffff16630dfe16816040518163ffffffff1660e01b815260040160206040518083038186803b15801561177d57600080fd5b505afa158015611791573d6000803e3d6000fd5b505050506040513d601f19601f820116820180604052508101906117b59190611d63565b73ffffffffffffffffffffffffffffffffffffffff168973ffffffffffffffffffffffffffffffffffffffff1614156119435761180f816118016103e886611abe90919063ffffffff16565b6114ec90919063ffffffff16565b6118228383611abe90919063ffffffff16565b61182c919061247d565b945061185984888b73ffffffffffffffffffffffffffffffffffffffff16610d989092919063ffffffff16565b8373ffffffffffffffffffffffffffffffffffffffff1663022c0d9f60008789600067ffffffffffffffff8111156118ba577f4e487b7100000000000000000000000000000000000000000000000000000000600052604160045260246000fd5b6040519080825280601f01601f1916602001820160405280156118ec5781602001600182028036833780820191505090505b506040518563ffffffff1660e01b815260040161190c94939291906121d3565b600060405180830381600087803b15801561192657600080fd5b505af115801561193a573d6000803e3d6000fd5b50505050611a9a565b61196a8161195c6103e885611abe90919063ffffffff16565b6114ec90919063ffffffff16565b61197d8483611abe90919063ffffffff16565b611987919061247d565b94506119b484888b73ffffffffffffffffffffffffffffffffffffffff16610d989092919063ffffffff16565b8373ffffffffffffffffffffffffffffffffffffffff1663022c0d9f86600089600067ffffffffffffffff811115611a15577f4e487b7100000000000000000000000000000000000000000000000000000000600052604160045260246000fd5b6040519080825280601f01601f191660200182016040528015611a475781602001600182028036833780820191505090505b506040518563ffffffff1660e01b8152600401611a679493929190612361565b600060405180830381600087803b158015611a8157600080fd5b505af1158015611a95573d6000803e3d6000fd5b505050505b50505050949350505050565b6060611ab58484600085611ad4565b90509392505050565b60008183611acc91906124ae565b905092915050565b606082471015611b19576040517f08c379a0000000000000000000000000000000000000000000000000000000008152600401611b10906122a1565b60405180910390fd5b611b2285611be8565b611b61576040517f08c379a0000000000000000000000000000000000000000000000000000000008152600401611b5890612321565b60405180910390fd5b6000808673ffffffffffffffffffffffffffffffffffffffff168587604051611b8a9190612134565b60006040518083038185875af1925050503d8060008114611bc7576040519150601f19603f3d011682016040523d82523d6000602084013e611bcc565b606091505b5091509150611bdc828286611c0b565b92505050949350505050565b6000808273ffffffffffffffffffffffffffffffffffffffff163b119050919050565b60608315611c1b57829050611c6b565b600083511115611c2e5782518084602001fd5b816040517f08c379a0000000000000000000000000000000000000000000000000000000008152600401611c62919061221f565b60405180910390fd5b9392505050565b600081359050611c818161287e565b92915050565b600081519050611c968161287e565b92915050565b60008083601f840112611cae57600080fd5b8235905067ffffffffffffffff811115611cc757600080fd5b602083019150836020820283011115611cdf57600080fd5b9250929050565b600081519050611cf581612895565b92915050565b600081519050611d0a816128ac565b92915050565b600081519050611d1f816128c3565b92915050565b600081519050611d34816128da565b92915050565b600060208284031215611d4c57600080fd5b6000611d5a84828501611c72565b91505092915050565b600060208284031215611d7557600080fd5b6000611d8384828501611c87565b91505092915050565b60008060408385031215611d9f57600080fd5b6000611dad85828601611c72565b9250506020611dbe85828601611c72565b9150509250929050565b60008060008060408587031215611dde57600080fd5b600085013567ffffffffffffffff811115611df857600080fd5b611e0487828801611c9c565b9450945050602085013567ffffffffffffffff811115611e2357600080fd5b611e2f87828801611c9c565b925092505092959194509250565b600060208284031215611e4f57600080fd5b6000611e5d84828501611ce6565b91505092915050565b600080600060608486031215611e7b57600080fd5b6000611e8986828701611cfb565b9350506020611e9a86828701611cfb565b9250506040611eab86828701611d25565b9150509250925092565b600060208284031215611ec757600080fd5b6000611ed584828501611d10565b91505092915050565b60008060408385031215611ef157600080fd5b6000611eff85828601611d10565b9250506020611f1085828601611d10565b9150509250929050565b611f2381612508565b82525050565b6000611f34826123e4565b611f3e81856123fa565b9350611f4e8185602086016125b0565b611f578161268a565b840191505092915050565b6000611f6d826123e4565b611f77818561240b565b9350611f878185602086016125b0565b80840191505092915050565b611f9c8161257a565b82525050565b611fab8161259e565b82525050565b6000611fbc826123ef565b611fc68185612416565b9350611fd68185602086016125b0565b611fdf8161268a565b840191505092915050565b6000611ff7601983612416565b91506120028261269b565b602082019050919050565b600061201a602683612416565b9150612025826126c4565b604082019050919050565b600061203d601b83612416565b915061204882612713565b602082019050919050565b6000612060602683612416565b915061206b8261273c565b604082019050919050565b6000612083601983612416565b915061208e8261278b565b602082019050919050565b60006120a6602083612416565b91506120b1826127b4565b602082019050919050565b60006120c9601b83612416565b91506120d4826127dd565b602082019050919050565b60006120ec601d83612416565b91506120f782612806565b602082019050919050565b600061210f602a83612416565b915061211a8261282f565b604082019050919050565b61212e81612560565b82525050565b60006121408284611f62565b915081905092915050565b60006020820190506121606000830184611f1a565b92915050565b600060408201905061217b6000830185611f1a565b6121886020830184611f1a565b9392505050565b60006040820190506121a46000830185611f1a565b6121b16020830184612125565b9392505050565b60006020820190506121cd6000830184611f93565b92915050565b60006080820190506121e86000830187611fa2565b6121f56020830186612125565b6122026040830185611f1a565b81810360608301526122148184611f29565b905095945050505050565b600060208201905081810360008301526122398184611fb1565b905092915050565b6000602082019050818103600083015261225a81611fea565b9050919050565b6000602082019050818103600083015261227a8161200d565b9050919050565b6000602082019050818103600083015261229a81612030565b9050919050565b600060208201905081810360008301526122ba81612053565b9050919050565b600060208201905081810360008301526122da81612076565b9050919050565b600060208201905081810360008301526122fa81612099565b9050919050565b6000602082019050818103600083015261231a816120bc565b9050919050565b6000602082019050818103600083015261233a816120df565b9050919050565b6000602082019050818103600083015261235a81612102565b9050919050565b60006080820190506123766000830187612125565b6123836020830186611fa2565b6123906040830185611f1a565b81810360608301526123a28184611f29565b905095945050505050565b60006060820190506123c26000830186612125565b6123cf6020830185612125565b6123dc6040830184612125565b949350505050565b600081519050919050565b600081519050919050565b600082825260208201905092915050565b600081905092915050565b600082825260208201905092915050565b600061243282612560565b915061243d83612560565b9250827fffffffffffffffffffffffffffffffffffffffffffffffffffffffffffffffff038211156124725761247161262c565b5b828201905092915050565b600061248882612560565b915061249383612560565b9250826124a3576124a261265b565b5b828204905092915050565b60006124b982612560565b91506124c483612560565b9250817fffffffffffffffffffffffffffffffffffffffffffffffffffffffffffffffff04831182151516156124fd576124fc61262c565b5b828202905092915050565b600061251382612540565b9050919050565b60008115159050919050565b60006dffffffffffffffffffffffffffff82169050919050565b600073ffffffffffffffffffffffffffffffffffffffff82169050919050565b6000819050919050565b600063ffffffff82169050919050565b60006125858261258c565b9050919050565b600061259782612540565b9050919050565b60006125a982612560565b9050919050565b60005b838110156125ce5780820151818401526020810190506125b3565b838111156125dd576000848401525b50505050565b60006125ee82612560565b91507fffffffffffffffffffffffffffffffffffffffffffffffffffffffffffffffff8214156126215761262061262c565b5b600182019050919050565b7f4e487b7100000000000000000000000000000000000000000000000000000000600052601160045260246000fd5b7f4e487b7100000000000000000000000000000000000000000000000000000000600052601260045260246000fd5b6000601f19601f8301169050919050565b7f4b61696465784d616b65723a206d7573742075736520454f4100000000000000600082015250565b7f4f776e61626c653a206e6577206f776e657220697320746865207a65726f206160008201527f6464726573730000000000000000000000000000000000000000000000000000602082015250565b7f4b61696465784d616b65723a2043616e6e6f7420636f6e766572740000000000600082015250565b7f416464726573733a20696e73756666696369656e742062616c616e636520666f60008201527f722063616c6c0000000000000000000000000000000000000000000000000000602082015250565b7f4b61696465784d616b65723a20496e76616c6964207061697200000000000000600082015250565b7f4f776e61626c653a2063616c6c6572206973206e6f7420746865206f776e6572600082015250565b7f4b61696465784d616b65723a20496e76616c6964206272696467650000000000600082015250565b7f416464726573733a2063616c6c20746f206e6f6e2d636f6e7472616374000000600082015250565b7f5361666545524332303a204552433230206f7065726174696f6e20646964206e60008201527f6f74207375636365656400000000000000000000000000000000000000000000602082015250565b61288781612508565b811461289257600080fd5b50565b61289e8161251a565b81146128a957600080fd5b50565b6128b581612526565b81146128c057600080fd5b50565b6128cc81612560565b81146128d757600080fd5b50565b6128e38161256a565b81146128ee57600080fd5b5056fea26469706673582212207373bf59e0452dd49d723dae271c6ce3879e6b21573a99b504d03ba2f39be8a664736f6c63430008040033",
  "linkReferences": {},
  "deployedLinkReferences": {}
}