{
  "_format": "hh-sol-artifact-1",
  "contractName": "KaidexMaker",
  "sourceName": "contracts/farming/KaidexMaker.sol",
  "abi": [
    {
      "inputs": [
        {
          "internalType": "address",
          "name": "_factory",
          "type": "address"
        },
        {
          "internalType": "address",
          "name": "_bar",
          "type": "address"
        },
        {
          "internalType": "address",
          "name": "_kdx",
          "type": "address"
        },
        {
          "internalType": "address",
          "name": "_wkai",
          "type": "address"
        }
      ],
      "stateMutability": "nonpayable",
      "type": "constructor"
    },
    {
      "anonymous": false,
      "inputs": [
        {
          "indexed": true,
          "internalType": "address",
          "name": "token",
          "type": "address"
        },
        {
          "indexed": true,
          "internalType": "address",
          "name": "bridge",
          "type": "address"
        }
      ],
      "name": "LogBridgeSet",
      "type": "event"
    },
    {
      "anonymous": false,
      "inputs": [
        {
          "indexed": true,
          "internalType": "address",
          "name": "server",
          "type": "address"
        },
        {
          "indexed": true,
          "internalType": "address",
          "name": "token0",
          "type": "address"
        },
        {
          "indexed": true,
          "internalType": "address",
          "name": "token1",
          "type": "address"
        },
        {
          "indexed": false,
          "internalType": "uint256",
          "name": "amount0",
          "type": "uint256"
        },
        {
          "indexed": false,
          "internalType": "uint256",
          "name": "amount1",
          "type": "uint256"
        },
        {
          "indexed": false,
          "internalType": "uint256",
          "name": "amountKDX",
          "type": "uint256"
        }
      ],
      "name": "LogConvert",
      "type": "event"
    },
    {
      "anonymous": false,
      "inputs": [
        {
          "indexed": true,
          "internalType": "address",
          "name": "previousOwner",
          "type": "address"
        },
        {
          "indexed": true,
          "internalType": "address",
          "name": "newOwner",
          "type": "address"
        }
      ],
      "name": "OwnershipTransferred",
      "type": "event"
    },
    {
      "inputs": [],
      "name": "bar",
      "outputs": [
        {
          "internalType": "address",
          "name": "",
          "type": "address"
        }
      ],
      "stateMutability": "view",
      "type": "function"
    },
    {
      "inputs": [
        {
          "internalType": "address",
          "name": "token",
          "type": "address"
        }
      ],
      "name": "bridgeFor",
      "outputs": [
        {
          "internalType": "address",
          "name": "bridge",
          "type": "address"
        }
      ],
      "stateMutability": "view",
      "type": "function"
    },
    {
      "inputs": [
        {
          "internalType": "address",
          "name": "token0",
          "type": "address"
        },
        {
          "internalType": "address",
          "name": "token1",
          "type": "address"
        }
      ],
      "name": "convert",
      "outputs": [],
      "stateMutability": "nonpayable",
      "type": "function"
    },
    {
      "inputs": [
        {
          "internalType": "address[]",
          "name": "token0",
          "type": "address[]"
        },
        {
          "internalType": "address[]",
          "name": "token1",
          "type": "address[]"
        }
      ],
      "name": "convertMultiple",
      "outputs": [],
      "stateMutability": "nonpayable",
      "type": "function"
    },
    {
      "inputs": [],
      "name": "converter",
      "outputs": [
        {
          "internalType": "address",
          "name": "",
          "type": "address"
        }
      ],
      "stateMutability": "view",
      "type": "function"
    },
    {
      "inputs": [
        {
          "internalType": "address",
          "name": "token",
          "type": "address"
        },
        {
          "internalType": "uint256",
          "name": "amount",
          "type": "uint256"
        },
        {
          "internalType": "address payable",
          "name": "to",
          "type": "address"
        }
      ],
      "name": "emergencyWithdraw",
      "outputs": [],
      "stateMutability": "nonpayable",
      "type": "function"
    },
    {
      "inputs": [],
      "name": "factory",
      "outputs": [
        {
          "internalType": "contract IKaiDexFactory",
          "name": "",
          "type": "address"
        }
      ],
      "stateMutability": "view",
      "type": "function"
    },
    {
      "inputs": [],
      "name": "kdx",
      "outputs": [
        {
          "internalType": "address",
          "name": "",
          "type": "address"
        }
      ],
      "stateMutability": "view",
      "type": "function"
    },
    {
      "inputs": [],
      "name": "owner",
      "outputs": [
        {
          "internalType": "address",
          "name": "",
          "type": "address"
        }
      ],
      "stateMutability": "view",
      "type": "function"
    },
    {
      "inputs": [],
      "name": "renounceOwnership",
      "outputs": [],
      "stateMutability": "nonpayable",
      "type": "function"
    },
    {
      "inputs": [
        {
          "internalType": "address",
          "name": "token",
          "type": "address"
        },
        {
          "internalType": "address",
          "name": "bridge",
          "type": "address"
        }
      ],
      "name": "setBridge",
      "outputs": [],
      "stateMutability": "nonpayable",
      "type": "function"
    },
    {
      "inputs": [
        {
          "internalType": "address",
          "name": "_new",
          "type": "address"
        }
      ],
      "name": "setConverter",
      "outputs": [],
      "stateMutability": "nonpayable",
      "type": "function"
    },
    {
      "inputs": [
        {
          "internalType": "address",
          "name": "newOwner",
          "type": "address"
        }
      ],
      "name": "transferOwnership",
      "outputs": [],
      "stateMutability": "nonpayable",
      "type": "function"
    },
    {
      "inputs": [],
      "name": "wkai",
      "outputs": [
        {
          "internalType": "address",
          "name": "",
          "type": "address"
        }
      ],
      "stateMutability": "view",
      "type": "function"
    }
  ],
  "bytecode": "0x6101006040523480156200001257600080fd5b50604051620030c2380380620030c2833981810160405281019062000038919062000262565b620000586200004c6200017f60201b60201c565b6200018760201b60201c565b8373ffffffffffffffffffffffffffffffffffffffff1660808173ffffffffffffffffffffffffffffffffffffffff1660601b815250508273ffffffffffffffffffffffffffffffffffffffff1660a08173ffffffffffffffffffffffffffffffffffffffff1660601b815250508173ffffffffffffffffffffffffffffffffffffffff1660c08173ffffffffffffffffffffffffffffffffffffffff1660601b815250508073ffffffffffffffffffffffffffffffffffffffff1660e08173ffffffffffffffffffffffffffffffffffffffff1660601b8152505033600260006101000a81548173ffffffffffffffffffffffffffffffffffffffff021916908373ffffffffffffffffffffffffffffffffffffffff160217905550505050506200031c565b600033905090565b60008060009054906101000a900473ffffffffffffffffffffffffffffffffffffffff169050816000806101000a81548173ffffffffffffffffffffffffffffffffffffffff021916908373ffffffffffffffffffffffffffffffffffffffff1602179055508173ffffffffffffffffffffffffffffffffffffffff168173ffffffffffffffffffffffffffffffffffffffff167f8be0079c531659141344cd1fd0a4f28419497f9722a3daafe3b4186f6b6457e060405160405180910390a35050565b6000815190506200025c8162000302565b92915050565b600080600080608085870312156200027957600080fd5b600062000289878288016200024b565b94505060206200029c878288016200024b565b9350506040620002af878288016200024b565b9250506060620002c2878288016200024b565b91505092959194509250565b6000620002db82620002e2565b9050919050565b600073ffffffffffffffffffffffffffffffffffffffff82169050919050565b6200030d81620002ce565b81146200031957600080fd5b50565b60805160601c60a05160601c60c05160601c60e05160601c612cb86200040a600039600081816103e9015281816106bf015281816108fc015281816112230152818161127a0152818161149f015281816114f60152818161151f01528181611561015281816115b801526115e101526000818161066801528181610acd0152818161115c015281816111d5015281816112db01528181611354015281816113bd0152818161143601526117f9015260008181610be9015281816111b30152818161133201528181611414015261181b015260008181610aa901528181610c0f015261184c0152612cb86000f3fe608060405234801561001057600080fd5b50600436106100ea5760003560e01c8063b19337a41161008c578063c45a015511610066578063c45a01551461020f578063dae478181461022d578063f2fde38b1461024b578063febb0f7e14610267576100ea565b8063b19337a4146101b9578063bd1b820c146101d5578063bd38837b146101f1576100ea565b8063715018a6116100c8578063715018a6146101455780638da5cb5b1461014f5780639d22ae8c1461016d578063a761a93914610189576100ea565b8063303e6aa4146100ef5780634a8ee9c21461010b578063551512de14610129575b600080fd5b61010960048036038101906101049190612130565b610285565b005b6101136103e7565b60405161012091906124b3565b60405180910390f35b610143600480360381019061013e91906120e1565b61040b565b005b61014d610539565b005b6101576105c1565b60405161016491906124b3565b60405180910390f35b610187600480360381019061018291906120a5565b6105ea565b005b6101a3600480360381019061019e9190612053565b610861565b6040516101b091906124b3565b60405180910390f35b6101d360048036038101906101ce9190612053565b610923565b005b6101ef60048036038101906101ea91906120a5565b6109e3565b005b6101f9610a81565b60405161020691906124b3565b60405180910390f35b610217610aa7565b6040516102249190612520565b60405180910390f35b610235610acb565b60405161024291906124b3565b60405180910390f35b61026560048036038101906102609190612053565b610aef565b005b61026f610be7565b60405161027c91906124b3565b60405180910390f35b600260009054906101000a900473ffffffffffffffffffffffffffffffffffffffff1673ffffffffffffffffffffffffffffffffffffffff163373ffffffffffffffffffffffffffffffffffffffff1614610315576040517f08c379a000000000000000000000000000000000000000000000000000000000815260040161030c90612649565b60405180910390fd5b600084849050905060005b818110156103df576103cc868683818110610364577f4e487b7100000000000000000000000000000000000000000000000000000000600052603260045260246000fd5b90506020020160208101906103799190612053565b8585848181106103b2577f4e487b7100000000000000000000000000000000000000000000000000000000600052603260045260246000fd5b90506020020160208101906103c79190612053565b610c0b565b80806103d79061295d565b915050610320565b505050505050565b7f000000000000000000000000000000000000000000000000000000000000000081565b610413610fbb565b73ffffffffffffffffffffffffffffffffffffffff166104316105c1565b73ffffffffffffffffffffffffffffffffffffffff1614610487576040517f08c379a000000000000000000000000000000000000000000000000000000000815260040161047e90612629565b60405180910390fd5b600073ffffffffffffffffffffffffffffffffffffffff168373ffffffffffffffffffffffffffffffffffffffff161415610508578073ffffffffffffffffffffffffffffffffffffffff166108fc839081150290604051600060405180830381858888f19350505050158015610502573d6000803e3d6000fd5b50610534565b61053381838573ffffffffffffffffffffffffffffffffffffffff16610fc39092919063ffffffff16565b5b505050565b610541610fbb565b73ffffffffffffffffffffffffffffffffffffffff1661055f6105c1565b73ffffffffffffffffffffffffffffffffffffffff16146105b5576040517f08c379a00000000000000000000000000000000000000000000000000000000081526004016105ac90612629565b60405180910390fd5b6105bf6000611049565b565b60008060009054906101000a900473ffffffffffffffffffffffffffffffffffffffff16905090565b6105f2610fbb565b73ffffffffffffffffffffffffffffffffffffffff166106106105c1565b73ffffffffffffffffffffffffffffffffffffffff1614610666576040517f08c379a000000000000000000000000000000000000000000000000000000000815260040161065d90612629565b60405180910390fd5b7f000000000000000000000000000000000000000000000000000000000000000073ffffffffffffffffffffffffffffffffffffffff168273ffffffffffffffffffffffffffffffffffffffff161415801561070e57507f000000000000000000000000000000000000000000000000000000000000000073ffffffffffffffffffffffffffffffffffffffff168273ffffffffffffffffffffffffffffffffffffffff1614155b801561074657508073ffffffffffffffffffffffffffffffffffffffff168273ffffffffffffffffffffffffffffffffffffffff1614155b610785576040517f08c379a000000000000000000000000000000000000000000000000000000000815260040161077c90612669565b60405180910390fd5b80600160008473ffffffffffffffffffffffffffffffffffffffff1673ffffffffffffffffffffffffffffffffffffffff16815260200190815260200160002060006101000a81548173ffffffffffffffffffffffffffffffffffffffff021916908373ffffffffffffffffffffffffffffffffffffffff1602179055508073ffffffffffffffffffffffffffffffffffffffff168273ffffffffffffffffffffffffffffffffffffffff167f2e103aa707acc565f9a1547341914802b2bfe977fd79c595209f248ae4b0061360405160405180910390a35050565b6000600160008373ffffffffffffffffffffffffffffffffffffffff1673ffffffffffffffffffffffffffffffffffffffff16815260200190815260200160002060009054906101000a900473ffffffffffffffffffffffffffffffffffffffff169050600073ffffffffffffffffffffffffffffffffffffffff168173ffffffffffffffffffffffffffffffffffffffff16141561091e577f000000000000000000000000000000000000000000000000000000000000000090505b919050565b61092b610fbb565b73ffffffffffffffffffffffffffffffffffffffff166109496105c1565b73ffffffffffffffffffffffffffffffffffffffff161461099f576040517f08c379a000000000000000000000000000000000000000000000000000000000815260040161099690612629565b60405180910390fd5b80600260006101000a81548173ffffffffffffffffffffffffffffffffffffffff021916908373ffffffffffffffffffffffffffffffffffffffff16021790555050565b600260009054906101000a900473ffffffffffffffffffffffffffffffffffffffff1673ffffffffffffffffffffffffffffffffffffffff163373ffffffffffffffffffffffffffffffffffffffff1614610a73576040517f08c379a0000000000000000000000000000000000000000000000000000000008152600401610a6a90612649565b60405180910390fd5b610a7d8282610c0b565b5050565b600260009054906101000a900473ffffffffffffffffffffffffffffffffffffffff1681565b7f000000000000000000000000000000000000000000000000000000000000000081565b7f000000000000000000000000000000000000000000000000000000000000000081565b610af7610fbb565b73ffffffffffffffffffffffffffffffffffffffff16610b156105c1565b73ffffffffffffffffffffffffffffffffffffffff1614610b6b576040517f08c379a0000000000000000000000000000000000000000000000000000000008152600401610b6290612629565b60405180910390fd5b600073ffffffffffffffffffffffffffffffffffffffff168173ffffffffffffffffffffffffffffffffffffffff161415610bdb576040517f08c379a0000000000000000000000000000000000000000000000000000000008152600401610bd2906125a9565b60405180910390fd5b610be481611049565b50565b7f000000000000000000000000000000000000000000000000000000000000000081565b60007f000000000000000000000000000000000000000000000000000000000000000073ffffffffffffffffffffffffffffffffffffffff1663e6a4390584846040518363ffffffff1660e01b8152600401610c689291906124ce565b60206040518083038186803b158015610c8057600080fd5b505afa158015610c94573d6000803e3d6000fd5b505050506040513d601f19601f82011682018060405250810190610cb8919061207c565b9050600073ffffffffffffffffffffffffffffffffffffffff168173ffffffffffffffffffffffffffffffffffffffff161415610d2a576040517f08c379a0000000000000000000000000000000000000000000000000000000008152600401610d2190612609565b60405180910390fd5b610ddd818273ffffffffffffffffffffffffffffffffffffffff166370a08231306040518263ffffffff1660e01b8152600401610d6791906124b3565b60206040518083038186803b158015610d7f57600080fd5b505afa158015610d93573d6000803e3d6000fd5b505050506040513d601f19601f82011682018060405250810190610db7919061221d565b8373ffffffffffffffffffffffffffffffffffffffff16610fc39092919063ffffffff16565b6000808273ffffffffffffffffffffffffffffffffffffffff166389afcb44306040518263ffffffff1660e01b8152600401610e1991906124b3565b6040805180830381600087803b158015610e3257600080fd5b505af1158015610e46573d6000803e3d6000fd5b505050506040513d601f19601f82011682018060405250810190610e6a9190612246565b915091508273ffffffffffffffffffffffffffffffffffffffff16630dfe16816040518163ffffffff1660e01b815260040160206040518083038186803b158015610eb457600080fd5b505afa158015610ec8573d6000803e3d6000fd5b505050506040513d601f19601f82011682018060405250810190610eec919061207c565b73ffffffffffffffffffffffffffffffffffffffff168573ffffffffffffffffffffffffffffffffffffffff1614610f2957808280925081935050505b8373ffffffffffffffffffffffffffffffffffffffff168573ffffffffffffffffffffffffffffffffffffffff163373ffffffffffffffffffffffffffffffffffffffff167fd06b1d7ed79b664d17472c6f6997b929f1abe463ccccb4e5b6a0038f2f730c158585610f9d8b8b8a8a61110d565b604051610fac93929190612715565b60405180910390a45050505050565b600033905090565b6110448363a9059cbb60e01b8484604051602401610fe29291906124f7565b604051602081830303815290604052907bffffffffffffffffffffffffffffffffffffffffffffffffffffffff19166020820180517bffffffffffffffffffffffffffffffffffffffffffffffffffffffff8381831617835250505050611714565b505050565b60008060009054906101000a900473ffffffffffffffffffffffffffffffffffffffff169050816000806101000a81548173ffffffffffffffffffffffffffffffffffffffff021916908373ffffffffffffffffffffffffffffffffffffffff1602179055508173ffffffffffffffffffffffffffffffffffffffff168173ffffffffffffffffffffffffffffffffffffffff167f8be0079c531659141344cd1fd0a4f28419497f9722a3daafe3b4186f6b6457e060405160405180910390a35050565b60008373ffffffffffffffffffffffffffffffffffffffff168573ffffffffffffffffffffffffffffffffffffffff1614156112d957600061115883856117db90919063ffffffff16565b90507f000000000000000000000000000000000000000000000000000000000000000073ffffffffffffffffffffffffffffffffffffffff168673ffffffffffffffffffffffffffffffffffffffff161415611221576112197f0000000000000000000000000000000000000000000000000000000000000000827f000000000000000000000000000000000000000000000000000000000000000073ffffffffffffffffffffffffffffffffffffffff16610fc39092919063ffffffff16565b8091506112d3565b7f000000000000000000000000000000000000000000000000000000000000000073ffffffffffffffffffffffffffffffffffffffff168673ffffffffffffffffffffffffffffffffffffffff1614156112a65761129f7f0000000000000000000000000000000000000000000000000000000000000000826117f1565b91506112d2565b60006112b187610861565b90506112bf87828430611847565b91506112ce818284600061110d565b9250505b5b5061170c565b7f000000000000000000000000000000000000000000000000000000000000000073ffffffffffffffffffffffffffffffffffffffff168573ffffffffffffffffffffffffffffffffffffffff1614156113bb576113987f0000000000000000000000000000000000000000000000000000000000000000847f000000000000000000000000000000000000000000000000000000000000000073ffffffffffffffffffffffffffffffffffffffff16610fc39092919063ffffffff16565b6113b4836113a686856117f1565b6117db90919063ffffffff16565b905061170b565b7f000000000000000000000000000000000000000000000000000000000000000073ffffffffffffffffffffffffffffffffffffffff168473ffffffffffffffffffffffffffffffffffffffff16141561149d5761147a7f0000000000000000000000000000000000000000000000000000000000000000837f000000000000000000000000000000000000000000000000000000000000000073ffffffffffffffffffffffffffffffffffffffff16610fc39092919063ffffffff16565b6114968261148887866117f1565b6117db90919063ffffffff16565b905061170a565b7f000000000000000000000000000000000000000000000000000000000000000073ffffffffffffffffffffffffffffffffffffffff168573ffffffffffffffffffffffffffffffffffffffff16141561155f576115587f000000000000000000000000000000000000000000000000000000000000000061155385611545887f00000000000000000000000000000000000000000000000000000000000000008830611847565b6117db90919063ffffffff16565b6117f1565b9050611709565b7f000000000000000000000000000000000000000000000000000000000000000073ffffffffffffffffffffffffffffffffffffffff168473ffffffffffffffffffffffffffffffffffffffff1614156116215761161a7f000000000000000000000000000000000000000000000000000000000000000061161584611607897f00000000000000000000000000000000000000000000000000000000000000008930611847565b6117db90919063ffffffff16565b6117f1565b9050611708565b600061162c86610861565b9050600061163986610861565b90508573ffffffffffffffffffffffffffffffffffffffff168273ffffffffffffffffffffffffffffffffffffffff16141561168d5761168682876116808a868a30611847565b8761110d565b9250611705565b8673ffffffffffffffffffffffffffffffffffffffff168173ffffffffffffffffffffffffffffffffffffffff1614156116df576116d88782876116d38a868a30611847565b61110d565b9250611704565b61170182826116f08a868a30611847565b6116fc8a868a30611847565b61110d565b92505b5b50505b5b5b5b5b949350505050565b6000611776826040518060400160405280602081526020017f5361666545524332303a206c6f772d6c6576656c2063616c6c206661696c65648152508573ffffffffffffffffffffffffffffffffffffffff16611d959092919063ffffffff16565b90506000815111156117d6578080602001905181019061179691906121a5565b6117d5576040517f08c379a00000000000000000000000000000000000000000000000000000000081526004016117cc906126a9565b60405180910390fd5b5b505050565b600081836117e9919061278f565b905092915050565b600061183f837f0000000000000000000000000000000000000000000000000000000000000000847f0000000000000000000000000000000000000000000000000000000000000000611847565b905092915050565b6000807f000000000000000000000000000000000000000000000000000000000000000073ffffffffffffffffffffffffffffffffffffffff1663e6a4390587876040518363ffffffff1660e01b81526004016118a59291906124ce565b60206040518083038186803b1580156118bd57600080fd5b505afa1580156118d1573d6000803e3d6000fd5b505050506040513d601f19601f820116820180604052508101906118f5919061207c565b9050600073ffffffffffffffffffffffffffffffffffffffff168173ffffffffffffffffffffffffffffffffffffffff161415611967576040517f08c379a000000000000000000000000000000000000000000000000000000000815260040161195e906125c9565b60405180910390fd5b6000808273ffffffffffffffffffffffffffffffffffffffff16630902f1ac6040518163ffffffff1660e01b815260040160606040518083038186803b1580156119b057600080fd5b505afa1580156119c4573d6000803e3d6000fd5b505050506040513d601f19601f820116820180604052508101906119e891906121ce565b506dffffffffffffffffffffffffffff1691506dffffffffffffffffffffffffffff1691506000611a246103e588611dad90919063ffffffff16565b90508373ffffffffffffffffffffffffffffffffffffffff16630dfe16816040518163ffffffff1660e01b815260040160206040518083038186803b158015611a6c57600080fd5b505afa158015611a80573d6000803e3d6000fd5b505050506040513d601f19601f82011682018060405250810190611aa4919061207c565b73ffffffffffffffffffffffffffffffffffffffff168973ffffffffffffffffffffffffffffffffffffffff161415611c3257611afe81611af06103e886611dad90919063ffffffff16565b6117db90919063ffffffff16565b611b118383611dad90919063ffffffff16565b611b1b91906127e5565b9450611b4884888b73ffffffffffffffffffffffffffffffffffffffff16610fc39092919063ffffffff16565b8373ffffffffffffffffffffffffffffffffffffffff1663022c0d9f60008789600067ffffffffffffffff811115611ba9577f4e487b7100000000000000000000000000000000000000000000000000000000600052604160045260246000fd5b6040519080825280601f01601f191660200182016040528015611bdb5781602001600182028036833780820191505090505b506040518563ffffffff1660e01b8152600401611bfb949392919061253b565b600060405180830381600087803b158015611c1557600080fd5b505af1158015611c29573d6000803e3d6000fd5b50505050611d89565b611c5981611c4b6103e885611dad90919063ffffffff16565b6117db90919063ffffffff16565b611c6c8483611dad90919063ffffffff16565b611c7691906127e5565b9450611ca384888b73ffffffffffffffffffffffffffffffffffffffff16610fc39092919063ffffffff16565b8373ffffffffffffffffffffffffffffffffffffffff1663022c0d9f86600089600067ffffffffffffffff811115611d04577f4e487b7100000000000000000000000000000000000000000000000000000000600052604160045260246000fd5b6040519080825280601f01601f191660200182016040528015611d365781602001600182028036833780820191505090505b506040518563ffffffff1660e01b8152600401611d5694939291906126c9565b600060405180830381600087803b158015611d7057600080fd5b505af1158015611d84573d6000803e3d6000fd5b505050505b50505050949350505050565b6060611da48484600085611dc3565b90509392505050565b60008183611dbb9190612816565b905092915050565b606082471015611e08576040517f08c379a0000000000000000000000000000000000000000000000000000000008152600401611dff906125e9565b60405180910390fd5b611e1185611ed7565b611e50576040517f08c379a0000000000000000000000000000000000000000000000000000000008152600401611e4790612689565b60405180910390fd5b6000808673ffffffffffffffffffffffffffffffffffffffff168587604051611e79919061249c565b60006040518083038185875af1925050503d8060008114611eb6576040519150601f19603f3d011682016040523d82523d6000602084013e611ebb565b606091505b5091509150611ecb828286611efa565b92505050949350505050565b6000808273ffffffffffffffffffffffffffffffffffffffff163b119050919050565b60608315611f0a57829050611f5a565b600083511115611f1d5782518084602001fd5b816040517f08c379a0000000000000000000000000000000000000000000000000000000008152600401611f519190612587565b60405180910390fd5b9392505050565b600081359050611f7081612bf8565b92915050565b600081519050611f8581612bf8565b92915050565b600081359050611f9a81612c0f565b92915050565b60008083601f840112611fb257600080fd5b8235905067ffffffffffffffff811115611fcb57600080fd5b602083019150836020820283011115611fe357600080fd5b9250929050565b600081519050611ff981612c26565b92915050565b60008151905061200e81612c3d565b92915050565b60008135905061202381612c54565b92915050565b60008151905061203881612c54565b92915050565b60008151905061204d81612c6b565b92915050565b60006020828403121561206557600080fd5b600061207384828501611f61565b91505092915050565b60006020828403121561208e57600080fd5b600061209c84828501611f76565b91505092915050565b600080604083850312156120b857600080fd5b60006120c685828601611f61565b92505060206120d785828601611f61565b9150509250929050565b6000806000606084860312156120f657600080fd5b600061210486828701611f61565b935050602061211586828701612014565b925050604061212686828701611f8b565b9150509250925092565b6000806000806040858703121561214657600080fd5b600085013567ffffffffffffffff81111561216057600080fd5b61216c87828801611fa0565b9450945050602085013567ffffffffffffffff81111561218b57600080fd5b61219787828801611fa0565b925092505092959194509250565b6000602082840312156121b757600080fd5b60006121c584828501611fea565b91505092915050565b6000806000606084860312156121e357600080fd5b60006121f186828701611fff565b935050602061220286828701611fff565b92505060406122138682870161203e565b9150509250925092565b60006020828403121561222f57600080fd5b600061223d84828501612029565b91505092915050565b6000806040838503121561225957600080fd5b600061226785828601612029565b925050602061227885828601612029565b9150509250929050565b61228b81612870565b82525050565b600061229c8261274c565b6122a68185612762565b93506122b681856020860161292a565b6122bf81612a04565b840191505092915050565b60006122d58261274c565b6122df8185612773565b93506122ef81856020860161292a565b80840191505092915050565b612304816128f4565b82525050565b61231381612918565b82525050565b600061232482612757565b61232e818561277e565b935061233e81856020860161292a565b61234781612a04565b840191505092915050565b600061235f60268361277e565b915061236a82612a15565b604082019050919050565b6000612382601b8361277e565b915061238d82612a64565b602082019050919050565b60006123a560268361277e565b91506123b082612a8d565b604082019050919050565b60006123c860198361277e565b91506123d382612adc565b602082019050919050565b60006123eb60208361277e565b91506123f682612b05565b602082019050919050565b600061240e601f8361277e565b915061241982612b2e565b602082019050919050565b6000612431601b8361277e565b915061243c82612b57565b602082019050919050565b6000612454601d8361277e565b915061245f82612b80565b602082019050919050565b6000612477602a8361277e565b915061248282612ba9565b604082019050919050565b612496816128da565b82525050565b60006124a882846122ca565b915081905092915050565b60006020820190506124c86000830184612282565b92915050565b60006040820190506124e36000830185612282565b6124f06020830184612282565b9392505050565b600060408201905061250c6000830185612282565b612519602083018461248d565b9392505050565b600060208201905061253560008301846122fb565b92915050565b6000608082019050612550600083018761230a565b61255d602083018661248d565b61256a6040830185612282565b818103606083015261257c8184612291565b905095945050505050565b600060208201905081810360008301526125a18184612319565b905092915050565b600060208201905081810360008301526125c281612352565b9050919050565b600060208201905081810360008301526125e281612375565b9050919050565b6000602082019050818103600083015261260281612398565b9050919050565b60006020820190508181036000830152612622816123bb565b9050919050565b60006020820190508181036000830152612642816123de565b9050919050565b6000602082019050818103600083015261266281612401565b9050919050565b6000602082019050818103600083015261268281612424565b9050919050565b600060208201905081810360008301526126a281612447565b9050919050565b600060208201905081810360008301526126c28161246a565b9050919050565b60006080820190506126de600083018761248d565b6126eb602083018661230a565b6126f86040830185612282565b818103606083015261270a8184612291565b905095945050505050565b600060608201905061272a600083018661248d565b612737602083018561248d565b612744604083018461248d565b949350505050565b600081519050919050565b600081519050919050565b600082825260208201905092915050565b600081905092915050565b600082825260208201905092915050565b600061279a826128da565b91506127a5836128da565b9250827fffffffffffffffffffffffffffffffffffffffffffffffffffffffffffffffff038211156127da576127d96129a6565b5b828201905092915050565b60006127f0826128da565b91506127fb836128da565b92508261280b5761280a6129d5565b5b828204905092915050565b6000612821826128da565b915061282c836128da565b9250817fffffffffffffffffffffffffffffffffffffffffffffffffffffffffffffffff0483118215151615612865576128646129a6565b5b828202905092915050565b600061287b826128ba565b9050919050565b600061288d826128ba565b9050919050565b60008115159050919050565b60006dffffffffffffffffffffffffffff82169050919050565b600073ffffffffffffffffffffffffffffffffffffffff82169050919050565b6000819050919050565b600063ffffffff82169050919050565b60006128ff82612906565b9050919050565b6000612911826128ba565b9050919050565b6000612923826128da565b9050919050565b60005b8381101561294857808201518184015260208101905061292d565b83811115612957576000848401525b50505050565b6000612968826128da565b91507fffffffffffffffffffffffffffffffffffffffffffffffffffffffffffffffff82141561299b5761299a6129a6565b5b600182019050919050565b7f4e487b7100000000000000000000000000000000000000000000000000000000600052601160045260246000fd5b7f4e487b7100000000000000000000000000000000000000000000000000000000600052601260045260246000fd5b6000601f19601f8301169050919050565b7f4f776e61626c653a206e6577206f776e657220697320746865207a65726f206160008201527f6464726573730000000000000000000000000000000000000000000000000000602082015250565b7f4b61696465784d616b65723a2043616e6e6f7420636f6e766572740000000000600082015250565b7f416464726573733a20696e73756666696369656e742062616c616e636520666f60008201527f722063616c6c0000000000000000000000000000000000000000000000000000602082015250565b7f4b61696465784d616b65723a20496e76616c6964207061697200000000000000600082015250565b7f4f776e61626c653a2063616c6c6572206973206e6f7420746865206f776e6572600082015250565b7f4b61696465784d616b65723a206d7573742075736520436f6e76657274657200600082015250565b7f4b61696465784d616b65723a20496e76616c6964206272696467650000000000600082015250565b7f416464726573733a2063616c6c20746f206e6f6e2d636f6e7472616374000000600082015250565b7f5361666545524332303a204552433230206f7065726174696f6e20646964206e60008201527f6f74207375636365656400000000000000000000000000000000000000000000602082015250565b612c0181612870565b8114612c0c57600080fd5b50565b612c1881612882565b8114612c2357600080fd5b50565b612c2f81612894565b8114612c3a57600080fd5b50565b612c46816128a0565b8114612c5157600080fd5b50565b612c5d816128da565b8114612c6857600080fd5b50565b612c74816128e4565b8114612c7f57600080fd5b5056fea26469706673582212201be1d6ae73ac8a1e8a87d68a60b26b0330af394e667c0e0bacfd2a65e319eedf64736f6c63430008040033",
  "linkReferences": {},
  "deployedLinkReferences": {}
}