{
  "_format": "hh-sol-artifact-1",
  "contractName": "ERC721INOWhitelist",
  "sourceName": "contracts/nft-marketplace/INO/whitelist-ino/ERC721INOWhitelist.sol",
  "abi": [
    {
      "inputs": [
        {
          "internalType": "address",
          "name": "_buyToken",
          "type": "address"
        },
        {
          "internalType": "address",
          "name": "_minter",
          "type": "address"
        },
        {
          "internalType": "uint256",
          "name": "_startTime",
          "type": "uint256"
        },
        {
          "internalType": "uint256",
          "name": "_endTime",
          "type": "uint256"
        }
      ],
      "stateMutability": "nonpayable",
      "type": "constructor"
    },
    {
      "anonymous": false,
      "inputs": [
        {
          "indexed": true,
          "internalType": "address",
          "name": "user",
          "type": "address"
        },
        {
          "indexed": false,
          "internalType": "uint8",
          "name": "_ticket",
          "type": "uint8"
        }
      ],
      "name": "Buy",
      "type": "event"
    },
    {
      "anonymous": false,
      "inputs": [
        {
          "indexed": true,
          "internalType": "address",
          "name": "user",
          "type": "address"
        },
        {
          "indexed": false,
          "internalType": "uint256[]",
          "name": "tokenId",
          "type": "uint256[]"
        }
      ],
      "name": "Claim",
      "type": "event"
    },
    {
      "anonymous": false,
      "inputs": [
        {
          "indexed": true,
          "internalType": "address",
          "name": "previousOwner",
          "type": "address"
        },
        {
          "indexed": true,
          "internalType": "address",
          "name": "newOwner",
          "type": "address"
        }
      ],
      "name": "OwnershipTransferred",
      "type": "event"
    },
    {
      "anonymous": false,
      "inputs": [
        {
          "indexed": false,
          "internalType": "address",
          "name": "account",
          "type": "address"
        }
      ],
      "name": "Paused",
      "type": "event"
    },
    {
      "anonymous": false,
      "inputs": [
        {
          "indexed": false,
          "internalType": "address",
          "name": "account",
          "type": "address"
        }
      ],
      "name": "Unpaused",
      "type": "event"
    },
    {
      "inputs": [],
      "name": "NFT_PRICE",
      "outputs": [
        {
          "internalType": "uint256",
          "name": "",
          "type": "uint256"
        }
      ],
      "stateMutability": "view",
      "type": "function"
    },
    {
      "inputs": [
        {
          "internalType": "uint8",
          "name": "_ticket",
          "type": "uint8"
        }
      ],
      "name": "buy",
      "outputs": [],
      "stateMutability": "payable",
      "type": "function"
    },
    {
      "inputs": [],
      "name": "buyToken",
      "outputs": [
        {
          "internalType": "address",
          "name": "",
          "type": "address"
        }
      ],
      "stateMutability": "view",
      "type": "function"
    },
    {
      "inputs": [
        {
          "internalType": "uint256",
          "name": "_ticket",
          "type": "uint256"
        }
      ],
      "name": "claims",
      "outputs": [],
      "stateMutability": "nonpayable",
      "type": "function"
    },
    {
      "inputs": [
        {
          "internalType": "address",
          "name": "token",
          "type": "address"
        },
        {
          "internalType": "address payable",
          "name": "to",
          "type": "address"
        }
      ],
      "name": "emergencyWithdraw",
      "outputs": [],
      "stateMutability": "nonpayable",
      "type": "function"
    },
    {
      "inputs": [],
      "name": "endTime",
      "outputs": [
        {
          "internalType": "uint256",
          "name": "",
          "type": "uint256"
        }
      ],
      "stateMutability": "view",
      "type": "function"
    },
    {
      "inputs": [
        {
          "internalType": "address",
          "name": "_destination",
          "type": "address"
        }
      ],
      "name": "finalWithdraw",
      "outputs": [],
      "stateMutability": "nonpayable",
      "type": "function"
    },
    {
      "inputs": [
        {
          "internalType": "address",
          "name": "userAddr",
          "type": "address"
        }
      ],
      "name": "getMaximumTicketByUser",
      "outputs": [
        {
          "internalType": "uint256",
          "name": "",
          "type": "uint256"
        }
      ],
      "stateMutability": "view",
      "type": "function"
    },
    {
      "inputs": [],
      "name": "getMaximumTicketSales",
      "outputs": [
        {
          "internalType": "uint256",
          "name": "",
          "type": "uint256"
        }
      ],
      "stateMutability": "view",
      "type": "function"
    },
    {
      "inputs": [],
      "name": "minterAdapter",
      "outputs": [
        {
          "internalType": "address",
          "name": "",
          "type": "address"
        }
      ],
      "stateMutability": "view",
      "type": "function"
    },
    {
      "inputs": [],
      "name": "owner",
      "outputs": [
        {
          "internalType": "address",
          "name": "",
          "type": "address"
        }
      ],
      "stateMutability": "view",
      "type": "function"
    },
    {
      "inputs": [],
      "name": "pause",
      "outputs": [],
      "stateMutability": "nonpayable",
      "type": "function"
    },
    {
      "inputs": [],
      "name": "paused",
      "outputs": [
        {
          "internalType": "bool",
          "name": "",
          "type": "bool"
        }
      ],
      "stateMutability": "view",
      "type": "function"
    },
    {
      "inputs": [],
      "name": "renounceOwnership",
      "outputs": [],
      "stateMutability": "nonpayable",
      "type": "function"
    },
    {
      "inputs": [
        {
          "internalType": "uint256",
          "name": "newEndTime",
          "type": "uint256"
        }
      ],
      "name": "setEndTime",
      "outputs": [],
      "stateMutability": "nonpayable",
      "type": "function"
    },
    {
      "inputs": [
        {
          "internalType": "address",
          "name": "_newMinter",
          "type": "address"
        }
      ],
      "name": "setMinter",
      "outputs": [],
      "stateMutability": "nonpayable",
      "type": "function"
    },
    {
      "inputs": [
        {
          "internalType": "uint256",
          "name": "newStartTime",
          "type": "uint256"
        }
      ],
      "name": "setStartTime",
      "outputs": [],
      "stateMutability": "nonpayable",
      "type": "function"
    },
    {
      "inputs": [],
      "name": "startTime",
      "outputs": [
        {
          "internalType": "uint256",
          "name": "",
          "type": "uint256"
        }
      ],
      "stateMutability": "view",
      "type": "function"
    },
    {
      "inputs": [],
      "name": "totalTicket",
      "outputs": [
        {
          "internalType": "uint256",
          "name": "",
          "type": "uint256"
        }
      ],
      "stateMutability": "view",
      "type": "function"
    },
    {
      "inputs": [],
      "name": "totalUsedTicket",
      "outputs": [
        {
          "internalType": "uint256",
          "name": "",
          "type": "uint256"
        }
      ],
      "stateMutability": "view",
      "type": "function"
    },
    {
      "inputs": [],
      "name": "totalUsers",
      "outputs": [
        {
          "internalType": "uint256",
          "name": "",
          "type": "uint256"
        }
      ],
      "stateMutability": "view",
      "type": "function"
    },
    {
      "inputs": [
        {
          "internalType": "address",
          "name": "newOwner",
          "type": "address"
        }
      ],
      "name": "transferOwnership",
      "outputs": [],
      "stateMutability": "nonpayable",
      "type": "function"
    },
    {
      "inputs": [],
      "name": "unpause",
      "outputs": [],
      "stateMutability": "nonpayable",
      "type": "function"
    },
    {
      "inputs": [
        {
          "internalType": "address",
          "name": "",
          "type": "address"
        }
      ],
      "name": "users",
      "outputs": [
        {
          "internalType": "uint8",
          "name": "ticket",
          "type": "uint8"
        },
        {
          "internalType": "uint8",
          "name": "usedTicket",
          "type": "uint8"
        }
      ],
      "stateMutability": "view",
      "type": "function"
    }
  ],
  "bytecode": "0x60806040523480156200001157600080fd5b506040516200180b3803806200180b833981016040819052620000349162000206565b6200003f3362000199565b6000805460ff60a01b191690556001805581811180156200005f57504282115b620000a35760405162461bcd60e51b815260206004820152600f60248201526e151a5b59481a5cc81a5b9d985b1a59608a1b60448201526064015b60405180910390fd5b826001600160a01b03166350e59eb36040518163ffffffff1660e01b815260040160206040518083038186803b158015620000dd57600080fd5b505afa158015620000f2573d6000803e3d6000fd5b505050506040513d601f19601f820116820180604052508101906200011891906200024d565b6200015a5760405162461bcd60e51b81526020600482015260116024820152701b5a5b9d195c881a5cc81a5b9d985b1a59607a1b60448201526064016200009a565b600380546001600160a01b039586166001600160a01b031991821617909155600280549490951693169290921790925560089190915560095562000276565b600080546001600160a01b038381166001600160a01b0319831681178455604051919092169283917f8be0079c531659141344cd1fd0a4f28419497f9722a3daafe3b4186f6b6457e09190a35050565b80516001600160a01b03811681146200020157600080fd5b919050565b600080600080608085870312156200021c578384fd5b6200022785620001e9565b93506200023760208601620001e9565b6040860151606090960151949790965092505050565b6000602082840312156200025f578081fd5b815180151581146200026f578182fd5b9392505050565b61158580620002866000396000f3fe60806040526004361061014b5760003560e01c80638456cb59116100b6578063ac3ff9121161006f578063ac3ff9121461039d578063b8a28336146103bd578063bff1f9e1146103d3578063ccb98ffc146103e9578063f2fde38b14610409578063fca3b5aa1461042957600080fd5b80638456cb59146102c25780638d8e38ec146102d75780638da5cb5b146102ec578063a48217191461030a578063a87430ba1461032a578063a888c2cd1461037d57600080fd5b80636382d9ad116101085780636382d9ad1461020d578063676dd5631461022d5780637018f29314610249578063715018a61461028157806378e9792514610296578063803e647d146102ac57600080fd5b806314107f3c146101505780633197cbb6146101655780633518a88f1461018e5780633e0a322d146101ae5780633f4ba83a146101ce5780635c975abb146101e3575b600080fd5b61016361015e3660046113b5565b610449565b005b34801561017157600080fd5b5061017b60095481565b6040519081526020015b60405180910390f35b34801561019a57600080fd5b5061017b6101a9366004611311565b6107d8565b3480156101ba57600080fd5b506101636101c9366004611385565b61085c565b3480156101da57600080fd5b506101636108b9565b3480156101ef57600080fd5b50600054600160a01b900460ff166040519015158152602001610185565b34801561021957600080fd5b5061016361022836600461132d565b6108cb565b34801561023957600080fd5b5061017b674563918244f4000081565b34801561025557600080fd5b50600254610269906001600160a01b031681565b6040516001600160a01b039091168152602001610185565b34801561028d57600080fd5b50610163610a1b565b3480156102a257600080fd5b5061017b60085481565b3480156102b857600080fd5b5061017b60075481565b3480156102ce57600080fd5b50610163610a2d565b3480156102e357600080fd5b5061017b610a3d565b3480156102f857600080fd5b506000546001600160a01b0316610269565b34801561031657600080fd5b50600354610269906001600160a01b031681565b34801561033657600080fd5b50610363610345366004611311565b60046020526000908152604090205460ff8082169161010090041682565b6040805160ff938416815292909116602083015201610185565b34801561038957600080fd5b50610163610398366004611385565b610abf565b3480156103a957600080fd5b506101636103b8366004611311565b610e17565b3480156103c957600080fd5b5061017b60065481565b3480156103df57600080fd5b5061017b60055481565b3480156103f557600080fd5b50610163610404366004611385565b610e98565b34801561041557600080fd5b50610163610424366004611311565b610f02565b34801561043557600080fd5b50610163610444366004611311565b610f7b565b610451611056565b600260015414156104a95760405162461bcd60e51b815260206004820152601f60248201527f5265656e7472616e637947756172643a207265656e7472616e742063616c6c0060448201526064015b60405180910390fd5b60026001558060ff811661050b5760405162461bcd60e51b815260206004820152602360248201527f74686520616d6f756e74206861766520746f20626967676572207468616e207a60448201526265726f60e81b60648201526084016104a0565b600854421015801561051f57506009544211155b6105615760405162461bcd60e51b8152602060048201526013602482015272109d5e481d1a5b59481a5cc81a5b9d985b1a59606a1b60448201526064016104a0565b61056a336107d8565b3360009081526004602052604090205461058890839060ff1661146b565b60ff16111580156105b0575061059c610a3d565b8160ff166006546105ad9190611453565b11155b6105fc5760405162461bcd60e51b815260206004820152601860248201527f5469636b6574206e756d62657220697320696e76616c6964000000000000000060448201526064016104a0565b6000610613674563918244f4000060ff85166110a3565b6003549091506001600160a01b031661068957803410156106695760405162461bcd60e51b815260206004820152601060248201526f0ecc2d8eaca40dcdee840cadcdeeaced60831b60448201526064016104a0565b80341115610684576106843361067f83346114af565b6110b6565b610715565b6003546040516323b872dd60e01b8152336004820152306024820152604481018390526001600160a01b03909116906323b872dd90606401602060405180830381600087803b1580156106db57600080fd5b505af11580156106ef573d6000803e3d6000fd5b505050506040513d601f19601f820116820180604052508101906107139190611365565b505b3360009081526004602052604090205460ff16610742576005805490600061073c836114e9565b91905055505b336000908152600460205260408120805485929061076490849060ff1661146b565b92506101000a81548160ff021916908360ff1602179055508260ff16600660008282546107919190611453565b909155505060405160ff8416815233907f7c755a1366d3677c32d564a33709398b567d818a6b1da906ea316fd984b3073f906020015b60405180910390a250506001805550565b6002546040516317a9a4f960e11b81526001600160a01b0383811660048301526000921690632f5349f29060240160206040518083038186803b15801561081e57600080fd5b505afa158015610832573d6000803e3d6000fd5b505050506040513d601f19601f82011682018060405250810190610856919061139d565b92915050565b61086461117f565b4281118015610874575060095481105b6108b45760405162461bcd60e51b815260206004820152601160248201527054696d6520697320696e76616c6964212160781b60448201526064016104a0565b600855565b6108c161117f565b6108c96111d9565b565b6108d361117f565b6001600160a01b03821661091b576040516001600160a01b038216904780156108fc02916000818181858888f19350505050158015610916573d6000803e3d6000fd5b505050565b6040516370a0823160e01b81523060048201526001600160a01b0383169063a9059cbb90839083906370a082319060240160206040518083038186803b15801561096457600080fd5b505afa158015610978573d6000803e3d6000fd5b505050506040513d601f19601f8201168201806040525081019061099c919061139d565b6040516001600160e01b031960e085901b1681526001600160a01b03909216600483015260248201526044015b602060405180830381600087803b1580156109e357600080fd5b505af11580156109f7573d6000803e3d6000fd5b505050506040513d601f19601f820116820180604052508101906109169190611365565b610a2361117f565b6108c9600061122e565b610a3561117f565b6108c961127e565b600254604080516316f252d360e21b815290516000926001600160a01b031691635bc94b4c916004808301926020929190829003018186803b158015610a8257600080fd5b505afa158015610a96573d6000803e3d6000fd5b505050506040513d601f19601f82011682018060405250810190610aba919061139d565b905090565b610ac7611056565b60026001541415610b1a5760405162461bcd60e51b815260206004820152601f60248201527f5265656e7472616e637947756172643a207265656e7472616e742063616c6c0060448201526064016104a0565b60026001553360009081526004602052604090205460ff1615801590610b5857503360009081526004602052604090205460ff610100820481169116115b610b955760405162461bcd60e51b815260206004820152600e60248201526d139bdd081a185cc81d1a58dad95d60921b60448201526064016104a0565b600954421015610be05760405162461bcd60e51b8152602060048201526016602482015275151a5b59481a185cc81b9bdd08195b991959081e595d60521b60448201526064016104a0565b33600090815260046020526040812054610c049060ff6101008204811691166114c6565b60ff16905080821115610c15578091505b60008267ffffffffffffffff811115610c3e57634e487b7160e01b600052604160045260246000fd5b604051908082528060200260200182016040528015610c67578160200160208202803683370190505b5090508215610dde5760005b83811015610ddc576002546000906001600160a01b0316636a627842336040516001600160e01b031960e084901b1681526001600160a01b039091166004820152602401602060405180830381600087803b158015610cd157600080fd5b505af1158015610ce5573d6000803e3d6000fd5b505050506040513d601f19601f82011682018060405250810190610d09919061139d565b905060008111610d495760405162461bcd60e51b815260206004820152600b60248201526a1b5a5b9d0819985b1a595960aa1b60448201526064016104a0565b3360009081526004602052604090208054610100900460ff16906001610d6e83611504565b91906101000a81548160ff021916908360ff1602179055505060076000815480929190610d9a906114e9565b919050555080838381518110610dc057634e487b7160e01b600052603260045260246000fd5b602090810291909101015250610dd5816114e9565b9050610c73565b505b336001600160a01b03167f62e5026cd9fe3da2857a32843590ee91bb903ce20cfd623f97b7f1ba9f2cb6d8826040516107c7919061140f565b610e1f61117f565b6000610e3e600654674563918244f400006110a390919063ffffffff16565b6003549091506001600160a01b0316610e5f57610e5b82826110b6565b5050565b60035460405163a9059cbb60e01b81526001600160a01b038481166004830152602482018490529091169063a9059cbb906044016109c9565b610ea061117f565b4281118015610eb0575060085481115b8015610ebd575042600954115b610efd5760405162461bcd60e51b815260206004820152601160248201527054696d6520697320696e76616c6964212160781b60448201526064016104a0565b600955565b610f0a61117f565b6001600160a01b038116610f6f5760405162461bcd60e51b815260206004820152602660248201527f4f776e61626c653a206e6577206f776e657220697320746865207a65726f206160448201526564647265737360d01b60648201526084016104a0565b610f788161122e565b50565b610f8361117f565b806001600160a01b03166350e59eb36040518163ffffffff1660e01b815260040160206040518083038186803b158015610fbc57600080fd5b505afa158015610fd0573d6000803e3d6000fd5b505050506040513d601f19601f82011682018060405250810190610ff49190611365565b6110345760405162461bcd60e51b81526020600482015260116024820152701b5a5b9d195c881a5cc81a5b9d985b1a59607a1b60448201526064016104a0565b600280546001600160a01b0319166001600160a01b0392909216919091179055565b600054600160a01b900460ff16156108c95760405162461bcd60e51b815260206004820152601060248201526f14185d5cd8589b194e881c185d5cd95960821b60448201526064016104a0565b60006110af8284611490565b9392505050565b604080516000808252602082019092526001600160a01b0384169083906040516110e091906113d6565b60006040518083038185875af1925050503d806000811461111d576040519150601f19603f3d011682016040523d82523d6000602084013e611122565b606091505b50509050806109165760405162461bcd60e51b815260206004820152602360248201527f5472616e7366657248656c7065723a204b41495f5452414e534645525f46414960448201526213115160ea1b60648201526084016104a0565b6000546001600160a01b031633146108c95760405162461bcd60e51b815260206004820181905260248201527f4f776e61626c653a2063616c6c6572206973206e6f7420746865206f776e657260448201526064016104a0565b6111e16112c1565b6000805460ff60a01b191690557f5db9ee0a495bf2e6ff9c91a7834c1ba4fdd244a5e8aa4e537bd38aeae4b073aa335b6040516001600160a01b03909116815260200160405180910390a1565b600080546001600160a01b038381166001600160a01b0319831681178455604051919092169283917f8be0079c531659141344cd1fd0a4f28419497f9722a3daafe3b4186f6b6457e09190a35050565b611286611056565b6000805460ff60a01b1916600160a01b1790557f62e78cea01bee320cd4e420270b5ea74000d11b0c9f74754ebdbfc544b05a2586112113390565b600054600160a01b900460ff166108c95760405162461bcd60e51b815260206004820152601460248201527314185d5cd8589b194e881b9bdd081c185d5cd95960621b60448201526064016104a0565b600060208284031215611322578081fd5b81356110af8161153a565b6000806040838503121561133f578081fd5b823561134a8161153a565b9150602083013561135a8161153a565b809150509250929050565b600060208284031215611376578081fd5b815180151581146110af578182fd5b600060208284031215611396578081fd5b5035919050565b6000602082840312156113ae578081fd5b5051919050565b6000602082840312156113c6578081fd5b813560ff811681146110af578182fd5b60008251815b818110156113f657602081860181015185830152016113dc565b818111156114045782828501525b509190910192915050565b6020808252825182820181905260009190848201906040850190845b818110156114475783518352928401929184019160010161142b565b50909695505050505050565b6000821982111561146657611466611524565b500190565b600060ff821660ff84168060ff0382111561148857611488611524565b019392505050565b60008160001904831182151516156114aa576114aa611524565b500290565b6000828210156114c1576114c1611524565b500390565b600060ff821660ff8416808210156114e0576114e0611524565b90039392505050565b60006000198214156114fd576114fd611524565b5060010190565b600060ff821660ff81141561151b5761151b611524565b60010192915050565b634e487b7160e01b600052601160045260246000fd5b6001600160a01b0381168114610f7857600080fdfea264697066735822122038b2c0c520e3f19673d579ded79d20ea88b023c52b222b5c058595aecf52f03864736f6c63430008040033",
  "linkReferences": {},
  "deployedLinkReferences": {}
}