{
  "_format": "hh-sol-artifact-1",
  "contractName": "Whitelist",
  "sourceName": "contracts/launchpad/whitelist/Whitelist.sol",
  "abi": [
    {
      "inputs": [
        {
          "internalType": "uint256",
          "name": "_maximumAddr",
          "type": "uint256"
        }
      ],
      "stateMutability": "nonpayable",
      "type": "constructor"
    },
    {
      "anonymous": false,
      "inputs": [
        {
          "indexed": true,
          "internalType": "address",
          "name": "previousOwner",
          "type": "address"
        },
        {
          "indexed": true,
          "internalType": "address",
          "name": "newOwner",
          "type": "address"
        }
      ],
      "name": "OwnershipTransferred",
      "type": "event"
    },
    {
      "anonymous": false,
      "inputs": [
        {
          "indexed": false,
          "internalType": "address",
          "name": "addr",
          "type": "address"
        }
      ],
      "name": "WhitelistedAddressAdded",
      "type": "event"
    },
    {
      "anonymous": false,
      "inputs": [
        {
          "indexed": false,
          "internalType": "address",
          "name": "addr",
          "type": "address"
        }
      ],
      "name": "WhitelistedAddressRemoved",
      "type": "event"
    },
    {
      "inputs": [
        {
          "internalType": "address",
          "name": "addr",
          "type": "address"
        }
      ],
      "name": "addAddressToWhitelist",
      "outputs": [
        {
          "internalType": "bool",
          "name": "success",
          "type": "bool"
        }
      ],
      "stateMutability": "nonpayable",
      "type": "function"
    },
    {
      "inputs": [
        {
          "internalType": "address[]",
          "name": "addrs",
          "type": "address[]"
        }
      ],
      "name": "addAddressesToWhitelist",
      "outputs": [
        {
          "internalType": "bool",
          "name": "success",
          "type": "bool"
        }
      ],
      "stateMutability": "nonpayable",
      "type": "function"
    },
    {
      "inputs": [],
      "name": "maximumAddrWhitelist",
      "outputs": [
        {
          "internalType": "uint256",
          "name": "",
          "type": "uint256"
        }
      ],
      "stateMutability": "view",
      "type": "function"
    },
    {
      "inputs": [],
      "name": "owner",
      "outputs": [
        {
          "internalType": "address",
          "name": "",
          "type": "address"
        }
      ],
      "stateMutability": "view",
      "type": "function"
    },
    {
      "inputs": [
        {
          "internalType": "address",
          "name": "addr",
          "type": "address"
        }
      ],
      "name": "removeAddressFromWhitelist",
      "outputs": [
        {
          "internalType": "bool",
          "name": "success",
          "type": "bool"
        }
      ],
      "stateMutability": "nonpayable",
      "type": "function"
    },
    {
      "inputs": [
        {
          "internalType": "address[]",
          "name": "addrs",
          "type": "address[]"
        }
      ],
      "name": "removeAddressesFromWhitelist",
      "outputs": [
        {
          "internalType": "bool",
          "name": "success",
          "type": "bool"
        }
      ],
      "stateMutability": "nonpayable",
      "type": "function"
    },
    {
      "inputs": [],
      "name": "renounceOwnership",
      "outputs": [],
      "stateMutability": "nonpayable",
      "type": "function"
    },
    {
      "inputs": [],
      "name": "totalAddress",
      "outputs": [
        {
          "internalType": "uint256",
          "name": "",
          "type": "uint256"
        }
      ],
      "stateMutability": "view",
      "type": "function"
    },
    {
      "inputs": [
        {
          "internalType": "address",
          "name": "newOwner",
          "type": "address"
        }
      ],
      "name": "transferOwnership",
      "outputs": [],
      "stateMutability": "nonpayable",
      "type": "function"
    },
    {
      "inputs": [
        {
          "internalType": "address",
          "name": "",
          "type": "address"
        }
      ],
      "name": "whitelist",
      "outputs": [
        {
          "internalType": "bool",
          "name": "",
          "type": "bool"
        }
      ],
      "stateMutability": "view",
      "type": "function"
    }
  ],
  "bytecode": "0x608060405234801561001057600080fd5b5060405162001085380380620010858339818101604052810190610034919061013e565b61005061004561005d60201b60201c565b61006560201b60201c565b8060038190555050610188565b600033905090565b60008060009054906101000a900473ffffffffffffffffffffffffffffffffffffffff169050816000806101000a81548173ffffffffffffffffffffffffffffffffffffffff021916908373ffffffffffffffffffffffffffffffffffffffff1602179055508173ffffffffffffffffffffffffffffffffffffffff168173ffffffffffffffffffffffffffffffffffffffff167f8be0079c531659141344cd1fd0a4f28419497f9722a3daafe3b4186f6b6457e060405160405180910390a35050565b60008151905061013881610171565b92915050565b60006020828403121561015057600080fd5b600061015e84828501610129565b91505092915050565b6000819050919050565b61017a81610167565b811461018557600080fd5b50565b610eed80620001986000396000f3fe608060405234801561001057600080fd5b506004361061009e5760003560e01c80637e45e942116100665780637e45e9421461015b5780638da5cb5b146101795780639b19251a14610197578063e2ec6ec3146101c7578063f2fde38b146101f75761009e565b806324953eaa146100a3578063286dd3f5146100d35780633d2b494b14610103578063715018a6146101215780637b9417c81461012b575b600080fd5b6100bd60048036038101906100b89190610aba565b610213565b6040516100ca9190610bac565b60405180910390f35b6100ed60048036038101906100e89190610a91565b610309565b6040516100fa9190610bac565b60405180910390f35b61010b61048a565b6040516101189190610c27565b60405180910390f35b610129610490565b005b61014560048036038101906101409190610a91565b610518565b6040516101529190610bac565b60405180910390f35b6101636106dd565b6040516101709190610c27565b60405180910390f35b6101816106e3565b60405161018e9190610b91565b60405180910390f35b6101b160048036038101906101ac9190610a91565b61070c565b6040516101be9190610bac565b60405180910390f35b6101e160048036038101906101dc9190610aba565b61072c565b6040516101ee9190610bac565b60405180910390f35b610211600480360381019061020c9190610a91565b610822565b005b600061021d61091a565b73ffffffffffffffffffffffffffffffffffffffff1661023b6106e3565b73ffffffffffffffffffffffffffffffffffffffff1614610291576040517f08c379a000000000000000000000000000000000000000000000000000000000815260040161028890610be7565b60405180910390fd5b60005b8251811015610303576102e68382815181106102d9577f4e487b7100000000000000000000000000000000000000000000000000000000600052603260045260246000fd5b6020026020010151610309565b156102f057600191505b80806102fb90610d47565b915050610294565b50919050565b600061031361091a565b73ffffffffffffffffffffffffffffffffffffffff166103316106e3565b73ffffffffffffffffffffffffffffffffffffffff1614610387576040517f08c379a000000000000000000000000000000000000000000000000000000000815260040161037e90610be7565b60405180910390fd5b600160008373ffffffffffffffffffffffffffffffffffffffff1673ffffffffffffffffffffffffffffffffffffffff16815260200190815260200160002060009054906101000a900460ff1615610485576000600160008473ffffffffffffffffffffffffffffffffffffffff1673ffffffffffffffffffffffffffffffffffffffff16815260200190815260200160002060006101000a81548160ff0219169083151502179055507ff1abf01a1043b7c244d128e8595cf0c1d10743b022b03a02dffd8ca3bf729f5a826040516104609190610b91565b60405180910390a1600190506002600081548092919061047f90610cec565b91905055505b919050565b60035481565b61049861091a565b73ffffffffffffffffffffffffffffffffffffffff166104b66106e3565b73ffffffffffffffffffffffffffffffffffffffff161461050c576040517f08c379a000000000000000000000000000000000000000000000000000000000815260040161050390610be7565b60405180910390fd5b6105166000610922565b565b600061052261091a565b73ffffffffffffffffffffffffffffffffffffffff166105406106e3565b73ffffffffffffffffffffffffffffffffffffffff1614610596576040517f08c379a000000000000000000000000000000000000000000000000000000000815260040161058d90610be7565b60405180910390fd5b600254600354116105dc576040517f08c379a00000000000000000000000000000000000000000000000000000000081526004016105d390610c07565b60405180910390fd5b600160008373ffffffffffffffffffffffffffffffffffffffff1673ffffffffffffffffffffffffffffffffffffffff16815260200190815260200160002060009054906101000a900460ff166106d85760018060008473ffffffffffffffffffffffffffffffffffffffff1673ffffffffffffffffffffffffffffffffffffffff16815260200190815260200160002060006101000a81548160ff0219169083151502179055507fd1bba68c128cc3f427e5831b3c6f99f480b6efa6b9e80c757768f6124158cc3f826040516106b39190610b91565b60405180910390a160019050600260008154809291906106d290610d47565b91905055505b919050565b60025481565b60008060009054906101000a900473ffffffffffffffffffffffffffffffffffffffff16905090565b60016020528060005260406000206000915054906101000a900460ff1681565b600061073661091a565b73ffffffffffffffffffffffffffffffffffffffff166107546106e3565b73ffffffffffffffffffffffffffffffffffffffff16146107aa576040517f08c379a00000000000000000000000000000000000000000000000000000000081526004016107a190610be7565b60405180910390fd5b60005b825181101561081c576107ff8382815181106107f2577f4e487b7100000000000000000000000000000000000000000000000000000000600052603260045260246000fd5b6020026020010151610518565b1561080957600191505b808061081490610d47565b9150506107ad565b50919050565b61082a61091a565b73ffffffffffffffffffffffffffffffffffffffff166108486106e3565b73ffffffffffffffffffffffffffffffffffffffff161461089e576040517f08c379a000000000000000000000000000000000000000000000000000000000815260040161089590610be7565b60405180910390fd5b600073ffffffffffffffffffffffffffffffffffffffff168173ffffffffffffffffffffffffffffffffffffffff16141561090e576040517f08c379a000000000000000000000000000000000000000000000000000000000815260040161090590610bc7565b60405180910390fd5b61091781610922565b50565b600033905090565b60008060009054906101000a900473ffffffffffffffffffffffffffffffffffffffff169050816000806101000a81548173ffffffffffffffffffffffffffffffffffffffff021916908373ffffffffffffffffffffffffffffffffffffffff1602179055508173ffffffffffffffffffffffffffffffffffffffff168173ffffffffffffffffffffffffffffffffffffffff167f8be0079c531659141344cd1fd0a4f28419497f9722a3daafe3b4186f6b6457e060405160405180910390a35050565b60006109f96109f484610c67565b610c42565b90508083825260208201905082856020860282011115610a1857600080fd5b60005b85811015610a485781610a2e8882610a52565b845260208401935060208301925050600181019050610a1b565b5050509392505050565b600081359050610a6181610ea0565b92915050565b600082601f830112610a7857600080fd5b8135610a888482602086016109e6565b91505092915050565b600060208284031215610aa357600080fd5b6000610ab184828501610a52565b91505092915050565b600060208284031215610acc57600080fd5b600082013567ffffffffffffffff811115610ae657600080fd5b610af284828501610a67565b91505092915050565b610b0481610ca4565b82525050565b610b1381610cb6565b82525050565b6000610b26602683610c93565b9150610b3182610dff565b604082019050919050565b6000610b49602083610c93565b9150610b5482610e4e565b602082019050919050565b6000610b6c600483610c93565b9150610b7782610e77565b602082019050919050565b610b8b81610ce2565b82525050565b6000602082019050610ba66000830184610afb565b92915050565b6000602082019050610bc16000830184610b0a565b92915050565b60006020820190508181036000830152610be081610b19565b9050919050565b60006020820190508181036000830152610c0081610b3c565b9050919050565b60006020820190508181036000830152610c2081610b5f565b9050919050565b6000602082019050610c3c6000830184610b82565b92915050565b6000610c4c610c5d565b9050610c588282610d16565b919050565b6000604051905090565b600067ffffffffffffffff821115610c8257610c81610dbf565b5b602082029050602081019050919050565b600082825260208201905092915050565b6000610caf82610cc2565b9050919050565b60008115159050919050565b600073ffffffffffffffffffffffffffffffffffffffff82169050919050565b6000819050919050565b6000610cf782610ce2565b91506000821415610d0b57610d0a610d90565b5b600182039050919050565b610d1f82610dee565b810181811067ffffffffffffffff82111715610d3e57610d3d610dbf565b5b80604052505050565b6000610d5282610ce2565b91507fffffffffffffffffffffffffffffffffffffffffffffffffffffffffffffffff821415610d8557610d84610d90565b5b600182019050919050565b7f4e487b7100000000000000000000000000000000000000000000000000000000600052601160045260246000fd5b7f4e487b7100000000000000000000000000000000000000000000000000000000600052604160045260246000fd5b6000601f19601f8301169050919050565b7f4f776e61626c653a206e6577206f776e657220697320746865207a65726f206160008201527f6464726573730000000000000000000000000000000000000000000000000000602082015250565b7f4f776e61626c653a2063616c6c6572206973206e6f7420746865206f776e6572600082015250565b7f66756c6c00000000000000000000000000000000000000000000000000000000600082015250565b610ea981610ca4565b8114610eb457600080fd5b5056fea2646970667358221220917269480cf58eff9f25d013761c09b73800756afd4340f3a4c11ace7f93224664736f6c63430008040033",
  "linkReferences": {},
  "deployedLinkReferences": {}
}