{
  "_format": "hh-sol-artifact-1",
  "contractName": "Whitelist",
  "sourceName": "contracts/launchpad/whitelist/Whitelist.sol",
  "abi": [
    {
      "anonymous": false,
      "inputs": [
        {
          "indexed": true,
          "internalType": "address",
          "name": "previousOwner",
          "type": "address"
        },
        {
          "indexed": true,
          "internalType": "address",
          "name": "newOwner",
          "type": "address"
        }
      ],
      "name": "OwnershipTransferred",
      "type": "event"
    },
    {
      "anonymous": false,
      "inputs": [
        {
          "indexed": false,
          "internalType": "address",
          "name": "addr",
          "type": "address"
        }
      ],
      "name": "WhitelistedAddressAdded",
      "type": "event"
    },
    {
      "anonymous": false,
      "inputs": [
        {
          "indexed": false,
          "internalType": "address",
          "name": "addr",
          "type": "address"
        }
      ],
      "name": "WhitelistedAddressRemoved",
      "type": "event"
    },
    {
      "inputs": [
        {
          "internalType": "address",
          "name": "addr",
          "type": "address"
        }
      ],
      "name": "addAddressToWhitelist",
      "outputs": [
        {
          "internalType": "bool",
          "name": "success",
          "type": "bool"
        }
      ],
      "stateMutability": "nonpayable",
      "type": "function"
    },
    {
      "inputs": [
        {
          "internalType": "address[]",
          "name": "addrs",
          "type": "address[]"
        }
      ],
      "name": "addAddressesToWhitelist",
      "outputs": [
        {
          "internalType": "bool",
          "name": "success",
          "type": "bool"
        }
      ],
      "stateMutability": "nonpayable",
      "type": "function"
    },
    {
      "inputs": [],
      "name": "owner",
      "outputs": [
        {
          "internalType": "address",
          "name": "",
          "type": "address"
        }
      ],
      "stateMutability": "view",
      "type": "function"
    },
    {
      "inputs": [
        {
          "internalType": "address",
          "name": "addr",
          "type": "address"
        }
      ],
      "name": "removeAddressFromWhitelist",
      "outputs": [
        {
          "internalType": "bool",
          "name": "success",
          "type": "bool"
        }
      ],
      "stateMutability": "nonpayable",
      "type": "function"
    },
    {
      "inputs": [
        {
          "internalType": "address[]",
          "name": "addrs",
          "type": "address[]"
        }
      ],
      "name": "removeAddressesFromWhitelist",
      "outputs": [
        {
          "internalType": "bool",
          "name": "success",
          "type": "bool"
        }
      ],
      "stateMutability": "nonpayable",
      "type": "function"
    },
    {
      "inputs": [],
      "name": "renounceOwnership",
      "outputs": [],
      "stateMutability": "nonpayable",
      "type": "function"
    },
    {
      "inputs": [],
      "name": "totalAddress",
      "outputs": [
        {
          "internalType": "uint256",
          "name": "",
          "type": "uint256"
        }
      ],
      "stateMutability": "view",
      "type": "function"
    },
    {
      "inputs": [
        {
          "internalType": "address",
          "name": "newOwner",
          "type": "address"
        }
      ],
      "name": "transferOwnership",
      "outputs": [],
      "stateMutability": "nonpayable",
      "type": "function"
    },
    {
      "inputs": [
        {
          "internalType": "address",
          "name": "",
          "type": "address"
        }
      ],
      "name": "whitelist",
      "outputs": [
        {
          "internalType": "bool",
          "name": "",
          "type": "bool"
        }
      ],
      "stateMutability": "view",
      "type": "function"
    }
  ],
  "bytecode": "0x608060405234801561001057600080fd5b5061001a3361001f565b61006f565b600080546001600160a01b038381166001600160a01b0319831681178455604051919092169283917f8be0079c531659141344cd1fd0a4f28419497f9722a3daafe3b4186f6b6457e09190a35050565b6106368061007e6000396000f3fe608060405234801561001057600080fd5b50600436106100935760003560e01c80637e45e942116100665780637e45e942146100f05780638da5cb5b146101075780639b19251a14610122578063e2ec6ec314610145578063f2fde38b1461015857600080fd5b806324953eaa14610098578063286dd3f5146100c0578063715018a6146100d35780637b9417c8146100dd575b600080fd5b6100ab6100a63660046104db565b61016b565b60405190151581526020015b60405180910390f35b6100ab6100ce3660046104ba565b6101d3565b6100db610270565b005b6100ab6100eb3660046104ba565b610284565b6100f960025481565b6040519081526020016100b7565b6000546040516001600160a01b0390911681526020016100b7565b6100ab6101303660046104ba565b60016020526000908152604090205460ff1681565b6100ab6101533660046104db565b610319565b6100db6101663660046104ba565b61037b565b60006101756103f9565b60005b82518110156101cd576101b18382815181106101a457634e487b7160e01b600052603260045260246000fd5b60200260200101516101d3565b156101bb57600191505b806101c5816105b9565b915050610178565b50919050565b60006101dd6103f9565b6001600160a01b03821660009081526001602052604090205460ff161561026b576001600160a01b038216600081815260016020908152604091829020805460ff1916905590519182527ff1abf01a1043b7c244d128e8595cf0c1d10743b022b03a02dffd8ca3bf729f5a910160405180910390a150600280546001916000610265836105a2565b91905055505b919050565b6102786103f9565b6102826000610453565b565b600061028e6103f9565b6001600160a01b03821660009081526001602052604090205460ff1661026b576001600160a01b038216600081815260016020818152604092839020805460ff191690921790915590519182527fd1bba68c128cc3f427e5831b3c6f99f480b6efa6b9e80c757768f6124158cc3f910160405180910390a150600280546001916000610265836105b9565b60006103236103f9565b60005b82518110156101cd5761035f83828151811061035257634e487b7160e01b600052603260045260246000fd5b6020026020010151610284565b1561036957600191505b80610373816105b9565b915050610326565b6103836103f9565b6001600160a01b0381166103ed5760405162461bcd60e51b815260206004820152602660248201527f4f776e61626c653a206e6577206f776e657220697320746865207a65726f206160448201526564647265737360d01b60648201526084015b60405180910390fd5b6103f681610453565b50565b6000546001600160a01b031633146102825760405162461bcd60e51b815260206004820181905260248201527f4f776e61626c653a2063616c6c6572206973206e6f7420746865206f776e657260448201526064016103e4565b600080546001600160a01b038381166001600160a01b0319831681178455604051919092169283917f8be0079c531659141344cd1fd0a4f28419497f9722a3daafe3b4186f6b6457e09190a35050565b80356001600160a01b038116811461026b57600080fd5b6000602082840312156104cb578081fd5b6104d4826104a3565b9392505050565b600060208083850312156104ed578182fd5b823567ffffffffffffffff80821115610504578384fd5b818501915085601f830112610517578384fd5b813581811115610529576105296105ea565b8060051b604051601f19603f8301168101818110858211171561054e5761054e6105ea565b604052828152858101935084860182860187018a101561056c578788fd5b8795505b8386101561059557610581816104a3565b855260019590950194938601938601610570565b5098975050505050505050565b6000816105b1576105b16105d4565b506000190190565b60006000198214156105cd576105cd6105d4565b5060010190565b634e487b7160e01b600052601160045260246000fd5b634e487b7160e01b600052604160045260246000fdfea264697066735822122016998b5f7243dc263fe4e24fde219917ae2ae406d589570c77dd43f8d15a186c64736f6c63430008040033",
  "linkReferences": {},
  "deployedLinkReferences": {}
}