{
  "_format": "hh-sol-artifact-1",
  "contractName": "Whitelist",
  "sourceName": "contracts/launchpad/whitelist/Whitelist.sol",
  "abi": [
    {
      "anonymous": false,
      "inputs": [
        {
          "indexed": true,
          "internalType": "address",
          "name": "previousOwner",
          "type": "address"
        },
        {
          "indexed": true,
          "internalType": "address",
          "name": "newOwner",
          "type": "address"
        }
      ],
      "name": "OwnershipTransferred",
      "type": "event"
    },
    {
      "anonymous": false,
      "inputs": [
        {
          "indexed": false,
          "internalType": "address",
          "name": "addr",
          "type": "address"
        }
      ],
      "name": "WhitelistedAddressAdded",
      "type": "event"
    },
    {
      "anonymous": false,
      "inputs": [
        {
          "indexed": false,
          "internalType": "address",
          "name": "addr",
          "type": "address"
        }
      ],
      "name": "WhitelistedAddressRemoved",
      "type": "event"
    },
    {
      "inputs": [
        {
          "internalType": "address",
          "name": "addr",
          "type": "address"
        }
      ],
      "name": "addAddressToWhitelist",
      "outputs": [
        {
          "internalType": "bool",
          "name": "success",
          "type": "bool"
        }
      ],
      "stateMutability": "nonpayable",
      "type": "function"
    },
    {
      "inputs": [
        {
          "internalType": "address[]",
          "name": "addrs",
          "type": "address[]"
        }
      ],
      "name": "addAddressesToWhitelist",
      "outputs": [
        {
          "internalType": "bool",
          "name": "success",
          "type": "bool"
        }
      ],
      "stateMutability": "nonpayable",
      "type": "function"
    },
    {
      "inputs": [],
      "name": "owner",
      "outputs": [
        {
          "internalType": "address",
          "name": "",
          "type": "address"
        }
      ],
      "stateMutability": "view",
      "type": "function"
    },
    {
      "inputs": [
        {
          "internalType": "address",
          "name": "addr",
          "type": "address"
        }
      ],
      "name": "removeAddressFromWhitelist",
      "outputs": [
        {
          "internalType": "bool",
          "name": "success",
          "type": "bool"
        }
      ],
      "stateMutability": "nonpayable",
      "type": "function"
    },
    {
      "inputs": [
        {
          "internalType": "address[]",
          "name": "addrs",
          "type": "address[]"
        }
      ],
      "name": "removeAddressesFromWhitelist",
      "outputs": [
        {
          "internalType": "bool",
          "name": "success",
          "type": "bool"
        }
      ],
      "stateMutability": "nonpayable",
      "type": "function"
    },
    {
      "inputs": [],
      "name": "renounceOwnership",
      "outputs": [],
      "stateMutability": "nonpayable",
      "type": "function"
    },
    {
      "inputs": [],
      "name": "totalAddress",
      "outputs": [
        {
          "internalType": "uint256",
          "name": "",
          "type": "uint256"
        }
      ],
      "stateMutability": "view",
      "type": "function"
    },
    {
      "inputs": [
        {
          "internalType": "address",
          "name": "newOwner",
          "type": "address"
        }
      ],
      "name": "transferOwnership",
      "outputs": [],
      "stateMutability": "nonpayable",
      "type": "function"
    },
    {
      "inputs": [
        {
          "internalType": "address",
          "name": "",
          "type": "address"
        }
      ],
      "name": "whitelist",
      "outputs": [
        {
          "internalType": "bool",
          "name": "",
          "type": "bool"
        }
      ],
      "stateMutability": "view",
      "type": "function"
    }
  ],
  "bytecode": "0x608060405234801561001057600080fd5b5061001a3361001f565b61006f565b600080546001600160a01b038381166001600160a01b0319831681178455604051919092169283917f8be0079c531659141344cd1fd0a4f28419497f9722a3daafe3b4186f6b6457e09190a35050565b6106dd8061007e6000396000f3fe608060405234801561001057600080fd5b50600436106100935760003560e01c80637e45e942116100665780637e45e942146100f05780638da5cb5b146101075780639b19251a14610122578063e2ec6ec314610145578063f2fde38b1461015857600080fd5b806324953eaa14610098578063286dd3f5146100c0578063715018a6146100d35780637b9417c8146100dd575b600080fd5b6100ab6100a636600461054d565b61016b565b60405190151581526020015b60405180910390f35b6100ab6100ce36600461052c565b6101fd565b6100db6102bb565b005b6100ab6100eb36600461052c565b6102f1565b6100f960025481565b6040519081526020016100b7565b6000546040516001600160a01b0390911681526020016100b7565b6100ab61013036600461052c565b60016020526000908152604090205460ff1681565b6100ab61015336600461054d565b6103a7565b6100db61016636600461052c565b61042a565b600080546001600160a01b0316331461019f5760405162461bcd60e51b815260040161019690610614565b60405180910390fd5b60005b82518110156101f7576101db8382815181106101ce57634e487b7160e01b600052603260045260246000fd5b60200260200101516101fd565b156101e557600191505b806101ef81610660565b9150506101a2565b50919050565b600080546001600160a01b031633146102285760405162461bcd60e51b815260040161019690610614565b6001600160a01b03821660009081526001602052604090205460ff16156102b6576001600160a01b038216600081815260016020908152604091829020805460ff1916905590519182527ff1abf01a1043b7c244d128e8595cf0c1d10743b022b03a02dffd8ca3bf729f5a910160405180910390a1506002805460019160006102b083610649565b91905055505b919050565b6000546001600160a01b031633146102e55760405162461bcd60e51b815260040161019690610614565b6102ef60006104c5565b565b600080546001600160a01b0316331461031c5760405162461bcd60e51b815260040161019690610614565b6001600160a01b03821660009081526001602052604090205460ff166102b6576001600160a01b038216600081815260016020818152604092839020805460ff191690921790915590519182527fd1bba68c128cc3f427e5831b3c6f99f480b6efa6b9e80c757768f6124158cc3f910160405180910390a1506002805460019160006102b083610660565b600080546001600160a01b031633146103d25760405162461bcd60e51b815260040161019690610614565b60005b82518110156101f75761040e83828151811061040157634e487b7160e01b600052603260045260246000fd5b60200260200101516102f1565b1561041857600191505b8061042281610660565b9150506103d5565b6000546001600160a01b031633146104545760405162461bcd60e51b815260040161019690610614565b6001600160a01b0381166104b95760405162461bcd60e51b815260206004820152602660248201527f4f776e61626c653a206e6577206f776e657220697320746865207a65726f206160448201526564647265737360d01b6064820152608401610196565b6104c2816104c5565b50565b600080546001600160a01b038381166001600160a01b0319831681178455604051919092169283917f8be0079c531659141344cd1fd0a4f28419497f9722a3daafe3b4186f6b6457e09190a35050565b80356001600160a01b03811681146102b657600080fd5b60006020828403121561053d578081fd5b61054682610515565b9392505050565b6000602080838503121561055f578182fd5b823567ffffffffffffffff80821115610576578384fd5b818501915085601f830112610589578384fd5b81358181111561059b5761059b610691565b8060051b604051601f19603f830116810181811085821117156105c0576105c0610691565b604052828152858101935084860182860187018a10156105de578788fd5b8795505b83861015610607576105f381610515565b8552600195909501949386019386016105e2565b5098975050505050505050565b6020808252818101527f4f776e61626c653a2063616c6c6572206973206e6f7420746865206f776e6572604082015260600190565b6000816106585761065861067b565b506000190190565b60006000198214156106745761067461067b565b5060010190565b634e487b7160e01b600052601160045260246000fd5b634e487b7160e01b600052604160045260246000fdfea2646970667358221220e25584d9a8f702f8f63472752eb5dcbde4b81a32237cb21e50658d0749228e4664736f6c63430008040033",
  "linkReferences": {},
  "deployedLinkReferences": {}
}