{
  "_format": "hh-sol-artifact-1",
  "contractName": "Whitelist",
  "sourceName": "contracts/launchpad/whitelist/Whitelist.sol",
  "abi": [
    {
      "inputs": [
        {
          "internalType": "uint256",
          "name": "_maximumAddr",
          "type": "uint256"
        }
      ],
      "stateMutability": "nonpayable",
      "type": "constructor"
    },
    {
      "anonymous": false,
      "inputs": [
        {
          "indexed": true,
          "internalType": "address",
          "name": "previousOwner",
          "type": "address"
        },
        {
          "indexed": true,
          "internalType": "address",
          "name": "newOwner",
          "type": "address"
        }
      ],
      "name": "OwnershipTransferred",
      "type": "event"
    },
    {
      "anonymous": false,
      "inputs": [
        {
          "indexed": false,
          "internalType": "address",
          "name": "addr",
          "type": "address"
        }
      ],
      "name": "WhitelistedAddressAdded",
      "type": "event"
    },
    {
      "anonymous": false,
      "inputs": [
        {
          "indexed": false,
          "internalType": "address",
          "name": "addr",
          "type": "address"
        }
      ],
      "name": "WhitelistedAddressRemoved",
      "type": "event"
    },
    {
      "inputs": [
        {
          "internalType": "address",
          "name": "addr",
          "type": "address"
        }
      ],
      "name": "addAddressToWhitelist",
      "outputs": [
        {
          "internalType": "bool",
          "name": "success",
          "type": "bool"
        }
      ],
      "stateMutability": "nonpayable",
      "type": "function"
    },
    {
      "inputs": [
        {
          "internalType": "address[]",
          "name": "addrs",
          "type": "address[]"
        }
      ],
      "name": "addAddressesToWhitelist",
      "outputs": [
        {
          "internalType": "bool",
          "name": "success",
          "type": "bool"
        }
      ],
      "stateMutability": "nonpayable",
      "type": "function"
    },
    {
      "inputs": [],
      "name": "maximumAddrWhitelist",
      "outputs": [
        {
          "internalType": "uint256",
          "name": "",
          "type": "uint256"
        }
      ],
      "stateMutability": "view",
      "type": "function"
    },
    {
      "inputs": [],
      "name": "owner",
      "outputs": [
        {
          "internalType": "address",
          "name": "",
          "type": "address"
        }
      ],
      "stateMutability": "view",
      "type": "function"
    },
    {
      "inputs": [
        {
          "internalType": "address",
          "name": "addr",
          "type": "address"
        }
      ],
      "name": "removeAddressFromWhitelist",
      "outputs": [
        {
          "internalType": "bool",
          "name": "success",
          "type": "bool"
        }
      ],
      "stateMutability": "nonpayable",
      "type": "function"
    },
    {
      "inputs": [
        {
          "internalType": "address[]",
          "name": "addrs",
          "type": "address[]"
        }
      ],
      "name": "removeAddressesFromWhitelist",
      "outputs": [
        {
          "internalType": "bool",
          "name": "success",
          "type": "bool"
        }
      ],
      "stateMutability": "nonpayable",
      "type": "function"
    },
    {
      "inputs": [],
      "name": "renounceOwnership",
      "outputs": [],
      "stateMutability": "nonpayable",
      "type": "function"
    },
    {
      "inputs": [],
      "name": "totalAddress",
      "outputs": [
        {
          "internalType": "uint256",
          "name": "",
          "type": "uint256"
        }
      ],
      "stateMutability": "view",
      "type": "function"
    },
    {
      "inputs": [
        {
          "internalType": "address",
          "name": "newOwner",
          "type": "address"
        }
      ],
      "name": "transferOwnership",
      "outputs": [],
      "stateMutability": "nonpayable",
      "type": "function"
    },
    {
      "inputs": [
        {
          "internalType": "address",
          "name": "",
          "type": "address"
        }
      ],
      "name": "whitelist",
      "outputs": [
        {
          "internalType": "bool",
          "name": "",
          "type": "bool"
        }
      ],
      "stateMutability": "view",
      "type": "function"
    }
  ],
  "bytecode": "0x608060405234801561001057600080fd5b506040516107e43803806107e483398101604081905261002f91610090565b61003833610040565b6003556100a8565b600080546001600160a01b038381166001600160a01b0319831681178455604051919092169283917f8be0079c531659141344cd1fd0a4f28419497f9722a3daafe3b4186f6b6457e09190a35050565b6000602082840312156100a1578081fd5b5051919050565b61072d806100b76000396000f3fe608060405234801561001057600080fd5b506004361061009e5760003560e01c80637e45e942116100665780637e45e942146101125780638da5cb5b1461011b5780639b19251a14610136578063e2ec6ec314610159578063f2fde38b1461016c57600080fd5b806324953eaa146100a3578063286dd3f5146100cb5780633d2b494b146100de578063715018a6146100f55780637b9417c8146100ff575b600080fd5b6100b66100b136600461059d565b61017f565b60405190151581526020015b60405180910390f35b6100b66100d936600461057c565b610211565b6100e760035481565b6040519081526020016100c2565b6100fd6102cf565b005b6100b661010d36600461057c565b610305565b6100e760025481565b6000546040516001600160a01b0390911681526020016100c2565b6100b661014436600461057c565b60016020526000908152604090205460ff1681565b6100b661016736600461059d565b6103f7565b6100fd61017a36600461057c565b61047a565b600080546001600160a01b031633146101b35760405162461bcd60e51b81526004016101aa90610664565b60405180910390fd5b60005b825181101561020b576101ef8382815181106101e257634e487b7160e01b600052603260045260246000fd5b6020026020010151610211565b156101f957600191505b80610203816106b0565b9150506101b6565b50919050565b600080546001600160a01b0316331461023c5760405162461bcd60e51b81526004016101aa90610664565b6001600160a01b03821660009081526001602052604090205460ff16156102ca576001600160a01b038216600081815260016020908152604091829020805460ff1916905590519182527ff1abf01a1043b7c244d128e8595cf0c1d10743b022b03a02dffd8ca3bf729f5a910160405180910390a1506002805460019160006102c483610699565b91905055505b919050565b6000546001600160a01b031633146102f95760405162461bcd60e51b81526004016101aa90610664565b6103036000610515565b565b600080546001600160a01b031633146103305760405162461bcd60e51b81526004016101aa90610664565b6002546003541161036c5760405162461bcd60e51b81526004016101aa90602080825260049082015263199d5b1b60e21b604082015260600190565b6001600160a01b03821660009081526001602052604090205460ff166102ca576001600160a01b038216600081815260016020818152604092839020805460ff191690921790915590519182527fd1bba68c128cc3f427e5831b3c6f99f480b6efa6b9e80c757768f6124158cc3f910160405180910390a1506002805460019160006102c4836106b0565b600080546001600160a01b031633146104225760405162461bcd60e51b81526004016101aa90610664565b60005b825181101561020b5761045e83828151811061045157634e487b7160e01b600052603260045260246000fd5b6020026020010151610305565b1561046857600191505b80610472816106b0565b915050610425565b6000546001600160a01b031633146104a45760405162461bcd60e51b81526004016101aa90610664565b6001600160a01b0381166105095760405162461bcd60e51b815260206004820152602660248201527f4f776e61626c653a206e6577206f776e657220697320746865207a65726f206160448201526564647265737360d01b60648201526084016101aa565b61051281610515565b50565b600080546001600160a01b038381166001600160a01b0319831681178455604051919092169283917f8be0079c531659141344cd1fd0a4f28419497f9722a3daafe3b4186f6b6457e09190a35050565b80356001600160a01b03811681146102ca57600080fd5b60006020828403121561058d578081fd5b61059682610565565b9392505050565b600060208083850312156105af578182fd5b823567ffffffffffffffff808211156105c6578384fd5b818501915085601f8301126105d9578384fd5b8135818111156105eb576105eb6106e1565b8060051b604051601f19603f83011681018181108582111715610610576106106106e1565b604052828152858101935084860182860187018a101561062e578788fd5b8795505b838610156106575761064381610565565b855260019590950194938601938601610632565b5098975050505050505050565b6020808252818101527f4f776e61626c653a2063616c6c6572206973206e6f7420746865206f776e6572604082015260600190565b6000816106a8576106a86106cb565b506000190190565b60006000198214156106c4576106c46106cb565b5060010190565b634e487b7160e01b600052601160045260246000fd5b634e487b7160e01b600052604160045260246000fdfea2646970667358221220665bfcbd40e7ace81bc697b2c79223b61b85ac83d8714c44a87be52bf69dfb3864736f6c63430008040033",
  "linkReferences": {},
  "deployedLinkReferences": {}
}