{
  "_format": "hh-sol-artifact-1",
  "contractName": "KaiDexToken",
  "sourceName": "contracts/KaidexToken.sol",
  "abi": [
    {
      "inputs": [
        {
          "internalType": "string",
          "name": "name_",
          "type": "string"
        },
        {
          "internalType": "string",
          "name": "symbol_",
          "type": "string"
        },
        {
          "internalType": "uint256",
          "name": "cap_",
          "type": "uint256"
        }
      ],
      "stateMutability": "nonpayable",
      "type": "constructor"
    },
    {
      "anonymous": false,
      "inputs": [
        {
          "indexed": true,
          "internalType": "address",
          "name": "owner",
          "type": "address"
        },
        {
          "indexed": true,
          "internalType": "address",
          "name": "spender",
          "type": "address"
        },
        {
          "indexed": false,
          "internalType": "uint256",
          "name": "value",
          "type": "uint256"
        }
      ],
      "name": "Approval",
      "type": "event"
    },
    {
      "anonymous": false,
      "inputs": [
        {
          "indexed": true,
          "internalType": "address",
          "name": "delegator",
          "type": "address"
        },
        {
          "indexed": true,
          "internalType": "address",
          "name": "fromDelegate",
          "type": "address"
        },
        {
          "indexed": true,
          "internalType": "address",
          "name": "toDelegate",
          "type": "address"
        }
      ],
      "name": "DelegateChanged",
      "type": "event"
    },
    {
      "anonymous": false,
      "inputs": [
        {
          "indexed": true,
          "internalType": "address",
          "name": "delegate",
          "type": "address"
        },
        {
          "indexed": false,
          "internalType": "uint256",
          "name": "previousBalance",
          "type": "uint256"
        },
        {
          "indexed": false,
          "internalType": "uint256",
          "name": "newBalance",
          "type": "uint256"
        }
      ],
      "name": "DelegateVotesChanged",
      "type": "event"
    },
    {
      "anonymous": false,
      "inputs": [
        {
          "indexed": true,
          "internalType": "address",
          "name": "previousOwner",
          "type": "address"
        },
        {
          "indexed": true,
          "internalType": "address",
          "name": "newOwner",
          "type": "address"
        }
      ],
      "name": "OwnershipTransferred",
      "type": "event"
    },
    {
      "anonymous": false,
      "inputs": [
        {
          "indexed": true,
          "internalType": "address",
          "name": "from",
          "type": "address"
        },
        {
          "indexed": true,
          "internalType": "address",
          "name": "to",
          "type": "address"
        },
        {
          "indexed": false,
          "internalType": "uint256",
          "name": "value",
          "type": "uint256"
        }
      ],
      "name": "Transfer",
      "type": "event"
    },
    {
      "inputs": [],
      "name": "DOMAIN_SEPARATOR",
      "outputs": [
        {
          "internalType": "bytes32",
          "name": "",
          "type": "bytes32"
        }
      ],
      "stateMutability": "view",
      "type": "function"
    },
    {
      "inputs": [
        {
          "internalType": "address",
          "name": "owner",
          "type": "address"
        },
        {
          "internalType": "address",
          "name": "spender",
          "type": "address"
        }
      ],
      "name": "allowance",
      "outputs": [
        {
          "internalType": "uint256",
          "name": "",
          "type": "uint256"
        }
      ],
      "stateMutability": "view",
      "type": "function"
    },
    {
      "inputs": [
        {
          "internalType": "address",
          "name": "spender",
          "type": "address"
        },
        {
          "internalType": "uint256",
          "name": "amount",
          "type": "uint256"
        }
      ],
      "name": "approve",
      "outputs": [
        {
          "internalType": "bool",
          "name": "",
          "type": "bool"
        }
      ],
      "stateMutability": "nonpayable",
      "type": "function"
    },
    {
      "inputs": [
        {
          "internalType": "address",
          "name": "account",
          "type": "address"
        }
      ],
      "name": "balanceOf",
      "outputs": [
        {
          "internalType": "uint256",
          "name": "",
          "type": "uint256"
        }
      ],
      "stateMutability": "view",
      "type": "function"
    },
    {
      "inputs": [
        {
          "internalType": "uint256",
          "name": "amount",
          "type": "uint256"
        }
      ],
      "name": "burn",
      "outputs": [],
      "stateMutability": "nonpayable",
      "type": "function"
    },
    {
      "inputs": [
        {
          "internalType": "address",
          "name": "account",
          "type": "address"
        },
        {
          "internalType": "uint256",
          "name": "amount",
          "type": "uint256"
        }
      ],
      "name": "burnFrom",
      "outputs": [],
      "stateMutability": "nonpayable",
      "type": "function"
    },
    {
      "inputs": [],
      "name": "cap",
      "outputs": [
        {
          "internalType": "uint256",
          "name": "",
          "type": "uint256"
        }
      ],
      "stateMutability": "view",
      "type": "function"
    },
    {
      "inputs": [
        {
          "internalType": "address",
          "name": "account",
          "type": "address"
        },
        {
          "internalType": "uint32",
          "name": "pos",
          "type": "uint32"
        }
      ],
      "name": "checkpoints",
      "outputs": [
        {
          "components": [
            {
              "internalType": "uint32",
              "name": "fromBlock",
              "type": "uint32"
            },
            {
              "internalType": "uint224",
              "name": "votes",
              "type": "uint224"
            }
          ],
          "internalType": "struct ERC20Votes.Checkpoint",
          "name": "",
          "type": "tuple"
        }
      ],
      "stateMutability": "view",
      "type": "function"
    },
    {
      "inputs": [],
      "name": "decimals",
      "outputs": [
        {
          "internalType": "uint8",
          "name": "",
          "type": "uint8"
        }
      ],
      "stateMutability": "view",
      "type": "function"
    },
    {
      "inputs": [
        {
          "internalType": "address",
          "name": "spender",
          "type": "address"
        },
        {
          "internalType": "uint256",
          "name": "subtractedValue",
          "type": "uint256"
        }
      ],
      "name": "decreaseAllowance",
      "outputs": [
        {
          "internalType": "bool",
          "name": "",
          "type": "bool"
        }
      ],
      "stateMutability": "nonpayable",
      "type": "function"
    },
    {
      "inputs": [
        {
          "internalType": "address",
          "name": "delegatee",
          "type": "address"
        }
      ],
      "name": "delegate",
      "outputs": [],
      "stateMutability": "nonpayable",
      "type": "function"
    },
    {
      "inputs": [
        {
          "internalType": "address",
          "name": "delegatee",
          "type": "address"
        },
        {
          "internalType": "uint256",
          "name": "nonce",
          "type": "uint256"
        },
        {
          "internalType": "uint256",
          "name": "expiry",
          "type": "uint256"
        },
        {
          "internalType": "uint8",
          "name": "v",
          "type": "uint8"
        },
        {
          "internalType": "bytes32",
          "name": "r",
          "type": "bytes32"
        },
        {
          "internalType": "bytes32",
          "name": "s",
          "type": "bytes32"
        }
      ],
      "name": "delegateBySig",
      "outputs": [],
      "stateMutability": "nonpayable",
      "type": "function"
    },
    {
      "inputs": [
        {
          "internalType": "address",
          "name": "account",
          "type": "address"
        }
      ],
      "name": "delegates",
      "outputs": [
        {
          "internalType": "address",
          "name": "",
          "type": "address"
        }
      ],
      "stateMutability": "view",
      "type": "function"
    },
    {
      "inputs": [
        {
          "internalType": "address",
          "name": "account",
          "type": "address"
        }
      ],
      "name": "getCurrentVotes",
      "outputs": [
        {
          "internalType": "uint96",
          "name": "",
          "type": "uint96"
        }
      ],
      "stateMutability": "view",
      "type": "function"
    },
    {
      "inputs": [
        {
          "internalType": "uint256",
          "name": "blockNumber",
          "type": "uint256"
        }
      ],
      "name": "getPastTotalSupply",
      "outputs": [
        {
          "internalType": "uint256",
          "name": "",
          "type": "uint256"
        }
      ],
      "stateMutability": "view",
      "type": "function"
    },
    {
      "inputs": [
        {
          "internalType": "address",
          "name": "account",
          "type": "address"
        },
        {
          "internalType": "uint256",
          "name": "blockNumber",
          "type": "uint256"
        }
      ],
      "name": "getPastVotes",
      "outputs": [
        {
          "internalType": "uint256",
          "name": "",
          "type": "uint256"
        }
      ],
      "stateMutability": "view",
      "type": "function"
    },
    {
      "inputs": [
        {
          "internalType": "address",
          "name": "account",
          "type": "address"
        },
        {
          "internalType": "uint256",
          "name": "blockNumber",
          "type": "uint256"
        }
      ],
      "name": "getPriorVotes",
      "outputs": [
        {
          "internalType": "uint96",
          "name": "",
          "type": "uint96"
        }
      ],
      "stateMutability": "view",
      "type": "function"
    },
    {
      "inputs": [
        {
          "internalType": "address",
          "name": "account",
          "type": "address"
        }
      ],
      "name": "getVotes",
      "outputs": [
        {
          "internalType": "uint256",
          "name": "",
          "type": "uint256"
        }
      ],
      "stateMutability": "view",
      "type": "function"
    },
    {
      "inputs": [
        {
          "internalType": "address",
          "name": "spender",
          "type": "address"
        },
        {
          "internalType": "uint256",
          "name": "addedValue",
          "type": "uint256"
        }
      ],
      "name": "increaseAllowance",
      "outputs": [
        {
          "internalType": "bool",
          "name": "",
          "type": "bool"
        }
      ],
      "stateMutability": "nonpayable",
      "type": "function"
    },
    {
      "inputs": [
        {
          "internalType": "address",
          "name": "_to",
          "type": "address"
        },
        {
          "internalType": "uint256",
          "name": "_amount",
          "type": "uint256"
        }
      ],
      "name": "mint",
      "outputs": [],
      "stateMutability": "nonpayable",
      "type": "function"
    },
    {
      "inputs": [],
      "name": "name",
      "outputs": [
        {
          "internalType": "string",
          "name": "",
          "type": "string"
        }
      ],
      "stateMutability": "view",
      "type": "function"
    },
    {
      "inputs": [
        {
          "internalType": "address",
          "name": "owner",
          "type": "address"
        }
      ],
      "name": "nonces",
      "outputs": [
        {
          "internalType": "uint256",
          "name": "",
          "type": "uint256"
        }
      ],
      "stateMutability": "view",
      "type": "function"
    },
    {
      "inputs": [
        {
          "internalType": "address",
          "name": "account",
          "type": "address"
        }
      ],
      "name": "numCheckpoints",
      "outputs": [
        {
          "internalType": "uint32",
          "name": "",
          "type": "uint32"
        }
      ],
      "stateMutability": "view",
      "type": "function"
    },
    {
      "inputs": [],
      "name": "owner",
      "outputs": [
        {
          "internalType": "address",
          "name": "",
          "type": "address"
        }
      ],
      "stateMutability": "view",
      "type": "function"
    },
    {
      "inputs": [
        {
          "internalType": "address",
          "name": "owner",
          "type": "address"
        },
        {
          "internalType": "address",
          "name": "spender",
          "type": "address"
        },
        {
          "internalType": "uint256",
          "name": "value",
          "type": "uint256"
        },
        {
          "internalType": "uint256",
          "name": "deadline",
          "type": "uint256"
        },
        {
          "internalType": "uint8",
          "name": "v",
          "type": "uint8"
        },
        {
          "internalType": "bytes32",
          "name": "r",
          "type": "bytes32"
        },
        {
          "internalType": "bytes32",
          "name": "s",
          "type": "bytes32"
        }
      ],
      "name": "permit",
      "outputs": [],
      "stateMutability": "nonpayable",
      "type": "function"
    },
    {
      "inputs": [],
      "name": "renounceOwnership",
      "outputs": [],
      "stateMutability": "nonpayable",
      "type": "function"
    },
    {
      "inputs": [],
      "name": "symbol",
      "outputs": [
        {
          "internalType": "string",
          "name": "",
          "type": "string"
        }
      ],
      "stateMutability": "view",
      "type": "function"
    },
    {
      "inputs": [],
      "name": "totalSupply",
      "outputs": [
        {
          "internalType": "uint256",
          "name": "",
          "type": "uint256"
        }
      ],
      "stateMutability": "view",
      "type": "function"
    },
    {
      "inputs": [
        {
          "internalType": "address",
          "name": "to",
          "type": "address"
        },
        {
          "internalType": "uint256",
          "name": "amount",
          "type": "uint256"
        }
      ],
      "name": "transfer",
      "outputs": [
        {
          "internalType": "bool",
          "name": "",
          "type": "bool"
        }
      ],
      "stateMutability": "nonpayable",
      "type": "function"
    },
    {
      "inputs": [
        {
          "internalType": "address",
          "name": "from",
          "type": "address"
        },
        {
          "internalType": "address",
          "name": "to",
          "type": "address"
        },
        {
          "internalType": "uint256",
          "name": "amount",
          "type": "uint256"
        }
      ],
      "name": "transferFrom",
      "outputs": [
        {
          "internalType": "bool",
          "name": "",
          "type": "bool"
        }
      ],
      "stateMutability": "nonpayable",
      "type": "function"
    },
    {
      "inputs": [
        {
          "internalType": "address",
          "name": "newOwner",
          "type": "address"
        }
      ],
      "name": "transferOwnership",
      "outputs": [],
      "stateMutability": "nonpayable",
      "type": "function"
    }
  ],
  "bytecode": "0x6101606040527f6e71edae12b1b97f4d1f60370fef10105fa2faae0126114a169c64845d6126c9610140908152503480156200003a57600080fd5b5060405162004d6338038062004d6383398181016040528101906200006091906200043d565b82806040518060400160405280600181526020017f310000000000000000000000000000000000000000000000000000000000000081525085858160039080519060200190620000b292919062000304565b508060049080519060200190620000cb92919062000304565b50505060008280519060200120905060008280519060200120905060007f8b73c3c69bb8fe3d512ecc4cf759cc79239f7b179b0ffacaa9a75d522b39400f90508260e081815250508161010081815250504660a0818152505062000137818484620001fa60201b60201c565b608081815250503073ffffffffffffffffffffffffffffffffffffffff1660c08173ffffffffffffffffffffffffffffffffffffffff1660601b81525050806101208181525050505050505050620001a4620001986200023660201b60201c565b6200023e60201b60201c565b60008111620001ea576040517f08c379a0000000000000000000000000000000000000000000000000000000008152600401620001e1906200057c565b60405180910390fd5b80600a81905550505050620007aa565b60008383834630604051602001620002179594939291906200051f565b6040516020818303038152906040528051906020012090509392505050565b600033905090565b6000600960009054906101000a900473ffffffffffffffffffffffffffffffffffffffff16905081600960006101000a81548173ffffffffffffffffffffffffffffffffffffffff021916908373ffffffffffffffffffffffffffffffffffffffff1602179055508173ffffffffffffffffffffffffffffffffffffffff168173ffffffffffffffffffffffffffffffffffffffff167f8be0079c531659141344cd1fd0a4f28419497f9722a3daafe3b4186f6b6457e060405160405180910390a35050565b82805462000312906200068c565b90600052602060002090601f01602090048101928262000336576000855562000382565b82601f106200035157805160ff191683800117855562000382565b8280016001018555821562000382579182015b828111156200038157825182559160200191906001019062000364565b5b50905062000391919062000395565b5090565b5b80821115620003b057600081600090555060010162000396565b5090565b6000620003cb620003c584620005c7565b6200059e565b905082815260208101848484011115620003e457600080fd5b620003f184828562000656565b509392505050565b600082601f8301126200040b57600080fd5b81516200041d848260208601620003b4565b91505092915050565b600081519050620004378162000790565b92915050565b6000806000606084860312156200045357600080fd5b600084015167ffffffffffffffff8111156200046e57600080fd5b6200047c86828701620003f9565b935050602084015167ffffffffffffffff8111156200049a57600080fd5b620004a886828701620003f9565b9250506040620004bb8682870162000426565b9150509250925092565b620004d0816200060e565b82525050565b620004e18162000622565b82525050565b6000620004f6601583620005fd565b9150620005038262000767565b602082019050919050565b62000519816200064c565b82525050565b600060a082019050620005366000830188620004d6565b620005456020830187620004d6565b620005546040830186620004d6565b6200056360608301856200050e565b620005726080830184620004c5565b9695505050505050565b600060208201905081810360008301526200059781620004e7565b9050919050565b6000620005aa620005bd565b9050620005b88282620006c2565b919050565b6000604051905090565b600067ffffffffffffffff821115620005e557620005e462000727565b5b620005f08262000756565b9050602081019050919050565b600082825260208201905092915050565b60006200061b826200062c565b9050919050565b6000819050919050565b600073ffffffffffffffffffffffffffffffffffffffff82169050919050565b6000819050919050565b60005b838110156200067657808201518184015260208101905062000659565b8381111562000686576000848401525b50505050565b60006002820490506001821680620006a557607f821691505b60208210811415620006bc57620006bb620006f8565b5b50919050565b620006cd8262000756565b810181811067ffffffffffffffff82111715620006ef57620006ee62000727565b5b80604052505050565b7f4e487b7100000000000000000000000000000000000000000000000000000000600052602260045260246000fd5b7f4e487b7100000000000000000000000000000000000000000000000000000000600052604160045260246000fd5b6000601f19601f8301169050919050565b7f45524332304361707065643a2063617020697320300000000000000000000000600082015250565b6200079b816200064c565b8114620007a757600080fd5b50565b60805160a05160c05160601c60e05161010051610120516101405161455b62000808600039600061105e0152600061199c015260006119de015260006119bd015260006118f20152600061194801526000611971015261455b6000f3fe608060405234801561001057600080fd5b50600436106101e55760003560e01c8063715018a61161010f578063a457c2d7116100a2578063d505accf11610071578063d505accf146105f2578063dd62ed3e1461060e578063f1127ed81461063e578063f2fde38b1461066e576101e5565b8063a457c2d714610546578063a9059cbb14610576578063b4b5ea57146105a6578063c3cda520146105d6576101e5565b80638da5cb5b116100de5780638da5cb5b146104aa5780638e539e8c146104c857806395d89b41146104f85780639ab24eb014610516576101e5565b8063715018a614610424578063782d6fe11461042e57806379cc67901461045e5780637ecebe001461047a576101e5565b80633950935111610187578063587cde1e11610156578063587cde1e146103785780635c19a95c146103a85780636fcfff45146103c457806370a08231146103f4576101e5565b806339509351146102e05780633a46b1a81461031057806340c10f191461034057806342966c681461035c576101e5565b806323b872dd116101c357806323b872dd14610256578063313ce56714610286578063355274ea146102a45780633644e515146102c2576101e5565b806306fdde03146101ea578063095ea7b31461020857806318160ddd14610238575b600080fd5b6101f261068a565b6040516101ff9190613775565b60405180910390f35b610222600480360381019061021d9190612fce565b61071c565b60405161022f9190613601565b60405180910390f35b61024061073f565b60405161024d9190613af2565b60405180910390f35b610270600480360381019061026b9190612ee1565b610749565b60405161027d9190613601565b60405180910390f35b61028e610778565b60405161029b9190613b51565b60405180910390f35b6102ac610781565b6040516102b99190613af2565b60405180910390f35b6102ca61078b565b6040516102d7919061361c565b60405180910390f35b6102fa60048036038101906102f59190612fce565b61079a565b6040516103079190613601565b60405180910390f35b61032a60048036038101906103259190612fce565b610844565b6040516103379190613af2565b60405180910390f35b61035a60048036038101906103559190612fce565b6108d8565b005b610376600480360381019061037191906130cf565b610962565b005b610392600480360381019061038d9190612e7c565b610976565b60405161039f91906135e6565b60405180910390f35b6103c260048036038101906103bd9190612e7c565b6109df565b005b6103de60048036038101906103d99190612e7c565b6109f3565b6040516103eb9190613b36565b60405180910390f35b61040e60048036038101906104099190612e7c565b610a47565b60405161041b9190613af2565b60405180910390f35b61042c610a8f565b005b61044860048036038101906104439190612fce565b610b17565b6040516104559190613b6c565b60405180910390f35b61047860048036038101906104739190612fce565b610b33565b005b610494600480360381019061048f9190612e7c565b610b53565b6040516104a19190613af2565b60405180910390f35b6104b2610ba3565b6040516104bf91906135e6565b60405180910390f35b6104e260048036038101906104dd91906130cf565b610bcd565b6040516104ef9190613af2565b60405180910390f35b610500610c23565b60405161050d9190613775565b60405180910390f35b610530600480360381019061052b9190612e7c565b610cb5565b60405161053d9190613af2565b60405180910390f35b610560600480360381019061055b9190612fce565b610dec565b60405161056d9190613601565b60405180910390f35b610590600480360381019061058b9190612fce565b610ed6565b60405161059d9190613601565b60405180910390f35b6105c060048036038101906105bb9190612e7c565b610ef9565b6040516105cd9190613b6c565b60405180910390f35b6105f060048036038101906105eb919061300a565b610f13565b005b61060c60048036038101906106079190612f30565b611017565b005b61062860048036038101906106239190612ea5565b611159565b6040516106359190613af2565b60405180910390f35b61065860048036038101906106539190613093565b6111e0565b6040516106659190613ad7565b60405180910390f35b61068860048036038101906106839190612e7c565b611316565b005b60606003805461069990613d4b565b80601f01602080910402602001604051908101604052809291908181526020018280546106c590613d4b565b80156107125780601f106106e757610100808354040283529160200191610712565b820191906000526020600020905b8154815290600101906020018083116106f557829003601f168201915b5050505050905090565b60008061072761140e565b9050610734818585611416565b600191505092915050565b6000600254905090565b60008061075461140e565b90506107618582856115e1565b61076c85858561166d565b60019150509392505050565b60006012905090565b6000600a54905090565b60006107956118ee565b905090565b6000806107a561140e565b9050610839818585600160008673ffffffffffffffffffffffffffffffffffffffff1673ffffffffffffffffffffffffffffffffffffffff16815260200190815260200160002060008973ffffffffffffffffffffffffffffffffffffffff1673ffffffffffffffffffffffffffffffffffffffff168152602001908152602001600020546108349190613bae565b611416565b600191505092915050565b6000438210610888576040517f08c379a000000000000000000000000000000000000000000000000000000000815260040161087f906137f7565b60405180910390fd5b6108d0600760008573ffffffffffffffffffffffffffffffffffffffff1673ffffffffffffffffffffffffffffffffffffffff16815260200190815260200160002083611a08565b905092915050565b6108e061140e565b73ffffffffffffffffffffffffffffffffffffffff166108fe610ba3565b73ffffffffffffffffffffffffffffffffffffffff1614610954576040517f08c379a000000000000000000000000000000000000000000000000000000000815260040161094b906139b7565b60405180910390fd5b61095e8282611b60565b5050565b61097361096d61140e565b82611bca565b50565b6000600660008373ffffffffffffffffffffffffffffffffffffffff1673ffffffffffffffffffffffffffffffffffffffff16815260200190815260200160002060009054906101000a900473ffffffffffffffffffffffffffffffffffffffff169050919050565b6109f06109ea61140e565b82611bd8565b50565b6000610a40600760008473ffffffffffffffffffffffffffffffffffffffff1673ffffffffffffffffffffffffffffffffffffffff16815260200190815260200160002080549050611cf2565b9050919050565b60008060008373ffffffffffffffffffffffffffffffffffffffff1673ffffffffffffffffffffffffffffffffffffffff168152602001908152602001600020549050919050565b610a9761140e565b73ffffffffffffffffffffffffffffffffffffffff16610ab5610ba3565b73ffffffffffffffffffffffffffffffffffffffff1614610b0b576040517f08c379a0000000000000000000000000000000000000000000000000000000008152600401610b02906139b7565b60405180910390fd5b610b156000611d45565b565b6000610b2b610b268484610844565b611e0b565b905092915050565b610b4582610b3f61140e565b836115e1565b610b4f8282611bca565b5050565b6000610b9c600560008473ffffffffffffffffffffffffffffffffffffffff1673ffffffffffffffffffffffffffffffffffffffff168152602001908152602001600020611e66565b9050919050565b6000600960009054906101000a900473ffffffffffffffffffffffffffffffffffffffff16905090565b6000438210610c11576040517f08c379a0000000000000000000000000000000000000000000000000000000008152600401610c08906137f7565b60405180910390fd5b610c1c600883611a08565b9050919050565b606060048054610c3290613d4b565b80601f0160208091040260200160405190810160405280929190818152602001828054610c5e90613d4b565b8015610cab5780601f10610c8057610100808354040283529160200191610cab565b820191906000526020600020905b815481529060010190602001808311610c8e57829003601f168201915b5050505050905090565b600080600760008473ffffffffffffffffffffffffffffffffffffffff1673ffffffffffffffffffffffffffffffffffffffff16815260200190815260200160002080549050905060008114610dc357600760008473ffffffffffffffffffffffffffffffffffffffff1673ffffffffffffffffffffffffffffffffffffffff168152602001908152602001600020600182610d519190613c35565b81548110610d88577f4e487b7100000000000000000000000000000000000000000000000000000000600052603260045260246000fd5b9060005260206000200160000160049054906101000a90047bffffffffffffffffffffffffffffffffffffffffffffffffffffffff16610dc6565b60005b7bffffffffffffffffffffffffffffffffffffffffffffffffffffffff16915050919050565b600080610df761140e565b90506000600160008373ffffffffffffffffffffffffffffffffffffffff1673ffffffffffffffffffffffffffffffffffffffff16815260200190815260200160002060008673ffffffffffffffffffffffffffffffffffffffff1673ffffffffffffffffffffffffffffffffffffffff16815260200190815260200160002054905083811015610ebd576040517f08c379a0000000000000000000000000000000000000000000000000000000008152600401610eb490613a97565b60405180910390fd5b610eca8286868403611416565b60019250505092915050565b600080610ee161140e565b9050610eee81858561166d565b600191505092915050565b6000610f0c610f0783610cb5565b611e0b565b9050919050565b83421115610f56576040517f08c379a0000000000000000000000000000000000000000000000000000000008152600401610f4d90613817565b60405180910390fd5b6000610fb8610fb07fe48329057bfd03d55e49b547132e39cffd9c1820ad7b9d4c5307691425d15adf898989604051602001610f959493929190613698565b60405160208183030381529060405280519060200120611e74565b858585611e8e565b9050610fc381611eb9565b8614611004576040517f08c379a0000000000000000000000000000000000000000000000000000000008152600401610ffb90613877565b60405180910390fd5b61100e8188611bd8565b50505050505050565b8342111561105a576040517f08c379a0000000000000000000000000000000000000000000000000000000008152600401611051906138f7565b60405180910390fd5b60007f00000000000000000000000000000000000000000000000000000000000000008888886110898c611eb9565b8960405160200161109f96959493929190613637565b60405160208183030381529060405280519060200120905060006110c282611e74565b905060006110d282878787611e8e565b90508973ffffffffffffffffffffffffffffffffffffffff168173ffffffffffffffffffffffffffffffffffffffff1614611142576040517f08c379a000000000000000000000000000000000000000000000000000000000815260040161113990613977565b60405180910390fd5b61114d8a8a8a611416565b50505050505050505050565b6000600160008473ffffffffffffffffffffffffffffffffffffffff1673ffffffffffffffffffffffffffffffffffffffff16815260200190815260200160002060008373ffffffffffffffffffffffffffffffffffffffff1673ffffffffffffffffffffffffffffffffffffffff16815260200190815260200160002054905092915050565b6111e8612dd5565b600760008473ffffffffffffffffffffffffffffffffffffffff1673ffffffffffffffffffffffffffffffffffffffff1681526020019081526020016000208263ffffffff1681548110611265577f4e487b7100000000000000000000000000000000000000000000000000000000600052603260045260246000fd5b906000526020600020016040518060400160405290816000820160009054906101000a900463ffffffff1663ffffffff1663ffffffff1681526020016000820160049054906101000a90047bffffffffffffffffffffffffffffffffffffffffffffffffffffffff167bffffffffffffffffffffffffffffffffffffffffffffffffffffffff167bffffffffffffffffffffffffffffffffffffffffffffffffffffffff1681525050905092915050565b61131e61140e565b73ffffffffffffffffffffffffffffffffffffffff1661133c610ba3565b73ffffffffffffffffffffffffffffffffffffffff1614611392576040517f08c379a0000000000000000000000000000000000000000000000000000000008152600401611389906139b7565b60405180910390fd5b600073ffffffffffffffffffffffffffffffffffffffff168173ffffffffffffffffffffffffffffffffffffffff161415611402576040517f08c379a00000000000000000000000000000000000000000000000000000000081526004016113f990613897565b60405180910390fd5b61140b81611d45565b50565b600033905090565b600073ffffffffffffffffffffffffffffffffffffffff168373ffffffffffffffffffffffffffffffffffffffff161415611486576040517f08c379a000000000000000000000000000000000000000000000000000000000815260040161147d90613a77565b60405180910390fd5b600073ffffffffffffffffffffffffffffffffffffffff168273ffffffffffffffffffffffffffffffffffffffff1614156114f6576040517f08c379a00000000000000000000000000000000000000000000000000000000081526004016114ed906138b7565b60405180910390fd5b80600160008573ffffffffffffffffffffffffffffffffffffffff1673ffffffffffffffffffffffffffffffffffffffff16815260200190815260200160002060008473ffffffffffffffffffffffffffffffffffffffff1673ffffffffffffffffffffffffffffffffffffffff168152602001908152602001600020819055508173ffffffffffffffffffffffffffffffffffffffff168373ffffffffffffffffffffffffffffffffffffffff167f8c5be1e5ebec7d5bd14f71427d1e84f3dd0314c0f7b2291e5b200ac8c7c3b925836040516115d49190613af2565b60405180910390a3505050565b60006115ed8484611159565b90507fffffffffffffffffffffffffffffffffffffffffffffffffffffffffffffffff81146116675781811015611659576040517f08c379a0000000000000000000000000000000000000000000000000000000008152600401611650906138d7565b60405180910390fd5b6116668484848403611416565b5b50505050565b600073ffffffffffffffffffffffffffffffffffffffff168373ffffffffffffffffffffffffffffffffffffffff1614156116dd576040517f08c379a00000000000000000000000000000000000000000000000000000000081526004016116d490613a17565b60405180910390fd5b600073ffffffffffffffffffffffffffffffffffffffff168273ffffffffffffffffffffffffffffffffffffffff16141561174d576040517f08c379a0000000000000000000000000000000000000000000000000000000008152600401611744906137b7565b60405180910390fd5b611758838383611f17565b60008060008573ffffffffffffffffffffffffffffffffffffffff1673ffffffffffffffffffffffffffffffffffffffff168152602001908152602001600020549050818110156117de576040517f08c379a00000000000000000000000000000000000000000000000000000000081526004016117d590613917565b60405180910390fd5b8181036000808673ffffffffffffffffffffffffffffffffffffffff1673ffffffffffffffffffffffffffffffffffffffff16815260200190815260200160002081905550816000808573ffffffffffffffffffffffffffffffffffffffff1673ffffffffffffffffffffffffffffffffffffffff16815260200190815260200160002060008282546118719190613bae565b925050819055508273ffffffffffffffffffffffffffffffffffffffff168473ffffffffffffffffffffffffffffffffffffffff167fddf252ad1be2c89b69c2b068fc378daa952ba7f163c4a11628f55a4df523b3ef846040516118d59190613af2565b60405180910390a36118e8848484611f1c565b50505050565b60007f000000000000000000000000000000000000000000000000000000000000000073ffffffffffffffffffffffffffffffffffffffff163073ffffffffffffffffffffffffffffffffffffffff1614801561196a57507f000000000000000000000000000000000000000000000000000000000000000046145b15611997577f00000000000000000000000000000000000000000000000000000000000000009050611a05565b611a027f00000000000000000000000000000000000000000000000000000000000000007f00000000000000000000000000000000000000000000000000000000000000007f0000000000000000000000000000000000000000000000000000000000000000611f2c565b90505b90565b6000808380549050905060005b81811015611aad576000611a298284611f66565b905084868281548110611a65577f4e487b7100000000000000000000000000000000000000000000000000000000600052603260045260246000fd5b9060005260206000200160000160009054906101000a900463ffffffff1663ffffffff161115611a9757809250611aa7565b600181611aa49190613bae565b91505b50611a15565b60008214611b355784600183611ac39190613c35565b81548110611afa577f4e487b7100000000000000000000000000000000000000000000000000000000600052603260045260246000fd5b9060005260206000200160000160049054906101000a90047bffffffffffffffffffffffffffffffffffffffffffffffffffffffff16611b38565b60005b7bffffffffffffffffffffffffffffffffffffffffffffffffffffffff169250505092915050565b611b68610781565b81611b7161073f565b611b7b9190613bae565b1115611bbc576040517f08c379a0000000000000000000000000000000000000000000000000000000008152600401611bb390613a37565b60405180910390fd5b611bc68282611f8c565b5050565b611bd48282612019565b5050565b6000611be383610976565b90506000611bf084610a47565b905082600660008673ffffffffffffffffffffffffffffffffffffffff1673ffffffffffffffffffffffffffffffffffffffff16815260200190815260200160002060006101000a81548173ffffffffffffffffffffffffffffffffffffffff021916908373ffffffffffffffffffffffffffffffffffffffff1602179055508273ffffffffffffffffffffffffffffffffffffffff168273ffffffffffffffffffffffffffffffffffffffff168573ffffffffffffffffffffffffffffffffffffffff167f3134e8a2e6d97e929a7e54011ea5485d7d196dd5f0ba4d4ef95803e8e3fc257f60405160405180910390a4611cec828483612037565b50505050565b600063ffffffff8016821115611d3d576040517f08c379a0000000000000000000000000000000000000000000000000000000008152600401611d3490613a57565b60405180910390fd5b819050919050565b6000600960009054906101000a900473ffffffffffffffffffffffffffffffffffffffff16905081600960006101000a81548173ffffffffffffffffffffffffffffffffffffffff021916908373ffffffffffffffffffffffffffffffffffffffff1602179055508173ffffffffffffffffffffffffffffffffffffffff168173ffffffffffffffffffffffffffffffffffffffff167f8be0079c531659141344cd1fd0a4f28419497f9722a3daafe3b4186f6b6457e060405160405180910390a35050565b60006bffffffffffffffffffffffff8016821115611e5e576040517f08c379a0000000000000000000000000000000000000000000000000000000008152600401611e55906137d7565b60405180910390fd5b819050919050565b600081600001549050919050565b6000611e87611e816118ee565b83612230565b9050919050565b6000806000611e9f87878787612263565b91509150611eac81612370565b8192505050949350505050565b600080600560008473ffffffffffffffffffffffffffffffffffffffff1673ffffffffffffffffffffffffffffffffffffffff1681526020019081526020016000209050611f0681611e66565b9150611f11816126c1565b50919050565b505050565b611f278383836126d7565b505050565b60008383834630604051602001611f479594939291906136dd565b6040516020818303038152906040528051906020012090509392505050565b60006002828418611f779190613c04565b828416611f849190613bae565b905092915050565b611f968282612702565b611f9e612862565b7bffffffffffffffffffffffffffffffffffffffffffffffffffffffff16611fc461073f565b1115612005576040517f08c379a0000000000000000000000000000000000000000000000000000000008152600401611ffc90613997565b60405180910390fd5b61201360086128788361288e565b50505050565b6120238282612b78565b6120316008612d4f8361288e565b50505050565b8173ffffffffffffffffffffffffffffffffffffffff168373ffffffffffffffffffffffffffffffffffffffff16141580156120735750600081115b1561222b57600073ffffffffffffffffffffffffffffffffffffffff168373ffffffffffffffffffffffffffffffffffffffff1614612151576000806120fa600760008773ffffffffffffffffffffffffffffffffffffffff1673ffffffffffffffffffffffffffffffffffffffff168152602001908152602001600020612d4f8561288e565b915091508473ffffffffffffffffffffffffffffffffffffffff167fdec2bacdd2f05b59de34da9b523dff8be42e5e38e818c82fdb0bae774387a7248383604051612146929190613b0d565b60405180910390a250505b600073ffffffffffffffffffffffffffffffffffffffff168273ffffffffffffffffffffffffffffffffffffffff161461222a576000806121d3600760008673ffffffffffffffffffffffffffffffffffffffff1673ffffffffffffffffffffffffffffffffffffffff1681526020019081526020016000206128788561288e565b915091508373ffffffffffffffffffffffffffffffffffffffff167fdec2bacdd2f05b59de34da9b523dff8be42e5e38e818c82fdb0bae774387a724838360405161221f929190613b0d565b60405180910390a250505b5b505050565b600082826040516020016122459291906135af565b60405160208183030381529060405280519060200120905092915050565b6000807f7fffffffffffffffffffffffffffffff5d576e7357a4501ddfe92f46681b20a08360001c111561229e576000600391509150612367565b601b8560ff16141580156122b65750601c8560ff1614155b156122c8576000600491509150612367565b6000600187878787604051600081526020016040526040516122ed9493929190613730565b6020604051602081039080840390855afa15801561230f573d6000803e3d6000fd5b505050602060405103519050600073ffffffffffffffffffffffffffffffffffffffff168173ffffffffffffffffffffffffffffffffffffffff16141561235e57600060019250925050612367565b80600092509250505b94509492505050565b600060048111156123aa577f4e487b7100000000000000000000000000000000000000000000000000000000600052602160045260246000fd5b8160048111156123e3577f4e487b7100000000000000000000000000000000000000000000000000000000600052602160045260246000fd5b14156123ee576126be565b60016004811115612428577f4e487b7100000000000000000000000000000000000000000000000000000000600052602160045260246000fd5b816004811115612461577f4e487b7100000000000000000000000000000000000000000000000000000000600052602160045260246000fd5b14156124a2576040517f08c379a000000000000000000000000000000000000000000000000000000000815260040161249990613797565b60405180910390fd5b600260048111156124dc577f4e487b7100000000000000000000000000000000000000000000000000000000600052602160045260246000fd5b816004811115612515577f4e487b7100000000000000000000000000000000000000000000000000000000600052602160045260246000fd5b1415612556576040517f08c379a000000000000000000000000000000000000000000000000000000000815260040161254d90613857565b60405180910390fd5b60036004811115612590577f4e487b7100000000000000000000000000000000000000000000000000000000600052602160045260246000fd5b8160048111156125c9577f4e487b7100000000000000000000000000000000000000000000000000000000600052602160045260246000fd5b141561260a576040517f08c379a000000000000000000000000000000000000000000000000000000000815260040161260190613937565b60405180910390fd5b600480811115612643577f4e487b7100000000000000000000000000000000000000000000000000000000600052602160045260246000fd5b81600481111561267c577f4e487b7100000000000000000000000000000000000000000000000000000000600052602160045260246000fd5b14156126bd576040517f08c379a00000000000000000000000000000000000000000000000000000000081526004016126b490613957565b60405180910390fd5b5b50565b6001816000016000828254019250508190555050565b6126e2838383612d65565b6126fd6126ee84610976565b6126f784610976565b83612037565b505050565b600073ffffffffffffffffffffffffffffffffffffffff168273ffffffffffffffffffffffffffffffffffffffff161415612772576040517f08c379a000000000000000000000000000000000000000000000000000000000815260040161276990613ab7565b60405180910390fd5b61277e60008383611f17565b80600260008282546127909190613bae565b92505081905550806000808473ffffffffffffffffffffffffffffffffffffffff1673ffffffffffffffffffffffffffffffffffffffff16815260200190815260200160002060008282546127e59190613bae565b925050819055508173ffffffffffffffffffffffffffffffffffffffff16600073ffffffffffffffffffffffffffffffffffffffff167fddf252ad1be2c89b69c2b068fc378daa952ba7f163c4a11628f55a4df523b3ef8360405161284a9190613af2565b60405180910390a361285e60008383611f1c565b5050565b60006bffffffffffffffffffffffff8016905090565b600081836128869190613bae565b905092915050565b6000806000858054905090506000811461292257856001826128b09190613c35565b815481106128e7577f4e487b7100000000000000000000000000000000000000000000000000000000600052603260045260246000fd5b9060005260206000200160000160049054906101000a90047bffffffffffffffffffffffffffffffffffffffffffffffffffffffff16612925565b60005b7bffffffffffffffffffffffffffffffffffffffffffffffffffffffff16925061295383858763ffffffff16565b91506000811180156129cc5750438660018361296f9190613c35565b815481106129a6577f4e487b7100000000000000000000000000000000000000000000000000000000600052603260045260246000fd5b9060005260206000200160000160009054906101000a900463ffffffff1663ffffffff16145b15612a7f576129da82612d6a565b866001836129e89190613c35565b81548110612a1f577f4e487b7100000000000000000000000000000000000000000000000000000000600052603260045260246000fd5b9060005260206000200160000160046101000a8154817bffffffffffffffffffffffffffffffffffffffffffffffffffffffff02191690837bffffffffffffffffffffffffffffffffffffffffffffffffffffffff160217905550612b6f565b856040518060400160405280612a9443611cf2565b63ffffffff168152602001612aa885612d6a565b7bffffffffffffffffffffffffffffffffffffffffffffffffffffffff168152509080600181540180825580915050600190039060005260206000200160009091909190915060008201518160000160006101000a81548163ffffffff021916908363ffffffff16021790555060208201518160000160046101000a8154817bffffffffffffffffffffffffffffffffffffffffffffffffffffffff02191690837bffffffffffffffffffffffffffffffffffffffffffffffffffffffff16021790555050505b50935093915050565b600073ffffffffffffffffffffffffffffffffffffffff168273ffffffffffffffffffffffffffffffffffffffff161415612be8576040517f08c379a0000000000000000000000000000000000000000000000000000000008152600401612bdf906139f7565b60405180910390fd5b612bf482600083611f17565b60008060008473ffffffffffffffffffffffffffffffffffffffff1673ffffffffffffffffffffffffffffffffffffffff16815260200190815260200160002054905081811015612c7a576040517f08c379a0000000000000000000000000000000000000000000000000000000008152600401612c7190613837565b60405180910390fd5b8181036000808573ffffffffffffffffffffffffffffffffffffffff1673ffffffffffffffffffffffffffffffffffffffff168152602001908152602001600020819055508160026000828254612cd19190613c35565b92505081905550600073ffffffffffffffffffffffffffffffffffffffff168373ffffffffffffffffffffffffffffffffffffffff167fddf252ad1be2c89b69c2b068fc378daa952ba7f163c4a11628f55a4df523b3ef84604051612d369190613af2565b60405180910390a3612d4a83600084611f1c565b505050565b60008183612d5d9190613c35565b905092915050565b505050565b60007bffffffffffffffffffffffffffffffffffffffffffffffffffffffff8016821115612dcd576040517f08c379a0000000000000000000000000000000000000000000000000000000008152600401612dc4906139d7565b60405180910390fd5b819050919050565b6040518060400160405280600063ffffffff16815260200160007bffffffffffffffffffffffffffffffffffffffffffffffffffffffff1681525090565b600081359050612e22816144b2565b92915050565b600081359050612e37816144c9565b92915050565b600081359050612e4c816144e0565b92915050565b600081359050612e61816144f7565b92915050565b600081359050612e768161450e565b92915050565b600060208284031215612e8e57600080fd5b6000612e9c84828501612e13565b91505092915050565b60008060408385031215612eb857600080fd5b6000612ec685828601612e13565b9250506020612ed785828601612e13565b9150509250929050565b600080600060608486031215612ef657600080fd5b6000612f0486828701612e13565b9350506020612f1586828701612e13565b9250506040612f2686828701612e3d565b9150509250925092565b600080600080600080600060e0888a031215612f4b57600080fd5b6000612f598a828b01612e13565b9750506020612f6a8a828b01612e13565b9650506040612f7b8a828b01612e3d565b9550506060612f8c8a828b01612e3d565b9450506080612f9d8a828b01612e67565b93505060a0612fae8a828b01612e28565b92505060c0612fbf8a828b01612e28565b91505092959891949750929550565b60008060408385031215612fe157600080fd5b6000612fef85828601612e13565b925050602061300085828601612e3d565b9150509250929050565b60008060008060008060c0878903121561302357600080fd5b600061303189828a01612e13565b965050602061304289828a01612e3d565b955050604061305389828a01612e3d565b945050606061306489828a01612e67565b935050608061307589828a01612e28565b92505060a061308689828a01612e28565b9150509295509295509295565b600080604083850312156130a657600080fd5b60006130b485828601612e13565b92505060206130c585828601612e52565b9150509250929050565b6000602082840312156130e157600080fd5b60006130ef84828501612e3d565b91505092915050565b61310181613c69565b82525050565b61311081613c7b565b82525050565b61311f81613c87565b82525050565b61313661313182613c87565b613d7d565b82525050565b600061314782613b87565b6131518185613b92565b9350613161818560208601613d18565b61316a81613e14565b840191505092915050565b6000613182601883613b92565b915061318d82613e25565b602082019050919050565b60006131a5602383613b92565b91506131b082613e4e565b604082019050919050565b60006131c8602683613b92565b91506131d382613e9d565b604082019050919050565b60006131eb601f83613b92565b91506131f682613eec565b602082019050919050565b600061320e601d83613b92565b915061321982613f15565b602082019050919050565b6000613231602283613b92565b915061323c82613f3e565b604082019050919050565b6000613254601f83613b92565b915061325f82613f8d565b602082019050919050565b6000613277601983613b92565b915061328282613fb6565b602082019050919050565b600061329a602683613b92565b91506132a582613fdf565b604082019050919050565b60006132bd602283613b92565b91506132c88261402e565b604082019050919050565b60006132e0600283613ba3565b91506132eb8261407d565b600282019050919050565b6000613303601d83613b92565b915061330e826140a6565b602082019050919050565b6000613326601d83613b92565b9150613331826140cf565b602082019050919050565b6000613349602683613b92565b9150613354826140f8565b604082019050919050565b600061336c602283613b92565b915061337782614147565b604082019050919050565b600061338f602283613b92565b915061339a82614196565b604082019050919050565b60006133b2601e83613b92565b91506133bd826141e5565b602082019050919050565b60006133d5603083613b92565b91506133e08261420e565b604082019050919050565b60006133f8602083613b92565b91506134038261425d565b602082019050919050565b600061341b602783613b92565b915061342682614286565b604082019050919050565b600061343e602183613b92565b9150613449826142d5565b604082019050919050565b6000613461602583613b92565b915061346c82614324565b604082019050919050565b6000613484601983613b92565b915061348f82614373565b602082019050919050565b60006134a7602683613b92565b91506134b28261439c565b604082019050919050565b60006134ca602483613b92565b91506134d5826143eb565b604082019050919050565b60006134ed602583613b92565b91506134f88261443a565b604082019050919050565b6000613510601f83613b92565b915061351b82614489565b602082019050919050565b60408201600082015161353c6000850182613573565b50602082015161354f6020850182613555565b50505050565b61355e81613cb1565b82525050565b61356d81613cd9565b82525050565b61357c81613ce3565b82525050565b61358b81613ce3565b82525050565b61359a81613cf3565b82525050565b6135a981613d00565b82525050565b60006135ba826132d3565b91506135c68285613125565b6020820191506135d68284613125565b6020820191508190509392505050565b60006020820190506135fb60008301846130f8565b92915050565b60006020820190506136166000830184613107565b92915050565b60006020820190506136316000830184613116565b92915050565b600060c08201905061364c6000830189613116565b61365960208301886130f8565b61366660408301876130f8565b6136736060830186613564565b6136806080830185613564565b61368d60a0830184613564565b979650505050505050565b60006080820190506136ad6000830187613116565b6136ba60208301866130f8565b6136c76040830185613564565b6136d46060830184613564565b95945050505050565b600060a0820190506136f26000830188613116565b6136ff6020830187613116565b61370c6040830186613116565b6137196060830185613564565b61372660808301846130f8565b9695505050505050565b60006080820190506137456000830187613116565b6137526020830186613591565b61375f6040830185613116565b61376c6060830184613116565b95945050505050565b6000602082019050818103600083015261378f818461313c565b905092915050565b600060208201905081810360008301526137b081613175565b9050919050565b600060208201905081810360008301526137d081613198565b9050919050565b600060208201905081810360008301526137f0816131bb565b9050919050565b60006020820190508181036000830152613810816131de565b9050919050565b6000602082019050818103600083015261383081613201565b9050919050565b6000602082019050818103600083015261385081613224565b9050919050565b6000602082019050818103600083015261387081613247565b9050919050565b600060208201905081810360008301526138908161326a565b9050919050565b600060208201905081810360008301526138b08161328d565b9050919050565b600060208201905081810360008301526138d0816132b0565b9050919050565b600060208201905081810360008301526138f0816132f6565b9050919050565b6000602082019050818103600083015261391081613319565b9050919050565b600060208201905081810360008301526139308161333c565b9050919050565b600060208201905081810360008301526139508161335f565b9050919050565b6000602082019050818103600083015261397081613382565b9050919050565b60006020820190508181036000830152613990816133a5565b9050919050565b600060208201905081810360008301526139b0816133c8565b9050919050565b600060208201905081810360008301526139d0816133eb565b9050919050565b600060208201905081810360008301526139f08161340e565b9050919050565b60006020820190508181036000830152613a1081613431565b9050919050565b60006020820190508181036000830152613a3081613454565b9050919050565b60006020820190508181036000830152613a5081613477565b9050919050565b60006020820190508181036000830152613a708161349a565b9050919050565b60006020820190508181036000830152613a90816134bd565b9050919050565b60006020820190508181036000830152613ab0816134e0565b9050919050565b60006020820190508181036000830152613ad081613503565b9050919050565b6000604082019050613aec6000830184613526565b92915050565b6000602082019050613b076000830184613564565b92915050565b6000604082019050613b226000830185613564565b613b2f6020830184613564565b9392505050565b6000602082019050613b4b6000830184613582565b92915050565b6000602082019050613b666000830184613591565b92915050565b6000602082019050613b8160008301846135a0565b92915050565b600081519050919050565b600082825260208201905092915050565b600081905092915050565b6000613bb982613cd9565b9150613bc483613cd9565b9250827fffffffffffffffffffffffffffffffffffffffffffffffffffffffffffffffff03821115613bf957613bf8613d87565b5b828201905092915050565b6000613c0f82613cd9565b9150613c1a83613cd9565b925082613c2a57613c29613db6565b5b828204905092915050565b6000613c4082613cd9565b9150613c4b83613cd9565b925082821015613c5e57613c5d613d87565b5b828203905092915050565b6000613c7482613c91565b9050919050565b60008115159050919050565b6000819050919050565b600073ffffffffffffffffffffffffffffffffffffffff82169050919050565b60007bffffffffffffffffffffffffffffffffffffffffffffffffffffffff82169050919050565b6000819050919050565b600063ffffffff82169050919050565b600060ff82169050919050565b60006bffffffffffffffffffffffff82169050919050565b60005b83811015613d36578082015181840152602081019050613d1b565b83811115613d45576000848401525b50505050565b60006002820490506001821680613d6357607f821691505b60208210811415613d7757613d76613de5565b5b50919050565b6000819050919050565b7f4e487b7100000000000000000000000000000000000000000000000000000000600052601160045260246000fd5b7f4e487b7100000000000000000000000000000000000000000000000000000000600052601260045260246000fd5b7f4e487b7100000000000000000000000000000000000000000000000000000000600052602260045260246000fd5b6000601f19601f8301169050919050565b7f45434453413a20696e76616c6964207369676e61747572650000000000000000600082015250565b7f45524332303a207472616e7366657220746f20746865207a65726f206164647260008201527f6573730000000000000000000000000000000000000000000000000000000000602082015250565b7f53616665436173743a2076616c756520646f65736e27742066697420696e203960008201527f3620626974730000000000000000000000000000000000000000000000000000602082015250565b7f4552433230566f7465733a20626c6f636b206e6f7420796574206d696e656400600082015250565b7f4552433230566f7465733a207369676e61747572652065787069726564000000600082015250565b7f45524332303a206275726e20616d6f756e7420657863656564732062616c616e60008201527f6365000000000000000000000000000000000000000000000000000000000000602082015250565b7f45434453413a20696e76616c6964207369676e6174757265206c656e67746800600082015250565b7f4552433230566f7465733a20696e76616c6964206e6f6e636500000000000000600082015250565b7f4f776e61626c653a206e6577206f776e657220697320746865207a65726f206160008201527f6464726573730000000000000000000000000000000000000000000000000000602082015250565b7f45524332303a20617070726f766520746f20746865207a65726f20616464726560008201527f7373000000000000000000000000000000000000000000000000000000000000602082015250565b7f1901000000000000000000000000000000000000000000000000000000000000600082015250565b7f45524332303a20696e73756666696369656e7420616c6c6f77616e6365000000600082015250565b7f45524332305065726d69743a206578706972656420646561646c696e65000000600082015250565b7f45524332303a207472616e7366657220616d6f756e742065786365656473206260008201527f616c616e63650000000000000000000000000000000000000000000000000000602082015250565b7f45434453413a20696e76616c6964207369676e6174757265202773272076616c60008201527f7565000000000000000000000000000000000000000000000000000000000000602082015250565b7f45434453413a20696e76616c6964207369676e6174757265202776272076616c60008201527f7565000000000000000000000000000000000000000000000000000000000000602082015250565b7f45524332305065726d69743a20696e76616c6964207369676e61747572650000600082015250565b7f4552433230566f7465733a20746f74616c20737570706c79207269736b73206f60008201527f766572666c6f77696e6720766f74657300000000000000000000000000000000602082015250565b7f4f776e61626c653a2063616c6c6572206973206e6f7420746865206f776e6572600082015250565b7f53616665436173743a2076616c756520646f65736e27742066697420696e203260008201527f3234206269747300000000000000000000000000000000000000000000000000602082015250565b7f45524332303a206275726e2066726f6d20746865207a65726f2061646472657360008201527f7300000000000000000000000000000000000000000000000000000000000000602082015250565b7f45524332303a207472616e736665722066726f6d20746865207a65726f20616460008201527f6472657373000000000000000000000000000000000000000000000000000000602082015250565b7f45524332304361707065643a2063617020657863656564656400000000000000600082015250565b7f53616665436173743a2076616c756520646f65736e27742066697420696e203360008201527f3220626974730000000000000000000000000000000000000000000000000000602082015250565b7f45524332303a20617070726f76652066726f6d20746865207a65726f2061646460008201527f7265737300000000000000000000000000000000000000000000000000000000602082015250565b7f45524332303a2064656372656173656420616c6c6f77616e63652062656c6f7760008201527f207a65726f000000000000000000000000000000000000000000000000000000602082015250565b7f45524332303a206d696e7420746f20746865207a65726f206164647265737300600082015250565b6144bb81613c69565b81146144c657600080fd5b50565b6144d281613c87565b81146144dd57600080fd5b50565b6144e981613cd9565b81146144f457600080fd5b50565b61450081613ce3565b811461450b57600080fd5b50565b61451781613cf3565b811461452257600080fd5b5056fea2646970667358221220f77c83c8b4b4259917fb1537ea0b38697d12fb343cf453371c4939f85dcaceec64736f6c63430008040033",
  "linkReferences": {},
  "deployedLinkReferences": {}
}