{
  "_format": "hh-sol-artifact-1",
  "contractName": "KaiDexToken",
  "sourceName": "contracts/KaidexToken.sol",
  "abi": [
    {
      "anonymous": false,
      "inputs": [
        {
          "indexed": true,
          "internalType": "address",
          "name": "owner",
          "type": "address"
        },
        {
          "indexed": true,
          "internalType": "address",
          "name": "spender",
          "type": "address"
        },
        {
          "indexed": false,
          "internalType": "uint256",
          "name": "value",
          "type": "uint256"
        }
      ],
      "name": "Approval",
      "type": "event"
    },
    {
      "anonymous": false,
      "inputs": [
        {
          "indexed": true,
          "internalType": "address",
          "name": "delegator",
          "type": "address"
        },
        {
          "indexed": true,
          "internalType": "address",
          "name": "fromDelegate",
          "type": "address"
        },
        {
          "indexed": true,
          "internalType": "address",
          "name": "toDelegate",
          "type": "address"
        }
      ],
      "name": "DelegateChanged",
      "type": "event"
    },
    {
      "anonymous": false,
      "inputs": [
        {
          "indexed": true,
          "internalType": "address",
          "name": "delegate",
          "type": "address"
        },
        {
          "indexed": false,
          "internalType": "uint256",
          "name": "previousBalance",
          "type": "uint256"
        },
        {
          "indexed": false,
          "internalType": "uint256",
          "name": "newBalance",
          "type": "uint256"
        }
      ],
      "name": "DelegateVotesChanged",
      "type": "event"
    },
    {
      "anonymous": false,
      "inputs": [
        {
          "indexed": true,
          "internalType": "address",
          "name": "previousOwner",
          "type": "address"
        },
        {
          "indexed": true,
          "internalType": "address",
          "name": "newOwner",
          "type": "address"
        }
      ],
      "name": "OwnershipTransferred",
      "type": "event"
    },
    {
      "anonymous": false,
      "inputs": [
        {
          "indexed": true,
          "internalType": "address",
          "name": "from",
          "type": "address"
        },
        {
          "indexed": true,
          "internalType": "address",
          "name": "to",
          "type": "address"
        },
        {
          "indexed": false,
          "internalType": "uint256",
          "name": "value",
          "type": "uint256"
        }
      ],
      "name": "Transfer",
      "type": "event"
    },
    {
      "inputs": [],
      "name": "DELEGATION_TYPEHASH",
      "outputs": [
        {
          "internalType": "bytes32",
          "name": "",
          "type": "bytes32"
        }
      ],
      "stateMutability": "view",
      "type": "function"
    },
    {
      "inputs": [],
      "name": "DOMAIN_TYPEHASH",
      "outputs": [
        {
          "internalType": "bytes32",
          "name": "",
          "type": "bytes32"
        }
      ],
      "stateMutability": "view",
      "type": "function"
    },
    {
      "inputs": [
        {
          "internalType": "address",
          "name": "owner",
          "type": "address"
        },
        {
          "internalType": "address",
          "name": "spender",
          "type": "address"
        }
      ],
      "name": "allowance",
      "outputs": [
        {
          "internalType": "uint256",
          "name": "",
          "type": "uint256"
        }
      ],
      "stateMutability": "view",
      "type": "function"
    },
    {
      "inputs": [
        {
          "internalType": "address",
          "name": "spender",
          "type": "address"
        },
        {
          "internalType": "uint256",
          "name": "amount",
          "type": "uint256"
        }
      ],
      "name": "approve",
      "outputs": [
        {
          "internalType": "bool",
          "name": "",
          "type": "bool"
        }
      ],
      "stateMutability": "nonpayable",
      "type": "function"
    },
    {
      "inputs": [
        {
          "internalType": "address",
          "name": "account",
          "type": "address"
        }
      ],
      "name": "balanceOf",
      "outputs": [
        {
          "internalType": "uint256",
          "name": "",
          "type": "uint256"
        }
      ],
      "stateMutability": "view",
      "type": "function"
    },
    {
      "inputs": [
        {
          "internalType": "address",
          "name": "",
          "type": "address"
        },
        {
          "internalType": "uint32",
          "name": "",
          "type": "uint32"
        }
      ],
      "name": "checkpoints",
      "outputs": [
        {
          "internalType": "uint32",
          "name": "fromBlock",
          "type": "uint32"
        },
        {
          "internalType": "uint256",
          "name": "votes",
          "type": "uint256"
        }
      ],
      "stateMutability": "view",
      "type": "function"
    },
    {
      "inputs": [],
      "name": "decimals",
      "outputs": [
        {
          "internalType": "uint8",
          "name": "",
          "type": "uint8"
        }
      ],
      "stateMutability": "view",
      "type": "function"
    },
    {
      "inputs": [
        {
          "internalType": "address",
          "name": "spender",
          "type": "address"
        },
        {
          "internalType": "uint256",
          "name": "subtractedValue",
          "type": "uint256"
        }
      ],
      "name": "decreaseAllowance",
      "outputs": [
        {
          "internalType": "bool",
          "name": "",
          "type": "bool"
        }
      ],
      "stateMutability": "nonpayable",
      "type": "function"
    },
    {
      "inputs": [
        {
          "internalType": "address",
          "name": "delegatee",
          "type": "address"
        }
      ],
      "name": "delegate",
      "outputs": [],
      "stateMutability": "nonpayable",
      "type": "function"
    },
    {
      "inputs": [
        {
          "internalType": "address",
          "name": "delegatee",
          "type": "address"
        },
        {
          "internalType": "uint256",
          "name": "nonce",
          "type": "uint256"
        },
        {
          "internalType": "uint256",
          "name": "expiry",
          "type": "uint256"
        },
        {
          "internalType": "uint8",
          "name": "v",
          "type": "uint8"
        },
        {
          "internalType": "bytes32",
          "name": "r",
          "type": "bytes32"
        },
        {
          "internalType": "bytes32",
          "name": "s",
          "type": "bytes32"
        }
      ],
      "name": "delegateBySig",
      "outputs": [],
      "stateMutability": "nonpayable",
      "type": "function"
    },
    {
      "inputs": [
        {
          "internalType": "address",
          "name": "delegator",
          "type": "address"
        }
      ],
      "name": "delegates",
      "outputs": [
        {
          "internalType": "address",
          "name": "",
          "type": "address"
        }
      ],
      "stateMutability": "view",
      "type": "function"
    },
    {
      "inputs": [
        {
          "internalType": "address",
          "name": "account",
          "type": "address"
        }
      ],
      "name": "getCurrentVotes",
      "outputs": [
        {
          "internalType": "uint256",
          "name": "",
          "type": "uint256"
        }
      ],
      "stateMutability": "view",
      "type": "function"
    },
    {
      "inputs": [
        {
          "internalType": "address",
          "name": "account",
          "type": "address"
        },
        {
          "internalType": "uint256",
          "name": "blockNumber",
          "type": "uint256"
        }
      ],
      "name": "getPriorVotes",
      "outputs": [
        {
          "internalType": "uint256",
          "name": "",
          "type": "uint256"
        }
      ],
      "stateMutability": "view",
      "type": "function"
    },
    {
      "inputs": [
        {
          "internalType": "address",
          "name": "spender",
          "type": "address"
        },
        {
          "internalType": "uint256",
          "name": "addedValue",
          "type": "uint256"
        }
      ],
      "name": "increaseAllowance",
      "outputs": [
        {
          "internalType": "bool",
          "name": "",
          "type": "bool"
        }
      ],
      "stateMutability": "nonpayable",
      "type": "function"
    },
    {
      "inputs": [
        {
          "internalType": "address",
          "name": "_to",
          "type": "address"
        },
        {
          "internalType": "uint256",
          "name": "_amount",
          "type": "uint256"
        }
      ],
      "name": "mint",
      "outputs": [],
      "stateMutability": "nonpayable",
      "type": "function"
    },
    {
      "inputs": [],
      "name": "name",
      "outputs": [
        {
          "internalType": "string",
          "name": "",
          "type": "string"
        }
      ],
      "stateMutability": "view",
      "type": "function"
    },
    {
      "inputs": [
        {
          "internalType": "address",
          "name": "",
          "type": "address"
        }
      ],
      "name": "nonces",
      "outputs": [
        {
          "internalType": "uint256",
          "name": "",
          "type": "uint256"
        }
      ],
      "stateMutability": "view",
      "type": "function"
    },
    {
      "inputs": [
        {
          "internalType": "address",
          "name": "",
          "type": "address"
        }
      ],
      "name": "numCheckpoints",
      "outputs": [
        {
          "internalType": "uint32",
          "name": "",
          "type": "uint32"
        }
      ],
      "stateMutability": "view",
      "type": "function"
    },
    {
      "inputs": [],
      "name": "owner",
      "outputs": [
        {
          "internalType": "address",
          "name": "",
          "type": "address"
        }
      ],
      "stateMutability": "view",
      "type": "function"
    },
    {
      "inputs": [],
      "name": "renounceOwnership",
      "outputs": [],
      "stateMutability": "nonpayable",
      "type": "function"
    },
    {
      "inputs": [],
      "name": "symbol",
      "outputs": [
        {
          "internalType": "string",
          "name": "",
          "type": "string"
        }
      ],
      "stateMutability": "view",
      "type": "function"
    },
    {
      "inputs": [],
      "name": "totalSupply",
      "outputs": [
        {
          "internalType": "uint256",
          "name": "",
          "type": "uint256"
        }
      ],
      "stateMutability": "view",
      "type": "function"
    },
    {
      "inputs": [
        {
          "internalType": "address",
          "name": "to",
          "type": "address"
        },
        {
          "internalType": "uint256",
          "name": "amount",
          "type": "uint256"
        }
      ],
      "name": "transfer",
      "outputs": [
        {
          "internalType": "bool",
          "name": "",
          "type": "bool"
        }
      ],
      "stateMutability": "nonpayable",
      "type": "function"
    },
    {
      "inputs": [
        {
          "internalType": "address",
          "name": "from",
          "type": "address"
        },
        {
          "internalType": "address",
          "name": "to",
          "type": "address"
        },
        {
          "internalType": "uint256",
          "name": "amount",
          "type": "uint256"
        }
      ],
      "name": "transferFrom",
      "outputs": [
        {
          "internalType": "bool",
          "name": "",
          "type": "bool"
        }
      ],
      "stateMutability": "nonpayable",
      "type": "function"
    },
    {
      "inputs": [
        {
          "internalType": "address",
          "name": "newOwner",
          "type": "address"
        }
      ],
      "name": "transferOwnership",
      "outputs": [],
      "stateMutability": "nonpayable",
      "type": "function"
    }
  ],
  "bytecode": "0x60806040523480156200001157600080fd5b506040518060400160405280600b81526020017f4b6169646578546f6b656e0000000000000000000000000000000000000000008152506040518060400160405280600381526020017f4b44580000000000000000000000000000000000000000000000000000000000815250816003908051906020019062000096929190620001a6565b508060049080519060200190620000af929190620001a6565b505050620000d2620000c6620000d860201b60201c565b620000e060201b60201c565b620002bb565b600033905090565b6000600560009054906101000a900473ffffffffffffffffffffffffffffffffffffffff16905081600560006101000a81548173ffffffffffffffffffffffffffffffffffffffff021916908373ffffffffffffffffffffffffffffffffffffffff1602179055508173ffffffffffffffffffffffffffffffffffffffff168173ffffffffffffffffffffffffffffffffffffffff167f8be0079c531659141344cd1fd0a4f28419497f9722a3daafe3b4186f6b6457e060405160405180910390a35050565b828054620001b49062000256565b90600052602060002090601f016020900481019282620001d8576000855562000224565b82601f10620001f357805160ff191683800117855562000224565b8280016001018555821562000224579182015b828111156200022357825182559160200191906001019062000206565b5b50905062000233919062000237565b5090565b5b808211156200025257600081600090555060010162000238565b5090565b600060028204905060018216806200026f57607f821691505b602082108114156200028657620002856200028c565b5b50919050565b7f4e487b7100000000000000000000000000000000000000000000000000000000600052602260045260246000fd5b61337e80620002cb6000396000f3fe608060405234801561001057600080fd5b50600436106101735760003560e01c8063715018a6116100de578063a9059cbb11610097578063dd62ed3e11610071578063dd62ed3e1461049a578063e7a324dc146104ca578063f1127ed8146104e8578063f2fde38b1461051957610173565b8063a9059cbb1461041e578063b4b5ea571461044e578063c3cda5201461047e57610173565b8063715018a614610348578063782d6fe1146103525780637ecebe00146103825780638da5cb5b146103b257806395d89b41146103d0578063a457c2d7146103ee57610173565b80633950935111610130578063395093511461025057806340c10f1914610280578063587cde1e1461029c5780635c19a95c146102cc5780636fcfff45146102e857806370a082311461031857610173565b806306fdde0314610178578063095ea7b31461019657806318160ddd146101c657806320606b70146101e457806323b872dd14610202578063313ce56714610232575b600080fd5b610180610535565b60405161018d91906128fc565b60405180910390f35b6101b060048036038101906101ab91906123ed565b6105c7565b6040516101bd91906127f7565b60405180910390f35b6101ce6105ea565b6040516101db9190612ade565b60405180910390f35b6101ec6105f4565b6040516101f99190612812565b60405180910390f35b61021c6004803603810190610217919061239e565b610618565b60405161022991906127f7565b60405180910390f35b61023a610647565b6040516102479190612b66565b60405180910390f35b61026a600480360381019061026591906123ed565b610650565b60405161027791906127f7565b60405180910390f35b61029a600480360381019061029591906123ed565b6106fa565b005b6102b660048036038101906102b19190612339565b6107ef565b6040516102c391906127dc565b60405180910390f35b6102e660048036038101906102e19190612339565b610858565b005b61030260048036038101906102fd9190612339565b610865565b60405161030f9190612b22565b60405180910390f35b610332600480360381019061032d9190612339565b610888565b60405161033f9190612ade565b60405180910390f35b6103506108d0565b005b61036c600480360381019061036791906123ed565b610958565b6040516103799190612ade565b60405180910390f35b61039c60048036038101906103979190612339565b610d2f565b6040516103a99190612ade565b60405180910390f35b6103ba610d47565b6040516103c791906127dc565b60405180910390f35b6103d8610d71565b6040516103e591906128fc565b60405180910390f35b610408600480360381019061040391906123ed565b610e03565b60405161041591906127f7565b60405180910390f35b610438600480360381019061043391906123ed565b610eed565b60405161044591906127f7565b60405180910390f35b61046860048036038101906104639190612339565b610f10565b6040516104759190612ade565b60405180910390f35b61049860048036038101906104939190612429565b610fef565b005b6104b460048036038101906104af9190612362565b611284565b6040516104c19190612ade565b60405180910390f35b6104d261130b565b6040516104df9190612812565b60405180910390f35b61050260048036038101906104fd91906124b2565b61132f565b604051610510929190612b3d565b60405180910390f35b610533600480360381019061052e9190612339565b611370565b005b60606003805461054490612d73565b80601f016020809104026020016040519081016040528092919081815260200182805461057090612d73565b80156105bd5780601f10610592576101008083540402835291602001916105bd565b820191906000526020600020905b8154815290600101906020018083116105a057829003601f168201915b5050505050905090565b6000806105d2611468565b90506105df818585611470565b600191505092915050565b6000600254905090565b7f8cad95687ba82c2ce50e74f7b754645e5117c3a5bec8151c0726d5857980a86681565b600080610623611468565b905061063085828561163b565b61063b8585856116c7565b60019150509392505050565b60006012905090565b60008061065b611468565b90506106ef818585600160008673ffffffffffffffffffffffffffffffffffffffff1673ffffffffffffffffffffffffffffffffffffffff16815260200190815260200160002060008973ffffffffffffffffffffffffffffffffffffffff1673ffffffffffffffffffffffffffffffffffffffff168152602001908152602001600020546106ea9190612ba8565b611470565b600191505092915050565b610702611468565b73ffffffffffffffffffffffffffffffffffffffff16610720610d47565b73ffffffffffffffffffffffffffffffffffffffff1614610776576040517f08c379a000000000000000000000000000000000000000000000000000000000815260040161076d90612a1e565b60405180910390fd5b6107808282611948565b6107eb6000600660008573ffffffffffffffffffffffffffffffffffffffff1673ffffffffffffffffffffffffffffffffffffffff16815260200190815260200160002060009054906101000a900473ffffffffffffffffffffffffffffffffffffffff1683611aa8565b5050565b6000600660008373ffffffffffffffffffffffffffffffffffffffff1673ffffffffffffffffffffffffffffffffffffffff16815260200190815260200160002060009054906101000a900473ffffffffffffffffffffffffffffffffffffffff169050919050565b6108623382611d57565b50565b60086020528060005260406000206000915054906101000a900463ffffffff1681565b60008060008373ffffffffffffffffffffffffffffffffffffffff1673ffffffffffffffffffffffffffffffffffffffff168152602001908152602001600020549050919050565b6108d8611468565b73ffffffffffffffffffffffffffffffffffffffff166108f6610d47565b73ffffffffffffffffffffffffffffffffffffffff161461094c576040517f08c379a000000000000000000000000000000000000000000000000000000000815260040161094390612a1e565b60405180910390fd5b6109566000611ec8565b565b600043821061099c576040517f08c379a0000000000000000000000000000000000000000000000000000000008152600401610993906129fe565b60405180910390fd5b6000600860008573ffffffffffffffffffffffffffffffffffffffff1673ffffffffffffffffffffffffffffffffffffffff16815260200190815260200160002060009054906101000a900463ffffffff16905060008163ffffffff161415610a09576000915050610d29565b82600760008673ffffffffffffffffffffffffffffffffffffffff1673ffffffffffffffffffffffffffffffffffffffff1681526020019081526020016000206000600184610a589190612c9d565b63ffffffff1663ffffffff16815260200190815260200160002060000160009054906101000a900463ffffffff1663ffffffff1611610b0557600760008573ffffffffffffffffffffffffffffffffffffffff1673ffffffffffffffffffffffffffffffffffffffff1681526020019081526020016000206000600183610adf9190612c9d565b63ffffffff1663ffffffff16815260200190815260200160002060010154915050610d29565b82600760008673ffffffffffffffffffffffffffffffffffffffff1673ffffffffffffffffffffffffffffffffffffffff16815260200190815260200160002060008063ffffffff16815260200190815260200160002060000160009054906101000a900463ffffffff1663ffffffff161115610b86576000915050610d29565b600080600183610b969190612c9d565b90505b8163ffffffff168163ffffffff161115610cc357600060028383610bbd9190612c9d565b610bc79190612c38565b82610bd29190612c9d565b90506000600760008973ffffffffffffffffffffffffffffffffffffffff1673ffffffffffffffffffffffffffffffffffffffff16815260200190815260200160002060008363ffffffff1663ffffffff1681526020019081526020016000206040518060400160405290816000820160009054906101000a900463ffffffff1663ffffffff1663ffffffff168152602001600182015481525050905086816000015163ffffffff161415610c9257806020015195505050505050610d29565b86816000015163ffffffff161015610cac57819350610cbc565b600182610cb99190612c9d565b92505b5050610b99565b600760008773ffffffffffffffffffffffffffffffffffffffff1673ffffffffffffffffffffffffffffffffffffffff16815260200190815260200160002060008363ffffffff1663ffffffff1681526020019081526020016000206001015493505050505b92915050565b60096020528060005260406000206000915090505481565b6000600560009054906101000a900473ffffffffffffffffffffffffffffffffffffffff16905090565b606060048054610d8090612d73565b80601f0160208091040260200160405190810160405280929190818152602001828054610dac90612d73565b8015610df95780601f10610dce57610100808354040283529160200191610df9565b820191906000526020600020905b815481529060010190602001808311610ddc57829003601f168201915b5050505050905090565b600080610e0e611468565b90506000600160008373ffffffffffffffffffffffffffffffffffffffff1673ffffffffffffffffffffffffffffffffffffffff16815260200190815260200160002060008673ffffffffffffffffffffffffffffffffffffffff1673ffffffffffffffffffffffffffffffffffffffff16815260200190815260200160002054905083811015610ed4576040517f08c379a0000000000000000000000000000000000000000000000000000000008152600401610ecb90612a9e565b60405180910390fd5b610ee18286868403611470565b60019250505092915050565b600080610ef8611468565b9050610f058185856116c7565b600191505092915050565b600080600860008473ffffffffffffffffffffffffffffffffffffffff1673ffffffffffffffffffffffffffffffffffffffff16815260200190815260200160002060009054906101000a900463ffffffff16905060008163ffffffff1611610f7a576000610fe7565b600760008473ffffffffffffffffffffffffffffffffffffffff1673ffffffffffffffffffffffffffffffffffffffff1681526020019081526020016000206000600183610fc89190612c9d565b63ffffffff1663ffffffff168152602001908152602001600020600101545b915050919050565b60007f8cad95687ba82c2ce50e74f7b754645e5117c3a5bec8151c0726d5857980a86661101a610535565b80519060200120611029611f8e565b3060405160200161103d9493929190612872565b60405160208183030381529060405280519060200120905060007fe48329057bfd03d55e49b547132e39cffd9c1820ad7b9d4c5307691425d15adf88888860405160200161108e949392919061282d565b604051602081830303815290604052805190602001209050600082826040516020016110bb9291906127a5565b6040516020818303038152906040528051906020012090506000600182888888604051600081526020016040526040516110f894939291906128b7565b6020604051602081039080840390855afa15801561111a573d6000803e3d6000fd5b505050602060405103519050600073ffffffffffffffffffffffffffffffffffffffff168173ffffffffffffffffffffffffffffffffffffffff161415611196576040517f08c379a000000000000000000000000000000000000000000000000000000000815260040161118d9061293e565b60405180910390fd5b600960008273ffffffffffffffffffffffffffffffffffffffff1673ffffffffffffffffffffffffffffffffffffffff16815260200190815260200160002060008154809291906111e690612da5565b91905055891461122b576040517f08c379a0000000000000000000000000000000000000000000000000000000008152600401611222906129de565b60405180910390fd5b8742111561126e576040517f08c379a000000000000000000000000000000000000000000000000000000000815260040161126590612a3e565b60405180910390fd5b611278818b611d57565b50505050505050505050565b6000600160008473ffffffffffffffffffffffffffffffffffffffff1673ffffffffffffffffffffffffffffffffffffffff16815260200190815260200160002060008373ffffffffffffffffffffffffffffffffffffffff1673ffffffffffffffffffffffffffffffffffffffff16815260200190815260200160002054905092915050565b7fe48329057bfd03d55e49b547132e39cffd9c1820ad7b9d4c5307691425d15adf81565b6007602052816000526040600020602052806000526040600020600091509150508060000160009054906101000a900463ffffffff16908060010154905082565b611378611468565b73ffffffffffffffffffffffffffffffffffffffff16611396610d47565b73ffffffffffffffffffffffffffffffffffffffff16146113ec576040517f08c379a00000000000000000000000000000000000000000000000000000000081526004016113e390612a1e565b60405180910390fd5b600073ffffffffffffffffffffffffffffffffffffffff168173ffffffffffffffffffffffffffffffffffffffff16141561145c576040517f08c379a00000000000000000000000000000000000000000000000000000000081526004016114539061295e565b60405180910390fd5b61146581611ec8565b50565b600033905090565b600073ffffffffffffffffffffffffffffffffffffffff168373ffffffffffffffffffffffffffffffffffffffff1614156114e0576040517f08c379a00000000000000000000000000000000000000000000000000000000081526004016114d790612a7e565b60405180910390fd5b600073ffffffffffffffffffffffffffffffffffffffff168273ffffffffffffffffffffffffffffffffffffffff161415611550576040517f08c379a00000000000000000000000000000000000000000000000000000000081526004016115479061297e565b60405180910390fd5b80600160008573ffffffffffffffffffffffffffffffffffffffff1673ffffffffffffffffffffffffffffffffffffffff16815260200190815260200160002060008473ffffffffffffffffffffffffffffffffffffffff1673ffffffffffffffffffffffffffffffffffffffff168152602001908152602001600020819055508173ffffffffffffffffffffffffffffffffffffffff168373ffffffffffffffffffffffffffffffffffffffff167f8c5be1e5ebec7d5bd14f71427d1e84f3dd0314c0f7b2291e5b200ac8c7c3b9258360405161162e9190612ade565b60405180910390a3505050565b60006116478484611284565b90507fffffffffffffffffffffffffffffffffffffffffffffffffffffffffffffffff81146116c157818110156116b3576040517f08c379a00000000000000000000000000000000000000000000000000000000081526004016116aa9061299e565b60405180910390fd5b6116c08484848403611470565b5b50505050565b600073ffffffffffffffffffffffffffffffffffffffff168373ffffffffffffffffffffffffffffffffffffffff161415611737576040517f08c379a000000000000000000000000000000000000000000000000000000000815260040161172e90612a5e565b60405180910390fd5b600073ffffffffffffffffffffffffffffffffffffffff168273ffffffffffffffffffffffffffffffffffffffff1614156117a7576040517f08c379a000000000000000000000000000000000000000000000000000000000815260040161179e9061291e565b60405180910390fd5b6117b2838383611f9b565b60008060008573ffffffffffffffffffffffffffffffffffffffff1673ffffffffffffffffffffffffffffffffffffffff16815260200190815260200160002054905081811015611838576040517f08c379a000000000000000000000000000000000000000000000000000000000815260040161182f906129be565b60405180910390fd5b8181036000808673ffffffffffffffffffffffffffffffffffffffff1673ffffffffffffffffffffffffffffffffffffffff16815260200190815260200160002081905550816000808573ffffffffffffffffffffffffffffffffffffffff1673ffffffffffffffffffffffffffffffffffffffff16815260200190815260200160002060008282546118cb9190612ba8565b925050819055508273ffffffffffffffffffffffffffffffffffffffff168473ffffffffffffffffffffffffffffffffffffffff167fddf252ad1be2c89b69c2b068fc378daa952ba7f163c4a11628f55a4df523b3ef8460405161192f9190612ade565b60405180910390a3611942848484611fa0565b50505050565b600073ffffffffffffffffffffffffffffffffffffffff168273ffffffffffffffffffffffffffffffffffffffff1614156119b8576040517f08c379a00000000000000000000000000000000000000000000000000000000081526004016119af90612abe565b60405180910390fd5b6119c460008383611f9b565b80600260008282546119d69190612ba8565b92505081905550806000808473ffffffffffffffffffffffffffffffffffffffff1673ffffffffffffffffffffffffffffffffffffffff1681526020019081526020016000206000828254611a2b9190612ba8565b925050819055508173ffffffffffffffffffffffffffffffffffffffff16600073ffffffffffffffffffffffffffffffffffffffff167fddf252ad1be2c89b69c2b068fc378daa952ba7f163c4a11628f55a4df523b3ef83604051611a909190612ade565b60405180910390a3611aa460008383611fa0565b5050565b8173ffffffffffffffffffffffffffffffffffffffff168373ffffffffffffffffffffffffffffffffffffffff1614158015611ae45750600081115b15611d5257600073ffffffffffffffffffffffffffffffffffffffff168373ffffffffffffffffffffffffffffffffffffffff1614611c1d576000600860008573ffffffffffffffffffffffffffffffffffffffff1673ffffffffffffffffffffffffffffffffffffffff16815260200190815260200160002060009054906101000a900463ffffffff1690506000808263ffffffff1611611b87576000611bf4565b600760008673ffffffffffffffffffffffffffffffffffffffff1673ffffffffffffffffffffffffffffffffffffffff1681526020019081526020016000206000600184611bd59190612c9d565b63ffffffff1663ffffffff168152602001908152602001600020600101545b90506000611c0b8483611fa590919063ffffffff16565b9050611c1986848484611fbb565b5050505b600073ffffffffffffffffffffffffffffffffffffffff168273ffffffffffffffffffffffffffffffffffffffff1614611d51576000600860008473ffffffffffffffffffffffffffffffffffffffff1673ffffffffffffffffffffffffffffffffffffffff16815260200190815260200160002060009054906101000a900463ffffffff1690506000808263ffffffff1611611cbb576000611d28565b600760008573ffffffffffffffffffffffffffffffffffffffff1673ffffffffffffffffffffffffffffffffffffffff1681526020019081526020016000206000600184611d099190612c9d565b63ffffffff1663ffffffff168152602001908152602001600020600101545b90506000611d3f848361226490919063ffffffff16565b9050611d4d85848484611fbb565b5050505b5b505050565b6000600660008473ffffffffffffffffffffffffffffffffffffffff1673ffffffffffffffffffffffffffffffffffffffff16815260200190815260200160002060009054906101000a900473ffffffffffffffffffffffffffffffffffffffff1690506000611dc684610888565b905082600660008673ffffffffffffffffffffffffffffffffffffffff1673ffffffffffffffffffffffffffffffffffffffff16815260200190815260200160002060006101000a81548173ffffffffffffffffffffffffffffffffffffffff021916908373ffffffffffffffffffffffffffffffffffffffff1602179055508273ffffffffffffffffffffffffffffffffffffffff168273ffffffffffffffffffffffffffffffffffffffff168573ffffffffffffffffffffffffffffffffffffffff167f3134e8a2e6d97e929a7e54011ea5485d7d196dd5f0ba4d4ef95803e8e3fc257f60405160405180910390a4611ec2828483611aa8565b50505050565b6000600560009054906101000a900473ffffffffffffffffffffffffffffffffffffffff16905081600560006101000a81548173ffffffffffffffffffffffffffffffffffffffff021916908373ffffffffffffffffffffffffffffffffffffffff1602179055508173ffffffffffffffffffffffffffffffffffffffff168173ffffffffffffffffffffffffffffffffffffffff167f8be0079c531659141344cd1fd0a4f28419497f9722a3daafe3b4186f6b6457e060405160405180910390a35050565b6000804690508091505090565b505050565b505050565b60008183611fb39190612c69565b905092915050565b6000611fdf436040518060600160405280603681526020016133136036913961227a565b905060008463ffffffff1611801561207d57508063ffffffff16600760008773ffffffffffffffffffffffffffffffffffffffff1673ffffffffffffffffffffffffffffffffffffffff16815260200190815260200160002060006001876120479190612c9d565b63ffffffff1663ffffffff16815260200190815260200160002060000160009054906101000a900463ffffffff1663ffffffff16145b156120f75781600760008773ffffffffffffffffffffffffffffffffffffffff1673ffffffffffffffffffffffffffffffffffffffff16815260200190815260200160002060006001876120d19190612c9d565b63ffffffff1663ffffffff1681526020019081526020016000206001018190555061220d565b60405180604001604052808263ffffffff16815260200183815250600760008773ffffffffffffffffffffffffffffffffffffffff1673ffffffffffffffffffffffffffffffffffffffff16815260200190815260200160002060008663ffffffff1663ffffffff16815260200190815260200160002060008201518160000160006101000a81548163ffffffff021916908363ffffffff160217905550602082015181600101559050506001846121af9190612bfe565b600860008773ffffffffffffffffffffffffffffffffffffffff1673ffffffffffffffffffffffffffffffffffffffff16815260200190815260200160002060006101000a81548163ffffffff021916908363ffffffff1602179055505b8473ffffffffffffffffffffffffffffffffffffffff167fdec2bacdd2f05b59de34da9b523dff8be42e5e38e818c82fdb0bae774387a7248484604051612255929190612af9565b60405180910390a25050505050565b600081836122729190612ba8565b905092915050565b6000640100000000831082906122c6576040517f08c379a00000000000000000000000000000000000000000000000000000000081526004016122bd91906128fc565b60405180910390fd5b5082905092915050565b6000813590506122df8161329f565b92915050565b6000813590506122f4816132b6565b92915050565b600081359050612309816132cd565b92915050565b60008135905061231e816132e4565b92915050565b600081359050612333816132fb565b92915050565b60006020828403121561234b57600080fd5b6000612359848285016122d0565b91505092915050565b6000806040838503121561237557600080fd5b6000612383858286016122d0565b9250506020612394858286016122d0565b9150509250929050565b6000806000606084860312156123b357600080fd5b60006123c1868287016122d0565b93505060206123d2868287016122d0565b92505060406123e3868287016122fa565b9150509250925092565b6000806040838503121561240057600080fd5b600061240e858286016122d0565b925050602061241f858286016122fa565b9150509250929050565b60008060008060008060c0878903121561244257600080fd5b600061245089828a016122d0565b965050602061246189828a016122fa565b955050604061247289828a016122fa565b945050606061248389828a01612324565b935050608061249489828a016122e5565b92505060a06124a589828a016122e5565b9150509295509295509295565b600080604083850312156124c557600080fd5b60006124d3858286016122d0565b92505060206124e48582860161230f565b9150509250929050565b6124f781612cd1565b82525050565b61250681612ce3565b82525050565b61251581612cef565b82525050565b61252c61252782612cef565b612dee565b82525050565b600061253d82612b81565b6125478185612b8c565b9350612557818560208601612d40565b61256081612e85565b840191505092915050565b6000612578602383612b8c565b915061258382612e96565b604082019050919050565b600061259b602883612b8c565b91506125a682612ee5565b604082019050919050565b60006125be602683612b8c565b91506125c982612f34565b604082019050919050565b60006125e1602283612b8c565b91506125ec82612f83565b604082019050919050565b6000612604600283612b9d565b915061260f82612fd2565b600282019050919050565b6000612627601d83612b8c565b915061263282612ffb565b602082019050919050565b600061264a602683612b8c565b915061265582613024565b604082019050919050565b600061266d602483612b8c565b915061267882613073565b604082019050919050565b6000612690602983612b8c565b915061269b826130c2565b604082019050919050565b60006126b3602083612b8c565b91506126be82613111565b602082019050919050565b60006126d6602883612b8c565b91506126e18261313a565b604082019050919050565b60006126f9602583612b8c565b915061270482613189565b604082019050919050565b600061271c602483612b8c565b9150612727826131d8565b604082019050919050565b600061273f602583612b8c565b915061274a82613227565b604082019050919050565b6000612762601f83612b8c565b915061276d82613276565b602082019050919050565b61278181612d19565b82525050565b61279081612d23565b82525050565b61279f81612d33565b82525050565b60006127b0826125f7565b91506127bc828561251b565b6020820191506127cc828461251b565b6020820191508190509392505050565b60006020820190506127f160008301846124ee565b92915050565b600060208201905061280c60008301846124fd565b92915050565b6000602082019050612827600083018461250c565b92915050565b6000608082019050612842600083018761250c565b61284f60208301866124ee565b61285c6040830185612778565b6128696060830184612778565b95945050505050565b6000608082019050612887600083018761250c565b612894602083018661250c565b6128a16040830185612778565b6128ae60608301846124ee565b95945050505050565b60006080820190506128cc600083018761250c565b6128d96020830186612796565b6128e6604083018561250c565b6128f3606083018461250c565b95945050505050565b600060208201905081810360008301526129168184612532565b905092915050565b600060208201905081810360008301526129378161256b565b9050919050565b600060208201905081810360008301526129578161258e565b9050919050565b60006020820190508181036000830152612977816125b1565b9050919050565b60006020820190508181036000830152612997816125d4565b9050919050565b600060208201905081810360008301526129b78161261a565b9050919050565b600060208201905081810360008301526129d78161263d565b9050919050565b600060208201905081810360008301526129f781612660565b9050919050565b60006020820190508181036000830152612a1781612683565b9050919050565b60006020820190508181036000830152612a37816126a6565b9050919050565b60006020820190508181036000830152612a57816126c9565b9050919050565b60006020820190508181036000830152612a77816126ec565b9050919050565b60006020820190508181036000830152612a978161270f565b9050919050565b60006020820190508181036000830152612ab781612732565b9050919050565b60006020820190508181036000830152612ad781612755565b9050919050565b6000602082019050612af36000830184612778565b92915050565b6000604082019050612b0e6000830185612778565b612b1b6020830184612778565b9392505050565b6000602082019050612b376000830184612787565b92915050565b6000604082019050612b526000830185612787565b612b5f6020830184612778565b9392505050565b6000602082019050612b7b6000830184612796565b92915050565b600081519050919050565b600082825260208201905092915050565b600081905092915050565b6000612bb382612d19565b9150612bbe83612d19565b9250827fffffffffffffffffffffffffffffffffffffffffffffffffffffffffffffffff03821115612bf357612bf2612df8565b5b828201905092915050565b6000612c0982612d23565b9150612c1483612d23565b92508263ffffffff03821115612c2d57612c2c612df8565b5b828201905092915050565b6000612c4382612d23565b9150612c4e83612d23565b925082612c5e57612c5d612e27565b5b828204905092915050565b6000612c7482612d19565b9150612c7f83612d19565b925082821015612c9257612c91612df8565b5b828203905092915050565b6000612ca882612d23565b9150612cb383612d23565b925082821015612cc657612cc5612df8565b5b828203905092915050565b6000612cdc82612cf9565b9050919050565b60008115159050919050565b6000819050919050565b600073ffffffffffffffffffffffffffffffffffffffff82169050919050565b6000819050919050565b600063ffffffff82169050919050565b600060ff82169050919050565b60005b83811015612d5e578082015181840152602081019050612d43565b83811115612d6d576000848401525b50505050565b60006002820490506001821680612d8b57607f821691505b60208210811415612d9f57612d9e612e56565b5b50919050565b6000612db082612d19565b91507fffffffffffffffffffffffffffffffffffffffffffffffffffffffffffffffff821415612de357612de2612df8565b5b600182019050919050565b6000819050919050565b7f4e487b7100000000000000000000000000000000000000000000000000000000600052601160045260246000fd5b7f4e487b7100000000000000000000000000000000000000000000000000000000600052601260045260246000fd5b7f4e487b7100000000000000000000000000000000000000000000000000000000600052602260045260246000fd5b6000601f19601f8301169050919050565b7f45524332303a207472616e7366657220746f20746865207a65726f206164647260008201527f6573730000000000000000000000000000000000000000000000000000000000602082015250565b7f4b41494445583a3a64656c656761746542795369673a20696e76616c6964207360008201527f69676e6174757265000000000000000000000000000000000000000000000000602082015250565b7f4f776e61626c653a206e6577206f776e657220697320746865207a65726f206160008201527f6464726573730000000000000000000000000000000000000000000000000000602082015250565b7f45524332303a20617070726f766520746f20746865207a65726f20616464726560008201527f7373000000000000000000000000000000000000000000000000000000000000602082015250565b7f1901000000000000000000000000000000000000000000000000000000000000600082015250565b7f45524332303a20696e73756666696369656e7420616c6c6f77616e6365000000600082015250565b7f45524332303a207472616e7366657220616d6f756e742065786365656473206260008201527f616c616e63650000000000000000000000000000000000000000000000000000602082015250565b7f4b41494445583a3a64656c656761746542795369673a20696e76616c6964206e60008201527f6f6e636500000000000000000000000000000000000000000000000000000000602082015250565b7f4b41494445583a3a6765745072696f72566f7465733a206e6f7420796574206460008201527f657465726d696e65640000000000000000000000000000000000000000000000602082015250565b7f4f776e61626c653a2063616c6c6572206973206e6f7420746865206f776e6572600082015250565b7f4b41494445583a3a64656c656761746542795369673a207369676e617475726560008201527f2065787069726564000000000000000000000000000000000000000000000000602082015250565b7f45524332303a207472616e736665722066726f6d20746865207a65726f20616460008201527f6472657373000000000000000000000000000000000000000000000000000000602082015250565b7f45524332303a20617070726f76652066726f6d20746865207a65726f2061646460008201527f7265737300000000000000000000000000000000000000000000000000000000602082015250565b7f45524332303a2064656372656173656420616c6c6f77616e63652062656c6f7760008201527f207a65726f000000000000000000000000000000000000000000000000000000602082015250565b7f45524332303a206d696e7420746f20746865207a65726f206164647265737300600082015250565b6132a881612cd1565b81146132b357600080fd5b50565b6132bf81612cef565b81146132ca57600080fd5b50565b6132d681612d19565b81146132e157600080fd5b50565b6132ed81612d23565b81146132f857600080fd5b50565b61330481612d33565b811461330f57600080fd5b5056fe4b41494445583a3a5f7772697465436865636b706f696e743a20626c6f636b206e756d62657220657863656564732033322062697473a2646970667358221220c8adfc487bf6b9e46abe267b715134de1ff45f03d68053ca2e5b853f48e7eead64736f6c63430008040033",
  "linkReferences": {},
  "deployedLinkReferences": {}
}