{
  "_format": "hh-sol-artifact-1",
  "contractName": "KaiDexToken",
  "sourceName": "contracts/KaidexToken.sol",
  "abi": [
    {
      "inputs": [
        {
          "internalType": "string",
          "name": "name_",
          "type": "string"
        },
        {
          "internalType": "string",
          "name": "symbol_",
          "type": "string"
        }
      ],
      "stateMutability": "nonpayable",
      "type": "constructor"
    },
    {
      "anonymous": false,
      "inputs": [
        {
          "indexed": true,
          "internalType": "address",
          "name": "owner",
          "type": "address"
        },
        {
          "indexed": true,
          "internalType": "address",
          "name": "spender",
          "type": "address"
        },
        {
          "indexed": false,
          "internalType": "uint256",
          "name": "value",
          "type": "uint256"
        }
      ],
      "name": "Approval",
      "type": "event"
    },
    {
      "anonymous": false,
      "inputs": [
        {
          "indexed": true,
          "internalType": "address",
          "name": "delegator",
          "type": "address"
        },
        {
          "indexed": true,
          "internalType": "address",
          "name": "fromDelegate",
          "type": "address"
        },
        {
          "indexed": true,
          "internalType": "address",
          "name": "toDelegate",
          "type": "address"
        }
      ],
      "name": "DelegateChanged",
      "type": "event"
    },
    {
      "anonymous": false,
      "inputs": [
        {
          "indexed": true,
          "internalType": "address",
          "name": "delegate",
          "type": "address"
        },
        {
          "indexed": false,
          "internalType": "uint256",
          "name": "previousBalance",
          "type": "uint256"
        },
        {
          "indexed": false,
          "internalType": "uint256",
          "name": "newBalance",
          "type": "uint256"
        }
      ],
      "name": "DelegateVotesChanged",
      "type": "event"
    },
    {
      "anonymous": false,
      "inputs": [
        {
          "indexed": true,
          "internalType": "address",
          "name": "previousOwner",
          "type": "address"
        },
        {
          "indexed": true,
          "internalType": "address",
          "name": "newOwner",
          "type": "address"
        }
      ],
      "name": "OwnershipTransferred",
      "type": "event"
    },
    {
      "anonymous": false,
      "inputs": [
        {
          "indexed": true,
          "internalType": "address",
          "name": "from",
          "type": "address"
        },
        {
          "indexed": true,
          "internalType": "address",
          "name": "to",
          "type": "address"
        },
        {
          "indexed": false,
          "internalType": "uint256",
          "name": "value",
          "type": "uint256"
        }
      ],
      "name": "Transfer",
      "type": "event"
    },
    {
      "inputs": [],
      "name": "DOMAIN_SEPARATOR",
      "outputs": [
        {
          "internalType": "bytes32",
          "name": "",
          "type": "bytes32"
        }
      ],
      "stateMutability": "view",
      "type": "function"
    },
    {
      "inputs": [
        {
          "internalType": "address",
          "name": "owner",
          "type": "address"
        },
        {
          "internalType": "address",
          "name": "spender",
          "type": "address"
        }
      ],
      "name": "allowance",
      "outputs": [
        {
          "internalType": "uint256",
          "name": "",
          "type": "uint256"
        }
      ],
      "stateMutability": "view",
      "type": "function"
    },
    {
      "inputs": [
        {
          "internalType": "address",
          "name": "spender",
          "type": "address"
        },
        {
          "internalType": "uint256",
          "name": "amount",
          "type": "uint256"
        }
      ],
      "name": "approve",
      "outputs": [
        {
          "internalType": "bool",
          "name": "",
          "type": "bool"
        }
      ],
      "stateMutability": "nonpayable",
      "type": "function"
    },
    {
      "inputs": [
        {
          "internalType": "address",
          "name": "account",
          "type": "address"
        }
      ],
      "name": "balanceOf",
      "outputs": [
        {
          "internalType": "uint256",
          "name": "",
          "type": "uint256"
        }
      ],
      "stateMutability": "view",
      "type": "function"
    },
    {
      "inputs": [
        {
          "internalType": "uint256",
          "name": "amount",
          "type": "uint256"
        }
      ],
      "name": "burn",
      "outputs": [],
      "stateMutability": "nonpayable",
      "type": "function"
    },
    {
      "inputs": [
        {
          "internalType": "address",
          "name": "account",
          "type": "address"
        },
        {
          "internalType": "uint256",
          "name": "amount",
          "type": "uint256"
        }
      ],
      "name": "burnFrom",
      "outputs": [],
      "stateMutability": "nonpayable",
      "type": "function"
    },
    {
      "inputs": [
        {
          "internalType": "address",
          "name": "account",
          "type": "address"
        },
        {
          "internalType": "uint32",
          "name": "pos",
          "type": "uint32"
        }
      ],
      "name": "checkpoints",
      "outputs": [
        {
          "components": [
            {
              "internalType": "uint32",
              "name": "fromBlock",
              "type": "uint32"
            },
            {
              "internalType": "uint224",
              "name": "votes",
              "type": "uint224"
            }
          ],
          "internalType": "struct ERC20Votes.Checkpoint",
          "name": "",
          "type": "tuple"
        }
      ],
      "stateMutability": "view",
      "type": "function"
    },
    {
      "inputs": [],
      "name": "decimals",
      "outputs": [
        {
          "internalType": "uint8",
          "name": "",
          "type": "uint8"
        }
      ],
      "stateMutability": "view",
      "type": "function"
    },
    {
      "inputs": [
        {
          "internalType": "address",
          "name": "spender",
          "type": "address"
        },
        {
          "internalType": "uint256",
          "name": "subtractedValue",
          "type": "uint256"
        }
      ],
      "name": "decreaseAllowance",
      "outputs": [
        {
          "internalType": "bool",
          "name": "",
          "type": "bool"
        }
      ],
      "stateMutability": "nonpayable",
      "type": "function"
    },
    {
      "inputs": [
        {
          "internalType": "address",
          "name": "delegatee",
          "type": "address"
        }
      ],
      "name": "delegate",
      "outputs": [],
      "stateMutability": "nonpayable",
      "type": "function"
    },
    {
      "inputs": [
        {
          "internalType": "address",
          "name": "delegatee",
          "type": "address"
        },
        {
          "internalType": "uint256",
          "name": "nonce",
          "type": "uint256"
        },
        {
          "internalType": "uint256",
          "name": "expiry",
          "type": "uint256"
        },
        {
          "internalType": "uint8",
          "name": "v",
          "type": "uint8"
        },
        {
          "internalType": "bytes32",
          "name": "r",
          "type": "bytes32"
        },
        {
          "internalType": "bytes32",
          "name": "s",
          "type": "bytes32"
        }
      ],
      "name": "delegateBySig",
      "outputs": [],
      "stateMutability": "nonpayable",
      "type": "function"
    },
    {
      "inputs": [
        {
          "internalType": "address",
          "name": "account",
          "type": "address"
        }
      ],
      "name": "delegates",
      "outputs": [
        {
          "internalType": "address",
          "name": "",
          "type": "address"
        }
      ],
      "stateMutability": "view",
      "type": "function"
    },
    {
      "inputs": [
        {
          "internalType": "address",
          "name": "account",
          "type": "address"
        }
      ],
      "name": "getCurrentVotes",
      "outputs": [
        {
          "internalType": "uint96",
          "name": "",
          "type": "uint96"
        }
      ],
      "stateMutability": "view",
      "type": "function"
    },
    {
      "inputs": [
        {
          "internalType": "uint256",
          "name": "blockNumber",
          "type": "uint256"
        }
      ],
      "name": "getPastTotalSupply",
      "outputs": [
        {
          "internalType": "uint256",
          "name": "",
          "type": "uint256"
        }
      ],
      "stateMutability": "view",
      "type": "function"
    },
    {
      "inputs": [
        {
          "internalType": "address",
          "name": "account",
          "type": "address"
        },
        {
          "internalType": "uint256",
          "name": "blockNumber",
          "type": "uint256"
        }
      ],
      "name": "getPastVotes",
      "outputs": [
        {
          "internalType": "uint256",
          "name": "",
          "type": "uint256"
        }
      ],
      "stateMutability": "view",
      "type": "function"
    },
    {
      "inputs": [
        {
          "internalType": "address",
          "name": "account",
          "type": "address"
        },
        {
          "internalType": "uint256",
          "name": "blockNumber",
          "type": "uint256"
        }
      ],
      "name": "getPriorVotes",
      "outputs": [
        {
          "internalType": "uint96",
          "name": "",
          "type": "uint96"
        }
      ],
      "stateMutability": "view",
      "type": "function"
    },
    {
      "inputs": [
        {
          "internalType": "address",
          "name": "account",
          "type": "address"
        }
      ],
      "name": "getVotes",
      "outputs": [
        {
          "internalType": "uint256",
          "name": "",
          "type": "uint256"
        }
      ],
      "stateMutability": "view",
      "type": "function"
    },
    {
      "inputs": [
        {
          "internalType": "address",
          "name": "spender",
          "type": "address"
        },
        {
          "internalType": "uint256",
          "name": "addedValue",
          "type": "uint256"
        }
      ],
      "name": "increaseAllowance",
      "outputs": [
        {
          "internalType": "bool",
          "name": "",
          "type": "bool"
        }
      ],
      "stateMutability": "nonpayable",
      "type": "function"
    },
    {
      "inputs": [
        {
          "internalType": "address",
          "name": "_to",
          "type": "address"
        },
        {
          "internalType": "uint256",
          "name": "_amount",
          "type": "uint256"
        }
      ],
      "name": "mint",
      "outputs": [],
      "stateMutability": "nonpayable",
      "type": "function"
    },
    {
      "inputs": [],
      "name": "name",
      "outputs": [
        {
          "internalType": "string",
          "name": "",
          "type": "string"
        }
      ],
      "stateMutability": "view",
      "type": "function"
    },
    {
      "inputs": [
        {
          "internalType": "address",
          "name": "owner",
          "type": "address"
        }
      ],
      "name": "nonces",
      "outputs": [
        {
          "internalType": "uint256",
          "name": "",
          "type": "uint256"
        }
      ],
      "stateMutability": "view",
      "type": "function"
    },
    {
      "inputs": [
        {
          "internalType": "address",
          "name": "account",
          "type": "address"
        }
      ],
      "name": "numCheckpoints",
      "outputs": [
        {
          "internalType": "uint32",
          "name": "",
          "type": "uint32"
        }
      ],
      "stateMutability": "view",
      "type": "function"
    },
    {
      "inputs": [],
      "name": "owner",
      "outputs": [
        {
          "internalType": "address",
          "name": "",
          "type": "address"
        }
      ],
      "stateMutability": "view",
      "type": "function"
    },
    {
      "inputs": [
        {
          "internalType": "address",
          "name": "owner",
          "type": "address"
        },
        {
          "internalType": "address",
          "name": "spender",
          "type": "address"
        },
        {
          "internalType": "uint256",
          "name": "value",
          "type": "uint256"
        },
        {
          "internalType": "uint256",
          "name": "deadline",
          "type": "uint256"
        },
        {
          "internalType": "uint8",
          "name": "v",
          "type": "uint8"
        },
        {
          "internalType": "bytes32",
          "name": "r",
          "type": "bytes32"
        },
        {
          "internalType": "bytes32",
          "name": "s",
          "type": "bytes32"
        }
      ],
      "name": "permit",
      "outputs": [],
      "stateMutability": "nonpayable",
      "type": "function"
    },
    {
      "inputs": [],
      "name": "renounceOwnership",
      "outputs": [],
      "stateMutability": "nonpayable",
      "type": "function"
    },
    {
      "inputs": [],
      "name": "symbol",
      "outputs": [
        {
          "internalType": "string",
          "name": "",
          "type": "string"
        }
      ],
      "stateMutability": "view",
      "type": "function"
    },
    {
      "inputs": [],
      "name": "totalSupply",
      "outputs": [
        {
          "internalType": "uint256",
          "name": "",
          "type": "uint256"
        }
      ],
      "stateMutability": "view",
      "type": "function"
    },
    {
      "inputs": [
        {
          "internalType": "address",
          "name": "to",
          "type": "address"
        },
        {
          "internalType": "uint256",
          "name": "amount",
          "type": "uint256"
        }
      ],
      "name": "transfer",
      "outputs": [
        {
          "internalType": "bool",
          "name": "",
          "type": "bool"
        }
      ],
      "stateMutability": "nonpayable",
      "type": "function"
    },
    {
      "inputs": [
        {
          "internalType": "address",
          "name": "from",
          "type": "address"
        },
        {
          "internalType": "address",
          "name": "to",
          "type": "address"
        },
        {
          "internalType": "uint256",
          "name": "amount",
          "type": "uint256"
        }
      ],
      "name": "transferFrom",
      "outputs": [
        {
          "internalType": "bool",
          "name": "",
          "type": "bool"
        }
      ],
      "stateMutability": "nonpayable",
      "type": "function"
    },
    {
      "inputs": [
        {
          "internalType": "address",
          "name": "newOwner",
          "type": "address"
        }
      ],
      "name": "transferOwnership",
      "outputs": [],
      "stateMutability": "nonpayable",
      "type": "function"
    }
  ],
  "bytecode": "0x6101606040527f6e71edae12b1b97f4d1f60370fef10105fa2faae0126114a169c64845d6126c9610140908152503480156200003a57600080fd5b5060405162004b5138038062004b518339818101604052810190620000609190620003d8565b81806040518060400160405280600181526020017f310000000000000000000000000000000000000000000000000000000000000081525084848160039080519060200190620000b2929190620002b6565b508060049080519060200190620000cb929190620002b6565b50505060008280519060200120905060008280519060200120905060007f8b73c3c69bb8fe3d512ecc4cf759cc79239f7b179b0ffacaa9a75d522b39400f90508260e081815250508161010081815250504660a0818152505062000137818484620001ac60201b60201c565b608081815250503073ffffffffffffffffffffffffffffffffffffffff1660c08173ffffffffffffffffffffffffffffffffffffffff1660601b81525050806101208181525050505050505050620001a462000198620001e860201b60201c565b620001f060201b60201c565b505062000693565b60008383834630604051602001620001c99594939291906200047e565b6040516020818303038152906040528051906020012090509392505050565b600033905090565b6000600960009054906101000a900473ffffffffffffffffffffffffffffffffffffffff16905081600960006101000a81548173ffffffffffffffffffffffffffffffffffffffff021916908373ffffffffffffffffffffffffffffffffffffffff1602179055508173ffffffffffffffffffffffffffffffffffffffff168173ffffffffffffffffffffffffffffffffffffffff167f8be0079c531659141344cd1fd0a4f28419497f9722a3daafe3b4186f6b6457e060405160405180910390a35050565b828054620002c490620005b8565b90600052602060002090601f016020900481019282620002e8576000855562000334565b82601f106200030357805160ff191683800117855562000334565b8280016001018555821562000334579182015b828111156200033357825182559160200191906001019062000316565b5b50905062000343919062000347565b5090565b5b808211156200036257600081600090555060010162000348565b5090565b60006200037d620003778462000504565b620004db565b9050828152602081018484840111156200039657600080fd5b620003a384828562000582565b509392505050565b600082601f830112620003bd57600080fd5b8151620003cf84826020860162000366565b91505092915050565b60008060408385031215620003ec57600080fd5b600083015167ffffffffffffffff8111156200040757600080fd5b6200041585828601620003ab565b925050602083015167ffffffffffffffff8111156200043357600080fd5b6200044185828601620003ab565b9150509250929050565b62000456816200053a565b82525050565b62000467816200054e565b82525050565b620004788162000578565b82525050565b600060a0820190506200049560008301886200045c565b620004a460208301876200045c565b620004b360408301866200045c565b620004c260608301856200046d565b620004d160808301846200044b565b9695505050505050565b6000620004e7620004fa565b9050620004f58282620005ee565b919050565b6000604051905090565b600067ffffffffffffffff82111562000522576200052162000653565b5b6200052d8262000682565b9050602081019050919050565b6000620005478262000558565b9050919050565b6000819050919050565b600073ffffffffffffffffffffffffffffffffffffffff82169050919050565b6000819050919050565b60005b83811015620005a257808201518184015260208101905062000585565b83811115620005b2576000848401525b50505050565b60006002820490506001821680620005d157607f821691505b60208210811415620005e857620005e762000624565b5b50919050565b620005f98262000682565b810181811067ffffffffffffffff821117156200061b576200061a62000653565b5b80604052505050565b7f4e487b7100000000000000000000000000000000000000000000000000000000600052602260045260246000fd5b7f4e487b7100000000000000000000000000000000000000000000000000000000600052604160045260246000fd5b6000601f19601f8301169050919050565b60805160a05160c05160601c60e051610100516101205161014051614460620006f1600039600061102b01526000611969015260006119ab0152600061198a015260006118bf015260006119150152600061193e01526144606000f3fe608060405234801561001057600080fd5b50600436106101da5760003560e01c8063782d6fe111610104578063a457c2d7116100a2578063d505accf11610071578063d505accf146105c9578063dd62ed3e146105e5578063f1127ed814610615578063f2fde38b14610645576101da565b8063a457c2d71461051d578063a9059cbb1461054d578063b4b5ea571461057d578063c3cda520146105ad576101da565b80638da5cb5b116100de5780638da5cb5b146104815780638e539e8c1461049f57806395d89b41146104cf5780639ab24eb0146104ed576101da565b8063782d6fe11461040557806379cc6790146104355780637ecebe0014610451576101da565b80633a46b1a81161017c5780635c19a95c1161014b5780635c19a95c1461037f5780636fcfff451461039b57806370a08231146103cb578063715018a6146103fb576101da565b80633a46b1a8146102e757806340c10f191461031757806342966c6814610333578063587cde1e1461034f576101da565b806323b872dd116101b857806323b872dd1461024b578063313ce5671461027b5780633644e5151461029957806339509351146102b7576101da565b806306fdde03146101df578063095ea7b3146101fd57806318160ddd1461022d575b600080fd5b6101e7610661565b6040516101f491906136c3565b60405180910390f35b61021760048036038101906102129190612f3f565b6106f3565b604051610224919061354f565b60405180910390f35b610235610716565b6040516102429190613a20565b60405180910390f35b61026560048036038101906102609190612e52565b610720565b604051610272919061354f565b60405180910390f35b61028361074f565b6040516102909190613a7f565b60405180910390f35b6102a1610758565b6040516102ae919061356a565b60405180910390f35b6102d160048036038101906102cc9190612f3f565b610767565b6040516102de919061354f565b60405180910390f35b61030160048036038101906102fc9190612f3f565b610811565b60405161030e9190613a20565b60405180910390f35b610331600480360381019061032c9190612f3f565b6108a5565b005b61034d60048036038101906103489190613040565b61092f565b005b61036960048036038101906103649190612ded565b610943565b6040516103769190613534565b60405180910390f35b61039960048036038101906103949190612ded565b6109ac565b005b6103b560048036038101906103b09190612ded565b6109c0565b6040516103c29190613a64565b60405180910390f35b6103e560048036038101906103e09190612ded565b610a14565b6040516103f29190613a20565b60405180910390f35b610403610a5c565b005b61041f600480360381019061041a9190612f3f565b610ae4565b60405161042c9190613a9a565b60405180910390f35b61044f600480360381019061044a9190612f3f565b610b00565b005b61046b60048036038101906104669190612ded565b610b20565b6040516104789190613a20565b60405180910390f35b610489610b70565b6040516104969190613534565b60405180910390f35b6104b960048036038101906104b49190613040565b610b9a565b6040516104c69190613a20565b60405180910390f35b6104d7610bf0565b6040516104e491906136c3565b60405180910390f35b61050760048036038101906105029190612ded565b610c82565b6040516105149190613a20565b60405180910390f35b61053760048036038101906105329190612f3f565b610db9565b604051610544919061354f565b60405180910390f35b61056760048036038101906105629190612f3f565b610ea3565b604051610574919061354f565b60405180910390f35b61059760048036038101906105929190612ded565b610ec6565b6040516105a49190613a9a565b60405180910390f35b6105c760048036038101906105c29190612f7b565b610ee0565b005b6105e360048036038101906105de9190612ea1565b610fe4565b005b6105ff60048036038101906105fa9190612e16565b611126565b60405161060c9190613a20565b60405180910390f35b61062f600480360381019061062a9190613004565b6111ad565b60405161063c9190613a05565b60405180910390f35b61065f600480360381019061065a9190612ded565b6112e3565b005b60606003805461067090613c79565b80601f016020809104026020016040519081016040528092919081815260200182805461069c90613c79565b80156106e95780601f106106be576101008083540402835291602001916106e9565b820191906000526020600020905b8154815290600101906020018083116106cc57829003601f168201915b5050505050905090565b6000806106fe6113db565b905061070b8185856113e3565b600191505092915050565b6000600254905090565b60008061072b6113db565b90506107388582856115ae565b61074385858561163a565b60019150509392505050565b60006012905090565b60006107626118bb565b905090565b6000806107726113db565b9050610806818585600160008673ffffffffffffffffffffffffffffffffffffffff1673ffffffffffffffffffffffffffffffffffffffff16815260200190815260200160002060008973ffffffffffffffffffffffffffffffffffffffff1673ffffffffffffffffffffffffffffffffffffffff168152602001908152602001600020546108019190613adc565b6113e3565b600191505092915050565b6000438210610855576040517f08c379a000000000000000000000000000000000000000000000000000000000815260040161084c90613745565b60405180910390fd5b61089d600760008573ffffffffffffffffffffffffffffffffffffffff1673ffffffffffffffffffffffffffffffffffffffff168152602001908152602001600020836119d5565b905092915050565b6108ad6113db565b73ffffffffffffffffffffffffffffffffffffffff166108cb610b70565b73ffffffffffffffffffffffffffffffffffffffff1614610921576040517f08c379a000000000000000000000000000000000000000000000000000000000815260040161091890613905565b60405180910390fd5b61092b8282611b2d565b5050565b61094061093a6113db565b82611b3b565b50565b6000600660008373ffffffffffffffffffffffffffffffffffffffff1673ffffffffffffffffffffffffffffffffffffffff16815260200190815260200160002060009054906101000a900473ffffffffffffffffffffffffffffffffffffffff169050919050565b6109bd6109b76113db565b82611b49565b50565b6000610a0d600760008473ffffffffffffffffffffffffffffffffffffffff1673ffffffffffffffffffffffffffffffffffffffff16815260200190815260200160002080549050611c63565b9050919050565b60008060008373ffffffffffffffffffffffffffffffffffffffff1673ffffffffffffffffffffffffffffffffffffffff168152602001908152602001600020549050919050565b610a646113db565b73ffffffffffffffffffffffffffffffffffffffff16610a82610b70565b73ffffffffffffffffffffffffffffffffffffffff1614610ad8576040517f08c379a0000000000000000000000000000000000000000000000000000000008152600401610acf90613905565b60405180910390fd5b610ae26000611cb6565b565b6000610af8610af38484610811565b611d7c565b905092915050565b610b1282610b0c6113db565b836115ae565b610b1c8282611b3b565b5050565b6000610b69600560008473ffffffffffffffffffffffffffffffffffffffff1673ffffffffffffffffffffffffffffffffffffffff168152602001908152602001600020611dd7565b9050919050565b6000600960009054906101000a900473ffffffffffffffffffffffffffffffffffffffff16905090565b6000438210610bde576040517f08c379a0000000000000000000000000000000000000000000000000000000008152600401610bd590613745565b60405180910390fd5b610be96008836119d5565b9050919050565b606060048054610bff90613c79565b80601f0160208091040260200160405190810160405280929190818152602001828054610c2b90613c79565b8015610c785780601f10610c4d57610100808354040283529160200191610c78565b820191906000526020600020905b815481529060010190602001808311610c5b57829003601f168201915b5050505050905090565b600080600760008473ffffffffffffffffffffffffffffffffffffffff1673ffffffffffffffffffffffffffffffffffffffff16815260200190815260200160002080549050905060008114610d9057600760008473ffffffffffffffffffffffffffffffffffffffff1673ffffffffffffffffffffffffffffffffffffffff168152602001908152602001600020600182610d1e9190613b63565b81548110610d55577f4e487b7100000000000000000000000000000000000000000000000000000000600052603260045260246000fd5b9060005260206000200160000160049054906101000a90047bffffffffffffffffffffffffffffffffffffffffffffffffffffffff16610d93565b60005b7bffffffffffffffffffffffffffffffffffffffffffffffffffffffff16915050919050565b600080610dc46113db565b90506000600160008373ffffffffffffffffffffffffffffffffffffffff1673ffffffffffffffffffffffffffffffffffffffff16815260200190815260200160002060008673ffffffffffffffffffffffffffffffffffffffff1673ffffffffffffffffffffffffffffffffffffffff16815260200190815260200160002054905083811015610e8a576040517f08c379a0000000000000000000000000000000000000000000000000000000008152600401610e81906139c5565b60405180910390fd5b610e9782868684036113e3565b60019250505092915050565b600080610eae6113db565b9050610ebb81858561163a565b600191505092915050565b6000610ed9610ed483610c82565b611d7c565b9050919050565b83421115610f23576040517f08c379a0000000000000000000000000000000000000000000000000000000008152600401610f1a90613765565b60405180910390fd5b6000610f85610f7d7fe48329057bfd03d55e49b547132e39cffd9c1820ad7b9d4c5307691425d15adf898989604051602001610f6294939291906135e6565b60405160208183030381529060405280519060200120611de5565b858585611dff565b9050610f9081611e2a565b8614610fd1576040517f08c379a0000000000000000000000000000000000000000000000000000000008152600401610fc8906137c5565b60405180910390fd5b610fdb8188611b49565b50505050505050565b83421115611027576040517f08c379a000000000000000000000000000000000000000000000000000000000815260040161101e90613845565b60405180910390fd5b60007f00000000000000000000000000000000000000000000000000000000000000008888886110568c611e2a565b8960405160200161106c96959493929190613585565b604051602081830303815290604052805190602001209050600061108f82611de5565b9050600061109f82878787611dff565b90508973ffffffffffffffffffffffffffffffffffffffff168173ffffffffffffffffffffffffffffffffffffffff161461110f576040517f08c379a0000000000000000000000000000000000000000000000000000000008152600401611106906138c5565b60405180910390fd5b61111a8a8a8a6113e3565b50505050505050505050565b6000600160008473ffffffffffffffffffffffffffffffffffffffff1673ffffffffffffffffffffffffffffffffffffffff16815260200190815260200160002060008373ffffffffffffffffffffffffffffffffffffffff1673ffffffffffffffffffffffffffffffffffffffff16815260200190815260200160002054905092915050565b6111b5612d46565b600760008473ffffffffffffffffffffffffffffffffffffffff1673ffffffffffffffffffffffffffffffffffffffff1681526020019081526020016000208263ffffffff1681548110611232577f4e487b7100000000000000000000000000000000000000000000000000000000600052603260045260246000fd5b906000526020600020016040518060400160405290816000820160009054906101000a900463ffffffff1663ffffffff1663ffffffff1681526020016000820160049054906101000a90047bffffffffffffffffffffffffffffffffffffffffffffffffffffffff167bffffffffffffffffffffffffffffffffffffffffffffffffffffffff167bffffffffffffffffffffffffffffffffffffffffffffffffffffffff1681525050905092915050565b6112eb6113db565b73ffffffffffffffffffffffffffffffffffffffff16611309610b70565b73ffffffffffffffffffffffffffffffffffffffff161461135f576040517f08c379a000000000000000000000000000000000000000000000000000000000815260040161135690613905565b60405180910390fd5b600073ffffffffffffffffffffffffffffffffffffffff168173ffffffffffffffffffffffffffffffffffffffff1614156113cf576040517f08c379a00000000000000000000000000000000000000000000000000000000081526004016113c6906137e5565b60405180910390fd5b6113d881611cb6565b50565b600033905090565b600073ffffffffffffffffffffffffffffffffffffffff168373ffffffffffffffffffffffffffffffffffffffff161415611453576040517f08c379a000000000000000000000000000000000000000000000000000000000815260040161144a906139a5565b60405180910390fd5b600073ffffffffffffffffffffffffffffffffffffffff168273ffffffffffffffffffffffffffffffffffffffff1614156114c3576040517f08c379a00000000000000000000000000000000000000000000000000000000081526004016114ba90613805565b60405180910390fd5b80600160008573ffffffffffffffffffffffffffffffffffffffff1673ffffffffffffffffffffffffffffffffffffffff16815260200190815260200160002060008473ffffffffffffffffffffffffffffffffffffffff1673ffffffffffffffffffffffffffffffffffffffff168152602001908152602001600020819055508173ffffffffffffffffffffffffffffffffffffffff168373ffffffffffffffffffffffffffffffffffffffff167f8c5be1e5ebec7d5bd14f71427d1e84f3dd0314c0f7b2291e5b200ac8c7c3b925836040516115a19190613a20565b60405180910390a3505050565b60006115ba8484611126565b90507fffffffffffffffffffffffffffffffffffffffffffffffffffffffffffffffff81146116345781811015611626576040517f08c379a000000000000000000000000000000000000000000000000000000000815260040161161d90613825565b60405180910390fd5b61163384848484036113e3565b5b50505050565b600073ffffffffffffffffffffffffffffffffffffffff168373ffffffffffffffffffffffffffffffffffffffff1614156116aa576040517f08c379a00000000000000000000000000000000000000000000000000000000081526004016116a190613965565b60405180910390fd5b600073ffffffffffffffffffffffffffffffffffffffff168273ffffffffffffffffffffffffffffffffffffffff16141561171a576040517f08c379a000000000000000000000000000000000000000000000000000000000815260040161171190613705565b60405180910390fd5b611725838383611e88565b60008060008573ffffffffffffffffffffffffffffffffffffffff1673ffffffffffffffffffffffffffffffffffffffff168152602001908152602001600020549050818110156117ab576040517f08c379a00000000000000000000000000000000000000000000000000000000081526004016117a290613865565b60405180910390fd5b8181036000808673ffffffffffffffffffffffffffffffffffffffff1673ffffffffffffffffffffffffffffffffffffffff16815260200190815260200160002081905550816000808573ffffffffffffffffffffffffffffffffffffffff1673ffffffffffffffffffffffffffffffffffffffff168152602001908152602001600020600082825461183e9190613adc565b925050819055508273ffffffffffffffffffffffffffffffffffffffff168473ffffffffffffffffffffffffffffffffffffffff167fddf252ad1be2c89b69c2b068fc378daa952ba7f163c4a11628f55a4df523b3ef846040516118a29190613a20565b60405180910390a36118b5848484611e8d565b50505050565b60007f000000000000000000000000000000000000000000000000000000000000000073ffffffffffffffffffffffffffffffffffffffff163073ffffffffffffffffffffffffffffffffffffffff1614801561193757507f000000000000000000000000000000000000000000000000000000000000000046145b15611964577f000000000000000000000000000000000000000000000000000000000000000090506119d2565b6119cf7f00000000000000000000000000000000000000000000000000000000000000007f00000000000000000000000000000000000000000000000000000000000000007f0000000000000000000000000000000000000000000000000000000000000000611e9d565b90505b90565b6000808380549050905060005b81811015611a7a5760006119f68284611ed7565b905084868281548110611a32577f4e487b7100000000000000000000000000000000000000000000000000000000600052603260045260246000fd5b9060005260206000200160000160009054906101000a900463ffffffff1663ffffffff161115611a6457809250611a74565b600181611a719190613adc565b91505b506119e2565b60008214611b025784600183611a909190613b63565b81548110611ac7577f4e487b7100000000000000000000000000000000000000000000000000000000600052603260045260246000fd5b9060005260206000200160000160049054906101000a90047bffffffffffffffffffffffffffffffffffffffffffffffffffffffff16611b05565b60005b7bffffffffffffffffffffffffffffffffffffffffffffffffffffffff169250505092915050565b611b378282611efd565b5050565b611b458282611f8a565b5050565b6000611b5483610943565b90506000611b6184610a14565b905082600660008673ffffffffffffffffffffffffffffffffffffffff1673ffffffffffffffffffffffffffffffffffffffff16815260200190815260200160002060006101000a81548173ffffffffffffffffffffffffffffffffffffffff021916908373ffffffffffffffffffffffffffffffffffffffff1602179055508273ffffffffffffffffffffffffffffffffffffffff168273ffffffffffffffffffffffffffffffffffffffff168573ffffffffffffffffffffffffffffffffffffffff167f3134e8a2e6d97e929a7e54011ea5485d7d196dd5f0ba4d4ef95803e8e3fc257f60405160405180910390a4611c5d828483611fa8565b50505050565b600063ffffffff8016821115611cae576040517f08c379a0000000000000000000000000000000000000000000000000000000008152600401611ca590613985565b60405180910390fd5b819050919050565b6000600960009054906101000a900473ffffffffffffffffffffffffffffffffffffffff16905081600960006101000a81548173ffffffffffffffffffffffffffffffffffffffff021916908373ffffffffffffffffffffffffffffffffffffffff1602179055508173ffffffffffffffffffffffffffffffffffffffff168173ffffffffffffffffffffffffffffffffffffffff167f8be0079c531659141344cd1fd0a4f28419497f9722a3daafe3b4186f6b6457e060405160405180910390a35050565b60006bffffffffffffffffffffffff8016821115611dcf576040517f08c379a0000000000000000000000000000000000000000000000000000000008152600401611dc690613725565b60405180910390fd5b819050919050565b600081600001549050919050565b6000611df8611df26118bb565b836121a1565b9050919050565b6000806000611e10878787876121d4565b91509150611e1d816122e1565b8192505050949350505050565b600080600560008473ffffffffffffffffffffffffffffffffffffffff1673ffffffffffffffffffffffffffffffffffffffff1681526020019081526020016000209050611e7781611dd7565b9150611e8281612632565b50919050565b505050565b611e98838383612648565b505050565b60008383834630604051602001611eb895949392919061362b565b6040516020818303038152906040528051906020012090509392505050565b60006002828418611ee89190613b32565b828416611ef59190613adc565b905092915050565b611f078282612673565b611f0f6127d3565b7bffffffffffffffffffffffffffffffffffffffffffffffffffffffff16611f35610716565b1115611f76576040517f08c379a0000000000000000000000000000000000000000000000000000000008152600401611f6d906138e5565b60405180910390fd5b611f8460086127e9836127ff565b50505050565b611f948282612ae9565b611fa26008612cc0836127ff565b50505050565b8173ffffffffffffffffffffffffffffffffffffffff168373ffffffffffffffffffffffffffffffffffffffff1614158015611fe45750600081115b1561219c57600073ffffffffffffffffffffffffffffffffffffffff168373ffffffffffffffffffffffffffffffffffffffff16146120c25760008061206b600760008773ffffffffffffffffffffffffffffffffffffffff1673ffffffffffffffffffffffffffffffffffffffff168152602001908152602001600020612cc0856127ff565b915091508473ffffffffffffffffffffffffffffffffffffffff167fdec2bacdd2f05b59de34da9b523dff8be42e5e38e818c82fdb0bae774387a72483836040516120b7929190613a3b565b60405180910390a250505b600073ffffffffffffffffffffffffffffffffffffffff168273ffffffffffffffffffffffffffffffffffffffff161461219b57600080612144600760008673ffffffffffffffffffffffffffffffffffffffff1673ffffffffffffffffffffffffffffffffffffffff1681526020019081526020016000206127e9856127ff565b915091508373ffffffffffffffffffffffffffffffffffffffff167fdec2bacdd2f05b59de34da9b523dff8be42e5e38e818c82fdb0bae774387a7248383604051612190929190613a3b565b60405180910390a250505b5b505050565b600082826040516020016121b69291906134fd565b60405160208183030381529060405280519060200120905092915050565b6000807f7fffffffffffffffffffffffffffffff5d576e7357a4501ddfe92f46681b20a08360001c111561220f5760006003915091506122d8565b601b8560ff16141580156122275750601c8560ff1614155b156122395760006004915091506122d8565b60006001878787876040516000815260200160405260405161225e949392919061367e565b6020604051602081039080840390855afa158015612280573d6000803e3d6000fd5b505050602060405103519050600073ffffffffffffffffffffffffffffffffffffffff168173ffffffffffffffffffffffffffffffffffffffff1614156122cf576000600192509250506122d8565b80600092509250505b94509492505050565b6000600481111561231b577f4e487b7100000000000000000000000000000000000000000000000000000000600052602160045260246000fd5b816004811115612354577f4e487b7100000000000000000000000000000000000000000000000000000000600052602160045260246000fd5b141561235f5761262f565b60016004811115612399577f4e487b7100000000000000000000000000000000000000000000000000000000600052602160045260246000fd5b8160048111156123d2577f4e487b7100000000000000000000000000000000000000000000000000000000600052602160045260246000fd5b1415612413576040517f08c379a000000000000000000000000000000000000000000000000000000000815260040161240a906136e5565b60405180910390fd5b6002600481111561244d577f4e487b7100000000000000000000000000000000000000000000000000000000600052602160045260246000fd5b816004811115612486577f4e487b7100000000000000000000000000000000000000000000000000000000600052602160045260246000fd5b14156124c7576040517f08c379a00000000000000000000000000000000000000000000000000000000081526004016124be906137a5565b60405180910390fd5b60036004811115612501577f4e487b7100000000000000000000000000000000000000000000000000000000600052602160045260246000fd5b81600481111561253a577f4e487b7100000000000000000000000000000000000000000000000000000000600052602160045260246000fd5b141561257b576040517f08c379a000000000000000000000000000000000000000000000000000000000815260040161257290613885565b60405180910390fd5b6004808111156125b4577f4e487b7100000000000000000000000000000000000000000000000000000000600052602160045260246000fd5b8160048111156125ed577f4e487b7100000000000000000000000000000000000000000000000000000000600052602160045260246000fd5b141561262e576040517f08c379a0000000000000000000000000000000000000000000000000000000008152600401612625906138a5565b60405180910390fd5b5b50565b6001816000016000828254019250508190555050565b612653838383612cd6565b61266e61265f84610943565b61266884610943565b83611fa8565b505050565b600073ffffffffffffffffffffffffffffffffffffffff168273ffffffffffffffffffffffffffffffffffffffff1614156126e3576040517f08c379a00000000000000000000000000000000000000000000000000000000081526004016126da906139e5565b60405180910390fd5b6126ef60008383611e88565b80600260008282546127019190613adc565b92505081905550806000808473ffffffffffffffffffffffffffffffffffffffff1673ffffffffffffffffffffffffffffffffffffffff16815260200190815260200160002060008282546127569190613adc565b925050819055508173ffffffffffffffffffffffffffffffffffffffff16600073ffffffffffffffffffffffffffffffffffffffff167fddf252ad1be2c89b69c2b068fc378daa952ba7f163c4a11628f55a4df523b3ef836040516127bb9190613a20565b60405180910390a36127cf60008383611e8d565b5050565b60006bffffffffffffffffffffffff8016905090565b600081836127f79190613adc565b905092915050565b6000806000858054905090506000811461289357856001826128219190613b63565b81548110612858577f4e487b7100000000000000000000000000000000000000000000000000000000600052603260045260246000fd5b9060005260206000200160000160049054906101000a90047bffffffffffffffffffffffffffffffffffffffffffffffffffffffff16612896565b60005b7bffffffffffffffffffffffffffffffffffffffffffffffffffffffff1692506128c483858763ffffffff16565b915060008111801561293d575043866001836128e09190613b63565b81548110612917577f4e487b7100000000000000000000000000000000000000000000000000000000600052603260045260246000fd5b9060005260206000200160000160009054906101000a900463ffffffff1663ffffffff16145b156129f05761294b82612cdb565b866001836129599190613b63565b81548110612990577f4e487b7100000000000000000000000000000000000000000000000000000000600052603260045260246000fd5b9060005260206000200160000160046101000a8154817bffffffffffffffffffffffffffffffffffffffffffffffffffffffff02191690837bffffffffffffffffffffffffffffffffffffffffffffffffffffffff160217905550612ae0565b856040518060400160405280612a0543611c63565b63ffffffff168152602001612a1985612cdb565b7bffffffffffffffffffffffffffffffffffffffffffffffffffffffff168152509080600181540180825580915050600190039060005260206000200160009091909190915060008201518160000160006101000a81548163ffffffff021916908363ffffffff16021790555060208201518160000160046101000a8154817bffffffffffffffffffffffffffffffffffffffffffffffffffffffff02191690837bffffffffffffffffffffffffffffffffffffffffffffffffffffffff16021790555050505b50935093915050565b600073ffffffffffffffffffffffffffffffffffffffff168273ffffffffffffffffffffffffffffffffffffffff161415612b59576040517f08c379a0000000000000000000000000000000000000000000000000000000008152600401612b5090613945565b60405180910390fd5b612b6582600083611e88565b60008060008473ffffffffffffffffffffffffffffffffffffffff1673ffffffffffffffffffffffffffffffffffffffff16815260200190815260200160002054905081811015612beb576040517f08c379a0000000000000000000000000000000000000000000000000000000008152600401612be290613785565b60405180910390fd5b8181036000808573ffffffffffffffffffffffffffffffffffffffff1673ffffffffffffffffffffffffffffffffffffffff168152602001908152602001600020819055508160026000828254612c429190613b63565b92505081905550600073ffffffffffffffffffffffffffffffffffffffff168373ffffffffffffffffffffffffffffffffffffffff167fddf252ad1be2c89b69c2b068fc378daa952ba7f163c4a11628f55a4df523b3ef84604051612ca79190613a20565b60405180910390a3612cbb83600084611e8d565b505050565b60008183612cce9190613b63565b905092915050565b505050565b60007bffffffffffffffffffffffffffffffffffffffffffffffffffffffff8016821115612d3e576040517f08c379a0000000000000000000000000000000000000000000000000000000008152600401612d3590613925565b60405180910390fd5b819050919050565b6040518060400160405280600063ffffffff16815260200160007bffffffffffffffffffffffffffffffffffffffffffffffffffffffff1681525090565b600081359050612d93816143b7565b92915050565b600081359050612da8816143ce565b92915050565b600081359050612dbd816143e5565b92915050565b600081359050612dd2816143fc565b92915050565b600081359050612de781614413565b92915050565b600060208284031215612dff57600080fd5b6000612e0d84828501612d84565b91505092915050565b60008060408385031215612e2957600080fd5b6000612e3785828601612d84565b9250506020612e4885828601612d84565b9150509250929050565b600080600060608486031215612e6757600080fd5b6000612e7586828701612d84565b9350506020612e8686828701612d84565b9250506040612e9786828701612dae565b9150509250925092565b600080600080600080600060e0888a031215612ebc57600080fd5b6000612eca8a828b01612d84565b9750506020612edb8a828b01612d84565b9650506040612eec8a828b01612dae565b9550506060612efd8a828b01612dae565b9450506080612f0e8a828b01612dd8565b93505060a0612f1f8a828b01612d99565b92505060c0612f308a828b01612d99565b91505092959891949750929550565b60008060408385031215612f5257600080fd5b6000612f6085828601612d84565b9250506020612f7185828601612dae565b9150509250929050565b60008060008060008060c08789031215612f9457600080fd5b6000612fa289828a01612d84565b9650506020612fb389828a01612dae565b9550506040612fc489828a01612dae565b9450506060612fd589828a01612dd8565b9350506080612fe689828a01612d99565b92505060a0612ff789828a01612d99565b9150509295509295509295565b6000806040838503121561301757600080fd5b600061302585828601612d84565b925050602061303685828601612dc3565b9150509250929050565b60006020828403121561305257600080fd5b600061306084828501612dae565b91505092915050565b61307281613b97565b82525050565b61308181613ba9565b82525050565b61309081613bb5565b82525050565b6130a76130a282613bb5565b613cab565b82525050565b60006130b882613ab5565b6130c28185613ac0565b93506130d2818560208601613c46565b6130db81613d42565b840191505092915050565b60006130f3601883613ac0565b91506130fe82613d53565b602082019050919050565b6000613116602383613ac0565b915061312182613d7c565b604082019050919050565b6000613139602683613ac0565b915061314482613dcb565b604082019050919050565b600061315c601f83613ac0565b915061316782613e1a565b602082019050919050565b600061317f601d83613ac0565b915061318a82613e43565b602082019050919050565b60006131a2602283613ac0565b91506131ad82613e6c565b604082019050919050565b60006131c5601f83613ac0565b91506131d082613ebb565b602082019050919050565b60006131e8601983613ac0565b91506131f382613ee4565b602082019050919050565b600061320b602683613ac0565b915061321682613f0d565b604082019050919050565b600061322e602283613ac0565b915061323982613f5c565b604082019050919050565b6000613251600283613ad1565b915061325c82613fab565b600282019050919050565b6000613274601d83613ac0565b915061327f82613fd4565b602082019050919050565b6000613297601d83613ac0565b91506132a282613ffd565b602082019050919050565b60006132ba602683613ac0565b91506132c582614026565b604082019050919050565b60006132dd602283613ac0565b91506132e882614075565b604082019050919050565b6000613300602283613ac0565b915061330b826140c4565b604082019050919050565b6000613323601e83613ac0565b915061332e82614113565b602082019050919050565b6000613346603083613ac0565b91506133518261413c565b604082019050919050565b6000613369602083613ac0565b91506133748261418b565b602082019050919050565b600061338c602783613ac0565b9150613397826141b4565b604082019050919050565b60006133af602183613ac0565b91506133ba82614203565b604082019050919050565b60006133d2602583613ac0565b91506133dd82614252565b604082019050919050565b60006133f5602683613ac0565b9150613400826142a1565b604082019050919050565b6000613418602483613ac0565b9150613423826142f0565b604082019050919050565b600061343b602583613ac0565b91506134468261433f565b604082019050919050565b600061345e601f83613ac0565b91506134698261438e565b602082019050919050565b60408201600082015161348a60008501826134c1565b50602082015161349d60208501826134a3565b50505050565b6134ac81613bdf565b82525050565b6134bb81613c07565b82525050565b6134ca81613c11565b82525050565b6134d981613c11565b82525050565b6134e881613c21565b82525050565b6134f781613c2e565b82525050565b600061350882613244565b91506135148285613096565b6020820191506135248284613096565b6020820191508190509392505050565b60006020820190506135496000830184613069565b92915050565b60006020820190506135646000830184613078565b92915050565b600060208201905061357f6000830184613087565b92915050565b600060c08201905061359a6000830189613087565b6135a76020830188613069565b6135b46040830187613069565b6135c160608301866134b2565b6135ce60808301856134b2565b6135db60a08301846134b2565b979650505050505050565b60006080820190506135fb6000830187613087565b6136086020830186613069565b61361560408301856134b2565b61362260608301846134b2565b95945050505050565b600060a0820190506136406000830188613087565b61364d6020830187613087565b61365a6040830186613087565b61366760608301856134b2565b6136746080830184613069565b9695505050505050565b60006080820190506136936000830187613087565b6136a060208301866134df565b6136ad6040830185613087565b6136ba6060830184613087565b95945050505050565b600060208201905081810360008301526136dd81846130ad565b905092915050565b600060208201905081810360008301526136fe816130e6565b9050919050565b6000602082019050818103600083015261371e81613109565b9050919050565b6000602082019050818103600083015261373e8161312c565b9050919050565b6000602082019050818103600083015261375e8161314f565b9050919050565b6000602082019050818103600083015261377e81613172565b9050919050565b6000602082019050818103600083015261379e81613195565b9050919050565b600060208201905081810360008301526137be816131b8565b9050919050565b600060208201905081810360008301526137de816131db565b9050919050565b600060208201905081810360008301526137fe816131fe565b9050919050565b6000602082019050818103600083015261381e81613221565b9050919050565b6000602082019050818103600083015261383e81613267565b9050919050565b6000602082019050818103600083015261385e8161328a565b9050919050565b6000602082019050818103600083015261387e816132ad565b9050919050565b6000602082019050818103600083015261389e816132d0565b9050919050565b600060208201905081810360008301526138be816132f3565b9050919050565b600060208201905081810360008301526138de81613316565b9050919050565b600060208201905081810360008301526138fe81613339565b9050919050565b6000602082019050818103600083015261391e8161335c565b9050919050565b6000602082019050818103600083015261393e8161337f565b9050919050565b6000602082019050818103600083015261395e816133a2565b9050919050565b6000602082019050818103600083015261397e816133c5565b9050919050565b6000602082019050818103600083015261399e816133e8565b9050919050565b600060208201905081810360008301526139be8161340b565b9050919050565b600060208201905081810360008301526139de8161342e565b9050919050565b600060208201905081810360008301526139fe81613451565b9050919050565b6000604082019050613a1a6000830184613474565b92915050565b6000602082019050613a3560008301846134b2565b92915050565b6000604082019050613a5060008301856134b2565b613a5d60208301846134b2565b9392505050565b6000602082019050613a7960008301846134d0565b92915050565b6000602082019050613a9460008301846134df565b92915050565b6000602082019050613aaf60008301846134ee565b92915050565b600081519050919050565b600082825260208201905092915050565b600081905092915050565b6000613ae782613c07565b9150613af283613c07565b9250827fffffffffffffffffffffffffffffffffffffffffffffffffffffffffffffffff03821115613b2757613b26613cb5565b5b828201905092915050565b6000613b3d82613c07565b9150613b4883613c07565b925082613b5857613b57613ce4565b5b828204905092915050565b6000613b6e82613c07565b9150613b7983613c07565b925082821015613b8c57613b8b613cb5565b5b828203905092915050565b6000613ba282613bbf565b9050919050565b60008115159050919050565b6000819050919050565b600073ffffffffffffffffffffffffffffffffffffffff82169050919050565b60007bffffffffffffffffffffffffffffffffffffffffffffffffffffffff82169050919050565b6000819050919050565b600063ffffffff82169050919050565b600060ff82169050919050565b60006bffffffffffffffffffffffff82169050919050565b60005b83811015613c64578082015181840152602081019050613c49565b83811115613c73576000848401525b50505050565b60006002820490506001821680613c9157607f821691505b60208210811415613ca557613ca4613d13565b5b50919050565b6000819050919050565b7f4e487b7100000000000000000000000000000000000000000000000000000000600052601160045260246000fd5b7f4e487b7100000000000000000000000000000000000000000000000000000000600052601260045260246000fd5b7f4e487b7100000000000000000000000000000000000000000000000000000000600052602260045260246000fd5b6000601f19601f8301169050919050565b7f45434453413a20696e76616c6964207369676e61747572650000000000000000600082015250565b7f45524332303a207472616e7366657220746f20746865207a65726f206164647260008201527f6573730000000000000000000000000000000000000000000000000000000000602082015250565b7f53616665436173743a2076616c756520646f65736e27742066697420696e203960008201527f3620626974730000000000000000000000000000000000000000000000000000602082015250565b7f4552433230566f7465733a20626c6f636b206e6f7420796574206d696e656400600082015250565b7f4552433230566f7465733a207369676e61747572652065787069726564000000600082015250565b7f45524332303a206275726e20616d6f756e7420657863656564732062616c616e60008201527f6365000000000000000000000000000000000000000000000000000000000000602082015250565b7f45434453413a20696e76616c6964207369676e6174757265206c656e67746800600082015250565b7f4552433230566f7465733a20696e76616c6964206e6f6e636500000000000000600082015250565b7f4f776e61626c653a206e6577206f776e657220697320746865207a65726f206160008201527f6464726573730000000000000000000000000000000000000000000000000000602082015250565b7f45524332303a20617070726f766520746f20746865207a65726f20616464726560008201527f7373000000000000000000000000000000000000000000000000000000000000602082015250565b7f1901000000000000000000000000000000000000000000000000000000000000600082015250565b7f45524332303a20696e73756666696369656e7420616c6c6f77616e6365000000600082015250565b7f45524332305065726d69743a206578706972656420646561646c696e65000000600082015250565b7f45524332303a207472616e7366657220616d6f756e742065786365656473206260008201527f616c616e63650000000000000000000000000000000000000000000000000000602082015250565b7f45434453413a20696e76616c6964207369676e6174757265202773272076616c60008201527f7565000000000000000000000000000000000000000000000000000000000000602082015250565b7f45434453413a20696e76616c6964207369676e6174757265202776272076616c60008201527f7565000000000000000000000000000000000000000000000000000000000000602082015250565b7f45524332305065726d69743a20696e76616c6964207369676e61747572650000600082015250565b7f4552433230566f7465733a20746f74616c20737570706c79207269736b73206f60008201527f766572666c6f77696e6720766f74657300000000000000000000000000000000602082015250565b7f4f776e61626c653a2063616c6c6572206973206e6f7420746865206f776e6572600082015250565b7f53616665436173743a2076616c756520646f65736e27742066697420696e203260008201527f3234206269747300000000000000000000000000000000000000000000000000602082015250565b7f45524332303a206275726e2066726f6d20746865207a65726f2061646472657360008201527f7300000000000000000000000000000000000000000000000000000000000000602082015250565b7f45524332303a207472616e736665722066726f6d20746865207a65726f20616460008201527f6472657373000000000000000000000000000000000000000000000000000000602082015250565b7f53616665436173743a2076616c756520646f65736e27742066697420696e203360008201527f3220626974730000000000000000000000000000000000000000000000000000602082015250565b7f45524332303a20617070726f76652066726f6d20746865207a65726f2061646460008201527f7265737300000000000000000000000000000000000000000000000000000000602082015250565b7f45524332303a2064656372656173656420616c6c6f77616e63652062656c6f7760008201527f207a65726f000000000000000000000000000000000000000000000000000000602082015250565b7f45524332303a206d696e7420746f20746865207a65726f206164647265737300600082015250565b6143c081613b97565b81146143cb57600080fd5b50565b6143d781613bb5565b81146143e257600080fd5b50565b6143ee81613c07565b81146143f957600080fd5b50565b61440581613c11565b811461441057600080fd5b50565b61441c81613c21565b811461442757600080fd5b5056fea2646970667358221220e9a0dae9418eff4cab40e95dac8c614dbd23c1f4989fe1f99b6fe5fc132bd57564736f6c63430008040033",
  "linkReferences": {},
  "deployedLinkReferences": {}
}