{
  "_format": "hh-sol-artifact-1",
  "contractName": "KaiDexToken",
  "sourceName": "contracts/KaidexToken.sol",
  "abi": [
    {
      "inputs": [
        {
          "internalType": "string",
          "name": "name_",
          "type": "string"
        },
        {
          "internalType": "string",
          "name": "symbol_",
          "type": "string"
        }
      ],
      "stateMutability": "nonpayable",
      "type": "constructor"
    },
    {
      "anonymous": false,
      "inputs": [
        {
          "indexed": true,
          "internalType": "address",
          "name": "owner",
          "type": "address"
        },
        {
          "indexed": true,
          "internalType": "address",
          "name": "spender",
          "type": "address"
        },
        {
          "indexed": false,
          "internalType": "uint256",
          "name": "value",
          "type": "uint256"
        }
      ],
      "name": "Approval",
      "type": "event"
    },
    {
      "anonymous": false,
      "inputs": [
        {
          "indexed": true,
          "internalType": "address",
          "name": "delegator",
          "type": "address"
        },
        {
          "indexed": true,
          "internalType": "address",
          "name": "fromDelegate",
          "type": "address"
        },
        {
          "indexed": true,
          "internalType": "address",
          "name": "toDelegate",
          "type": "address"
        }
      ],
      "name": "DelegateChanged",
      "type": "event"
    },
    {
      "anonymous": false,
      "inputs": [
        {
          "indexed": true,
          "internalType": "address",
          "name": "delegate",
          "type": "address"
        },
        {
          "indexed": false,
          "internalType": "uint256",
          "name": "previousBalance",
          "type": "uint256"
        },
        {
          "indexed": false,
          "internalType": "uint256",
          "name": "newBalance",
          "type": "uint256"
        }
      ],
      "name": "DelegateVotesChanged",
      "type": "event"
    },
    {
      "anonymous": false,
      "inputs": [
        {
          "indexed": true,
          "internalType": "address",
          "name": "previousOwner",
          "type": "address"
        },
        {
          "indexed": true,
          "internalType": "address",
          "name": "newOwner",
          "type": "address"
        }
      ],
      "name": "OwnershipTransferred",
      "type": "event"
    },
    {
      "anonymous": false,
      "inputs": [
        {
          "indexed": true,
          "internalType": "address",
          "name": "from",
          "type": "address"
        },
        {
          "indexed": true,
          "internalType": "address",
          "name": "to",
          "type": "address"
        },
        {
          "indexed": false,
          "internalType": "uint256",
          "name": "value",
          "type": "uint256"
        }
      ],
      "name": "Transfer",
      "type": "event"
    },
    {
      "inputs": [],
      "name": "DOMAIN_SEPARATOR",
      "outputs": [
        {
          "internalType": "bytes32",
          "name": "",
          "type": "bytes32"
        }
      ],
      "stateMutability": "view",
      "type": "function"
    },
    {
      "inputs": [
        {
          "internalType": "address",
          "name": "owner",
          "type": "address"
        },
        {
          "internalType": "address",
          "name": "spender",
          "type": "address"
        }
      ],
      "name": "allowance",
      "outputs": [
        {
          "internalType": "uint256",
          "name": "",
          "type": "uint256"
        }
      ],
      "stateMutability": "view",
      "type": "function"
    },
    {
      "inputs": [
        {
          "internalType": "address",
          "name": "spender",
          "type": "address"
        },
        {
          "internalType": "uint256",
          "name": "amount",
          "type": "uint256"
        }
      ],
      "name": "approve",
      "outputs": [
        {
          "internalType": "bool",
          "name": "",
          "type": "bool"
        }
      ],
      "stateMutability": "nonpayable",
      "type": "function"
    },
    {
      "inputs": [
        {
          "internalType": "address",
          "name": "account",
          "type": "address"
        }
      ],
      "name": "balanceOf",
      "outputs": [
        {
          "internalType": "uint256",
          "name": "",
          "type": "uint256"
        }
      ],
      "stateMutability": "view",
      "type": "function"
    },
    {
      "inputs": [
        {
          "internalType": "uint256",
          "name": "amount",
          "type": "uint256"
        }
      ],
      "name": "burn",
      "outputs": [],
      "stateMutability": "nonpayable",
      "type": "function"
    },
    {
      "inputs": [
        {
          "internalType": "address",
          "name": "account",
          "type": "address"
        },
        {
          "internalType": "uint256",
          "name": "amount",
          "type": "uint256"
        }
      ],
      "name": "burnFrom",
      "outputs": [],
      "stateMutability": "nonpayable",
      "type": "function"
    },
    {
      "inputs": [
        {
          "internalType": "address",
          "name": "account",
          "type": "address"
        },
        {
          "internalType": "uint32",
          "name": "pos",
          "type": "uint32"
        }
      ],
      "name": "checkpoints",
      "outputs": [
        {
          "components": [
            {
              "internalType": "uint32",
              "name": "fromBlock",
              "type": "uint32"
            },
            {
              "internalType": "uint224",
              "name": "votes",
              "type": "uint224"
            }
          ],
          "internalType": "struct ERC20Votes.Checkpoint",
          "name": "",
          "type": "tuple"
        }
      ],
      "stateMutability": "view",
      "type": "function"
    },
    {
      "inputs": [],
      "name": "decimals",
      "outputs": [
        {
          "internalType": "uint8",
          "name": "",
          "type": "uint8"
        }
      ],
      "stateMutability": "view",
      "type": "function"
    },
    {
      "inputs": [
        {
          "internalType": "address",
          "name": "spender",
          "type": "address"
        },
        {
          "internalType": "uint256",
          "name": "subtractedValue",
          "type": "uint256"
        }
      ],
      "name": "decreaseAllowance",
      "outputs": [
        {
          "internalType": "bool",
          "name": "",
          "type": "bool"
        }
      ],
      "stateMutability": "nonpayable",
      "type": "function"
    },
    {
      "inputs": [
        {
          "internalType": "address",
          "name": "delegatee",
          "type": "address"
        }
      ],
      "name": "delegate",
      "outputs": [],
      "stateMutability": "nonpayable",
      "type": "function"
    },
    {
      "inputs": [
        {
          "internalType": "address",
          "name": "delegatee",
          "type": "address"
        },
        {
          "internalType": "uint256",
          "name": "nonce",
          "type": "uint256"
        },
        {
          "internalType": "uint256",
          "name": "expiry",
          "type": "uint256"
        },
        {
          "internalType": "uint8",
          "name": "v",
          "type": "uint8"
        },
        {
          "internalType": "bytes32",
          "name": "r",
          "type": "bytes32"
        },
        {
          "internalType": "bytes32",
          "name": "s",
          "type": "bytes32"
        }
      ],
      "name": "delegateBySig",
      "outputs": [],
      "stateMutability": "nonpayable",
      "type": "function"
    },
    {
      "inputs": [
        {
          "internalType": "address",
          "name": "account",
          "type": "address"
        }
      ],
      "name": "delegates",
      "outputs": [
        {
          "internalType": "address",
          "name": "",
          "type": "address"
        }
      ],
      "stateMutability": "view",
      "type": "function"
    },
    {
      "inputs": [
        {
          "internalType": "address",
          "name": "account",
          "type": "address"
        }
      ],
      "name": "getCurrentVotes",
      "outputs": [
        {
          "internalType": "uint96",
          "name": "",
          "type": "uint96"
        }
      ],
      "stateMutability": "view",
      "type": "function"
    },
    {
      "inputs": [
        {
          "internalType": "uint256",
          "name": "blockNumber",
          "type": "uint256"
        }
      ],
      "name": "getPastTotalSupply",
      "outputs": [
        {
          "internalType": "uint256",
          "name": "",
          "type": "uint256"
        }
      ],
      "stateMutability": "view",
      "type": "function"
    },
    {
      "inputs": [
        {
          "internalType": "address",
          "name": "account",
          "type": "address"
        },
        {
          "internalType": "uint256",
          "name": "blockNumber",
          "type": "uint256"
        }
      ],
      "name": "getPastVotes",
      "outputs": [
        {
          "internalType": "uint256",
          "name": "",
          "type": "uint256"
        }
      ],
      "stateMutability": "view",
      "type": "function"
    },
    {
      "inputs": [
        {
          "internalType": "address",
          "name": "account",
          "type": "address"
        },
        {
          "internalType": "uint256",
          "name": "blockNumber",
          "type": "uint256"
        }
      ],
      "name": "getPriorVotes",
      "outputs": [
        {
          "internalType": "uint96",
          "name": "",
          "type": "uint96"
        }
      ],
      "stateMutability": "view",
      "type": "function"
    },
    {
      "inputs": [
        {
          "internalType": "address",
          "name": "account",
          "type": "address"
        }
      ],
      "name": "getVotes",
      "outputs": [
        {
          "internalType": "uint256",
          "name": "",
          "type": "uint256"
        }
      ],
      "stateMutability": "view",
      "type": "function"
    },
    {
      "inputs": [
        {
          "internalType": "address",
          "name": "spender",
          "type": "address"
        },
        {
          "internalType": "uint256",
          "name": "addedValue",
          "type": "uint256"
        }
      ],
      "name": "increaseAllowance",
      "outputs": [
        {
          "internalType": "bool",
          "name": "",
          "type": "bool"
        }
      ],
      "stateMutability": "nonpayable",
      "type": "function"
    },
    {
      "inputs": [
        {
          "internalType": "address",
          "name": "_to",
          "type": "address"
        },
        {
          "internalType": "uint256",
          "name": "_amount",
          "type": "uint256"
        }
      ],
      "name": "mint",
      "outputs": [],
      "stateMutability": "nonpayable",
      "type": "function"
    },
    {
      "inputs": [],
      "name": "name",
      "outputs": [
        {
          "internalType": "string",
          "name": "",
          "type": "string"
        }
      ],
      "stateMutability": "view",
      "type": "function"
    },
    {
      "inputs": [
        {
          "internalType": "address",
          "name": "owner",
          "type": "address"
        }
      ],
      "name": "nonces",
      "outputs": [
        {
          "internalType": "uint256",
          "name": "",
          "type": "uint256"
        }
      ],
      "stateMutability": "view",
      "type": "function"
    },
    {
      "inputs": [
        {
          "internalType": "address",
          "name": "account",
          "type": "address"
        }
      ],
      "name": "numCheckpoints",
      "outputs": [
        {
          "internalType": "uint32",
          "name": "",
          "type": "uint32"
        }
      ],
      "stateMutability": "view",
      "type": "function"
    },
    {
      "inputs": [],
      "name": "owner",
      "outputs": [
        {
          "internalType": "address",
          "name": "",
          "type": "address"
        }
      ],
      "stateMutability": "view",
      "type": "function"
    },
    {
      "inputs": [
        {
          "internalType": "address",
          "name": "owner",
          "type": "address"
        },
        {
          "internalType": "address",
          "name": "spender",
          "type": "address"
        },
        {
          "internalType": "uint256",
          "name": "value",
          "type": "uint256"
        },
        {
          "internalType": "uint256",
          "name": "deadline",
          "type": "uint256"
        },
        {
          "internalType": "uint8",
          "name": "v",
          "type": "uint8"
        },
        {
          "internalType": "bytes32",
          "name": "r",
          "type": "bytes32"
        },
        {
          "internalType": "bytes32",
          "name": "s",
          "type": "bytes32"
        }
      ],
      "name": "permit",
      "outputs": [],
      "stateMutability": "nonpayable",
      "type": "function"
    },
    {
      "inputs": [],
      "name": "renounceOwnership",
      "outputs": [],
      "stateMutability": "nonpayable",
      "type": "function"
    },
    {
      "inputs": [],
      "name": "symbol",
      "outputs": [
        {
          "internalType": "string",
          "name": "",
          "type": "string"
        }
      ],
      "stateMutability": "view",
      "type": "function"
    },
    {
      "inputs": [],
      "name": "totalSupply",
      "outputs": [
        {
          "internalType": "uint256",
          "name": "",
          "type": "uint256"
        }
      ],
      "stateMutability": "view",
      "type": "function"
    },
    {
      "inputs": [
        {
          "internalType": "address",
          "name": "to",
          "type": "address"
        },
        {
          "internalType": "uint256",
          "name": "amount",
          "type": "uint256"
        }
      ],
      "name": "transfer",
      "outputs": [
        {
          "internalType": "bool",
          "name": "",
          "type": "bool"
        }
      ],
      "stateMutability": "nonpayable",
      "type": "function"
    },
    {
      "inputs": [
        {
          "internalType": "address",
          "name": "from",
          "type": "address"
        },
        {
          "internalType": "address",
          "name": "to",
          "type": "address"
        },
        {
          "internalType": "uint256",
          "name": "amount",
          "type": "uint256"
        }
      ],
      "name": "transferFrom",
      "outputs": [
        {
          "internalType": "bool",
          "name": "",
          "type": "bool"
        }
      ],
      "stateMutability": "nonpayable",
      "type": "function"
    },
    {
      "inputs": [
        {
          "internalType": "address",
          "name": "newOwner",
          "type": "address"
        }
      ],
      "name": "transferOwnership",
      "outputs": [],
      "stateMutability": "nonpayable",
      "type": "function"
    }
  ],
  "bytecode": "0x6101406040523480156200001257600080fd5b50604051620024ec380380620024ec8339810160408190526200003591620002e7565b8180604051806040016040528060018152602001603160f81b815250848481600390805190602001906200006b9291906200018e565b508051620000819060049060208401906200018e565b5050825160208085019190912083518483012060e08290526101008190524660a0818152604080517f8b73c3c69bb8fe3d512ecc4cf759cc79239f7b179b0ffacaa9a75d522b39400f81880181905281830187905260608201869052608082019490945230818401528151808203909301835260c0019052805194019390932091935091906080523060601b60c05261012052506200013093506200012a925050620001389050565b6200013c565b5050620003a1565b3390565b600a80546001600160a01b038381166001600160a01b0319831681179093556040519116919082907f8be0079c531659141344cd1fd0a4f28419497f9722a3daafe3b4186f6b6457e090600090a35050565b8280546200019c906200034e565b90600052602060002090601f016020900481019282620001c057600085556200020b565b82601f10620001db57805160ff19168380011785556200020b565b828001600101855582156200020b579182015b828111156200020b578251825591602001919060010190620001ee565b50620002199291506200021d565b5090565b5b808211156200021957600081556001016200021e565b600082601f83011262000245578081fd5b81516001600160401b03808211156200026257620002626200038b565b604051601f8301601f19908116603f011681019082821181831017156200028d576200028d6200038b565b81604052838152602092508683858801011115620002a9578485fd5b8491505b83821015620002cc5785820183015181830184015290820190620002ad565b83821115620002dd57848385830101525b9695505050505050565b60008060408385031215620002fa578182fd5b82516001600160401b038082111562000311578384fd5b6200031f8683870162000234565b9350602085015191508082111562000335578283fd5b50620003448582860162000234565b9150509250929050565b600181811c908216806200036357607f821691505b602082108114156200038557634e487b7160e01b600052602260045260246000fd5b50919050565b634e487b7160e01b600052604160045260246000fd5b60805160a05160c05160601c60e05161010051610120516120f8620003f4600039600061103a015260006110890152600061106401526000610fbd01526000610fe70152600061101101526120f86000f3fe608060405234801561001057600080fd5b50600436106101da5760003560e01c8063782d6fe111610104578063a457c2d7116100a2578063d505accf11610071578063d505accf14610436578063dd62ed3e14610449578063f1127ed81461045c578063f2fde38b1461049957600080fd5b8063a457c2d7146103ea578063a9059cbb146103fd578063b4b5ea5714610410578063c3cda5201461042357600080fd5b80638da5cb5b116100de5780638da5cb5b146103ab5780638e539e8c146103bc57806395d89b41146103cf5780639ab24eb0146103d757600080fd5b8063782d6fe11461035a57806379cc6790146103855780637ecebe001461039857600080fd5b80633a46b1a81161017c5780635c19a95c1161014b5780635c19a95c146102ee5780636fcfff451461030157806370a0823114610329578063715018a61461035257600080fd5b80633a46b1a81461026f57806340c10f191461028257806342966c6814610297578063587cde1e146102aa57600080fd5b806323b872dd116101b857806323b872dd14610232578063313ce567146102455780633644e51514610254578063395093511461025c57600080fd5b806306fdde03146101df578063095ea7b3146101fd57806318160ddd14610220575b600080fd5b6101e76104ac565b6040516101f49190611fd5565b60405180910390f35b61021061020b366004611eff565b61053e565b60405190151581526020016101f4565b6002545b6040519081526020016101f4565b610210610240366004611e5b565b610556565b604051601281526020016101f4565b61022461057a565b61021061026a366004611eff565b610589565b61022461027d366004611eff565b6105ab565b610295610290366004611eff565b61062a565b005b6102956102a5366004611fbd565b610640565b6102d66102b8366004611e0f565b6001600160a01b039081166000908152600760205260409020541690565b6040516001600160a01b0390911681526020016101f4565b6102956102fc366004611e0f565b61064d565b61031461030f366004611e0f565b610657565b60405163ffffffff90911681526020016101f4565b610224610337366004611e0f565b6001600160a01b031660009081526020819052604090205490565b61029561067f565b61036d610368366004611eff565b610693565b6040516001600160601b0390911681526020016101f4565b610295610393366004611eff565b6106a7565b6102246103a6366004611e0f565b6106bc565b600a546001600160a01b03166102d6565b6102246103ca366004611fbd565b6106da565b6101e7610736565b6102246103e5366004611e0f565b610745565b6102106103f8366004611eff565b6107da565b61021061040b366004611eff565b610855565b61036d61041e366004611e0f565b610863565b610295610431366004611f28565b610871565b610295610444366004611e96565b6109a7565b610224610457366004611e29565b610b0b565b61046f61046a366004611f7f565b610b36565b60408051825163ffffffff1681526020928301516001600160e01b031692810192909252016101f4565b6102956104a7366004611e0f565b610bc8565b6060600380546104bb90612077565b80601f01602080910402602001604051908101604052809291908181526020018280546104e790612077565b80156105345780601f1061050957610100808354040283529160200191610534565b820191906000526020600020905b81548152906001019060200180831161051757829003601f168201915b5050505050905090565b60003361054c818585610c3e565b5060019392505050565b600033610564858285610d62565b61056f858585610ddc565b506001949350505050565b6000610584610fb0565b905090565b60003361054c81858561059c8383610b0b565b6105a69190612028565b610c3e565b60004382106106015760405162461bcd60e51b815260206004820152601f60248201527f4552433230566f7465733a20626c6f636b206e6f7420796574206d696e65640060448201526064015b60405180910390fd5b6001600160a01b038316600090815260086020526040902061062390836110d7565b9392505050565b6106326111b0565b61063c828261120a565b5050565b61064a3382611214565b50565b61064a338261121e565b6001600160a01b03811660009081526008602052604081205461067990611297565b92915050565b6106876111b0565b6106916000611300565b565b60006106236106a284846105ab565b611352565b6106b2823383610d62565b61063c8282611214565b6001600160a01b038116600090815260056020526040812054610679565b600043821061072b5760405162461bcd60e51b815260206004820152601f60248201527f4552433230566f7465733a20626c6f636b206e6f7420796574206d696e65640060448201526064016105f8565b6106796009836110d7565b6060600480546104bb90612077565b6001600160a01b03811660009081526008602052604081205480156107c7576001600160a01b0383166000908152600860205260409020610787600183612060565b815481106107a557634e487b7160e01b600052603260045260246000fd5b60009182526020909120015464010000000090046001600160e01b03166107ca565b60005b6001600160e01b03169392505050565b600033816107e88286610b0b565b9050838110156108485760405162461bcd60e51b815260206004820152602560248201527f45524332303a2064656372656173656420616c6c6f77616e63652062656c6f77604482015264207a65726f60d81b60648201526084016105f8565b61056f8286868403610c3e565b60003361054c818585610ddc565b60006106796106a283610745565b834211156108c15760405162461bcd60e51b815260206004820152601d60248201527f4552433230566f7465733a207369676e6174757265206578706972656400000060448201526064016105f8565b604080517fe48329057bfd03d55e49b547132e39cffd9c1820ad7b9d4c5307691425d15adf60208201526001600160a01b03881691810191909152606081018690526080810185905260009061093b906109339060a001604051602081830303815290604052805190602001206113ba565b858585611408565b905061094681611430565b86146109945760405162461bcd60e51b815260206004820152601960248201527f4552433230566f7465733a20696e76616c6964206e6f6e63650000000000000060448201526064016105f8565b61099e818861121e565b50505050505050565b834211156109f75760405162461bcd60e51b815260206004820152601d60248201527f45524332305065726d69743a206578706972656420646561646c696e6500000060448201526064016105f8565b60007f6e71edae12b1b97f4d1f60370fef10105fa2faae0126114a169c64845d6126c9888888610a268c611430565b6040805160208101969096526001600160a01b0394851690860152929091166060840152608083015260a082015260c0810186905260e0016040516020818303038152906040528051906020012090506000610a81826113ba565b90506000610a9182878787611408565b9050896001600160a01b0316816001600160a01b031614610af45760405162461bcd60e51b815260206004820152601e60248201527f45524332305065726d69743a20696e76616c6964207369676e6174757265000060448201526064016105f8565b610aff8a8a8a610c3e565b50505050505050505050565b6001600160a01b03918216600090815260016020908152604080832093909416825291909152205490565b60408051808201909152600080825260208201526001600160a01b0383166000908152600860205260409020805463ffffffff8416908110610b8857634e487b7160e01b600052603260045260246000fd5b60009182526020918290206040805180820190915291015463ffffffff8116825264010000000090046001600160e01b0316918101919091529392505050565b610bd06111b0565b6001600160a01b038116610c355760405162461bcd60e51b815260206004820152602660248201527f4f776e61626c653a206e6577206f776e657220697320746865207a65726f206160448201526564647265737360d01b60648201526084016105f8565b61064a81611300565b6001600160a01b038316610ca05760405162461bcd60e51b8152602060048201526024808201527f45524332303a20617070726f76652066726f6d20746865207a65726f206164646044820152637265737360e01b60648201526084016105f8565b6001600160a01b038216610d015760405162461bcd60e51b815260206004820152602260248201527f45524332303a20617070726f766520746f20746865207a65726f206164647265604482015261737360f01b60648201526084016105f8565b6001600160a01b0383811660008181526001602090815260408083209487168084529482529182902085905590518481527f8c5be1e5ebec7d5bd14f71427d1e84f3dd0314c0f7b2291e5b200ac8c7c3b925910160405180910390a3505050565b6000610d6e8484610b0b565b90506000198114610dd65781811015610dc95760405162461bcd60e51b815260206004820152601d60248201527f45524332303a20696e73756666696369656e7420616c6c6f77616e636500000060448201526064016105f8565b610dd68484848403610c3e565b50505050565b6001600160a01b038316610e405760405162461bcd60e51b815260206004820152602560248201527f45524332303a207472616e736665722066726f6d20746865207a65726f206164604482015264647265737360d81b60648201526084016105f8565b6001600160a01b038216610ea25760405162461bcd60e51b815260206004820152602360248201527f45524332303a207472616e7366657220746f20746865207a65726f206164647260448201526265737360e81b60648201526084016105f8565b6001600160a01b03831660009081526020819052604090205481811015610f1a5760405162461bcd60e51b815260206004820152602660248201527f45524332303a207472616e7366657220616d6f756e7420657863656564732062604482015265616c616e636560d01b60648201526084016105f8565b6001600160a01b03808516600090815260208190526040808220858503905591851681529081208054849290610f51908490612028565b92505081905550826001600160a01b0316846001600160a01b03167fddf252ad1be2c89b69c2b068fc378daa952ba7f163c4a11628f55a4df523b3ef84604051610f9d91815260200190565b60405180910390a3610dd684848461145d565b6000306001600160a01b037f00000000000000000000000000000000000000000000000000000000000000001614801561100957507f000000000000000000000000000000000000000000000000000000000000000046145b1561103357507f000000000000000000000000000000000000000000000000000000000000000090565b50604080517f00000000000000000000000000000000000000000000000000000000000000006020808301919091527f0000000000000000000000000000000000000000000000000000000000000000828401527f000000000000000000000000000000000000000000000000000000000000000060608301524660808301523060a0808401919091528351808403909101815260c0909201909252805191012090565b8154600090815b818110156111495760006110f28284611468565b90508486828154811061111557634e487b7160e01b600052603260045260246000fd5b60009182526020909120015463ffffffff16111561113557809250611143565b611140816001612028565b91505b506110de565b811561119b578461115b600184612060565b8154811061117957634e487b7160e01b600052603260045260246000fd5b60009182526020909120015464010000000090046001600160e01b031661119e565b60005b6001600160e01b031695945050505050565b600a546001600160a01b031633146106915760405162461bcd60e51b815260206004820181905260248201527f4f776e61626c653a2063616c6c6572206973206e6f7420746865206f776e657260448201526064016105f8565b61063c8282611483565b61063c828261150d565b6001600160a01b038281166000818152600760208181526040808420805485845282862054949093528787166001600160a01b03198416811790915590519190951694919391928592917f3134e8a2e6d97e929a7e54011ea5485d7d196dd5f0ba4d4ef95803e8e3fc257f9190a4610dd6828483611525565b600063ffffffff8211156112fc5760405162461bcd60e51b815260206004820152602660248201527f53616665436173743a2076616c756520646f65736e27742066697420696e203360448201526532206269747360d01b60648201526084016105f8565b5090565b600a80546001600160a01b038381166001600160a01b0319831681179093556040519116919082907f8be0079c531659141344cd1fd0a4f28419497f9722a3daafe3b4186f6b6457e090600090a35050565b60006001600160601b038211156112fc5760405162461bcd60e51b815260206004820152602660248201527f53616665436173743a2076616c756520646f65736e27742066697420696e203960448201526536206269747360d01b60648201526084016105f8565b60006106796113c7610fb0565b8360405161190160f01b6020820152602281018390526042810182905260009060620160405160208183030381529060405280519060200120905092915050565b600080600061141987878787611662565b915091506114268161174f565b5095945050505050565b6001600160a01b03811660009081526005602052604090208054600181018255905b50919050565b505050565b611458838383611950565b60006114776002848418612040565b61062390848416612028565b61148d8282611982565b6002546001600160601b0310156114ff5760405162461bcd60e51b815260206004820152603060248201527f4552433230566f7465733a20746f74616c20737570706c79207269736b73206f60448201526f766572666c6f77696e6720766f74657360801b60648201526084016105f8565b610dd66009611a6983611a75565b6115178282611c18565b610dd66009611d6d83611a75565b816001600160a01b0316836001600160a01b0316141580156115475750600081115b15611458576001600160a01b038316156115d5576001600160a01b0383166000908152600860205260408120819061158290611d6d85611a75565b91509150846001600160a01b03167fdec2bacdd2f05b59de34da9b523dff8be42e5e38e818c82fdb0bae774387a72483836040516115ca929190918252602082015260400190565b60405180910390a250505b6001600160a01b03821615611458576001600160a01b0382166000908152600860205260408120819061160b90611a6985611a75565b91509150836001600160a01b03167fdec2bacdd2f05b59de34da9b523dff8be42e5e38e818c82fdb0bae774387a7248383604051611653929190918252602082015260400190565b60405180910390a25050505050565b6000807f7fffffffffffffffffffffffffffffff5d576e7357a4501ddfe92f46681b20a08311156116995750600090506003611746565b8460ff16601b141580156116b157508460ff16601c14155b156116c25750600090506004611746565b6040805160008082526020820180845289905260ff881692820192909252606081018690526080810185905260019060a0016020604051602081039080840390855afa158015611716573d6000803e3d6000fd5b5050604051601f1901519150506001600160a01b03811661173f57600060019250925050611746565b9150600090505b94509492505050565b600081600481111561177157634e487b7160e01b600052602160045260246000fd5b141561177a5750565b600181600481111561179c57634e487b7160e01b600052602160045260246000fd5b14156117ea5760405162461bcd60e51b815260206004820152601860248201527f45434453413a20696e76616c6964207369676e6174757265000000000000000060448201526064016105f8565b600281600481111561180c57634e487b7160e01b600052602160045260246000fd5b141561185a5760405162461bcd60e51b815260206004820152601f60248201527f45434453413a20696e76616c6964207369676e6174757265206c656e6774680060448201526064016105f8565b600381600481111561187c57634e487b7160e01b600052602160045260246000fd5b14156118d55760405162461bcd60e51b815260206004820152602260248201527f45434453413a20696e76616c6964207369676e6174757265202773272076616c604482015261756560f01b60648201526084016105f8565b60048160048111156118f757634e487b7160e01b600052602160045260246000fd5b141561064a5760405162461bcd60e51b815260206004820152602260248201527f45434453413a20696e76616c6964207369676e6174757265202776272076616c604482015261756560f01b60648201526084016105f8565b6001600160a01b0383811660009081526007602052604080822054858416835291205461145892918216911683611525565b6001600160a01b0382166119d85760405162461bcd60e51b815260206004820152601f60248201527f45524332303a206d696e7420746f20746865207a65726f20616464726573730060448201526064016105f8565b80600260008282546119ea9190612028565b90915550506001600160a01b03821660009081526020819052604081208054839290611a17908490612028565b90915550506040518181526001600160a01b038316906000907fddf252ad1be2c89b69c2b068fc378daa952ba7f163c4a11628f55a4df523b3ef9060200160405180910390a361063c6000838361145d565b60006106238284612028565b825460009081908015611ace5785611a8e600183612060565b81548110611aac57634e487b7160e01b600052603260045260246000fd5b60009182526020909120015464010000000090046001600160e01b0316611ad1565b60005b6001600160e01b03169250611aea83858763ffffffff16565b9150600081118015611b3657504386611b04600184612060565b81548110611b2257634e487b7160e01b600052603260045260246000fd5b60009182526020909120015463ffffffff16145b15611ba457611b4482611d79565b86611b50600184612060565b81548110611b6e57634e487b7160e01b600052603260045260246000fd5b9060005260206000200160000160046101000a8154816001600160e01b0302191690836001600160e01b03160217905550611c0f565b856040518060400160405280611bb943611297565b63ffffffff168152602001611bcd85611d79565b6001600160e01b0390811690915282546001810184556000938452602093849020835194909301519091166401000000000263ffffffff909316929092179101555b50935093915050565b6001600160a01b038216611c785760405162461bcd60e51b815260206004820152602160248201527f45524332303a206275726e2066726f6d20746865207a65726f206164647265736044820152607360f81b60648201526084016105f8565b6001600160a01b03821660009081526020819052604090205481811015611cec5760405162461bcd60e51b815260206004820152602260248201527f45524332303a206275726e20616d6f756e7420657863656564732062616c616e604482015261636560f01b60648201526084016105f8565b6001600160a01b0383166000908152602081905260408120838303905560028054849290611d1b908490612060565b90915550506040518281526000906001600160a01b038516907fddf252ad1be2c89b69c2b068fc378daa952ba7f163c4a11628f55a4df523b3ef9060200160405180910390a36114588360008461145d565b60006106238284612060565b60006001600160e01b038211156112fc5760405162461bcd60e51b815260206004820152602760248201527f53616665436173743a2076616c756520646f65736e27742066697420696e20326044820152663234206269747360c81b60648201526084016105f8565b80356001600160a01b0381168114611df957600080fd5b919050565b803560ff81168114611df957600080fd5b600060208284031215611e20578081fd5b61062382611de2565b60008060408385031215611e3b578081fd5b611e4483611de2565b9150611e5260208401611de2565b90509250929050565b600080600060608486031215611e6f578081fd5b611e7884611de2565b9250611e8660208501611de2565b9150604084013590509250925092565b600080600080600080600060e0888a031215611eb0578283fd5b611eb988611de2565b9650611ec760208901611de2565b95506040880135945060608801359350611ee360808901611dfe565b925060a0880135915060c0880135905092959891949750929550565b60008060408385031215611f11578182fd5b611f1a83611de2565b946020939093013593505050565b60008060008060008060c08789031215611f40578182fd5b611f4987611de2565b95506020870135945060408701359350611f6560608801611dfe565b92506080870135915060a087013590509295509295509295565b60008060408385031215611f91578182fd5b611f9a83611de2565b9150602083013563ffffffff81168114611fb2578182fd5b809150509250929050565b600060208284031215611fce578081fd5b5035919050565b6000602080835283518082850152825b8181101561200157858101830151858201604001528201611fe5565b818111156120125783604083870101525b50601f01601f1916929092016040019392505050565b6000821982111561203b5761203b6120ac565b500190565b60008261205b57634e487b7160e01b81526012600452602481fd5b500490565b600082821015612072576120726120ac565b500390565b600181811c9082168061208b57607f821691505b6020821081141561145257634e487b7160e01b600052602260045260246000fd5b634e487b7160e01b600052601160045260246000fdfea2646970667358221220d44513e77a45b975495795bd1a7effde3e9ba07ba637109d1fa954effb2a526264736f6c63430008040033",
  "linkReferences": {},
  "deployedLinkReferences": {}
}