{
  "_format": "hh-sol-artifact-1",
  "contractName": "KaidexMasterChef",
  "sourceName": "contracts/farming/KaidexMasterChef.sol",
  "abi": [
    {
      "inputs": [
        {
          "internalType": "contract KaiDexToken",
          "name": "_kdx",
          "type": "address"
        },
        {
          "internalType": "uint256",
          "name": "_kdxPerBlock",
          "type": "uint256"
        },
        {
          "internalType": "uint256",
          "name": "_startBlock",
          "type": "uint256"
        }
      ],
      "stateMutability": "nonpayable",
      "type": "constructor"
    },
    {
      "anonymous": false,
      "inputs": [
        {
          "indexed": true,
          "internalType": "address",
          "name": "user",
          "type": "address"
        },
        {
          "indexed": true,
          "internalType": "uint256",
          "name": "pid",
          "type": "uint256"
        },
        {
          "indexed": false,
          "internalType": "uint256",
          "name": "amount",
          "type": "uint256"
        }
      ],
      "name": "Deposit",
      "type": "event"
    },
    {
      "anonymous": false,
      "inputs": [
        {
          "indexed": true,
          "internalType": "address",
          "name": "user",
          "type": "address"
        },
        {
          "indexed": true,
          "internalType": "uint256",
          "name": "pid",
          "type": "uint256"
        },
        {
          "indexed": false,
          "internalType": "uint256",
          "name": "amount",
          "type": "uint256"
        }
      ],
      "name": "EmergencyWithdraw",
      "type": "event"
    },
    {
      "anonymous": false,
      "inputs": [
        {
          "indexed": true,
          "internalType": "uint256",
          "name": "pid",
          "type": "uint256"
        },
        {
          "indexed": false,
          "internalType": "uint256",
          "name": "allocPoint",
          "type": "uint256"
        },
        {
          "indexed": true,
          "internalType": "contract IERC20",
          "name": "lpToken",
          "type": "address"
        }
      ],
      "name": "LogPoolAddition",
      "type": "event"
    },
    {
      "anonymous": false,
      "inputs": [
        {
          "indexed": true,
          "internalType": "uint256",
          "name": "pid",
          "type": "uint256"
        },
        {
          "indexed": false,
          "internalType": "uint256",
          "name": "allocPoint",
          "type": "uint256"
        }
      ],
      "name": "LogSetPool",
      "type": "event"
    },
    {
      "anonymous": false,
      "inputs": [
        {
          "indexed": true,
          "internalType": "uint256",
          "name": "pid",
          "type": "uint256"
        },
        {
          "indexed": false,
          "internalType": "uint256",
          "name": "lastRewardBlock",
          "type": "uint256"
        },
        {
          "indexed": false,
          "internalType": "uint256",
          "name": "lpSupply",
          "type": "uint256"
        },
        {
          "indexed": false,
          "internalType": "uint256",
          "name": "accKdxPerShare",
          "type": "uint256"
        }
      ],
      "name": "LogUpdatePool",
      "type": "event"
    },
    {
      "anonymous": false,
      "inputs": [
        {
          "indexed": true,
          "internalType": "address",
          "name": "previousOwner",
          "type": "address"
        },
        {
          "indexed": true,
          "internalType": "address",
          "name": "newOwner",
          "type": "address"
        }
      ],
      "name": "OwnershipTransferred",
      "type": "event"
    },
    {
      "anonymous": false,
      "inputs": [
        {
          "indexed": false,
          "internalType": "uint256",
          "name": "_oldKdxPerblock",
          "type": "uint256"
        },
        {
          "indexed": false,
          "internalType": "uint256",
          "name": "_newKdxPerblock",
          "type": "uint256"
        }
      ],
      "name": "UpdateKdxPerBlock",
      "type": "event"
    },
    {
      "anonymous": false,
      "inputs": [
        {
          "indexed": true,
          "internalType": "address",
          "name": "user",
          "type": "address"
        },
        {
          "indexed": true,
          "internalType": "uint256",
          "name": "pid",
          "type": "uint256"
        },
        {
          "indexed": false,
          "internalType": "uint256",
          "name": "amount",
          "type": "uint256"
        }
      ],
      "name": "Withdraw",
      "type": "event"
    },
    {
      "inputs": [
        {
          "internalType": "uint256",
          "name": "_allocPoint",
          "type": "uint256"
        },
        {
          "internalType": "contract IERC20",
          "name": "_lpToken",
          "type": "address"
        },
        {
          "internalType": "bool",
          "name": "_withUpdate",
          "type": "bool"
        }
      ],
      "name": "add",
      "outputs": [],
      "stateMutability": "nonpayable",
      "type": "function"
    },
    {
      "inputs": [
        {
          "internalType": "uint256",
          "name": "_pid",
          "type": "uint256"
        },
        {
          "internalType": "uint256",
          "name": "_amount",
          "type": "uint256"
        }
      ],
      "name": "deposit",
      "outputs": [],
      "stateMutability": "nonpayable",
      "type": "function"
    },
    {
      "inputs": [
        {
          "internalType": "uint256",
          "name": "_pid",
          "type": "uint256"
        }
      ],
      "name": "emergencyWithdraw",
      "outputs": [],
      "stateMutability": "nonpayable",
      "type": "function"
    },
    {
      "inputs": [
        {
          "internalType": "uint256",
          "name": "_from",
          "type": "uint256"
        },
        {
          "internalType": "uint256",
          "name": "_to",
          "type": "uint256"
        }
      ],
      "name": "getMultiplier",
      "outputs": [
        {
          "internalType": "uint256",
          "name": "",
          "type": "uint256"
        }
      ],
      "stateMutability": "pure",
      "type": "function"
    },
    {
      "inputs": [
        {
          "internalType": "uint256",
          "name": "_pid",
          "type": "uint256"
        }
      ],
      "name": "harvest",
      "outputs": [],
      "stateMutability": "nonpayable",
      "type": "function"
    },
    {
      "inputs": [],
      "name": "kdx",
      "outputs": [
        {
          "internalType": "contract KaiDexToken",
          "name": "",
          "type": "address"
        }
      ],
      "stateMutability": "view",
      "type": "function"
    },
    {
      "inputs": [],
      "name": "kdxPerBlock",
      "outputs": [
        {
          "internalType": "uint256",
          "name": "",
          "type": "uint256"
        }
      ],
      "stateMutability": "view",
      "type": "function"
    },
    {
      "inputs": [],
      "name": "massUpdatePools",
      "outputs": [],
      "stateMutability": "nonpayable",
      "type": "function"
    },
    {
      "inputs": [],
      "name": "owner",
      "outputs": [
        {
          "internalType": "address",
          "name": "",
          "type": "address"
        }
      ],
      "stateMutability": "view",
      "type": "function"
    },
    {
      "inputs": [
        {
          "internalType": "uint256",
          "name": "_pid",
          "type": "uint256"
        },
        {
          "internalType": "address",
          "name": "_user",
          "type": "address"
        }
      ],
      "name": "pendingKDX",
      "outputs": [
        {
          "internalType": "uint256",
          "name": "",
          "type": "uint256"
        }
      ],
      "stateMutability": "view",
      "type": "function"
    },
    {
      "inputs": [
        {
          "internalType": "uint256",
          "name": "",
          "type": "uint256"
        }
      ],
      "name": "poolInfo",
      "outputs": [
        {
          "internalType": "contract IERC20",
          "name": "lpToken",
          "type": "address"
        },
        {
          "internalType": "uint256",
          "name": "allocPoint",
          "type": "uint256"
        },
        {
          "internalType": "uint256",
          "name": "lastRewardBlock",
          "type": "uint256"
        },
        {
          "internalType": "uint256",
          "name": "accKDXPerShare",
          "type": "uint256"
        }
      ],
      "stateMutability": "view",
      "type": "function"
    },
    {
      "inputs": [],
      "name": "poolLength",
      "outputs": [
        {
          "internalType": "uint256",
          "name": "",
          "type": "uint256"
        }
      ],
      "stateMutability": "view",
      "type": "function"
    },
    {
      "inputs": [],
      "name": "renounceOwnership",
      "outputs": [],
      "stateMutability": "nonpayable",
      "type": "function"
    },
    {
      "inputs": [
        {
          "internalType": "uint256",
          "name": "_pid",
          "type": "uint256"
        },
        {
          "internalType": "uint256",
          "name": "_allocPoint",
          "type": "uint256"
        },
        {
          "internalType": "bool",
          "name": "_withUpdate",
          "type": "bool"
        }
      ],
      "name": "set",
      "outputs": [],
      "stateMutability": "nonpayable",
      "type": "function"
    },
    {
      "inputs": [],
      "name": "startBlock",
      "outputs": [
        {
          "internalType": "uint256",
          "name": "",
          "type": "uint256"
        }
      ],
      "stateMutability": "view",
      "type": "function"
    },
    {
      "inputs": [],
      "name": "totalAllocPoint",
      "outputs": [
        {
          "internalType": "uint256",
          "name": "",
          "type": "uint256"
        }
      ],
      "stateMutability": "view",
      "type": "function"
    },
    {
      "inputs": [
        {
          "internalType": "address",
          "name": "newOwner",
          "type": "address"
        }
      ],
      "name": "transferOwnership",
      "outputs": [],
      "stateMutability": "nonpayable",
      "type": "function"
    },
    {
      "inputs": [
        {
          "internalType": "uint256",
          "name": "_newKdxPerBlock",
          "type": "uint256"
        }
      ],
      "name": "updateKdxPerBlock",
      "outputs": [],
      "stateMutability": "nonpayable",
      "type": "function"
    },
    {
      "inputs": [
        {
          "internalType": "uint256",
          "name": "_pid",
          "type": "uint256"
        }
      ],
      "name": "updatePool",
      "outputs": [],
      "stateMutability": "nonpayable",
      "type": "function"
    },
    {
      "inputs": [
        {
          "internalType": "uint256",
          "name": "_newStartBlock",
          "type": "uint256"
        }
      ],
      "name": "updateStartBlock",
      "outputs": [],
      "stateMutability": "nonpayable",
      "type": "function"
    },
    {
      "inputs": [
        {
          "internalType": "uint256",
          "name": "",
          "type": "uint256"
        },
        {
          "internalType": "address",
          "name": "",
          "type": "address"
        }
      ],
      "name": "userInfo",
      "outputs": [
        {
          "internalType": "uint256",
          "name": "amount",
          "type": "uint256"
        },
        {
          "internalType": "uint256",
          "name": "rewardDebt",
          "type": "uint256"
        }
      ],
      "stateMutability": "view",
      "type": "function"
    },
    {
      "inputs": [
        {
          "internalType": "uint256",
          "name": "_pid",
          "type": "uint256"
        },
        {
          "internalType": "uint256",
          "name": "_amount",
          "type": "uint256"
        }
      ],
      "name": "withdraw",
      "outputs": [],
      "stateMutability": "nonpayable",
      "type": "function"
    }
  ],
  "bytecode": "0x6080604052600060065534801561001557600080fd5b5060405162001b9c38038062001b9c833981016040819052610036916100bf565b61003f3361006f565b60018055600280546001600160a01b0319166001600160a01b039490941693909317909255600355600755610100565b600080546001600160a01b038381166001600160a01b0319831681178455604051919092169283917f8be0079c531659141344cd1fd0a4f28419497f9722a3daafe3b4186f6b6457e09190a35050565b6000806000606084860312156100d3578283fd5b83516001600160a01b03811681146100e9578384fd5b602085015160409095015190969495509392505050565b611a8c80620001106000396000f3fe608060405234801561001057600080fd5b50600436106101425760003560e01c8063715018a6116100b8578063dadf21441161007c578063dadf2144146102b9578063dae47818146102cc578063ddc63262146102df578063e2bbb158146102f2578063f2fde38b14610305578063fac2b9ba1461031857600080fd5b8063715018a61461021f57806387a9b5eb146102275780638da5cb5b1461023a5780638dbb1e3a1461025f57806393f1a40b1461027257600080fd5b806348cd4cb11161010a57806348cd4cb1146101cc57806351eb05a6146101d55780635312ea8e146101e8578063630b5ba1146101fb57806364482f7914610203578063662b5fbe1461021657600080fd5b8063081e3eda146101475780631526fe271461015e57806317caf6f11461019b5780631eaaa045146101a4578063441a3e70146101b9575b600080fd5b6004545b6040519081526020015b60405180910390f35b61017161016c3660046117bf565b61032b565b604080516001600160a01b0390951685526020850193909352918301526060820152608001610155565b61014b60065481565b6101b76101b236600461181e565b61036f565b005b6101b76101c736600461185f565b6105be565b61014b60075481565b6101b76101e33660046117bf565b6108a4565b6101b76101f63660046117bf565b610a98565b6101b7610ccf565b6101b7610211366004611880565b610cfa565b61014b60035481565b6101b7610dff565b6101b76102353660046117bf565b610e35565b6000546001600160a01b03165b6040516001600160a01b039091168152602001610155565b61014b61026d36600461185f565b610eac565b6102a46102803660046117ef565b60056020908152600092835260408084209091529082529020805460019091015482565b60408051928352602083019190915201610155565b61014b6102c73660046117ef565b610ebf565b600254610247906001600160a01b031681565b6101b76102ed3660046117bf565b611039565b6101b761030036600461185f565b611074565b6101b7610313366004611787565b6110af565b6101b76103263660046117bf565b61114a565b6004818154811061033b57600080fd5b600091825260209091206004909102018054600182015460028301546003909301546001600160a01b039092169350919084565b6000546001600160a01b031633146103a25760405162461bcd60e51b8152600401610399906118fc565b60405180910390fd5b600454829060005b8181101561044e57826001600160a01b0316600482815481106103dd57634e487b7160e01b600052603260045260246000fd5b60009182526020909120600490910201546001600160a01b0316141561043c5760405162461bcd60e51b815260206004820152601460248201527330b2321d1030bc34b9ba34b733903837b7b6399760611b6044820152606401610399565b8061044681611a02565b9150506103aa565b50821561045d5761045d610ccf565b6000600754431161047057600754610472565b435b60065490915061048290876111b7565b600655604080516080810182526001600160a01b03878116808352602083018a815293830185815260006060850181815260048054600180820183559382905296517f8a35acfbc15ff81a39ae7d344fd709f28e8600b4aa8c65c6b64bfe7fe36bd19b97820297880180546001600160a01b031916919097161790955595517f8a35acfbc15ff81a39ae7d344fd709f28e8600b4aa8c65c6b64bfe7fe36bd19c86015590517f8a35acfbc15ff81a39ae7d344fd709f28e8600b4aa8c65c6b64bfe7fe36bd19d85015593517f8a35acfbc15ff81a39ae7d344fd709f28e8600b4aa8c65c6b64bfe7fe36bd19e9093019290925554909161058291906111c3565b6040518881527f4710feb78e3bce8d2e3ca2989a8eb2f8bcd32a6a55b4535942c180fc4d2e2952906020015b60405180910390a3505050505050565b600260015414156105e15760405162461bcd60e51b815260040161039990611931565b600260018190555060006004838154811061060c57634e487b7160e01b600052603260045260246000fd5b60009182526020808320868452600582526040808520338652909252922080546004909202909201925083111561067a5760405162461bcd60e51b81526020600482015260126024820152711dda5d1a191c985dce881b9bdd0819dbdbd960721b6044820152606401610399565b610683846108a4565b60006106bd82600101546106b764e8d4a510006106b1876003015487600001546111cf90919063ffffffff16565b906111db565b906111c3565b90506106c933826111e7565b81546106d590856111c3565b80835560038401546106f29164e8d4a51000916106b191906111cf565b600183015582546040516370a0823160e01b81523060048201526000916001600160a01b0316906370a082319060240160206040518083038186803b15801561073a57600080fd5b505afa15801561074e573d6000803e3d6000fd5b505050506040513d601f19601f8201168201806040525081019061077291906117d7565b845490915061078b906001600160a01b03163387611338565b83546040516370a0823160e01b81523060048201526000916001600160a01b0316906370a082319060240160206040518083038186803b1580156107ce57600080fd5b505afa1580156107e2573d6000803e3d6000fd5b505050506040513d601f19601f8201168201806040525081019061080691906117d7565b905061081281876111b7565b82146108605760405162461bcd60e51b815260206004820152601760248201527f77697468647261773a206e6f74206465666c6174696f6e0000000000000000006044820152606401610399565b604051868152879033907ff279e6a1f5e320cca91135676d9cb6e44ca8a08c0b88342bcdb1144f6511b5689060200160405180910390a35050600180555050505050565b6000600482815481106108c757634e487b7160e01b600052603260045260246000fd5b90600052602060002090600402019050806002015443116108e6575050565b80546040516370a0823160e01b81523060048201526000916001600160a01b0316906370a082319060240160206040518083038186803b15801561092957600080fd5b505afa15801561093d573d6000803e3d6000fd5b505050506040513d601f19601f8201168201806040525081019061096191906117d7565b90508061097357504360029091015550565b6000610983836002015443610eac565b905060006109b06006546106b186600101546109aa600354876111cf90919063ffffffff16565b906111cf565b6002546040516340c10f1960e01b8152306004820152602481018390529192506001600160a01b0316906340c10f1990604401600060405180830381600087803b1580156109fd57600080fd5b505af1158015610a11573d6000803e3d6000fd5b50505050610a3f610a34846106b164e8d4a51000856111cf90919063ffffffff16565b6003860154906111b7565b600385018190554360028601819055604080519182526020820186905281019190915285907fcb7325664a4a3b7c7223eefc492a97ca4fdf94d46884621e5a8fae5a04b2b9d29060600160405180910390a25050505050565b60026001541415610abb5760405162461bcd60e51b815260040161039990611931565b6002600181905550600060048281548110610ae657634e487b7160e01b600052603260045260246000fd5b60009182526020808320858452600582526040808520338652909252818420848155600181018590556004938402909101805492516370a0823160e01b81523094810194909452945092916001600160a01b03909116906370a082319060240160206040518083038186803b158015610b5e57600080fd5b505afa158015610b72573d6000803e3d6000fd5b505050506040513d601f19601f82011682018060405250810190610b9691906117d7565b82548454919250610bb2916001600160a01b0316903390611338565b82546040516370a0823160e01b81523060048201526000916001600160a01b0316906370a082319060240160206040518083038186803b158015610bf557600080fd5b505afa158015610c09573d6000803e3d6000fd5b505050506040513d601f19601f82011682018060405250810190610c2d91906117d7565b8354909150610c3d9082906111b7565b8214610c8b5760405162461bcd60e51b815260206004820181905260248201527f656d657267656e637957697468647261773a206e6f74206465666c6174696f6e6044820152606401610399565b8254604051908152859033907fbb757047c2b5f3974fe26b7c10f732e7bce710b0952a71082702781e62ae05959060200160405180910390a3505060018055505050565b60045460005b81811015610cf657610ce6816108a4565b610cef81611a02565b9050610cd5565b5050565b6000546001600160a01b03163314610d245760405162461bcd60e51b8152600401610399906118fc565b8015610d3257610d32610ccf565b610d8382610d7d60048681548110610d5a57634e487b7160e01b600052603260045260246000fd5b9060005260206000209060040201600101546006546111c390919063ffffffff16565b906111b7565b6006819055508160048481548110610dab57634e487b7160e01b600052603260045260246000fd5b906000526020600020906004020160010181905550827f942cc7e17a17c164bd977f32ab8c54265d5b9d481e4e352bf874f1e568874e7c83604051610df291815260200190565b60405180910390a2505050565b6000546001600160a01b03163314610e295760405162461bcd60e51b8152600401610399906118fc565b610e33600061139b565b565b6000546001600160a01b03163314610e5f5760405162461bcd60e51b8152600401610399906118fc565b610e67610ccf565b600380549082905560408051828152602081018490527f154b080d393c5baaaea54a0552c9a07b32f814a44e785b14461a80234e22058a910160405180910390a15050565b6000610eb882846111c3565b9392505050565b60008060048481548110610ee357634e487b7160e01b600052603260045260246000fd5b600091825260208083208784526005825260408085206001600160a01b038981168752935280852060049485029092016003810154815492516370a0823160e01b8152309681019690965290965091949193919216906370a082319060240160206040518083038186803b158015610f5a57600080fd5b505afa158015610f6e573d6000803e3d6000fd5b505050506040513d601f19601f82011682018060405250810190610f9291906117d7565b9050836002015443118015610fa657508015155b15611006576000610fbb856002015443610eac565b90506000610fe26006546106b188600101546109aa600354876111cf90919063ffffffff16565b9050611001610ffa846106b18464e8d4a510006111cf565b85906111b7565b935050505b61102e83600101546106b764e8d4a510006106b18688600001546111cf90919063ffffffff16565b979650505050505050565b6002600154141561105c5760405162461bcd60e51b815260040161039990611931565b600260015561106d816000336113eb565b5060018055565b600260015414156110975760405162461bcd60e51b815260040161039990611931565b60026001556110a78282336113eb565b505060018055565b6000546001600160a01b031633146110d95760405162461bcd60e51b8152600401610399906118fc565b6001600160a01b03811661113e5760405162461bcd60e51b815260206004820152602660248201527f4f776e61626c653a206e6577206f776e657220697320746865207a65726f206160448201526564647265737360d01b6064820152608401610399565b6111478161139b565b50565b6000546001600160a01b031633146111745760405162461bcd60e51b8152600401610399906118fc565b43600754116111b25760405162461bcd60e51b815260206004820152600a60248201526977726f6e672074696d6560b01b6044820152606401610399565b600755565b6000610eb88284611968565b6000610eb882846119bf565b6000610eb882846119a0565b6000610eb88284611980565b6002546040516370a0823160e01b81523060048201526000916001600160a01b0316906370a082319060240160206040518083038186803b15801561122b57600080fd5b505afa15801561123f573d6000803e3d6000fd5b505050506040513d601f19601f8201168201806040525081019061126391906117d7565b9050808211156112fa5760025460405163a9059cbb60e01b81526001600160a01b038581166004830152602482018490529091169063a9059cbb906044015b602060405180830381600087803b1580156112bc57600080fd5b505af11580156112d0573d6000803e3d6000fd5b505050506040513d601f19601f820116820180604052508101906112f491906117a3565b50505050565b60025460405163a9059cbb60e01b81526001600160a01b038581166004830152602482018590529091169063a9059cbb906044016112a2565b505050565b6040516001600160a01b03831660248201526044810182905261133390849063a9059cbb60e01b906064015b60408051601f198184030181529190526020810180516001600160e01b03166001600160e01b03199093169290921790915261150c565b600080546001600160a01b038381166001600160a01b0319831681178455604051919092169283917f8be0079c531659141344cd1fd0a4f28419497f9722a3daafe3b4186f6b6457e09190a35050565b60006004848154811061140e57634e487b7160e01b600052603260045260246000fd5b600091825260208083208784526005825260408085206001600160a01b0388168652909252922060049091029091019150611448856108a4565b80546000901561148a5761147e82600101546106b764e8d4a510006106b1876003015487600001546111cf90919063ffffffff16565b905061148a84826111e7565b82546114a1906001600160a01b03168530886115de565b81546114ad90866111b7565b80835560038401546114ca9164e8d4a51000916106b191906111cf565b600183015560405185815286906001600160a01b038616907f90890809c654f11d6e72a28fa60149770a0d11ec6c92319d6ceb2bb0a4ea1a15906020016105ae565b6000611561826040518060400160405280602081526020017f5361666545524332303a206c6f772d6c6576656c2063616c6c206661696c6564815250856001600160a01b03166116169092919063ffffffff16565b805190915015611333578080602001905181019061157f91906117a3565b6113335760405162461bcd60e51b815260206004820152602a60248201527f5361666545524332303a204552433230206f7065726174696f6e20646964206e6044820152691bdd081cdd58d8d9595960b21b6064820152608401610399565b6040516001600160a01b03808516602483015283166044820152606481018290526112f49085906323b872dd60e01b90608401611364565b6060611625848460008561162d565b949350505050565b60608247101561168e5760405162461bcd60e51b815260206004820152602660248201527f416464726573733a20696e73756666696369656e742062616c616e636520666f6044820152651c8818d85b1b60d21b6064820152608401610399565b6001600160a01b0385163b6116e55760405162461bcd60e51b815260206004820152601d60248201527f416464726573733a2063616c6c20746f206e6f6e2d636f6e74726163740000006044820152606401610399565b600080866001600160a01b0316858760405161170191906118ad565b60006040518083038185875af1925050503d806000811461173e576040519150601f19603f3d011682016040523d82523d6000602084013e611743565b606091505b509150915061102e8282866060831561175d575081610eb8565b82511561176d5782518084602001fd5b8160405162461bcd60e51b815260040161039991906118c9565b600060208284031215611798578081fd5b8135610eb881611a33565b6000602082840312156117b4578081fd5b8151610eb881611a48565b6000602082840312156117d0578081fd5b5035919050565b6000602082840312156117e8578081fd5b5051919050565b60008060408385031215611801578081fd5b82359150602083013561181381611a33565b809150509250929050565b600080600060608486031215611832578081fd5b83359250602084013561184481611a33565b9150604084013561185481611a48565b809150509250925092565b60008060408385031215611871578182fd5b50508035926020909101359150565b600080600060608486031215611894578283fd5b8335925060208401359150604084013561185481611a48565b600082516118bf8184602087016119d6565b9190910192915050565b60208152600082518060208401526118e88160408501602087016119d6565b601f01601f19169190910160400192915050565b6020808252818101527f4f776e61626c653a2063616c6c6572206973206e6f7420746865206f776e6572604082015260600190565b6020808252601f908201527f5265656e7472616e637947756172643a207265656e7472616e742063616c6c00604082015260600190565b6000821982111561197b5761197b611a1d565b500190565b60008261199b57634e487b7160e01b81526012600452602481fd5b500490565b60008160001904831182151516156119ba576119ba611a1d565b500290565b6000828210156119d1576119d1611a1d565b500390565b60005b838110156119f15781810151838201526020016119d9565b838111156112f45750506000910152565b6000600019821415611a1657611a16611a1d565b5060010190565b634e487b7160e01b600052601160045260246000fd5b6001600160a01b038116811461114757600080fd5b801515811461114757600080fdfea2646970667358221220159b87b9ed440e962378d6e784e6b056112823400707c7f02dfdf09e88a611b864736f6c63430008040033",
  "linkReferences": {},
  "deployedLinkReferences": {}
}