{
  "_format": "hh-sol-artifact-1",
  "contractName": "KaidexMasterChef",
  "sourceName": "contracts/farming/KaidexMasterChef.sol",
  "abi": [
    {
      "inputs": [
        {
          "internalType": "contract KaiDexToken",
          "name": "_kdx",
          "type": "address"
        },
        {
          "internalType": "uint256",
          "name": "_kdxPerBlock",
          "type": "uint256"
        },
        {
          "internalType": "uint256",
          "name": "_startBlock",
          "type": "uint256"
        }
      ],
      "stateMutability": "nonpayable",
      "type": "constructor"
    },
    {
      "anonymous": false,
      "inputs": [
        {
          "indexed": true,
          "internalType": "address",
          "name": "user",
          "type": "address"
        },
        {
          "indexed": true,
          "internalType": "uint256",
          "name": "pid",
          "type": "uint256"
        },
        {
          "indexed": false,
          "internalType": "uint256",
          "name": "amount",
          "type": "uint256"
        }
      ],
      "name": "Deposit",
      "type": "event"
    },
    {
      "anonymous": false,
      "inputs": [
        {
          "indexed": true,
          "internalType": "address",
          "name": "user",
          "type": "address"
        },
        {
          "indexed": true,
          "internalType": "uint256",
          "name": "pid",
          "type": "uint256"
        },
        {
          "indexed": false,
          "internalType": "uint256",
          "name": "amount",
          "type": "uint256"
        }
      ],
      "name": "EmergencyWithdraw",
      "type": "event"
    },
    {
      "anonymous": false,
      "inputs": [
        {
          "indexed": true,
          "internalType": "uint256",
          "name": "pid",
          "type": "uint256"
        },
        {
          "indexed": false,
          "internalType": "uint256",
          "name": "allocPoint",
          "type": "uint256"
        },
        {
          "indexed": true,
          "internalType": "contract IERC20",
          "name": "lpToken",
          "type": "address"
        },
        {
          "indexed": true,
          "internalType": "contract IRewarder",
          "name": "rewarder",
          "type": "address"
        }
      ],
      "name": "LogPoolAddition",
      "type": "event"
    },
    {
      "anonymous": false,
      "inputs": [
        {
          "indexed": true,
          "internalType": "uint256",
          "name": "pid",
          "type": "uint256"
        },
        {
          "indexed": false,
          "internalType": "uint256",
          "name": "allocPoint",
          "type": "uint256"
        },
        {
          "indexed": true,
          "internalType": "contract IRewarder",
          "name": "rewarder",
          "type": "address"
        },
        {
          "indexed": false,
          "internalType": "bool",
          "name": "overwrite",
          "type": "bool"
        }
      ],
      "name": "LogSetPool",
      "type": "event"
    },
    {
      "anonymous": false,
      "inputs": [
        {
          "indexed": true,
          "internalType": "uint256",
          "name": "pid",
          "type": "uint256"
        },
        {
          "indexed": false,
          "internalType": "uint256",
          "name": "lastRewardBlock",
          "type": "uint256"
        },
        {
          "indexed": false,
          "internalType": "uint256",
          "name": "lpSupply",
          "type": "uint256"
        },
        {
          "indexed": false,
          "internalType": "uint256",
          "name": "accSushiPerShare",
          "type": "uint256"
        }
      ],
      "name": "LogUpdatePool",
      "type": "event"
    },
    {
      "anonymous": false,
      "inputs": [
        {
          "indexed": true,
          "internalType": "address",
          "name": "previousOwner",
          "type": "address"
        },
        {
          "indexed": true,
          "internalType": "address",
          "name": "newOwner",
          "type": "address"
        }
      ],
      "name": "OwnershipTransferred",
      "type": "event"
    },
    {
      "anonymous": false,
      "inputs": [
        {
          "indexed": true,
          "internalType": "address",
          "name": "user",
          "type": "address"
        },
        {
          "indexed": true,
          "internalType": "uint256",
          "name": "pid",
          "type": "uint256"
        },
        {
          "indexed": false,
          "internalType": "uint256",
          "name": "amount",
          "type": "uint256"
        }
      ],
      "name": "Withdraw",
      "type": "event"
    },
    {
      "inputs": [
        {
          "internalType": "uint256",
          "name": "_allocPoint",
          "type": "uint256"
        },
        {
          "internalType": "contract IERC20",
          "name": "_lpToken",
          "type": "address"
        },
        {
          "internalType": "contract IRewarder",
          "name": "_rewarder",
          "type": "address"
        },
        {
          "internalType": "bool",
          "name": "_withUpdate",
          "type": "bool"
        }
      ],
      "name": "add",
      "outputs": [],
      "stateMutability": "nonpayable",
      "type": "function"
    },
    {
      "inputs": [
        {
          "internalType": "uint256",
          "name": "_pid",
          "type": "uint256"
        },
        {
          "internalType": "uint256",
          "name": "_amount",
          "type": "uint256"
        }
      ],
      "name": "deposit",
      "outputs": [],
      "stateMutability": "nonpayable",
      "type": "function"
    },
    {
      "inputs": [
        {
          "internalType": "uint256",
          "name": "_pid",
          "type": "uint256"
        }
      ],
      "name": "emergencyWithdraw",
      "outputs": [],
      "stateMutability": "nonpayable",
      "type": "function"
    },
    {
      "inputs": [
        {
          "internalType": "uint256",
          "name": "_from",
          "type": "uint256"
        },
        {
          "internalType": "uint256",
          "name": "_to",
          "type": "uint256"
        }
      ],
      "name": "getMultiplier",
      "outputs": [
        {
          "internalType": "uint256",
          "name": "",
          "type": "uint256"
        }
      ],
      "stateMutability": "pure",
      "type": "function"
    },
    {
      "inputs": [
        {
          "internalType": "uint256",
          "name": "_pid",
          "type": "uint256"
        }
      ],
      "name": "harvest",
      "outputs": [
        {
          "internalType": "address",
          "name": "",
          "type": "address"
        }
      ],
      "stateMutability": "nonpayable",
      "type": "function"
    },
    {
      "inputs": [],
      "name": "kdx",
      "outputs": [
        {
          "internalType": "contract KaiDexToken",
          "name": "",
          "type": "address"
        }
      ],
      "stateMutability": "view",
      "type": "function"
    },
    {
      "inputs": [],
      "name": "kdxPerBlock",
      "outputs": [
        {
          "internalType": "uint256",
          "name": "",
          "type": "uint256"
        }
      ],
      "stateMutability": "view",
      "type": "function"
    },
    {
      "inputs": [],
      "name": "massUpdatePools",
      "outputs": [],
      "stateMutability": "nonpayable",
      "type": "function"
    },
    {
      "inputs": [],
      "name": "owner",
      "outputs": [
        {
          "internalType": "address",
          "name": "",
          "type": "address"
        }
      ],
      "stateMutability": "view",
      "type": "function"
    },
    {
      "inputs": [
        {
          "internalType": "uint256",
          "name": "_pid",
          "type": "uint256"
        },
        {
          "internalType": "address",
          "name": "_user",
          "type": "address"
        }
      ],
      "name": "pendingKDX",
      "outputs": [
        {
          "internalType": "uint256",
          "name": "",
          "type": "uint256"
        }
      ],
      "stateMutability": "view",
      "type": "function"
    },
    {
      "inputs": [
        {
          "internalType": "uint256",
          "name": "",
          "type": "uint256"
        }
      ],
      "name": "poolInfo",
      "outputs": [
        {
          "internalType": "contract IERC20",
          "name": "lpToken",
          "type": "address"
        },
        {
          "internalType": "uint256",
          "name": "allocPoint",
          "type": "uint256"
        },
        {
          "internalType": "uint256",
          "name": "lastRewardBlock",
          "type": "uint256"
        },
        {
          "internalType": "uint256",
          "name": "accKDXPerShare",
          "type": "uint256"
        }
      ],
      "stateMutability": "view",
      "type": "function"
    },
    {
      "inputs": [],
      "name": "poolLength",
      "outputs": [
        {
          "internalType": "uint256",
          "name": "",
          "type": "uint256"
        }
      ],
      "stateMutability": "view",
      "type": "function"
    },
    {
      "inputs": [],
      "name": "renounceOwnership",
      "outputs": [],
      "stateMutability": "nonpayable",
      "type": "function"
    },
    {
      "inputs": [
        {
          "internalType": "uint256",
          "name": "",
          "type": "uint256"
        }
      ],
      "name": "rewarder",
      "outputs": [
        {
          "internalType": "contract IRewarder",
          "name": "",
          "type": "address"
        }
      ],
      "stateMutability": "view",
      "type": "function"
    },
    {
      "inputs": [
        {
          "internalType": "uint256",
          "name": "_pid",
          "type": "uint256"
        },
        {
          "internalType": "uint256",
          "name": "_allocPoint",
          "type": "uint256"
        },
        {
          "internalType": "bool",
          "name": "_withUpdate",
          "type": "bool"
        },
        {
          "internalType": "contract IRewarder",
          "name": "_rewarder",
          "type": "address"
        },
        {
          "internalType": "bool",
          "name": "overwrite",
          "type": "bool"
        }
      ],
      "name": "set",
      "outputs": [],
      "stateMutability": "nonpayable",
      "type": "function"
    },
    {
      "inputs": [],
      "name": "startBlock",
      "outputs": [
        {
          "internalType": "uint256",
          "name": "",
          "type": "uint256"
        }
      ],
      "stateMutability": "view",
      "type": "function"
    },
    {
      "inputs": [],
      "name": "totalAllocPoint",
      "outputs": [
        {
          "internalType": "uint256",
          "name": "",
          "type": "uint256"
        }
      ],
      "stateMutability": "view",
      "type": "function"
    },
    {
      "inputs": [
        {
          "internalType": "address",
          "name": "newOwner",
          "type": "address"
        }
      ],
      "name": "transferOwnership",
      "outputs": [],
      "stateMutability": "nonpayable",
      "type": "function"
    },
    {
      "inputs": [
        {
          "internalType": "uint256",
          "name": "_kdxPerBlock",
          "type": "uint256"
        }
      ],
      "name": "updateKdxPerBlock",
      "outputs": [],
      "stateMutability": "nonpayable",
      "type": "function"
    },
    {
      "inputs": [
        {
          "internalType": "uint256",
          "name": "_pid",
          "type": "uint256"
        }
      ],
      "name": "updatePool",
      "outputs": [],
      "stateMutability": "nonpayable",
      "type": "function"
    },
    {
      "inputs": [
        {
          "internalType": "uint256",
          "name": "",
          "type": "uint256"
        },
        {
          "internalType": "address",
          "name": "",
          "type": "address"
        }
      ],
      "name": "userInfo",
      "outputs": [
        {
          "internalType": "uint256",
          "name": "amount",
          "type": "uint256"
        },
        {
          "internalType": "uint256",
          "name": "rewardDebt",
          "type": "uint256"
        }
      ],
      "stateMutability": "view",
      "type": "function"
    },
    {
      "inputs": [
        {
          "internalType": "uint256",
          "name": "_pid",
          "type": "uint256"
        },
        {
          "internalType": "uint256",
          "name": "_amount",
          "type": "uint256"
        }
      ],
      "name": "withdraw",
      "outputs": [],
      "stateMutability": "nonpayable",
      "type": "function"
    }
  ],
  "bytecode": "0x608060405260006005553480156200001657600080fd5b50604051620030d6380380620030d683398181016040528101906200003c9190620001ae565b6200005c62000050620000b460201b60201c565b620000bc60201b60201c565b82600160006101000a81548173ffffffffffffffffffffffffffffffffffffffff021916908373ffffffffffffffffffffffffffffffffffffffff16021790555081600281905550806006819055505050506200028a565b600033905090565b60008060009054906101000a900473ffffffffffffffffffffffffffffffffffffffff169050816000806101000a81548173ffffffffffffffffffffffffffffffffffffffff021916908373ffffffffffffffffffffffffffffffffffffffff1602179055508173ffffffffffffffffffffffffffffffffffffffff168173ffffffffffffffffffffffffffffffffffffffff167f8be0079c531659141344cd1fd0a4f28419497f9722a3daafe3b4186f6b6457e060405160405180910390a35050565b600081519050620001918162000256565b92915050565b600081519050620001a88162000270565b92915050565b600080600060608486031215620001c457600080fd5b6000620001d48682870162000180565b9350506020620001e78682870162000197565b9250506040620001fa8682870162000197565b9150509250925092565b600062000211826200022c565b9050919050565b6000620002258262000204565b9050919050565b600073ffffffffffffffffffffffffffffffffffffffff82169050919050565b6000819050919050565b620002618162000218565b81146200026d57600080fd5b50565b6200027b816200024c565b81146200028757600080fd5b50565b612e3c806200029a6000396000f3fe608060405234801561001057600080fd5b50600436106101425760003560e01c80638da5cb5b116100b8578063c71b4b431161007c578063c71b4b4314610341578063dadf21441461035d578063dae478181461038d578063ddc63262146103ab578063e2bbb158146103db578063f2fde38b146103f757610142565b80638da5cb5b146102765780638dbb1e3a1461029457806393f1a40b146102c45780639a4de4b8146102f5578063c346253d1461031157610142565b806351eb05a61161010a57806351eb05a6146101f05780635312ea8e1461020c578063630b5ba114610228578063662b5fbe14610232578063715018a61461025057806387a9b5eb1461025a57610142565b8063081e3eda146101475780631526fe271461016557806317caf6f114610198578063441a3e70146101b657806348cd4cb1146101d2575b600080fd5b61014f610413565b60405161015c91906127c5565b60405180910390f35b61017f600480360381019061017a919061228d565b610420565b60405161018f9493929190612668565b60405180910390f35b6101a0610480565b6040516101ad91906127c5565b60405180910390f35b6101d060048036038101906101cb919061237e565b610486565b005b6101da6107e0565b6040516101e791906127c5565b60405180910390f35b61020a6004803603810190610205919061228d565b6107e6565b005b6102266004803603810190610221919061228d565b610a8e565b005b610230610d00565b005b61023a610d33565b60405161024791906127c5565b60405180910390f35b610258610d39565b005b610274600480360381019061026f919061228d565b610dc1565b005b61027e610e4f565b60405161028b91906125ed565b60405180910390f35b6102ae60048036038101906102a9919061237e565b610e78565b6040516102bb91906127c5565b60405180910390f35b6102de60048036038101906102d991906122df565b610e95565b6040516102ec9291906128af565b60405180910390f35b61030f600480360381019061030a91906123ba565b610ec6565b005b61032b6004803603810190610326919061228d565b61116b565b60405161033891906126ad565b60405180910390f35b61035b6004803603810190610356919061231b565b6111aa565b005b610377600480360381019061037291906122df565b611419565b60405161038491906127c5565b60405180910390f35b610395611673565b6040516103a291906126c8565b60405180910390f35b6103c560048036038101906103c0919061228d565b611699565b6040516103d291906125ed565b60405180910390f35b6103f560048036038101906103f0919061237e565b6116ac565b005b610411600480360381019061040c919061223b565b6116bb565b005b6000600380549050905090565b6003818154811061043057600080fd5b90600052602060002090600402016000915090508060000160009054906101000a900473ffffffffffffffffffffffffffffffffffffffff16908060010154908060020154908060030154905084565b60055481565b6000600383815481106104c2577f4e487b7100000000000000000000000000000000000000000000000000000000600052603260045260246000fd5b9060005260206000209060040201905060006004600085815260200190815260200160002060003373ffffffffffffffffffffffffffffffffffffffff1673ffffffffffffffffffffffffffffffffffffffff1681526020019081526020016000209050828160000154101561056d576040517f08c379a000000000000000000000000000000000000000000000000000000000815260040161056490612785565b60405180910390fd5b610576846107e6565b60006105c082600101546105b264e8d4a510006105a4876003015487600001546117b390919063ffffffff16565b6117c990919063ffffffff16565b6117df90919063ffffffff16565b90506105cc33826117f5565b6105e38483600001546117df90919063ffffffff16565b826000018190555061061d64e8d4a5100061060f856003015485600001546117b390919063ffffffff16565b6117c990919063ffffffff16565b826001018190555061067433858560000160009054906101000a900473ffffffffffffffffffffffffffffffffffffffff1673ffffffffffffffffffffffffffffffffffffffff16611a179092919063ffffffff16565b6000600786815481106106b0577f4e487b7100000000000000000000000000000000000000000000000000000000600052603260045260246000fd5b9060005260206000200160009054906101000a900473ffffffffffffffffffffffffffffffffffffffff169050600073ffffffffffffffffffffffffffffffffffffffff168173ffffffffffffffffffffffffffffffffffffffff1614610789578073ffffffffffffffffffffffffffffffffffffffff1663860cbfe48733338688600001546040518663ffffffff1660e01b8152600401610756959493929190612833565b600060405180830381600087803b15801561077057600080fd5b505af1158015610784573d6000803e3d6000fd5b505050505b853373ffffffffffffffffffffffffffffffffffffffff167ff279e6a1f5e320cca91135676d9cb6e44ca8a08c0b88342bcdb1144f6511b568876040516107d091906127c5565b60405180910390a3505050505050565b60065481565b600060038281548110610822577f4e487b7100000000000000000000000000000000000000000000000000000000600052603260045260246000fd5b90600052602060002090600402019050806002015443116108435750610a8b565b60008160000160009054906101000a900473ffffffffffffffffffffffffffffffffffffffff1673ffffffffffffffffffffffffffffffffffffffff166370a08231306040518263ffffffff1660e01b81526004016108a291906125ed565b60206040518083038186803b1580156108ba57600080fd5b505afa1580156108ce573d6000803e3d6000fd5b505050506040513d601f19601f820116820180604052508101906108f291906122b6565b9050600081141561090d574382600201819055505050610a8b565b600061091d836002015443610e78565b905060006109606005546109528660010154610944600254876117b390919063ffffffff16565b6117b390919063ffffffff16565b6117c990919063ffffffff16565b9050600160009054906101000a900473ffffffffffffffffffffffffffffffffffffffff1673ffffffffffffffffffffffffffffffffffffffff166340c10f1930836040518363ffffffff1660e01b81526004016109bf92919061263f565b600060405180830381600087803b1580156109d957600080fd5b505af11580156109ed573d6000803e3d6000fd5b50505050610a31610a1e84610a1064e8d4a51000856117b390919063ffffffff16565b6117c990919063ffffffff16565b8560030154611a9d90919063ffffffff16565b8460030181905550438460020181905550847fcb7325664a4a3b7c7223eefc492a97ca4fdf94d46884621e5a8fae5a04b2b9d28560020154858760030154604051610a7e939291906128d8565b60405180910390a2505050505b50565b600060038281548110610aca577f4e487b7100000000000000000000000000000000000000000000000000000000600052603260045260246000fd5b9060005260206000209060040201905060006004600084815260200190815260200160002060003373ffffffffffffffffffffffffffffffffffffffff1673ffffffffffffffffffffffffffffffffffffffff1681526020019081526020016000209050610b813382600001548460000160009054906101000a900473ffffffffffffffffffffffffffffffffffffffff1673ffffffffffffffffffffffffffffffffffffffff16611a179092919063ffffffff16565b6000816000018190555060008160010181905550823373ffffffffffffffffffffffffffffffffffffffff167fbb757047c2b5f3974fe26b7c10f732e7bce710b0952a71082702781e62ae05958360000154604051610be091906127c5565b60405180910390a3600060078481548110610c24577f4e487b7100000000000000000000000000000000000000000000000000000000600052603260045260246000fd5b9060005260206000200160009054906101000a900473ffffffffffffffffffffffffffffffffffffffff169050600073ffffffffffffffffffffffffffffffffffffffff168173ffffffffffffffffffffffffffffffffffffffff1614610cfa578073ffffffffffffffffffffffffffffffffffffffff1663860cbfe48533336000806040518663ffffffff1660e01b8152600401610cc79594939291906127e0565b600060405180830381600087803b158015610ce157600080fd5b505af1158015610cf5573d6000803e3d6000fd5b505050505b50505050565b6000600380549050905060005b81811015610d2f57610d1e816107e6565b80610d2890612b73565b9050610d0d565b5050565b60025481565b610d41611ab3565b73ffffffffffffffffffffffffffffffffffffffff16610d5f610e4f565b73ffffffffffffffffffffffffffffffffffffffff1614610db5576040517f08c379a0000000000000000000000000000000000000000000000000000000008152600401610dac90612745565b60405180910390fd5b610dbf6000611abb565b565b610dc9611ab3565b73ffffffffffffffffffffffffffffffffffffffff16610de7610e4f565b73ffffffffffffffffffffffffffffffffffffffff1614610e3d576040517f08c379a0000000000000000000000000000000000000000000000000000000008152600401610e3490612745565b60405180910390fd5b610e45610d00565b8060028190555050565b60008060009054906101000a900473ffffffffffffffffffffffffffffffffffffffff16905090565b6000610e8d83836117df90919063ffffffff16565b905092915050565b6004602052816000526040600020602052806000526040600020600091509150508060000154908060010154905082565b610ece611ab3565b73ffffffffffffffffffffffffffffffffffffffff16610eec610e4f565b73ffffffffffffffffffffffffffffffffffffffff1614610f42576040517f08c379a0000000000000000000000000000000000000000000000000000000008152600401610f3990612745565b60405180910390fd5b8215610f5157610f50610d00565b5b610fc384610fb560038881548110610f92577f4e487b7100000000000000000000000000000000000000000000000000000000600052603260045260246000fd5b9060005260206000209060040201600101546005546117df90919063ffffffff16565b611a9d90919063ffffffff16565b6005819055508360038681548110611004577f4e487b7100000000000000000000000000000000000000000000000000000000600052603260045260246000fd5b90600052602060002090600402016001018190555080156110a357816007868154811061105a577f4e487b7100000000000000000000000000000000000000000000000000000000600052603260045260246000fd5b9060005260206000200160006101000a81548173ffffffffffffffffffffffffffffffffffffffff021916908373ffffffffffffffffffffffffffffffffffffffff1602179055505b8061111257600785815481106110e2577f4e487b7100000000000000000000000000000000000000000000000000000000600052603260045260246000fd5b9060005260206000200160009054906101000a900473ffffffffffffffffffffffffffffffffffffffff16611114565b815b73ffffffffffffffffffffffffffffffffffffffff16857f95895a6ab1df54420d241b55243258a33e61b2194db66c1179ec521aae8e1865868460405161115c929190612886565b60405180910390a35050505050565b6007818154811061117b57600080fd5b906000526020600020016000915054906101000a900473ffffffffffffffffffffffffffffffffffffffff1681565b6111b2611ab3565b73ffffffffffffffffffffffffffffffffffffffff166111d0610e4f565b73ffffffffffffffffffffffffffffffffffffffff1614611226576040517f08c379a000000000000000000000000000000000000000000000000000000000815260040161121d90612745565b60405180910390fd5b801561123557611234610d00565b5b600060065443116112485760065461124a565b435b905061126185600554611a9d90919063ffffffff16565b600581905550600360405180608001604052808673ffffffffffffffffffffffffffffffffffffffff1681526020018781526020018381526020016000815250908060018154018082558091505060019003906000526020600020906004020160009091909190915060008201518160000160006101000a81548173ffffffffffffffffffffffffffffffffffffffff021916908373ffffffffffffffffffffffffffffffffffffffff16021790555060208201518160010155604082015181600201556060820151816003015550506007839080600181540180825580915050600190039060005260206000200160009091909190916101000a81548173ffffffffffffffffffffffffffffffffffffffff021916908373ffffffffffffffffffffffffffffffffffffffff1602179055508273ffffffffffffffffffffffffffffffffffffffff168473ffffffffffffffffffffffffffffffffffffffff166113db60016003805490506117df90919063ffffffff16565b7f81ee0f8c5c46e2cb41984886f77a84181724abb86c32a5f6de539b07509d45e58860405161140a91906127c5565b60405180910390a45050505050565b60008060038481548110611456577f4e487b7100000000000000000000000000000000000000000000000000000000600052603260045260246000fd5b9060005260206000209060040201905060006004600086815260200190815260200160002060008573ffffffffffffffffffffffffffffffffffffffff1673ffffffffffffffffffffffffffffffffffffffff168152602001908152602001600020905060008260030154905060008360000160009054906101000a900473ffffffffffffffffffffffffffffffffffffffff1673ffffffffffffffffffffffffffffffffffffffff166370a08231306040518263ffffffff1660e01b815260040161152291906125ed565b60206040518083038186803b15801561153a57600080fd5b505afa15801561154e573d6000803e3d6000fd5b505050506040513d601f19601f8201168201806040525081019061157291906122b6565b9050836002015443118015611588575060008114155b1561162357600061159d856002015443610e78565b905060006115e06005546115d288600101546115c4600254876117b390919063ffffffff16565b6117b390919063ffffffff16565b6117c990919063ffffffff16565b905061161e61160f8461160164e8d4a51000856117b390919063ffffffff16565b6117c990919063ffffffff16565b85611a9d90919063ffffffff16565b935050505b611667836001015461165964e8d4a5100061164b8688600001546117b390919063ffffffff16565b6117c990919063ffffffff16565b6117df90919063ffffffff16565b94505050505092915050565b600160009054906101000a900473ffffffffffffffffffffffffffffffffffffffff1681565b60006116a782600033611b7f565b919050565b6116b7828233611b7f565b5050565b6116c3611ab3565b73ffffffffffffffffffffffffffffffffffffffff166116e1610e4f565b73ffffffffffffffffffffffffffffffffffffffff1614611737576040517f08c379a000000000000000000000000000000000000000000000000000000000815260040161172e90612745565b60405180910390fd5b600073ffffffffffffffffffffffffffffffffffffffff168173ffffffffffffffffffffffffffffffffffffffff1614156117a7576040517f08c379a000000000000000000000000000000000000000000000000000000000815260040161179e90612705565b60405180910390fd5b6117b081611abb565b50565b600081836117c191906129c8565b905092915050565b600081836117d79190612997565b905092915050565b600081836117ed9190612a22565b905092915050565b6000600160009054906101000a900473ffffffffffffffffffffffffffffffffffffffff1673ffffffffffffffffffffffffffffffffffffffff166370a08231306040518263ffffffff1660e01b815260040161185291906125ed565b60206040518083038186803b15801561186a57600080fd5b505afa15801561187e573d6000803e3d6000fd5b505050506040513d601f19601f820116820180604052508101906118a291906122b6565b90508082111561196157600160009054906101000a900473ffffffffffffffffffffffffffffffffffffffff1673ffffffffffffffffffffffffffffffffffffffff1663a9059cbb84836040518363ffffffff1660e01b815260040161190992919061263f565b602060405180830381600087803b15801561192357600080fd5b505af1158015611937573d6000803e3d6000fd5b505050506040513d601f19601f8201168201806040525081019061195b9190612264565b50611a12565b600160009054906101000a900473ffffffffffffffffffffffffffffffffffffffff1673ffffffffffffffffffffffffffffffffffffffff1663a9059cbb84846040518363ffffffff1660e01b81526004016119be92919061263f565b602060405180830381600087803b1580156119d857600080fd5b505af11580156119ec573d6000803e3d6000fd5b505050506040513d601f19601f82011682018060405250810190611a109190612264565b505b505050565b611a988363a9059cbb60e01b8484604051602401611a3692919061263f565b604051602081830303815290604052907bffffffffffffffffffffffffffffffffffffffffffffffffffffffff19166020820180517bffffffffffffffffffffffffffffffffffffffffffffffffffffffff8381831617835250505050611ea2565b505050565b60008183611aab9190612941565b905092915050565b600033905090565b60008060009054906101000a900473ffffffffffffffffffffffffffffffffffffffff169050816000806101000a81548173ffffffffffffffffffffffffffffffffffffffff021916908373ffffffffffffffffffffffffffffffffffffffff1602179055508173ffffffffffffffffffffffffffffffffffffffff168173ffffffffffffffffffffffffffffffffffffffff167f8be0079c531659141344cd1fd0a4f28419497f9722a3daafe3b4186f6b6457e060405160405180910390a35050565b600060038481548110611bbb577f4e487b7100000000000000000000000000000000000000000000000000000000600052603260045260246000fd5b9060005260206000209060040201905060006004600086815260200190815260200160002060008473ffffffffffffffffffffffffffffffffffffffff1673ffffffffffffffffffffffffffffffffffffffff1681526020019081526020016000209050611c28856107e6565b60008082600001541115611c8b57611c7e8260010154611c7064e8d4a51000611c62876003015487600001546117b390919063ffffffff16565b6117c990919063ffffffff16565b6117df90919063ffffffff16565b9050611c8a84826117f5565b5b611cdc8430878660000160009054906101000a900473ffffffffffffffffffffffffffffffffffffffff1673ffffffffffffffffffffffffffffffffffffffff16611f69909392919063ffffffff16565b611cf3858360000154611a9d90919063ffffffff16565b8260000181905550611d2d64e8d4a51000611d1f856003015485600001546117b390919063ffffffff16565b6117c990919063ffffffff16565b8260010181905550600060078781548110611d71577f4e487b7100000000000000000000000000000000000000000000000000000000600052603260045260246000fd5b9060005260206000200160009054906101000a900473ffffffffffffffffffffffffffffffffffffffff169050600073ffffffffffffffffffffffffffffffffffffffff168173ffffffffffffffffffffffffffffffffffffffff1614611e4a578073ffffffffffffffffffffffffffffffffffffffff1663860cbfe48887888688600001546040518663ffffffff1660e01b8152600401611e17959493929190612833565b600060405180830381600087803b158015611e3157600080fd5b505af1158015611e45573d6000803e3d6000fd5b505050505b868573ffffffffffffffffffffffffffffffffffffffff167f90890809c654f11d6e72a28fa60149770a0d11ec6c92319d6ceb2bb0a4ea1a1588604051611e9191906127c5565b60405180910390a350505050505050565b6000611f04826040518060400160405280602081526020017f5361666545524332303a206c6f772d6c6576656c2063616c6c206661696c65648152508573ffffffffffffffffffffffffffffffffffffffff16611ff29092919063ffffffff16565b9050600081511115611f645780806020019051810190611f249190612264565b611f63576040517f08c379a0000000000000000000000000000000000000000000000000000000008152600401611f5a906127a5565b60405180910390fd5b5b505050565b611fec846323b872dd60e01b858585604051602401611f8a93929190612608565b604051602081830303815290604052907bffffffffffffffffffffffffffffffffffffffffffffffffffffffff19166020820180517bffffffffffffffffffffffffffffffffffffffffffffffffffffffff8381831617835250505050611ea2565b50505050565b6060612001848460008561200a565b90509392505050565b60608247101561204f576040517f08c379a000000000000000000000000000000000000000000000000000000000815260040161204690612725565b60405180910390fd5b6120588561211e565b612097576040517f08c379a000000000000000000000000000000000000000000000000000000000815260040161208e90612765565b60405180910390fd5b6000808673ffffffffffffffffffffffffffffffffffffffff1685876040516120c091906125d6565b60006040518083038185875af1925050503d80600081146120fd576040519150601f19603f3d011682016040523d82523d6000602084013e612102565b606091505b5091509150612112828286612141565b92505050949350505050565b6000808273ffffffffffffffffffffffffffffffffffffffff163b119050919050565b60608315612151578290506121a1565b6000835111156121645782518084602001fd5b816040517f08c379a000000000000000000000000000000000000000000000000000000000815260040161219891906126e3565b60405180910390fd5b9392505050565b6000813590506121b781612d93565b92915050565b6000813590506121cc81612daa565b92915050565b6000815190506121e181612daa565b92915050565b6000813590506121f681612dc1565b92915050565b60008135905061220b81612dd8565b92915050565b60008135905061222081612def565b92915050565b60008151905061223581612def565b92915050565b60006020828403121561224d57600080fd5b600061225b848285016121a8565b91505092915050565b60006020828403121561227657600080fd5b6000612284848285016121d2565b91505092915050565b60006020828403121561229f57600080fd5b60006122ad84828501612211565b91505092915050565b6000602082840312156122c857600080fd5b60006122d684828501612226565b91505092915050565b600080604083850312156122f257600080fd5b600061230085828601612211565b9250506020612311858286016121a8565b9150509250929050565b6000806000806080858703121561233157600080fd5b600061233f87828801612211565b9450506020612350878288016121e7565b9350506040612361878288016121fc565b9250506060612372878288016121bd565b91505092959194509250565b6000806040838503121561239157600080fd5b600061239f85828601612211565b92505060206123b085828601612211565b9150509250929050565b600080600080600060a086880312156123d257600080fd5b60006123e088828901612211565b95505060206123f188828901612211565b9450506040612402888289016121bd565b9350506060612413888289016121fc565b9250506080612424888289016121bd565b9150509295509295909350565b61243a81612a56565b82525050565b61244981612a68565b82525050565b600061245a8261290f565b6124648185612925565b9350612474818560208601612b40565b80840191505092915050565b61248981612ac2565b82525050565b61249881612ae6565b82525050565b6124a781612b0a565b82525050565b6124b681612b2e565b82525050565b60006124c78261291a565b6124d18185612930565b93506124e1818560208601612b40565b6124ea81612c1a565b840191505092915050565b6000612502602683612930565b915061250d82612c2b565b604082019050919050565b6000612525602683612930565b915061253082612c7a565b604082019050919050565b6000612548602083612930565b915061255382612cc9565b602082019050919050565b600061256b601d83612930565b915061257682612cf2565b602082019050919050565b600061258e601283612930565b915061259982612d1b565b602082019050919050565b60006125b1602a83612930565b91506125bc82612d44565b604082019050919050565b6125d081612ab8565b82525050565b60006125e2828461244f565b915081905092915050565b60006020820190506126026000830184612431565b92915050565b600060608201905061261d6000830186612431565b61262a6020830185612431565b61263760408301846125c7565b949350505050565b60006040820190506126546000830185612431565b61266160208301846125c7565b9392505050565b600060808201905061267d6000830187612480565b61268a60208301866125c7565b61269760408301856125c7565b6126a460608301846125c7565b95945050505050565b60006020820190506126c2600083018461248f565b92915050565b60006020820190506126dd600083018461249e565b92915050565b600060208201905081810360008301526126fd81846124bc565b905092915050565b6000602082019050818103600083015261271e816124f5565b9050919050565b6000602082019050818103600083015261273e81612518565b9050919050565b6000602082019050818103600083015261275e8161253b565b9050919050565b6000602082019050818103600083015261277e8161255e565b9050919050565b6000602082019050818103600083015261279e81612581565b9050919050565b600060208201905081810360008301526127be816125a4565b9050919050565b60006020820190506127da60008301846125c7565b92915050565b600060a0820190506127f560008301886125c7565b6128026020830187612431565b61280f6040830186612431565b61281c60608301856124ad565b61282960808301846124ad565b9695505050505050565b600060a08201905061284860008301886125c7565b6128556020830187612431565b6128626040830186612431565b61286f60608301856125c7565b61287c60808301846125c7565b9695505050505050565b600060408201905061289b60008301856125c7565b6128a86020830184612440565b9392505050565b60006040820190506128c460008301856125c7565b6128d160208301846125c7565b9392505050565b60006060820190506128ed60008301866125c7565b6128fa60208301856125c7565b61290760408301846125c7565b949350505050565b600081519050919050565b600081519050919050565b600081905092915050565b600082825260208201905092915050565b600061294c82612ab8565b915061295783612ab8565b9250827fffffffffffffffffffffffffffffffffffffffffffffffffffffffffffffffff0382111561298c5761298b612bbc565b5b828201905092915050565b60006129a282612ab8565b91506129ad83612ab8565b9250826129bd576129bc612beb565b5b828204905092915050565b60006129d382612ab8565b91506129de83612ab8565b9250817fffffffffffffffffffffffffffffffffffffffffffffffffffffffffffffffff0483118215151615612a1757612a16612bbc565b5b828202905092915050565b6000612a2d82612ab8565b9150612a3883612ab8565b925082821015612a4b57612a4a612bbc565b5b828203905092915050565b6000612a6182612a98565b9050919050565b60008115159050919050565b6000612a7f82612a56565b9050919050565b6000612a9182612a56565b9050919050565b600073ffffffffffffffffffffffffffffffffffffffff82169050919050565b6000819050919050565b6000612acd82612ad4565b9050919050565b6000612adf82612a98565b9050919050565b6000612af182612af8565b9050919050565b6000612b0382612a98565b9050919050565b6000612b1582612b1c565b9050919050565b6000612b2782612a98565b9050919050565b6000612b3982612ab8565b9050919050565b60005b83811015612b5e578082015181840152602081019050612b43565b83811115612b6d576000848401525b50505050565b6000612b7e82612ab8565b91507fffffffffffffffffffffffffffffffffffffffffffffffffffffffffffffffff821415612bb157612bb0612bbc565b5b600182019050919050565b7f4e487b7100000000000000000000000000000000000000000000000000000000600052601160045260246000fd5b7f4e487b7100000000000000000000000000000000000000000000000000000000600052601260045260246000fd5b6000601f19601f8301169050919050565b7f4f776e61626c653a206e6577206f776e657220697320746865207a65726f206160008201527f6464726573730000000000000000000000000000000000000000000000000000602082015250565b7f416464726573733a20696e73756666696369656e742062616c616e636520666f60008201527f722063616c6c0000000000000000000000000000000000000000000000000000602082015250565b7f4f776e61626c653a2063616c6c6572206973206e6f7420746865206f776e6572600082015250565b7f416464726573733a2063616c6c20746f206e6f6e2d636f6e7472616374000000600082015250565b7f77697468647261773a206e6f7420676f6f640000000000000000000000000000600082015250565b7f5361666545524332303a204552433230206f7065726174696f6e20646964206e60008201527f6f74207375636365656400000000000000000000000000000000000000000000602082015250565b612d9c81612a56565b8114612da757600080fd5b50565b612db381612a68565b8114612dbe57600080fd5b50565b612dca81612a74565b8114612dd557600080fd5b50565b612de181612a86565b8114612dec57600080fd5b50565b612df881612ab8565b8114612e0357600080fd5b5056fea264697066735822122015237404188660933d753a2fdd6e9fa41e2a9c6213cc2d5bf08e36d280ece55264736f6c63430008040033",
  "linkReferences": {},
  "deployedLinkReferences": {}
}