{
  "_format": "hh-sol-artifact-1",
  "contractName": "KaidexMasterChef",
  "sourceName": "contracts/farming/KaidexMasterChef.sol",
  "abi": [
    {
      "inputs": [
        {
          "internalType": "contract KaiDexToken",
          "name": "_kdx",
          "type": "address"
        },
        {
          "internalType": "uint256",
          "name": "_kdxPerBlock",
          "type": "uint256"
        },
        {
          "internalType": "uint256",
          "name": "_startBlock",
          "type": "uint256"
        }
      ],
      "stateMutability": "nonpayable",
      "type": "constructor"
    },
    {
      "anonymous": false,
      "inputs": [
        {
          "indexed": true,
          "internalType": "address",
          "name": "user",
          "type": "address"
        },
        {
          "indexed": true,
          "internalType": "uint256",
          "name": "pid",
          "type": "uint256"
        },
        {
          "indexed": false,
          "internalType": "uint256",
          "name": "amount",
          "type": "uint256"
        }
      ],
      "name": "Deposit",
      "type": "event"
    },
    {
      "anonymous": false,
      "inputs": [
        {
          "indexed": true,
          "internalType": "address",
          "name": "user",
          "type": "address"
        },
        {
          "indexed": true,
          "internalType": "uint256",
          "name": "pid",
          "type": "uint256"
        },
        {
          "indexed": false,
          "internalType": "uint256",
          "name": "amount",
          "type": "uint256"
        }
      ],
      "name": "EmergencyWithdraw",
      "type": "event"
    },
    {
      "anonymous": false,
      "inputs": [
        {
          "indexed": true,
          "internalType": "uint256",
          "name": "pid",
          "type": "uint256"
        },
        {
          "indexed": false,
          "internalType": "uint256",
          "name": "allocPoint",
          "type": "uint256"
        },
        {
          "indexed": true,
          "internalType": "contract IERC20",
          "name": "lpToken",
          "type": "address"
        }
      ],
      "name": "LogPoolAddition",
      "type": "event"
    },
    {
      "anonymous": false,
      "inputs": [
        {
          "indexed": true,
          "internalType": "uint256",
          "name": "pid",
          "type": "uint256"
        },
        {
          "indexed": false,
          "internalType": "uint256",
          "name": "allocPoint",
          "type": "uint256"
        }
      ],
      "name": "LogSetPool",
      "type": "event"
    },
    {
      "anonymous": false,
      "inputs": [
        {
          "indexed": true,
          "internalType": "uint256",
          "name": "pid",
          "type": "uint256"
        },
        {
          "indexed": false,
          "internalType": "uint256",
          "name": "lastRewardBlock",
          "type": "uint256"
        },
        {
          "indexed": false,
          "internalType": "uint256",
          "name": "lpSupply",
          "type": "uint256"
        },
        {
          "indexed": false,
          "internalType": "uint256",
          "name": "accKdxPerShare",
          "type": "uint256"
        }
      ],
      "name": "LogUpdatePool",
      "type": "event"
    },
    {
      "anonymous": false,
      "inputs": [
        {
          "indexed": true,
          "internalType": "address",
          "name": "previousOwner",
          "type": "address"
        },
        {
          "indexed": true,
          "internalType": "address",
          "name": "newOwner",
          "type": "address"
        }
      ],
      "name": "OwnershipTransferred",
      "type": "event"
    },
    {
      "anonymous": false,
      "inputs": [
        {
          "indexed": false,
          "internalType": "uint256",
          "name": "_oldKdxPerblock",
          "type": "uint256"
        },
        {
          "indexed": false,
          "internalType": "uint256",
          "name": "_newKdxPerblock",
          "type": "uint256"
        }
      ],
      "name": "UpdateKdxPerBlock",
      "type": "event"
    },
    {
      "anonymous": false,
      "inputs": [
        {
          "indexed": true,
          "internalType": "address",
          "name": "user",
          "type": "address"
        },
        {
          "indexed": true,
          "internalType": "uint256",
          "name": "pid",
          "type": "uint256"
        },
        {
          "indexed": false,
          "internalType": "uint256",
          "name": "amount",
          "type": "uint256"
        }
      ],
      "name": "Withdraw",
      "type": "event"
    },
    {
      "inputs": [
        {
          "internalType": "uint256",
          "name": "_allocPoint",
          "type": "uint256"
        },
        {
          "internalType": "contract IERC20",
          "name": "_lpToken",
          "type": "address"
        },
        {
          "internalType": "bool",
          "name": "_withUpdate",
          "type": "bool"
        }
      ],
      "name": "add",
      "outputs": [],
      "stateMutability": "nonpayable",
      "type": "function"
    },
    {
      "inputs": [
        {
          "internalType": "uint256",
          "name": "_pid",
          "type": "uint256"
        },
        {
          "internalType": "uint256",
          "name": "_amount",
          "type": "uint256"
        }
      ],
      "name": "deposit",
      "outputs": [],
      "stateMutability": "nonpayable",
      "type": "function"
    },
    {
      "inputs": [
        {
          "internalType": "uint256",
          "name": "_pid",
          "type": "uint256"
        }
      ],
      "name": "emergencyWithdraw",
      "outputs": [],
      "stateMutability": "nonpayable",
      "type": "function"
    },
    {
      "inputs": [
        {
          "internalType": "uint256",
          "name": "_from",
          "type": "uint256"
        },
        {
          "internalType": "uint256",
          "name": "_to",
          "type": "uint256"
        }
      ],
      "name": "getMultiplier",
      "outputs": [
        {
          "internalType": "uint256",
          "name": "",
          "type": "uint256"
        }
      ],
      "stateMutability": "pure",
      "type": "function"
    },
    {
      "inputs": [
        {
          "internalType": "uint256",
          "name": "_pid",
          "type": "uint256"
        }
      ],
      "name": "harvest",
      "outputs": [],
      "stateMutability": "nonpayable",
      "type": "function"
    },
    {
      "inputs": [],
      "name": "kdx",
      "outputs": [
        {
          "internalType": "contract KaiDexToken",
          "name": "",
          "type": "address"
        }
      ],
      "stateMutability": "view",
      "type": "function"
    },
    {
      "inputs": [],
      "name": "kdxPerBlock",
      "outputs": [
        {
          "internalType": "uint256",
          "name": "",
          "type": "uint256"
        }
      ],
      "stateMutability": "view",
      "type": "function"
    },
    {
      "inputs": [],
      "name": "massUpdatePools",
      "outputs": [],
      "stateMutability": "nonpayable",
      "type": "function"
    },
    {
      "inputs": [],
      "name": "owner",
      "outputs": [
        {
          "internalType": "address",
          "name": "",
          "type": "address"
        }
      ],
      "stateMutability": "view",
      "type": "function"
    },
    {
      "inputs": [
        {
          "internalType": "uint256",
          "name": "_pid",
          "type": "uint256"
        },
        {
          "internalType": "address",
          "name": "_user",
          "type": "address"
        }
      ],
      "name": "pendingKDX",
      "outputs": [
        {
          "internalType": "uint256",
          "name": "",
          "type": "uint256"
        }
      ],
      "stateMutability": "view",
      "type": "function"
    },
    {
      "inputs": [
        {
          "internalType": "uint256",
          "name": "",
          "type": "uint256"
        }
      ],
      "name": "poolInfo",
      "outputs": [
        {
          "internalType": "contract IERC20",
          "name": "lpToken",
          "type": "address"
        },
        {
          "internalType": "uint256",
          "name": "allocPoint",
          "type": "uint256"
        },
        {
          "internalType": "uint256",
          "name": "lastRewardBlock",
          "type": "uint256"
        },
        {
          "internalType": "uint256",
          "name": "accKDXPerShare",
          "type": "uint256"
        }
      ],
      "stateMutability": "view",
      "type": "function"
    },
    {
      "inputs": [],
      "name": "poolLength",
      "outputs": [
        {
          "internalType": "uint256",
          "name": "",
          "type": "uint256"
        }
      ],
      "stateMutability": "view",
      "type": "function"
    },
    {
      "inputs": [],
      "name": "renounceOwnership",
      "outputs": [],
      "stateMutability": "nonpayable",
      "type": "function"
    },
    {
      "inputs": [
        {
          "internalType": "uint256",
          "name": "_pid",
          "type": "uint256"
        },
        {
          "internalType": "uint256",
          "name": "_allocPoint",
          "type": "uint256"
        },
        {
          "internalType": "bool",
          "name": "_withUpdate",
          "type": "bool"
        }
      ],
      "name": "set",
      "outputs": [],
      "stateMutability": "nonpayable",
      "type": "function"
    },
    {
      "inputs": [],
      "name": "startBlock",
      "outputs": [
        {
          "internalType": "uint256",
          "name": "",
          "type": "uint256"
        }
      ],
      "stateMutability": "view",
      "type": "function"
    },
    {
      "inputs": [],
      "name": "totalAllocPoint",
      "outputs": [
        {
          "internalType": "uint256",
          "name": "",
          "type": "uint256"
        }
      ],
      "stateMutability": "view",
      "type": "function"
    },
    {
      "inputs": [
        {
          "internalType": "address",
          "name": "newOwner",
          "type": "address"
        }
      ],
      "name": "transferOwnership",
      "outputs": [],
      "stateMutability": "nonpayable",
      "type": "function"
    },
    {
      "inputs": [
        {
          "internalType": "uint256",
          "name": "_newKdxPerBlock",
          "type": "uint256"
        }
      ],
      "name": "updateKdxPerBlock",
      "outputs": [],
      "stateMutability": "nonpayable",
      "type": "function"
    },
    {
      "inputs": [
        {
          "internalType": "uint256",
          "name": "_pid",
          "type": "uint256"
        }
      ],
      "name": "updatePool",
      "outputs": [],
      "stateMutability": "nonpayable",
      "type": "function"
    },
    {
      "inputs": [
        {
          "internalType": "uint256",
          "name": "_newStartBlock",
          "type": "uint256"
        }
      ],
      "name": "updateStartBlock",
      "outputs": [],
      "stateMutability": "nonpayable",
      "type": "function"
    },
    {
      "inputs": [
        {
          "internalType": "uint256",
          "name": "",
          "type": "uint256"
        },
        {
          "internalType": "address",
          "name": "",
          "type": "address"
        }
      ],
      "name": "userInfo",
      "outputs": [
        {
          "internalType": "uint256",
          "name": "amount",
          "type": "uint256"
        },
        {
          "internalType": "uint256",
          "name": "rewardDebt",
          "type": "uint256"
        }
      ],
      "stateMutability": "view",
      "type": "function"
    },
    {
      "inputs": [
        {
          "internalType": "uint256",
          "name": "_pid",
          "type": "uint256"
        },
        {
          "internalType": "uint256",
          "name": "_amount",
          "type": "uint256"
        }
      ],
      "name": "withdraw",
      "outputs": [],
      "stateMutability": "nonpayable",
      "type": "function"
    }
  ],
  "bytecode": "0x6080604052600060065534801561001557600080fd5b5060405162001c4938038062001c49833981016040819052610036916100bf565b61003f3361006f565b60018055600280546001600160a01b0319166001600160a01b039490941693909317909255600355600755610100565b600080546001600160a01b038381166001600160a01b0319831681178455604051919092169283917f8be0079c531659141344cd1fd0a4f28419497f9722a3daafe3b4186f6b6457e09190a35050565b6000806000606084860312156100d3578283fd5b83516001600160a01b03811681146100e9578384fd5b602085015160409095015190969495509392505050565b611b3980620001106000396000f3fe608060405234801561001057600080fd5b50600436106101425760003560e01c8063715018a6116100b8578063dadf21441161007c578063dadf2144146102b9578063dae47818146102cc578063ddc63262146102df578063e2bbb158146102f2578063f2fde38b14610305578063fac2b9ba1461031857600080fd5b8063715018a61461021f57806387a9b5eb146102275780638da5cb5b1461023a5780638dbb1e3a1461025f57806393f1a40b1461027257600080fd5b806348cd4cb11161010a57806348cd4cb1146101cc57806351eb05a6146101d55780635312ea8e146101e8578063630b5ba1146101fb57806364482f7914610203578063662b5fbe1461021657600080fd5b8063081e3eda146101475780631526fe271461015e57806317caf6f11461019b5780631eaaa045146101a4578063441a3e70146101b9575b600080fd5b6004545b6040519081526020015b60405180910390f35b61017161016c3660046118a1565b61032b565b604080516001600160a01b0390951685526020850193909352918301526060820152608001610155565b61014b60065481565b6101b76101b2366004611900565b61036f565b005b6101b76101c7366004611941565b610597565b61014b60075481565b6101b76101e33660046118a1565b61087d565b6101b76101f63660046118a1565b610a71565b6101b7610ca8565b6101b7610211366004611962565b610cd3565b61014b60035481565b6101b7610db6565b6101b76102353660046118a1565b610dca565b6000546001600160a01b03165b6040516001600160a01b039091168152602001610155565b61014b61026d366004611941565b610e1f565b6102a46102803660046118d1565b60056020908152600092835260408084209091529082529020805460019091015482565b60408051928352602083019190915201610155565b61014b6102c73660046118d1565b610e32565b600254610247906001600160a01b031681565b6101b76102ed3660046118a1565b610fac565b6101b7610300366004611941565b610fe7565b6101b7610313366004611869565b611022565b6101b76103263660046118a1565b61109b565b6004818154811061033b57600080fd5b600091825260209091206004909102018054600182015460028301546003909301546001600160a01b039092169350919084565b6103776110e6565b600454829060005b8181101561042857826001600160a01b0316600482815481106103b257634e487b7160e01b600052603260045260246000fd5b60009182526020909120600490910201546001600160a01b031614156104165760405162461bcd60e51b815260206004820152601460248201527330b2321d1030bc34b9ba34b733903837b7b6399760611b60448201526064015b60405180910390fd5b8061042081611aaf565b91505061037f565b50821561043757610437610ca8565b6000600754431161044a5760075461044c565b435b60065490915061045c9087611140565b600655604080516080810182526001600160a01b03878116808352602083018a815293830185815260006060850181815260048054600180820183559382905296517f8a35acfbc15ff81a39ae7d344fd709f28e8600b4aa8c65c6b64bfe7fe36bd19b97820297880180546001600160a01b031916919097161790955595517f8a35acfbc15ff81a39ae7d344fd709f28e8600b4aa8c65c6b64bfe7fe36bd19c86015590517f8a35acfbc15ff81a39ae7d344fd709f28e8600b4aa8c65c6b64bfe7fe36bd19d85015593517f8a35acfbc15ff81a39ae7d344fd709f28e8600b4aa8c65c6b64bfe7fe36bd19e9093019290925554909161055c919061114c565b6040518881527f4710feb78e3bce8d2e3ca2989a8eb2f8bcd32a6a55b4535942c180fc4d2e29529060200160405180910390a3505050505050565b600260015414156105ba5760405162461bcd60e51b815260040161040d906119de565b60026001819055506000600483815481106105e557634e487b7160e01b600052603260045260246000fd5b6000918252602080832086845260058252604080852033865290925292208054600490920290920192508311156106535760405162461bcd60e51b81526020600482015260126024820152711dda5d1a191c985dce881b9bdd0819dbdbd960721b604482015260640161040d565b61065c8461087d565b6000610696826001015461069064e8d4a5100061068a8760030154876000015461115890919063ffffffff16565b90611164565b9061114c565b90506106a23382611170565b81546106ae908561114c565b80835560038401546106cb9164e8d4a510009161068a9190611158565b600183015582546040516370a0823160e01b81523060048201526000916001600160a01b0316906370a082319060240160206040518083038186803b15801561071357600080fd5b505afa158015610727573d6000803e3d6000fd5b505050506040513d601f19601f8201168201806040525081019061074b91906118b9565b8454909150610764906001600160a01b031633876112c1565b83546040516370a0823160e01b81523060048201526000916001600160a01b0316906370a082319060240160206040518083038186803b1580156107a757600080fd5b505afa1580156107bb573d6000803e3d6000fd5b505050506040513d601f19601f820116820180604052508101906107df91906118b9565b90506107eb8187611140565b82146108395760405162461bcd60e51b815260206004820152601760248201527f77697468647261773a206e6f74206465666c6174696f6e000000000000000000604482015260640161040d565b604051868152879033907ff279e6a1f5e320cca91135676d9cb6e44ca8a08c0b88342bcdb1144f6511b5689060200160405180910390a35050600180555050505050565b6000600482815481106108a057634e487b7160e01b600052603260045260246000fd5b90600052602060002090600402019050806002015443116108bf575050565b80546040516370a0823160e01b81523060048201526000916001600160a01b0316906370a082319060240160206040518083038186803b15801561090257600080fd5b505afa158015610916573d6000803e3d6000fd5b505050506040513d601f19601f8201168201806040525081019061093a91906118b9565b90508061094c57504360029091015550565b600061095c836002015443610e1f565b9050600061098960065461068a86600101546109836003548761115890919063ffffffff16565b90611158565b6002546040516340c10f1960e01b8152306004820152602481018390529192506001600160a01b0316906340c10f1990604401600060405180830381600087803b1580156109d657600080fd5b505af11580156109ea573d6000803e3d6000fd5b50505050610a18610a0d8461068a64e8d4a510008561115890919063ffffffff16565b600386015490611140565b600385018190554360028601819055604080519182526020820186905281019190915285907fcb7325664a4a3b7c7223eefc492a97ca4fdf94d46884621e5a8fae5a04b2b9d29060600160405180910390a25050505050565b60026001541415610a945760405162461bcd60e51b815260040161040d906119de565b6002600181905550600060048281548110610abf57634e487b7160e01b600052603260045260246000fd5b60009182526020808320858452600582526040808520338652909252818420848155600181018590556004938402909101805492516370a0823160e01b81523094810194909452945092916001600160a01b03909116906370a082319060240160206040518083038186803b158015610b3757600080fd5b505afa158015610b4b573d6000803e3d6000fd5b505050506040513d601f19601f82011682018060405250810190610b6f91906118b9565b82548454919250610b8b916001600160a01b03169033906112c1565b82546040516370a0823160e01b81523060048201526000916001600160a01b0316906370a082319060240160206040518083038186803b158015610bce57600080fd5b505afa158015610be2573d6000803e3d6000fd5b505050506040513d601f19601f82011682018060405250810190610c0691906118b9565b8354909150610c16908290611140565b8214610c645760405162461bcd60e51b815260206004820181905260248201527f656d657267656e637957697468647261773a206e6f74206465666c6174696f6e604482015260640161040d565b8254604051908152859033907fbb757047c2b5f3974fe26b7c10f732e7bce710b0952a71082702781e62ae05959060200160405180910390a3505060018055505050565b60045460005b81811015610ccf57610cbf8161087d565b610cc881611aaf565b9050610cae565b5050565b610cdb6110e6565b8015610ce957610ce9610ca8565b610d3a82610d3460048681548110610d1157634e487b7160e01b600052603260045260246000fd5b90600052602060002090600402016001015460065461114c90919063ffffffff16565b90611140565b6006819055508160048481548110610d6257634e487b7160e01b600052603260045260246000fd5b906000526020600020906004020160010181905550827f942cc7e17a17c164bd977f32ab8c54265d5b9d481e4e352bf874f1e568874e7c83604051610da991815260200190565b60405180910390a2505050565b610dbe6110e6565b610dc86000611324565b565b610dd26110e6565b610dda610ca8565b600380549082905560408051828152602081018490527f154b080d393c5baaaea54a0552c9a07b32f814a44e785b14461a80234e22058a910160405180910390a15050565b6000610e2b828461114c565b9392505050565b60008060048481548110610e5657634e487b7160e01b600052603260045260246000fd5b600091825260208083208784526005825260408085206001600160a01b038981168752935280852060049485029092016003810154815492516370a0823160e01b8152309681019690965290965091949193919216906370a082319060240160206040518083038186803b158015610ecd57600080fd5b505afa158015610ee1573d6000803e3d6000fd5b505050506040513d601f19601f82011682018060405250810190610f0591906118b9565b9050836002015443118015610f1957508015155b15610f79576000610f2e856002015443610e1f565b90506000610f5560065461068a88600101546109836003548761115890919063ffffffff16565b9050610f74610f6d8461068a8464e8d4a51000611158565b8590611140565b935050505b610fa1836001015461069064e8d4a5100061068a86886000015461115890919063ffffffff16565b979650505050505050565b60026001541415610fcf5760405162461bcd60e51b815260040161040d906119de565b6002600155610fe081600033611374565b5060018055565b6002600154141561100a5760405162461bcd60e51b815260040161040d906119de565b600260015561101a828233611374565b505060018055565b61102a6110e6565b6001600160a01b03811661108f5760405162461bcd60e51b815260206004820152602660248201527f4f776e61626c653a206e6577206f776e657220697320746865207a65726f206160448201526564647265737360d01b606482015260840161040d565b61109881611324565b50565b6110a36110e6565b43600754116110e15760405162461bcd60e51b815260206004820152600a60248201526977726f6e672074696d6560b01b604482015260640161040d565b600755565b6000546001600160a01b03163314610dc85760405162461bcd60e51b815260206004820181905260248201527f4f776e61626c653a2063616c6c6572206973206e6f7420746865206f776e6572604482015260640161040d565b6000610e2b8284611a15565b6000610e2b8284611a6c565b6000610e2b8284611a4d565b6000610e2b8284611a2d565b6002546040516370a0823160e01b81523060048201526000916001600160a01b0316906370a082319060240160206040518083038186803b1580156111b457600080fd5b505afa1580156111c8573d6000803e3d6000fd5b505050506040513d601f19601f820116820180604052508101906111ec91906118b9565b9050808211156112835760025460405163a9059cbb60e01b81526001600160a01b038581166004830152602482018490529091169063a9059cbb906044015b602060405180830381600087803b15801561124557600080fd5b505af1158015611259573d6000803e3d6000fd5b505050506040513d601f19601f8201168201806040525081019061127d9190611885565b50505050565b60025460405163a9059cbb60e01b81526001600160a01b038581166004830152602482018590529091169063a9059cbb9060440161122b565b505050565b6040516001600160a01b0383166024820152604481018290526112bc90849063a9059cbb60e01b906064015b60408051601f198184030181529190526020810180516001600160e01b03166001600160e01b0319909316929092179091526115ee565b600080546001600160a01b038381166001600160a01b0319831681178455604051919092169283917f8be0079c531659141344cd1fd0a4f28419497f9722a3daafe3b4186f6b6457e09190a35050565b60006004848154811061139757634e487b7160e01b600052603260045260246000fd5b600091825260208083208784526005825260408085206001600160a01b03881686529092529220600490910290910191506113d18561087d565b80546000901561141357611407826001015461069064e8d4a5100061068a8760030154876000015461115890919063ffffffff16565b90506114138482611170565b82546040516370a0823160e01b81523060048201526000916001600160a01b0316906370a082319060240160206040518083038186803b15801561145657600080fd5b505afa15801561146a573d6000803e3d6000fd5b505050506040513d601f19601f8201168201806040525081019061148e91906118b9565b84549091506114a8906001600160a01b03168630896116c0565b83546040516370a0823160e01b81523060048201526000916001600160a01b0316906370a082319060240160206040518083038186803b1580156114eb57600080fd5b505afa1580156114ff573d6000803e3d6000fd5b505050506040513d601f19601f8201168201806040525081019061152391906118b9565b905061152f8288611140565b81146115765760405162461bcd60e51b81526020600482015260166024820152753232b837b9b4ba1d103737ba103232b33630ba34b7b760511b604482015260640161040d565b83546115829088611140565b808555600386015461159f9164e8d4a510009161068a9190611158565b600185015560405187815288906001600160a01b038816907f90890809c654f11d6e72a28fa60149770a0d11ec6c92319d6ceb2bb0a4ea1a159060200160405180910390a35050505050505050565b6000611643826040518060400160405280602081526020017f5361666545524332303a206c6f772d6c6576656c2063616c6c206661696c6564815250856001600160a01b03166116f89092919063ffffffff16565b8051909150156112bc57808060200190518101906116619190611885565b6112bc5760405162461bcd60e51b815260206004820152602a60248201527f5361666545524332303a204552433230206f7065726174696f6e20646964206e6044820152691bdd081cdd58d8d9595960b21b606482015260840161040d565b6040516001600160a01b038085166024830152831660448201526064810182905261127d9085906323b872dd60e01b906084016112ed565b6060611707848460008561170f565b949350505050565b6060824710156117705760405162461bcd60e51b815260206004820152602660248201527f416464726573733a20696e73756666696369656e742062616c616e636520666f6044820152651c8818d85b1b60d21b606482015260840161040d565b6001600160a01b0385163b6117c75760405162461bcd60e51b815260206004820152601d60248201527f416464726573733a2063616c6c20746f206e6f6e2d636f6e7472616374000000604482015260640161040d565b600080866001600160a01b031685876040516117e3919061198f565b60006040518083038185875af1925050503d8060008114611820576040519150601f19603f3d011682016040523d82523d6000602084013e611825565b606091505b5091509150610fa18282866060831561183f575081610e2b565b82511561184f5782518084602001fd5b8160405162461bcd60e51b815260040161040d91906119ab565b60006020828403121561187a578081fd5b8135610e2b81611ae0565b600060208284031215611896578081fd5b8151610e2b81611af5565b6000602082840312156118b2578081fd5b5035919050565b6000602082840312156118ca578081fd5b5051919050565b600080604083850312156118e3578081fd5b8235915060208301356118f581611ae0565b809150509250929050565b600080600060608486031215611914578081fd5b83359250602084013561192681611ae0565b9150604084013561193681611af5565b809150509250925092565b60008060408385031215611953578182fd5b50508035926020909101359150565b600080600060608486031215611976578283fd5b8335925060208401359150604084013561193681611af5565b600082516119a1818460208701611a83565b9190910192915050565b60208152600082518060208401526119ca816040850160208701611a83565b601f01601f19169190910160400192915050565b6020808252601f908201527f5265656e7472616e637947756172643a207265656e7472616e742063616c6c00604082015260600190565b60008219821115611a2857611a28611aca565b500190565b600082611a4857634e487b7160e01b81526012600452602481fd5b500490565b6000816000190483118215151615611a6757611a67611aca565b500290565b600082821015611a7e57611a7e611aca565b500390565b60005b83811015611a9e578181015183820152602001611a86565b8381111561127d5750506000910152565b6000600019821415611ac357611ac3611aca565b5060010190565b634e487b7160e01b600052601160045260246000fd5b6001600160a01b038116811461109857600080fd5b801515811461109857600080fdfea26469706673582212201bd17afe473a4dfc52959e5662ec9d6639d9b38f2489ebf65d93da6da09ebcb164736f6c63430008040033",
  "linkReferences": {},
  "deployedLinkReferences": {}
}