{
  "_format": "hh-sol-artifact-1",
  "contractName": "KaidexMasterChef",
  "sourceName": "contracts/farming/KaidexMasterChef.sol",
  "abi": [
    {
      "inputs": [
        {
          "internalType": "contract KaiDexToken",
          "name": "_kdx",
          "type": "address"
        },
        {
          "internalType": "uint256",
          "name": "_kdxPerBlock",
          "type": "uint256"
        },
        {
          "internalType": "uint256",
          "name": "_startBlock",
          "type": "uint256"
        }
      ],
      "stateMutability": "nonpayable",
      "type": "constructor"
    },
    {
      "anonymous": false,
      "inputs": [
        {
          "indexed": true,
          "internalType": "address",
          "name": "user",
          "type": "address"
        },
        {
          "indexed": true,
          "internalType": "uint256",
          "name": "pid",
          "type": "uint256"
        },
        {
          "indexed": false,
          "internalType": "uint256",
          "name": "amount",
          "type": "uint256"
        }
      ],
      "name": "Deposit",
      "type": "event"
    },
    {
      "anonymous": false,
      "inputs": [
        {
          "indexed": true,
          "internalType": "address",
          "name": "user",
          "type": "address"
        },
        {
          "indexed": true,
          "internalType": "uint256",
          "name": "pid",
          "type": "uint256"
        },
        {
          "indexed": false,
          "internalType": "uint256",
          "name": "amount",
          "type": "uint256"
        }
      ],
      "name": "EmergencyWithdraw",
      "type": "event"
    },
    {
      "anonymous": false,
      "inputs": [
        {
          "indexed": true,
          "internalType": "uint256",
          "name": "pid",
          "type": "uint256"
        },
        {
          "indexed": false,
          "internalType": "uint256",
          "name": "allocPoint",
          "type": "uint256"
        },
        {
          "indexed": true,
          "internalType": "contract IERC20",
          "name": "lpToken",
          "type": "address"
        }
      ],
      "name": "LogPoolAddition",
      "type": "event"
    },
    {
      "anonymous": false,
      "inputs": [
        {
          "indexed": true,
          "internalType": "uint256",
          "name": "pid",
          "type": "uint256"
        },
        {
          "indexed": false,
          "internalType": "uint256",
          "name": "allocPoint",
          "type": "uint256"
        }
      ],
      "name": "LogSetPool",
      "type": "event"
    },
    {
      "anonymous": false,
      "inputs": [
        {
          "indexed": true,
          "internalType": "uint256",
          "name": "pid",
          "type": "uint256"
        },
        {
          "indexed": false,
          "internalType": "uint256",
          "name": "lastRewardBlock",
          "type": "uint256"
        },
        {
          "indexed": false,
          "internalType": "uint256",
          "name": "lpSupply",
          "type": "uint256"
        },
        {
          "indexed": false,
          "internalType": "uint256",
          "name": "accKdxPerShare",
          "type": "uint256"
        }
      ],
      "name": "LogUpdatePool",
      "type": "event"
    },
    {
      "anonymous": false,
      "inputs": [
        {
          "indexed": true,
          "internalType": "address",
          "name": "previousOwner",
          "type": "address"
        },
        {
          "indexed": true,
          "internalType": "address",
          "name": "newOwner",
          "type": "address"
        }
      ],
      "name": "OwnershipTransferred",
      "type": "event"
    },
    {
      "anonymous": false,
      "inputs": [
        {
          "indexed": false,
          "internalType": "uint256",
          "name": "_oldKdxPerblock",
          "type": "uint256"
        },
        {
          "indexed": false,
          "internalType": "uint256",
          "name": "_newKdxPerblock",
          "type": "uint256"
        }
      ],
      "name": "UpdateKdxPerBlock",
      "type": "event"
    },
    {
      "anonymous": false,
      "inputs": [
        {
          "indexed": true,
          "internalType": "address",
          "name": "user",
          "type": "address"
        },
        {
          "indexed": true,
          "internalType": "uint256",
          "name": "pid",
          "type": "uint256"
        },
        {
          "indexed": false,
          "internalType": "uint256",
          "name": "amount",
          "type": "uint256"
        }
      ],
      "name": "Withdraw",
      "type": "event"
    },
    {
      "inputs": [
        {
          "internalType": "uint256",
          "name": "_allocPoint",
          "type": "uint256"
        },
        {
          "internalType": "contract IERC20",
          "name": "_lpToken",
          "type": "address"
        },
        {
          "internalType": "bool",
          "name": "_withUpdate",
          "type": "bool"
        }
      ],
      "name": "add",
      "outputs": [],
      "stateMutability": "nonpayable",
      "type": "function"
    },
    {
      "inputs": [
        {
          "internalType": "uint256",
          "name": "_pid",
          "type": "uint256"
        },
        {
          "internalType": "uint256",
          "name": "_amount",
          "type": "uint256"
        }
      ],
      "name": "deposit",
      "outputs": [],
      "stateMutability": "nonpayable",
      "type": "function"
    },
    {
      "inputs": [
        {
          "internalType": "uint256",
          "name": "_pid",
          "type": "uint256"
        }
      ],
      "name": "emergencyWithdraw",
      "outputs": [],
      "stateMutability": "nonpayable",
      "type": "function"
    },
    {
      "inputs": [
        {
          "internalType": "uint256",
          "name": "_from",
          "type": "uint256"
        },
        {
          "internalType": "uint256",
          "name": "_to",
          "type": "uint256"
        }
      ],
      "name": "getMultiplier",
      "outputs": [
        {
          "internalType": "uint256",
          "name": "",
          "type": "uint256"
        }
      ],
      "stateMutability": "pure",
      "type": "function"
    },
    {
      "inputs": [
        {
          "internalType": "uint256",
          "name": "_pid",
          "type": "uint256"
        }
      ],
      "name": "harvest",
      "outputs": [],
      "stateMutability": "nonpayable",
      "type": "function"
    },
    {
      "inputs": [],
      "name": "kdx",
      "outputs": [
        {
          "internalType": "contract KaiDexToken",
          "name": "",
          "type": "address"
        }
      ],
      "stateMutability": "view",
      "type": "function"
    },
    {
      "inputs": [],
      "name": "kdxPerBlock",
      "outputs": [
        {
          "internalType": "uint256",
          "name": "",
          "type": "uint256"
        }
      ],
      "stateMutability": "view",
      "type": "function"
    },
    {
      "inputs": [],
      "name": "massUpdatePools",
      "outputs": [],
      "stateMutability": "nonpayable",
      "type": "function"
    },
    {
      "inputs": [],
      "name": "owner",
      "outputs": [
        {
          "internalType": "address",
          "name": "",
          "type": "address"
        }
      ],
      "stateMutability": "view",
      "type": "function"
    },
    {
      "inputs": [
        {
          "internalType": "uint256",
          "name": "_pid",
          "type": "uint256"
        },
        {
          "internalType": "address",
          "name": "_user",
          "type": "address"
        }
      ],
      "name": "pendingKDX",
      "outputs": [
        {
          "internalType": "uint256",
          "name": "",
          "type": "uint256"
        }
      ],
      "stateMutability": "view",
      "type": "function"
    },
    {
      "inputs": [
        {
          "internalType": "uint256",
          "name": "",
          "type": "uint256"
        }
      ],
      "name": "poolInfo",
      "outputs": [
        {
          "internalType": "contract IERC20",
          "name": "lpToken",
          "type": "address"
        },
        {
          "internalType": "uint256",
          "name": "allocPoint",
          "type": "uint256"
        },
        {
          "internalType": "uint256",
          "name": "lastRewardBlock",
          "type": "uint256"
        },
        {
          "internalType": "uint256",
          "name": "accKDXPerShare",
          "type": "uint256"
        }
      ],
      "stateMutability": "view",
      "type": "function"
    },
    {
      "inputs": [],
      "name": "poolLength",
      "outputs": [
        {
          "internalType": "uint256",
          "name": "",
          "type": "uint256"
        }
      ],
      "stateMutability": "view",
      "type": "function"
    },
    {
      "inputs": [],
      "name": "renounceOwnership",
      "outputs": [],
      "stateMutability": "nonpayable",
      "type": "function"
    },
    {
      "inputs": [
        {
          "internalType": "uint256",
          "name": "_pid",
          "type": "uint256"
        },
        {
          "internalType": "uint256",
          "name": "_allocPoint",
          "type": "uint256"
        },
        {
          "internalType": "bool",
          "name": "_withUpdate",
          "type": "bool"
        }
      ],
      "name": "set",
      "outputs": [],
      "stateMutability": "nonpayable",
      "type": "function"
    },
    {
      "inputs": [],
      "name": "startBlock",
      "outputs": [
        {
          "internalType": "uint256",
          "name": "",
          "type": "uint256"
        }
      ],
      "stateMutability": "view",
      "type": "function"
    },
    {
      "inputs": [],
      "name": "totalAllocPoint",
      "outputs": [
        {
          "internalType": "uint256",
          "name": "",
          "type": "uint256"
        }
      ],
      "stateMutability": "view",
      "type": "function"
    },
    {
      "inputs": [
        {
          "internalType": "address",
          "name": "newOwner",
          "type": "address"
        }
      ],
      "name": "transferOwnership",
      "outputs": [],
      "stateMutability": "nonpayable",
      "type": "function"
    },
    {
      "inputs": [
        {
          "internalType": "uint256",
          "name": "_newKdxPerBlock",
          "type": "uint256"
        }
      ],
      "name": "updateKdxPerBlock",
      "outputs": [],
      "stateMutability": "nonpayable",
      "type": "function"
    },
    {
      "inputs": [
        {
          "internalType": "uint256",
          "name": "_pid",
          "type": "uint256"
        }
      ],
      "name": "updatePool",
      "outputs": [],
      "stateMutability": "nonpayable",
      "type": "function"
    },
    {
      "inputs": [
        {
          "internalType": "uint256",
          "name": "",
          "type": "uint256"
        },
        {
          "internalType": "address",
          "name": "",
          "type": "address"
        }
      ],
      "name": "userInfo",
      "outputs": [
        {
          "internalType": "uint256",
          "name": "amount",
          "type": "uint256"
        },
        {
          "internalType": "uint256",
          "name": "rewardDebt",
          "type": "uint256"
        }
      ],
      "stateMutability": "view",
      "type": "function"
    },
    {
      "inputs": [
        {
          "internalType": "uint256",
          "name": "_pid",
          "type": "uint256"
        },
        {
          "internalType": "uint256",
          "name": "_amount",
          "type": "uint256"
        }
      ],
      "name": "withdraw",
      "outputs": [],
      "stateMutability": "nonpayable",
      "type": "function"
    }
  ],
  "bytecode": "0x608060405260006005553480156200001657600080fd5b50604051620029f1380380620029f183398181016040528101906200003c9190620001ae565b6200005c62000050620000b460201b60201c565b620000bc60201b60201c565b82600160006101000a81548173ffffffffffffffffffffffffffffffffffffffff021916908373ffffffffffffffffffffffffffffffffffffffff16021790555081600281905550806006819055505050506200028a565b600033905090565b60008060009054906101000a900473ffffffffffffffffffffffffffffffffffffffff169050816000806101000a81548173ffffffffffffffffffffffffffffffffffffffff021916908373ffffffffffffffffffffffffffffffffffffffff1602179055508173ffffffffffffffffffffffffffffffffffffffff168173ffffffffffffffffffffffffffffffffffffffff167f8be0079c531659141344cd1fd0a4f28419497f9722a3daafe3b4186f6b6457e060405160405180910390a35050565b600081519050620001918162000256565b92915050565b600081519050620001a88162000270565b92915050565b600080600060608486031215620001c457600080fd5b6000620001d48682870162000180565b9350506020620001e78682870162000197565b9250506040620001fa8682870162000197565b9150509250925092565b600062000211826200022c565b9050919050565b6000620002258262000204565b9050919050565b600073ffffffffffffffffffffffffffffffffffffffff82169050919050565b6000819050919050565b620002618162000218565b81146200026d57600080fd5b50565b6200027b816200024c565b81146200028757600080fd5b50565b612757806200029a6000396000f3fe608060405234801561001057600080fd5b50600436106101375760003560e01c8063662b5fbe116100b857806393f1a40b1161007c57806393f1a40b146102f1578063dadf214414610322578063dae4781814610352578063ddc6326214610370578063e2bbb1581461038c578063f2fde38b146103a857610137565b8063662b5fbe1461025f578063715018a61461027d57806387a9b5eb146102875780638da5cb5b146102a35780638dbb1e3a146102c157610137565b806348cd4cb1116100ff57806348cd4cb1146101e357806351eb05a6146102015780635312ea8e1461021d578063630b5ba11461023957806364482f791461024357610137565b8063081e3eda1461013c5780631526fe271461015a57806317caf6f11461018d5780631eaaa045146101ab578063441a3e70146101c7575b600080fd5b6101446103c4565b604051610151919061220e565b60405180910390f35b610174600480360381019061016f9190611d5a565b6103d1565b60405161018494939291906120cc565b60405180910390f35b610195610431565b6040516101a2919061220e565b60405180910390f35b6101c560048036038101906101c09190611de8565b610437565b005b6101e160048036038101906101dc9190611e37565b61062b565b005b6101eb61086f565b6040516101f8919061220e565b60405180910390f35b61021b60048036038101906102169190611d5a565b610875565b005b61023760048036038101906102329190611d5a565b610b1d565b005b610241610c7c565b005b61025d60048036038101906102589190611e73565b610caf565b005b610267610e3f565b604051610274919061220e565b60405180910390f35b610285610e45565b005b6102a1600480360381019061029c9190611d5a565b610ecd565b005b6102ab610f9e565b6040516102b89190612051565b60405180910390f35b6102db60048036038101906102d69190611e37565b610fc7565b6040516102e8919061220e565b60405180910390f35b61030b60048036038101906103069190611dac565b610fe4565b604051610319929190612229565b60405180910390f35b61033c60048036038101906103379190611dac565b611015565b604051610349919061220e565b60405180910390f35b61035a61126f565b6040516103679190612111565b60405180910390f35b61038a60048036038101906103859190611d5a565b611295565b005b6103a660048036038101906103a19190611e37565b6112a4565b005b6103c260048036038101906103bd9190611d08565b6112b3565b005b6000600380549050905090565b600381815481106103e157600080fd5b90600052602060002090600402016000915090508060000160009054906101000a900473ffffffffffffffffffffffffffffffffffffffff16908060010154908060020154908060030154905084565b60055481565b61043f6113ab565b73ffffffffffffffffffffffffffffffffffffffff1661045d610f9e565b73ffffffffffffffffffffffffffffffffffffffff16146104b3576040517f08c379a00000000000000000000000000000000000000000000000000000000081526004016104aa9061218e565b60405180910390fd5b80156104c2576104c1610c7c565b5b600060065443116104d5576006546104d7565b435b90506104ee846005546113b390919063ffffffff16565b600581905550600360405180608001604052808573ffffffffffffffffffffffffffffffffffffffff1681526020018681526020018381526020016000815250908060018154018082558091505060019003906000526020600020906004020160009091909190915060008201518160000160006101000a81548173ffffffffffffffffffffffffffffffffffffffff021916908373ffffffffffffffffffffffffffffffffffffffff16021790555060208201518160010155604082015181600201556060820151816003015550508273ffffffffffffffffffffffffffffffffffffffff166105ee60016003805490506113c990919063ffffffff16565b7f4710feb78e3bce8d2e3ca2989a8eb2f8bcd32a6a55b4535942c180fc4d2e29528660405161061d919061220e565b60405180910390a350505050565b600060038381548110610667577f4e487b7100000000000000000000000000000000000000000000000000000000600052603260045260246000fd5b9060005260206000209060040201905060006004600085815260200190815260200160002060003373ffffffffffffffffffffffffffffffffffffffff1673ffffffffffffffffffffffffffffffffffffffff16815260200190815260200160002090508281600001541015610712576040517f08c379a0000000000000000000000000000000000000000000000000000000008152600401610709906121ce565b60405180910390fd5b61071b84610875565b6000610765826001015461075764e8d4a51000610749876003015487600001546113df90919063ffffffff16565b6113f590919063ffffffff16565b6113c990919063ffffffff16565b9050610771338261140b565b6107888483600001546113c990919063ffffffff16565b82600001819055506107c264e8d4a510006107b4856003015485600001546113df90919063ffffffff16565b6113f590919063ffffffff16565b826001018190555061081933858560000160009054906101000a900473ffffffffffffffffffffffffffffffffffffffff1673ffffffffffffffffffffffffffffffffffffffff1661162d9092919063ffffffff16565b843373ffffffffffffffffffffffffffffffffffffffff167ff279e6a1f5e320cca91135676d9cb6e44ca8a08c0b88342bcdb1144f6511b56886604051610860919061220e565b60405180910390a35050505050565b60065481565b6000600382815481106108b1577f4e487b7100000000000000000000000000000000000000000000000000000000600052603260045260246000fd5b90600052602060002090600402019050806002015443116108d25750610b1a565b60008160000160009054906101000a900473ffffffffffffffffffffffffffffffffffffffff1673ffffffffffffffffffffffffffffffffffffffff166370a08231306040518263ffffffff1660e01b81526004016109319190612051565b60206040518083038186803b15801561094957600080fd5b505afa15801561095d573d6000803e3d6000fd5b505050506040513d601f19601f820116820180604052508101906109819190611d83565b9050600081141561099c574382600201819055505050610b1a565b60006109ac836002015443610fc7565b905060006109ef6005546109e186600101546109d3600254876113df90919063ffffffff16565b6113df90919063ffffffff16565b6113f590919063ffffffff16565b9050600160009054906101000a900473ffffffffffffffffffffffffffffffffffffffff1673ffffffffffffffffffffffffffffffffffffffff166340c10f1930836040518363ffffffff1660e01b8152600401610a4e9291906120a3565b600060405180830381600087803b158015610a6857600080fd5b505af1158015610a7c573d6000803e3d6000fd5b50505050610ac0610aad84610a9f64e8d4a51000856113df90919063ffffffff16565b6113f590919063ffffffff16565b85600301546113b390919063ffffffff16565b8460030181905550438460020181905550847fcb7325664a4a3b7c7223eefc492a97ca4fdf94d46884621e5a8fae5a04b2b9d28560020154858760030154604051610b0d93929190612252565b60405180910390a2505050505b50565b600060038281548110610b59577f4e487b7100000000000000000000000000000000000000000000000000000000600052603260045260246000fd5b9060005260206000209060040201905060006004600084815260200190815260200160002060003373ffffffffffffffffffffffffffffffffffffffff1673ffffffffffffffffffffffffffffffffffffffff1681526020019081526020016000209050610c103382600001548460000160009054906101000a900473ffffffffffffffffffffffffffffffffffffffff1673ffffffffffffffffffffffffffffffffffffffff1661162d9092919063ffffffff16565b6000816000018190555060008160010181905550823373ffffffffffffffffffffffffffffffffffffffff167fbb757047c2b5f3974fe26b7c10f732e7bce710b0952a71082702781e62ae05958360000154604051610c6f919061220e565b60405180910390a3505050565b6000600380549050905060005b81811015610cab57610c9a81610875565b80610ca4906124a5565b9050610c89565b5050565b610cb76113ab565b73ffffffffffffffffffffffffffffffffffffffff16610cd5610f9e565b73ffffffffffffffffffffffffffffffffffffffff1614610d2b576040517f08c379a0000000000000000000000000000000000000000000000000000000008152600401610d229061218e565b60405180910390fd5b8015610d3a57610d39610c7c565b5b610dac82610d9e60038681548110610d7b577f4e487b7100000000000000000000000000000000000000000000000000000000600052603260045260246000fd5b9060005260206000209060040201600101546005546113c990919063ffffffff16565b6113b390919063ffffffff16565b6005819055508160038481548110610ded577f4e487b7100000000000000000000000000000000000000000000000000000000600052603260045260246000fd5b906000526020600020906004020160010181905550827f942cc7e17a17c164bd977f32ab8c54265d5b9d481e4e352bf874f1e568874e7c83604051610e32919061220e565b60405180910390a2505050565b60025481565b610e4d6113ab565b73ffffffffffffffffffffffffffffffffffffffff16610e6b610f9e565b73ffffffffffffffffffffffffffffffffffffffff1614610ec1576040517f08c379a0000000000000000000000000000000000000000000000000000000008152600401610eb89061218e565b60405180910390fd5b610ecb60006116b3565b565b610ed56113ab565b73ffffffffffffffffffffffffffffffffffffffff16610ef3610f9e565b73ffffffffffffffffffffffffffffffffffffffff1614610f49576040517f08c379a0000000000000000000000000000000000000000000000000000000008152600401610f409061218e565b60405180910390fd5b610f51610c7c565b60006002549050816002819055507f154b080d393c5baaaea54a0552c9a07b32f814a44e785b14461a80234e22058a81600254604051610f92929190612229565b60405180910390a15050565b60008060009054906101000a900473ffffffffffffffffffffffffffffffffffffffff16905090565b6000610fdc83836113c990919063ffffffff16565b905092915050565b6004602052816000526040600020602052806000526040600020600091509150508060000154908060010154905082565b60008060038481548110611052577f4e487b7100000000000000000000000000000000000000000000000000000000600052603260045260246000fd5b9060005260206000209060040201905060006004600086815260200190815260200160002060008573ffffffffffffffffffffffffffffffffffffffff1673ffffffffffffffffffffffffffffffffffffffff168152602001908152602001600020905060008260030154905060008360000160009054906101000a900473ffffffffffffffffffffffffffffffffffffffff1673ffffffffffffffffffffffffffffffffffffffff166370a08231306040518263ffffffff1660e01b815260040161111e9190612051565b60206040518083038186803b15801561113657600080fd5b505afa15801561114a573d6000803e3d6000fd5b505050506040513d601f19601f8201168201806040525081019061116e9190611d83565b9050836002015443118015611184575060008114155b1561121f576000611199856002015443610fc7565b905060006111dc6005546111ce88600101546111c0600254876113df90919063ffffffff16565b6113df90919063ffffffff16565b6113f590919063ffffffff16565b905061121a61120b846111fd64e8d4a51000856113df90919063ffffffff16565b6113f590919063ffffffff16565b856113b390919063ffffffff16565b935050505b611263836001015461125564e8d4a510006112478688600001546113df90919063ffffffff16565b6113f590919063ffffffff16565b6113c990919063ffffffff16565b94505050505092915050565b600160009054906101000a900473ffffffffffffffffffffffffffffffffffffffff1681565b6112a181600033611777565b50565b6112af828233611777565b5050565b6112bb6113ab565b73ffffffffffffffffffffffffffffffffffffffff166112d9610f9e565b73ffffffffffffffffffffffffffffffffffffffff161461132f576040517f08c379a00000000000000000000000000000000000000000000000000000000081526004016113269061218e565b60405180910390fd5b600073ffffffffffffffffffffffffffffffffffffffff168173ffffffffffffffffffffffffffffffffffffffff16141561139f576040517f08c379a00000000000000000000000000000000000000000000000000000000081526004016113969061214e565b60405180910390fd5b6113a8816116b3565b50565b600033905090565b600081836113c191906122bb565b905092915050565b600081836113d7919061239c565b905092915050565b600081836113ed9190612342565b905092915050565b600081836114039190612311565b905092915050565b6000600160009054906101000a900473ffffffffffffffffffffffffffffffffffffffff1673ffffffffffffffffffffffffffffffffffffffff166370a08231306040518263ffffffff1660e01b81526004016114689190612051565b60206040518083038186803b15801561148057600080fd5b505afa158015611494573d6000803e3d6000fd5b505050506040513d601f19601f820116820180604052508101906114b89190611d83565b90508082111561157757600160009054906101000a900473ffffffffffffffffffffffffffffffffffffffff1673ffffffffffffffffffffffffffffffffffffffff1663a9059cbb84836040518363ffffffff1660e01b815260040161151f9291906120a3565b602060405180830381600087803b15801561153957600080fd5b505af115801561154d573d6000803e3d6000fd5b505050506040513d601f19601f820116820180604052508101906115719190611d31565b50611628565b600160009054906101000a900473ffffffffffffffffffffffffffffffffffffffff1673ffffffffffffffffffffffffffffffffffffffff1663a9059cbb84846040518363ffffffff1660e01b81526004016115d49291906120a3565b602060405180830381600087803b1580156115ee57600080fd5b505af1158015611602573d6000803e3d6000fd5b505050506040513d601f19601f820116820180604052508101906116269190611d31565b505b505050565b6116ae8363a9059cbb60e01b848460405160240161164c9291906120a3565b604051602081830303815290604052907bffffffffffffffffffffffffffffffffffffffffffffffffffffffff19166020820180517bffffffffffffffffffffffffffffffffffffffffffffffffffffffff8381831617835250505050611984565b505050565b60008060009054906101000a900473ffffffffffffffffffffffffffffffffffffffff169050816000806101000a81548173ffffffffffffffffffffffffffffffffffffffff021916908373ffffffffffffffffffffffffffffffffffffffff1602179055508173ffffffffffffffffffffffffffffffffffffffff168173ffffffffffffffffffffffffffffffffffffffff167f8be0079c531659141344cd1fd0a4f28419497f9722a3daafe3b4186f6b6457e060405160405180910390a35050565b6000600384815481106117b3577f4e487b7100000000000000000000000000000000000000000000000000000000600052603260045260246000fd5b9060005260206000209060040201905060006004600086815260200190815260200160002060008473ffffffffffffffffffffffffffffffffffffffff1673ffffffffffffffffffffffffffffffffffffffff168152602001908152602001600020905061182085610875565b6000808260000154111561188357611876826001015461186864e8d4a5100061185a876003015487600001546113df90919063ffffffff16565b6113f590919063ffffffff16565b6113c990919063ffffffff16565b9050611882848261140b565b5b6118d48430878660000160009054906101000a900473ffffffffffffffffffffffffffffffffffffffff1673ffffffffffffffffffffffffffffffffffffffff16611a4b909392919063ffffffff16565b6118eb8583600001546113b390919063ffffffff16565b826000018190555061192564e8d4a51000611917856003015485600001546113df90919063ffffffff16565b6113f590919063ffffffff16565b8260010181905550858473ffffffffffffffffffffffffffffffffffffffff167f90890809c654f11d6e72a28fa60149770a0d11ec6c92319d6ceb2bb0a4ea1a1587604051611974919061220e565b60405180910390a3505050505050565b60006119e6826040518060400160405280602081526020017f5361666545524332303a206c6f772d6c6576656c2063616c6c206661696c65648152508573ffffffffffffffffffffffffffffffffffffffff16611ad49092919063ffffffff16565b9050600081511115611a465780806020019051810190611a069190611d31565b611a45576040517f08c379a0000000000000000000000000000000000000000000000000000000008152600401611a3c906121ee565b60405180910390fd5b5b505050565b611ace846323b872dd60e01b858585604051602401611a6c9392919061206c565b604051602081830303815290604052907bffffffffffffffffffffffffffffffffffffffffffffffffffffffff19166020820180517bffffffffffffffffffffffffffffffffffffffffffffffffffffffff8381831617835250505050611984565b50505050565b6060611ae38484600085611aec565b90509392505050565b606082471015611b31576040517f08c379a0000000000000000000000000000000000000000000000000000000008152600401611b289061216e565b60405180910390fd5b611b3a85611c00565b611b79576040517f08c379a0000000000000000000000000000000000000000000000000000000008152600401611b70906121ae565b60405180910390fd5b6000808673ffffffffffffffffffffffffffffffffffffffff168587604051611ba2919061203a565b60006040518083038185875af1925050503d8060008114611bdf576040519150601f19603f3d011682016040523d82523d6000602084013e611be4565b606091505b5091509150611bf4828286611c23565b92505050949350505050565b6000808273ffffffffffffffffffffffffffffffffffffffff163b119050919050565b60608315611c3357829050611c83565b600083511115611c465782518084602001fd5b816040517f08c379a0000000000000000000000000000000000000000000000000000000008152600401611c7a919061212c565b60405180910390fd5b9392505050565b600081359050611c99816126c5565b92915050565b600081359050611cae816126dc565b92915050565b600081519050611cc3816126dc565b92915050565b600081359050611cd8816126f3565b92915050565b600081359050611ced8161270a565b92915050565b600081519050611d028161270a565b92915050565b600060208284031215611d1a57600080fd5b6000611d2884828501611c8a565b91505092915050565b600060208284031215611d4357600080fd5b6000611d5184828501611cb4565b91505092915050565b600060208284031215611d6c57600080fd5b6000611d7a84828501611cde565b91505092915050565b600060208284031215611d9557600080fd5b6000611da384828501611cf3565b91505092915050565b60008060408385031215611dbf57600080fd5b6000611dcd85828601611cde565b9250506020611dde85828601611c8a565b9150509250929050565b600080600060608486031215611dfd57600080fd5b6000611e0b86828701611cde565b9350506020611e1c86828701611cc9565b9250506040611e2d86828701611c9f565b9150509250925092565b60008060408385031215611e4a57600080fd5b6000611e5885828601611cde565b9250506020611e6985828601611cde565b9150509250929050565b600080600060608486031215611e8857600080fd5b6000611e9686828701611cde565b9350506020611ea786828701611cde565b9250506040611eb886828701611c9f565b9150509250925092565b611ecb816123d0565b82525050565b6000611edc82612289565b611ee6818561229f565b9350611ef6818560208601612472565b80840191505092915050565b611f0b8161242a565b82525050565b611f1a8161244e565b82525050565b6000611f2b82612294565b611f3581856122aa565b9350611f45818560208601612472565b611f4e8161254c565b840191505092915050565b6000611f666026836122aa565b9150611f718261255d565b604082019050919050565b6000611f896026836122aa565b9150611f94826125ac565b604082019050919050565b6000611fac6020836122aa565b9150611fb7826125fb565b602082019050919050565b6000611fcf601d836122aa565b9150611fda82612624565b602082019050919050565b6000611ff26012836122aa565b9150611ffd8261264d565b602082019050919050565b6000612015602a836122aa565b915061202082612676565b604082019050919050565b61203481612420565b82525050565b60006120468284611ed1565b915081905092915050565b60006020820190506120666000830184611ec2565b92915050565b60006060820190506120816000830186611ec2565b61208e6020830185611ec2565b61209b604083018461202b565b949350505050565b60006040820190506120b86000830185611ec2565b6120c5602083018461202b565b9392505050565b60006080820190506120e16000830187611f02565b6120ee602083018661202b565b6120fb604083018561202b565b612108606083018461202b565b95945050505050565b60006020820190506121266000830184611f11565b92915050565b600060208201905081810360008301526121468184611f20565b905092915050565b6000602082019050818103600083015261216781611f59565b9050919050565b6000602082019050818103600083015261218781611f7c565b9050919050565b600060208201905081810360008301526121a781611f9f565b9050919050565b600060208201905081810360008301526121c781611fc2565b9050919050565b600060208201905081810360008301526121e781611fe5565b9050919050565b6000602082019050818103600083015261220781612008565b9050919050565b6000602082019050612223600083018461202b565b92915050565b600060408201905061223e600083018561202b565b61224b602083018461202b565b9392505050565b6000606082019050612267600083018661202b565b612274602083018561202b565b612281604083018461202b565b949350505050565b600081519050919050565b600081519050919050565b600081905092915050565b600082825260208201905092915050565b60006122c682612420565b91506122d183612420565b9250827fffffffffffffffffffffffffffffffffffffffffffffffffffffffffffffffff03821115612306576123056124ee565b5b828201905092915050565b600061231c82612420565b915061232783612420565b9250826123375761233661251d565b5b828204905092915050565b600061234d82612420565b915061235883612420565b9250817fffffffffffffffffffffffffffffffffffffffffffffffffffffffffffffffff0483118215151615612391576123906124ee565b5b828202905092915050565b60006123a782612420565b91506123b283612420565b9250828210156123c5576123c46124ee565b5b828203905092915050565b60006123db82612400565b9050919050565b60008115159050919050565b60006123f9826123d0565b9050919050565b600073ffffffffffffffffffffffffffffffffffffffff82169050919050565b6000819050919050565b60006124358261243c565b9050919050565b600061244782612400565b9050919050565b600061245982612460565b9050919050565b600061246b82612400565b9050919050565b60005b83811015612490578082015181840152602081019050612475565b8381111561249f576000848401525b50505050565b60006124b082612420565b91507fffffffffffffffffffffffffffffffffffffffffffffffffffffffffffffffff8214156124e3576124e26124ee565b5b600182019050919050565b7f4e487b7100000000000000000000000000000000000000000000000000000000600052601160045260246000fd5b7f4e487b7100000000000000000000000000000000000000000000000000000000600052601260045260246000fd5b6000601f19601f8301169050919050565b7f4f776e61626c653a206e6577206f776e657220697320746865207a65726f206160008201527f6464726573730000000000000000000000000000000000000000000000000000602082015250565b7f416464726573733a20696e73756666696369656e742062616c616e636520666f60008201527f722063616c6c0000000000000000000000000000000000000000000000000000602082015250565b7f4f776e61626c653a2063616c6c6572206973206e6f7420746865206f776e6572600082015250565b7f416464726573733a2063616c6c20746f206e6f6e2d636f6e7472616374000000600082015250565b7f77697468647261773a206e6f7420676f6f640000000000000000000000000000600082015250565b7f5361666545524332303a204552433230206f7065726174696f6e20646964206e60008201527f6f74207375636365656400000000000000000000000000000000000000000000602082015250565b6126ce816123d0565b81146126d957600080fd5b50565b6126e5816123e2565b81146126f057600080fd5b50565b6126fc816123ee565b811461270757600080fd5b50565b61271381612420565b811461271e57600080fd5b5056fea2646970667358221220e0c008d0c799f48fa18572c1d2fe7e4cb16c1ef0c2a5900a071f343ddb3895ac64736f6c63430008040033",
  "linkReferences": {},
  "deployedLinkReferences": {}
}