{
  "_format": "hh-sol-artifact-1",
  "contractName": "KaidexMasterChef",
  "sourceName": "contracts/farming/KaidexMasterChef.sol",
  "abi": [
    {
      "inputs": [
        {
          "internalType": "contract KaiDexToken",
          "name": "_kdx",
          "type": "address"
        },
        {
          "internalType": "address",
          "name": "_devaddr",
          "type": "address"
        },
        {
          "internalType": "uint256",
          "name": "_kdxPerBlock",
          "type": "uint256"
        },
        {
          "internalType": "uint256",
          "name": "_startBlock",
          "type": "uint256"
        },
        {
          "internalType": "uint256",
          "name": "_bonusEndBlock",
          "type": "uint256"
        }
      ],
      "stateMutability": "nonpayable",
      "type": "constructor"
    },
    {
      "anonymous": false,
      "inputs": [
        {
          "indexed": true,
          "internalType": "address",
          "name": "user",
          "type": "address"
        },
        {
          "indexed": true,
          "internalType": "uint256",
          "name": "pid",
          "type": "uint256"
        },
        {
          "indexed": false,
          "internalType": "uint256",
          "name": "amount",
          "type": "uint256"
        }
      ],
      "name": "Deposit",
      "type": "event"
    },
    {
      "anonymous": false,
      "inputs": [
        {
          "indexed": true,
          "internalType": "address",
          "name": "user",
          "type": "address"
        },
        {
          "indexed": true,
          "internalType": "uint256",
          "name": "pid",
          "type": "uint256"
        },
        {
          "indexed": false,
          "internalType": "uint256",
          "name": "amount",
          "type": "uint256"
        }
      ],
      "name": "EmergencyWithdraw",
      "type": "event"
    },
    {
      "anonymous": false,
      "inputs": [
        {
          "indexed": true,
          "internalType": "address",
          "name": "previousOwner",
          "type": "address"
        },
        {
          "indexed": true,
          "internalType": "address",
          "name": "newOwner",
          "type": "address"
        }
      ],
      "name": "OwnershipTransferred",
      "type": "event"
    },
    {
      "anonymous": false,
      "inputs": [
        {
          "indexed": true,
          "internalType": "address",
          "name": "user",
          "type": "address"
        },
        {
          "indexed": true,
          "internalType": "uint256",
          "name": "pid",
          "type": "uint256"
        },
        {
          "indexed": false,
          "internalType": "uint256",
          "name": "amount",
          "type": "uint256"
        }
      ],
      "name": "Withdraw",
      "type": "event"
    },
    {
      "inputs": [],
      "name": "BONUS_MULTIPLIER",
      "outputs": [
        {
          "internalType": "uint256",
          "name": "",
          "type": "uint256"
        }
      ],
      "stateMutability": "view",
      "type": "function"
    },
    {
      "inputs": [
        {
          "internalType": "uint256",
          "name": "_allocPoint",
          "type": "uint256"
        },
        {
          "internalType": "contract IERC20",
          "name": "_lpToken",
          "type": "address"
        },
        {
          "internalType": "bool",
          "name": "_withUpdate",
          "type": "bool"
        }
      ],
      "name": "add",
      "outputs": [],
      "stateMutability": "nonpayable",
      "type": "function"
    },
    {
      "inputs": [],
      "name": "bonusEndBlock",
      "outputs": [
        {
          "internalType": "uint256",
          "name": "",
          "type": "uint256"
        }
      ],
      "stateMutability": "view",
      "type": "function"
    },
    {
      "inputs": [
        {
          "internalType": "uint256",
          "name": "_pid",
          "type": "uint256"
        },
        {
          "internalType": "uint256",
          "name": "_amount",
          "type": "uint256"
        }
      ],
      "name": "deposit",
      "outputs": [],
      "stateMutability": "nonpayable",
      "type": "function"
    },
    {
      "inputs": [
        {
          "internalType": "address",
          "name": "_devaddr",
          "type": "address"
        }
      ],
      "name": "dev",
      "outputs": [],
      "stateMutability": "nonpayable",
      "type": "function"
    },
    {
      "inputs": [],
      "name": "devaddr",
      "outputs": [
        {
          "internalType": "address",
          "name": "",
          "type": "address"
        }
      ],
      "stateMutability": "view",
      "type": "function"
    },
    {
      "inputs": [
        {
          "internalType": "uint256",
          "name": "_pid",
          "type": "uint256"
        }
      ],
      "name": "emergencyWithdraw",
      "outputs": [],
      "stateMutability": "nonpayable",
      "type": "function"
    },
    {
      "inputs": [
        {
          "internalType": "uint256",
          "name": "_from",
          "type": "uint256"
        },
        {
          "internalType": "uint256",
          "name": "_to",
          "type": "uint256"
        }
      ],
      "name": "getMultiplier",
      "outputs": [
        {
          "internalType": "uint256",
          "name": "",
          "type": "uint256"
        }
      ],
      "stateMutability": "view",
      "type": "function"
    },
    {
      "inputs": [],
      "name": "kdx",
      "outputs": [
        {
          "internalType": "contract KaiDexToken",
          "name": "",
          "type": "address"
        }
      ],
      "stateMutability": "view",
      "type": "function"
    },
    {
      "inputs": [],
      "name": "kdxPerBlock",
      "outputs": [
        {
          "internalType": "uint256",
          "name": "",
          "type": "uint256"
        }
      ],
      "stateMutability": "view",
      "type": "function"
    },
    {
      "inputs": [],
      "name": "massUpdatePools",
      "outputs": [],
      "stateMutability": "nonpayable",
      "type": "function"
    },
    {
      "inputs": [
        {
          "internalType": "uint256",
          "name": "_pid",
          "type": "uint256"
        }
      ],
      "name": "migrate",
      "outputs": [],
      "stateMutability": "nonpayable",
      "type": "function"
    },
    {
      "inputs": [],
      "name": "migrator",
      "outputs": [
        {
          "internalType": "contract IMigratorChef",
          "name": "",
          "type": "address"
        }
      ],
      "stateMutability": "view",
      "type": "function"
    },
    {
      "inputs": [],
      "name": "owner",
      "outputs": [
        {
          "internalType": "address",
          "name": "",
          "type": "address"
        }
      ],
      "stateMutability": "view",
      "type": "function"
    },
    {
      "inputs": [
        {
          "internalType": "uint256",
          "name": "_pid",
          "type": "uint256"
        },
        {
          "internalType": "address",
          "name": "_user",
          "type": "address"
        }
      ],
      "name": "pendingKDX",
      "outputs": [
        {
          "internalType": "uint256",
          "name": "",
          "type": "uint256"
        }
      ],
      "stateMutability": "view",
      "type": "function"
    },
    {
      "inputs": [
        {
          "internalType": "uint256",
          "name": "",
          "type": "uint256"
        }
      ],
      "name": "poolInfo",
      "outputs": [
        {
          "internalType": "contract IERC20",
          "name": "lpToken",
          "type": "address"
        },
        {
          "internalType": "uint256",
          "name": "allocPoint",
          "type": "uint256"
        },
        {
          "internalType": "uint256",
          "name": "lastRewardBlock",
          "type": "uint256"
        },
        {
          "internalType": "uint256",
          "name": "accKDXPerShare",
          "type": "uint256"
        }
      ],
      "stateMutability": "view",
      "type": "function"
    },
    {
      "inputs": [],
      "name": "poolLength",
      "outputs": [
        {
          "internalType": "uint256",
          "name": "",
          "type": "uint256"
        }
      ],
      "stateMutability": "view",
      "type": "function"
    },
    {
      "inputs": [],
      "name": "renounceOwnership",
      "outputs": [],
      "stateMutability": "nonpayable",
      "type": "function"
    },
    {
      "inputs": [
        {
          "internalType": "uint256",
          "name": "_pid",
          "type": "uint256"
        },
        {
          "internalType": "uint256",
          "name": "_allocPoint",
          "type": "uint256"
        },
        {
          "internalType": "bool",
          "name": "_withUpdate",
          "type": "bool"
        }
      ],
      "name": "set",
      "outputs": [],
      "stateMutability": "nonpayable",
      "type": "function"
    },
    {
      "inputs": [
        {
          "internalType": "contract IMigratorChef",
          "name": "_migrator",
          "type": "address"
        }
      ],
      "name": "setMigrator",
      "outputs": [],
      "stateMutability": "nonpayable",
      "type": "function"
    },
    {
      "inputs": [],
      "name": "startBlock",
      "outputs": [
        {
          "internalType": "uint256",
          "name": "",
          "type": "uint256"
        }
      ],
      "stateMutability": "view",
      "type": "function"
    },
    {
      "inputs": [],
      "name": "totalAllocPoint",
      "outputs": [
        {
          "internalType": "uint256",
          "name": "",
          "type": "uint256"
        }
      ],
      "stateMutability": "view",
      "type": "function"
    },
    {
      "inputs": [
        {
          "internalType": "address",
          "name": "newOwner",
          "type": "address"
        }
      ],
      "name": "transferOwnership",
      "outputs": [],
      "stateMutability": "nonpayable",
      "type": "function"
    },
    {
      "inputs": [
        {
          "internalType": "uint256",
          "name": "_pid",
          "type": "uint256"
        }
      ],
      "name": "updatePool",
      "outputs": [],
      "stateMutability": "nonpayable",
      "type": "function"
    },
    {
      "inputs": [
        {
          "internalType": "uint256",
          "name": "",
          "type": "uint256"
        },
        {
          "internalType": "address",
          "name": "",
          "type": "address"
        }
      ],
      "name": "userInfo",
      "outputs": [
        {
          "internalType": "uint256",
          "name": "amount",
          "type": "uint256"
        },
        {
          "internalType": "uint256",
          "name": "rewardDebt",
          "type": "uint256"
        }
      ],
      "stateMutability": "view",
      "type": "function"
    },
    {
      "inputs": [
        {
          "internalType": "uint256",
          "name": "_pid",
          "type": "uint256"
        },
        {
          "internalType": "uint256",
          "name": "_amount",
          "type": "uint256"
        }
      ],
      "name": "withdraw",
      "outputs": [],
      "stateMutability": "nonpayable",
      "type": "function"
    }
  ],
  "bytecode": "0x608060405260006008553480156200001657600080fd5b50604051620034cf380380620034cf83398181016040528101906200003c91906200020f565b6200005c62000050620000fe60201b60201c565b6200010660201b60201c565b84600160006101000a81548173ffffffffffffffffffffffffffffffffffffffff021916908373ffffffffffffffffffffffffffffffffffffffff16021790555083600260006101000a81548173ffffffffffffffffffffffffffffffffffffffff021916908373ffffffffffffffffffffffffffffffffffffffff160217905550826004819055508160098190555080600381905550505050505062000331565b600033905090565b60008060009054906101000a900473ffffffffffffffffffffffffffffffffffffffff169050816000806101000a81548173ffffffffffffffffffffffffffffffffffffffff021916908373ffffffffffffffffffffffffffffffffffffffff1602179055508173ffffffffffffffffffffffffffffffffffffffff168173ffffffffffffffffffffffffffffffffffffffff167f8be0079c531659141344cd1fd0a4f28419497f9722a3daafe3b4186f6b6457e060405160405180910390a35050565b600081519050620001db81620002e3565b92915050565b600081519050620001f281620002fd565b92915050565b600081519050620002098162000317565b92915050565b600080600080600060a086880312156200022857600080fd5b60006200023888828901620001e1565b95505060206200024b88828901620001ca565b94505060406200025e88828901620001f8565b93505060606200027188828901620001f8565b92505060806200028488828901620001f8565b9150509295509295909350565b60006200029e82620002b9565b9050919050565b6000620002b28262000291565b9050919050565b600073ffffffffffffffffffffffffffffffffffffffff82169050919050565b6000819050919050565b620002ee8162000291565b8114620002fa57600080fd5b50565b6200030881620002a5565b81146200031457600080fd5b50565b6200032281620002d9565b81146200032e57600080fd5b50565b61318e80620003416000396000f3fe608060405234801561001057600080fd5b506004361061018e5760003560e01c8063662b5fbe116100de5780638dbb1e3a11610097578063dadf214411610071578063dadf214414610429578063dae4781814610459578063e2bbb15814610477578063f2fde38b146104935761018e565b80638dbb1e3a146103aa57806393f1a40b146103da578063d49e77cd1461040b5761018e565b8063662b5fbe1461030c578063715018a61461032a5780637cd07e47146103345780638aa28550146103525780638d88a90e146103705780638da5cb5b1461038c5761018e565b8063441a3e701161014b57806351eb05a61161012557806351eb05a6146102ae5780635312ea8e146102ca578063630b5ba1146102e657806364482f79146102f05761018e565b8063441a3e7014610258578063454b06081461027457806348cd4cb1146102905761018e565b8063081e3eda146101935780631526fe27146101b157806317caf6f1146101e45780631aed6553146102025780631eaaa0451461022057806323cf31181461023c575b600080fd5b61019b6104af565b6040516101a89190612b65565b60405180910390f35b6101cb60048036038101906101c69190612537565b6104bc565b6040516101db9493929190612988565b60405180910390f35b6101ec61051c565b6040516101f99190612b65565b60405180910390f35b61020a610522565b6040516102179190612b65565b60405180910390f35b61023a600480360381019061023591906125c5565b610528565b005b6102566004803603810190610251919061250e565b6106b5565b005b610272600480360381019061026d9190612614565b610775565b005b61028e60048036038101906102899190612537565b6109b9565b005b610298610d5f565b6040516102a59190612b65565b60405180910390f35b6102c860048036038101906102c39190612537565b610d65565b005b6102e460048036038101906102df9190612537565b61108d565b005b6102ee6111ec565b005b61030a60048036038101906103059190612650565b61121f565b005b610314611377565b6040516103219190612b65565b60405180910390f35b61033261137d565b005b61033c611405565b60405161034991906129cd565b60405180910390f35b61035a61142b565b6040516103679190612b65565b60405180910390f35b61038a60048036038101906103859190612493565b611430565b005b610394611504565b6040516103a191906128c9565b60405180910390f35b6103c460048036038101906103bf9190612614565b61152d565b6040516103d19190612b65565b60405180910390f35b6103f460048036038101906103ef9190612589565b6115df565b604051610402929190612b80565b60405180910390f35b610413611610565b60405161042091906128c9565b60405180910390f35b610443600480360381019061043e9190612589565b611636565b6040516104509190612b65565b60405180910390f35b610461611890565b60405161046e91906129e8565b60405180910390f35b610491600480360381019061048c9190612614565b6118b6565b005b6104ad60048036038101906104a89190612493565b611ac3565b005b6000600680549050905090565b600681815481106104cc57600080fd5b90600052602060002090600402016000915090508060000160009054906101000a900473ffffffffffffffffffffffffffffffffffffffff16908060010154908060020154908060030154905084565b60085481565b60035481565b610530611bbb565b73ffffffffffffffffffffffffffffffffffffffff1661054e611504565b73ffffffffffffffffffffffffffffffffffffffff16146105a4576040517f08c379a000000000000000000000000000000000000000000000000000000000815260040161059b90612a85565b60405180910390fd5b80156105b3576105b26111ec565b5b600060095443116105c6576009546105c8565b435b90506105df84600854611bc390919063ffffffff16565b600881905550600660405180608001604052808573ffffffffffffffffffffffffffffffffffffffff1681526020018681526020018381526020016000815250908060018154018082558091505060019003906000526020600020906004020160009091909190915060008201518160000160006101000a81548173ffffffffffffffffffffffffffffffffffffffff021916908373ffffffffffffffffffffffffffffffffffffffff160217905550602082015181600101556040820151816002015560608201518160030155505050505050565b6106bd611bbb565b73ffffffffffffffffffffffffffffffffffffffff166106db611504565b73ffffffffffffffffffffffffffffffffffffffff1614610731576040517f08c379a000000000000000000000000000000000000000000000000000000000815260040161072890612a85565b60405180910390fd5b80600560006101000a81548173ffffffffffffffffffffffffffffffffffffffff021916908373ffffffffffffffffffffffffffffffffffffffff16021790555050565b6000600683815481106107b1577f4e487b7100000000000000000000000000000000000000000000000000000000600052603260045260246000fd5b9060005260206000209060040201905060006007600085815260200190815260200160002060003373ffffffffffffffffffffffffffffffffffffffff1673ffffffffffffffffffffffffffffffffffffffff1681526020019081526020016000209050828160000154101561085c576040517f08c379a000000000000000000000000000000000000000000000000000000000815260040161085390612ac5565b60405180910390fd5b61086584610d65565b60006108af82600101546108a164e8d4a5100061089387600301548760000154611bd990919063ffffffff16565b611bef90919063ffffffff16565b611c0590919063ffffffff16565b90506108bb3382611c1b565b6108d2848360000154611c0590919063ffffffff16565b826000018190555061090c64e8d4a510006108fe85600301548560000154611bd990919063ffffffff16565b611bef90919063ffffffff16565b826001018190555061096333858560000160009054906101000a900473ffffffffffffffffffffffffffffffffffffffff1673ffffffffffffffffffffffffffffffffffffffff16611e3d9092919063ffffffff16565b843373ffffffffffffffffffffffffffffffffffffffff167ff279e6a1f5e320cca91135676d9cb6e44ca8a08c0b88342bcdb1144f6511b568866040516109aa9190612b65565b60405180910390a35050505050565b600073ffffffffffffffffffffffffffffffffffffffff16600560009054906101000a900473ffffffffffffffffffffffffffffffffffffffff1673ffffffffffffffffffffffffffffffffffffffff161415610a4b576040517f08c379a0000000000000000000000000000000000000000000000000000000008152600401610a4290612b45565b60405180910390fd5b600060068281548110610a87577f4e487b7100000000000000000000000000000000000000000000000000000000600052603260045260246000fd5b9060005260206000209060040201905060008160000160009054906101000a900473ffffffffffffffffffffffffffffffffffffffff16905060008173ffffffffffffffffffffffffffffffffffffffff166370a08231306040518263ffffffff1660e01b8152600401610afb91906128c9565b60206040518083038186803b158015610b1357600080fd5b505afa158015610b27573d6000803e3d6000fd5b505050506040513d601f19601f82011682018060405250810190610b4b9190612560565b9050610b9a600560009054906101000a900473ffffffffffffffffffffffffffffffffffffffff16828473ffffffffffffffffffffffffffffffffffffffff16611ec39092919063ffffffff16565b6000600560009054906101000a900473ffffffffffffffffffffffffffffffffffffffff1673ffffffffffffffffffffffffffffffffffffffff1663ce5494bb846040518263ffffffff1660e01b8152600401610bf7919061296d565b602060405180830381600087803b158015610c1157600080fd5b505af1158015610c25573d6000803e3d6000fd5b505050506040513d601f19601f82011682018060405250810190610c4991906124e5565b90508073ffffffffffffffffffffffffffffffffffffffff166370a08231306040518263ffffffff1660e01b8152600401610c8491906128c9565b60206040518083038186803b158015610c9c57600080fd5b505afa158015610cb0573d6000803e3d6000fd5b505050506040513d601f19601f82011682018060405250810190610cd49190612560565b8214610d15576040517f08c379a0000000000000000000000000000000000000000000000000000000008152600401610d0c90612b05565b60405180910390fd5b808460000160006101000a81548173ffffffffffffffffffffffffffffffffffffffff021916908373ffffffffffffffffffffffffffffffffffffffff1602179055505050505050565b60095481565b600060068281548110610da1577f4e487b7100000000000000000000000000000000000000000000000000000000600052603260045260246000fd5b9060005260206000209060040201905080600201544311610dc2575061108a565b60008160000160009054906101000a900473ffffffffffffffffffffffffffffffffffffffff1673ffffffffffffffffffffffffffffffffffffffff166370a08231306040518263ffffffff1660e01b8152600401610e2191906128c9565b60206040518083038186803b158015610e3957600080fd5b505afa158015610e4d573d6000803e3d6000fd5b505050506040513d601f19601f82011682018060405250810190610e719190612560565b90506000811415610e8c57438260020181905550505061108a565b6000610e9c83600201544361152d565b90506000610edf600854610ed18660010154610ec360045487611bd990919063ffffffff16565b611bd990919063ffffffff16565b611bef90919063ffffffff16565b9050600160009054906101000a900473ffffffffffffffffffffffffffffffffffffffff1673ffffffffffffffffffffffffffffffffffffffff166340c10f19600260009054906101000a900473ffffffffffffffffffffffffffffffffffffffff16610f56600a85611bef90919063ffffffff16565b6040518363ffffffff1660e01b8152600401610f73929190612944565b600060405180830381600087803b158015610f8d57600080fd5b505af1158015610fa1573d6000803e3d6000fd5b50505050600160009054906101000a900473ffffffffffffffffffffffffffffffffffffffff1673ffffffffffffffffffffffffffffffffffffffff166340c10f1930836040518363ffffffff1660e01b8152600401611002929190612944565b600060405180830381600087803b15801561101c57600080fd5b505af1158015611030573d6000803e3d6000fd5b505050506110746110618461105364e8d4a5100085611bd990919063ffffffff16565b611bef90919063ffffffff16565b8560030154611bc390919063ffffffff16565b8460030181905550438460020181905550505050505b50565b6000600682815481106110c9577f4e487b7100000000000000000000000000000000000000000000000000000000600052603260045260246000fd5b9060005260206000209060040201905060006007600084815260200190815260200160002060003373ffffffffffffffffffffffffffffffffffffffff1673ffffffffffffffffffffffffffffffffffffffff16815260200190815260200160002090506111803382600001548460000160009054906101000a900473ffffffffffffffffffffffffffffffffffffffff1673ffffffffffffffffffffffffffffffffffffffff16611e3d9092919063ffffffff16565b823373ffffffffffffffffffffffffffffffffffffffff167fbb757047c2b5f3974fe26b7c10f732e7bce710b0952a71082702781e62ae059583600001546040516111cb9190612b65565b60405180910390a36000816000018190555060008160010181905550505050565b6000600680549050905060005b8181101561121b5761120a81610d65565b8061121490612dfb565b90506111f9565b5050565b611227611bbb565b73ffffffffffffffffffffffffffffffffffffffff16611245611504565b73ffffffffffffffffffffffffffffffffffffffff161461129b576040517f08c379a000000000000000000000000000000000000000000000000000000000815260040161129290612a85565b60405180910390fd5b80156112aa576112a96111ec565b5b61131c8261130e600686815481106112eb577f4e487b7100000000000000000000000000000000000000000000000000000000600052603260045260246000fd5b906000526020600020906004020160010154600854611c0590919063ffffffff16565b611bc390919063ffffffff16565b600881905550816006848154811061135d577f4e487b7100000000000000000000000000000000000000000000000000000000600052603260045260246000fd5b906000526020600020906004020160010181905550505050565b60045481565b611385611bbb565b73ffffffffffffffffffffffffffffffffffffffff166113a3611504565b73ffffffffffffffffffffffffffffffffffffffff16146113f9576040517f08c379a00000000000000000000000000000000000000000000000000000000081526004016113f090612a85565b60405180910390fd5b6114036000612021565b565b600560009054906101000a900473ffffffffffffffffffffffffffffffffffffffff1681565b600a81565b600260009054906101000a900473ffffffffffffffffffffffffffffffffffffffff1673ffffffffffffffffffffffffffffffffffffffff163373ffffffffffffffffffffffffffffffffffffffff16146114c0576040517f08c379a00000000000000000000000000000000000000000000000000000000081526004016114b790612a65565b60405180910390fd5b80600260006101000a81548173ffffffffffffffffffffffffffffffffffffffff021916908373ffffffffffffffffffffffffffffffffffffffff16021790555050565b60008060009054906101000a900473ffffffffffffffffffffffffffffffffffffffff16905090565b600060035482116115655761155e600a6115508585611c0590919063ffffffff16565b611bd990919063ffffffff16565b90506115d9565b6003548310611588576115818383611c0590919063ffffffff16565b90506115d9565b6115d66115a060035484611c0590919063ffffffff16565b6115c8600a6115ba87600354611c0590919063ffffffff16565b611bd990919063ffffffff16565b611bc390919063ffffffff16565b90505b92915050565b6007602052816000526040600020602052806000526040600020600091509150508060000154908060010154905082565b600260009054906101000a900473ffffffffffffffffffffffffffffffffffffffff1681565b60008060068481548110611673577f4e487b7100000000000000000000000000000000000000000000000000000000600052603260045260246000fd5b9060005260206000209060040201905060006007600086815260200190815260200160002060008573ffffffffffffffffffffffffffffffffffffffff1673ffffffffffffffffffffffffffffffffffffffff168152602001908152602001600020905060008260030154905060008360000160009054906101000a900473ffffffffffffffffffffffffffffffffffffffff1673ffffffffffffffffffffffffffffffffffffffff166370a08231306040518263ffffffff1660e01b815260040161173f91906128c9565b60206040518083038186803b15801561175757600080fd5b505afa15801561176b573d6000803e3d6000fd5b505050506040513d601f19601f8201168201806040525081019061178f9190612560565b90508360020154431180156117a5575060008114155b156118405760006117ba85600201544361152d565b905060006117fd6008546117ef88600101546117e160045487611bd990919063ffffffff16565b611bd990919063ffffffff16565b611bef90919063ffffffff16565b905061183b61182c8461181e64e8d4a5100085611bd990919063ffffffff16565b611bef90919063ffffffff16565b85611bc390919063ffffffff16565b935050505b611884836001015461187664e8d4a51000611868868860000154611bd990919063ffffffff16565b611bef90919063ffffffff16565b611c0590919063ffffffff16565b94505050505092915050565b600160009054906101000a900473ffffffffffffffffffffffffffffffffffffffff1681565b6000600683815481106118f2577f4e487b7100000000000000000000000000000000000000000000000000000000600052603260045260246000fd5b9060005260206000209060040201905060006007600085815260200190815260200160002060003373ffffffffffffffffffffffffffffffffffffffff1673ffffffffffffffffffffffffffffffffffffffff168152602001908152602001600020905061195f84610d65565b6000816000015411156119c45760006119b682600101546119a864e8d4a5100061199a87600301548760000154611bd990919063ffffffff16565b611bef90919063ffffffff16565b611c0590919063ffffffff16565b90506119c23382611c1b565b505b611a153330858560000160009054906101000a900473ffffffffffffffffffffffffffffffffffffffff1673ffffffffffffffffffffffffffffffffffffffff166120e5909392919063ffffffff16565b611a2c838260000154611bc390919063ffffffff16565b8160000181905550611a6664e8d4a51000611a5884600301548460000154611bd990919063ffffffff16565b611bef90919063ffffffff16565b8160010181905550833373ffffffffffffffffffffffffffffffffffffffff167f90890809c654f11d6e72a28fa60149770a0d11ec6c92319d6ceb2bb0a4ea1a1585604051611ab59190612b65565b60405180910390a350505050565b611acb611bbb565b73ffffffffffffffffffffffffffffffffffffffff16611ae9611504565b73ffffffffffffffffffffffffffffffffffffffff1614611b3f576040517f08c379a0000000000000000000000000000000000000000000000000000000008152600401611b3690612a85565b60405180910390fd5b600073ffffffffffffffffffffffffffffffffffffffff168173ffffffffffffffffffffffffffffffffffffffff161415611baf576040517f08c379a0000000000000000000000000000000000000000000000000000000008152600401611ba690612a25565b60405180910390fd5b611bb881612021565b50565b600033905090565b60008183611bd19190612bdb565b905092915050565b60008183611be79190612c62565b905092915050565b60008183611bfd9190612c31565b905092915050565b60008183611c139190612cbc565b905092915050565b6000600160009054906101000a900473ffffffffffffffffffffffffffffffffffffffff1673ffffffffffffffffffffffffffffffffffffffff166370a08231306040518263ffffffff1660e01b8152600401611c7891906128c9565b60206040518083038186803b158015611c9057600080fd5b505afa158015611ca4573d6000803e3d6000fd5b505050506040513d601f19601f82011682018060405250810190611cc89190612560565b905080821115611d8757600160009054906101000a900473ffffffffffffffffffffffffffffffffffffffff1673ffffffffffffffffffffffffffffffffffffffff1663a9059cbb84836040518363ffffffff1660e01b8152600401611d2f929190612944565b602060405180830381600087803b158015611d4957600080fd5b505af1158015611d5d573d6000803e3d6000fd5b505050506040513d601f19601f82011682018060405250810190611d8191906124bc565b50611e38565b600160009054906101000a900473ffffffffffffffffffffffffffffffffffffffff1673ffffffffffffffffffffffffffffffffffffffff1663a9059cbb84846040518363ffffffff1660e01b8152600401611de4929190612944565b602060405180830381600087803b158015611dfe57600080fd5b505af1158015611e12573d6000803e3d6000fd5b505050506040513d601f19601f82011682018060405250810190611e3691906124bc565b505b505050565b611ebe8363a9059cbb60e01b8484604051602401611e5c929190612944565b604051602081830303815290604052907bffffffffffffffffffffffffffffffffffffffffffffffffffffffff19166020820180517bffffffffffffffffffffffffffffffffffffffffffffffffffffffff838183161783525050505061216e565b505050565b6000811480611f5c575060008373ffffffffffffffffffffffffffffffffffffffff1663dd62ed3e30856040518363ffffffff1660e01b8152600401611f0a9291906128e4565b60206040518083038186803b158015611f2257600080fd5b505afa158015611f36573d6000803e3d6000fd5b505050506040513d601f19601f82011682018060405250810190611f5a9190612560565b145b611f9b576040517f08c379a0000000000000000000000000000000000000000000000000000000008152600401611f9290612b25565b60405180910390fd5b61201c8363095ea7b360e01b8484604051602401611fba929190612944565b604051602081830303815290604052907bffffffffffffffffffffffffffffffffffffffffffffffffffffffff19166020820180517bffffffffffffffffffffffffffffffffffffffffffffffffffffffff838183161783525050505061216e565b505050565b60008060009054906101000a900473ffffffffffffffffffffffffffffffffffffffff169050816000806101000a81548173ffffffffffffffffffffffffffffffffffffffff021916908373ffffffffffffffffffffffffffffffffffffffff1602179055508173ffffffffffffffffffffffffffffffffffffffff168173ffffffffffffffffffffffffffffffffffffffff167f8be0079c531659141344cd1fd0a4f28419497f9722a3daafe3b4186f6b6457e060405160405180910390a35050565b612168846323b872dd60e01b8585856040516024016121069392919061290d565b604051602081830303815290604052907bffffffffffffffffffffffffffffffffffffffffffffffffffffffff19166020820180517bffffffffffffffffffffffffffffffffffffffffffffffffffffffff838183161783525050505061216e565b50505050565b60006121d0826040518060400160405280602081526020017f5361666545524332303a206c6f772d6c6576656c2063616c6c206661696c65648152508573ffffffffffffffffffffffffffffffffffffffff166122359092919063ffffffff16565b905060008151111561223057808060200190518101906121f091906124bc565b61222f576040517f08c379a000000000000000000000000000000000000000000000000000000000815260040161222690612ae5565b60405180910390fd5b5b505050565b6060612244848460008561224d565b90509392505050565b606082471015612292576040517f08c379a000000000000000000000000000000000000000000000000000000000815260040161228990612a45565b60405180910390fd5b61229b85612361565b6122da576040517f08c379a00000000000000000000000000000000000000000000000000000000081526004016122d190612aa5565b60405180910390fd5b6000808673ffffffffffffffffffffffffffffffffffffffff16858760405161230391906128b2565b60006040518083038185875af1925050503d8060008114612340576040519150601f19603f3d011682016040523d82523d6000602084013e612345565b606091505b5091509150612355828286612384565b92505050949350505050565b6000808273ffffffffffffffffffffffffffffffffffffffff163b119050919050565b60608315612394578290506123e4565b6000835111156123a75782518084602001fd5b816040517f08c379a00000000000000000000000000000000000000000000000000000000081526004016123db9190612a03565b60405180910390fd5b9392505050565b6000813590506123fa816130e5565b92915050565b60008135905061240f816130fc565b92915050565b600081519050612424816130fc565b92915050565b60008135905061243981613113565b92915050565b60008151905061244e81613113565b92915050565b6000813590506124638161312a565b92915050565b60008135905061247881613141565b92915050565b60008151905061248d81613141565b92915050565b6000602082840312156124a557600080fd5b60006124b3848285016123eb565b91505092915050565b6000602082840312156124ce57600080fd5b60006124dc84828501612415565b91505092915050565b6000602082840312156124f757600080fd5b60006125058482850161243f565b91505092915050565b60006020828403121561252057600080fd5b600061252e84828501612454565b91505092915050565b60006020828403121561254957600080fd5b600061255784828501612469565b91505092915050565b60006020828403121561257257600080fd5b60006125808482850161247e565b91505092915050565b6000806040838503121561259c57600080fd5b60006125aa85828601612469565b92505060206125bb858286016123eb565b9150509250929050565b6000806000606084860312156125da57600080fd5b60006125e886828701612469565b93505060206125f98682870161242a565b925050604061260a86828701612400565b9150509250925092565b6000806040838503121561262757600080fd5b600061263585828601612469565b925050602061264685828601612469565b9150509250929050565b60008060006060848603121561266557600080fd5b600061267386828701612469565b935050602061268486828701612469565b925050604061269586828701612400565b9150509250925092565b6126a881612cf0565b82525050565b60006126b982612ba9565b6126c38185612bbf565b93506126d3818560208601612dc8565b80840191505092915050565b6126e881612d5c565b82525050565b6126f781612d80565b82525050565b61270681612da4565b82525050565b600061271782612bb4565b6127218185612bca565b9350612731818560208601612dc8565b61273a81612ea2565b840191505092915050565b6000612752602683612bca565b915061275d82612eb3565b604082019050919050565b6000612775602683612bca565b915061278082612f02565b604082019050919050565b6000612798600983612bca565b91506127a382612f51565b602082019050919050565b60006127bb602083612bca565b91506127c682612f7a565b602082019050919050565b60006127de601d83612bca565b91506127e982612fa3565b602082019050919050565b6000612801601283612bca565b915061280c82612fcc565b602082019050919050565b6000612824602a83612bca565b915061282f82612ff5565b604082019050919050565b6000612847600c83612bca565b915061285282613044565b602082019050919050565b600061286a603683612bca565b91506128758261306d565b604082019050919050565b600061288d601483612bca565b9150612898826130bc565b602082019050919050565b6128ac81612d52565b82525050565b60006128be82846126ae565b915081905092915050565b60006020820190506128de600083018461269f565b92915050565b60006040820190506128f9600083018561269f565b612906602083018461269f565b9392505050565b6000606082019050612922600083018661269f565b61292f602083018561269f565b61293c60408301846128a3565b949350505050565b6000604082019050612959600083018561269f565b61296660208301846128a3565b9392505050565b600060208201905061298260008301846126df565b92915050565b600060808201905061299d60008301876126df565b6129aa60208301866128a3565b6129b760408301856128a3565b6129c460608301846128a3565b95945050505050565b60006020820190506129e260008301846126ee565b92915050565b60006020820190506129fd60008301846126fd565b92915050565b60006020820190508181036000830152612a1d818461270c565b905092915050565b60006020820190508181036000830152612a3e81612745565b9050919050565b60006020820190508181036000830152612a5e81612768565b9050919050565b60006020820190508181036000830152612a7e8161278b565b9050919050565b60006020820190508181036000830152612a9e816127ae565b9050919050565b60006020820190508181036000830152612abe816127d1565b9050919050565b60006020820190508181036000830152612ade816127f4565b9050919050565b60006020820190508181036000830152612afe81612817565b9050919050565b60006020820190508181036000830152612b1e8161283a565b9050919050565b60006020820190508181036000830152612b3e8161285d565b9050919050565b60006020820190508181036000830152612b5e81612880565b9050919050565b6000602082019050612b7a60008301846128a3565b92915050565b6000604082019050612b9560008301856128a3565b612ba260208301846128a3565b9392505050565b600081519050919050565b600081519050919050565b600081905092915050565b600082825260208201905092915050565b6000612be682612d52565b9150612bf183612d52565b9250827fffffffffffffffffffffffffffffffffffffffffffffffffffffffffffffffff03821115612c2657612c25612e44565b5b828201905092915050565b6000612c3c82612d52565b9150612c4783612d52565b925082612c5757612c56612e73565b5b828204905092915050565b6000612c6d82612d52565b9150612c7883612d52565b9250817fffffffffffffffffffffffffffffffffffffffffffffffffffffffffffffffff0483118215151615612cb157612cb0612e44565b5b828202905092915050565b6000612cc782612d52565b9150612cd283612d52565b925082821015612ce557612ce4612e44565b5b828203905092915050565b6000612cfb82612d32565b9050919050565b60008115159050919050565b6000612d1982612cf0565b9050919050565b6000612d2b82612cf0565b9050919050565b600073ffffffffffffffffffffffffffffffffffffffff82169050919050565b6000819050919050565b6000612d6782612d6e565b9050919050565b6000612d7982612d32565b9050919050565b6000612d8b82612d92565b9050919050565b6000612d9d82612d32565b9050919050565b6000612daf82612db6565b9050919050565b6000612dc182612d32565b9050919050565b60005b83811015612de6578082015181840152602081019050612dcb565b83811115612df5576000848401525b50505050565b6000612e0682612d52565b91507fffffffffffffffffffffffffffffffffffffffffffffffffffffffffffffffff821415612e3957612e38612e44565b5b600182019050919050565b7f4e487b7100000000000000000000000000000000000000000000000000000000600052601160045260246000fd5b7f4e487b7100000000000000000000000000000000000000000000000000000000600052601260045260246000fd5b6000601f19601f8301169050919050565b7f4f776e61626c653a206e6577206f776e657220697320746865207a65726f206160008201527f6464726573730000000000000000000000000000000000000000000000000000602082015250565b7f416464726573733a20696e73756666696369656e742062616c616e636520666f60008201527f722063616c6c0000000000000000000000000000000000000000000000000000602082015250565b7f6465763a207775743f0000000000000000000000000000000000000000000000600082015250565b7f4f776e61626c653a2063616c6c6572206973206e6f7420746865206f776e6572600082015250565b7f416464726573733a2063616c6c20746f206e6f6e2d636f6e7472616374000000600082015250565b7f77697468647261773a206e6f7420676f6f640000000000000000000000000000600082015250565b7f5361666545524332303a204552433230206f7065726174696f6e20646964206e60008201527f6f74207375636365656400000000000000000000000000000000000000000000602082015250565b7f6d6967726174653a206261640000000000000000000000000000000000000000600082015250565b7f5361666545524332303a20617070726f76652066726f6d206e6f6e2d7a65726f60008201527f20746f206e6f6e2d7a65726f20616c6c6f77616e636500000000000000000000602082015250565b7f6d6967726174653a206e6f206d69677261746f72000000000000000000000000600082015250565b6130ee81612cf0565b81146130f957600080fd5b50565b61310581612d02565b811461311057600080fd5b50565b61311c81612d0e565b811461312757600080fd5b50565b61313381612d20565b811461313e57600080fd5b50565b61314a81612d52565b811461315557600080fd5b5056fea2646970667358221220c700bbb9046608ef399d43980fa4e07a8edc80df30fc69d42d9f6847f7c9d1d064736f6c63430008040033",
  "linkReferences": {},
  "deployedLinkReferences": {}
}