{
  "_format": "hh-sol-artifact-1",
  "contractName": "KaidexMasterChef",
  "sourceName": "contracts/farming/KaidexMasterChef.sol",
  "abi": [
    {
      "inputs": [
        {
          "internalType": "contract KaiDexToken",
          "name": "_kdx",
          "type": "address"
        },
        {
          "internalType": "uint256",
          "name": "_kdxPerBlock",
          "type": "uint256"
        },
        {
          "internalType": "uint256",
          "name": "_startBlock",
          "type": "uint256"
        }
      ],
      "stateMutability": "nonpayable",
      "type": "constructor"
    },
    {
      "anonymous": false,
      "inputs": [
        {
          "indexed": true,
          "internalType": "address",
          "name": "user",
          "type": "address"
        },
        {
          "indexed": true,
          "internalType": "uint256",
          "name": "pid",
          "type": "uint256"
        },
        {
          "indexed": false,
          "internalType": "uint256",
          "name": "amount",
          "type": "uint256"
        }
      ],
      "name": "Deposit",
      "type": "event"
    },
    {
      "anonymous": false,
      "inputs": [
        {
          "indexed": true,
          "internalType": "address",
          "name": "user",
          "type": "address"
        },
        {
          "indexed": true,
          "internalType": "uint256",
          "name": "pid",
          "type": "uint256"
        },
        {
          "indexed": false,
          "internalType": "uint256",
          "name": "amount",
          "type": "uint256"
        }
      ],
      "name": "EmergencyWithdraw",
      "type": "event"
    },
    {
      "anonymous": false,
      "inputs": [
        {
          "indexed": true,
          "internalType": "uint256",
          "name": "pid",
          "type": "uint256"
        },
        {
          "indexed": false,
          "internalType": "uint256",
          "name": "allocPoint",
          "type": "uint256"
        },
        {
          "indexed": true,
          "internalType": "contract IERC20",
          "name": "lpToken",
          "type": "address"
        }
      ],
      "name": "LogPoolAddition",
      "type": "event"
    },
    {
      "anonymous": false,
      "inputs": [
        {
          "indexed": true,
          "internalType": "uint256",
          "name": "pid",
          "type": "uint256"
        },
        {
          "indexed": false,
          "internalType": "uint256",
          "name": "allocPoint",
          "type": "uint256"
        }
      ],
      "name": "LogSetPool",
      "type": "event"
    },
    {
      "anonymous": false,
      "inputs": [
        {
          "indexed": true,
          "internalType": "uint256",
          "name": "pid",
          "type": "uint256"
        },
        {
          "indexed": false,
          "internalType": "uint256",
          "name": "lastRewardBlock",
          "type": "uint256"
        },
        {
          "indexed": false,
          "internalType": "uint256",
          "name": "lpSupply",
          "type": "uint256"
        },
        {
          "indexed": false,
          "internalType": "uint256",
          "name": "accKdxPerShare",
          "type": "uint256"
        }
      ],
      "name": "LogUpdatePool",
      "type": "event"
    },
    {
      "anonymous": false,
      "inputs": [
        {
          "indexed": true,
          "internalType": "address",
          "name": "previousOwner",
          "type": "address"
        },
        {
          "indexed": true,
          "internalType": "address",
          "name": "newOwner",
          "type": "address"
        }
      ],
      "name": "OwnershipTransferred",
      "type": "event"
    },
    {
      "anonymous": false,
      "inputs": [
        {
          "indexed": false,
          "internalType": "uint256",
          "name": "_oldKdxPerblock",
          "type": "uint256"
        },
        {
          "indexed": false,
          "internalType": "uint256",
          "name": "_newKdxPerblock",
          "type": "uint256"
        }
      ],
      "name": "UpdateKdxPerBlock",
      "type": "event"
    },
    {
      "anonymous": false,
      "inputs": [
        {
          "indexed": true,
          "internalType": "address",
          "name": "user",
          "type": "address"
        },
        {
          "indexed": true,
          "internalType": "uint256",
          "name": "pid",
          "type": "uint256"
        },
        {
          "indexed": false,
          "internalType": "uint256",
          "name": "amount",
          "type": "uint256"
        }
      ],
      "name": "Withdraw",
      "type": "event"
    },
    {
      "inputs": [
        {
          "internalType": "uint256",
          "name": "_allocPoint",
          "type": "uint256"
        },
        {
          "internalType": "contract IERC20",
          "name": "_lpToken",
          "type": "address"
        },
        {
          "internalType": "bool",
          "name": "_withUpdate",
          "type": "bool"
        }
      ],
      "name": "add",
      "outputs": [],
      "stateMutability": "nonpayable",
      "type": "function"
    },
    {
      "inputs": [
        {
          "internalType": "uint256",
          "name": "_pid",
          "type": "uint256"
        },
        {
          "internalType": "uint256",
          "name": "_amount",
          "type": "uint256"
        }
      ],
      "name": "deposit",
      "outputs": [],
      "stateMutability": "nonpayable",
      "type": "function"
    },
    {
      "inputs": [
        {
          "internalType": "uint256",
          "name": "_pid",
          "type": "uint256"
        }
      ],
      "name": "emergencyWithdraw",
      "outputs": [],
      "stateMutability": "nonpayable",
      "type": "function"
    },
    {
      "inputs": [
        {
          "internalType": "uint256",
          "name": "_from",
          "type": "uint256"
        },
        {
          "internalType": "uint256",
          "name": "_to",
          "type": "uint256"
        }
      ],
      "name": "getMultiplier",
      "outputs": [
        {
          "internalType": "uint256",
          "name": "",
          "type": "uint256"
        }
      ],
      "stateMutability": "pure",
      "type": "function"
    },
    {
      "inputs": [
        {
          "internalType": "uint256",
          "name": "_pid",
          "type": "uint256"
        }
      ],
      "name": "harvest",
      "outputs": [],
      "stateMutability": "nonpayable",
      "type": "function"
    },
    {
      "inputs": [],
      "name": "kdx",
      "outputs": [
        {
          "internalType": "contract KaiDexToken",
          "name": "",
          "type": "address"
        }
      ],
      "stateMutability": "view",
      "type": "function"
    },
    {
      "inputs": [],
      "name": "kdxPerBlock",
      "outputs": [
        {
          "internalType": "uint256",
          "name": "",
          "type": "uint256"
        }
      ],
      "stateMutability": "view",
      "type": "function"
    },
    {
      "inputs": [],
      "name": "massUpdatePools",
      "outputs": [],
      "stateMutability": "nonpayable",
      "type": "function"
    },
    {
      "inputs": [],
      "name": "owner",
      "outputs": [
        {
          "internalType": "address",
          "name": "",
          "type": "address"
        }
      ],
      "stateMutability": "view",
      "type": "function"
    },
    {
      "inputs": [
        {
          "internalType": "uint256",
          "name": "_pid",
          "type": "uint256"
        },
        {
          "internalType": "address",
          "name": "_user",
          "type": "address"
        }
      ],
      "name": "pendingKDX",
      "outputs": [
        {
          "internalType": "uint256",
          "name": "",
          "type": "uint256"
        }
      ],
      "stateMutability": "view",
      "type": "function"
    },
    {
      "inputs": [
        {
          "internalType": "uint256",
          "name": "",
          "type": "uint256"
        }
      ],
      "name": "poolInfo",
      "outputs": [
        {
          "internalType": "contract IERC20",
          "name": "lpToken",
          "type": "address"
        },
        {
          "internalType": "uint256",
          "name": "allocPoint",
          "type": "uint256"
        },
        {
          "internalType": "uint256",
          "name": "lastRewardBlock",
          "type": "uint256"
        },
        {
          "internalType": "uint256",
          "name": "accKDXPerShare",
          "type": "uint256"
        }
      ],
      "stateMutability": "view",
      "type": "function"
    },
    {
      "inputs": [],
      "name": "poolLength",
      "outputs": [
        {
          "internalType": "uint256",
          "name": "",
          "type": "uint256"
        }
      ],
      "stateMutability": "view",
      "type": "function"
    },
    {
      "inputs": [],
      "name": "renounceOwnership",
      "outputs": [],
      "stateMutability": "nonpayable",
      "type": "function"
    },
    {
      "inputs": [
        {
          "internalType": "uint256",
          "name": "_pid",
          "type": "uint256"
        },
        {
          "internalType": "uint256",
          "name": "_allocPoint",
          "type": "uint256"
        },
        {
          "internalType": "bool",
          "name": "_withUpdate",
          "type": "bool"
        }
      ],
      "name": "set",
      "outputs": [],
      "stateMutability": "nonpayable",
      "type": "function"
    },
    {
      "inputs": [],
      "name": "startBlock",
      "outputs": [
        {
          "internalType": "uint256",
          "name": "",
          "type": "uint256"
        }
      ],
      "stateMutability": "view",
      "type": "function"
    },
    {
      "inputs": [],
      "name": "totalAllocPoint",
      "outputs": [
        {
          "internalType": "uint256",
          "name": "",
          "type": "uint256"
        }
      ],
      "stateMutability": "view",
      "type": "function"
    },
    {
      "inputs": [
        {
          "internalType": "address",
          "name": "newOwner",
          "type": "address"
        }
      ],
      "name": "transferOwnership",
      "outputs": [],
      "stateMutability": "nonpayable",
      "type": "function"
    },
    {
      "inputs": [
        {
          "internalType": "uint256",
          "name": "_newKdxPerBlock",
          "type": "uint256"
        }
      ],
      "name": "updateKdxPerBlock",
      "outputs": [],
      "stateMutability": "nonpayable",
      "type": "function"
    },
    {
      "inputs": [
        {
          "internalType": "uint256",
          "name": "_pid",
          "type": "uint256"
        }
      ],
      "name": "updatePool",
      "outputs": [],
      "stateMutability": "nonpayable",
      "type": "function"
    },
    {
      "inputs": [
        {
          "internalType": "uint256",
          "name": "",
          "type": "uint256"
        },
        {
          "internalType": "address",
          "name": "",
          "type": "address"
        }
      ],
      "name": "userInfo",
      "outputs": [
        {
          "internalType": "uint256",
          "name": "amount",
          "type": "uint256"
        },
        {
          "internalType": "uint256",
          "name": "rewardDebt",
          "type": "uint256"
        }
      ],
      "stateMutability": "view",
      "type": "function"
    },
    {
      "inputs": [
        {
          "internalType": "uint256",
          "name": "_pid",
          "type": "uint256"
        },
        {
          "internalType": "uint256",
          "name": "_amount",
          "type": "uint256"
        }
      ],
      "name": "withdraw",
      "outputs": [],
      "stateMutability": "nonpayable",
      "type": "function"
    }
  ],
  "bytecode": "0x6080604052600060055534801561001557600080fd5b506040516116c43803806116c4833981016040819052610034916100b9565b61003d33610069565b600180546001600160a01b0319166001600160a01b0394909416939093179092556002556006556100fa565b600080546001600160a01b038381166001600160a01b0319831681178455604051919092169283917f8be0079c531659141344cd1fd0a4f28419497f9722a3daafe3b4186f6b6457e09190a35050565b6000806000606084860312156100cd578283fd5b83516001600160a01b03811681146100e3578384fd5b602085015160409095015190969495509392505050565b6115bb806101096000396000f3fe608060405234801561001057600080fd5b50600436106101375760003560e01c8063662b5fbe116100b857806393f1a40b1161007c57806393f1a40b14610267578063dadf2144146102ae578063dae47818146102c1578063ddc63262146102d4578063e2bbb158146102e7578063f2fde38b146102fa57600080fd5b8063662b5fbe1461020b578063715018a61461021457806387a9b5eb1461021c5780638da5cb5b1461022f5780638dbb1e3a1461025457600080fd5b806348cd4cb1116100ff57806348cd4cb1146101c157806351eb05a6146101ca5780635312ea8e146101dd578063630b5ba1146101f057806364482f79146101f857600080fd5b8063081e3eda1461013c5780631526fe271461015357806317caf6f1146101905780631eaaa04514610199578063441a3e70146101ae575b600080fd5b6003545b6040519081526020015b60405180910390f35b610166610161366004611325565b61030d565b604080516001600160a01b039095168552602085019390935291830152606082015260800161014a565b61014060055481565b6101ac6101a7366004611384565b610351565b005b6101ac6101bc3660046113c5565b6104f2565b61014060065481565b6101ac6101d8366004611325565b610656565b6101ac6101eb366004611325565b61084a565b6101ac6108f7565b6101ac6102063660046113e6565b610922565b61014060025481565b6101ac610a27565b6101ac61022a366004611325565b610a5d565b6000546001600160a01b03165b6040516001600160a01b03909116815260200161014a565b6101406102623660046113c5565b610ad4565b610299610275366004611355565b60046020908152600092835260408084209091529082529020805460019091015482565b6040805192835260208301919091520161014a565b6101406102bc366004611355565b610ae7565b60015461023c906001600160a01b031681565b6101ac6102e2366004611325565b610c60565b6101ac6102f53660046113c5565b610c6f565b6101ac6103083660046112ed565b610c7a565b6003818154811061031d57600080fd5b600091825260209091206004909102018054600182015460028301546003909301546001600160a01b039092169350919084565b6000546001600160a01b031633146103845760405162461bcd60e51b815260040161037b90611462565b60405180910390fd5b8015610392576103926108f7565b600060065443116103a5576006546103a7565b435b6005549091506103b79085610d12565b600555604080516080810182526001600160a01b038581168083526020830188815293830185815260006060850181815260038054600180820183559382905296517fc2575a0e9e593c00f959f8c92f12db2869c3395a3b0502d05e2516446f71f85b600490980297880180546001600160a01b031916919097161790955595517fc2575a0e9e593c00f959f8c92f12db2869c3395a3b0502d05e2516446f71f85c86015590517fc2575a0e9e593c00f959f8c92f12db2869c3395a3b0502d05e2516446f71f85d85015593517fc2575a0e9e593c00f959f8c92f12db2869c3395a3b0502d05e2516446f71f85e909301929092555490916104b99190610d1e565b6040518681527f4710feb78e3bce8d2e3ca2989a8eb2f8bcd32a6a55b4535942c180fc4d2e29529060200160405180910390a350505050565b60006003838154811061051557634e487b7160e01b600052603260045260246000fd5b60009182526020808320868452600480835260408086203387529093529190932080549290910290920192508311156105855760405162461bcd60e51b81526020600482015260126024820152711dda5d1a191c985dce881b9bdd0819dbdbd960721b604482015260640161037b565b61058e84610656565b60006105c882600101546105c264e8d4a510006105bc87600301548760000154610d2a90919063ffffffff16565b90610d36565b90610d1e565b90506105d43382610d42565b81546105e09085610d1e565b80835560038401546105fd9164e8d4a51000916105bc9190610d2a565b60018301558254610618906001600160a01b03163386610e93565b604051848152859033907ff279e6a1f5e320cca91135676d9cb6e44ca8a08c0b88342bcdb1144f6511b5689060200160405180910390a35050505050565b60006003828154811061067957634e487b7160e01b600052603260045260246000fd5b9060005260206000209060040201905080600201544311610698575050565b80546040516370a0823160e01b81523060048201526000916001600160a01b0316906370a082319060240160206040518083038186803b1580156106db57600080fd5b505afa1580156106ef573d6000803e3d6000fd5b505050506040513d601f19601f82011682018060405250810190610713919061133d565b90508061072557504360029091015550565b6000610735836002015443610ad4565b905060006107626005546105bc866001015461075c60025487610d2a90919063ffffffff16565b90610d2a565b6001546040516340c10f1960e01b8152306004820152602481018390529192506001600160a01b0316906340c10f1990604401600060405180830381600087803b1580156107af57600080fd5b505af11580156107c3573d6000803e3d6000fd5b505050506107f16107e6846105bc64e8d4a5100085610d2a90919063ffffffff16565b600386015490610d12565b600385018190554360028601819055604080519182526020820186905281019190915285907fcb7325664a4a3b7c7223eefc492a97ca4fdf94d46884621e5a8fae5a04b2b9d29060600160405180910390a25050505050565b60006003828154811061086d57634e487b7160e01b600052603260045260246000fd5b600091825260208083208584526004808352604080862033808852945290942080549490930201805490945091926108af926001600160a01b03169190610e93565b600080825560018201819055604051908152839033907fbb757047c2b5f3974fe26b7c10f732e7bce710b0952a71082702781e62ae05959060200160405180910390a3505050565b60035460005b8181101561091e5761090e81610656565b61091781611531565b90506108fd565b5050565b6000546001600160a01b0316331461094c5760405162461bcd60e51b815260040161037b90611462565b801561095a5761095a6108f7565b6109ab826109a56003868154811061098257634e487b7160e01b600052603260045260246000fd5b906000526020600020906004020160010154600554610d1e90919063ffffffff16565b90610d12565b60058190555081600384815481106109d357634e487b7160e01b600052603260045260246000fd5b906000526020600020906004020160010181905550827f942cc7e17a17c164bd977f32ab8c54265d5b9d481e4e352bf874f1e568874e7c83604051610a1a91815260200190565b60405180910390a2505050565b6000546001600160a01b03163314610a515760405162461bcd60e51b815260040161037b90611462565b610a5b6000610ef6565b565b6000546001600160a01b03163314610a875760405162461bcd60e51b815260040161037b90611462565b610a8f6108f7565b600280549082905560408051828152602081018490527f154b080d393c5baaaea54a0552c9a07b32f814a44e785b14461a80234e22058a910160405180910390a15050565b6000610ae08284610d1e565b9392505050565b60008060038481548110610b0b57634e487b7160e01b600052603260045260246000fd5b60009182526020808320878452600480835260408086206001600160a01b038a8116885294528086209482029092016003810154815493516370a0823160e01b8152309381019390935290965093949291909116906370a082319060240160206040518083038186803b158015610b8157600080fd5b505afa158015610b95573d6000803e3d6000fd5b505050506040513d601f19601f82011682018060405250810190610bb9919061133d565b9050836002015443118015610bcd57508015155b15610c2d576000610be2856002015443610ad4565b90506000610c096005546105bc886001015461075c60025487610d2a90919063ffffffff16565b9050610c28610c21846105bc8464e8d4a51000610d2a565b8590610d12565b935050505b610c5583600101546105c264e8d4a510006105bc868860000154610d2a90919063ffffffff16565b979650505050505050565b610c6c81600033610f46565b50565b61091e828233610f46565b6000546001600160a01b03163314610ca45760405162461bcd60e51b815260040161037b90611462565b6001600160a01b038116610d095760405162461bcd60e51b815260206004820152602660248201527f4f776e61626c653a206e6577206f776e657220697320746865207a65726f206160448201526564647265737360d01b606482015260840161037b565b610c6c81610ef6565b6000610ae08284611497565b6000610ae082846114ee565b6000610ae082846114cf565b6000610ae082846114af565b6001546040516370a0823160e01b81523060048201526000916001600160a01b0316906370a082319060240160206040518083038186803b158015610d8657600080fd5b505afa158015610d9a573d6000803e3d6000fd5b505050506040513d601f19601f82011682018060405250810190610dbe919061133d565b905080821115610e555760015460405163a9059cbb60e01b81526001600160a01b038581166004830152602482018490529091169063a9059cbb906044015b602060405180830381600087803b158015610e1757600080fd5b505af1158015610e2b573d6000803e3d6000fd5b505050506040513d601f19601f82011682018060405250810190610e4f9190611309565b50505050565b60015460405163a9059cbb60e01b81526001600160a01b038581166004830152602482018590529091169063a9059cbb90604401610dfd565b505050565b6040516001600160a01b038316602482015260448101829052610e8e90849063a9059cbb60e01b906064015b60408051601f198184030181529190526020810180516001600160e01b03166001600160e01b031990931692909217909152611072565b600080546001600160a01b038381166001600160a01b0319831681178455604051919092169283917f8be0079c531659141344cd1fd0a4f28419497f9722a3daafe3b4186f6b6457e09190a35050565b600060038481548110610f6957634e487b7160e01b600052603260045260246000fd5b60009182526020808320878452600480835260408086206001600160a01b03891687529093529190932091029091019150610fa385610656565b805460009015610fe557610fd982600101546105c264e8d4a510006105bc87600301548760000154610d2a90919063ffffffff16565b9050610fe58482610d42565b8254610ffc906001600160a01b0316853088611144565b81546110089086610d12565b80835560038401546110259164e8d4a51000916105bc9190610d2a565b600183015560405185815286906001600160a01b038616907f90890809c654f11d6e72a28fa60149770a0d11ec6c92319d6ceb2bb0a4ea1a159060200160405180910390a3505050505050565b60006110c7826040518060400160405280602081526020017f5361666545524332303a206c6f772d6c6576656c2063616c6c206661696c6564815250856001600160a01b031661117c9092919063ffffffff16565b805190915015610e8e57808060200190518101906110e59190611309565b610e8e5760405162461bcd60e51b815260206004820152602a60248201527f5361666545524332303a204552433230206f7065726174696f6e20646964206e6044820152691bdd081cdd58d8d9595960b21b606482015260840161037b565b6040516001600160a01b0380851660248301528316604482015260648101829052610e4f9085906323b872dd60e01b90608401610ebf565b606061118b8484600085611193565b949350505050565b6060824710156111f45760405162461bcd60e51b815260206004820152602660248201527f416464726573733a20696e73756666696369656e742062616c616e636520666f6044820152651c8818d85b1b60d21b606482015260840161037b565b6001600160a01b0385163b61124b5760405162461bcd60e51b815260206004820152601d60248201527f416464726573733a2063616c6c20746f206e6f6e2d636f6e7472616374000000604482015260640161037b565b600080866001600160a01b031685876040516112679190611413565b60006040518083038185875af1925050503d80600081146112a4576040519150601f19603f3d011682016040523d82523d6000602084013e6112a9565b606091505b5091509150610c55828286606083156112c3575081610ae0565b8251156112d35782518084602001fd5b8160405162461bcd60e51b815260040161037b919061142f565b6000602082840312156112fe578081fd5b8135610ae081611562565b60006020828403121561131a578081fd5b8151610ae081611577565b600060208284031215611336578081fd5b5035919050565b60006020828403121561134e578081fd5b5051919050565b60008060408385031215611367578081fd5b82359150602083013561137981611562565b809150509250929050565b600080600060608486031215611398578081fd5b8335925060208401356113aa81611562565b915060408401356113ba81611577565b809150509250925092565b600080604083850312156113d7578182fd5b50508035926020909101359150565b6000806000606084860312156113fa578283fd5b833592506020840135915060408401356113ba81611577565b60008251611425818460208701611505565b9190910192915050565b602081526000825180602084015261144e816040850160208701611505565b601f01601f19169190910160400192915050565b6020808252818101527f4f776e61626c653a2063616c6c6572206973206e6f7420746865206f776e6572604082015260600190565b600082198211156114aa576114aa61154c565b500190565b6000826114ca57634e487b7160e01b81526012600452602481fd5b500490565b60008160001904831182151516156114e9576114e961154c565b500290565b6000828210156115005761150061154c565b500390565b60005b83811015611520578181015183820152602001611508565b83811115610e4f5750506000910152565b60006000198214156115455761154561154c565b5060010190565b634e487b7160e01b600052601160045260246000fd5b6001600160a01b0381168114610c6c57600080fd5b8015158114610c6c57600080fdfea264697066735822122025d2e61739eaf73e0c6677fdd62aa4ef3ed92930e1fbaf2c4c0f53516112012564736f6c63430008040033",
  "linkReferences": {},
  "deployedLinkReferences": {}
}