{
  "_format": "hh-sol-artifact-1",
  "contractName": "KaidexMasterChef",
  "sourceName": "contracts/farming/KaidexMasterChef.sol",
  "abi": [
    {
      "inputs": [
        {
          "internalType": "contract KaiDexToken",
          "name": "_kdx",
          "type": "address"
        },
        {
          "internalType": "uint256",
          "name": "_kdxPerBlock",
          "type": "uint256"
        },
        {
          "internalType": "uint256",
          "name": "_startBlock",
          "type": "uint256"
        }
      ],
      "stateMutability": "nonpayable",
      "type": "constructor"
    },
    {
      "anonymous": false,
      "inputs": [
        {
          "indexed": true,
          "internalType": "address",
          "name": "user",
          "type": "address"
        },
        {
          "indexed": true,
          "internalType": "uint256",
          "name": "pid",
          "type": "uint256"
        },
        {
          "indexed": false,
          "internalType": "uint256",
          "name": "amount",
          "type": "uint256"
        }
      ],
      "name": "Deposit",
      "type": "event"
    },
    {
      "anonymous": false,
      "inputs": [
        {
          "indexed": true,
          "internalType": "address",
          "name": "user",
          "type": "address"
        },
        {
          "indexed": true,
          "internalType": "uint256",
          "name": "pid",
          "type": "uint256"
        },
        {
          "indexed": false,
          "internalType": "uint256",
          "name": "amount",
          "type": "uint256"
        }
      ],
      "name": "EmergencyWithdraw",
      "type": "event"
    },
    {
      "anonymous": false,
      "inputs": [
        {
          "indexed": true,
          "internalType": "uint256",
          "name": "pid",
          "type": "uint256"
        },
        {
          "indexed": false,
          "internalType": "uint256",
          "name": "allocPoint",
          "type": "uint256"
        },
        {
          "indexed": true,
          "internalType": "contract IERC20",
          "name": "lpToken",
          "type": "address"
        },
        {
          "indexed": true,
          "internalType": "contract IRewarder",
          "name": "rewarder",
          "type": "address"
        }
      ],
      "name": "LogPoolAddition",
      "type": "event"
    },
    {
      "anonymous": false,
      "inputs": [
        {
          "indexed": true,
          "internalType": "uint256",
          "name": "pid",
          "type": "uint256"
        },
        {
          "indexed": false,
          "internalType": "uint256",
          "name": "allocPoint",
          "type": "uint256"
        },
        {
          "indexed": true,
          "internalType": "contract IRewarder",
          "name": "rewarder",
          "type": "address"
        },
        {
          "indexed": false,
          "internalType": "bool",
          "name": "overwrite",
          "type": "bool"
        }
      ],
      "name": "LogSetPool",
      "type": "event"
    },
    {
      "anonymous": false,
      "inputs": [
        {
          "indexed": true,
          "internalType": "uint256",
          "name": "pid",
          "type": "uint256"
        },
        {
          "indexed": false,
          "internalType": "uint256",
          "name": "lastRewardBlock",
          "type": "uint256"
        },
        {
          "indexed": false,
          "internalType": "uint256",
          "name": "lpSupply",
          "type": "uint256"
        },
        {
          "indexed": false,
          "internalType": "uint256",
          "name": "accKdxPerShare",
          "type": "uint256"
        }
      ],
      "name": "LogUpdatePool",
      "type": "event"
    },
    {
      "anonymous": false,
      "inputs": [
        {
          "indexed": true,
          "internalType": "address",
          "name": "previousOwner",
          "type": "address"
        },
        {
          "indexed": true,
          "internalType": "address",
          "name": "newOwner",
          "type": "address"
        }
      ],
      "name": "OwnershipTransferred",
      "type": "event"
    },
    {
      "anonymous": false,
      "inputs": [
        {
          "indexed": true,
          "internalType": "address",
          "name": "user",
          "type": "address"
        },
        {
          "indexed": true,
          "internalType": "uint256",
          "name": "pid",
          "type": "uint256"
        },
        {
          "indexed": false,
          "internalType": "uint256",
          "name": "amount",
          "type": "uint256"
        }
      ],
      "name": "Withdraw",
      "type": "event"
    },
    {
      "inputs": [
        {
          "internalType": "uint256",
          "name": "_allocPoint",
          "type": "uint256"
        },
        {
          "internalType": "contract IERC20",
          "name": "_lpToken",
          "type": "address"
        },
        {
          "internalType": "contract IRewarder",
          "name": "_rewarder",
          "type": "address"
        },
        {
          "internalType": "bool",
          "name": "_withUpdate",
          "type": "bool"
        }
      ],
      "name": "add",
      "outputs": [],
      "stateMutability": "nonpayable",
      "type": "function"
    },
    {
      "inputs": [
        {
          "internalType": "uint256",
          "name": "_pid",
          "type": "uint256"
        },
        {
          "internalType": "uint256",
          "name": "_amount",
          "type": "uint256"
        }
      ],
      "name": "deposit",
      "outputs": [],
      "stateMutability": "nonpayable",
      "type": "function"
    },
    {
      "inputs": [
        {
          "internalType": "uint256",
          "name": "_pid",
          "type": "uint256"
        }
      ],
      "name": "emergencyWithdraw",
      "outputs": [],
      "stateMutability": "nonpayable",
      "type": "function"
    },
    {
      "inputs": [
        {
          "internalType": "uint256",
          "name": "_from",
          "type": "uint256"
        },
        {
          "internalType": "uint256",
          "name": "_to",
          "type": "uint256"
        }
      ],
      "name": "getMultiplier",
      "outputs": [
        {
          "internalType": "uint256",
          "name": "",
          "type": "uint256"
        }
      ],
      "stateMutability": "pure",
      "type": "function"
    },
    {
      "inputs": [
        {
          "internalType": "uint256",
          "name": "_pid",
          "type": "uint256"
        }
      ],
      "name": "harvest",
      "outputs": [],
      "stateMutability": "nonpayable",
      "type": "function"
    },
    {
      "inputs": [],
      "name": "kdx",
      "outputs": [
        {
          "internalType": "contract KaiDexToken",
          "name": "",
          "type": "address"
        }
      ],
      "stateMutability": "view",
      "type": "function"
    },
    {
      "inputs": [],
      "name": "kdxPerBlock",
      "outputs": [
        {
          "internalType": "uint256",
          "name": "",
          "type": "uint256"
        }
      ],
      "stateMutability": "view",
      "type": "function"
    },
    {
      "inputs": [],
      "name": "massUpdatePools",
      "outputs": [],
      "stateMutability": "nonpayable",
      "type": "function"
    },
    {
      "inputs": [],
      "name": "owner",
      "outputs": [
        {
          "internalType": "address",
          "name": "",
          "type": "address"
        }
      ],
      "stateMutability": "view",
      "type": "function"
    },
    {
      "inputs": [
        {
          "internalType": "uint256",
          "name": "_pid",
          "type": "uint256"
        },
        {
          "internalType": "address",
          "name": "_user",
          "type": "address"
        }
      ],
      "name": "pendingKDX",
      "outputs": [
        {
          "internalType": "uint256",
          "name": "",
          "type": "uint256"
        }
      ],
      "stateMutability": "view",
      "type": "function"
    },
    {
      "inputs": [
        {
          "internalType": "uint256",
          "name": "",
          "type": "uint256"
        }
      ],
      "name": "poolInfo",
      "outputs": [
        {
          "internalType": "contract IERC20",
          "name": "lpToken",
          "type": "address"
        },
        {
          "internalType": "uint256",
          "name": "allocPoint",
          "type": "uint256"
        },
        {
          "internalType": "uint256",
          "name": "lastRewardBlock",
          "type": "uint256"
        },
        {
          "internalType": "uint256",
          "name": "accKDXPerShare",
          "type": "uint256"
        }
      ],
      "stateMutability": "view",
      "type": "function"
    },
    {
      "inputs": [],
      "name": "poolLength",
      "outputs": [
        {
          "internalType": "uint256",
          "name": "",
          "type": "uint256"
        }
      ],
      "stateMutability": "view",
      "type": "function"
    },
    {
      "inputs": [],
      "name": "renounceOwnership",
      "outputs": [],
      "stateMutability": "nonpayable",
      "type": "function"
    },
    {
      "inputs": [
        {
          "internalType": "uint256",
          "name": "",
          "type": "uint256"
        }
      ],
      "name": "rewarder",
      "outputs": [
        {
          "internalType": "contract IRewarder",
          "name": "",
          "type": "address"
        }
      ],
      "stateMutability": "view",
      "type": "function"
    },
    {
      "inputs": [
        {
          "internalType": "uint256",
          "name": "_pid",
          "type": "uint256"
        },
        {
          "internalType": "uint256",
          "name": "_allocPoint",
          "type": "uint256"
        },
        {
          "internalType": "bool",
          "name": "_withUpdate",
          "type": "bool"
        },
        {
          "internalType": "contract IRewarder",
          "name": "_rewarder",
          "type": "address"
        },
        {
          "internalType": "bool",
          "name": "overwrite",
          "type": "bool"
        }
      ],
      "name": "set",
      "outputs": [],
      "stateMutability": "nonpayable",
      "type": "function"
    },
    {
      "inputs": [],
      "name": "startBlock",
      "outputs": [
        {
          "internalType": "uint256",
          "name": "",
          "type": "uint256"
        }
      ],
      "stateMutability": "view",
      "type": "function"
    },
    {
      "inputs": [],
      "name": "totalAllocPoint",
      "outputs": [
        {
          "internalType": "uint256",
          "name": "",
          "type": "uint256"
        }
      ],
      "stateMutability": "view",
      "type": "function"
    },
    {
      "inputs": [
        {
          "internalType": "address",
          "name": "newOwner",
          "type": "address"
        }
      ],
      "name": "transferOwnership",
      "outputs": [],
      "stateMutability": "nonpayable",
      "type": "function"
    },
    {
      "inputs": [
        {
          "internalType": "uint256",
          "name": "_kdxPerBlock",
          "type": "uint256"
        }
      ],
      "name": "updateKdxPerBlock",
      "outputs": [],
      "stateMutability": "nonpayable",
      "type": "function"
    },
    {
      "inputs": [
        {
          "internalType": "uint256",
          "name": "_pid",
          "type": "uint256"
        }
      ],
      "name": "updatePool",
      "outputs": [],
      "stateMutability": "nonpayable",
      "type": "function"
    },
    {
      "inputs": [
        {
          "internalType": "uint256",
          "name": "",
          "type": "uint256"
        },
        {
          "internalType": "address",
          "name": "",
          "type": "address"
        }
      ],
      "name": "userInfo",
      "outputs": [
        {
          "internalType": "uint256",
          "name": "amount",
          "type": "uint256"
        },
        {
          "internalType": "uint256",
          "name": "rewardDebt",
          "type": "uint256"
        }
      ],
      "stateMutability": "view",
      "type": "function"
    },
    {
      "inputs": [
        {
          "internalType": "uint256",
          "name": "_pid",
          "type": "uint256"
        },
        {
          "internalType": "uint256",
          "name": "_amount",
          "type": "uint256"
        }
      ],
      "name": "withdraw",
      "outputs": [],
      "stateMutability": "nonpayable",
      "type": "function"
    }
  ],
  "bytecode": "0x608060405260006005553480156200001657600080fd5b50604051620030be380380620030be83398181016040528101906200003c9190620001ae565b6200005c62000050620000b460201b60201c565b620000bc60201b60201c565b82600160006101000a81548173ffffffffffffffffffffffffffffffffffffffff021916908373ffffffffffffffffffffffffffffffffffffffff16021790555081600281905550806006819055505050506200028a565b600033905090565b60008060009054906101000a900473ffffffffffffffffffffffffffffffffffffffff169050816000806101000a81548173ffffffffffffffffffffffffffffffffffffffff021916908373ffffffffffffffffffffffffffffffffffffffff1602179055508173ffffffffffffffffffffffffffffffffffffffff168173ffffffffffffffffffffffffffffffffffffffff167f8be0079c531659141344cd1fd0a4f28419497f9722a3daafe3b4186f6b6457e060405160405180910390a35050565b600081519050620001918162000256565b92915050565b600081519050620001a88162000270565b92915050565b600080600060608486031215620001c457600080fd5b6000620001d48682870162000180565b9350506020620001e78682870162000197565b9250506040620001fa8682870162000197565b9150509250925092565b600062000211826200022c565b9050919050565b6000620002258262000204565b9050919050565b600073ffffffffffffffffffffffffffffffffffffffff82169050919050565b6000819050919050565b620002618162000218565b81146200026d57600080fd5b50565b6200027b816200024c565b81146200028757600080fd5b50565b612e24806200029a6000396000f3fe608060405234801561001057600080fd5b50600436106101425760003560e01c80638da5cb5b116100b8578063c71b4b431161007c578063c71b4b4314610341578063dadf21441461035d578063dae478181461038d578063ddc63262146103ab578063e2bbb158146103c7578063f2fde38b146103e357610142565b80638da5cb5b146102765780638dbb1e3a1461029457806393f1a40b146102c45780639a4de4b8146102f5578063c346253d1461031157610142565b806351eb05a61161010a57806351eb05a6146101f05780635312ea8e1461020c578063630b5ba114610228578063662b5fbe14610232578063715018a61461025057806387a9b5eb1461025a57610142565b8063081e3eda146101475780631526fe271461016557806317caf6f114610198578063441a3e70146101b657806348cd4cb1146101d2575b600080fd5b61014f6103ff565b60405161015c91906127ad565b60405180910390f35b61017f600480360381019061017a9190612275565b61040c565b60405161018f9493929190612650565b60405180910390f35b6101a061046c565b6040516101ad91906127ad565b60405180910390f35b6101d060048036038101906101cb9190612366565b610472565b005b6101da6107cc565b6040516101e791906127ad565b60405180910390f35b61020a60048036038101906102059190612275565b6107d2565b005b61022660048036038101906102219190612275565b610a7a565b005b610230610cec565b005b61023a610d1f565b60405161024791906127ad565b60405180910390f35b610258610d25565b005b610274600480360381019061026f9190612275565b610dad565b005b61027e610e3b565b60405161028b91906125d5565b60405180910390f35b6102ae60048036038101906102a99190612366565b610e64565b6040516102bb91906127ad565b60405180910390f35b6102de60048036038101906102d991906122c7565b610e81565b6040516102ec929190612897565b60405180910390f35b61030f600480360381019061030a91906123a2565b610eb2565b005b61032b60048036038101906103269190612275565b611157565b6040516103389190612695565b60405180910390f35b61035b60048036038101906103569190612303565b611196565b005b610377600480360381019061037291906122c7565b611405565b60405161038491906127ad565b60405180910390f35b61039561165f565b6040516103a291906126b0565b60405180910390f35b6103c560048036038101906103c09190612275565b611685565b005b6103e160048036038101906103dc9190612366565b611694565b005b6103fd60048036038101906103f89190612223565b6116a3565b005b6000600380549050905090565b6003818154811061041c57600080fd5b90600052602060002090600402016000915090508060000160009054906101000a900473ffffffffffffffffffffffffffffffffffffffff16908060010154908060020154908060030154905084565b60055481565b6000600383815481106104ae577f4e487b7100000000000000000000000000000000000000000000000000000000600052603260045260246000fd5b9060005260206000209060040201905060006004600085815260200190815260200160002060003373ffffffffffffffffffffffffffffffffffffffff1673ffffffffffffffffffffffffffffffffffffffff16815260200190815260200160002090508281600001541015610559576040517f08c379a00000000000000000000000000000000000000000000000000000000081526004016105509061276d565b60405180910390fd5b610562846107d2565b60006105ac826001015461059e64e8d4a510006105908760030154876000015461179b90919063ffffffff16565b6117b190919063ffffffff16565b6117c790919063ffffffff16565b90506105b833826117dd565b6105cf8483600001546117c790919063ffffffff16565b826000018190555061060964e8d4a510006105fb8560030154856000015461179b90919063ffffffff16565b6117b190919063ffffffff16565b826001018190555061066033858560000160009054906101000a900473ffffffffffffffffffffffffffffffffffffffff1673ffffffffffffffffffffffffffffffffffffffff166119ff9092919063ffffffff16565b60006007868154811061069c577f4e487b7100000000000000000000000000000000000000000000000000000000600052603260045260246000fd5b9060005260206000200160009054906101000a900473ffffffffffffffffffffffffffffffffffffffff169050600073ffffffffffffffffffffffffffffffffffffffff168173ffffffffffffffffffffffffffffffffffffffff1614610775578073ffffffffffffffffffffffffffffffffffffffff1663860cbfe48733338688600001546040518663ffffffff1660e01b815260040161074295949392919061281b565b600060405180830381600087803b15801561075c57600080fd5b505af1158015610770573d6000803e3d6000fd5b505050505b853373ffffffffffffffffffffffffffffffffffffffff167ff279e6a1f5e320cca91135676d9cb6e44ca8a08c0b88342bcdb1144f6511b568876040516107bc91906127ad565b60405180910390a3505050505050565b60065481565b60006003828154811061080e577f4e487b7100000000000000000000000000000000000000000000000000000000600052603260045260246000fd5b906000526020600020906004020190508060020154431161082f5750610a77565b60008160000160009054906101000a900473ffffffffffffffffffffffffffffffffffffffff1673ffffffffffffffffffffffffffffffffffffffff166370a08231306040518263ffffffff1660e01b815260040161088e91906125d5565b60206040518083038186803b1580156108a657600080fd5b505afa1580156108ba573d6000803e3d6000fd5b505050506040513d601f19601f820116820180604052508101906108de919061229e565b905060008114156108f9574382600201819055505050610a77565b6000610909836002015443610e64565b9050600061094c60055461093e86600101546109306002548761179b90919063ffffffff16565b61179b90919063ffffffff16565b6117b190919063ffffffff16565b9050600160009054906101000a900473ffffffffffffffffffffffffffffffffffffffff1673ffffffffffffffffffffffffffffffffffffffff166340c10f1930836040518363ffffffff1660e01b81526004016109ab929190612627565b600060405180830381600087803b1580156109c557600080fd5b505af11580156109d9573d6000803e3d6000fd5b50505050610a1d610a0a846109fc64e8d4a510008561179b90919063ffffffff16565b6117b190919063ffffffff16565b8560030154611a8590919063ffffffff16565b8460030181905550438460020181905550847fcb7325664a4a3b7c7223eefc492a97ca4fdf94d46884621e5a8fae5a04b2b9d28560020154858760030154604051610a6a939291906128c0565b60405180910390a2505050505b50565b600060038281548110610ab6577f4e487b7100000000000000000000000000000000000000000000000000000000600052603260045260246000fd5b9060005260206000209060040201905060006004600084815260200190815260200160002060003373ffffffffffffffffffffffffffffffffffffffff1673ffffffffffffffffffffffffffffffffffffffff1681526020019081526020016000209050610b6d3382600001548460000160009054906101000a900473ffffffffffffffffffffffffffffffffffffffff1673ffffffffffffffffffffffffffffffffffffffff166119ff9092919063ffffffff16565b6000816000018190555060008160010181905550823373ffffffffffffffffffffffffffffffffffffffff167fbb757047c2b5f3974fe26b7c10f732e7bce710b0952a71082702781e62ae05958360000154604051610bcc91906127ad565b60405180910390a3600060078481548110610c10577f4e487b7100000000000000000000000000000000000000000000000000000000600052603260045260246000fd5b9060005260206000200160009054906101000a900473ffffffffffffffffffffffffffffffffffffffff169050600073ffffffffffffffffffffffffffffffffffffffff168173ffffffffffffffffffffffffffffffffffffffff1614610ce6578073ffffffffffffffffffffffffffffffffffffffff1663860cbfe48533336000806040518663ffffffff1660e01b8152600401610cb39594939291906127c8565b600060405180830381600087803b158015610ccd57600080fd5b505af1158015610ce1573d6000803e3d6000fd5b505050505b50505050565b6000600380549050905060005b81811015610d1b57610d0a816107d2565b80610d1490612b5b565b9050610cf9565b5050565b60025481565b610d2d611a9b565b73ffffffffffffffffffffffffffffffffffffffff16610d4b610e3b565b73ffffffffffffffffffffffffffffffffffffffff1614610da1576040517f08c379a0000000000000000000000000000000000000000000000000000000008152600401610d989061272d565b60405180910390fd5b610dab6000611aa3565b565b610db5611a9b565b73ffffffffffffffffffffffffffffffffffffffff16610dd3610e3b565b73ffffffffffffffffffffffffffffffffffffffff1614610e29576040517f08c379a0000000000000000000000000000000000000000000000000000000008152600401610e209061272d565b60405180910390fd5b610e31610cec565b8060028190555050565b60008060009054906101000a900473ffffffffffffffffffffffffffffffffffffffff16905090565b6000610e7983836117c790919063ffffffff16565b905092915050565b6004602052816000526040600020602052806000526040600020600091509150508060000154908060010154905082565b610eba611a9b565b73ffffffffffffffffffffffffffffffffffffffff16610ed8610e3b565b73ffffffffffffffffffffffffffffffffffffffff1614610f2e576040517f08c379a0000000000000000000000000000000000000000000000000000000008152600401610f259061272d565b60405180910390fd5b8215610f3d57610f3c610cec565b5b610faf84610fa160038881548110610f7e577f4e487b7100000000000000000000000000000000000000000000000000000000600052603260045260246000fd5b9060005260206000209060040201600101546005546117c790919063ffffffff16565b611a8590919063ffffffff16565b6005819055508360038681548110610ff0577f4e487b7100000000000000000000000000000000000000000000000000000000600052603260045260246000fd5b906000526020600020906004020160010181905550801561108f578160078681548110611046577f4e487b7100000000000000000000000000000000000000000000000000000000600052603260045260246000fd5b9060005260206000200160006101000a81548173ffffffffffffffffffffffffffffffffffffffff021916908373ffffffffffffffffffffffffffffffffffffffff1602179055505b806110fe57600785815481106110ce577f4e487b7100000000000000000000000000000000000000000000000000000000600052603260045260246000fd5b9060005260206000200160009054906101000a900473ffffffffffffffffffffffffffffffffffffffff16611100565b815b73ffffffffffffffffffffffffffffffffffffffff16857f95895a6ab1df54420d241b55243258a33e61b2194db66c1179ec521aae8e1865868460405161114892919061286e565b60405180910390a35050505050565b6007818154811061116757600080fd5b906000526020600020016000915054906101000a900473ffffffffffffffffffffffffffffffffffffffff1681565b61119e611a9b565b73ffffffffffffffffffffffffffffffffffffffff166111bc610e3b565b73ffffffffffffffffffffffffffffffffffffffff1614611212576040517f08c379a00000000000000000000000000000000000000000000000000000000081526004016112099061272d565b60405180910390fd5b801561122157611220610cec565b5b6000600654431161123457600654611236565b435b905061124d85600554611a8590919063ffffffff16565b600581905550600360405180608001604052808673ffffffffffffffffffffffffffffffffffffffff1681526020018781526020018381526020016000815250908060018154018082558091505060019003906000526020600020906004020160009091909190915060008201518160000160006101000a81548173ffffffffffffffffffffffffffffffffffffffff021916908373ffffffffffffffffffffffffffffffffffffffff16021790555060208201518160010155604082015181600201556060820151816003015550506007839080600181540180825580915050600190039060005260206000200160009091909190916101000a81548173ffffffffffffffffffffffffffffffffffffffff021916908373ffffffffffffffffffffffffffffffffffffffff1602179055508273ffffffffffffffffffffffffffffffffffffffff168473ffffffffffffffffffffffffffffffffffffffff166113c760016003805490506117c790919063ffffffff16565b7f81ee0f8c5c46e2cb41984886f77a84181724abb86c32a5f6de539b07509d45e5886040516113f691906127ad565b60405180910390a45050505050565b60008060038481548110611442577f4e487b7100000000000000000000000000000000000000000000000000000000600052603260045260246000fd5b9060005260206000209060040201905060006004600086815260200190815260200160002060008573ffffffffffffffffffffffffffffffffffffffff1673ffffffffffffffffffffffffffffffffffffffff168152602001908152602001600020905060008260030154905060008360000160009054906101000a900473ffffffffffffffffffffffffffffffffffffffff1673ffffffffffffffffffffffffffffffffffffffff166370a08231306040518263ffffffff1660e01b815260040161150e91906125d5565b60206040518083038186803b15801561152657600080fd5b505afa15801561153a573d6000803e3d6000fd5b505050506040513d601f19601f8201168201806040525081019061155e919061229e565b9050836002015443118015611574575060008114155b1561160f576000611589856002015443610e64565b905060006115cc6005546115be88600101546115b06002548761179b90919063ffffffff16565b61179b90919063ffffffff16565b6117b190919063ffffffff16565b905061160a6115fb846115ed64e8d4a510008561179b90919063ffffffff16565b6117b190919063ffffffff16565b85611a8590919063ffffffff16565b935050505b611653836001015461164564e8d4a5100061163786886000015461179b90919063ffffffff16565b6117b190919063ffffffff16565b6117c790919063ffffffff16565b94505050505092915050565b600160009054906101000a900473ffffffffffffffffffffffffffffffffffffffff1681565b61169181600033611b67565b50565b61169f828233611b67565b5050565b6116ab611a9b565b73ffffffffffffffffffffffffffffffffffffffff166116c9610e3b565b73ffffffffffffffffffffffffffffffffffffffff161461171f576040517f08c379a00000000000000000000000000000000000000000000000000000000081526004016117169061272d565b60405180910390fd5b600073ffffffffffffffffffffffffffffffffffffffff168173ffffffffffffffffffffffffffffffffffffffff16141561178f576040517f08c379a0000000000000000000000000000000000000000000000000000000008152600401611786906126ed565b60405180910390fd5b61179881611aa3565b50565b600081836117a991906129b0565b905092915050565b600081836117bf919061297f565b905092915050565b600081836117d59190612a0a565b905092915050565b6000600160009054906101000a900473ffffffffffffffffffffffffffffffffffffffff1673ffffffffffffffffffffffffffffffffffffffff166370a08231306040518263ffffffff1660e01b815260040161183a91906125d5565b60206040518083038186803b15801561185257600080fd5b505afa158015611866573d6000803e3d6000fd5b505050506040513d601f19601f8201168201806040525081019061188a919061229e565b90508082111561194957600160009054906101000a900473ffffffffffffffffffffffffffffffffffffffff1673ffffffffffffffffffffffffffffffffffffffff1663a9059cbb84836040518363ffffffff1660e01b81526004016118f1929190612627565b602060405180830381600087803b15801561190b57600080fd5b505af115801561191f573d6000803e3d6000fd5b505050506040513d601f19601f82011682018060405250810190611943919061224c565b506119fa565b600160009054906101000a900473ffffffffffffffffffffffffffffffffffffffff1673ffffffffffffffffffffffffffffffffffffffff1663a9059cbb84846040518363ffffffff1660e01b81526004016119a6929190612627565b602060405180830381600087803b1580156119c057600080fd5b505af11580156119d4573d6000803e3d6000fd5b505050506040513d601f19601f820116820180604052508101906119f8919061224c565b505b505050565b611a808363a9059cbb60e01b8484604051602401611a1e929190612627565b604051602081830303815290604052907bffffffffffffffffffffffffffffffffffffffffffffffffffffffff19166020820180517bffffffffffffffffffffffffffffffffffffffffffffffffffffffff8381831617835250505050611e8a565b505050565b60008183611a939190612929565b905092915050565b600033905090565b60008060009054906101000a900473ffffffffffffffffffffffffffffffffffffffff169050816000806101000a81548173ffffffffffffffffffffffffffffffffffffffff021916908373ffffffffffffffffffffffffffffffffffffffff1602179055508173ffffffffffffffffffffffffffffffffffffffff168173ffffffffffffffffffffffffffffffffffffffff167f8be0079c531659141344cd1fd0a4f28419497f9722a3daafe3b4186f6b6457e060405160405180910390a35050565b600060038481548110611ba3577f4e487b7100000000000000000000000000000000000000000000000000000000600052603260045260246000fd5b9060005260206000209060040201905060006004600086815260200190815260200160002060008473ffffffffffffffffffffffffffffffffffffffff1673ffffffffffffffffffffffffffffffffffffffff1681526020019081526020016000209050611c10856107d2565b60008082600001541115611c7357611c668260010154611c5864e8d4a51000611c4a8760030154876000015461179b90919063ffffffff16565b6117b190919063ffffffff16565b6117c790919063ffffffff16565b9050611c7284826117dd565b5b611cc48430878660000160009054906101000a900473ffffffffffffffffffffffffffffffffffffffff1673ffffffffffffffffffffffffffffffffffffffff16611f51909392919063ffffffff16565b611cdb858360000154611a8590919063ffffffff16565b8260000181905550611d1564e8d4a51000611d078560030154856000015461179b90919063ffffffff16565b6117b190919063ffffffff16565b8260010181905550600060078781548110611d59577f4e487b7100000000000000000000000000000000000000000000000000000000600052603260045260246000fd5b9060005260206000200160009054906101000a900473ffffffffffffffffffffffffffffffffffffffff169050600073ffffffffffffffffffffffffffffffffffffffff168173ffffffffffffffffffffffffffffffffffffffff1614611e32578073ffffffffffffffffffffffffffffffffffffffff1663860cbfe48887888688600001546040518663ffffffff1660e01b8152600401611dff95949392919061281b565b600060405180830381600087803b158015611e1957600080fd5b505af1158015611e2d573d6000803e3d6000fd5b505050505b868573ffffffffffffffffffffffffffffffffffffffff167f90890809c654f11d6e72a28fa60149770a0d11ec6c92319d6ceb2bb0a4ea1a1588604051611e7991906127ad565b60405180910390a350505050505050565b6000611eec826040518060400160405280602081526020017f5361666545524332303a206c6f772d6c6576656c2063616c6c206661696c65648152508573ffffffffffffffffffffffffffffffffffffffff16611fda9092919063ffffffff16565b9050600081511115611f4c5780806020019051810190611f0c919061224c565b611f4b576040517f08c379a0000000000000000000000000000000000000000000000000000000008152600401611f429061278d565b60405180910390fd5b5b505050565b611fd4846323b872dd60e01b858585604051602401611f72939291906125f0565b604051602081830303815290604052907bffffffffffffffffffffffffffffffffffffffffffffffffffffffff19166020820180517bffffffffffffffffffffffffffffffffffffffffffffffffffffffff8381831617835250505050611e8a565b50505050565b6060611fe98484600085611ff2565b90509392505050565b606082471015612037576040517f08c379a000000000000000000000000000000000000000000000000000000000815260040161202e9061270d565b60405180910390fd5b61204085612106565b61207f576040517f08c379a00000000000000000000000000000000000000000000000000000000081526004016120769061274d565b60405180910390fd5b6000808673ffffffffffffffffffffffffffffffffffffffff1685876040516120a891906125be565b60006040518083038185875af1925050503d80600081146120e5576040519150601f19603f3d011682016040523d82523d6000602084013e6120ea565b606091505b50915091506120fa828286612129565b92505050949350505050565b6000808273ffffffffffffffffffffffffffffffffffffffff163b119050919050565b6060831561213957829050612189565b60008351111561214c5782518084602001fd5b816040517f08c379a000000000000000000000000000000000000000000000000000000000815260040161218091906126cb565b60405180910390fd5b9392505050565b60008135905061219f81612d7b565b92915050565b6000813590506121b481612d92565b92915050565b6000815190506121c981612d92565b92915050565b6000813590506121de81612da9565b92915050565b6000813590506121f381612dc0565b92915050565b60008135905061220881612dd7565b92915050565b60008151905061221d81612dd7565b92915050565b60006020828403121561223557600080fd5b600061224384828501612190565b91505092915050565b60006020828403121561225e57600080fd5b600061226c848285016121ba565b91505092915050565b60006020828403121561228757600080fd5b6000612295848285016121f9565b91505092915050565b6000602082840312156122b057600080fd5b60006122be8482850161220e565b91505092915050565b600080604083850312156122da57600080fd5b60006122e8858286016121f9565b92505060206122f985828601612190565b9150509250929050565b6000806000806080858703121561231957600080fd5b6000612327878288016121f9565b9450506020612338878288016121cf565b9350506040612349878288016121e4565b925050606061235a878288016121a5565b91505092959194509250565b6000806040838503121561237957600080fd5b6000612387858286016121f9565b9250506020612398858286016121f9565b9150509250929050565b600080600080600060a086880312156123ba57600080fd5b60006123c8888289016121f9565b95505060206123d9888289016121f9565b94505060406123ea888289016121a5565b93505060606123fb888289016121e4565b925050608061240c888289016121a5565b9150509295509295909350565b61242281612a3e565b82525050565b61243181612a50565b82525050565b6000612442826128f7565b61244c818561290d565b935061245c818560208601612b28565b80840191505092915050565b61247181612aaa565b82525050565b61248081612ace565b82525050565b61248f81612af2565b82525050565b61249e81612b16565b82525050565b60006124af82612902565b6124b98185612918565b93506124c9818560208601612b28565b6124d281612c02565b840191505092915050565b60006124ea602683612918565b91506124f582612c13565b604082019050919050565b600061250d602683612918565b915061251882612c62565b604082019050919050565b6000612530602083612918565b915061253b82612cb1565b602082019050919050565b6000612553601d83612918565b915061255e82612cda565b602082019050919050565b6000612576601283612918565b915061258182612d03565b602082019050919050565b6000612599602a83612918565b91506125a482612d2c565b604082019050919050565b6125b881612aa0565b82525050565b60006125ca8284612437565b915081905092915050565b60006020820190506125ea6000830184612419565b92915050565b60006060820190506126056000830186612419565b6126126020830185612419565b61261f60408301846125af565b949350505050565b600060408201905061263c6000830185612419565b61264960208301846125af565b9392505050565b60006080820190506126656000830187612468565b61267260208301866125af565b61267f60408301856125af565b61268c60608301846125af565b95945050505050565b60006020820190506126aa6000830184612477565b92915050565b60006020820190506126c56000830184612486565b92915050565b600060208201905081810360008301526126e581846124a4565b905092915050565b60006020820190508181036000830152612706816124dd565b9050919050565b6000602082019050818103600083015261272681612500565b9050919050565b6000602082019050818103600083015261274681612523565b9050919050565b6000602082019050818103600083015261276681612546565b9050919050565b6000602082019050818103600083015261278681612569565b9050919050565b600060208201905081810360008301526127a68161258c565b9050919050565b60006020820190506127c260008301846125af565b92915050565b600060a0820190506127dd60008301886125af565b6127ea6020830187612419565b6127f76040830186612419565b6128046060830185612495565b6128116080830184612495565b9695505050505050565b600060a08201905061283060008301886125af565b61283d6020830187612419565b61284a6040830186612419565b61285760608301856125af565b61286460808301846125af565b9695505050505050565b600060408201905061288360008301856125af565b6128906020830184612428565b9392505050565b60006040820190506128ac60008301856125af565b6128b960208301846125af565b9392505050565b60006060820190506128d560008301866125af565b6128e260208301856125af565b6128ef60408301846125af565b949350505050565b600081519050919050565b600081519050919050565b600081905092915050565b600082825260208201905092915050565b600061293482612aa0565b915061293f83612aa0565b9250827fffffffffffffffffffffffffffffffffffffffffffffffffffffffffffffffff0382111561297457612973612ba4565b5b828201905092915050565b600061298a82612aa0565b915061299583612aa0565b9250826129a5576129a4612bd3565b5b828204905092915050565b60006129bb82612aa0565b91506129c683612aa0565b9250817fffffffffffffffffffffffffffffffffffffffffffffffffffffffffffffffff04831182151516156129ff576129fe612ba4565b5b828202905092915050565b6000612a1582612aa0565b9150612a2083612aa0565b925082821015612a3357612a32612ba4565b5b828203905092915050565b6000612a4982612a80565b9050919050565b60008115159050919050565b6000612a6782612a3e565b9050919050565b6000612a7982612a3e565b9050919050565b600073ffffffffffffffffffffffffffffffffffffffff82169050919050565b6000819050919050565b6000612ab582612abc565b9050919050565b6000612ac782612a80565b9050919050565b6000612ad982612ae0565b9050919050565b6000612aeb82612a80565b9050919050565b6000612afd82612b04565b9050919050565b6000612b0f82612a80565b9050919050565b6000612b2182612aa0565b9050919050565b60005b83811015612b46578082015181840152602081019050612b2b565b83811115612b55576000848401525b50505050565b6000612b6682612aa0565b91507fffffffffffffffffffffffffffffffffffffffffffffffffffffffffffffffff821415612b9957612b98612ba4565b5b600182019050919050565b7f4e487b7100000000000000000000000000000000000000000000000000000000600052601160045260246000fd5b7f4e487b7100000000000000000000000000000000000000000000000000000000600052601260045260246000fd5b6000601f19601f8301169050919050565b7f4f776e61626c653a206e6577206f776e657220697320746865207a65726f206160008201527f6464726573730000000000000000000000000000000000000000000000000000602082015250565b7f416464726573733a20696e73756666696369656e742062616c616e636520666f60008201527f722063616c6c0000000000000000000000000000000000000000000000000000602082015250565b7f4f776e61626c653a2063616c6c6572206973206e6f7420746865206f776e6572600082015250565b7f416464726573733a2063616c6c20746f206e6f6e2d636f6e7472616374000000600082015250565b7f77697468647261773a206e6f7420676f6f640000000000000000000000000000600082015250565b7f5361666545524332303a204552433230206f7065726174696f6e20646964206e60008201527f6f74207375636365656400000000000000000000000000000000000000000000602082015250565b612d8481612a3e565b8114612d8f57600080fd5b50565b612d9b81612a50565b8114612da657600080fd5b50565b612db281612a5c565b8114612dbd57600080fd5b50565b612dc981612a6e565b8114612dd457600080fd5b50565b612de081612aa0565b8114612deb57600080fd5b5056fea2646970667358221220ffa974bab3f0f3258f924007efeae5b549c3ae7bf1cda5eba6d9a153ba82695064736f6c63430008040033",
  "linkReferences": {},
  "deployedLinkReferences": {}
}