{
  "_format": "hh-sol-artifact-1",
  "contractName": "KaidexMasterChef",
  "sourceName": "contracts/farming/KaidexMasterChef.sol",
  "abi": [
    {
      "inputs": [
        {
          "internalType": "contract KaiDexToken",
          "name": "_kdx",
          "type": "address"
        },
        {
          "internalType": "uint256",
          "name": "_kdxPerBlock",
          "type": "uint256"
        },
        {
          "internalType": "uint256",
          "name": "_startBlock",
          "type": "uint256"
        },
        {
          "internalType": "address",
          "name": "_bar",
          "type": "address"
        }
      ],
      "stateMutability": "nonpayable",
      "type": "constructor"
    },
    {
      "anonymous": false,
      "inputs": [
        {
          "indexed": true,
          "internalType": "address",
          "name": "user",
          "type": "address"
        },
        {
          "indexed": true,
          "internalType": "uint256",
          "name": "pid",
          "type": "uint256"
        },
        {
          "indexed": false,
          "internalType": "uint256",
          "name": "amount",
          "type": "uint256"
        }
      ],
      "name": "Deposit",
      "type": "event"
    },
    {
      "anonymous": false,
      "inputs": [
        {
          "indexed": true,
          "internalType": "address",
          "name": "user",
          "type": "address"
        },
        {
          "indexed": true,
          "internalType": "uint256",
          "name": "pid",
          "type": "uint256"
        },
        {
          "indexed": false,
          "internalType": "uint256",
          "name": "amount",
          "type": "uint256"
        }
      ],
      "name": "EmergencyWithdraw",
      "type": "event"
    },
    {
      "anonymous": false,
      "inputs": [
        {
          "indexed": true,
          "internalType": "uint256",
          "name": "pid",
          "type": "uint256"
        },
        {
          "indexed": false,
          "internalType": "uint256",
          "name": "allocPoint",
          "type": "uint256"
        },
        {
          "indexed": true,
          "internalType": "contract IERC20",
          "name": "lpToken",
          "type": "address"
        },
        {
          "indexed": true,
          "internalType": "contract IRewarder",
          "name": "rewarder",
          "type": "address"
        }
      ],
      "name": "LogPoolAddition",
      "type": "event"
    },
    {
      "anonymous": false,
      "inputs": [
        {
          "indexed": true,
          "internalType": "uint256",
          "name": "pid",
          "type": "uint256"
        },
        {
          "indexed": false,
          "internalType": "uint256",
          "name": "allocPoint",
          "type": "uint256"
        },
        {
          "indexed": true,
          "internalType": "contract IRewarder",
          "name": "rewarder",
          "type": "address"
        },
        {
          "indexed": false,
          "internalType": "bool",
          "name": "overwrite",
          "type": "bool"
        }
      ],
      "name": "LogSetPool",
      "type": "event"
    },
    {
      "anonymous": false,
      "inputs": [
        {
          "indexed": true,
          "internalType": "uint256",
          "name": "pid",
          "type": "uint256"
        },
        {
          "indexed": false,
          "internalType": "uint256",
          "name": "lastRewardBlock",
          "type": "uint256"
        },
        {
          "indexed": false,
          "internalType": "uint256",
          "name": "lpSupply",
          "type": "uint256"
        },
        {
          "indexed": false,
          "internalType": "uint256",
          "name": "accKdxPerShare",
          "type": "uint256"
        }
      ],
      "name": "LogUpdatePool",
      "type": "event"
    },
    {
      "anonymous": false,
      "inputs": [
        {
          "indexed": true,
          "internalType": "address",
          "name": "previousOwner",
          "type": "address"
        },
        {
          "indexed": true,
          "internalType": "address",
          "name": "newOwner",
          "type": "address"
        }
      ],
      "name": "OwnershipTransferred",
      "type": "event"
    },
    {
      "anonymous": false,
      "inputs": [
        {
          "indexed": true,
          "internalType": "address",
          "name": "user",
          "type": "address"
        },
        {
          "indexed": true,
          "internalType": "uint256",
          "name": "pid",
          "type": "uint256"
        },
        {
          "indexed": false,
          "internalType": "uint256",
          "name": "amount",
          "type": "uint256"
        }
      ],
      "name": "Withdraw",
      "type": "event"
    },
    {
      "inputs": [
        {
          "internalType": "uint256",
          "name": "_allocPoint",
          "type": "uint256"
        },
        {
          "internalType": "contract IERC20",
          "name": "_lpToken",
          "type": "address"
        },
        {
          "internalType": "contract IRewarder",
          "name": "_rewarder",
          "type": "address"
        },
        {
          "internalType": "bool",
          "name": "_withUpdate",
          "type": "bool"
        }
      ],
      "name": "add",
      "outputs": [],
      "stateMutability": "nonpayable",
      "type": "function"
    },
    {
      "inputs": [],
      "name": "bar",
      "outputs": [
        {
          "internalType": "address",
          "name": "",
          "type": "address"
        }
      ],
      "stateMutability": "view",
      "type": "function"
    },
    {
      "inputs": [],
      "name": "barFeePercentage",
      "outputs": [
        {
          "internalType": "uint256",
          "name": "",
          "type": "uint256"
        }
      ],
      "stateMutability": "view",
      "type": "function"
    },
    {
      "inputs": [
        {
          "internalType": "uint256",
          "name": "_pid",
          "type": "uint256"
        },
        {
          "internalType": "uint256",
          "name": "_amount",
          "type": "uint256"
        }
      ],
      "name": "deposit",
      "outputs": [],
      "stateMutability": "nonpayable",
      "type": "function"
    },
    {
      "inputs": [
        {
          "internalType": "uint256",
          "name": "_pid",
          "type": "uint256"
        }
      ],
      "name": "emergencyWithdraw",
      "outputs": [],
      "stateMutability": "nonpayable",
      "type": "function"
    },
    {
      "inputs": [
        {
          "internalType": "uint256",
          "name": "_from",
          "type": "uint256"
        },
        {
          "internalType": "uint256",
          "name": "_to",
          "type": "uint256"
        }
      ],
      "name": "getMultiplier",
      "outputs": [
        {
          "internalType": "uint256",
          "name": "",
          "type": "uint256"
        }
      ],
      "stateMutability": "pure",
      "type": "function"
    },
    {
      "inputs": [
        {
          "internalType": "uint256",
          "name": "_pid",
          "type": "uint256"
        }
      ],
      "name": "harvest",
      "outputs": [],
      "stateMutability": "nonpayable",
      "type": "function"
    },
    {
      "inputs": [],
      "name": "kdx",
      "outputs": [
        {
          "internalType": "contract KaiDexToken",
          "name": "",
          "type": "address"
        }
      ],
      "stateMutability": "view",
      "type": "function"
    },
    {
      "inputs": [],
      "name": "kdxPerBlock",
      "outputs": [
        {
          "internalType": "uint256",
          "name": "",
          "type": "uint256"
        }
      ],
      "stateMutability": "view",
      "type": "function"
    },
    {
      "inputs": [],
      "name": "massUpdatePools",
      "outputs": [],
      "stateMutability": "nonpayable",
      "type": "function"
    },
    {
      "inputs": [],
      "name": "owner",
      "outputs": [
        {
          "internalType": "address",
          "name": "",
          "type": "address"
        }
      ],
      "stateMutability": "view",
      "type": "function"
    },
    {
      "inputs": [
        {
          "internalType": "uint256",
          "name": "_pid",
          "type": "uint256"
        },
        {
          "internalType": "address",
          "name": "_user",
          "type": "address"
        }
      ],
      "name": "pendingKDX",
      "outputs": [
        {
          "internalType": "uint256",
          "name": "",
          "type": "uint256"
        }
      ],
      "stateMutability": "view",
      "type": "function"
    },
    {
      "inputs": [
        {
          "internalType": "uint256",
          "name": "",
          "type": "uint256"
        }
      ],
      "name": "poolInfo",
      "outputs": [
        {
          "internalType": "contract IERC20",
          "name": "lpToken",
          "type": "address"
        },
        {
          "internalType": "uint256",
          "name": "allocPoint",
          "type": "uint256"
        },
        {
          "internalType": "uint256",
          "name": "lastRewardBlock",
          "type": "uint256"
        },
        {
          "internalType": "uint256",
          "name": "accKDXPerShare",
          "type": "uint256"
        }
      ],
      "stateMutability": "view",
      "type": "function"
    },
    {
      "inputs": [],
      "name": "poolLength",
      "outputs": [
        {
          "internalType": "uint256",
          "name": "",
          "type": "uint256"
        }
      ],
      "stateMutability": "view",
      "type": "function"
    },
    {
      "inputs": [],
      "name": "renounceOwnership",
      "outputs": [],
      "stateMutability": "nonpayable",
      "type": "function"
    },
    {
      "inputs": [
        {
          "internalType": "uint256",
          "name": "",
          "type": "uint256"
        }
      ],
      "name": "rewarder",
      "outputs": [
        {
          "internalType": "contract IRewarder",
          "name": "",
          "type": "address"
        }
      ],
      "stateMutability": "view",
      "type": "function"
    },
    {
      "inputs": [
        {
          "internalType": "uint256",
          "name": "_pid",
          "type": "uint256"
        },
        {
          "internalType": "uint256",
          "name": "_allocPoint",
          "type": "uint256"
        },
        {
          "internalType": "bool",
          "name": "_withUpdate",
          "type": "bool"
        },
        {
          "internalType": "contract IRewarder",
          "name": "_rewarder",
          "type": "address"
        },
        {
          "internalType": "bool",
          "name": "overwrite",
          "type": "bool"
        }
      ],
      "name": "set",
      "outputs": [],
      "stateMutability": "nonpayable",
      "type": "function"
    },
    {
      "inputs": [
        {
          "internalType": "address",
          "name": "_newbar",
          "type": "address"
        }
      ],
      "name": "setNewBar",
      "outputs": [],
      "stateMutability": "nonpayable",
      "type": "function"
    },
    {
      "inputs": [
        {
          "internalType": "uint256",
          "name": "_fee",
          "type": "uint256"
        }
      ],
      "name": "setNewBarFee",
      "outputs": [],
      "stateMutability": "nonpayable",
      "type": "function"
    },
    {
      "inputs": [],
      "name": "startBlock",
      "outputs": [
        {
          "internalType": "uint256",
          "name": "",
          "type": "uint256"
        }
      ],
      "stateMutability": "view",
      "type": "function"
    },
    {
      "inputs": [],
      "name": "totalAllocPoint",
      "outputs": [
        {
          "internalType": "uint256",
          "name": "",
          "type": "uint256"
        }
      ],
      "stateMutability": "view",
      "type": "function"
    },
    {
      "inputs": [
        {
          "internalType": "address",
          "name": "newOwner",
          "type": "address"
        }
      ],
      "name": "transferOwnership",
      "outputs": [],
      "stateMutability": "nonpayable",
      "type": "function"
    },
    {
      "inputs": [
        {
          "internalType": "uint256",
          "name": "_kdxPerBlock",
          "type": "uint256"
        }
      ],
      "name": "updateKdxPerBlock",
      "outputs": [],
      "stateMutability": "nonpayable",
      "type": "function"
    },
    {
      "inputs": [
        {
          "internalType": "uint256",
          "name": "_pid",
          "type": "uint256"
        }
      ],
      "name": "updatePool",
      "outputs": [],
      "stateMutability": "nonpayable",
      "type": "function"
    },
    {
      "inputs": [
        {
          "internalType": "uint256",
          "name": "",
          "type": "uint256"
        },
        {
          "internalType": "address",
          "name": "",
          "type": "address"
        }
      ],
      "name": "userInfo",
      "outputs": [
        {
          "internalType": "uint256",
          "name": "amount",
          "type": "uint256"
        },
        {
          "internalType": "uint256",
          "name": "rewardDebt",
          "type": "uint256"
        }
      ],
      "stateMutability": "view",
      "type": "function"
    },
    {
      "inputs": [
        {
          "internalType": "uint256",
          "name": "_pid",
          "type": "uint256"
        },
        {
          "internalType": "uint256",
          "name": "_amount",
          "type": "uint256"
        }
      ],
      "name": "withdraw",
      "outputs": [],
      "stateMutability": "nonpayable",
      "type": "function"
    }
  ],
  "bytecode": "0x608060405260c860035560006007553480156200001b57600080fd5b50604051620036043803806200360483398181016040528101906200004191906200020c565b6200006162000055620000fb60201b60201c565b6200010360201b60201c565b83600160006101000a81548173ffffffffffffffffffffffffffffffffffffffff021916908373ffffffffffffffffffffffffffffffffffffffff160217905550826004819055508160088190555080600260006101000a81548173ffffffffffffffffffffffffffffffffffffffff021916908373ffffffffffffffffffffffffffffffffffffffff1602179055505050505062000318565b600033905090565b60008060009054906101000a900473ffffffffffffffffffffffffffffffffffffffff169050816000806101000a81548173ffffffffffffffffffffffffffffffffffffffff021916908373ffffffffffffffffffffffffffffffffffffffff1602179055508173ffffffffffffffffffffffffffffffffffffffff168173ffffffffffffffffffffffffffffffffffffffff167f8be0079c531659141344cd1fd0a4f28419497f9722a3daafe3b4186f6b6457e060405160405180910390a35050565b600081519050620001d881620002ca565b92915050565b600081519050620001ef81620002e4565b92915050565b6000815190506200020681620002fe565b92915050565b600080600080608085870312156200022357600080fd5b60006200023387828801620001de565b94505060206200024687828801620001f5565b93505060406200025987828801620001f5565b92505060606200026c87828801620001c7565b91505092959194509250565b60006200028582620002a0565b9050919050565b6000620002998262000278565b9050919050565b600073ffffffffffffffffffffffffffffffffffffffff82169050919050565b6000819050919050565b620002d58162000278565b8114620002e157600080fd5b50565b620002ef816200028c565b8114620002fb57600080fd5b50565b6200030981620002c0565b81146200031557600080fd5b50565b6132dc80620003286000396000f3fe608060405234801561001057600080fd5b506004361061018e5760003560e01c80638da5cb5b116100de578063dadf214411610097578063e2bbb15811610071578063e2bbb1581461044d578063e5c3eb5314610469578063f2fde38b14610485578063febb0f7e146104a15761018e565b8063dadf2144146103e3578063dae4781814610413578063ddc63262146104315761018e565b80638da5cb5b146102fc5780638dbb1e3a1461031a57806393f1a40b1461034a5780639a4de4b81461037b578063c346253d14610397578063c71b4b43146103c75761018e565b806348cd4cb11161014b578063630b5ba111610125578063630b5ba1146102ae578063662b5fbe146102b8578063715018a6146102d657806387a9b5eb146102e05761018e565b806348cd4cb11461025857806351eb05a6146102765780635312ea8e146102925761018e565b8063081e3eda146101935780631526fe27146101b157806317caf6f1146101e45780632b2c024614610202578063338e43f01461021e578063441a3e701461023c575b600080fd5b61019b6104bf565b6040516101a89190612c13565b60405180910390f35b6101cb60048036038101906101c69190612655565b6104cc565b6040516101db9493929190612a76565b60405180910390f35b6101ec61052c565b6040516101f99190612c13565b60405180910390f35b61021c60048036038101906102179190612655565b610532565b005b6102266105fc565b6040516102339190612c13565b60405180910390f35b61025660048036038101906102519190612746565b610602565b005b61026061095c565b60405161026d9190612c13565b60405180910390f35b610290600480360381019061028b9190612655565b610962565b005b6102ac60048036038101906102a79190612655565b610ce3565b005b6102b6610f55565b005b6102c0610f88565b6040516102cd9190612c13565b60405180910390f35b6102de610f8e565b005b6102fa60048036038101906102f59190612655565b611016565b005b6103046110a4565b60405161031191906129fb565b60405180910390f35b610334600480360381019061032f9190612746565b6110cd565b6040516103419190612c13565b60405180910390f35b610364600480360381019061035f91906126a7565b6110ea565b604051610372929190612cfd565b60405180910390f35b61039560048036038101906103909190612782565b61111b565b005b6103b160048036038101906103ac9190612655565b6113c0565b6040516103be9190612abb565b60405180910390f35b6103e160048036038101906103dc91906126e3565b6113ff565b005b6103fd60048036038101906103f891906126a7565b61166e565b60405161040a9190612c13565b60405180910390f35b61041b6118c8565b6040516104289190612ad6565b60405180910390f35b61044b60048036038101906104469190612655565b6118ee565b005b61046760048036038101906104629190612746565b6118fd565b005b610483600480360381019061047e9190612603565b61190c565b005b61049f600480360381019061049a9190612603565b611a5d565b005b6104a9611b55565b6040516104b691906129fb565b60405180910390f35b6000600580549050905090565b600581815481106104dc57600080fd5b90600052602060002090600402016000915090508060000160009054906101000a900473ffffffffffffffffffffffffffffffffffffffff16908060010154908060020154908060030154905084565b60075481565b61053a611b7b565b73ffffffffffffffffffffffffffffffffffffffff166105586110a4565b73ffffffffffffffffffffffffffffffffffffffff16146105ae576040517f08c379a00000000000000000000000000000000000000000000000000000000081526004016105a590612b73565b60405180910390fd5b61271081106105f2576040517f08c379a00000000000000000000000000000000000000000000000000000000081526004016105e990612bb3565b60405180910390fd5b8060038190555050565b60035481565b60006005838154811061063e577f4e487b7100000000000000000000000000000000000000000000000000000000600052603260045260246000fd5b9060005260206000209060040201905060006006600085815260200190815260200160002060003373ffffffffffffffffffffffffffffffffffffffff1673ffffffffffffffffffffffffffffffffffffffff168152602001908152602001600020905082816000015410156106e9576040517f08c379a00000000000000000000000000000000000000000000000000000000081526004016106e090612bd3565b60405180910390fd5b6106f284610962565b600061073c826001015461072e64e8d4a5100061072087600301548760000154611b8390919063ffffffff16565b611b9990919063ffffffff16565b611baf90919063ffffffff16565b90506107483382611bc5565b61075f848360000154611baf90919063ffffffff16565b826000018190555061079964e8d4a5100061078b85600301548560000154611b8390919063ffffffff16565b611b9990919063ffffffff16565b82600101819055506107f033858560000160009054906101000a900473ffffffffffffffffffffffffffffffffffffffff1673ffffffffffffffffffffffffffffffffffffffff16611de79092919063ffffffff16565b60006009868154811061082c577f4e487b7100000000000000000000000000000000000000000000000000000000600052603260045260246000fd5b9060005260206000200160009054906101000a900473ffffffffffffffffffffffffffffffffffffffff169050600073ffffffffffffffffffffffffffffffffffffffff168173ffffffffffffffffffffffffffffffffffffffff1614610905578073ffffffffffffffffffffffffffffffffffffffff1663860cbfe48733338688600001546040518663ffffffff1660e01b81526004016108d2959493929190612c81565b600060405180830381600087803b1580156108ec57600080fd5b505af1158015610900573d6000803e3d6000fd5b505050505b853373ffffffffffffffffffffffffffffffffffffffff167ff279e6a1f5e320cca91135676d9cb6e44ca8a08c0b88342bcdb1144f6511b5688760405161094c9190612c13565b60405180910390a3505050505050565b60085481565b60006005828154811061099e577f4e487b7100000000000000000000000000000000000000000000000000000000600052603260045260246000fd5b90600052602060002090600402019050806002015443116109bf5750610ce0565b60008160000160009054906101000a900473ffffffffffffffffffffffffffffffffffffffff1673ffffffffffffffffffffffffffffffffffffffff166370a08231306040518263ffffffff1660e01b8152600401610a1e91906129fb565b60206040518083038186803b158015610a3657600080fd5b505afa158015610a4a573d6000803e3d6000fd5b505050506040513d601f19601f82011682018060405250810190610a6e919061267e565b90506000811415610a89574382600201819055505050610ce0565b6000610a998360020154436110cd565b90506000610adc600754610ace8660010154610ac060045487611b8390919063ffffffff16565b611b8390919063ffffffff16565b611b9990919063ffffffff16565b9050600160009054906101000a900473ffffffffffffffffffffffffffffffffffffffff1673ffffffffffffffffffffffffffffffffffffffff166340c10f1930836040518363ffffffff1660e01b8152600401610b3b929190612a4d565b600060405180830381600087803b158015610b5557600080fd5b505af1158015610b69573d6000803e3d6000fd5b50505050600160009054906101000a900473ffffffffffffffffffffffffffffffffffffffff1673ffffffffffffffffffffffffffffffffffffffff166340c10f19600260009054906101000a900473ffffffffffffffffffffffffffffffffffffffff16610bf7612710610be960035487611b8390919063ffffffff16565b611b9990919063ffffffff16565b6040518363ffffffff1660e01b8152600401610c14929190612a4d565b600060405180830381600087803b158015610c2e57600080fd5b505af1158015610c42573d6000803e3d6000fd5b50505050610c86610c7384610c6564e8d4a5100085611b8390919063ffffffff16565b611b9990919063ffffffff16565b8560030154611e6d90919063ffffffff16565b8460030181905550438460020181905550847fcb7325664a4a3b7c7223eefc492a97ca4fdf94d46884621e5a8fae5a04b2b9d28560020154858760030154604051610cd393929190612d26565b60405180910390a2505050505b50565b600060058281548110610d1f577f4e487b7100000000000000000000000000000000000000000000000000000000600052603260045260246000fd5b9060005260206000209060040201905060006006600084815260200190815260200160002060003373ffffffffffffffffffffffffffffffffffffffff1673ffffffffffffffffffffffffffffffffffffffff1681526020019081526020016000209050610dd63382600001548460000160009054906101000a900473ffffffffffffffffffffffffffffffffffffffff1673ffffffffffffffffffffffffffffffffffffffff16611de79092919063ffffffff16565b6000816000018190555060008160010181905550823373ffffffffffffffffffffffffffffffffffffffff167fbb757047c2b5f3974fe26b7c10f732e7bce710b0952a71082702781e62ae05958360000154604051610e359190612c13565b60405180910390a3600060098481548110610e79577f4e487b7100000000000000000000000000000000000000000000000000000000600052603260045260246000fd5b9060005260206000200160009054906101000a900473ffffffffffffffffffffffffffffffffffffffff169050600073ffffffffffffffffffffffffffffffffffffffff168173ffffffffffffffffffffffffffffffffffffffff1614610f4f578073ffffffffffffffffffffffffffffffffffffffff1663860cbfe48533336000806040518663ffffffff1660e01b8152600401610f1c959493929190612c2e565b600060405180830381600087803b158015610f3657600080fd5b505af1158015610f4a573d6000803e3d6000fd5b505050505b50505050565b6000600580549050905060005b81811015610f8457610f7381610962565b80610f7d90612fc1565b9050610f62565b5050565b60045481565b610f96611b7b565b73ffffffffffffffffffffffffffffffffffffffff16610fb46110a4565b73ffffffffffffffffffffffffffffffffffffffff161461100a576040517f08c379a000000000000000000000000000000000000000000000000000000000815260040161100190612b73565b60405180910390fd5b6110146000611e83565b565b61101e611b7b565b73ffffffffffffffffffffffffffffffffffffffff1661103c6110a4565b73ffffffffffffffffffffffffffffffffffffffff1614611092576040517f08c379a000000000000000000000000000000000000000000000000000000000815260040161108990612b73565b60405180910390fd5b61109a610f55565b8060048190555050565b60008060009054906101000a900473ffffffffffffffffffffffffffffffffffffffff16905090565b60006110e28383611baf90919063ffffffff16565b905092915050565b6006602052816000526040600020602052806000526040600020600091509150508060000154908060010154905082565b611123611b7b565b73ffffffffffffffffffffffffffffffffffffffff166111416110a4565b73ffffffffffffffffffffffffffffffffffffffff1614611197576040517f08c379a000000000000000000000000000000000000000000000000000000000815260040161118e90612b73565b60405180910390fd5b82156111a6576111a5610f55565b5b6112188461120a600588815481106111e7577f4e487b7100000000000000000000000000000000000000000000000000000000600052603260045260246000fd5b906000526020600020906004020160010154600754611baf90919063ffffffff16565b611e6d90919063ffffffff16565b6007819055508360058681548110611259577f4e487b7100000000000000000000000000000000000000000000000000000000600052603260045260246000fd5b90600052602060002090600402016001018190555080156112f85781600986815481106112af577f4e487b7100000000000000000000000000000000000000000000000000000000600052603260045260246000fd5b9060005260206000200160006101000a81548173ffffffffffffffffffffffffffffffffffffffff021916908373ffffffffffffffffffffffffffffffffffffffff1602179055505b806113675760098581548110611337577f4e487b7100000000000000000000000000000000000000000000000000000000600052603260045260246000fd5b9060005260206000200160009054906101000a900473ffffffffffffffffffffffffffffffffffffffff16611369565b815b73ffffffffffffffffffffffffffffffffffffffff16857f95895a6ab1df54420d241b55243258a33e61b2194db66c1179ec521aae8e186586846040516113b1929190612cd4565b60405180910390a35050505050565b600981815481106113d057600080fd5b906000526020600020016000915054906101000a900473ffffffffffffffffffffffffffffffffffffffff1681565b611407611b7b565b73ffffffffffffffffffffffffffffffffffffffff166114256110a4565b73ffffffffffffffffffffffffffffffffffffffff161461147b576040517f08c379a000000000000000000000000000000000000000000000000000000000815260040161147290612b73565b60405180910390fd5b801561148a57611489610f55565b5b6000600854431161149d5760085461149f565b435b90506114b685600754611e6d90919063ffffffff16565b600781905550600560405180608001604052808673ffffffffffffffffffffffffffffffffffffffff1681526020018781526020018381526020016000815250908060018154018082558091505060019003906000526020600020906004020160009091909190915060008201518160000160006101000a81548173ffffffffffffffffffffffffffffffffffffffff021916908373ffffffffffffffffffffffffffffffffffffffff16021790555060208201518160010155604082015181600201556060820151816003015550506009839080600181540180825580915050600190039060005260206000200160009091909190916101000a81548173ffffffffffffffffffffffffffffffffffffffff021916908373ffffffffffffffffffffffffffffffffffffffff1602179055508273ffffffffffffffffffffffffffffffffffffffff168473ffffffffffffffffffffffffffffffffffffffff166116306001600580549050611baf90919063ffffffff16565b7f81ee0f8c5c46e2cb41984886f77a84181724abb86c32a5f6de539b07509d45e58860405161165f9190612c13565b60405180910390a45050505050565b600080600584815481106116ab577f4e487b7100000000000000000000000000000000000000000000000000000000600052603260045260246000fd5b9060005260206000209060040201905060006006600086815260200190815260200160002060008573ffffffffffffffffffffffffffffffffffffffff1673ffffffffffffffffffffffffffffffffffffffff168152602001908152602001600020905060008260030154905060008360000160009054906101000a900473ffffffffffffffffffffffffffffffffffffffff1673ffffffffffffffffffffffffffffffffffffffff166370a08231306040518263ffffffff1660e01b815260040161177791906129fb565b60206040518083038186803b15801561178f57600080fd5b505afa1580156117a3573d6000803e3d6000fd5b505050506040513d601f19601f820116820180604052508101906117c7919061267e565b90508360020154431180156117dd575060008114155b156118785760006117f28560020154436110cd565b90506000611835600754611827886001015461181960045487611b8390919063ffffffff16565b611b8390919063ffffffff16565b611b9990919063ffffffff16565b90506118736118648461185664e8d4a5100085611b8390919063ffffffff16565b611b9990919063ffffffff16565b85611e6d90919063ffffffff16565b935050505b6118bc83600101546118ae64e8d4a510006118a0868860000154611b8390919063ffffffff16565b611b9990919063ffffffff16565b611baf90919063ffffffff16565b94505050505092915050565b600160009054906101000a900473ffffffffffffffffffffffffffffffffffffffff1681565b6118fa81600033611f47565b50565b611908828233611f47565b5050565b611914611b7b565b73ffffffffffffffffffffffffffffffffffffffff166119326110a4565b73ffffffffffffffffffffffffffffffffffffffff1614611988576040517f08c379a000000000000000000000000000000000000000000000000000000000815260040161197f90612b73565b60405180910390fd5b600260009054906101000a900473ffffffffffffffffffffffffffffffffffffffff1673ffffffffffffffffffffffffffffffffffffffff168173ffffffffffffffffffffffffffffffffffffffff161415611a19576040517f08c379a0000000000000000000000000000000000000000000000000000000008152600401611a1090612b53565b60405180910390fd5b80600260006101000a81548173ffffffffffffffffffffffffffffffffffffffff021916908373ffffffffffffffffffffffffffffffffffffffff16021790555050565b611a65611b7b565b73ffffffffffffffffffffffffffffffffffffffff16611a836110a4565b73ffffffffffffffffffffffffffffffffffffffff1614611ad9576040517f08c379a0000000000000000000000000000000000000000000000000000000008152600401611ad090612b73565b60405180910390fd5b600073ffffffffffffffffffffffffffffffffffffffff168173ffffffffffffffffffffffffffffffffffffffff161415611b49576040517f08c379a0000000000000000000000000000000000000000000000000000000008152600401611b4090612b13565b60405180910390fd5b611b5281611e83565b50565b600260009054906101000a900473ffffffffffffffffffffffffffffffffffffffff1681565b600033905090565b60008183611b919190612e16565b905092915050565b60008183611ba79190612de5565b905092915050565b60008183611bbd9190612e70565b905092915050565b6000600160009054906101000a900473ffffffffffffffffffffffffffffffffffffffff1673ffffffffffffffffffffffffffffffffffffffff166370a08231306040518263ffffffff1660e01b8152600401611c2291906129fb565b60206040518083038186803b158015611c3a57600080fd5b505afa158015611c4e573d6000803e3d6000fd5b505050506040513d601f19601f82011682018060405250810190611c72919061267e565b905080821115611d3157600160009054906101000a900473ffffffffffffffffffffffffffffffffffffffff1673ffffffffffffffffffffffffffffffffffffffff1663a9059cbb84836040518363ffffffff1660e01b8152600401611cd9929190612a4d565b602060405180830381600087803b158015611cf357600080fd5b505af1158015611d07573d6000803e3d6000fd5b505050506040513d601f19601f82011682018060405250810190611d2b919061262c565b50611de2565b600160009054906101000a900473ffffffffffffffffffffffffffffffffffffffff1673ffffffffffffffffffffffffffffffffffffffff1663a9059cbb84846040518363ffffffff1660e01b8152600401611d8e929190612a4d565b602060405180830381600087803b158015611da857600080fd5b505af1158015611dbc573d6000803e3d6000fd5b505050506040513d601f19601f82011682018060405250810190611de0919061262c565b505b505050565b611e688363a9059cbb60e01b8484604051602401611e06929190612a4d565b604051602081830303815290604052907bffffffffffffffffffffffffffffffffffffffffffffffffffffffff19166020820180517bffffffffffffffffffffffffffffffffffffffffffffffffffffffff838183161783525050505061226a565b505050565b60008183611e7b9190612d8f565b905092915050565b60008060009054906101000a900473ffffffffffffffffffffffffffffffffffffffff169050816000806101000a81548173ffffffffffffffffffffffffffffffffffffffff021916908373ffffffffffffffffffffffffffffffffffffffff1602179055508173ffffffffffffffffffffffffffffffffffffffff168173ffffffffffffffffffffffffffffffffffffffff167f8be0079c531659141344cd1fd0a4f28419497f9722a3daafe3b4186f6b6457e060405160405180910390a35050565b600060058481548110611f83577f4e487b7100000000000000000000000000000000000000000000000000000000600052603260045260246000fd5b9060005260206000209060040201905060006006600086815260200190815260200160002060008473ffffffffffffffffffffffffffffffffffffffff1673ffffffffffffffffffffffffffffffffffffffff1681526020019081526020016000209050611ff085610962565b6000808260000154111561205357612046826001015461203864e8d4a5100061202a87600301548760000154611b8390919063ffffffff16565b611b9990919063ffffffff16565b611baf90919063ffffffff16565b90506120528482611bc5565b5b6120a48430878660000160009054906101000a900473ffffffffffffffffffffffffffffffffffffffff1673ffffffffffffffffffffffffffffffffffffffff16612331909392919063ffffffff16565b6120bb858360000154611e6d90919063ffffffff16565b82600001819055506120f564e8d4a510006120e785600301548560000154611b8390919063ffffffff16565b611b9990919063ffffffff16565b8260010181905550600060098781548110612139577f4e487b7100000000000000000000000000000000000000000000000000000000600052603260045260246000fd5b9060005260206000200160009054906101000a900473ffffffffffffffffffffffffffffffffffffffff169050600073ffffffffffffffffffffffffffffffffffffffff168173ffffffffffffffffffffffffffffffffffffffff1614612212578073ffffffffffffffffffffffffffffffffffffffff1663860cbfe48887888688600001546040518663ffffffff1660e01b81526004016121df959493929190612c81565b600060405180830381600087803b1580156121f957600080fd5b505af115801561220d573d6000803e3d6000fd5b505050505b868573ffffffffffffffffffffffffffffffffffffffff167f90890809c654f11d6e72a28fa60149770a0d11ec6c92319d6ceb2bb0a4ea1a15886040516122599190612c13565b60405180910390a350505050505050565b60006122cc826040518060400160405280602081526020017f5361666545524332303a206c6f772d6c6576656c2063616c6c206661696c65648152508573ffffffffffffffffffffffffffffffffffffffff166123ba9092919063ffffffff16565b905060008151111561232c57808060200190518101906122ec919061262c565b61232b576040517f08c379a000000000000000000000000000000000000000000000000000000000815260040161232290612bf3565b60405180910390fd5b5b505050565b6123b4846323b872dd60e01b85858560405160240161235293929190612a16565b604051602081830303815290604052907bffffffffffffffffffffffffffffffffffffffffffffffffffffffff19166020820180517bffffffffffffffffffffffffffffffffffffffffffffffffffffffff838183161783525050505061226a565b50505050565b60606123c984846000856123d2565b90509392505050565b606082471015612417576040517f08c379a000000000000000000000000000000000000000000000000000000000815260040161240e90612b33565b60405180910390fd5b612420856124e6565b61245f576040517f08c379a000000000000000000000000000000000000000000000000000000000815260040161245690612b93565b60405180910390fd5b6000808673ffffffffffffffffffffffffffffffffffffffff16858760405161248891906129e4565b60006040518083038185875af1925050503d80600081146124c5576040519150601f19603f3d011682016040523d82523d6000602084013e6124ca565b606091505b50915091506124da828286612509565b92505050949350505050565b6000808273ffffffffffffffffffffffffffffffffffffffff163b119050919050565b6060831561251957829050612569565b60008351111561252c5782518084602001fd5b816040517f08c379a00000000000000000000000000000000000000000000000000000000081526004016125609190612af1565b60405180910390fd5b9392505050565b60008135905061257f81613233565b92915050565b6000813590506125948161324a565b92915050565b6000815190506125a98161324a565b92915050565b6000813590506125be81613261565b92915050565b6000813590506125d381613278565b92915050565b6000813590506125e88161328f565b92915050565b6000815190506125fd8161328f565b92915050565b60006020828403121561261557600080fd5b600061262384828501612570565b91505092915050565b60006020828403121561263e57600080fd5b600061264c8482850161259a565b91505092915050565b60006020828403121561266757600080fd5b6000612675848285016125d9565b91505092915050565b60006020828403121561269057600080fd5b600061269e848285016125ee565b91505092915050565b600080604083850312156126ba57600080fd5b60006126c8858286016125d9565b92505060206126d985828601612570565b9150509250929050565b600080600080608085870312156126f957600080fd5b6000612707878288016125d9565b9450506020612718878288016125af565b9350506040612729878288016125c4565b925050606061273a87828801612585565b91505092959194509250565b6000806040838503121561275957600080fd5b6000612767858286016125d9565b9250506020612778858286016125d9565b9150509250929050565b600080600080600060a0868803121561279a57600080fd5b60006127a8888289016125d9565b95505060206127b9888289016125d9565b94505060406127ca88828901612585565b93505060606127db888289016125c4565b92505060806127ec88828901612585565b9150509295509295909350565b61280281612ea4565b82525050565b61281181612eb6565b82525050565b600061282282612d5d565b61282c8185612d73565b935061283c818560208601612f8e565b80840191505092915050565b61285181612f10565b82525050565b61286081612f34565b82525050565b61286f81612f58565b82525050565b61287e81612f7c565b82525050565b600061288f82612d68565b6128998185612d7e565b93506128a9818560208601612f8e565b6128b281613068565b840191505092915050565b60006128ca602683612d7e565b91506128d582613079565b604082019050919050565b60006128ed602683612d7e565b91506128f8826130c8565b604082019050919050565b6000612910600983612d7e565b915061291b82613117565b602082019050919050565b6000612933602083612d7e565b915061293e82613140565b602082019050919050565b6000612956601d83612d7e565b915061296182613169565b602082019050919050565b6000612979601783612d7e565b915061298482613192565b602082019050919050565b600061299c601283612d7e565b91506129a7826131bb565b602082019050919050565b60006129bf602a83612d7e565b91506129ca826131e4565b604082019050919050565b6129de81612f06565b82525050565b60006129f08284612817565b915081905092915050565b6000602082019050612a1060008301846127f9565b92915050565b6000606082019050612a2b60008301866127f9565b612a3860208301856127f9565b612a4560408301846129d5565b949350505050565b6000604082019050612a6260008301856127f9565b612a6f60208301846129d5565b9392505050565b6000608082019050612a8b6000830187612848565b612a9860208301866129d5565b612aa560408301856129d5565b612ab260608301846129d5565b95945050505050565b6000602082019050612ad06000830184612857565b92915050565b6000602082019050612aeb6000830184612866565b92915050565b60006020820190508181036000830152612b0b8184612884565b905092915050565b60006020820190508181036000830152612b2c816128bd565b9050919050565b60006020820190508181036000830152612b4c816128e0565b9050919050565b60006020820190508181036000830152612b6c81612903565b9050919050565b60006020820190508181036000830152612b8c81612926565b9050919050565b60006020820190508181036000830152612bac81612949565b9050919050565b60006020820190508181036000830152612bcc8161296c565b9050919050565b60006020820190508181036000830152612bec8161298f565b9050919050565b60006020820190508181036000830152612c0c816129b2565b9050919050565b6000602082019050612c2860008301846129d5565b92915050565b600060a082019050612c4360008301886129d5565b612c5060208301876127f9565b612c5d60408301866127f9565b612c6a6060830185612875565b612c776080830184612875565b9695505050505050565b600060a082019050612c9660008301886129d5565b612ca360208301876127f9565b612cb060408301866127f9565b612cbd60608301856129d5565b612cca60808301846129d5565b9695505050505050565b6000604082019050612ce960008301856129d5565b612cf66020830184612808565b9392505050565b6000604082019050612d1260008301856129d5565b612d1f60208301846129d5565b9392505050565b6000606082019050612d3b60008301866129d5565b612d4860208301856129d5565b612d5560408301846129d5565b949350505050565b600081519050919050565b600081519050919050565b600081905092915050565b600082825260208201905092915050565b6000612d9a82612f06565b9150612da583612f06565b9250827fffffffffffffffffffffffffffffffffffffffffffffffffffffffffffffffff03821115612dda57612dd961300a565b5b828201905092915050565b6000612df082612f06565b9150612dfb83612f06565b925082612e0b57612e0a613039565b5b828204905092915050565b6000612e2182612f06565b9150612e2c83612f06565b9250817fffffffffffffffffffffffffffffffffffffffffffffffffffffffffffffffff0483118215151615612e6557612e6461300a565b5b828202905092915050565b6000612e7b82612f06565b9150612e8683612f06565b925082821015612e9957612e9861300a565b5b828203905092915050565b6000612eaf82612ee6565b9050919050565b60008115159050919050565b6000612ecd82612ea4565b9050919050565b6000612edf82612ea4565b9050919050565b600073ffffffffffffffffffffffffffffffffffffffff82169050919050565b6000819050919050565b6000612f1b82612f22565b9050919050565b6000612f2d82612ee6565b9050919050565b6000612f3f82612f46565b9050919050565b6000612f5182612ee6565b9050919050565b6000612f6382612f6a565b9050919050565b6000612f7582612ee6565b9050919050565b6000612f8782612f06565b9050919050565b60005b83811015612fac578082015181840152602081019050612f91565b83811115612fbb576000848401525b50505050565b6000612fcc82612f06565b91507fffffffffffffffffffffffffffffffffffffffffffffffffffffffffffffffff821415612fff57612ffe61300a565b5b600182019050919050565b7f4e487b7100000000000000000000000000000000000000000000000000000000600052601160045260246000fd5b7f4e487b7100000000000000000000000000000000000000000000000000000000600052601260045260246000fd5b6000601f19601f8301169050919050565b7f4f776e61626c653a206e6577206f776e657220697320746865207a65726f206160008201527f6464726573730000000000000000000000000000000000000000000000000000602082015250565b7f416464726573733a20696e73756666696369656e742062616c616e636520666f60008201527f722063616c6c0000000000000000000000000000000000000000000000000000602082015250565b7f696e76616c69643f3f0000000000000000000000000000000000000000000000600082015250565b7f4f776e61626c653a2063616c6c6572206973206e6f7420746865206f776e6572600082015250565b7f416464726573733a2063616c6c20746f206e6f6e2d636f6e7472616374000000600082015250565b7f4d6178696d756d2066656520706563656e746167652121000000000000000000600082015250565b7f77697468647261773a206e6f7420676f6f640000000000000000000000000000600082015250565b7f5361666545524332303a204552433230206f7065726174696f6e20646964206e60008201527f6f74207375636365656400000000000000000000000000000000000000000000602082015250565b61323c81612ea4565b811461324757600080fd5b50565b61325381612eb6565b811461325e57600080fd5b50565b61326a81612ec2565b811461327557600080fd5b50565b61328181612ed4565b811461328c57600080fd5b50565b61329881612f06565b81146132a357600080fd5b5056fea2646970667358221220393bd84d66cda91b76ab920defda49bc69495ec0cb8496ac81a8053b441cdc2a64736f6c63430008040033",
  "linkReferences": {},
  "deployedLinkReferences": {}
}