{
  "_format": "hh-sol-artifact-1",
  "contractName": "KaidexMasterChef",
  "sourceName": "contracts/farming/KaidexMasterChef.sol",
  "abi": [
    {
      "inputs": [
        {
          "internalType": "contract KaiDexToken",
          "name": "_kdx",
          "type": "address"
        },
        {
          "internalType": "uint256",
          "name": "_kdxPerBlock",
          "type": "uint256"
        },
        {
          "internalType": "uint256",
          "name": "_startBlock",
          "type": "uint256"
        },
        {
          "internalType": "address",
          "name": "_bar",
          "type": "address"
        }
      ],
      "stateMutability": "nonpayable",
      "type": "constructor"
    },
    {
      "anonymous": false,
      "inputs": [
        {
          "indexed": true,
          "internalType": "address",
          "name": "user",
          "type": "address"
        },
        {
          "indexed": true,
          "internalType": "uint256",
          "name": "pid",
          "type": "uint256"
        },
        {
          "indexed": false,
          "internalType": "uint256",
          "name": "amount",
          "type": "uint256"
        }
      ],
      "name": "Deposit",
      "type": "event"
    },
    {
      "anonymous": false,
      "inputs": [
        {
          "indexed": true,
          "internalType": "address",
          "name": "user",
          "type": "address"
        },
        {
          "indexed": true,
          "internalType": "uint256",
          "name": "pid",
          "type": "uint256"
        },
        {
          "indexed": false,
          "internalType": "uint256",
          "name": "amount",
          "type": "uint256"
        }
      ],
      "name": "EmergencyWithdraw",
      "type": "event"
    },
    {
      "anonymous": false,
      "inputs": [
        {
          "indexed": true,
          "internalType": "uint256",
          "name": "pid",
          "type": "uint256"
        },
        {
          "indexed": false,
          "internalType": "uint256",
          "name": "allocPoint",
          "type": "uint256"
        },
        {
          "indexed": true,
          "internalType": "contract IERC20",
          "name": "lpToken",
          "type": "address"
        },
        {
          "indexed": true,
          "internalType": "contract IRewarder",
          "name": "rewarder",
          "type": "address"
        }
      ],
      "name": "LogPoolAddition",
      "type": "event"
    },
    {
      "anonymous": false,
      "inputs": [
        {
          "indexed": true,
          "internalType": "uint256",
          "name": "pid",
          "type": "uint256"
        },
        {
          "indexed": false,
          "internalType": "uint256",
          "name": "allocPoint",
          "type": "uint256"
        },
        {
          "indexed": true,
          "internalType": "contract IRewarder",
          "name": "rewarder",
          "type": "address"
        },
        {
          "indexed": false,
          "internalType": "bool",
          "name": "overwrite",
          "type": "bool"
        }
      ],
      "name": "LogSetPool",
      "type": "event"
    },
    {
      "anonymous": false,
      "inputs": [
        {
          "indexed": true,
          "internalType": "uint256",
          "name": "pid",
          "type": "uint256"
        },
        {
          "indexed": false,
          "internalType": "uint256",
          "name": "lastRewardBlock",
          "type": "uint256"
        },
        {
          "indexed": false,
          "internalType": "uint256",
          "name": "lpSupply",
          "type": "uint256"
        },
        {
          "indexed": false,
          "internalType": "uint256",
          "name": "accKdxPerShare",
          "type": "uint256"
        }
      ],
      "name": "LogUpdatePool",
      "type": "event"
    },
    {
      "anonymous": false,
      "inputs": [
        {
          "indexed": true,
          "internalType": "address",
          "name": "previousOwner",
          "type": "address"
        },
        {
          "indexed": true,
          "internalType": "address",
          "name": "newOwner",
          "type": "address"
        }
      ],
      "name": "OwnershipTransferred",
      "type": "event"
    },
    {
      "anonymous": false,
      "inputs": [
        {
          "indexed": true,
          "internalType": "address",
          "name": "user",
          "type": "address"
        },
        {
          "indexed": true,
          "internalType": "uint256",
          "name": "pid",
          "type": "uint256"
        },
        {
          "indexed": false,
          "internalType": "uint256",
          "name": "amount",
          "type": "uint256"
        }
      ],
      "name": "Withdraw",
      "type": "event"
    },
    {
      "inputs": [
        {
          "internalType": "uint256",
          "name": "_allocPoint",
          "type": "uint256"
        },
        {
          "internalType": "contract IERC20",
          "name": "_lpToken",
          "type": "address"
        },
        {
          "internalType": "contract IRewarder",
          "name": "_rewarder",
          "type": "address"
        },
        {
          "internalType": "bool",
          "name": "_withUpdate",
          "type": "bool"
        }
      ],
      "name": "add",
      "outputs": [],
      "stateMutability": "nonpayable",
      "type": "function"
    },
    {
      "inputs": [],
      "name": "bar",
      "outputs": [
        {
          "internalType": "address",
          "name": "",
          "type": "address"
        }
      ],
      "stateMutability": "view",
      "type": "function"
    },
    {
      "inputs": [],
      "name": "barFeePercentage",
      "outputs": [
        {
          "internalType": "uint256",
          "name": "",
          "type": "uint256"
        }
      ],
      "stateMutability": "view",
      "type": "function"
    },
    {
      "inputs": [
        {
          "internalType": "uint256",
          "name": "_pid",
          "type": "uint256"
        },
        {
          "internalType": "uint256",
          "name": "_amount",
          "type": "uint256"
        }
      ],
      "name": "deposit",
      "outputs": [],
      "stateMutability": "nonpayable",
      "type": "function"
    },
    {
      "inputs": [
        {
          "internalType": "uint256",
          "name": "_pid",
          "type": "uint256"
        }
      ],
      "name": "emergencyWithdraw",
      "outputs": [],
      "stateMutability": "nonpayable",
      "type": "function"
    },
    {
      "inputs": [
        {
          "internalType": "uint256",
          "name": "_from",
          "type": "uint256"
        },
        {
          "internalType": "uint256",
          "name": "_to",
          "type": "uint256"
        }
      ],
      "name": "getMultiplier",
      "outputs": [
        {
          "internalType": "uint256",
          "name": "",
          "type": "uint256"
        }
      ],
      "stateMutability": "pure",
      "type": "function"
    },
    {
      "inputs": [
        {
          "internalType": "uint256",
          "name": "_pid",
          "type": "uint256"
        }
      ],
      "name": "harvest",
      "outputs": [],
      "stateMutability": "nonpayable",
      "type": "function"
    },
    {
      "inputs": [],
      "name": "kdx",
      "outputs": [
        {
          "internalType": "contract KaiDexToken",
          "name": "",
          "type": "address"
        }
      ],
      "stateMutability": "view",
      "type": "function"
    },
    {
      "inputs": [],
      "name": "kdxPerBlock",
      "outputs": [
        {
          "internalType": "uint256",
          "name": "",
          "type": "uint256"
        }
      ],
      "stateMutability": "view",
      "type": "function"
    },
    {
      "inputs": [],
      "name": "massUpdatePools",
      "outputs": [],
      "stateMutability": "nonpayable",
      "type": "function"
    },
    {
      "inputs": [],
      "name": "owner",
      "outputs": [
        {
          "internalType": "address",
          "name": "",
          "type": "address"
        }
      ],
      "stateMutability": "view",
      "type": "function"
    },
    {
      "inputs": [
        {
          "internalType": "uint256",
          "name": "_pid",
          "type": "uint256"
        },
        {
          "internalType": "address",
          "name": "_user",
          "type": "address"
        }
      ],
      "name": "pendingKDX",
      "outputs": [
        {
          "internalType": "uint256",
          "name": "",
          "type": "uint256"
        }
      ],
      "stateMutability": "view",
      "type": "function"
    },
    {
      "inputs": [
        {
          "internalType": "uint256",
          "name": "",
          "type": "uint256"
        }
      ],
      "name": "poolInfo",
      "outputs": [
        {
          "internalType": "contract IERC20",
          "name": "lpToken",
          "type": "address"
        },
        {
          "internalType": "uint256",
          "name": "allocPoint",
          "type": "uint256"
        },
        {
          "internalType": "uint256",
          "name": "lastRewardBlock",
          "type": "uint256"
        },
        {
          "internalType": "uint256",
          "name": "accKDXPerShare",
          "type": "uint256"
        }
      ],
      "stateMutability": "view",
      "type": "function"
    },
    {
      "inputs": [],
      "name": "poolLength",
      "outputs": [
        {
          "internalType": "uint256",
          "name": "",
          "type": "uint256"
        }
      ],
      "stateMutability": "view",
      "type": "function"
    },
    {
      "inputs": [],
      "name": "renounceOwnership",
      "outputs": [],
      "stateMutability": "nonpayable",
      "type": "function"
    },
    {
      "inputs": [
        {
          "internalType": "uint256",
          "name": "",
          "type": "uint256"
        }
      ],
      "name": "rewarder",
      "outputs": [
        {
          "internalType": "contract IRewarder",
          "name": "",
          "type": "address"
        }
      ],
      "stateMutability": "view",
      "type": "function"
    },
    {
      "inputs": [
        {
          "internalType": "uint256",
          "name": "_pid",
          "type": "uint256"
        },
        {
          "internalType": "uint256",
          "name": "_allocPoint",
          "type": "uint256"
        },
        {
          "internalType": "bool",
          "name": "_withUpdate",
          "type": "bool"
        },
        {
          "internalType": "contract IRewarder",
          "name": "_rewarder",
          "type": "address"
        },
        {
          "internalType": "bool",
          "name": "overwrite",
          "type": "bool"
        }
      ],
      "name": "set",
      "outputs": [],
      "stateMutability": "nonpayable",
      "type": "function"
    },
    {
      "inputs": [
        {
          "internalType": "address",
          "name": "_newbar",
          "type": "address"
        }
      ],
      "name": "setNewBar",
      "outputs": [],
      "stateMutability": "nonpayable",
      "type": "function"
    },
    {
      "inputs": [
        {
          "internalType": "uint256",
          "name": "_fee",
          "type": "uint256"
        }
      ],
      "name": "setNewBarFee",
      "outputs": [],
      "stateMutability": "nonpayable",
      "type": "function"
    },
    {
      "inputs": [],
      "name": "startBlock",
      "outputs": [
        {
          "internalType": "uint256",
          "name": "",
          "type": "uint256"
        }
      ],
      "stateMutability": "view",
      "type": "function"
    },
    {
      "inputs": [],
      "name": "totalAllocPoint",
      "outputs": [
        {
          "internalType": "uint256",
          "name": "",
          "type": "uint256"
        }
      ],
      "stateMutability": "view",
      "type": "function"
    },
    {
      "inputs": [
        {
          "internalType": "address",
          "name": "newOwner",
          "type": "address"
        }
      ],
      "name": "transferOwnership",
      "outputs": [],
      "stateMutability": "nonpayable",
      "type": "function"
    },
    {
      "inputs": [
        {
          "internalType": "uint256",
          "name": "_kdxPerBlock",
          "type": "uint256"
        }
      ],
      "name": "updateKdxPerBlock",
      "outputs": [],
      "stateMutability": "nonpayable",
      "type": "function"
    },
    {
      "inputs": [
        {
          "internalType": "uint256",
          "name": "_pid",
          "type": "uint256"
        }
      ],
      "name": "updatePool",
      "outputs": [],
      "stateMutability": "nonpayable",
      "type": "function"
    },
    {
      "inputs": [
        {
          "internalType": "uint256",
          "name": "",
          "type": "uint256"
        },
        {
          "internalType": "address",
          "name": "",
          "type": "address"
        }
      ],
      "name": "userInfo",
      "outputs": [
        {
          "internalType": "uint256",
          "name": "amount",
          "type": "uint256"
        },
        {
          "internalType": "uint256",
          "name": "rewardDebt",
          "type": "uint256"
        }
      ],
      "stateMutability": "view",
      "type": "function"
    },
    {
      "inputs": [
        {
          "internalType": "uint256",
          "name": "_pid",
          "type": "uint256"
        },
        {
          "internalType": "uint256",
          "name": "_amount",
          "type": "uint256"
        }
      ],
      "name": "withdraw",
      "outputs": [],
      "stateMutability": "nonpayable",
      "type": "function"
    }
  ],
  "bytecode": "0x608060405260c860035560006007553480156200001b57600080fd5b506040516200365b3803806200365b83398181016040528101906200004191906200020c565b6200006162000055620000fb60201b60201c565b6200010360201b60201c565b83600160006101000a81548173ffffffffffffffffffffffffffffffffffffffff021916908373ffffffffffffffffffffffffffffffffffffffff160217905550826004819055508160088190555080600260006101000a81548173ffffffffffffffffffffffffffffffffffffffff021916908373ffffffffffffffffffffffffffffffffffffffff1602179055505050505062000318565b600033905090565b60008060009054906101000a900473ffffffffffffffffffffffffffffffffffffffff169050816000806101000a81548173ffffffffffffffffffffffffffffffffffffffff021916908373ffffffffffffffffffffffffffffffffffffffff1602179055508173ffffffffffffffffffffffffffffffffffffffff168173ffffffffffffffffffffffffffffffffffffffff167f8be0079c531659141344cd1fd0a4f28419497f9722a3daafe3b4186f6b6457e060405160405180910390a35050565b600081519050620001d881620002ca565b92915050565b600081519050620001ef81620002e4565b92915050565b6000815190506200020681620002fe565b92915050565b600080600080608085870312156200022357600080fd5b60006200023387828801620001de565b94505060206200024687828801620001f5565b93505060406200025987828801620001f5565b92505060606200026c87828801620001c7565b91505092959194509250565b60006200028582620002a0565b9050919050565b6000620002998262000278565b9050919050565b600073ffffffffffffffffffffffffffffffffffffffff82169050919050565b6000819050919050565b620002d58162000278565b8114620002e157600080fd5b50565b620002ef816200028c565b8114620002fb57600080fd5b50565b6200030981620002c0565b81146200031557600080fd5b50565b61333380620003286000396000f3fe608060405234801561001057600080fd5b506004361061018e5760003560e01c80638da5cb5b116100de578063dadf214411610097578063e2bbb15811610071578063e2bbb1581461044d578063e5c3eb5314610469578063f2fde38b14610485578063febb0f7e146104a15761018e565b8063dadf2144146103e3578063dae4781814610413578063ddc63262146104315761018e565b80638da5cb5b146102fc5780638dbb1e3a1461031a57806393f1a40b1461034a5780639a4de4b81461037b578063c346253d14610397578063c71b4b43146103c75761018e565b806348cd4cb11161014b578063630b5ba111610125578063630b5ba1146102ae578063662b5fbe146102b8578063715018a6146102d657806387a9b5eb146102e05761018e565b806348cd4cb11461025857806351eb05a6146102765780635312ea8e146102925761018e565b8063081e3eda146101935780631526fe27146101b157806317caf6f1146101e45780632b2c024614610202578063338e43f01461021e578063441a3e701461023c575b600080fd5b61019b6104bf565b6040516101a89190612c6a565b60405180910390f35b6101cb60048036038101906101c691906126ac565b6104cc565b6040516101db9493929190612acd565b60405180910390f35b6101ec61052c565b6040516101f99190612c6a565b60405180910390f35b61021c600480360381019061021791906126ac565b610532565b005b6102266105fc565b6040516102339190612c6a565b60405180910390f35b6102566004803603810190610251919061279d565b610602565b005b61026061095c565b60405161026d9190612c6a565b60405180910390f35b610290600480360381019061028b91906126ac565b610962565b005b6102ac60048036038101906102a791906126ac565b610d3a565b005b6102b6610fac565b005b6102c0610fdf565b6040516102cd9190612c6a565b60405180910390f35b6102de610fe5565b005b6102fa60048036038101906102f591906126ac565b61106d565b005b6103046110fb565b6040516103119190612a52565b60405180910390f35b610334600480360381019061032f919061279d565b611124565b6040516103419190612c6a565b60405180910390f35b610364600480360381019061035f91906126fe565b611141565b604051610372929190612d54565b60405180910390f35b610395600480360381019061039091906127d9565b611172565b005b6103b160048036038101906103ac91906126ac565b611417565b6040516103be9190612b12565b60405180910390f35b6103e160048036038101906103dc919061273a565b611456565b005b6103fd60048036038101906103f891906126fe565b6116c5565b60405161040a9190612c6a565b60405180910390f35b61041b61191f565b6040516104289190612b2d565b60405180910390f35b61044b600480360381019061044691906126ac565b611945565b005b6104676004803603810190610462919061279d565b611954565b005b610483600480360381019061047e919061265a565b611963565b005b61049f600480360381019061049a919061265a565b611ab4565b005b6104a9611bac565b6040516104b69190612a52565b60405180910390f35b6000600580549050905090565b600581815481106104dc57600080fd5b90600052602060002090600402016000915090508060000160009054906101000a900473ffffffffffffffffffffffffffffffffffffffff16908060010154908060020154908060030154905084565b60075481565b61053a611bd2565b73ffffffffffffffffffffffffffffffffffffffff166105586110fb565b73ffffffffffffffffffffffffffffffffffffffff16146105ae576040517f08c379a00000000000000000000000000000000000000000000000000000000081526004016105a590612bca565b60405180910390fd5b61271081106105f2576040517f08c379a00000000000000000000000000000000000000000000000000000000081526004016105e990612c0a565b60405180910390fd5b8060038190555050565b60035481565b60006005838154811061063e577f4e487b7100000000000000000000000000000000000000000000000000000000600052603260045260246000fd5b9060005260206000209060040201905060006006600085815260200190815260200160002060003373ffffffffffffffffffffffffffffffffffffffff1673ffffffffffffffffffffffffffffffffffffffff168152602001908152602001600020905082816000015410156106e9576040517f08c379a00000000000000000000000000000000000000000000000000000000081526004016106e090612c2a565b60405180910390fd5b6106f284610962565b600061073c826001015461072e64e8d4a5100061072087600301548760000154611bda90919063ffffffff16565b611bf090919063ffffffff16565b611c0690919063ffffffff16565b90506107483382611c1c565b61075f848360000154611c0690919063ffffffff16565b826000018190555061079964e8d4a5100061078b85600301548560000154611bda90919063ffffffff16565b611bf090919063ffffffff16565b82600101819055506107f033858560000160009054906101000a900473ffffffffffffffffffffffffffffffffffffffff1673ffffffffffffffffffffffffffffffffffffffff16611e3e9092919063ffffffff16565b60006009868154811061082c577f4e487b7100000000000000000000000000000000000000000000000000000000600052603260045260246000fd5b9060005260206000200160009054906101000a900473ffffffffffffffffffffffffffffffffffffffff169050600073ffffffffffffffffffffffffffffffffffffffff168173ffffffffffffffffffffffffffffffffffffffff1614610905578073ffffffffffffffffffffffffffffffffffffffff1663860cbfe48733338688600001546040518663ffffffff1660e01b81526004016108d2959493929190612cd8565b600060405180830381600087803b1580156108ec57600080fd5b505af1158015610900573d6000803e3d6000fd5b505050505b853373ffffffffffffffffffffffffffffffffffffffff167ff279e6a1f5e320cca91135676d9cb6e44ca8a08c0b88342bcdb1144f6511b5688760405161094c9190612c6a565b60405180910390a3505050505050565b60085481565b60006005828154811061099e577f4e487b7100000000000000000000000000000000000000000000000000000000600052603260045260246000fd5b90600052602060002090600402019050806002015443116109bf5750610d37565b60008160000160009054906101000a900473ffffffffffffffffffffffffffffffffffffffff1673ffffffffffffffffffffffffffffffffffffffff166370a08231306040518263ffffffff1660e01b8152600401610a1e9190612a52565b60206040518083038186803b158015610a3657600080fd5b505afa158015610a4a573d6000803e3d6000fd5b505050506040513d601f19601f82011682018060405250810190610a6e91906126d5565b90506000811415610a89574382600201819055505050610d37565b6000610a99836002015443611124565b90506000610adc600754610ace8660010154610ac060045487611bda90919063ffffffff16565b611bda90919063ffffffff16565b611bf090919063ffffffff16565b9050600160009054906101000a900473ffffffffffffffffffffffffffffffffffffffff1673ffffffffffffffffffffffffffffffffffffffff166340c10f1930836040518363ffffffff1660e01b8152600401610b3b929190612aa4565b600060405180830381600087803b158015610b5557600080fd5b505af1158015610b69573d6000803e3d6000fd5b50505050600073ffffffffffffffffffffffffffffffffffffffff16600260009054906101000a900473ffffffffffffffffffffffffffffffffffffffff1673ffffffffffffffffffffffffffffffffffffffff1614610c9d57600160009054906101000a900473ffffffffffffffffffffffffffffffffffffffff1673ffffffffffffffffffffffffffffffffffffffff166340c10f19600260009054906101000a900473ffffffffffffffffffffffffffffffffffffffff16610c4d612710610c3f60035487611bda90919063ffffffff16565b611bf090919063ffffffff16565b6040518363ffffffff1660e01b8152600401610c6a929190612aa4565b600060405180830381600087803b158015610c8457600080fd5b505af1158015610c98573d6000803e3d6000fd5b505050505b610cdd610cca84610cbc64e8d4a5100085611bda90919063ffffffff16565b611bf090919063ffffffff16565b8560030154611ec490919063ffffffff16565b8460030181905550438460020181905550847fcb7325664a4a3b7c7223eefc492a97ca4fdf94d46884621e5a8fae5a04b2b9d28560020154858760030154604051610d2a93929190612d7d565b60405180910390a2505050505b50565b600060058281548110610d76577f4e487b7100000000000000000000000000000000000000000000000000000000600052603260045260246000fd5b9060005260206000209060040201905060006006600084815260200190815260200160002060003373ffffffffffffffffffffffffffffffffffffffff1673ffffffffffffffffffffffffffffffffffffffff1681526020019081526020016000209050610e2d3382600001548460000160009054906101000a900473ffffffffffffffffffffffffffffffffffffffff1673ffffffffffffffffffffffffffffffffffffffff16611e3e9092919063ffffffff16565b6000816000018190555060008160010181905550823373ffffffffffffffffffffffffffffffffffffffff167fbb757047c2b5f3974fe26b7c10f732e7bce710b0952a71082702781e62ae05958360000154604051610e8c9190612c6a565b60405180910390a3600060098481548110610ed0577f4e487b7100000000000000000000000000000000000000000000000000000000600052603260045260246000fd5b9060005260206000200160009054906101000a900473ffffffffffffffffffffffffffffffffffffffff169050600073ffffffffffffffffffffffffffffffffffffffff168173ffffffffffffffffffffffffffffffffffffffff1614610fa6578073ffffffffffffffffffffffffffffffffffffffff1663860cbfe48533336000806040518663ffffffff1660e01b8152600401610f73959493929190612c85565b600060405180830381600087803b158015610f8d57600080fd5b505af1158015610fa1573d6000803e3d6000fd5b505050505b50505050565b6000600580549050905060005b81811015610fdb57610fca81610962565b80610fd490613018565b9050610fb9565b5050565b60045481565b610fed611bd2565b73ffffffffffffffffffffffffffffffffffffffff1661100b6110fb565b73ffffffffffffffffffffffffffffffffffffffff1614611061576040517f08c379a000000000000000000000000000000000000000000000000000000000815260040161105890612bca565b60405180910390fd5b61106b6000611eda565b565b611075611bd2565b73ffffffffffffffffffffffffffffffffffffffff166110936110fb565b73ffffffffffffffffffffffffffffffffffffffff16146110e9576040517f08c379a00000000000000000000000000000000000000000000000000000000081526004016110e090612bca565b60405180910390fd5b6110f1610fac565b8060048190555050565b60008060009054906101000a900473ffffffffffffffffffffffffffffffffffffffff16905090565b60006111398383611c0690919063ffffffff16565b905092915050565b6006602052816000526040600020602052806000526040600020600091509150508060000154908060010154905082565b61117a611bd2565b73ffffffffffffffffffffffffffffffffffffffff166111986110fb565b73ffffffffffffffffffffffffffffffffffffffff16146111ee576040517f08c379a00000000000000000000000000000000000000000000000000000000081526004016111e590612bca565b60405180910390fd5b82156111fd576111fc610fac565b5b61126f846112616005888154811061123e577f4e487b7100000000000000000000000000000000000000000000000000000000600052603260045260246000fd5b906000526020600020906004020160010154600754611c0690919063ffffffff16565b611ec490919063ffffffff16565b60078190555083600586815481106112b0577f4e487b7100000000000000000000000000000000000000000000000000000000600052603260045260246000fd5b906000526020600020906004020160010181905550801561134f578160098681548110611306577f4e487b7100000000000000000000000000000000000000000000000000000000600052603260045260246000fd5b9060005260206000200160006101000a81548173ffffffffffffffffffffffffffffffffffffffff021916908373ffffffffffffffffffffffffffffffffffffffff1602179055505b806113be576009858154811061138e577f4e487b7100000000000000000000000000000000000000000000000000000000600052603260045260246000fd5b9060005260206000200160009054906101000a900473ffffffffffffffffffffffffffffffffffffffff166113c0565b815b73ffffffffffffffffffffffffffffffffffffffff16857f95895a6ab1df54420d241b55243258a33e61b2194db66c1179ec521aae8e18658684604051611408929190612d2b565b60405180910390a35050505050565b6009818154811061142757600080fd5b906000526020600020016000915054906101000a900473ffffffffffffffffffffffffffffffffffffffff1681565b61145e611bd2565b73ffffffffffffffffffffffffffffffffffffffff1661147c6110fb565b73ffffffffffffffffffffffffffffffffffffffff16146114d2576040517f08c379a00000000000000000000000000000000000000000000000000000000081526004016114c990612bca565b60405180910390fd5b80156114e1576114e0610fac565b5b600060085443116114f4576008546114f6565b435b905061150d85600754611ec490919063ffffffff16565b600781905550600560405180608001604052808673ffffffffffffffffffffffffffffffffffffffff1681526020018781526020018381526020016000815250908060018154018082558091505060019003906000526020600020906004020160009091909190915060008201518160000160006101000a81548173ffffffffffffffffffffffffffffffffffffffff021916908373ffffffffffffffffffffffffffffffffffffffff16021790555060208201518160010155604082015181600201556060820151816003015550506009839080600181540180825580915050600190039060005260206000200160009091909190916101000a81548173ffffffffffffffffffffffffffffffffffffffff021916908373ffffffffffffffffffffffffffffffffffffffff1602179055508273ffffffffffffffffffffffffffffffffffffffff168473ffffffffffffffffffffffffffffffffffffffff166116876001600580549050611c0690919063ffffffff16565b7f81ee0f8c5c46e2cb41984886f77a84181724abb86c32a5f6de539b07509d45e5886040516116b69190612c6a565b60405180910390a45050505050565b60008060058481548110611702577f4e487b7100000000000000000000000000000000000000000000000000000000600052603260045260246000fd5b9060005260206000209060040201905060006006600086815260200190815260200160002060008573ffffffffffffffffffffffffffffffffffffffff1673ffffffffffffffffffffffffffffffffffffffff168152602001908152602001600020905060008260030154905060008360000160009054906101000a900473ffffffffffffffffffffffffffffffffffffffff1673ffffffffffffffffffffffffffffffffffffffff166370a08231306040518263ffffffff1660e01b81526004016117ce9190612a52565b60206040518083038186803b1580156117e657600080fd5b505afa1580156117fa573d6000803e3d6000fd5b505050506040513d601f19601f8201168201806040525081019061181e91906126d5565b9050836002015443118015611834575060008114155b156118cf576000611849856002015443611124565b9050600061188c60075461187e886001015461187060045487611bda90919063ffffffff16565b611bda90919063ffffffff16565b611bf090919063ffffffff16565b90506118ca6118bb846118ad64e8d4a5100085611bda90919063ffffffff16565b611bf090919063ffffffff16565b85611ec490919063ffffffff16565b935050505b611913836001015461190564e8d4a510006118f7868860000154611bda90919063ffffffff16565b611bf090919063ffffffff16565b611c0690919063ffffffff16565b94505050505092915050565b600160009054906101000a900473ffffffffffffffffffffffffffffffffffffffff1681565b61195181600033611f9e565b50565b61195f828233611f9e565b5050565b61196b611bd2565b73ffffffffffffffffffffffffffffffffffffffff166119896110fb565b73ffffffffffffffffffffffffffffffffffffffff16146119df576040517f08c379a00000000000000000000000000000000000000000000000000000000081526004016119d690612bca565b60405180910390fd5b600260009054906101000a900473ffffffffffffffffffffffffffffffffffffffff1673ffffffffffffffffffffffffffffffffffffffff168173ffffffffffffffffffffffffffffffffffffffff161415611a70576040517f08c379a0000000000000000000000000000000000000000000000000000000008152600401611a6790612baa565b60405180910390fd5b80600260006101000a81548173ffffffffffffffffffffffffffffffffffffffff021916908373ffffffffffffffffffffffffffffffffffffffff16021790555050565b611abc611bd2565b73ffffffffffffffffffffffffffffffffffffffff16611ada6110fb565b73ffffffffffffffffffffffffffffffffffffffff1614611b30576040517f08c379a0000000000000000000000000000000000000000000000000000000008152600401611b2790612bca565b60405180910390fd5b600073ffffffffffffffffffffffffffffffffffffffff168173ffffffffffffffffffffffffffffffffffffffff161415611ba0576040517f08c379a0000000000000000000000000000000000000000000000000000000008152600401611b9790612b6a565b60405180910390fd5b611ba981611eda565b50565b600260009054906101000a900473ffffffffffffffffffffffffffffffffffffffff1681565b600033905090565b60008183611be89190612e6d565b905092915050565b60008183611bfe9190612e3c565b905092915050565b60008183611c149190612ec7565b905092915050565b6000600160009054906101000a900473ffffffffffffffffffffffffffffffffffffffff1673ffffffffffffffffffffffffffffffffffffffff166370a08231306040518263ffffffff1660e01b8152600401611c799190612a52565b60206040518083038186803b158015611c9157600080fd5b505afa158015611ca5573d6000803e3d6000fd5b505050506040513d601f19601f82011682018060405250810190611cc991906126d5565b905080821115611d8857600160009054906101000a900473ffffffffffffffffffffffffffffffffffffffff1673ffffffffffffffffffffffffffffffffffffffff1663a9059cbb84836040518363ffffffff1660e01b8152600401611d30929190612aa4565b602060405180830381600087803b158015611d4a57600080fd5b505af1158015611d5e573d6000803e3d6000fd5b505050506040513d601f19601f82011682018060405250810190611d829190612683565b50611e39565b600160009054906101000a900473ffffffffffffffffffffffffffffffffffffffff1673ffffffffffffffffffffffffffffffffffffffff1663a9059cbb84846040518363ffffffff1660e01b8152600401611de5929190612aa4565b602060405180830381600087803b158015611dff57600080fd5b505af1158015611e13573d6000803e3d6000fd5b505050506040513d601f19601f82011682018060405250810190611e379190612683565b505b505050565b611ebf8363a9059cbb60e01b8484604051602401611e5d929190612aa4565b604051602081830303815290604052907bffffffffffffffffffffffffffffffffffffffffffffffffffffffff19166020820180517bffffffffffffffffffffffffffffffffffffffffffffffffffffffff83818316178352505050506122c1565b505050565b60008183611ed29190612de6565b905092915050565b60008060009054906101000a900473ffffffffffffffffffffffffffffffffffffffff169050816000806101000a81548173ffffffffffffffffffffffffffffffffffffffff021916908373ffffffffffffffffffffffffffffffffffffffff1602179055508173ffffffffffffffffffffffffffffffffffffffff168173ffffffffffffffffffffffffffffffffffffffff167f8be0079c531659141344cd1fd0a4f28419497f9722a3daafe3b4186f6b6457e060405160405180910390a35050565b600060058481548110611fda577f4e487b7100000000000000000000000000000000000000000000000000000000600052603260045260246000fd5b9060005260206000209060040201905060006006600086815260200190815260200160002060008473ffffffffffffffffffffffffffffffffffffffff1673ffffffffffffffffffffffffffffffffffffffff168152602001908152602001600020905061204785610962565b600080826000015411156120aa5761209d826001015461208f64e8d4a5100061208187600301548760000154611bda90919063ffffffff16565b611bf090919063ffffffff16565b611c0690919063ffffffff16565b90506120a98482611c1c565b5b6120fb8430878660000160009054906101000a900473ffffffffffffffffffffffffffffffffffffffff1673ffffffffffffffffffffffffffffffffffffffff16612388909392919063ffffffff16565b612112858360000154611ec490919063ffffffff16565b826000018190555061214c64e8d4a5100061213e85600301548560000154611bda90919063ffffffff16565b611bf090919063ffffffff16565b8260010181905550600060098781548110612190577f4e487b7100000000000000000000000000000000000000000000000000000000600052603260045260246000fd5b9060005260206000200160009054906101000a900473ffffffffffffffffffffffffffffffffffffffff169050600073ffffffffffffffffffffffffffffffffffffffff168173ffffffffffffffffffffffffffffffffffffffff1614612269578073ffffffffffffffffffffffffffffffffffffffff1663860cbfe48887888688600001546040518663ffffffff1660e01b8152600401612236959493929190612cd8565b600060405180830381600087803b15801561225057600080fd5b505af1158015612264573d6000803e3d6000fd5b505050505b868573ffffffffffffffffffffffffffffffffffffffff167f90890809c654f11d6e72a28fa60149770a0d11ec6c92319d6ceb2bb0a4ea1a15886040516122b09190612c6a565b60405180910390a350505050505050565b6000612323826040518060400160405280602081526020017f5361666545524332303a206c6f772d6c6576656c2063616c6c206661696c65648152508573ffffffffffffffffffffffffffffffffffffffff166124119092919063ffffffff16565b905060008151111561238357808060200190518101906123439190612683565b612382576040517f08c379a000000000000000000000000000000000000000000000000000000000815260040161237990612c4a565b60405180910390fd5b5b505050565b61240b846323b872dd60e01b8585856040516024016123a993929190612a6d565b604051602081830303815290604052907bffffffffffffffffffffffffffffffffffffffffffffffffffffffff19166020820180517bffffffffffffffffffffffffffffffffffffffffffffffffffffffff83818316178352505050506122c1565b50505050565b60606124208484600085612429565b90509392505050565b60608247101561246e576040517f08c379a000000000000000000000000000000000000000000000000000000000815260040161246590612b8a565b60405180910390fd5b6124778561253d565b6124b6576040517f08c379a00000000000000000000000000000000000000000000000000000000081526004016124ad90612bea565b60405180910390fd5b6000808673ffffffffffffffffffffffffffffffffffffffff1685876040516124df9190612a3b565b60006040518083038185875af1925050503d806000811461251c576040519150601f19603f3d011682016040523d82523d6000602084013e612521565b606091505b5091509150612531828286612560565b92505050949350505050565b6000808273ffffffffffffffffffffffffffffffffffffffff163b119050919050565b60608315612570578290506125c0565b6000835111156125835782518084602001fd5b816040517f08c379a00000000000000000000000000000000000000000000000000000000081526004016125b79190612b48565b60405180910390fd5b9392505050565b6000813590506125d68161328a565b92915050565b6000813590506125eb816132a1565b92915050565b600081519050612600816132a1565b92915050565b600081359050612615816132b8565b92915050565b60008135905061262a816132cf565b92915050565b60008135905061263f816132e6565b92915050565b600081519050612654816132e6565b92915050565b60006020828403121561266c57600080fd5b600061267a848285016125c7565b91505092915050565b60006020828403121561269557600080fd5b60006126a3848285016125f1565b91505092915050565b6000602082840312156126be57600080fd5b60006126cc84828501612630565b91505092915050565b6000602082840312156126e757600080fd5b60006126f584828501612645565b91505092915050565b6000806040838503121561271157600080fd5b600061271f85828601612630565b9250506020612730858286016125c7565b9150509250929050565b6000806000806080858703121561275057600080fd5b600061275e87828801612630565b945050602061276f87828801612606565b93505060406127808782880161261b565b9250506060612791878288016125dc565b91505092959194509250565b600080604083850312156127b057600080fd5b60006127be85828601612630565b92505060206127cf85828601612630565b9150509250929050565b600080600080600060a086880312156127f157600080fd5b60006127ff88828901612630565b955050602061281088828901612630565b9450506040612821888289016125dc565b93505060606128328882890161261b565b9250506080612843888289016125dc565b9150509295509295909350565b61285981612efb565b82525050565b61286881612f0d565b82525050565b600061287982612db4565b6128838185612dca565b9350612893818560208601612fe5565b80840191505092915050565b6128a881612f67565b82525050565b6128b781612f8b565b82525050565b6128c681612faf565b82525050565b6128d581612fd3565b82525050565b60006128e682612dbf565b6128f08185612dd5565b9350612900818560208601612fe5565b612909816130bf565b840191505092915050565b6000612921602683612dd5565b915061292c826130d0565b604082019050919050565b6000612944602683612dd5565b915061294f8261311f565b604082019050919050565b6000612967600983612dd5565b91506129728261316e565b602082019050919050565b600061298a602083612dd5565b915061299582613197565b602082019050919050565b60006129ad601d83612dd5565b91506129b8826131c0565b602082019050919050565b60006129d0601783612dd5565b91506129db826131e9565b602082019050919050565b60006129f3601283612dd5565b91506129fe82613212565b602082019050919050565b6000612a16602a83612dd5565b9150612a218261323b565b604082019050919050565b612a3581612f5d565b82525050565b6000612a47828461286e565b915081905092915050565b6000602082019050612a676000830184612850565b92915050565b6000606082019050612a826000830186612850565b612a8f6020830185612850565b612a9c6040830184612a2c565b949350505050565b6000604082019050612ab96000830185612850565b612ac66020830184612a2c565b9392505050565b6000608082019050612ae2600083018761289f565b612aef6020830186612a2c565b612afc6040830185612a2c565b612b096060830184612a2c565b95945050505050565b6000602082019050612b2760008301846128ae565b92915050565b6000602082019050612b4260008301846128bd565b92915050565b60006020820190508181036000830152612b6281846128db565b905092915050565b60006020820190508181036000830152612b8381612914565b9050919050565b60006020820190508181036000830152612ba381612937565b9050919050565b60006020820190508181036000830152612bc38161295a565b9050919050565b60006020820190508181036000830152612be38161297d565b9050919050565b60006020820190508181036000830152612c03816129a0565b9050919050565b60006020820190508181036000830152612c23816129c3565b9050919050565b60006020820190508181036000830152612c43816129e6565b9050919050565b60006020820190508181036000830152612c6381612a09565b9050919050565b6000602082019050612c7f6000830184612a2c565b92915050565b600060a082019050612c9a6000830188612a2c565b612ca76020830187612850565b612cb46040830186612850565b612cc160608301856128cc565b612cce60808301846128cc565b9695505050505050565b600060a082019050612ced6000830188612a2c565b612cfa6020830187612850565b612d076040830186612850565b612d146060830185612a2c565b612d216080830184612a2c565b9695505050505050565b6000604082019050612d406000830185612a2c565b612d4d602083018461285f565b9392505050565b6000604082019050612d696000830185612a2c565b612d766020830184612a2c565b9392505050565b6000606082019050612d926000830186612a2c565b612d9f6020830185612a2c565b612dac6040830184612a2c565b949350505050565b600081519050919050565b600081519050919050565b600081905092915050565b600082825260208201905092915050565b6000612df182612f5d565b9150612dfc83612f5d565b9250827fffffffffffffffffffffffffffffffffffffffffffffffffffffffffffffffff03821115612e3157612e30613061565b5b828201905092915050565b6000612e4782612f5d565b9150612e5283612f5d565b925082612e6257612e61613090565b5b828204905092915050565b6000612e7882612f5d565b9150612e8383612f5d565b9250817fffffffffffffffffffffffffffffffffffffffffffffffffffffffffffffffff0483118215151615612ebc57612ebb613061565b5b828202905092915050565b6000612ed282612f5d565b9150612edd83612f5d565b925082821015612ef057612eef613061565b5b828203905092915050565b6000612f0682612f3d565b9050919050565b60008115159050919050565b6000612f2482612efb565b9050919050565b6000612f3682612efb565b9050919050565b600073ffffffffffffffffffffffffffffffffffffffff82169050919050565b6000819050919050565b6000612f7282612f79565b9050919050565b6000612f8482612f3d565b9050919050565b6000612f9682612f9d565b9050919050565b6000612fa882612f3d565b9050919050565b6000612fba82612fc1565b9050919050565b6000612fcc82612f3d565b9050919050565b6000612fde82612f5d565b9050919050565b60005b83811015613003578082015181840152602081019050612fe8565b83811115613012576000848401525b50505050565b600061302382612f5d565b91507fffffffffffffffffffffffffffffffffffffffffffffffffffffffffffffffff82141561305657613055613061565b5b600182019050919050565b7f4e487b7100000000000000000000000000000000000000000000000000000000600052601160045260246000fd5b7f4e487b7100000000000000000000000000000000000000000000000000000000600052601260045260246000fd5b6000601f19601f8301169050919050565b7f4f776e61626c653a206e6577206f776e657220697320746865207a65726f206160008201527f6464726573730000000000000000000000000000000000000000000000000000602082015250565b7f416464726573733a20696e73756666696369656e742062616c616e636520666f60008201527f722063616c6c0000000000000000000000000000000000000000000000000000602082015250565b7f696e76616c69643f3f0000000000000000000000000000000000000000000000600082015250565b7f4f776e61626c653a2063616c6c6572206973206e6f7420746865206f776e6572600082015250565b7f416464726573733a2063616c6c20746f206e6f6e2d636f6e7472616374000000600082015250565b7f4d6178696d756d2066656520706563656e746167652121000000000000000000600082015250565b7f77697468647261773a206e6f7420676f6f640000000000000000000000000000600082015250565b7f5361666545524332303a204552433230206f7065726174696f6e20646964206e60008201527f6f74207375636365656400000000000000000000000000000000000000000000602082015250565b61329381612efb565b811461329e57600080fd5b50565b6132aa81612f0d565b81146132b557600080fd5b50565b6132c181612f19565b81146132cc57600080fd5b50565b6132d881612f2b565b81146132e357600080fd5b50565b6132ef81612f5d565b81146132fa57600080fd5b5056fea2646970667358221220f1fb77c1ea26974d30ee3cbe4f663c38b5d6fd9d790aa12f18a1b50995f6b12a64736f6c63430008040033",
  "linkReferences": {},
  "deployedLinkReferences": {}
}