{
  "_format": "hh-sol-artifact-1",
  "contractName": "RewarderBrokenMock",
  "sourceName": "contracts/mocks/RewarderBrokenMock.sol",
  "abi": [
    {
      "inputs": [
        {
          "internalType": "uint256",
          "name": "",
          "type": "uint256"
        },
        {
          "internalType": "address",
          "name": "",
          "type": "address"
        },
        {
          "internalType": "address",
          "name": "",
          "type": "address"
        },
        {
          "internalType": "uint256",
          "name": "",
          "type": "uint256"
        },
        {
          "internalType": "uint256",
          "name": "",
          "type": "uint256"
        }
      ],
      "name": "onKdxReward",
      "outputs": [],
      "stateMutability": "nonpayable",
      "type": "function"
    },
    {
      "inputs": [
        {
          "internalType": "uint256",
          "name": "pid",
          "type": "uint256"
        },
        {
          "internalType": "address",
          "name": "user",
          "type": "address"
        },
        {
          "internalType": "uint256",
          "name": "sushiAmount",
          "type": "uint256"
        }
      ],
      "name": "pendingTokens",
      "outputs": [
        {
          "internalType": "contract IERC20[]",
          "name": "rewardTokens",
          "type": "address[]"
        },
        {
          "internalType": "uint256[]",
          "name": "rewardAmounts",
          "type": "uint256[]"
        }
      ],
      "stateMutability": "view",
      "type": "function"
    }
  ],
  "bytecode": "0x608060405234801561001057600080fd5b506101d3806100206000396000f3fe608060405234801561001057600080fd5b50600436106100365760003560e01c8063860cbfe41461003b578063d63b3c491461004b575b600080fd5b610049610036366004610099565b005b61005e6100593660046100e6565b610075565b60405161006c92919061011a565b60405180910390f35b606080600080fd5b80356001600160a01b038116811461009457600080fd5b919050565b600080600080600060a086880312156100b0578081fd5b853594506100c06020870161007d565b93506100ce6040870161007d565b94979396509394606081013594506080013592915050565b6000806000606084860312156100fa578283fd5b8335925061010a6020850161007d565b9150604084013590509250925092565b604080825283519082018190526000906020906060840190828701845b8281101561015c5781516001600160a01b031684529284019290840190600101610137565b50505083810382850152845180825285830191830190845b8181101561019057835183529284019291840191600101610174565b509097965050505050505056fea26469706673582212200a61a52c3fcad118cd13cd7c9d55685930fb96a201c7fe9416679e28aa53d41a64736f6c63430008040033",
  "linkReferences": {},
  "deployedLinkReferences": {}
}