{
  "_format": "hh-sol-artifact-1",
  "contractName": "ERC721NFTMarket",
  "sourceName": "contracts/nft-marketplace/ERC721NFTMarket.sol",
  "abi": [
    {
      "inputs": [
        {
          "internalType": "address",
          "name": "_weth",
          "type": "address"
        },
        {
          "internalType": "address",
          "name": "_feeRecipient",
          "type": "address"
        },
        {
          "internalType": "uint256",
          "name": "_feePercent",
          "type": "uint256"
        }
      ],
      "stateMutability": "nonpayable",
      "type": "constructor"
    },
    {
      "anonymous": false,
      "inputs": [
        {
          "indexed": true,
          "internalType": "address",
          "name": "_seller",
          "type": "address"
        },
        {
          "indexed": true,
          "internalType": "address",
          "name": "bidder",
          "type": "address"
        },
        {
          "indexed": true,
          "internalType": "address",
          "name": "_nft",
          "type": "address"
        },
        {
          "indexed": false,
          "internalType": "uint256",
          "name": "_tokenId",
          "type": "uint256"
        },
        {
          "indexed": false,
          "internalType": "address",
          "name": "_quoteToken",
          "type": "address"
        },
        {
          "indexed": false,
          "internalType": "uint256",
          "name": "_price",
          "type": "uint256"
        },
        {
          "indexed": false,
          "internalType": "uint256",
          "name": "_netPrice",
          "type": "uint256"
        }
      ],
      "name": "AcceptBid",
      "type": "event"
    },
    {
      "anonymous": false,
      "inputs": [
        {
          "indexed": true,
          "internalType": "address",
          "name": "_seller",
          "type": "address"
        },
        {
          "indexed": true,
          "internalType": "address",
          "name": "_nft",
          "type": "address"
        },
        {
          "indexed": false,
          "internalType": "uint256",
          "name": "_tokenId",
          "type": "uint256"
        }
      ],
      "name": "AskCancel",
      "type": "event"
    },
    {
      "anonymous": false,
      "inputs": [
        {
          "indexed": true,
          "internalType": "address",
          "name": "_seller",
          "type": "address"
        },
        {
          "indexed": true,
          "internalType": "address",
          "name": "_nft",
          "type": "address"
        },
        {
          "indexed": false,
          "internalType": "uint256",
          "name": "_tokenId",
          "type": "uint256"
        },
        {
          "indexed": false,
          "internalType": "address",
          "name": "_quoteToken",
          "type": "address"
        },
        {
          "indexed": false,
          "internalType": "uint256",
          "name": "_price",
          "type": "uint256"
        }
      ],
      "name": "AskNew",
      "type": "event"
    },
    {
      "anonymous": false,
      "inputs": [
        {
          "indexed": true,
          "internalType": "address",
          "name": "bidder",
          "type": "address"
        },
        {
          "indexed": true,
          "internalType": "address",
          "name": "_nft",
          "type": "address"
        },
        {
          "indexed": false,
          "internalType": "uint256",
          "name": "_tokenId",
          "type": "uint256"
        },
        {
          "indexed": false,
          "internalType": "address",
          "name": "_quoteToken",
          "type": "address"
        },
        {
          "indexed": false,
          "internalType": "uint256",
          "name": "_price",
          "type": "uint256"
        }
      ],
      "name": "Bid",
      "type": "event"
    },
    {
      "anonymous": false,
      "inputs": [
        {
          "indexed": true,
          "internalType": "address",
          "name": "bidder",
          "type": "address"
        },
        {
          "indexed": true,
          "internalType": "address",
          "name": "_nft",
          "type": "address"
        },
        {
          "indexed": false,
          "internalType": "uint256",
          "name": "_tokenId",
          "type": "uint256"
        }
      ],
      "name": "CancelBid",
      "type": "event"
    },
    {
      "anonymous": false,
      "inputs": [
        {
          "indexed": false,
          "internalType": "address",
          "name": "owner",
          "type": "address"
        },
        {
          "components": [
            {
              "internalType": "uint256",
              "name": "loyaltyFeePercent",
              "type": "uint256"
            },
            {
              "internalType": "address",
              "name": "loyaltyFeeRecipient",
              "type": "address"
            }
          ],
          "indexed": false,
          "internalType": "struct ERC721NFTFeeDistributor.Collection",
          "name": "collection",
          "type": "tuple"
        }
      ],
      "name": "CollectionUpdated",
      "type": "event"
    },
    {
      "anonymous": false,
      "inputs": [
        {
          "indexed": false,
          "internalType": "address",
          "name": "_nft",
          "type": "address"
        },
        {
          "indexed": false,
          "internalType": "address",
          "name": "_fingerprintProxy",
          "type": "address"
        }
      ],
      "name": "FingerprintProxyRegisted",
      "type": "event"
    },
    {
      "anonymous": false,
      "inputs": [
        {
          "indexed": true,
          "internalType": "address",
          "name": "previousOwner",
          "type": "address"
        },
        {
          "indexed": true,
          "internalType": "address",
          "name": "newOwner",
          "type": "address"
        }
      ],
      "name": "OwnershipTransferred",
      "type": "event"
    },
    {
      "anonymous": false,
      "inputs": [
        {
          "indexed": true,
          "internalType": "address",
          "name": "_seller",
          "type": "address"
        },
        {
          "indexed": true,
          "internalType": "address",
          "name": "buyer",
          "type": "address"
        },
        {
          "indexed": true,
          "internalType": "address",
          "name": "_nft",
          "type": "address"
        },
        {
          "indexed": false,
          "internalType": "uint256",
          "name": "_tokenId",
          "type": "uint256"
        },
        {
          "indexed": false,
          "internalType": "address",
          "name": "_quoteToken",
          "type": "address"
        },
        {
          "indexed": false,
          "internalType": "uint256",
          "name": "_price",
          "type": "uint256"
        },
        {
          "indexed": false,
          "internalType": "uint256",
          "name": "_netPrice",
          "type": "uint256"
        }
      ],
      "name": "Trade",
      "type": "event"
    },
    {
      "inputs": [],
      "name": "MAX_FEE",
      "outputs": [
        {
          "internalType": "uint256",
          "name": "",
          "type": "uint256"
        }
      ],
      "stateMutability": "view",
      "type": "function"
    },
    {
      "inputs": [],
      "name": "WETH",
      "outputs": [
        {
          "internalType": "address",
          "name": "",
          "type": "address"
        }
      ],
      "stateMutability": "view",
      "type": "function"
    },
    {
      "inputs": [
        {
          "internalType": "address",
          "name": "_nft",
          "type": "address"
        },
        {
          "internalType": "uint256",
          "name": "_tokenId",
          "type": "uint256"
        },
        {
          "internalType": "address",
          "name": "_bidder",
          "type": "address"
        },
        {
          "internalType": "address",
          "name": "_quoteToken",
          "type": "address"
        },
        {
          "internalType": "uint256",
          "name": "_price",
          "type": "uint256"
        }
      ],
      "name": "acceptBid",
      "outputs": [],
      "stateMutability": "nonpayable",
      "type": "function"
    },
    {
      "inputs": [
        {
          "internalType": "address",
          "name": "",
          "type": "address"
        },
        {
          "internalType": "uint256",
          "name": "",
          "type": "uint256"
        }
      ],
      "name": "asks",
      "outputs": [
        {
          "internalType": "address",
          "name": "seller",
          "type": "address"
        },
        {
          "internalType": "address",
          "name": "quoteToken",
          "type": "address"
        },
        {
          "internalType": "uint256",
          "name": "price",
          "type": "uint256"
        }
      ],
      "stateMutability": "view",
      "type": "function"
    },
    {
      "inputs": [
        {
          "internalType": "address",
          "name": "",
          "type": "address"
        },
        {
          "internalType": "uint256",
          "name": "",
          "type": "uint256"
        },
        {
          "internalType": "address",
          "name": "",
          "type": "address"
        }
      ],
      "name": "bids",
      "outputs": [
        {
          "internalType": "address",
          "name": "quoteToken",
          "type": "address"
        },
        {
          "internalType": "uint256",
          "name": "price",
          "type": "uint256"
        },
        {
          "internalType": "bytes32",
          "name": "fingerprint",
          "type": "bytes32"
        }
      ],
      "stateMutability": "view",
      "type": "function"
    },
    {
      "inputs": [
        {
          "internalType": "address",
          "name": "_nft",
          "type": "address"
        },
        {
          "internalType": "uint256",
          "name": "_tokenId",
          "type": "uint256"
        },
        {
          "internalType": "address",
          "name": "_quoteToken",
          "type": "address"
        },
        {
          "internalType": "uint256",
          "name": "_price",
          "type": "uint256"
        },
        {
          "internalType": "bytes32",
          "name": "_fingeprint",
          "type": "bytes32"
        }
      ],
      "name": "buy",
      "outputs": [],
      "stateMutability": "nonpayable",
      "type": "function"
    },
    {
      "inputs": [
        {
          "internalType": "address",
          "name": "_nft",
          "type": "address"
        },
        {
          "internalType": "uint256",
          "name": "_tokenId",
          "type": "uint256"
        },
        {
          "internalType": "bytes32",
          "name": "_fingerprint",
          "type": "bytes32"
        }
      ],
      "name": "buyUsingNative",
      "outputs": [],
      "stateMutability": "payable",
      "type": "function"
    },
    {
      "inputs": [
        {
          "internalType": "address",
          "name": "_nft",
          "type": "address"
        },
        {
          "internalType": "uint256",
          "name": "_tokenId",
          "type": "uint256"
        }
      ],
      "name": "cancelAsk",
      "outputs": [],
      "stateMutability": "nonpayable",
      "type": "function"
    },
    {
      "inputs": [
        {
          "internalType": "address",
          "name": "_nft",
          "type": "address"
        },
        {
          "internalType": "uint256",
          "name": "_tokenId",
          "type": "uint256"
        }
      ],
      "name": "cancelBid",
      "outputs": [],
      "stateMutability": "nonpayable",
      "type": "function"
    },
    {
      "inputs": [
        {
          "internalType": "address",
          "name": "",
          "type": "address"
        }
      ],
      "name": "collections",
      "outputs": [
        {
          "internalType": "uint256",
          "name": "loyaltyFeePercent",
          "type": "uint256"
        },
        {
          "internalType": "address",
          "name": "loyaltyFeeRecipient",
          "type": "address"
        }
      ],
      "stateMutability": "view",
      "type": "function"
    },
    {
      "inputs": [
        {
          "internalType": "address",
          "name": "_nft",
          "type": "address"
        },
        {
          "internalType": "uint256",
          "name": "_tokenId",
          "type": "uint256"
        },
        {
          "internalType": "address",
          "name": "_quoteToken",
          "type": "address"
        },
        {
          "internalType": "uint256",
          "name": "_price",
          "type": "uint256"
        }
      ],
      "name": "createAsk",
      "outputs": [],
      "stateMutability": "nonpayable",
      "type": "function"
    },
    {
      "inputs": [
        {
          "internalType": "address",
          "name": "_nft",
          "type": "address"
        },
        {
          "internalType": "uint256",
          "name": "_tokenId",
          "type": "uint256"
        },
        {
          "internalType": "address",
          "name": "_quoteToken",
          "type": "address"
        },
        {
          "internalType": "uint256",
          "name": "_price",
          "type": "uint256"
        },
        {
          "internalType": "bytes32",
          "name": "_fingerprint",
          "type": "bytes32"
        }
      ],
      "name": "createBid",
      "outputs": [],
      "stateMutability": "nonpayable",
      "type": "function"
    },
    {
      "inputs": [
        {
          "internalType": "address",
          "name": "_nft",
          "type": "address"
        },
        {
          "internalType": "uint256",
          "name": "_tokenId",
          "type": "uint256"
        },
        {
          "internalType": "bytes32",
          "name": "_fingperprint",
          "type": "bytes32"
        }
      ],
      "name": "createBidUsingNative",
      "outputs": [],
      "stateMutability": "payable",
      "type": "function"
    },
    {
      "inputs": [
        {
          "internalType": "address",
          "name": "",
          "type": "address"
        }
      ],
      "name": "fingerprintProxies",
      "outputs": [
        {
          "internalType": "address",
          "name": "",
          "type": "address"
        }
      ],
      "stateMutability": "view",
      "type": "function"
    },
    {
      "inputs": [
        {
          "internalType": "address",
          "name": "",
          "type": "address"
        },
        {
          "internalType": "address",
          "name": "",
          "type": "address"
        },
        {
          "internalType": "uint256",
          "name": "",
          "type": "uint256"
        },
        {
          "internalType": "bytes",
          "name": "",
          "type": "bytes"
        }
      ],
      "name": "onERC721Received",
      "outputs": [
        {
          "internalType": "bytes4",
          "name": "",
          "type": "bytes4"
        }
      ],
      "stateMutability": "nonpayable",
      "type": "function"
    },
    {
      "inputs": [],
      "name": "owner",
      "outputs": [
        {
          "internalType": "address",
          "name": "",
          "type": "address"
        }
      ],
      "stateMutability": "view",
      "type": "function"
    },
    {
      "inputs": [],
      "name": "protocolFeePercent",
      "outputs": [
        {
          "internalType": "uint256",
          "name": "",
          "type": "uint256"
        }
      ],
      "stateMutability": "view",
      "type": "function"
    },
    {
      "inputs": [],
      "name": "protocolFeeRecipient",
      "outputs": [
        {
          "internalType": "address",
          "name": "",
          "type": "address"
        }
      ],
      "stateMutability": "view",
      "type": "function"
    },
    {
      "inputs": [
        {
          "internalType": "address",
          "name": "_nft",
          "type": "address"
        },
        {
          "internalType": "address",
          "name": "_fingerprintProxy",
          "type": "address"
        }
      ],
      "name": "registerFingerPrintProxy",
      "outputs": [],
      "stateMutability": "nonpayable",
      "type": "function"
    },
    {
      "inputs": [],
      "name": "renounceOwnership",
      "outputs": [],
      "stateMutability": "nonpayable",
      "type": "function"
    },
    {
      "inputs": [
        {
          "internalType": "address",
          "name": "_nft",
          "type": "address"
        },
        {
          "internalType": "address",
          "name": "_recipient",
          "type": "address"
        },
        {
          "internalType": "uint256",
          "name": "_percent",
          "type": "uint256"
        }
      ],
      "name": "setCollection",
      "outputs": [],
      "stateMutability": "nonpayable",
      "type": "function"
    },
    {
      "inputs": [
        {
          "internalType": "uint256",
          "name": "_percent",
          "type": "uint256"
        }
      ],
      "name": "setProtocolFeePercent",
      "outputs": [],
      "stateMutability": "nonpayable",
      "type": "function"
    },
    {
      "inputs": [
        {
          "internalType": "address",
          "name": "_recipient",
          "type": "address"
        }
      ],
      "name": "setProtocolFeeRecipient",
      "outputs": [],
      "stateMutability": "nonpayable",
      "type": "function"
    },
    {
      "inputs": [
        {
          "internalType": "address",
          "name": "newOwner",
          "type": "address"
        }
      ],
      "name": "transferOwnership",
      "outputs": [],
      "stateMutability": "nonpayable",
      "type": "function"
    }
  ],
  "bytecode": "0x60a060405260fa6003556101f46005553480156200001c57600080fd5b5060405162002544380380620025448339810160408190526200003f91620000f9565b81816200004c336200008c565b60018055600280546001600160a01b0319166001600160a01b039390931692909217909155600355505060601b6001600160601b03191660805262000139565b600080546001600160a01b038381166001600160a01b0319831681178455604051919092169283917f8be0079c531659141344cd1fd0a4f28419497f9722a3daafe3b4186f6b6457e09190a35050565b80516001600160a01b0381168114620000f457600080fd5b919050565b6000806000606084860312156200010e578283fd5b6200011984620000dc565b92506200012960208501620000dc565b9150604084015190509250925092565b60805160601c6123d0620001746000396000818161036401528181610e8c01528181610f050152818161112d01526111a601526123d06000f3fe60806040526004361061014a5760003560e01c8063a4983421116100b6578063d6e6eb9f1161006f578063d6e6eb9f14610413578063dce97c5114610429578063dd76892214610449578063e22d4f7d146104c5578063e521cb9214610528578063f2fde38b1461054857600080fd5b8063a498342114610332578063ad5c464814610352578063bbafdf5414610386578063bc063e1a146103a6578063c0a3f88e146103ca578063c87b6341146103dd57600080fd5b806364df049e1161010857806364df049e146102745780636fa92cb8146102ac578063715018a6146102cc57806371f7c13b146102e15780638da5cb5b14610301578063a3ee0a5a1461031f57600080fd5b80626795d51461014f578063150b7a02146101715780633161f642146101ba57806339b6b1e5146101da57806340b80746146101fa57806343add2e61461021a575b600080fd5b34801561015b57600080fd5b5061016f61016a3660046120cb565b610568565b005b34801561017d57600080fd5b5061019c61018c366004611f3e565b630a85bd0160e11b949350505050565b6040516001600160e01b031990911681526020015b60405180910390f35b3480156101c657600080fd5b5061016f6101d5366004611ed1565b61075d565b3480156101e657600080fd5b5061016f6101f5366004612013565b6107d0565b34801561020657600080fd5b5061016f610215366004612013565b61080a565b34801561022657600080fd5b50610257610235366004611eb7565b600660205260009081526040902080546001909101546001600160a01b031682565b604080519283526001600160a01b039091166020830152016101b1565b34801561028057600080fd5b50600254610294906001600160a01b031681565b6040516001600160a01b0390911681526020016101b1565b3480156102b857600080fd5b5061016f6102c7366004612077565b610988565b3480156102d857600080fd5b5061016f610d78565b3480156102ed57600080fd5b5061016f6102fc36600461210e565b610d8c565b34801561030d57600080fd5b506000546001600160a01b0316610294565b61016f61032d36600461215b565b610e21565b34801561033e57600080fd5b5061016f61034d3660046121ad565b610f34565b34801561035e57600080fd5b506102947f000000000000000000000000000000000000000000000000000000000000000081565b34801561039257600080fd5b5061016f6103a136600461210e565b610f7d565b3480156103b257600080fd5b506103bc60055481565b6040519081526020016101b1565b61016f6103d836600461215b565b61105f565b3480156103e957600080fd5b506102946103f8366004611eb7565b6007602052600090815260409020546001600160a01b031681565b34801561041f57600080fd5b506103bc60035481565b34801561043557600080fd5b5061016f610444366004611f03565b6111cc565b34801561045557600080fd5b506104a061046436600461203c565b60096020908152600093845260408085208252928452828420905282529020805460018201546002909201546001600160a01b03909116919083565b604080516001600160a01b0390941684526020840192909252908201526060016101b1565b3480156104d157600080fd5b506105196104e0366004612013565b60086020908152600092835260408084209091529082529020805460018201546002909201546001600160a01b03918216929091169083565b6040516101b1939291906121e1565b34801561053457600080fd5b5061016f610543366004611eb7565b61132c565b34801561055457600080fd5b5061016f610563366004611eb7565b6113ba565b600260015414156105945760405162461bcd60e51b815260040161058b9061229d565b60405180910390fd5b6002600155333b156105b85760405162461bcd60e51b815260040161058b90612238565b3332146105d75760405162461bcd60e51b815260040161058b90612266565b600081116106335760405162461bcd60e51b8152602060048201526024808201527f41736b3a205072696365206d7573742062652067726561746572207468616e206044820152637a65726f60e01b606482015260840161058b565b604051632142170760e11b81526001600160a01b038516906342842e0e90610663903390309088906004016121e1565b600060405180830381600087803b15801561067d57600080fd5b505af1158015610691573d6000803e3d6000fd5b5050505060405180606001604052806106a73390565b6001600160a01b039081168252848116602080840182905260409384018690528883166000818152600883528581208a82528352859020865181549086166001600160a01b0319918216178255878401516001830180549190971691161790945594840151600290930192909255825187815291820152808201849052905133917f9a334381123a2a5affb4d69737ab464025dee3156576bab65294d6b7e9d49dec919081900360600190a35050600180555050565b610765611433565b6001600160a01b0382811660008181526007602090815260409182902080546001600160a01b031916948616948517905581519283528201929092527f34d7de5b89c8368f0fad33e8dff9d827147f3bcefa6a0ad6f198a1b97959a961910160405180910390a15050565b600260015414156107f35760405162461bcd60e51b815260040161058b9061229d565b6002600155610802828261148d565b505060018055565b6002600154141561082d5760405162461bcd60e51b815260040161058b9061229d565b60026001556001600160a01b0382811660009081526008602090815260408083208584529091529020541633146108995760405162461bcd60e51b815260206004820152601060248201526f20b9b59d1037b7363c9039b2b63632b960811b604482015260640161058b565b604051632142170760e11b81526001600160a01b038316906342842e0e906108c9903090339086906004016121e1565b600060405180830381600087803b1580156108e357600080fd5b505af11580156108f7573d6000803e3d6000fd5b505050506001600160a01b0382166000818152600860209081526040808320858452909152812080546001600160a01b03199081168255600182018054909116905560020155336001600160a01b03167fa5764ea233325154a6388255c54b9f302ec2ed8586af0a9a606cd64e88298eb78360405161097891815260200190565b60405180910390a3505060018055565b600260015414156109ab5760405162461bcd60e51b815260040161058b9061229d565b600260018181556001600160a01b0380881660009081526009602090815260408083208a845282528083208985168452825291829020825160608101845281549094168452938401549083018190529290930154928101929092528214610a545760405162461bcd60e51b815260206004820152601860248201527f4163636570744269643a20696e76616c69642070726963650000000000000000604482015260640161058b565b826001600160a01b031681600001516001600160a01b031614610ab95760405162461bcd60e51b815260206004820152601d60248201527f4163636570744269643a20696e76616c69642071756f7465546f6b656e000000604482015260640161058b565b610ac8868683604001516115b8565b6001600160a01b0386811660009081526008602090815260408083208984529091529020541633811415610b5d57604051632142170760e11b81526001600160a01b038816906342842e0e90610b2690309089908b906004016121e1565b600060405180830381600087803b158015610b4057600080fd5b505af1158015610b54573d6000803e3d6000fd5b50505050610bc3565b50604051632142170760e11b815233906001600160a01b038816906342842e0e90610b9090849089908b906004016121e1565b600060405180830381600087803b158015610baa57600080fd5b505af1158015610bbe573d6000803e3d6000fd5b505050505b6000610bd08886866116ca565b90506000610bde85836117b9565b9050610bf46001600160a01b03871684836117c5565b600860008a6001600160a01b03166001600160a01b031681526020019081526020016000206000898152602001908152602001600020600080820160006101000a8154906001600160a01b0302191690556001820160006101000a8154906001600160a01b03021916905560028201600090555050600960008a6001600160a01b03166001600160a01b0316815260200190815260200160002060008981526020019081526020016000206000886001600160a01b03166001600160a01b03168152602001908152602001600020600080820160006101000a8154906001600160a01b030219169055600182016000905560028201600090555050886001600160a01b0316876001600160a01b0316846001600160a01b03167f110ad5be64e5fef5d8a9433938fccf79b5b6623af1a17f0990815ed076abdb588b8a8a87604051610d6194939291909384526001600160a01b039290921660208401526040830152606082015260800190565b60405180910390a450506001805550505050505050565b610d80611433565b610d8a6000611828565b565b333b15610dab5760405162461bcd60e51b815260040161058b90612238565b333214610dca5760405162461bcd60e51b815260040161058b90612266565b60026001541415610ded5760405162461bcd60e51b815260040161058b9061229d565b6002600155610e09335b6001600160a01b038516903085611878565b610e16858585858561189f565b505060018055505050565b333b15610e405760405162461bcd60e51b815260040161058b90612238565b333214610e5f5760405162461bcd60e51b815260040161058b90612266565b60026001541415610e825760405162461bcd60e51b815260040161058b9061229d565b60026001819055507f00000000000000000000000000000000000000000000000000000000000000006001600160a01b031663d0e30db0346040518263ffffffff1660e01b81526004016000604051808303818588803b158015610ee557600080fd5b505af1158015610ef9573d6000803e3d6000fd5b5050505050610f2b83837f0000000000000000000000000000000000000000000000000000000000000000348561189f565b50506001805550565b610f3c611433565b600554811115610f785760405162461bcd60e51b81526020600482015260076024820152666d61785f66656560c81b604482015260640161058b565b600355565b333b15610f9c5760405162461bcd60e51b815260040161058b90612238565b333214610fbb5760405162461bcd60e51b815260040161058b90612266565b60026001541415610fde5760405162461bcd60e51b815260040161058b9061229d565b60026001556001600160a01b038581166000908152600860209081526040808320888452909152902054166110495760405162461bcd60e51b81526020600482015260116024820152701d1bdad95b881a5cc81b9bdd081cd95b1b607a1b604482015260640161058b565b61105233610df7565b610e1685858585856119f3565b600260015414156110825760405162461bcd60e51b815260040161058b9061229d565b6002600155333b156110a65760405162461bcd60e51b815260040161058b90612238565b3332146110c55760405162461bcd60e51b815260040161058b90612266565b6001600160a01b0383811660009081526008602090815260408083208684529091529020541661112b5760405162461bcd60e51b81526020600482015260116024820152701d1bdad95b881a5cc81b9bdd081cd95b1b607a1b604482015260640161058b565b7f00000000000000000000000000000000000000000000000000000000000000006001600160a01b031663d0e30db0346040518263ffffffff1660e01b81526004016000604051808303818588803b15801561118657600080fd5b505af115801561119a573d6000803e3d6000fd5b5050505050610f2b83837f000000000000000000000000000000000000000000000000000000000000000034856119f3565b6111d4611433565b6005548111156112105760405162461bcd60e51b81526020600482015260076024820152666d61785f66656560c81b604482015260640161058b565b6001600160a01b0383166112555760405162461bcd60e51b815260206004820152600c60248201526b7a65726f206164647265737360a01b604482015260640161058b565b6001600160a01b03821661129a5760405162461bcd60e51b815260206004820152600c60248201526b7a65726f206164647265737360a01b604482015260640161058b565b6040805180820182528281526001600160a01b0384811660208084019182528783166000908152600682528590209351808555915160019094018054949093166001600160a01b031990941684179092558351338152918201528083019190915290517fff46874afead5e80822ecf46dda060808cd504220df8a1b17acbdf840e1545419181900360600190a1505050565b611334611433565b6001600160a01b0381166113985760405162461bcd60e51b815260206004820152602560248201527f4572633732314e46544665654469737472696275746f723a207a65726f206164604482015264647265737360d81b606482015260840161058b565b600280546001600160a01b0319166001600160a01b0392909216919091179055565b6113c2611433565b6001600160a01b0381166114275760405162461bcd60e51b815260206004820152602660248201527f4f776e61626c653a206e6577206f776e657220697320746865207a65726f206160448201526564647265737360d01b606482015260840161058b565b61143081611828565b50565b6000546001600160a01b03163314610d8a5760405162461bcd60e51b815260206004820181905260248201527f4f776e61626c653a2063616c6c6572206973206e6f7420746865206f776e6572604482015260640161058b565b6001600160a01b0382811660009081526009602090815260408083208584528252808320338452825291829020825160608101845281549094168452600181015491840182905260020154918301919091526115205760405162461bcd60e51b8152602060048201526012602482015271109a590e88189a59081b9bdd08199bdd5b9960721b604482015260640161058b565b61153b33602083015183516001600160a01b031691906117c5565b6001600160a01b038316600081815260096020908152604080832086845282528083203380855290835281842080546001600160a01b03191681556001810185905560020193909355518581527fbd3087862a2ef6b9693b39cf415bf0c5ebd9238566d9b2778d3b1cee2c76ef9a910160405180910390a3505050565b6001600160a01b0383811660009081526007602052604090205416156116c5576001600160a01b0383811660009081526007602052604090819020549051638cb5b56b60e01b81526004810185905260248101849052911690638cb5b56b9060440160206040518083038186803b15801561163257600080fd5b505afa158015611646573d6000803e3d6000fd5b505050506040513d601f19601f8201168201806040525081019061166a919061218d565b6116c55760405162461bcd60e51b815260206004820152602660248201527f45726337323146696e6765727072696e743a20696e76616c69642066696e67656044820152651c9c1c9a5b9d60d21b606482015260840161058b565b505050565b600254600090819081906001600160a01b03161561172d576117036127106116fd60035487611c2490919063ffffffff16565b90611c30565b600254909250611720906001600160a01b038781169116846117c5565b61172a8183611c3c565b90505b6001600160a01b038087166000908152600660209081526040918290208251808401909352805483526001015490921691810182905290156117ad57805161177e90612710906116fd908890611c24565b925082156117a05760208101516117a0906001600160a01b03881690856117c5565b6117aa8284611c3c565b91505b509150505b9392505050565b60006117b2828461232b565b6040516001600160a01b0383166024820152604481018290526116c590849063a9059cbb60e01b906064015b60408051601f198184030181529190526020810180516001600160e01b03166001600160e01b031990931692909217909152611c48565b600080546001600160a01b038381166001600160a01b0319831681178455604051919092169283917f8be0079c531659141344cd1fd0a4f28419497f9722a3daafe3b4186f6b6457e09190a35050565b611899846323b872dd60e01b8585856040516024016117f1939291906121e1565b50505050565b600082116118fb5760405162461bcd60e51b8152602060048201526024808201527f4269643a205072696365206d757374206265206772616e746572207468616e206044820152637a65726f60e01b606482015260840161058b565b6001600160a01b038516600090815260096020908152604080832087845282528083203384529091529020600101541561193957611939858561148d565b60408051606080820183526001600160a01b0386811680845260208085018881528587018881528c85166000818152600985528981208e8252855289812033808352908652908a9020985189546001600160a01b0319169716969096178855915160018801555160029096019590955585518a8152908101919091528085018790529351929390927fdbd3618f64e1cad826227a83ae8ea52db3d7b6f308a388b197180168a722a3db929181900390910190a35050505050565b6001600160a01b038086166000908152600860209081526040808320888452825291829020825160608101845281548516815260018201548516928101839052600290910154928101929092529091851614611a915760405162461bcd60e51b815260206004820152601a60248201527f4275793a20496e636f727265637420716f75746520746f6b656e000000000000604482015260640161058b565b82816040015114611adb5760405162461bcd60e51b81526020600482015260146024820152734275793a20496e636f727265637420707269636560601b604482015260640161058b565b611ae68686846115b8565b6000611af38786866116ca565b90506000611b0185836117b9565b8351909150611b1b906001600160a01b03881690836117c5565b604051632142170760e11b81526001600160a01b038916906342842e0e90611b4b90309033908c906004016121e1565b600060405180830381600087803b158015611b6557600080fd5b505af1158015611b79573d6000803e3d6000fd5b505050506001600160a01b03881660008181526008602090815260408083208b8452909152812080546001600160a01b03199081168255600182018054909116905560020155338451604080518b81526001600160a01b038b811660208301529181018a905260608101869052928116929116907f8a181b821b6fbc45fb158a5ade70964c9d58849c1ac3cd4078aa9cff7f5d20499060800160405180910390a45050505050505050565b60006117b2828461230c565b60006117b282846122ec565b60006117b282846122d4565b6000611c9d826040518060400160405280602081526020017f5361666545524332303a206c6f772d6c6576656c2063616c6c206661696c6564815250856001600160a01b0316611d1a9092919063ffffffff16565b8051909150156116c55780806020019051810190611cbb919061218d565b6116c55760405162461bcd60e51b815260206004820152602a60248201527f5361666545524332303a204552433230206f7065726174696f6e20646964206e6044820152691bdd081cdd58d8d9595960b21b606482015260840161058b565b6060611d298484600085611d31565b949350505050565b606082471015611d925760405162461bcd60e51b815260206004820152602660248201527f416464726573733a20696e73756666696369656e742062616c616e636520666f6044820152651c8818d85b1b60d21b606482015260840161058b565b6001600160a01b0385163b611de95760405162461bcd60e51b815260206004820152601d60248201527f416464726573733a2063616c6c20746f206e6f6e2d636f6e7472616374000000604482015260640161058b565b600080866001600160a01b03168587604051611e0591906121c5565b60006040518083038185875af1925050503d8060008114611e42576040519150601f19603f3d011682016040523d82523d6000602084013e611e47565b606091505b5091509150611e57828286611e62565b979650505050505050565b60608315611e715750816117b2565b825115611e815782518084602001fd5b8160405162461bcd60e51b815260040161058b9190612205565b80356001600160a01b0381168114611eb257600080fd5b919050565b600060208284031215611ec8578081fd5b6117b282611e9b565b60008060408385031215611ee3578081fd5b611eec83611e9b565b9150611efa60208401611e9b565b90509250929050565b600080600060608486031215611f17578081fd5b611f2084611e9b565b9250611f2e60208501611e9b565b9150604084013590509250925092565b60008060008060808587031215611f53578081fd5b611f5c85611e9b565b9350611f6a60208601611e9b565b925060408501359150606085013567ffffffffffffffff80821115611f8d578283fd5b818701915087601f830112611fa0578283fd5b813581811115611fb257611fb2612384565b604051601f8201601f19908116603f01168101908382118183101715611fda57611fda612384565b816040528281528a6020848701011115611ff2578586fd5b82602086016020830137918201602001949094529598949750929550505050565b60008060408385031215612025578182fd5b61202e83611e9b565b946020939093013593505050565b600080600060608486031215612050578283fd5b61205984611e9b565b92506020840135915061206e60408501611e9b565b90509250925092565b600080600080600060a0868803121561208e578081fd5b61209786611e9b565b9450602086013593506120ac60408701611e9b565b92506120ba60608701611e9b565b949793965091946080013592915050565b600080600080608085870312156120e0578384fd5b6120e985611e9b565b9350602085013592506120fe60408601611e9b565b9396929550929360600135925050565b600080600080600060a08688031215612125578081fd5b61212e86611e9b565b94506020860135935061214360408701611e9b565b94979396509394606081013594506080013592915050565b60008060006060848603121561216f578283fd5b61217884611e9b565b95602085013595506040909401359392505050565b60006020828403121561219e578081fd5b815180151581146117b2578182fd5b6000602082840312156121be578081fd5b5035919050565b600082516121d7818460208701612342565b9190910192915050565b6001600160a01b039384168152919092166020820152604081019190915260600190565b6020815260008251806020840152612224816040850160208701612342565b601f01601f19169190910160400192915050565b60208082526014908201527310dbdb9d1c9858dd081b9bdd08185b1b1bddd95960621b604082015260600190565b6020808252601a908201527f50726f787920636f6e7472616374206e6f7420616c6c6f776564000000000000604082015260600190565b6020808252601f908201527f5265656e7472616e637947756172643a207265656e7472616e742063616c6c00604082015260600190565b600082198211156122e7576122e761236e565b500190565b60008261230757634e487b7160e01b81526012600452602481fd5b500490565b60008160001904831182151516156123265761232661236e565b500290565b60008282101561233d5761233d61236e565b500390565b60005b8381101561235d578181015183820152602001612345565b838111156118995750506000910152565b634e487b7160e01b600052601160045260246000fd5b634e487b7160e01b600052604160045260246000fdfea2646970667358221220ce9b24830ac0b2ed89ca94bb774950660d68405f315436319cd4e75af45ecf8a64736f6c63430008040033",
  "linkReferences": {},
  "deployedLinkReferences": {}
}