{
  "_format": "hh-sol-artifact-1",
  "contractName": "ERC721NFTMarket",
  "sourceName": "contracts/nft-marketplace/ERC721NFTMarket.sol",
  "abi": [
    {
      "inputs": [
        {
          "internalType": "address",
          "name": "_weth",
          "type": "address"
        },
        {
          "internalType": "address",
          "name": "_feeRecipient",
          "type": "address"
        },
        {
          "internalType": "uint256",
          "name": "_feePercent",
          "type": "uint256"
        }
      ],
      "stateMutability": "nonpayable",
      "type": "constructor"
    },
    {
      "anonymous": false,
      "inputs": [
        {
          "indexed": true,
          "internalType": "address",
          "name": "_seller",
          "type": "address"
        },
        {
          "indexed": true,
          "internalType": "address",
          "name": "bidder",
          "type": "address"
        },
        {
          "indexed": true,
          "internalType": "address",
          "name": "_nft",
          "type": "address"
        },
        {
          "indexed": false,
          "internalType": "uint256",
          "name": "_tokenId",
          "type": "uint256"
        },
        {
          "indexed": false,
          "internalType": "address",
          "name": "_quoteToken",
          "type": "address"
        },
        {
          "indexed": false,
          "internalType": "uint256",
          "name": "_price",
          "type": "uint256"
        },
        {
          "indexed": false,
          "internalType": "uint256",
          "name": "_netPrice",
          "type": "uint256"
        }
      ],
      "name": "AcceptBid",
      "type": "event"
    },
    {
      "anonymous": false,
      "inputs": [
        {
          "indexed": true,
          "internalType": "address",
          "name": "_seller",
          "type": "address"
        },
        {
          "indexed": true,
          "internalType": "address",
          "name": "_nft",
          "type": "address"
        },
        {
          "indexed": false,
          "internalType": "uint256",
          "name": "_tokenId",
          "type": "uint256"
        }
      ],
      "name": "AskCancel",
      "type": "event"
    },
    {
      "anonymous": false,
      "inputs": [
        {
          "indexed": true,
          "internalType": "address",
          "name": "_seller",
          "type": "address"
        },
        {
          "indexed": true,
          "internalType": "address",
          "name": "_nft",
          "type": "address"
        },
        {
          "indexed": false,
          "internalType": "uint256",
          "name": "_tokenId",
          "type": "uint256"
        },
        {
          "indexed": false,
          "internalType": "address",
          "name": "_quoteToken",
          "type": "address"
        },
        {
          "indexed": false,
          "internalType": "uint256",
          "name": "_price",
          "type": "uint256"
        }
      ],
      "name": "AskNew",
      "type": "event"
    },
    {
      "anonymous": false,
      "inputs": [
        {
          "indexed": true,
          "internalType": "address",
          "name": "bidder",
          "type": "address"
        },
        {
          "indexed": true,
          "internalType": "address",
          "name": "_nft",
          "type": "address"
        },
        {
          "indexed": false,
          "internalType": "uint256",
          "name": "_tokenId",
          "type": "uint256"
        },
        {
          "indexed": false,
          "internalType": "address",
          "name": "_quoteToken",
          "type": "address"
        },
        {
          "indexed": false,
          "internalType": "uint256",
          "name": "_price",
          "type": "uint256"
        }
      ],
      "name": "Bid",
      "type": "event"
    },
    {
      "anonymous": false,
      "inputs": [
        {
          "indexed": true,
          "internalType": "address",
          "name": "bidder",
          "type": "address"
        },
        {
          "indexed": true,
          "internalType": "address",
          "name": "_nft",
          "type": "address"
        },
        {
          "indexed": false,
          "internalType": "uint256",
          "name": "_tokenId",
          "type": "uint256"
        }
      ],
      "name": "CancelBid",
      "type": "event"
    },
    {
      "anonymous": false,
      "inputs": [
        {
          "indexed": false,
          "internalType": "address",
          "name": "owner",
          "type": "address"
        },
        {
          "components": [
            {
              "internalType": "uint256",
              "name": "loyaltyFeePercent",
              "type": "uint256"
            },
            {
              "internalType": "address",
              "name": "loyaltyFeeRecipient",
              "type": "address"
            }
          ],
          "indexed": false,
          "internalType": "struct ERC721NFTFeeDistributor.Collection",
          "name": "collection",
          "type": "tuple"
        }
      ],
      "name": "CollectionUpdated",
      "type": "event"
    },
    {
      "anonymous": false,
      "inputs": [
        {
          "indexed": false,
          "internalType": "address",
          "name": "_nft",
          "type": "address"
        },
        {
          "indexed": false,
          "internalType": "address",
          "name": "_fingerprintProxy",
          "type": "address"
        }
      ],
      "name": "FingerprintProxyRegisted",
      "type": "event"
    },
    {
      "anonymous": false,
      "inputs": [
        {
          "indexed": true,
          "internalType": "address",
          "name": "previousOwner",
          "type": "address"
        },
        {
          "indexed": true,
          "internalType": "address",
          "name": "newOwner",
          "type": "address"
        }
      ],
      "name": "OwnershipTransferred",
      "type": "event"
    },
    {
      "anonymous": false,
      "inputs": [
        {
          "indexed": true,
          "internalType": "address",
          "name": "_seller",
          "type": "address"
        },
        {
          "indexed": true,
          "internalType": "address",
          "name": "buyer",
          "type": "address"
        },
        {
          "indexed": true,
          "internalType": "address",
          "name": "_nft",
          "type": "address"
        },
        {
          "indexed": false,
          "internalType": "uint256",
          "name": "_tokenId",
          "type": "uint256"
        },
        {
          "indexed": false,
          "internalType": "address",
          "name": "_quoteToken",
          "type": "address"
        },
        {
          "indexed": false,
          "internalType": "uint256",
          "name": "_price",
          "type": "uint256"
        },
        {
          "indexed": false,
          "internalType": "uint256",
          "name": "_netPrice",
          "type": "uint256"
        }
      ],
      "name": "Trade",
      "type": "event"
    },
    {
      "inputs": [],
      "name": "MAX_FEE",
      "outputs": [
        {
          "internalType": "uint256",
          "name": "",
          "type": "uint256"
        }
      ],
      "stateMutability": "view",
      "type": "function"
    },
    {
      "inputs": [],
      "name": "WETH",
      "outputs": [
        {
          "internalType": "address",
          "name": "",
          "type": "address"
        }
      ],
      "stateMutability": "view",
      "type": "function"
    },
    {
      "inputs": [
        {
          "internalType": "address",
          "name": "_nft",
          "type": "address"
        },
        {
          "internalType": "uint256",
          "name": "_tokenId",
          "type": "uint256"
        },
        {
          "internalType": "address",
          "name": "_bidder",
          "type": "address"
        },
        {
          "internalType": "address",
          "name": "_quoteToken",
          "type": "address"
        },
        {
          "internalType": "uint256",
          "name": "_price",
          "type": "uint256"
        }
      ],
      "name": "acceptBid",
      "outputs": [],
      "stateMutability": "nonpayable",
      "type": "function"
    },
    {
      "inputs": [
        {
          "internalType": "address",
          "name": "",
          "type": "address"
        },
        {
          "internalType": "uint256",
          "name": "",
          "type": "uint256"
        }
      ],
      "name": "asks",
      "outputs": [
        {
          "internalType": "address",
          "name": "seller",
          "type": "address"
        },
        {
          "internalType": "address",
          "name": "quoteToken",
          "type": "address"
        },
        {
          "internalType": "uint256",
          "name": "price",
          "type": "uint256"
        }
      ],
      "stateMutability": "view",
      "type": "function"
    },
    {
      "inputs": [
        {
          "internalType": "address",
          "name": "",
          "type": "address"
        },
        {
          "internalType": "uint256",
          "name": "",
          "type": "uint256"
        },
        {
          "internalType": "address",
          "name": "",
          "type": "address"
        }
      ],
      "name": "bids",
      "outputs": [
        {
          "internalType": "address",
          "name": "quoteToken",
          "type": "address"
        },
        {
          "internalType": "uint256",
          "name": "price",
          "type": "uint256"
        },
        {
          "internalType": "bytes32",
          "name": "fingerprint",
          "type": "bytes32"
        }
      ],
      "stateMutability": "view",
      "type": "function"
    },
    {
      "inputs": [
        {
          "internalType": "address",
          "name": "_nft",
          "type": "address"
        },
        {
          "internalType": "uint256",
          "name": "_tokenId",
          "type": "uint256"
        },
        {
          "internalType": "address",
          "name": "_quoteToken",
          "type": "address"
        },
        {
          "internalType": "uint256",
          "name": "_price",
          "type": "uint256"
        },
        {
          "internalType": "bytes32",
          "name": "_fingeprint",
          "type": "bytes32"
        }
      ],
      "name": "buy",
      "outputs": [],
      "stateMutability": "nonpayable",
      "type": "function"
    },
    {
      "inputs": [
        {
          "internalType": "address",
          "name": "_nft",
          "type": "address"
        },
        {
          "internalType": "uint256",
          "name": "_tokenId",
          "type": "uint256"
        },
        {
          "internalType": "bytes32",
          "name": "_fingerprint",
          "type": "bytes32"
        }
      ],
      "name": "buyUsingNative",
      "outputs": [],
      "stateMutability": "payable",
      "type": "function"
    },
    {
      "inputs": [
        {
          "internalType": "address",
          "name": "_nft",
          "type": "address"
        },
        {
          "internalType": "uint256",
          "name": "_tokenId",
          "type": "uint256"
        }
      ],
      "name": "cancelAsk",
      "outputs": [],
      "stateMutability": "nonpayable",
      "type": "function"
    },
    {
      "inputs": [
        {
          "internalType": "address",
          "name": "_nft",
          "type": "address"
        },
        {
          "internalType": "uint256",
          "name": "_tokenId",
          "type": "uint256"
        }
      ],
      "name": "cancelBid",
      "outputs": [],
      "stateMutability": "nonpayable",
      "type": "function"
    },
    {
      "inputs": [
        {
          "internalType": "address",
          "name": "",
          "type": "address"
        }
      ],
      "name": "collections",
      "outputs": [
        {
          "internalType": "uint256",
          "name": "loyaltyFeePercent",
          "type": "uint256"
        },
        {
          "internalType": "address",
          "name": "loyaltyFeeRecipient",
          "type": "address"
        }
      ],
      "stateMutability": "view",
      "type": "function"
    },
    {
      "inputs": [
        {
          "internalType": "address",
          "name": "_nft",
          "type": "address"
        },
        {
          "internalType": "uint256",
          "name": "_tokenId",
          "type": "uint256"
        },
        {
          "internalType": "address",
          "name": "_quoteToken",
          "type": "address"
        },
        {
          "internalType": "uint256",
          "name": "_price",
          "type": "uint256"
        }
      ],
      "name": "createAsk",
      "outputs": [],
      "stateMutability": "nonpayable",
      "type": "function"
    },
    {
      "inputs": [
        {
          "internalType": "address",
          "name": "_nft",
          "type": "address"
        },
        {
          "internalType": "uint256",
          "name": "_tokenId",
          "type": "uint256"
        },
        {
          "internalType": "address",
          "name": "_quoteToken",
          "type": "address"
        },
        {
          "internalType": "uint256",
          "name": "_price",
          "type": "uint256"
        },
        {
          "internalType": "bytes32",
          "name": "_fingerprint",
          "type": "bytes32"
        }
      ],
      "name": "createBid",
      "outputs": [],
      "stateMutability": "nonpayable",
      "type": "function"
    },
    {
      "inputs": [
        {
          "internalType": "address",
          "name": "_nft",
          "type": "address"
        },
        {
          "internalType": "uint256",
          "name": "_tokenId",
          "type": "uint256"
        },
        {
          "internalType": "bytes32",
          "name": "_fingperprint",
          "type": "bytes32"
        }
      ],
      "name": "createBidUsingNative",
      "outputs": [],
      "stateMutability": "payable",
      "type": "function"
    },
    {
      "inputs": [
        {
          "internalType": "address",
          "name": "",
          "type": "address"
        }
      ],
      "name": "fingerprintProxies",
      "outputs": [
        {
          "internalType": "address",
          "name": "",
          "type": "address"
        }
      ],
      "stateMutability": "view",
      "type": "function"
    },
    {
      "inputs": [
        {
          "internalType": "address",
          "name": "",
          "type": "address"
        },
        {
          "internalType": "address",
          "name": "",
          "type": "address"
        },
        {
          "internalType": "uint256",
          "name": "",
          "type": "uint256"
        },
        {
          "internalType": "bytes",
          "name": "",
          "type": "bytes"
        }
      ],
      "name": "onERC721Received",
      "outputs": [
        {
          "internalType": "bytes4",
          "name": "",
          "type": "bytes4"
        }
      ],
      "stateMutability": "nonpayable",
      "type": "function"
    },
    {
      "inputs": [],
      "name": "owner",
      "outputs": [
        {
          "internalType": "address",
          "name": "",
          "type": "address"
        }
      ],
      "stateMutability": "view",
      "type": "function"
    },
    {
      "inputs": [],
      "name": "protocolFeePercent",
      "outputs": [
        {
          "internalType": "uint256",
          "name": "",
          "type": "uint256"
        }
      ],
      "stateMutability": "view",
      "type": "function"
    },
    {
      "inputs": [],
      "name": "protocolFeeRecipient",
      "outputs": [
        {
          "internalType": "address",
          "name": "",
          "type": "address"
        }
      ],
      "stateMutability": "view",
      "type": "function"
    },
    {
      "inputs": [
        {
          "internalType": "address",
          "name": "_nft",
          "type": "address"
        },
        {
          "internalType": "address",
          "name": "_fingerprintProxy",
          "type": "address"
        }
      ],
      "name": "registerFingerPrintProxy",
      "outputs": [],
      "stateMutability": "nonpayable",
      "type": "function"
    },
    {
      "inputs": [],
      "name": "renounceOwnership",
      "outputs": [],
      "stateMutability": "nonpayable",
      "type": "function"
    },
    {
      "inputs": [
        {
          "internalType": "address",
          "name": "_nft",
          "type": "address"
        },
        {
          "internalType": "address",
          "name": "_recipient",
          "type": "address"
        },
        {
          "internalType": "uint256",
          "name": "_percent",
          "type": "uint256"
        }
      ],
      "name": "setCollection",
      "outputs": [],
      "stateMutability": "nonpayable",
      "type": "function"
    },
    {
      "inputs": [
        {
          "internalType": "uint256",
          "name": "_percent",
          "type": "uint256"
        }
      ],
      "name": "setProtocolFeePercent",
      "outputs": [],
      "stateMutability": "nonpayable",
      "type": "function"
    },
    {
      "inputs": [
        {
          "internalType": "address",
          "name": "_recipient",
          "type": "address"
        }
      ],
      "name": "setProtocolFeeRecipient",
      "outputs": [],
      "stateMutability": "nonpayable",
      "type": "function"
    },
    {
      "inputs": [
        {
          "internalType": "address",
          "name": "newOwner",
          "type": "address"
        }
      ],
      "name": "transferOwnership",
      "outputs": [],
      "stateMutability": "nonpayable",
      "type": "function"
    }
  ],
  "bytecode": "0x60a060405260fa6003556101f46005553480156200001c57600080fd5b50604051620025eb380380620025eb8339810160408190526200003f91620000f9565b81816200004c336200008c565b60018055600280546001600160a01b0319166001600160a01b039390931692909217909155600355505060601b6001600160601b03191660805262000139565b600080546001600160a01b038381166001600160a01b0319831681178455604051919092169283917f8be0079c531659141344cd1fd0a4f28419497f9722a3daafe3b4186f6b6457e09190a35050565b80516001600160a01b0381168114620000f457600080fd5b919050565b6000806000606084860312156200010e578283fd5b6200011984620000dc565b92506200012960208501620000dc565b9150604084015190509250925092565b60805160601c612477620001746000396000818161036401528181610ed001528181610f4901528181611193015261120c01526124776000f3fe60806040526004361061014a5760003560e01c8063a4983421116100b6578063d6e6eb9f1161006f578063d6e6eb9f14610413578063dce97c5114610429578063dd76892214610449578063e22d4f7d146104c5578063e521cb9214610528578063f2fde38b1461054857600080fd5b8063a498342114610332578063ad5c464814610352578063bbafdf5414610386578063bc063e1a146103a6578063c0a3f88e146103ca578063c87b6341146103dd57600080fd5b806364df049e1161010857806364df049e146102745780636fa92cb8146102ac578063715018a6146102cc57806371f7c13b146102e15780638da5cb5b14610301578063a3ee0a5a1461031f57600080fd5b80626795d51461014f578063150b7a02146101715780633161f642146101ba57806339b6b1e5146101da57806340b80746146101fa57806343add2e61461021a575b600080fd5b34801561015b57600080fd5b5061016f61016a36600461213d565b610568565b005b34801561017d57600080fd5b5061019c61018c366004611fb0565b630a85bd0160e11b949350505050565b6040516001600160e01b031990911681526020015b60405180910390f35b3480156101c657600080fd5b5061016f6101d5366004611f43565b61075d565b3480156101e657600080fd5b5061016f6101f5366004612085565b6107f2565b34801561020657600080fd5b5061016f610215366004612085565b61082c565b34801561022657600080fd5b50610257610235366004611f29565b600660205260009081526040902080546001909101546001600160a01b031682565b604080519283526001600160a01b039091166020830152016101b1565b34801561028057600080fd5b50600254610294906001600160a01b031681565b6040516001600160a01b0390911681526020016101b1565b3480156102b857600080fd5b5061016f6102c73660046120e9565b6109aa565b3480156102d857600080fd5b5061016f610d9a565b3480156102ed57600080fd5b5061016f6102fc366004612180565b610dd0565b34801561030d57600080fd5b506000546001600160a01b0316610294565b61016f61032d3660046121cd565b610e65565b34801561033e57600080fd5b5061016f61034d36600461221f565b610f78565b34801561035e57600080fd5b506102947f000000000000000000000000000000000000000000000000000000000000000081565b34801561039257600080fd5b5061016f6103a1366004612180565b610fe3565b3480156103b257600080fd5b506103bc60055481565b6040519081526020016101b1565b61016f6103d83660046121cd565b6110c5565b3480156103e957600080fd5b506102946103f8366004611f29565b6007602052600090815260409020546001600160a01b031681565b34801561041f57600080fd5b506103bc60035481565b34801561043557600080fd5b5061016f610444366004611f75565b611232565b34801561045557600080fd5b506104a06104643660046120ae565b60096020908152600093845260408085208252928452828420905282529020805460018201546002909201546001600160a01b03909116919083565b604080516001600160a01b0390941684526020840192909252908201526060016101b1565b3480156104d157600080fd5b506105196104e0366004612085565b60086020908152600092835260408084209091529082529020805460018201546002909201546001600160a01b03918216929091169083565b6040516101b193929190612253565b34801561053457600080fd5b5061016f610543366004611f29565b6113b4565b34801561055457600080fd5b5061016f610563366004611f29565b611464565b600260015414156105945760405162461bcd60e51b815260040161058b90612344565b60405180910390fd5b6002600155333b156105b85760405162461bcd60e51b815260040161058b906122aa565b3332146105d75760405162461bcd60e51b815260040161058b906122d8565b600081116106335760405162461bcd60e51b8152602060048201526024808201527f41736b3a205072696365206d7573742062652067726561746572207468616e206044820152637a65726f60e01b606482015260840161058b565b604051632142170760e11b81526001600160a01b038516906342842e0e9061066390339030908890600401612253565b600060405180830381600087803b15801561067d57600080fd5b505af1158015610691573d6000803e3d6000fd5b5050505060405180606001604052806106a73390565b6001600160a01b039081168252848116602080840182905260409384018690528883166000818152600883528581208a82528352859020865181549086166001600160a01b0319918216178255878401516001830180549190971691161790945594840151600290930192909255825187815291820152808201849052905133917f9a334381123a2a5affb4d69737ab464025dee3156576bab65294d6b7e9d49dec919081900360600190a35050600180555050565b6000546001600160a01b031633146107875760405162461bcd60e51b815260040161058b9061230f565b6001600160a01b0382811660008181526007602090815260409182902080546001600160a01b031916948616948517905581519283528201929092527f34d7de5b89c8368f0fad33e8dff9d827147f3bcefa6a0ad6f198a1b97959a961910160405180910390a15050565b600260015414156108155760405162461bcd60e51b815260040161058b90612344565b600260015561082482826114ff565b505060018055565b6002600154141561084f5760405162461bcd60e51b815260040161058b90612344565b60026001556001600160a01b0382811660009081526008602090815260408083208584529091529020541633146108bb5760405162461bcd60e51b815260206004820152601060248201526f20b9b59d1037b7363c9039b2b63632b960811b604482015260640161058b565b604051632142170760e11b81526001600160a01b038316906342842e0e906108eb90309033908690600401612253565b600060405180830381600087803b15801561090557600080fd5b505af1158015610919573d6000803e3d6000fd5b505050506001600160a01b0382166000818152600860209081526040808320858452909152812080546001600160a01b03199081168255600182018054909116905560020155336001600160a01b03167fa5764ea233325154a6388255c54b9f302ec2ed8586af0a9a606cd64e88298eb78360405161099a91815260200190565b60405180910390a3505060018055565b600260015414156109cd5760405162461bcd60e51b815260040161058b90612344565b600260018181556001600160a01b0380881660009081526009602090815260408083208a845282528083208985168452825291829020825160608101845281549094168452938401549083018190529290930154928101929092528214610a765760405162461bcd60e51b815260206004820152601860248201527f4163636570744269643a20696e76616c69642070726963650000000000000000604482015260640161058b565b826001600160a01b031681600001516001600160a01b031614610adb5760405162461bcd60e51b815260206004820152601d60248201527f4163636570744269643a20696e76616c69642071756f7465546f6b656e000000604482015260640161058b565b610aea8686836040015161162a565b6001600160a01b0386811660009081526008602090815260408083208984529091529020541633811415610b7f57604051632142170760e11b81526001600160a01b038816906342842e0e90610b4890309089908b90600401612253565b600060405180830381600087803b158015610b6257600080fd5b505af1158015610b76573d6000803e3d6000fd5b50505050610be5565b50604051632142170760e11b815233906001600160a01b038816906342842e0e90610bb290849089908b90600401612253565b600060405180830381600087803b158015610bcc57600080fd5b505af1158015610be0573d6000803e3d6000fd5b505050505b6000610bf288868661173c565b90506000610c00858361182b565b9050610c166001600160a01b0387168483611837565b600860008a6001600160a01b03166001600160a01b031681526020019081526020016000206000898152602001908152602001600020600080820160006101000a8154906001600160a01b0302191690556001820160006101000a8154906001600160a01b03021916905560028201600090555050600960008a6001600160a01b03166001600160a01b0316815260200190815260200160002060008981526020019081526020016000206000886001600160a01b03166001600160a01b03168152602001908152602001600020600080820160006101000a8154906001600160a01b030219169055600182016000905560028201600090555050886001600160a01b0316876001600160a01b0316846001600160a01b03167f110ad5be64e5fef5d8a9433938fccf79b5b6623af1a17f0990815ed076abdb588b8a8a87604051610d8394939291909384526001600160a01b039290921660208401526040830152606082015260800190565b60405180910390a450506001805550505050505050565b6000546001600160a01b03163314610dc45760405162461bcd60e51b815260040161058b9061230f565b610dce600061189a565b565b333b15610def5760405162461bcd60e51b815260040161058b906122aa565b333214610e0e5760405162461bcd60e51b815260040161058b906122d8565b60026001541415610e315760405162461bcd60e51b815260040161058b90612344565b6002600155610e4d335b6001600160a01b0385169030856118ea565b610e5a8585858585611911565b505060018055505050565b333b15610e845760405162461bcd60e51b815260040161058b906122aa565b333214610ea35760405162461bcd60e51b815260040161058b906122d8565b60026001541415610ec65760405162461bcd60e51b815260040161058b90612344565b60026001819055507f00000000000000000000000000000000000000000000000000000000000000006001600160a01b031663d0e30db0346040518263ffffffff1660e01b81526004016000604051808303818588803b158015610f2957600080fd5b505af1158015610f3d573d6000803e3d6000fd5b5050505050610f6f83837f00000000000000000000000000000000000000000000000000000000000000003485611911565b50506001805550565b6000546001600160a01b03163314610fa25760405162461bcd60e51b815260040161058b9061230f565b600554811115610fde5760405162461bcd60e51b81526020600482015260076024820152666d61785f66656560c81b604482015260640161058b565b600355565b333b156110025760405162461bcd60e51b815260040161058b906122aa565b3332146110215760405162461bcd60e51b815260040161058b906122d8565b600260015414156110445760405162461bcd60e51b815260040161058b90612344565b60026001556001600160a01b038581166000908152600860209081526040808320888452909152902054166110af5760405162461bcd60e51b81526020600482015260116024820152701d1bdad95b881a5cc81b9bdd081cd95b1b607a1b604482015260640161058b565b6110b833610e3b565b610e5a8585858585611a65565b600260015414156110e85760405162461bcd60e51b815260040161058b90612344565b6002600155333b1561110c5760405162461bcd60e51b815260040161058b906122aa565b33321461112b5760405162461bcd60e51b815260040161058b906122d8565b6001600160a01b038381166000908152600860209081526040808320868452909152902054166111915760405162461bcd60e51b81526020600482015260116024820152701d1bdad95b881a5cc81b9bdd081cd95b1b607a1b604482015260640161058b565b7f00000000000000000000000000000000000000000000000000000000000000006001600160a01b031663d0e30db0346040518263ffffffff1660e01b81526004016000604051808303818588803b1580156111ec57600080fd5b505af1158015611200573d6000803e3d6000fd5b5050505050610f6f83837f00000000000000000000000000000000000000000000000000000000000000003485611a65565b6000546001600160a01b0316331461125c5760405162461bcd60e51b815260040161058b9061230f565b6005548111156112985760405162461bcd60e51b81526020600482015260076024820152666d61785f66656560c81b604482015260640161058b565b6001600160a01b0383166112dd5760405162461bcd60e51b815260206004820152600c60248201526b7a65726f206164647265737360a01b604482015260640161058b565b6001600160a01b0382166113225760405162461bcd60e51b815260206004820152600c60248201526b7a65726f206164647265737360a01b604482015260640161058b565b6040805180820182528281526001600160a01b0384811660208084019182528783166000908152600682528590209351808555915160019094018054949093166001600160a01b031990941684179092558351338152918201528083019190915290517fff46874afead5e80822ecf46dda060808cd504220df8a1b17acbdf840e1545419181900360600190a1505050565b6000546001600160a01b031633146113de5760405162461bcd60e51b815260040161058b9061230f565b6001600160a01b0381166114425760405162461bcd60e51b815260206004820152602560248201527f4572633732314e46544665654469737472696275746f723a207a65726f206164604482015264647265737360d81b606482015260840161058b565b600280546001600160a01b0319166001600160a01b0392909216919091179055565b6000546001600160a01b0316331461148e5760405162461bcd60e51b815260040161058b9061230f565b6001600160a01b0381166114f35760405162461bcd60e51b815260206004820152602660248201527f4f776e61626c653a206e6577206f776e657220697320746865207a65726f206160448201526564647265737360d01b606482015260840161058b565b6114fc8161189a565b50565b6001600160a01b0382811660009081526009602090815260408083208584528252808320338452825291829020825160608101845281549094168452600181015491840182905260020154918301919091526115925760405162461bcd60e51b8152602060048201526012602482015271109a590e88189a59081b9bdd08199bdd5b9960721b604482015260640161058b565b6115ad33602083015183516001600160a01b03169190611837565b6001600160a01b038316600081815260096020908152604080832086845282528083203380855290835281842080546001600160a01b03191681556001810185905560020193909355518581527fbd3087862a2ef6b9693b39cf415bf0c5ebd9238566d9b2778d3b1cee2c76ef9a910160405180910390a3505050565b6001600160a01b038381166000908152600760205260409020541615611737576001600160a01b0383811660009081526007602052604090819020549051638cb5b56b60e01b81526004810185905260248101849052911690638cb5b56b9060440160206040518083038186803b1580156116a457600080fd5b505afa1580156116b8573d6000803e3d6000fd5b505050506040513d601f19601f820116820180604052508101906116dc91906121ff565b6117375760405162461bcd60e51b815260206004820152602660248201527f45726337323146696e6765727072696e743a20696e76616c69642066696e67656044820152651c9c1c9a5b9d60d21b606482015260840161058b565b505050565b600254600090819081906001600160a01b03161561179f5761177561271061176f60035487611c9690919063ffffffff16565b90611ca2565b600254909250611792906001600160a01b03878116911684611837565b61179c8183611cae565b90505b6001600160a01b0380871660009081526006602090815260409182902082518084019093528054835260010154909216918101829052901561181f5780516117f0906127109061176f908890611c96565b92508215611812576020810151611812906001600160a01b0388169085611837565b61181c8284611cae565b91505b509150505b9392505050565b600061182482846123d2565b6040516001600160a01b03831660248201526044810182905261173790849063a9059cbb60e01b906064015b60408051601f198184030181529190526020810180516001600160e01b03166001600160e01b031990931692909217909152611cba565b600080546001600160a01b038381166001600160a01b0319831681178455604051919092169283917f8be0079c531659141344cd1fd0a4f28419497f9722a3daafe3b4186f6b6457e09190a35050565b61190b846323b872dd60e01b85858560405160240161186393929190612253565b50505050565b6000821161196d5760405162461bcd60e51b8152602060048201526024808201527f4269643a205072696365206d757374206265206772616e746572207468616e206044820152637a65726f60e01b606482015260840161058b565b6001600160a01b03851660009081526009602090815260408083208784528252808320338452909152902060010154156119ab576119ab85856114ff565b60408051606080820183526001600160a01b0386811680845260208085018881528587018881528c85166000818152600985528981208e8252855289812033808352908652908a9020985189546001600160a01b0319169716969096178855915160018801555160029096019590955585518a8152908101919091528085018790529351929390927fdbd3618f64e1cad826227a83ae8ea52db3d7b6f308a388b197180168a722a3db929181900390910190a35050505050565b6001600160a01b038086166000908152600860209081526040808320888452825291829020825160608101845281548516815260018201548516928101839052600290910154928101929092529091851614611b035760405162461bcd60e51b815260206004820152601a60248201527f4275793a20496e636f727265637420716f75746520746f6b656e000000000000604482015260640161058b565b82816040015114611b4d5760405162461bcd60e51b81526020600482015260146024820152734275793a20496e636f727265637420707269636560601b604482015260640161058b565b611b5886868461162a565b6000611b6587868661173c565b90506000611b73858361182b565b8351909150611b8d906001600160a01b0388169083611837565b604051632142170760e11b81526001600160a01b038916906342842e0e90611bbd90309033908c90600401612253565b600060405180830381600087803b158015611bd757600080fd5b505af1158015611beb573d6000803e3d6000fd5b505050506001600160a01b03881660008181526008602090815260408083208b8452909152812080546001600160a01b03199081168255600182018054909116905560020155338451604080518b81526001600160a01b038b811660208301529181018a905260608101869052928116929116907f8a181b821b6fbc45fb158a5ade70964c9d58849c1ac3cd4078aa9cff7f5d20499060800160405180910390a45050505050505050565b600061182482846123b3565b60006118248284612393565b6000611824828461237b565b6000611d0f826040518060400160405280602081526020017f5361666545524332303a206c6f772d6c6576656c2063616c6c206661696c6564815250856001600160a01b0316611d8c9092919063ffffffff16565b8051909150156117375780806020019051810190611d2d91906121ff565b6117375760405162461bcd60e51b815260206004820152602a60248201527f5361666545524332303a204552433230206f7065726174696f6e20646964206e6044820152691bdd081cdd58d8d9595960b21b606482015260840161058b565b6060611d9b8484600085611da3565b949350505050565b606082471015611e045760405162461bcd60e51b815260206004820152602660248201527f416464726573733a20696e73756666696369656e742062616c616e636520666f6044820152651c8818d85b1b60d21b606482015260840161058b565b6001600160a01b0385163b611e5b5760405162461bcd60e51b815260206004820152601d60248201527f416464726573733a2063616c6c20746f206e6f6e2d636f6e7472616374000000604482015260640161058b565b600080866001600160a01b03168587604051611e779190612237565b60006040518083038185875af1925050503d8060008114611eb4576040519150601f19603f3d011682016040523d82523d6000602084013e611eb9565b606091505b5091509150611ec9828286611ed4565b979650505050505050565b60608315611ee3575081611824565b825115611ef35782518084602001fd5b8160405162461bcd60e51b815260040161058b9190612277565b80356001600160a01b0381168114611f2457600080fd5b919050565b600060208284031215611f3a578081fd5b61182482611f0d565b60008060408385031215611f55578081fd5b611f5e83611f0d565b9150611f6c60208401611f0d565b90509250929050565b600080600060608486031215611f89578081fd5b611f9284611f0d565b9250611fa060208501611f0d565b9150604084013590509250925092565b60008060008060808587031215611fc5578081fd5b611fce85611f0d565b9350611fdc60208601611f0d565b925060408501359150606085013567ffffffffffffffff80821115611fff578283fd5b818701915087601f830112612012578283fd5b8135818111156120245761202461242b565b604051601f8201601f19908116603f0116810190838211818310171561204c5761204c61242b565b816040528281528a6020848701011115612064578586fd5b82602086016020830137918201602001949094529598949750929550505050565b60008060408385031215612097578182fd5b6120a083611f0d565b946020939093013593505050565b6000806000606084860312156120c2578283fd5b6120cb84611f0d565b9250602084013591506120e060408501611f0d565b90509250925092565b600080600080600060a08688031215612100578081fd5b61210986611f0d565b94506020860135935061211e60408701611f0d565b925061212c60608701611f0d565b949793965091946080013592915050565b60008060008060808587031215612152578384fd5b61215b85611f0d565b93506020850135925061217060408601611f0d565b9396929550929360600135925050565b600080600080600060a08688031215612197578081fd5b6121a086611f0d565b9450602086013593506121b560408701611f0d565b94979396509394606081013594506080013592915050565b6000806000606084860312156121e1578283fd5b6121ea84611f0d565b95602085013595506040909401359392505050565b600060208284031215612210578081fd5b81518015158114611824578182fd5b600060208284031215612230578081fd5b5035919050565b600082516122498184602087016123e9565b9190910192915050565b6001600160a01b039384168152919092166020820152604081019190915260600190565b60208152600082518060208401526122968160408501602087016123e9565b601f01601f19169190910160400192915050565b60208082526014908201527310dbdb9d1c9858dd081b9bdd08185b1b1bddd95960621b604082015260600190565b6020808252601a908201527f50726f787920636f6e7472616374206e6f7420616c6c6f776564000000000000604082015260600190565b6020808252818101527f4f776e61626c653a2063616c6c6572206973206e6f7420746865206f776e6572604082015260600190565b6020808252601f908201527f5265656e7472616e637947756172643a207265656e7472616e742063616c6c00604082015260600190565b6000821982111561238e5761238e612415565b500190565b6000826123ae57634e487b7160e01b81526012600452602481fd5b500490565b60008160001904831182151516156123cd576123cd612415565b500290565b6000828210156123e4576123e4612415565b500390565b60005b838110156124045781810151838201526020016123ec565b8381111561190b5750506000910152565b634e487b7160e01b600052601160045260246000fd5b634e487b7160e01b600052604160045260246000fdfea26469706673582212203165674b1d50c1256d8d69bc5bb9bcefcf67d4fcc502c5dd62639907be7ea60864736f6c63430008040033",
  "linkReferences": {},
  "deployedLinkReferences": {}
}