{
  "_format": "hh-sol-artifact-1",
  "contractName": "TokenTimelock",
  "sourceName": "contracts/TokenTimelock.sol",
  "abi": [
    {
      "inputs": [
        {
          "internalType": "contract IERC20",
          "name": "token",
          "type": "address"
        },
        {
          "internalType": "address",
          "name": "beneficiary",
          "type": "address"
        },
        {
          "internalType": "uint256",
          "name": "releaseTime",
          "type": "uint256"
        }
      ],
      "stateMutability": "nonpayable",
      "type": "constructor"
    },
    {
      "anonymous": false,
      "inputs": [
        {
          "indexed": true,
          "internalType": "address",
          "name": "previousOwner",
          "type": "address"
        },
        {
          "indexed": true,
          "internalType": "address",
          "name": "newOwner",
          "type": "address"
        }
      ],
      "name": "OwnershipTransferred",
      "type": "event"
    },
    {
      "inputs": [],
      "name": "beneficiary",
      "outputs": [
        {
          "internalType": "address",
          "name": "",
          "type": "address"
        }
      ],
      "stateMutability": "view",
      "type": "function"
    },
    {
      "inputs": [
        {
          "internalType": "address",
          "name": "_newAddr",
          "type": "address"
        }
      ],
      "name": "changeBeneficiary",
      "outputs": [],
      "stateMutability": "nonpayable",
      "type": "function"
    },
    {
      "inputs": [],
      "name": "owner",
      "outputs": [
        {
          "internalType": "address",
          "name": "",
          "type": "address"
        }
      ],
      "stateMutability": "view",
      "type": "function"
    },
    {
      "inputs": [],
      "name": "release",
      "outputs": [],
      "stateMutability": "nonpayable",
      "type": "function"
    },
    {
      "inputs": [],
      "name": "releaseTime",
      "outputs": [
        {
          "internalType": "uint256",
          "name": "",
          "type": "uint256"
        }
      ],
      "stateMutability": "view",
      "type": "function"
    },
    {
      "inputs": [],
      "name": "renounceOwnership",
      "outputs": [],
      "stateMutability": "nonpayable",
      "type": "function"
    },
    {
      "inputs": [],
      "name": "token",
      "outputs": [
        {
          "internalType": "contract IERC20",
          "name": "",
          "type": "address"
        }
      ],
      "stateMutability": "view",
      "type": "function"
    },
    {
      "inputs": [
        {
          "internalType": "address",
          "name": "newOwner",
          "type": "address"
        }
      ],
      "name": "transferOwnership",
      "outputs": [],
      "stateMutability": "nonpayable",
      "type": "function"
    }
  ],
  "bytecode": "0x608060405234801561001057600080fd5b5060405161098438038061098483398101604081905261002f9161012e565b610038336100de565b4281116100a65760405162461bcd60e51b815260206004820152603260248201527f546f6b656e54696d656c6f636b3a2072656c656173652074696d65206973206260448201527165666f72652063757272656e742074696d6560701b606482015260840160405180910390fd5b600180546001600160a01b039485166001600160a01b0319918216179091556002805493909416921691909117909155600355610188565b600080546001600160a01b038381166001600160a01b0319831681178455604051919092169283917f8be0079c531659141344cd1fd0a4f28419497f9722a3daafe3b4186f6b6457e09190a35050565b600080600060608486031215610142578283fd5b835161014d81610170565b602085015190935061015e81610170565b80925050604084015190509250925092565b6001600160a01b038116811461018557600080fd5b50565b6107ed806101976000396000f3fe608060405234801561001057600080fd5b50600436106100885760003560e01c8063b91d40011161005b578063b91d4001146100da578063dc070657146100eb578063f2fde38b146100fe578063fc0c546a1461011157600080fd5b806338af3eed1461008d578063715018a6146100b757806386d1a69f146100c15780638da5cb5b146100c9575b600080fd5b6002546001600160a01b03165b6040516001600160a01b0390911681526020015b60405180910390f35b6100bf610122565b005b6100bf610161565b6000546001600160a01b031661009a565b6003546040519081526020016100ae565b6100bf6100f93660046106a4565b6102c8565b6100bf61010c3660046106a4565b610314565b6001546001600160a01b031661009a565b6000546001600160a01b031633146101555760405162461bcd60e51b815260040161014c90610752565b60405180910390fd5b61015f60006103a8565b565b6003544210156101ce5760405162461bcd60e51b815260206004820152603260248201527f546f6b656e54696d656c6f636b3a2063757272656e742074696d65206973206260448201527165666f72652072656c656173652074696d6560701b606482015260840161014c565b6001546040516370a0823160e01b81523060048201526000916001600160a01b0316906370a082319060240160206040518083038186803b15801561021257600080fd5b505afa158015610226573d6000803e3d6000fd5b505050506040513d601f19601f8201168201806040525081019061024a91906106eb565b9050600081116102a85760405162461bcd60e51b815260206004820152602360248201527f546f6b656e54696d656c6f636b3a206e6f20746f6b656e7320746f2072656c6560448201526261736560e81b606482015260840161014c565b6002546001546102c5916001600160a01b039182169116836103f8565b50565b6000546001600160a01b031633146102f25760405162461bcd60e51b815260040161014c90610752565b600280546001600160a01b0319166001600160a01b0392909216919091179055565b6000546001600160a01b0316331461033e5760405162461bcd60e51b815260040161014c90610752565b6001600160a01b0381166103a35760405162461bcd60e51b815260206004820152602660248201527f4f776e61626c653a206e6577206f776e657220697320746865207a65726f206160448201526564647265737360d01b606482015260840161014c565b6102c5815b600080546001600160a01b038381166001600160a01b0319831681178455604051919092169283917f8be0079c531659141344cd1fd0a4f28419497f9722a3daafe3b4186f6b6457e09190a35050565b604080516001600160a01b038416602482015260448082018490528251808303909101815260649091019091526020810180516001600160e01b031663a9059cbb60e01b17905261044a90849061044f565b505050565b60006104a4826040518060400160405280602081526020017f5361666545524332303a206c6f772d6c6576656c2063616c6c206661696c6564815250856001600160a01b03166105219092919063ffffffff16565b80519091501561044a57808060200190518101906104c291906106cb565b61044a5760405162461bcd60e51b815260206004820152602a60248201527f5361666545524332303a204552433230206f7065726174696f6e20646964206e6044820152691bdd081cdd58d8d9595960b21b606482015260840161014c565b6060610530848460008561053a565b90505b9392505050565b60608247101561059b5760405162461bcd60e51b815260206004820152602660248201527f416464726573733a20696e73756666696369656e742062616c616e636520666f6044820152651c8818d85b1b60d21b606482015260840161014c565b6001600160a01b0385163b6105f25760405162461bcd60e51b815260206004820152601d60248201527f416464726573733a2063616c6c20746f206e6f6e2d636f6e7472616374000000604482015260640161014c565b600080866001600160a01b0316858760405161060e9190610703565b60006040518083038185875af1925050503d806000811461064b576040519150601f19603f3d011682016040523d82523d6000602084013e610650565b606091505b509150915061066082828661066b565b979650505050505050565b6060831561067a575081610533565b82511561068a5782518084602001fd5b8160405162461bcd60e51b815260040161014c919061071f565b6000602082840312156106b5578081fd5b81356001600160a01b0381168114610533578182fd5b6000602082840312156106dc578081fd5b81518015158114610533578182fd5b6000602082840312156106fc578081fd5b5051919050565b60008251610715818460208701610787565b9190910192915050565b602081526000825180602084015261073e816040850160208701610787565b601f01601f19169190910160400192915050565b6020808252818101527f4f776e61626c653a2063616c6c6572206973206e6f7420746865206f776e6572604082015260600190565b60005b838110156107a257818101518382015260200161078a565b838111156107b1576000848401525b5050505056fea26469706673582212204aa92b73aa5fb563d1b973a92eef2dcde738233c2078a996ab6442ad74c0c0ca64736f6c63430008040033",
  "linkReferences": {},
  "deployedLinkReferences": {}
}