{
  "_format": "hh-sol-artifact-1",
  "contractName": "KaiDexMigrate",
  "sourceName": "contracts/exchange/KaiDexMigrate.sol",
  "abi": [
    {
      "inputs": [
        {
          "internalType": "contract IKaiDexRouterV2",
          "name": "_oldRouter",
          "type": "address"
        },
        {
          "internalType": "contract IKaiDexRouterV2",
          "name": "_router",
          "type": "address"
        }
      ],
      "stateMutability": "nonpayable",
      "type": "constructor"
    },
    {
      "inputs": [
        {
          "internalType": "address",
          "name": "tokenA",
          "type": "address"
        },
        {
          "internalType": "address",
          "name": "tokenB",
          "type": "address"
        },
        {
          "internalType": "uint256",
          "name": "liquidity",
          "type": "uint256"
        },
        {
          "internalType": "uint256",
          "name": "amountAMin",
          "type": "uint256"
        },
        {
          "internalType": "uint256",
          "name": "amountBMin",
          "type": "uint256"
        },
        {
          "internalType": "uint256",
          "name": "deadline",
          "type": "uint256"
        }
      ],
      "name": "migrate",
      "outputs": [],
      "stateMutability": "nonpayable",
      "type": "function"
    },
    {
      "inputs": [
        {
          "internalType": "address",
          "name": "tokenA",
          "type": "address"
        },
        {
          "internalType": "address",
          "name": "tokenB",
          "type": "address"
        },
        {
          "internalType": "uint256",
          "name": "liquidity",
          "type": "uint256"
        },
        {
          "internalType": "uint256",
          "name": "amountAMin",
          "type": "uint256"
        },
        {
          "internalType": "uint256",
          "name": "amountBMin",
          "type": "uint256"
        },
        {
          "internalType": "uint256",
          "name": "deadline",
          "type": "uint256"
        },
        {
          "internalType": "uint8",
          "name": "v",
          "type": "uint8"
        },
        {
          "internalType": "bytes32",
          "name": "r",
          "type": "bytes32"
        },
        {
          "internalType": "bytes32",
          "name": "s",
          "type": "bytes32"
        }
      ],
      "name": "migrateWithPermit",
      "outputs": [],
      "stateMutability": "nonpayable",
      "type": "function"
    },
    {
      "inputs": [],
      "name": "oldRouter",
      "outputs": [
        {
          "internalType": "contract IKaiDexRouterV2",
          "name": "",
          "type": "address"
        }
      ],
      "stateMutability": "view",
      "type": "function"
    },
    {
      "inputs": [],
      "name": "router",
      "outputs": [
        {
          "internalType": "contract IKaiDexRouterV2",
          "name": "",
          "type": "address"
        }
      ],
      "stateMutability": "view",
      "type": "function"
    }
  ],
  "bytecode": "0x608060405234801561001057600080fd5b5060405161136838038061136883398101604081905261002f9161007c565b600080546001600160a01b039384166001600160a01b031991821617909155600180549290931691161790556100ae565b80516001600160a01b038116811461007757600080fd5b919050565b6000806040838503121561008e578182fd5b61009783610060565b91506100a560208401610060565b90509250929050565b6112ab806100bd6000396000f3fe608060405234801561001057600080fd5b506004361061004c5760003560e01c8063396ac32814610051578063964c1f9814610066578063aac55b3914610095578063f887ea40146100a8575b600080fd5b61006461005f36600461103f565b6100bb565b005b600054610079906001600160a01b031681565b6040516001600160a01b03909116815260200160405180910390f35b6100646100a3366004610fe7565b610168565b600154610079906001600160a01b031681565b60006100c78a8a610225565b60405163d505accf60e01b8152336004820152306024820152604481018a90526064810187905260ff8616608482015260a4810185905260c481018490529091506001600160a01b0382169063d505accf9060e401600060405180830381600087803b15801561013657600080fd5b505af115801561014a573d6000803e3d6000fd5b5050505061015c8a8a8a8a8a8a610168565b50505050505050505050565b428110156101af5760405162461bcd60e51b815260206004820152600f60248201526e12d0525111560e8811561412549151608a1b60448201526064015b60405180910390fd5b6000806101c0888888888888610374565b915091506000806101d38a8a8686610588565b91509150818411156101fe576101fe336101ed8487611200565b6001600160a01b038d1691906106d5565b8083111561015c5761015c336102148386611200565b6001600160a01b038c1691906106d5565b6000806000610234858561072c565b9150915060008054906101000a90046001600160a01b03166001600160a01b031663c45a01556040518163ffffffff1660e01b815260040160206040518083038186803b15801561028457600080fd5b505afa158015610298573d6000803e3d6000fd5b505050506040513d601f19601f820116820180604052508101906102bc9190610fcb565b6040516001600160601b0319606085811b8216602084015284901b166034820152604801604051602081830303815290604052805190602001206040516020016103539291906001600160f81b0319815260609290921b6001600160601b031916600183015260158201527f4829a2cb5b5cd2280b139796d23e1bea43f7caddf4203454607c5a9f3d9f95b6603582015260550190565b60408051601f19818403018152919052805160209091012095945050505050565b60008060006103838989610225565b6040516323b872dd60e01b81523360048201526001600160a01b03821660248201819052604482018a90529192506323b872dd90606401602060405180830381600087803b1580156103d457600080fd5b505af11580156103e8573d6000803e3d6000fd5b505050506040513d601f19601f8201168201806040525081019061040c91906110c9565b5060405163226bf2d160e21b815230600482015260009081906001600160a01b038416906389afcb44906024016040805180830381600087803b15801561045257600080fd5b505af1158015610466573d6000803e3d6000fd5b505050506040513d601f19601f8201168201806040525081019061048a919061114f565b91509150600061049a8c8c61072c565b509050806001600160a01b03168c6001600160a01b0316146104bd5781836104c0565b82825b90965094508886101561051f5760405162461bcd60e51b815260206004820152602160248201527f4b6169446578526f6c6c3a20494e53554646494349454e545f415f414d4f554e6044820152601560fa1b60648201526084016101a6565b878510156105795760405162461bcd60e51b815260206004820152602160248201527f4b6169446578526f6c6c3a20494e53554646494349454e545f425f414d4f554e6044820152601560fa1b60648201526084016101a6565b50505050965096945050505050565b60008061059786868686610821565b6001546040805163c45a015560e01b81529051939550919350600092610627926001600160a01b039092169163c45a0155916004808301926020929190829003018186803b1580156105e857600080fd5b505afa1580156105fc573d6000803e3d6000fd5b505050506040513d601f19601f820116820180604052508101906106209190610fcb565b8888610a59565b905061063d6001600160a01b03881682856106d5565b6106516001600160a01b03871682846106d5565b6040516335313c2160e11b81523360048201526001600160a01b03821690636a62784290602401602060405180830381600087803b15801561069257600080fd5b505af11580156106a6573d6000803e3d6000fd5b505050506040513d601f19601f820116820180604052508101906106ca9190611137565b505094509492505050565b604080516001600160a01b038416602482015260448082018490528251808303909101815260649091019091526020810180516001600160e01b031663a9059cbb60e01b179052610727908490610b28565b505050565b600080826001600160a01b0316846001600160a01b0316141561079c5760405162461bcd60e51b815260206004820152602260248201527f4b61694465784c6962726172793a204944454e544943414c5f41444452455353604482015261455360f01b60648201526084016101a6565b826001600160a01b0316846001600160a01b0316106107bc5782846107bf565b83835b90925090506001600160a01b03821661081a5760405162461bcd60e51b815260206004820152601b60248201527f4b61694465784c6962726172793a205a45524f5f41444452455353000000000060448201526064016101a6565b9250929050565b6000806000600160009054906101000a90046001600160a01b03166001600160a01b031663c45a01556040518163ffffffff1660e01b815260040160206040518083038186803b15801561087457600080fd5b505afa158015610888573d6000803e3d6000fd5b505050506040513d601f19601f820116820180604052508101906108ac9190610fcb565b60405163e6a4390560e01b81526001600160a01b038981166004830152888116602483015291925060009183169063e6a439059060440160206040518083038186803b1580156108fb57600080fd5b505afa15801561090f573d6000803e3d6000fd5b505050506040513d601f19601f820116820180604052508101906109339190610fcb565b6001600160a01b031614156109c7576040516364e329cb60e11b81526001600160a01b038881166004830152878116602483015282169063c9c6539690604401602060405180830381600087803b15801561098d57600080fd5b505af11580156109a1573d6000803e3d6000fd5b505050506040513d601f19601f820116820180604052508101906109c59190610fcb565b505b6000806109d5838a8a610bfa565b915091508160001480156109e7575080155b156109f757869450859350610a4d565b6000610a04888484610cdf565b9050868111610a1857879550935083610a4b565b6000610a25888486610cdf565b905088811115610a4557634e487b7160e01b600052600160045260246000fd5b95508694505b505b50505094509492505050565b6000806000610a68858561072c565b6040516001600160601b0319606084811b8216602084015283901b1660348201529193509150869060480160405160208183030381529060405280519060200120604051602001610b069291906001600160f81b0319815260609290921b6001600160601b031916600183015260158201527ff264d894da1070a80bc479a9f9b59d7dba3d8977144aba4ba53652b31ab31da1603582015260550190565b60408051601f1981840301815291905280516020909101209695505050505050565b6000610b7d826040518060400160405280602081526020017f5361666545524332303a206c6f772d6c6576656c2063616c6c206661696c6564815250856001600160a01b0316610dc29092919063ffffffff16565b8051909150156107275780806020019051810190610b9b91906110c9565b6107275760405162461bcd60e51b815260206004820152602a60248201527f5361666545524332303a204552433230206f7065726174696f6e20646964206e6044820152691bdd081cdd58d8d9595960b21b60648201526084016101a6565b6000806000610c09858561072c565b509050610c17868686610a59565b50600080610c26888888610a59565b6001600160a01b0316630902f1ac6040518163ffffffff1660e01b815260040160606040518083038186803b158015610c5e57600080fd5b505afa158015610c72573d6000803e3d6000fd5b505050506040513d601f19601f82011682018060405250810190610c9691906110e9565b506001600160701b031691506001600160701b03169150826001600160a01b0316876001600160a01b031614610ccd578082610cd0565b81815b90999098509650505050505050565b6000808411610d3b5760405162461bcd60e51b815260206004820152602260248201527f4b61694465784c6962726172793a20494e53554646494349454e545f414d4f55604482015261139560f21b60648201526084016101a6565b600083118015610d4b5750600082115b610da55760405162461bcd60e51b815260206004820152602560248201527f4b61694465784c6962726172793a20494e53554646494349454e545f4c495155604482015264494449545960d81b60648201526084016101a6565b82610db08584610dd8565b610dba91906111c1565b949350505050565b6060610dba8484600085610e45565b9392505050565b6000811580610dfc57508282610dee81836111e1565b9250610dfa90836111c1565b145b610e3f5760405162461bcd60e51b815260206004820152601460248201527364732d6d6174682d6d756c2d6f766572666c6f7760601b60448201526064016101a6565b92915050565b606082471015610ea65760405162461bcd60e51b815260206004820152602660248201527f416464726573733a20696e73756666696369656e742062616c616e636520666f6044820152651c8818d85b1b60d21b60648201526084016101a6565b6001600160a01b0385163b610efd5760405162461bcd60e51b815260206004820152601d60248201527f416464726573733a2063616c6c20746f206e6f6e2d636f6e747261637400000060448201526064016101a6565b600080866001600160a01b03168587604051610f199190611172565b60006040518083038185875af1925050503d8060008114610f56576040519150601f19603f3d011682016040523d82523d6000602084013e610f5b565b606091505b5091509150610f6b828286610f76565b979650505050505050565b60608315610f85575081610dd1565b825115610f955782518084602001fd5b8160405162461bcd60e51b81526004016101a6919061118e565b80516001600160701b0381168114610fc657600080fd5b919050565b600060208284031215610fdc578081fd5b8151610dd18161125d565b60008060008060008060c08789031215610fff578182fd5b863561100a8161125d565b9550602087013561101a8161125d565b95989597505050506040840135936060810135936080820135935060a0909101359150565b60008060008060008060008060006101208a8c03121561105d578283fd5b89356110688161125d565b985060208a01356110788161125d565b975060408a0135965060608a0135955060808a0135945060a08a0135935060c08a013560ff811681146110a9578384fd5b8093505060e08a013591506101008a013590509295985092959850929598565b6000602082840312156110da578081fd5b81518015158114610dd1578182fd5b6000806000606084860312156110fd578283fd5b61110684610faf565b925061111460208501610faf565b9150604084015163ffffffff8116811461112c578182fd5b809150509250925092565b600060208284031215611148578081fd5b5051919050565b60008060408385031215611161578182fd5b505080516020909101519092909150565b60008251611184818460208701611217565b9190910192915050565b60208152600082518060208401526111ad816040850160208701611217565b601f01601f19169190910160400192915050565b6000826111dc57634e487b7160e01b81526012600452602481fd5b500490565b60008160001904831182151516156111fb576111fb611247565b500290565b60008282101561121257611212611247565b500390565b60005b8381101561123257818101518382015260200161121a565b83811115611241576000848401525b50505050565b634e487b7160e01b600052601160045260246000fd5b6001600160a01b038116811461127257600080fd5b5056fea26469706673582212205a7a425bb64ff5fb84332c4f8f11ffa8fff3ec1adf71f85645dd12d7e4a561bf64736f6c63430008040033",
  "linkReferences": {},
  "deployedLinkReferences": {}
}