{
  "_format": "hh-sol-artifact-1",
  "contractName": "KaiDexMigrate",
  "sourceName": "contracts/exchange/KaiDexMigrate.sol",
  "abi": [
    {
      "inputs": [
        {
          "internalType": "contract IKaiDexRouterV2",
          "name": "_oldRouter",
          "type": "address"
        },
        {
          "internalType": "contract IKaiDexRouterV2",
          "name": "_router",
          "type": "address"
        }
      ],
      "stateMutability": "nonpayable",
      "type": "constructor"
    },
    {
      "inputs": [
        {
          "internalType": "address",
          "name": "tokenA",
          "type": "address"
        },
        {
          "internalType": "address",
          "name": "tokenB",
          "type": "address"
        },
        {
          "internalType": "uint256",
          "name": "liquidity",
          "type": "uint256"
        },
        {
          "internalType": "uint256",
          "name": "amountAMin",
          "type": "uint256"
        },
        {
          "internalType": "uint256",
          "name": "amountBMin",
          "type": "uint256"
        },
        {
          "internalType": "uint256",
          "name": "deadline",
          "type": "uint256"
        }
      ],
      "name": "migrate",
      "outputs": [],
      "stateMutability": "nonpayable",
      "type": "function"
    },
    {
      "inputs": [
        {
          "internalType": "address",
          "name": "tokenA",
          "type": "address"
        },
        {
          "internalType": "address",
          "name": "tokenB",
          "type": "address"
        },
        {
          "internalType": "uint256",
          "name": "liquidity",
          "type": "uint256"
        },
        {
          "internalType": "uint256",
          "name": "amountAMin",
          "type": "uint256"
        },
        {
          "internalType": "uint256",
          "name": "amountBMin",
          "type": "uint256"
        },
        {
          "internalType": "uint256",
          "name": "deadline",
          "type": "uint256"
        },
        {
          "internalType": "uint8",
          "name": "v",
          "type": "uint8"
        },
        {
          "internalType": "bytes32",
          "name": "r",
          "type": "bytes32"
        },
        {
          "internalType": "bytes32",
          "name": "s",
          "type": "bytes32"
        }
      ],
      "name": "migrateWithPermit",
      "outputs": [],
      "stateMutability": "nonpayable",
      "type": "function"
    },
    {
      "inputs": [],
      "name": "oldRouter",
      "outputs": [
        {
          "internalType": "contract IKaiDexRouterV2",
          "name": "",
          "type": "address"
        }
      ],
      "stateMutability": "view",
      "type": "function"
    },
    {
      "inputs": [],
      "name": "router",
      "outputs": [
        {
          "internalType": "contract IKaiDexRouterV2",
          "name": "",
          "type": "address"
        }
      ],
      "stateMutability": "view",
      "type": "function"
    }
  ],
  "bytecode": "0x60806040523480156200001157600080fd5b506040516200229a3803806200229a8339818101604052810190620000379190620000d7565b816000806101000a81548173ffffffffffffffffffffffffffffffffffffffff021916908373ffffffffffffffffffffffffffffffffffffffff16021790555080600160006101000a81548173ffffffffffffffffffffffffffffffffffffffff021916908373ffffffffffffffffffffffffffffffffffffffff16021790555050506200017a565b600081519050620000d18162000160565b92915050565b60008060408385031215620000eb57600080fd5b6000620000fb85828601620000c0565b92505060206200010e85828601620000c0565b9150509250929050565b6000620001258262000140565b9050919050565b6000620001398262000118565b9050919050565b600073ffffffffffffffffffffffffffffffffffffffff82169050919050565b6200016b816200012c565b81146200017757600080fd5b50565b612110806200018a6000396000f3fe608060405234801561001057600080fd5b506004361061004c5760003560e01c8063396ac32814610051578063964c1f981461006d578063aac55b391461008b578063f887ea40146100a7575b600080fd5b61006b60048036038101906100669190611284565b6100c5565b005b610075610164565b60405161008291906118ce565b60405180910390f35b6100a560048036038101906100a091906111fb565b610188565b005b6100af61027d565b6040516100bc91906118ce565b60405180910390f35b60006100d18a8a6102a3565b90508073ffffffffffffffffffffffffffffffffffffffff1663d505accf33308b898989896040518863ffffffff1660e01b81526004016101189796959493929190611836565b600060405180830381600087803b15801561013257600080fd5b505af1158015610146573d6000803e3d6000fd5b505050506101588a8a8a8a8a8a610188565b50505050505050505050565b60008054906101000a900473ffffffffffffffffffffffffffffffffffffffff1681565b428110156101cb576040517f08c379a00000000000000000000000000000000000000000000000000000000081526004016101c2906119eb565b60405180910390fd5b6000806101dc8888888888886103b1565b915091506000806101ef8a8a86866105cc565b91509150818411156102325761023133838661020b9190611b33565b8c73ffffffffffffffffffffffffffffffffffffffff1661077d9092919063ffffffff16565b5b808311156102715761027033828561024a9190611b33565b8b73ffffffffffffffffffffffffffffffffffffffff1661077d9092919063ffffffff16565b5b50505050505050505050565b600160009054906101000a900473ffffffffffffffffffffffffffffffffffffffff1681565b60008060006102b28585610803565b9150915060008054906101000a900473ffffffffffffffffffffffffffffffffffffffff1673ffffffffffffffffffffffffffffffffffffffff1663c45a01556040518163ffffffff1660e01b815260040160206040518083038186803b15801561031c57600080fd5b505afa158015610330573d6000803e3d6000fd5b505050506040513d601f19601f8201168201806040525081019061035491906111d2565b82826040516020016103679291906116f4565b6040516020818303038152906040528051906020012060405160200161038e929190611779565b6040516020818303038152906040528051906020012060001c9250505092915050565b60008060006103c089896102a3565b90508073ffffffffffffffffffffffffffffffffffffffff166323b872dd33838a6040518463ffffffff1660e01b81526004016103ff939291906117ff565b602060405180830381600087803b15801561041957600080fd5b505af115801561042d573d6000803e3d6000fd5b505050506040513d601f19601f82011682018060405250810190610451919061134a565b506000808273ffffffffffffffffffffffffffffffffffffffff166389afcb44306040518263ffffffff1660e01b815260040161048e91906117bb565b6040805180830381600087803b1580156104a757600080fd5b505af11580156104bb573d6000803e3d6000fd5b505050506040513d601f19601f820116820180604052508101906104df91906113eb565b9150915060006104ef8c8c610803565b5090508073ffffffffffffffffffffffffffffffffffffffff168c73ffffffffffffffffffffffffffffffffffffffff161461052c57818361052f565b82825b80965081975050508886101561057a576040517f08c379a00000000000000000000000000000000000000000000000000000000081526004016105719061196b565b60405180910390fd5b878510156105bd576040517f08c379a00000000000000000000000000000000000000000000000000000000081526004016105b49061198b565b60405180910390fd5b50505050965096945050505050565b6000806105db86868686610931565b8092508193505050600061068f600160009054906101000a900473ffffffffffffffffffffffffffffffffffffffff1673ffffffffffffffffffffffffffffffffffffffff1663c45a01556040518163ffffffff1660e01b815260040160206040518083038186803b15801561065057600080fd5b505afa158015610664573d6000803e3d6000fd5b505050506040513d601f19601f8201168201806040525081019061068891906111d2565b8888610be1565b90506106bc81848973ffffffffffffffffffffffffffffffffffffffff1661077d9092919063ffffffff16565b6106e781838873ffffffffffffffffffffffffffffffffffffffff1661077d9092919063ffffffff16565b8073ffffffffffffffffffffffffffffffffffffffff16636a627842336040518263ffffffff1660e01b815260040161072091906117bb565b602060405180830381600087803b15801561073a57600080fd5b505af115801561074e573d6000803e3d6000fd5b505050506040513d601f19601f8201168201806040525081019061077291906113c2565b505094509492505050565b6107fe8363a9059cbb60e01b848460405160240161079c9291906118a5565b604051602081830303815290604052907bffffffffffffffffffffffffffffffffffffffffffffffffffffffff19166020820180517bffffffffffffffffffffffffffffffffffffffffffffffffffffffff8381831617835250505050610c53565b505050565b6000808273ffffffffffffffffffffffffffffffffffffffff168473ffffffffffffffffffffffffffffffffffffffff161415610875576040517f08c379a000000000000000000000000000000000000000000000000000000000815260040161086c906119cb565b60405180910390fd5b8273ffffffffffffffffffffffffffffffffffffffff168473ffffffffffffffffffffffffffffffffffffffff16106108af5782846108b2565b83835b8092508193505050600073ffffffffffffffffffffffffffffffffffffffff168273ffffffffffffffffffffffffffffffffffffffff16141561092a576040517f08c379a000000000000000000000000000000000000000000000000000000000815260040161092190611a4b565b60405180910390fd5b9250929050565b6000806000600160009054906101000a900473ffffffffffffffffffffffffffffffffffffffff1673ffffffffffffffffffffffffffffffffffffffff1663c45a01556040518163ffffffff1660e01b815260040160206040518083038186803b15801561099e57600080fd5b505afa1580156109b2573d6000803e3d6000fd5b505050506040513d601f19601f820116820180604052508101906109d691906111d2565b9050600073ffffffffffffffffffffffffffffffffffffffff168173ffffffffffffffffffffffffffffffffffffffff1663e6a4390589896040518363ffffffff1660e01b8152600401610a2b9291906117d6565b60206040518083038186803b158015610a4357600080fd5b505afa158015610a57573d6000803e3d6000fd5b505050506040513d601f19601f82011682018060405250810190610a7b91906111d2565b73ffffffffffffffffffffffffffffffffffffffff161415610b26578073ffffffffffffffffffffffffffffffffffffffff1663c9c6539688886040518363ffffffff1660e01b8152600401610ad29291906117d6565b602060405180830381600087803b158015610aec57600080fd5b505af1158015610b00573d6000803e3d6000fd5b505050506040513d601f19601f82011682018060405250810190610b2491906111d2565b505b600080610b34838a8a610d1a565b91509150600082148015610b485750600081145b15610b5c5786868095508196505050610bd5565b6000610b69888484610e38565b9050868111610b815787818096508197505050610bd3565b6000610b8e888486610e38565b905088811115610bc7577f4e487b7100000000000000000000000000000000000000000000000000000000600052600160045260246000fd5b80888097508198505050505b505b50505094509492505050565b6000806000610bf08585610803565b91509150858282604051602001610c089291906116f4565b60405160208183030381529060405280519060200120604051602001610c2f929190611737565b6040516020818303038152906040528051906020012060001c925050509392505050565b6000610cb5826040518060400160405280602081526020017f5361666545524332303a206c6f772d6c6576656c2063616c6c206661696c65648152508573ffffffffffffffffffffffffffffffffffffffff16610ef29092919063ffffffff16565b9050600081511115610d155780806020019051810190610cd5919061134a565b610d14576040517f08c379a0000000000000000000000000000000000000000000000000000000008152600401610d0b90611a0b565b60405180910390fd5b5b505050565b6000806000610d298585610803565b509050610d37868686610be1565b50600080610d46888888610be1565b73ffffffffffffffffffffffffffffffffffffffff16630902f1ac6040518163ffffffff1660e01b815260040160606040518083038186803b158015610d8b57600080fd5b505afa158015610d9f573d6000803e3d6000fd5b505050506040513d601f19601f82011682018060405250810190610dc39190611373565b506dffffffffffffffffffffffffffff1691506dffffffffffffffffffffffffffff1691508273ffffffffffffffffffffffffffffffffffffffff168773ffffffffffffffffffffffffffffffffffffffff1614610e22578082610e25565b81815b8095508196505050505050935093915050565b6000808411610e7c576040517f08c379a0000000000000000000000000000000000000000000000000000000008152600401610e7390611a2b565b60405180910390fd5b600083118015610e8c5750600082115b610ecb576040517f08c379a0000000000000000000000000000000000000000000000000000000008152600401610ec29061190b565b60405180910390fd5b82610edf8386610f0a90919063ffffffff16565b610ee99190611aa8565b90509392505050565b6060610f018484600085610f77565b90509392505050565b600080821480610f32575082828385610f239190611ad9565b925082610f309190611aa8565b145b610f71576040517f08c379a0000000000000000000000000000000000000000000000000000000008152600401610f689061192b565b60405180910390fd5b92915050565b606082471015610fbc576040517f08c379a0000000000000000000000000000000000000000000000000000000008152600401610fb39061194b565b60405180910390fd5b610fc58561108b565b611004576040517f08c379a0000000000000000000000000000000000000000000000000000000008152600401610ffb906119ab565b60405180910390fd5b6000808673ffffffffffffffffffffffffffffffffffffffff16858760405161102d9190611720565b60006040518083038185875af1925050503d806000811461106a576040519150601f19603f3d011682016040523d82523d6000602084013e61106f565b606091505b509150915061107f8282866110ae565b92505050949350505050565b6000808273ffffffffffffffffffffffffffffffffffffffff163b119050919050565b606083156110be5782905061110e565b6000835111156110d15782518084602001fd5b816040517f08c379a000000000000000000000000000000000000000000000000000000000815260040161110591906118e9565b60405180910390fd5b9392505050565b60008135905061112481612039565b92915050565b60008151905061113981612039565b92915050565b60008151905061114e81612050565b92915050565b60008135905061116381612067565b92915050565b6000815190506111788161207e565b92915050565b60008135905061118d81612095565b92915050565b6000815190506111a281612095565b92915050565b6000815190506111b7816120ac565b92915050565b6000813590506111cc816120c3565b92915050565b6000602082840312156111e457600080fd5b60006111f28482850161112a565b91505092915050565b60008060008060008060c0878903121561121457600080fd5b600061122289828a01611115565b965050602061123389828a01611115565b955050604061124489828a0161117e565b945050606061125589828a0161117e565b935050608061126689828a0161117e565b92505060a061127789828a0161117e565b9150509295509295509295565b60008060008060008060008060006101208a8c0312156112a357600080fd5b60006112b18c828d01611115565b99505060206112c28c828d01611115565b98505060406112d38c828d0161117e565b97505060606112e48c828d0161117e565b96505060806112f58c828d0161117e565b95505060a06113068c828d0161117e565b94505060c06113178c828d016111bd565b93505060e06113288c828d01611154565b92505061010061133a8c828d01611154565b9150509295985092959850929598565b60006020828403121561135c57600080fd5b600061136a8482850161113f565b91505092915050565b60008060006060848603121561138857600080fd5b600061139686828701611169565b93505060206113a786828701611169565b92505060406113b8868287016111a8565b9150509250925092565b6000602082840312156113d457600080fd5b60006113e284828501611193565b91505092915050565b600080604083850312156113fe57600080fd5b600061140c85828601611193565b925050602061141d85828601611193565b9150509250929050565b61143081611b67565b82525050565b61144761144282611b67565b611c47565b82525050565b61145681611b85565b82525050565b61146d61146882611b85565b611c59565b82525050565b600061147e82611a6b565b6114888185611a81565b9350611498818560208601611c14565b80840191505092915050565b6114ad81611bf0565b82525050565b60006114be82611a76565b6114c88185611a8c565b93506114d8818560208601611c14565b6114e181611cd3565b840191505092915050565b60006114f9602583611a8c565b915061150482611cf1565b604082019050919050565b600061151c601483611a8c565b915061152782611d40565b602082019050919050565b600061153f602683611a8c565b915061154a82611d69565b604082019050919050565b6000611562602083611a9d565b915061156d82611db8565b602082019050919050565b6000611585602183611a8c565b915061159082611de1565b604082019050919050565b60006115a8602183611a8c565b91506115b382611e30565b604082019050919050565b60006115cb600183611a9d565b91506115d682611e7f565b600182019050919050565b60006115ee602083611a9d565b91506115f982611ea8565b602082019050919050565b6000611611601d83611a8c565b915061161c82611ed1565b602082019050919050565b6000611634602283611a8c565b915061163f82611efa565b604082019050919050565b6000611657600f83611a8c565b915061166282611f49565b602082019050919050565b600061167a602a83611a8c565b915061168582611f72565b604082019050919050565b600061169d602283611a8c565b91506116a882611fc1565b604082019050919050565b60006116c0601b83611a8c565b91506116cb82612010565b602082019050919050565b6116df81611bc9565b82525050565b6116ee81611be3565b82525050565b60006117008285611436565b6014820191506117108284611436565b6014820191508190509392505050565b600061172c8284611473565b915081905092915050565b6000611742826115be565b915061174e8285611436565b60148201915061175e828461145c565b60208201915061176d82611555565b91508190509392505050565b6000611784826115be565b91506117908285611436565b6014820191506117a0828461145c565b6020820191506117af826115e1565b91508190509392505050565b60006020820190506117d06000830184611427565b92915050565b60006040820190506117eb6000830185611427565b6117f86020830184611427565b9392505050565b60006060820190506118146000830186611427565b6118216020830185611427565b61182e60408301846116d6565b949350505050565b600060e08201905061184b600083018a611427565b6118586020830189611427565b61186560408301886116d6565b61187260608301876116d6565b61187f60808301866116e5565b61188c60a083018561144d565b61189960c083018461144d565b98975050505050505050565b60006040820190506118ba6000830185611427565b6118c760208301846116d6565b9392505050565b60006020820190506118e360008301846114a4565b92915050565b6000602082019050818103600083015261190381846114b3565b905092915050565b60006020820190508181036000830152611924816114ec565b9050919050565b600060208201905081810360008301526119448161150f565b9050919050565b6000602082019050818103600083015261196481611532565b9050919050565b6000602082019050818103600083015261198481611578565b9050919050565b600060208201905081810360008301526119a48161159b565b9050919050565b600060208201905081810360008301526119c481611604565b9050919050565b600060208201905081810360008301526119e481611627565b9050919050565b60006020820190508181036000830152611a048161164a565b9050919050565b60006020820190508181036000830152611a248161166d565b9050919050565b60006020820190508181036000830152611a4481611690565b9050919050565b60006020820190508181036000830152611a64816116b3565b9050919050565b600081519050919050565b600081519050919050565b600081905092915050565b600082825260208201905092915050565b600081905092915050565b6000611ab382611bc9565b9150611abe83611bc9565b925082611ace57611acd611ca4565b5b828204905092915050565b6000611ae482611bc9565b9150611aef83611bc9565b9250817fffffffffffffffffffffffffffffffffffffffffffffffffffffffffffffffff0483118215151615611b2857611b27611c75565b5b828202905092915050565b6000611b3e82611bc9565b9150611b4983611bc9565b925082821015611b5c57611b5b611c75565b5b828203905092915050565b6000611b7282611ba9565b9050919050565b60008115159050919050565b6000819050919050565b60006dffffffffffffffffffffffffffff82169050919050565b600073ffffffffffffffffffffffffffffffffffffffff82169050919050565b6000819050919050565b600063ffffffff82169050919050565b600060ff82169050919050565b6000611bfb82611c02565b9050919050565b6000611c0d82611ba9565b9050919050565b60005b83811015611c32578082015181840152602081019050611c17565b83811115611c41576000848401525b50505050565b6000611c5282611c63565b9050919050565b6000819050919050565b6000611c6e82611ce4565b9050919050565b7f4e487b7100000000000000000000000000000000000000000000000000000000600052601160045260246000fd5b7f4e487b7100000000000000000000000000000000000000000000000000000000600052601260045260246000fd5b6000601f19601f8301169050919050565b60008160601b9050919050565b7f4b61694465784c6962726172793a20494e53554646494349454e545f4c49515560008201527f4944495459000000000000000000000000000000000000000000000000000000602082015250565b7f64732d6d6174682d6d756c2d6f766572666c6f77000000000000000000000000600082015250565b7f416464726573733a20696e73756666696369656e742062616c616e636520666f60008201527f722063616c6c0000000000000000000000000000000000000000000000000000602082015250565b7fe211f96cb3bd031b6a72fd2d205e0a0427ac351e9ad2a8cb32549bf1bfd84980600082015250565b7f4b6169446578526f6c6c3a20494e53554646494349454e545f415f414d4f554e60008201527f5400000000000000000000000000000000000000000000000000000000000000602082015250565b7f4b6169446578526f6c6c3a20494e53554646494349454e545f425f414d4f554e60008201527f5400000000000000000000000000000000000000000000000000000000000000602082015250565b7fff00000000000000000000000000000000000000000000000000000000000000600082015250565b7f4829a2cb5b5cd2280b139796d23e1bea43f7caddf4203454607c5a9f3d9f95b6600082015250565b7f416464726573733a2063616c6c20746f206e6f6e2d636f6e7472616374000000600082015250565b7f4b61694465784c6962726172793a204944454e544943414c5f4144445245535360008201527f4553000000000000000000000000000000000000000000000000000000000000602082015250565b7f4b41494445583a20455850495245440000000000000000000000000000000000600082015250565b7f5361666545524332303a204552433230206f7065726174696f6e20646964206e60008201527f6f74207375636365656400000000000000000000000000000000000000000000602082015250565b7f4b61694465784c6962726172793a20494e53554646494349454e545f414d4f5560008201527f4e54000000000000000000000000000000000000000000000000000000000000602082015250565b7f4b61694465784c6962726172793a205a45524f5f414444524553530000000000600082015250565b61204281611b67565b811461204d57600080fd5b50565b61205981611b79565b811461206457600080fd5b50565b61207081611b85565b811461207b57600080fd5b50565b61208781611b8f565b811461209257600080fd5b50565b61209e81611bc9565b81146120a957600080fd5b50565b6120b581611bd3565b81146120c057600080fd5b50565b6120cc81611be3565b81146120d757600080fd5b5056fea26469706673582212206357f4803a37e2933b920ee1dfe74e7f79118b114a333b1a27cf7b205123735664736f6c63430008040033",
  "linkReferences": {},
  "deployedLinkReferences": {}
}