{
  "_format": "hh-sol-artifact-1",
  "contractName": "TierSystem",
  "sourceName": "contracts/launchpad/TierSystem.sol",
  "abi": [
    {
      "inputs": [
        {
          "internalType": "contract IStKDX",
          "name": "_stKdx",
          "type": "address"
        }
      ],
      "stateMutability": "nonpayable",
      "type": "constructor"
    },
    {
      "anonymous": false,
      "inputs": [
        {
          "indexed": true,
          "internalType": "address",
          "name": "previousOwner",
          "type": "address"
        },
        {
          "indexed": true,
          "internalType": "address",
          "name": "newOwner",
          "type": "address"
        }
      ],
      "name": "OwnershipTransferred",
      "type": "event"
    },
    {
      "inputs": [
        {
          "internalType": "address",
          "name": "_account",
          "type": "address"
        },
        {
          "internalType": "uint256[]",
          "name": "_snapshotIds",
          "type": "uint256[]"
        }
      ],
      "name": "getAverage",
      "outputs": [
        {
          "internalType": "uint256",
          "name": "",
          "type": "uint256"
        }
      ],
      "stateMutability": "view",
      "type": "function"
    },
    {
      "inputs": [
        {
          "internalType": "address",
          "name": "_account",
          "type": "address"
        },
        {
          "internalType": "uint256[]",
          "name": "_snapshotIds",
          "type": "uint256[]"
        }
      ],
      "name": "getTier",
      "outputs": [
        {
          "internalType": "uint256",
          "name": "",
          "type": "uint256"
        }
      ],
      "stateMutability": "view",
      "type": "function"
    },
    {
      "inputs": [
        {
          "internalType": "uint256",
          "name": "",
          "type": "uint256"
        }
      ],
      "name": "kdxStakedTiers",
      "outputs": [
        {
          "internalType": "uint256",
          "name": "",
          "type": "uint256"
        }
      ],
      "stateMutability": "view",
      "type": "function"
    },
    {
      "inputs": [],
      "name": "owner",
      "outputs": [
        {
          "internalType": "address",
          "name": "",
          "type": "address"
        }
      ],
      "stateMutability": "view",
      "type": "function"
    },
    {
      "inputs": [],
      "name": "renounceOwnership",
      "outputs": [],
      "stateMutability": "nonpayable",
      "type": "function"
    },
    {
      "inputs": [
        {
          "internalType": "uint256[4]",
          "name": "_tiers",
          "type": "uint256[4]"
        }
      ],
      "name": "setKdxStakedTiers",
      "outputs": [],
      "stateMutability": "nonpayable",
      "type": "function"
    },
    {
      "inputs": [],
      "name": "stKdx",
      "outputs": [
        {
          "internalType": "contract IStKDX",
          "name": "",
          "type": "address"
        }
      ],
      "stateMutability": "view",
      "type": "function"
    },
    {
      "inputs": [
        {
          "internalType": "address",
          "name": "newOwner",
          "type": "address"
        }
      ],
      "name": "transferOwnership",
      "outputs": [],
      "stateMutability": "nonpayable",
      "type": "function"
    }
  ],
  "bytecode": "0x60806040526040518060800160405280683635c9adc5dea00000815260200168a2a15d09519be00000815260200169021e19e0c9bab2400000815260200169065a4da25d3016c0000081525060029060046200005d929190620001c5565b503480156200006b57600080fd5b50604051620010ff380380620010ff833981810160405281019062000091919062000240565b620000b1620000a5620000f960201b60201c565b6200010160201b60201c565b80600160006101000a81548173ffffffffffffffffffffffffffffffffffffffff021916908373ffffffffffffffffffffffffffffffffffffffff16021790555050620002ce565b600033905090565b60008060009054906101000a900473ffffffffffffffffffffffffffffffffffffffff169050816000806101000a81548173ffffffffffffffffffffffffffffffffffffffff021916908373ffffffffffffffffffffffffffffffffffffffff1602179055508173ffffffffffffffffffffffffffffffffffffffff168173ffffffffffffffffffffffffffffffffffffffff167f8be0079c531659141344cd1fd0a4f28419497f9722a3daafe3b4186f6b6457e060405160405180910390a35050565b8260048101928215620001f7579160200282015b82811115620001f6578251825591602001919060010190620001d9565b5b5090506200020691906200020a565b5090565b5b80821115620002255760008160009055506001016200020b565b5090565b6000815190506200023a81620002b4565b92915050565b6000602082840312156200025357600080fd5b6000620002638482850162000229565b91505092915050565b6000620002798262000294565b9050919050565b60006200028d826200026c565b9050919050565b600073ffffffffffffffffffffffffffffffffffffffff82169050919050565b620002bf8162000280565b8114620002cb57600080fd5b50565b610e2180620002de6000396000f3fe608060405234801561001057600080fd5b50600436106100885760003560e01c80638da5cb5b1161005b5780638da5cb5b14610113578063b1d616a214610131578063f2fde38b1461014f578063fa1e5d8a1461016b57610088565b80633d84772e1461008d5780635d1e37ad146100bd578063715018a6146100ed5780637873c25a146100f7575b600080fd5b6100a760048036038101906100a291906108c2565b61019b565b6040516100b49190610aa3565b60405180910390f35b6100d760048036038101906100d291906108c2565b6101af565b6040516100e49190610aa3565b60405180910390f35b6100f561022f565b005b610111600480360381019061010c9190610916565b6102b7565b005b61011b610348565b6040516101289190610a04565b60405180910390f35b610139610371565b6040516101469190610a48565b60405180910390f35b61016960048036038101906101649190610899565b610397565b005b6101856004803603810190610180919061093f565b61048f565b6040516101929190610aa3565b60405180910390f35b60006101a783836104aa565b905092915050565b6000806101bc84846104aa565b905060005b60048110801561020c575060028160048110610206577f4e487b7100000000000000000000000000000000000000000000000000000000600052603260045260246000fd5b01548210155b1561022457808061021c90610c5e565b9150506101c1565b809250505092915050565b6102376105fb565b73ffffffffffffffffffffffffffffffffffffffff16610255610348565b73ffffffffffffffffffffffffffffffffffffffff16146102ab576040517f08c379a00000000000000000000000000000000000000000000000000000000081526004016102a290610a83565b60405180910390fd5b6102b56000610603565b565b6102bf6105fb565b73ffffffffffffffffffffffffffffffffffffffff166102dd610348565b73ffffffffffffffffffffffffffffffffffffffff1614610333576040517f08c379a000000000000000000000000000000000000000000000000000000000815260040161032a90610a83565b60405180910390fd5b8060029060046103449291906106dd565b5050565b60008060009054906101000a900473ffffffffffffffffffffffffffffffffffffffff16905090565b600160009054906101000a900473ffffffffffffffffffffffffffffffffffffffff1681565b61039f6105fb565b73ffffffffffffffffffffffffffffffffffffffff166103bd610348565b73ffffffffffffffffffffffffffffffffffffffff1614610413576040517f08c379a000000000000000000000000000000000000000000000000000000000815260040161040a90610a83565b60405180910390fd5b600073ffffffffffffffffffffffffffffffffffffffff168173ffffffffffffffffffffffffffffffffffffffff161415610483576040517f08c379a000000000000000000000000000000000000000000000000000000000815260040161047a90610a63565b60405180910390fd5b61048c81610603565b50565b6002816004811061049f57600080fd5b016000915090505481565b600080825114156104be57600090506105f5565b600080600090505b83518110156105e3576105ce600160009054906101000a900473ffffffffffffffffffffffffffffffffffffffff1673ffffffffffffffffffffffffffffffffffffffff1663290496608787858151811061054a577f4e487b7100000000000000000000000000000000000000000000000000000000600052603260045260246000fd5b60200260200101516040518363ffffffff1660e01b815260040161056f929190610a1f565b60206040518083038186803b15801561058757600080fd5b505afa15801561059b573d6000803e3d6000fd5b505050506040513d601f19601f820116820180604052508101906105bf9190610968565b836106c790919063ffffffff16565b915080806105db90610c5e565b9150506104c6565b508251816105f19190610b9c565b9150505b92915050565b600033905090565b60008060009054906101000a900473ffffffffffffffffffffffffffffffffffffffff169050816000806101000a81548173ffffffffffffffffffffffffffffffffffffffff021916908373ffffffffffffffffffffffffffffffffffffffff1602179055508173ffffffffffffffffffffffffffffffffffffffff168173ffffffffffffffffffffffffffffffffffffffff167f8be0079c531659141344cd1fd0a4f28419497f9722a3daafe3b4186f6b6457e060405160405180910390a35050565b600081836106d59190610b46565b905092915050565b826004810192821561070c579160200282015b8281111561070b5782518255916020019190600101906106f0565b5b509050610719919061071d565b5090565b5b8082111561073657600081600090555060010161071e565b5090565b600061074d61074884610ae3565b610abe565b9050808285602086028201111561076357600080fd5b60005b858110156107935781610779888261086f565b845260208401935060208301925050600181019050610766565b5050509392505050565b60006107b06107ab84610b09565b610abe565b905080838252602082019050828560208602820111156107cf57600080fd5b60005b858110156107ff57816107e5888261086f565b8452602084019350602083019250506001810190506107d2565b5050509392505050565b60008135905061081881610dbd565b92915050565b600082601f83011261082f57600080fd5b600461083c84828561073a565b91505092915050565b600082601f83011261085657600080fd5b813561086684826020860161079d565b91505092915050565b60008135905061087e81610dd4565b92915050565b60008151905061089381610dd4565b92915050565b6000602082840312156108ab57600080fd5b60006108b984828501610809565b91505092915050565b600080604083850312156108d557600080fd5b60006108e385828601610809565b925050602083013567ffffffffffffffff81111561090057600080fd5b61090c85828601610845565b9150509250929050565b60006080828403121561092857600080fd5b60006109368482850161081e565b91505092915050565b60006020828403121561095157600080fd5b600061095f8482850161086f565b91505092915050565b60006020828403121561097a57600080fd5b600061098884828501610884565b91505092915050565b61099a81610bcd565b82525050565b6109a981610c09565b82525050565b60006109bc602683610b35565b91506109c782610d45565b604082019050919050565b60006109df602083610b35565b91506109ea82610d94565b602082019050919050565b6109fe81610bff565b82525050565b6000602082019050610a196000830184610991565b92915050565b6000604082019050610a346000830185610991565b610a4160208301846109f5565b9392505050565b6000602082019050610a5d60008301846109a0565b92915050565b60006020820190508181036000830152610a7c816109af565b9050919050565b60006020820190508181036000830152610a9c816109d2565b9050919050565b6000602082019050610ab860008301846109f5565b92915050565b6000610ac8610ad9565b9050610ad48282610c2d565b919050565b6000604051905090565b600067ffffffffffffffff821115610afe57610afd610d05565b5b602082029050919050565b600067ffffffffffffffff821115610b2457610b23610d05565b5b602082029050602081019050919050565b600082825260208201905092915050565b6000610b5182610bff565b9150610b5c83610bff565b9250827fffffffffffffffffffffffffffffffffffffffffffffffffffffffffffffffff03821115610b9157610b90610ca7565b5b828201905092915050565b6000610ba782610bff565b9150610bb283610bff565b925082610bc257610bc1610cd6565b5b828204905092915050565b6000610bd882610bdf565b9050919050565b600073ffffffffffffffffffffffffffffffffffffffff82169050919050565b6000819050919050565b6000610c1482610c1b565b9050919050565b6000610c2682610bdf565b9050919050565b610c3682610d34565b810181811067ffffffffffffffff82111715610c5557610c54610d05565b5b80604052505050565b6000610c6982610bff565b91507fffffffffffffffffffffffffffffffffffffffffffffffffffffffffffffffff821415610c9c57610c9b610ca7565b5b600182019050919050565b7f4e487b7100000000000000000000000000000000000000000000000000000000600052601160045260246000fd5b7f4e487b7100000000000000000000000000000000000000000000000000000000600052601260045260246000fd5b7f4e487b7100000000000000000000000000000000000000000000000000000000600052604160045260246000fd5b6000601f19601f8301169050919050565b7f4f776e61626c653a206e6577206f776e657220697320746865207a65726f206160008201527f6464726573730000000000000000000000000000000000000000000000000000602082015250565b7f4f776e61626c653a2063616c6c6572206973206e6f7420746865206f776e6572600082015250565b610dc681610bcd565b8114610dd157600080fd5b50565b610ddd81610bff565b8114610de857600080fd5b5056fea26469706673582212207a9b01e17a5f9f00ea8f153f1826f7683f6bf33e8726ec22b791b607e44c291964736f6c63430008040033",
  "linkReferences": {},
  "deployedLinkReferences": {}
}