{
  "_format": "hh-sol-artifact-1",
  "contractName": "TierSystem",
  "sourceName": "contracts/launchpad/TierSystem.sol",
  "abi": [
    {
      "inputs": [
        {
          "internalType": "contract IStKDX",
          "name": "_stKdx",
          "type": "address"
        }
      ],
      "stateMutability": "nonpayable",
      "type": "constructor"
    },
    {
      "anonymous": false,
      "inputs": [
        {
          "indexed": true,
          "internalType": "address",
          "name": "previousOwner",
          "type": "address"
        },
        {
          "indexed": true,
          "internalType": "address",
          "name": "newOwner",
          "type": "address"
        }
      ],
      "name": "OwnershipTransferred",
      "type": "event"
    },
    {
      "inputs": [
        {
          "internalType": "uint256",
          "name": "_id",
          "type": "uint256"
        }
      ],
      "name": "addSnapshotIds",
      "outputs": [],
      "stateMutability": "nonpayable",
      "type": "function"
    },
    {
      "inputs": [
        {
          "internalType": "address",
          "name": "_account",
          "type": "address"
        }
      ],
      "name": "getTier",
      "outputs": [
        {
          "internalType": "uint256",
          "name": "",
          "type": "uint256"
        }
      ],
      "stateMutability": "view",
      "type": "function"
    },
    {
      "inputs": [
        {
          "internalType": "uint256",
          "name": "",
          "type": "uint256"
        }
      ],
      "name": "kdxStakedTiers",
      "outputs": [
        {
          "internalType": "uint256",
          "name": "",
          "type": "uint256"
        }
      ],
      "stateMutability": "view",
      "type": "function"
    },
    {
      "inputs": [],
      "name": "owner",
      "outputs": [
        {
          "internalType": "address",
          "name": "",
          "type": "address"
        }
      ],
      "stateMutability": "view",
      "type": "function"
    },
    {
      "inputs": [],
      "name": "renounceOwnership",
      "outputs": [],
      "stateMutability": "nonpayable",
      "type": "function"
    },
    {
      "inputs": [],
      "name": "snapshotLength",
      "outputs": [
        {
          "internalType": "uint256",
          "name": "",
          "type": "uint256"
        }
      ],
      "stateMutability": "view",
      "type": "function"
    },
    {
      "inputs": [],
      "name": "stKdx",
      "outputs": [
        {
          "internalType": "contract IStKDX",
          "name": "",
          "type": "address"
        }
      ],
      "stateMutability": "view",
      "type": "function"
    },
    {
      "inputs": [
        {
          "internalType": "address",
          "name": "newOwner",
          "type": "address"
        }
      ],
      "name": "transferOwnership",
      "outputs": [],
      "stateMutability": "nonpayable",
      "type": "function"
    }
  ],
  "bytecode": "0x60806040526040518060800160405280683635c9adc5dea00000815260200168a2a15d09519be00000815260200169021e19e0c9bab2400000815260200169065a4da25d3016c0000081525060039060046200005d929190620001c5565b503480156200006b57600080fd5b5060405162000f1038038062000f1083398181016040528101906200009191906200024d565b620000b1620000a5620000f960201b60201c565b6200010160201b60201c565b80600160006101000a81548173ffffffffffffffffffffffffffffffffffffffff021916908373ffffffffffffffffffffffffffffffffffffffff16021790555050620002db565b600033905090565b60008060009054906101000a900473ffffffffffffffffffffffffffffffffffffffff169050816000806101000a81548173ffffffffffffffffffffffffffffffffffffffff021916908373ffffffffffffffffffffffffffffffffffffffff1602179055508173ffffffffffffffffffffffffffffffffffffffff168173ffffffffffffffffffffffffffffffffffffffff167f8be0079c531659141344cd1fd0a4f28419497f9722a3daafe3b4186f6b6457e060405160405180910390a35050565b82805482825590600052602060002090810192821562000204579160200282015b8281111562000203578251825591602001919060010190620001e6565b5b50905062000213919062000217565b5090565b5b808211156200023257600081600090555060010162000218565b5090565b6000815190506200024781620002c1565b92915050565b6000602082840312156200026057600080fd5b6000620002708482850162000236565b91505092915050565b60006200028682620002a1565b9050919050565b60006200029a8262000279565b9050919050565b600073ffffffffffffffffffffffffffffffffffffffff82169050919050565b620002cc816200028d565b8114620002d857600080fd5b50565b610c2580620002eb6000396000f3fe608060405234801561001057600080fd5b50600436106100885760003560e01c8063b45aae521161005b578063b45aae52146100ef578063f2fde38b1461011f578063fa1e5d8a1461013b578063ff9bb5d71461016b57610088565b8063715018a61461008d57806384804691146100975780638da5cb5b146100b3578063b1d616a2146100d1575b600080fd5b610095610189565b005b6100b160048036038101906100ac9190610875565b610211565b005b6100bb6102fc565b6040516100c8919061095d565b60405180910390f35b6100d9610325565b6040516100e691906109a1565b60405180910390f35b6101096004803603810190610104919061084c565b61034b565b6040516101169190610a1c565b60405180910390f35b6101396004803603810190610134919061084c565b6103d6565b005b61015560048036038101906101509190610875565b6104ce565b6040516101629190610a1c565b60405180910390f35b6101736104f2565b6040516101809190610a1c565b60405180910390f35b6101916104ff565b73ffffffffffffffffffffffffffffffffffffffff166101af6102fc565b73ffffffffffffffffffffffffffffffffffffffff1614610205576040517f08c379a00000000000000000000000000000000000000000000000000000000081526004016101fc906109fc565b60405180910390fd5b61020f6000610507565b565b6102196104ff565b73ffffffffffffffffffffffffffffffffffffffff166102376102fc565b73ffffffffffffffffffffffffffffffffffffffff161461028d576040517f08c379a0000000000000000000000000000000000000000000000000000000008152600401610284906109fc565b60405180910390fd5b600081116102d0576040517f08c379a00000000000000000000000000000000000000000000000000000000081526004016102c7906109bc565b60405180910390fd5b600281908060018154018082558091505060019003906000526020600020016000909190919091505550565b60008060009054906101000a900473ffffffffffffffffffffffffffffffffffffffff16905090565b600160009054906101000a900473ffffffffffffffffffffffffffffffffffffffff1681565b600080610357836105cb565b905060005b600380549050811080156103b45750600381815481106103a5577f4e487b7100000000000000000000000000000000000000000000000000000000600052603260045260246000fd5b90600052602060002001548210155b156103cc5780806103c490610aa8565b91505061035c565b8092505050919050565b6103de6104ff565b73ffffffffffffffffffffffffffffffffffffffff166103fc6102fc565b73ffffffffffffffffffffffffffffffffffffffff1614610452576040517f08c379a0000000000000000000000000000000000000000000000000000000008152600401610449906109fc565b60405180910390fd5b600073ffffffffffffffffffffffffffffffffffffffff168173ffffffffffffffffffffffffffffffffffffffff1614156104c2576040517f08c379a00000000000000000000000000000000000000000000000000000000081526004016104b9906109dc565b60405180910390fd5b6104cb81610507565b50565b600381815481106104de57600080fd5b906000526020600020016000915090505481565b6000600280549050905090565b600033905090565b60008060009054906101000a900473ffffffffffffffffffffffffffffffffffffffff169050816000806101000a81548173ffffffffffffffffffffffffffffffffffffffff021916908373ffffffffffffffffffffffffffffffffffffffff1602179055508173ffffffffffffffffffffffffffffffffffffffff168173ffffffffffffffffffffffffffffffffffffffff167f8be0079c531659141344cd1fd0a4f28419497f9722a3daafe3b4186f6b6457e060405160405180910390a35050565b60008060028054905014156105e35760009050610808565b6000600160009054906101000a900473ffffffffffffffffffffffffffffffffffffffff1673ffffffffffffffffffffffffffffffffffffffff16632904966084600260008154811061065f577f4e487b7100000000000000000000000000000000000000000000000000000000600052603260045260246000fd5b90600052602060002001546040518363ffffffff1660e01b8152600401610687929190610978565b60206040518083038186803b15801561069f57600080fd5b505afa1580156106b3573d6000803e3d6000fd5b505050506040513d601f19601f820116820180604052508101906106d7919061089e565b90506000600190505b600280549050811015610802576000600160009054906101000a900473ffffffffffffffffffffffffffffffffffffffff1673ffffffffffffffffffffffffffffffffffffffff1663290496608660028581548110610768577f4e487b7100000000000000000000000000000000000000000000000000000000600052603260045260246000fd5b90600052602060002001546040518363ffffffff1660e01b8152600401610790929190610978565b60206040518083038186803b1580156107a857600080fd5b505afa1580156107bc573d6000803e3d6000fd5b505050506040513d601f19601f820116820180604052508101906107e0919061089e565b9050808311156107ee578092505b5080806107fa90610aa8565b9150506106e0565b50809150505b919050565b60008135905061081c81610bc1565b92915050565b60008135905061083181610bd8565b92915050565b60008151905061084681610bd8565b92915050565b60006020828403121561085e57600080fd5b600061086c8482850161080d565b91505092915050565b60006020828403121561088757600080fd5b600061089584828501610822565b91505092915050565b6000602082840312156108b057600080fd5b60006108be84828501610837565b91505092915050565b6108d081610a48565b82525050565b6108df81610a84565b82525050565b60006108f2600a83610a37565b91506108fd82610b20565b602082019050919050565b6000610915602683610a37565b915061092082610b49565b604082019050919050565b6000610938602083610a37565b915061094382610b98565b602082019050919050565b61095781610a7a565b82525050565b600060208201905061097260008301846108c7565b92915050565b600060408201905061098d60008301856108c7565b61099a602083018461094e565b9392505050565b60006020820190506109b660008301846108d6565b92915050565b600060208201905081810360008301526109d5816108e5565b9050919050565b600060208201905081810360008301526109f581610908565b9050919050565b60006020820190508181036000830152610a158161092b565b9050919050565b6000602082019050610a31600083018461094e565b92915050565b600082825260208201905092915050565b6000610a5382610a5a565b9050919050565b600073ffffffffffffffffffffffffffffffffffffffff82169050919050565b6000819050919050565b6000610a8f82610a96565b9050919050565b6000610aa182610a5a565b9050919050565b6000610ab382610a7a565b91507fffffffffffffffffffffffffffffffffffffffffffffffffffffffffffffffff821415610ae657610ae5610af1565b5b600182019050919050565b7f4e487b7100000000000000000000000000000000000000000000000000000000600052601160045260246000fd5b7f696e76616c696421212100000000000000000000000000000000000000000000600082015250565b7f4f776e61626c653a206e6577206f776e657220697320746865207a65726f206160008201527f6464726573730000000000000000000000000000000000000000000000000000602082015250565b7f4f776e61626c653a2063616c6c6572206973206e6f7420746865206f776e6572600082015250565b610bca81610a48565b8114610bd557600080fd5b50565b610be181610a7a565b8114610bec57600080fd5b5056fea2646970667358221220171c7ec1e03982f61febfbc8b672dbb632a955bd0a320497ad19c91ef189806c64736f6c63430008040033",
  "linkReferences": {},
  "deployedLinkReferences": {}
}