{
  "_format": "hh-sol-artifact-1",
  "contractName": "TierSystem",
  "sourceName": "contracts/launchpad/TierSystem.sol",
  "abi": [
    {
      "inputs": [
        {
          "internalType": "contract IStKDX",
          "name": "_stKdx",
          "type": "address"
        }
      ],
      "stateMutability": "nonpayable",
      "type": "constructor"
    },
    {
      "anonymous": false,
      "inputs": [
        {
          "indexed": true,
          "internalType": "address",
          "name": "previousOwner",
          "type": "address"
        },
        {
          "indexed": true,
          "internalType": "address",
          "name": "newOwner",
          "type": "address"
        }
      ],
      "name": "OwnershipTransferred",
      "type": "event"
    },
    {
      "inputs": [
        {
          "internalType": "address",
          "name": "_account",
          "type": "address"
        },
        {
          "internalType": "uint256",
          "name": "_snapshotIdFrom",
          "type": "uint256"
        },
        {
          "internalType": "uint256",
          "name": "_snapshotIdTo",
          "type": "uint256"
        }
      ],
      "name": "getAverageFrom",
      "outputs": [
        {
          "internalType": "uint256",
          "name": "",
          "type": "uint256"
        }
      ],
      "stateMutability": "view",
      "type": "function"
    },
    {
      "inputs": [
        {
          "internalType": "address",
          "name": "_account",
          "type": "address"
        }
      ],
      "name": "getTier",
      "outputs": [
        {
          "internalType": "uint256",
          "name": "",
          "type": "uint256"
        }
      ],
      "stateMutability": "view",
      "type": "function"
    },
    {
      "inputs": [
        {
          "internalType": "address",
          "name": "_account",
          "type": "address"
        },
        {
          "internalType": "uint256",
          "name": "_snapshotIdFrom",
          "type": "uint256"
        },
        {
          "internalType": "uint256",
          "name": "_snapshotIdTo",
          "type": "uint256"
        }
      ],
      "name": "getTierFromTo",
      "outputs": [
        {
          "internalType": "uint256",
          "name": "",
          "type": "uint256"
        }
      ],
      "stateMutability": "view",
      "type": "function"
    },
    {
      "inputs": [
        {
          "internalType": "uint256",
          "name": "",
          "type": "uint256"
        }
      ],
      "name": "kdxStakedTiers",
      "outputs": [
        {
          "internalType": "uint256",
          "name": "",
          "type": "uint256"
        }
      ],
      "stateMutability": "view",
      "type": "function"
    },
    {
      "inputs": [],
      "name": "owner",
      "outputs": [
        {
          "internalType": "address",
          "name": "",
          "type": "address"
        }
      ],
      "stateMutability": "view",
      "type": "function"
    },
    {
      "inputs": [],
      "name": "renounceOwnership",
      "outputs": [],
      "stateMutability": "nonpayable",
      "type": "function"
    },
    {
      "inputs": [
        {
          "internalType": "uint256[4]",
          "name": "_tiers",
          "type": "uint256[4]"
        }
      ],
      "name": "setKdxStakedTiers",
      "outputs": [],
      "stateMutability": "nonpayable",
      "type": "function"
    },
    {
      "inputs": [],
      "name": "stKdx",
      "outputs": [
        {
          "internalType": "contract IStKDX",
          "name": "",
          "type": "address"
        }
      ],
      "stateMutability": "view",
      "type": "function"
    },
    {
      "inputs": [
        {
          "internalType": "address",
          "name": "newOwner",
          "type": "address"
        }
      ],
      "name": "transferOwnership",
      "outputs": [],
      "stateMutability": "nonpayable",
      "type": "function"
    }
  ],
  "bytecode": "0x60806040526040518060800160405280683635c9adc5dea00000815260200168a2a15d09519be00000815260200169021e19e0c9bab2400000815260200169065a4da25d3016c0000081525060029060046200005d929190620001c5565b503480156200006b57600080fd5b50604051620013a8380380620013a8833981810160405281019062000091919062000240565b620000b1620000a5620000f960201b60201c565b6200010160201b60201c565b80600160006101000a81548173ffffffffffffffffffffffffffffffffffffffff021916908373ffffffffffffffffffffffffffffffffffffffff16021790555050620002ce565b600033905090565b60008060009054906101000a900473ffffffffffffffffffffffffffffffffffffffff169050816000806101000a81548173ffffffffffffffffffffffffffffffffffffffff021916908373ffffffffffffffffffffffffffffffffffffffff1602179055508173ffffffffffffffffffffffffffffffffffffffff168173ffffffffffffffffffffffffffffffffffffffff167f8be0079c531659141344cd1fd0a4f28419497f9722a3daafe3b4186f6b6457e060405160405180910390a35050565b8260048101928215620001f7579160200282015b82811115620001f6578251825591602001919060010190620001d9565b5b5090506200020691906200020a565b5090565b5b80821115620002255760008160009055506001016200020b565b5090565b6000815190506200023a81620002b4565b92915050565b6000602082840312156200025357600080fd5b6000620002638482850162000229565b91505092915050565b6000620002798262000294565b9050919050565b60006200028d826200026c565b9050919050565b600073ffffffffffffffffffffffffffffffffffffffff82169050919050565b620002bf8162000280565b8114620002cb57600080fd5b50565b6110ca80620002de6000396000f3fe608060405234801561001057600080fd5b50600436106100935760003560e01c80638da5cb5b116100665780638da5cb5b1461011e578063b1d616a21461013c578063b45aae521461015a578063f2fde38b1461018a578063fa1e5d8a146101a657610093565b80636002de6714610098578063690ec155146100c8578063715018a6146100f85780637873c25a14610102575b600080fd5b6100b260048036038101906100ad9190610b68565b6101d6565b6040516100bf9190610d44565b60405180910390f35b6100e260048036038101906100dd9190610b68565b610311565b6040516100ef9190610d44565b60405180910390f35b610100610327565b005b61011c60048036038101906101179190610bb7565b6103af565b005b610126610440565b6040516101339190610ca5565b60405180910390f35b610144610469565b6040516101519190610ce9565b60405180910390f35b610174600480360381019061016f9190610b3f565b61048f565b6040516101819190610d44565b60405180910390f35b6101a4600480360381019061019f9190610b3f565b610656565b005b6101c060048036038101906101bb9190610be0565b61074e565b6040516101cd9190610d44565b60405180910390f35b600080600160009054906101000a900473ffffffffffffffffffffffffffffffffffffffff1673ffffffffffffffffffffffffffffffffffffffff16635439ad866040518163ffffffff1660e01b815260040160206040518083038186803b15801561024157600080fd5b505afa158015610255573d6000803e3d6000fd5b505050506040513d601f19601f820116820180604052508101906102799190610c09565b9050600081841061028a578161028c565b835b9050600061029b878784610769565b905060005b6004811080156102eb5750600281600481106102e5577f4e487b7100000000000000000000000000000000000000000000000000000000600052603260045260246000fd5b01548210155b156103035780806102fb90610f07565b9150506102a0565b809450505050509392505050565b600061031e848484610769565b90509392505050565b61032f610937565b73ffffffffffffffffffffffffffffffffffffffff1661034d610440565b73ffffffffffffffffffffffffffffffffffffffff16146103a3576040517f08c379a000000000000000000000000000000000000000000000000000000000815260040161039a90610d24565b60405180910390fd5b6103ad600061093f565b565b6103b7610937565b73ffffffffffffffffffffffffffffffffffffffff166103d5610440565b73ffffffffffffffffffffffffffffffffffffffff161461042b576040517f08c379a000000000000000000000000000000000000000000000000000000000815260040161042290610d24565b60405180910390fd5b80600290600461043c929190610a19565b5050565b60008060009054906101000a900473ffffffffffffffffffffffffffffffffffffffff16905090565b600160009054906101000a900473ffffffffffffffffffffffffffffffffffffffff1681565b600080600160009054906101000a900473ffffffffffffffffffffffffffffffffffffffff1673ffffffffffffffffffffffffffffffffffffffff16635439ad866040518163ffffffff1660e01b815260040160206040518083038186803b1580156104fa57600080fd5b505afa15801561050e573d6000803e3d6000fd5b505050506040513d601f19601f820116820180604052508101906105329190610c09565b90506000600160009054906101000a900473ffffffffffffffffffffffffffffffffffffffff1673ffffffffffffffffffffffffffffffffffffffff16632904966085846040518363ffffffff1660e01b8152600401610593929190610cc0565b60206040518083038186803b1580156105ab57600080fd5b505afa1580156105bf573d6000803e3d6000fd5b505050506040513d601f19601f820116820180604052508101906105e39190610c09565b905060005b60048110801561063357506002816004811061062d577f4e487b7100000000000000000000000000000000000000000000000000000000600052603260045260246000fd5b01548210155b1561064b57808061064390610f07565b9150506105e8565b809350505050919050565b61065e610937565b73ffffffffffffffffffffffffffffffffffffffff1661067c610440565b73ffffffffffffffffffffffffffffffffffffffff16146106d2576040517f08c379a00000000000000000000000000000000000000000000000000000000081526004016106c990610d24565b60405180910390fd5b600073ffffffffffffffffffffffffffffffffffffffff168173ffffffffffffffffffffffffffffffffffffffff161415610742576040517f08c379a000000000000000000000000000000000000000000000000000000000815260040161073990610d04565b60405180910390fd5b61074b8161093f565b50565b6002816004811061075e57600080fd5b016000915090505481565b600081831061082657600160009054906101000a900473ffffffffffffffffffffffffffffffffffffffff1673ffffffffffffffffffffffffffffffffffffffff16632904966085846040518363ffffffff1660e01b81526004016107cf929190610cc0565b60206040518083038186803b1580156107e757600080fd5b505afa1580156107fb573d6000803e3d6000fd5b505050506040513d601f19601f8201168201806040525081019061081f9190610c09565b9050610930565b6000808490505b838111610908576108f3600160009054906101000a900473ffffffffffffffffffffffffffffffffffffffff1673ffffffffffffffffffffffffffffffffffffffff16632904966088846040518363ffffffff1660e01b8152600401610894929190610cc0565b60206040518083038186803b1580156108ac57600080fd5b505afa1580156108c0573d6000803e3d6000fd5b505050506040513d601f19601f820116820180604052508101906108e49190610c09565b83610a0390919063ffffffff16565b9150808061090090610f07565b91505061082d565b50600184846109179190610e42565b6109219190610dbb565b8161092c9190610e11565b9150505b9392505050565b600033905090565b60008060009054906101000a900473ffffffffffffffffffffffffffffffffffffffff169050816000806101000a81548173ffffffffffffffffffffffffffffffffffffffff021916908373ffffffffffffffffffffffffffffffffffffffff1602179055508173ffffffffffffffffffffffffffffffffffffffff168173ffffffffffffffffffffffffffffffffffffffff167f8be0079c531659141344cd1fd0a4f28419497f9722a3daafe3b4186f6b6457e060405160405180910390a35050565b60008183610a119190610dbb565b905092915050565b8260048101928215610a48579160200282015b82811115610a47578251825591602001919060010190610a2c565b5b509050610a559190610a59565b5090565b5b80821115610a72576000816000905550600101610a5a565b5090565b6000610a89610a8484610d84565b610d5f565b90508082856020860282011115610a9f57600080fd5b60005b85811015610acf5781610ab58882610b15565b845260208401935060208301925050600181019050610aa2565b5050509392505050565b600081359050610ae881611066565b92915050565b600082601f830112610aff57600080fd5b6004610b0c848285610a76565b91505092915050565b600081359050610b248161107d565b92915050565b600081519050610b398161107d565b92915050565b600060208284031215610b5157600080fd5b6000610b5f84828501610ad9565b91505092915050565b600080600060608486031215610b7d57600080fd5b6000610b8b86828701610ad9565b9350506020610b9c86828701610b15565b9250506040610bad86828701610b15565b9150509250925092565b600060808284031215610bc957600080fd5b6000610bd784828501610aee565b91505092915050565b600060208284031215610bf257600080fd5b6000610c0084828501610b15565b91505092915050565b600060208284031215610c1b57600080fd5b6000610c2984828501610b2a565b91505092915050565b610c3b81610e76565b82525050565b610c4a81610eb2565b82525050565b6000610c5d602683610daa565b9150610c6882610fee565b604082019050919050565b6000610c80602083610daa565b9150610c8b8261103d565b602082019050919050565b610c9f81610ea8565b82525050565b6000602082019050610cba6000830184610c32565b92915050565b6000604082019050610cd56000830185610c32565b610ce26020830184610c96565b9392505050565b6000602082019050610cfe6000830184610c41565b92915050565b60006020820190508181036000830152610d1d81610c50565b9050919050565b60006020820190508181036000830152610d3d81610c73565b9050919050565b6000602082019050610d596000830184610c96565b92915050565b6000610d69610d7a565b9050610d758282610ed6565b919050565b6000604051905090565b600067ffffffffffffffff821115610d9f57610d9e610fae565b5b602082029050919050565b600082825260208201905092915050565b6000610dc682610ea8565b9150610dd183610ea8565b9250827fffffffffffffffffffffffffffffffffffffffffffffffffffffffffffffffff03821115610e0657610e05610f50565b5b828201905092915050565b6000610e1c82610ea8565b9150610e2783610ea8565b925082610e3757610e36610f7f565b5b828204905092915050565b6000610e4d82610ea8565b9150610e5883610ea8565b925082821015610e6b57610e6a610f50565b5b828203905092915050565b6000610e8182610e88565b9050919050565b600073ffffffffffffffffffffffffffffffffffffffff82169050919050565b6000819050919050565b6000610ebd82610ec4565b9050919050565b6000610ecf82610e88565b9050919050565b610edf82610fdd565b810181811067ffffffffffffffff82111715610efe57610efd610fae565b5b80604052505050565b6000610f1282610ea8565b91507fffffffffffffffffffffffffffffffffffffffffffffffffffffffffffffffff821415610f4557610f44610f50565b5b600182019050919050565b7f4e487b7100000000000000000000000000000000000000000000000000000000600052601160045260246000fd5b7f4e487b7100000000000000000000000000000000000000000000000000000000600052601260045260246000fd5b7f4e487b7100000000000000000000000000000000000000000000000000000000600052604160045260246000fd5b6000601f19601f8301169050919050565b7f4f776e61626c653a206e6577206f776e657220697320746865207a65726f206160008201527f6464726573730000000000000000000000000000000000000000000000000000602082015250565b7f4f776e61626c653a2063616c6c6572206973206e6f7420746865206f776e6572600082015250565b61106f81610e76565b811461107a57600080fd5b50565b61108681610ea8565b811461109157600080fd5b5056fea26469706673582212202f0f8018876c71d3b488ff2279755d089a86c0bbbe85f64567c9ef90fcdf9eb664736f6c63430008040033",
  "linkReferences": {},
  "deployedLinkReferences": {}
}