{
  "_format": "hh-sol-artifact-1",
  "contractName": "KaiDexRouter",
  "sourceName": "contracts/exchange/KaiDexRouter.sol",
  "abi": [
    {
      "inputs": [
        {
          "internalType": "address",
          "name": "_factory",
          "type": "address"
        },
        {
          "internalType": "address",
          "name": "_WKAI",
          "type": "address"
        }
      ],
      "stateMutability": "nonpayable",
      "type": "constructor"
    },
    {
      "inputs": [],
      "name": "WKAI",
      "outputs": [
        {
          "internalType": "address",
          "name": "",
          "type": "address"
        }
      ],
      "stateMutability": "view",
      "type": "function"
    },
    {
      "inputs": [
        {
          "internalType": "address",
          "name": "tokenA",
          "type": "address"
        },
        {
          "internalType": "address",
          "name": "tokenB",
          "type": "address"
        },
        {
          "internalType": "uint256",
          "name": "amountADesired",
          "type": "uint256"
        },
        {
          "internalType": "uint256",
          "name": "amountBDesired",
          "type": "uint256"
        },
        {
          "internalType": "uint256",
          "name": "amountAMin",
          "type": "uint256"
        },
        {
          "internalType": "uint256",
          "name": "amountBMin",
          "type": "uint256"
        },
        {
          "internalType": "address",
          "name": "to",
          "type": "address"
        },
        {
          "internalType": "uint256",
          "name": "deadline",
          "type": "uint256"
        }
      ],
      "name": "addLiquidity",
      "outputs": [
        {
          "internalType": "uint256",
          "name": "amountA",
          "type": "uint256"
        },
        {
          "internalType": "uint256",
          "name": "amountB",
          "type": "uint256"
        },
        {
          "internalType": "uint256",
          "name": "liquidity",
          "type": "uint256"
        }
      ],
      "stateMutability": "nonpayable",
      "type": "function"
    },
    {
      "inputs": [
        {
          "internalType": "address",
          "name": "token",
          "type": "address"
        },
        {
          "internalType": "uint256",
          "name": "amountTokenDesired",
          "type": "uint256"
        },
        {
          "internalType": "uint256",
          "name": "amountTokenMin",
          "type": "uint256"
        },
        {
          "internalType": "uint256",
          "name": "amountKAIMin",
          "type": "uint256"
        },
        {
          "internalType": "address",
          "name": "to",
          "type": "address"
        },
        {
          "internalType": "uint256",
          "name": "deadline",
          "type": "uint256"
        }
      ],
      "name": "addLiquidityKAI",
      "outputs": [
        {
          "internalType": "uint256",
          "name": "amountToken",
          "type": "uint256"
        },
        {
          "internalType": "uint256",
          "name": "amountKAI",
          "type": "uint256"
        },
        {
          "internalType": "uint256",
          "name": "liquidity",
          "type": "uint256"
        }
      ],
      "stateMutability": "payable",
      "type": "function"
    },
    {
      "inputs": [],
      "name": "factory",
      "outputs": [
        {
          "internalType": "address",
          "name": "",
          "type": "address"
        }
      ],
      "stateMutability": "view",
      "type": "function"
    },
    {
      "inputs": [
        {
          "internalType": "uint256",
          "name": "amountOut",
          "type": "uint256"
        },
        {
          "internalType": "uint256",
          "name": "reserveIn",
          "type": "uint256"
        },
        {
          "internalType": "uint256",
          "name": "reserveOut",
          "type": "uint256"
        }
      ],
      "name": "getAmountIn",
      "outputs": [
        {
          "internalType": "uint256",
          "name": "amountIn",
          "type": "uint256"
        }
      ],
      "stateMutability": "pure",
      "type": "function"
    },
    {
      "inputs": [
        {
          "internalType": "uint256",
          "name": "amountIn",
          "type": "uint256"
        },
        {
          "internalType": "uint256",
          "name": "reserveIn",
          "type": "uint256"
        },
        {
          "internalType": "uint256",
          "name": "reserveOut",
          "type": "uint256"
        }
      ],
      "name": "getAmountOut",
      "outputs": [
        {
          "internalType": "uint256",
          "name": "amountOut",
          "type": "uint256"
        }
      ],
      "stateMutability": "pure",
      "type": "function"
    },
    {
      "inputs": [
        {
          "internalType": "uint256",
          "name": "amountOut",
          "type": "uint256"
        },
        {
          "internalType": "address[]",
          "name": "path",
          "type": "address[]"
        }
      ],
      "name": "getAmountsIn",
      "outputs": [
        {
          "internalType": "uint256[]",
          "name": "amounts",
          "type": "uint256[]"
        }
      ],
      "stateMutability": "view",
      "type": "function"
    },
    {
      "inputs": [
        {
          "internalType": "uint256",
          "name": "amountIn",
          "type": "uint256"
        },
        {
          "internalType": "address[]",
          "name": "path",
          "type": "address[]"
        }
      ],
      "name": "getAmountsOut",
      "outputs": [
        {
          "internalType": "uint256[]",
          "name": "amounts",
          "type": "uint256[]"
        }
      ],
      "stateMutability": "view",
      "type": "function"
    },
    {
      "inputs": [
        {
          "internalType": "uint256",
          "name": "amountA",
          "type": "uint256"
        },
        {
          "internalType": "uint256",
          "name": "reserveA",
          "type": "uint256"
        },
        {
          "internalType": "uint256",
          "name": "reserveB",
          "type": "uint256"
        }
      ],
      "name": "quote",
      "outputs": [
        {
          "internalType": "uint256",
          "name": "amountB",
          "type": "uint256"
        }
      ],
      "stateMutability": "pure",
      "type": "function"
    },
    {
      "inputs": [
        {
          "internalType": "address",
          "name": "tokenA",
          "type": "address"
        },
        {
          "internalType": "address",
          "name": "tokenB",
          "type": "address"
        },
        {
          "internalType": "uint256",
          "name": "liquidity",
          "type": "uint256"
        },
        {
          "internalType": "uint256",
          "name": "amountAMin",
          "type": "uint256"
        },
        {
          "internalType": "uint256",
          "name": "amountBMin",
          "type": "uint256"
        },
        {
          "internalType": "address",
          "name": "to",
          "type": "address"
        },
        {
          "internalType": "uint256",
          "name": "deadline",
          "type": "uint256"
        }
      ],
      "name": "removeLiquidity",
      "outputs": [
        {
          "internalType": "uint256",
          "name": "amountA",
          "type": "uint256"
        },
        {
          "internalType": "uint256",
          "name": "amountB",
          "type": "uint256"
        }
      ],
      "stateMutability": "nonpayable",
      "type": "function"
    },
    {
      "inputs": [
        {
          "internalType": "address",
          "name": "token",
          "type": "address"
        },
        {
          "internalType": "uint256",
          "name": "liquidity",
          "type": "uint256"
        },
        {
          "internalType": "uint256",
          "name": "amountTokenMin",
          "type": "uint256"
        },
        {
          "internalType": "uint256",
          "name": "amountKAIMin",
          "type": "uint256"
        },
        {
          "internalType": "address",
          "name": "to",
          "type": "address"
        },
        {
          "internalType": "uint256",
          "name": "deadline",
          "type": "uint256"
        }
      ],
      "name": "removeLiquidityKAI",
      "outputs": [
        {
          "internalType": "uint256",
          "name": "amountToken",
          "type": "uint256"
        },
        {
          "internalType": "uint256",
          "name": "amountKAI",
          "type": "uint256"
        }
      ],
      "stateMutability": "nonpayable",
      "type": "function"
    },
    {
      "inputs": [
        {
          "internalType": "address",
          "name": "token",
          "type": "address"
        },
        {
          "internalType": "uint256",
          "name": "liquidity",
          "type": "uint256"
        },
        {
          "internalType": "uint256",
          "name": "amountTokenMin",
          "type": "uint256"
        },
        {
          "internalType": "uint256",
          "name": "amountKAIMin",
          "type": "uint256"
        },
        {
          "internalType": "address",
          "name": "to",
          "type": "address"
        },
        {
          "internalType": "uint256",
          "name": "deadline",
          "type": "uint256"
        }
      ],
      "name": "removeLiquidityKAISupportingFeeOnTransferTokens",
      "outputs": [
        {
          "internalType": "uint256",
          "name": "amountKAI",
          "type": "uint256"
        }
      ],
      "stateMutability": "nonpayable",
      "type": "function"
    },
    {
      "inputs": [
        {
          "internalType": "address",
          "name": "token",
          "type": "address"
        },
        {
          "internalType": "uint256",
          "name": "liquidity",
          "type": "uint256"
        },
        {
          "internalType": "uint256",
          "name": "amountTokenMin",
          "type": "uint256"
        },
        {
          "internalType": "uint256",
          "name": "amountKAIMin",
          "type": "uint256"
        },
        {
          "internalType": "address",
          "name": "to",
          "type": "address"
        },
        {
          "internalType": "uint256",
          "name": "deadline",
          "type": "uint256"
        },
        {
          "internalType": "bool",
          "name": "approveMax",
          "type": "bool"
        },
        {
          "internalType": "uint8",
          "name": "v",
          "type": "uint8"
        },
        {
          "internalType": "bytes32",
          "name": "r",
          "type": "bytes32"
        },
        {
          "internalType": "bytes32",
          "name": "s",
          "type": "bytes32"
        }
      ],
      "name": "removeLiquidityKAIWithPermit",
      "outputs": [
        {
          "internalType": "uint256",
          "name": "amountToken",
          "type": "uint256"
        },
        {
          "internalType": "uint256",
          "name": "amountKAI",
          "type": "uint256"
        }
      ],
      "stateMutability": "nonpayable",
      "type": "function"
    },
    {
      "inputs": [
        {
          "internalType": "address",
          "name": "token",
          "type": "address"
        },
        {
          "internalType": "uint256",
          "name": "liquidity",
          "type": "uint256"
        },
        {
          "internalType": "uint256",
          "name": "amountTokenMin",
          "type": "uint256"
        },
        {
          "internalType": "uint256",
          "name": "amountKAIMin",
          "type": "uint256"
        },
        {
          "internalType": "address",
          "name": "to",
          "type": "address"
        },
        {
          "internalType": "uint256",
          "name": "deadline",
          "type": "uint256"
        },
        {
          "internalType": "bool",
          "name": "approveMax",
          "type": "bool"
        },
        {
          "internalType": "uint8",
          "name": "v",
          "type": "uint8"
        },
        {
          "internalType": "bytes32",
          "name": "r",
          "type": "bytes32"
        },
        {
          "internalType": "bytes32",
          "name": "s",
          "type": "bytes32"
        }
      ],
      "name": "removeLiquidityKAIWithPermitSupportingFeeOnTransferTokens",
      "outputs": [
        {
          "internalType": "uint256",
          "name": "amountKAI",
          "type": "uint256"
        }
      ],
      "stateMutability": "nonpayable",
      "type": "function"
    },
    {
      "inputs": [
        {
          "internalType": "address",
          "name": "tokenA",
          "type": "address"
        },
        {
          "internalType": "address",
          "name": "tokenB",
          "type": "address"
        },
        {
          "internalType": "uint256",
          "name": "liquidity",
          "type": "uint256"
        },
        {
          "internalType": "uint256",
          "name": "amountAMin",
          "type": "uint256"
        },
        {
          "internalType": "uint256",
          "name": "amountBMin",
          "type": "uint256"
        },
        {
          "internalType": "address",
          "name": "to",
          "type": "address"
        },
        {
          "internalType": "uint256",
          "name": "deadline",
          "type": "uint256"
        },
        {
          "internalType": "bool",
          "name": "approveMax",
          "type": "bool"
        },
        {
          "internalType": "uint8",
          "name": "v",
          "type": "uint8"
        },
        {
          "internalType": "bytes32",
          "name": "r",
          "type": "bytes32"
        },
        {
          "internalType": "bytes32",
          "name": "s",
          "type": "bytes32"
        }
      ],
      "name": "removeLiquidityWithPermit",
      "outputs": [
        {
          "internalType": "uint256",
          "name": "amountA",
          "type": "uint256"
        },
        {
          "internalType": "uint256",
          "name": "amountB",
          "type": "uint256"
        }
      ],
      "stateMutability": "nonpayable",
      "type": "function"
    },
    {
      "inputs": [
        {
          "internalType": "uint256",
          "name": "amountOutMin",
          "type": "uint256"
        },
        {
          "internalType": "address[]",
          "name": "path",
          "type": "address[]"
        },
        {
          "internalType": "address",
          "name": "to",
          "type": "address"
        },
        {
          "internalType": "uint256",
          "name": "deadline",
          "type": "uint256"
        }
      ],
      "name": "swapExactKAIForTokens",
      "outputs": [
        {
          "internalType": "uint256[]",
          "name": "amounts",
          "type": "uint256[]"
        }
      ],
      "stateMutability": "payable",
      "type": "function"
    },
    {
      "inputs": [
        {
          "internalType": "uint256",
          "name": "amountOutMin",
          "type": "uint256"
        },
        {
          "internalType": "address[]",
          "name": "path",
          "type": "address[]"
        },
        {
          "internalType": "address",
          "name": "to",
          "type": "address"
        },
        {
          "internalType": "uint256",
          "name": "deadline",
          "type": "uint256"
        }
      ],
      "name": "swapExactKAIForTokensSupportingFeeOnTransferTokens",
      "outputs": [],
      "stateMutability": "payable",
      "type": "function"
    },
    {
      "inputs": [
        {
          "internalType": "uint256",
          "name": "amountIn",
          "type": "uint256"
        },
        {
          "internalType": "uint256",
          "name": "amountOutMin",
          "type": "uint256"
        },
        {
          "internalType": "address[]",
          "name": "path",
          "type": "address[]"
        },
        {
          "internalType": "address",
          "name": "to",
          "type": "address"
        },
        {
          "internalType": "uint256",
          "name": "deadline",
          "type": "uint256"
        }
      ],
      "name": "swapExactTokensForKAI",
      "outputs": [
        {
          "internalType": "uint256[]",
          "name": "amounts",
          "type": "uint256[]"
        }
      ],
      "stateMutability": "nonpayable",
      "type": "function"
    },
    {
      "inputs": [
        {
          "internalType": "uint256",
          "name": "amountIn",
          "type": "uint256"
        },
        {
          "internalType": "uint256",
          "name": "amountOutMin",
          "type": "uint256"
        },
        {
          "internalType": "address[]",
          "name": "path",
          "type": "address[]"
        },
        {
          "internalType": "address",
          "name": "to",
          "type": "address"
        },
        {
          "internalType": "uint256",
          "name": "deadline",
          "type": "uint256"
        }
      ],
      "name": "swapExactTokensForKAISupportingFeeOnTransferTokens",
      "outputs": [],
      "stateMutability": "nonpayable",
      "type": "function"
    },
    {
      "inputs": [
        {
          "internalType": "uint256",
          "name": "amountIn",
          "type": "uint256"
        },
        {
          "internalType": "uint256",
          "name": "amountOutMin",
          "type": "uint256"
        },
        {
          "internalType": "address[]",
          "name": "path",
          "type": "address[]"
        },
        {
          "internalType": "address",
          "name": "to",
          "type": "address"
        },
        {
          "internalType": "uint256",
          "name": "deadline",
          "type": "uint256"
        }
      ],
      "name": "swapExactTokensForTokens",
      "outputs": [
        {
          "internalType": "uint256[]",
          "name": "amounts",
          "type": "uint256[]"
        }
      ],
      "stateMutability": "nonpayable",
      "type": "function"
    },
    {
      "inputs": [
        {
          "internalType": "uint256",
          "name": "amountIn",
          "type": "uint256"
        },
        {
          "internalType": "uint256",
          "name": "amountOutMin",
          "type": "uint256"
        },
        {
          "internalType": "address[]",
          "name": "path",
          "type": "address[]"
        },
        {
          "internalType": "address",
          "name": "to",
          "type": "address"
        },
        {
          "internalType": "uint256",
          "name": "deadline",
          "type": "uint256"
        }
      ],
      "name": "swapExactTokensForTokensSupportingFeeOnTransferTokens",
      "outputs": [],
      "stateMutability": "nonpayable",
      "type": "function"
    },
    {
      "inputs": [
        {
          "internalType": "uint256",
          "name": "amountOut",
          "type": "uint256"
        },
        {
          "internalType": "address[]",
          "name": "path",
          "type": "address[]"
        },
        {
          "internalType": "address",
          "name": "to",
          "type": "address"
        },
        {
          "internalType": "uint256",
          "name": "deadline",
          "type": "uint256"
        }
      ],
      "name": "swapKAIForExactTokens",
      "outputs": [
        {
          "internalType": "uint256[]",
          "name": "amounts",
          "type": "uint256[]"
        }
      ],
      "stateMutability": "payable",
      "type": "function"
    },
    {
      "inputs": [
        {
          "internalType": "uint256",
          "name": "amountOut",
          "type": "uint256"
        },
        {
          "internalType": "uint256",
          "name": "amountInMax",
          "type": "uint256"
        },
        {
          "internalType": "address[]",
          "name": "path",
          "type": "address[]"
        },
        {
          "internalType": "address",
          "name": "to",
          "type": "address"
        },
        {
          "internalType": "uint256",
          "name": "deadline",
          "type": "uint256"
        }
      ],
      "name": "swapTokensForExactKAI",
      "outputs": [
        {
          "internalType": "uint256[]",
          "name": "amounts",
          "type": "uint256[]"
        }
      ],
      "stateMutability": "nonpayable",
      "type": "function"
    },
    {
      "inputs": [
        {
          "internalType": "uint256",
          "name": "amountOut",
          "type": "uint256"
        },
        {
          "internalType": "uint256",
          "name": "amountInMax",
          "type": "uint256"
        },
        {
          "internalType": "address[]",
          "name": "path",
          "type": "address[]"
        },
        {
          "internalType": "address",
          "name": "to",
          "type": "address"
        },
        {
          "internalType": "uint256",
          "name": "deadline",
          "type": "uint256"
        }
      ],
      "name": "swapTokensForExactTokens",
      "outputs": [
        {
          "internalType": "uint256[]",
          "name": "amounts",
          "type": "uint256[]"
        }
      ],
      "stateMutability": "nonpayable",
      "type": "function"
    },
    {
      "stateMutability": "payable",
      "type": "receive"
    }
  ],
  "bytecode": "0x60806040523480156200001157600080fd5b5060405162007402380380620074028339818101604052810190620000379190620000d7565b816000806101000a81548173ffffffffffffffffffffffffffffffffffffffff021916908373ffffffffffffffffffffffffffffffffffffffff16021790555080600160006101000a81548173ffffffffffffffffffffffffffffffffffffffff021916908373ffffffffffffffffffffffffffffffffffffffff160217905550505062000166565b600081519050620000d1816200014c565b92915050565b60008060408385031215620000eb57600080fd5b6000620000fb85828601620000c0565b92505060206200010e85828601620000c0565b9150509250929050565b600062000125826200012c565b9050919050565b600073ffffffffffffffffffffffffffffffffffffffff82169050919050565b620001578162000118565b81146200016357600080fd5b50565b61728c80620001766000396000f3fe60806040526004361061014f5760003560e01c80636937ffb6116100b6578063b6a046b31161006f578063b6a046b3146105cb578063baa2abde146105f4578063c45a015514610632578063d06ca61f1461065d578063d06ebe7d1461069a578063e8e33700146106cc576101da565b80636937ffb61461047757806385f8c259146104b45780638803dbee146104f15780639df02c721461052e578063ad615dec1461055e578063b62761fa1461059b576101da565b806338ed17391161010857806338ed17391461032e57806356732d731461036b57806356b2cc2f146103a95780635c11d795146103e6578063629f43061461040f578063631722db1461044c576101da565b806304d464b1146101df578063054d50d4146101fb5780630c7e815a146102385780631f00ca74146102765780632195995c146102b357806323da1b27146102f1576101da565b366101da57600160009054906101000a900473ffffffffffffffffffffffffffffffffffffffff1673ffffffffffffffffffffffffffffffffffffffff163373ffffffffffffffffffffffffffffffffffffffff16146101d8577f4e487b7100000000000000000000000000000000000000000000000000000000600052600160045260246000fd5b005b600080fd5b6101f960048036038101906101f49190615d91565b61070b565b005b34801561020757600080fd5b50610222600480360381019061021d9190615f33565b610cd4565b60405161022f91906167d4565b60405180910390f35b34801561024457600080fd5b5061025f600480360381019061025a9190615c15565b610cea565b60405161026d9291906167ef565b60405180910390f35b34801561028257600080fd5b5061029d60048036038101906102989190615e11565b610e0d565b6040516102aa9190616552565b60405180910390f35b3480156102bf57600080fd5b506102da60048036038101906102d591906159ea565b610e42565b6040516102e89291906167ef565b60405180910390f35b3480156102fd57600080fd5b5061031860048036038101906103139190615b8c565b610f45565b60405161032591906167d4565b60405180910390f35b34801561033a57600080fd5b5061035560048036038101906103509190615ea1565b6110f7565b6040516103629190616552565b60405180910390f35b34801561037757600080fd5b50610392600480360381019061038d9190615b8c565b6113f3565b6040516103a09291906167ef565b60405180910390f35b3480156103b557600080fd5b506103d060048036038101906103cb9190615ea1565b611521565b6040516103dd9190616552565b60405180910390f35b3480156103f257600080fd5b5061040d60048036038101906104089190615ea1565b611a2e565b005b34801561041b57600080fd5b5061043660048036038101906104319190615c15565b611e09565b60405161044391906167d4565b60405180910390f35b34801561045857600080fd5b50610461611f23565b60405161046e919061643f565b60405180910390f35b34801561048357600080fd5b5061049e60048036038101906104999190615ea1565b611f49565b6040516104ab9190616552565b60405180910390f35b3480156104c057600080fd5b506104db60048036038101906104d69190615f33565b612462565b6040516104e891906167d4565b60405180910390f35b3480156104fd57600080fd5b5061051860048036038101906105139190615ea1565b612478565b6040516105259190616552565b60405180910390f35b61054860048036038101906105439190615d91565b612768565b6040516105559190616552565b60405180910390f35b34801561056a57600080fd5b5061058560048036038101906105809190615f33565b612d21565b60405161059291906167d4565b60405180910390f35b6105b560048036038101906105b09190615d91565b612d37565b6040516105c29190616552565b60405180910390f35b3480156105d757600080fd5b506105f260048036038101906105ed9190615ea1565b61325c565b005b34801561060057600080fd5b5061061b6004803603810190610616919061594c565b61368a565b6040516106299291906167ef565b60405180910390f35b34801561063e57600080fd5b5061064761390c565b604051610654919061643f565b60405180910390f35b34801561066957600080fd5b50610684600480360381019061067f9190615e11565b613930565b6040516106919190616552565b60405180910390f35b6106b460048036038101906106af9190615b8c565b613965565b6040516106c393929190616864565b60405180910390f35b3480156106d857600080fd5b506106f360048036038101906106ee9190615ada565b613c61565b60405161070293929190616864565b60405180910390f35b804281101561074f576040517f08c379a0000000000000000000000000000000000000000000000000000000008152600401610746906167b4565b60405180910390fd5b600160009054906101000a900473ffffffffffffffffffffffffffffffffffffffff1673ffffffffffffffffffffffffffffffffffffffff16858560008181106107c2577f4e487b7100000000000000000000000000000000000000000000000000000000600052603260045260246000fd5b90506020020160208101906107d791906158fa565b73ffffffffffffffffffffffffffffffffffffffff161461082d576040517f08c379a000000000000000000000000000000000000000000000000000000000815260040161082490616674565b60405180910390fd5b6000349050600160009054906101000a900473ffffffffffffffffffffffffffffffffffffffff1673ffffffffffffffffffffffffffffffffffffffff1663d0e30db0826040518263ffffffff1660e01b81526004016000604051808303818588803b15801561089c57600080fd5b505af11580156108b0573d6000803e3d6000fd5b5050505050600160009054906101000a900473ffffffffffffffffffffffffffffffffffffffff1673ffffffffffffffffffffffffffffffffffffffff1663a9059cbb6109ba60008054906101000a900473ffffffffffffffffffffffffffffffffffffffff1689896000818110610951577f4e487b7100000000000000000000000000000000000000000000000000000000600052603260045260246000fd5b905060200201602081019061096691906158fa565b8a8a60018181106109a0577f4e487b7100000000000000000000000000000000000000000000000000000000600052603260045260246000fd5b90506020020160208101906109b591906158fa565b613da4565b836040518363ffffffff1660e01b81526004016109d8929190616529565b602060405180830381600087803b1580156109f257600080fd5b505af1158015610a06573d6000803e3d6000fd5b505050506040513d601f19601f82011682018060405250810190610a2a9190615cf0565b610a5d577f4e487b7100000000000000000000000000000000000000000000000000000000600052600160045260246000fd5b60008686600189899050610a719190616a49565b818110610aa7577f4e487b7100000000000000000000000000000000000000000000000000000000600052603260045260246000fd5b9050602002016020810190610abc91906158fa565b73ffffffffffffffffffffffffffffffffffffffff166370a08231866040518263ffffffff1660e01b8152600401610af4919061643f565b60206040518083038186803b158015610b0c57600080fd5b505afa158015610b20573d6000803e3d6000fd5b505050506040513d601f19601f82011682018060405250810190610b449190615d68565b9050610b91878780806020026020016040519081016040528093929190818152602001838360200280828437600081840152601f19601f8201169050808301925050505050505086613e16565b87610c8982898960018c8c9050610ba89190616a49565b818110610bde577f4e487b7100000000000000000000000000000000000000000000000000000000600052603260045260246000fd5b9050602002016020810190610bf391906158fa565b73ffffffffffffffffffffffffffffffffffffffff166370a08231896040518263ffffffff1660e01b8152600401610c2b919061643f565b60206040518083038186803b158015610c4357600080fd5b505afa158015610c57573d6000803e3d6000fd5b505050506040513d601f19601f82011682018060405250810190610c7b9190615d68565b61427d90919063ffffffff16565b1015610cca576040517f08c379a0000000000000000000000000000000000000000000000000000000008152600401610cc1906166d4565b60405180910390fd5b5050505050505050565b6000610ce18484846142d6565b90509392505050565b6000806000610d3c60008054906101000a900473ffffffffffffffffffffffffffffffffffffffff168e600160009054906101000a900473ffffffffffffffffffffffffffffffffffffffff16613da4565b9050600087610d4b578c610d6d565b7fffffffffffffffffffffffffffffffffffffffffffffffffffffffffffffffff5b90508173ffffffffffffffffffffffffffffffffffffffff1663d505accf3330848d8c8c8c6040518863ffffffff1660e01b8152600401610db497969594939291906164ba565b600060405180830381600087803b158015610dce57600080fd5b505af1158015610de2573d6000803e3d6000fd5b50505050610df48e8e8e8e8e8e6113f3565b809450819550505050509a509a98505050505050505050565b6060610e3a60008054906101000a900473ffffffffffffffffffffffffffffffffffffffff1684846143dc565b905092915050565b6000806000610e7260008054906101000a900473ffffffffffffffffffffffffffffffffffffffff168f8f613da4565b9050600087610e81578c610ea3565b7fffffffffffffffffffffffffffffffffffffffffffffffffffffffffffffffff5b90508173ffffffffffffffffffffffffffffffffffffffff1663d505accf3330848d8c8c8c6040518863ffffffff1660e01b8152600401610eea97969594939291906164ba565b600060405180830381600087803b158015610f0457600080fd5b505af1158015610f18573d6000803e3d6000fd5b50505050610f2b8f8f8f8f8f8f8f61368a565b809450819550505050509b509b9950505050505050505050565b60008142811015610f8b576040517f08c379a0000000000000000000000000000000000000000000000000000000008152600401610f82906167b4565b60405180910390fd5b610fbc88600160009054906101000a900473ffffffffffffffffffffffffffffffffffffffff16898989308961368a565b90508092505061105588858a73ffffffffffffffffffffffffffffffffffffffff166370a08231306040518263ffffffff1660e01b8152600401611000919061643f565b60206040518083038186803b15801561101857600080fd5b505afa15801561102c573d6000803e3d6000fd5b505050506040513d601f19601f820116820180604052508101906110509190615d68565b61465b565b600160009054906101000a900473ffffffffffffffffffffffffffffffffffffffff1673ffffffffffffffffffffffffffffffffffffffff16632e1a7d4d836040518263ffffffff1660e01b81526004016110b091906167d4565b600060405180830381600087803b1580156110ca57600080fd5b505af11580156110de573d6000803e3d6000fd5b505050506110ec8483614791565b509695505050505050565b6060814281101561113d576040517f08c379a0000000000000000000000000000000000000000000000000000000008152600401611134906167b4565b60405180910390fd5b6111a960008054906101000a900473ffffffffffffffffffffffffffffffffffffffff1689888880806020026020016040519081016040528093929190818152602001838360200280828437600081840152601f19601f820116905080830192505050505050506148b7565b91508682600184516111bb9190616a49565b815181106111f2577f4e487b7100000000000000000000000000000000000000000000000000000000600052603260045260246000fd5b6020026020010151101561123b576040517f08c379a0000000000000000000000000000000000000000000000000000000008152600401611232906166d4565b60405180910390fd5b61139c86866000818110611278577f4e487b7100000000000000000000000000000000000000000000000000000000600052603260045260246000fd5b905060200201602081019061128d91906158fa565b3361135560008054906101000a900473ffffffffffffffffffffffffffffffffffffffff168a8a60008181106112ec577f4e487b7100000000000000000000000000000000000000000000000000000000600052603260045260246000fd5b905060200201602081019061130191906158fa565b8b8b600181811061133b577f4e487b7100000000000000000000000000000000000000000000000000000000600052603260045260246000fd5b905060200201602081019061135091906158fa565b613da4565b8560008151811061138f577f4e487b7100000000000000000000000000000000000000000000000000000000600052603260045260246000fd5b6020026020010151614b26565b6113e882878780806020026020016040519081016040528093929190818152602001838360200280828437600081840152601f19601f8201169050808301925050505050505086614c5f565b509695505050505050565b600080824281101561143a576040517f08c379a0000000000000000000000000000000000000000000000000000000008152600401611431906167b4565b60405180910390fd5b61146b89600160009054906101000a900473ffffffffffffffffffffffffffffffffffffffff168a8a8a308a61368a565b809350819450505061147e89868561465b565b600160009054906101000a900473ffffffffffffffffffffffffffffffffffffffff1673ffffffffffffffffffffffffffffffffffffffff16632e1a7d4d836040518263ffffffff1660e01b81526004016114d991906167d4565b600060405180830381600087803b1580156114f357600080fd5b505af1158015611507573d6000803e3d6000fd5b505050506115158583614791565b50965096945050505050565b60608142811015611567576040517f08c379a000000000000000000000000000000000000000000000000000000000815260040161155e906167b4565b60405180910390fd5b600160009054906101000a900473ffffffffffffffffffffffffffffffffffffffff1673ffffffffffffffffffffffffffffffffffffffff1686866001898990506115b29190616a49565b8181106115e8577f4e487b7100000000000000000000000000000000000000000000000000000000600052603260045260246000fd5b90506020020160208101906115fd91906158fa565b73ffffffffffffffffffffffffffffffffffffffff1614611653576040517f08c379a000000000000000000000000000000000000000000000000000000000815260040161164a90616674565b60405180910390fd5b6116bf60008054906101000a900473ffffffffffffffffffffffffffffffffffffffff1689888880806020026020016040519081016040528093929190818152602001838360200280828437600081840152601f19601f820116905080830192505050505050506143dc565b915086826000815181106116fc577f4e487b7100000000000000000000000000000000000000000000000000000000600052603260045260246000fd5b60200260200101511115611745576040517f08c379a000000000000000000000000000000000000000000000000000000000815260040161173c90616714565b60405180910390fd5b6118a686866000818110611782577f4e487b7100000000000000000000000000000000000000000000000000000000600052603260045260246000fd5b905060200201602081019061179791906158fa565b3361185f60008054906101000a900473ffffffffffffffffffffffffffffffffffffffff168a8a60008181106117f6577f4e487b7100000000000000000000000000000000000000000000000000000000600052603260045260246000fd5b905060200201602081019061180b91906158fa565b8b8b6001818110611845577f4e487b7100000000000000000000000000000000000000000000000000000000600052603260045260246000fd5b905060200201602081019061185a91906158fa565b613da4565b85600081518110611899577f4e487b7100000000000000000000000000000000000000000000000000000000600052603260045260246000fd5b6020026020010151614b26565b6118f282878780806020026020016040519081016040528093929190818152602001838360200280828437600081840152601f19601f8201169050808301925050505050505030614c5f565b600160009054906101000a900473ffffffffffffffffffffffffffffffffffffffff1673ffffffffffffffffffffffffffffffffffffffff16632e1a7d4d836001855161193f9190616a49565b81518110611976577f4e487b7100000000000000000000000000000000000000000000000000000000600052603260045260246000fd5b60200260200101516040518263ffffffff1660e01b815260040161199a91906167d4565b600060405180830381600087803b1580156119b457600080fd5b505af11580156119c8573d6000803e3d6000fd5b50505050611a238483600185516119df9190616a49565b81518110611a16577f4e487b7100000000000000000000000000000000000000000000000000000000600052603260045260246000fd5b6020026020010151614791565b509695505050505050565b8042811015611a72576040517f08c379a0000000000000000000000000000000000000000000000000000000008152600401611a69906167b4565b60405180910390fd5b611b9285856000818110611aaf577f4e487b7100000000000000000000000000000000000000000000000000000000600052603260045260246000fd5b9050602002016020810190611ac491906158fa565b33611b8c60008054906101000a900473ffffffffffffffffffffffffffffffffffffffff1689896000818110611b23577f4e487b7100000000000000000000000000000000000000000000000000000000600052603260045260246000fd5b9050602002016020810190611b3891906158fa565b8a8a6001818110611b72577f4e487b7100000000000000000000000000000000000000000000000000000000600052603260045260246000fd5b9050602002016020810190611b8791906158fa565b613da4565b8a614b26565b60008585600188889050611ba69190616a49565b818110611bdc577f4e487b7100000000000000000000000000000000000000000000000000000000600052603260045260246000fd5b9050602002016020810190611bf191906158fa565b73ffffffffffffffffffffffffffffffffffffffff166370a08231856040518263ffffffff1660e01b8152600401611c29919061643f565b60206040518083038186803b158015611c4157600080fd5b505afa158015611c55573d6000803e3d6000fd5b505050506040513d601f19601f82011682018060405250810190611c799190615d68565b9050611cc6868680806020026020016040519081016040528093929190818152602001838360200280828437600081840152601f19601f8201169050808301925050505050505085613e16565b86611dbe82888860018b8b9050611cdd9190616a49565b818110611d13577f4e487b7100000000000000000000000000000000000000000000000000000000600052603260045260246000fd5b9050602002016020810190611d2891906158fa565b73ffffffffffffffffffffffffffffffffffffffff166370a08231886040518263ffffffff1660e01b8152600401611d60919061643f565b60206040518083038186803b158015611d7857600080fd5b505afa158015611d8c573d6000803e3d6000fd5b505050506040513d601f19601f82011682018060405250810190611db09190615d68565b61427d90919063ffffffff16565b1015611dff576040517f08c379a0000000000000000000000000000000000000000000000000000000008152600401611df6906166d4565b60405180910390fd5b5050505050505050565b600080611e5960008054906101000a900473ffffffffffffffffffffffffffffffffffffffff168d600160009054906101000a900473ffffffffffffffffffffffffffffffffffffffff16613da4565b9050600086611e68578b611e8a565b7fffffffffffffffffffffffffffffffffffffffffffffffffffffffffffffffff5b90508173ffffffffffffffffffffffffffffffffffffffff1663d505accf3330848c8b8b8b6040518863ffffffff1660e01b8152600401611ed197969594939291906164ba565b600060405180830381600087803b158015611eeb57600080fd5b505af1158015611eff573d6000803e3d6000fd5b50505050611f118d8d8d8d8d8d610f45565b925050509a9950505050505050505050565b600160009054906101000a900473ffffffffffffffffffffffffffffffffffffffff1681565b60608142811015611f8f576040517f08c379a0000000000000000000000000000000000000000000000000000000008152600401611f86906167b4565b60405180910390fd5b600160009054906101000a900473ffffffffffffffffffffffffffffffffffffffff1673ffffffffffffffffffffffffffffffffffffffff168686600189899050611fda9190616a49565b818110612010577f4e487b7100000000000000000000000000000000000000000000000000000000600052603260045260246000fd5b905060200201602081019061202591906158fa565b73ffffffffffffffffffffffffffffffffffffffff161461207b576040517f08c379a000000000000000000000000000000000000000000000000000000000815260040161207290616674565b60405180910390fd5b6120e760008054906101000a900473ffffffffffffffffffffffffffffffffffffffff1689888880806020026020016040519081016040528093929190818152602001838360200280828437600081840152601f19601f820116905080830192505050505050506148b7565b91508682600184516120f99190616a49565b81518110612130577f4e487b7100000000000000000000000000000000000000000000000000000000600052603260045260246000fd5b60200260200101511015612179576040517f08c379a0000000000000000000000000000000000000000000000000000000008152600401612170906166d4565b60405180910390fd5b6122da868660008181106121b6577f4e487b7100000000000000000000000000000000000000000000000000000000600052603260045260246000fd5b90506020020160208101906121cb91906158fa565b3361229360008054906101000a900473ffffffffffffffffffffffffffffffffffffffff168a8a600081811061222a577f4e487b7100000000000000000000000000000000000000000000000000000000600052603260045260246000fd5b905060200201602081019061223f91906158fa565b8b8b6001818110612279577f4e487b7100000000000000000000000000000000000000000000000000000000600052603260045260246000fd5b905060200201602081019061228e91906158fa565b613da4565b856000815181106122cd577f4e487b7100000000000000000000000000000000000000000000000000000000600052603260045260246000fd5b6020026020010151614b26565b61232682878780806020026020016040519081016040528093929190818152602001838360200280828437600081840152601f19601f8201169050808301925050505050505030614c5f565b600160009054906101000a900473ffffffffffffffffffffffffffffffffffffffff1673ffffffffffffffffffffffffffffffffffffffff16632e1a7d4d83600185516123739190616a49565b815181106123aa577f4e487b7100000000000000000000000000000000000000000000000000000000600052603260045260246000fd5b60200260200101516040518263ffffffff1660e01b81526004016123ce91906167d4565b600060405180830381600087803b1580156123e857600080fd5b505af11580156123fc573d6000803e3d6000fd5b505050506124578483600185516124139190616a49565b8151811061244a577f4e487b7100000000000000000000000000000000000000000000000000000000600052603260045260246000fd5b6020026020010151614791565b509695505050505050565b600061246f848484614f76565b90509392505050565b606081428110156124be576040517f08c379a00000000000000000000000000000000000000000000000000000000081526004016124b5906167b4565b60405180910390fd5b61252a60008054906101000a900473ffffffffffffffffffffffffffffffffffffffff1689888880806020026020016040519081016040528093929190818152602001838360200280828437600081840152601f19601f820116905080830192505050505050506143dc565b91508682600081518110612567577f4e487b7100000000000000000000000000000000000000000000000000000000600052603260045260246000fd5b602002602001015111156125b0576040517f08c379a00000000000000000000000000000000000000000000000000000000081526004016125a790616714565b60405180910390fd5b612711868660008181106125ed577f4e487b7100000000000000000000000000000000000000000000000000000000600052603260045260246000fd5b905060200201602081019061260291906158fa565b336126ca60008054906101000a900473ffffffffffffffffffffffffffffffffffffffff168a8a6000818110612661577f4e487b7100000000000000000000000000000000000000000000000000000000600052603260045260246000fd5b905060200201602081019061267691906158fa565b8b8b60018181106126b0577f4e487b7100000000000000000000000000000000000000000000000000000000600052603260045260246000fd5b90506020020160208101906126c591906158fa565b613da4565b85600081518110612704577f4e487b7100000000000000000000000000000000000000000000000000000000600052603260045260246000fd5b6020026020010151614b26565b61275d82878780806020026020016040519081016040528093929190818152602001838360200280828437600081840152601f19601f8201169050808301925050505050505086614c5f565b509695505050505050565b606081428110156127ae576040517f08c379a00000000000000000000000000000000000000000000000000000000081526004016127a5906167b4565b60405180910390fd5b600160009054906101000a900473ffffffffffffffffffffffffffffffffffffffff1673ffffffffffffffffffffffffffffffffffffffff1686866000818110612821577f4e487b7100000000000000000000000000000000000000000000000000000000600052603260045260246000fd5b905060200201602081019061283691906158fa565b73ffffffffffffffffffffffffffffffffffffffff161461288c576040517f08c379a000000000000000000000000000000000000000000000000000000000815260040161288390616674565b60405180910390fd5b6128f860008054906101000a900473ffffffffffffffffffffffffffffffffffffffff1688888880806020026020016040519081016040528093929190818152602001838360200280828437600081840152601f19601f820116905080830192505050505050506143dc565b91503482600081518110612935577f4e487b7100000000000000000000000000000000000000000000000000000000600052603260045260246000fd5b6020026020010151111561297e576040517f08c379a000000000000000000000000000000000000000000000000000000000815260040161297590616714565b60405180910390fd5b600160009054906101000a900473ffffffffffffffffffffffffffffffffffffffff1673ffffffffffffffffffffffffffffffffffffffff1663d0e30db0836000815181106129f6577f4e487b7100000000000000000000000000000000000000000000000000000000600052603260045260246000fd5b60200260200101516040518263ffffffff1660e01b81526004016000604051808303818588803b158015612a2957600080fd5b505af1158015612a3d573d6000803e3d6000fd5b5050505050600160009054906101000a900473ffffffffffffffffffffffffffffffffffffffff1673ffffffffffffffffffffffffffffffffffffffff1663a9059cbb612b4760008054906101000a900473ffffffffffffffffffffffffffffffffffffffff1689896000818110612ade577f4e487b7100000000000000000000000000000000000000000000000000000000600052603260045260246000fd5b9050602002016020810190612af391906158fa565b8a8a6001818110612b2d577f4e487b7100000000000000000000000000000000000000000000000000000000600052603260045260246000fd5b9050602002016020810190612b4291906158fa565b613da4565b84600081518110612b81577f4e487b7100000000000000000000000000000000000000000000000000000000600052603260045260246000fd5b60200260200101516040518363ffffffff1660e01b8152600401612ba6929190616529565b602060405180830381600087803b158015612bc057600080fd5b505af1158015612bd4573d6000803e3d6000fd5b505050506040513d601f19601f82011682018060405250810190612bf89190615cf0565b612c2b577f4e487b7100000000000000000000000000000000000000000000000000000000600052600160045260246000fd5b612c7782878780806020026020016040519081016040528093929190818152602001838360200280828437600081840152601f19601f8201169050808301925050505050505086614c5f565b81600081518110612cb1577f4e487b7100000000000000000000000000000000000000000000000000000000600052603260045260246000fd5b6020026020010151341115612d1757612d163383600081518110612cfe577f4e487b7100000000000000000000000000000000000000000000000000000000600052603260045260246000fd5b602002602001015134612d119190616a49565b614791565b5b5095945050505050565b6000612d2e848484615089565b90509392505050565b60608142811015612d7d576040517f08c379a0000000000000000000000000000000000000000000000000000000008152600401612d74906167b4565b60405180910390fd5b600160009054906101000a900473ffffffffffffffffffffffffffffffffffffffff1673ffffffffffffffffffffffffffffffffffffffff1686866000818110612df0577f4e487b7100000000000000000000000000000000000000000000000000000000600052603260045260246000fd5b9050602002016020810190612e0591906158fa565b73ffffffffffffffffffffffffffffffffffffffff1614612e5b576040517f08c379a0000000000000000000000000000000000000000000000000000000008152600401612e5290616674565b60405180910390fd5b612ec760008054906101000a900473ffffffffffffffffffffffffffffffffffffffff1634888880806020026020016040519081016040528093929190818152602001838360200280828437600081840152601f19601f820116905080830192505050505050506148b7565b9150868260018451612ed99190616a49565b81518110612f10577f4e487b7100000000000000000000000000000000000000000000000000000000600052603260045260246000fd5b60200260200101511015612f59576040517f08c379a0000000000000000000000000000000000000000000000000000000008152600401612f50906166d4565b60405180910390fd5b600160009054906101000a900473ffffffffffffffffffffffffffffffffffffffff1673ffffffffffffffffffffffffffffffffffffffff1663d0e30db083600081518110612fd1577f4e487b7100000000000000000000000000000000000000000000000000000000600052603260045260246000fd5b60200260200101516040518263ffffffff1660e01b81526004016000604051808303818588803b15801561300457600080fd5b505af1158015613018573d6000803e3d6000fd5b5050505050600160009054906101000a900473ffffffffffffffffffffffffffffffffffffffff1673ffffffffffffffffffffffffffffffffffffffff1663a9059cbb61312260008054906101000a900473ffffffffffffffffffffffffffffffffffffffff16898960008181106130b9577f4e487b7100000000000000000000000000000000000000000000000000000000600052603260045260246000fd5b90506020020160208101906130ce91906158fa565b8a8a6001818110613108577f4e487b7100000000000000000000000000000000000000000000000000000000600052603260045260246000fd5b905060200201602081019061311d91906158fa565b613da4565b8460008151811061315c577f4e487b7100000000000000000000000000000000000000000000000000000000600052603260045260246000fd5b60200260200101516040518363ffffffff1660e01b8152600401613181929190616529565b602060405180830381600087803b15801561319b57600080fd5b505af11580156131af573d6000803e3d6000fd5b505050506040513d601f19601f820116820180604052508101906131d39190615cf0565b613206577f4e487b7100000000000000000000000000000000000000000000000000000000600052600160045260246000fd5b61325282878780806020026020016040519081016040528093929190818152602001838360200280828437600081840152601f19601f8201169050808301925050505050505086614c5f565b5095945050505050565b80428110156132a0576040517f08c379a0000000000000000000000000000000000000000000000000000000008152600401613297906167b4565b60405180910390fd5b600160009054906101000a900473ffffffffffffffffffffffffffffffffffffffff1673ffffffffffffffffffffffffffffffffffffffff1685856001888890506132eb9190616a49565b818110613321577f4e487b7100000000000000000000000000000000000000000000000000000000600052603260045260246000fd5b905060200201602081019061333691906158fa565b73ffffffffffffffffffffffffffffffffffffffff161461338c576040517f08c379a000000000000000000000000000000000000000000000000000000000815260040161338390616674565b60405180910390fd5b6134ac858560008181106133c9577f4e487b7100000000000000000000000000000000000000000000000000000000600052603260045260246000fd5b90506020020160208101906133de91906158fa565b336134a660008054906101000a900473ffffffffffffffffffffffffffffffffffffffff168989600081811061343d577f4e487b7100000000000000000000000000000000000000000000000000000000600052603260045260246000fd5b905060200201602081019061345291906158fa565b8a8a600181811061348c577f4e487b7100000000000000000000000000000000000000000000000000000000600052603260045260246000fd5b90506020020160208101906134a191906158fa565b613da4565b8a614b26565b6134f7858580806020026020016040519081016040528093929190818152602001838360200280828437600081840152601f19601f8201169050808301925050505050505030613e16565b6000600160009054906101000a900473ffffffffffffffffffffffffffffffffffffffff1673ffffffffffffffffffffffffffffffffffffffff166370a08231306040518263ffffffff1660e01b8152600401613554919061643f565b60206040518083038186803b15801561356c57600080fd5b505afa158015613580573d6000803e3d6000fd5b505050506040513d601f19601f820116820180604052508101906135a49190615d68565b9050868110156135e9576040517f08c379a00000000000000000000000000000000000000000000000000000000081526004016135e0906166d4565b60405180910390fd5b600160009054906101000a900473ffffffffffffffffffffffffffffffffffffffff1673ffffffffffffffffffffffffffffffffffffffff16632e1a7d4d826040518263ffffffff1660e01b815260040161364491906167d4565b600060405180830381600087803b15801561365e57600080fd5b505af1158015613672573d6000803e3d6000fd5b505050506136808482614791565b5050505050505050565b60008082428110156136d1576040517f08c379a00000000000000000000000000000000000000000000000000000000081526004016136c8906167b4565b60405180910390fd5b60006136fe60008054906101000a900473ffffffffffffffffffffffffffffffffffffffff168c8c613da4565b90508073ffffffffffffffffffffffffffffffffffffffff166323b872dd33838c6040518463ffffffff1660e01b815260040161373d93929190616483565b602060405180830381600087803b15801561375757600080fd5b505af115801561376b573d6000803e3d6000fd5b505050506040513d601f19601f8201168201806040525081019061378f9190615cf0565b506000808273ffffffffffffffffffffffffffffffffffffffff166389afcb44896040518263ffffffff1660e01b81526004016137cc919061643f565b6040805180830381600087803b1580156137e557600080fd5b505af11580156137f9573d6000803e3d6000fd5b505050506040513d601f19601f8201168201806040525081019061381d9190615e65565b91509150600061382d8e8e615143565b5090508073ffffffffffffffffffffffffffffffffffffffff168e73ffffffffffffffffffffffffffffffffffffffff161461386a57818361386d565b82825b80975081985050508a8710156138b8576040517f08c379a00000000000000000000000000000000000000000000000000000000081526004016138af90616634565b60405180910390fd5b898610156138fb576040517f08c379a00000000000000000000000000000000000000000000000000000000081526004016138f2906166b4565b60405180910390fd5b505050505097509795505050505050565b60008054906101000a900473ffffffffffffffffffffffffffffffffffffffff1681565b606061395d60008054906101000a900473ffffffffffffffffffffffffffffffffffffffff1684846148b7565b905092915050565b600080600083428110156139ae576040517f08c379a00000000000000000000000000000000000000000000000000000000081526004016139a5906167b4565b60405180910390fd5b6139de8a600160009054906101000a900473ffffffffffffffffffffffffffffffffffffffff168b348c8c615271565b80945081955050506000613a3560008054906101000a900473ffffffffffffffffffffffffffffffffffffffff168c600160009054906101000a900473ffffffffffffffffffffffffffffffffffffffff16613da4565b9050613a438b338388614b26565b600160009054906101000a900473ffffffffffffffffffffffffffffffffffffffff1673ffffffffffffffffffffffffffffffffffffffff1663d0e30db0856040518263ffffffff1660e01b81526004016000604051808303818588803b158015613aad57600080fd5b505af1158015613ac1573d6000803e3d6000fd5b5050505050600160009054906101000a900473ffffffffffffffffffffffffffffffffffffffff1673ffffffffffffffffffffffffffffffffffffffff1663a9059cbb82866040518363ffffffff1660e01b8152600401613b23929190616529565b602060405180830381600087803b158015613b3d57600080fd5b505af1158015613b51573d6000803e3d6000fd5b505050506040513d601f19601f82011682018060405250810190613b759190615cf0565b613ba8577f4e487b7100000000000000000000000000000000000000000000000000000000600052600160045260246000fd5b8073ffffffffffffffffffffffffffffffffffffffff16636a627842886040518263ffffffff1660e01b8152600401613be1919061643f565b602060405180830381600087803b158015613bfb57600080fd5b505af1158015613c0f573d6000803e3d6000fd5b505050506040513d601f19601f82011682018060405250810190613c339190615d68565b925083341115613c5357613c52338534613c4d9190616a49565b614791565b5b505096509650969350505050565b60008060008342811015613caa576040517f08c379a0000000000000000000000000000000000000000000000000000000008152600401613ca1906167b4565b60405180910390fd5b613cb88c8c8c8c8c8c615271565b80945081955050506000613ced60008054906101000a900473ffffffffffffffffffffffffffffffffffffffff168e8e613da4565b9050613cfb8d338388614b26565b613d078c338387614b26565b8073ffffffffffffffffffffffffffffffffffffffff16636a627842886040518263ffffffff1660e01b8152600401613d40919061643f565b602060405180830381600087803b158015613d5a57600080fd5b505af1158015613d6e573d6000803e3d6000fd5b505050506040513d601f19601f82011682018060405250810190613d929190615d68565b92505050985098509895505050505050565b6000806000613db38585615143565b91509150858282604051602001613dcb9291906163ba565b60405160208183030381529060405280519060200120604051602001613df29291906163fd565b6040516020818303038152906040528051906020012060001c925050509392505050565b60005b60018351613e279190616a49565b81101561427857600080848381518110613e6a577f4e487b7100000000000000000000000000000000000000000000000000000000600052603260045260246000fd5b602002602001015185600185613e809190616968565b81518110613eb7577f4e487b7100000000000000000000000000000000000000000000000000000000600052603260045260246000fd5b6020026020010151915091506000613ecf8383615143565b5090506000613eff60008054906101000a900473ffffffffffffffffffffffffffffffffffffffff168585613da4565b90506000806000808473ffffffffffffffffffffffffffffffffffffffff16630902f1ac6040518163ffffffff1660e01b815260040160606040518083038186803b158015613f4d57600080fd5b505afa158015613f61573d6000803e3d6000fd5b505050506040513d601f19601f82011682018060405250810190613f859190615d19565b506dffffffffffffffffffffffffffff1691506dffffffffffffffffffffffffffff1691506000808773ffffffffffffffffffffffffffffffffffffffff168a73ffffffffffffffffffffffffffffffffffffffff1614613fe7578284613fea565b83835b91509150614089828b73ffffffffffffffffffffffffffffffffffffffff166370a082318a6040518263ffffffff1660e01b815260040161402b919061643f565b60206040518083038186803b15801561404357600080fd5b505afa158015614057573d6000803e3d6000fd5b505050506040513d601f19601f8201168201806040525081019061407b9190615d68565b61427d90919063ffffffff16565b95506140968683836142d6565b9450505050506000808573ffffffffffffffffffffffffffffffffffffffff168873ffffffffffffffffffffffffffffffffffffffff16146140da578260006140de565b6000835b91509150600060028c516140f29190616a49565b8a106140fe578a614176565b61417560008054906101000a900473ffffffffffffffffffffffffffffffffffffffff16898e60028e6141319190616968565b81518110614168577f4e487b7100000000000000000000000000000000000000000000000000000000600052603260045260246000fd5b6020026020010151613da4565b5b90508573ffffffffffffffffffffffffffffffffffffffff1663022c0d9f848484600067ffffffffffffffff8111156141d8577f4e487b7100000000000000000000000000000000000000000000000000000000600052604160045260246000fd5b6040519080825280601f01601f19166020018201604052801561420a5781602001600182028036833780820191505090505b506040518563ffffffff1660e01b815260040161422a9493929190616818565b600060405180830381600087803b15801561424457600080fd5b505af1158015614258573d6000803e3d6000fd5b50505050505050505050505050808061427090616b94565b915050613e19565b505050565b600082828461428c9190616a49565b91508111156142d0576040517f08c379a00000000000000000000000000000000000000000000000000000000081526004016142c790616574565b60405180910390fd5b92915050565b600080841161431a576040517f08c379a000000000000000000000000000000000000000000000000000000000815260040161431190616694565b60405180910390fd5b60008311801561432a5750600082115b614369576040517f08c379a0000000000000000000000000000000000000000000000000000000008152600401614360906165b4565b60405180910390fd5b60006143806103e58661556490919063ffffffff16565b90506000614397848361556490919063ffffffff16565b905060006143c2836143b46103e88961556490919063ffffffff16565b6155d190919063ffffffff16565b905080826143d091906169be565b93505050509392505050565b6060600282511015614423576040517f08c379a000000000000000000000000000000000000000000000000000000000815260040161441a906165d4565b60405180910390fd5b815167ffffffffffffffff811115614464577f4e487b7100000000000000000000000000000000000000000000000000000000600052604160045260246000fd5b6040519080825280602002602001820160405280156144925781602001602082028036833780820191505090505b5090508281600183516144a59190616a49565b815181106144dc577f4e487b7100000000000000000000000000000000000000000000000000000000600052603260045260246000fd5b6020026020010181815250506000600183516144f89190616a49565b90505b60008111156146535760008061459e87866001866145199190616a49565b81518110614550577f4e487b7100000000000000000000000000000000000000000000000000000000600052603260045260246000fd5b6020026020010151878681518110614591577f4e487b7100000000000000000000000000000000000000000000000000000000600052603260045260246000fd5b602002602001015161562a565b915091506145ed8484815181106145de577f4e487b7100000000000000000000000000000000000000000000000000000000600052603260045260246000fd5b60200260200101518383614f76565b846001856145fb9190616a49565b81518110614632577f4e487b7100000000000000000000000000000000000000000000000000000000600052603260045260246000fd5b6020026020010181815250505050808061464b90616b39565b9150506144fb565b509392505050565b6000808473ffffffffffffffffffffffffffffffffffffffff1663a9059cbb858560405160240161468d929190616529565b6040516020818303038152906040529060e01b6020820180517bffffffffffffffffffffffffffffffffffffffffffffffffffffffff83818316178352505050506040516146db91906163e6565b6000604051808303816000865af19150503d8060008114614718576040519150601f19603f3d011682016040523d82523d6000602084013e61471d565b606091505b509150915081801561474b575060008151148061474a5750808060200190518101906147499190615cf0565b5b5b61478a576040517f08c379a000000000000000000000000000000000000000000000000000000000815260040161478190616594565b60405180910390fd5b5050505050565b60008273ffffffffffffffffffffffffffffffffffffffff1682600067ffffffffffffffff8111156147ec577f4e487b7100000000000000000000000000000000000000000000000000000000600052604160045260246000fd5b6040519080825280601f01601f19166020018201604052801561481e5781602001600182028036833780820191505090505b5060405161482c91906163e6565b60006040518083038185875af1925050503d8060008114614869576040519150601f19603f3d011682016040523d82523d6000602084013e61486e565b606091505b50509050806148b2576040517f08c379a00000000000000000000000000000000000000000000000000000000081526004016148a9906166f4565b60405180910390fd5b505050565b60606002825110156148fe576040517f08c379a00000000000000000000000000000000000000000000000000000000081526004016148f5906165d4565b60405180910390fd5b815167ffffffffffffffff81111561493f577f4e487b7100000000000000000000000000000000000000000000000000000000600052604160045260246000fd5b60405190808252806020026020018201604052801561496d5781602001602082028036833780820191505090505b50905082816000815181106149ab577f4e487b7100000000000000000000000000000000000000000000000000000000600052603260045260246000fd5b60200260200101818152505060005b600183516149c89190616a49565b811015614b1e57600080614a6987868581518110614a0f577f4e487b7100000000000000000000000000000000000000000000000000000000600052603260045260246000fd5b602002602001015187600187614a259190616968565b81518110614a5c577f4e487b7100000000000000000000000000000000000000000000000000000000600052603260045260246000fd5b602002602001015161562a565b91509150614ab8848481518110614aa9577f4e487b7100000000000000000000000000000000000000000000000000000000600052603260045260246000fd5b602002602001015183836142d6565b84600185614ac69190616968565b81518110614afd577f4e487b7100000000000000000000000000000000000000000000000000000000600052603260045260246000fd5b60200260200101818152505050508080614b1690616b94565b9150506149ba565b509392505050565b6000808573ffffffffffffffffffffffffffffffffffffffff166323b872dd868686604051602401614b5a93929190616483565b6040516020818303038152906040529060e01b6020820180517bffffffffffffffffffffffffffffffffffffffffffffffffffffffff8381831617835250505050604051614ba891906163e6565b6000604051808303816000865af19150503d8060008114614be5576040519150601f19603f3d011682016040523d82523d6000602084013e614bea565b606091505b5091509150818015614c185750600081511480614c17575080806020019051810190614c169190615cf0565b5b5b614c57576040517f08c379a0000000000000000000000000000000000000000000000000000000008152600401614c4e90616774565b60405180910390fd5b505050505050565b60005b60018351614c709190616a49565b811015614f7057600080848381518110614cb3577f4e487b7100000000000000000000000000000000000000000000000000000000600052603260045260246000fd5b602002602001015185600185614cc99190616968565b81518110614d00577f4e487b7100000000000000000000000000000000000000000000000000000000600052603260045260246000fd5b6020026020010151915091506000614d188383615143565b509050600087600186614d2b9190616968565b81518110614d62577f4e487b7100000000000000000000000000000000000000000000000000000000600052603260045260246000fd5b602002602001015190506000808373ffffffffffffffffffffffffffffffffffffffff168673ffffffffffffffffffffffffffffffffffffffff1614614daa57826000614dae565b6000835b91509150600060028a51614dc29190616a49565b8810614dce5788614e46565b614e4560008054906101000a900473ffffffffffffffffffffffffffffffffffffffff16878c60028c614e019190616968565b81518110614e38577f4e487b7100000000000000000000000000000000000000000000000000000000600052603260045260246000fd5b6020026020010151613da4565b5b9050614e7360008054906101000a900473ffffffffffffffffffffffffffffffffffffffff168888613da4565b73ffffffffffffffffffffffffffffffffffffffff1663022c0d9f848484600067ffffffffffffffff811115614ed2577f4e487b7100000000000000000000000000000000000000000000000000000000600052604160045260246000fd5b6040519080825280601f01601f191660200182016040528015614f045781602001600182028036833780820191505090505b506040518563ffffffff1660e01b8152600401614f249493929190616818565b600060405180830381600087803b158015614f3e57600080fd5b505af1158015614f52573d6000803e3d6000fd5b50505050505050505050508080614f6890616b94565b915050614c62565b50505050565b6000808411614fba576040517f08c379a0000000000000000000000000000000000000000000000000000000008152600401614fb190616654565b60405180910390fd5b600083118015614fca5750600082115b615009576040517f08c379a0000000000000000000000000000000000000000000000000000000008152600401615000906165b4565b60405180910390fd5b60006150326103e8615024878761556490919063ffffffff16565b61556490919063ffffffff16565b9050600061505d6103e561504f888761427d90919063ffffffff16565b61556490919063ffffffff16565b905061507e6001828461507091906169be565b6155d190919063ffffffff16565b925050509392505050565b60008084116150cd576040517f08c379a00000000000000000000000000000000000000000000000000000000081526004016150c490616754565b60405180910390fd5b6000831180156150dd5750600082115b61511c576040517f08c379a0000000000000000000000000000000000000000000000000000000008152600401615113906165b4565b60405180910390fd5b82615130838661556490919063ffffffff16565b61513a91906169be565b90509392505050565b6000808273ffffffffffffffffffffffffffffffffffffffff168473ffffffffffffffffffffffffffffffffffffffff1614156151b5576040517f08c379a00000000000000000000000000000000000000000000000000000000081526004016151ac90616734565b60405180910390fd5b8273ffffffffffffffffffffffffffffffffffffffff168473ffffffffffffffffffffffffffffffffffffffff16106151ef5782846151f2565b83835b8092508193505050600073ffffffffffffffffffffffffffffffffffffffff168273ffffffffffffffffffffffffffffffffffffffff16141561526a576040517f08c379a000000000000000000000000000000000000000000000000000000000815260040161526190616794565b60405180910390fd5b9250929050565b600080600073ffffffffffffffffffffffffffffffffffffffff1660008054906101000a900473ffffffffffffffffffffffffffffffffffffffff1673ffffffffffffffffffffffffffffffffffffffff1663e6a439058a8a6040518363ffffffff1660e01b81526004016152e792919061645a565b60206040518083038186803b1580156152ff57600080fd5b505afa158015615313573d6000803e3d6000fd5b505050506040513d601f19601f820116820180604052508101906153379190615923565b73ffffffffffffffffffffffffffffffffffffffff1614156154025760008054906101000a900473ffffffffffffffffffffffffffffffffffffffff1673ffffffffffffffffffffffffffffffffffffffff1663c9c6539689896040518363ffffffff1660e01b81526004016153ae92919061645a565b602060405180830381600087803b1580156153c857600080fd5b505af11580156153dc573d6000803e3d6000fd5b505050506040513d601f19601f820116820180604052508101906154009190615923565b505b60008061543060008054906101000a900473ffffffffffffffffffffffffffffffffffffffff168b8b61562a565b915091506000821480156154445750600081145b156154585787878094508195505050615557565b6000615465898484615089565b90508781116154c057858110156154b1576040517f08c379a00000000000000000000000000000000000000000000000000000000081526004016154a8906166b4565b60405180910390fd5b88818095508196505050615555565b60006154cd898486615089565b905089811115615506577f4e487b7100000000000000000000000000000000000000000000000000000000600052600160045260246000fd5b87811015615549576040517f08c379a000000000000000000000000000000000000000000000000000000000815260040161554090616634565b60405180910390fd5b80898096508197505050505b505b5050965096945050505050565b60008082148061558c57508282838561557d91906169ef565b92508261558a91906169be565b145b6155cb576040517f08c379a00000000000000000000000000000000000000000000000000000000081526004016155c2906165f4565b60405180910390fd5b92915050565b60008282846155e09190616968565b9150811015615624576040517f08c379a000000000000000000000000000000000000000000000000000000000815260040161561b90616614565b60405180910390fd5b92915050565b60008060006156398585615143565b509050615647868686613da4565b50600080615656888888613da4565b73ffffffffffffffffffffffffffffffffffffffff16630902f1ac6040518163ffffffff1660e01b815260040160606040518083038186803b15801561569b57600080fd5b505afa1580156156af573d6000803e3d6000fd5b505050506040513d601f19601f820116820180604052508101906156d39190615d19565b506dffffffffffffffffffffffffffff1691506dffffffffffffffffffffffffffff1691508273ffffffffffffffffffffffffffffffffffffffff168773ffffffffffffffffffffffffffffffffffffffff1614615732578082615735565b81815b8095508196505050505050935093915050565b600061575b615756846168c0565b61689b565b9050808382526020820190508285602086028201111561577a57600080fd5b60005b858110156157aa578161579088826157b4565b84526020840193506020830192505060018101905061577d565b5050509392505050565b6000813590506157c3816171b5565b92915050565b6000815190506157d8816171b5565b92915050565b60008083601f8401126157f057600080fd5b8235905067ffffffffffffffff81111561580957600080fd5b60208301915083602082028301111561582157600080fd5b9250929050565b600082601f83011261583957600080fd5b8135615849848260208601615748565b91505092915050565b600081359050615861816171cc565b92915050565b600081519050615876816171cc565b92915050565b60008135905061588b816171e3565b92915050565b6000815190506158a0816171fa565b92915050565b6000813590506158b581617211565b92915050565b6000815190506158ca81617211565b92915050565b6000815190506158df81617228565b92915050565b6000813590506158f48161723f565b92915050565b60006020828403121561590c57600080fd5b600061591a848285016157b4565b91505092915050565b60006020828403121561593557600080fd5b6000615943848285016157c9565b91505092915050565b600080600080600080600060e0888a03121561596757600080fd5b60006159758a828b016157b4565b97505060206159868a828b016157b4565b96505060406159978a828b016158a6565b95505060606159a88a828b016158a6565b94505060806159b98a828b016158a6565b93505060a06159ca8a828b016157b4565b92505060c06159db8a828b016158a6565b91505092959891949750929550565b60008060008060008060008060008060006101608c8e031215615a0c57600080fd5b6000615a1a8e828f016157b4565b9b50506020615a2b8e828f016157b4565b9a50506040615a3c8e828f016158a6565b9950506060615a4d8e828f016158a6565b9850506080615a5e8e828f016158a6565b97505060a0615a6f8e828f016157b4565b96505060c0615a808e828f016158a6565b95505060e0615a918e828f01615852565b945050610100615aa38e828f016158e5565b935050610120615ab58e828f0161587c565b925050610140615ac78e828f0161587c565b9150509295989b509295989b9093969950565b600080600080600080600080610100898b031215615af757600080fd5b6000615b058b828c016157b4565b9850506020615b168b828c016157b4565b9750506040615b278b828c016158a6565b9650506060615b388b828c016158a6565b9550506080615b498b828c016158a6565b94505060a0615b5a8b828c016158a6565b93505060c0615b6b8b828c016157b4565b92505060e0615b7c8b828c016158a6565b9150509295985092959890939650565b60008060008060008060c08789031215615ba557600080fd5b6000615bb389828a016157b4565b9650506020615bc489828a016158a6565b9550506040615bd589828a016158a6565b9450506060615be689828a016158a6565b9350506080615bf789828a016157b4565b92505060a0615c0889828a016158a6565b9150509295509295509295565b6000806000806000806000806000806101408b8d031215615c3557600080fd5b6000615c438d828e016157b4565b9a50506020615c548d828e016158a6565b9950506040615c658d828e016158a6565b9850506060615c768d828e016158a6565b9750506080615c878d828e016157b4565b96505060a0615c988d828e016158a6565b95505060c0615ca98d828e01615852565b94505060e0615cba8d828e016158e5565b935050610100615ccc8d828e0161587c565b925050610120615cde8d828e0161587c565b9150509295989b9194979a5092959850565b600060208284031215615d0257600080fd5b6000615d1084828501615867565b91505092915050565b600080600060608486031215615d2e57600080fd5b6000615d3c86828701615891565b9350506020615d4d86828701615891565b9250506040615d5e868287016158d0565b9150509250925092565b600060208284031215615d7a57600080fd5b6000615d88848285016158bb565b91505092915050565b600080600080600060808688031215615da957600080fd5b6000615db7888289016158a6565b955050602086013567ffffffffffffffff811115615dd457600080fd5b615de0888289016157de565b94509450506040615df3888289016157b4565b9250506060615e04888289016158a6565b9150509295509295909350565b60008060408385031215615e2457600080fd5b6000615e32858286016158a6565b925050602083013567ffffffffffffffff811115615e4f57600080fd5b615e5b85828601615828565b9150509250929050565b60008060408385031215615e7857600080fd5b6000615e86858286016158bb565b9250506020615e97858286016158bb565b9150509250929050565b60008060008060008060a08789031215615eba57600080fd5b6000615ec889828a016158a6565b9650506020615ed989828a016158a6565b955050604087013567ffffffffffffffff811115615ef657600080fd5b615f0289828a016157de565b94509450506060615f1589828a016157b4565b9250506080615f2689828a016158a6565b9150509295509295509295565b600080600060608486031215615f4857600080fd5b6000615f56868287016158a6565b9350506020615f67868287016158a6565b9250506040615f78868287016158a6565b9150509250925092565b6000615f8e838361638d565b60208301905092915050565b615fa381616a7d565b82525050565b615fba615fb582616a7d565b616bdd565b82525050565b6000615fcb826168fc565b615fd5818561691f565b9350615fe0836168ec565b8060005b83811015616011578151615ff88882615f82565b975061600383616912565b925050600181019050615fe4565b5085935050505092915050565b61602781616a9b565b82525050565b61603e61603982616a9b565b616bef565b82525050565b600061604f82616907565b6160598185616930565b9350616069818560208601616b06565b61607281616c98565b840191505092915050565b600061608882616907565b6160928185616941565b93506160a2818560208601616b06565b80840191505092915050565b60006160bb60158361694c565b91506160c682616cb6565b602082019050919050565b60006160de601f8361694c565b91506160e982616cdf565b602082019050919050565b600061610160258361694c565b915061610c82616d08565b604082019050919050565b6000616124601b8361694c565b915061612f82616d57565b602082019050919050565b600061614760148361694c565b915061615282616d80565b602082019050919050565b600061616a60148361694c565b915061617582616da9565b602082019050919050565b600061618d60238361694c565b915061619882616dd2565b604082019050919050565b60006161b060208361695d565b91506161bb82616e21565b602082019050919050565b60006161d360298361694c565b91506161de82616e4a565b604082019050919050565b60006161f660018361695d565b915061620182616e99565b600182019050919050565b6000616219601a8361694c565b915061622482616ec2565b602082019050919050565b600061623c60288361694c565b915061624782616eeb565b604082019050919050565b600061625f60238361694c565b915061626a82616f3a565b604082019050919050565b600061628260288361694c565b915061628d82616f89565b604082019050919050565b60006162a560238361694c565b91506162b082616fd8565b604082019050919050565b60006162c860248361694c565b91506162d382617027565b604082019050919050565b60006162eb60228361694c565b91506162f682617076565b604082019050919050565b600061630e60228361694c565b9150616319826170c5565b604082019050919050565b600061633160248361694c565b915061633c82617114565b604082019050919050565b6000616354601b8361694c565b915061635f82617163565b602082019050919050565b600061637760158361694c565b91506163828261718c565b602082019050919050565b61639681616adf565b82525050565b6163a581616adf565b82525050565b6163b481616af9565b82525050565b60006163c68285615fa9565b6014820191506163d68284615fa9565b6014820191508190509392505050565b60006163f2828461607d565b915081905092915050565b6000616408826161e9565b91506164148285615fa9565b601482019150616424828461602d565b602082019150616433826161a3565b91508190509392505050565b60006020820190506164546000830184615f9a565b92915050565b600060408201905061646f6000830185615f9a565b61647c6020830184615f9a565b9392505050565b60006060820190506164986000830186615f9a565b6164a56020830185615f9a565b6164b2604083018461639c565b949350505050565b600060e0820190506164cf600083018a615f9a565b6164dc6020830189615f9a565b6164e9604083018861639c565b6164f6606083018761639c565b61650360808301866163ab565b61651060a083018561601e565b61651d60c083018461601e565b98975050505050505050565b600060408201905061653e6000830185615f9a565b61654b602083018461639c565b9392505050565b6000602082019050818103600083015261656c8184615fc0565b905092915050565b6000602082019050818103600083015261658d816160ae565b9050919050565b600060208201905081810360008301526165ad816160d1565b9050919050565b600060208201905081810360008301526165cd816160f4565b9050919050565b600060208201905081810360008301526165ed81616117565b9050919050565b6000602082019050818103600083015261660d8161613a565b9050919050565b6000602082019050818103600083015261662d8161615d565b9050919050565b6000602082019050818103600083015261664d81616180565b9050919050565b6000602082019050818103600083015261666d816161c6565b9050919050565b6000602082019050818103600083015261668d8161620c565b9050919050565b600060208201905081810360008301526166ad8161622f565b9050919050565b600060208201905081810360008301526166cd81616252565b9050919050565b600060208201905081810360008301526166ed81616275565b9050919050565b6000602082019050818103600083015261670d81616298565b9050919050565b6000602082019050818103600083015261672d816162bb565b9050919050565b6000602082019050818103600083015261674d816162de565b9050919050565b6000602082019050818103600083015261676d81616301565b9050919050565b6000602082019050818103600083015261678d81616324565b9050919050565b600060208201905081810360008301526167ad81616347565b9050919050565b600060208201905081810360008301526167cd8161636a565b9050919050565b60006020820190506167e9600083018461639c565b92915050565b6000604082019050616804600083018561639c565b616811602083018461639c565b9392505050565b600060808201905061682d600083018761639c565b61683a602083018661639c565b6168476040830185615f9a565b81810360608301526168598184616044565b905095945050505050565b6000606082019050616879600083018661639c565b616886602083018561639c565b616893604083018461639c565b949350505050565b60006168a56168b6565b90506168b18282616b63565b919050565b6000604051905090565b600067ffffffffffffffff8211156168db576168da616c69565b5b602082029050602081019050919050565b6000819050602082019050919050565b600081519050919050565b600081519050919050565b6000602082019050919050565b600082825260208201905092915050565b600082825260208201905092915050565b600081905092915050565b600082825260208201905092915050565b600081905092915050565b600061697382616adf565b915061697e83616adf565b9250827fffffffffffffffffffffffffffffffffffffffffffffffffffffffffffffffff038211156169b3576169b2616c0b565b5b828201905092915050565b60006169c982616adf565b91506169d483616adf565b9250826169e4576169e3616c3a565b5b828204905092915050565b60006169fa82616adf565b9150616a0583616adf565b9250817fffffffffffffffffffffffffffffffffffffffffffffffffffffffffffffffff0483118215151615616a3e57616a3d616c0b565b5b828202905092915050565b6000616a5482616adf565b9150616a5f83616adf565b925082821015616a7257616a71616c0b565b5b828203905092915050565b6000616a8882616abf565b9050919050565b60008115159050919050565b6000819050919050565b60006dffffffffffffffffffffffffffff82169050919050565b600073ffffffffffffffffffffffffffffffffffffffff82169050919050565b6000819050919050565b600063ffffffff82169050919050565b600060ff82169050919050565b60005b83811015616b24578082015181840152602081019050616b09565b83811115616b33576000848401525b50505050565b6000616b4482616adf565b91506000821415616b5857616b57616c0b565b5b600182039050919050565b616b6c82616c98565b810181811067ffffffffffffffff82111715616b8b57616b8a616c69565b5b80604052505050565b6000616b9f82616adf565b91507fffffffffffffffffffffffffffffffffffffffffffffffffffffffffffffffff821415616bd257616bd1616c0b565b5b600182019050919050565b6000616be882616bf9565b9050919050565b6000819050919050565b6000616c0482616ca9565b9050919050565b7f4e487b7100000000000000000000000000000000000000000000000000000000600052601160045260246000fd5b7f4e487b7100000000000000000000000000000000000000000000000000000000600052601260045260246000fd5b7f4e487b7100000000000000000000000000000000000000000000000000000000600052604160045260246000fd5b6000601f19601f8301169050919050565b60008160601b9050919050565b7f64732d6d6174682d7375622d756e646572666c6f770000000000000000000000600082015250565b7f5472616e7366657248656c7065723a205452414e534645525f4641494c454400600082015250565b7f4b61694465784c6962726172793a20494e53554646494349454e545f4c49515560008201527f4944495459000000000000000000000000000000000000000000000000000000602082015250565b7f4b61694465784c6962726172793a20494e56414c49445f504154480000000000600082015250565b7f64732d6d6174682d6d756c2d6f766572666c6f77000000000000000000000000600082015250565b7f64732d6d6174682d6164642d6f766572666c6f77000000000000000000000000600082015250565b7f4b6169446578526f757465723a20494e53554646494349454e545f415f414d4f60008201527f554e540000000000000000000000000000000000000000000000000000000000602082015250565b7fe211f96cb3bd031b6a72fd2d205e0a0427ac351e9ad2a8cb32549bf1bfd84980600082015250565b7f4b61694465784c6962726172793a20494e53554646494349454e545f4f55545060008201527f55545f414d4f554e540000000000000000000000000000000000000000000000602082015250565b7fff00000000000000000000000000000000000000000000000000000000000000600082015250565b7f4b6169446578526f757465723a20494e56414c49445f50415448000000000000600082015250565b7f4b61694465784c6962726172793a20494e53554646494349454e545f494e505560008201527f545f414d4f554e54000000000000000000000000000000000000000000000000602082015250565b7f4b6169446578526f757465723a20494e53554646494349454e545f425f414d4f60008201527f554e540000000000000000000000000000000000000000000000000000000000602082015250565b7f4b6169446578526f757465723a20494e53554646494349454e545f4f5554505560008201527f545f414d4f554e54000000000000000000000000000000000000000000000000602082015250565b7f5472616e7366657248656c7065723a204b41495f5452414e534645525f46414960008201527f4c45440000000000000000000000000000000000000000000000000000000000602082015250565b7f4b6169446578526f757465723a204558434553534956455f494e5055545f414d60008201527f4f554e5400000000000000000000000000000000000000000000000000000000602082015250565b7f4b61694465784c6962726172793a204944454e544943414c5f4144445245535360008201527f4553000000000000000000000000000000000000000000000000000000000000602082015250565b7f4b61694465784c6962726172793a20494e53554646494349454e545f414d4f5560008201527f4e54000000000000000000000000000000000000000000000000000000000000602082015250565b7f5472616e7366657248656c7065723a205452414e534645525f46524f4d5f464160008201527f494c454400000000000000000000000000000000000000000000000000000000602082015250565b7f4b61694465784c6962726172793a205a45524f5f414444524553530000000000600082015250565b7f4b6169446578526f757465723a20455850495245440000000000000000000000600082015250565b6171be81616a7d565b81146171c957600080fd5b50565b6171d581616a8f565b81146171e057600080fd5b50565b6171ec81616a9b565b81146171f757600080fd5b50565b61720381616aa5565b811461720e57600080fd5b50565b61721a81616adf565b811461722557600080fd5b50565b61723181616ae9565b811461723c57600080fd5b50565b61724881616af9565b811461725357600080fd5b5056fea26469706673582212200c75fa5e940ab429f990c9ca14d77876577c44f0d62387b601684a4553ffd70564736f6c63430008040033",
  "linkReferences": {},
  "deployedLinkReferences": {}
}