{
  "_format": "hh-sol-artifact-1",
  "contractName": "AnyswapAdapter",
  "sourceName": "contracts/crosschain-swap/bridge/AnyswapAdapter.sol",
  "abi": [
    {
      "inputs": [
        {
          "internalType": "address",
          "name": "_mainContract",
          "type": "address"
        },
        {
          "internalType": "address[]",
          "name": "_anyswapRouters",
          "type": "address[]"
        }
      ],
      "stateMutability": "nonpayable",
      "type": "constructor"
    },
    {
      "anonymous": false,
      "inputs": [
        {
          "indexed": false,
          "internalType": "address",
          "name": "mainContract",
          "type": "address"
        }
      ],
      "name": "MainContractUpdated",
      "type": "event"
    },
    {
      "anonymous": false,
      "inputs": [
        {
          "indexed": true,
          "internalType": "address",
          "name": "previousOwner",
          "type": "address"
        },
        {
          "indexed": true,
          "internalType": "address",
          "name": "newOwner",
          "type": "address"
        }
      ],
      "name": "OwnershipTransferred",
      "type": "event"
    },
    {
      "anonymous": false,
      "inputs": [
        {
          "indexed": false,
          "internalType": "address",
          "name": "router",
          "type": "address"
        },
        {
          "indexed": false,
          "internalType": "bool",
          "name": "enabled",
          "type": "bool"
        }
      ],
      "name": "SupportedRouterUpdated",
      "type": "event"
    },
    {
      "inputs": [
        {
          "internalType": "uint64",
          "name": "_dstChainId",
          "type": "uint64"
        },
        {
          "internalType": "address",
          "name": "_receiver",
          "type": "address"
        },
        {
          "internalType": "uint256",
          "name": "_amount",
          "type": "uint256"
        },
        {
          "internalType": "address",
          "name": "_token",
          "type": "address"
        },
        {
          "internalType": "bytes",
          "name": "_bridgeParams",
          "type": "bytes"
        },
        {
          "internalType": "bytes",
          "name": "",
          "type": "bytes"
        }
      ],
      "name": "bridge",
      "outputs": [
        {
          "internalType": "bytes",
          "name": "bridgeResp",
          "type": "bytes"
        }
      ],
      "stateMutability": "payable",
      "type": "function"
    },
    {
      "inputs": [],
      "name": "mainContract",
      "outputs": [
        {
          "internalType": "address",
          "name": "",
          "type": "address"
        }
      ],
      "stateMutability": "view",
      "type": "function"
    },
    {
      "inputs": [],
      "name": "owner",
      "outputs": [
        {
          "internalType": "address",
          "name": "",
          "type": "address"
        }
      ],
      "stateMutability": "view",
      "type": "function"
    },
    {
      "inputs": [],
      "name": "renounceOwnership",
      "outputs": [],
      "stateMutability": "nonpayable",
      "type": "function"
    },
    {
      "inputs": [
        {
          "internalType": "address",
          "name": "_router",
          "type": "address"
        },
        {
          "internalType": "bool",
          "name": "_enabled",
          "type": "bool"
        }
      ],
      "name": "setSupportedRouter",
      "outputs": [],
      "stateMutability": "nonpayable",
      "type": "function"
    },
    {
      "inputs": [
        {
          "internalType": "address",
          "name": "",
          "type": "address"
        }
      ],
      "name": "supportedRouters",
      "outputs": [
        {
          "internalType": "bool",
          "name": "",
          "type": "bool"
        }
      ],
      "stateMutability": "view",
      "type": "function"
    },
    {
      "inputs": [
        {
          "internalType": "address",
          "name": "newOwner",
          "type": "address"
        }
      ],
      "name": "transferOwnership",
      "outputs": [],
      "stateMutability": "nonpayable",
      "type": "function"
    },
    {
      "inputs": [
        {
          "internalType": "bytes32",
          "name": "",
          "type": "bytes32"
        }
      ],
      "name": "transfers",
      "outputs": [
        {
          "internalType": "bool",
          "name": "",
          "type": "bool"
        }
      ],
      "stateMutability": "view",
      "type": "function"
    },
    {
      "inputs": [
        {
          "internalType": "address",
          "name": "_mainContract",
          "type": "address"
        }
      ],
      "name": "updateMainContract",
      "outputs": [],
      "stateMutability": "nonpayable",
      "type": "function"
    }
  ],
  "bytecode": "0x60806040523480156200001157600080fd5b5060405162000e1c38038062000e1c8339810160408190526200003491620001c1565b6200003f3362000154565b600180546001600160a01b0319166001600160a01b03841617905560005b81518110156200014b5760006001600160a01b03168282815181106200009357634e487b7160e01b600052603260045260246000fd5b60200260200101516001600160a01b03161415620000dd5760405162461bcd60e51b815260206004820152600360248201526206e6f760ec1b604482015260640160405180910390fd5b6001600260008484815181106200010457634e487b7160e01b600052603260045260246000fd5b6020908102919091018101516001600160a01b03168252810191909152604001600020805460ff1916911515919091179055806200014281620002ac565b9150506200005d565b505050620002ea565b600080546001600160a01b038381166001600160a01b0319831681178455604051919092169283917f8be0079c531659141344cd1fd0a4f28419497f9722a3daafe3b4186f6b6457e09190a35050565b80516001600160a01b0381168114620001bc57600080fd5b919050565b60008060408385031215620001d4578182fd5b620001df83620001a4565b602084810151919350906001600160401b0380821115620001fe578384fd5b818601915086601f83011262000212578384fd5b815181811115620002275762000227620002d4565b8060051b604051601f19603f830116810181811085821117156200024f576200024f620002d4565b604052828152858101935084860182860187018b10156200026e578788fd5b8795505b838610156200029b576200028681620001a4565b85526001959095019493860193860162000272565b508096505050505050509250929050565b6000600019821415620002cd57634e487b7160e01b81526011600452602481fd5b5060010190565b634e487b7160e01b600052604160045260246000fd5b610b2280620002fa6000396000f3fe6080604052600436106100865760003560e01c80639879c48d116100595780639879c48d14610139578063d270e7ab14610169578063df8bbc5914610189578063f2fde38b146101a9578063f8e9c5c0146101c957600080fd5b80633c64f04b1461008b578063715018a6146100d0578063834bc3ea146100e75780638da5cb5b14610107575b600080fd5b34801561009757600080fd5b506100bb6100a63660046108eb565b60036020526000908152604090205460ff1681565b60405190151581526020015b60405180910390f35b3480156100dc57600080fd5b506100e56101e9565b005b6100fa6100f5366004610974565b610228565b6040516100c79190610a15565b34801561011357600080fd5b506000546001600160a01b03165b6040516001600160a01b0390911681526020016100c7565b34801561014557600080fd5b506100bb610154366004610874565b60026020526000908152604090205460ff1681565b34801561017557600080fd5b50600154610121906001600160a01b031681565b34801561019557600080fd5b506100e56101a4366004610874565b6105a0565b3480156101b557600080fd5b506100e56101c4366004610874565b61061e565b3480156101d557600080fd5b506100e56101e4366004610897565b6106b9565b6000546001600160a01b0316331461021c5760405162461bcd60e51b815260040161021390610a68565b60405180910390fd5b610226600061079d565b565b6001546060906001600160a01b031633146102855760405162461bcd60e51b815260206004820152601b60248201527f63616c6c6572206973206e6f74206d61696e20636f6e747261637400000000006044820152606401610213565b60008380602001905181019061029b9190610903565b6040808201516001600160a01b031660009081526002602052205490915060ff166102f95760405162461bcd60e51b815260206004820152600e60248201526d34b63632b3b0b6103937baba32b960911b6044820152606401610213565b80516040516bffffffffffffffffffffffff1960608a811b8216602084015288901b166034820152604881018890526001600160c01b031960c08b811b8216606884015292831b811660708301524690921b909116607882015260009060800160408051601f1981840301815291815281516020928301206000818152600390935291205490915060ff16156103c35760405162461bcd60e51b815260206004820152600f60248201526e7472616e736665722065786973747360881b6044820152606401610213565b60008181526003602052604090819020805460ff19166001179055516323b872dd60e01b8152336004820152306024820152604481018890526001600160a01b038716906323b872dd90606401602060405180830381600087803b15801561042a57600080fd5b505af115801561043e573d6000803e3d6000fd5b505050506040513d601f19601f8201168201806040525081019061046291906108cf565b50604082810151905163095ea7b360e01b81526001600160a01b039182166004820152602481018990529087169063095ea7b390604401602060405180830381600087803b1580156104b357600080fd5b505af11580156104c7573d6000803e3d6000fd5b505050506040513d601f19601f820116820180604052508101906104eb91906108cf565b50604080830151602084015191516376defaf160e11b81526001600160a01b0392831660048201528a83166024820152604481018a905267ffffffffffffffff8c16606482015291169063edbdf5e290608401600060405180830381600087803b15801561055857600080fd5b505af115801561056c573d6000803e3d6000fd5b505050508060405160200161058391815260200190565b604051602081830303815290604052925050509695505050505050565b6000546001600160a01b031633146105ca5760405162461bcd60e51b815260040161021390610a68565b600180546001600160a01b0319166001600160a01b0383169081179091556040519081527f50d0cbf2750e0276715bec254c588e057e0b05e87927eab7ebbad47fe1e88b4b9060200160405180910390a150565b6000546001600160a01b031633146106485760405162461bcd60e51b815260040161021390610a68565b6001600160a01b0381166106ad5760405162461bcd60e51b815260206004820152602660248201527f4f776e61626c653a206e6577206f776e657220697320746865207a65726f206160448201526564647265737360d01b6064820152608401610213565b6106b68161079d565b50565b6000546001600160a01b031633146106e35760405162461bcd60e51b815260040161021390610a68565b6001600160a01b03821660009081526002602052604090205460ff1680151582151514156107395760405162461bcd60e51b815260206004820152600360248201526206e6f760ec1b6044820152606401610213565b6001600160a01b038316600081815260026020908152604091829020805460ff19168615159081179091558251938452908301527f19df4f9d38a9b103263e051a2824d8cd9cd6dc4205d136abbd3932a9eeede061910160405180910390a1505050565b600080546001600160a01b038381166001600160a01b0319831681178455604051919092169283917f8be0079c531659141344cd1fd0a4f28419497f9722a3daafe3b4186f6b6457e09190a35050565b600082601f8301126107fd578081fd5b813567ffffffffffffffff8082111561081857610818610a9d565b604051601f8301601f19908116603f0116810190828211818310171561084057610840610a9d565b81604052838152866020858801011115610858578485fd5b8360208701602083013792830160200193909352509392505050565b600060208284031215610885578081fd5b813561089081610ab3565b9392505050565b600080604083850312156108a9578081fd5b82356108b481610ab3565b915060208301356108c481610ac8565b809150509250929050565b6000602082840312156108e0578081fd5b815161089081610ac8565b6000602082840312156108fc578081fd5b5035919050565b600060608284031215610914578081fd5b6040516060810181811067ffffffffffffffff8211171561093757610937610a9d565b604052825161094581610ad6565b8152602083015161095581610ab3565b6020820152604083015161096881610ab3565b60408201529392505050565b60008060008060008060c0878903121561098c578182fd5b863561099781610ad6565b955060208701356109a781610ab3565b94506040870135935060608701356109be81610ab3565b9250608087013567ffffffffffffffff808211156109da578384fd5b6109e68a838b016107ed565b935060a08901359150808211156109fb578283fd5b50610a0889828a016107ed565b9150509295509295509295565b6000602080835283518082850152825b81811015610a4157858101830151858201604001528201610a25565b81811115610a525783604083870101525b50601f01601f1916929092016040019392505050565b6020808252818101527f4f776e61626c653a2063616c6c6572206973206e6f7420746865206f776e6572604082015260600190565b634e487b7160e01b600052604160045260246000fd5b6001600160a01b03811681146106b657600080fd5b80151581146106b657600080fd5b67ffffffffffffffff811681146106b657600080fdfea264697066735822122017b7c78432b82fe23e03a66602e925503a73ec994913c67a247f10c3f8928e4864736f6c63430008040033",
  "linkReferences": {},
  "deployedLinkReferences": {}
}