{
  "_format": "hh-sol-artifact-1",
  "contractName": "AnyswapAdapter",
  "sourceName": "contracts/crosschain-swap/bridge/AnyswapAdapter.sol",
  "abi": [
    {
      "inputs": [
        {
          "internalType": "address",
          "name": "_mainContract",
          "type": "address"
        },
        {
          "internalType": "address[]",
          "name": "_anyswapRouters",
          "type": "address[]"
        }
      ],
      "stateMutability": "nonpayable",
      "type": "constructor"
    },
    {
      "anonymous": false,
      "inputs": [
        {
          "indexed": false,
          "internalType": "address",
          "name": "mainContract",
          "type": "address"
        }
      ],
      "name": "MainContractUpdated",
      "type": "event"
    },
    {
      "anonymous": false,
      "inputs": [
        {
          "indexed": true,
          "internalType": "address",
          "name": "previousOwner",
          "type": "address"
        },
        {
          "indexed": true,
          "internalType": "address",
          "name": "newOwner",
          "type": "address"
        }
      ],
      "name": "OwnershipTransferred",
      "type": "event"
    },
    {
      "anonymous": false,
      "inputs": [
        {
          "indexed": false,
          "internalType": "address",
          "name": "router",
          "type": "address"
        },
        {
          "indexed": false,
          "internalType": "bool",
          "name": "enabled",
          "type": "bool"
        }
      ],
      "name": "SupportedRouterUpdated",
      "type": "event"
    },
    {
      "inputs": [
        {
          "internalType": "uint64",
          "name": "_dstChainId",
          "type": "uint64"
        },
        {
          "internalType": "address",
          "name": "_receiver",
          "type": "address"
        },
        {
          "internalType": "uint256",
          "name": "_amount",
          "type": "uint256"
        },
        {
          "internalType": "address",
          "name": "_token",
          "type": "address"
        },
        {
          "internalType": "bytes",
          "name": "_bridgeParams",
          "type": "bytes"
        },
        {
          "internalType": "bytes",
          "name": "",
          "type": "bytes"
        }
      ],
      "name": "bridge",
      "outputs": [
        {
          "internalType": "bytes",
          "name": "bridgeResp",
          "type": "bytes"
        }
      ],
      "stateMutability": "payable",
      "type": "function"
    },
    {
      "inputs": [],
      "name": "mainContract",
      "outputs": [
        {
          "internalType": "address",
          "name": "",
          "type": "address"
        }
      ],
      "stateMutability": "view",
      "type": "function"
    },
    {
      "inputs": [],
      "name": "owner",
      "outputs": [
        {
          "internalType": "address",
          "name": "",
          "type": "address"
        }
      ],
      "stateMutability": "view",
      "type": "function"
    },
    {
      "inputs": [],
      "name": "renounceOwnership",
      "outputs": [],
      "stateMutability": "nonpayable",
      "type": "function"
    },
    {
      "inputs": [
        {
          "internalType": "address",
          "name": "_router",
          "type": "address"
        },
        {
          "internalType": "bool",
          "name": "_enabled",
          "type": "bool"
        }
      ],
      "name": "setSupportedRouter",
      "outputs": [],
      "stateMutability": "nonpayable",
      "type": "function"
    },
    {
      "inputs": [
        {
          "internalType": "address",
          "name": "",
          "type": "address"
        }
      ],
      "name": "supportedRouters",
      "outputs": [
        {
          "internalType": "bool",
          "name": "",
          "type": "bool"
        }
      ],
      "stateMutability": "view",
      "type": "function"
    },
    {
      "inputs": [
        {
          "internalType": "address",
          "name": "newOwner",
          "type": "address"
        }
      ],
      "name": "transferOwnership",
      "outputs": [],
      "stateMutability": "nonpayable",
      "type": "function"
    },
    {
      "inputs": [
        {
          "internalType": "bytes32",
          "name": "",
          "type": "bytes32"
        }
      ],
      "name": "transfers",
      "outputs": [
        {
          "internalType": "bool",
          "name": "",
          "type": "bool"
        }
      ],
      "stateMutability": "view",
      "type": "function"
    },
    {
      "inputs": [
        {
          "internalType": "address",
          "name": "_mainContract",
          "type": "address"
        }
      ],
      "name": "updateMainContract",
      "outputs": [],
      "stateMutability": "nonpayable",
      "type": "function"
    }
  ],
  "bytecode": "0x60806040523480156200001157600080fd5b50604051620012b7380380620012b78339810160408190526200003491620001c1565b6200003f3362000154565b600180546001600160a01b0319166001600160a01b03841617905560005b81518110156200014b5760006001600160a01b03168282815181106200009357634e487b7160e01b600052603260045260246000fd5b60200260200101516001600160a01b03161415620000dd5760405162461bcd60e51b815260206004820152600360248201526206e6f760ec1b604482015260640160405180910390fd5b6001600260008484815181106200010457634e487b7160e01b600052603260045260246000fd5b6020908102919091018101516001600160a01b03168252810191909152604001600020805460ff1916911515919091179055806200014281620002ac565b9150506200005d565b505050620002ea565b600080546001600160a01b038381166001600160a01b0319831681178455604051919092169283917f8be0079c531659141344cd1fd0a4f28419497f9722a3daafe3b4186f6b6457e09190a35050565b80516001600160a01b0381168114620001bc57600080fd5b919050565b60008060408385031215620001d4578182fd5b620001df83620001a4565b602084810151919350906001600160401b0380821115620001fe578384fd5b818601915086601f83011262000212578384fd5b815181811115620002275762000227620002d4565b8060051b604051601f19603f830116810181811085821117156200024f576200024f620002d4565b604052828152858101935084860182860187018b10156200026e578788fd5b8795505b838610156200029b576200028681620001a4565b85526001959095019493860193860162000272565b508096505050505050509250929050565b6000600019821415620002cd57634e487b7160e01b81526011600452602481fd5b5060010190565b634e487b7160e01b600052604160045260246000fd5b610fbd80620002fa6000396000f3fe6080604052600436106100865760003560e01c80639879c48d116100595780639879c48d14610139578063d270e7ab14610169578063df8bbc5914610189578063f2fde38b146101a9578063f8e9c5c0146101c957600080fd5b80633c64f04b1461008b578063715018a6146100d0578063834bc3ea146100e75780638da5cb5b14610107575b600080fd5b34801561009757600080fd5b506100bb6100a6366004610d3a565b60036020526000908152604090205460ff1681565b60405190151581526020015b60405180910390f35b3480156100dc57600080fd5b506100e56101e9565b005b6100fa6100f5366004610ddb565b610228565b6040516100c79190610ec4565b34801561011357600080fd5b506000546001600160a01b03165b6040516001600160a01b0390911681526020016100c7565b34801561014557600080fd5b506100bb610154366004610cae565b60026020526000908152604090205460ff1681565b34801561017557600080fd5b50600154610121906001600160a01b031681565b34801561019557600080fd5b506100e56101a4366004610cae565b6105eb565b3480156101b557600080fd5b506100e56101c4366004610cae565b610669565b3480156101d557600080fd5b506100e56101e4366004610ce6565b610704565b6000546001600160a01b0316331461021c5760405162461bcd60e51b815260040161021390610ed7565b60405180910390fd5b61022660006107e8565b565b6001546060906001600160a01b031633146102855760405162461bcd60e51b815260206004820152601b60248201527f63616c6c6572206973206e6f74206d61696e20636f6e747261637400000000006044820152606401610213565b60008380602001905181019061029b9190610d52565b6040808201516001600160a01b031660009081526002602052205490915060ff166102f95760405162461bcd60e51b815260206004820152600e60248201526d34b63632b3b0b6103937baba32b960911b6044820152606401610213565b80516040516bffffffffffffffffffffffff1960608a811b8216602084015288901b166034820152604881018890526001600160c01b031960c08b811b8216606884015292831b811660708301524690921b909116607882015260009060800160408051601f1981840301815291815281516020928301206000818152600390935291205490915060ff16156103c35760405162461bcd60e51b815260206004820152600f60248201526e7472616e736665722065786973747360881b6044820152606401610213565b6000818152600360205260409020805460ff191660011790556103f16001600160a01b03871633308a610838565b604082015161040b906001600160a01b03881690896108a9565b60006001600160a01b031682602001516001600160a01b0316636f307dc36040518163ffffffff1660e01b815260040160206040518083038186803b15801561045357600080fd5b505afa158015610467573d6000803e3d6000fd5b505050506040513d601f19601f8201168201806040525081019061048b9190610cca565b6001600160a01b03161461052257604080830151602084015191516376defaf160e11b81526001600160a01b0392831660048201528a83166024820152604481018a905267ffffffffffffffff8c16606482015291169063edbdf5e290608401600060405180830381600087803b15801561050557600080fd5b505af1158015610519573d6000803e3d6000fd5b505050506105a7565b6040808301516020840151915163241dc2df60e01b81526001600160a01b0392831660048201528a83166024820152604481018a905267ffffffffffffffff8c16606482015291169063241dc2df90608401600060405180830381600087803b15801561058e57600080fd5b505af11580156105a2573d6000803e3d6000fd5b505050505b60408201516105c2906001600160a01b0388169060006108a9565b604080516020810183905201604051602081830303815290604052925050509695505050505050565b6000546001600160a01b031633146106155760405162461bcd60e51b815260040161021390610ed7565b600180546001600160a01b0319166001600160a01b0383169081179091556040519081527f50d0cbf2750e0276715bec254c588e057e0b05e87927eab7ebbad47fe1e88b4b9060200160405180910390a150565b6000546001600160a01b031633146106935760405162461bcd60e51b815260040161021390610ed7565b6001600160a01b0381166106f85760405162461bcd60e51b815260206004820152602660248201527f4f776e61626c653a206e6577206f776e657220697320746865207a65726f206160448201526564647265737360d01b6064820152608401610213565b610701816107e8565b50565b6000546001600160a01b0316331461072e5760405162461bcd60e51b815260040161021390610ed7565b6001600160a01b03821660009081526002602052604090205460ff1680151582151514156107845760405162461bcd60e51b815260206004820152600360248201526206e6f760ec1b6044820152606401610213565b6001600160a01b038316600081815260026020908152604091829020805460ff19168615159081179091558251938452908301527f19df4f9d38a9b103263e051a2824d8cd9cd6dc4205d136abbd3932a9eeede061910160405180910390a1505050565b600080546001600160a01b038381166001600160a01b0319831681178455604051919092169283917f8be0079c531659141344cd1fd0a4f28419497f9722a3daafe3b4186f6b6457e09190a35050565b6040516001600160a01b03808516602483015283166044820152606481018290526108a39085906323b872dd60e01b906084015b60408051601f198184030181529190526020810180516001600160e01b03166001600160e01b0319909316929092179091526109d2565b50505050565b8015806109325750604051636eb1769f60e11b81523060048201526001600160a01b03838116602483015284169063dd62ed3e9060440160206040518083038186803b1580156108f857600080fd5b505afa15801561090c573d6000803e3d6000fd5b505050506040513d601f19601f820116820180604052508101906109309190610dc3565b155b61099d5760405162461bcd60e51b815260206004820152603660248201527f5361666545524332303a20617070726f76652066726f6d206e6f6e2d7a65726f60448201527520746f206e6f6e2d7a65726f20616c6c6f77616e636560501b6064820152608401610213565b6040516001600160a01b0383166024820152604481018290526109cd90849063095ea7b360e01b9060640161086c565b505050565b6000610a27826040518060400160405280602081526020017f5361666545524332303a206c6f772d6c6576656c2063616c6c206661696c6564815250856001600160a01b0316610aa49092919063ffffffff16565b8051909150156109cd5780806020019051810190610a459190610d1e565b6109cd5760405162461bcd60e51b815260206004820152602a60248201527f5361666545524332303a204552433230206f7065726174696f6e20646964206e6044820152691bdd081cdd58d8d9595960b21b6064820152608401610213565b6060610ab38484600085610abd565b90505b9392505050565b606082471015610b1e5760405162461bcd60e51b815260206004820152602660248201527f416464726573733a20696e73756666696369656e742062616c616e636520666f6044820152651c8818d85b1b60d21b6064820152608401610213565b6001600160a01b0385163b610b755760405162461bcd60e51b815260206004820152601d60248201527f416464726573733a2063616c6c20746f206e6f6e2d636f6e74726163740000006044820152606401610213565b600080866001600160a01b03168587604051610b919190610ea8565b60006040518083038185875af1925050503d8060008114610bce576040519150601f19603f3d011682016040523d82523d6000602084013e610bd3565b606091505b5091509150610be3828286610bee565b979650505050505050565b60608315610bfd575081610ab6565b825115610c0d5782518084602001fd5b8160405162461bcd60e51b81526004016102139190610ec4565b600082601f830112610c37578081fd5b813567ffffffffffffffff80821115610c5257610c52610f38565b604051601f8301601f19908116603f01168101908282118183101715610c7a57610c7a610f38565b81604052838152866020858801011115610c92578485fd5b8360208701602083013792830160200193909352509392505050565b600060208284031215610cbf578081fd5b8135610ab681610f4e565b600060208284031215610cdb578081fd5b8151610ab681610f4e565b60008060408385031215610cf8578081fd5b8235610d0381610f4e565b91506020830135610d1381610f63565b809150509250929050565b600060208284031215610d2f578081fd5b8151610ab681610f63565b600060208284031215610d4b578081fd5b5035919050565b600060608284031215610d63578081fd5b6040516060810181811067ffffffffffffffff82111715610d8657610d86610f38565b6040528251610d9481610f71565b81526020830151610da481610f4e565b60208201526040830151610db781610f4e565b60408201529392505050565b600060208284031215610dd4578081fd5b5051919050565b60008060008060008060c08789031215610df3578182fd5b8635610dfe81610f71565b95506020870135610e0e81610f4e565b9450604087013593506060870135610e2581610f4e565b9250608087013567ffffffffffffffff80821115610e41578384fd5b610e4d8a838b01610c27565b935060a0890135915080821115610e62578283fd5b50610e6f89828a01610c27565b9150509295509295509295565b60008151808452610e94816020860160208601610f0c565b601f01601f19169290920160200192915050565b60008251610eba818460208701610f0c565b9190910192915050565b602081526000610ab66020830184610e7c565b6020808252818101527f4f776e61626c653a2063616c6c6572206973206e6f7420746865206f776e6572604082015260600190565b60005b83811015610f27578181015183820152602001610f0f565b838111156108a35750506000910152565b634e487b7160e01b600052604160045260246000fd5b6001600160a01b038116811461070157600080fd5b801515811461070157600080fd5b67ffffffffffffffff8116811461070157600080fdfea26469706673582212201761d69de591cee54637906c55489a3211ba4ce3cfdd206e1a465136eb6ef54f64736f6c63430008040033",
  "linkReferences": {},
  "deployedLinkReferences": {}
}