{
  "_format": "hh-sol-artifact-1",
  "contractName": "ERC721NFTCollectionManager",
  "sourceName": "contracts/nft-marketplace/erc721-marketplace/ERC721NFTCollectionManager.sol",
  "abi": [
    {
      "inputs": [
        {
          "internalType": "address",
          "name": "_recipient",
          "type": "address"
        },
        {
          "internalType": "uint256",
          "name": "_feePercent",
          "type": "uint256"
        }
      ],
      "stateMutability": "nonpayable",
      "type": "constructor"
    },
    {
      "anonymous": false,
      "inputs": [
        {
          "indexed": true,
          "internalType": "address",
          "name": "collection",
          "type": "address"
        }
      ],
      "name": "CloseCollection",
      "type": "event"
    },
    {
      "anonymous": false,
      "inputs": [
        {
          "indexed": true,
          "internalType": "address",
          "name": "collection",
          "type": "address"
        },
        {
          "indexed": false,
          "internalType": "uint256",
          "name": "creatorFee",
          "type": "uint256"
        },
        {
          "indexed": false,
          "internalType": "address",
          "name": "creator",
          "type": "address"
        }
      ],
      "name": "ModifyCollection",
      "type": "event"
    },
    {
      "anonymous": false,
      "inputs": [
        {
          "indexed": true,
          "internalType": "address",
          "name": "collection",
          "type": "address"
        },
        {
          "indexed": false,
          "internalType": "uint256",
          "name": "creatorFee",
          "type": "uint256"
        },
        {
          "indexed": false,
          "internalType": "address",
          "name": "creator",
          "type": "address"
        }
      ],
      "name": "NewCollection",
      "type": "event"
    },
    {
      "anonymous": false,
      "inputs": [
        {
          "indexed": true,
          "internalType": "address",
          "name": "previousOwner",
          "type": "address"
        },
        {
          "indexed": true,
          "internalType": "address",
          "name": "newOwner",
          "type": "address"
        }
      ],
      "name": "OwnershipTransferred",
      "type": "event"
    },
    {
      "inputs": [],
      "name": "MAX_FEE",
      "outputs": [
        {
          "internalType": "uint256",
          "name": "",
          "type": "uint256"
        }
      ],
      "stateMutability": "view",
      "type": "function"
    },
    {
      "inputs": [
        {
          "internalType": "address",
          "name": "_collection",
          "type": "address"
        }
      ],
      "name": "closeCollection",
      "outputs": [],
      "stateMutability": "nonpayable",
      "type": "function"
    },
    {
      "inputs": [
        {
          "internalType": "address",
          "name": "",
          "type": "address"
        }
      ],
      "name": "collections",
      "outputs": [
        {
          "internalType": "enum ERC721NFTCollectionManager.CollectionStatus",
          "name": "status",
          "type": "uint8"
        },
        {
          "internalType": "uint256",
          "name": "creatorFee",
          "type": "uint256"
        },
        {
          "internalType": "address",
          "name": "creator",
          "type": "address"
        }
      ],
      "stateMutability": "view",
      "type": "function"
    },
    {
      "inputs": [
        {
          "internalType": "address",
          "name": "_collection",
          "type": "address"
        },
        {
          "internalType": "address",
          "name": "_creator",
          "type": "address"
        },
        {
          "internalType": "uint256",
          "name": "_creatorFee",
          "type": "uint256"
        }
      ],
      "name": "modifyCollection",
      "outputs": [],
      "stateMutability": "nonpayable",
      "type": "function"
    },
    {
      "inputs": [
        {
          "internalType": "address",
          "name": "_collection",
          "type": "address"
        },
        {
          "internalType": "address",
          "name": "_creator",
          "type": "address"
        },
        {
          "internalType": "uint256",
          "name": "_creatorFee",
          "type": "uint256"
        }
      ],
      "name": "newCollection",
      "outputs": [],
      "stateMutability": "nonpayable",
      "type": "function"
    },
    {
      "inputs": [],
      "name": "owner",
      "outputs": [
        {
          "internalType": "address",
          "name": "",
          "type": "address"
        }
      ],
      "stateMutability": "view",
      "type": "function"
    },
    {
      "inputs": [],
      "name": "protocolFeePercent",
      "outputs": [
        {
          "internalType": "uint256",
          "name": "",
          "type": "uint256"
        }
      ],
      "stateMutability": "view",
      "type": "function"
    },
    {
      "inputs": [],
      "name": "protocolFeeRecipient",
      "outputs": [
        {
          "internalType": "address",
          "name": "",
          "type": "address"
        }
      ],
      "stateMutability": "view",
      "type": "function"
    },
    {
      "inputs": [],
      "name": "renounceOwnership",
      "outputs": [],
      "stateMutability": "nonpayable",
      "type": "function"
    },
    {
      "inputs": [
        {
          "internalType": "uint256",
          "name": "_percent",
          "type": "uint256"
        }
      ],
      "name": "setProtocolFeePercent",
      "outputs": [],
      "stateMutability": "nonpayable",
      "type": "function"
    },
    {
      "inputs": [
        {
          "internalType": "address",
          "name": "_recipient",
          "type": "address"
        }
      ],
      "name": "setProtocolFeeRecipient",
      "outputs": [],
      "stateMutability": "nonpayable",
      "type": "function"
    },
    {
      "inputs": [
        {
          "internalType": "address",
          "name": "newOwner",
          "type": "address"
        }
      ],
      "name": "transferOwnership",
      "outputs": [],
      "stateMutability": "nonpayable",
      "type": "function"
    },
    {
      "inputs": [
        {
          "internalType": "uint256",
          "name": "cursor",
          "type": "uint256"
        },
        {
          "internalType": "uint256",
          "name": "size",
          "type": "uint256"
        }
      ],
      "name": "viewCollections",
      "outputs": [
        {
          "internalType": "address[]",
          "name": "collectionAddresses",
          "type": "address[]"
        },
        {
          "components": [
            {
              "internalType": "enum ERC721NFTCollectionManager.CollectionStatus",
              "name": "status",
              "type": "uint8"
            },
            {
              "internalType": "uint256",
              "name": "creatorFee",
              "type": "uint256"
            },
            {
              "internalType": "address",
              "name": "creator",
              "type": "address"
            }
          ],
          "internalType": "struct ERC721NFTCollectionManager.Collection[]",
          "name": "collectionDetails",
          "type": "tuple[]"
        },
        {
          "internalType": "uint256",
          "name": "",
          "type": "uint256"
        }
      ],
      "stateMutability": "view",
      "type": "function"
    }
  ],
  "bytecode": "0x608060405260fa6002556101f460045534801561001b57600080fd5b506040516111f53803806111f583398101604081905261003a916100bc565b6100433361006c565b600180546001600160a01b0319166001600160a01b0393909316929092179091556002556100f4565b600080546001600160a01b038381166001600160a01b0319831681178455604051919092169283917f8be0079c531659141344cd1fd0a4f28419497f9722a3daafe3b4186f6b6457e09190a35050565b600080604083850312156100ce578182fd5b82516001600160a01b03811681146100e4578283fd5b6020939093015192949293505050565b6110f2806101036000396000f3fe608060405234801561001057600080fd5b50600436106100cf5760003560e01c8063a49834211161008c578063e4ce180611610066578063e4ce1806146101d6578063e521cb92146101e9578063f2fde38b146101fc578063f375ceab1461020f57600080fd5b8063a4983421146101a3578063bc063e1a146101b6578063d6e6eb9f146101cd57600080fd5b806332796c7d146100d457806343add2e6146100e957806351c383ea1461013d57806364df049e1461015f578063715018a61461018a5780638da5cb5b14610192575b600080fd5b6100e76100e2366004610ea6565b610222565b005b6101256100f7366004610ea6565b60056020526000908152604090208054600182015460029092015460ff90911691906001600160a01b031683565b6040516101349392919061102f565b60405180910390f35b61015061014b366004610f3a565b610300565b60405161013493929190610f7d565b600154610172906001600160a01b031681565b6040516001600160a01b039091168152602001610134565b6100e7610575565b6000546001600160a01b0316610172565b6100e76101b1366004610f22565b610589565b6101bf60045481565b604051908152602001610134565b6101bf60025481565b6100e76101e4366004610ec0565b6105d2565b6100e76101f7366004610ea6565b610809565b6100e761020a366004610ea6565b610897565b6100e761021d366004610ec0565b610910565b61022a610bd5565b610235600682610c2f565b61029a5760405162461bcd60e51b815260206004820152602b60248201527f436c6f736520636f6c6c656374696f6e3a2074686520636f6c6c656374696f6e60448201526a081b9bdd081b1a5cdd195960aa1b60648201526084015b60405180910390fd5b6001600160a01b0381166000908152600560205260409020805460ff191660011790556102c8600682610c56565b506040516001600160a01b038216907f9b484b84384aae1cfcf87460de468e0e38dca97450aca6f5ba47e529293a75ab90600090a250565b606080600083856103116006610c6b565b61031b9190611074565b81111561033a578561032d6006610c6b565b6103379190611074565b90505b8067ffffffffffffffff81111561036157634e487b7160e01b600052604160045260246000fd5b60405190808252806020026020018201604052801561038a578160200160208202803683370190505b5093508067ffffffffffffffff8111156103b457634e487b7160e01b600052604160045260246000fd5b6040519080825280602002602001820160405280156103ff57816020015b60408051606081018252600080825260208083018290529282015282526000199092019101816103d25790505b50925060005b8181101561055a5761042261041a828961105c565b600690610c75565b85828151811061044257634e487b7160e01b600052603260045260246000fd5b60200260200101906001600160a01b031690816001600160a01b0316815250506005600086838151811061048657634e487b7160e01b600052603260045260246000fd5b6020908102919091018101516001600160a01b0316825281019190915260409081016000208151606081019092528054829060ff1660018111156104da57634e487b7160e01b600052602160045260246000fd5b60018111156104f957634e487b7160e01b600052602160045260246000fd5b8152600182015460208201526002909101546001600160a01b0316604090910152845185908390811061053c57634e487b7160e01b600052603260045260246000fd5b602002602001018190525080806105529061108b565b915050610405565b508383610567838961105c565b935093509350509250925092565b61057d610bd5565b6105876000610c81565b565b610591610bd5565b6004548111156105cd5760405162461bcd60e51b81526020600482015260076024820152666d61785f66656560c81b6044820152606401610291565b600255565b6105da610bd5565b6001600160a01b03831660009081526005602052604081205460ff16600181111561061557634e487b7160e01b600052602160045260246000fd5b146106755760405162461bcd60e51b815260206004820152602a60248201527f4d6f6469667920636f6c6c656374696f6e3a207468652073746174757320776160448201526939903737ba1037b832b760b11b6064820152608401610291565b610680600684610c2f565b6106e15760405162461bcd60e51b815260206004820152602c60248201527f4d6f6469667920636f6c6c656374696f6e3a2074686520636f6c6c656374696f60448201526b1b881b9bdd081b1a5cdd195960a21b6064820152608401610291565b6004548111156107335760405162461bcd60e51b815260206004820152601a60248201527f4d6f6469667920636f6c6c656374696f6e3a206d61785f6665650000000000006044820152606401610291565b60408051606081018252600080825260208083018590526001600160a01b038681168486015287168252600590529190912081518154829060ff19166001838181111561079057634e487b7160e01b600052602160045260246000fd5b02179055506020828101516001830155604092830151600290920180546001600160a01b0319166001600160a01b03938416179055825184815285831691810191909152908516917f6e3b53943b1a25c1f026d78d5ca41ca93327767504df7be6bfeada1660989d9891015b60405180910390a2505050565b610811610bd5565b6001600160a01b0381166108755760405162461bcd60e51b815260206004820152602560248201527f4572633732314e46544665654469737472696275746f723a207a65726f206164604482015264647265737360d81b6064820152608401610291565b600180546001600160a01b0319166001600160a01b0392909216919091179055565b61089f610bd5565b6001600160a01b0381166109045760405162461bcd60e51b815260206004820152602660248201527f4f776e61626c653a206e6577206f776e657220697320746865207a65726f206160448201526564647265737360d01b6064820152608401610291565b61090d81610c81565b50565b610918610bd5565b60045481111561096a5760405162461bcd60e51b815260206004820152601760248201527f4e657720636f6c6c656374696f6e3a206d61785f6665650000000000000000006044820152606401610291565b6001600160a01b0383166109c05760405162461bcd60e51b815260206004820152601c60248201527f4e657720636f6c6c656374696f6e3a207a65726f2061646472657373000000006044820152606401610291565b6109cb600684610c2f565b610a295760405162461bcd60e51b815260206004820152602960248201527f4e657720636f6c6c656374696f6e3a20636f6c6c656374696f6e20616c726561604482015268191e481b1a5cdd195960ba1b6064820152608401610291565b6040516301ffc9a760e01b81526380ac58cd60e01b60048201526001600160a01b038416906301ffc9a79060240160206040518083038186803b158015610a6f57600080fd5b505afa158015610a83573d6000803e3d6000fd5b505050506040513d601f19601f82011682018060405250810190610aa79190610efb565b610af35760405162461bcd60e51b815260206004820152601a60248201527f4e657720636f6c6c656374696f6e3a204e6f74204552433732310000000000006044820152606401610291565b60408051606081018252600080825260208083018590526001600160a01b038681168486015287168252600590529190912081518154829060ff191660018381811115610b5057634e487b7160e01b600052602160045260246000fd5b021790555060208201516001820155604090910151600290910180546001600160a01b0319166001600160a01b03909216919091179055610b92600684610cd1565b50604080518281526001600160a01b0384811660208301528516917f3d29e008d3c3ac1e8e834e55c2f088c20d73040d0a033b09e10de9193ed7711991016107fc565b6000546001600160a01b031633146105875760405162461bcd60e51b815260206004820181905260248201527f4f776e61626c653a2063616c6c6572206973206e6f7420746865206f776e65726044820152606401610291565b6001600160a01b038116600090815260018301602052604081205415155b90505b92915050565b6000610c4d836001600160a01b038416610ce6565b6000610c50825490565b6000610c4d8383610e03565b600080546001600160a01b038381166001600160a01b0319831681178455604051919092169283917f8be0079c531659141344cd1fd0a4f28419497f9722a3daafe3b4186f6b6457e09190a35050565b6000610c4d836001600160a01b038416610e3b565b60008181526001830160205260408120548015610df9576000610d0a600183611074565b8554909150600090610d1e90600190611074565b9050818114610d9f576000866000018281548110610d4c57634e487b7160e01b600052603260045260246000fd5b9060005260206000200154905080876000018481548110610d7d57634e487b7160e01b600052603260045260246000fd5b6000918252602080832090910192909255918252600188019052604090208390555b8554869080610dbe57634e487b7160e01b600052603160045260246000fd5b600190038181906000526020600020016000905590558560010160008681526020019081526020016000206000905560019350505050610c50565b6000915050610c50565b6000826000018281548110610e2857634e487b7160e01b600052603260045260246000fd5b9060005260206000200154905092915050565b6000818152600183016020526040812054610e8257508154600181810184556000848152602080822090930184905584548482528286019093526040902091909155610c50565b506000610c50565b80356001600160a01b0381168114610ea157600080fd5b919050565b600060208284031215610eb7578081fd5b610c4d82610e8a565b600080600060608486031215610ed4578182fd5b610edd84610e8a565b9250610eeb60208501610e8a565b9150604084013590509250925092565b600060208284031215610f0c578081fd5b81518015158114610f1b578182fd5b9392505050565b600060208284031215610f33578081fd5b5035919050565b60008060408385031215610f4c578182fd5b50508035926020909101359150565b60028110610f7957634e487b7160e01b600052602160045260246000fd5b9052565b60608082528451828201819052600091906020906080850190828901855b82811015610fc05781516001600160a01b031684529284019290840190600101610f9b565b50505084810382860152865180825287830191830190855b81811015611018578351610fed848251610f5b565b80860151848701526040908101516001600160a01b0316908401529284019291850191600101610fd8565b505080945050505050826040830152949350505050565b6060810161103d8286610f5b565b60208201939093526001600160a01b0391909116604090910152919050565b6000821982111561106f5761106f6110a6565b500190565b600082821015611086576110866110a6565b500390565b600060001982141561109f5761109f6110a6565b5060010190565b634e487b7160e01b600052601160045260246000fdfea2646970667358221220be4fd63c8338c944e7b033f507cff36e6c9d5f17479e02a3e0e71bfac5c1256064736f6c63430008040033",
  "linkReferences": {},
  "deployedLinkReferences": {}
}