{
  "_format": "hh-sol-artifact-1",
  "contractName": "ERC721NFTCollectionManager",
  "sourceName": "contracts/nft-marketplace/erc721-marketplace/ERC721NFTCollectionManager.sol",
  "abi": [
    {
      "inputs": [
        {
          "internalType": "address",
          "name": "_recipient",
          "type": "address"
        },
        {
          "internalType": "uint256",
          "name": "_feePercent",
          "type": "uint256"
        }
      ],
      "stateMutability": "nonpayable",
      "type": "constructor"
    },
    {
      "anonymous": false,
      "inputs": [
        {
          "indexed": true,
          "internalType": "address",
          "name": "collection",
          "type": "address"
        }
      ],
      "name": "CloseCollection",
      "type": "event"
    },
    {
      "anonymous": false,
      "inputs": [
        {
          "indexed": true,
          "internalType": "address",
          "name": "collection",
          "type": "address"
        },
        {
          "indexed": false,
          "internalType": "uint256",
          "name": "creatorFee",
          "type": "uint256"
        },
        {
          "indexed": false,
          "internalType": "address",
          "name": "creator",
          "type": "address"
        }
      ],
      "name": "ModifyCollection",
      "type": "event"
    },
    {
      "anonymous": false,
      "inputs": [
        {
          "indexed": true,
          "internalType": "address",
          "name": "collection",
          "type": "address"
        },
        {
          "indexed": false,
          "internalType": "uint256",
          "name": "creatorFee",
          "type": "uint256"
        },
        {
          "indexed": false,
          "internalType": "address",
          "name": "creator",
          "type": "address"
        }
      ],
      "name": "NewCollection",
      "type": "event"
    },
    {
      "anonymous": false,
      "inputs": [
        {
          "indexed": true,
          "internalType": "address",
          "name": "previousOwner",
          "type": "address"
        },
        {
          "indexed": true,
          "internalType": "address",
          "name": "newOwner",
          "type": "address"
        }
      ],
      "name": "OwnershipTransferred",
      "type": "event"
    },
    {
      "inputs": [],
      "name": "MAX_FEE",
      "outputs": [
        {
          "internalType": "uint256",
          "name": "",
          "type": "uint256"
        }
      ],
      "stateMutability": "view",
      "type": "function"
    },
    {
      "inputs": [
        {
          "internalType": "address",
          "name": "_collection",
          "type": "address"
        }
      ],
      "name": "closeCollection",
      "outputs": [],
      "stateMutability": "nonpayable",
      "type": "function"
    },
    {
      "inputs": [
        {
          "internalType": "address",
          "name": "",
          "type": "address"
        }
      ],
      "name": "collections",
      "outputs": [
        {
          "internalType": "enum ERC721NFTCollectionManager.CollectionStatus",
          "name": "status",
          "type": "uint8"
        },
        {
          "internalType": "uint256",
          "name": "creatorFee",
          "type": "uint256"
        },
        {
          "internalType": "address",
          "name": "creator",
          "type": "address"
        }
      ],
      "stateMutability": "view",
      "type": "function"
    },
    {
      "inputs": [
        {
          "internalType": "address",
          "name": "_collection",
          "type": "address"
        },
        {
          "internalType": "address",
          "name": "_creator",
          "type": "address"
        },
        {
          "internalType": "uint256",
          "name": "_creatorFee",
          "type": "uint256"
        }
      ],
      "name": "modifyCollection",
      "outputs": [],
      "stateMutability": "nonpayable",
      "type": "function"
    },
    {
      "inputs": [
        {
          "internalType": "address",
          "name": "_collection",
          "type": "address"
        },
        {
          "internalType": "address",
          "name": "_creator",
          "type": "address"
        },
        {
          "internalType": "uint256",
          "name": "_creatorFee",
          "type": "uint256"
        }
      ],
      "name": "newCollection",
      "outputs": [],
      "stateMutability": "nonpayable",
      "type": "function"
    },
    {
      "inputs": [],
      "name": "owner",
      "outputs": [
        {
          "internalType": "address",
          "name": "",
          "type": "address"
        }
      ],
      "stateMutability": "view",
      "type": "function"
    },
    {
      "inputs": [],
      "name": "protocolFeePercent",
      "outputs": [
        {
          "internalType": "uint256",
          "name": "",
          "type": "uint256"
        }
      ],
      "stateMutability": "view",
      "type": "function"
    },
    {
      "inputs": [],
      "name": "protocolFeeRecipient",
      "outputs": [
        {
          "internalType": "address",
          "name": "",
          "type": "address"
        }
      ],
      "stateMutability": "view",
      "type": "function"
    },
    {
      "inputs": [],
      "name": "renounceOwnership",
      "outputs": [],
      "stateMutability": "nonpayable",
      "type": "function"
    },
    {
      "inputs": [
        {
          "internalType": "uint256",
          "name": "_percent",
          "type": "uint256"
        }
      ],
      "name": "setProtocolFeePercent",
      "outputs": [],
      "stateMutability": "nonpayable",
      "type": "function"
    },
    {
      "inputs": [
        {
          "internalType": "address",
          "name": "_recipient",
          "type": "address"
        }
      ],
      "name": "setProtocolFeeRecipient",
      "outputs": [],
      "stateMutability": "nonpayable",
      "type": "function"
    },
    {
      "inputs": [
        {
          "internalType": "address",
          "name": "newOwner",
          "type": "address"
        }
      ],
      "name": "transferOwnership",
      "outputs": [],
      "stateMutability": "nonpayable",
      "type": "function"
    },
    {
      "inputs": [
        {
          "internalType": "uint256",
          "name": "cursor",
          "type": "uint256"
        },
        {
          "internalType": "uint256",
          "name": "size",
          "type": "uint256"
        }
      ],
      "name": "viewCollections",
      "outputs": [
        {
          "internalType": "address[]",
          "name": "collectionAddresses",
          "type": "address[]"
        },
        {
          "components": [
            {
              "internalType": "enum ERC721NFTCollectionManager.CollectionStatus",
              "name": "status",
              "type": "uint8"
            },
            {
              "internalType": "uint256",
              "name": "creatorFee",
              "type": "uint256"
            },
            {
              "internalType": "address",
              "name": "creator",
              "type": "address"
            }
          ],
          "internalType": "struct ERC721NFTCollectionManager.Collection[]",
          "name": "collectionDetails",
          "type": "tuple[]"
        },
        {
          "internalType": "uint256",
          "name": "",
          "type": "uint256"
        }
      ],
      "stateMutability": "view",
      "type": "function"
    }
  ],
  "bytecode": "0x608060405260fa6002556101f460045534801561001b57600080fd5b506040516111f83803806111f883398101604081905261003a916100bc565b6100433361006c565b600180546001600160a01b0319166001600160a01b0393909316929092179091556002556100f4565b600080546001600160a01b038381166001600160a01b0319831681178455604051919092169283917f8be0079c531659141344cd1fd0a4f28419497f9722a3daafe3b4186f6b6457e09190a35050565b600080604083850312156100ce578182fd5b82516001600160a01b03811681146100e4578283fd5b6020939093015192949293505050565b6110f5806101036000396000f3fe608060405234801561001057600080fd5b50600436106100cf5760003560e01c8063a49834211161008c578063e4ce180611610066578063e4ce1806146101d6578063e521cb92146101e9578063f2fde38b146101fc578063f375ceab1461020f57600080fd5b8063a4983421146101a3578063bc063e1a146101b6578063d6e6eb9f146101cd57600080fd5b806332796c7d146100d457806343add2e6146100e957806351c383ea1461013d57806364df049e1461015f578063715018a61461018a5780638da5cb5b14610192575b600080fd5b6100e76100e2366004610ea9565b610222565b005b6101256100f7366004610ea9565b60056020526000908152604090208054600182015460029092015460ff90911691906001600160a01b031683565b60405161013493929190611032565b60405180910390f35b61015061014b366004610f3d565b610300565b60405161013493929190610f80565b600154610172906001600160a01b031681565b6040516001600160a01b039091168152602001610134565b6100e7610575565b6000546001600160a01b0316610172565b6100e76101b1366004610f25565b610589565b6101bf60045481565b604051908152602001610134565b6101bf60025481565b6100e76101e4366004610ec3565b6105d2565b6100e76101f7366004610ea9565b610809565b6100e761020a366004610ea9565b61089a565b6100e761021d366004610ec3565b610913565b61022a610bd8565b610235600682610c32565b61029a5760405162461bcd60e51b815260206004820152602b60248201527f436c6f736520636f6c6c656374696f6e3a2074686520636f6c6c656374696f6e60448201526a081b9bdd081b1a5cdd195960aa1b60648201526084015b60405180910390fd5b6001600160a01b0381166000908152600560205260409020805460ff191660011790556102c8600682610c59565b506040516001600160a01b038216907f9b484b84384aae1cfcf87460de468e0e38dca97450aca6f5ba47e529293a75ab90600090a250565b606080600083856103116006610c6e565b61031b9190611077565b81111561033a578561032d6006610c6e565b6103379190611077565b90505b8067ffffffffffffffff81111561036157634e487b7160e01b600052604160045260246000fd5b60405190808252806020026020018201604052801561038a578160200160208202803683370190505b5093508067ffffffffffffffff8111156103b457634e487b7160e01b600052604160045260246000fd5b6040519080825280602002602001820160405280156103ff57816020015b60408051606081018252600080825260208083018290529282015282526000199092019101816103d25790505b50925060005b8181101561055a5761042261041a828961105f565b600690610c78565b85828151811061044257634e487b7160e01b600052603260045260246000fd5b60200260200101906001600160a01b031690816001600160a01b0316815250506005600086838151811061048657634e487b7160e01b600052603260045260246000fd5b6020908102919091018101516001600160a01b0316825281019190915260409081016000208151606081019092528054829060ff1660018111156104da57634e487b7160e01b600052602160045260246000fd5b60018111156104f957634e487b7160e01b600052602160045260246000fd5b8152600182015460208201526002909101546001600160a01b0316604090910152845185908390811061053c57634e487b7160e01b600052603260045260246000fd5b602002602001018190525080806105529061108e565b915050610405565b508383610567838961105f565b935093509350509250925092565b61057d610bd8565b6105876000610c84565b565b610591610bd8565b6004548111156105cd5760405162461bcd60e51b81526020600482015260076024820152666d61785f66656560c81b6044820152606401610291565b600255565b6105da610bd8565b6001600160a01b03831660009081526005602052604081205460ff16600181111561061557634e487b7160e01b600052602160045260246000fd5b146106755760405162461bcd60e51b815260206004820152602a60248201527f4d6f6469667920636f6c6c656374696f6e3a207468652073746174757320776160448201526939903737ba1037b832b760b11b6064820152608401610291565b610680600684610c32565b6106e15760405162461bcd60e51b815260206004820152602c60248201527f4d6f6469667920636f6c6c656374696f6e3a2074686520636f6c6c656374696f60448201526b1b881b9bdd081b1a5cdd195960a21b6064820152608401610291565b6004548111156107335760405162461bcd60e51b815260206004820152601a60248201527f4d6f6469667920636f6c6c656374696f6e3a206d61785f6665650000000000006044820152606401610291565b60408051606081018252600080825260208083018590526001600160a01b038681168486015287168252600590529190912081518154829060ff19166001838181111561079057634e487b7160e01b600052602160045260246000fd5b02179055506020828101516001830155604092830151600290920180546001600160a01b0319166001600160a01b03938416179055825184815285831691810191909152908516917f6e3b53943b1a25c1f026d78d5ca41ca93327767504df7be6bfeada1660989d9891015b60405180910390a2505050565b610811610bd8565b6001600160a01b0381166108785760405162461bcd60e51b815260206004820152602860248201527f4552433732314e4654436f6c6c656374696f6e4d616e616765723a207a65726f604482015267206164647265737360c01b6064820152608401610291565b600180546001600160a01b0319166001600160a01b0392909216919091179055565b6108a2610bd8565b6001600160a01b0381166109075760405162461bcd60e51b815260206004820152602660248201527f4f776e61626c653a206e6577206f776e657220697320746865207a65726f206160448201526564647265737360d01b6064820152608401610291565b61091081610c84565b50565b61091b610bd8565b60045481111561096d5760405162461bcd60e51b815260206004820152601760248201527f4e657720636f6c6c656374696f6e3a206d61785f6665650000000000000000006044820152606401610291565b6001600160a01b0383166109c35760405162461bcd60e51b815260206004820152601c60248201527f4e657720636f6c6c656374696f6e3a207a65726f2061646472657373000000006044820152606401610291565b6109ce600684610c32565b610a2c5760405162461bcd60e51b815260206004820152602960248201527f4e657720636f6c6c656374696f6e3a20636f6c6c656374696f6e20616c726561604482015268191e481b1a5cdd195960ba1b6064820152608401610291565b6040516301ffc9a760e01b81526380ac58cd60e01b60048201526001600160a01b038416906301ffc9a79060240160206040518083038186803b158015610a7257600080fd5b505afa158015610a86573d6000803e3d6000fd5b505050506040513d601f19601f82011682018060405250810190610aaa9190610efe565b610af65760405162461bcd60e51b815260206004820152601a60248201527f4e657720636f6c6c656374696f6e3a204e6f74204552433732310000000000006044820152606401610291565b60408051606081018252600080825260208083018590526001600160a01b038681168486015287168252600590529190912081518154829060ff191660018381811115610b5357634e487b7160e01b600052602160045260246000fd5b021790555060208201516001820155604090910151600290910180546001600160a01b0319166001600160a01b03909216919091179055610b95600684610cd4565b50604080518281526001600160a01b0384811660208301528516917f3d29e008d3c3ac1e8e834e55c2f088c20d73040d0a033b09e10de9193ed7711991016107fc565b6000546001600160a01b031633146105875760405162461bcd60e51b815260206004820181905260248201527f4f776e61626c653a2063616c6c6572206973206e6f7420746865206f776e65726044820152606401610291565b6001600160a01b038116600090815260018301602052604081205415155b90505b92915050565b6000610c50836001600160a01b038416610ce9565b6000610c53825490565b6000610c508383610e06565b600080546001600160a01b038381166001600160a01b0319831681178455604051919092169283917f8be0079c531659141344cd1fd0a4f28419497f9722a3daafe3b4186f6b6457e09190a35050565b6000610c50836001600160a01b038416610e3e565b60008181526001830160205260408120548015610dfc576000610d0d600183611077565b8554909150600090610d2190600190611077565b9050818114610da2576000866000018281548110610d4f57634e487b7160e01b600052603260045260246000fd5b9060005260206000200154905080876000018481548110610d8057634e487b7160e01b600052603260045260246000fd5b6000918252602080832090910192909255918252600188019052604090208390555b8554869080610dc157634e487b7160e01b600052603160045260246000fd5b600190038181906000526020600020016000905590558560010160008681526020019081526020016000206000905560019350505050610c53565b6000915050610c53565b6000826000018281548110610e2b57634e487b7160e01b600052603260045260246000fd5b9060005260206000200154905092915050565b6000818152600183016020526040812054610e8557508154600181810184556000848152602080822090930184905584548482528286019093526040902091909155610c53565b506000610c53565b80356001600160a01b0381168114610ea457600080fd5b919050565b600060208284031215610eba578081fd5b610c5082610e8d565b600080600060608486031215610ed7578182fd5b610ee084610e8d565b9250610eee60208501610e8d565b9150604084013590509250925092565b600060208284031215610f0f578081fd5b81518015158114610f1e578182fd5b9392505050565b600060208284031215610f36578081fd5b5035919050565b60008060408385031215610f4f578182fd5b50508035926020909101359150565b60028110610f7c57634e487b7160e01b600052602160045260246000fd5b9052565b60608082528451828201819052600091906020906080850190828901855b82811015610fc35781516001600160a01b031684529284019290840190600101610f9e565b50505084810382860152865180825287830191830190855b8181101561101b578351610ff0848251610f5e565b80860151848701526040908101516001600160a01b0316908401529284019291850191600101610fdb565b505080945050505050826040830152949350505050565b606081016110408286610f5e565b60208201939093526001600160a01b0391909116604090910152919050565b60008219821115611072576110726110a9565b500190565b600082821015611089576110896110a9565b500390565b60006000198214156110a2576110a26110a9565b5060010190565b634e487b7160e01b600052601160045260246000fdfea2646970667358221220a12b105ae5cbda8f9cf7f8358854f3c045b7d30b50cb4833216aa0aee2e4738b64736f6c63430008040033",
  "linkReferences": {},
  "deployedLinkReferences": {}
}