{
  "_format": "hh-sol-artifact-1",
  "contractName": "ComplexRewarderTime",
  "sourceName": "contracts/farming/ComplexRewarder.sol",
  "abi": [
    {
      "inputs": [
        {
          "internalType": "address",
          "name": "_MASTERCHEF_V2",
          "type": "address"
        }
      ],
      "stateMutability": "nonpayable",
      "type": "constructor"
    },
    {
      "anonymous": false,
      "inputs": [
        {
          "indexed": true,
          "internalType": "contract IERC20",
          "name": "rewardToken",
          "type": "address"
        },
        {
          "indexed": false,
          "internalType": "uint256",
          "name": "rewardPerSecond",
          "type": "uint256"
        }
      ],
      "name": "LogInit",
      "type": "event"
    },
    {
      "anonymous": false,
      "inputs": [
        {
          "indexed": true,
          "internalType": "address",
          "name": "user",
          "type": "address"
        },
        {
          "indexed": true,
          "internalType": "uint256",
          "name": "pid",
          "type": "uint256"
        },
        {
          "indexed": false,
          "internalType": "uint256",
          "name": "amount",
          "type": "uint256"
        },
        {
          "indexed": true,
          "internalType": "address",
          "name": "to",
          "type": "address"
        }
      ],
      "name": "LogOnReward",
      "type": "event"
    },
    {
      "anonymous": false,
      "inputs": [
        {
          "indexed": true,
          "internalType": "uint256",
          "name": "pid",
          "type": "uint256"
        },
        {
          "indexed": false,
          "internalType": "uint256",
          "name": "allocPoint",
          "type": "uint256"
        }
      ],
      "name": "LogPoolAddition",
      "type": "event"
    },
    {
      "anonymous": false,
      "inputs": [
        {
          "indexed": false,
          "internalType": "uint256",
          "name": "rewardPerSecond",
          "type": "uint256"
        }
      ],
      "name": "LogRewardPerSecond",
      "type": "event"
    },
    {
      "anonymous": false,
      "inputs": [
        {
          "indexed": true,
          "internalType": "uint256",
          "name": "pid",
          "type": "uint256"
        },
        {
          "indexed": false,
          "internalType": "uint256",
          "name": "allocPoint",
          "type": "uint256"
        }
      ],
      "name": "LogSetPool",
      "type": "event"
    },
    {
      "anonymous": false,
      "inputs": [
        {
          "indexed": true,
          "internalType": "uint256",
          "name": "pid",
          "type": "uint256"
        },
        {
          "indexed": false,
          "internalType": "uint64",
          "name": "lastRewardTime",
          "type": "uint64"
        },
        {
          "indexed": false,
          "internalType": "uint256",
          "name": "lpSupply",
          "type": "uint256"
        },
        {
          "indexed": false,
          "internalType": "uint256",
          "name": "accTokenPerShare",
          "type": "uint256"
        }
      ],
      "name": "LogUpdatePool",
      "type": "event"
    },
    {
      "anonymous": false,
      "inputs": [
        {
          "indexed": true,
          "internalType": "address",
          "name": "previousOwner",
          "type": "address"
        },
        {
          "indexed": true,
          "internalType": "address",
          "name": "newOwner",
          "type": "address"
        }
      ],
      "name": "OwnershipTransferred",
      "type": "event"
    },
    {
      "inputs": [
        {
          "internalType": "uint256",
          "name": "allocPoint",
          "type": "uint256"
        },
        {
          "internalType": "uint256",
          "name": "_pid",
          "type": "uint256"
        }
      ],
      "name": "add",
      "outputs": [],
      "stateMutability": "nonpayable",
      "type": "function"
    },
    {
      "inputs": [
        {
          "internalType": "address",
          "name": "_rewardToken",
          "type": "address"
        },
        {
          "internalType": "uint256",
          "name": "_rewardPerSecond",
          "type": "uint256"
        }
      ],
      "name": "init",
      "outputs": [],
      "stateMutability": "nonpayable",
      "type": "function"
    },
    {
      "inputs": [
        {
          "internalType": "uint256[]",
          "name": "pids",
          "type": "uint256[]"
        }
      ],
      "name": "massUpdatePools",
      "outputs": [],
      "stateMutability": "nonpayable",
      "type": "function"
    },
    {
      "inputs": [
        {
          "internalType": "uint256",
          "name": "pid",
          "type": "uint256"
        },
        {
          "internalType": "address",
          "name": "_user",
          "type": "address"
        },
        {
          "internalType": "address",
          "name": "to",
          "type": "address"
        },
        {
          "internalType": "uint256",
          "name": "",
          "type": "uint256"
        },
        {
          "internalType": "uint256",
          "name": "lpToken",
          "type": "uint256"
        }
      ],
      "name": "onKdxReward",
      "outputs": [],
      "stateMutability": "nonpayable",
      "type": "function"
    },
    {
      "inputs": [],
      "name": "owner",
      "outputs": [
        {
          "internalType": "address",
          "name": "",
          "type": "address"
        }
      ],
      "stateMutability": "view",
      "type": "function"
    },
    {
      "inputs": [
        {
          "internalType": "uint256",
          "name": "_pid",
          "type": "uint256"
        },
        {
          "internalType": "address",
          "name": "_user",
          "type": "address"
        }
      ],
      "name": "pendingToken",
      "outputs": [
        {
          "internalType": "uint256",
          "name": "pending",
          "type": "uint256"
        }
      ],
      "stateMutability": "view",
      "type": "function"
    },
    {
      "inputs": [
        {
          "internalType": "uint256",
          "name": "pid",
          "type": "uint256"
        },
        {
          "internalType": "address",
          "name": "user",
          "type": "address"
        },
        {
          "internalType": "uint256",
          "name": "",
          "type": "uint256"
        }
      ],
      "name": "pendingTokens",
      "outputs": [
        {
          "internalType": "contract IERC20[]",
          "name": "rewardTokens",
          "type": "address[]"
        },
        {
          "internalType": "uint256[]",
          "name": "rewardAmounts",
          "type": "uint256[]"
        }
      ],
      "stateMutability": "view",
      "type": "function"
    },
    {
      "inputs": [
        {
          "internalType": "uint256",
          "name": "",
          "type": "uint256"
        }
      ],
      "name": "poolIds",
      "outputs": [
        {
          "internalType": "uint256",
          "name": "",
          "type": "uint256"
        }
      ],
      "stateMutability": "view",
      "type": "function"
    },
    {
      "inputs": [
        {
          "internalType": "uint256",
          "name": "",
          "type": "uint256"
        }
      ],
      "name": "poolInfo",
      "outputs": [
        {
          "internalType": "uint128",
          "name": "accTokenPerShare",
          "type": "uint128"
        },
        {
          "internalType": "uint64",
          "name": "lastRewardTime",
          "type": "uint64"
        },
        {
          "internalType": "uint64",
          "name": "allocPoint",
          "type": "uint64"
        }
      ],
      "stateMutability": "view",
      "type": "function"
    },
    {
      "inputs": [],
      "name": "poolLength",
      "outputs": [
        {
          "internalType": "uint256",
          "name": "pools",
          "type": "uint256"
        }
      ],
      "stateMutability": "view",
      "type": "function"
    },
    {
      "inputs": [],
      "name": "renounceOwnership",
      "outputs": [],
      "stateMutability": "nonpayable",
      "type": "function"
    },
    {
      "inputs": [],
      "name": "rewardPerSecond",
      "outputs": [
        {
          "internalType": "uint256",
          "name": "",
          "type": "uint256"
        }
      ],
      "stateMutability": "view",
      "type": "function"
    },
    {
      "inputs": [],
      "name": "rewardToken",
      "outputs": [
        {
          "internalType": "contract IERC20",
          "name": "",
          "type": "address"
        }
      ],
      "stateMutability": "view",
      "type": "function"
    },
    {
      "inputs": [
        {
          "internalType": "uint256",
          "name": "_pid",
          "type": "uint256"
        },
        {
          "internalType": "uint256",
          "name": "_allocPoint",
          "type": "uint256"
        }
      ],
      "name": "set",
      "outputs": [],
      "stateMutability": "nonpayable",
      "type": "function"
    },
    {
      "inputs": [
        {
          "internalType": "uint256",
          "name": "_rewardPerSecond",
          "type": "uint256"
        }
      ],
      "name": "setRewardPerSecond",
      "outputs": [],
      "stateMutability": "nonpayable",
      "type": "function"
    },
    {
      "inputs": [
        {
          "internalType": "address",
          "name": "newOwner",
          "type": "address"
        }
      ],
      "name": "transferOwnership",
      "outputs": [],
      "stateMutability": "nonpayable",
      "type": "function"
    },
    {
      "inputs": [
        {
          "internalType": "uint256",
          "name": "pid",
          "type": "uint256"
        }
      ],
      "name": "updatePool",
      "outputs": [
        {
          "components": [
            {
              "internalType": "uint128",
              "name": "accTokenPerShare",
              "type": "uint128"
            },
            {
              "internalType": "uint64",
              "name": "lastRewardTime",
              "type": "uint64"
            },
            {
              "internalType": "uint64",
              "name": "allocPoint",
              "type": "uint64"
            }
          ],
          "internalType": "struct ComplexRewarderTime.PoolInfo",
          "name": "pool",
          "type": "tuple"
        }
      ],
      "stateMutability": "nonpayable",
      "type": "function"
    },
    {
      "inputs": [
        {
          "internalType": "uint256",
          "name": "",
          "type": "uint256"
        },
        {
          "internalType": "address",
          "name": "",
          "type": "address"
        }
      ],
      "name": "userInfo",
      "outputs": [
        {
          "internalType": "uint256",
          "name": "amount",
          "type": "uint256"
        },
        {
          "internalType": "uint256",
          "name": "rewardDebt",
          "type": "uint256"
        }
      ],
      "stateMutability": "view",
      "type": "function"
    }
  ],
  "bytecode": "0x60a060405234801561001057600080fd5b5060405161199a38038061199a83398101604081905261002f9161009d565b6100383361004d565b60601b6001600160601b0319166080526100cb565b600080546001600160a01b038381166001600160a01b0319831681178455604051919092169283917f8be0079c531659141344cd1fd0a4f28419497f9722a3daafe3b4186f6b6457e09190a35050565b6000602082840312156100ae578081fd5b81516001600160a01b03811681146100c4578182fd5b9392505050565b60805160601c611895610105600039600081816105ef0152818161068d01528181610878015281816109110152610dbc01526118956000f3fe608060405234801561001057600080fd5b50600436106101165760003560e01c8063715018a6116100a25780638f10369a116100715780638f10369a146102bc57806393f1a40b146102c5578063d63b3c491461030c578063f2fde38b1461032d578063f7c618c11461034057600080fd5b8063715018a614610269578063771602f714610271578063860cbfe4146102845780638da5cb5b1461029757600080fd5b806348e43af4116100e957806348e43af4146101ce57806351eb05a6146101e157806357a5b58c1461023057806366da58151461024357806369883b4e1461025657600080fd5b8063081e3eda1461011b5780631526fe27146101325780631ab06ee5146101a6578063399ae724146101bb575b600080fd5b6003545b6040519081526020015b60405180910390f35b610177610140366004611587565b6002602052600090815260409020546001600160801b038116906001600160401b03600160801b8204811691600160c01b90041683565b604080516001600160801b0390941684526001600160401b039283166020850152911690820152606001610129565b6101b96101b436600461166e565b610353565b005b6101b96101c93660046114b1565b61043d565b61011f6101dc3660046115b7565b61056c565b6101f46101ef366004611587565b6107f5565b6040805182516001600160801b031681526020808401516001600160401b03908116918301919091529282015190921690820152606001610129565b6101b961023e3660046114dc565b610af6565b6101b9610251366004611587565b610b48565b61011f610264366004611587565b610bad565b6101b9610bce565b6101b961027f36600461166e565b610c04565b6101b96102923660046115e6565b610db1565b6000546001600160a01b03165b6040516001600160a01b039091168152602001610129565b61011f60065481565b6102f76102d33660046115b7565b60046020908152600092835260408084209091529082529020805460019091015482565b60408051928352602083019190915201610129565b61031f61031a366004611637565b610f6e565b6040516101299291906116c8565b6101b961033b36600461148e565b611042565b6001546102a4906001600160a01b031681565b6000546001600160a01b031633146103865760405162461bcd60e51b815260040161037d9061174b565b60405180910390fd5b6000828152600260205260409020546005546103bd9183916103b791600160c01b90046001600160401b03166110dd565b90611139565b6005556103c981611192565b6000838152600260205260409081902080546001600160401b0393909316600160c01b026001600160c01b03909316929092179091555182907f942cc7e17a17c164bd977f32ab8c54265d5b9d481e4e352bf874f1e568874e7c906104319084815260200190565b60405180910390a25050565b6000546001600160a01b031633146104675760405162461bcd60e51b815260040161037d9061174b565b6001546001600160a01b0316156104c05760405162461bcd60e51b815260206004820152601d60248201527f52657761726465723a20616c726561647920696e697469616c697a6564000000604482015260640161037d565b600180546001600160a01b0319166001600160a01b03841690811790915560068290556105255760405162461bcd60e51b81526020600482015260136024820152722932bbb0b93232b91d103130b2103a37b5b2b760691b604482015260640161037d565b60016007819055546006546040519081526001600160a01b03909116907f8bcfbc0889bb93b7f9a92007988918c4d486dc8492930b93c9d4367268df1bee90602001610431565b6000828152600260209081526040808320815160608101835290546001600160801b0380821683526001600160401b03600160801b8304811684870152600160c01b9092049091168284015286855260048085528386206001600160a01b0380891688529552838620835194516378ed5d1f60e01b8152939590949092169286927f000000000000000000000000000000000000000000000000000000000000000016916378ed5d1f91610626918b910190815260200190565b60206040518083038186803b15801561063e57600080fd5b505afa158015610652573d6000803e3d6000fd5b505050506040513d601f19601f82011682018060405250810190610676919061156b565b6040516370a0823160e01b81526001600160a01b037f00000000000000000000000000000000000000000000000000000000000000008116600483015291909116906370a082319060240160206040518083038186803b1580156106d957600080fd5b505afa1580156106ed573d6000803e3d6000fd5b505050506040513d601f19601f82011682018060405250810190610711919061159f565b905083602001516001600160401b03164211801561072e57508015155b156107bd57600061075585602001516001600160401b0316426110dd90919063ffffffff16565b9050600060055461078887604001516001600160401b0316610782600654866111ef90919063ffffffff16565b906111ef565b61079291906117c3565b90506107b8836107a78364e8d4a510006111ef565b6107b191906117c3565b8590611139565b935050505b600183015483546107ea919064e8d4a51000906107da90866111ef565b6107e491906117c3565b906110dd565b979650505050505050565b6040805160608082018352600080835260208084018290529284018190528481526002835283902083519182018452546001600160801b03811682526001600160401b03600160801b82048116938301849052600160c01b9091041692810192909252421115610af1576040516378ed5d1f60e01b8152600481018390526000907f00000000000000000000000000000000000000000000000000000000000000006001600160a01b0316906378ed5d1f9060240160206040518083038186803b1580156108c257600080fd5b505afa1580156108d6573d6000803e3d6000fd5b505050506040513d601f19601f820116820180604052508101906108fa919061156b565b6040516370a0823160e01b81526001600160a01b037f00000000000000000000000000000000000000000000000000000000000000008116600483015291909116906370a082319060240160206040518083038186803b15801561095d57600080fd5b505afa158015610971573d6000803e3d6000fd5b505050506040513d601f19601f82011682018060405250810190610995919061159f565b90508015610a3c5760006109bf83602001516001600160401b0316426110dd90919063ffffffff16565b905060006005546109ec85604001516001600160401b0316610782600654866111ef90919063ffffffff16565b6109f691906117c3565b9050610a2e610a1d84610a0e8464e8d4a510006111ef565b610a1891906117c3565b61125f565b85516001600160801b0316906112b8565b6001600160801b0316845250505b610a4542611192565b6001600160401b039081166020848101918252600086815260028252604090819020865181549451838901516001600160801b039092166001600160c01b03199096168617600160801b918816918202176001600160c01b0316600160c01b9290971691909102959095179055805193845290830184905282015283907f0fc9545022a542541ad085d091fb09a2ab36fee366a4576ab63714ea907ad3539060600160405180910390a2505b919050565b8060005b81811015610b4257610b31848483818110610b2557634e487b7160e01b600052603260045260246000fd5b905060200201356107f5565b50610b3b81611819565b9050610afa565b50505050565b6000546001600160a01b03163314610b725760405162461bcd60e51b815260040161037d9061174b565b60068190556040518181527fde89cb17ac7f58f94792b3e91e086ed85403819c24ceea882491f960ccb1a2789060200160405180910390a150565b60038181548110610bbd57600080fd5b600091825260209091200154905081565b6000546001600160a01b03163314610bf85760405162461bcd60e51b815260040161037d9061174b565b610c026000611323565b565b6000546001600160a01b03163314610c2e5760405162461bcd60e51b815260040161037d9061174b565b600081815260026020526040902054600160801b90046001600160401b031615610c905760405162461bcd60e51b8152602060048201526013602482015272506f6f6c20616c72656164792065786973747360681b604482015260640161037d565b6005544290610c9f9084611139565b60055560408051606081019091526000815260208101610cbe83611192565b6001600160401b03168152602001610cd585611192565b6001600160401b0390811690915260008481526002602090815260408083208551815493870151968301518616600160c01b026001600160c01b0397909616600160801b026001600160c01b03199094166001600160801b03909116179290921794909416929092179091556003805460018101825591527fc2575a0e9e593c00f959f8c92f12db2869c3395a3b0502d05e2516446f71f85b018390555182907f38410508059921573ab9ebdca2a5034be738d236366b8f32de4434ea95ed3c8190610da49086815260200190565b60405180910390a2505050565b336001600160a01b037f00000000000000000000000000000000000000000000000000000000000000001614610e335760405162461bcd60e51b815260206004820152602160248201527f4f6e6c79204d4356322063616e2063616c6c20746869732066756e6374696f6e6044820152601760f91b606482015260840161037d565b600754600114610e6e5760405162461bcd60e51b81526020600482015260066024820152651313d0d2d15160d21b604482015260640161037d565b60026007556000610e7e866107f5565b60008781526004602090815260408083206001600160a01b038a168452909152812080549293509115610eec57600182015483518354610ed2929164e8d4a51000916107da916001600160801b03166111ef565b600154909150610eec906001600160a01b03168783611373565b838255825164e8d4a5100090610f0c9086906001600160801b03166111ef565b610f1691906117c3565b60018301556040518181526001600160a01b03808816918a918a16907f2ece88ca2bc08dd018db50e1d25a20bf1241e5fab1c396caa51f01a54bd2f75b9060200160405180910390a450506001600755505050505050565b604080516001808252818301909252606091829160009160208083019080368337505060015482519293506001600160a01b031691839150600090610fc357634e487b7160e01b600052603260045260246000fd5b6001600160a01b03929092166020928302919091019091015260408051600180825281830190925260009181602001602082028036833701905050905061100a878761056c565b8160008151811061102b57634e487b7160e01b600052603260045260246000fd5b602090810291909101015290969095509350505050565b6000546001600160a01b0316331461106c5760405162461bcd60e51b815260040161037d9061174b565b6001600160a01b0381166110d15760405162461bcd60e51b815260206004820152602660248201527f4f776e61626c653a206e6577206f776e657220697320746865207a65726f206160448201526564647265737360d01b606482015260840161037d565b6110da81611323565b50565b6000826110ea8382611802565b91508111156111335760405162461bcd60e51b8152602060048201526015602482015274426f72696e674d6174683a20556e646572666c6f7760581b604482015260640161037d565b92915050565b60008161114681856117ab565b91508110156111335760405162461bcd60e51b8152602060048201526018602482015277426f72696e674d6174683a20416464204f766572666c6f7760401b604482015260640161037d565b60006001600160401b038211156111eb5760405162461bcd60e51b815260206004820152601b60248201527f426f72696e674d6174683a2075696e743634204f766572666c6f770000000000604482015260640161037d565b5090565b60008115806112135750828261120581836117e3565b925061121190836117c3565b145b6111335760405162461bcd60e51b815260206004820152601860248201527f426f72696e674d6174683a204d756c204f766572666c6f770000000000000000604482015260640161037d565b60006001600160801b038211156111eb5760405162461bcd60e51b815260206004820152601c60248201527f426f72696e674d6174683a2075696e74313238204f766572666c6f7700000000604482015260640161037d565b60006001600160801b0382166112ce8385611780565b9150816001600160801b031610156111335760405162461bcd60e51b8152602060048201526018602482015277426f72696e674d6174683a20416464204f766572666c6f7760401b604482015260640161037d565b600080546001600160a01b038381166001600160a01b0319831681178455604051919092169283917f8be0079c531659141344cd1fd0a4f28419497f9722a3daafe3b4186f6b6457e09190a35050565b604080516001600160a01b038481166024830152604480830185905283518084039091018152606490920183526020820180516001600160e01b031663a9059cbb60e01b17905291516000928392908716916113cf919061168f565b6000604051808303816000865af19150503d806000811461140c576040519150601f19603f3d011682016040523d82523d6000602084013e611411565b606091505b509150915081801561143b57508051158061143b57508080602001905181019061143b919061154b565b6114875760405162461bcd60e51b815260206004820152601c60248201527f426f72696e6745524332303a205472616e73666572206661696c656400000000604482015260640161037d565b5050505050565b60006020828403121561149f578081fd5b81356114aa8161184a565b9392505050565b600080604083850312156114c3578081fd5b82356114ce8161184a565b946020939093013593505050565b600080602083850312156114ee578182fd5b82356001600160401b0380821115611504578384fd5b818501915085601f830112611517578384fd5b813581811115611525578485fd5b8660208260051b8501011115611539578485fd5b60209290920196919550909350505050565b60006020828403121561155c578081fd5b815180151581146114aa578182fd5b60006020828403121561157c578081fd5b81516114aa8161184a565b600060208284031215611598578081fd5b5035919050565b6000602082840312156115b0578081fd5b5051919050565b600080604083850312156115c9578182fd5b8235915060208301356115db8161184a565b809150509250929050565b600080600080600060a086880312156115fd578081fd5b85359450602086013561160f8161184a565b9350604086013561161f8161184a565b94979396509394606081013594506080013592915050565b60008060006060848603121561164b578283fd5b83359250602084013561165d8161184a565b929592945050506040919091013590565b60008060408385031215611680578182fd5b50508035926020909101359150565b60008251815b818110156116af5760208186018101518583015201611695565b818111156116bd5782828501525b509190910192915050565b604080825283519082018190526000906020906060840190828701845b8281101561170a5781516001600160a01b0316845292840192908401906001016116e5565b50505083810382850152845180825285830191830190845b8181101561173e57835183529284019291840191600101611722565b5090979650505050505050565b6020808252818101527f4f776e61626c653a2063616c6c6572206973206e6f7420746865206f776e6572604082015260600190565b60006001600160801b038083168185168083038211156117a2576117a2611834565b01949350505050565b600082198211156117be576117be611834565b500190565b6000826117de57634e487b7160e01b81526012600452602481fd5b500490565b60008160001904831182151516156117fd576117fd611834565b500290565b60008282101561181457611814611834565b500390565b600060001982141561182d5761182d611834565b5060010190565b634e487b7160e01b600052601160045260246000fd5b6001600160a01b03811681146110da57600080fdfea264697066735822122097be7574ab16cd7680989425fb5e031d0ba12e34c32cf1b4ee1a6f74abb86e7d64736f6c63430008040033",
  "linkReferences": {},
  "deployedLinkReferences": {}
}