{
  "_format": "hh-sol-artifact-1",
  "contractName": "ComplexRewarder",
  "sourceName": "contracts/farming/ComplexRewarder.sol",
  "abi": [
    {
      "inputs": [
        {
          "internalType": "contract IERC20",
          "name": "_rewardToken",
          "type": "address"
        },
        {
          "internalType": "contract IERC20",
          "name": "_lpToken",
          "type": "address"
        },
        {
          "internalType": "uint256",
          "name": "_tokenPerBlock",
          "type": "uint256"
        },
        {
          "internalType": "contract IMasterChefV2",
          "name": "_mcv2",
          "type": "address"
        }
      ],
      "stateMutability": "nonpayable",
      "type": "constructor"
    },
    {
      "anonymous": false,
      "inputs": [
        {
          "indexed": false,
          "internalType": "uint256",
          "name": "oldAllocPoint",
          "type": "uint256"
        },
        {
          "indexed": false,
          "internalType": "uint256",
          "name": "newAllocPoint",
          "type": "uint256"
        }
      ],
      "name": "AllocPointUpdated",
      "type": "event"
    },
    {
      "anonymous": false,
      "inputs": [
        {
          "indexed": true,
          "internalType": "address",
          "name": "user",
          "type": "address"
        },
        {
          "indexed": false,
          "internalType": "uint256",
          "name": "amount",
          "type": "uint256"
        }
      ],
      "name": "OnReward",
      "type": "event"
    },
    {
      "anonymous": false,
      "inputs": [
        {
          "indexed": true,
          "internalType": "address",
          "name": "previousOwner",
          "type": "address"
        },
        {
          "indexed": true,
          "internalType": "address",
          "name": "newOwner",
          "type": "address"
        }
      ],
      "name": "OwnershipTransferred",
      "type": "event"
    },
    {
      "anonymous": false,
      "inputs": [
        {
          "indexed": false,
          "internalType": "uint256",
          "name": "oldRate",
          "type": "uint256"
        },
        {
          "indexed": false,
          "internalType": "uint256",
          "name": "newRate",
          "type": "uint256"
        }
      ],
      "name": "RewardRateUpdated",
      "type": "event"
    },
    {
      "inputs": [],
      "name": "MCV2",
      "outputs": [
        {
          "internalType": "contract IMasterChefV2",
          "name": "",
          "type": "address"
        }
      ],
      "stateMutability": "view",
      "type": "function"
    },
    {
      "inputs": [],
      "name": "lpToken",
      "outputs": [
        {
          "internalType": "contract IERC20",
          "name": "",
          "type": "address"
        }
      ],
      "stateMutability": "view",
      "type": "function"
    },
    {
      "inputs": [
        {
          "internalType": "uint256",
          "name": "",
          "type": "uint256"
        },
        {
          "internalType": "address",
          "name": "_user",
          "type": "address"
        },
        {
          "internalType": "address",
          "name": "",
          "type": "address"
        },
        {
          "internalType": "uint256",
          "name": "",
          "type": "uint256"
        },
        {
          "internalType": "uint256",
          "name": "_lpAmount",
          "type": "uint256"
        }
      ],
      "name": "onKdxReward",
      "outputs": [],
      "stateMutability": "nonpayable",
      "type": "function"
    },
    {
      "inputs": [],
      "name": "owner",
      "outputs": [
        {
          "internalType": "address",
          "name": "",
          "type": "address"
        }
      ],
      "stateMutability": "view",
      "type": "function"
    },
    {
      "inputs": [
        {
          "internalType": "uint256",
          "name": "",
          "type": "uint256"
        },
        {
          "internalType": "address",
          "name": "_user",
          "type": "address"
        },
        {
          "internalType": "uint256",
          "name": "",
          "type": "uint256"
        }
      ],
      "name": "pendingTokens",
      "outputs": [
        {
          "internalType": "contract IERC20[]",
          "name": "rewardTokens",
          "type": "address[]"
        },
        {
          "internalType": "uint256[]",
          "name": "rewardAmounts",
          "type": "uint256[]"
        }
      ],
      "stateMutability": "view",
      "type": "function"
    },
    {
      "inputs": [],
      "name": "poolInfo",
      "outputs": [
        {
          "internalType": "uint256",
          "name": "accTokenPerShare",
          "type": "uint256"
        },
        {
          "internalType": "uint256",
          "name": "lastRewardBlock",
          "type": "uint256"
        }
      ],
      "stateMutability": "view",
      "type": "function"
    },
    {
      "inputs": [
        {
          "internalType": "address",
          "name": "token",
          "type": "address"
        },
        {
          "internalType": "uint256",
          "name": "amount",
          "type": "uint256"
        },
        {
          "internalType": "address payable",
          "name": "to",
          "type": "address"
        }
      ],
      "name": "reclaimTokens",
      "outputs": [],
      "stateMutability": "nonpayable",
      "type": "function"
    },
    {
      "inputs": [],
      "name": "renounceOwnership",
      "outputs": [],
      "stateMutability": "nonpayable",
      "type": "function"
    },
    {
      "inputs": [],
      "name": "rewardToken",
      "outputs": [
        {
          "internalType": "contract IERC20",
          "name": "",
          "type": "address"
        }
      ],
      "stateMutability": "view",
      "type": "function"
    },
    {
      "inputs": [
        {
          "internalType": "uint256",
          "name": "_tokenPerBlock",
          "type": "uint256"
        }
      ],
      "name": "setRewardRate",
      "outputs": [],
      "stateMutability": "nonpayable",
      "type": "function"
    },
    {
      "inputs": [],
      "name": "tokenPerBlock",
      "outputs": [
        {
          "internalType": "uint256",
          "name": "",
          "type": "uint256"
        }
      ],
      "stateMutability": "view",
      "type": "function"
    },
    {
      "inputs": [
        {
          "internalType": "address",
          "name": "newOwner",
          "type": "address"
        }
      ],
      "name": "transferOwnership",
      "outputs": [],
      "stateMutability": "nonpayable",
      "type": "function"
    },
    {
      "inputs": [],
      "name": "updatePool",
      "outputs": [
        {
          "components": [
            {
              "internalType": "uint256",
              "name": "accTokenPerShare",
              "type": "uint256"
            },
            {
              "internalType": "uint256",
              "name": "lastRewardBlock",
              "type": "uint256"
            }
          ],
          "internalType": "struct ComplexRewarder.PoolInfo",
          "name": "pool",
          "type": "tuple"
        }
      ],
      "stateMutability": "nonpayable",
      "type": "function"
    },
    {
      "inputs": [
        {
          "internalType": "address",
          "name": "",
          "type": "address"
        }
      ],
      "name": "userInfo",
      "outputs": [
        {
          "internalType": "uint256",
          "name": "amount",
          "type": "uint256"
        },
        {
          "internalType": "uint256",
          "name": "rewardDebt",
          "type": "uint256"
        }
      ],
      "stateMutability": "view",
      "type": "function"
    }
  ],
  "bytecode": "0x60e06040523480156200001157600080fd5b50604051620023b8380380620023b883398181016040528101906200003791906200024d565b620000576200004b6200013c60201b60201c565b6200014460201b60201c565b8373ffffffffffffffffffffffffffffffffffffffff1660808173ffffffffffffffffffffffffffffffffffffffff1660601b815250508273ffffffffffffffffffffffffffffffffffffffff1660a08173ffffffffffffffffffffffffffffffffffffffff1660601b81525050816004819055508073ffffffffffffffffffffffffffffffffffffffff1660c08173ffffffffffffffffffffffffffffffffffffffff1660601b815250506040518060400160405280600081526020014381525060016000820151816000015560208201518160010155905050505050506200036d565b600033905090565b60008060009054906101000a900473ffffffffffffffffffffffffffffffffffffffff169050816000806101000a81548173ffffffffffffffffffffffffffffffffffffffff021916908373ffffffffffffffffffffffffffffffffffffffff1602179055508173ffffffffffffffffffffffffffffffffffffffff168173ffffffffffffffffffffffffffffffffffffffff167f8be0079c531659141344cd1fd0a4f28419497f9722a3daafe3b4186f6b6457e060405160405180910390a35050565b60008151905062000219816200031f565b92915050565b600081519050620002308162000339565b92915050565b600081519050620002478162000353565b92915050565b600080600080608085870312156200026457600080fd5b6000620002748782880162000208565b9450506020620002878782880162000208565b93505060406200029a8782880162000236565b9250506060620002ad878288016200021f565b91505092959194509250565b6000620002c682620002f5565b9050919050565b6000620002da82620002b9565b9050919050565b6000620002ee82620002b9565b9050919050565b600073ffffffffffffffffffffffffffffffffffffffff82169050919050565b6000819050919050565b6200032a81620002cd565b81146200033657600080fd5b50565b6200034481620002e1565b81146200035057600080fd5b50565b6200035e8162000315565b81146200036a57600080fd5b50565b60805160601c60a05160601c60c05160601c611fd3620003e56000396000818161038801528181610b1501528181610d370152610f690152600081816102dc01528181610ad90152610cfb0152600081816104da01528181610592015281816105e20152818161095d0152610f8d0152611fd36000f3fe608060405234801561001057600080fd5b50600436106100ea5760003560e01c80639e447fc61161008c578063e3161ddd11610066578063e3161ddd14610228578063f2fde38b14610246578063f499b78e14610262578063f7c618c114610280576100ea565b80639e447fc6146101bf578063c1ea3868146101db578063d63b3c49146101f7576100ea565b80635fcbd285116100c85780635fcbd2851461015d578063715018a61461017b578063860cbfe4146101855780638da5cb5b146101a1576100ea565b80631959a002146100ef5780634198709a146101205780635a2f3d091461013e575b600080fd5b61010960048036038101906101049190611443565b61029e565b604051610117929190611a8d565b60405180910390f35b6101286102c2565b6040516101359190611a72565b60405180910390f35b6101466102c8565b604051610154929190611a8d565b60405180910390f35b6101656102da565b604051610172919061193f565b60405180910390f35b6101836102fe565b005b61019f600480360381019061019a9190611536565b610386565b005b6101a96106bd565b6040516101b691906118c4565b60405180910390f35b6101d960048036038101906101d491906114e4565b6106e6565b005b6101f560048036038101906101f0919061146c565b6107b6565b005b610211600480360381019061020c91906115ad565b6108e4565b60405161021f929190611908565b60405180910390f35b610230610cc0565b60405161023d9190611a57565b60405180910390f35b610260600480360381019061025b9190611443565b610e6f565b005b61026a610f67565b604051610277919061195a565b60405180910390f35b610288610f8b565b604051610295919061193f565b60405180910390f35b60036020528060005260406000206000915090508060000154908060010154905082565b60045481565b60018060000154908060010154905082565b7f000000000000000000000000000000000000000000000000000000000000000081565b610306610faf565b73ffffffffffffffffffffffffffffffffffffffff166103246106bd565b73ffffffffffffffffffffffffffffffffffffffff161461037a576040517f08c379a0000000000000000000000000000000000000000000000000000000008152600401610371906119f7565b60405180910390fd5b6103846000610fb7565b565b7f000000000000000000000000000000000000000000000000000000000000000073ffffffffffffffffffffffffffffffffffffffff163373ffffffffffffffffffffffffffffffffffffffff1614610414576040517f08c379a000000000000000000000000000000000000000000000000000000000815260040161040b906119d7565b60405180910390fd5b61041c610cc0565b50600060016040518060400160405290816000820154815260200160018201548152505090506000600360008773ffffffffffffffffffffffffffffffffffffffff1673ffffffffffffffffffffffffffffffffffffffff168152602001908152602001600020905060008082600001541115610629576104d4826001015464e8d4a510006104bc8660000151866000015461107b90919063ffffffff16565b6104c69190611bb0565b61109190919063ffffffff16565b905060007f000000000000000000000000000000000000000000000000000000000000000073ffffffffffffffffffffffffffffffffffffffff166370a08231306040518263ffffffff1660e01b815260040161053191906118c4565b60206040518083038186803b15801561054957600080fd5b505afa15801561055d573d6000803e3d6000fd5b505050506040513d601f19601f82011682018060405250810190610581919061150d565b9050808211156105db576105d688827f000000000000000000000000000000000000000000000000000000000000000073ffffffffffffffffffffffffffffffffffffffff166110a79092919063ffffffff16565b610627565b61062688837f000000000000000000000000000000000000000000000000000000000000000073ffffffffffffffffffffffffffffffffffffffff166110a79092919063ffffffff16565b5b505b83826000018190555064e8d4a510006106538460000151846000015461107b90919063ffffffff16565b61065d9190611bb0565b82600101819055508673ffffffffffffffffffffffffffffffffffffffff167fd1072bb52c3131d0c96197b73fb8a45637e30f8b6664fc142310cc9b242859b4826040516106ab9190611a72565b60405180910390a25050505050505050565b60008060009054906101000a900473ffffffffffffffffffffffffffffffffffffffff16905090565b6106ee610faf565b73ffffffffffffffffffffffffffffffffffffffff1661070c6106bd565b73ffffffffffffffffffffffffffffffffffffffff1614610762576040517f08c379a0000000000000000000000000000000000000000000000000000000008152600401610759906119f7565b60405180910390fd5b61076a610cc0565b5060006004549050816004819055507fc390a98ace15a7bb6bab611eedfdbb2685043b241a869420043cdfb23ccfee5081836040516107aa929190611a8d565b60405180910390a15050565b6107be610faf565b73ffffffffffffffffffffffffffffffffffffffff166107dc6106bd565b73ffffffffffffffffffffffffffffffffffffffff1614610832576040517f08c379a0000000000000000000000000000000000000000000000000000000008152600401610829906119f7565b60405180910390fd5b600073ffffffffffffffffffffffffffffffffffffffff168373ffffffffffffffffffffffffffffffffffffffff1614156108b3578073ffffffffffffffffffffffffffffffffffffffff166108fc839081150290604051600060405180830381858888f193505050501580156108ad573d6000803e3d6000fd5b506108df565b6108de81838573ffffffffffffffffffffffffffffffffffffffff166110a79092919063ffffffff16565b5b505050565b6060806000600167ffffffffffffffff81111561092a577f4e487b7100000000000000000000000000000000000000000000000000000000600052604160045260246000fd5b6040519080825280602002602001820160405280156109585781602001602082028036833780820191505090505b5090507f0000000000000000000000000000000000000000000000000000000000000000816000815181106109b6577f4e487b7100000000000000000000000000000000000000000000000000000000600052603260045260246000fd5b602002602001019073ffffffffffffffffffffffffffffffffffffffff16908173ffffffffffffffffffffffffffffffffffffffff16815250506000600167ffffffffffffffff811115610a33577f4e487b7100000000000000000000000000000000000000000000000000000000600052604160045260246000fd5b604051908082528060200260200182016040528015610a615781602001602082028036833780820191505090505b509050600060016040518060400160405290816000820154815260200160018201548152505090506000600360008973ffffffffffffffffffffffffffffffffffffffff1673ffffffffffffffffffffffffffffffffffffffff168152602001908152602001600020905060008260000151905060007f000000000000000000000000000000000000000000000000000000000000000073ffffffffffffffffffffffffffffffffffffffff166370a082317f00000000000000000000000000000000000000000000000000000000000000006040518263ffffffff1660e01b8152600401610b5091906118c4565b60206040518083038186803b158015610b6857600080fd5b505afa158015610b7c573d6000803e3d6000fd5b505050506040513d601f19601f82011682018060405250810190610ba0919061150d565b9050836020015143118015610bb6575060008114155b15610c29576000610bd485602001514361109190919063ffffffff16565b90506000610bed6004548361107b90919063ffffffff16565b9050610c2483610c0b64e8d4a510008461107b90919063ffffffff16565b610c159190611bb0565b8561112d90919063ffffffff16565b935050505b610c66836001015464e8d4a51000610c4e85876000015461107b90919063ffffffff16565b610c589190611bb0565b61109190919063ffffffff16565b85600081518110610ca0577f4e487b7100000000000000000000000000000000000000000000000000000000600052603260045260246000fd5b602002602001018181525050858597509750505050505050935093915050565b610cc86113c0565b60016040518060400160405290816000820154815260200160018201548152505090508060200151431115610e6c5760007f000000000000000000000000000000000000000000000000000000000000000073ffffffffffffffffffffffffffffffffffffffff166370a082317f00000000000000000000000000000000000000000000000000000000000000006040518263ffffffff1660e01b8152600401610d7291906118c4565b60206040518083038186803b158015610d8a57600080fd5b505afa158015610d9e573d6000803e3d6000fd5b505050506040513d601f19601f82011682018060405250810190610dc2919061150d565b90506000811115610e46576000610de683602001514361109190919063ffffffff16565b90506000610dff6004548361107b90919063ffffffff16565b9050610e3a83610e1d64e8d4a510008461107b90919063ffffffff16565b610e279190611bb0565b856000015161112d90919063ffffffff16565b84600001818152505050505b438260200181815250508160016000820151816000015560208201518160010155905050505b90565b610e77610faf565b73ffffffffffffffffffffffffffffffffffffffff16610e956106bd565b73ffffffffffffffffffffffffffffffffffffffff1614610eeb576040517f08c379a0000000000000000000000000000000000000000000000000000000008152600401610ee2906119f7565b60405180910390fd5b600073ffffffffffffffffffffffffffffffffffffffff168173ffffffffffffffffffffffffffffffffffffffff161415610f5b576040517f08c379a0000000000000000000000000000000000000000000000000000000008152600401610f5290611997565b60405180910390fd5b610f6481610fb7565b50565b7f000000000000000000000000000000000000000000000000000000000000000081565b7f000000000000000000000000000000000000000000000000000000000000000081565b600033905090565b60008060009054906101000a900473ffffffffffffffffffffffffffffffffffffffff169050816000806101000a81548173ffffffffffffffffffffffffffffffffffffffff021916908373ffffffffffffffffffffffffffffffffffffffff1602179055508173ffffffffffffffffffffffffffffffffffffffff168173ffffffffffffffffffffffffffffffffffffffff167f8be0079c531659141344cd1fd0a4f28419497f9722a3daafe3b4186f6b6457e060405160405180910390a35050565b600081836110899190611be1565b905092915050565b6000818361109f9190611c3b565b905092915050565b6111288363a9059cbb60e01b84846040516024016110c69291906118df565b604051602081830303815290604052907bffffffffffffffffffffffffffffffffffffffffffffffffffffffff19166020820180517bffffffffffffffffffffffffffffffffffffffffffffffffffffffff8381831617835250505050611143565b505050565b6000818361113b9190611b5a565b905092915050565b60006111a5826040518060400160405280602081526020017f5361666545524332303a206c6f772d6c6576656c2063616c6c206661696c65648152508573ffffffffffffffffffffffffffffffffffffffff1661120a9092919063ffffffff16565b905060008151111561120557808060200190518101906111c591906114bb565b611204576040517f08c379a00000000000000000000000000000000000000000000000000000000081526004016111fb90611a37565b60405180910390fd5b5b505050565b60606112198484600085611222565b90509392505050565b606082471015611267576040517f08c379a000000000000000000000000000000000000000000000000000000000815260040161125e906119b7565b60405180910390fd5b61127085611336565b6112af576040517f08c379a00000000000000000000000000000000000000000000000000000000081526004016112a690611a17565b60405180910390fd5b6000808673ffffffffffffffffffffffffffffffffffffffff1685876040516112d891906118ad565b60006040518083038185875af1925050503d8060008114611315576040519150601f19603f3d011682016040523d82523d6000602084013e61131a565b606091505b509150915061132a828286611359565b92505050949350505050565b6000808273ffffffffffffffffffffffffffffffffffffffff163b119050919050565b60608315611369578290506113b9565b60008351111561137c5782518084602001fd5b816040517f08c379a00000000000000000000000000000000000000000000000000000000081526004016113b09190611975565b60405180910390fd5b9392505050565b604051806040016040528060008152602001600081525090565b6000813590506113e981611f41565b92915050565b6000813590506113fe81611f58565b92915050565b60008151905061141381611f6f565b92915050565b60008135905061142881611f86565b92915050565b60008151905061143d81611f86565b92915050565b60006020828403121561145557600080fd5b6000611463848285016113da565b91505092915050565b60008060006060848603121561148157600080fd5b600061148f868287016113da565b93505060206114a086828701611419565b92505060406114b1868287016113ef565b9150509250925092565b6000602082840312156114cd57600080fd5b60006114db84828501611404565b91505092915050565b6000602082840312156114f657600080fd5b600061150484828501611419565b91505092915050565b60006020828403121561151f57600080fd5b600061152d8482850161142e565b91505092915050565b600080600080600060a0868803121561154e57600080fd5b600061155c88828901611419565b955050602061156d888289016113da565b945050604061157e888289016113da565b935050606061158f88828901611419565b92505060806115a088828901611419565b9150509295509295909350565b6000806000606084860312156115c257600080fd5b60006115d086828701611419565b93505060206115e1868287016113da565b92505060406115f286828701611419565b9150509250925092565b60006116088383611728565b60208301905092915050565b6000611620838361188f565b60208301905092915050565b61163581611c6f565b82525050565b600061164682611ad6565b6116508185611b1c565b935061165b83611ab6565b8060005b8381101561168c57815161167388826115fc565b975061167e83611b02565b92505060018101905061165f565b5085935050505092915050565b60006116a482611ae1565b6116ae8185611b2d565b93506116b983611ac6565b8060005b838110156116ea5781516116d18882611614565b97506116dc83611b0f565b9250506001810190506116bd565b5085935050505092915050565b600061170282611aec565b61170c8185611b3e565b935061171c818560208601611d11565b80840191505092915050565b61173181611cc9565b82525050565b61174081611cc9565b82525050565b61174f81611ced565b82525050565b600061176082611af7565b61176a8185611b49565b935061177a818560208601611d11565b61178381611da2565b840191505092915050565b600061179b602683611b49565b91506117a682611db3565b604082019050919050565b60006117be602683611b49565b91506117c982611e02565b604082019050919050565b60006117e1603083611b49565b91506117ec82611e51565b604082019050919050565b6000611804602083611b49565b915061180f82611ea0565b602082019050919050565b6000611827601d83611b49565b915061183282611ec9565b602082019050919050565b600061184a602a83611b49565b915061185582611ef2565b604082019050919050565b604082016000820151611876600085018261188f565b506020820151611889602085018261188f565b50505050565b61189881611cbf565b82525050565b6118a781611cbf565b82525050565b60006118b982846116f7565b915081905092915050565b60006020820190506118d9600083018461162c565b92915050565b60006040820190506118f4600083018561162c565b611901602083018461189e565b9392505050565b60006040820190508181036000830152611922818561163b565b905081810360208301526119368184611699565b90509392505050565b60006020820190506119546000830184611737565b92915050565b600060208201905061196f6000830184611746565b92915050565b6000602082019050818103600083015261198f8184611755565b905092915050565b600060208201905081810360008301526119b08161178e565b9050919050565b600060208201905081810360008301526119d0816117b1565b9050919050565b600060208201905081810360008301526119f0816117d4565b9050919050565b60006020820190508181036000830152611a10816117f7565b9050919050565b60006020820190508181036000830152611a308161181a565b9050919050565b60006020820190508181036000830152611a508161183d565b9050919050565b6000604082019050611a6c6000830184611860565b92915050565b6000602082019050611a87600083018461189e565b92915050565b6000604082019050611aa2600083018561189e565b611aaf602083018461189e565b9392505050565b6000819050602082019050919050565b6000819050602082019050919050565b600081519050919050565b600081519050919050565b600081519050919050565b600081519050919050565b6000602082019050919050565b6000602082019050919050565b600082825260208201905092915050565b600082825260208201905092915050565b600081905092915050565b600082825260208201905092915050565b6000611b6582611cbf565b9150611b7083611cbf565b9250827fffffffffffffffffffffffffffffffffffffffffffffffffffffffffffffffff03821115611ba557611ba4611d44565b5b828201905092915050565b6000611bbb82611cbf565b9150611bc683611cbf565b925082611bd657611bd5611d73565b5b828204905092915050565b6000611bec82611cbf565b9150611bf783611cbf565b9250817fffffffffffffffffffffffffffffffffffffffffffffffffffffffffffffffff0483118215151615611c3057611c2f611d44565b5b828202905092915050565b6000611c4682611cbf565b9150611c5183611cbf565b925082821015611c6457611c63611d44565b5b828203905092915050565b6000611c7a82611c9f565b9050919050565b6000611c8c82611c9f565b9050919050565b60008115159050919050565b600073ffffffffffffffffffffffffffffffffffffffff82169050919050565b6000819050919050565b6000611cd482611cdb565b9050919050565b6000611ce682611c9f565b9050919050565b6000611cf882611cff565b9050919050565b6000611d0a82611c9f565b9050919050565b60005b83811015611d2f578082015181840152602081019050611d14565b83811115611d3e576000848401525b50505050565b7f4e487b7100000000000000000000000000000000000000000000000000000000600052601160045260246000fd5b7f4e487b7100000000000000000000000000000000000000000000000000000000600052601260045260246000fd5b6000601f19601f8301169050919050565b7f4f776e61626c653a206e6577206f776e657220697320746865207a65726f206160008201527f6464726573730000000000000000000000000000000000000000000000000000602082015250565b7f416464726573733a20696e73756666696369656e742062616c616e636520666f60008201527f722063616c6c0000000000000000000000000000000000000000000000000000602082015250565b7f6f6e6c794d4356323a206f6e6c79204d6173746572436865662063616e20636160008201527f6c6c20746869732066756e6374696f6e00000000000000000000000000000000602082015250565b7f4f776e61626c653a2063616c6c6572206973206e6f7420746865206f776e6572600082015250565b7f416464726573733a2063616c6c20746f206e6f6e2d636f6e7472616374000000600082015250565b7f5361666545524332303a204552433230206f7065726174696f6e20646964206e60008201527f6f74207375636365656400000000000000000000000000000000000000000000602082015250565b611f4a81611c6f565b8114611f5557600080fd5b50565b611f6181611c81565b8114611f6c57600080fd5b50565b611f7881611c93565b8114611f8357600080fd5b50565b611f8f81611cbf565b8114611f9a57600080fd5b5056fea264697066735822122097ac6be2639b5faa3544f6b71bebcbc1925365c97fd6e4c80f0c5fe13dcc2cae64736f6c63430008040033",
  "linkReferences": {},
  "deployedLinkReferences": {}
}