{
  "_format": "hh-sol-artifact-1",
  "contractName": "ComplexRewarderTime",
  "sourceName": "contracts/farming/ComplexRewarder.sol",
  "abi": [
    {
      "inputs": [
        {
          "internalType": "address",
          "name": "_MASTERCHEF_V2",
          "type": "address"
        }
      ],
      "stateMutability": "nonpayable",
      "type": "constructor"
    },
    {
      "anonymous": false,
      "inputs": [
        {
          "indexed": true,
          "internalType": "contract IERC20",
          "name": "rewardToken",
          "type": "address"
        },
        {
          "indexed": false,
          "internalType": "uint256",
          "name": "rewardPerSecond",
          "type": "uint256"
        }
      ],
      "name": "LogInit",
      "type": "event"
    },
    {
      "anonymous": false,
      "inputs": [
        {
          "indexed": true,
          "internalType": "address",
          "name": "user",
          "type": "address"
        },
        {
          "indexed": true,
          "internalType": "uint256",
          "name": "pid",
          "type": "uint256"
        },
        {
          "indexed": false,
          "internalType": "uint256",
          "name": "amount",
          "type": "uint256"
        },
        {
          "indexed": true,
          "internalType": "address",
          "name": "to",
          "type": "address"
        }
      ],
      "name": "LogOnReward",
      "type": "event"
    },
    {
      "anonymous": false,
      "inputs": [
        {
          "indexed": true,
          "internalType": "uint256",
          "name": "pid",
          "type": "uint256"
        },
        {
          "indexed": false,
          "internalType": "uint256",
          "name": "allocPoint",
          "type": "uint256"
        }
      ],
      "name": "LogPoolAddition",
      "type": "event"
    },
    {
      "anonymous": false,
      "inputs": [
        {
          "indexed": false,
          "internalType": "uint256",
          "name": "rewardPerSecond",
          "type": "uint256"
        }
      ],
      "name": "LogRewardPerSecond",
      "type": "event"
    },
    {
      "anonymous": false,
      "inputs": [
        {
          "indexed": true,
          "internalType": "uint256",
          "name": "pid",
          "type": "uint256"
        },
        {
          "indexed": false,
          "internalType": "uint256",
          "name": "allocPoint",
          "type": "uint256"
        }
      ],
      "name": "LogSetPool",
      "type": "event"
    },
    {
      "anonymous": false,
      "inputs": [
        {
          "indexed": true,
          "internalType": "uint256",
          "name": "pid",
          "type": "uint256"
        },
        {
          "indexed": false,
          "internalType": "uint64",
          "name": "lastRewardTime",
          "type": "uint64"
        },
        {
          "indexed": false,
          "internalType": "uint256",
          "name": "lpSupply",
          "type": "uint256"
        },
        {
          "indexed": false,
          "internalType": "uint256",
          "name": "accTokenPerShare",
          "type": "uint256"
        }
      ],
      "name": "LogUpdatePool",
      "type": "event"
    },
    {
      "anonymous": false,
      "inputs": [
        {
          "indexed": true,
          "internalType": "address",
          "name": "previousOwner",
          "type": "address"
        },
        {
          "indexed": true,
          "internalType": "address",
          "name": "newOwner",
          "type": "address"
        }
      ],
      "name": "OwnershipTransferred",
      "type": "event"
    },
    {
      "inputs": [
        {
          "internalType": "uint256",
          "name": "allocPoint",
          "type": "uint256"
        },
        {
          "internalType": "uint256",
          "name": "_pid",
          "type": "uint256"
        }
      ],
      "name": "add",
      "outputs": [],
      "stateMutability": "nonpayable",
      "type": "function"
    },
    {
      "inputs": [
        {
          "internalType": "address",
          "name": "_rewardToken",
          "type": "address"
        },
        {
          "internalType": "uint256",
          "name": "_rewardPerSecond",
          "type": "uint256"
        }
      ],
      "name": "init",
      "outputs": [],
      "stateMutability": "nonpayable",
      "type": "function"
    },
    {
      "inputs": [
        {
          "internalType": "uint256[]",
          "name": "pids",
          "type": "uint256[]"
        }
      ],
      "name": "massUpdatePools",
      "outputs": [],
      "stateMutability": "nonpayable",
      "type": "function"
    },
    {
      "inputs": [
        {
          "internalType": "uint256",
          "name": "pid",
          "type": "uint256"
        },
        {
          "internalType": "address",
          "name": "_user",
          "type": "address"
        },
        {
          "internalType": "address",
          "name": "to",
          "type": "address"
        },
        {
          "internalType": "uint256",
          "name": "",
          "type": "uint256"
        },
        {
          "internalType": "uint256",
          "name": "lpToken",
          "type": "uint256"
        }
      ],
      "name": "onKdxReward",
      "outputs": [],
      "stateMutability": "nonpayable",
      "type": "function"
    },
    {
      "inputs": [],
      "name": "owner",
      "outputs": [
        {
          "internalType": "address",
          "name": "",
          "type": "address"
        }
      ],
      "stateMutability": "view",
      "type": "function"
    },
    {
      "inputs": [
        {
          "internalType": "uint256",
          "name": "_pid",
          "type": "uint256"
        },
        {
          "internalType": "address",
          "name": "_user",
          "type": "address"
        }
      ],
      "name": "pendingToken",
      "outputs": [
        {
          "internalType": "uint256",
          "name": "pending",
          "type": "uint256"
        }
      ],
      "stateMutability": "view",
      "type": "function"
    },
    {
      "inputs": [
        {
          "internalType": "uint256",
          "name": "pid",
          "type": "uint256"
        },
        {
          "internalType": "address",
          "name": "user",
          "type": "address"
        },
        {
          "internalType": "uint256",
          "name": "",
          "type": "uint256"
        }
      ],
      "name": "pendingTokens",
      "outputs": [
        {
          "internalType": "contract IERC20[]",
          "name": "rewardTokens",
          "type": "address[]"
        },
        {
          "internalType": "uint256[]",
          "name": "rewardAmounts",
          "type": "uint256[]"
        }
      ],
      "stateMutability": "view",
      "type": "function"
    },
    {
      "inputs": [
        {
          "internalType": "uint256",
          "name": "",
          "type": "uint256"
        }
      ],
      "name": "poolIds",
      "outputs": [
        {
          "internalType": "uint256",
          "name": "",
          "type": "uint256"
        }
      ],
      "stateMutability": "view",
      "type": "function"
    },
    {
      "inputs": [
        {
          "internalType": "uint256",
          "name": "",
          "type": "uint256"
        }
      ],
      "name": "poolInfo",
      "outputs": [
        {
          "internalType": "uint128",
          "name": "accTokenPerShare",
          "type": "uint128"
        },
        {
          "internalType": "uint64",
          "name": "lastRewardTime",
          "type": "uint64"
        },
        {
          "internalType": "uint64",
          "name": "allocPoint",
          "type": "uint64"
        }
      ],
      "stateMutability": "view",
      "type": "function"
    },
    {
      "inputs": [],
      "name": "poolLength",
      "outputs": [
        {
          "internalType": "uint256",
          "name": "pools",
          "type": "uint256"
        }
      ],
      "stateMutability": "view",
      "type": "function"
    },
    {
      "inputs": [],
      "name": "renounceOwnership",
      "outputs": [],
      "stateMutability": "nonpayable",
      "type": "function"
    },
    {
      "inputs": [],
      "name": "rewardPerSecond",
      "outputs": [
        {
          "internalType": "uint256",
          "name": "",
          "type": "uint256"
        }
      ],
      "stateMutability": "view",
      "type": "function"
    },
    {
      "inputs": [],
      "name": "rewardToken",
      "outputs": [
        {
          "internalType": "contract IERC20",
          "name": "",
          "type": "address"
        }
      ],
      "stateMutability": "view",
      "type": "function"
    },
    {
      "inputs": [
        {
          "internalType": "uint256",
          "name": "_pid",
          "type": "uint256"
        },
        {
          "internalType": "uint256",
          "name": "_allocPoint",
          "type": "uint256"
        }
      ],
      "name": "set",
      "outputs": [],
      "stateMutability": "nonpayable",
      "type": "function"
    },
    {
      "inputs": [
        {
          "internalType": "uint256",
          "name": "_rewardPerSecond",
          "type": "uint256"
        }
      ],
      "name": "setRewardPerSecond",
      "outputs": [],
      "stateMutability": "nonpayable",
      "type": "function"
    },
    {
      "inputs": [
        {
          "internalType": "address",
          "name": "newOwner",
          "type": "address"
        }
      ],
      "name": "transferOwnership",
      "outputs": [],
      "stateMutability": "nonpayable",
      "type": "function"
    },
    {
      "inputs": [
        {
          "internalType": "uint256",
          "name": "pid",
          "type": "uint256"
        }
      ],
      "name": "updatePool",
      "outputs": [
        {
          "components": [
            {
              "internalType": "uint128",
              "name": "accTokenPerShare",
              "type": "uint128"
            },
            {
              "internalType": "uint64",
              "name": "lastRewardTime",
              "type": "uint64"
            },
            {
              "internalType": "uint64",
              "name": "allocPoint",
              "type": "uint64"
            }
          ],
          "internalType": "struct ComplexRewarderTime.PoolInfo",
          "name": "pool",
          "type": "tuple"
        }
      ],
      "stateMutability": "nonpayable",
      "type": "function"
    },
    {
      "inputs": [
        {
          "internalType": "uint256",
          "name": "",
          "type": "uint256"
        },
        {
          "internalType": "address",
          "name": "",
          "type": "address"
        }
      ],
      "name": "userInfo",
      "outputs": [
        {
          "internalType": "uint256",
          "name": "amount",
          "type": "uint256"
        },
        {
          "internalType": "uint256",
          "name": "rewardDebt",
          "type": "uint256"
        }
      ],
      "stateMutability": "view",
      "type": "function"
    }
  ],
  "bytecode": "0x60a060405234801561001057600080fd5b506040516118ef3803806118ef83398101604081905261002f9161009d565b6100383361004d565b60601b6001600160601b0319166080526100cb565b600080546001600160a01b038381166001600160a01b0319831681178455604051919092169283917f8be0079c531659141344cd1fd0a4f28419497f9722a3daafe3b4186f6b6457e09190a35050565b6000602082840312156100ae578081fd5b81516001600160a01b03811681146100c4578182fd5b9392505050565b60805160601c6117ea610105600039600081816105a70152818161064501528181610830015281816108c90152610d0e01526117ea6000f3fe608060405234801561001057600080fd5b50600436106101165760003560e01c8063715018a6116100a25780638f10369a116100715780638f10369a146102bc57806393f1a40b146102c5578063d63b3c491461030c578063f2fde38b1461032d578063f7c618c11461034057600080fd5b8063715018a614610269578063771602f714610271578063860cbfe4146102845780638da5cb5b1461029757600080fd5b806348e43af4116100e957806348e43af4146101ce57806351eb05a6146101e157806357a5b58c1461023057806366da58151461024357806369883b4e1461025657600080fd5b8063081e3eda1461011b5780631526fe27146101325780631ab06ee5146101a6578063399ae724146101bb575b600080fd5b6003545b6040519081526020015b60405180910390f35b610177610140366004611511565b6002602052600090815260409020546001600160801b038116906001600160401b03600160801b8204811691600160c01b90041683565b604080516001600160801b0390941684526001600160401b039283166020850152911690820152606001610129565b6101b96101b43660046115f8565b610353565b005b6101b96101c936600461143b565b610412565b61011f6101dc366004611541565b610524565b6101f46101ef366004611511565b6107ad565b6040805182516001600160801b031681526020808401516001600160401b03908116918301919091529282015190921690820152606001610129565b6101b961023e366004611466565b610aae565b6101b9610251366004611511565b610b00565b61011f610264366004611511565b610b43565b6101b9610b64565b6101b961027f3660046115f8565b610b78565b6101b9610292366004611570565b610d03565b6000546001600160a01b03165b6040516001600160a01b039091168152602001610129565b61011f60065481565b6102f76102d3366004611541565b60046020908152600092835260408084209091529082529020805460019091015482565b60408051928352602083019190915201610129565b61031f61031a3660046115c1565b610ec0565b604051610129929190611652565b6101b961033b366004611418565b610f94565b6001546102a4906001600160a01b031681565b61035b61100d565b60008281526002602052604090205460055461039291839161038c91600160c01b90046001600160401b0316611067565b906110c3565b60055561039e8161111c565b6000838152600260205260409081902080546001600160401b0393909316600160c01b026001600160c01b03909316929092179091555182907f942cc7e17a17c164bd977f32ab8c54265d5b9d481e4e352bf874f1e568874e7c906104069084815260200190565b60405180910390a25050565b61041a61100d565b6001546001600160a01b0316156104785760405162461bcd60e51b815260206004820152601d60248201527f52657761726465723a20616c726561647920696e697469616c697a656400000060448201526064015b60405180910390fd5b600180546001600160a01b0319166001600160a01b03841690811790915560068290556104dd5760405162461bcd60e51b81526020600482015260136024820152722932bbb0b93232b91d103130b2103a37b5b2b760691b604482015260640161046f565b60016007819055546006546040519081526001600160a01b03909116907f8bcfbc0889bb93b7f9a92007988918c4d486dc8492930b93c9d4367268df1bee90602001610406565b6000828152600260209081526040808320815160608101835290546001600160801b0380821683526001600160401b03600160801b8304811684870152600160c01b9092049091168284015286855260048085528386206001600160a01b0380891688529552838620835194516378ed5d1f60e01b8152939590949092169286927f000000000000000000000000000000000000000000000000000000000000000016916378ed5d1f916105de918b910190815260200190565b60206040518083038186803b1580156105f657600080fd5b505afa15801561060a573d6000803e3d6000fd5b505050506040513d601f19601f8201168201806040525081019061062e91906114f5565b6040516370a0823160e01b81526001600160a01b037f00000000000000000000000000000000000000000000000000000000000000008116600483015291909116906370a082319060240160206040518083038186803b15801561069157600080fd5b505afa1580156106a5573d6000803e3d6000fd5b505050506040513d601f19601f820116820180604052508101906106c99190611529565b905083602001516001600160401b0316421180156106e657508015155b1561077557600061070d85602001516001600160401b03164261106790919063ffffffff16565b9050600060055461074087604001516001600160401b031661073a6006548661117990919063ffffffff16565b90611179565b61074a9190611718565b90506107708361075f8364e8d4a51000611179565b6107699190611718565b85906110c3565b935050505b600183015483546107a2919064e8d4a51000906107929086611179565b61079c9190611718565b90611067565b979650505050505050565b6040805160608082018352600080835260208084018290529284018190528481526002835283902083519182018452546001600160801b03811682526001600160401b03600160801b82048116938301849052600160c01b9091041692810192909252421115610aa9576040516378ed5d1f60e01b8152600481018390526000907f00000000000000000000000000000000000000000000000000000000000000006001600160a01b0316906378ed5d1f9060240160206040518083038186803b15801561087a57600080fd5b505afa15801561088e573d6000803e3d6000fd5b505050506040513d601f19601f820116820180604052508101906108b291906114f5565b6040516370a0823160e01b81526001600160a01b037f00000000000000000000000000000000000000000000000000000000000000008116600483015291909116906370a082319060240160206040518083038186803b15801561091557600080fd5b505afa158015610929573d6000803e3d6000fd5b505050506040513d601f19601f8201168201806040525081019061094d9190611529565b905080156109f457600061097783602001516001600160401b03164261106790919063ffffffff16565b905060006005546109a485604001516001600160401b031661073a6006548661117990919063ffffffff16565b6109ae9190611718565b90506109e66109d5846109c68464e8d4a51000611179565b6109d09190611718565b6111e9565b85516001600160801b031690611242565b6001600160801b0316845250505b6109fd4261111c565b6001600160401b039081166020848101918252600086815260028252604090819020865181549451838901516001600160801b039092166001600160c01b03199096168617600160801b918816918202176001600160c01b0316600160c01b9290971691909102959095179055805193845290830184905282015283907f0fc9545022a542541ad085d091fb09a2ab36fee366a4576ab63714ea907ad3539060600160405180910390a2505b919050565b8060005b81811015610afa57610ae9848483818110610add57634e487b7160e01b600052603260045260246000fd5b905060200201356107ad565b50610af38161176e565b9050610ab2565b50505050565b610b0861100d565b60068190556040518181527fde89cb17ac7f58f94792b3e91e086ed85403819c24ceea882491f960ccb1a2789060200160405180910390a150565b60038181548110610b5357600080fd5b600091825260209091200154905081565b610b6c61100d565b610b7660006112ad565b565b610b8061100d565b600081815260026020526040902054600160801b90046001600160401b031615610be25760405162461bcd60e51b8152602060048201526013602482015272506f6f6c20616c72656164792065786973747360681b604482015260640161046f565b6005544290610bf190846110c3565b60055560408051606081019091526000815260208101610c108361111c565b6001600160401b03168152602001610c278561111c565b6001600160401b0390811690915260008481526002602090815260408083208551815493870151968301518616600160c01b026001600160c01b0397909616600160801b026001600160c01b03199094166001600160801b03909116179290921794909416929092179091556003805460018101825591527fc2575a0e9e593c00f959f8c92f12db2869c3395a3b0502d05e2516446f71f85b018390555182907f38410508059921573ab9ebdca2a5034be738d236366b8f32de4434ea95ed3c8190610cf69086815260200190565b60405180910390a2505050565b336001600160a01b037f00000000000000000000000000000000000000000000000000000000000000001614610d855760405162461bcd60e51b815260206004820152602160248201527f4f6e6c79204d4356322063616e2063616c6c20746869732066756e6374696f6e6044820152601760f91b606482015260840161046f565b600754600114610dc05760405162461bcd60e51b81526020600482015260066024820152651313d0d2d15160d21b604482015260640161046f565b60026007556000610dd0866107ad565b60008781526004602090815260408083206001600160a01b038a168452909152812080549293509115610e3e57600182015483518354610e24929164e8d4a5100091610792916001600160801b0316611179565b600154909150610e3e906001600160a01b031687836112fd565b838255825164e8d4a5100090610e5e9086906001600160801b0316611179565b610e689190611718565b60018301556040518181526001600160a01b03808816918a918a16907f2ece88ca2bc08dd018db50e1d25a20bf1241e5fab1c396caa51f01a54bd2f75b9060200160405180910390a450506001600755505050505050565b604080516001808252818301909252606091829160009160208083019080368337505060015482519293506001600160a01b031691839150600090610f1557634e487b7160e01b600052603260045260246000fd5b6001600160a01b039290921660209283029190910190910152604080516001808252818301909252600091816020016020820280368337019050509050610f5c8787610524565b81600081518110610f7d57634e487b7160e01b600052603260045260246000fd5b602090810291909101015290969095509350505050565b610f9c61100d565b6001600160a01b0381166110015760405162461bcd60e51b815260206004820152602660248201527f4f776e61626c653a206e6577206f776e657220697320746865207a65726f206160448201526564647265737360d01b606482015260840161046f565b61100a816112ad565b50565b6000546001600160a01b03163314610b765760405162461bcd60e51b815260206004820181905260248201527f4f776e61626c653a2063616c6c6572206973206e6f7420746865206f776e6572604482015260640161046f565b6000826110748382611757565b91508111156110bd5760405162461bcd60e51b8152602060048201526015602482015274426f72696e674d6174683a20556e646572666c6f7760581b604482015260640161046f565b92915050565b6000816110d08185611700565b91508110156110bd5760405162461bcd60e51b8152602060048201526018602482015277426f72696e674d6174683a20416464204f766572666c6f7760401b604482015260640161046f565b60006001600160401b038211156111755760405162461bcd60e51b815260206004820152601b60248201527f426f72696e674d6174683a2075696e743634204f766572666c6f770000000000604482015260640161046f565b5090565b600081158061119d5750828261118f8183611738565b925061119b9083611718565b145b6110bd5760405162461bcd60e51b815260206004820152601860248201527f426f72696e674d6174683a204d756c204f766572666c6f770000000000000000604482015260640161046f565b60006001600160801b038211156111755760405162461bcd60e51b815260206004820152601c60248201527f426f72696e674d6174683a2075696e74313238204f766572666c6f7700000000604482015260640161046f565b60006001600160801b03821661125883856116d5565b9150816001600160801b031610156110bd5760405162461bcd60e51b8152602060048201526018602482015277426f72696e674d6174683a20416464204f766572666c6f7760401b604482015260640161046f565b600080546001600160a01b038381166001600160a01b0319831681178455604051919092169283917f8be0079c531659141344cd1fd0a4f28419497f9722a3daafe3b4186f6b6457e09190a35050565b604080516001600160a01b038481166024830152604480830185905283518084039091018152606490920183526020820180516001600160e01b031663a9059cbb60e01b17905291516000928392908716916113599190611619565b6000604051808303816000865af19150503d8060008114611396576040519150601f19603f3d011682016040523d82523d6000602084013e61139b565b606091505b50915091508180156113c55750805115806113c55750808060200190518101906113c591906114d5565b6114115760405162461bcd60e51b815260206004820152601c60248201527f426f72696e6745524332303a205472616e73666572206661696c656400000000604482015260640161046f565b5050505050565b600060208284031215611429578081fd5b81356114348161179f565b9392505050565b6000806040838503121561144d578081fd5b82356114588161179f565b946020939093013593505050565b60008060208385031215611478578182fd5b82356001600160401b038082111561148e578384fd5b818501915085601f8301126114a1578384fd5b8135818111156114af578485fd5b8660208260051b85010111156114c3578485fd5b60209290920196919550909350505050565b6000602082840312156114e6578081fd5b81518015158114611434578182fd5b600060208284031215611506578081fd5b81516114348161179f565b600060208284031215611522578081fd5b5035919050565b60006020828403121561153a578081fd5b5051919050565b60008060408385031215611553578182fd5b8235915060208301356115658161179f565b809150509250929050565b600080600080600060a08688031215611587578081fd5b8535945060208601356115998161179f565b935060408601356115a98161179f565b94979396509394606081013594506080013592915050565b6000806000606084860312156115d5578283fd5b8335925060208401356115e78161179f565b929592945050506040919091013590565b6000806040838503121561160a578182fd5b50508035926020909101359150565b60008251815b81811015611639576020818601810151858301520161161f565b818111156116475782828501525b509190910192915050565b604080825283519082018190526000906020906060840190828701845b828110156116945781516001600160a01b03168452928401929084019060010161166f565b50505083810382850152845180825285830191830190845b818110156116c8578351835292840192918401916001016116ac565b5090979650505050505050565b60006001600160801b038083168185168083038211156116f7576116f7611789565b01949350505050565b6000821982111561171357611713611789565b500190565b60008261173357634e487b7160e01b81526012600452602481fd5b500490565b600081600019048311821515161561175257611752611789565b500290565b60008282101561176957611769611789565b500390565b600060001982141561178257611782611789565b5060010190565b634e487b7160e01b600052601160045260246000fd5b6001600160a01b038116811461100a57600080fdfea264697066735822122073b4b734abf4a661d6828c4ae15ceb05bef365fa6d8c12782eb28a730dc214bf64736f6c63430008040033",
  "linkReferences": {},
  "deployedLinkReferences": {}
}