{
  "_format": "hh-sol-artifact-1",
  "contractName": "BoringHelper",
  "sourceName": "contracts/exchange/BoringHelper.sol",
  "abi": [
    {
      "inputs": [
        {
          "internalType": "contract IKaiDexFactory",
          "name": "factory",
          "type": "address"
        },
        {
          "internalType": "uint256",
          "name": "fromID",
          "type": "uint256"
        },
        {
          "internalType": "uint256",
          "name": "toID",
          "type": "uint256"
        }
      ],
      "name": "getPairs",
      "outputs": [
        {
          "components": [
            {
              "internalType": "contract IPair",
              "name": "token",
              "type": "address"
            },
            {
              "internalType": "contract IERC20",
              "name": "token0",
              "type": "address"
            },
            {
              "internalType": "contract IERC20",
              "name": "token1",
              "type": "address"
            },
            {
              "internalType": "uint256",
              "name": "totalSupply",
              "type": "uint256"
            }
          ],
          "internalType": "struct BoringHelper.PairBase[]",
          "name": "",
          "type": "tuple[]"
        }
      ],
      "stateMutability": "view",
      "type": "function"
    },
    {
      "inputs": [
        {
          "internalType": "address[]",
          "name": "addresses",
          "type": "address[]"
        }
      ],
      "name": "getTokenInfo",
      "outputs": [
        {
          "components": [
            {
              "internalType": "contract IKRC20",
              "name": "token",
              "type": "address"
            },
            {
              "internalType": "uint256",
              "name": "decimals",
              "type": "uint256"
            },
            {
              "internalType": "string",
              "name": "name",
              "type": "string"
            },
            {
              "internalType": "string",
              "name": "symbol",
              "type": "string"
            }
          ],
          "internalType": "struct BoringHelper.TokenInfo[]",
          "name": "",
          "type": "tuple[]"
        }
      ],
      "stateMutability": "view",
      "type": "function"
    },
    {
      "inputs": [
        {
          "internalType": "address",
          "name": "who",
          "type": "address"
        },
        {
          "internalType": "contract IPair[]",
          "name": "addresses",
          "type": "address[]"
        }
      ],
      "name": "pollPairs",
      "outputs": [
        {
          "components": [
            {
              "internalType": "contract IPair",
              "name": "token",
              "type": "address"
            },
            {
              "internalType": "uint256",
              "name": "reserve0",
              "type": "uint256"
            },
            {
              "internalType": "uint256",
              "name": "reserve1",
              "type": "uint256"
            },
            {
              "internalType": "uint256",
              "name": "totalSupply",
              "type": "uint256"
            },
            {
              "internalType": "uint256",
              "name": "balance",
              "type": "uint256"
            }
          ],
          "internalType": "struct BoringHelper.PairPoll[]",
          "name": "",
          "type": "tuple[]"
        }
      ],
      "stateMutability": "view",
      "type": "function"
    }
  ],
  "bytecode": "0x608060405234801561001057600080fd5b50611ae8806100206000396000f3fe608060405234801561001057600080fd5b50600436106100415760003560e01c80634a69ac50146100465780637e3e259614610076578063a959dd80146100a6575b600080fd5b610060600480360381019061005b91906110e5565b6100d6565b60405161006d919061163b565b60405180910390f35b610090600480360381019061008b9190611153565b6104b0565b60405161009d91906115f7565b60405180910390f35b6100c060048036038101906100bb919061108d565b610930565b6040516100cd9190611619565b60405180910390f35b606060008383905067ffffffffffffffff81111561011d577f4e487b7100000000000000000000000000000000000000000000000000000000600052604160045260246000fd5b60405190808252806020026020018201604052801561015657816020015b610143610d80565b81526020019060019003908161013b5790505b50905060005b848490508110156104a55760008585838181106101a2577f4e487b7100000000000000000000000000000000000000000000000000000000600052603260045260246000fd5b90506020020160208101906101b7919061103b565b9050808383815181106101f3577f4e487b7100000000000000000000000000000000000000000000000000000000600052603260045260246000fd5b60200260200101516000019073ffffffffffffffffffffffffffffffffffffffff16908173ffffffffffffffffffffffffffffffffffffffff16815250508073ffffffffffffffffffffffffffffffffffffffff166306fdde036040518163ffffffff1660e01b815260040160006040518083038186803b15801561027757600080fd5b505afa15801561028b573d6000803e3d6000fd5b505050506040513d6000823e3d601f19601f820116820180604052508101906102b491906111cb565b8383815181106102ed577f4e487b7100000000000000000000000000000000000000000000000000000000600052603260045260246000fd5b6020026020010151604001819052508073ffffffffffffffffffffffffffffffffffffffff166395d89b416040518163ffffffff1660e01b815260040160006040518083038186803b15801561034257600080fd5b505afa158015610356573d6000803e3d6000fd5b505050506040513d6000823e3d601f19601f8201168201806040525081019061037f91906111cb565b8383815181106103b8577f4e487b7100000000000000000000000000000000000000000000000000000000600052603260045260246000fd5b6020026020010151606001819052508073ffffffffffffffffffffffffffffffffffffffff1663313ce5676040518163ffffffff1660e01b815260040160206040518083038186803b15801561040d57600080fd5b505afa158015610421573d6000803e3d6000fd5b505050506040513d601f19601f820116820180604052508101906104459190611284565b60ff16838381518110610481577f4e487b7100000000000000000000000000000000000000000000000000000000600052603260045260246000fd5b6020026020010151602001818152505050808061049d90611942565b91505061015c565b508091505092915050565b6060600083836104c09190611795565b67ffffffffffffffff8111156104ff577f4e487b7100000000000000000000000000000000000000000000000000000000600052604160045260246000fd5b60405190808252806020026020018201604052801561053857816020015b610525610dbe565b81526020019060019003908161051d5790505b50905060008490505b838110156109245760008673ffffffffffffffffffffffffffffffffffffffff16631e3dd18b836040518263ffffffff1660e01b8152600401610584919061165d565b60206040518083038186803b15801561059c57600080fd5b505afa1580156105b0573d6000803e3d6000fd5b505050506040513d601f19601f820116820180604052508101906105d49190611064565b9050600086836105e49190611795565b905081848281518110610620577f4e487b7100000000000000000000000000000000000000000000000000000000600052603260045260246000fd5b60200260200101516000019073ffffffffffffffffffffffffffffffffffffffff16908173ffffffffffffffffffffffffffffffffffffffff16815250508173ffffffffffffffffffffffffffffffffffffffff16630dfe16816040518163ffffffff1660e01b815260040160206040518083038186803b1580156106a457600080fd5b505afa1580156106b8573d6000803e3d6000fd5b505050506040513d601f19601f820116820180604052508101906106dc919061112a565b848281518110610715577f4e487b7100000000000000000000000000000000000000000000000000000000600052603260045260246000fd5b60200260200101516020019073ffffffffffffffffffffffffffffffffffffffff16908173ffffffffffffffffffffffffffffffffffffffff16815250508173ffffffffffffffffffffffffffffffffffffffff1663d21220a76040518163ffffffff1660e01b815260040160206040518083038186803b15801561079957600080fd5b505afa1580156107ad573d6000803e3d6000fd5b505050506040513d601f19601f820116820180604052508101906107d1919061112a565b84828151811061080a577f4e487b7100000000000000000000000000000000000000000000000000000000600052603260045260246000fd5b60200260200101516040019073ffffffffffffffffffffffffffffffffffffffff16908173ffffffffffffffffffffffffffffffffffffffff16815250508173ffffffffffffffffffffffffffffffffffffffff166318160ddd6040518163ffffffff1660e01b815260040160206040518083038186803b15801561088e57600080fd5b505afa1580156108a2573d6000803e3d6000fd5b505050506040513d601f19601f820116820180604052508101906108c6919061125b565b8482815181106108ff577f4e487b7100000000000000000000000000000000000000000000000000000000600052603260045260246000fd5b602002602001015160600181815250505050808061091c90611942565b915050610541565b50809150509392505050565b606060008383905067ffffffffffffffff811115610977577f4e487b7100000000000000000000000000000000000000000000000000000000600052604160045260246000fd5b6040519080825280602002602001820160405280156109b057816020015b61099d610e28565b8152602001906001900390816109955790505b50905060005b84849050811015610d745760008585838181106109fc577f4e487b7100000000000000000000000000000000000000000000000000000000600052603260045260246000fd5b9050602002016020810190610a1191906111a2565b905080838381518110610a4d577f4e487b7100000000000000000000000000000000000000000000000000000000600052603260045260246000fd5b60200260200101516000019073ffffffffffffffffffffffffffffffffffffffff16908173ffffffffffffffffffffffffffffffffffffffff16815250506000808273ffffffffffffffffffffffffffffffffffffffff16630902f1ac6040518163ffffffff1660e01b815260040160606040518083038186803b158015610ad457600080fd5b505afa158015610ae8573d6000803e3d6000fd5b505050506040513d601f19601f82011682018060405250810190610b0c919061120c565b506dffffffffffffffffffffffffffff1691506dffffffffffffffffffffffffffff16915081858581518110610b6b577f4e487b7100000000000000000000000000000000000000000000000000000000600052603260045260246000fd5b6020026020010151602001818152505080858581518110610bb5577f4e487b7100000000000000000000000000000000000000000000000000000000600052603260045260246000fd5b602002602001015160400181815250508273ffffffffffffffffffffffffffffffffffffffff166370a082318a6040518263ffffffff1660e01b8152600401610bfe91906115dc565b60206040518083038186803b158015610c1657600080fd5b505afa158015610c2a573d6000803e3d6000fd5b505050506040513d601f19601f82011682018060405250810190610c4e919061125b565b858581518110610c87577f4e487b7100000000000000000000000000000000000000000000000000000000600052603260045260246000fd5b602002602001015160800181815250508273ffffffffffffffffffffffffffffffffffffffff166318160ddd6040518163ffffffff1660e01b815260040160206040518083038186803b158015610cdd57600080fd5b505afa158015610cf1573d6000803e3d6000fd5b505050506040513d601f19601f82011682018060405250810190610d15919061125b565b858581518110610d4e577f4e487b7100000000000000000000000000000000000000000000000000000000600052603260045260246000fd5b602002602001015160600181815250505050508080610d6c90611942565b9150506109b6565b50809150509392505050565b6040518060800160405280600073ffffffffffffffffffffffffffffffffffffffff1681526020016000815260200160608152602001606081525090565b6040518060800160405280600073ffffffffffffffffffffffffffffffffffffffff168152602001600073ffffffffffffffffffffffffffffffffffffffff168152602001600073ffffffffffffffffffffffffffffffffffffffff168152602001600081525090565b6040518060a00160405280600073ffffffffffffffffffffffffffffffffffffffff168152602001600081526020016000815260200160008152602001600081525090565b6000610e80610e7b8461169d565b611678565b905082815260208101848484011115610e9857600080fd5b610ea38482856118de565b509392505050565b600081359050610eba816119fa565b92915050565b600081519050610ecf816119fa565b92915050565b60008083601f840112610ee757600080fd5b8235905067ffffffffffffffff811115610f0057600080fd5b602083019150836020820283011115610f1857600080fd5b9250929050565b60008083601f840112610f3157600080fd5b8235905067ffffffffffffffff811115610f4a57600080fd5b602083019150836020820283011115610f6257600080fd5b9250929050565b600081519050610f7881611a11565b92915050565b600081359050610f8d81611a28565b92915050565b600081359050610fa281611a3f565b92915050565b600082601f830112610fb957600080fd5b8151610fc9848260208601610e6d565b91505092915050565b600081519050610fe181611a56565b92915050565b600081359050610ff681611a6d565b92915050565b60008151905061100b81611a6d565b92915050565b60008151905061102081611a84565b92915050565b60008151905061103581611a9b565b92915050565b60006020828403121561104d57600080fd5b600061105b84828501610eab565b91505092915050565b60006020828403121561107657600080fd5b600061108484828501610ec0565b91505092915050565b6000806000604084860312156110a257600080fd5b60006110b086828701610eab565b935050602084013567ffffffffffffffff8111156110cd57600080fd5b6110d986828701610f1f565b92509250509250925092565b600080602083850312156110f857600080fd5b600083013567ffffffffffffffff81111561111257600080fd5b61111e85828601610ed5565b92509250509250929050565b60006020828403121561113c57600080fd5b600061114a84828501610f69565b91505092915050565b60008060006060848603121561116857600080fd5b600061117686828701610f7e565b935050602061118786828701610fe7565b925050604061119886828701610fe7565b9150509250925092565b6000602082840312156111b457600080fd5b60006111c284828501610f93565b91505092915050565b6000602082840312156111dd57600080fd5b600082015167ffffffffffffffff8111156111f757600080fd5b61120384828501610fa8565b91505092915050565b60008060006060848603121561122157600080fd5b600061122f86828701610fd2565b935050602061124086828701610fd2565b925050604061125186828701611011565b9150509250925092565b60006020828403121561126d57600080fd5b600061127b84828501610ffc565b91505092915050565b60006020828403121561129657600080fd5b60006112a484828501611026565b91505092915050565b60006112b98383611497565b60808301905092915050565b60006112d183836114ec565b60a08301905092915050565b60006112e98383611554565b905092915050565b6112fa816117c9565b82525050565b600061130b826116fe565b6113158185611751565b9350611320836116ce565b8060005b8381101561135157815161133888826112ad565b97506113438361172a565b925050600181019050611324565b5085935050505092915050565b600061136982611709565b6113738185611762565b935061137e836116de565b8060005b838110156113af57815161139688826112c5565b97506113a183611737565b925050600181019050611382565b5085935050505092915050565b60006113c782611714565b6113d18185611773565b9350836020820285016113e3856116ee565b8060005b8581101561141f578484038952815161140085826112dd565b945061140b83611744565b925060208a019950506001810190506113e7565b50829750879550505050505092915050565b61143a81611872565b82525050565b61144981611896565b82525050565b611458816118ba565b82525050565b60006114698261171f565b6114738185611784565b93506114838185602086016118de565b61148c816119e9565b840191505092915050565b6080820160008201516114ad600085018261144f565b5060208201516114c06020850182611431565b5060408201516114d36040850182611431565b5060608201516114e660608501826115be565b50505050565b60a082016000820151611502600085018261144f565b50602082015161151560208501826115be565b50604082015161152860408501826115be565b50606082015161153b60608501826115be565b50608082015161154e60808501826115be565b50505050565b600060808301600083015161156c6000860182611440565b50602083015161157f60208601826115be565b5060408301518482036040860152611597828261145e565b915050606083015184820360608601526115b1828261145e565b9150508091505092915050565b6115c78161184b565b82525050565b6115d68161184b565b82525050565b60006020820190506115f160008301846112f1565b92915050565b600060208201905081810360008301526116118184611300565b905092915050565b60006020820190508181036000830152611633818461135e565b905092915050565b6000602082019050818103600083015261165581846113bc565b905092915050565b600060208201905061167260008301846115cd565b92915050565b6000611682611693565b905061168e8282611911565b919050565b6000604051905090565b600067ffffffffffffffff8211156116b8576116b76119ba565b5b6116c1826119e9565b9050602081019050919050565b6000819050602082019050919050565b6000819050602082019050919050565b6000819050602082019050919050565b600081519050919050565b600081519050919050565b600081519050919050565b600081519050919050565b6000602082019050919050565b6000602082019050919050565b6000602082019050919050565b600082825260208201905092915050565b600082825260208201905092915050565b600082825260208201905092915050565b600082825260208201905092915050565b60006117a08261184b565b91506117ab8361184b565b9250828210156117be576117bd61198b565b5b828203905092915050565b60006117d48261182b565b9050919050565b60006117e6826117c9565b9050919050565b60006117f8826117c9565b9050919050565b600061180a826117c9565b9050919050565b60006dffffffffffffffffffffffffffff82169050919050565b600073ffffffffffffffffffffffffffffffffffffffff82169050919050565b6000819050919050565b600063ffffffff82169050919050565b600060ff82169050919050565b600061187d82611884565b9050919050565b600061188f8261182b565b9050919050565b60006118a1826118a8565b9050919050565b60006118b38261182b565b9050919050565b60006118c5826118cc565b9050919050565b60006118d78261182b565b9050919050565b60005b838110156118fc5780820151818401526020810190506118e1565b8381111561190b576000848401525b50505050565b61191a826119e9565b810181811067ffffffffffffffff82111715611939576119386119ba565b5b80604052505050565b600061194d8261184b565b91507fffffffffffffffffffffffffffffffffffffffffffffffffffffffffffffffff8214156119805761197f61198b565b5b600182019050919050565b7f4e487b7100000000000000000000000000000000000000000000000000000000600052601160045260246000fd5b7f4e487b7100000000000000000000000000000000000000000000000000000000600052604160045260246000fd5b6000601f19601f8301169050919050565b611a03816117c9565b8114611a0e57600080fd5b50565b611a1a816117db565b8114611a2557600080fd5b50565b611a31816117ed565b8114611a3c57600080fd5b50565b611a48816117ff565b8114611a5357600080fd5b50565b611a5f81611811565b8114611a6a57600080fd5b50565b611a768161184b565b8114611a8157600080fd5b50565b611a8d81611855565b8114611a9857600080fd5b50565b611aa481611865565b8114611aaf57600080fd5b5056fea2646970667358221220d4090f58075558500c8231fa9b21b5f9e9c874951416390e5d7c93734770b4ad64736f6c63430008040033",
  "linkReferences": {},
  "deployedLinkReferences": {}
}