{
  "_format": "hh-sol-artifact-1",
  "contractName": "BoringHelper",
  "sourceName": "contracts/exchange/BoringHelper.sol",
  "abi": [
    {
      "inputs": [
        {
          "internalType": "contract IKaiDexFactory",
          "name": "factory",
          "type": "address"
        },
        {
          "internalType": "uint256",
          "name": "fromID",
          "type": "uint256"
        },
        {
          "internalType": "uint256",
          "name": "toID",
          "type": "uint256"
        }
      ],
      "name": "getPairs",
      "outputs": [
        {
          "components": [
            {
              "internalType": "contract IPair",
              "name": "token",
              "type": "address"
            },
            {
              "internalType": "contract IERC20",
              "name": "token0",
              "type": "address"
            },
            {
              "internalType": "contract IERC20",
              "name": "token1",
              "type": "address"
            },
            {
              "internalType": "uint256",
              "name": "totalSupply",
              "type": "uint256"
            }
          ],
          "internalType": "struct BoringHelper.PairBase[]",
          "name": "",
          "type": "tuple[]"
        }
      ],
      "stateMutability": "view",
      "type": "function"
    },
    {
      "inputs": [
        {
          "internalType": "address[]",
          "name": "addresses",
          "type": "address[]"
        }
      ],
      "name": "getTokenInfo",
      "outputs": [
        {
          "components": [
            {
              "internalType": "contract IKRC20",
              "name": "token",
              "type": "address"
            },
            {
              "internalType": "uint256",
              "name": "decimals",
              "type": "uint256"
            },
            {
              "internalType": "string",
              "name": "name",
              "type": "string"
            },
            {
              "internalType": "string",
              "name": "symbol",
              "type": "string"
            },
            {
              "internalType": "bytes32",
              "name": "DOMAIN_SEPARATOR",
              "type": "bytes32"
            }
          ],
          "internalType": "struct BoringHelper.TokenInfo[]",
          "name": "",
          "type": "tuple[]"
        }
      ],
      "stateMutability": "view",
      "type": "function"
    },
    {
      "inputs": [
        {
          "internalType": "address",
          "name": "who",
          "type": "address"
        },
        {
          "internalType": "contract IPair[]",
          "name": "addresses",
          "type": "address[]"
        }
      ],
      "name": "pollPairs",
      "outputs": [
        {
          "components": [
            {
              "internalType": "contract IPair",
              "name": "token",
              "type": "address"
            },
            {
              "internalType": "uint256",
              "name": "reserve0",
              "type": "uint256"
            },
            {
              "internalType": "uint256",
              "name": "reserve1",
              "type": "uint256"
            },
            {
              "internalType": "uint256",
              "name": "totalSupply",
              "type": "uint256"
            },
            {
              "internalType": "uint256",
              "name": "balance",
              "type": "uint256"
            }
          ],
          "internalType": "struct BoringHelper.PairPoll[]",
          "name": "",
          "type": "tuple[]"
        }
      ],
      "stateMutability": "view",
      "type": "function"
    }
  ],
  "bytecode": "0x608060405234801561001057600080fd5b50611c3a806100206000396000f3fe608060405234801561001057600080fd5b50600436106100415760003560e01c80634a69ac50146100465780637e3e259614610076578063a959dd80146100a6575b600080fd5b610060600480360381019061005b91906111cb565b6100d6565b60405161006d919061176c565b60405180910390f35b610090600480360381019061008b9190611262565b610577565b60405161009d9190611728565b60405180910390f35b6100c060048036038101906100bb9190611173565b6109f7565b6040516100cd919061174a565b60405180910390f35b606060008383905067ffffffffffffffff81111561011d577f4e487b7100000000000000000000000000000000000000000000000000000000600052604160045260246000fd5b60405190808252806020026020018201604052801561015657816020015b610143610e47565b81526020019060019003908161013b5790505b50905060005b8484905081101561056c5760008585838181106101a2577f4e487b7100000000000000000000000000000000000000000000000000000000600052603260045260246000fd5b90506020020160208101906101b79190611121565b9050808383815181106101f3577f4e487b7100000000000000000000000000000000000000000000000000000000600052603260045260246000fd5b60200260200101516000019073ffffffffffffffffffffffffffffffffffffffff16908173ffffffffffffffffffffffffffffffffffffffff16815250508073ffffffffffffffffffffffffffffffffffffffff166306fdde036040518163ffffffff1660e01b815260040160006040518083038186803b15801561027757600080fd5b505afa15801561028b573d6000803e3d6000fd5b505050506040513d6000823e3d601f19601f820116820180604052508101906102b491906112da565b8383815181106102ed577f4e487b7100000000000000000000000000000000000000000000000000000000600052603260045260246000fd5b6020026020010151604001819052508073ffffffffffffffffffffffffffffffffffffffff166395d89b416040518163ffffffff1660e01b815260040160006040518083038186803b15801561034257600080fd5b505afa158015610356573d6000803e3d6000fd5b505050506040513d6000823e3d601f19601f8201168201806040525081019061037f91906112da565b8383815181106103b8577f4e487b7100000000000000000000000000000000000000000000000000000000600052603260045260246000fd5b6020026020010151606001819052508073ffffffffffffffffffffffffffffffffffffffff1663313ce5676040518163ffffffff1660e01b815260040160206040518083038186803b15801561040d57600080fd5b505afa158015610421573d6000803e3d6000fd5b505050506040513d601f19601f820116820180604052508101906104459190611393565b60ff16838381518110610481577f4e487b7100000000000000000000000000000000000000000000000000000000600052603260045260246000fd5b602002602001015160200181815250508073ffffffffffffffffffffffffffffffffffffffff16633644e5156040518163ffffffff1660e01b815260040160206040518083038186803b1580156104d757600080fd5b505afa1580156104eb573d6000803e3d6000fd5b505050506040513d601f19601f8201168201806040525081019061050f9190611210565b838381518110610548577f4e487b7100000000000000000000000000000000000000000000000000000000600052603260045260246000fd5b6020026020010151608001818152505050808061056490611a7d565b91505061015c565b508091505092915050565b60606000838361058791906118c6565b67ffffffffffffffff8111156105c6577f4e487b7100000000000000000000000000000000000000000000000000000000600052604160045260246000fd5b6040519080825280602002602001820160405280156105ff57816020015b6105ec610e8f565b8152602001906001900390816105e45790505b50905060008490505b838110156109eb5760008673ffffffffffffffffffffffffffffffffffffffff16631e3dd18b836040518263ffffffff1660e01b815260040161064b919061178e565b60206040518083038186803b15801561066357600080fd5b505afa158015610677573d6000803e3d6000fd5b505050506040513d601f19601f8201168201806040525081019061069b919061114a565b9050600086836106ab91906118c6565b9050818482815181106106e7577f4e487b7100000000000000000000000000000000000000000000000000000000600052603260045260246000fd5b60200260200101516000019073ffffffffffffffffffffffffffffffffffffffff16908173ffffffffffffffffffffffffffffffffffffffff16815250508173ffffffffffffffffffffffffffffffffffffffff16630dfe16816040518163ffffffff1660e01b815260040160206040518083038186803b15801561076b57600080fd5b505afa15801561077f573d6000803e3d6000fd5b505050506040513d601f19601f820116820180604052508101906107a39190611239565b8482815181106107dc577f4e487b7100000000000000000000000000000000000000000000000000000000600052603260045260246000fd5b60200260200101516020019073ffffffffffffffffffffffffffffffffffffffff16908173ffffffffffffffffffffffffffffffffffffffff16815250508173ffffffffffffffffffffffffffffffffffffffff1663d21220a76040518163ffffffff1660e01b815260040160206040518083038186803b15801561086057600080fd5b505afa158015610874573d6000803e3d6000fd5b505050506040513d601f19601f820116820180604052508101906108989190611239565b8482815181106108d1577f4e487b7100000000000000000000000000000000000000000000000000000000600052603260045260246000fd5b60200260200101516040019073ffffffffffffffffffffffffffffffffffffffff16908173ffffffffffffffffffffffffffffffffffffffff16815250508173ffffffffffffffffffffffffffffffffffffffff166318160ddd6040518163ffffffff1660e01b815260040160206040518083038186803b15801561095557600080fd5b505afa158015610969573d6000803e3d6000fd5b505050506040513d601f19601f8201168201806040525081019061098d919061136a565b8482815181106109c6577f4e487b7100000000000000000000000000000000000000000000000000000000600052603260045260246000fd5b60200260200101516060018181525050505080806109e390611a7d565b915050610608565b50809150509392505050565b606060008383905067ffffffffffffffff811115610a3e577f4e487b7100000000000000000000000000000000000000000000000000000000600052604160045260246000fd5b604051908082528060200260200182016040528015610a7757816020015b610a64610ef9565b815260200190600190039081610a5c5790505b50905060005b84849050811015610e3b576000858583818110610ac3577f4e487b7100000000000000000000000000000000000000000000000000000000600052603260045260246000fd5b9050602002016020810190610ad891906112b1565b905080838381518110610b14577f4e487b7100000000000000000000000000000000000000000000000000000000600052603260045260246000fd5b60200260200101516000019073ffffffffffffffffffffffffffffffffffffffff16908173ffffffffffffffffffffffffffffffffffffffff16815250506000808273ffffffffffffffffffffffffffffffffffffffff16630902f1ac6040518163ffffffff1660e01b815260040160606040518083038186803b158015610b9b57600080fd5b505afa158015610baf573d6000803e3d6000fd5b505050506040513d601f19601f82011682018060405250810190610bd3919061131b565b506dffffffffffffffffffffffffffff1691506dffffffffffffffffffffffffffff16915081858581518110610c32577f4e487b7100000000000000000000000000000000000000000000000000000000600052603260045260246000fd5b6020026020010151602001818152505080858581518110610c7c577f4e487b7100000000000000000000000000000000000000000000000000000000600052603260045260246000fd5b602002602001015160400181815250508273ffffffffffffffffffffffffffffffffffffffff166370a082318a6040518263ffffffff1660e01b8152600401610cc5919061170d565b60206040518083038186803b158015610cdd57600080fd5b505afa158015610cf1573d6000803e3d6000fd5b505050506040513d601f19601f82011682018060405250810190610d15919061136a565b858581518110610d4e577f4e487b7100000000000000000000000000000000000000000000000000000000600052603260045260246000fd5b602002602001015160800181815250508273ffffffffffffffffffffffffffffffffffffffff166318160ddd6040518163ffffffff1660e01b815260040160206040518083038186803b158015610da457600080fd5b505afa158015610db8573d6000803e3d6000fd5b505050506040513d601f19601f82011682018060405250810190610ddc919061136a565b858581518110610e15577f4e487b7100000000000000000000000000000000000000000000000000000000600052603260045260246000fd5b602002602001015160600181815250505050508080610e3390611a7d565b915050610a7d565b50809150509392505050565b6040518060a00160405280600073ffffffffffffffffffffffffffffffffffffffff168152602001600081526020016060815260200160608152602001600080191681525090565b6040518060800160405280600073ffffffffffffffffffffffffffffffffffffffff168152602001600073ffffffffffffffffffffffffffffffffffffffff168152602001600073ffffffffffffffffffffffffffffffffffffffff168152602001600081525090565b6040518060a00160405280600073ffffffffffffffffffffffffffffffffffffffff168152602001600081526020016000815260200160008152602001600081525090565b6000610f51610f4c846117ce565b6117a9565b905082815260208101848484011115610f6957600080fd5b610f74848285611a19565b509392505050565b600081359050610f8b81611b35565b92915050565b600081519050610fa081611b35565b92915050565b60008083601f840112610fb857600080fd5b8235905067ffffffffffffffff811115610fd157600080fd5b602083019150836020820283011115610fe957600080fd5b9250929050565b60008083601f84011261100257600080fd5b8235905067ffffffffffffffff81111561101b57600080fd5b60208301915083602082028301111561103357600080fd5b9250929050565b60008151905061104981611b4c565b92915050565b60008151905061105e81611b63565b92915050565b60008135905061107381611b7a565b92915050565b60008135905061108881611b91565b92915050565b600082601f83011261109f57600080fd5b81516110af848260208601610f3e565b91505092915050565b6000815190506110c781611ba8565b92915050565b6000813590506110dc81611bbf565b92915050565b6000815190506110f181611bbf565b92915050565b60008151905061110681611bd6565b92915050565b60008151905061111b81611bed565b92915050565b60006020828403121561113357600080fd5b600061114184828501610f7c565b91505092915050565b60006020828403121561115c57600080fd5b600061116a84828501610f91565b91505092915050565b60008060006040848603121561118857600080fd5b600061119686828701610f7c565b935050602084013567ffffffffffffffff8111156111b357600080fd5b6111bf86828701610ff0565b92509250509250925092565b600080602083850312156111de57600080fd5b600083013567ffffffffffffffff8111156111f857600080fd5b61120485828601610fa6565b92509250509250929050565b60006020828403121561122257600080fd5b60006112308482850161103a565b91505092915050565b60006020828403121561124b57600080fd5b60006112598482850161104f565b91505092915050565b60008060006060848603121561127757600080fd5b600061128586828701611064565b9350506020611296868287016110cd565b92505060406112a7868287016110cd565b9150509250925092565b6000602082840312156112c357600080fd5b60006112d184828501611079565b91505092915050565b6000602082840312156112ec57600080fd5b600082015167ffffffffffffffff81111561130657600080fd5b6113128482850161108e565b91505092915050565b60008060006060848603121561133057600080fd5b600061133e868287016110b8565b935050602061134f868287016110b8565b9250506040611360868287016110f7565b9150509250925092565b60006020828403121561137c57600080fd5b600061138a848285016110e2565b91505092915050565b6000602082840312156113a557600080fd5b60006113b38482850161110c565b91505092915050565b60006113c883836115b5565b60808301905092915050565b60006113e0838361160a565b60a08301905092915050565b60006113f88383611672565b905092915050565b611409816118fa565b82525050565b600061141a8261182f565b6114248185611882565b935061142f836117ff565b8060005b8381101561146057815161144788826113bc565b97506114528361185b565b925050600181019050611433565b5085935050505092915050565b60006114788261183a565b6114828185611893565b935061148d8361180f565b8060005b838110156114be5781516114a588826113d4565b97506114b083611868565b925050600181019050611491565b5085935050505092915050565b60006114d682611845565b6114e081856118a4565b9350836020820285016114f28561181f565b8060005b8581101561152e578484038952815161150f85826113ec565b945061151a83611875565b925060208a019950506001810190506114f6565b50829750879550505050505092915050565b6115498161190c565b82525050565b611558816119ad565b82525050565b611567816119d1565b82525050565b611576816119f5565b82525050565b600061158782611850565b61159181856118b5565b93506115a1818560208601611a19565b6115aa81611b24565b840191505092915050565b6080820160008201516115cb600085018261156d565b5060208201516115de602085018261154f565b5060408201516115f1604085018261154f565b50606082015161160460608501826116ef565b50505050565b60a082016000820151611620600085018261156d565b50602082015161163360208501826116ef565b50604082015161164660408501826116ef565b50606082015161165960608501826116ef565b50608082015161166c60808501826116ef565b50505050565b600060a08301600083015161168a600086018261155e565b50602083015161169d60208601826116ef565b50604083015184820360408601526116b5828261157c565b915050606083015184820360608601526116cf828261157c565b91505060808301516116e46080860182611540565b508091505092915050565b6116f881611986565b82525050565b61170781611986565b82525050565b60006020820190506117226000830184611400565b92915050565b60006020820190508181036000830152611742818461140f565b905092915050565b60006020820190508181036000830152611764818461146d565b905092915050565b6000602082019050818103600083015261178681846114cb565b905092915050565b60006020820190506117a360008301846116fe565b92915050565b60006117b36117c4565b90506117bf8282611a4c565b919050565b6000604051905090565b600067ffffffffffffffff8211156117e9576117e8611af5565b5b6117f282611b24565b9050602081019050919050565b6000819050602082019050919050565b6000819050602082019050919050565b6000819050602082019050919050565b600081519050919050565b600081519050919050565b600081519050919050565b600081519050919050565b6000602082019050919050565b6000602082019050919050565b6000602082019050919050565b600082825260208201905092915050565b600082825260208201905092915050565b600082825260208201905092915050565b600082825260208201905092915050565b60006118d182611986565b91506118dc83611986565b9250828210156118ef576118ee611ac6565b5b828203905092915050565b600061190582611966565b9050919050565b6000819050919050565b6000611921826118fa565b9050919050565b6000611933826118fa565b9050919050565b6000611945826118fa565b9050919050565b60006dffffffffffffffffffffffffffff82169050919050565b600073ffffffffffffffffffffffffffffffffffffffff82169050919050565b6000819050919050565b600063ffffffff82169050919050565b600060ff82169050919050565b60006119b8826119bf565b9050919050565b60006119ca82611966565b9050919050565b60006119dc826119e3565b9050919050565b60006119ee82611966565b9050919050565b6000611a0082611a07565b9050919050565b6000611a1282611966565b9050919050565b60005b83811015611a37578082015181840152602081019050611a1c565b83811115611a46576000848401525b50505050565b611a5582611b24565b810181811067ffffffffffffffff82111715611a7457611a73611af5565b5b80604052505050565b6000611a8882611986565b91507fffffffffffffffffffffffffffffffffffffffffffffffffffffffffffffffff821415611abb57611aba611ac6565b5b600182019050919050565b7f4e487b7100000000000000000000000000000000000000000000000000000000600052601160045260246000fd5b7f4e487b7100000000000000000000000000000000000000000000000000000000600052604160045260246000fd5b6000601f19601f8301169050919050565b611b3e816118fa565b8114611b4957600080fd5b50565b611b558161190c565b8114611b6057600080fd5b50565b611b6c81611916565b8114611b7757600080fd5b50565b611b8381611928565b8114611b8e57600080fd5b50565b611b9a8161193a565b8114611ba557600080fd5b50565b611bb18161194c565b8114611bbc57600080fd5b50565b611bc881611986565b8114611bd357600080fd5b50565b611bdf81611990565b8114611bea57600080fd5b50565b611bf6816119a0565b8114611c0157600080fd5b5056fea2646970667358221220d525a1f76b25658ca1ab23bc05dfec3fc6afda6a80e756eff27de3612fb84f3664736f6c63430008040033",
  "linkReferences": {},
  "deployedLinkReferences": {}
}