{
  "_format": "hh-sol-artifact-1",
  "contractName": "ERC721Fingerprint",
  "sourceName": "contracts/nft-marketplace/ERC721Fingerprint.sol",
  "abi": [
    {
      "anonymous": false,
      "inputs": [
        {
          "indexed": false,
          "internalType": "address",
          "name": "_nft",
          "type": "address"
        },
        {
          "indexed": false,
          "internalType": "address",
          "name": "_fingerprintProxy",
          "type": "address"
        }
      ],
      "name": "FingerprintProxyRegisted",
      "type": "event"
    },
    {
      "anonymous": false,
      "inputs": [
        {
          "indexed": true,
          "internalType": "address",
          "name": "previousOwner",
          "type": "address"
        },
        {
          "indexed": true,
          "internalType": "address",
          "name": "newOwner",
          "type": "address"
        }
      ],
      "name": "OwnershipTransferred",
      "type": "event"
    },
    {
      "inputs": [
        {
          "internalType": "address",
          "name": "",
          "type": "address"
        }
      ],
      "name": "fingerprintProxies",
      "outputs": [
        {
          "internalType": "address",
          "name": "",
          "type": "address"
        }
      ],
      "stateMutability": "view",
      "type": "function"
    },
    {
      "inputs": [],
      "name": "owner",
      "outputs": [
        {
          "internalType": "address",
          "name": "",
          "type": "address"
        }
      ],
      "stateMutability": "view",
      "type": "function"
    },
    {
      "inputs": [
        {
          "internalType": "address",
          "name": "_nft",
          "type": "address"
        },
        {
          "internalType": "address",
          "name": "_fingerprintProxy",
          "type": "address"
        }
      ],
      "name": "registerFingerPrintProxy",
      "outputs": [],
      "stateMutability": "nonpayable",
      "type": "function"
    },
    {
      "inputs": [],
      "name": "renounceOwnership",
      "outputs": [],
      "stateMutability": "nonpayable",
      "type": "function"
    },
    {
      "inputs": [
        {
          "internalType": "address",
          "name": "newOwner",
          "type": "address"
        }
      ],
      "name": "transferOwnership",
      "outputs": [],
      "stateMutability": "nonpayable",
      "type": "function"
    }
  ],
  "bytecode": "0x608060405234801561001057600080fd5b5061001a3361001f565b61006f565b600080546001600160a01b038381166001600160a01b0319831681178455604051919092169283917f8be0079c531659141344cd1fd0a4f28419497f9722a3daafe3b4186f6b6457e09190a35050565b6103778061007e6000396000f3fe608060405234801561001057600080fd5b50600436106100575760003560e01c80633161f6421461005c578063715018a6146100715780638da5cb5b14610079578063c87b6341146100a2578063f2fde38b146100cb575b600080fd5b61006f61006a3660046102da565b6100de565b005b61006f61017c565b6000546001600160a01b03165b6040516001600160a01b03909116815260200160405180910390f35b6100866100b03660046102b9565b6001602052600090815260409020546001600160a01b031681565b61006f6100d93660046102b9565b6101b2565b6000546001600160a01b031633146101115760405162461bcd60e51b81526004016101089061030c565b60405180910390fd5b6001600160a01b0382811660008181526001602090815260409182902080546001600160a01b031916948616948517905581519283528201929092527f34d7de5b89c8368f0fad33e8dff9d827147f3bcefa6a0ad6f198a1b97959a961910160405180910390a15050565b6000546001600160a01b031633146101a65760405162461bcd60e51b81526004016101089061030c565b6101b0600061024d565b565b6000546001600160a01b031633146101dc5760405162461bcd60e51b81526004016101089061030c565b6001600160a01b0381166102415760405162461bcd60e51b815260206004820152602660248201527f4f776e61626c653a206e6577206f776e657220697320746865207a65726f206160448201526564647265737360d01b6064820152608401610108565b61024a8161024d565b50565b600080546001600160a01b038381166001600160a01b0319831681178455604051919092169283917f8be0079c531659141344cd1fd0a4f28419497f9722a3daafe3b4186f6b6457e09190a35050565b80356001600160a01b03811681146102b457600080fd5b919050565b6000602082840312156102ca578081fd5b6102d38261029d565b9392505050565b600080604083850312156102ec578081fd5b6102f58361029d565b91506103036020840161029d565b90509250929050565b6020808252818101527f4f776e61626c653a2063616c6c6572206973206e6f7420746865206f776e657260408201526060019056fea26469706673582212201e2f8c613a0a3749c7950c3215e8086834175397c70485e276d4ff74c7938df664736f6c63430008040033",
  "linkReferences": {},
  "deployedLinkReferences": {}
}