{
  "_format": "hh-sol-artifact-1",
  "contractName": "NFTMockup",
  "sourceName": "contracts/nft-marketplace/INO/NFTMockup.sol",
  "abi": [
    {
      "anonymous": false,
      "inputs": [
        {
          "indexed": true,
          "internalType": "address",
          "name": "owner",
          "type": "address"
        },
        {
          "indexed": true,
          "internalType": "address",
          "name": "approved",
          "type": "address"
        },
        {
          "indexed": true,
          "internalType": "uint256",
          "name": "tokenId",
          "type": "uint256"
        }
      ],
      "name": "Approval",
      "type": "event"
    },
    {
      "anonymous": false,
      "inputs": [
        {
          "indexed": true,
          "internalType": "address",
          "name": "owner",
          "type": "address"
        },
        {
          "indexed": true,
          "internalType": "address",
          "name": "operator",
          "type": "address"
        },
        {
          "indexed": false,
          "internalType": "bool",
          "name": "approved",
          "type": "bool"
        }
      ],
      "name": "ApprovalForAll",
      "type": "event"
    },
    {
      "anonymous": false,
      "inputs": [
        {
          "indexed": true,
          "internalType": "address",
          "name": "from",
          "type": "address"
        },
        {
          "indexed": true,
          "internalType": "address",
          "name": "to",
          "type": "address"
        },
        {
          "indexed": true,
          "internalType": "uint256",
          "name": "tokenId",
          "type": "uint256"
        }
      ],
      "name": "Transfer",
      "type": "event"
    },
    {
      "inputs": [
        {
          "internalType": "address",
          "name": "to",
          "type": "address"
        },
        {
          "internalType": "uint256",
          "name": "tokenId",
          "type": "uint256"
        }
      ],
      "name": "approve",
      "outputs": [],
      "stateMutability": "nonpayable",
      "type": "function"
    },
    {
      "inputs": [
        {
          "internalType": "address",
          "name": "owner",
          "type": "address"
        }
      ],
      "name": "balanceOf",
      "outputs": [
        {
          "internalType": "uint256",
          "name": "",
          "type": "uint256"
        }
      ],
      "stateMutability": "view",
      "type": "function"
    },
    {
      "inputs": [
        {
          "internalType": "uint256",
          "name": "tokenId",
          "type": "uint256"
        }
      ],
      "name": "getApproved",
      "outputs": [
        {
          "internalType": "address",
          "name": "",
          "type": "address"
        }
      ],
      "stateMutability": "view",
      "type": "function"
    },
    {
      "inputs": [
        {
          "internalType": "address",
          "name": "owner",
          "type": "address"
        },
        {
          "internalType": "address",
          "name": "operator",
          "type": "address"
        }
      ],
      "name": "isApprovedForAll",
      "outputs": [
        {
          "internalType": "bool",
          "name": "",
          "type": "bool"
        }
      ],
      "stateMutability": "view",
      "type": "function"
    },
    {
      "inputs": [
        {
          "internalType": "address",
          "name": "receiver",
          "type": "address"
        }
      ],
      "name": "mint",
      "outputs": [
        {
          "internalType": "uint256",
          "name": "",
          "type": "uint256"
        }
      ],
      "stateMutability": "nonpayable",
      "type": "function"
    },
    {
      "inputs": [],
      "name": "name",
      "outputs": [
        {
          "internalType": "string",
          "name": "",
          "type": "string"
        }
      ],
      "stateMutability": "view",
      "type": "function"
    },
    {
      "inputs": [
        {
          "internalType": "uint256",
          "name": "tokenId",
          "type": "uint256"
        }
      ],
      "name": "ownerOf",
      "outputs": [
        {
          "internalType": "address",
          "name": "",
          "type": "address"
        }
      ],
      "stateMutability": "view",
      "type": "function"
    },
    {
      "inputs": [
        {
          "internalType": "address",
          "name": "from",
          "type": "address"
        },
        {
          "internalType": "address",
          "name": "to",
          "type": "address"
        },
        {
          "internalType": "uint256",
          "name": "tokenId",
          "type": "uint256"
        }
      ],
      "name": "safeTransferFrom",
      "outputs": [],
      "stateMutability": "nonpayable",
      "type": "function"
    },
    {
      "inputs": [
        {
          "internalType": "address",
          "name": "from",
          "type": "address"
        },
        {
          "internalType": "address",
          "name": "to",
          "type": "address"
        },
        {
          "internalType": "uint256",
          "name": "tokenId",
          "type": "uint256"
        },
        {
          "internalType": "bytes",
          "name": "_data",
          "type": "bytes"
        }
      ],
      "name": "safeTransferFrom",
      "outputs": [],
      "stateMutability": "nonpayable",
      "type": "function"
    },
    {
      "inputs": [
        {
          "internalType": "address",
          "name": "operator",
          "type": "address"
        },
        {
          "internalType": "bool",
          "name": "approved",
          "type": "bool"
        }
      ],
      "name": "setApprovalForAll",
      "outputs": [],
      "stateMutability": "nonpayable",
      "type": "function"
    },
    {
      "inputs": [
        {
          "internalType": "bytes4",
          "name": "interfaceId",
          "type": "bytes4"
        }
      ],
      "name": "supportsInterface",
      "outputs": [
        {
          "internalType": "bool",
          "name": "",
          "type": "bool"
        }
      ],
      "stateMutability": "view",
      "type": "function"
    },
    {
      "inputs": [],
      "name": "symbol",
      "outputs": [
        {
          "internalType": "string",
          "name": "",
          "type": "string"
        }
      ],
      "stateMutability": "view",
      "type": "function"
    },
    {
      "inputs": [
        {
          "internalType": "uint256",
          "name": "tokenId",
          "type": "uint256"
        }
      ],
      "name": "tokenURI",
      "outputs": [
        {
          "internalType": "string",
          "name": "",
          "type": "string"
        }
      ],
      "stateMutability": "view",
      "type": "function"
    },
    {
      "inputs": [
        {
          "internalType": "address",
          "name": "from",
          "type": "address"
        },
        {
          "internalType": "address",
          "name": "to",
          "type": "address"
        },
        {
          "internalType": "uint256",
          "name": "tokenId",
          "type": "uint256"
        }
      ],
      "name": "transferFrom",
      "outputs": [],
      "stateMutability": "nonpayable",
      "type": "function"
    }
  ],
  "bytecode": "0x60806040523480156200001157600080fd5b50604080518082018252600981526804e46544d6f636b75760bc1b6020808301918252835180850190945260048452634d6f636b60e01b9084015281519192916200005f916000916200007e565b508051620000759060019060208401906200007e565b50505062000161565b8280546200008c9062000124565b90600052602060002090601f016020900481019282620000b05760008555620000fb565b82601f10620000cb57805160ff1916838001178555620000fb565b82800160010185558215620000fb579182015b82811115620000fb578251825591602001919060010190620000de565b50620001099291506200010d565b5090565b5b808211156200010957600081556001016200010e565b600181811c908216806200013957607f821691505b602082108114156200015b57634e487b7160e01b600052602260045260246000fd5b50919050565b61142d80620001716000396000f3fe608060405234801561001057600080fd5b50600436106100ea5760003560e01c80636a6278421161008c578063a22cb46511610066578063a22cb465146101e1578063b88d4fde146101f4578063c87b56dd14610207578063e985e9c51461021a57600080fd5b80636a627842146101a557806370a08231146101c657806395d89b41146101d957600080fd5b8063095ea7b3116100c8578063095ea7b31461015757806323b872dd1461016c57806342842e0e1461017f5780636352211e1461019257600080fd5b806301ffc9a7146100ef57806306fdde0314610117578063081812fc1461012c575b600080fd5b6101026100fd3660046110f3565b610256565b60405190151581526020015b60405180910390f35b61011f6102a8565b60405161010e91906111db565b61013f61013a36600461112b565b61033a565b6040516001600160a01b03909116815260200161010e565b61016a6101653660046110ca565b6103d4565b005b61016a61017a366004610f80565b6104ea565b61016a61018d366004610f80565b61051b565b61013f6101a036600461112b565b610536565b6101b86101b3366004610f34565b6105ad565b60405190815260200161010e565b6101b86101d4366004610f34565b6105d4565b61011f61065b565b61016a6101ef366004611090565b61066a565b61016a610202366004610fbb565b610679565b61011f61021536600461112b565b6106b1565b610102610228366004610f4e565b6001600160a01b03918216600090815260056020908152604080832093909416825291909152205460ff1690565b60006001600160e01b031982166380ac58cd60e01b148061028757506001600160e01b03198216635b5e139f60e01b145b806102a257506301ffc9a760e01b6001600160e01b03198316145b92915050565b6060600080546102b790611300565b80601f01602080910402602001604051908101604052809291908181526020018280546102e390611300565b80156103305780601f1061030557610100808354040283529160200191610330565b820191906000526020600020905b81548152906001019060200180831161031357829003601f168201915b5050505050905090565b6000818152600260205260408120546001600160a01b03166103b85760405162461bcd60e51b815260206004820152602c60248201527f4552433732313a20617070726f76656420717565727920666f72206e6f6e657860448201526b34b9ba32b73a103a37b5b2b760a11b60648201526084015b60405180910390fd5b506000908152600460205260409020546001600160a01b031690565b60006103df82610536565b9050806001600160a01b0316836001600160a01b0316141561044d5760405162461bcd60e51b815260206004820152602160248201527f4552433732313a20617070726f76616c20746f2063757272656e74206f776e656044820152603960f91b60648201526084016103af565b336001600160a01b038216148061046957506104698133610228565b6104db5760405162461bcd60e51b815260206004820152603860248201527f4552433732313a20617070726f76652063616c6c6572206973206e6f74206f7760448201527f6e6572206e6f7220617070726f76656420666f7220616c6c000000000000000060648201526084016103af565b6104e5838361078c565b505050565b6104f433826107fa565b6105105760405162461bcd60e51b81526004016103af90611240565b6104e58383836108f1565b6104e583838360405180602001604052806000815250610679565b6000818152600260205260408120546001600160a01b0316806102a25760405162461bcd60e51b815260206004820152602960248201527f4552433732313a206f776e657220717565727920666f72206e6f6e657869737460448201526832b73a103a37b5b2b760b91b60648201526084016103af565b60006105bd600680546001019055565b60006105c860065490565b90506102a28382610a8d565b60006001600160a01b03821661063f5760405162461bcd60e51b815260206004820152602a60248201527f4552433732313a2062616c616e636520717565727920666f7220746865207a65604482015269726f206164647265737360b01b60648201526084016103af565b506001600160a01b031660009081526003602052604090205490565b6060600180546102b790611300565b610675338383610bcf565b5050565b61068333836107fa565b61069f5760405162461bcd60e51b81526004016103af90611240565b6106ab84848484610c9e565b50505050565b6000818152600260205260409020546060906001600160a01b03166107305760405162461bcd60e51b815260206004820152602f60248201527f4552433732314d657461646174613a2055524920717565727920666f72206e6f60448201526e3732bc34b9ba32b73a103a37b5b2b760891b60648201526084016103af565b600061073a610cd1565b9050600081511161075a5760405180602001604052806000815250610785565b8061076484610cf1565b60405160200161077592919061116f565b6040516020818303038152906040525b9392505050565b600081815260046020526040902080546001600160a01b0319166001600160a01b03841690811790915581906107c182610536565b6001600160a01b03167f8c5be1e5ebec7d5bd14f71427d1e84f3dd0314c0f7b2291e5b200ac8c7c3b92560405160405180910390a45050565b6000818152600260205260408120546001600160a01b03166108735760405162461bcd60e51b815260206004820152602c60248201527f4552433732313a206f70657261746f7220717565727920666f72206e6f6e657860448201526b34b9ba32b73a103a37b5b2b760a11b60648201526084016103af565b600061087e83610536565b9050806001600160a01b0316846001600160a01b031614806108b95750836001600160a01b03166108ae8461033a565b6001600160a01b0316145b806108e957506001600160a01b0380821660009081526005602090815260408083209388168352929052205460ff165b949350505050565b826001600160a01b031661090482610536565b6001600160a01b0316146109685760405162461bcd60e51b815260206004820152602560248201527f4552433732313a207472616e736665722066726f6d20696e636f72726563742060448201526437bbb732b960d91b60648201526084016103af565b6001600160a01b0382166109ca5760405162461bcd60e51b8152602060048201526024808201527f4552433732313a207472616e7366657220746f20746865207a65726f206164646044820152637265737360e01b60648201526084016103af565b6109d560008261078c565b6001600160a01b03831660009081526003602052604081208054600192906109fe9084906112bd565b90915550506001600160a01b0382166000908152600360205260408120805460019290610a2c908490611291565b909155505060008181526002602052604080822080546001600160a01b0319166001600160a01b0386811691821790925591518493918716917fddf252ad1be2c89b69c2b068fc378daa952ba7f163c4a11628f55a4df523b3ef91a4505050565b6001600160a01b038216610ae35760405162461bcd60e51b815260206004820181905260248201527f4552433732313a206d696e7420746f20746865207a65726f206164647265737360448201526064016103af565b6000818152600260205260409020546001600160a01b031615610b485760405162461bcd60e51b815260206004820152601c60248201527f4552433732313a20746f6b656e20616c7265616479206d696e7465640000000060448201526064016103af565b6001600160a01b0382166000908152600360205260408120805460019290610b71908490611291565b909155505060008181526002602052604080822080546001600160a01b0319166001600160a01b03861690811790915590518392907fddf252ad1be2c89b69c2b068fc378daa952ba7f163c4a11628f55a4df523b3ef908290a45050565b816001600160a01b0316836001600160a01b03161415610c315760405162461bcd60e51b815260206004820152601960248201527f4552433732313a20617070726f766520746f2063616c6c65720000000000000060448201526064016103af565b6001600160a01b03838116600081815260056020908152604080832094871680845294825291829020805460ff191686151590811790915591519182527f17307eab39ab6107e8899845ad3d59bd9653f200f220920489ca2b5937696c31910160405180910390a3505050565b610ca98484846108f1565b610cb584848484610e0b565b6106ab5760405162461bcd60e51b81526004016103af906111ee565b60606040518060600160405280603281526020016113c660329139905090565b606081610d155750506040805180820190915260018152600360fc1b602082015290565b8160005b8115610d3f5780610d298161133b565b9150610d389050600a836112a9565b9150610d19565b60008167ffffffffffffffff811115610d6857634e487b7160e01b600052604160045260246000fd5b6040519080825280601f01601f191660200182016040528015610d92576020820181803683370190505b5090505b84156108e957610da76001836112bd565b9150610db4600a86611356565b610dbf906030611291565b60f81b818381518110610de257634e487b7160e01b600052603260045260246000fd5b60200101906001600160f81b031916908160001a905350610e04600a866112a9565b9450610d96565b60006001600160a01b0384163b15610f0d57604051630a85bd0160e11b81526001600160a01b0385169063150b7a0290610e4f90339089908890889060040161119e565b602060405180830381600087803b158015610e6957600080fd5b505af1925050508015610e99575060408051601f3d908101601f19168201909252610e969181019061110f565b60015b610ef3573d808015610ec7576040519150601f19603f3d011682016040523d82523d6000602084013e610ecc565b606091505b508051610eeb5760405162461bcd60e51b81526004016103af906111ee565b805181602001fd5b6001600160e01b031916630a85bd0160e11b1490506108e9565b506001949350505050565b80356001600160a01b0381168114610f2f57600080fd5b919050565b600060208284031215610f45578081fd5b61078582610f18565b60008060408385031215610f60578081fd5b610f6983610f18565b9150610f7760208401610f18565b90509250929050565b600080600060608486031215610f94578081fd5b610f9d84610f18565b9250610fab60208501610f18565b9150604084013590509250925092565b60008060008060808587031215610fd0578081fd5b610fd985610f18565b9350610fe760208601610f18565b925060408501359150606085013567ffffffffffffffff8082111561100a578283fd5b818701915087601f83011261101d578283fd5b81358181111561102f5761102f611396565b604051601f8201601f19908116603f0116810190838211818310171561105757611057611396565b816040528281528a602084870101111561106f578586fd5b82602086016020830137918201602001949094529598949750929550505050565b600080604083850312156110a2578182fd5b6110ab83610f18565b9150602083013580151581146110bf578182fd5b809150509250929050565b600080604083850312156110dc578182fd5b6110e583610f18565b946020939093013593505050565b600060208284031215611104578081fd5b8135610785816113ac565b600060208284031215611120578081fd5b8151610785816113ac565b60006020828403121561113c578081fd5b5035919050565b6000815180845261115b8160208601602086016112d4565b601f01601f19169290920160200192915050565b600083516111818184602088016112d4565b8351908301906111958183602088016112d4565b01949350505050565b6001600160a01b03858116825284166020820152604081018390526080606082018190526000906111d190830184611143565b9695505050505050565b6020815260006107856020830184611143565b60208082526032908201527f4552433732313a207472616e7366657220746f206e6f6e20455243373231526560408201527131b2b4bb32b91034b6b83632b6b2b73a32b960711b606082015260800190565b60208082526031908201527f4552433732313a207472616e736665722063616c6c6572206973206e6f74206f6040820152701ddb995c881b9bdc88185c1c1c9bdd9959607a1b606082015260800190565b600082198211156112a4576112a461136a565b500190565b6000826112b8576112b8611380565b500490565b6000828210156112cf576112cf61136a565b500390565b60005b838110156112ef5781810151838201526020016112d7565b838111156106ab5750506000910152565b600181811c9082168061131457607f821691505b6020821081141561133557634e487b7160e01b600052602260045260246000fd5b50919050565b600060001982141561134f5761134f61136a565b5060010190565b60008261136557611365611380565b500690565b634e487b7160e01b600052601160045260246000fd5b634e487b7160e01b600052601260045260246000fd5b634e487b7160e01b600052604160045260246000fd5b6001600160e01b0319811681146113c257600080fd5b5056fe68747470733a2f2f62652e7369706865722e78797a2f6170692f7369706865722f76312e302f73632f746f6b656e7572692fa264697066735822122033156ce43bb47ae83a31755149fca02539fe9b63766681f387b39466ad8af04064736f6c63430008040033",
  "linkReferences": {},
  "deployedLinkReferences": {}
}