{
  "_format": "hh-sol-artifact-1",
  "contractName": "NFTMockup",
  "sourceName": "contracts/nft-marketplace/INO/NFTMockup.sol",
  "abi": [
    {
      "anonymous": false,
      "inputs": [
        {
          "indexed": true,
          "internalType": "address",
          "name": "owner",
          "type": "address"
        },
        {
          "indexed": true,
          "internalType": "address",
          "name": "approved",
          "type": "address"
        },
        {
          "indexed": true,
          "internalType": "uint256",
          "name": "tokenId",
          "type": "uint256"
        }
      ],
      "name": "Approval",
      "type": "event"
    },
    {
      "anonymous": false,
      "inputs": [
        {
          "indexed": true,
          "internalType": "address",
          "name": "owner",
          "type": "address"
        },
        {
          "indexed": true,
          "internalType": "address",
          "name": "operator",
          "type": "address"
        },
        {
          "indexed": false,
          "internalType": "bool",
          "name": "approved",
          "type": "bool"
        }
      ],
      "name": "ApprovalForAll",
      "type": "event"
    },
    {
      "anonymous": false,
      "inputs": [
        {
          "indexed": true,
          "internalType": "address",
          "name": "from",
          "type": "address"
        },
        {
          "indexed": true,
          "internalType": "address",
          "name": "to",
          "type": "address"
        },
        {
          "indexed": true,
          "internalType": "uint256",
          "name": "tokenId",
          "type": "uint256"
        }
      ],
      "name": "Transfer",
      "type": "event"
    },
    {
      "inputs": [
        {
          "internalType": "address",
          "name": "to",
          "type": "address"
        },
        {
          "internalType": "uint256",
          "name": "tokenId",
          "type": "uint256"
        }
      ],
      "name": "approve",
      "outputs": [],
      "stateMutability": "nonpayable",
      "type": "function"
    },
    {
      "inputs": [
        {
          "internalType": "address",
          "name": "owner",
          "type": "address"
        }
      ],
      "name": "balanceOf",
      "outputs": [
        {
          "internalType": "uint256",
          "name": "",
          "type": "uint256"
        }
      ],
      "stateMutability": "view",
      "type": "function"
    },
    {
      "inputs": [
        {
          "internalType": "uint256",
          "name": "tokenId",
          "type": "uint256"
        }
      ],
      "name": "getApproved",
      "outputs": [
        {
          "internalType": "address",
          "name": "",
          "type": "address"
        }
      ],
      "stateMutability": "view",
      "type": "function"
    },
    {
      "inputs": [
        {
          "internalType": "address",
          "name": "owner",
          "type": "address"
        },
        {
          "internalType": "address",
          "name": "operator",
          "type": "address"
        }
      ],
      "name": "isApprovedForAll",
      "outputs": [
        {
          "internalType": "bool",
          "name": "",
          "type": "bool"
        }
      ],
      "stateMutability": "view",
      "type": "function"
    },
    {
      "inputs": [
        {
          "internalType": "address",
          "name": "receiver",
          "type": "address"
        }
      ],
      "name": "mint",
      "outputs": [
        {
          "internalType": "uint256",
          "name": "",
          "type": "uint256"
        }
      ],
      "stateMutability": "nonpayable",
      "type": "function"
    },
    {
      "inputs": [],
      "name": "name",
      "outputs": [
        {
          "internalType": "string",
          "name": "",
          "type": "string"
        }
      ],
      "stateMutability": "view",
      "type": "function"
    },
    {
      "inputs": [
        {
          "internalType": "uint256",
          "name": "tokenId",
          "type": "uint256"
        }
      ],
      "name": "ownerOf",
      "outputs": [
        {
          "internalType": "address",
          "name": "",
          "type": "address"
        }
      ],
      "stateMutability": "view",
      "type": "function"
    },
    {
      "inputs": [
        {
          "internalType": "address",
          "name": "from",
          "type": "address"
        },
        {
          "internalType": "address",
          "name": "to",
          "type": "address"
        },
        {
          "internalType": "uint256",
          "name": "tokenId",
          "type": "uint256"
        }
      ],
      "name": "safeTransferFrom",
      "outputs": [],
      "stateMutability": "nonpayable",
      "type": "function"
    },
    {
      "inputs": [
        {
          "internalType": "address",
          "name": "from",
          "type": "address"
        },
        {
          "internalType": "address",
          "name": "to",
          "type": "address"
        },
        {
          "internalType": "uint256",
          "name": "tokenId",
          "type": "uint256"
        },
        {
          "internalType": "bytes",
          "name": "data",
          "type": "bytes"
        }
      ],
      "name": "safeTransferFrom",
      "outputs": [],
      "stateMutability": "nonpayable",
      "type": "function"
    },
    {
      "inputs": [
        {
          "internalType": "address",
          "name": "operator",
          "type": "address"
        },
        {
          "internalType": "bool",
          "name": "approved",
          "type": "bool"
        }
      ],
      "name": "setApprovalForAll",
      "outputs": [],
      "stateMutability": "nonpayable",
      "type": "function"
    },
    {
      "inputs": [
        {
          "internalType": "bytes4",
          "name": "interfaceId",
          "type": "bytes4"
        }
      ],
      "name": "supportsInterface",
      "outputs": [
        {
          "internalType": "bool",
          "name": "",
          "type": "bool"
        }
      ],
      "stateMutability": "view",
      "type": "function"
    },
    {
      "inputs": [],
      "name": "symbol",
      "outputs": [
        {
          "internalType": "string",
          "name": "",
          "type": "string"
        }
      ],
      "stateMutability": "view",
      "type": "function"
    },
    {
      "inputs": [
        {
          "internalType": "uint256",
          "name": "tokenId",
          "type": "uint256"
        }
      ],
      "name": "tokenURI",
      "outputs": [
        {
          "internalType": "string",
          "name": "",
          "type": "string"
        }
      ],
      "stateMutability": "view",
      "type": "function"
    },
    {
      "inputs": [
        {
          "internalType": "address",
          "name": "from",
          "type": "address"
        },
        {
          "internalType": "address",
          "name": "to",
          "type": "address"
        },
        {
          "internalType": "uint256",
          "name": "tokenId",
          "type": "uint256"
        }
      ],
      "name": "transferFrom",
      "outputs": [],
      "stateMutability": "nonpayable",
      "type": "function"
    }
  ],
  "bytecode": "0x60806040523480156200001157600080fd5b50604080518082018252600981526804e46544d6f636b75760bc1b6020808301918252835180850190945260048452634d6f636b60e01b9084015281519192916200005f916000916200007e565b508051620000759060019060208401906200007e565b50505062000161565b8280546200008c9062000124565b90600052602060002090601f016020900481019282620000b05760008555620000fb565b82601f10620000cb57805160ff1916838001178555620000fb565b82800160010185558215620000fb579182015b82811115620000fb578251825591602001919060010190620000de565b50620001099291506200010d565b5090565b5b808211156200010957600081556001016200010e565b600181811c908216806200013957607f821691505b602082108114156200015b57634e487b7160e01b600052602260045260246000fd5b50919050565b6112d280620001716000396000f3fe608060405234801561001057600080fd5b50600436106100ea5760003560e01c80636a6278421161008c578063a22cb46511610066578063a22cb465146101e1578063b88d4fde146101f4578063c87b56dd14610207578063e985e9c51461021a57600080fd5b80636a627842146101a557806370a08231146101c657806395d89b41146101d957600080fd5b8063095ea7b3116100c8578063095ea7b31461015757806323b872dd1461016c57806342842e0e1461017f5780636352211e1461019257600080fd5b806301ffc9a7146100ef57806306fdde0314610117578063081812fc1461012c575b600080fd5b6101026100fd366004610fd0565b610256565b60405190151581526020015b60405180910390f35b61011f6102a8565b60405161010e91906110b8565b61013f61013a366004611008565b61033a565b6040516001600160a01b03909116815260200161010e565b61016a610165366004610fa7565b610361565b005b61016a61017a366004610e5d565b61047c565b61016a61018d366004610e5d565b6104ad565b61013f6101a0366004611008565b6104c8565b6101b86101b3366004610e11565b610528565b60405190815260200161010e565b6101b86101d4366004610e11565b61054f565b61011f6105d5565b61016a6101ef366004610f6d565b6105e4565b61016a610202366004610e98565b6105f3565b61011f610215366004611008565b61062b565b610102610228366004610e2b565b6001600160a01b03918216600090815260056020908152604080832093909416825291909152205460ff1690565b60006001600160e01b031982166380ac58cd60e01b148061028757506001600160e01b03198216635b5e139f60e01b145b806102a257506301ffc9a760e01b6001600160e01b03198316145b92915050565b6060600080546102b7906111da565b80601f01602080910402602001604051908101604052809291908181526020018280546102e3906111da565b80156103305780601f1061030557610100808354040283529160200191610330565b820191906000526020600020905b81548152906001019060200180831161031357829003601f168201915b5050505050905090565b60006103458261069f565b506000908152600460205260409020546001600160a01b031690565b600061036c826104c8565b9050806001600160a01b0316836001600160a01b031614156103df5760405162461bcd60e51b815260206004820152602160248201527f4552433732313a20617070726f76616c20746f2063757272656e74206f776e656044820152603960f91b60648201526084015b60405180910390fd5b336001600160a01b03821614806103fb57506103fb8133610228565b61046d5760405162461bcd60e51b815260206004820152603e60248201527f4552433732313a20617070726f76652063616c6c6572206973206e6f7420746f60448201527f6b656e206f776e6572206e6f7220617070726f76656420666f7220616c6c000060648201526084016103d6565b6104778383610701565b505050565b610486338261076f565b6104a25760405162461bcd60e51b81526004016103d69061111d565b6104778383836107ee565b610477838383604051806020016040528060008152506105f3565b6000818152600260205260408120546001600160a01b0316806102a25760405162461bcd60e51b8152602060048201526018602482015277115490cdcc8c4e881a5b9d985b1a59081d1bdad95b88125160421b60448201526064016103d6565b6000610538600680546001019055565b600061054360065490565b90506102a2838261098a565b60006001600160a01b0382166105b95760405162461bcd60e51b815260206004820152602960248201527f4552433732313a2061646472657373207a65726f206973206e6f7420612076616044820152683634b21037bbb732b960b91b60648201526084016103d6565b506001600160a01b031660009081526003602052604090205490565b6060600180546102b7906111da565b6105ef338383610acc565b5050565b6105fd338361076f565b6106195760405162461bcd60e51b81526004016103d69061111d565b61062584848484610b9b565b50505050565b60606106368261069f565b600061064d60408051602081019091526000815290565b9050600081511161066d5760405180602001604052806000815250610698565b8061067784610bce565b60405160200161068892919061104c565b6040516020818303038152906040525b9392505050565b6000818152600260205260409020546001600160a01b03166106fe5760405162461bcd60e51b8152602060048201526018602482015277115490cdcc8c4e881a5b9d985b1a59081d1bdad95b88125160421b60448201526064016103d6565b50565b600081815260046020526040902080546001600160a01b0319166001600160a01b0384169081179091558190610736826104c8565b6001600160a01b03167f8c5be1e5ebec7d5bd14f71427d1e84f3dd0314c0f7b2291e5b200ac8c7c3b92560405160405180910390a45050565b60008061077b836104c8565b9050806001600160a01b0316846001600160a01b031614806107c257506001600160a01b0380821660009081526005602090815260408083209388168352929052205460ff165b806107e65750836001600160a01b03166107db8461033a565b6001600160a01b0316145b949350505050565b826001600160a01b0316610801826104c8565b6001600160a01b0316146108655760405162461bcd60e51b815260206004820152602560248201527f4552433732313a207472616e736665722066726f6d20696e636f72726563742060448201526437bbb732b960d91b60648201526084016103d6565b6001600160a01b0382166108c75760405162461bcd60e51b8152602060048201526024808201527f4552433732313a207472616e7366657220746f20746865207a65726f206164646044820152637265737360e01b60648201526084016103d6565b6108d2600082610701565b6001600160a01b03831660009081526003602052604081208054600192906108fb908490611197565b90915550506001600160a01b038216600090815260036020526040812080546001929061092990849061116b565b909155505060008181526002602052604080822080546001600160a01b0319166001600160a01b0386811691821790925591518493918716917fddf252ad1be2c89b69c2b068fc378daa952ba7f163c4a11628f55a4df523b3ef91a4505050565b6001600160a01b0382166109e05760405162461bcd60e51b815260206004820181905260248201527f4552433732313a206d696e7420746f20746865207a65726f206164647265737360448201526064016103d6565b6000818152600260205260409020546001600160a01b031615610a455760405162461bcd60e51b815260206004820152601c60248201527f4552433732313a20746f6b656e20616c7265616479206d696e7465640000000060448201526064016103d6565b6001600160a01b0382166000908152600360205260408120805460019290610a6e90849061116b565b909155505060008181526002602052604080822080546001600160a01b0319166001600160a01b03861690811790915590518392907fddf252ad1be2c89b69c2b068fc378daa952ba7f163c4a11628f55a4df523b3ef908290a45050565b816001600160a01b0316836001600160a01b03161415610b2e5760405162461bcd60e51b815260206004820152601960248201527f4552433732313a20617070726f766520746f2063616c6c65720000000000000060448201526064016103d6565b6001600160a01b03838116600081815260056020908152604080832094871680845294825291829020805460ff191686151590811790915591519182527f17307eab39ab6107e8899845ad3d59bd9653f200f220920489ca2b5937696c31910160405180910390a3505050565b610ba68484846107ee565b610bb284848484610ce8565b6106255760405162461bcd60e51b81526004016103d6906110cb565b606081610bf25750506040805180820190915260018152600360fc1b602082015290565b8160005b8115610c1c5780610c0681611215565b9150610c159050600a83611183565b9150610bf6565b60008167ffffffffffffffff811115610c4557634e487b7160e01b600052604160045260246000fd5b6040519080825280601f01601f191660200182016040528015610c6f576020820181803683370190505b5090505b84156107e657610c84600183611197565b9150610c91600a86611230565b610c9c90603061116b565b60f81b818381518110610cbf57634e487b7160e01b600052603260045260246000fd5b60200101906001600160f81b031916908160001a905350610ce1600a86611183565b9450610c73565b60006001600160a01b0384163b15610dea57604051630a85bd0160e11b81526001600160a01b0385169063150b7a0290610d2c90339089908890889060040161107b565b602060405180830381600087803b158015610d4657600080fd5b505af1925050508015610d76575060408051601f3d908101601f19168201909252610d7391810190610fec565b60015b610dd0573d808015610da4576040519150601f19603f3d011682016040523d82523d6000602084013e610da9565b606091505b508051610dc85760405162461bcd60e51b81526004016103d6906110cb565b805181602001fd5b6001600160e01b031916630a85bd0160e11b1490506107e6565b506001949350505050565b80356001600160a01b0381168114610e0c57600080fd5b919050565b600060208284031215610e22578081fd5b61069882610df5565b60008060408385031215610e3d578081fd5b610e4683610df5565b9150610e5460208401610df5565b90509250929050565b600080600060608486031215610e71578081fd5b610e7a84610df5565b9250610e8860208501610df5565b9150604084013590509250925092565b60008060008060808587031215610ead578081fd5b610eb685610df5565b9350610ec460208601610df5565b925060408501359150606085013567ffffffffffffffff80821115610ee7578283fd5b818701915087601f830112610efa578283fd5b813581811115610f0c57610f0c611270565b604051601f8201601f19908116603f01168101908382118183101715610f3457610f34611270565b816040528281528a6020848701011115610f4c578586fd5b82602086016020830137918201602001949094529598949750929550505050565b60008060408385031215610f7f578182fd5b610f8883610df5565b915060208301358015158114610f9c578182fd5b809150509250929050565b60008060408385031215610fb9578182fd5b610fc283610df5565b946020939093013593505050565b600060208284031215610fe1578081fd5b813561069881611286565b600060208284031215610ffd578081fd5b815161069881611286565b600060208284031215611019578081fd5b5035919050565b600081518084526110388160208601602086016111ae565b601f01601f19169290920160200192915050565b6000835161105e8184602088016111ae565b8351908301906110728183602088016111ae565b01949350505050565b6001600160a01b03858116825284166020820152604081018390526080606082018190526000906110ae90830184611020565b9695505050505050565b6020815260006106986020830184611020565b60208082526032908201527f4552433732313a207472616e7366657220746f206e6f6e20455243373231526560408201527131b2b4bb32b91034b6b83632b6b2b73a32b960711b606082015260800190565b6020808252602e908201527f4552433732313a2063616c6c6572206973206e6f7420746f6b656e206f776e6560408201526d1c881b9bdc88185c1c1c9bdd995960921b606082015260800190565b6000821982111561117e5761117e611244565b500190565b6000826111925761119261125a565b500490565b6000828210156111a9576111a9611244565b500390565b60005b838110156111c95781810151838201526020016111b1565b838111156106255750506000910152565b600181811c908216806111ee57607f821691505b6020821081141561120f57634e487b7160e01b600052602260045260246000fd5b50919050565b600060001982141561122957611229611244565b5060010190565b60008261123f5761123f61125a565b500690565b634e487b7160e01b600052601160045260246000fd5b634e487b7160e01b600052601260045260246000fd5b634e487b7160e01b600052604160045260246000fd5b6001600160e01b0319811681146106fe57600080fdfea2646970667358221220d03f5a2180b2cc15b76ab5e0a1fae154b341bea11b3e55a80641c36c65d2bbae64736f6c63430008040033",
  "linkReferences": {},
  "deployedLinkReferences": {}
}