{
  "_format": "hh-sol-artifact-1",
  "contractName": "RaiseFunding",
  "sourceName": "contracts/launchpad/RaiseFunding.sol",
  "abi": [
    {
      "inputs": [
        {
          "internalType": "contract IERC20",
          "name": "_buyToken",
          "type": "address"
        },
        {
          "internalType": "contract IERC20",
          "name": "_offeringToken",
          "type": "address"
        },
        {
          "internalType": "uint256",
          "name": "_startTime",
          "type": "uint256"
        },
        {
          "internalType": "uint256",
          "name": "_endTime",
          "type": "uint256"
        },
        {
          "internalType": "uint256",
          "name": "_offeringAmount",
          "type": "uint256"
        },
        {
          "internalType": "uint256",
          "name": "_raisingAmount",
          "type": "uint256"
        }
      ],
      "stateMutability": "nonpayable",
      "type": "constructor"
    },
    {
      "anonymous": false,
      "inputs": [
        {
          "indexed": true,
          "internalType": "address",
          "name": "user",
          "type": "address"
        },
        {
          "indexed": false,
          "internalType": "uint256",
          "name": "amount",
          "type": "uint256"
        }
      ],
      "name": "Deposit",
      "type": "event"
    },
    {
      "anonymous": false,
      "inputs": [
        {
          "indexed": true,
          "internalType": "address",
          "name": "user",
          "type": "address"
        },
        {
          "indexed": false,
          "internalType": "uint256",
          "name": "offeringAmount",
          "type": "uint256"
        },
        {
          "indexed": false,
          "internalType": "uint256",
          "name": "excessAmount",
          "type": "uint256"
        }
      ],
      "name": "Harvest",
      "type": "event"
    },
    {
      "anonymous": false,
      "inputs": [
        {
          "indexed": true,
          "internalType": "address",
          "name": "previousOwner",
          "type": "address"
        },
        {
          "indexed": true,
          "internalType": "address",
          "name": "newOwner",
          "type": "address"
        }
      ],
      "name": "OwnershipTransferred",
      "type": "event"
    },
    {
      "inputs": [
        {
          "internalType": "uint256",
          "name": "",
          "type": "uint256"
        }
      ],
      "name": "addressList",
      "outputs": [
        {
          "internalType": "address",
          "name": "",
          "type": "address"
        }
      ],
      "stateMutability": "view",
      "type": "function"
    },
    {
      "inputs": [],
      "name": "buyToken",
      "outputs": [
        {
          "internalType": "contract IERC20",
          "name": "",
          "type": "address"
        }
      ],
      "stateMutability": "view",
      "type": "function"
    },
    {
      "inputs": [
        {
          "internalType": "uint256",
          "name": "_amount",
          "type": "uint256"
        }
      ],
      "name": "deposit",
      "outputs": [],
      "stateMutability": "payable",
      "type": "function"
    },
    {
      "inputs": [
        {
          "internalType": "address",
          "name": "token",
          "type": "address"
        },
        {
          "internalType": "uint256",
          "name": "amount",
          "type": "uint256"
        },
        {
          "internalType": "address payable",
          "name": "to",
          "type": "address"
        }
      ],
      "name": "emergencyWithdraw",
      "outputs": [],
      "stateMutability": "nonpayable",
      "type": "function"
    },
    {
      "inputs": [],
      "name": "endTime",
      "outputs": [
        {
          "internalType": "uint256",
          "name": "",
          "type": "uint256"
        }
      ],
      "stateMutability": "view",
      "type": "function"
    },
    {
      "inputs": [
        {
          "internalType": "uint256",
          "name": "_raisingAmount",
          "type": "uint256"
        },
        {
          "internalType": "uint256",
          "name": "_offerAmount",
          "type": "uint256"
        }
      ],
      "name": "finalWithdraw",
      "outputs": [],
      "stateMutability": "nonpayable",
      "type": "function"
    },
    {
      "inputs": [],
      "name": "getAddressListLength",
      "outputs": [
        {
          "internalType": "uint256",
          "name": "",
          "type": "uint256"
        }
      ],
      "stateMutability": "view",
      "type": "function"
    },
    {
      "inputs": [],
      "name": "getInfo",
      "outputs": [
        {
          "internalType": "contract IERC20",
          "name": "",
          "type": "address"
        },
        {
          "internalType": "contract IERC20",
          "name": "",
          "type": "address"
        },
        {
          "internalType": "uint256",
          "name": "",
          "type": "uint256"
        },
        {
          "internalType": "uint256",
          "name": "",
          "type": "uint256"
        },
        {
          "internalType": "uint256",
          "name": "",
          "type": "uint256"
        },
        {
          "internalType": "uint256",
          "name": "",
          "type": "uint256"
        }
      ],
      "stateMutability": "view",
      "type": "function"
    },
    {
      "inputs": [
        {
          "internalType": "address",
          "name": "_user",
          "type": "address"
        }
      ],
      "name": "getOfferingAmount",
      "outputs": [
        {
          "internalType": "uint256",
          "name": "",
          "type": "uint256"
        }
      ],
      "stateMutability": "view",
      "type": "function"
    },
    {
      "inputs": [
        {
          "internalType": "address",
          "name": "_user",
          "type": "address"
        }
      ],
      "name": "getRefundingAmount",
      "outputs": [
        {
          "internalType": "uint256",
          "name": "",
          "type": "uint256"
        }
      ],
      "stateMutability": "view",
      "type": "function"
    },
    {
      "inputs": [
        {
          "internalType": "address",
          "name": "_user",
          "type": "address"
        }
      ],
      "name": "getUserAllocation",
      "outputs": [
        {
          "internalType": "uint256",
          "name": "",
          "type": "uint256"
        }
      ],
      "stateMutability": "view",
      "type": "function"
    },
    {
      "inputs": [],
      "name": "harvest",
      "outputs": [],
      "stateMutability": "nonpayable",
      "type": "function"
    },
    {
      "inputs": [
        {
          "internalType": "address",
          "name": "_user",
          "type": "address"
        }
      ],
      "name": "hasHarvest",
      "outputs": [
        {
          "internalType": "bool",
          "name": "",
          "type": "bool"
        }
      ],
      "stateMutability": "view",
      "type": "function"
    },
    {
      "inputs": [],
      "name": "offeringAmount",
      "outputs": [
        {
          "internalType": "uint256",
          "name": "",
          "type": "uint256"
        }
      ],
      "stateMutability": "view",
      "type": "function"
    },
    {
      "inputs": [],
      "name": "offeringToken",
      "outputs": [
        {
          "internalType": "contract IERC20",
          "name": "",
          "type": "address"
        }
      ],
      "stateMutability": "view",
      "type": "function"
    },
    {
      "inputs": [],
      "name": "owner",
      "outputs": [
        {
          "internalType": "address",
          "name": "",
          "type": "address"
        }
      ],
      "stateMutability": "view",
      "type": "function"
    },
    {
      "inputs": [],
      "name": "raisingAmount",
      "outputs": [
        {
          "internalType": "uint256",
          "name": "",
          "type": "uint256"
        }
      ],
      "stateMutability": "view",
      "type": "function"
    },
    {
      "inputs": [],
      "name": "renounceOwnership",
      "outputs": [],
      "stateMutability": "nonpayable",
      "type": "function"
    },
    {
      "inputs": [
        {
          "internalType": "uint256",
          "name": "_offerAmount",
          "type": "uint256"
        }
      ],
      "name": "setOfferingAmount",
      "outputs": [],
      "stateMutability": "nonpayable",
      "type": "function"
    },
    {
      "inputs": [
        {
          "internalType": "uint256",
          "name": "_raisingAmount",
          "type": "uint256"
        }
      ],
      "name": "setRaisingAmount",
      "outputs": [],
      "stateMutability": "nonpayable",
      "type": "function"
    },
    {
      "inputs": [],
      "name": "startTime",
      "outputs": [
        {
          "internalType": "uint256",
          "name": "",
          "type": "uint256"
        }
      ],
      "stateMutability": "view",
      "type": "function"
    },
    {
      "inputs": [],
      "name": "totalAmount",
      "outputs": [
        {
          "internalType": "uint256",
          "name": "",
          "type": "uint256"
        }
      ],
      "stateMutability": "view",
      "type": "function"
    },
    {
      "inputs": [
        {
          "internalType": "address",
          "name": "newOwner",
          "type": "address"
        }
      ],
      "name": "transferOwnership",
      "outputs": [],
      "stateMutability": "nonpayable",
      "type": "function"
    },
    {
      "inputs": [
        {
          "internalType": "address",
          "name": "",
          "type": "address"
        }
      ],
      "name": "userInfo",
      "outputs": [
        {
          "internalType": "uint256",
          "name": "amount",
          "type": "uint256"
        },
        {
          "internalType": "bool",
          "name": "claimed",
          "type": "bool"
        }
      ],
      "stateMutability": "view",
      "type": "function"
    }
  ],
  "bytecode": "0x60806040523480156200001157600080fd5b5060405162002f8338038062002f8383398181016040528101906200003791906200020d565b60016000819055506200005f620000536200011160201b60201c565b6200011960201b60201c565b85600260006101000a81548173ffffffffffffffffffffffffffffffffffffffff021916908373ffffffffffffffffffffffffffffffffffffffff16021790555084600360006101000a81548173ffffffffffffffffffffffffffffffffffffffff021916908373ffffffffffffffffffffffffffffffffffffffff16021790555083600481905550826005819055508160078190555080600681905550600060088190555050505050505062000329565b600033905090565b6000600160009054906101000a900473ffffffffffffffffffffffffffffffffffffffff16905081600160006101000a81548173ffffffffffffffffffffffffffffffffffffffff021916908373ffffffffffffffffffffffffffffffffffffffff1602179055508173ffffffffffffffffffffffffffffffffffffffff168173ffffffffffffffffffffffffffffffffffffffff167f8be0079c531659141344cd1fd0a4f28419497f9722a3daafe3b4186f6b6457e060405160405180910390a35050565b600081519050620001f081620002f5565b92915050565b60008151905062000207816200030f565b92915050565b60008060008060008060c087890312156200022757600080fd5b60006200023789828a01620001df565b96505060206200024a89828a01620001df565b95505060406200025d89828a01620001f6565b94505060606200027089828a01620001f6565b93505060806200028389828a01620001f6565b92505060a06200029689828a01620001f6565b9150509295509295509295565b6000620002b082620002cb565b9050919050565b6000620002c482620002a3565b9050919050565b600073ffffffffffffffffffffffffffffffffffffffff82169050919050565b6000819050919050565b6200030081620002b7565b81146200030c57600080fd5b50565b6200031a81620002eb565b81146200032657600080fd5b50565b612c4a80620003396000396000f3fe60806040526004361061014b5760003560e01c806387e97bc6116100b6578063b78136071161006f578063b781360714610465578063b810fb4314610490578063b920ade2146104cd578063e1af9a951461050a578063f2fde38b14610535578063fc00358e1461055e5761014b565b806387e97bc6146103625780638da5cb5b1461039f5780639c0a7669146103ca5780639f1b5248146103f5578063a48217191461041e578063b6b55f25146104495761014b565b80634641257d116101085780634641257d14610273578063551512de1461028a5780635a9b0b89146102b357806364ce9fff146102e3578063715018a61461032057806378e97925146103375761014b565b80631959a002146101505780631a39d8ef1461018e57806327d1b1a2146101b95780632f5105f8146101e25780633197cbb61461021f5780634225c32f1461024a575b600080fd5b34801561015c57600080fd5b5061017760048036038101906101729190611e6c565b610589565b6040516101859291906125d7565b60405180910390f35b34801561019a57600080fd5b506101a36105ba565b6040516101b091906125bc565b60405180910390f35b3480156101c557600080fd5b506101e060048036038101906101db9190611f0d565b6105c0565b005b3480156101ee57600080fd5b5061020960048036038101906102049190611e6c565b61068a565b60405161021691906125bc565b60405180910390f35b34801561022b57600080fd5b5061023461073a565b60405161024191906125bc565b60405180910390f35b34801561025657600080fd5b50610271600480360381019061026c9190611f0d565b610740565b005b34801561027f57600080fd5b5061028861080a565b005b34801561029657600080fd5b506102b160048036038101906102ac9190611e95565b610b8d565b005b3480156102bf57600080fd5b506102c8610cbb565b6040516102da96959493929190612339565b60405180910390f35b3480156102ef57600080fd5b5061030a60048036038101906103059190611e6c565b610d2a565b6040516103179190612303565b60405180910390f35b34801561032c57600080fd5b50610335610d83565b005b34801561034357600080fd5b5061034c610e0b565b60405161035991906125bc565b60405180910390f35b34801561036e57600080fd5b5061038960048036038101906103849190611e6c565b610e11565b60405161039691906125bc565b60405180910390f35b3480156103ab57600080fd5b506103b4610ed1565b6040516103c19190612288565b60405180910390f35b3480156103d657600080fd5b506103df610efb565b6040516103ec91906125bc565b60405180910390f35b34801561040157600080fd5b5061041c60048036038101906104179190611f5f565b610f01565b005b34801561042a57600080fd5b5061043361125a565b604051610440919061231e565b60405180910390f35b610463600480360381019061045e9190611f0d565b611280565b005b34801561047157600080fd5b5061047a61162f565b604051610487919061231e565b60405180910390f35b34801561049c57600080fd5b506104b760048036038101906104b29190611f0d565b611655565b6040516104c49190612288565b60405180910390f35b3480156104d957600080fd5b506104f460048036038101906104ef9190611e6c565b611694565b60405161050191906125bc565b60405180910390f35b34801561051657600080fd5b5061051f611720565b60405161052c91906125bc565b60405180910390f35b34801561054157600080fd5b5061055c60048036038101906105579190611e6c565b611726565b005b34801561056a57600080fd5b5061057361181e565b60405161058091906125bc565b60405180910390f35b60096020528060005260406000206000915090508060000154908060010160009054906101000a900460ff16905082565b60085481565b6105c861182b565b73ffffffffffffffffffffffffffffffffffffffff166105e6610ed1565b73ffffffffffffffffffffffffffffffffffffffff161461063c576040517f08c379a0000000000000000000000000000000000000000000000000000000008152600401610633906124bc565b60405180910390fd5b6004544210610680576040517f08c379a00000000000000000000000000000000000000000000000000000000081526004016106779061245c565b60405180910390fd5b8060078190555050565b6000600654600854116106a05760009050610735565b60006106ab83611694565b905060006106d9620f42406106cb8460065461183390919063ffffffff16565b61184990919063ffffffff16565b905061073081600960008773ffffffffffffffffffffffffffffffffffffffff1673ffffffffffffffffffffffffffffffffffffffff1681526020019081526020016000206000015461185f90919063ffffffff16565b925050505b919050565b60055481565b61074861182b565b73ffffffffffffffffffffffffffffffffffffffff16610766610ed1565b73ffffffffffffffffffffffffffffffffffffffff16146107bc576040517f08c379a00000000000000000000000000000000000000000000000000000000081526004016107b3906124bc565b60405180910390fd5b6004544210610800576040517f08c379a00000000000000000000000000000000000000000000000000000000081526004016107f79061245c565b60405180910390fd5b8060068190555050565b60026000541415610850576040517f08c379a00000000000000000000000000000000000000000000000000000000081526004016108479061257c565b60405180910390fd5b6002600081905550600554421161089c576040517f08c379a0000000000000000000000000000000000000000000000000000000008152600401610893906124fc565b60405180910390fd5b6000600960003373ffffffffffffffffffffffffffffffffffffffff1673ffffffffffffffffffffffffffffffffffffffff1681526020019081526020016000206000015411610921576040517f08c379a00000000000000000000000000000000000000000000000000000000081526004016109189061249c565b60405180910390fd5b600960003373ffffffffffffffffffffffffffffffffffffffff1673ffffffffffffffffffffffffffffffffffffffff16815260200190815260200160002060010160009054906101000a900460ff16156109b1576040517f08c379a00000000000000000000000000000000000000000000000000000000081526004016109a89061259c565b60405180910390fd5b60006109bc33610e11565b905060006109c93361068a565b9050610a183383600360009054906101000a900473ffffffffffffffffffffffffffffffffffffffff1673ffffffffffffffffffffffffffffffffffffffff166118759092919063ffffffff16565b6000811115610ad657600073ffffffffffffffffffffffffffffffffffffffff16600260009054906101000a900473ffffffffffffffffffffffffffffffffffffffff1673ffffffffffffffffffffffffffffffffffffffff161415610a8757610a8233826118fb565b610ad5565b610ad43382600260009054906101000a900473ffffffffffffffffffffffffffffffffffffffff1673ffffffffffffffffffffffffffffffffffffffff166118759092919063ffffffff16565b5b5b6001600960003373ffffffffffffffffffffffffffffffffffffffff1673ffffffffffffffffffffffffffffffffffffffff16815260200190815260200160002060010160006101000a81548160ff0219169083151502179055503373ffffffffffffffffffffffffffffffffffffffff167f71bab65ced2e5750775a0613be067df48ef06cf92a496ebf7663ae06609249548383604051610b79929190612600565b60405180910390a250506001600081905550565b610b9561182b565b73ffffffffffffffffffffffffffffffffffffffff16610bb3610ed1565b73ffffffffffffffffffffffffffffffffffffffff1614610c09576040517f08c379a0000000000000000000000000000000000000000000000000000000008152600401610c00906124bc565b60405180910390fd5b600073ffffffffffffffffffffffffffffffffffffffff168373ffffffffffffffffffffffffffffffffffffffff161415610c8a578073ffffffffffffffffffffffffffffffffffffffff166108fc839081150290604051600060405180830381858888f19350505050158015610c84573d6000803e3d6000fd5b50610cb6565b610cb581838573ffffffffffffffffffffffffffffffffffffffff166118759092919063ffffffff16565b5b505050565b600080600080600080600260009054906101000a900473ffffffffffffffffffffffffffffffffffffffff16600360009054906101000a900473ffffffffffffffffffffffffffffffffffffffff16600454600554600754600654955095509550955095509550909192939495565b6000600960008373ffffffffffffffffffffffffffffffffffffffff1673ffffffffffffffffffffffffffffffffffffffff16815260200190815260200160002060010160009054906101000a900460ff169050919050565b610d8b61182b565b73ffffffffffffffffffffffffffffffffffffffff16610da9610ed1565b73ffffffffffffffffffffffffffffffffffffffff1614610dff576040517f08c379a0000000000000000000000000000000000000000000000000000000008152600401610df6906124bc565b60405180910390fd5b610e096000611a21565b565b60045481565b60006006546008541115610e5e576000610e2a83611694565b9050610e56620f4240610e488360075461183390919063ffffffff16565b61184990919063ffffffff16565b915050610ecc565b610ec9600654610ebb600754600960008773ffffffffffffffffffffffffffffffffffffffff1673ffffffffffffffffffffffffffffffffffffffff1681526020019081526020016000206000015461183390919063ffffffff16565b61184990919063ffffffff16565b90505b919050565b6000600160009054906101000a900473ffffffffffffffffffffffffffffffffffffffff16905090565b60065481565b610f0961182b565b73ffffffffffffffffffffffffffffffffffffffff16610f27610ed1565b73ffffffffffffffffffffffffffffffffffffffff1614610f7d576040517f08c379a0000000000000000000000000000000000000000000000000000000008152600401610f74906124bc565b60405180910390fd5b600360009054906101000a900473ffffffffffffffffffffffffffffffffffffffff1673ffffffffffffffffffffffffffffffffffffffff166370a08231306040518263ffffffff1660e01b8152600401610fd89190612288565b60206040518083038186803b158015610ff057600080fd5b505afa158015611004573d6000803e3d6000fd5b505050506040513d601f19601f820116820180604052508101906110289190611f36565b8110611069576040517f08c379a0000000000000000000000000000000000000000000000000000000008152600401611060906123dc565b60405180910390fd5b600073ffffffffffffffffffffffffffffffffffffffff16600260009054906101000a900473ffffffffffffffffffffffffffffffffffffffff1673ffffffffffffffffffffffffffffffffffffffff1614156110cf576110ca33836118fb565b611209565b600260009054906101000a900473ffffffffffffffffffffffffffffffffffffffff1673ffffffffffffffffffffffffffffffffffffffff166370a08231306040518263ffffffff1660e01b815260040161112a9190612288565b60206040518083038186803b15801561114257600080fd5b505afa158015611156573d6000803e3d6000fd5b505050506040513d601f19601f8201168201806040525081019061117a9190611f36565b82106111bb576040517f08c379a00000000000000000000000000000000000000000000000000000000081526004016111b2906124dc565b60405180910390fd5b6112083383600260009054906101000a900473ffffffffffffffffffffffffffffffffffffffff1673ffffffffffffffffffffffffffffffffffffffff166118759092919063ffffffff16565b5b6112563382600360009054906101000a900473ffffffffffffffffffffffffffffffffffffffff1673ffffffffffffffffffffffffffffffffffffffff166118759092919063ffffffff16565b5050565b600260009054906101000a900473ffffffffffffffffffffffffffffffffffffffff1681565b600260005414156112c6576040517f08c379a00000000000000000000000000000000000000000000000000000000081526004016112bd9061257c565b60405180910390fd5b600260008190555080600454421180156112e1575060055442105b611320576040517f08c379a00000000000000000000000000000000000000000000000000000000081526004016113179061241c565b60405180910390fd5b60008111611363576040517f08c379a000000000000000000000000000000000000000000000000000000000815260040161135a906123bc565b60405180910390fd5b600073ffffffffffffffffffffffffffffffffffffffff16600260009054906101000a900473ffffffffffffffffffffffffffffffffffffffff1673ffffffffffffffffffffffffffffffffffffffff16141561142057813410156113fd576040517f08c379a00000000000000000000000000000000000000000000000000000000081526004016113f49061247c565b60405180910390fd5b8134111561141b5761141a338334611415919061273c565b6118fb565b5b611470565b61146f333084600260009054906101000a900473ffffffffffffffffffffffffffffffffffffffff1673ffffffffffffffffffffffffffffffffffffffff16611ae7909392919063ffffffff16565b5b6000600960003373ffffffffffffffffffffffffffffffffffffffff1673ffffffffffffffffffffffffffffffffffffffff16815260200190815260200160002060000154141561151f57600a339080600181540180825580915050600190039060005260206000200160009091909190916101000a81548173ffffffffffffffffffffffffffffffffffffffff021916908373ffffffffffffffffffffffffffffffffffffffff1602179055505b61157482600960003373ffffffffffffffffffffffffffffffffffffffff1673ffffffffffffffffffffffffffffffffffffffff16815260200190815260200160002060000154611b7090919063ffffffff16565b600960003373ffffffffffffffffffffffffffffffffffffffff1673ffffffffffffffffffffffffffffffffffffffff168152602001908152602001600020600001819055506115cf82600854611b7090919063ffffffff16565b6008819055503373ffffffffffffffffffffffffffffffffffffffff167fe1fffcc4923d04b559f4d29a8bfc6cda04eb5b0d3c460751c2402c5c5cc9109c8360405161161b91906125bc565b60405180910390a250600160008190555050565b600360009054906101000a900473ffffffffffffffffffffffffffffffffffffffff1681565b600a818154811061166557600080fd5b906000526020600020016000915054906101000a900473ffffffffffffffffffffffffffffffffffffffff1681565b6000611719620f424061170b6008546116fd64e8d4a51000600960008973ffffffffffffffffffffffffffffffffffffffff1673ffffffffffffffffffffffffffffffffffffffff1681526020019081526020016000206000015461183390919063ffffffff16565b61184990919063ffffffff16565b61184990919063ffffffff16565b9050919050565b60075481565b61172e61182b565b73ffffffffffffffffffffffffffffffffffffffff1661174c610ed1565b73ffffffffffffffffffffffffffffffffffffffff16146117a2576040517f08c379a0000000000000000000000000000000000000000000000000000000008152600401611799906124bc565b60405180910390fd5b600073ffffffffffffffffffffffffffffffffffffffff168173ffffffffffffffffffffffffffffffffffffffff161415611812576040517f08c379a0000000000000000000000000000000000000000000000000000000008152600401611809906123fc565b60405180910390fd5b61181b81611a21565b50565b6000600a80549050905090565b600033905090565b6000818361184191906126e2565b905092915050565b6000818361185791906126b1565b905092915050565b6000818361186d919061273c565b905092915050565b6118f68363a9059cbb60e01b84846040516024016118949291906122da565b604051602081830303815290604052907bffffffffffffffffffffffffffffffffffffffffffffffffffffffff19166020820180517bffffffffffffffffffffffffffffffffffffffffffffffffffffffff8381831617835250505050611b86565b505050565b60008273ffffffffffffffffffffffffffffffffffffffff1682600067ffffffffffffffff811115611956577f4e487b7100000000000000000000000000000000000000000000000000000000600052604160045260246000fd5b6040519080825280601f01601f1916602001820160405280156119885781602001600182028036833780820191505090505b506040516119969190612271565b60006040518083038185875af1925050503d80600081146119d3576040519150601f19603f3d011682016040523d82523d6000602084013e6119d8565b606091505b5050905080611a1c576040517f08c379a0000000000000000000000000000000000000000000000000000000008152600401611a139061253c565b60405180910390fd5b505050565b6000600160009054906101000a900473ffffffffffffffffffffffffffffffffffffffff16905081600160006101000a81548173ffffffffffffffffffffffffffffffffffffffff021916908373ffffffffffffffffffffffffffffffffffffffff1602179055508173ffffffffffffffffffffffffffffffffffffffff168173ffffffffffffffffffffffffffffffffffffffff167f8be0079c531659141344cd1fd0a4f28419497f9722a3daafe3b4186f6b6457e060405160405180910390a35050565b611b6a846323b872dd60e01b858585604051602401611b08939291906122a3565b604051602081830303815290604052907bffffffffffffffffffffffffffffffffffffffffffffffffffffffff19166020820180517bffffffffffffffffffffffffffffffffffffffffffffffffffffffff8381831617835250505050611b86565b50505050565b60008183611b7e919061265b565b905092915050565b6000611be8826040518060400160405280602081526020017f5361666545524332303a206c6f772d6c6576656c2063616c6c206661696c65648152508573ffffffffffffffffffffffffffffffffffffffff16611c4d9092919063ffffffff16565b9050600081511115611c485780806020019051810190611c089190611ee4565b611c47576040517f08c379a0000000000000000000000000000000000000000000000000000000008152600401611c3e9061255c565b60405180910390fd5b5b505050565b6060611c5c8484600085611c65565b90509392505050565b606082471015611caa576040517f08c379a0000000000000000000000000000000000000000000000000000000008152600401611ca19061243c565b60405180910390fd5b611cb385611d79565b611cf2576040517f08c379a0000000000000000000000000000000000000000000000000000000008152600401611ce99061251c565b60405180910390fd5b6000808673ffffffffffffffffffffffffffffffffffffffff168587604051611d1b9190612271565b60006040518083038185875af1925050503d8060008114611d58576040519150601f19603f3d011682016040523d82523d6000602084013e611d5d565b606091505b5091509150611d6d828286611d9c565b92505050949350505050565b6000808273ffffffffffffffffffffffffffffffffffffffff163b119050919050565b60608315611dac57829050611dfc565b600083511115611dbf5782518084602001fd5b816040517f08c379a0000000000000000000000000000000000000000000000000000000008152600401611df3919061239a565b60405180910390fd5b9392505050565b600081359050611e1281612bb8565b92915050565b600081359050611e2781612bcf565b92915050565b600081519050611e3c81612be6565b92915050565b600081359050611e5181612bfd565b92915050565b600081519050611e6681612bfd565b92915050565b600060208284031215611e7e57600080fd5b6000611e8c84828501611e03565b91505092915050565b600080600060608486031215611eaa57600080fd5b6000611eb886828701611e03565b9350506020611ec986828701611e42565b9250506040611eda86828701611e18565b9150509250925092565b600060208284031215611ef657600080fd5b6000611f0484828501611e2d565b91505092915050565b600060208284031215611f1f57600080fd5b6000611f2d84828501611e42565b91505092915050565b600060208284031215611f4857600080fd5b6000611f5684828501611e57565b91505092915050565b60008060408385031215611f7257600080fd5b6000611f8085828601611e42565b9250506020611f9185828601611e42565b9150509250929050565b611fa481612770565b82525050565b611fb381612794565b82525050565b6000611fc482612629565b611fce818561263f565b9350611fde8185602086016127ee565b80840191505092915050565b611ff3816127ca565b82525050565b600061200482612634565b61200e818561264a565b935061201e8185602086016127ee565b6120278161287f565b840191505092915050565b600061203f60108361264a565b915061204a82612890565b602082019050919050565b600061206260128361264a565b915061206d826128b9565b602082019050919050565b600061208560268361264a565b9150612090826128e2565b604082019050919050565b60006120a860108361264a565b91506120b382612931565b602082019050919050565b60006120cb60268361264a565b91506120d68261295a565b604082019050919050565b60006120ee60028361264a565b91506120f9826129a9565b602082019050919050565b600061211160118361264a565b915061211c826129d2565b602082019050919050565b600061213460168361264a565b915061213f826129fb565b602082019050919050565b600061215760208361264a565b915061216282612a24565b602082019050919050565b600061217a60128361264a565b915061218582612a4d565b602082019050919050565b600061219d60108361264a565b91506121a882612a76565b602082019050919050565b60006121c0601d8361264a565b91506121cb82612a9f565b602082019050919050565b60006121e360238361264a565b91506121ee82612ac8565b604082019050919050565b6000612206602a8361264a565b915061221182612b17565b604082019050919050565b6000612229601f8361264a565b915061223482612b66565b602082019050919050565b600061224c60128361264a565b915061225782612b8f565b602082019050919050565b61226b816127c0565b82525050565b600061227d8284611fb9565b915081905092915050565b600060208201905061229d6000830184611f9b565b92915050565b60006060820190506122b86000830186611f9b565b6122c56020830185611f9b565b6122d26040830184612262565b949350505050565b60006040820190506122ef6000830185611f9b565b6122fc6020830184612262565b9392505050565b60006020820190506123186000830184611faa565b92915050565b60006020820190506123336000830184611fea565b92915050565b600060c08201905061234e6000830189611fea565b61235b6020830188611fea565b6123686040830187612262565b6123756060830186612262565b6123826080830185612262565b61238f60a0830184612262565b979650505050505050565b600060208201905081810360008301526123b48184611ff9565b905092915050565b600060208201905081810360008301526123d581612032565b9050919050565b600060208201905081810360008301526123f581612055565b9050919050565b6000602082019050818103600083015261241581612078565b9050919050565b600060208201905081810360008301526124358161209b565b9050919050565b60006020820190508181036000830152612455816120be565b9050919050565b60006020820190508181036000830152612475816120e1565b9050919050565b6000602082019050818103600083015261249581612104565b9050919050565b600060208201905081810360008301526124b581612127565b9050919050565b600060208201905081810360008301526124d58161214a565b9050919050565b600060208201905081810360008301526124f58161216d565b9050919050565b6000602082019050818103600083015261251581612190565b9050919050565b60006020820190508181036000830152612535816121b3565b9050919050565b60006020820190508181036000830152612555816121d6565b9050919050565b60006020820190508181036000830152612575816121f9565b9050919050565b600060208201905081810360008301526125958161221c565b9050919050565b600060208201905081810360008301526125b58161223f565b9050919050565b60006020820190506125d16000830184612262565b92915050565b60006040820190506125ec6000830185612262565b6125f96020830184611faa565b9392505050565b60006040820190506126156000830185612262565b6126226020830184612262565b9392505050565b600081519050919050565b600081519050919050565b600081905092915050565b600082825260208201905092915050565b6000612666826127c0565b9150612671836127c0565b9250827fffffffffffffffffffffffffffffffffffffffffffffffffffffffffffffffff038211156126a6576126a5612821565b5b828201905092915050565b60006126bc826127c0565b91506126c7836127c0565b9250826126d7576126d6612850565b5b828204905092915050565b60006126ed826127c0565b91506126f8836127c0565b9250817fffffffffffffffffffffffffffffffffffffffffffffffffffffffffffffffff048311821515161561273157612730612821565b5b828202905092915050565b6000612747826127c0565b9150612752836127c0565b92508282101561276557612764612821565b5b828203905092915050565b600061277b826127a0565b9050919050565b600061278d826127a0565b9050919050565b60008115159050919050565b600073ffffffffffffffffffffffffffffffffffffffff82169050919050565b6000819050919050565b60006127d5826127dc565b9050919050565b60006127e7826127a0565b9050919050565b60005b8381101561280c5780820151818401526020810190506127f1565b8381111561281b576000848401525b50505050565b7f4e487b7100000000000000000000000000000000000000000000000000000000600052601160045260246000fd5b7f4e487b7100000000000000000000000000000000000000000000000000000000600052601260045260246000fd5b6000601f19601f8301169050919050565b7f6e656564205f616d6f756e74203e203000000000000000000000000000000000600082015250565b7f6e6f7420656e6f75676820746f6b656e20310000000000000000000000000000600082015250565b7f4f776e61626c653a206e6577206f776e657220697320746865207a65726f206160008201527f6464726573730000000000000000000000000000000000000000000000000000602082015250565b7f6e6f742072616973696e672074696d6500000000000000000000000000000000600082015250565b7f416464726573733a20696e73756666696369656e742062616c616e636520666f60008201527f722063616c6c0000000000000000000000000000000000000000000000000000602082015250565b7f6e6f000000000000000000000000000000000000000000000000000000000000600082015250565b7f616d6f756e74206e6f7420656e6f756768000000000000000000000000000000600082015250565b7f6861766520796f75207061727469636970617465643f00000000000000000000600082015250565b7f4f776e61626c653a2063616c6c6572206973206e6f7420746865206f776e6572600082015250565b7f6e6f7420656e6f75676820746f6b656e20300000000000000000000000000000600082015250565b7f6e6f7420686172766573742074696d6500000000000000000000000000000000600082015250565b7f416464726573733a2063616c6c20746f206e6f6e2d636f6e7472616374000000600082015250565b7f5472616e7366657248656c7065723a204b41495f5452414e534645525f46414960008201527f4c45440000000000000000000000000000000000000000000000000000000000602082015250565b7f5361666545524332303a204552433230206f7065726174696f6e20646964206e60008201527f6f74207375636365656400000000000000000000000000000000000000000000602082015250565b7f5265656e7472616e637947756172643a207265656e7472616e742063616c6c00600082015250565b7f6e6f7468696e6720746f20686172766573740000000000000000000000000000600082015250565b612bc181612770565b8114612bcc57600080fd5b50565b612bd881612782565b8114612be357600080fd5b50565b612bef81612794565b8114612bfa57600080fd5b50565b612c06816127c0565b8114612c1157600080fd5b5056fea26469706673582212209f4c996779a8a1ba9f5627a0a169911e2d1103f438df24168718c78237524e7e64736f6c63430008040033",
  "linkReferences": {},
  "deployedLinkReferences": {}
}