{
  "_format": "hh-sol-artifact-1",
  "contractName": "RaiseFunding",
  "sourceName": "contracts/launchpad/RaiseFunding.sol",
  "abi": [
    {
      "inputs": [
        {
          "internalType": "contract ERC20",
          "name": "_buyToken",
          "type": "address"
        },
        {
          "internalType": "contract ERC20",
          "name": "_offeringToken",
          "type": "address"
        },
        {
          "internalType": "uint256",
          "name": "_startTime",
          "type": "uint256"
        },
        {
          "internalType": "uint256",
          "name": "_endTime",
          "type": "uint256"
        },
        {
          "internalType": "uint256",
          "name": "_offeringAmount",
          "type": "uint256"
        },
        {
          "internalType": "uint256",
          "name": "_raisingAmount",
          "type": "uint256"
        }
      ],
      "stateMutability": "nonpayable",
      "type": "constructor"
    },
    {
      "anonymous": false,
      "inputs": [
        {
          "indexed": true,
          "internalType": "address",
          "name": "user",
          "type": "address"
        },
        {
          "indexed": false,
          "internalType": "uint256",
          "name": "amount",
          "type": "uint256"
        }
      ],
      "name": "Deposit",
      "type": "event"
    },
    {
      "anonymous": false,
      "inputs": [
        {
          "indexed": true,
          "internalType": "address",
          "name": "user",
          "type": "address"
        },
        {
          "indexed": false,
          "internalType": "uint256",
          "name": "offeringAmount",
          "type": "uint256"
        },
        {
          "indexed": false,
          "internalType": "uint256",
          "name": "excessAmount",
          "type": "uint256"
        }
      ],
      "name": "Harvest",
      "type": "event"
    },
    {
      "anonymous": false,
      "inputs": [
        {
          "indexed": true,
          "internalType": "address",
          "name": "previousOwner",
          "type": "address"
        },
        {
          "indexed": true,
          "internalType": "address",
          "name": "newOwner",
          "type": "address"
        }
      ],
      "name": "OwnershipTransferred",
      "type": "event"
    },
    {
      "inputs": [
        {
          "internalType": "uint256",
          "name": "",
          "type": "uint256"
        }
      ],
      "name": "addressList",
      "outputs": [
        {
          "internalType": "address",
          "name": "",
          "type": "address"
        }
      ],
      "stateMutability": "view",
      "type": "function"
    },
    {
      "inputs": [],
      "name": "buyToken",
      "outputs": [
        {
          "internalType": "contract ERC20",
          "name": "",
          "type": "address"
        }
      ],
      "stateMutability": "view",
      "type": "function"
    },
    {
      "inputs": [
        {
          "internalType": "uint256",
          "name": "_amount",
          "type": "uint256"
        }
      ],
      "name": "deposit",
      "outputs": [],
      "stateMutability": "payable",
      "type": "function"
    },
    {
      "inputs": [
        {
          "internalType": "address",
          "name": "token",
          "type": "address"
        },
        {
          "internalType": "uint256",
          "name": "amount",
          "type": "uint256"
        },
        {
          "internalType": "address payable",
          "name": "to",
          "type": "address"
        }
      ],
      "name": "emergencyWithdraw",
      "outputs": [],
      "stateMutability": "nonpayable",
      "type": "function"
    },
    {
      "inputs": [],
      "name": "endTime",
      "outputs": [
        {
          "internalType": "uint256",
          "name": "",
          "type": "uint256"
        }
      ],
      "stateMutability": "view",
      "type": "function"
    },
    {
      "inputs": [
        {
          "internalType": "uint256",
          "name": "_raisingAmount",
          "type": "uint256"
        },
        {
          "internalType": "uint256",
          "name": "_offerAmount",
          "type": "uint256"
        }
      ],
      "name": "finalWithdraw",
      "outputs": [],
      "stateMutability": "nonpayable",
      "type": "function"
    },
    {
      "inputs": [],
      "name": "getAddressListLength",
      "outputs": [
        {
          "internalType": "uint256",
          "name": "",
          "type": "uint256"
        }
      ],
      "stateMutability": "view",
      "type": "function"
    },
    {
      "inputs": [],
      "name": "getInfo",
      "outputs": [
        {
          "components": [
            {
              "internalType": "contract ERC20",
              "name": "token",
              "type": "address"
            },
            {
              "internalType": "uint256",
              "name": "decimals",
              "type": "uint256"
            },
            {
              "internalType": "string",
              "name": "name",
              "type": "string"
            },
            {
              "internalType": "string",
              "name": "symbol",
              "type": "string"
            }
          ],
          "internalType": "struct RaiseFunding.TokenInfo",
          "name": "",
          "type": "tuple"
        },
        {
          "components": [
            {
              "internalType": "contract ERC20",
              "name": "token",
              "type": "address"
            },
            {
              "internalType": "uint256",
              "name": "decimals",
              "type": "uint256"
            },
            {
              "internalType": "string",
              "name": "name",
              "type": "string"
            },
            {
              "internalType": "string",
              "name": "symbol",
              "type": "string"
            }
          ],
          "internalType": "struct RaiseFunding.TokenInfo",
          "name": "",
          "type": "tuple"
        },
        {
          "internalType": "uint256",
          "name": "",
          "type": "uint256"
        },
        {
          "internalType": "uint256",
          "name": "",
          "type": "uint256"
        },
        {
          "internalType": "uint256",
          "name": "",
          "type": "uint256"
        },
        {
          "internalType": "uint256",
          "name": "",
          "type": "uint256"
        }
      ],
      "stateMutability": "view",
      "type": "function"
    },
    {
      "inputs": [
        {
          "internalType": "address",
          "name": "_user",
          "type": "address"
        }
      ],
      "name": "getOfferingAmount",
      "outputs": [
        {
          "internalType": "uint256",
          "name": "",
          "type": "uint256"
        }
      ],
      "stateMutability": "view",
      "type": "function"
    },
    {
      "inputs": [
        {
          "internalType": "address",
          "name": "_user",
          "type": "address"
        }
      ],
      "name": "getRefundingAmount",
      "outputs": [
        {
          "internalType": "uint256",
          "name": "",
          "type": "uint256"
        }
      ],
      "stateMutability": "view",
      "type": "function"
    },
    {
      "inputs": [
        {
          "internalType": "address",
          "name": "_user",
          "type": "address"
        }
      ],
      "name": "getUserAllocation",
      "outputs": [
        {
          "internalType": "uint256",
          "name": "",
          "type": "uint256"
        }
      ],
      "stateMutability": "view",
      "type": "function"
    },
    {
      "inputs": [],
      "name": "harvest",
      "outputs": [],
      "stateMutability": "nonpayable",
      "type": "function"
    },
    {
      "inputs": [
        {
          "internalType": "address",
          "name": "_user",
          "type": "address"
        }
      ],
      "name": "hasHarvest",
      "outputs": [
        {
          "internalType": "bool",
          "name": "",
          "type": "bool"
        }
      ],
      "stateMutability": "view",
      "type": "function"
    },
    {
      "inputs": [],
      "name": "offeringAmount",
      "outputs": [
        {
          "internalType": "uint256",
          "name": "",
          "type": "uint256"
        }
      ],
      "stateMutability": "view",
      "type": "function"
    },
    {
      "inputs": [],
      "name": "offeringToken",
      "outputs": [
        {
          "internalType": "contract ERC20",
          "name": "",
          "type": "address"
        }
      ],
      "stateMutability": "view",
      "type": "function"
    },
    {
      "inputs": [],
      "name": "owner",
      "outputs": [
        {
          "internalType": "address",
          "name": "",
          "type": "address"
        }
      ],
      "stateMutability": "view",
      "type": "function"
    },
    {
      "inputs": [],
      "name": "raisingAmount",
      "outputs": [
        {
          "internalType": "uint256",
          "name": "",
          "type": "uint256"
        }
      ],
      "stateMutability": "view",
      "type": "function"
    },
    {
      "inputs": [],
      "name": "renounceOwnership",
      "outputs": [],
      "stateMutability": "nonpayable",
      "type": "function"
    },
    {
      "inputs": [
        {
          "internalType": "uint256",
          "name": "_offerAmount",
          "type": "uint256"
        }
      ],
      "name": "setOfferingAmount",
      "outputs": [],
      "stateMutability": "nonpayable",
      "type": "function"
    },
    {
      "inputs": [
        {
          "internalType": "uint256",
          "name": "_raisingAmount",
          "type": "uint256"
        }
      ],
      "name": "setRaisingAmount",
      "outputs": [],
      "stateMutability": "nonpayable",
      "type": "function"
    },
    {
      "inputs": [],
      "name": "startTime",
      "outputs": [
        {
          "internalType": "uint256",
          "name": "",
          "type": "uint256"
        }
      ],
      "stateMutability": "view",
      "type": "function"
    },
    {
      "inputs": [],
      "name": "totalAmount",
      "outputs": [
        {
          "internalType": "uint256",
          "name": "",
          "type": "uint256"
        }
      ],
      "stateMutability": "view",
      "type": "function"
    },
    {
      "inputs": [
        {
          "internalType": "address",
          "name": "newOwner",
          "type": "address"
        }
      ],
      "name": "transferOwnership",
      "outputs": [],
      "stateMutability": "nonpayable",
      "type": "function"
    },
    {
      "inputs": [
        {
          "internalType": "address",
          "name": "",
          "type": "address"
        }
      ],
      "name": "userInfo",
      "outputs": [
        {
          "internalType": "uint256",
          "name": "amount",
          "type": "uint256"
        },
        {
          "internalType": "bool",
          "name": "claimed",
          "type": "bool"
        }
      ],
      "stateMutability": "view",
      "type": "function"
    }
  ],
  "bytecode": "0x60806040523480156200001157600080fd5b50604051620034553803806200345583398181016040528101906200003791906200020d565b60016000819055506200005f620000536200011160201b60201c565b6200011960201b60201c565b85600260006101000a81548173ffffffffffffffffffffffffffffffffffffffff021916908373ffffffffffffffffffffffffffffffffffffffff16021790555084600360006101000a81548173ffffffffffffffffffffffffffffffffffffffff021916908373ffffffffffffffffffffffffffffffffffffffff16021790555083600481905550826005819055508160078190555080600681905550600060088190555050505050505062000329565b600033905090565b6000600160009054906101000a900473ffffffffffffffffffffffffffffffffffffffff16905081600160006101000a81548173ffffffffffffffffffffffffffffffffffffffff021916908373ffffffffffffffffffffffffffffffffffffffff1602179055508173ffffffffffffffffffffffffffffffffffffffff168173ffffffffffffffffffffffffffffffffffffffff167f8be0079c531659141344cd1fd0a4f28419497f9722a3daafe3b4186f6b6457e060405160405180910390a35050565b600081519050620001f081620002f5565b92915050565b60008151905062000207816200030f565b92915050565b60008060008060008060c087890312156200022757600080fd5b60006200023789828a01620001df565b96505060206200024a89828a01620001df565b95505060406200025d89828a01620001f6565b94505060606200027089828a01620001f6565b93505060806200028389828a01620001f6565b92505060a06200029689828a01620001f6565b9150509295509295509295565b6000620002b082620002cb565b9050919050565b6000620002c482620002a3565b9050919050565b600073ffffffffffffffffffffffffffffffffffffffff82169050919050565b6000819050919050565b6200030081620002b7565b81146200030c57600080fd5b50565b6200031a81620002eb565b81146200032657600080fd5b50565b61311c80620003396000396000f3fe60806040526004361061014b5760003560e01c806387e97bc6116100b6578063b78136071161006f578063b781360714610465578063b810fb4314610490578063b920ade2146104cd578063e1af9a951461050a578063f2fde38b14610535578063fc00358e1461055e5761014b565b806387e97bc6146103625780638da5cb5b1461039f5780639c0a7669146103ca5780639f1b5248146103f5578063a48217191461041e578063b6b55f25146104495761014b565b80634641257d116101085780634641257d14610273578063551512de1461028a5780635a9b0b89146102b357806364ce9fff146102e3578063715018a61461032057806378e97925146103375761014b565b80631959a002146101505780631a39d8ef1461018e57806327d1b1a2146101b95780632f5105f8146101e25780633197cbb61461021f5780634225c32f1461024a575b600080fd5b34801561015c57600080fd5b506101776004803603810190610172919061211a565b610589565b6040516101859291906129be565b60405180910390f35b34801561019a57600080fd5b506101a36105ba565b6040516101b091906129a3565b60405180910390f35b3480156101c557600080fd5b506101e060048036038101906101db91906121fc565b6105c0565b005b3480156101ee57600080fd5b506102096004803603810190610204919061211a565b61068a565b60405161021691906129a3565b60405180910390f35b34801561022b57600080fd5b5061023461073a565b60405161024191906129a3565b60405180910390f35b34801561025657600080fd5b50610271600480360381019061026c91906121fc565b610740565b005b34801561027f57600080fd5b5061028861080a565b005b34801561029657600080fd5b506102b160048036038101906102ac9190612143565b610b8d565b005b3480156102bf57600080fd5b506102c8610cbb565b6040516102da96959493929190612934565b60405180910390f35b3480156102ef57600080fd5b5061030a6004803603810190610305919061211a565b610d53565b60405161031791906126dc565b60405180910390f35b34801561032c57600080fd5b50610335610dac565b005b34801561034357600080fd5b5061034c610e34565b60405161035991906129a3565b60405180910390f35b34801561036e57600080fd5b506103896004803603810190610384919061211a565b610e3a565b60405161039691906129a3565b60405180910390f35b3480156103ab57600080fd5b506103b4610efa565b6040516103c19190612661565b60405180910390f35b3480156103d657600080fd5b506103df610f24565b6040516103ec91906129a3565b60405180910390f35b34801561040157600080fd5b5061041c6004803603810190610417919061224e565b610f2a565b005b34801561042a57600080fd5b50610433611283565b60405161044091906126f7565b60405180910390f35b610463600480360381019061045e91906121fc565b6112a9565b005b34801561047157600080fd5b5061047a611658565b60405161048791906126f7565b60405180910390f35b34801561049c57600080fd5b506104b760048036038101906104b291906121fc565b61167e565b6040516104c49190612661565b60405180910390f35b3480156104d957600080fd5b506104f460048036038101906104ef919061211a565b6116bd565b60405161050191906129a3565b60405180910390f35b34801561051657600080fd5b5061051f611749565b60405161052c91906129a3565b60405180910390f35b34801561054157600080fd5b5061055c6004803603810190610557919061211a565b61174f565b005b34801561056a57600080fd5b50610573611847565b60405161058091906129a3565b60405180910390f35b60096020528060005260406000206000915090508060000154908060010160009054906101000a900460ff16905082565b60085481565b6105c8611854565b73ffffffffffffffffffffffffffffffffffffffff166105e6610efa565b73ffffffffffffffffffffffffffffffffffffffff161461063c576040517f08c379a000000000000000000000000000000000000000000000000000000000815260040161063390612834565b60405180910390fd5b6004544210610680576040517f08c379a0000000000000000000000000000000000000000000000000000000008152600401610677906127d4565b60405180910390fd5b8060078190555050565b6000600654600854116106a05760009050610735565b60006106ab836116bd565b905060006106d9620f42406106cb8460065461185c90919063ffffffff16565b61187290919063ffffffff16565b905061073081600960008773ffffffffffffffffffffffffffffffffffffffff1673ffffffffffffffffffffffffffffffffffffffff1681526020019081526020016000206000015461188890919063ffffffff16565b925050505b919050565b60055481565b610748611854565b73ffffffffffffffffffffffffffffffffffffffff16610766610efa565b73ffffffffffffffffffffffffffffffffffffffff16146107bc576040517f08c379a00000000000000000000000000000000000000000000000000000000081526004016107b390612834565b60405180910390fd5b6004544210610800576040517f08c379a00000000000000000000000000000000000000000000000000000000081526004016107f7906127d4565b60405180910390fd5b8060068190555050565b60026000541415610850576040517f08c379a0000000000000000000000000000000000000000000000000000000008152600401610847906128f4565b60405180910390fd5b6002600081905550600554421161089c576040517f08c379a000000000000000000000000000000000000000000000000000000000815260040161089390612874565b60405180910390fd5b6000600960003373ffffffffffffffffffffffffffffffffffffffff1673ffffffffffffffffffffffffffffffffffffffff1681526020019081526020016000206000015411610921576040517f08c379a000000000000000000000000000000000000000000000000000000000815260040161091890612814565b60405180910390fd5b600960003373ffffffffffffffffffffffffffffffffffffffff1673ffffffffffffffffffffffffffffffffffffffff16815260200190815260200160002060010160009054906101000a900460ff16156109b1576040517f08c379a00000000000000000000000000000000000000000000000000000000081526004016109a890612914565b60405180910390fd5b60006109bc33610e3a565b905060006109c93361068a565b9050610a183383600360009054906101000a900473ffffffffffffffffffffffffffffffffffffffff1673ffffffffffffffffffffffffffffffffffffffff1661189e9092919063ffffffff16565b6000811115610ad657600073ffffffffffffffffffffffffffffffffffffffff16600260009054906101000a900473ffffffffffffffffffffffffffffffffffffffff1673ffffffffffffffffffffffffffffffffffffffff161415610a8757610a823382611924565b610ad5565b610ad43382600260009054906101000a900473ffffffffffffffffffffffffffffffffffffffff1673ffffffffffffffffffffffffffffffffffffffff1661189e9092919063ffffffff16565b5b5b6001600960003373ffffffffffffffffffffffffffffffffffffffff1673ffffffffffffffffffffffffffffffffffffffff16815260200190815260200160002060010160006101000a81548160ff0219169083151502179055503373ffffffffffffffffffffffffffffffffffffffff167f71bab65ced2e5750775a0613be067df48ef06cf92a496ebf7663ae06609249548383604051610b799291906129e7565b60405180910390a250506001600081905550565b610b95611854565b73ffffffffffffffffffffffffffffffffffffffff16610bb3610efa565b73ffffffffffffffffffffffffffffffffffffffff1614610c09576040517f08c379a0000000000000000000000000000000000000000000000000000000008152600401610c0090612834565b60405180910390fd5b600073ffffffffffffffffffffffffffffffffffffffff168373ffffffffffffffffffffffffffffffffffffffff161415610c8a578073ffffffffffffffffffffffffffffffffffffffff166108fc839081150290604051600060405180830381858888f19350505050158015610c84573d6000803e3d6000fd5b50610cb6565b610cb581838573ffffffffffffffffffffffffffffffffffffffff1661189e9092919063ffffffff16565b5b505050565b610cc3611ff6565b610ccb611ff6565b6000806000806000610cfe600260009054906101000a900473ffffffffffffffffffffffffffffffffffffffff16611a4a565b90506000610d2d600360009054906101000a900473ffffffffffffffffffffffffffffffffffffffff16611a4a565b905081816004546005546007546006549750975097509750975097505050909192939495565b6000600960008373ffffffffffffffffffffffffffffffffffffffff1673ffffffffffffffffffffffffffffffffffffffff16815260200190815260200160002060010160009054906101000a900460ff169050919050565b610db4611854565b73ffffffffffffffffffffffffffffffffffffffff16610dd2610efa565b73ffffffffffffffffffffffffffffffffffffffff1614610e28576040517f08c379a0000000000000000000000000000000000000000000000000000000008152600401610e1f90612834565b60405180910390fd5b610e326000611c14565b565b60045481565b60006006546008541115610e87576000610e53836116bd565b9050610e7f620f4240610e718360075461185c90919063ffffffff16565b61187290919063ffffffff16565b915050610ef5565b610ef2600654610ee4600754600960008773ffffffffffffffffffffffffffffffffffffffff1673ffffffffffffffffffffffffffffffffffffffff1681526020019081526020016000206000015461185c90919063ffffffff16565b61187290919063ffffffff16565b90505b919050565b6000600160009054906101000a900473ffffffffffffffffffffffffffffffffffffffff16905090565b60065481565b610f32611854565b73ffffffffffffffffffffffffffffffffffffffff16610f50610efa565b73ffffffffffffffffffffffffffffffffffffffff1614610fa6576040517f08c379a0000000000000000000000000000000000000000000000000000000008152600401610f9d90612834565b60405180910390fd5b600360009054906101000a900473ffffffffffffffffffffffffffffffffffffffff1673ffffffffffffffffffffffffffffffffffffffff166370a08231306040518263ffffffff1660e01b81526004016110019190612661565b60206040518083038186803b15801561101957600080fd5b505afa15801561102d573d6000803e3d6000fd5b505050506040513d601f19601f820116820180604052508101906110519190612225565b8110611092576040517f08c379a000000000000000000000000000000000000000000000000000000000815260040161108990612754565b60405180910390fd5b600073ffffffffffffffffffffffffffffffffffffffff16600260009054906101000a900473ffffffffffffffffffffffffffffffffffffffff1673ffffffffffffffffffffffffffffffffffffffff1614156110f8576110f33383611924565b611232565b600260009054906101000a900473ffffffffffffffffffffffffffffffffffffffff1673ffffffffffffffffffffffffffffffffffffffff166370a08231306040518263ffffffff1660e01b81526004016111539190612661565b60206040518083038186803b15801561116b57600080fd5b505afa15801561117f573d6000803e3d6000fd5b505050506040513d601f19601f820116820180604052508101906111a39190612225565b82106111e4576040517f08c379a00000000000000000000000000000000000000000000000000000000081526004016111db90612854565b60405180910390fd5b6112313383600260009054906101000a900473ffffffffffffffffffffffffffffffffffffffff1673ffffffffffffffffffffffffffffffffffffffff1661189e9092919063ffffffff16565b5b61127f3382600360009054906101000a900473ffffffffffffffffffffffffffffffffffffffff1673ffffffffffffffffffffffffffffffffffffffff1661189e9092919063ffffffff16565b5050565b600260009054906101000a900473ffffffffffffffffffffffffffffffffffffffff1681565b600260005414156112ef576040517f08c379a00000000000000000000000000000000000000000000000000000000081526004016112e6906128f4565b60405180910390fd5b6002600081905550806004544211801561130a575060055442105b611349576040517f08c379a000000000000000000000000000000000000000000000000000000000815260040161134090612794565b60405180910390fd5b6000811161138c576040517f08c379a000000000000000000000000000000000000000000000000000000000815260040161138390612734565b60405180910390fd5b600073ffffffffffffffffffffffffffffffffffffffff16600260009054906101000a900473ffffffffffffffffffffffffffffffffffffffff1673ffffffffffffffffffffffffffffffffffffffff1614156114495781341015611426576040517f08c379a000000000000000000000000000000000000000000000000000000000815260040161141d906127f4565b60405180910390fd5b813411156114445761144333833461143e9190612b8a565b611924565b5b611499565b611498333084600260009054906101000a900473ffffffffffffffffffffffffffffffffffffffff1673ffffffffffffffffffffffffffffffffffffffff16611cda909392919063ffffffff16565b5b6000600960003373ffffffffffffffffffffffffffffffffffffffff1673ffffffffffffffffffffffffffffffffffffffff16815260200190815260200160002060000154141561154857600a339080600181540180825580915050600190039060005260206000200160009091909190916101000a81548173ffffffffffffffffffffffffffffffffffffffff021916908373ffffffffffffffffffffffffffffffffffffffff1602179055505b61159d82600960003373ffffffffffffffffffffffffffffffffffffffff1673ffffffffffffffffffffffffffffffffffffffff16815260200190815260200160002060000154611d6390919063ffffffff16565b600960003373ffffffffffffffffffffffffffffffffffffffff1673ffffffffffffffffffffffffffffffffffffffff168152602001908152602001600020600001819055506115f882600854611d6390919063ffffffff16565b6008819055503373ffffffffffffffffffffffffffffffffffffffff167fe1fffcc4923d04b559f4d29a8bfc6cda04eb5b0d3c460751c2402c5c5cc9109c8360405161164491906129a3565b60405180910390a250600160008190555050565b600360009054906101000a900473ffffffffffffffffffffffffffffffffffffffff1681565b600a818154811061168e57600080fd5b906000526020600020016000915054906101000a900473ffffffffffffffffffffffffffffffffffffffff1681565b6000611742620f424061173460085461172664e8d4a51000600960008973ffffffffffffffffffffffffffffffffffffffff1673ffffffffffffffffffffffffffffffffffffffff1681526020019081526020016000206000015461185c90919063ffffffff16565b61187290919063ffffffff16565b61187290919063ffffffff16565b9050919050565b60075481565b611757611854565b73ffffffffffffffffffffffffffffffffffffffff16611775610efa565b73ffffffffffffffffffffffffffffffffffffffff16146117cb576040517f08c379a00000000000000000000000000000000000000000000000000000000081526004016117c290612834565b60405180910390fd5b600073ffffffffffffffffffffffffffffffffffffffff168173ffffffffffffffffffffffffffffffffffffffff16141561183b576040517f08c379a000000000000000000000000000000000000000000000000000000000815260040161183290612774565b60405180910390fd5b61184481611c14565b50565b6000600a80549050905090565b600033905090565b6000818361186a9190612b30565b905092915050565b600081836118809190612aff565b905092915050565b600081836118969190612b8a565b905092915050565b61191f8363a9059cbb60e01b84846040516024016118bd9291906126b3565b604051602081830303815290604052907bffffffffffffffffffffffffffffffffffffffffffffffffffffffff19166020820180517bffffffffffffffffffffffffffffffffffffffffffffffffffffffff8381831617835250505050611d79565b505050565b60008273ffffffffffffffffffffffffffffffffffffffff1682600067ffffffffffffffff81111561197f577f4e487b7100000000000000000000000000000000000000000000000000000000600052604160045260246000fd5b6040519080825280601f01601f1916602001820160405280156119b15781602001600182028036833780820191505090505b506040516119bf919061264a565b60006040518083038185875af1925050503d80600081146119fc576040519150601f19603f3d011682016040523d82523d6000602084013e611a01565b606091505b5050905080611a45576040517f08c379a0000000000000000000000000000000000000000000000000000000008152600401611a3c906128b4565b60405180910390fd5b505050565b611a52611ff6565b60405180608001604052808373ffffffffffffffffffffffffffffffffffffffff1681526020018373ffffffffffffffffffffffffffffffffffffffff1663313ce5676040518163ffffffff1660e01b815260040160206040518083038186803b158015611abf57600080fd5b505afa158015611ad3573d6000803e3d6000fd5b505050506040513d601f19601f82011682018060405250810190611af7919061228a565b60ff1681526020018373ffffffffffffffffffffffffffffffffffffffff166306fdde036040518163ffffffff1660e01b815260040160006040518083038186803b158015611b4557600080fd5b505afa158015611b59573d6000803e3d6000fd5b505050506040513d6000823e3d601f19601f82011682018060405250810190611b8291906121bb565b81526020018373ffffffffffffffffffffffffffffffffffffffff166395d89b416040518163ffffffff1660e01b815260040160006040518083038186803b158015611bcd57600080fd5b505afa158015611be1573d6000803e3d6000fd5b505050506040513d6000823e3d601f19601f82011682018060405250810190611c0a91906121bb565b8152509050919050565b6000600160009054906101000a900473ffffffffffffffffffffffffffffffffffffffff16905081600160006101000a81548173ffffffffffffffffffffffffffffffffffffffff021916908373ffffffffffffffffffffffffffffffffffffffff1602179055508173ffffffffffffffffffffffffffffffffffffffff168173ffffffffffffffffffffffffffffffffffffffff167f8be0079c531659141344cd1fd0a4f28419497f9722a3daafe3b4186f6b6457e060405160405180910390a35050565b611d5d846323b872dd60e01b858585604051602401611cfb9392919061267c565b604051602081830303815290604052907bffffffffffffffffffffffffffffffffffffffffffffffffffffffff19166020820180517bffffffffffffffffffffffffffffffffffffffffffffffffffffffff8381831617835250505050611d79565b50505050565b60008183611d719190612aa9565b905092915050565b6000611ddb826040518060400160405280602081526020017f5361666545524332303a206c6f772d6c6576656c2063616c6c206661696c65648152508573ffffffffffffffffffffffffffffffffffffffff16611e409092919063ffffffff16565b9050600081511115611e3b5780806020019051810190611dfb9190612192565b611e3a576040517f08c379a0000000000000000000000000000000000000000000000000000000008152600401611e31906128d4565b60405180910390fd5b5b505050565b6060611e4f8484600085611e58565b90509392505050565b606082471015611e9d576040517f08c379a0000000000000000000000000000000000000000000000000000000008152600401611e94906127b4565b60405180910390fd5b611ea685611f6c565b611ee5576040517f08c379a0000000000000000000000000000000000000000000000000000000008152600401611edc90612894565b60405180910390fd5b6000808673ffffffffffffffffffffffffffffffffffffffff168587604051611f0e919061264a565b60006040518083038185875af1925050503d8060008114611f4b576040519150601f19603f3d011682016040523d82523d6000602084013e611f50565b606091505b5091509150611f60828286611f8f565b92505050949350505050565b6000808273ffffffffffffffffffffffffffffffffffffffff163b119050919050565b60608315611f9f57829050611fef565b600083511115611fb25782518084602001fd5b816040517f08c379a0000000000000000000000000000000000000000000000000000000008152600401611fe69190612712565b60405180910390fd5b9392505050565b6040518060800160405280600073ffffffffffffffffffffffffffffffffffffffff1681526020016000815260200160608152602001606081525090565b600061204761204284612a35565b612a10565b90508281526020810184848401111561205f57600080fd5b61206a848285612c49565b509392505050565b60008135905061208181613073565b92915050565b6000813590506120968161308a565b92915050565b6000815190506120ab816130a1565b92915050565b600082601f8301126120c257600080fd5b81516120d2848260208601612034565b91505092915050565b6000813590506120ea816130b8565b92915050565b6000815190506120ff816130b8565b92915050565b600081519050612114816130cf565b92915050565b60006020828403121561212c57600080fd5b600061213a84828501612072565b91505092915050565b60008060006060848603121561215857600080fd5b600061216686828701612072565b9350506020612177868287016120db565b925050604061218886828701612087565b9150509250925092565b6000602082840312156121a457600080fd5b60006121b28482850161209c565b91505092915050565b6000602082840312156121cd57600080fd5b600082015167ffffffffffffffff8111156121e757600080fd5b6121f3848285016120b1565b91505092915050565b60006020828403121561220e57600080fd5b600061221c848285016120db565b91505092915050565b60006020828403121561223757600080fd5b6000612245848285016120f0565b91505092915050565b6000806040838503121561226157600080fd5b600061226f858286016120db565b9250506020612280858286016120db565b9150509250929050565b60006020828403121561229c57600080fd5b60006122aa84828501612105565b91505092915050565b6122bc81612bbe565b82525050565b6122cb81612be2565b82525050565b60006122dc82612a66565b6122e68185612a7c565b93506122f6818560208601612c49565b80840191505092915050565b61230b81612c25565b82525050565b61231a81612c25565b82525050565b600061232b82612a71565b6123358185612a87565b9350612345818560208601612c49565b61234e81612d3a565b840191505092915050565b600061236482612a71565b61236e8185612a98565b935061237e818560208601612c49565b61238781612d3a565b840191505092915050565b600061239f601083612a98565b91506123aa82612d4b565b602082019050919050565b60006123c2601283612a98565b91506123cd82612d74565b602082019050919050565b60006123e5602683612a98565b91506123f082612d9d565b604082019050919050565b6000612408601083612a98565b915061241382612dec565b602082019050919050565b600061242b602683612a98565b915061243682612e15565b604082019050919050565b600061244e600283612a98565b915061245982612e64565b602082019050919050565b6000612471601183612a98565b915061247c82612e8d565b602082019050919050565b6000612494601683612a98565b915061249f82612eb6565b602082019050919050565b60006124b7602083612a98565b91506124c282612edf565b602082019050919050565b60006124da601283612a98565b91506124e582612f08565b602082019050919050565b60006124fd601083612a98565b915061250882612f31565b602082019050919050565b6000612520601d83612a98565b915061252b82612f5a565b602082019050919050565b6000612543602383612a98565b915061254e82612f83565b604082019050919050565b6000612566602a83612a98565b915061257182612fd2565b604082019050919050565b6000612589601f83612a98565b915061259482613021565b602082019050919050565b60006125ac601283612a98565b91506125b78261304a565b602082019050919050565b60006080830160008301516125da6000860182612302565b5060208301516125ed602086018261262c565b50604083015184820360408601526126058282612320565b9150506060830151848203606086015261261f8282612320565b9150508091505092915050565b61263581612c0e565b82525050565b61264481612c0e565b82525050565b600061265682846122d1565b915081905092915050565b600060208201905061267660008301846122b3565b92915050565b600060608201905061269160008301866122b3565b61269e60208301856122b3565b6126ab604083018461263b565b949350505050565b60006040820190506126c860008301856122b3565b6126d5602083018461263b565b9392505050565b60006020820190506126f160008301846122c2565b92915050565b600060208201905061270c6000830184612311565b92915050565b6000602082019050818103600083015261272c8184612359565b905092915050565b6000602082019050818103600083015261274d81612392565b9050919050565b6000602082019050818103600083015261276d816123b5565b9050919050565b6000602082019050818103600083015261278d816123d8565b9050919050565b600060208201905081810360008301526127ad816123fb565b9050919050565b600060208201905081810360008301526127cd8161241e565b9050919050565b600060208201905081810360008301526127ed81612441565b9050919050565b6000602082019050818103600083015261280d81612464565b9050919050565b6000602082019050818103600083015261282d81612487565b9050919050565b6000602082019050818103600083015261284d816124aa565b9050919050565b6000602082019050818103600083015261286d816124cd565b9050919050565b6000602082019050818103600083015261288d816124f0565b9050919050565b600060208201905081810360008301526128ad81612513565b9050919050565b600060208201905081810360008301526128cd81612536565b9050919050565b600060208201905081810360008301526128ed81612559565b9050919050565b6000602082019050818103600083015261290d8161257c565b9050919050565b6000602082019050818103600083015261292d8161259f565b9050919050565b600060c082019050818103600083015261294e81896125c2565b9050818103602083015261296281886125c2565b9050612971604083018761263b565b61297e606083018661263b565b61298b608083018561263b565b61299860a083018461263b565b979650505050505050565b60006020820190506129b8600083018461263b565b92915050565b60006040820190506129d3600083018561263b565b6129e060208301846122c2565b9392505050565b60006040820190506129fc600083018561263b565b612a09602083018461263b565b9392505050565b6000612a1a612a2b565b9050612a268282612c7c565b919050565b6000604051905090565b600067ffffffffffffffff821115612a5057612a4f612d0b565b5b612a5982612d3a565b9050602081019050919050565b600081519050919050565b600081519050919050565b600081905092915050565b600082825260208201905092915050565b600082825260208201905092915050565b6000612ab482612c0e565b9150612abf83612c0e565b9250827fffffffffffffffffffffffffffffffffffffffffffffffffffffffffffffffff03821115612af457612af3612cad565b5b828201905092915050565b6000612b0a82612c0e565b9150612b1583612c0e565b925082612b2557612b24612cdc565b5b828204905092915050565b6000612b3b82612c0e565b9150612b4683612c0e565b9250817fffffffffffffffffffffffffffffffffffffffffffffffffffffffffffffffff0483118215151615612b7f57612b7e612cad565b5b828202905092915050565b6000612b9582612c0e565b9150612ba083612c0e565b925082821015612bb357612bb2612cad565b5b828203905092915050565b6000612bc982612bee565b9050919050565b6000612bdb82612bee565b9050919050565b60008115159050919050565b600073ffffffffffffffffffffffffffffffffffffffff82169050919050565b6000819050919050565b600060ff82169050919050565b6000612c3082612c37565b9050919050565b6000612c4282612bee565b9050919050565b60005b83811015612c67578082015181840152602081019050612c4c565b83811115612c76576000848401525b50505050565b612c8582612d3a565b810181811067ffffffffffffffff82111715612ca457612ca3612d0b565b5b80604052505050565b7f4e487b7100000000000000000000000000000000000000000000000000000000600052601160045260246000fd5b7f4e487b7100000000000000000000000000000000000000000000000000000000600052601260045260246000fd5b7f4e487b7100000000000000000000000000000000000000000000000000000000600052604160045260246000fd5b6000601f19601f8301169050919050565b7f6e656564205f616d6f756e74203e203000000000000000000000000000000000600082015250565b7f6e6f7420656e6f75676820746f6b656e20310000000000000000000000000000600082015250565b7f4f776e61626c653a206e6577206f776e657220697320746865207a65726f206160008201527f6464726573730000000000000000000000000000000000000000000000000000602082015250565b7f6e6f742072616973696e672074696d6500000000000000000000000000000000600082015250565b7f416464726573733a20696e73756666696369656e742062616c616e636520666f60008201527f722063616c6c0000000000000000000000000000000000000000000000000000602082015250565b7f6e6f000000000000000000000000000000000000000000000000000000000000600082015250565b7f616d6f756e74206e6f7420656e6f756768000000000000000000000000000000600082015250565b7f6861766520796f75207061727469636970617465643f00000000000000000000600082015250565b7f4f776e61626c653a2063616c6c6572206973206e6f7420746865206f776e6572600082015250565b7f6e6f7420656e6f75676820746f6b656e20300000000000000000000000000000600082015250565b7f6e6f7420686172766573742074696d6500000000000000000000000000000000600082015250565b7f416464726573733a2063616c6c20746f206e6f6e2d636f6e7472616374000000600082015250565b7f5472616e7366657248656c7065723a204b41495f5452414e534645525f46414960008201527f4c45440000000000000000000000000000000000000000000000000000000000602082015250565b7f5361666545524332303a204552433230206f7065726174696f6e20646964206e60008201527f6f74207375636365656400000000000000000000000000000000000000000000602082015250565b7f5265656e7472616e637947756172643a207265656e7472616e742063616c6c00600082015250565b7f6e6f7468696e6720746f20686172766573740000000000000000000000000000600082015250565b61307c81612bbe565b811461308757600080fd5b50565b61309381612bd0565b811461309e57600080fd5b50565b6130aa81612be2565b81146130b557600080fd5b50565b6130c181612c0e565b81146130cc57600080fd5b50565b6130d881612c18565b81146130e357600080fd5b5056fea2646970667358221220ff8a36801e10481b4f315d197e690bf7289bd5067bf94b401e270cc46da4787a64736f6c63430008040033",
  "linkReferences": {},
  "deployedLinkReferences": {}
}