{
  "_format": "hh-sol-artifact-1",
  "contractName": "RaiseFunding",
  "sourceName": "contracts/launchpad/RaiseFunding.sol",
  "abi": [
    {
      "inputs": [
        {
          "internalType": "contract IERC20",
          "name": "_buyToken",
          "type": "address"
        },
        {
          "internalType": "contract IERC20",
          "name": "_offeringToken",
          "type": "address"
        },
        {
          "internalType": "uint256",
          "name": "_startTime",
          "type": "uint256"
        },
        {
          "internalType": "uint256",
          "name": "_endTime",
          "type": "uint256"
        },
        {
          "internalType": "uint256",
          "name": "_offeringAmount",
          "type": "uint256"
        },
        {
          "internalType": "uint256",
          "name": "_raisingAmount",
          "type": "uint256"
        }
      ],
      "stateMutability": "nonpayable",
      "type": "constructor"
    },
    {
      "anonymous": false,
      "inputs": [
        {
          "indexed": true,
          "internalType": "address",
          "name": "user",
          "type": "address"
        },
        {
          "indexed": false,
          "internalType": "uint256",
          "name": "amount",
          "type": "uint256"
        }
      ],
      "name": "Deposit",
      "type": "event"
    },
    {
      "anonymous": false,
      "inputs": [
        {
          "indexed": true,
          "internalType": "address",
          "name": "user",
          "type": "address"
        },
        {
          "indexed": false,
          "internalType": "uint256",
          "name": "offeringAmount",
          "type": "uint256"
        },
        {
          "indexed": false,
          "internalType": "uint256",
          "name": "excessAmount",
          "type": "uint256"
        }
      ],
      "name": "Harvest",
      "type": "event"
    },
    {
      "anonymous": false,
      "inputs": [
        {
          "indexed": true,
          "internalType": "address",
          "name": "previousOwner",
          "type": "address"
        },
        {
          "indexed": true,
          "internalType": "address",
          "name": "newOwner",
          "type": "address"
        }
      ],
      "name": "OwnershipTransferred",
      "type": "event"
    },
    {
      "inputs": [
        {
          "internalType": "uint256",
          "name": "",
          "type": "uint256"
        }
      ],
      "name": "addressList",
      "outputs": [
        {
          "internalType": "address",
          "name": "",
          "type": "address"
        }
      ],
      "stateMutability": "view",
      "type": "function"
    },
    {
      "inputs": [],
      "name": "buyToken",
      "outputs": [
        {
          "internalType": "contract IERC20",
          "name": "",
          "type": "address"
        }
      ],
      "stateMutability": "view",
      "type": "function"
    },
    {
      "inputs": [
        {
          "internalType": "uint256",
          "name": "_amount",
          "type": "uint256"
        }
      ],
      "name": "deposit",
      "outputs": [],
      "stateMutability": "payable",
      "type": "function"
    },
    {
      "inputs": [],
      "name": "endTime",
      "outputs": [
        {
          "internalType": "uint256",
          "name": "",
          "type": "uint256"
        }
      ],
      "stateMutability": "view",
      "type": "function"
    },
    {
      "inputs": [
        {
          "internalType": "uint256",
          "name": "_raisingAmount",
          "type": "uint256"
        },
        {
          "internalType": "uint256",
          "name": "_offerAmount",
          "type": "uint256"
        }
      ],
      "name": "finalWithdraw",
      "outputs": [],
      "stateMutability": "nonpayable",
      "type": "function"
    },
    {
      "inputs": [],
      "name": "getAddressListLength",
      "outputs": [
        {
          "internalType": "uint256",
          "name": "",
          "type": "uint256"
        }
      ],
      "stateMutability": "view",
      "type": "function"
    },
    {
      "inputs": [
        {
          "internalType": "address",
          "name": "_user",
          "type": "address"
        }
      ],
      "name": "getOfferingAmount",
      "outputs": [
        {
          "internalType": "uint256",
          "name": "",
          "type": "uint256"
        }
      ],
      "stateMutability": "view",
      "type": "function"
    },
    {
      "inputs": [
        {
          "internalType": "address",
          "name": "_user",
          "type": "address"
        }
      ],
      "name": "getRefundingAmount",
      "outputs": [
        {
          "internalType": "uint256",
          "name": "",
          "type": "uint256"
        }
      ],
      "stateMutability": "view",
      "type": "function"
    },
    {
      "inputs": [
        {
          "internalType": "address",
          "name": "_user",
          "type": "address"
        }
      ],
      "name": "getUserAllocation",
      "outputs": [
        {
          "internalType": "uint256",
          "name": "",
          "type": "uint256"
        }
      ],
      "stateMutability": "view",
      "type": "function"
    },
    {
      "inputs": [],
      "name": "harvest",
      "outputs": [],
      "stateMutability": "nonpayable",
      "type": "function"
    },
    {
      "inputs": [
        {
          "internalType": "address",
          "name": "_user",
          "type": "address"
        }
      ],
      "name": "hasHarvest",
      "outputs": [
        {
          "internalType": "bool",
          "name": "",
          "type": "bool"
        }
      ],
      "stateMutability": "view",
      "type": "function"
    },
    {
      "inputs": [],
      "name": "offeringAmount",
      "outputs": [
        {
          "internalType": "uint256",
          "name": "",
          "type": "uint256"
        }
      ],
      "stateMutability": "view",
      "type": "function"
    },
    {
      "inputs": [],
      "name": "offeringToken",
      "outputs": [
        {
          "internalType": "contract IERC20",
          "name": "",
          "type": "address"
        }
      ],
      "stateMutability": "view",
      "type": "function"
    },
    {
      "inputs": [],
      "name": "owner",
      "outputs": [
        {
          "internalType": "address",
          "name": "",
          "type": "address"
        }
      ],
      "stateMutability": "view",
      "type": "function"
    },
    {
      "inputs": [],
      "name": "raisingAmount",
      "outputs": [
        {
          "internalType": "uint256",
          "name": "",
          "type": "uint256"
        }
      ],
      "stateMutability": "view",
      "type": "function"
    },
    {
      "inputs": [],
      "name": "renounceOwnership",
      "outputs": [],
      "stateMutability": "nonpayable",
      "type": "function"
    },
    {
      "inputs": [
        {
          "internalType": "uint256",
          "name": "_offerAmount",
          "type": "uint256"
        }
      ],
      "name": "setOfferingAmount",
      "outputs": [],
      "stateMutability": "nonpayable",
      "type": "function"
    },
    {
      "inputs": [
        {
          "internalType": "uint256",
          "name": "_raisingAmount",
          "type": "uint256"
        }
      ],
      "name": "setRaisingAmount",
      "outputs": [],
      "stateMutability": "nonpayable",
      "type": "function"
    },
    {
      "inputs": [],
      "name": "startTime",
      "outputs": [
        {
          "internalType": "uint256",
          "name": "",
          "type": "uint256"
        }
      ],
      "stateMutability": "view",
      "type": "function"
    },
    {
      "inputs": [],
      "name": "totalAmount",
      "outputs": [
        {
          "internalType": "uint256",
          "name": "",
          "type": "uint256"
        }
      ],
      "stateMutability": "view",
      "type": "function"
    },
    {
      "inputs": [
        {
          "internalType": "address",
          "name": "newOwner",
          "type": "address"
        }
      ],
      "name": "transferOwnership",
      "outputs": [],
      "stateMutability": "nonpayable",
      "type": "function"
    },
    {
      "inputs": [
        {
          "internalType": "address",
          "name": "",
          "type": "address"
        }
      ],
      "name": "userInfo",
      "outputs": [
        {
          "internalType": "uint256",
          "name": "amount",
          "type": "uint256"
        },
        {
          "internalType": "bool",
          "name": "claimed",
          "type": "bool"
        }
      ],
      "stateMutability": "view",
      "type": "function"
    }
  ],
  "bytecode": "0x60806040523480156200001157600080fd5b5060405162002c8938038062002c8983398181016040528101906200003791906200020d565b60016000819055506200005f620000536200011160201b60201c565b6200011960201b60201c565b85600260006101000a81548173ffffffffffffffffffffffffffffffffffffffff021916908373ffffffffffffffffffffffffffffffffffffffff16021790555084600360006101000a81548173ffffffffffffffffffffffffffffffffffffffff021916908373ffffffffffffffffffffffffffffffffffffffff16021790555083600481905550826005819055508160078190555080600681905550600060088190555050505050505062000329565b600033905090565b6000600160009054906101000a900473ffffffffffffffffffffffffffffffffffffffff16905081600160006101000a81548173ffffffffffffffffffffffffffffffffffffffff021916908373ffffffffffffffffffffffffffffffffffffffff1602179055508173ffffffffffffffffffffffffffffffffffffffff168173ffffffffffffffffffffffffffffffffffffffff167f8be0079c531659141344cd1fd0a4f28419497f9722a3daafe3b4186f6b6457e060405160405180910390a35050565b600081519050620001f081620002f5565b92915050565b60008151905062000207816200030f565b92915050565b60008060008060008060c087890312156200022757600080fd5b60006200023789828a01620001df565b96505060206200024a89828a01620001df565b95505060406200025d89828a01620001f6565b94505060606200027089828a01620001f6565b93505060806200028389828a01620001f6565b92505060a06200029689828a01620001f6565b9150509295509295509295565b6000620002b082620002cb565b9050919050565b6000620002c482620002a3565b9050919050565b600073ffffffffffffffffffffffffffffffffffffffff82169050919050565b6000819050919050565b6200030081620002b7565b81146200030c57600080fd5b50565b6200031a81620002eb565b81146200032657600080fd5b50565b61295080620003396000396000f3fe6080604052600436106101355760003560e01c80638da5cb5b116100ab578063b78136071161006f578063b7813607146103f6578063b810fb4314610421578063b920ade21461045e578063e1af9a951461049b578063f2fde38b146104c6578063fc00358e146104ef57610135565b80638da5cb5b146103305780639c0a76691461035b5780639f1b524814610386578063a4821719146103af578063b6b55f25146103da57610135565b80634225c32f116100fd5780634225c32f146102345780634641257d1461025d57806364ce9fff14610274578063715018a6146102b157806378e97925146102c857806387e97bc6146102f357610135565b80631959a0021461013a5780631a39d8ef1461017857806327d1b1a2146101a35780632f5105f8146101cc5780633197cbb614610209575b600080fd5b34801561014657600080fd5b50610161600480360381019061015c9190611c4b565b61051a565b60405161016f929190612306565b60405180910390f35b34801561018457600080fd5b5061018d61054b565b60405161019a91906122eb565b60405180910390f35b3480156101af57600080fd5b506101ca60048036038101906101c59190611c9d565b610551565b005b3480156101d857600080fd5b506101f360048036038101906101ee9190611c4b565b61061b565b60405161020091906122eb565b60405180910390f35b34801561021557600080fd5b5061021e6106cb565b60405161022b91906122eb565b60405180910390f35b34801561024057600080fd5b5061025b60048036038101906102569190611c9d565b6106d1565b005b34801561026957600080fd5b5061027261079b565b005b34801561028057600080fd5b5061029b60048036038101906102969190611c4b565b610b1e565b6040516102a89190612093565b60405180910390f35b3480156102bd57600080fd5b506102c6610b77565b005b3480156102d457600080fd5b506102dd610bff565b6040516102ea91906122eb565b60405180910390f35b3480156102ff57600080fd5b5061031a60048036038101906103159190611c4b565b610c05565b60405161032791906122eb565b60405180910390f35b34801561033c57600080fd5b50610345610cc5565b6040516103529190612018565b60405180910390f35b34801561036757600080fd5b50610370610cef565b60405161037d91906122eb565b60405180910390f35b34801561039257600080fd5b506103ad60048036038101906103a89190611cef565b610cf5565b005b3480156103bb57600080fd5b506103c461104e565b6040516103d191906120ae565b60405180910390f35b6103f460048036038101906103ef9190611c9d565b611074565b005b34801561040257600080fd5b5061040b611423565b60405161041891906120ae565b60405180910390f35b34801561042d57600080fd5b5061044860048036038101906104439190611c9d565b611449565b6040516104559190612018565b60405180910390f35b34801561046a57600080fd5b5061048560048036038101906104809190611c4b565b611488565b60405161049291906122eb565b60405180910390f35b3480156104a757600080fd5b506104b0611514565b6040516104bd91906122eb565b60405180910390f35b3480156104d257600080fd5b506104ed60048036038101906104e89190611c4b565b61151a565b005b3480156104fb57600080fd5b50610504611612565b60405161051191906122eb565b60405180910390f35b60096020528060005260406000206000915090508060000154908060010160009054906101000a900460ff16905082565b60085481565b61055961161f565b73ffffffffffffffffffffffffffffffffffffffff16610577610cc5565b73ffffffffffffffffffffffffffffffffffffffff16146105cd576040517f08c379a00000000000000000000000000000000000000000000000000000000081526004016105c4906121eb565b60405180910390fd5b6004544210610611576040517f08c379a00000000000000000000000000000000000000000000000000000000081526004016106089061218b565b60405180910390fd5b8060078190555050565b60006006546008541161063157600090506106c6565b600061063c83611488565b9050600061066a620f424061065c8460065461162790919063ffffffff16565b61163d90919063ffffffff16565b90506106c181600960008773ffffffffffffffffffffffffffffffffffffffff1673ffffffffffffffffffffffffffffffffffffffff1681526020019081526020016000206000015461165390919063ffffffff16565b925050505b919050565b60055481565b6106d961161f565b73ffffffffffffffffffffffffffffffffffffffff166106f7610cc5565b73ffffffffffffffffffffffffffffffffffffffff161461074d576040517f08c379a0000000000000000000000000000000000000000000000000000000008152600401610744906121eb565b60405180910390fd5b6004544210610791576040517f08c379a00000000000000000000000000000000000000000000000000000000081526004016107889061218b565b60405180910390fd5b8060068190555050565b600260005414156107e1576040517f08c379a00000000000000000000000000000000000000000000000000000000081526004016107d8906122ab565b60405180910390fd5b6002600081905550600554421161082d576040517f08c379a00000000000000000000000000000000000000000000000000000000081526004016108249061222b565b60405180910390fd5b6000600960003373ffffffffffffffffffffffffffffffffffffffff1673ffffffffffffffffffffffffffffffffffffffff16815260200190815260200160002060000154116108b2576040517f08c379a00000000000000000000000000000000000000000000000000000000081526004016108a9906121cb565b60405180910390fd5b600960003373ffffffffffffffffffffffffffffffffffffffff1673ffffffffffffffffffffffffffffffffffffffff16815260200190815260200160002060010160009054906101000a900460ff1615610942576040517f08c379a0000000000000000000000000000000000000000000000000000000008152600401610939906122cb565b60405180910390fd5b600061094d33610c05565b9050600061095a3361061b565b90506109a93383600360009054906101000a900473ffffffffffffffffffffffffffffffffffffffff1673ffffffffffffffffffffffffffffffffffffffff166116699092919063ffffffff16565b6000811115610a6757600073ffffffffffffffffffffffffffffffffffffffff16600260009054906101000a900473ffffffffffffffffffffffffffffffffffffffff1673ffffffffffffffffffffffffffffffffffffffff161415610a1857610a1333826116ef565b610a66565b610a653382600260009054906101000a900473ffffffffffffffffffffffffffffffffffffffff1673ffffffffffffffffffffffffffffffffffffffff166116699092919063ffffffff16565b5b5b6001600960003373ffffffffffffffffffffffffffffffffffffffff1673ffffffffffffffffffffffffffffffffffffffff16815260200190815260200160002060010160006101000a81548160ff0219169083151502179055503373ffffffffffffffffffffffffffffffffffffffff167f71bab65ced2e5750775a0613be067df48ef06cf92a496ebf7663ae06609249548383604051610b0a92919061232f565b60405180910390a250506001600081905550565b6000600960008373ffffffffffffffffffffffffffffffffffffffff1673ffffffffffffffffffffffffffffffffffffffff16815260200190815260200160002060010160009054906101000a900460ff169050919050565b610b7f61161f565b73ffffffffffffffffffffffffffffffffffffffff16610b9d610cc5565b73ffffffffffffffffffffffffffffffffffffffff1614610bf3576040517f08c379a0000000000000000000000000000000000000000000000000000000008152600401610bea906121eb565b60405180910390fd5b610bfd6000611815565b565b60045481565b60006006546008541115610c52576000610c1e83611488565b9050610c4a620f4240610c3c8360075461162790919063ffffffff16565b61163d90919063ffffffff16565b915050610cc0565b610cbd600654610caf600754600960008773ffffffffffffffffffffffffffffffffffffffff1673ffffffffffffffffffffffffffffffffffffffff1681526020019081526020016000206000015461162790919063ffffffff16565b61163d90919063ffffffff16565b90505b919050565b6000600160009054906101000a900473ffffffffffffffffffffffffffffffffffffffff16905090565b60065481565b610cfd61161f565b73ffffffffffffffffffffffffffffffffffffffff16610d1b610cc5565b73ffffffffffffffffffffffffffffffffffffffff1614610d71576040517f08c379a0000000000000000000000000000000000000000000000000000000008152600401610d68906121eb565b60405180910390fd5b600360009054906101000a900473ffffffffffffffffffffffffffffffffffffffff1673ffffffffffffffffffffffffffffffffffffffff166370a08231306040518263ffffffff1660e01b8152600401610dcc9190612018565b60206040518083038186803b158015610de457600080fd5b505afa158015610df8573d6000803e3d6000fd5b505050506040513d601f19601f82011682018060405250810190610e1c9190611cc6565b8110610e5d576040517f08c379a0000000000000000000000000000000000000000000000000000000008152600401610e549061210b565b60405180910390fd5b600073ffffffffffffffffffffffffffffffffffffffff16600260009054906101000a900473ffffffffffffffffffffffffffffffffffffffff1673ffffffffffffffffffffffffffffffffffffffff161415610ec357610ebe33836116ef565b610ffd565b600260009054906101000a900473ffffffffffffffffffffffffffffffffffffffff1673ffffffffffffffffffffffffffffffffffffffff166370a08231306040518263ffffffff1660e01b8152600401610f1e9190612018565b60206040518083038186803b158015610f3657600080fd5b505afa158015610f4a573d6000803e3d6000fd5b505050506040513d601f19601f82011682018060405250810190610f6e9190611cc6565b8210610faf576040517f08c379a0000000000000000000000000000000000000000000000000000000008152600401610fa69061220b565b60405180910390fd5b610ffc3383600260009054906101000a900473ffffffffffffffffffffffffffffffffffffffff1673ffffffffffffffffffffffffffffffffffffffff166116699092919063ffffffff16565b5b61104a3382600360009054906101000a900473ffffffffffffffffffffffffffffffffffffffff1673ffffffffffffffffffffffffffffffffffffffff166116699092919063ffffffff16565b5050565b600260009054906101000a900473ffffffffffffffffffffffffffffffffffffffff1681565b600260005414156110ba576040517f08c379a00000000000000000000000000000000000000000000000000000000081526004016110b1906122ab565b60405180910390fd5b600260008190555080600454421180156110d5575060055442105b611114576040517f08c379a000000000000000000000000000000000000000000000000000000000815260040161110b9061214b565b60405180910390fd5b60008111611157576040517f08c379a000000000000000000000000000000000000000000000000000000000815260040161114e906120eb565b60405180910390fd5b600073ffffffffffffffffffffffffffffffffffffffff16600260009054906101000a900473ffffffffffffffffffffffffffffffffffffffff1673ffffffffffffffffffffffffffffffffffffffff16141561121457813410156111f1576040517f08c379a00000000000000000000000000000000000000000000000000000000081526004016111e8906121ab565b60405180910390fd5b8134111561120f5761120e338334611209919061246b565b6116ef565b5b611264565b611263333084600260009054906101000a900473ffffffffffffffffffffffffffffffffffffffff1673ffffffffffffffffffffffffffffffffffffffff166118db909392919063ffffffff16565b5b6000600960003373ffffffffffffffffffffffffffffffffffffffff1673ffffffffffffffffffffffffffffffffffffffff16815260200190815260200160002060000154141561131357600a339080600181540180825580915050600190039060005260206000200160009091909190916101000a81548173ffffffffffffffffffffffffffffffffffffffff021916908373ffffffffffffffffffffffffffffffffffffffff1602179055505b61136882600960003373ffffffffffffffffffffffffffffffffffffffff1673ffffffffffffffffffffffffffffffffffffffff1681526020019081526020016000206000015461196490919063ffffffff16565b600960003373ffffffffffffffffffffffffffffffffffffffff1673ffffffffffffffffffffffffffffffffffffffff168152602001908152602001600020600001819055506113c38260085461196490919063ffffffff16565b6008819055503373ffffffffffffffffffffffffffffffffffffffff167fe1fffcc4923d04b559f4d29a8bfc6cda04eb5b0d3c460751c2402c5c5cc9109c8360405161140f91906122eb565b60405180910390a250600160008190555050565b600360009054906101000a900473ffffffffffffffffffffffffffffffffffffffff1681565b600a818154811061145957600080fd5b906000526020600020016000915054906101000a900473ffffffffffffffffffffffffffffffffffffffff1681565b600061150d620f42406114ff6008546114f164e8d4a51000600960008973ffffffffffffffffffffffffffffffffffffffff1673ffffffffffffffffffffffffffffffffffffffff1681526020019081526020016000206000015461162790919063ffffffff16565b61163d90919063ffffffff16565b61163d90919063ffffffff16565b9050919050565b60075481565b61152261161f565b73ffffffffffffffffffffffffffffffffffffffff16611540610cc5565b73ffffffffffffffffffffffffffffffffffffffff1614611596576040517f08c379a000000000000000000000000000000000000000000000000000000000815260040161158d906121eb565b60405180910390fd5b600073ffffffffffffffffffffffffffffffffffffffff168173ffffffffffffffffffffffffffffffffffffffff161415611606576040517f08c379a00000000000000000000000000000000000000000000000000000000081526004016115fd9061212b565b60405180910390fd5b61160f81611815565b50565b6000600a80549050905090565b600033905090565b600081836116359190612411565b905092915050565b6000818361164b91906123e0565b905092915050565b60008183611661919061246b565b905092915050565b6116ea8363a9059cbb60e01b848460405160240161168892919061206a565b604051602081830303815290604052907bffffffffffffffffffffffffffffffffffffffffffffffffffffffff19166020820180517bffffffffffffffffffffffffffffffffffffffffffffffffffffffff838183161783525050505061197a565b505050565b60008273ffffffffffffffffffffffffffffffffffffffff1682600067ffffffffffffffff81111561174a577f4e487b7100000000000000000000000000000000000000000000000000000000600052604160045260246000fd5b6040519080825280601f01601f19166020018201604052801561177c5781602001600182028036833780820191505090505b5060405161178a9190612001565b60006040518083038185875af1925050503d80600081146117c7576040519150601f19603f3d011682016040523d82523d6000602084013e6117cc565b606091505b5050905080611810576040517f08c379a00000000000000000000000000000000000000000000000000000000081526004016118079061226b565b60405180910390fd5b505050565b6000600160009054906101000a900473ffffffffffffffffffffffffffffffffffffffff16905081600160006101000a81548173ffffffffffffffffffffffffffffffffffffffff021916908373ffffffffffffffffffffffffffffffffffffffff1602179055508173ffffffffffffffffffffffffffffffffffffffff168173ffffffffffffffffffffffffffffffffffffffff167f8be0079c531659141344cd1fd0a4f28419497f9722a3daafe3b4186f6b6457e060405160405180910390a35050565b61195e846323b872dd60e01b8585856040516024016118fc93929190612033565b604051602081830303815290604052907bffffffffffffffffffffffffffffffffffffffffffffffffffffffff19166020820180517bffffffffffffffffffffffffffffffffffffffffffffffffffffffff838183161783525050505061197a565b50505050565b60008183611972919061238a565b905092915050565b60006119dc826040518060400160405280602081526020017f5361666545524332303a206c6f772d6c6576656c2063616c6c206661696c65648152508573ffffffffffffffffffffffffffffffffffffffff16611a419092919063ffffffff16565b9050600081511115611a3c57808060200190518101906119fc9190611c74565b611a3b576040517f08c379a0000000000000000000000000000000000000000000000000000000008152600401611a329061228b565b60405180910390fd5b5b505050565b6060611a508484600085611a59565b90509392505050565b606082471015611a9e576040517f08c379a0000000000000000000000000000000000000000000000000000000008152600401611a959061216b565b60405180910390fd5b611aa785611b6d565b611ae6576040517f08c379a0000000000000000000000000000000000000000000000000000000008152600401611add9061224b565b60405180910390fd5b6000808673ffffffffffffffffffffffffffffffffffffffff168587604051611b0f9190612001565b60006040518083038185875af1925050503d8060008114611b4c576040519150601f19603f3d011682016040523d82523d6000602084013e611b51565b606091505b5091509150611b61828286611b90565b92505050949350505050565b6000808273ffffffffffffffffffffffffffffffffffffffff163b119050919050565b60608315611ba057829050611bf0565b600083511115611bb35782518084602001fd5b816040517f08c379a0000000000000000000000000000000000000000000000000000000008152600401611be791906120c9565b60405180910390fd5b9392505050565b600081359050611c06816128d5565b92915050565b600081519050611c1b816128ec565b92915050565b600081359050611c3081612903565b92915050565b600081519050611c4581612903565b92915050565b600060208284031215611c5d57600080fd5b6000611c6b84828501611bf7565b91505092915050565b600060208284031215611c8657600080fd5b6000611c9484828501611c0c565b91505092915050565b600060208284031215611caf57600080fd5b6000611cbd84828501611c21565b91505092915050565b600060208284031215611cd857600080fd5b6000611ce684828501611c36565b91505092915050565b60008060408385031215611d0257600080fd5b6000611d1085828601611c21565b9250506020611d2185828601611c21565b9150509250929050565b611d348161249f565b82525050565b611d43816124b1565b82525050565b6000611d5482612358565b611d5e818561236e565b9350611d6e81856020860161250b565b80840191505092915050565b611d83816124e7565b82525050565b6000611d9482612363565b611d9e8185612379565b9350611dae81856020860161250b565b611db78161259c565b840191505092915050565b6000611dcf601083612379565b9150611dda826125ad565b602082019050919050565b6000611df2601283612379565b9150611dfd826125d6565b602082019050919050565b6000611e15602683612379565b9150611e20826125ff565b604082019050919050565b6000611e38601083612379565b9150611e438261264e565b602082019050919050565b6000611e5b602683612379565b9150611e6682612677565b604082019050919050565b6000611e7e600283612379565b9150611e89826126c6565b602082019050919050565b6000611ea1601183612379565b9150611eac826126ef565b602082019050919050565b6000611ec4601683612379565b9150611ecf82612718565b602082019050919050565b6000611ee7602083612379565b9150611ef282612741565b602082019050919050565b6000611f0a601283612379565b9150611f158261276a565b602082019050919050565b6000611f2d601083612379565b9150611f3882612793565b602082019050919050565b6000611f50601d83612379565b9150611f5b826127bc565b602082019050919050565b6000611f73602383612379565b9150611f7e826127e5565b604082019050919050565b6000611f96602a83612379565b9150611fa182612834565b604082019050919050565b6000611fb9601f83612379565b9150611fc482612883565b602082019050919050565b6000611fdc601283612379565b9150611fe7826128ac565b602082019050919050565b611ffb816124dd565b82525050565b600061200d8284611d49565b915081905092915050565b600060208201905061202d6000830184611d2b565b92915050565b60006060820190506120486000830186611d2b565b6120556020830185611d2b565b6120626040830184611ff2565b949350505050565b600060408201905061207f6000830185611d2b565b61208c6020830184611ff2565b9392505050565b60006020820190506120a86000830184611d3a565b92915050565b60006020820190506120c36000830184611d7a565b92915050565b600060208201905081810360008301526120e38184611d89565b905092915050565b6000602082019050818103600083015261210481611dc2565b9050919050565b6000602082019050818103600083015261212481611de5565b9050919050565b6000602082019050818103600083015261214481611e08565b9050919050565b6000602082019050818103600083015261216481611e2b565b9050919050565b6000602082019050818103600083015261218481611e4e565b9050919050565b600060208201905081810360008301526121a481611e71565b9050919050565b600060208201905081810360008301526121c481611e94565b9050919050565b600060208201905081810360008301526121e481611eb7565b9050919050565b6000602082019050818103600083015261220481611eda565b9050919050565b6000602082019050818103600083015261222481611efd565b9050919050565b6000602082019050818103600083015261224481611f20565b9050919050565b6000602082019050818103600083015261226481611f43565b9050919050565b6000602082019050818103600083015261228481611f66565b9050919050565b600060208201905081810360008301526122a481611f89565b9050919050565b600060208201905081810360008301526122c481611fac565b9050919050565b600060208201905081810360008301526122e481611fcf565b9050919050565b60006020820190506123006000830184611ff2565b92915050565b600060408201905061231b6000830185611ff2565b6123286020830184611d3a565b9392505050565b60006040820190506123446000830185611ff2565b6123516020830184611ff2565b9392505050565b600081519050919050565b600081519050919050565b600081905092915050565b600082825260208201905092915050565b6000612395826124dd565b91506123a0836124dd565b9250827fffffffffffffffffffffffffffffffffffffffffffffffffffffffffffffffff038211156123d5576123d461253e565b5b828201905092915050565b60006123eb826124dd565b91506123f6836124dd565b9250826124065761240561256d565b5b828204905092915050565b600061241c826124dd565b9150612427836124dd565b9250817fffffffffffffffffffffffffffffffffffffffffffffffffffffffffffffffff04831182151516156124605761245f61253e565b5b828202905092915050565b6000612476826124dd565b9150612481836124dd565b9250828210156124945761249361253e565b5b828203905092915050565b60006124aa826124bd565b9050919050565b60008115159050919050565b600073ffffffffffffffffffffffffffffffffffffffff82169050919050565b6000819050919050565b60006124f2826124f9565b9050919050565b6000612504826124bd565b9050919050565b60005b8381101561252957808201518184015260208101905061250e565b83811115612538576000848401525b50505050565b7f4e487b7100000000000000000000000000000000000000000000000000000000600052601160045260246000fd5b7f4e487b7100000000000000000000000000000000000000000000000000000000600052601260045260246000fd5b6000601f19601f8301169050919050565b7f6e656564205f616d6f756e74203e203000000000000000000000000000000000600082015250565b7f6e6f7420656e6f75676820746f6b656e20310000000000000000000000000000600082015250565b7f4f776e61626c653a206e6577206f776e657220697320746865207a65726f206160008201527f6464726573730000000000000000000000000000000000000000000000000000602082015250565b7f6e6f742072616973696e672074696d6500000000000000000000000000000000600082015250565b7f416464726573733a20696e73756666696369656e742062616c616e636520666f60008201527f722063616c6c0000000000000000000000000000000000000000000000000000602082015250565b7f6e6f000000000000000000000000000000000000000000000000000000000000600082015250565b7f616d6f756e74206e6f7420656e6f756768000000000000000000000000000000600082015250565b7f6861766520796f75207061727469636970617465643f00000000000000000000600082015250565b7f4f776e61626c653a2063616c6c6572206973206e6f7420746865206f776e6572600082015250565b7f6e6f7420656e6f75676820746f6b656e20300000000000000000000000000000600082015250565b7f6e6f7420686172766573742074696d6500000000000000000000000000000000600082015250565b7f416464726573733a2063616c6c20746f206e6f6e2d636f6e7472616374000000600082015250565b7f5472616e7366657248656c7065723a204b41495f5452414e534645525f46414960008201527f4c45440000000000000000000000000000000000000000000000000000000000602082015250565b7f5361666545524332303a204552433230206f7065726174696f6e20646964206e60008201527f6f74207375636365656400000000000000000000000000000000000000000000602082015250565b7f5265656e7472616e637947756172643a207265656e7472616e742063616c6c00600082015250565b7f6e6f7468696e6720746f20686172766573740000000000000000000000000000600082015250565b6128de8161249f565b81146128e957600080fd5b50565b6128f5816124b1565b811461290057600080fd5b50565b61290c816124dd565b811461291757600080fd5b5056fea2646970667358221220496995354f3a9d83e9983b210a03a38c9e6f41c49dc34f4d55ec4e03e2b4c44464736f6c63430008040033",
  "linkReferences": {},
  "deployedLinkReferences": {}
}