{
  "_format": "hh-sol-artifact-1",
  "contractName": "RaiseFunding",
  "sourceName": "contracts/launchpad/RaiseFunding.sol",
  "abi": [
    {
      "inputs": [
        {
          "internalType": "contract IERC20",
          "name": "_buyToken",
          "type": "address"
        },
        {
          "internalType": "contract IERC20",
          "name": "_offeringToken",
          "type": "address"
        },
        {
          "internalType": "uint256",
          "name": "_startTime",
          "type": "uint256"
        },
        {
          "internalType": "uint256",
          "name": "_endTime",
          "type": "uint256"
        },
        {
          "internalType": "uint256",
          "name": "_offeringAmount",
          "type": "uint256"
        },
        {
          "internalType": "uint256",
          "name": "_raisingAmount",
          "type": "uint256"
        }
      ],
      "stateMutability": "nonpayable",
      "type": "constructor"
    },
    {
      "anonymous": false,
      "inputs": [
        {
          "indexed": true,
          "internalType": "address",
          "name": "user",
          "type": "address"
        },
        {
          "indexed": false,
          "internalType": "uint256",
          "name": "amount",
          "type": "uint256"
        }
      ],
      "name": "Deposit",
      "type": "event"
    },
    {
      "anonymous": false,
      "inputs": [
        {
          "indexed": true,
          "internalType": "address",
          "name": "user",
          "type": "address"
        },
        {
          "indexed": false,
          "internalType": "uint256",
          "name": "offeringAmount",
          "type": "uint256"
        },
        {
          "indexed": false,
          "internalType": "uint256",
          "name": "excessAmount",
          "type": "uint256"
        }
      ],
      "name": "Harvest",
      "type": "event"
    },
    {
      "anonymous": false,
      "inputs": [
        {
          "indexed": true,
          "internalType": "address",
          "name": "previousOwner",
          "type": "address"
        },
        {
          "indexed": true,
          "internalType": "address",
          "name": "newOwner",
          "type": "address"
        }
      ],
      "name": "OwnershipTransferred",
      "type": "event"
    },
    {
      "inputs": [
        {
          "internalType": "uint256",
          "name": "",
          "type": "uint256"
        }
      ],
      "name": "addressList",
      "outputs": [
        {
          "internalType": "address",
          "name": "",
          "type": "address"
        }
      ],
      "stateMutability": "view",
      "type": "function"
    },
    {
      "inputs": [],
      "name": "buyToken",
      "outputs": [
        {
          "internalType": "contract IERC20",
          "name": "",
          "type": "address"
        }
      ],
      "stateMutability": "view",
      "type": "function"
    },
    {
      "inputs": [
        {
          "internalType": "uint256",
          "name": "_amount",
          "type": "uint256"
        }
      ],
      "name": "deposit",
      "outputs": [],
      "stateMutability": "payable",
      "type": "function"
    },
    {
      "inputs": [
        {
          "internalType": "address",
          "name": "token",
          "type": "address"
        },
        {
          "internalType": "uint256",
          "name": "amount",
          "type": "uint256"
        },
        {
          "internalType": "address payable",
          "name": "to",
          "type": "address"
        }
      ],
      "name": "emergencyWithdraw",
      "outputs": [],
      "stateMutability": "nonpayable",
      "type": "function"
    },
    {
      "inputs": [],
      "name": "endTime",
      "outputs": [
        {
          "internalType": "uint256",
          "name": "",
          "type": "uint256"
        }
      ],
      "stateMutability": "view",
      "type": "function"
    },
    {
      "inputs": [
        {
          "internalType": "uint256",
          "name": "_raisingAmount",
          "type": "uint256"
        },
        {
          "internalType": "uint256",
          "name": "_offerAmount",
          "type": "uint256"
        }
      ],
      "name": "finalWithdraw",
      "outputs": [],
      "stateMutability": "nonpayable",
      "type": "function"
    },
    {
      "inputs": [],
      "name": "getAddressListLength",
      "outputs": [
        {
          "internalType": "uint256",
          "name": "",
          "type": "uint256"
        }
      ],
      "stateMutability": "view",
      "type": "function"
    },
    {
      "inputs": [
        {
          "internalType": "address",
          "name": "_user",
          "type": "address"
        }
      ],
      "name": "getOfferingAmount",
      "outputs": [
        {
          "internalType": "uint256",
          "name": "",
          "type": "uint256"
        }
      ],
      "stateMutability": "view",
      "type": "function"
    },
    {
      "inputs": [
        {
          "internalType": "address",
          "name": "_user",
          "type": "address"
        }
      ],
      "name": "getRefundingAmount",
      "outputs": [
        {
          "internalType": "uint256",
          "name": "",
          "type": "uint256"
        }
      ],
      "stateMutability": "view",
      "type": "function"
    },
    {
      "inputs": [
        {
          "internalType": "address",
          "name": "_user",
          "type": "address"
        }
      ],
      "name": "getUserAllocation",
      "outputs": [
        {
          "internalType": "uint256",
          "name": "",
          "type": "uint256"
        }
      ],
      "stateMutability": "view",
      "type": "function"
    },
    {
      "inputs": [],
      "name": "harvest",
      "outputs": [],
      "stateMutability": "nonpayable",
      "type": "function"
    },
    {
      "inputs": [
        {
          "internalType": "address",
          "name": "_user",
          "type": "address"
        }
      ],
      "name": "hasHarvest",
      "outputs": [
        {
          "internalType": "bool",
          "name": "",
          "type": "bool"
        }
      ],
      "stateMutability": "view",
      "type": "function"
    },
    {
      "inputs": [],
      "name": "offeringAmount",
      "outputs": [
        {
          "internalType": "uint256",
          "name": "",
          "type": "uint256"
        }
      ],
      "stateMutability": "view",
      "type": "function"
    },
    {
      "inputs": [],
      "name": "offeringToken",
      "outputs": [
        {
          "internalType": "contract IERC20",
          "name": "",
          "type": "address"
        }
      ],
      "stateMutability": "view",
      "type": "function"
    },
    {
      "inputs": [],
      "name": "owner",
      "outputs": [
        {
          "internalType": "address",
          "name": "",
          "type": "address"
        }
      ],
      "stateMutability": "view",
      "type": "function"
    },
    {
      "inputs": [],
      "name": "raisingAmount",
      "outputs": [
        {
          "internalType": "uint256",
          "name": "",
          "type": "uint256"
        }
      ],
      "stateMutability": "view",
      "type": "function"
    },
    {
      "inputs": [],
      "name": "renounceOwnership",
      "outputs": [],
      "stateMutability": "nonpayable",
      "type": "function"
    },
    {
      "inputs": [
        {
          "internalType": "uint256",
          "name": "_offerAmount",
          "type": "uint256"
        }
      ],
      "name": "setOfferingAmount",
      "outputs": [],
      "stateMutability": "nonpayable",
      "type": "function"
    },
    {
      "inputs": [
        {
          "internalType": "uint256",
          "name": "_raisingAmount",
          "type": "uint256"
        }
      ],
      "name": "setRaisingAmount",
      "outputs": [],
      "stateMutability": "nonpayable",
      "type": "function"
    },
    {
      "inputs": [],
      "name": "startTime",
      "outputs": [
        {
          "internalType": "uint256",
          "name": "",
          "type": "uint256"
        }
      ],
      "stateMutability": "view",
      "type": "function"
    },
    {
      "inputs": [],
      "name": "totalAmount",
      "outputs": [
        {
          "internalType": "uint256",
          "name": "",
          "type": "uint256"
        }
      ],
      "stateMutability": "view",
      "type": "function"
    },
    {
      "inputs": [
        {
          "internalType": "address",
          "name": "newOwner",
          "type": "address"
        }
      ],
      "name": "transferOwnership",
      "outputs": [],
      "stateMutability": "nonpayable",
      "type": "function"
    },
    {
      "inputs": [
        {
          "internalType": "address",
          "name": "",
          "type": "address"
        }
      ],
      "name": "userInfo",
      "outputs": [
        {
          "internalType": "uint256",
          "name": "amount",
          "type": "uint256"
        },
        {
          "internalType": "bool",
          "name": "claimed",
          "type": "bool"
        }
      ],
      "stateMutability": "view",
      "type": "function"
    }
  ],
  "bytecode": "0x60806040523480156200001157600080fd5b5060405162002e7838038062002e7883398181016040528101906200003791906200020d565b60016000819055506200005f620000536200011160201b60201c565b6200011960201b60201c565b85600260006101000a81548173ffffffffffffffffffffffffffffffffffffffff021916908373ffffffffffffffffffffffffffffffffffffffff16021790555084600360006101000a81548173ffffffffffffffffffffffffffffffffffffffff021916908373ffffffffffffffffffffffffffffffffffffffff16021790555083600481905550826005819055508160078190555080600681905550600060088190555050505050505062000329565b600033905090565b6000600160009054906101000a900473ffffffffffffffffffffffffffffffffffffffff16905081600160006101000a81548173ffffffffffffffffffffffffffffffffffffffff021916908373ffffffffffffffffffffffffffffffffffffffff1602179055508173ffffffffffffffffffffffffffffffffffffffff168173ffffffffffffffffffffffffffffffffffffffff167f8be0079c531659141344cd1fd0a4f28419497f9722a3daafe3b4186f6b6457e060405160405180910390a35050565b600081519050620001f081620002f5565b92915050565b60008151905062000207816200030f565b92915050565b60008060008060008060c087890312156200022757600080fd5b60006200023789828a01620001df565b96505060206200024a89828a01620001df565b95505060406200025d89828a01620001f6565b94505060606200027089828a01620001f6565b93505060806200028389828a01620001f6565b92505060a06200029689828a01620001f6565b9150509295509295509295565b6000620002b082620002cb565b9050919050565b6000620002c482620002a3565b9050919050565b600073ffffffffffffffffffffffffffffffffffffffff82169050919050565b6000819050919050565b6200030081620002b7565b81146200030c57600080fd5b50565b6200031a81620002eb565b81146200032657600080fd5b50565b612b3f80620003396000396000f3fe6080604052600436106101405760003560e01c806387e97bc6116100b6578063b78136071161006f578063b78136071461042a578063b810fb4314610455578063b920ade214610492578063e1af9a95146104cf578063f2fde38b146104fa578063fc00358e1461052357610140565b806387e97bc6146103275780638da5cb5b146103645780639c0a76691461038f5780639f1b5248146103ba578063a4821719146103e3578063b6b55f251461040e57610140565b80634225c32f116101085780634225c32f1461023f5780634641257d14610268578063551512de1461027f57806364ce9fff146102a8578063715018a6146102e557806378e97925146102fc57610140565b80631959a002146101455780631a39d8ef1461018357806327d1b1a2146101ae5780632f5105f8146101d75780633197cbb614610214575b600080fd5b34801561015157600080fd5b5061016c60048036038101906101679190611dc2565b61054e565b60405161017a9291906124cc565b60405180910390f35b34801561018f57600080fd5b5061019861057f565b6040516101a591906124b1565b60405180910390f35b3480156101ba57600080fd5b506101d560048036038101906101d09190611e63565b610585565b005b3480156101e357600080fd5b506101fe60048036038101906101f99190611dc2565b61064f565b60405161020b91906124b1565b60405180910390f35b34801561022057600080fd5b506102296106ff565b60405161023691906124b1565b60405180910390f35b34801561024b57600080fd5b5061026660048036038101906102619190611e63565b610705565b005b34801561027457600080fd5b5061027d6107cf565b005b34801561028b57600080fd5b506102a660048036038101906102a19190611deb565b610b52565b005b3480156102b457600080fd5b506102cf60048036038101906102ca9190611dc2565b610c80565b6040516102dc9190612259565b60405180910390f35b3480156102f157600080fd5b506102fa610cd9565b005b34801561030857600080fd5b50610311610d61565b60405161031e91906124b1565b60405180910390f35b34801561033357600080fd5b5061034e60048036038101906103499190611dc2565b610d67565b60405161035b91906124b1565b60405180910390f35b34801561037057600080fd5b50610379610e27565b60405161038691906121de565b60405180910390f35b34801561039b57600080fd5b506103a4610e51565b6040516103b191906124b1565b60405180910390f35b3480156103c657600080fd5b506103e160048036038101906103dc9190611eb5565b610e57565b005b3480156103ef57600080fd5b506103f86111b0565b6040516104059190612274565b60405180910390f35b61042860048036038101906104239190611e63565b6111d6565b005b34801561043657600080fd5b5061043f611585565b60405161044c9190612274565b60405180910390f35b34801561046157600080fd5b5061047c60048036038101906104779190611e63565b6115ab565b60405161048991906121de565b60405180910390f35b34801561049e57600080fd5b506104b960048036038101906104b49190611dc2565b6115ea565b6040516104c691906124b1565b60405180910390f35b3480156104db57600080fd5b506104e4611676565b6040516104f191906124b1565b60405180910390f35b34801561050657600080fd5b50610521600480360381019061051c9190611dc2565b61167c565b005b34801561052f57600080fd5b50610538611774565b60405161054591906124b1565b60405180910390f35b60096020528060005260406000206000915090508060000154908060010160009054906101000a900460ff16905082565b60085481565b61058d611781565b73ffffffffffffffffffffffffffffffffffffffff166105ab610e27565b73ffffffffffffffffffffffffffffffffffffffff1614610601576040517f08c379a00000000000000000000000000000000000000000000000000000000081526004016105f8906123b1565b60405180910390fd5b6004544210610645576040517f08c379a000000000000000000000000000000000000000000000000000000000815260040161063c90612351565b60405180910390fd5b8060078190555050565b60006006546008541161066557600090506106fa565b6000610670836115ea565b9050600061069e620f42406106908460065461178990919063ffffffff16565b61179f90919063ffffffff16565b90506106f581600960008773ffffffffffffffffffffffffffffffffffffffff1673ffffffffffffffffffffffffffffffffffffffff168152602001908152602001600020600001546117b590919063ffffffff16565b925050505b919050565b60055481565b61070d611781565b73ffffffffffffffffffffffffffffffffffffffff1661072b610e27565b73ffffffffffffffffffffffffffffffffffffffff1614610781576040517f08c379a0000000000000000000000000000000000000000000000000000000008152600401610778906123b1565b60405180910390fd5b60045442106107c5576040517f08c379a00000000000000000000000000000000000000000000000000000000081526004016107bc90612351565b60405180910390fd5b8060068190555050565b60026000541415610815576040517f08c379a000000000000000000000000000000000000000000000000000000000815260040161080c90612471565b60405180910390fd5b60026000819055506005544211610861576040517f08c379a0000000000000000000000000000000000000000000000000000000008152600401610858906123f1565b60405180910390fd5b6000600960003373ffffffffffffffffffffffffffffffffffffffff1673ffffffffffffffffffffffffffffffffffffffff16815260200190815260200160002060000154116108e6576040517f08c379a00000000000000000000000000000000000000000000000000000000081526004016108dd90612391565b60405180910390fd5b600960003373ffffffffffffffffffffffffffffffffffffffff1673ffffffffffffffffffffffffffffffffffffffff16815260200190815260200160002060010160009054906101000a900460ff1615610976576040517f08c379a000000000000000000000000000000000000000000000000000000000815260040161096d90612491565b60405180910390fd5b600061098133610d67565b9050600061098e3361064f565b90506109dd3383600360009054906101000a900473ffffffffffffffffffffffffffffffffffffffff1673ffffffffffffffffffffffffffffffffffffffff166117cb9092919063ffffffff16565b6000811115610a9b57600073ffffffffffffffffffffffffffffffffffffffff16600260009054906101000a900473ffffffffffffffffffffffffffffffffffffffff1673ffffffffffffffffffffffffffffffffffffffff161415610a4c57610a473382611851565b610a9a565b610a993382600260009054906101000a900473ffffffffffffffffffffffffffffffffffffffff1673ffffffffffffffffffffffffffffffffffffffff166117cb9092919063ffffffff16565b5b5b6001600960003373ffffffffffffffffffffffffffffffffffffffff1673ffffffffffffffffffffffffffffffffffffffff16815260200190815260200160002060010160006101000a81548160ff0219169083151502179055503373ffffffffffffffffffffffffffffffffffffffff167f71bab65ced2e5750775a0613be067df48ef06cf92a496ebf7663ae06609249548383604051610b3e9291906124f5565b60405180910390a250506001600081905550565b610b5a611781565b73ffffffffffffffffffffffffffffffffffffffff16610b78610e27565b73ffffffffffffffffffffffffffffffffffffffff1614610bce576040517f08c379a0000000000000000000000000000000000000000000000000000000008152600401610bc5906123b1565b60405180910390fd5b600073ffffffffffffffffffffffffffffffffffffffff168373ffffffffffffffffffffffffffffffffffffffff161415610c4f578073ffffffffffffffffffffffffffffffffffffffff166108fc839081150290604051600060405180830381858888f19350505050158015610c49573d6000803e3d6000fd5b50610c7b565b610c7a81838573ffffffffffffffffffffffffffffffffffffffff166117cb9092919063ffffffff16565b5b505050565b6000600960008373ffffffffffffffffffffffffffffffffffffffff1673ffffffffffffffffffffffffffffffffffffffff16815260200190815260200160002060010160009054906101000a900460ff169050919050565b610ce1611781565b73ffffffffffffffffffffffffffffffffffffffff16610cff610e27565b73ffffffffffffffffffffffffffffffffffffffff1614610d55576040517f08c379a0000000000000000000000000000000000000000000000000000000008152600401610d4c906123b1565b60405180910390fd5b610d5f6000611977565b565b60045481565b60006006546008541115610db4576000610d80836115ea565b9050610dac620f4240610d9e8360075461178990919063ffffffff16565b61179f90919063ffffffff16565b915050610e22565b610e1f600654610e11600754600960008773ffffffffffffffffffffffffffffffffffffffff1673ffffffffffffffffffffffffffffffffffffffff1681526020019081526020016000206000015461178990919063ffffffff16565b61179f90919063ffffffff16565b90505b919050565b6000600160009054906101000a900473ffffffffffffffffffffffffffffffffffffffff16905090565b60065481565b610e5f611781565b73ffffffffffffffffffffffffffffffffffffffff16610e7d610e27565b73ffffffffffffffffffffffffffffffffffffffff1614610ed3576040517f08c379a0000000000000000000000000000000000000000000000000000000008152600401610eca906123b1565b60405180910390fd5b600360009054906101000a900473ffffffffffffffffffffffffffffffffffffffff1673ffffffffffffffffffffffffffffffffffffffff166370a08231306040518263ffffffff1660e01b8152600401610f2e91906121de565b60206040518083038186803b158015610f4657600080fd5b505afa158015610f5a573d6000803e3d6000fd5b505050506040513d601f19601f82011682018060405250810190610f7e9190611e8c565b8110610fbf576040517f08c379a0000000000000000000000000000000000000000000000000000000008152600401610fb6906122d1565b60405180910390fd5b600073ffffffffffffffffffffffffffffffffffffffff16600260009054906101000a900473ffffffffffffffffffffffffffffffffffffffff1673ffffffffffffffffffffffffffffffffffffffff161415611025576110203383611851565b61115f565b600260009054906101000a900473ffffffffffffffffffffffffffffffffffffffff1673ffffffffffffffffffffffffffffffffffffffff166370a08231306040518263ffffffff1660e01b815260040161108091906121de565b60206040518083038186803b15801561109857600080fd5b505afa1580156110ac573d6000803e3d6000fd5b505050506040513d601f19601f820116820180604052508101906110d09190611e8c565b8210611111576040517f08c379a0000000000000000000000000000000000000000000000000000000008152600401611108906123d1565b60405180910390fd5b61115e3383600260009054906101000a900473ffffffffffffffffffffffffffffffffffffffff1673ffffffffffffffffffffffffffffffffffffffff166117cb9092919063ffffffff16565b5b6111ac3382600360009054906101000a900473ffffffffffffffffffffffffffffffffffffffff1673ffffffffffffffffffffffffffffffffffffffff166117cb9092919063ffffffff16565b5050565b600260009054906101000a900473ffffffffffffffffffffffffffffffffffffffff1681565b6002600054141561121c576040517f08c379a000000000000000000000000000000000000000000000000000000000815260040161121390612471565b60405180910390fd5b60026000819055508060045442118015611237575060055442105b611276576040517f08c379a000000000000000000000000000000000000000000000000000000000815260040161126d90612311565b60405180910390fd5b600081116112b9576040517f08c379a00000000000000000000000000000000000000000000000000000000081526004016112b0906122b1565b60405180910390fd5b600073ffffffffffffffffffffffffffffffffffffffff16600260009054906101000a900473ffffffffffffffffffffffffffffffffffffffff1673ffffffffffffffffffffffffffffffffffffffff1614156113765781341015611353576040517f08c379a000000000000000000000000000000000000000000000000000000000815260040161134a90612371565b60405180910390fd5b813411156113715761137033833461136b9190612631565b611851565b5b6113c6565b6113c5333084600260009054906101000a900473ffffffffffffffffffffffffffffffffffffffff1673ffffffffffffffffffffffffffffffffffffffff16611a3d909392919063ffffffff16565b5b6000600960003373ffffffffffffffffffffffffffffffffffffffff1673ffffffffffffffffffffffffffffffffffffffff16815260200190815260200160002060000154141561147557600a339080600181540180825580915050600190039060005260206000200160009091909190916101000a81548173ffffffffffffffffffffffffffffffffffffffff021916908373ffffffffffffffffffffffffffffffffffffffff1602179055505b6114ca82600960003373ffffffffffffffffffffffffffffffffffffffff1673ffffffffffffffffffffffffffffffffffffffff16815260200190815260200160002060000154611ac690919063ffffffff16565b600960003373ffffffffffffffffffffffffffffffffffffffff1673ffffffffffffffffffffffffffffffffffffffff1681526020019081526020016000206000018190555061152582600854611ac690919063ffffffff16565b6008819055503373ffffffffffffffffffffffffffffffffffffffff167fe1fffcc4923d04b559f4d29a8bfc6cda04eb5b0d3c460751c2402c5c5cc9109c8360405161157191906124b1565b60405180910390a250600160008190555050565b600360009054906101000a900473ffffffffffffffffffffffffffffffffffffffff1681565b600a81815481106115bb57600080fd5b906000526020600020016000915054906101000a900473ffffffffffffffffffffffffffffffffffffffff1681565b600061166f620f424061166160085461165364e8d4a51000600960008973ffffffffffffffffffffffffffffffffffffffff1673ffffffffffffffffffffffffffffffffffffffff1681526020019081526020016000206000015461178990919063ffffffff16565b61179f90919063ffffffff16565b61179f90919063ffffffff16565b9050919050565b60075481565b611684611781565b73ffffffffffffffffffffffffffffffffffffffff166116a2610e27565b73ffffffffffffffffffffffffffffffffffffffff16146116f8576040517f08c379a00000000000000000000000000000000000000000000000000000000081526004016116ef906123b1565b60405180910390fd5b600073ffffffffffffffffffffffffffffffffffffffff168173ffffffffffffffffffffffffffffffffffffffff161415611768576040517f08c379a000000000000000000000000000000000000000000000000000000000815260040161175f906122f1565b60405180910390fd5b61177181611977565b50565b6000600a80549050905090565b600033905090565b6000818361179791906125d7565b905092915050565b600081836117ad91906125a6565b905092915050565b600081836117c39190612631565b905092915050565b61184c8363a9059cbb60e01b84846040516024016117ea929190612230565b604051602081830303815290604052907bffffffffffffffffffffffffffffffffffffffffffffffffffffffff19166020820180517bffffffffffffffffffffffffffffffffffffffffffffffffffffffff8381831617835250505050611adc565b505050565b60008273ffffffffffffffffffffffffffffffffffffffff1682600067ffffffffffffffff8111156118ac577f4e487b7100000000000000000000000000000000000000000000000000000000600052604160045260246000fd5b6040519080825280601f01601f1916602001820160405280156118de5781602001600182028036833780820191505090505b506040516118ec91906121c7565b60006040518083038185875af1925050503d8060008114611929576040519150601f19603f3d011682016040523d82523d6000602084013e61192e565b606091505b5050905080611972576040517f08c379a000000000000000000000000000000000000000000000000000000000815260040161196990612431565b60405180910390fd5b505050565b6000600160009054906101000a900473ffffffffffffffffffffffffffffffffffffffff16905081600160006101000a81548173ffffffffffffffffffffffffffffffffffffffff021916908373ffffffffffffffffffffffffffffffffffffffff1602179055508173ffffffffffffffffffffffffffffffffffffffff168173ffffffffffffffffffffffffffffffffffffffff167f8be0079c531659141344cd1fd0a4f28419497f9722a3daafe3b4186f6b6457e060405160405180910390a35050565b611ac0846323b872dd60e01b858585604051602401611a5e939291906121f9565b604051602081830303815290604052907bffffffffffffffffffffffffffffffffffffffffffffffffffffffff19166020820180517bffffffffffffffffffffffffffffffffffffffffffffffffffffffff8381831617835250505050611adc565b50505050565b60008183611ad49190612550565b905092915050565b6000611b3e826040518060400160405280602081526020017f5361666545524332303a206c6f772d6c6576656c2063616c6c206661696c65648152508573ffffffffffffffffffffffffffffffffffffffff16611ba39092919063ffffffff16565b9050600081511115611b9e5780806020019051810190611b5e9190611e3a565b611b9d576040517f08c379a0000000000000000000000000000000000000000000000000000000008152600401611b9490612451565b60405180910390fd5b5b505050565b6060611bb28484600085611bbb565b90509392505050565b606082471015611c00576040517f08c379a0000000000000000000000000000000000000000000000000000000008152600401611bf790612331565b60405180910390fd5b611c0985611ccf565b611c48576040517f08c379a0000000000000000000000000000000000000000000000000000000008152600401611c3f90612411565b60405180910390fd5b6000808673ffffffffffffffffffffffffffffffffffffffff168587604051611c7191906121c7565b60006040518083038185875af1925050503d8060008114611cae576040519150601f19603f3d011682016040523d82523d6000602084013e611cb3565b606091505b5091509150611cc3828286611cf2565b92505050949350505050565b6000808273ffffffffffffffffffffffffffffffffffffffff163b119050919050565b60608315611d0257829050611d52565b600083511115611d155782518084602001fd5b816040517f08c379a0000000000000000000000000000000000000000000000000000000008152600401611d49919061228f565b60405180910390fd5b9392505050565b600081359050611d6881612aad565b92915050565b600081359050611d7d81612ac4565b92915050565b600081519050611d9281612adb565b92915050565b600081359050611da781612af2565b92915050565b600081519050611dbc81612af2565b92915050565b600060208284031215611dd457600080fd5b6000611de284828501611d59565b91505092915050565b600080600060608486031215611e0057600080fd5b6000611e0e86828701611d59565b9350506020611e1f86828701611d98565b9250506040611e3086828701611d6e565b9150509250925092565b600060208284031215611e4c57600080fd5b6000611e5a84828501611d83565b91505092915050565b600060208284031215611e7557600080fd5b6000611e8384828501611d98565b91505092915050565b600060208284031215611e9e57600080fd5b6000611eac84828501611dad565b91505092915050565b60008060408385031215611ec857600080fd5b6000611ed685828601611d98565b9250506020611ee785828601611d98565b9150509250929050565b611efa81612665565b82525050565b611f0981612689565b82525050565b6000611f1a8261251e565b611f248185612534565b9350611f348185602086016126e3565b80840191505092915050565b611f49816126bf565b82525050565b6000611f5a82612529565b611f64818561253f565b9350611f748185602086016126e3565b611f7d81612774565b840191505092915050565b6000611f9560108361253f565b9150611fa082612785565b602082019050919050565b6000611fb860128361253f565b9150611fc3826127ae565b602082019050919050565b6000611fdb60268361253f565b9150611fe6826127d7565b604082019050919050565b6000611ffe60108361253f565b915061200982612826565b602082019050919050565b600061202160268361253f565b915061202c8261284f565b604082019050919050565b600061204460028361253f565b915061204f8261289e565b602082019050919050565b600061206760118361253f565b9150612072826128c7565b602082019050919050565b600061208a60168361253f565b9150612095826128f0565b602082019050919050565b60006120ad60208361253f565b91506120b882612919565b602082019050919050565b60006120d060128361253f565b91506120db82612942565b602082019050919050565b60006120f360108361253f565b91506120fe8261296b565b602082019050919050565b6000612116601d8361253f565b915061212182612994565b602082019050919050565b600061213960238361253f565b9150612144826129bd565b604082019050919050565b600061215c602a8361253f565b915061216782612a0c565b604082019050919050565b600061217f601f8361253f565b915061218a82612a5b565b602082019050919050565b60006121a260128361253f565b91506121ad82612a84565b602082019050919050565b6121c1816126b5565b82525050565b60006121d38284611f0f565b915081905092915050565b60006020820190506121f36000830184611ef1565b92915050565b600060608201905061220e6000830186611ef1565b61221b6020830185611ef1565b61222860408301846121b8565b949350505050565b60006040820190506122456000830185611ef1565b61225260208301846121b8565b9392505050565b600060208201905061226e6000830184611f00565b92915050565b60006020820190506122896000830184611f40565b92915050565b600060208201905081810360008301526122a98184611f4f565b905092915050565b600060208201905081810360008301526122ca81611f88565b9050919050565b600060208201905081810360008301526122ea81611fab565b9050919050565b6000602082019050818103600083015261230a81611fce565b9050919050565b6000602082019050818103600083015261232a81611ff1565b9050919050565b6000602082019050818103600083015261234a81612014565b9050919050565b6000602082019050818103600083015261236a81612037565b9050919050565b6000602082019050818103600083015261238a8161205a565b9050919050565b600060208201905081810360008301526123aa8161207d565b9050919050565b600060208201905081810360008301526123ca816120a0565b9050919050565b600060208201905081810360008301526123ea816120c3565b9050919050565b6000602082019050818103600083015261240a816120e6565b9050919050565b6000602082019050818103600083015261242a81612109565b9050919050565b6000602082019050818103600083015261244a8161212c565b9050919050565b6000602082019050818103600083015261246a8161214f565b9050919050565b6000602082019050818103600083015261248a81612172565b9050919050565b600060208201905081810360008301526124aa81612195565b9050919050565b60006020820190506124c660008301846121b8565b92915050565b60006040820190506124e160008301856121b8565b6124ee6020830184611f00565b9392505050565b600060408201905061250a60008301856121b8565b61251760208301846121b8565b9392505050565b600081519050919050565b600081519050919050565b600081905092915050565b600082825260208201905092915050565b600061255b826126b5565b9150612566836126b5565b9250827fffffffffffffffffffffffffffffffffffffffffffffffffffffffffffffffff0382111561259b5761259a612716565b5b828201905092915050565b60006125b1826126b5565b91506125bc836126b5565b9250826125cc576125cb612745565b5b828204905092915050565b60006125e2826126b5565b91506125ed836126b5565b9250817fffffffffffffffffffffffffffffffffffffffffffffffffffffffffffffffff048311821515161561262657612625612716565b5b828202905092915050565b600061263c826126b5565b9150612647836126b5565b92508282101561265a57612659612716565b5b828203905092915050565b600061267082612695565b9050919050565b600061268282612695565b9050919050565b60008115159050919050565b600073ffffffffffffffffffffffffffffffffffffffff82169050919050565b6000819050919050565b60006126ca826126d1565b9050919050565b60006126dc82612695565b9050919050565b60005b838110156127015780820151818401526020810190506126e6565b83811115612710576000848401525b50505050565b7f4e487b7100000000000000000000000000000000000000000000000000000000600052601160045260246000fd5b7f4e487b7100000000000000000000000000000000000000000000000000000000600052601260045260246000fd5b6000601f19601f8301169050919050565b7f6e656564205f616d6f756e74203e203000000000000000000000000000000000600082015250565b7f6e6f7420656e6f75676820746f6b656e20310000000000000000000000000000600082015250565b7f4f776e61626c653a206e6577206f776e657220697320746865207a65726f206160008201527f6464726573730000000000000000000000000000000000000000000000000000602082015250565b7f6e6f742072616973696e672074696d6500000000000000000000000000000000600082015250565b7f416464726573733a20696e73756666696369656e742062616c616e636520666f60008201527f722063616c6c0000000000000000000000000000000000000000000000000000602082015250565b7f6e6f000000000000000000000000000000000000000000000000000000000000600082015250565b7f616d6f756e74206e6f7420656e6f756768000000000000000000000000000000600082015250565b7f6861766520796f75207061727469636970617465643f00000000000000000000600082015250565b7f4f776e61626c653a2063616c6c6572206973206e6f7420746865206f776e6572600082015250565b7f6e6f7420656e6f75676820746f6b656e20300000000000000000000000000000600082015250565b7f6e6f7420686172766573742074696d6500000000000000000000000000000000600082015250565b7f416464726573733a2063616c6c20746f206e6f6e2d636f6e7472616374000000600082015250565b7f5472616e7366657248656c7065723a204b41495f5452414e534645525f46414960008201527f4c45440000000000000000000000000000000000000000000000000000000000602082015250565b7f5361666545524332303a204552433230206f7065726174696f6e20646964206e60008201527f6f74207375636365656400000000000000000000000000000000000000000000602082015250565b7f5265656e7472616e637947756172643a207265656e7472616e742063616c6c00600082015250565b7f6e6f7468696e6720746f20686172766573740000000000000000000000000000600082015250565b612ab681612665565b8114612ac157600080fd5b50565b612acd81612677565b8114612ad857600080fd5b50565b612ae481612689565b8114612aef57600080fd5b50565b612afb816126b5565b8114612b0657600080fd5b5056fea2646970667358221220ba2a6ac4ed4278629806d325e1753c4c5313394a9e845a30dacdc71390510a8064736f6c63430008040033",
  "linkReferences": {},
  "deployedLinkReferences": {}
}