{
  "_format": "hh-sol-artifact-1",
  "contractName": "TierSystem",
  "sourceName": "contracts/launchpad/tier/TierSystem.sol",
  "abi": [
    {
      "inputs": [
        {
          "internalType": "contract IStKDX",
          "name": "_stKdx",
          "type": "address"
        }
      ],
      "stateMutability": "nonpayable",
      "type": "constructor"
    },
    {
      "anonymous": false,
      "inputs": [
        {
          "indexed": true,
          "internalType": "address",
          "name": "previousOwner",
          "type": "address"
        },
        {
          "indexed": true,
          "internalType": "address",
          "name": "newOwner",
          "type": "address"
        }
      ],
      "name": "OwnershipTransferred",
      "type": "event"
    },
    {
      "inputs": [
        {
          "internalType": "uint256",
          "name": "_tier",
          "type": "uint256"
        }
      ],
      "name": "getAllocationPoint",
      "outputs": [
        {
          "internalType": "uint256",
          "name": "",
          "type": "uint256"
        }
      ],
      "stateMutability": "view",
      "type": "function"
    },
    {
      "inputs": [
        {
          "internalType": "address",
          "name": "_account",
          "type": "address"
        },
        {
          "internalType": "uint256",
          "name": "_snapshotIdFrom",
          "type": "uint256"
        }
      ],
      "name": "getAverageFrom",
      "outputs": [
        {
          "internalType": "uint256",
          "name": "",
          "type": "uint256"
        }
      ],
      "stateMutability": "view",
      "type": "function"
    },
    {
      "inputs": [
        {
          "internalType": "address",
          "name": "_account",
          "type": "address"
        },
        {
          "internalType": "uint256",
          "name": "_snapshotIdFrom",
          "type": "uint256"
        },
        {
          "internalType": "uint256",
          "name": "_snapshotIdTo",
          "type": "uint256"
        }
      ],
      "name": "getAverageFromTo",
      "outputs": [
        {
          "internalType": "uint256",
          "name": "",
          "type": "uint256"
        }
      ],
      "stateMutability": "view",
      "type": "function"
    },
    {
      "inputs": [
        {
          "internalType": "address",
          "name": "_account",
          "type": "address"
        }
      ],
      "name": "getTier",
      "outputs": [
        {
          "internalType": "uint256",
          "name": "",
          "type": "uint256"
        }
      ],
      "stateMutability": "view",
      "type": "function"
    },
    {
      "inputs": [
        {
          "internalType": "address",
          "name": "_account",
          "type": "address"
        },
        {
          "internalType": "uint256",
          "name": "_snapshotIdFrom",
          "type": "uint256"
        },
        {
          "internalType": "uint256",
          "name": "_snapshotIdTo",
          "type": "uint256"
        }
      ],
      "name": "getTierFromTo",
      "outputs": [
        {
          "internalType": "uint256",
          "name": "",
          "type": "uint256"
        }
      ],
      "stateMutability": "view",
      "type": "function"
    },
    {
      "inputs": [
        {
          "internalType": "uint256",
          "name": "",
          "type": "uint256"
        },
        {
          "internalType": "uint256",
          "name": "",
          "type": "uint256"
        }
      ],
      "name": "kdxStakedTiers",
      "outputs": [
        {
          "internalType": "uint256",
          "name": "",
          "type": "uint256"
        }
      ],
      "stateMutability": "view",
      "type": "function"
    },
    {
      "inputs": [],
      "name": "owner",
      "outputs": [
        {
          "internalType": "address",
          "name": "",
          "type": "address"
        }
      ],
      "stateMutability": "view",
      "type": "function"
    },
    {
      "inputs": [],
      "name": "renounceOwnership",
      "outputs": [],
      "stateMutability": "nonpayable",
      "type": "function"
    },
    {
      "inputs": [
        {
          "internalType": "uint256[2][]",
          "name": "_tiers",
          "type": "uint256[2][]"
        }
      ],
      "name": "setKdxStakedTiers",
      "outputs": [],
      "stateMutability": "nonpayable",
      "type": "function"
    },
    {
      "inputs": [],
      "name": "stKdx",
      "outputs": [
        {
          "internalType": "contract IStKDX",
          "name": "",
          "type": "address"
        }
      ],
      "stateMutability": "view",
      "type": "function"
    },
    {
      "inputs": [
        {
          "internalType": "address",
          "name": "newOwner",
          "type": "address"
        }
      ],
      "name": "transferOwnership",
      "outputs": [],
      "stateMutability": "nonpayable",
      "type": "function"
    }
  ],
  "bytecode": "0x680ad78ebc5ac62000006101209081526001610140526080908152682b5e3af16b18800000610160908152600561018081905260a09190915268878678326eac9000006101a090815260146101c05260c05269014542ba12a337c000006101e0908152603c6102005260e05261026060405269028a857425466f800000610220908152609661024052610100526200009a916002916200014c565b50348015620000a857600080fd5b5060405162000eaa38038062000eaa833981016040819052620000cb916200021f565b620000d633620000fc565b600180546001600160a01b0319166001600160a01b03929092169190911790556200024f565b600080546001600160a01b038381166001600160a01b0319831681178455604051919092169283917f8be0079c531659141344cd1fd0a4f28419497f9722a3daafe3b4186f6b6457e09190a35050565b8280548282559060005260206000209060020281019282156200019b579160200282015b828111156200019b5782516200018a9083906002620001ad565b509160200191906002019062000170565b50620001a9929150620001ec565b5090565b8260028101928215620001de579160200282015b82811115620001de578251825591602001919060010190620001c1565b50620001a992915062000208565b80821115620001a95760008082556001820155600201620001ec565b5b80821115620001a9576000815560010162000209565b60006020828403121562000231578081fd5b81516001600160a01b038116811462000248578182fd5b9392505050565b610c4b806200025f6000396000f3fe608060405234801561001057600080fd5b50600436106100a95760003560e01c8063b1d616a211610071578063b1d616a214610129578063b45aae521461013c578063bbc3f7cf1461014f578063c8dd0d6d14610162578063d765a63214610175578063f2fde38b1461018857600080fd5b80632b9a1ae7146100ae5780634ded0f69146100c35780636002de67146100e9578063715018a6146100fc5780638da5cb5b14610104575b600080fd5b6100c16100bc3660046109e0565b61019b565b005b6100d66100d13660046109ae565b6101ba565b6040519081526020015b60405180910390f35b6100d66100f73660046109ae565b6101d1565b6100c16102e5565b6000546001600160a01b03165b6040516001600160a01b0390911681526020016100e0565b600154610111906001600160a01b031681565b6100d661014a36600461096b565b6102f9565b6100d661015d366004610ad4565b610472565b6100d6610170366004610985565b610529565b6100d6610183366004610b04565b6105bf565b6100c161019636600461096b565b6105f4565b6101a361066d565b80516101b690600290602084019061088c565b5050565b60006101c78484846106c7565b90505b9392505050565b600080600160009054906101000a90046001600160a01b03166001600160a01b0316635439ad866040518163ffffffff1660e01b815260040160206040518083038186803b15801561022257600080fd5b505afa158015610236573d6000803e3d6000fd5b505050506040513d601f19601f8201168201806040525081019061025a9190610aec565b9050600081841061026b578161026d565b835b9050600061027c8787846106c7565b905060005b600254811080156102c35750600281815481106102ae57634e487b7160e01b600052603260045260246000fd5b60009182526020822060029091020101548210155b156102da57806102d281610bce565b915050610281565b979650505050505050565b6102ed61066d565b6102f76000610830565b565b600080600160009054906101000a90046001600160a01b03166001600160a01b0316635439ad866040518163ffffffff1660e01b815260040160206040518083038186803b15801561034a57600080fd5b505afa15801561035e573d6000803e3d6000fd5b505050506040513d601f19601f820116820180604052508101906103829190610aec565b60015460405163014824b360e51b81526001600160a01b038681166004830152602482018490529293506000929091169063290496609060440160206040518083038186803b1580156103d457600080fd5b505afa1580156103e8573d6000803e3d6000fd5b505050506040513d601f19601f8201168201806040525081019061040c9190610aec565b905060005b6002548110801561045357506002818154811061043e57634e487b7160e01b600052603260045260246000fd5b60009182526020822060029091020101548210155b1561046a578061046281610bce565b915050610411565b949350505050565b6002546000908211156104bb5760405162461bcd60e51b815260206004820152600c60248201526b1d1a595c881a5b9d985b1a5960a21b60448201526064015b60405180910390fd5b816104c857506000919050565b60026104d5600184610bb7565b815481106104f357634e487b7160e01b600052603260045260246000fd5b906000526020600020906002020160016002811061052157634e487b7160e01b600052603260045260246000fd5b015492915050565b600080600160009054906101000a90046001600160a01b03166001600160a01b0316635439ad866040518163ffffffff1660e01b815260040160206040518083038186803b15801561057a57600080fd5b505afa15801561058e573d6000803e3d6000fd5b505050506040513d601f19601f820116820180604052508101906105b29190610aec565b905061046a8484836106c7565b600282815481106105cf57600080fd5b906000526020600020906002020181600281106105eb57600080fd5b01549150829050565b6105fc61066d565b6001600160a01b0381166106615760405162461bcd60e51b815260206004820152602660248201527f4f776e61626c653a206e6577206f776e657220697320746865207a65726f206160448201526564647265737360d01b60648201526084016104b2565b61066a81610830565b50565b6000546001600160a01b031633146102f75760405162461bcd60e51b815260206004820181905260248201527f4f776e61626c653a2063616c6c6572206973206e6f7420746865206f776e657260448201526064016104b2565b600081831061075b5760015460405163014824b360e51b81526001600160a01b038681166004830152602482018590529091169063290496609060440160206040518083038186803b15801561071c57600080fd5b505afa158015610730573d6000803e3d6000fd5b505050506040513d601f19601f820116820180604052508101906107549190610aec565b90506101ca565b6000835b8381116108075760015460405163014824b360e51b81526001600160a01b038881166004830152602482018490526107f392169063290496609060440160206040518083038186803b1580156107b457600080fd5b505afa1580156107c8573d6000803e3d6000fd5b505050506040513d601f19601f820116820180604052508101906107ec9190610aec565b8390610880565b9150806107ff81610bce565b91505061075f565b506108128484610bb7565b61081d906001610b7f565b6108279082610b97565b95945050505050565b600080546001600160a01b038381166001600160a01b0319831681178455604051919092169283917f8be0079c531659141344cd1fd0a4f28419497f9722a3daafe3b4186f6b6457e09190a35050565b60006101ca8284610b7f565b8280548282559060005260206000209060020281019282156108d6579160200282015b828111156108d65782516108c690839060026108e6565b50916020019190600201906108af565b506108e2929150610920565b5090565b8260028101928215610914579160200282015b828111156109145782518255916020019190600101906108f9565b506108e292915061093a565b808211156108e25760008082556001820155600201610920565b5b808211156108e2576000815560010161093b565b80356001600160a01b038116811461096657600080fd5b919050565b60006020828403121561097c578081fd5b6101ca8261094f565b60008060408385031215610997578081fd5b6109a08361094f565b946020939093013593505050565b6000806000606084860312156109c2578081fd5b6109cb8461094f565b95602085013595506040909401359392505050565b600060208083850312156109f2578182fd5b823567ffffffffffffffff80821115610a09578384fd5b8185019150601f8681840112610a1d578485fd5b823582811115610a2f57610a2f610bff565b610a3d858260051b01610b4e565b8181528581019350848601600683901b860187018a1015610a5c578788fd5b8795505b82861015610ac7578984820112610a75578788fd5b610a7d610b25565b8082604084018d811115610a8f578b8cfd5b8b5b6002811015610aae5782358552938b0193918b0191600101610a91565b509188525060019790970196958801959150610a609050565b5098975050505050505050565b600060208284031215610ae5578081fd5b5035919050565b600060208284031215610afd578081fd5b5051919050565b60008060408385031215610b16578182fd5b50508035926020909101359150565b6040805190810167ffffffffffffffff81118282101715610b4857610b48610bff565b60405290565b604051601f8201601f1916810167ffffffffffffffff81118282101715610b7757610b77610bff565b604052919050565b60008219821115610b9257610b92610be9565b500190565b600082610bb257634e487b7160e01b81526012600452602481fd5b500490565b600082821015610bc957610bc9610be9565b500390565b6000600019821415610be257610be2610be9565b5060010190565b634e487b7160e01b600052601160045260246000fd5b634e487b7160e01b600052604160045260246000fdfea2646970667358221220c24c0d1e90a49a39d3238a95f11b7da0110836f4952bb20a7e53ccc874aedecc64736f6c63430008040033",
  "linkReferences": {},
  "deployedLinkReferences": {}
}