{
  "_format": "hh-sol-artifact-1",
  "contractName": "TierSystem",
  "sourceName": "contracts/launchpad/tier/TierSystem.sol",
  "abi": [
    {
      "inputs": [
        {
          "internalType": "contract IStKDX",
          "name": "_stKdx",
          "type": "address"
        }
      ],
      "stateMutability": "nonpayable",
      "type": "constructor"
    },
    {
      "anonymous": false,
      "inputs": [
        {
          "indexed": true,
          "internalType": "address",
          "name": "previousOwner",
          "type": "address"
        },
        {
          "indexed": true,
          "internalType": "address",
          "name": "newOwner",
          "type": "address"
        }
      ],
      "name": "OwnershipTransferred",
      "type": "event"
    },
    {
      "inputs": [
        {
          "internalType": "uint256",
          "name": "_tier",
          "type": "uint256"
        }
      ],
      "name": "getAllocationPoint",
      "outputs": [
        {
          "internalType": "uint256",
          "name": "",
          "type": "uint256"
        }
      ],
      "stateMutability": "view",
      "type": "function"
    },
    {
      "inputs": [
        {
          "internalType": "address",
          "name": "_account",
          "type": "address"
        },
        {
          "internalType": "uint256",
          "name": "_snapshotIdFrom",
          "type": "uint256"
        }
      ],
      "name": "getAverageFrom",
      "outputs": [
        {
          "internalType": "uint256",
          "name": "",
          "type": "uint256"
        }
      ],
      "stateMutability": "view",
      "type": "function"
    },
    {
      "inputs": [
        {
          "internalType": "address",
          "name": "_account",
          "type": "address"
        },
        {
          "internalType": "uint256",
          "name": "_snapshotIdFrom",
          "type": "uint256"
        },
        {
          "internalType": "uint256",
          "name": "_snapshotIdTo",
          "type": "uint256"
        }
      ],
      "name": "getAverageFromTo",
      "outputs": [
        {
          "internalType": "uint256",
          "name": "",
          "type": "uint256"
        }
      ],
      "stateMutability": "view",
      "type": "function"
    },
    {
      "inputs": [
        {
          "internalType": "address",
          "name": "_account",
          "type": "address"
        }
      ],
      "name": "getTier",
      "outputs": [
        {
          "internalType": "uint256",
          "name": "",
          "type": "uint256"
        }
      ],
      "stateMutability": "view",
      "type": "function"
    },
    {
      "inputs": [
        {
          "internalType": "address",
          "name": "_account",
          "type": "address"
        },
        {
          "internalType": "uint256",
          "name": "_snapshotIdFrom",
          "type": "uint256"
        },
        {
          "internalType": "uint256",
          "name": "_snapshotIdTo",
          "type": "uint256"
        }
      ],
      "name": "getTierFromTo",
      "outputs": [
        {
          "internalType": "uint256",
          "name": "",
          "type": "uint256"
        }
      ],
      "stateMutability": "view",
      "type": "function"
    },
    {
      "inputs": [
        {
          "internalType": "uint256",
          "name": "",
          "type": "uint256"
        },
        {
          "internalType": "uint256",
          "name": "",
          "type": "uint256"
        }
      ],
      "name": "kdxStakedTiers",
      "outputs": [
        {
          "internalType": "uint256",
          "name": "",
          "type": "uint256"
        }
      ],
      "stateMutability": "view",
      "type": "function"
    },
    {
      "inputs": [],
      "name": "owner",
      "outputs": [
        {
          "internalType": "address",
          "name": "",
          "type": "address"
        }
      ],
      "stateMutability": "view",
      "type": "function"
    },
    {
      "inputs": [],
      "name": "renounceOwnership",
      "outputs": [],
      "stateMutability": "nonpayable",
      "type": "function"
    },
    {
      "inputs": [
        {
          "internalType": "uint256[2][]",
          "name": "_tiers",
          "type": "uint256[2][]"
        }
      ],
      "name": "setKdxStakedTiers",
      "outputs": [],
      "stateMutability": "nonpayable",
      "type": "function"
    },
    {
      "inputs": [],
      "name": "stKdx",
      "outputs": [
        {
          "internalType": "contract IStKDX",
          "name": "",
          "type": "address"
        }
      ],
      "stateMutability": "view",
      "type": "function"
    },
    {
      "inputs": [
        {
          "internalType": "address",
          "name": "newOwner",
          "type": "address"
        }
      ],
      "name": "transferOwnership",
      "outputs": [],
      "stateMutability": "nonpayable",
      "type": "function"
    }
  ],
  "bytecode": "0x608060405260405180608001604052806040518060400160405280683635c9adc5dea0000081526020016101f48152508152602001604051806040016040528068a2a15d09519be0000081526020016105dc8152508152602001604051806040016040528069021e19e0c9bab240000081526020016113888152508152602001604051806040016040528069065a4da25d3016c000008152602001613a988152508152506002906004620000b59291906200021d565b50348015620000c357600080fd5b50604051620019c3380380620019c38339818101604052810190620000e9919062000333565b62000109620000fd6200015160201b60201c565b6200015960201b60201c565b80600160006101000a81548173ffffffffffffffffffffffffffffffffffffffff021916908373ffffffffffffffffffffffffffffffffffffffff16021790555050620003c1565b600033905090565b60008060009054906101000a900473ffffffffffffffffffffffffffffffffffffffff169050816000806101000a81548173ffffffffffffffffffffffffffffffffffffffff021916908373ffffffffffffffffffffffffffffffffffffffff1602179055508173ffffffffffffffffffffffffffffffffffffffff168173ffffffffffffffffffffffffffffffffffffffff167f8be0079c531659141344cd1fd0a4f28419497f9722a3daafe3b4186f6b6457e060405160405180910390a35050565b8280548282559060005260206000209060020281019282156200026f579160200282015b828111156200026e578251829060026200025d92919062000282565b509160200191906002019062000241565b5b5090506200027e9190620002c7565b5090565b8260028101928215620002b4579160200282015b82811115620002b357825182559160200191906001019062000296565b5b509050620002c39190620002ef565b5090565b5b80821115620002eb5760008181620002e191906200030e565b50600201620002c8565b5090565b5b808211156200030a576000816000905550600101620002f0565b5090565b506000815560010160009055565b6000815190506200032d81620003a7565b92915050565b6000602082840312156200034657600080fd5b600062000356848285016200031c565b91505092915050565b60006200036c8262000387565b9050919050565b600062000380826200035f565b9050919050565b600073ffffffffffffffffffffffffffffffffffffffff82169050919050565b620003b28162000373565b8114620003be57600080fd5b50565b6115f280620003d16000396000f3fe608060405234801561001057600080fd5b50600436106100a95760003560e01c8063b1d616a211610071578063b1d616a214610152578063b45aae5214610170578063bbc3f7cf146101a0578063c8dd0d6d146101d0578063d765a63214610200578063f2fde38b14610230576100a9565b80632b9a1ae7146100ae5780634ded0f69146100ca5780636002de67146100fa578063715018a61461012a5780638da5cb5b14610134575b600080fd5b6100c860048036038101906100c39190610ff3565b61024c565b005b6100e460048036038101906100df9190610fa4565b6102e2565b6040516100f19190611217565b60405180910390f35b610114600480360381019061010f9190610fa4565b6102f8565b6040516101219190611217565b60405180910390f35b61013261047e565b005b61013c610506565b6040516101499190611158565b60405180910390f35b61015a61052f565b604051610167919061119c565b60405180910390f35b61018a60048036038101906101859190610f3f565b610555565b6040516101979190611217565b60405180910390f35b6101ba60048036038101906101b59190611034565b610767565b6040516101c79190611217565b60405180910390f35b6101ea60048036038101906101e59190610f68565b61085a565b6040516101f79190611217565b60405180910390f35b61021a60048036038101906102159190611086565b610913565b6040516102279190611217565b60405180910390f35b61024a60048036038101906102459190610f3f565b61094b565b005b610254610a43565b73ffffffffffffffffffffffffffffffffffffffff16610272610506565b73ffffffffffffffffffffffffffffffffffffffff16146102c8576040517f08c379a00000000000000000000000000000000000000000000000000000000081526004016102bf906111f7565b60405180910390fd5b80600290805190602001906102de929190610cf3565b5050565b60006102ef848484610a4b565b90509392505050565b600080600160009054906101000a900473ffffffffffffffffffffffffffffffffffffffff1673ffffffffffffffffffffffffffffffffffffffff16635439ad866040518163ffffffff1660e01b815260040160206040518083038186803b15801561036357600080fd5b505afa158015610377573d6000803e3d6000fd5b505050506040513d601f19601f8201168201806040525081019061039b919061105d565b905060008184106103ac57816103ae565b835b905060006103bd878784610a4b565b905060005b6002805490508110801561045857506002818154811061040b577f4e487b7100000000000000000000000000000000000000000000000000000000600052603260045260246000fd5b9060005260206000209060020201600060028110610452577f4e487b7100000000000000000000000000000000000000000000000000000000600052603260045260246000fd5b01548210155b1561047057808061046890611406565b9150506103c2565b809450505050509392505050565b610486610a43565b73ffffffffffffffffffffffffffffffffffffffff166104a4610506565b73ffffffffffffffffffffffffffffffffffffffff16146104fa576040517f08c379a00000000000000000000000000000000000000000000000000000000081526004016104f1906111f7565b60405180910390fd5b6105046000610c19565b565b60008060009054906101000a900473ffffffffffffffffffffffffffffffffffffffff16905090565b600160009054906101000a900473ffffffffffffffffffffffffffffffffffffffff1681565b600080600160009054906101000a900473ffffffffffffffffffffffffffffffffffffffff1673ffffffffffffffffffffffffffffffffffffffff16635439ad866040518163ffffffff1660e01b815260040160206040518083038186803b1580156105c057600080fd5b505afa1580156105d4573d6000803e3d6000fd5b505050506040513d601f19601f820116820180604052508101906105f8919061105d565b90506000600160009054906101000a900473ffffffffffffffffffffffffffffffffffffffff1673ffffffffffffffffffffffffffffffffffffffff16632904966085846040518363ffffffff1660e01b8152600401610659929190611173565b60206040518083038186803b15801561067157600080fd5b505afa158015610685573d6000803e3d6000fd5b505050506040513d601f19601f820116820180604052508101906106a9919061105d565b905060005b600280549050811080156107445750600281815481106106f7577f4e487b7100000000000000000000000000000000000000000000000000000000600052603260045260246000fd5b906000526020600020906002020160006002811061073e577f4e487b7100000000000000000000000000000000000000000000000000000000600052603260045260246000fd5b01548210155b1561075c57808061075490611406565b9150506106ae565b809350505050919050565b60006002805490508211156107b1576040517f08c379a00000000000000000000000000000000000000000000000000000000081526004016107a8906111b7565b60405180910390fd5b60008214156107c35760009050610855565b60026001836107d29190611341565b81548110610809577f4e487b7100000000000000000000000000000000000000000000000000000000600052603260045260246000fd5b9060005260206000209060020201600160028110610850577f4e487b7100000000000000000000000000000000000000000000000000000000600052603260045260246000fd5b015490505b919050565b600080600160009054906101000a900473ffffffffffffffffffffffffffffffffffffffff1673ffffffffffffffffffffffffffffffffffffffff16635439ad866040518163ffffffff1660e01b815260040160206040518083038186803b1580156108c557600080fd5b505afa1580156108d9573d6000803e3d6000fd5b505050506040513d601f19601f820116820180604052508101906108fd919061105d565b905061090a848483610a4b565b91505092915050565b6002828154811061092357600080fd5b9060005260206000209060020201816002811061093f57600080fd5b01600091509150505481565b610953610a43565b73ffffffffffffffffffffffffffffffffffffffff16610971610506565b73ffffffffffffffffffffffffffffffffffffffff16146109c7576040517f08c379a00000000000000000000000000000000000000000000000000000000081526004016109be906111f7565b60405180910390fd5b600073ffffffffffffffffffffffffffffffffffffffff168173ffffffffffffffffffffffffffffffffffffffff161415610a37576040517f08c379a0000000000000000000000000000000000000000000000000000000008152600401610a2e906111d7565b60405180910390fd5b610a4081610c19565b50565b600033905090565b6000818310610b0857600160009054906101000a900473ffffffffffffffffffffffffffffffffffffffff1673ffffffffffffffffffffffffffffffffffffffff16632904966085846040518363ffffffff1660e01b8152600401610ab1929190611173565b60206040518083038186803b158015610ac957600080fd5b505afa158015610add573d6000803e3d6000fd5b505050506040513d601f19601f82011682018060405250810190610b01919061105d565b9050610c12565b6000808490505b838111610bea57610bd5600160009054906101000a900473ffffffffffffffffffffffffffffffffffffffff1673ffffffffffffffffffffffffffffffffffffffff16632904966088846040518363ffffffff1660e01b8152600401610b76929190611173565b60206040518083038186803b158015610b8e57600080fd5b505afa158015610ba2573d6000803e3d6000fd5b505050506040513d601f19601f82011682018060405250810190610bc6919061105d565b83610cdd90919063ffffffff16565b91508080610be290611406565b915050610b0f565b5060018484610bf99190611341565b610c0391906112ba565b81610c0e9190611310565b9150505b9392505050565b60008060009054906101000a900473ffffffffffffffffffffffffffffffffffffffff169050816000806101000a81548173ffffffffffffffffffffffffffffffffffffffff021916908373ffffffffffffffffffffffffffffffffffffffff1602179055508173ffffffffffffffffffffffffffffffffffffffff168173ffffffffffffffffffffffffffffffffffffffff167f8be0079c531659141344cd1fd0a4f28419497f9722a3daafe3b4186f6b6457e060405160405180910390a35050565b60008183610ceb91906112ba565b905092915050565b828054828255906000526020600020906002028101928215610d40579160200282015b82811115610d3f57825182906002610d2f929190610d51565b5091602001919060020190610d16565b5b509050610d4d9190610d91565b5090565b8260028101928215610d80579160200282015b82811115610d7f578251825591602001919060010190610d64565b5b509050610d8d9190610db5565b5090565b5b80821115610db15760008181610da89190610dd2565b50600201610d92565b5090565b5b80821115610dce576000816000905550600101610db6565b5090565b506000815560010160009055565b6000610df3610dee84611257565b611232565b90508083825260208201905082856040860282011115610e1257600080fd5b60005b85811015610e425781610e288882610eee565b845260208401935060408301925050600181019050610e15565b5050509392505050565b6000610e5f610e5a84611283565b611232565b90508082856020860282011115610e7557600080fd5b60005b85811015610ea55781610e8b8882610f15565b845260208401935060208301925050600181019050610e78565b5050509392505050565b600081359050610ebe8161158e565b92915050565b600082601f830112610ed557600080fd5b8135610ee5848260208601610de0565b91505092915050565b600082601f830112610eff57600080fd5b6002610f0c848285610e4c565b91505092915050565b600081359050610f24816115a5565b92915050565b600081519050610f39816115a5565b92915050565b600060208284031215610f5157600080fd5b6000610f5f84828501610eaf565b91505092915050565b60008060408385031215610f7b57600080fd5b6000610f8985828601610eaf565b9250506020610f9a85828601610f15565b9150509250929050565b600080600060608486031215610fb957600080fd5b6000610fc786828701610eaf565b9350506020610fd886828701610f15565b9250506040610fe986828701610f15565b9150509250925092565b60006020828403121561100557600080fd5b600082013567ffffffffffffffff81111561101f57600080fd5b61102b84828501610ec4565b91505092915050565b60006020828403121561104657600080fd5b600061105484828501610f15565b91505092915050565b60006020828403121561106f57600080fd5b600061107d84828501610f2a565b91505092915050565b6000806040838503121561109957600080fd5b60006110a785828601610f15565b92505060206110b885828601610f15565b9150509250929050565b6110cb81611375565b82525050565b6110da816113b1565b82525050565b60006110ed600c836112a9565b91506110f8826114ed565b602082019050919050565b60006111106026836112a9565b915061111b82611516565b604082019050919050565b60006111336020836112a9565b915061113e82611565565b602082019050919050565b611152816113a7565b82525050565b600060208201905061116d60008301846110c2565b92915050565b600060408201905061118860008301856110c2565b6111956020830184611149565b9392505050565b60006020820190506111b160008301846110d1565b92915050565b600060208201905081810360008301526111d0816110e0565b9050919050565b600060208201905081810360008301526111f081611103565b9050919050565b6000602082019050818103600083015261121081611126565b9050919050565b600060208201905061122c6000830184611149565b92915050565b600061123c61124d565b905061124882826113d5565b919050565b6000604051905090565b600067ffffffffffffffff821115611272576112716114ad565b5b602082029050602081019050919050565b600067ffffffffffffffff82111561129e5761129d6114ad565b5b602082029050919050565b600082825260208201905092915050565b60006112c5826113a7565b91506112d0836113a7565b9250827fffffffffffffffffffffffffffffffffffffffffffffffffffffffffffffffff038211156113055761130461144f565b5b828201905092915050565b600061131b826113a7565b9150611326836113a7565b9250826113365761133561147e565b5b828204905092915050565b600061134c826113a7565b9150611357836113a7565b92508282101561136a5761136961144f565b5b828203905092915050565b600061138082611387565b9050919050565b600073ffffffffffffffffffffffffffffffffffffffff82169050919050565b6000819050919050565b60006113bc826113c3565b9050919050565b60006113ce82611387565b9050919050565b6113de826114dc565b810181811067ffffffffffffffff821117156113fd576113fc6114ad565b5b80604052505050565b6000611411826113a7565b91507fffffffffffffffffffffffffffffffffffffffffffffffffffffffffffffffff8214156114445761144361144f565b5b600182019050919050565b7f4e487b7100000000000000000000000000000000000000000000000000000000600052601160045260246000fd5b7f4e487b7100000000000000000000000000000000000000000000000000000000600052601260045260246000fd5b7f4e487b7100000000000000000000000000000000000000000000000000000000600052604160045260246000fd5b6000601f19601f8301169050919050565b7f7469657220696e76616c69640000000000000000000000000000000000000000600082015250565b7f4f776e61626c653a206e6577206f776e657220697320746865207a65726f206160008201527f6464726573730000000000000000000000000000000000000000000000000000602082015250565b7f4f776e61626c653a2063616c6c6572206973206e6f7420746865206f776e6572600082015250565b61159781611375565b81146115a257600080fd5b50565b6115ae816113a7565b81146115b957600080fd5b5056fea26469706673582212209a00044fe7cbbfbd5c62cadd7eab2cd52c3403d023a3fef52985e3caab64074c64736f6c63430008040033",
  "linkReferences": {},
  "deployedLinkReferences": {}
}