{
  "_format": "hh-sol-artifact-1",
  "contractName": "ERC721MinterAdapter",
  "sourceName": "contracts/nft-marketplace/INO/ERC721MinterAdapter.sol",
  "abi": [
    {
      "inputs": [
        {
          "internalType": "address",
          "name": "nft",
          "type": "address"
        },
        {
          "internalType": "contract ITierSystem",
          "name": "_tierSystem",
          "type": "address"
        },
        {
          "internalType": "uint256",
          "name": "_snapshotFrom",
          "type": "uint256"
        },
        {
          "internalType": "uint256",
          "name": "_snapshotTo",
          "type": "uint256"
        }
      ],
      "stateMutability": "nonpayable",
      "type": "constructor"
    },
    {
      "anonymous": false,
      "inputs": [
        {
          "indexed": true,
          "internalType": "address",
          "name": "previousOwner",
          "type": "address"
        },
        {
          "indexed": true,
          "internalType": "address",
          "name": "newOwner",
          "type": "address"
        }
      ],
      "name": "OwnershipTransferred",
      "type": "event"
    },
    {
      "inputs": [],
      "name": "MAX_NFT_SALES",
      "outputs": [
        {
          "internalType": "uint256",
          "name": "",
          "type": "uint256"
        }
      ],
      "stateMutability": "view",
      "type": "function"
    },
    {
      "inputs": [],
      "name": "erc721NFTContract",
      "outputs": [
        {
          "internalType": "contract IMinter",
          "name": "",
          "type": "address"
        }
      ],
      "stateMutability": "view",
      "type": "function"
    },
    {
      "inputs": [
        {
          "internalType": "uint256",
          "name": "_tier",
          "type": "uint256"
        }
      ],
      "name": "getAllocationByTier",
      "outputs": [
        {
          "internalType": "uint256",
          "name": "",
          "type": "uint256"
        }
      ],
      "stateMutability": "view",
      "type": "function"
    },
    {
      "inputs": [],
      "name": "getSnapshotFrom",
      "outputs": [
        {
          "internalType": "uint256",
          "name": "",
          "type": "uint256"
        }
      ],
      "stateMutability": "view",
      "type": "function"
    },
    {
      "inputs": [],
      "name": "getSnapshotTo",
      "outputs": [
        {
          "internalType": "uint256",
          "name": "",
          "type": "uint256"
        }
      ],
      "stateMutability": "view",
      "type": "function"
    },
    {
      "inputs": [],
      "name": "inoContract",
      "outputs": [
        {
          "internalType": "address",
          "name": "",
          "type": "address"
        }
      ],
      "stateMutability": "view",
      "type": "function"
    },
    {
      "inputs": [],
      "name": "isMinter",
      "outputs": [
        {
          "internalType": "bool",
          "name": "",
          "type": "bool"
        }
      ],
      "stateMutability": "pure",
      "type": "function"
    },
    {
      "inputs": [],
      "name": "maximumNFTSales",
      "outputs": [
        {
          "internalType": "uint256",
          "name": "",
          "type": "uint256"
        }
      ],
      "stateMutability": "view",
      "type": "function"
    },
    {
      "inputs": [
        {
          "internalType": "address",
          "name": "userAddr",
          "type": "address"
        }
      ],
      "name": "maximumTicketByUser",
      "outputs": [
        {
          "internalType": "uint256",
          "name": "",
          "type": "uint256"
        }
      ],
      "stateMutability": "view",
      "type": "function"
    },
    {
      "inputs": [
        {
          "internalType": "address",
          "name": "receiver",
          "type": "address"
        }
      ],
      "name": "mint",
      "outputs": [
        {
          "internalType": "uint256",
          "name": "",
          "type": "uint256"
        }
      ],
      "stateMutability": "nonpayable",
      "type": "function"
    },
    {
      "inputs": [],
      "name": "minted",
      "outputs": [
        {
          "internalType": "uint256",
          "name": "",
          "type": "uint256"
        }
      ],
      "stateMutability": "view",
      "type": "function"
    },
    {
      "inputs": [],
      "name": "owner",
      "outputs": [
        {
          "internalType": "address",
          "name": "",
          "type": "address"
        }
      ],
      "stateMutability": "view",
      "type": "function"
    },
    {
      "inputs": [],
      "name": "renounceOwnership",
      "outputs": [],
      "stateMutability": "nonpayable",
      "type": "function"
    },
    {
      "inputs": [
        {
          "internalType": "address",
          "name": "_ino",
          "type": "address"
        }
      ],
      "name": "setINOContract",
      "outputs": [],
      "stateMutability": "nonpayable",
      "type": "function"
    },
    {
      "inputs": [
        {
          "internalType": "uint256",
          "name": "id",
          "type": "uint256"
        }
      ],
      "name": "setSnapshotFrom",
      "outputs": [],
      "stateMutability": "nonpayable",
      "type": "function"
    },
    {
      "inputs": [
        {
          "internalType": "uint256",
          "name": "id",
          "type": "uint256"
        }
      ],
      "name": "setSnapshotTo",
      "outputs": [],
      "stateMutability": "nonpayable",
      "type": "function"
    },
    {
      "inputs": [
        {
          "internalType": "uint256",
          "name": "",
          "type": "uint256"
        }
      ],
      "name": "tierAllocations",
      "outputs": [
        {
          "internalType": "uint256",
          "name": "",
          "type": "uint256"
        }
      ],
      "stateMutability": "view",
      "type": "function"
    },
    {
      "inputs": [],
      "name": "tierSystem",
      "outputs": [
        {
          "internalType": "contract ITierSystem",
          "name": "",
          "type": "address"
        }
      ],
      "stateMutability": "view",
      "type": "function"
    },
    {
      "inputs": [
        {
          "internalType": "address",
          "name": "newOwner",
          "type": "address"
        }
      ],
      "name": "transferOwnership",
      "outputs": [],
      "stateMutability": "nonpayable",
      "type": "function"
    }
  ],
  "bytecode": "0x61012060405260016080908152600260a052600460c052600860e052600f6101005261002f90600790600561013d565b5034801561003c57600080fd5b50604051610ace380380610ace83398101604081905261005b91610195565b610064336100ed565b6001600160a01b0384166100b35760405162461bcd60e51b81526020600482015260126024820152711859191c995cdcc81a5cc81a5b9d985b1a5960721b604482015260640160405180910390fd5b600280546001600160a01b039586166001600160a01b031991821617909155600492909255600555600380549290931691161790556101f4565b600080546001600160a01b038381166001600160a01b0319831681178455604051919092169283917f8be0079c531659141344cd1fd0a4f28419497f9722a3daafe3b4186f6b6457e09190a35050565b8260058101928215610170579160200282015b82811115610170578251829060ff16905591602001919060010190610150565b5061017c929150610180565b5090565b5b8082111561017c5760008155600101610181565b600080600080608085870312156101aa578384fd5b84516101b5816101dc565b60208601519094506101c6816101dc565b6040860151606090960151949790965092505050565b6001600160a01b03811681146101f157600080fd5b50565b6108cb806102036000396000f3fe608060405234801561001057600080fd5b50600436106101215760003560e01c80638da5cb5b116100ad578063c2c9721b11610071578063c2c9721b1461021e578063d16bba9414610231578063f2fde38b14610244578063f8caa7e514610257578063fbeffb981461026a57600080fd5b80638da5cb5b146101b75780639e282d83146101dc578063be251c8e146101ef578063bf6f85d514610202578063c161d85c1461021557600080fd5b806350e59eb3116100f457806350e59eb31461017d5780635bc94b4c1461018c5780636a62784214610194578063715018a6146101a75780637f4d0943146101af57600080fd5b806306ffcd1414610126578063171a58a01461013b5780632f5349f2146101615780634f02c42014610174575b600080fd5b6101396101343660046107ba565b610272565b005b61014e6101493660046107e8565b610312565b6040519081526020015b60405180910390f35b61014e61016f3660046107ba565b610329565b61014e60065481565b60405160018152602001610158565b6103e861014e565b61014e6101a23660046107ba565b610403565b61013961053d565b60045461014e565b6000546001600160a01b03165b6040516001600160a01b039091168152602001610158565b61014e6101ea3660046107e8565b610573565b6001546101c4906001600160a01b031681565b6002546101c4906001600160a01b031681565b61014e6103e881565b61013961022c3660046107e8565b6105f7565b61013961023f3660046107e8565b610663565b6101396102523660046107ba565b6106cf565b6003546101c4906001600160a01b031681565b60055461014e565b6000546001600160a01b031633146102a55760405162461bcd60e51b815260040161029c90610818565b60405180910390fd5b6001600160a01b0381166102f05760405162461bcd60e51b81526020600482015260126024820152711859191c995cdcc81a5cc81a5b9d985b1a5960721b604482015260640161029c565b600180546001600160a01b0319166001600160a01b0392909216919091179055565b6007816005811061032257600080fd5b0154905081565b60035460048054600554604051636002de6760e01b81526001600160a01b03868116948201949094526024810192909252604482015260009283921690636002de679060640160206040518083038186803b15801561038757600080fd5b505afa15801561039b573d6000803e3d6000fd5b505050506040513d601f19601f820116820180604052508101906103bf9190610800565b9050806103cf5750600092915050565b60076103dc60018361084d565b600581106103fa57634e487b7160e01b600052603260045260246000fd5b01549392505050565b6001546000906001600160a01b031633146104605760405162461bcd60e51b815260206004820152601960248201527f4f6e6c792063616c6c20627920696e6f20636f6e747261637400000000000000604482015260640161029c565b6103e86006541061049f5760405162461bcd60e51b81526020600482015260096024820152686d6178696d756d212160b81b604482015260640161029c565b6002546040516335313c2160e11b81526001600160a01b0384811660048301526000921690636a62784290602401602060405180830381600087803b1580156104e757600080fd5b505af11580156104fb573d6000803e3d6000fd5b505050506040513d601f19601f8201168201806040525081019061051f9190610800565b60068054919250600061053183610864565b90915550909392505050565b6000546001600160a01b031633146105675760405162461bcd60e51b815260040161029c90610818565b610571600061076a565b565b60008082118015610585575060058211155b6105c45760405162461bcd60e51b815260206004820152601060248201526f151a595c881dd85cc81a5b9d985b1a5960821b604482015260640161029c565b60076105d160018461084d565b600581106105ef57634e487b7160e01b600052603260045260246000fd5b015492915050565b6000546001600160a01b031633146106215760405162461bcd60e51b815260040161029c90610818565b6000811161065e5760405162461bcd60e51b815260206004820152600a6024820152691259081a5b9d985b1a5960b21b604482015260640161029c565b600555565b6000546001600160a01b0316331461068d5760405162461bcd60e51b815260040161029c90610818565b600081116106ca5760405162461bcd60e51b815260206004820152600a6024820152691259081a5b9d985b1a5960b21b604482015260640161029c565b600455565b6000546001600160a01b031633146106f95760405162461bcd60e51b815260040161029c90610818565b6001600160a01b03811661075e5760405162461bcd60e51b815260206004820152602660248201527f4f776e61626c653a206e6577206f776e657220697320746865207a65726f206160448201526564647265737360d01b606482015260840161029c565b6107678161076a565b50565b600080546001600160a01b038381166001600160a01b0319831681178455604051919092169283917f8be0079c531659141344cd1fd0a4f28419497f9722a3daafe3b4186f6b6457e09190a35050565b6000602082840312156107cb578081fd5b81356001600160a01b03811681146107e1578182fd5b9392505050565b6000602082840312156107f9578081fd5b5035919050565b600060208284031215610811578081fd5b5051919050565b6020808252818101527f4f776e61626c653a2063616c6c6572206973206e6f7420746865206f776e6572604082015260600190565b60008282101561085f5761085f61087f565b500390565b60006000198214156108785761087861087f565b5060010190565b634e487b7160e01b600052601160045260246000fdfea26469706673582212206c061fb4e1affc3f68b1898ac7cffa784c8249c232a3a019d0aaa45d096d4d0764736f6c63430008040033",
  "linkReferences": {},
  "deployedLinkReferences": {}
}