{
  "_format": "hh-sol-artifact-1",
  "contractName": "ERC721MinterAdapter",
  "sourceName": "contracts/nft-marketplace/INO/ERC721MinterAdapter.sol",
  "abi": [
    {
      "inputs": [
        {
          "internalType": "address",
          "name": "nft",
          "type": "address"
        },
        {
          "internalType": "contract ITierSystem",
          "name": "_tierSystem",
          "type": "address"
        },
        {
          "internalType": "uint256",
          "name": "_snapshotFrom",
          "type": "uint256"
        },
        {
          "internalType": "uint256",
          "name": "_snapshotTo",
          "type": "uint256"
        }
      ],
      "stateMutability": "nonpayable",
      "type": "constructor"
    },
    {
      "anonymous": false,
      "inputs": [
        {
          "indexed": true,
          "internalType": "address",
          "name": "previousOwner",
          "type": "address"
        },
        {
          "indexed": true,
          "internalType": "address",
          "name": "newOwner",
          "type": "address"
        }
      ],
      "name": "OwnershipTransferred",
      "type": "event"
    },
    {
      "inputs": [],
      "name": "MAX_NFT_SALES",
      "outputs": [
        {
          "internalType": "uint256",
          "name": "",
          "type": "uint256"
        }
      ],
      "stateMutability": "view",
      "type": "function"
    },
    {
      "inputs": [],
      "name": "erc721NFTContract",
      "outputs": [
        {
          "internalType": "contract IMinter",
          "name": "",
          "type": "address"
        }
      ],
      "stateMutability": "view",
      "type": "function"
    },
    {
      "inputs": [
        {
          "internalType": "uint256",
          "name": "_tier",
          "type": "uint256"
        }
      ],
      "name": "getAllocationByTier",
      "outputs": [
        {
          "internalType": "uint256",
          "name": "",
          "type": "uint256"
        }
      ],
      "stateMutability": "view",
      "type": "function"
    },
    {
      "inputs": [],
      "name": "getSnapshotFrom",
      "outputs": [
        {
          "internalType": "uint256",
          "name": "",
          "type": "uint256"
        }
      ],
      "stateMutability": "view",
      "type": "function"
    },
    {
      "inputs": [],
      "name": "getSnapshotTo",
      "outputs": [
        {
          "internalType": "uint256",
          "name": "",
          "type": "uint256"
        }
      ],
      "stateMutability": "view",
      "type": "function"
    },
    {
      "inputs": [],
      "name": "inoContract",
      "outputs": [
        {
          "internalType": "address",
          "name": "",
          "type": "address"
        }
      ],
      "stateMutability": "view",
      "type": "function"
    },
    {
      "inputs": [],
      "name": "isMinter",
      "outputs": [
        {
          "internalType": "bool",
          "name": "",
          "type": "bool"
        }
      ],
      "stateMutability": "pure",
      "type": "function"
    },
    {
      "inputs": [],
      "name": "maximumNFTSales",
      "outputs": [
        {
          "internalType": "uint256",
          "name": "",
          "type": "uint256"
        }
      ],
      "stateMutability": "view",
      "type": "function"
    },
    {
      "inputs": [
        {
          "internalType": "address",
          "name": "userAddr",
          "type": "address"
        }
      ],
      "name": "maximumTicketByUser",
      "outputs": [
        {
          "internalType": "uint256",
          "name": "",
          "type": "uint256"
        }
      ],
      "stateMutability": "view",
      "type": "function"
    },
    {
      "inputs": [
        {
          "internalType": "address",
          "name": "receiver",
          "type": "address"
        }
      ],
      "name": "mint",
      "outputs": [
        {
          "internalType": "bool",
          "name": "",
          "type": "bool"
        }
      ],
      "stateMutability": "nonpayable",
      "type": "function"
    },
    {
      "inputs": [],
      "name": "minted",
      "outputs": [
        {
          "internalType": "uint256",
          "name": "",
          "type": "uint256"
        }
      ],
      "stateMutability": "view",
      "type": "function"
    },
    {
      "inputs": [],
      "name": "owner",
      "outputs": [
        {
          "internalType": "address",
          "name": "",
          "type": "address"
        }
      ],
      "stateMutability": "view",
      "type": "function"
    },
    {
      "inputs": [],
      "name": "renounceOwnership",
      "outputs": [],
      "stateMutability": "nonpayable",
      "type": "function"
    },
    {
      "inputs": [
        {
          "internalType": "address",
          "name": "_ino",
          "type": "address"
        }
      ],
      "name": "setINOContract",
      "outputs": [],
      "stateMutability": "nonpayable",
      "type": "function"
    },
    {
      "inputs": [
        {
          "internalType": "uint256",
          "name": "id",
          "type": "uint256"
        }
      ],
      "name": "setSnapshotFrom",
      "outputs": [],
      "stateMutability": "nonpayable",
      "type": "function"
    },
    {
      "inputs": [
        {
          "internalType": "uint256",
          "name": "id",
          "type": "uint256"
        }
      ],
      "name": "setSnapshotTo",
      "outputs": [],
      "stateMutability": "nonpayable",
      "type": "function"
    },
    {
      "inputs": [
        {
          "internalType": "uint256",
          "name": "",
          "type": "uint256"
        }
      ],
      "name": "tierAllocations",
      "outputs": [
        {
          "internalType": "uint256",
          "name": "",
          "type": "uint256"
        }
      ],
      "stateMutability": "view",
      "type": "function"
    },
    {
      "inputs": [],
      "name": "tierSystem",
      "outputs": [
        {
          "internalType": "contract ITierSystem",
          "name": "",
          "type": "address"
        }
      ],
      "stateMutability": "view",
      "type": "function"
    },
    {
      "inputs": [
        {
          "internalType": "address",
          "name": "newOwner",
          "type": "address"
        }
      ],
      "name": "transferOwnership",
      "outputs": [],
      "stateMutability": "nonpayable",
      "type": "function"
    }
  ],
  "bytecode": "0x61012060405260016080908152600260a052600460c052600860e052600f6101005261002f90600790600561013d565b5034801561003c57600080fd5b50604051610add380380610add83398101604081905261005b91610195565b610064336100ed565b6001600160a01b0384166100b35760405162461bcd60e51b81526020600482015260126024820152711859191c995cdcc81a5cc81a5b9d985b1a5960721b604482015260640160405180910390fd5b600280546001600160a01b039586166001600160a01b031991821617909155600492909255600555600380549290931691161790556101f4565b600080546001600160a01b038381166001600160a01b0319831681178455604051919092169283917f8be0079c531659141344cd1fd0a4f28419497f9722a3daafe3b4186f6b6457e09190a35050565b8260058101928215610170579160200282015b82811115610170578251829060ff16905591602001919060010190610150565b5061017c929150610180565b5090565b5b8082111561017c5760008155600101610181565b600080600080608085870312156101aa578384fd5b84516101b5816101dc565b60208601519094506101c6816101dc565b6040860151606090960151949790965092505050565b6001600160a01b03811681146101f157600080fd5b50565b6108da806102036000396000f3fe608060405234801561001057600080fd5b50600436106101215760003560e01c80638da5cb5b116100ad578063c2c9721b11610071578063c2c9721b14610222578063d16bba9414610235578063f2fde38b14610248578063f8caa7e51461025b578063fbeffb981461026e57600080fd5b80638da5cb5b146101bb5780639e282d83146101e0578063be251c8e146101f3578063bf6f85d514610206578063c161d85c1461021957600080fd5b806350e59eb3116100f457806350e59eb31461017d5780635bc94b4c146101905780636a62784214610198578063715018a6146101ab5780637f4d0943146101b357600080fd5b806306ffcd1414610126578063171a58a01461013b5780632f5349f2146101615780634f02c42014610174575b600080fd5b6101396101343660046107d0565b610276565b005b61014e6101493660046107f7565b610316565b6040519081526020015b60405180910390f35b61014e61016f3660046107d0565b61032d565b61014e60065481565b60015b6040519015158152602001610158565b6103e861014e565b6101806101a63660046107d0565b610407565b610139610553565b60045461014e565b6000546001600160a01b03165b6040516001600160a01b039091168152602001610158565b61014e6101ee3660046107f7565b610589565b6001546101c8906001600160a01b031681565b6002546101c8906001600160a01b031681565b61014e6103e881565b6101396102303660046107f7565b61060d565b6101396102433660046107f7565b610679565b6101396102563660046107d0565b6106e5565b6003546101c8906001600160a01b031681565b60055461014e565b6000546001600160a01b031633146102a95760405162461bcd60e51b81526004016102a090610827565b60405180910390fd5b6001600160a01b0381166102f45760405162461bcd60e51b81526020600482015260126024820152711859191c995cdcc81a5cc81a5b9d985b1a5960721b60448201526064016102a0565b600180546001600160a01b0319166001600160a01b0392909216919091179055565b6007816005811061032657600080fd5b0154905081565b60035460048054600554604051636002de6760e01b81526001600160a01b03868116948201949094526024810192909252604482015260009283921690636002de679060640160206040518083038186803b15801561038b57600080fd5b505afa15801561039f573d6000803e3d6000fd5b505050506040513d601f19601f820116820180604052508101906103c3919061080f565b9050806103d35750600092915050565b60076103e060018361085c565b600581106103fe57634e487b7160e01b600052603260045260246000fd5b01549392505050565b6001546000906001600160a01b031633146104645760405162461bcd60e51b815260206004820152601960248201527f4f6e6c792063616c6c20627920696e6f20636f6e74726163740000000000000060448201526064016102a0565b6103e8600654106104a35760405162461bcd60e51b81526020600482015260096024820152686d6178696d756d212160b81b60448201526064016102a0565b6002546040516335313c2160e11b81526001600160a01b0384811660048301526000921690636a62784290602401602060405180830381600087803b1580156104eb57600080fd5b505af11580156104ff573d6000803e3d6000fd5b505050506040513d601f19601f82011682018060405250810190610523919061080f565b60068054919250600061053583610873565b91905055506000811161054957600061054c565b60015b9392505050565b6000546001600160a01b0316331461057d5760405162461bcd60e51b81526004016102a090610827565b6105876000610780565b565b6000808211801561059b575060058211155b6105da5760405162461bcd60e51b815260206004820152601060248201526f151a595c881dd85cc81a5b9d985b1a5960821b60448201526064016102a0565b60076105e760018461085c565b6005811061060557634e487b7160e01b600052603260045260246000fd5b015492915050565b6000546001600160a01b031633146106375760405162461bcd60e51b81526004016102a090610827565b600081116106745760405162461bcd60e51b815260206004820152600a6024820152691259081a5b9d985b1a5960b21b60448201526064016102a0565b600555565b6000546001600160a01b031633146106a35760405162461bcd60e51b81526004016102a090610827565b600081116106e05760405162461bcd60e51b815260206004820152600a6024820152691259081a5b9d985b1a5960b21b60448201526064016102a0565b600455565b6000546001600160a01b0316331461070f5760405162461bcd60e51b81526004016102a090610827565b6001600160a01b0381166107745760405162461bcd60e51b815260206004820152602660248201527f4f776e61626c653a206e6577206f776e657220697320746865207a65726f206160448201526564647265737360d01b60648201526084016102a0565b61077d81610780565b50565b600080546001600160a01b038381166001600160a01b0319831681178455604051919092169283917f8be0079c531659141344cd1fd0a4f28419497f9722a3daafe3b4186f6b6457e09190a35050565b6000602082840312156107e1578081fd5b81356001600160a01b038116811461054c578182fd5b600060208284031215610808578081fd5b5035919050565b600060208284031215610820578081fd5b5051919050565b6020808252818101527f4f776e61626c653a2063616c6c6572206973206e6f7420746865206f776e6572604082015260600190565b60008282101561086e5761086e61088e565b500390565b60006000198214156108875761088761088e565b5060010190565b634e487b7160e01b600052601160045260246000fdfea26469706673582212209b0683ffbef087bf67699f2fac04934a8c979c567990288962dfa0a86968b20964736f6c63430008040033",
  "linkReferences": {},
  "deployedLinkReferences": {}
}