{
  "_format": "hh-sol-artifact-1",
  "contractName": "ERC721MinterAdapter",
  "sourceName": "contracts/nft-marketplace/INO/ERC721MinterAdapter.sol",
  "abi": [
    {
      "inputs": [
        {
          "internalType": "address",
          "name": "nft",
          "type": "address"
        },
        {
          "internalType": "contract ITierSystem",
          "name": "_tierSystem",
          "type": "address"
        },
        {
          "internalType": "uint256",
          "name": "_snapshotFrom",
          "type": "uint256"
        },
        {
          "internalType": "uint256",
          "name": "_snapshotTo",
          "type": "uint256"
        },
        {
          "internalType": "uint256[5]",
          "name": "_tierBuySchedules",
          "type": "uint256[5]"
        }
      ],
      "stateMutability": "nonpayable",
      "type": "constructor"
    },
    {
      "anonymous": false,
      "inputs": [
        {
          "indexed": true,
          "internalType": "address",
          "name": "previousOwner",
          "type": "address"
        },
        {
          "indexed": true,
          "internalType": "address",
          "name": "newOwner",
          "type": "address"
        }
      ],
      "name": "OwnershipTransferred",
      "type": "event"
    },
    {
      "inputs": [],
      "name": "MAX_NFT_SALES",
      "outputs": [
        {
          "internalType": "uint256",
          "name": "",
          "type": "uint256"
        }
      ],
      "stateMutability": "view",
      "type": "function"
    },
    {
      "inputs": [],
      "name": "erc721NFTContract",
      "outputs": [
        {
          "internalType": "contract IMinter",
          "name": "",
          "type": "address"
        }
      ],
      "stateMutability": "view",
      "type": "function"
    },
    {
      "inputs": [
        {
          "internalType": "uint256",
          "name": "_tier",
          "type": "uint256"
        }
      ],
      "name": "getAllocationByTier",
      "outputs": [
        {
          "internalType": "uint256",
          "name": "",
          "type": "uint256"
        }
      ],
      "stateMutability": "view",
      "type": "function"
    },
    {
      "inputs": [
        {
          "internalType": "uint256",
          "name": "_tier",
          "type": "uint256"
        }
      ],
      "name": "getBuySchedulesBuyTier",
      "outputs": [
        {
          "internalType": "uint256",
          "name": "",
          "type": "uint256"
        }
      ],
      "stateMutability": "view",
      "type": "function"
    },
    {
      "inputs": [],
      "name": "getSnapshotFrom",
      "outputs": [
        {
          "internalType": "uint256",
          "name": "",
          "type": "uint256"
        }
      ],
      "stateMutability": "view",
      "type": "function"
    },
    {
      "inputs": [],
      "name": "getSnapshotTo",
      "outputs": [
        {
          "internalType": "uint256",
          "name": "",
          "type": "uint256"
        }
      ],
      "stateMutability": "view",
      "type": "function"
    },
    {
      "inputs": [],
      "name": "inoContract",
      "outputs": [
        {
          "internalType": "address",
          "name": "",
          "type": "address"
        }
      ],
      "stateMutability": "view",
      "type": "function"
    },
    {
      "inputs": [],
      "name": "isMinter",
      "outputs": [
        {
          "internalType": "bool",
          "name": "",
          "type": "bool"
        }
      ],
      "stateMutability": "pure",
      "type": "function"
    },
    {
      "inputs": [
        {
          "internalType": "address",
          "name": "_user",
          "type": "address"
        }
      ],
      "name": "isValidTierTime",
      "outputs": [
        {
          "internalType": "bool",
          "name": "",
          "type": "bool"
        }
      ],
      "stateMutability": "view",
      "type": "function"
    },
    {
      "inputs": [],
      "name": "maximumNFTSales",
      "outputs": [
        {
          "internalType": "uint256",
          "name": "",
          "type": "uint256"
        }
      ],
      "stateMutability": "view",
      "type": "function"
    },
    {
      "inputs": [
        {
          "internalType": "address",
          "name": "userAddr",
          "type": "address"
        }
      ],
      "name": "maximumTicketByUser",
      "outputs": [
        {
          "internalType": "uint256",
          "name": "",
          "type": "uint256"
        }
      ],
      "stateMutability": "view",
      "type": "function"
    },
    {
      "inputs": [
        {
          "internalType": "address",
          "name": "receiver",
          "type": "address"
        }
      ],
      "name": "mint",
      "outputs": [
        {
          "internalType": "uint256",
          "name": "",
          "type": "uint256"
        }
      ],
      "stateMutability": "nonpayable",
      "type": "function"
    },
    {
      "inputs": [],
      "name": "minted",
      "outputs": [
        {
          "internalType": "uint256",
          "name": "",
          "type": "uint256"
        }
      ],
      "stateMutability": "view",
      "type": "function"
    },
    {
      "inputs": [],
      "name": "owner",
      "outputs": [
        {
          "internalType": "address",
          "name": "",
          "type": "address"
        }
      ],
      "stateMutability": "view",
      "type": "function"
    },
    {
      "inputs": [],
      "name": "renounceOwnership",
      "outputs": [],
      "stateMutability": "nonpayable",
      "type": "function"
    },
    {
      "inputs": [
        {
          "internalType": "address",
          "name": "_ino",
          "type": "address"
        }
      ],
      "name": "setINOContract",
      "outputs": [],
      "stateMutability": "nonpayable",
      "type": "function"
    },
    {
      "inputs": [
        {
          "internalType": "uint256",
          "name": "id",
          "type": "uint256"
        }
      ],
      "name": "setSnapshotFrom",
      "outputs": [],
      "stateMutability": "nonpayable",
      "type": "function"
    },
    {
      "inputs": [
        {
          "internalType": "uint256",
          "name": "id",
          "type": "uint256"
        }
      ],
      "name": "setSnapshotTo",
      "outputs": [],
      "stateMutability": "nonpayable",
      "type": "function"
    },
    {
      "inputs": [
        {
          "internalType": "uint256",
          "name": "",
          "type": "uint256"
        }
      ],
      "name": "tierAllocations",
      "outputs": [
        {
          "internalType": "uint256",
          "name": "",
          "type": "uint256"
        }
      ],
      "stateMutability": "view",
      "type": "function"
    },
    {
      "inputs": [
        {
          "internalType": "uint256",
          "name": "",
          "type": "uint256"
        }
      ],
      "name": "tierBuySchedules",
      "outputs": [
        {
          "internalType": "uint256",
          "name": "",
          "type": "uint256"
        }
      ],
      "stateMutability": "view",
      "type": "function"
    },
    {
      "inputs": [],
      "name": "tierSystem",
      "outputs": [
        {
          "internalType": "contract ITierSystem",
          "name": "",
          "type": "address"
        }
      ],
      "stateMutability": "view",
      "type": "function"
    },
    {
      "inputs": [
        {
          "internalType": "address",
          "name": "newOwner",
          "type": "address"
        }
      ],
      "name": "transferOwnership",
      "outputs": [],
      "stateMutability": "nonpayable",
      "type": "function"
    }
  ],
  "bytecode": "0x61012060405260016080908152600260a052600460c052600860e052600f6101005262000031906007906005620002d6565b503480156200003f57600080fd5b5060405162000ebd38038062000ebd833981016040819052620000629162000366565b6200006d336200016c565b6001600160a01b038516620000be5760405162461bcd60e51b81526020600482015260126024820152711859191c995cdcc81a5cc81a5b9d985b1a5960721b60448201526064015b60405180910390fd5b600280546001600160a01b038088166001600160a01b0319928316179092556004859055600584905560038054928716929091169190911790556200010381620001bc565b620001515760405162461bcd60e51b815260206004820152601660248201527f7363686564756c6573207765726520696e76616c6964000000000000000000006044820152606401620000b5565b62000160600c8260056200031e565b505050505050620004b3565b600080546001600160a01b038381166001600160a01b0319831681178455604051919092169283917f8be0079c531659141344cd1fd0a4f28419497f9722a3daafe3b4186f6b6457e09190a35050565b6000805b6005811015620002cd5780158015620001ff57506000838260058110620001f757634e487b7160e01b600052603260045260246000fd5b602002015111155b156200020e5750600092915050565b600081118015620002745750826200022860018362000436565b600581106200024757634e487b7160e01b600052603260045260246000fd5b60200201518382600581106200026d57634e487b7160e01b600052603260045260246000fd5b6020020151115b15620002835750600092915050565b42838260058110620002a557634e487b7160e01b600052603260045260246000fd5b60200201511015620002ba5750600092915050565b620002c58162000450565b9050620001c0565b50600192915050565b82600581019282156200030c579160200282015b828111156200030c578251829060ff16905591602001919060010190620002ea565b506200031a9291506200034f565b5090565b82600581019282156200030c579160200282015b828111156200030c57825182559160200191906001019062000332565b5b808211156200031a576000815560010162000350565b600080600080600061012080878903121562000380578182fd5b86516200038d816200049a565b80965050602080880151620003a2816200049a565b80965050604088015194506060880151935088609f890112620003c3578283fd5b60405160a081016001600160401b0381118282101715620003e857620003e862000484565b6040528060808a01848b018c1015620003ff578586fd5b8594505b60058510156200042457805182526001949094019390830190830162000403565b50508093505050509295509295909350565b6000828210156200044b576200044b6200046e565b500390565b60006000198214156200046757620004676200046e565b5060010190565b634e487b7160e01b600052601160045260246000fd5b634e487b7160e01b600052604160045260246000fd5b6001600160a01b0381168114620004b057600080fd5b50565b6109fa80620004c36000396000f3fe608060405234801561001057600080fd5b50600436106101425760003560e01c80639e282d83116100b8578063c161d85c1161007c578063c161d85c14610273578063c2c9721b1461027c578063d16bba941461028f578063f2fde38b146102a2578063f8caa7e5146102b5578063fbeffb98146102c857600080fd5b80639e282d8314610214578063a9a85f2d14610227578063b9c1109d1461023a578063be251c8e1461024d578063bf6f85d51461026057600080fd5b80635bc94b4c1161010a5780635bc94b4c146101b15780636a627842146101b9578063715018a6146101cc5780637f4d0943146101d45780638da5cb5b146101dc5780639ddbaa691461020157600080fd5b806306ffcd1414610147578063171a58a01461015c5780632f5349f2146101825780634f02c4201461019557806350e59eb31461019e575b600080fd5b61015a61015536600461091e565b6102d0565b005b61016f61016a36600461094c565b61034a565b6040519081526020015b60405180910390f35b61016f61019036600461091e565b610361565b61016f60065481565b60015b6040519015158152602001610179565b6103e861016f565b61016f6101c736600461091e565b61043b565b61015a610575565b60045461016f565b6000546001600160a01b03165b6040516001600160a01b039091168152602001610179565b61016f61020f36600461094c565b610589565b61016f61022236600461094c565b610599565b61016f61023536600461094c565b61061d565b6101a161024836600461091e565b61067b565b6001546101e9906001600160a01b031681565b6002546101e9906001600160a01b031681565b61016f6103e881565b61015a61028a36600461094c565b610767565b61015a61029d36600461094c565b6107b1565b61015a6102b036600461091e565b6107fb565b6003546101e9906001600160a01b031681565b60055461016f565b6102d8610874565b6001600160a01b0381166103285760405162461bcd60e51b81526020600482015260126024820152711859191c995cdcc81a5cc81a5b9d985b1a5960721b60448201526064015b60405180910390fd5b600180546001600160a01b0319166001600160a01b0392909216919091179055565b6007816005811061035a57600080fd5b0154905081565b60035460048054600554604051636002de6760e01b81526001600160a01b03868116948201949094526024810192909252604482015260009283921690636002de679060640160206040518083038186803b1580156103bf57600080fd5b505afa1580156103d3573d6000803e3d6000fd5b505050506040513d601f19601f820116820180604052508101906103f79190610964565b9050806104075750600092915050565b600761041460018361097c565b6005811061043257634e487b7160e01b600052603260045260246000fd5b01549392505050565b6001546000906001600160a01b031633146104985760405162461bcd60e51b815260206004820152601960248201527f4f6e6c792063616c6c20627920696e6f20636f6e747261637400000000000000604482015260640161031f565b6103e8600654106104d75760405162461bcd60e51b81526020600482015260096024820152686d6178696d756d212160b81b604482015260640161031f565b6002546040516335313c2160e11b81526001600160a01b0384811660048301526000921690636a62784290602401602060405180830381600087803b15801561051f57600080fd5b505af1158015610533573d6000803e3d6000fd5b505050506040513d601f19601f820116820180604052508101906105579190610964565b60068054919250600061056983610993565b90915550909392505050565b61057d610874565b61058760006108ce565b565b600c816005811061035a57600080fd5b600080821180156105ab575060058211155b6105ea5760405162461bcd60e51b815260206004820152601060248201526f151a595c881dd85cc81a5b9d985b1a5960821b604482015260640161031f565b60076105f760018461097c565b6005811061061557634e487b7160e01b600052603260045260246000fd5b015492915050565b6000808211801561062f575060058211155b61066e5760405162461bcd60e51b815260206004820152601060248201526f151a595c881dd85cc81a5b9d985b1a5960821b604482015260640161031f565b600c6105f760018461097c565b60035460048054600554604051636002de6760e01b81526001600160a01b03868116948201949094526024810192909252604482015260009283921690636002de679060640160206040518083038186803b1580156106d957600080fd5b505afa1580156106ed573d6000803e3d6000fd5b505050506040513d601f19601f820116820180604052508101906107119190610964565b9050806107215750600092915050565b42600c61072f60018461097c565b6005811061074d57634e487b7160e01b600052603260045260246000fd5b0154101561075e5750600192915050565b50600092915050565b61076f610874565b600081116107ac5760405162461bcd60e51b815260206004820152600a6024820152691259081a5b9d985b1a5960b21b604482015260640161031f565b600555565b6107b9610874565b600081116107f65760405162461bcd60e51b815260206004820152600a6024820152691259081a5b9d985b1a5960b21b604482015260640161031f565b600455565b610803610874565b6001600160a01b0381166108685760405162461bcd60e51b815260206004820152602660248201527f4f776e61626c653a206e6577206f776e657220697320746865207a65726f206160448201526564647265737360d01b606482015260840161031f565b610871816108ce565b50565b6000546001600160a01b031633146105875760405162461bcd60e51b815260206004820181905260248201527f4f776e61626c653a2063616c6c6572206973206e6f7420746865206f776e6572604482015260640161031f565b600080546001600160a01b038381166001600160a01b0319831681178455604051919092169283917f8be0079c531659141344cd1fd0a4f28419497f9722a3daafe3b4186f6b6457e09190a35050565b60006020828403121561092f578081fd5b81356001600160a01b0381168114610945578182fd5b9392505050565b60006020828403121561095d578081fd5b5035919050565b600060208284031215610975578081fd5b5051919050565b60008282101561098e5761098e6109ae565b500390565b60006000198214156109a7576109a76109ae565b5060010190565b634e487b7160e01b600052601160045260246000fdfea2646970667358221220b05a8ba5ce8a96cea51d22b37f939b32630ce2206751397b2cc2882d4e03313364736f6c63430008040033",
  "linkReferences": {},
  "deployedLinkReferences": {}
}