{
  "_format": "hh-sol-artifact-1",
  "contractName": "ERC721MinterAdapter",
  "sourceName": "contracts/nft-marketplace/INO/ERC721MinterAdapter.sol",
  "abi": [
    {
      "inputs": [
        {
          "internalType": "address",
          "name": "nft",
          "type": "address"
        },
        {
          "internalType": "contract ITierSystem",
          "name": "_tierSystem",
          "type": "address"
        },
        {
          "internalType": "uint256",
          "name": "_snapshotFrom",
          "type": "uint256"
        },
        {
          "internalType": "uint256",
          "name": "_snapshotTo",
          "type": "uint256"
        },
        {
          "internalType": "uint256[5]",
          "name": "_tierBuySchedules",
          "type": "uint256[5]"
        }
      ],
      "stateMutability": "nonpayable",
      "type": "constructor"
    },
    {
      "anonymous": false,
      "inputs": [
        {
          "indexed": true,
          "internalType": "address",
          "name": "previousOwner",
          "type": "address"
        },
        {
          "indexed": true,
          "internalType": "address",
          "name": "newOwner",
          "type": "address"
        }
      ],
      "name": "OwnershipTransferred",
      "type": "event"
    },
    {
      "inputs": [],
      "name": "MAX_NFT_SALES",
      "outputs": [
        {
          "internalType": "uint256",
          "name": "",
          "type": "uint256"
        }
      ],
      "stateMutability": "view",
      "type": "function"
    },
    {
      "inputs": [],
      "name": "erc721NFTContract",
      "outputs": [
        {
          "internalType": "contract IMinter",
          "name": "",
          "type": "address"
        }
      ],
      "stateMutability": "view",
      "type": "function"
    },
    {
      "inputs": [
        {
          "internalType": "uint256",
          "name": "_tier",
          "type": "uint256"
        }
      ],
      "name": "getAllocationByTier",
      "outputs": [
        {
          "internalType": "uint256",
          "name": "",
          "type": "uint256"
        }
      ],
      "stateMutability": "view",
      "type": "function"
    },
    {
      "inputs": [
        {
          "internalType": "uint256",
          "name": "_tier",
          "type": "uint256"
        }
      ],
      "name": "getBuySchedulesBuyTier",
      "outputs": [
        {
          "internalType": "uint256",
          "name": "",
          "type": "uint256"
        }
      ],
      "stateMutability": "view",
      "type": "function"
    },
    {
      "inputs": [],
      "name": "getSnapshotFrom",
      "outputs": [
        {
          "internalType": "uint256",
          "name": "",
          "type": "uint256"
        }
      ],
      "stateMutability": "view",
      "type": "function"
    },
    {
      "inputs": [],
      "name": "getSnapshotTo",
      "outputs": [
        {
          "internalType": "uint256",
          "name": "",
          "type": "uint256"
        }
      ],
      "stateMutability": "view",
      "type": "function"
    },
    {
      "inputs": [
        {
          "internalType": "address",
          "name": "userAddr",
          "type": "address"
        }
      ],
      "name": "getTier",
      "outputs": [
        {
          "internalType": "uint256",
          "name": "",
          "type": "uint256"
        }
      ],
      "stateMutability": "view",
      "type": "function"
    },
    {
      "inputs": [],
      "name": "inoContract",
      "outputs": [
        {
          "internalType": "address",
          "name": "",
          "type": "address"
        }
      ],
      "stateMutability": "view",
      "type": "function"
    },
    {
      "inputs": [],
      "name": "isMinter",
      "outputs": [
        {
          "internalType": "bool",
          "name": "",
          "type": "bool"
        }
      ],
      "stateMutability": "pure",
      "type": "function"
    },
    {
      "inputs": [
        {
          "internalType": "address",
          "name": "_user",
          "type": "address"
        }
      ],
      "name": "isValidTierTime",
      "outputs": [
        {
          "internalType": "bool",
          "name": "",
          "type": "bool"
        }
      ],
      "stateMutability": "view",
      "type": "function"
    },
    {
      "inputs": [],
      "name": "maximumNFTSales",
      "outputs": [
        {
          "internalType": "uint256",
          "name": "",
          "type": "uint256"
        }
      ],
      "stateMutability": "view",
      "type": "function"
    },
    {
      "inputs": [
        {
          "internalType": "address",
          "name": "userAddr",
          "type": "address"
        }
      ],
      "name": "maximumTicketByUser",
      "outputs": [
        {
          "internalType": "uint256",
          "name": "",
          "type": "uint256"
        }
      ],
      "stateMutability": "view",
      "type": "function"
    },
    {
      "inputs": [
        {
          "internalType": "address",
          "name": "receiver",
          "type": "address"
        }
      ],
      "name": "mint",
      "outputs": [
        {
          "internalType": "uint256",
          "name": "",
          "type": "uint256"
        }
      ],
      "stateMutability": "nonpayable",
      "type": "function"
    },
    {
      "inputs": [],
      "name": "minted",
      "outputs": [
        {
          "internalType": "uint256",
          "name": "",
          "type": "uint256"
        }
      ],
      "stateMutability": "view",
      "type": "function"
    },
    {
      "inputs": [],
      "name": "owner",
      "outputs": [
        {
          "internalType": "address",
          "name": "",
          "type": "address"
        }
      ],
      "stateMutability": "view",
      "type": "function"
    },
    {
      "inputs": [],
      "name": "renounceOwnership",
      "outputs": [],
      "stateMutability": "nonpayable",
      "type": "function"
    },
    {
      "inputs": [
        {
          "internalType": "address",
          "name": "_ino",
          "type": "address"
        }
      ],
      "name": "setINOContract",
      "outputs": [],
      "stateMutability": "nonpayable",
      "type": "function"
    },
    {
      "inputs": [
        {
          "internalType": "uint256",
          "name": "id",
          "type": "uint256"
        }
      ],
      "name": "setSnapshotFrom",
      "outputs": [],
      "stateMutability": "nonpayable",
      "type": "function"
    },
    {
      "inputs": [
        {
          "internalType": "uint256",
          "name": "id",
          "type": "uint256"
        }
      ],
      "name": "setSnapshotTo",
      "outputs": [],
      "stateMutability": "nonpayable",
      "type": "function"
    },
    {
      "inputs": [
        {
          "internalType": "uint256",
          "name": "",
          "type": "uint256"
        }
      ],
      "name": "tierAllocations",
      "outputs": [
        {
          "internalType": "uint256",
          "name": "",
          "type": "uint256"
        }
      ],
      "stateMutability": "view",
      "type": "function"
    },
    {
      "inputs": [
        {
          "internalType": "uint256",
          "name": "",
          "type": "uint256"
        }
      ],
      "name": "tierBuySchedules",
      "outputs": [
        {
          "internalType": "uint256",
          "name": "",
          "type": "uint256"
        }
      ],
      "stateMutability": "view",
      "type": "function"
    },
    {
      "inputs": [],
      "name": "tierSystem",
      "outputs": [
        {
          "internalType": "contract ITierSystem",
          "name": "",
          "type": "address"
        }
      ],
      "stateMutability": "view",
      "type": "function"
    },
    {
      "inputs": [
        {
          "internalType": "address",
          "name": "newOwner",
          "type": "address"
        }
      ],
      "name": "transferOwnership",
      "outputs": [],
      "stateMutability": "nonpayable",
      "type": "function"
    }
  ],
  "bytecode": "0x61012060405260016080908152600260a052600460c052600860e052600f6101005262000031906007906005620002d6565b503480156200003f57600080fd5b5060405162000f7838038062000f78833981016040819052620000629162000366565b6200006d336200016c565b6001600160a01b038516620000be5760405162461bcd60e51b81526020600482015260126024820152711859191c995cdcc81a5cc81a5b9d985b1a5960721b60448201526064015b60405180910390fd5b600280546001600160a01b038088166001600160a01b0319928316179092556004859055600584905560038054928716929091169190911790556200010381620001bc565b620001515760405162461bcd60e51b815260206004820152601660248201527f7363686564756c6573207765726520696e76616c6964000000000000000000006044820152606401620000b5565b62000160600c8260056200031e565b505050505050620004b3565b600080546001600160a01b038381166001600160a01b0319831681178455604051919092169283917f8be0079c531659141344cd1fd0a4f28419497f9722a3daafe3b4186f6b6457e09190a35050565b6000805b6005811015620002cd5780158015620001ff57506000838260058110620001f757634e487b7160e01b600052603260045260246000fd5b602002015111155b156200020e5750600092915050565b600081118015620002745750826200022860018362000436565b600581106200024757634e487b7160e01b600052603260045260246000fd5b60200201518382600581106200026d57634e487b7160e01b600052603260045260246000fd5b6020020151115b15620002835750600092915050565b42838260058110620002a557634e487b7160e01b600052603260045260246000fd5b60200201511015620002ba5750600092915050565b620002c58162000450565b9050620001c0565b50600192915050565b82600581019282156200030c579160200282015b828111156200030c578251829060ff16905591602001919060010190620002ea565b506200031a9291506200034f565b5090565b82600581019282156200030c579160200282015b828111156200030c57825182559160200191906001019062000332565b5b808211156200031a576000815560010162000350565b600080600080600061012080878903121562000380578182fd5b86516200038d816200049a565b80965050602080880151620003a2816200049a565b80965050604088015194506060880151935088609f890112620003c3578283fd5b60405160a081016001600160401b0381118282101715620003e857620003e862000484565b6040528060808a01848b018c1015620003ff578586fd5b8594505b60058510156200042457805182526001949094019390830190830162000403565b50508093505050509295509295909350565b6000828210156200044b576200044b6200046e565b500390565b60006000198214156200046757620004676200046e565b5060010190565b634e487b7160e01b600052601160045260246000fd5b634e487b7160e01b600052604160045260246000fd5b6001600160a01b0381168114620004b057600080fd5b50565b610ab580620004c36000396000f3fe608060405234801561001057600080fd5b506004361061014d5760003560e01c80639e282d83116100c3578063c161d85c1161007c578063c161d85c14610291578063c2c9721b1461029a578063d16bba94146102ad578063f2fde38b146102c0578063f8caa7e5146102d3578063fbeffb98146102e657600080fd5b80639e282d831461021f578063a9a85f2d14610232578063b45aae5214610245578063b9c1109d14610258578063be251c8e1461026b578063bf6f85d51461027e57600080fd5b80635bc94b4c116101155780635bc94b4c146101bc5780636a627842146101c4578063715018a6146101d75780637f4d0943146101df5780638da5cb5b146101e75780639ddbaa691461020c57600080fd5b806306ffcd1414610152578063171a58a0146101675780632f5349f21461018d5780634f02c420146101a057806350e59eb3146101a9575b600080fd5b6101656101603660046109d9565b6102ee565b005b61017a610175366004610a07565b610368565b6040519081526020015b60405180910390f35b61017a61019b3660046109d9565b61037f565b61017a60065481565b60015b6040519015158152602001610184565b6103e861017a565b61017a6101d23660046109d9565b610459565b610165610593565b60045461017a565b6000546001600160a01b03165b6040516001600160a01b039091168152602001610184565b61017a61021a366004610a07565b6105a7565b61017a61022d366004610a07565b6105b7565b61017a610240366004610a07565b61063b565b61017a6102533660046109d9565b610699565b6101ac6102663660046109d9565b610736565b6001546101f4906001600160a01b031681565b6002546101f4906001600160a01b031681565b61017a6103e881565b6101656102a8366004610a07565b610822565b6101656102bb366004610a07565b61086c565b6101656102ce3660046109d9565b6108b6565b6003546101f4906001600160a01b031681565b60055461017a565b6102f661092f565b6001600160a01b0381166103465760405162461bcd60e51b81526020600482015260126024820152711859191c995cdcc81a5cc81a5b9d985b1a5960721b60448201526064015b60405180910390fd5b600180546001600160a01b0319166001600160a01b0392909216919091179055565b6007816005811061037857600080fd5b0154905081565b60035460048054600554604051636002de6760e01b81526001600160a01b03868116948201949094526024810192909252604482015260009283921690636002de679060640160206040518083038186803b1580156103dd57600080fd5b505afa1580156103f1573d6000803e3d6000fd5b505050506040513d601f19601f820116820180604052508101906104159190610a1f565b9050806104255750600092915050565b6007610432600183610a37565b6005811061045057634e487b7160e01b600052603260045260246000fd5b01549392505050565b6001546000906001600160a01b031633146104b65760405162461bcd60e51b815260206004820152601960248201527f4f6e6c792063616c6c20627920696e6f20636f6e747261637400000000000000604482015260640161033d565b6103e8600654106104f55760405162461bcd60e51b81526020600482015260096024820152686d6178696d756d212160b81b604482015260640161033d565b6002546040516335313c2160e11b81526001600160a01b0384811660048301526000921690636a62784290602401602060405180830381600087803b15801561053d57600080fd5b505af1158015610551573d6000803e3d6000fd5b505050506040513d601f19601f820116820180604052508101906105759190610a1f565b60068054919250600061058783610a4e565b90915550909392505050565b61059b61092f565b6105a56000610989565b565b600c816005811061037857600080fd5b600080821180156105c9575060058211155b6106085760405162461bcd60e51b815260206004820152601060248201526f151a595c881dd85cc81a5b9d985b1a5960821b604482015260640161033d565b6007610615600184610a37565b6005811061063357634e487b7160e01b600052603260045260246000fd5b015492915050565b6000808211801561064d575060058211155b61068c5760405162461bcd60e51b815260206004820152601060248201526f151a595c881dd85cc81a5b9d985b1a5960821b604482015260640161033d565b600c610615600184610a37565b60035460048054600554604051636002de6760e01b81526001600160a01b0386811694820194909452602481019290925260448201526000929190911690636002de679060640160206040518083038186803b1580156106f857600080fd5b505afa15801561070c573d6000803e3d6000fd5b505050506040513d601f19601f820116820180604052508101906107309190610a1f565b92915050565b60035460048054600554604051636002de6760e01b81526001600160a01b03868116948201949094526024810192909252604482015260009283921690636002de679060640160206040518083038186803b15801561079457600080fd5b505afa1580156107a8573d6000803e3d6000fd5b505050506040513d601f19601f820116820180604052508101906107cc9190610a1f565b9050806107dc5750600092915050565b42600c6107ea600184610a37565b6005811061080857634e487b7160e01b600052603260045260246000fd5b015410156108195750600192915050565b50600092915050565b61082a61092f565b600081116108675760405162461bcd60e51b815260206004820152600a6024820152691259081a5b9d985b1a5960b21b604482015260640161033d565b600555565b61087461092f565b600081116108b15760405162461bcd60e51b815260206004820152600a6024820152691259081a5b9d985b1a5960b21b604482015260640161033d565b600455565b6108be61092f565b6001600160a01b0381166109235760405162461bcd60e51b815260206004820152602660248201527f4f776e61626c653a206e6577206f776e657220697320746865207a65726f206160448201526564647265737360d01b606482015260840161033d565b61092c81610989565b50565b6000546001600160a01b031633146105a55760405162461bcd60e51b815260206004820181905260248201527f4f776e61626c653a2063616c6c6572206973206e6f7420746865206f776e6572604482015260640161033d565b600080546001600160a01b038381166001600160a01b0319831681178455604051919092169283917f8be0079c531659141344cd1fd0a4f28419497f9722a3daafe3b4186f6b6457e09190a35050565b6000602082840312156109ea578081fd5b81356001600160a01b0381168114610a00578182fd5b9392505050565b600060208284031215610a18578081fd5b5035919050565b600060208284031215610a30578081fd5b5051919050565b600082821015610a4957610a49610a69565b500390565b6000600019821415610a6257610a62610a69565b5060010190565b634e487b7160e01b600052601160045260246000fdfea2646970667358221220bd2c6657e0628f90043be1b72dcebbf4c31182e28baceaa5576fee6cc4e7556864736f6c63430008040033",
  "linkReferences": {},
  "deployedLinkReferences": {}
}