{
  "_format": "hh-sol-artifact-1",
  "contractName": "ERC721MinterAdapter",
  "sourceName": "contracts/nft-marketplace/INO/ERC721MinterAdapter.sol",
  "abi": [
    {
      "inputs": [
        {
          "internalType": "address",
          "name": "nft",
          "type": "address"
        }
      ],
      "stateMutability": "nonpayable",
      "type": "constructor"
    },
    {
      "anonymous": false,
      "inputs": [
        {
          "indexed": true,
          "internalType": "address",
          "name": "previousOwner",
          "type": "address"
        },
        {
          "indexed": true,
          "internalType": "address",
          "name": "newOwner",
          "type": "address"
        }
      ],
      "name": "OwnershipTransferred",
      "type": "event"
    },
    {
      "inputs": [],
      "name": "MAX_NFT_SALES",
      "outputs": [
        {
          "internalType": "uint256",
          "name": "",
          "type": "uint256"
        }
      ],
      "stateMutability": "view",
      "type": "function"
    },
    {
      "inputs": [],
      "name": "erc721NFTContract",
      "outputs": [
        {
          "internalType": "contract IMinter",
          "name": "",
          "type": "address"
        }
      ],
      "stateMutability": "view",
      "type": "function"
    },
    {
      "inputs": [],
      "name": "inoContract",
      "outputs": [
        {
          "internalType": "address",
          "name": "",
          "type": "address"
        }
      ],
      "stateMutability": "view",
      "type": "function"
    },
    {
      "inputs": [],
      "name": "isMinter",
      "outputs": [
        {
          "internalType": "bool",
          "name": "",
          "type": "bool"
        }
      ],
      "stateMutability": "pure",
      "type": "function"
    },
    {
      "inputs": [],
      "name": "maximunNFTSales",
      "outputs": [
        {
          "internalType": "uint256",
          "name": "",
          "type": "uint256"
        }
      ],
      "stateMutability": "view",
      "type": "function"
    },
    {
      "inputs": [
        {
          "internalType": "address",
          "name": "userAddr",
          "type": "address"
        }
      ],
      "name": "maximunTicketByUser",
      "outputs": [
        {
          "internalType": "uint256",
          "name": "",
          "type": "uint256"
        }
      ],
      "stateMutability": "view",
      "type": "function"
    },
    {
      "inputs": [
        {
          "internalType": "address",
          "name": "receiver",
          "type": "address"
        }
      ],
      "name": "mint",
      "outputs": [
        {
          "internalType": "bool",
          "name": "",
          "type": "bool"
        }
      ],
      "stateMutability": "nonpayable",
      "type": "function"
    },
    {
      "inputs": [],
      "name": "owner",
      "outputs": [
        {
          "internalType": "address",
          "name": "",
          "type": "address"
        }
      ],
      "stateMutability": "view",
      "type": "function"
    },
    {
      "inputs": [],
      "name": "renounceOwnership",
      "outputs": [],
      "stateMutability": "nonpayable",
      "type": "function"
    },
    {
      "inputs": [
        {
          "internalType": "address",
          "name": "_ino",
          "type": "address"
        }
      ],
      "name": "setINOContract",
      "outputs": [],
      "stateMutability": "nonpayable",
      "type": "function"
    },
    {
      "inputs": [
        {
          "internalType": "address",
          "name": "newOwner",
          "type": "address"
        }
      ],
      "name": "transferOwnership",
      "outputs": [],
      "stateMutability": "nonpayable",
      "type": "function"
    }
  ],
  "bytecode": "0x608060405234801561001057600080fd5b5060405161062338038061062383398101604081905261002f916100fc565b610038336100ac565b6001600160a01b0381166100875760405162461bcd60e51b81526020600482015260126024820152711859191c995cdcc81a5cc81a5b9d985b1a5960721b604482015260640160405180910390fd5b600280546001600160a01b0319166001600160a01b039290921691909117905561012a565b600080546001600160a01b038381166001600160a01b0319831681178455604051919092169283917f8be0079c531659141344cd1fd0a4f28419497f9722a3daafe3b4186f6b6457e09190a35050565b60006020828403121561010d578081fd5b81516001600160a01b0381168114610123578182fd5b9392505050565b6104ea806101396000396000f3fe608060405234801561001057600080fd5b50600436106100a95760003560e01c80637f600542116100715780637f600542146101185780638da5cb5b14610120578063be251c8e14610145578063bf6f85d514610158578063c161d85c1461016b578063f2fde38b1461017457600080fd5b806306ffcd14146100ae578063181250cd146100c357806350e59eb3146100ea5780636a627842146100fd578063715018a614610110575b600080fd5b6100c16100bc366004610440565b610187565b005b6100d76100d1366004610440565b50600a90565b6040519081526020015b60405180910390f35b60015b60405190151581526020016100e1565b6100ed61010b366004610440565b610227565b6100c161031f565b6103e86100d7565b6000546001600160a01b03165b6040516001600160a01b0390911681526020016100e1565b60015461012d906001600160a01b031681565b60025461012d906001600160a01b031681565b6100d76103e881565b6100c1610182366004610440565b610355565b6000546001600160a01b031633146101ba5760405162461bcd60e51b81526004016101b19061047f565b60405180910390fd5b6001600160a01b0381166102055760405162461bcd60e51b81526020600482015260126024820152711859191c995cdcc81a5cc81a5b9d985b1a5960721b60448201526064016101b1565b600180546001600160a01b0319166001600160a01b0392909216919091179055565b6001546000906001600160a01b031633146102845760405162461bcd60e51b815260206004820152601960248201527f4f6e6c792063616c6c20627920696e6f20636f6e74726163740000000000000060448201526064016101b1565b6002546040516335313c2160e11b81526001600160a01b0384811660048301526000921690636a62784290602401602060405180830381600087803b1580156102cc57600080fd5b505af11580156102e0573d6000803e3d6000fd5b505050506040513d601f19601f820116820180604052508101906103049190610467565b905060008111610315576000610318565b60015b9392505050565b6000546001600160a01b031633146103495760405162461bcd60e51b81526004016101b19061047f565b61035360006103f0565b565b6000546001600160a01b0316331461037f5760405162461bcd60e51b81526004016101b19061047f565b6001600160a01b0381166103e45760405162461bcd60e51b815260206004820152602660248201527f4f776e61626c653a206e6577206f776e657220697320746865207a65726f206160448201526564647265737360d01b60648201526084016101b1565b6103ed816103f0565b50565b600080546001600160a01b038381166001600160a01b0319831681178455604051919092169283917f8be0079c531659141344cd1fd0a4f28419497f9722a3daafe3b4186f6b6457e09190a35050565b600060208284031215610451578081fd5b81356001600160a01b0381168114610318578182fd5b600060208284031215610478578081fd5b5051919050565b6020808252818101527f4f776e61626c653a2063616c6c6572206973206e6f7420746865206f776e657260408201526060019056fea264697066735822122088a139ed026fe13667268f9c31bdfab647387103e2cc5b79040504e5c838425764736f6c63430008040033",
  "linkReferences": {},
  "deployedLinkReferences": {}
}