{
  "_format": "hh-sol-artifact-1",
  "contractName": "RewarderMock",
  "sourceName": "contracts/mocks/RewarderMock.sol",
  "abi": [
    {
      "inputs": [
        {
          "internalType": "uint256",
          "name": "_rewardMultiplier",
          "type": "uint256"
        },
        {
          "internalType": "contract IERC20",
          "name": "_rewardToken",
          "type": "address"
        },
        {
          "internalType": "address",
          "name": "_MASTERCHEF_V2",
          "type": "address"
        }
      ],
      "stateMutability": "nonpayable",
      "type": "constructor"
    },
    {
      "inputs": [
        {
          "internalType": "uint256",
          "name": "",
          "type": "uint256"
        },
        {
          "internalType": "address",
          "name": "user",
          "type": "address"
        },
        {
          "internalType": "address",
          "name": "to",
          "type": "address"
        },
        {
          "internalType": "uint256",
          "name": "sushiAmount",
          "type": "uint256"
        },
        {
          "internalType": "uint256",
          "name": "",
          "type": "uint256"
        }
      ],
      "name": "onKdxReward",
      "outputs": [],
      "stateMutability": "nonpayable",
      "type": "function"
    },
    {
      "inputs": [
        {
          "internalType": "uint256",
          "name": "pid",
          "type": "uint256"
        },
        {
          "internalType": "address",
          "name": "user",
          "type": "address"
        },
        {
          "internalType": "uint256",
          "name": "sushiAmount",
          "type": "uint256"
        }
      ],
      "name": "pendingTokens",
      "outputs": [
        {
          "internalType": "contract IERC20[]",
          "name": "rewardTokens",
          "type": "address[]"
        },
        {
          "internalType": "uint256[]",
          "name": "rewardAmounts",
          "type": "uint256[]"
        }
      ],
      "stateMutability": "view",
      "type": "function"
    }
  ],
  "bytecode": "0x60e060405234801561001057600080fd5b506040516109f03803806109f083398101604081905261002f91610054565b6080929092526001600160601b0319606091821b811660a05291901b1660c0526100ae565b600080600060608486031215610068578283fd5b83519250602084015161007a81610096565b604085015190925061008b81610096565b809150509250925092565b6001600160a01b03811681146100ab57600080fd5b50565b60805160a05160601c60c05160601c6108f26100fe60003960006085015260008181610163015281816101f40152818161022d0152610286015260008181610112015261031201526108f26000f3fe608060405234801561001057600080fd5b50600436106100365760003560e01c8063860cbfe41461003b578063d63b3c4914610050575b600080fd5b61004e6100493660046106ee565b61007a565b005b61006361005e36600461073b565b61025d565b60405161007192919061078b565b60405180910390f35b336001600160a01b037f000000000000000000000000000000000000000000000000000000000000000016146101015760405162461bcd60e51b815260206004820152602160248201527f4f6e6c79204d4356322063616e2063616c6c20746869732066756e6374696f6e6044820152601760f91b60648201526084015b60405180910390fd5b6000670de0b6b3a7640000610136847f0000000000000000000000000000000000000000000000000000000000000000610378565b6101409190610841565b6040516370a0823160e01b81523060048201529091506000906001600160a01b037f000000000000000000000000000000000000000000000000000000000000000016906370a082319060240160206040518083038186803b1580156101a557600080fd5b505afa1580156101b9573d6000803e3d6000fd5b505050506040513d601f19601f820116820180604052508101906101dd91906106d6565b9050808211156102205761021b6001600160a01b037f00000000000000000000000000000000000000000000000000000000000000001686836103ee565b610254565b6102546001600160a01b037f00000000000000000000000000000000000000000000000000000000000000001686846103ee565b50505050505050565b6040805160018082528183019092526060918291600091602080830190803683370190505090507f0000000000000000000000000000000000000000000000000000000000000000816000815181106102c657634e487b7160e01b600052603260045260246000fd5b6001600160a01b039290921660209283029190910190910152604080516001808252818301909252600091816020016020820280368337019050509050670de0b6b3a7640000610336867f0000000000000000000000000000000000000000000000000000000000000000610378565b6103409190610841565b8160008151811061036157634e487b7160e01b600052603260045260246000fd5b602090810291909101015290969095509350505050565b600081158061039c5750828261038e8183610861565b925061039a9083610841565b145b6103e85760405162461bcd60e51b815260206004820152601860248201527f426f72696e674d6174683a204d756c204f766572666c6f77000000000000000060448201526064016100f8565b92915050565b604080516001600160a01b038416602482015260448082018490528251808303909101815260649091019091526020810180516001600160e01b031663a9059cbb60e01b179052610440908490610445565b505050565b600061049a826040518060400160405280602081526020017f5361666545524332303a206c6f772d6c6576656c2063616c6c206661696c6564815250856001600160a01b03166105179092919063ffffffff16565b80519091501561044057808060200190518101906104b891906106b6565b6104405760405162461bcd60e51b815260206004820152602a60248201527f5361666545524332303a204552433230206f7065726174696f6e20646964206e6044820152691bdd081cdd58d8d9595960b21b60648201526084016100f8565b60606105268484600085610530565b90505b9392505050565b6060824710156105915760405162461bcd60e51b815260206004820152602660248201527f416464726573733a20696e73756666696369656e742062616c616e636520666f6044820152651c8818d85b1b60d21b60648201526084016100f8565b6001600160a01b0385163b6105e85760405162461bcd60e51b815260206004820152601d60248201527f416464726573733a2063616c6c20746f206e6f6e2d636f6e747261637400000060448201526064016100f8565b600080866001600160a01b03168587604051610604919061076f565b60006040518083038185875af1925050503d8060008114610641576040519150601f19603f3d011682016040523d82523d6000602084013e610646565b606091505b5091509150610656828286610661565b979650505050505050565b60608315610670575081610529565b8251156106805782518084602001fd5b8160405162461bcd60e51b81526004016100f8919061080e565b80356001600160a01b03811681146106b157600080fd5b919050565b6000602082840312156106c7578081fd5b81518015158114610529578182fd5b6000602082840312156106e7578081fd5b5051919050565b600080600080600060a08688031215610705578081fd5b853594506107156020870161069a565b93506107236040870161069a565b94979396509394606081013594506080013592915050565b60008060006060848603121561074f578283fd5b8335925061075f6020850161069a565b9150604084013590509250925092565b6000825161078181846020870161088c565b9190910192915050565b604080825283519082018190526000906020906060840190828701845b828110156107cd5781516001600160a01b0316845292840192908401906001016107a8565b50505083810382850152845180825285830191830190845b81811015610801578351835292840192918401916001016107e5565b5090979650505050505050565b602081526000825180602084015261082d81604085016020870161088c565b601f01601f19169190910160400192915050565b60008261085c57634e487b7160e01b81526012600452602481fd5b500490565b600081600019048311821515161561088757634e487b7160e01b81526011600452602481fd5b500290565b60005b838110156108a757818101518382015260200161088f565b838111156108b6576000848401525b5050505056fea2646970667358221220f2a7ddb13de544fb62b4069f3e9ef84622dd62d4759d7d81137e87d5c3b67ef064736f6c63430008040033",
  "linkReferences": {},
  "deployedLinkReferences": {}
}