{
  "_format": "hh-sol-artifact-1",
  "contractName": "KaidexMasterChefV2",
  "sourceName": "contracts/farming/KaidexMasterChefV2.sol",
  "abi": [
    {
      "inputs": [
        {
          "internalType": "contract IMasterChef",
          "name": "_MASTER_CHEF",
          "type": "address"
        },
        {
          "internalType": "contract IERC20",
          "name": "_kdx",
          "type": "address"
        },
        {
          "internalType": "uint256",
          "name": "_MASTER_PID",
          "type": "uint256"
        }
      ],
      "stateMutability": "nonpayable",
      "type": "constructor"
    },
    {
      "anonymous": false,
      "inputs": [
        {
          "indexed": true,
          "internalType": "address",
          "name": "user",
          "type": "address"
        },
        {
          "indexed": true,
          "internalType": "uint256",
          "name": "pid",
          "type": "uint256"
        },
        {
          "indexed": false,
          "internalType": "uint256",
          "name": "amount",
          "type": "uint256"
        },
        {
          "indexed": true,
          "internalType": "address",
          "name": "to",
          "type": "address"
        }
      ],
      "name": "Deposit",
      "type": "event"
    },
    {
      "anonymous": false,
      "inputs": [
        {
          "indexed": true,
          "internalType": "address",
          "name": "user",
          "type": "address"
        },
        {
          "indexed": true,
          "internalType": "uint256",
          "name": "pid",
          "type": "uint256"
        },
        {
          "indexed": false,
          "internalType": "uint256",
          "name": "amount",
          "type": "uint256"
        },
        {
          "indexed": true,
          "internalType": "address",
          "name": "to",
          "type": "address"
        }
      ],
      "name": "EmergencyWithdraw",
      "type": "event"
    },
    {
      "anonymous": false,
      "inputs": [
        {
          "indexed": true,
          "internalType": "address",
          "name": "user",
          "type": "address"
        },
        {
          "indexed": true,
          "internalType": "uint256",
          "name": "pid",
          "type": "uint256"
        },
        {
          "indexed": false,
          "internalType": "uint256",
          "name": "amount",
          "type": "uint256"
        }
      ],
      "name": "Harvest",
      "type": "event"
    },
    {
      "anonymous": false,
      "inputs": [],
      "name": "LogInit",
      "type": "event"
    },
    {
      "anonymous": false,
      "inputs": [
        {
          "indexed": true,
          "internalType": "uint256",
          "name": "pid",
          "type": "uint256"
        },
        {
          "indexed": false,
          "internalType": "uint256",
          "name": "allocPoint",
          "type": "uint256"
        },
        {
          "indexed": true,
          "internalType": "contract IERC20",
          "name": "lpToken",
          "type": "address"
        },
        {
          "indexed": true,
          "internalType": "contract IRewarder",
          "name": "rewarder",
          "type": "address"
        }
      ],
      "name": "LogPoolAddition",
      "type": "event"
    },
    {
      "anonymous": false,
      "inputs": [
        {
          "indexed": true,
          "internalType": "uint256",
          "name": "pid",
          "type": "uint256"
        },
        {
          "indexed": false,
          "internalType": "uint256",
          "name": "allocPoint",
          "type": "uint256"
        },
        {
          "indexed": true,
          "internalType": "contract IRewarder",
          "name": "rewarder",
          "type": "address"
        },
        {
          "indexed": false,
          "internalType": "bool",
          "name": "overwrite",
          "type": "bool"
        }
      ],
      "name": "LogSetPool",
      "type": "event"
    },
    {
      "anonymous": false,
      "inputs": [
        {
          "indexed": true,
          "internalType": "uint256",
          "name": "pid",
          "type": "uint256"
        },
        {
          "indexed": false,
          "internalType": "uint64",
          "name": "lastRewardBlock",
          "type": "uint64"
        },
        {
          "indexed": false,
          "internalType": "uint256",
          "name": "lpSupply",
          "type": "uint256"
        },
        {
          "indexed": false,
          "internalType": "uint256",
          "name": "accKdxPerShare",
          "type": "uint256"
        }
      ],
      "name": "LogUpdatePool",
      "type": "event"
    },
    {
      "anonymous": false,
      "inputs": [
        {
          "indexed": true,
          "internalType": "address",
          "name": "previousOwner",
          "type": "address"
        },
        {
          "indexed": true,
          "internalType": "address",
          "name": "newOwner",
          "type": "address"
        }
      ],
      "name": "OwnershipTransferred",
      "type": "event"
    },
    {
      "anonymous": false,
      "inputs": [
        {
          "indexed": true,
          "internalType": "address",
          "name": "user",
          "type": "address"
        },
        {
          "indexed": true,
          "internalType": "uint256",
          "name": "pid",
          "type": "uint256"
        },
        {
          "indexed": false,
          "internalType": "uint256",
          "name": "amount",
          "type": "uint256"
        },
        {
          "indexed": true,
          "internalType": "address",
          "name": "to",
          "type": "address"
        }
      ],
      "name": "Withdraw",
      "type": "event"
    },
    {
      "inputs": [],
      "name": "KDX",
      "outputs": [
        {
          "internalType": "contract IERC20",
          "name": "",
          "type": "address"
        }
      ],
      "stateMutability": "view",
      "type": "function"
    },
    {
      "inputs": [],
      "name": "MASTER_CHEF",
      "outputs": [
        {
          "internalType": "contract IMasterChef",
          "name": "",
          "type": "address"
        }
      ],
      "stateMutability": "view",
      "type": "function"
    },
    {
      "inputs": [],
      "name": "MASTER_PID",
      "outputs": [
        {
          "internalType": "uint256",
          "name": "",
          "type": "uint256"
        }
      ],
      "stateMutability": "view",
      "type": "function"
    },
    {
      "inputs": [
        {
          "internalType": "uint256",
          "name": "allocPoint",
          "type": "uint256"
        },
        {
          "internalType": "contract IERC20",
          "name": "_lpToken",
          "type": "address"
        },
        {
          "internalType": "contract IRewarder",
          "name": "_rewarder",
          "type": "address"
        }
      ],
      "name": "add",
      "outputs": [],
      "stateMutability": "nonpayable",
      "type": "function"
    },
    {
      "inputs": [
        {
          "internalType": "uint256",
          "name": "pid",
          "type": "uint256"
        },
        {
          "internalType": "uint256",
          "name": "amount",
          "type": "uint256"
        },
        {
          "internalType": "address",
          "name": "to",
          "type": "address"
        }
      ],
      "name": "deposit",
      "outputs": [],
      "stateMutability": "nonpayable",
      "type": "function"
    },
    {
      "inputs": [
        {
          "internalType": "uint256",
          "name": "pid",
          "type": "uint256"
        },
        {
          "internalType": "address",
          "name": "to",
          "type": "address"
        }
      ],
      "name": "emergencyWithdraw",
      "outputs": [],
      "stateMutability": "nonpayable",
      "type": "function"
    },
    {
      "inputs": [
        {
          "internalType": "uint256",
          "name": "pid",
          "type": "uint256"
        },
        {
          "internalType": "address",
          "name": "to",
          "type": "address"
        }
      ],
      "name": "harvest",
      "outputs": [],
      "stateMutability": "nonpayable",
      "type": "function"
    },
    {
      "inputs": [],
      "name": "harvestFromMasterChef",
      "outputs": [],
      "stateMutability": "nonpayable",
      "type": "function"
    },
    {
      "inputs": [
        {
          "internalType": "contract IERC20",
          "name": "dummyToken",
          "type": "address"
        }
      ],
      "name": "init",
      "outputs": [],
      "stateMutability": "nonpayable",
      "type": "function"
    },
    {
      "inputs": [],
      "name": "kdxPerBlock",
      "outputs": [
        {
          "internalType": "uint256",
          "name": "amount",
          "type": "uint256"
        }
      ],
      "stateMutability": "view",
      "type": "function"
    },
    {
      "inputs": [
        {
          "internalType": "uint256",
          "name": "",
          "type": "uint256"
        }
      ],
      "name": "lpToken",
      "outputs": [
        {
          "internalType": "contract IERC20",
          "name": "",
          "type": "address"
        }
      ],
      "stateMutability": "view",
      "type": "function"
    },
    {
      "inputs": [
        {
          "internalType": "uint256[]",
          "name": "pids",
          "type": "uint256[]"
        }
      ],
      "name": "massUpdatePools",
      "outputs": [],
      "stateMutability": "nonpayable",
      "type": "function"
    },
    {
      "inputs": [],
      "name": "owner",
      "outputs": [
        {
          "internalType": "address",
          "name": "",
          "type": "address"
        }
      ],
      "stateMutability": "view",
      "type": "function"
    },
    {
      "inputs": [
        {
          "internalType": "uint256",
          "name": "_pid",
          "type": "uint256"
        },
        {
          "internalType": "address",
          "name": "_user",
          "type": "address"
        }
      ],
      "name": "pendingKDX",
      "outputs": [
        {
          "internalType": "uint256",
          "name": "pending",
          "type": "uint256"
        }
      ],
      "stateMutability": "view",
      "type": "function"
    },
    {
      "inputs": [
        {
          "internalType": "uint256",
          "name": "",
          "type": "uint256"
        }
      ],
      "name": "poolInfo",
      "outputs": [
        {
          "internalType": "uint128",
          "name": "accKdxPerShare",
          "type": "uint128"
        },
        {
          "internalType": "uint64",
          "name": "lastRewardBlock",
          "type": "uint64"
        },
        {
          "internalType": "uint64",
          "name": "allocPoint",
          "type": "uint64"
        }
      ],
      "stateMutability": "view",
      "type": "function"
    },
    {
      "inputs": [],
      "name": "poolLength",
      "outputs": [
        {
          "internalType": "uint256",
          "name": "pools",
          "type": "uint256"
        }
      ],
      "stateMutability": "view",
      "type": "function"
    },
    {
      "inputs": [],
      "name": "renounceOwnership",
      "outputs": [],
      "stateMutability": "nonpayable",
      "type": "function"
    },
    {
      "inputs": [
        {
          "internalType": "uint256",
          "name": "",
          "type": "uint256"
        }
      ],
      "name": "rewarder",
      "outputs": [
        {
          "internalType": "contract IRewarder",
          "name": "",
          "type": "address"
        }
      ],
      "stateMutability": "view",
      "type": "function"
    },
    {
      "inputs": [
        {
          "internalType": "uint256",
          "name": "_pid",
          "type": "uint256"
        },
        {
          "internalType": "uint256",
          "name": "_allocPoint",
          "type": "uint256"
        },
        {
          "internalType": "contract IRewarder",
          "name": "_rewarder",
          "type": "address"
        },
        {
          "internalType": "bool",
          "name": "overwrite",
          "type": "bool"
        }
      ],
      "name": "set",
      "outputs": [],
      "stateMutability": "nonpayable",
      "type": "function"
    },
    {
      "inputs": [],
      "name": "totalAllocPoint",
      "outputs": [
        {
          "internalType": "uint256",
          "name": "",
          "type": "uint256"
        }
      ],
      "stateMutability": "view",
      "type": "function"
    },
    {
      "inputs": [
        {
          "internalType": "address",
          "name": "newOwner",
          "type": "address"
        }
      ],
      "name": "transferOwnership",
      "outputs": [],
      "stateMutability": "nonpayable",
      "type": "function"
    },
    {
      "inputs": [
        {
          "internalType": "uint256",
          "name": "pid",
          "type": "uint256"
        }
      ],
      "name": "updatePool",
      "outputs": [
        {
          "components": [
            {
              "internalType": "uint128",
              "name": "accKdxPerShare",
              "type": "uint128"
            },
            {
              "internalType": "uint64",
              "name": "lastRewardBlock",
              "type": "uint64"
            },
            {
              "internalType": "uint64",
              "name": "allocPoint",
              "type": "uint64"
            }
          ],
          "internalType": "struct KaidexMasterChefV2.PoolInfo",
          "name": "pool",
          "type": "tuple"
        }
      ],
      "stateMutability": "nonpayable",
      "type": "function"
    },
    {
      "inputs": [
        {
          "internalType": "uint256",
          "name": "",
          "type": "uint256"
        },
        {
          "internalType": "address",
          "name": "",
          "type": "address"
        }
      ],
      "name": "userInfo",
      "outputs": [
        {
          "internalType": "uint256",
          "name": "amount",
          "type": "uint256"
        },
        {
          "internalType": "int256",
          "name": "rewardDebt",
          "type": "int256"
        }
      ],
      "stateMutability": "view",
      "type": "function"
    },
    {
      "inputs": [
        {
          "internalType": "uint256",
          "name": "pid",
          "type": "uint256"
        },
        {
          "internalType": "uint256",
          "name": "amount",
          "type": "uint256"
        },
        {
          "internalType": "address",
          "name": "to",
          "type": "address"
        }
      ],
      "name": "withdraw",
      "outputs": [],
      "stateMutability": "nonpayable",
      "type": "function"
    },
    {
      "inputs": [
        {
          "internalType": "uint256",
          "name": "pid",
          "type": "uint256"
        },
        {
          "internalType": "uint256",
          "name": "amount",
          "type": "uint256"
        },
        {
          "internalType": "address",
          "name": "to",
          "type": "address"
        }
      ],
      "name": "withdrawAndHarvest",
      "outputs": [],
      "stateMutability": "nonpayable",
      "type": "function"
    }
  ],
  "bytecode": "0x60e06040523480156200001157600080fd5b5060405162004b7838038062004b788339818101604052810190620000379190620001e7565b620000576200004b620000d660201b60201c565b620000de60201b60201c565b8273ffffffffffffffffffffffffffffffffffffffff1660808173ffffffffffffffffffffffffffffffffffffffff1660601b815250508173ffffffffffffffffffffffffffffffffffffffff1660a08173ffffffffffffffffffffffffffffffffffffffff1660601b815250508060c08181525050505050620002f1565b600033905090565b60008060009054906101000a900473ffffffffffffffffffffffffffffffffffffffff169050816000806101000a81548173ffffffffffffffffffffffffffffffffffffffff021916908373ffffffffffffffffffffffffffffffffffffffff1602179055508173ffffffffffffffffffffffffffffffffffffffff168173ffffffffffffffffffffffffffffffffffffffff167f8be0079c531659141344cd1fd0a4f28419497f9722a3daafe3b4186f6b6457e060405160405180910390a35050565b600081519050620001b381620002a3565b92915050565b600081519050620001ca81620002bd565b92915050565b600081519050620001e181620002d7565b92915050565b600080600060608486031215620001fd57600080fd5b60006200020d86828701620001b9565b93505060206200022086828701620001a2565b92505060406200023386828701620001d0565b9150509250925092565b60006200024a8262000279565b9050919050565b60006200025e826200023d565b9050919050565b600062000272826200023d565b9050919050565b600073ffffffffffffffffffffffffffffffffffffffff82169050919050565b6000819050919050565b620002ae8162000251565b8114620002ba57600080fd5b50565b620002c88162000265565b8114620002d457600080fd5b50565b620002e28162000299565b8114620002ee57600080fd5b50565b60805160601c60a05160601c60c0516148046200037460003960008181610c9901528181610ff50152818161154001526116430152600081816108fd01528181611e79015261231e015260008181610bcb01528181610c5d01528181610fb90152818161156601528181611607015281816116d4015261294701526148046000f3fe608060405234801561001057600080fd5b50600436106101735760003560e01c8063715018a6116100de5780639dd0249411610097578063d1abb90711610071578063d1abb90714610413578063dadf21441461042f578063edd8b1701461045f578063f2fde38b1461047d57610173565b80639dd02494146103a9578063ab7de098146103c7578063c346253d146103e357610173565b8063715018a6146102e857806378ed5d1f146102f257806388bba42f146103225780638da5cb5b1461033e5780638dbdbe6d1461035c57806393f1a40b1461037857610173565b80632f940c70116101305780632f940c701461023a5780634f70b15a1461025657806351eb05a61461026057806357a5b58c1461029057806361621aaa146102ac578063662b5fbe146102ca57610173565b8063081e3eda146101785780630ad58d2f146101965780631526fe27146101b257806317caf6f1146101e457806318fccc761461020257806319ab453c1461021e575b600080fd5b610180610499565b60405161018d9190613cef565b60405180910390f35b6101b060048036038101906101ab91906135cd565b6104a6565b005b6101cc60048036038101906101c791906134f0565b610798565b6040516101db93929190613cb8565b60405180910390f35b6101ec610812565b6040516101f99190613cef565b60405180910390f35b61021c60048036038101906102179190613542565b610818565b005b6102386004803603810190610233919061349e565b610aaf565b005b610254600480360381019061024f9190613542565b610d38565b005b61025e610fb7565b005b61027a600480360381019061027591906134f0565b611067565b6040516102879190613c9d565b60405180910390f35b6102aa60048036038101906102a59190613430565b6114cb565b005b6102b461153e565b6040516102c19190613cef565b60405180910390f35b6102d2611562565b6040516102df9190613cef565b60405180910390f35b6102f061178d565b005b61030c600480360381019061030791906134f0565b611815565b6040516103199190613a6a565b60405180910390f35b61033c6004803603810190610337919061361c565b611854565b005b610346611b29565b60405161035391906139ef565b60405180910390f35b610376600480360381019061037191906135cd565b611b52565b005b610392600480360381019061038d9190613542565b611e46565b6040516103a0929190613e2c565b60405180910390f35b6103b1611e77565b6040516103be9190613a6a565b60405180910390f35b6103e160048036038101906103dc919061357e565b611e9b565b005b6103fd60048036038101906103f891906134f0565b612199565b60405161040a9190613aa0565b60405180910390f35b61042d600480360381019061042891906135cd565b6121d8565b005b61044960048036038101906104449190613542565b6125c5565b6040516104569190613cef565b60405180910390f35b610467612945565b6040516104749190613a85565b60405180910390f35b61049760048036038101906104929190613407565b612969565b005b6000600180549050905090565b6104ae610fb7565b60006104b984611067565b905060006004600086815260200190815260200160002060003373ffffffffffffffffffffffffffffffffffffffff1673ffffffffffffffffffffffffffffffffffffffff168152602001908152602001600020905061055e64e8d4a5100061054184600001516fffffffffffffffffffffffffffffffff1687612a6190919063ffffffff16565b61054b9190614065565b8260010154612ace90919063ffffffff16565b816001018190555061057d848260000154612b4f90919063ffffffff16565b81600001819055506000600386815481106105c1577f4e487b7100000000000000000000000000000000000000000000000000000000600052603260045260246000fd5b9060005260206000200160009054906101000a900473ffffffffffffffffffffffffffffffffffffffff169050600073ffffffffffffffffffffffffffffffffffffffff168173ffffffffffffffffffffffffffffffffffffffff161461069b578073ffffffffffffffffffffffffffffffffffffffff1663860cbfe4873387600087600001546040518663ffffffff1660e01b8152600401610668959493929190613d5d565b600060405180830381600087803b15801561068257600080fd5b505af1158015610696573d6000803e3d6000fd5b505050505b61072a8486600289815481106106da577f4e487b7100000000000000000000000000000000000000000000000000000000600052603260045260246000fd5b9060005260206000200160009054906101000a900473ffffffffffffffffffffffffffffffffffffffff1673ffffffffffffffffffffffffffffffffffffffff16612ba89092919063ffffffff16565b8373ffffffffffffffffffffffffffffffffffffffff16863373ffffffffffffffffffffffffffffffffffffffff167f8166bf25f8a2b7ed3c85049207da4358d16edbed977d23fa2ee6f0dde3ec2132886040516107889190613cef565b60405180910390a4505050505050565b600181815481106107a857600080fd5b906000526020600020016000915090508060000160009054906101000a90046fffffffffffffffffffffffffffffffff16908060000160109054906101000a900467ffffffffffffffff16908060000160189054906101000a900467ffffffffffffffff16905083565b60055481565b610820610fb7565b600061082b83611067565b905060006004600085815260200190815260200160002060003373ffffffffffffffffffffffffffffffffffffffff1673ffffffffffffffffffffffffffffffffffffffff1681526020019081526020016000209050600064e8d4a510006108b684600001516fffffffffffffffffffffffffffffffff168460000154612a6190919063ffffffff16565b6108c09190614065565b905060006108e36108de846001015484612ace90919063ffffffff16565b612c2e565b9050818360010181905550600081146109425761094185827f000000000000000000000000000000000000000000000000000000000000000073ffffffffffffffffffffffffffffffffffffffff16612ba89092919063ffffffff16565b5b60006003878154811061097e577f4e487b7100000000000000000000000000000000000000000000000000000000600052603260045260246000fd5b9060005260206000200160009054906101000a900473ffffffffffffffffffffffffffffffffffffffff169050600073ffffffffffffffffffffffffffffffffffffffff168173ffffffffffffffffffffffffffffffffffffffff1614610a57578073ffffffffffffffffffffffffffffffffffffffff1663860cbfe48833898689600001546040518663ffffffff1660e01b8152600401610a24959493929190613db0565b600060405180830381600087803b158015610a3e57600080fd5b505af1158015610a52573d6000803e3d6000fd5b505050505b863373ffffffffffffffffffffffffffffffffffffffff167f71bab65ced2e5750775a0613be067df48ef06cf92a496ebf7663ae066092495484604051610a9e9190613cef565b60405180910390a350505050505050565b60008173ffffffffffffffffffffffffffffffffffffffff166370a08231336040518263ffffffff1660e01b8152600401610aea91906139ef565b60206040518083038186803b158015610b0257600080fd5b505afa158015610b16573d6000803e3d6000fd5b505050506040513d601f19601f82011682018060405250810190610b3a9190613519565b90506000811415610b80576040517f08c379a0000000000000000000000000000000000000000000000000000000008152600401610b7790613b1d565b60405180910390fd5b610bad3330838573ffffffffffffffffffffffffffffffffffffffff16612c7b909392919063ffffffff16565b8173ffffffffffffffffffffffffffffffffffffffff1663095ea7b37f0000000000000000000000000000000000000000000000000000000000000000836040518363ffffffff1660e01b8152600401610c08929190613a41565b602060405180830381600087803b158015610c2257600080fd5b505af1158015610c36573d6000803e3d6000fd5b505050506040513d601f19601f82011682018060405250810190610c5a9190613475565b507f000000000000000000000000000000000000000000000000000000000000000073ffffffffffffffffffffffffffffffffffffffff1663e2bbb1587f0000000000000000000000000000000000000000000000000000000000000000836040518363ffffffff1660e01b8152600401610cd6929190613e7e565b600060405180830381600087803b158015610cf057600080fd5b505af1158015610d04573d6000803e3d6000fd5b505050507f98a9bd3b7a617581fc53b1e2992534e0e0cb5091c9d44aa1a7fc978f706caa8360405160405180910390a15050565b60006004600084815260200190815260200160002060003373ffffffffffffffffffffffffffffffffffffffff1673ffffffffffffffffffffffffffffffffffffffff16815260200190815260200160002090506000816000015490506000826000018190555060008260010181905550600060038581548110610de5577f4e487b7100000000000000000000000000000000000000000000000000000000600052603260045260246000fd5b9060005260206000200160009054906101000a900473ffffffffffffffffffffffffffffffffffffffff169050600073ffffffffffffffffffffffffffffffffffffffff168173ffffffffffffffffffffffffffffffffffffffff1614610ebb578073ffffffffffffffffffffffffffffffffffffffff1663860cbfe48633876000806040518663ffffffff1660e01b8152600401610e88959493929190613d0a565b600060405180830381600087803b158015610ea257600080fd5b505af1158015610eb6573d6000803e3d6000fd5b505050505b610f4a848360028881548110610efa577f4e487b7100000000000000000000000000000000000000000000000000000000600052603260045260246000fd5b9060005260206000200160009054906101000a900473ffffffffffffffffffffffffffffffffffffffff1673ffffffffffffffffffffffffffffffffffffffff16612ba89092919063ffffffff16565b8373ffffffffffffffffffffffffffffffffffffffff16853373ffffffffffffffffffffffffffffffffffffffff167f2cac5e20e1541d836381527a43f651851e302817b71dc8e810284e69210c1c6b85604051610fa89190613cef565b60405180910390a45050505050565b7f000000000000000000000000000000000000000000000000000000000000000073ffffffffffffffffffffffffffffffffffffffff1663e2bbb1587f000000000000000000000000000000000000000000000000000000000000000060006040518363ffffffff1660e01b8152600401611033929190613e55565b600060405180830381600087803b15801561104d57600080fd5b505af1158015611061573d6000803e3d6000fd5b50505050565b61106f61325a565b600182815481106110a9577f4e487b7100000000000000000000000000000000000000000000000000000000600052603260045260246000fd5b906000526020600020016040518060600160405290816000820160009054906101000a90046fffffffffffffffffffffffffffffffff166fffffffffffffffffffffffffffffffff166fffffffffffffffffffffffffffffffff1681526020016000820160109054906101000a900467ffffffffffffffff1667ffffffffffffffff1667ffffffffffffffff1681526020016000820160189054906101000a900467ffffffffffffffff1667ffffffffffffffff1667ffffffffffffffff16815250509050806020015167ffffffffffffffff164311156114c6576000600283815481106111c0577f4e487b7100000000000000000000000000000000000000000000000000000000600052603260045260246000fd5b9060005260206000200160009054906101000a900473ffffffffffffffffffffffffffffffffffffffff1673ffffffffffffffffffffffffffffffffffffffff166370a08231306040518263ffffffff1660e01b815260040161122391906139ef565b60206040518083038186803b15801561123b57600080fd5b505afa15801561124f573d6000803e3d6000fd5b505050506040513d601f19601f820116820180604052508101906112739190613519565b905060008111156113735760006112a1836020015167ffffffffffffffff1643612b4f90919063ffffffff16565b905060006005546112e2856040015167ffffffffffffffff166112d46112c5611562565b86612a6190919063ffffffff16565b612a6190919063ffffffff16565b6112ec9190614065565b905061134161131c8461130d64e8d4a5100085612a6190919063ffffffff16565b6113179190614065565b612d04565b85600001516fffffffffffffffffffffffffffffffff16612d6390919063ffffffff16565b84600001906fffffffffffffffffffffffffffffffff1690816fffffffffffffffffffffffffffffffff168152505050505b61137c43612de0565b826020019067ffffffffffffffff16908167ffffffffffffffff168152505081600184815481106113d6577f4e487b7100000000000000000000000000000000000000000000000000000000600052603260045260246000fd5b9060005260206000200160008201518160000160006101000a8154816fffffffffffffffffffffffffffffffff02191690836fffffffffffffffffffffffffffffffff16021790555060208201518160000160106101000a81548167ffffffffffffffff021916908367ffffffffffffffff16021790555060408201518160000160186101000a81548167ffffffffffffffff021916908367ffffffffffffffff160217905550905050827f0fc9545022a542541ad085d091fb09a2ab36fee366a4576ab63714ea907ad35383602001518385600001516040516114bc93929190613ea7565b60405180910390a2505b919050565b600082829050905060005b818110156115385761152684848381811061151a577f4e487b7100000000000000000000000000000000000000000000000000000000600052603260045260246000fd5b90506020020135611067565b508061153190614352565b90506114d6565b50505050565b7f000000000000000000000000000000000000000000000000000000000000000081565b60007f000000000000000000000000000000000000000000000000000000000000000073ffffffffffffffffffffffffffffffffffffffff166317caf6f16040518163ffffffff1660e01b815260040160206040518083038186803b1580156115ca57600080fd5b505afa1580156115de573d6000803e3d6000fd5b505050506040513d601f19601f820116820180604052508101906116029190613519565b61177e7f000000000000000000000000000000000000000000000000000000000000000073ffffffffffffffffffffffffffffffffffffffff16631526fe277f00000000000000000000000000000000000000000000000000000000000000006040518263ffffffff1660e01b815260040161167e9190613cef565b60806040518083038186803b15801561169657600080fd5b505afa1580156116aa573d6000803e3d6000fd5b505050506040513d601f19601f820116820180604052508101906116ce91906134c7565b602001517f000000000000000000000000000000000000000000000000000000000000000073ffffffffffffffffffffffffffffffffffffffff1663662b5fbe6040518163ffffffff1660e01b815260040160206040518083038186803b15801561173857600080fd5b505afa15801561174c573d6000803e3d6000fd5b505050506040513d601f19601f820116820180604052508101906117709190613519565b612a6190919063ffffffff16565b6117889190614065565b905090565b611795612e37565b73ffffffffffffffffffffffffffffffffffffffff166117b3611b29565b73ffffffffffffffffffffffffffffffffffffffff1614611809576040517f08c379a000000000000000000000000000000000000000000000000000000000815260040161180090613bdd565b60405180910390fd5b6118136000612e3f565b565b6002818154811061182557600080fd5b906000526020600020016000915054906101000a900473ffffffffffffffffffffffffffffffffffffffff1681565b61185c612e37565b73ffffffffffffffffffffffffffffffffffffffff1661187a611b29565b73ffffffffffffffffffffffffffffffffffffffff16146118d0576040517f08c379a00000000000000000000000000000000000000000000000000000000081526004016118c790613bdd565b60405180910390fd5b61195c8361194e60018781548110611911577f4e487b7100000000000000000000000000000000000000000000000000000000600052603260045260246000fd5b9060005260206000200160000160189054906101000a900467ffffffffffffffff1667ffffffffffffffff16600554612b4f90919063ffffffff16565b612f0390919063ffffffff16565b60058190555061196b83612de0565b600185815481106119a5577f4e487b7100000000000000000000000000000000000000000000000000000000600052603260045260246000fd5b9060005260206000200160000160186101000a81548167ffffffffffffffff021916908367ffffffffffffffff1602179055508015611a62578160038581548110611a19577f4e487b7100000000000000000000000000000000000000000000000000000000600052603260045260246000fd5b9060005260206000200160006101000a81548173ffffffffffffffffffffffffffffffffffffffff021916908373ffffffffffffffffffffffffffffffffffffffff1602179055505b80611ad15760038481548110611aa1577f4e487b7100000000000000000000000000000000000000000000000000000000600052603260045260246000fd5b9060005260206000200160009054906101000a900473ffffffffffffffffffffffffffffffffffffffff16611ad3565b815b73ffffffffffffffffffffffffffffffffffffffff16847f95895a6ab1df54420d241b55243258a33e61b2194db66c1179ec521aae8e18658584604051611b1b929190613e03565b60405180910390a350505050565b60008060009054906101000a900473ffffffffffffffffffffffffffffffffffffffff16905090565b611b5a610fb7565b6000611b6584611067565b905060006004600086815260200190815260200160002060008473ffffffffffffffffffffffffffffffffffffffff1673ffffffffffffffffffffffffffffffffffffffff1681526020019081526020016000209050611bd2848260000154612f0390919063ffffffff16565b8160000181905550611c2964e8d4a51000611c0c84600001516fffffffffffffffffffffffffffffffff1687612a6190919063ffffffff16565b611c169190614065565b8260010154612f5c90919063ffffffff16565b8160010181905550600060038681548110611c6d577f4e487b7100000000000000000000000000000000000000000000000000000000600052603260045260246000fd5b9060005260206000200160009054906101000a900473ffffffffffffffffffffffffffffffffffffffff169050600073ffffffffffffffffffffffffffffffffffffffff168173ffffffffffffffffffffffffffffffffffffffff1614611d47578073ffffffffffffffffffffffffffffffffffffffff1663860cbfe4878687600087600001546040518663ffffffff1660e01b8152600401611d14959493929190613d5d565b600060405180830381600087803b158015611d2e57600080fd5b505af1158015611d42573d6000803e3d6000fd5b505050505b611dd833308760028a81548110611d87577f4e487b7100000000000000000000000000000000000000000000000000000000600052603260045260246000fd5b9060005260206000200160009054906101000a900473ffffffffffffffffffffffffffffffffffffffff1673ffffffffffffffffffffffffffffffffffffffff16612c7b909392919063ffffffff16565b8373ffffffffffffffffffffffffffffffffffffffff16863373ffffffffffffffffffffffffffffffffffffffff167f02d7e648dd130fc184d383e55bb126ac4c9c60e8f94bf05acdf557ba2d540b4788604051611e369190613cef565b60405180910390a4505050505050565b6004602052816000526040600020602052806000526040600020600091509150508060000154908060010154905082565b7f000000000000000000000000000000000000000000000000000000000000000081565b611ea3612e37565b73ffffffffffffffffffffffffffffffffffffffff16611ec1611b29565b73ffffffffffffffffffffffffffffffffffffffff1614611f17576040517f08c379a0000000000000000000000000000000000000000000000000000000008152600401611f0e90613bdd565b60405180910390fd5b6000439050611f3184600554612f0390919063ffffffff16565b6005819055506002839080600181540180825580915050600190039060005260206000200160009091909190916101000a81548173ffffffffffffffffffffffffffffffffffffffff021916908373ffffffffffffffffffffffffffffffffffffffff1602179055506003829080600181540180825580915050600190039060005260206000200160009091909190916101000a81548173ffffffffffffffffffffffffffffffffffffffff021916908373ffffffffffffffffffffffffffffffffffffffff1602179055506001604051806060016040528060006fffffffffffffffffffffffffffffffff16815260200161202c84612de0565b67ffffffffffffffff16815260200161204487612de0565b67ffffffffffffffff168152509080600181540180825580915050600190039060005260206000200160009091909190915060008201518160000160006101000a8154816fffffffffffffffffffffffffffffffff02191690836fffffffffffffffffffffffffffffffff16021790555060208201518160000160106101000a81548167ffffffffffffffff021916908367ffffffffffffffff16021790555060408201518160000160186101000a81548167ffffffffffffffff021916908367ffffffffffffffff16021790555050508173ffffffffffffffffffffffffffffffffffffffff168373ffffffffffffffffffffffffffffffffffffffff1661215c6001600280549050612b4f90919063ffffffff16565b7f81ee0f8c5c46e2cb41984886f77a84181724abb86c32a5f6de539b07509d45e58760405161218b9190613cef565b60405180910390a450505050565b600381815481106121a957600080fd5b906000526020600020016000915054906101000a900473ffffffffffffffffffffffffffffffffffffffff1681565b6121e0610fb7565b60006121eb84611067565b905060006004600086815260200190815260200160002060003373ffffffffffffffffffffffffffffffffffffffff1673ffffffffffffffffffffffffffffffffffffffff1681526020019081526020016000209050600064e8d4a5100061227684600001516fffffffffffffffffffffffffffffffff168460000154612a6190919063ffffffff16565b6122809190614065565b905060006122a361229e846001015484612ace90919063ffffffff16565b612c2e565b90506122f064e8d4a510006122d786600001516fffffffffffffffffffffffffffffffff1689612a6190919063ffffffff16565b6122e19190614065565b83612ace90919063ffffffff16565b836001018190555061230f868460000154612b4f90919063ffffffff16565b836000018190555061236285827f000000000000000000000000000000000000000000000000000000000000000073ffffffffffffffffffffffffffffffffffffffff16612ba89092919063ffffffff16565b60006003888154811061239e577f4e487b7100000000000000000000000000000000000000000000000000000000600052603260045260246000fd5b9060005260206000200160009054906101000a900473ffffffffffffffffffffffffffffffffffffffff169050600073ffffffffffffffffffffffffffffffffffffffff168173ffffffffffffffffffffffffffffffffffffffff1614612477578073ffffffffffffffffffffffffffffffffffffffff1663860cbfe48933898689600001546040518663ffffffff1660e01b8152600401612444959493929190613db0565b600060405180830381600087803b15801561245e57600080fd5b505af1158015612472573d6000803e3d6000fd5b505050505b612506868860028b815481106124b6577f4e487b7100000000000000000000000000000000000000000000000000000000600052603260045260246000fd5b9060005260206000200160009054906101000a900473ffffffffffffffffffffffffffffffffffffffff1673ffffffffffffffffffffffffffffffffffffffff16612ba89092919063ffffffff16565b8573ffffffffffffffffffffffffffffffffffffffff16883373ffffffffffffffffffffffffffffffffffffffff167f8166bf25f8a2b7ed3c85049207da4358d16edbed977d23fa2ee6f0dde3ec21328a6040516125649190613cef565b60405180910390a4873373ffffffffffffffffffffffffffffffffffffffff167f71bab65ced2e5750775a0613be067df48ef06cf92a496ebf7663ae0660924954846040516125b39190613cef565b60405180910390a35050505050505050565b60008060018481548110612602577f4e487b7100000000000000000000000000000000000000000000000000000000600052603260045260246000fd5b906000526020600020016040518060600160405290816000820160009054906101000a90046fffffffffffffffffffffffffffffffff166fffffffffffffffffffffffffffffffff166fffffffffffffffffffffffffffffffff1681526020016000820160109054906101000a900467ffffffffffffffff1667ffffffffffffffff1667ffffffffffffffff1681526020016000820160189054906101000a900467ffffffffffffffff1667ffffffffffffffff1667ffffffffffffffff1681525050905060006004600086815260200190815260200160002060008573ffffffffffffffffffffffffffffffffffffffff1673ffffffffffffffffffffffffffffffffffffffff1681526020019081526020016000209050600082600001516fffffffffffffffffffffffffffffffff169050600060028781548110612772577f4e487b7100000000000000000000000000000000000000000000000000000000600052603260045260246000fd5b9060005260206000200160009054906101000a900473ffffffffffffffffffffffffffffffffffffffff1673ffffffffffffffffffffffffffffffffffffffff166370a08231306040518263ffffffff1660e01b81526004016127d591906139ef565b60206040518083038186803b1580156127ed57600080fd5b505afa158015612801573d6000803e3d6000fd5b505050506040513d601f19601f820116820180604052508101906128259190613519565b9050836020015167ffffffffffffffff1643118015612845575060008114155b156128f457600061286d856020015167ffffffffffffffff1643612b4f90919063ffffffff16565b905060006005546128ae876040015167ffffffffffffffff166128a0612891611562565b86612a6190919063ffffffff16565b612a6190919063ffffffff16565b6128b89190614065565b90506128ef836128d664e8d4a5100084612a6190919063ffffffff16565b6128e09190614065565b85612f0390919063ffffffff16565b935050505b612939612934846001015464e8d4a5100061291c868860000154612a6190919063ffffffff16565b6129269190614065565b612ace90919063ffffffff16565b612c2e565b94505050505092915050565b7f000000000000000000000000000000000000000000000000000000000000000081565b612971612e37565b73ffffffffffffffffffffffffffffffffffffffff1661298f611b29565b73ffffffffffffffffffffffffffffffffffffffff16146129e5576040517f08c379a00000000000000000000000000000000000000000000000000000000081526004016129dc90613bdd565b60405180910390fd5b600073ffffffffffffffffffffffffffffffffffffffff168173ffffffffffffffffffffffffffffffffffffffff161415612a55576040517f08c379a0000000000000000000000000000000000000000000000000000000008152600401612a4c90613b3d565b60405180910390fd5b612a5e81612e3f565b50565b600080821480612a89575082828385612a7a9190614096565b925082612a879190614065565b145b612ac8576040517f08c379a0000000000000000000000000000000000000000000000000000000008152600401612abf90613c7d565b60405180910390fd5b92915050565b6000808284612add91906140f0565b905060008312158015612af05750838113155b80612b065750600083128015612b0557508381135b5b612b45576040517f08c379a0000000000000000000000000000000000000000000000000000000008152600401612b3c90613c3d565b60405180910390fd5b8091505092915050565b6000828284612b5e9190614184565b9150811115612ba2576040517f08c379a0000000000000000000000000000000000000000000000000000000008152600401612b9990613add565b60405180910390fd5b92915050565b612c298363a9059cbb60e01b8484604051602401612bc7929190613a41565b604051602081830303815290604052907bffffffffffffffffffffffffffffffffffffffffffffffffffffffff19166020820180517bffffffffffffffffffffffffffffffffffffffffffffffffffffffff8381831617835250505050612fdd565b505050565b600080821215612c73576040517f08c379a0000000000000000000000000000000000000000000000000000000008152600401612c6a90613afd565b60405180910390fd5b819050919050565b612cfe846323b872dd60e01b858585604051602401612c9c93929190613a0a565b604051602081830303815290604052907bffffffffffffffffffffffffffffffffffffffffffffffffffffffff19166020820180517bffffffffffffffffffffffffffffffffffffffffffffffffffffffff8381831617835250505050612fdd565b50505050565b60006fffffffffffffffffffffffffffffffff8016821115612d5b576040517f08c379a0000000000000000000000000000000000000000000000000000000008152600401612d5290613b9d565b60405180910390fd5b819050919050565b6000816fffffffffffffffffffffffffffffffff168284612d849190613fc9565b9150816fffffffffffffffffffffffffffffffff161015612dda576040517f08c379a0000000000000000000000000000000000000000000000000000000008152600401612dd190613bbd565b60405180910390fd5b92915050565b600067ffffffffffffffff8016821115612e2f576040517f08c379a0000000000000000000000000000000000000000000000000000000008152600401612e2690613bfd565b60405180910390fd5b819050919050565b600033905090565b60008060009054906101000a900473ffffffffffffffffffffffffffffffffffffffff169050816000806101000a81548173ffffffffffffffffffffffffffffffffffffffff021916908373ffffffffffffffffffffffffffffffffffffffff1602179055508173ffffffffffffffffffffffffffffffffffffffff168173ffffffffffffffffffffffffffffffffffffffff167f8be0079c531659141344cd1fd0a4f28419497f9722a3daafe3b4186f6b6457e060405160405180910390a35050565b6000818284612f12919061400f565b9150811015612f56576040517f08c379a0000000000000000000000000000000000000000000000000000000008152600401612f4d90613bbd565b60405180910390fd5b92915050565b6000808284612f6b9190613f35565b905060008312158015612f7e5750838112155b80612f945750600083128015612f9357508381125b5b612fd3576040517f08c379a0000000000000000000000000000000000000000000000000000000008152600401612fca90613b5d565b60405180910390fd5b8091505092915050565b600061303f826040518060400160405280602081526020017f5361666545524332303a206c6f772d6c6576656c2063616c6c206661696c65648152508573ffffffffffffffffffffffffffffffffffffffff166130a49092919063ffffffff16565b905060008151111561309f578080602001905181019061305f9190613475565b61309e576040517f08c379a000000000000000000000000000000000000000000000000000000000815260040161309590613c5d565b60405180910390fd5b5b505050565b60606130b384846000856130bc565b90509392505050565b606082471015613101576040517f08c379a00000000000000000000000000000000000000000000000000000000081526004016130f890613b7d565b60405180910390fd5b61310a856131d0565b613149576040517f08c379a000000000000000000000000000000000000000000000000000000000815260040161314090613c1d565b60405180910390fd5b6000808673ffffffffffffffffffffffffffffffffffffffff16858760405161317291906139d8565b60006040518083038185875af1925050503d80600081146131af576040519150601f19603f3d011682016040523d82523d6000602084013e6131b4565b606091505b50915091506131c48282866131f3565b92505050949350505050565b6000808273ffffffffffffffffffffffffffffffffffffffff163b119050919050565b6060831561320357829050613253565b6000835111156132165782518084602001fd5b816040517f08c379a000000000000000000000000000000000000000000000000000000000815260040161324a9190613abb565b60405180910390fd5b9392505050565b604051806060016040528060006fffffffffffffffffffffffffffffffff168152602001600067ffffffffffffffff168152602001600067ffffffffffffffff1681525090565b6000813590506132b08161475b565b92915050565b60008083601f8401126132c857600080fd5b8235905067ffffffffffffffff8111156132e157600080fd5b6020830191508360208202830111156132f957600080fd5b9250929050565b60008135905061330f81614772565b92915050565b60008151905061332481614772565b92915050565b60008135905061333981614789565b92915050565b60008151905061334e81614789565b92915050565b600081359050613363816147a0565b92915050565b60006080828403121561337b57600080fd5b6133856080613ede565b905060006133958482850161333f565b60008301525060206133a9848285016133f2565b60208301525060406133bd848285016133f2565b60408301525060606133d1848285016133f2565b60608301525092915050565b6000813590506133ec816147b7565b92915050565b600081519050613401816147b7565b92915050565b60006020828403121561341957600080fd5b6000613427848285016132a1565b91505092915050565b6000806020838503121561344357600080fd5b600083013567ffffffffffffffff81111561345d57600080fd5b613469858286016132b6565b92509250509250929050565b60006020828403121561348757600080fd5b600061349584828501613315565b91505092915050565b6000602082840312156134b057600080fd5b60006134be8482850161332a565b91505092915050565b6000608082840312156134d957600080fd5b60006134e784828501613369565b91505092915050565b60006020828403121561350257600080fd5b6000613510848285016133dd565b91505092915050565b60006020828403121561352b57600080fd5b6000613539848285016133f2565b91505092915050565b6000806040838503121561355557600080fd5b6000613563858286016133dd565b9250506020613574858286016132a1565b9150509250929050565b60008060006060848603121561359357600080fd5b60006135a1868287016133dd565b93505060206135b28682870161332a565b92505060406135c386828701613354565b9150509250925092565b6000806000606084860312156135e257600080fd5b60006135f0868287016133dd565b9350506020613601868287016133dd565b9250506040613612868287016132a1565b9150509250925092565b6000806000806080858703121561363257600080fd5b6000613640878288016133dd565b9450506020613651878288016133dd565b935050604061366287828801613354565b925050606061367387828801613300565b91505092959194509250565b613688816141b8565b82525050565b613697816141ca565b82525050565b60006136a882613f03565b6136b28185613f19565b93506136c28185602086016142ee565b80840191505092915050565b6136d78161425e565b82525050565b6136e681614282565b82525050565b6136f5816142a6565b82525050565b613704816141fa565b82525050565b613713816142ca565b82525050565b600061372482613f0e565b61372e8185613f24565b935061373e8185602086016142ee565b61374781614428565b840191505092915050565b600061375f601583613f24565b915061376a82614439565b602082019050919050565b6000613782600b83613f24565b915061378d82614462565b602082019050919050565b60006137a5602383613f24565b91506137b08261448b565b604082019050919050565b60006137c8602683613f24565b91506137d3826144da565b604082019050919050565b60006137eb602183613f24565b91506137f682614529565b604082019050919050565b600061380e602683613f24565b915061381982614578565b604082019050919050565b6000613831601c83613f24565b915061383c826145c7565b602082019050919050565b6000613854601883613f24565b915061385f826145f0565b602082019050919050565b6000613877602083613f24565b915061388282614619565b602082019050919050565b600061389a601b83613f24565b91506138a582614642565b602082019050919050565b60006138bd601d83613f24565b91506138c88261466b565b602082019050919050565b60006138e0602483613f24565b91506138eb82614694565b604082019050919050565b6000613903602a83613f24565b915061390e826146e3565b604082019050919050565b6000613926601883613f24565b915061393182614732565b602082019050919050565b606082016000820151613952600085018261397e565b50602082015161396560208501826139ba565b50604082015161397860408501826139ba565b50505050565b61398781614204565b82525050565b61399681614204565b82525050565b6139a5816142dc565b82525050565b6139b481614240565b82525050565b6139c38161424a565b82525050565b6139d28161424a565b82525050565b60006139e4828461369d565b915081905092915050565b6000602082019050613a04600083018461367f565b92915050565b6000606082019050613a1f600083018661367f565b613a2c602083018561367f565b613a3960408301846139ab565b949350505050565b6000604082019050613a56600083018561367f565b613a6360208301846139ab565b9392505050565b6000602082019050613a7f60008301846136ce565b92915050565b6000602082019050613a9a60008301846136dd565b92915050565b6000602082019050613ab560008301846136ec565b92915050565b60006020820190508181036000830152613ad58184613719565b905092915050565b60006020820190508181036000830152613af681613752565b9050919050565b60006020820190508181036000830152613b1681613775565b9050919050565b60006020820190508181036000830152613b3681613798565b9050919050565b60006020820190508181036000830152613b56816137bb565b9050919050565b60006020820190508181036000830152613b76816137de565b9050919050565b60006020820190508181036000830152613b9681613801565b9050919050565b60006020820190508181036000830152613bb681613824565b9050919050565b60006020820190508181036000830152613bd681613847565b9050919050565b60006020820190508181036000830152613bf68161386a565b9050919050565b60006020820190508181036000830152613c168161388d565b9050919050565b60006020820190508181036000830152613c36816138b0565b9050919050565b60006020820190508181036000830152613c56816138d3565b9050919050565b60006020820190508181036000830152613c76816138f6565b9050919050565b60006020820190508181036000830152613c9681613919565b9050919050565b6000606082019050613cb2600083018461393c565b92915050565b6000606082019050613ccd600083018661398d565b613cda60208301856139c9565b613ce760408301846139c9565b949350505050565b6000602082019050613d0460008301846139ab565b92915050565b600060a082019050613d1f60008301886139ab565b613d2c602083018761367f565b613d39604083018661367f565b613d46606083018561370a565b613d53608083018461370a565b9695505050505050565b600060a082019050613d7260008301886139ab565b613d7f602083018761367f565b613d8c604083018661367f565b613d99606083018561370a565b613da660808301846139ab565b9695505050505050565b600060a082019050613dc560008301886139ab565b613dd2602083018761367f565b613ddf604083018661367f565b613dec60608301856139ab565b613df960808301846139ab565b9695505050505050565b6000604082019050613e1860008301856139ab565b613e25602083018461368e565b9392505050565b6000604082019050613e4160008301856139ab565b613e4e60208301846136fb565b9392505050565b6000604082019050613e6a60008301856139ab565b613e77602083018461370a565b9392505050565b6000604082019050613e9360008301856139ab565b613ea060208301846139ab565b9392505050565b6000606082019050613ebc60008301866139c9565b613ec960208301856139ab565b613ed6604083018461399c565b949350505050565b6000613ee8613ef9565b9050613ef48282614321565b919050565b6000604051905090565b600081519050919050565b600081519050919050565b600081905092915050565b600082825260208201905092915050565b6000613f40826141fa565b9150613f4b836141fa565b9250817f7fffffffffffffffffffffffffffffffffffffffffffffffffffffffffffffff03831360008312151615613f8657613f8561439b565b5b817f8000000000000000000000000000000000000000000000000000000000000000038312600083121615613fbe57613fbd61439b565b5b828201905092915050565b6000613fd482614204565b9150613fdf83614204565b9250826fffffffffffffffffffffffffffffffff038211156140045761400361439b565b5b828201905092915050565b600061401a82614240565b915061402583614240565b9250827fffffffffffffffffffffffffffffffffffffffffffffffffffffffffffffffff0382111561405a5761405961439b565b5b828201905092915050565b600061407082614240565b915061407b83614240565b92508261408b5761408a6143ca565b5b828204905092915050565b60006140a182614240565b91506140ac83614240565b9250817fffffffffffffffffffffffffffffffffffffffffffffffffffffffffffffffff04831182151516156140e5576140e461439b565b5b828202905092915050565b60006140fb826141fa565b9150614106836141fa565b9250827f8000000000000000000000000000000000000000000000000000000000000000018212600084121516156141415761414061439b565b5b827f7fffffffffffffffffffffffffffffffffffffffffffffffffffffffffffffff0182136000841216156141795761417861439b565b5b828203905092915050565b600061418f82614240565b915061419a83614240565b9250828210156141ad576141ac61439b565b5b828203905092915050565b60006141c382614220565b9050919050565b60008115159050919050565b60006141e1826141b8565b9050919050565b60006141f3826141b8565b9050919050565b6000819050919050565b60006fffffffffffffffffffffffffffffffff82169050919050565b600073ffffffffffffffffffffffffffffffffffffffff82169050919050565b6000819050919050565b600067ffffffffffffffff82169050919050565b600061426982614270565b9050919050565b600061427b82614220565b9050919050565b600061428d82614294565b9050919050565b600061429f82614220565b9050919050565b60006142b1826142b8565b9050919050565b60006142c382614220565b9050919050565b60006142d582614240565b9050919050565b60006142e782614204565b9050919050565b60005b8381101561430c5780820151818401526020810190506142f1565b8381111561431b576000848401525b50505050565b61432a82614428565b810181811067ffffffffffffffff82111715614349576143486143f9565b5b80604052505050565b600061435d82614240565b91507fffffffffffffffffffffffffffffffffffffffffffffffffffffffffffffffff8214156143905761438f61439b565b5b600182019050919050565b7f4e487b7100000000000000000000000000000000000000000000000000000000600052601160045260246000fd5b7f4e487b7100000000000000000000000000000000000000000000000000000000600052601260045260246000fd5b7f4e487b7100000000000000000000000000000000000000000000000000000000600052604160045260246000fd5b6000601f19601f8301169050919050565b7f426f72696e674d6174683a20556e646572666c6f770000000000000000000000600082015250565b7f496e7465676572203c2030000000000000000000000000000000000000000000600082015250565b7f4d61737465724368656656323a2042616c616e6365206d75737420657863656560008201527f6420300000000000000000000000000000000000000000000000000000000000602082015250565b7f4f776e61626c653a206e6577206f776e657220697320746865207a65726f206160008201527f6464726573730000000000000000000000000000000000000000000000000000602082015250565b7f5369676e6564536166654d6174683a206164646974696f6e206f766572666c6f60008201527f7700000000000000000000000000000000000000000000000000000000000000602082015250565b7f416464726573733a20696e73756666696369656e742062616c616e636520666f60008201527f722063616c6c0000000000000000000000000000000000000000000000000000602082015250565b7f426f72696e674d6174683a2075696e74313238204f766572666c6f7700000000600082015250565b7f426f72696e674d6174683a20416464204f766572666c6f770000000000000000600082015250565b7f4f776e61626c653a2063616c6c6572206973206e6f7420746865206f776e6572600082015250565b7f426f72696e674d6174683a2075696e743634204f766572666c6f770000000000600082015250565b7f416464726573733a2063616c6c20746f206e6f6e2d636f6e7472616374000000600082015250565b7f5369676e6564536166654d6174683a207375627472616374696f6e206f76657260008201527f666c6f7700000000000000000000000000000000000000000000000000000000602082015250565b7f5361666545524332303a204552433230206f7065726174696f6e20646964206e60008201527f6f74207375636365656400000000000000000000000000000000000000000000602082015250565b7f426f72696e674d6174683a204d756c204f766572666c6f770000000000000000600082015250565b614764816141b8565b811461476f57600080fd5b50565b61477b816141ca565b811461478657600080fd5b50565b614792816141d6565b811461479d57600080fd5b50565b6147a9816141e8565b81146147b457600080fd5b50565b6147c081614240565b81146147cb57600080fd5b5056fea2646970667358221220bf36d1c9a729327191c76803a0584191a25947e24f84dc9d3fa62f68ec3cfbca64736f6c63430008040033",
  "linkReferences": {},
  "deployedLinkReferences": {}
}