{
  "_format": "hh-sol-artifact-1",
  "contractName": "KaidexMasterChefV2",
  "sourceName": "contracts/farming/KaidexMasterChefV2.sol",
  "abi": [
    {
      "inputs": [
        {
          "internalType": "contract IMasterChef",
          "name": "_MASTER_CHEF",
          "type": "address"
        },
        {
          "internalType": "contract IERC20",
          "name": "_kdx",
          "type": "address"
        },
        {
          "internalType": "uint256",
          "name": "_MASTER_PID",
          "type": "uint256"
        }
      ],
      "stateMutability": "nonpayable",
      "type": "constructor"
    },
    {
      "anonymous": false,
      "inputs": [
        {
          "indexed": true,
          "internalType": "address",
          "name": "user",
          "type": "address"
        },
        {
          "indexed": true,
          "internalType": "uint256",
          "name": "pid",
          "type": "uint256"
        },
        {
          "indexed": false,
          "internalType": "uint256",
          "name": "amount",
          "type": "uint256"
        },
        {
          "indexed": true,
          "internalType": "address",
          "name": "to",
          "type": "address"
        }
      ],
      "name": "Deposit",
      "type": "event"
    },
    {
      "anonymous": false,
      "inputs": [
        {
          "indexed": true,
          "internalType": "address",
          "name": "user",
          "type": "address"
        },
        {
          "indexed": true,
          "internalType": "uint256",
          "name": "pid",
          "type": "uint256"
        },
        {
          "indexed": false,
          "internalType": "uint256",
          "name": "amount",
          "type": "uint256"
        },
        {
          "indexed": true,
          "internalType": "address",
          "name": "to",
          "type": "address"
        }
      ],
      "name": "EmergencyWithdraw",
      "type": "event"
    },
    {
      "anonymous": false,
      "inputs": [
        {
          "indexed": true,
          "internalType": "address",
          "name": "user",
          "type": "address"
        },
        {
          "indexed": true,
          "internalType": "uint256",
          "name": "pid",
          "type": "uint256"
        },
        {
          "indexed": false,
          "internalType": "uint256",
          "name": "amount",
          "type": "uint256"
        }
      ],
      "name": "Harvest",
      "type": "event"
    },
    {
      "anonymous": false,
      "inputs": [],
      "name": "LogInit",
      "type": "event"
    },
    {
      "anonymous": false,
      "inputs": [
        {
          "indexed": true,
          "internalType": "uint256",
          "name": "pid",
          "type": "uint256"
        },
        {
          "indexed": false,
          "internalType": "uint256",
          "name": "allocPoint",
          "type": "uint256"
        },
        {
          "indexed": true,
          "internalType": "contract IERC20",
          "name": "lpToken",
          "type": "address"
        },
        {
          "indexed": true,
          "internalType": "contract IRewarder",
          "name": "rewarder",
          "type": "address"
        }
      ],
      "name": "LogPoolAddition",
      "type": "event"
    },
    {
      "anonymous": false,
      "inputs": [
        {
          "indexed": true,
          "internalType": "uint256",
          "name": "pid",
          "type": "uint256"
        },
        {
          "indexed": false,
          "internalType": "uint256",
          "name": "allocPoint",
          "type": "uint256"
        },
        {
          "indexed": true,
          "internalType": "contract IRewarder",
          "name": "rewarder",
          "type": "address"
        },
        {
          "indexed": false,
          "internalType": "bool",
          "name": "overwrite",
          "type": "bool"
        }
      ],
      "name": "LogSetPool",
      "type": "event"
    },
    {
      "anonymous": false,
      "inputs": [
        {
          "indexed": true,
          "internalType": "uint256",
          "name": "pid",
          "type": "uint256"
        },
        {
          "indexed": false,
          "internalType": "uint64",
          "name": "lastRewardBlock",
          "type": "uint64"
        },
        {
          "indexed": false,
          "internalType": "uint256",
          "name": "lpSupply",
          "type": "uint256"
        },
        {
          "indexed": false,
          "internalType": "uint256",
          "name": "accKdxPerShare",
          "type": "uint256"
        }
      ],
      "name": "LogUpdatePool",
      "type": "event"
    },
    {
      "anonymous": false,
      "inputs": [
        {
          "indexed": true,
          "internalType": "address",
          "name": "previousOwner",
          "type": "address"
        },
        {
          "indexed": true,
          "internalType": "address",
          "name": "newOwner",
          "type": "address"
        }
      ],
      "name": "OwnershipTransferred",
      "type": "event"
    },
    {
      "anonymous": false,
      "inputs": [
        {
          "indexed": true,
          "internalType": "address",
          "name": "user",
          "type": "address"
        },
        {
          "indexed": true,
          "internalType": "uint256",
          "name": "pid",
          "type": "uint256"
        },
        {
          "indexed": false,
          "internalType": "uint256",
          "name": "amount",
          "type": "uint256"
        },
        {
          "indexed": true,
          "internalType": "address",
          "name": "to",
          "type": "address"
        }
      ],
      "name": "Withdraw",
      "type": "event"
    },
    {
      "inputs": [],
      "name": "KDX",
      "outputs": [
        {
          "internalType": "contract IERC20",
          "name": "",
          "type": "address"
        }
      ],
      "stateMutability": "view",
      "type": "function"
    },
    {
      "inputs": [],
      "name": "MASTER_CHEF",
      "outputs": [
        {
          "internalType": "contract IMasterChef",
          "name": "",
          "type": "address"
        }
      ],
      "stateMutability": "view",
      "type": "function"
    },
    {
      "inputs": [],
      "name": "MASTER_PID",
      "outputs": [
        {
          "internalType": "uint256",
          "name": "",
          "type": "uint256"
        }
      ],
      "stateMutability": "view",
      "type": "function"
    },
    {
      "inputs": [
        {
          "internalType": "uint256",
          "name": "allocPoint",
          "type": "uint256"
        },
        {
          "internalType": "contract IERC20",
          "name": "_lpToken",
          "type": "address"
        },
        {
          "internalType": "contract IRewarder",
          "name": "_rewarder",
          "type": "address"
        }
      ],
      "name": "add",
      "outputs": [],
      "stateMutability": "nonpayable",
      "type": "function"
    },
    {
      "inputs": [
        {
          "internalType": "bytes[]",
          "name": "calls",
          "type": "bytes[]"
        },
        {
          "internalType": "bool",
          "name": "revertOnFail",
          "type": "bool"
        }
      ],
      "name": "batch",
      "outputs": [],
      "stateMutability": "payable",
      "type": "function"
    },
    {
      "inputs": [],
      "name": "claimOwnership",
      "outputs": [],
      "stateMutability": "nonpayable",
      "type": "function"
    },
    {
      "inputs": [
        {
          "internalType": "uint256",
          "name": "pid",
          "type": "uint256"
        },
        {
          "internalType": "uint256",
          "name": "amount",
          "type": "uint256"
        },
        {
          "internalType": "address",
          "name": "to",
          "type": "address"
        }
      ],
      "name": "deposit",
      "outputs": [],
      "stateMutability": "nonpayable",
      "type": "function"
    },
    {
      "inputs": [
        {
          "internalType": "uint256",
          "name": "pid",
          "type": "uint256"
        },
        {
          "internalType": "address",
          "name": "to",
          "type": "address"
        }
      ],
      "name": "emergencyWithdraw",
      "outputs": [],
      "stateMutability": "nonpayable",
      "type": "function"
    },
    {
      "inputs": [
        {
          "internalType": "uint256",
          "name": "pid",
          "type": "uint256"
        },
        {
          "internalType": "address",
          "name": "to",
          "type": "address"
        }
      ],
      "name": "harvest",
      "outputs": [],
      "stateMutability": "nonpayable",
      "type": "function"
    },
    {
      "inputs": [],
      "name": "harvestFromMasterChef",
      "outputs": [],
      "stateMutability": "nonpayable",
      "type": "function"
    },
    {
      "inputs": [
        {
          "internalType": "contract IERC20",
          "name": "dummyToken",
          "type": "address"
        }
      ],
      "name": "init",
      "outputs": [],
      "stateMutability": "nonpayable",
      "type": "function"
    },
    {
      "inputs": [],
      "name": "kdxPerBlock",
      "outputs": [
        {
          "internalType": "uint256",
          "name": "amount",
          "type": "uint256"
        }
      ],
      "stateMutability": "view",
      "type": "function"
    },
    {
      "inputs": [
        {
          "internalType": "uint256",
          "name": "",
          "type": "uint256"
        }
      ],
      "name": "lpToken",
      "outputs": [
        {
          "internalType": "contract IERC20",
          "name": "",
          "type": "address"
        }
      ],
      "stateMutability": "view",
      "type": "function"
    },
    {
      "inputs": [
        {
          "internalType": "uint256[]",
          "name": "pids",
          "type": "uint256[]"
        }
      ],
      "name": "massUpdatePools",
      "outputs": [],
      "stateMutability": "nonpayable",
      "type": "function"
    },
    {
      "inputs": [
        {
          "internalType": "uint256",
          "name": "_pid",
          "type": "uint256"
        }
      ],
      "name": "migrate",
      "outputs": [],
      "stateMutability": "nonpayable",
      "type": "function"
    },
    {
      "inputs": [],
      "name": "migrator",
      "outputs": [
        {
          "internalType": "contract IMigratorChef",
          "name": "",
          "type": "address"
        }
      ],
      "stateMutability": "view",
      "type": "function"
    },
    {
      "inputs": [],
      "name": "owner",
      "outputs": [
        {
          "internalType": "address",
          "name": "",
          "type": "address"
        }
      ],
      "stateMutability": "view",
      "type": "function"
    },
    {
      "inputs": [
        {
          "internalType": "uint256",
          "name": "_pid",
          "type": "uint256"
        },
        {
          "internalType": "address",
          "name": "_user",
          "type": "address"
        }
      ],
      "name": "pendingKDX",
      "outputs": [
        {
          "internalType": "uint256",
          "name": "pending",
          "type": "uint256"
        }
      ],
      "stateMutability": "view",
      "type": "function"
    },
    {
      "inputs": [],
      "name": "pendingOwner",
      "outputs": [
        {
          "internalType": "address",
          "name": "",
          "type": "address"
        }
      ],
      "stateMutability": "view",
      "type": "function"
    },
    {
      "inputs": [
        {
          "internalType": "contract IERC20",
          "name": "token",
          "type": "address"
        },
        {
          "internalType": "address",
          "name": "from",
          "type": "address"
        },
        {
          "internalType": "address",
          "name": "to",
          "type": "address"
        },
        {
          "internalType": "uint256",
          "name": "amount",
          "type": "uint256"
        },
        {
          "internalType": "uint256",
          "name": "deadline",
          "type": "uint256"
        },
        {
          "internalType": "uint8",
          "name": "v",
          "type": "uint8"
        },
        {
          "internalType": "bytes32",
          "name": "r",
          "type": "bytes32"
        },
        {
          "internalType": "bytes32",
          "name": "s",
          "type": "bytes32"
        }
      ],
      "name": "permitToken",
      "outputs": [],
      "stateMutability": "nonpayable",
      "type": "function"
    },
    {
      "inputs": [
        {
          "internalType": "uint256",
          "name": "",
          "type": "uint256"
        }
      ],
      "name": "poolInfo",
      "outputs": [
        {
          "internalType": "uint128",
          "name": "accKdxPerShare",
          "type": "uint128"
        },
        {
          "internalType": "uint64",
          "name": "lastRewardBlock",
          "type": "uint64"
        },
        {
          "internalType": "uint64",
          "name": "allocPoint",
          "type": "uint64"
        }
      ],
      "stateMutability": "view",
      "type": "function"
    },
    {
      "inputs": [],
      "name": "poolLength",
      "outputs": [
        {
          "internalType": "uint256",
          "name": "pools",
          "type": "uint256"
        }
      ],
      "stateMutability": "view",
      "type": "function"
    },
    {
      "inputs": [
        {
          "internalType": "uint256",
          "name": "",
          "type": "uint256"
        }
      ],
      "name": "rewarder",
      "outputs": [
        {
          "internalType": "contract IRewarder",
          "name": "",
          "type": "address"
        }
      ],
      "stateMutability": "view",
      "type": "function"
    },
    {
      "inputs": [
        {
          "internalType": "uint256",
          "name": "_pid",
          "type": "uint256"
        },
        {
          "internalType": "uint256",
          "name": "_allocPoint",
          "type": "uint256"
        },
        {
          "internalType": "contract IRewarder",
          "name": "_rewarder",
          "type": "address"
        },
        {
          "internalType": "bool",
          "name": "overwrite",
          "type": "bool"
        }
      ],
      "name": "set",
      "outputs": [],
      "stateMutability": "nonpayable",
      "type": "function"
    },
    {
      "inputs": [
        {
          "internalType": "contract IMigratorChef",
          "name": "_migrator",
          "type": "address"
        }
      ],
      "name": "setMigrator",
      "outputs": [],
      "stateMutability": "nonpayable",
      "type": "function"
    },
    {
      "inputs": [],
      "name": "totalAllocPoint",
      "outputs": [
        {
          "internalType": "uint256",
          "name": "",
          "type": "uint256"
        }
      ],
      "stateMutability": "view",
      "type": "function"
    },
    {
      "inputs": [
        {
          "internalType": "address",
          "name": "newOwner",
          "type": "address"
        },
        {
          "internalType": "bool",
          "name": "direct",
          "type": "bool"
        },
        {
          "internalType": "bool",
          "name": "renounce",
          "type": "bool"
        }
      ],
      "name": "transferOwnership",
      "outputs": [],
      "stateMutability": "nonpayable",
      "type": "function"
    },
    {
      "inputs": [
        {
          "internalType": "uint256",
          "name": "pid",
          "type": "uint256"
        }
      ],
      "name": "updatePool",
      "outputs": [
        {
          "components": [
            {
              "internalType": "uint128",
              "name": "accKdxPerShare",
              "type": "uint128"
            },
            {
              "internalType": "uint64",
              "name": "lastRewardBlock",
              "type": "uint64"
            },
            {
              "internalType": "uint64",
              "name": "allocPoint",
              "type": "uint64"
            }
          ],
          "internalType": "struct KaidexMasterChefV2.PoolInfo",
          "name": "pool",
          "type": "tuple"
        }
      ],
      "stateMutability": "nonpayable",
      "type": "function"
    },
    {
      "inputs": [
        {
          "internalType": "uint256",
          "name": "",
          "type": "uint256"
        },
        {
          "internalType": "address",
          "name": "",
          "type": "address"
        }
      ],
      "name": "userInfo",
      "outputs": [
        {
          "internalType": "uint256",
          "name": "amount",
          "type": "uint256"
        },
        {
          "internalType": "int256",
          "name": "rewardDebt",
          "type": "int256"
        }
      ],
      "stateMutability": "view",
      "type": "function"
    },
    {
      "inputs": [
        {
          "internalType": "uint256",
          "name": "pid",
          "type": "uint256"
        },
        {
          "internalType": "uint256",
          "name": "amount",
          "type": "uint256"
        },
        {
          "internalType": "address",
          "name": "to",
          "type": "address"
        }
      ],
      "name": "withdraw",
      "outputs": [],
      "stateMutability": "nonpayable",
      "type": "function"
    },
    {
      "inputs": [
        {
          "internalType": "uint256",
          "name": "pid",
          "type": "uint256"
        },
        {
          "internalType": "uint256",
          "name": "amount",
          "type": "uint256"
        },
        {
          "internalType": "address",
          "name": "to",
          "type": "address"
        }
      ],
      "name": "withdrawAndHarvest",
      "outputs": [],
      "stateMutability": "nonpayable",
      "type": "function"
    }
  ],
  "bytecode": "0x60e06040523480156200001157600080fd5b5060405162005ab938038062005ab9833981810160405281019062000037919062000196565b336000806101000a81548173ffffffffffffffffffffffffffffffffffffffff021916908373ffffffffffffffffffffffffffffffffffffffff1602179055503373ffffffffffffffffffffffffffffffffffffffff16600073ffffffffffffffffffffffffffffffffffffffff167f8be0079c531659141344cd1fd0a4f28419497f9722a3daafe3b4186f6b6457e060405160405180910390a38273ffffffffffffffffffffffffffffffffffffffff1660808173ffffffffffffffffffffffffffffffffffffffff1660601b815250508173ffffffffffffffffffffffffffffffffffffffff1660a08173ffffffffffffffffffffffffffffffffffffffff1660601b815250508060c08181525050505050620002a0565b600081519050620001628162000252565b92915050565b60008151905062000179816200026c565b92915050565b600081519050620001908162000286565b92915050565b600080600060608486031215620001ac57600080fd5b6000620001bc8682870162000168565b9350506020620001cf8682870162000151565b9250506040620001e2868287016200017f565b9150509250925092565b6000620001f98262000228565b9050919050565b60006200020d82620001ec565b9050919050565b60006200022182620001ec565b9050919050565b600073ffffffffffffffffffffffffffffffffffffffff82169050919050565b6000819050919050565b6200025d8162000200565b81146200026957600080fd5b50565b620002778162000214565b81146200028357600080fd5b50565b620002918162000248565b81146200029d57600080fd5b50565b60805160601c60a05160601c60c05161579d6200031c6000396000818161117401528181611b72015281816120bd01526121c0015260008181610dd8015281816129860152612e350152600081816110a60152818161113801528181611b36015281816120e30152818161218401526135ba015261579d6000f3fe6080604052600436106101d85760003560e01c8063662b5fbe116101025780639dd0249411610095578063d2423b5111610064578063d2423b5114610681578063dadf21441461069d578063e30c3978146106da578063edd8b17014610705576101d8565b80639dd02494146105c7578063ab7de098146105f2578063c346253d1461061b578063d1abb90714610658576101d8565b806388bba42f116100d157806388bba42f1461050c5780638da5cb5b146105355780638dbdbe6d1461056057806393f1a40b14610589576101d8565b8063662b5fbe1461045057806378ed5d1f1461047b5780637c516e94146104b85780637cd07e47146104e1576101d8565b806323cf31181161017a5780634f70b15a116101495780634f70b15a146103a857806351eb05a6146103bf57806357a5b58c146103fc57806361621aaa14610425576101d8565b806323cf3118146103165780632f940c701461033f578063454b0608146103685780634e71e0c814610391576101d8565b80631526fe27116101b65780631526fe271461025a57806317caf6f11461029957806318fccc76146102c457806319ab453c146102ed576101d8565b8063078dfbe7146101dd578063081e3eda146102065780630ad58d2f14610231575b600080fd5b3480156101e957600080fd5b5061020460048036038101906101ff9190613f33565b610730565b005b34801561021257600080fd5b5061021b610984565b6040516102289190614b59565b60405180910390f35b34801561023d57600080fd5b50610258600480360381019061025391906142bc565b610991565b005b34801561026657600080fd5b50610281600480360381019061027c91906141df565b610c7b565b60405161029093929190614b22565b60405180910390f35b3480156102a557600080fd5b506102ae610cf5565b6040516102bb9190614b59565b60405180910390f35b3480156102d057600080fd5b506102eb60048036038101906102e69190614231565b610cfb565b005b3480156102f957600080fd5b50610314600480360381019061030f9190614048565b610f8a565b005b34801561032257600080fd5b5061033d6004803603810190610338919061414c565b611213565b005b34801561034b57600080fd5b5061036660048036038101906103619190614231565b6112e5565b005b34801561037457600080fd5b5061038f600480360381019061038a91906141df565b611564565b005b34801561039d57600080fd5b506103a66119a0565b005b3480156103b457600080fd5b506103bd611b34565b005b3480156103cb57600080fd5b506103e660048036038101906103e191906141df565b611be4565b6040516103f39190614b07565b60405180910390f35b34801561040857600080fd5b50610423600480360381019061041e9190613fda565b612048565b005b34801561043157600080fd5b5061043a6120bb565b6040516104479190614b59565b60405180910390f35b34801561045c57600080fd5b506104656120df565b6040516104729190614b59565b60405180910390f35b34801561048757600080fd5b506104a2600480360381019061049d91906141df565b612276565b6040516104af9190614879565b60405180910390f35b3480156104c457600080fd5b506104df60048036038101906104da919061409a565b6122b5565b005b3480156104ed57600080fd5b506104f6612336565b60405161050391906148af565b60405180910390f35b34801561051857600080fd5b50610533600480360381019061052e919061430b565b61235c565b005b34801561054157600080fd5b5061054a612643565b604051610557919061478f565b60405180910390f35b34801561056c57600080fd5b50610587600480360381019061058291906142bc565b612667565b005b34801561059557600080fd5b506105b060048036038101906105ab9190614231565b612953565b6040516105be929190614c96565b60405180910390f35b3480156105d357600080fd5b506105dc612984565b6040516105e99190614879565b60405180910390f35b3480156105fe57600080fd5b506106196004803603810190610614919061426d565b6129a8565b005b34801561062757600080fd5b50610642600480360381019061063d91906141df565b612cb8565b60405161064f91906148ca565b60405180910390f35b34801561066457600080fd5b5061067f600480360381019061067a91906142bc565b612cf7565b005b61069b60048036038101906106969190613f82565b6130dc565b005b3480156106a957600080fd5b506106c460048036038101906106bf9190614231565b613212565b6040516106d19190614b59565b60405180910390f35b3480156106e657600080fd5b506106ef613592565b6040516106fc919061478f565b60405180910390f35b34801561071157600080fd5b5061071a6135b8565b6040516107279190614894565b60405180910390f35b60008054906101000a900473ffffffffffffffffffffffffffffffffffffffff1673ffffffffffffffffffffffffffffffffffffffff163373ffffffffffffffffffffffffffffffffffffffff16146107be576040517f08c379a00000000000000000000000000000000000000000000000000000000081526004016107b590614a27565b60405180910390fd5b811561093d57600073ffffffffffffffffffffffffffffffffffffffff168373ffffffffffffffffffffffffffffffffffffffff161415806107fd5750805b61083c576040517f08c379a0000000000000000000000000000000000000000000000000000000008152600401610833906149a7565b60405180910390fd5b8273ffffffffffffffffffffffffffffffffffffffff1660008054906101000a900473ffffffffffffffffffffffffffffffffffffffff1673ffffffffffffffffffffffffffffffffffffffff167f8be0079c531659141344cd1fd0a4f28419497f9722a3daafe3b4186f6b6457e060405160405180910390a3826000806101000a81548173ffffffffffffffffffffffffffffffffffffffff021916908373ffffffffffffffffffffffffffffffffffffffff1602179055506000600160006101000a81548173ffffffffffffffffffffffffffffffffffffffff021916908373ffffffffffffffffffffffffffffffffffffffff16021790555061097f565b82600160006101000a81548173ffffffffffffffffffffffffffffffffffffffff021916908373ffffffffffffffffffffffffffffffffffffffff1602179055505b505050565b6000600380549050905090565b600061099c84611be4565b905060006006600086815260200190815260200160002060003373ffffffffffffffffffffffffffffffffffffffff1673ffffffffffffffffffffffffffffffffffffffff1681526020019081526020016000209050610a4164e8d4a51000610a2484600001516fffffffffffffffffffffffffffffffff16876135dc90919063ffffffff16565b610a2e9190614f57565b826001015461364990919063ffffffff16565b8160010181905550610a608482600001546136ca90919063ffffffff16565b8160000181905550600060058681548110610aa4577f4e487b7100000000000000000000000000000000000000000000000000000000600052603260045260246000fd5b9060005260206000200160009054906101000a900473ffffffffffffffffffffffffffffffffffffffff169050600073ffffffffffffffffffffffffffffffffffffffff168173ffffffffffffffffffffffffffffffffffffffff1614610b7e578073ffffffffffffffffffffffffffffffffffffffff1663860cbfe4873387600087600001546040518663ffffffff1660e01b8152600401610b4b959493929190614bc7565b600060405180830381600087803b158015610b6557600080fd5b505af1158015610b79573d6000803e3d6000fd5b505050505b610c0d848660048981548110610bbd577f4e487b7100000000000000000000000000000000000000000000000000000000600052603260045260246000fd5b9060005260206000200160009054906101000a900473ffffffffffffffffffffffffffffffffffffffff1673ffffffffffffffffffffffffffffffffffffffff166137239092919063ffffffff16565b8373ffffffffffffffffffffffffffffffffffffffff16863373ffffffffffffffffffffffffffffffffffffffff167f8166bf25f8a2b7ed3c85049207da4358d16edbed977d23fa2ee6f0dde3ec213288604051610c6b9190614b59565b60405180910390a4505050505050565b60038181548110610c8b57600080fd5b906000526020600020016000915090508060000160009054906101000a90046fffffffffffffffffffffffffffffffff16908060000160109054906101000a900467ffffffffffffffff16908060000160189054906101000a900467ffffffffffffffff16905083565b60075481565b6000610d0683611be4565b905060006006600085815260200190815260200160002060003373ffffffffffffffffffffffffffffffffffffffff1673ffffffffffffffffffffffffffffffffffffffff1681526020019081526020016000209050600064e8d4a51000610d9184600001516fffffffffffffffffffffffffffffffff1684600001546135dc90919063ffffffff16565b610d9b9190614f57565b90506000610dbe610db984600101548461364990919063ffffffff16565b613878565b905081836001018190555060008114610e1d57610e1c85827f000000000000000000000000000000000000000000000000000000000000000073ffffffffffffffffffffffffffffffffffffffff166137239092919063ffffffff16565b5b600060058781548110610e59577f4e487b7100000000000000000000000000000000000000000000000000000000600052603260045260246000fd5b9060005260206000200160009054906101000a900473ffffffffffffffffffffffffffffffffffffffff169050600073ffffffffffffffffffffffffffffffffffffffff168173ffffffffffffffffffffffffffffffffffffffff1614610f32578073ffffffffffffffffffffffffffffffffffffffff1663860cbfe48833898689600001546040518663ffffffff1660e01b8152600401610eff959493929190614c1a565b600060405180830381600087803b158015610f1957600080fd5b505af1158015610f2d573d6000803e3d6000fd5b505050505b863373ffffffffffffffffffffffffffffffffffffffff167f71bab65ced2e5750775a0613be067df48ef06cf92a496ebf7663ae066092495484604051610f799190614b59565b60405180910390a350505050505050565b60008173ffffffffffffffffffffffffffffffffffffffff166370a08231336040518263ffffffff1660e01b8152600401610fc5919061478f565b60206040518083038186803b158015610fdd57600080fd5b505afa158015610ff1573d6000803e3d6000fd5b505050506040513d601f19601f820116820180604052508101906110159190614208565b9050600081141561105b576040517f08c379a000000000000000000000000000000000000000000000000000000000815260040161105290614947565b60405180910390fd5b6110883330838573ffffffffffffffffffffffffffffffffffffffff166138c5909392919063ffffffff16565b8173ffffffffffffffffffffffffffffffffffffffff1663095ea7b37f0000000000000000000000000000000000000000000000000000000000000000836040518363ffffffff1660e01b81526004016110e3929190614850565b602060405180830381600087803b1580156110fd57600080fd5b505af1158015611111573d6000803e3d6000fd5b505050506040513d601f19601f82011682018060405250810190611135919061401f565b507f000000000000000000000000000000000000000000000000000000000000000073ffffffffffffffffffffffffffffffffffffffff1663e2bbb1587f0000000000000000000000000000000000000000000000000000000000000000836040518363ffffffff1660e01b81526004016111b1929190614ce8565b600060405180830381600087803b1580156111cb57600080fd5b505af11580156111df573d6000803e3d6000fd5b505050507f98a9bd3b7a617581fc53b1e2992534e0e0cb5091c9d44aa1a7fc978f706caa8360405160405180910390a15050565b60008054906101000a900473ffffffffffffffffffffffffffffffffffffffff1673ffffffffffffffffffffffffffffffffffffffff163373ffffffffffffffffffffffffffffffffffffffff16146112a1576040517f08c379a000000000000000000000000000000000000000000000000000000000815260040161129890614a27565b60405180910390fd5b80600260006101000a81548173ffffffffffffffffffffffffffffffffffffffff021916908373ffffffffffffffffffffffffffffffffffffffff16021790555050565b60006006600084815260200190815260200160002060003373ffffffffffffffffffffffffffffffffffffffff1673ffffffffffffffffffffffffffffffffffffffff16815260200190815260200160002090506000816000015490506000826000018190555060008260010181905550600060058581548110611392577f4e487b7100000000000000000000000000000000000000000000000000000000600052603260045260246000fd5b9060005260206000200160009054906101000a900473ffffffffffffffffffffffffffffffffffffffff169050600073ffffffffffffffffffffffffffffffffffffffff168173ffffffffffffffffffffffffffffffffffffffff1614611468578073ffffffffffffffffffffffffffffffffffffffff1663860cbfe48633876000806040518663ffffffff1660e01b8152600401611435959493929190614b74565b600060405180830381600087803b15801561144f57600080fd5b505af1158015611463573d6000803e3d6000fd5b505050505b6114f78483600488815481106114a7577f4e487b7100000000000000000000000000000000000000000000000000000000600052603260045260246000fd5b9060005260206000200160009054906101000a900473ffffffffffffffffffffffffffffffffffffffff1673ffffffffffffffffffffffffffffffffffffffff166137239092919063ffffffff16565b8373ffffffffffffffffffffffffffffffffffffffff16853373ffffffffffffffffffffffffffffffffffffffff167f2cac5e20e1541d836381527a43f651851e302817b71dc8e810284e69210c1c6b856040516115559190614b59565b60405180910390a45050505050565b600073ffffffffffffffffffffffffffffffffffffffff16600260009054906101000a900473ffffffffffffffffffffffffffffffffffffffff1673ffffffffffffffffffffffffffffffffffffffff1614156115f6576040517f08c379a00000000000000000000000000000000000000000000000000000000081526004016115ed90614a87565b60405180910390fd5b600060048281548110611632577f4e487b7100000000000000000000000000000000000000000000000000000000600052603260045260246000fd5b9060005260206000200160009054906101000a900473ffffffffffffffffffffffffffffffffffffffff16905060008173ffffffffffffffffffffffffffffffffffffffff166370a08231306040518263ffffffff1660e01b815260040161169a919061478f565b60206040518083038186803b1580156116b257600080fd5b505afa1580156116c6573d6000803e3d6000fd5b505050506040513d601f19601f820116820180604052508101906116ea9190614208565b90508173ffffffffffffffffffffffffffffffffffffffff1663095ea7b3600260009054906101000a900473ffffffffffffffffffffffffffffffffffffffff16836040518363ffffffff1660e01b8152600401611749929190614850565b602060405180830381600087803b15801561176357600080fd5b505af1158015611777573d6000803e3d6000fd5b505050506040513d601f19601f8201168201806040525081019061179b919061401f565b506000600260009054906101000a900473ffffffffffffffffffffffffffffffffffffffff1673ffffffffffffffffffffffffffffffffffffffff1663ce5494bb846040518263ffffffff1660e01b81526004016117f99190614879565b602060405180830381600087803b15801561181357600080fd5b505af1158015611827573d6000803e3d6000fd5b505050506040513d601f19601f8201168201806040525081019061184b9190614071565b90508073ffffffffffffffffffffffffffffffffffffffff166370a08231306040518263ffffffff1660e01b8152600401611886919061478f565b60206040518083038186803b15801561189e57600080fd5b505afa1580156118b2573d6000803e3d6000fd5b505050506040513d601f19601f820116820180604052508101906118d69190614208565b8214611917576040517f08c379a000000000000000000000000000000000000000000000000000000000815260040161190e906149c7565b60405180910390fd5b8060048581548110611952577f4e487b7100000000000000000000000000000000000000000000000000000000600052603260045260246000fd5b9060005260206000200160006101000a81548173ffffffffffffffffffffffffffffffffffffffff021916908373ffffffffffffffffffffffffffffffffffffffff16021790555050505050565b6000600160009054906101000a900473ffffffffffffffffffffffffffffffffffffffff1690508073ffffffffffffffffffffffffffffffffffffffff163373ffffffffffffffffffffffffffffffffffffffff1614611a35576040517f08c379a0000000000000000000000000000000000000000000000000000000008152600401611a2c90614a47565b60405180910390fd5b8073ffffffffffffffffffffffffffffffffffffffff1660008054906101000a900473ffffffffffffffffffffffffffffffffffffffff1673ffffffffffffffffffffffffffffffffffffffff167f8be0079c531659141344cd1fd0a4f28419497f9722a3daafe3b4186f6b6457e060405160405180910390a3806000806101000a81548173ffffffffffffffffffffffffffffffffffffffff021916908373ffffffffffffffffffffffffffffffffffffffff1602179055506000600160006101000a81548173ffffffffffffffffffffffffffffffffffffffff021916908373ffffffffffffffffffffffffffffffffffffffff16021790555050565b7f000000000000000000000000000000000000000000000000000000000000000073ffffffffffffffffffffffffffffffffffffffff1663e2bbb1587f000000000000000000000000000000000000000000000000000000000000000060006040518363ffffffff1660e01b8152600401611bb0929190614cbf565b600060405180830381600087803b158015611bca57600080fd5b505af1158015611bde573d6000803e3d6000fd5b50505050565b611bec613c95565b60038281548110611c26577f4e487b7100000000000000000000000000000000000000000000000000000000600052603260045260246000fd5b906000526020600020016040518060600160405290816000820160009054906101000a90046fffffffffffffffffffffffffffffffff166fffffffffffffffffffffffffffffffff166fffffffffffffffffffffffffffffffff1681526020016000820160109054906101000a900467ffffffffffffffff1667ffffffffffffffff1667ffffffffffffffff1681526020016000820160189054906101000a900467ffffffffffffffff1667ffffffffffffffff1667ffffffffffffffff16815250509050806020015167ffffffffffffffff1643111561204357600060048381548110611d3d577f4e487b7100000000000000000000000000000000000000000000000000000000600052603260045260246000fd5b9060005260206000200160009054906101000a900473ffffffffffffffffffffffffffffffffffffffff1673ffffffffffffffffffffffffffffffffffffffff166370a08231306040518263ffffffff1660e01b8152600401611da0919061478f565b60206040518083038186803b158015611db857600080fd5b505afa158015611dcc573d6000803e3d6000fd5b505050506040513d601f19601f82011682018060405250810190611df09190614208565b90506000811115611ef0576000611e1e836020015167ffffffffffffffff16436136ca90919063ffffffff16565b90506000600754611e5f856040015167ffffffffffffffff16611e51611e426120df565b866135dc90919063ffffffff16565b6135dc90919063ffffffff16565b611e699190614f57565b9050611ebe611e9984611e8a64e8d4a51000856135dc90919063ffffffff16565b611e949190614f57565b613a1d565b85600001516fffffffffffffffffffffffffffffffff16613a7c90919063ffffffff16565b84600001906fffffffffffffffffffffffffffffffff1690816fffffffffffffffffffffffffffffffff168152505050505b611ef943613af9565b826020019067ffffffffffffffff16908167ffffffffffffffff16815250508160038481548110611f53577f4e487b7100000000000000000000000000000000000000000000000000000000600052603260045260246000fd5b9060005260206000200160008201518160000160006101000a8154816fffffffffffffffffffffffffffffffff02191690836fffffffffffffffffffffffffffffffff16021790555060208201518160000160106101000a81548167ffffffffffffffff021916908367ffffffffffffffff16021790555060408201518160000160186101000a81548167ffffffffffffffff021916908367ffffffffffffffff160217905550905050827f0fc9545022a542541ad085d091fb09a2ab36fee366a4576ab63714ea907ad353836020015183856000015160405161203993929190614d11565b60405180910390a2505b919050565b600082829050905060005b818110156120b5576120a3848483818110612097577f4e487b7100000000000000000000000000000000000000000000000000000000600052603260045260246000fd5b90506020020135611be4565b50806120ae906152a0565b9050612053565b50505050565b7f000000000000000000000000000000000000000000000000000000000000000081565b60007f000000000000000000000000000000000000000000000000000000000000000073ffffffffffffffffffffffffffffffffffffffff166317caf6f16040518163ffffffff1660e01b815260040160206040518083038186803b15801561214757600080fd5b505afa15801561215b573d6000803e3d6000fd5b505050506040513d601f19601f8201168201806040525081019061217f9190614208565b6122677f000000000000000000000000000000000000000000000000000000000000000073ffffffffffffffffffffffffffffffffffffffff16631526fe277f00000000000000000000000000000000000000000000000000000000000000006040518263ffffffff1660e01b81526004016121fb9190614b59565b60806040518083038186803b15801561221357600080fd5b505afa158015612227573d6000803e3d6000fd5b505050506040513d601f19601f8201168201806040525081019061224b91906141b6565b6020015168056bc75e2d631000006135dc90919063ffffffff16565b6122719190614f57565b905090565b6004818154811061228657600080fd5b906000526020600020016000915054906101000a900473ffffffffffffffffffffffffffffffffffffffff1681565b8773ffffffffffffffffffffffffffffffffffffffff1663d505accf888888888888886040518863ffffffff1660e01b81526004016122fa97969594939291906147e1565b600060405180830381600087803b15801561231457600080fd5b505af1158015612328573d6000803e3d6000fd5b505050505050505050505050565b600260009054906101000a900473ffffffffffffffffffffffffffffffffffffffff1681565b60008054906101000a900473ffffffffffffffffffffffffffffffffffffffff1673ffffffffffffffffffffffffffffffffffffffff163373ffffffffffffffffffffffffffffffffffffffff16146123ea576040517f08c379a00000000000000000000000000000000000000000000000000000000081526004016123e190614a27565b60405180910390fd5b612476836124686003878154811061242b577f4e487b7100000000000000000000000000000000000000000000000000000000600052603260045260246000fd5b9060005260206000200160000160189054906101000a900467ffffffffffffffff1667ffffffffffffffff166007546136ca90919063ffffffff16565b613b5090919063ffffffff16565b60078190555061248583613af9565b600385815481106124bf577f4e487b7100000000000000000000000000000000000000000000000000000000600052603260045260246000fd5b9060005260206000200160000160186101000a81548167ffffffffffffffff021916908367ffffffffffffffff160217905550801561257c578160058581548110612533577f4e487b7100000000000000000000000000000000000000000000000000000000600052603260045260246000fd5b9060005260206000200160006101000a81548173ffffffffffffffffffffffffffffffffffffffff021916908373ffffffffffffffffffffffffffffffffffffffff1602179055505b806125eb57600584815481106125bb577f4e487b7100000000000000000000000000000000000000000000000000000000600052603260045260246000fd5b9060005260206000200160009054906101000a900473ffffffffffffffffffffffffffffffffffffffff166125ed565b815b73ffffffffffffffffffffffffffffffffffffffff16847f95895a6ab1df54420d241b55243258a33e61b2194db66c1179ec521aae8e18658584604051612635929190614c6d565b60405180910390a350505050565b60008054906101000a900473ffffffffffffffffffffffffffffffffffffffff1681565b600061267284611be4565b905060006006600086815260200190815260200160002060008473ffffffffffffffffffffffffffffffffffffffff1673ffffffffffffffffffffffffffffffffffffffff16815260200190815260200160002090506126df848260000154613b5090919063ffffffff16565b816000018190555061273664e8d4a5100061271984600001516fffffffffffffffffffffffffffffffff16876135dc90919063ffffffff16565b6127239190614f57565b8260010154613ba990919063ffffffff16565b816001018190555060006005868154811061277a577f4e487b7100000000000000000000000000000000000000000000000000000000600052603260045260246000fd5b9060005260206000200160009054906101000a900473ffffffffffffffffffffffffffffffffffffffff169050600073ffffffffffffffffffffffffffffffffffffffff168173ffffffffffffffffffffffffffffffffffffffff1614612854578073ffffffffffffffffffffffffffffffffffffffff1663860cbfe4878687600087600001546040518663ffffffff1660e01b8152600401612821959493929190614bc7565b600060405180830381600087803b15801561283b57600080fd5b505af115801561284f573d6000803e3d6000fd5b505050505b6128e533308760048a81548110612894577f4e487b7100000000000000000000000000000000000000000000000000000000600052603260045260246000fd5b9060005260206000200160009054906101000a900473ffffffffffffffffffffffffffffffffffffffff1673ffffffffffffffffffffffffffffffffffffffff166138c5909392919063ffffffff16565b8373ffffffffffffffffffffffffffffffffffffffff16863373ffffffffffffffffffffffffffffffffffffffff167f02d7e648dd130fc184d383e55bb126ac4c9c60e8f94bf05acdf557ba2d540b47886040516129439190614b59565b60405180910390a4505050505050565b6006602052816000526040600020602052806000526040600020600091509150508060000154908060010154905082565b7f000000000000000000000000000000000000000000000000000000000000000081565b60008054906101000a900473ffffffffffffffffffffffffffffffffffffffff1673ffffffffffffffffffffffffffffffffffffffff163373ffffffffffffffffffffffffffffffffffffffff1614612a36576040517f08c379a0000000000000000000000000000000000000000000000000000000008152600401612a2d90614a27565b60405180910390fd5b6000439050612a5084600754613b5090919063ffffffff16565b6007819055506004839080600181540180825580915050600190039060005260206000200160009091909190916101000a81548173ffffffffffffffffffffffffffffffffffffffff021916908373ffffffffffffffffffffffffffffffffffffffff1602179055506005829080600181540180825580915050600190039060005260206000200160009091909190916101000a81548173ffffffffffffffffffffffffffffffffffffffff021916908373ffffffffffffffffffffffffffffffffffffffff1602179055506003604051806060016040528060006fffffffffffffffffffffffffffffffff168152602001612b4b84613af9565b67ffffffffffffffff168152602001612b6387613af9565b67ffffffffffffffff168152509080600181540180825580915050600190039060005260206000200160009091909190915060008201518160000160006101000a8154816fffffffffffffffffffffffffffffffff02191690836fffffffffffffffffffffffffffffffff16021790555060208201518160000160106101000a81548167ffffffffffffffff021916908367ffffffffffffffff16021790555060408201518160000160186101000a81548167ffffffffffffffff021916908367ffffffffffffffff16021790555050508173ffffffffffffffffffffffffffffffffffffffff168373ffffffffffffffffffffffffffffffffffffffff16612c7b60016004805490506136ca90919063ffffffff16565b7f81ee0f8c5c46e2cb41984886f77a84181724abb86c32a5f6de539b07509d45e587604051612caa9190614b59565b60405180910390a450505050565b60058181548110612cc857600080fd5b906000526020600020016000915054906101000a900473ffffffffffffffffffffffffffffffffffffffff1681565b6000612d0284611be4565b905060006006600086815260200190815260200160002060003373ffffffffffffffffffffffffffffffffffffffff1673ffffffffffffffffffffffffffffffffffffffff1681526020019081526020016000209050600064e8d4a51000612d8d84600001516fffffffffffffffffffffffffffffffff1684600001546135dc90919063ffffffff16565b612d979190614f57565b90506000612dba612db584600101548461364990919063ffffffff16565b613878565b9050612e0764e8d4a51000612dee86600001516fffffffffffffffffffffffffffffffff16896135dc90919063ffffffff16565b612df89190614f57565b8361364990919063ffffffff16565b8360010181905550612e268684600001546136ca90919063ffffffff16565b8360000181905550612e7985827f000000000000000000000000000000000000000000000000000000000000000073ffffffffffffffffffffffffffffffffffffffff166137239092919063ffffffff16565b600060058881548110612eb5577f4e487b7100000000000000000000000000000000000000000000000000000000600052603260045260246000fd5b9060005260206000200160009054906101000a900473ffffffffffffffffffffffffffffffffffffffff169050600073ffffffffffffffffffffffffffffffffffffffff168173ffffffffffffffffffffffffffffffffffffffff1614612f8e578073ffffffffffffffffffffffffffffffffffffffff1663860cbfe48933898689600001546040518663ffffffff1660e01b8152600401612f5b959493929190614c1a565b600060405180830381600087803b158015612f7557600080fd5b505af1158015612f89573d6000803e3d6000fd5b505050505b61301d868860048b81548110612fcd577f4e487b7100000000000000000000000000000000000000000000000000000000600052603260045260246000fd5b9060005260206000200160009054906101000a900473ffffffffffffffffffffffffffffffffffffffff1673ffffffffffffffffffffffffffffffffffffffff166137239092919063ffffffff16565b8573ffffffffffffffffffffffffffffffffffffffff16883373ffffffffffffffffffffffffffffffffffffffff167f8166bf25f8a2b7ed3c85049207da4358d16edbed977d23fa2ee6f0dde3ec21328a60405161307b9190614b59565b60405180910390a4873373ffffffffffffffffffffffffffffffffffffffff167f71bab65ced2e5750775a0613be067df48ef06cf92a496ebf7663ae0660924954846040516130ca9190614b59565b60405180910390a35050505050505050565b60005b8383905081101561320c576000803073ffffffffffffffffffffffffffffffffffffffff1686868581811061313d577f4e487b7100000000000000000000000000000000000000000000000000000000600052603260045260246000fd5b905060200281019061314f9190614d48565b60405161315d92919061475f565b600060405180830381855af49150503d8060008114613198576040519150601f19603f3d011682016040523d82523d6000602084013e61319d565b606091505b5091509150811580156131ad5750835b156131f7576131bb81613c2a565b6040517f08c379a00000000000000000000000000000000000000000000000000000000081526004016131ee91906148e5565b60405180910390fd5b50508080613204906152a0565b9150506130df565b50505050565b6000806003848154811061324f577f4e487b7100000000000000000000000000000000000000000000000000000000600052603260045260246000fd5b906000526020600020016040518060600160405290816000820160009054906101000a90046fffffffffffffffffffffffffffffffff166fffffffffffffffffffffffffffffffff166fffffffffffffffffffffffffffffffff1681526020016000820160109054906101000a900467ffffffffffffffff1667ffffffffffffffff1667ffffffffffffffff1681526020016000820160189054906101000a900467ffffffffffffffff1667ffffffffffffffff1667ffffffffffffffff1681525050905060006006600086815260200190815260200160002060008573ffffffffffffffffffffffffffffffffffffffff1673ffffffffffffffffffffffffffffffffffffffff1681526020019081526020016000209050600082600001516fffffffffffffffffffffffffffffffff1690506000600487815481106133bf577f4e487b7100000000000000000000000000000000000000000000000000000000600052603260045260246000fd5b9060005260206000200160009054906101000a900473ffffffffffffffffffffffffffffffffffffffff1673ffffffffffffffffffffffffffffffffffffffff166370a08231306040518263ffffffff1660e01b8152600401613422919061478f565b60206040518083038186803b15801561343a57600080fd5b505afa15801561344e573d6000803e3d6000fd5b505050506040513d601f19601f820116820180604052508101906134729190614208565b9050836020015167ffffffffffffffff1643118015613492575060008114155b156135415760006134ba856020015167ffffffffffffffff16436136ca90919063ffffffff16565b905060006007546134fb876040015167ffffffffffffffff166134ed6134de6120df565b866135dc90919063ffffffff16565b6135dc90919063ffffffff16565b6135059190614f57565b905061353c8361352364e8d4a51000846135dc90919063ffffffff16565b61352d9190614f57565b85613b5090919063ffffffff16565b935050505b613586613581846001015464e8d4a510006135698688600001546135dc90919063ffffffff16565b6135739190614f57565b61364990919063ffffffff16565b613878565b94505050505092915050565b600160009054906101000a900473ffffffffffffffffffffffffffffffffffffffff1681565b7f000000000000000000000000000000000000000000000000000000000000000081565b6000808214806136045750828283856135f59190614f88565b9250826136029190614f57565b145b613643576040517f08c379a000000000000000000000000000000000000000000000000000000000815260040161363a90614ae7565b60405180910390fd5b92915050565b60008082846136589190614fe2565b90506000831215801561366b5750838113155b80613681575060008312801561368057508381135b5b6136c0576040517f08c379a00000000000000000000000000000000000000000000000000000000081526004016136b790614aa7565b60405180910390fd5b8091505092915050565b60008282846136d99190615076565b915081111561371d576040517f08c379a000000000000000000000000000000000000000000000000000000000815260040161371490614907565b60405180910390fd5b92915050565b6000808473ffffffffffffffffffffffffffffffffffffffff1663a9059cbb60e01b8585604051602401613758929190614850565b604051602081830303815290604052907bffffffffffffffffffffffffffffffffffffffffffffffffffffffff19166020820180517bffffffffffffffffffffffffffffffffffffffffffffffffffffffff83818316178352505050506040516137c29190614778565b6000604051808303816000865af19150503d80600081146137ff576040519150601f19603f3d011682016040523d82523d6000602084013e613804565b606091505b50915091508180156138325750600081511480613831575080806020019051810190613830919061401f565b5b5b613871576040517f08c379a000000000000000000000000000000000000000000000000000000000815260040161386890614967565b60405180910390fd5b5050505050565b6000808212156138bd576040517f08c379a00000000000000000000000000000000000000000000000000000000081526004016138b490614927565b60405180910390fd5b819050919050565b6000808573ffffffffffffffffffffffffffffffffffffffff166323b872dd60e01b8686866040516024016138fc939291906147aa565b604051602081830303815290604052907bffffffffffffffffffffffffffffffffffffffffffffffffffffffff19166020820180517bffffffffffffffffffffffffffffffffffffffffffffffffffffffff83818316178352505050506040516139669190614778565b6000604051808303816000865af19150503d80600081146139a3576040519150601f19603f3d011682016040523d82523d6000602084013e6139a8565b606091505b50915091508180156139d657506000815114806139d55750808060200190518101906139d4919061401f565b5b5b613a15576040517f08c379a0000000000000000000000000000000000000000000000000000000008152600401613a0c90614ac7565b60405180910390fd5b505050505050565b60006fffffffffffffffffffffffffffffffff8016821115613a74576040517f08c379a0000000000000000000000000000000000000000000000000000000008152600401613a6b906149e7565b60405180910390fd5b819050919050565b6000816fffffffffffffffffffffffffffffffff168284613a9d9190614ebb565b9150816fffffffffffffffffffffffffffffffff161015613af3576040517f08c379a0000000000000000000000000000000000000000000000000000000008152600401613aea90614a07565b60405180910390fd5b92915050565b600067ffffffffffffffff8016821115613b48576040517f08c379a0000000000000000000000000000000000000000000000000000000008152600401613b3f90614a67565b60405180910390fd5b819050919050565b6000818284613b5f9190614f01565b9150811015613ba3576040517f08c379a0000000000000000000000000000000000000000000000000000000008152600401613b9a90614a07565b60405180910390fd5b92915050565b6000808284613bb89190614e27565b905060008312158015613bcb5750838112155b80613be15750600083128015613be057508381125b5b613c20576040517f08c379a0000000000000000000000000000000000000000000000000000000008152600401613c1790614987565b60405180910390fd5b8091505092915050565b6060604482511015613c73576040518060400160405280601d81526020017f5472616e73616374696f6e2072657665727465642073696c656e746c790000008152509050613c90565b60048201915081806020019051810190613c8d9190614175565b90505b919050565b604051806060016040528060006fffffffffffffffffffffffffffffffff168152602001600067ffffffffffffffff168152602001600067ffffffffffffffff1681525090565b6000613cef613cea84614dc4565b614d9f565b905082815260208101848484011115613d0757600080fd5b613d1284828561523c565b509392505050565b600081359050613d29816156af565b92915050565b60008083601f840112613d4157600080fd5b8235905067ffffffffffffffff811115613d5a57600080fd5b602083019150836020820283011115613d7257600080fd5b9250929050565b60008083601f840112613d8b57600080fd5b8235905067ffffffffffffffff811115613da457600080fd5b602083019150836020820283011115613dbc57600080fd5b9250929050565b600081359050613dd2816156c6565b92915050565b600081519050613de7816156c6565b92915050565b600081359050613dfc816156dd565b92915050565b600081359050613e11816156f4565b92915050565b600081519050613e26816156f4565b92915050565b600081359050613e3b8161570b565b92915050565b600081359050613e5081615722565b92915050565b600082601f830112613e6757600080fd5b8151613e77848260208601613cdc565b91505092915050565b600060808284031215613e9257600080fd5b613e9c6080614d9f565b90506000613eac84828501613e17565b6000830152506020613ec084828501613f09565b6020830152506040613ed484828501613f09565b6040830152506060613ee884828501613f09565b60608301525092915050565b600081359050613f0381615739565b92915050565b600081519050613f1881615739565b92915050565b600081359050613f2d81615750565b92915050565b600080600060608486031215613f4857600080fd5b6000613f5686828701613d1a565b9350506020613f6786828701613dc3565b9250506040613f7886828701613dc3565b9150509250925092565b600080600060408486031215613f9757600080fd5b600084013567ffffffffffffffff811115613fb157600080fd5b613fbd86828701613d2f565b93509350506020613fd086828701613dc3565b9150509250925092565b60008060208385031215613fed57600080fd5b600083013567ffffffffffffffff81111561400757600080fd5b61401385828601613d79565b92509250509250929050565b60006020828403121561403157600080fd5b600061403f84828501613dd8565b91505092915050565b60006020828403121561405a57600080fd5b600061406884828501613e02565b91505092915050565b60006020828403121561408357600080fd5b600061409184828501613e17565b91505092915050565b600080600080600080600080610100898b0312156140b757600080fd5b60006140c58b828c01613e02565b98505060206140d68b828c01613d1a565b97505060406140e78b828c01613d1a565b96505060606140f88b828c01613ef4565b95505060806141098b828c01613ef4565b94505060a061411a8b828c01613f1e565b93505060c061412b8b828c01613ded565b92505060e061413c8b828c01613ded565b9150509295985092959890939650565b60006020828403121561415e57600080fd5b600061416c84828501613e2c565b91505092915050565b60006020828403121561418757600080fd5b600082015167ffffffffffffffff8111156141a157600080fd5b6141ad84828501613e56565b91505092915050565b6000608082840312156141c857600080fd5b60006141d684828501613e80565b91505092915050565b6000602082840312156141f157600080fd5b60006141ff84828501613ef4565b91505092915050565b60006020828403121561421a57600080fd5b600061422884828501613f09565b91505092915050565b6000806040838503121561424457600080fd5b600061425285828601613ef4565b925050602061426385828601613d1a565b9150509250929050565b60008060006060848603121561428257600080fd5b600061429086828701613ef4565b93505060206142a186828701613e02565b92505060406142b286828701613e41565b9150509250925092565b6000806000606084860312156142d157600080fd5b60006142df86828701613ef4565b93505060206142f086828701613ef4565b925050604061430186828701613d1a565b9150509250925092565b6000806000806080858703121561432157600080fd5b600061432f87828801613ef4565b945050602061434087828801613ef4565b935050604061435187828801613e41565b925050606061436287828801613dc3565b91505092959194509250565b614377816150aa565b82525050565b614386816150bc565b82525050565b614395816150c8565b82525050565b60006143a78385614e0b565b93506143b483858461522d565b82840190509392505050565b60006143cb82614df5565b6143d58185614e0b565b93506143e581856020860161523c565b80840191505092915050565b6143fa81615179565b82525050565b6144098161519d565b82525050565b614418816151c1565b82525050565b614427816151e5565b82525050565b61443681615108565b82525050565b61444581615209565b82525050565b600061445682614e00565b6144608185614e16565b935061447081856020860161523c565b61447981615376565b840191505092915050565b6000614491601583614e16565b915061449c82615387565b602082019050919050565b60006144b4600b83614e16565b91506144bf826153b0565b602082019050919050565b60006144d7602383614e16565b91506144e2826153d9565b604082019050919050565b60006144fa601c83614e16565b915061450582615428565b602082019050919050565b600061451d602183614e16565b915061452882615451565b604082019050919050565b6000614540601583614e16565b915061454b826154a0565b602082019050919050565b6000614563602983614e16565b915061456e826154c9565b604082019050919050565b6000614586601c83614e16565b915061459182615518565b602082019050919050565b60006145a9601883614e16565b91506145b482615541565b602082019050919050565b60006145cc602083614e16565b91506145d78261556a565b602082019050919050565b60006145ef602083614e16565b91506145fa82615593565b602082019050919050565b6000614612601b83614e16565b915061461d826155bc565b602082019050919050565b6000614635601d83614e16565b9150614640826155e5565b602082019050919050565b6000614658602483614e16565b91506146638261560e565b604082019050919050565b600061467b602083614e16565b91506146868261565d565b602082019050919050565b600061469e601883614e16565b91506146a982615686565b602082019050919050565b6060820160008201516146ca60008501826146f6565b5060208201516146dd6020850182614732565b5060408201516146f06040850182614732565b50505050565b6146ff81615112565b82525050565b61470e81615112565b82525050565b61471d8161521b565b82525050565b61472c8161514e565b82525050565b61473b81615158565b82525050565b61474a81615158565b82525050565b6147598161516c565b82525050565b600061476c82848661439b565b91508190509392505050565b600061478482846143c0565b915081905092915050565b60006020820190506147a4600083018461436e565b92915050565b60006060820190506147bf600083018661436e565b6147cc602083018561436e565b6147d96040830184614723565b949350505050565b600060e0820190506147f6600083018a61436e565b614803602083018961436e565b6148106040830188614723565b61481d6060830187614723565b61482a6080830186614750565b61483760a083018561438c565b61484460c083018461438c565b98975050505050505050565b6000604082019050614865600083018561436e565b6148726020830184614723565b9392505050565b600060208201905061488e60008301846143f1565b92915050565b60006020820190506148a96000830184614400565b92915050565b60006020820190506148c4600083018461440f565b92915050565b60006020820190506148df600083018461441e565b92915050565b600060208201905081810360008301526148ff818461444b565b905092915050565b6000602082019050818103600083015261492081614484565b9050919050565b60006020820190508181036000830152614940816144a7565b9050919050565b60006020820190508181036000830152614960816144ca565b9050919050565b60006020820190508181036000830152614980816144ed565b9050919050565b600060208201905081810360008301526149a081614510565b9050919050565b600060208201905081810360008301526149c081614533565b9050919050565b600060208201905081810360008301526149e081614556565b9050919050565b60006020820190508181036000830152614a0081614579565b9050919050565b60006020820190508181036000830152614a208161459c565b9050919050565b60006020820190508181036000830152614a40816145bf565b9050919050565b60006020820190508181036000830152614a60816145e2565b9050919050565b60006020820190508181036000830152614a8081614605565b9050919050565b60006020820190508181036000830152614aa081614628565b9050919050565b60006020820190508181036000830152614ac08161464b565b9050919050565b60006020820190508181036000830152614ae08161466e565b9050919050565b60006020820190508181036000830152614b0081614691565b9050919050565b6000606082019050614b1c60008301846146b4565b92915050565b6000606082019050614b376000830186614705565b614b446020830185614741565b614b516040830184614741565b949350505050565b6000602082019050614b6e6000830184614723565b92915050565b600060a082019050614b896000830188614723565b614b96602083018761436e565b614ba3604083018661436e565b614bb0606083018561443c565b614bbd608083018461443c565b9695505050505050565b600060a082019050614bdc6000830188614723565b614be9602083018761436e565b614bf6604083018661436e565b614c03606083018561443c565b614c106080830184614723565b9695505050505050565b600060a082019050614c2f6000830188614723565b614c3c602083018761436e565b614c49604083018661436e565b614c566060830185614723565b614c636080830184614723565b9695505050505050565b6000604082019050614c826000830185614723565b614c8f602083018461437d565b9392505050565b6000604082019050614cab6000830185614723565b614cb8602083018461442d565b9392505050565b6000604082019050614cd46000830185614723565b614ce1602083018461443c565b9392505050565b6000604082019050614cfd6000830185614723565b614d0a6020830184614723565b9392505050565b6000606082019050614d266000830186614741565b614d336020830185614723565b614d406040830184614714565b949350505050565b60008083356001602003843603038112614d6157600080fd5b80840192508235915067ffffffffffffffff821115614d7f57600080fd5b602083019250600182023603831315614d9757600080fd5b509250929050565b6000614da9614dba565b9050614db5828261526f565b919050565b6000604051905090565b600067ffffffffffffffff821115614ddf57614dde615347565b5b614de882615376565b9050602081019050919050565b600081519050919050565b600081519050919050565b600081905092915050565b600082825260208201905092915050565b6000614e3282615108565b9150614e3d83615108565b9250817f7fffffffffffffffffffffffffffffffffffffffffffffffffffffffffffffff03831360008312151615614e7857614e776152e9565b5b817f8000000000000000000000000000000000000000000000000000000000000000038312600083121615614eb057614eaf6152e9565b5b828201905092915050565b6000614ec682615112565b9150614ed183615112565b9250826fffffffffffffffffffffffffffffffff03821115614ef657614ef56152e9565b5b828201905092915050565b6000614f0c8261514e565b9150614f178361514e565b9250827fffffffffffffffffffffffffffffffffffffffffffffffffffffffffffffffff03821115614f4c57614f4b6152e9565b5b828201905092915050565b6000614f628261514e565b9150614f6d8361514e565b925082614f7d57614f7c615318565b5b828204905092915050565b6000614f938261514e565b9150614f9e8361514e565b9250817fffffffffffffffffffffffffffffffffffffffffffffffffffffffffffffffff0483118215151615614fd757614fd66152e9565b5b828202905092915050565b6000614fed82615108565b9150614ff883615108565b9250827f800000000000000000000000000000000000000000000000000000000000000001821260008412151615615033576150326152e9565b5b827f7fffffffffffffffffffffffffffffffffffffffffffffffffffffffffffffff01821360008412161561506b5761506a6152e9565b5b828203905092915050565b60006150818261514e565b915061508c8361514e565b92508282101561509f5761509e6152e9565b5b828203905092915050565b60006150b58261512e565b9050919050565b60008115159050919050565b6000819050919050565b60006150dd826150aa565b9050919050565b60006150ef826150aa565b9050919050565b6000615101826150aa565b9050919050565b6000819050919050565b60006fffffffffffffffffffffffffffffffff82169050919050565b600073ffffffffffffffffffffffffffffffffffffffff82169050919050565b6000819050919050565b600067ffffffffffffffff82169050919050565b600060ff82169050919050565b60006151848261518b565b9050919050565b60006151968261512e565b9050919050565b60006151a8826151af565b9050919050565b60006151ba8261512e565b9050919050565b60006151cc826151d3565b9050919050565b60006151de8261512e565b9050919050565b60006151f0826151f7565b9050919050565b60006152028261512e565b9050919050565b60006152148261514e565b9050919050565b600061522682615112565b9050919050565b82818337600083830152505050565b60005b8381101561525a57808201518184015260208101905061523f565b83811115615269576000848401525b50505050565b61527882615376565b810181811067ffffffffffffffff8211171561529757615296615347565b5b80604052505050565b60006152ab8261514e565b91507fffffffffffffffffffffffffffffffffffffffffffffffffffffffffffffffff8214156152de576152dd6152e9565b5b600182019050919050565b7f4e487b7100000000000000000000000000000000000000000000000000000000600052601160045260246000fd5b7f4e487b7100000000000000000000000000000000000000000000000000000000600052601260045260246000fd5b7f4e487b7100000000000000000000000000000000000000000000000000000000600052604160045260246000fd5b6000601f19601f8301169050919050565b7f426f72696e674d6174683a20556e646572666c6f770000000000000000000000600082015250565b7f496e7465676572203c2030000000000000000000000000000000000000000000600082015250565b7f4d61737465724368656656323a2042616c616e6365206d75737420657863656560008201527f6420300000000000000000000000000000000000000000000000000000000000602082015250565b7f426f72696e6745524332303a205472616e73666572206661696c656400000000600082015250565b7f5369676e6564536166654d6174683a206164646974696f6e206f766572666c6f60008201527f7700000000000000000000000000000000000000000000000000000000000000602082015250565b7f4f776e61626c653a207a65726f20616464726573730000000000000000000000600082015250565b7f4d61737465724368656656323a206d696772617465642062616c616e6365206d60008201527f757374206d617463680000000000000000000000000000000000000000000000602082015250565b7f426f72696e674d6174683a2075696e74313238204f766572666c6f7700000000600082015250565b7f426f72696e674d6174683a20416464204f766572666c6f770000000000000000600082015250565b7f4f776e61626c653a2063616c6c6572206973206e6f7420746865206f776e6572600082015250565b7f4f776e61626c653a2063616c6c657220213d2070656e64696e67206f776e6572600082015250565b7f426f72696e674d6174683a2075696e743634204f766572666c6f770000000000600082015250565b7f4d61737465724368656656323a206e6f206d69677261746f7220736574000000600082015250565b7f5369676e6564536166654d6174683a207375627472616374696f6e206f76657260008201527f666c6f7700000000000000000000000000000000000000000000000000000000602082015250565b7f426f72696e6745524332303a205472616e7366657246726f6d206661696c6564600082015250565b7f426f72696e674d6174683a204d756c204f766572666c6f770000000000000000600082015250565b6156b8816150aa565b81146156c357600080fd5b50565b6156cf816150bc565b81146156da57600080fd5b50565b6156e6816150c8565b81146156f157600080fd5b50565b6156fd816150d2565b811461570857600080fd5b50565b615714816150e4565b811461571f57600080fd5b50565b61572b816150f6565b811461573657600080fd5b50565b6157428161514e565b811461574d57600080fd5b50565b6157598161516c565b811461576457600080fd5b5056fea26469706673582212202ff3d3efbaa6e71b38e4a2dfc27b4d21b7270b43a15190fd6323ab103ba318e864736f6c63430008040033",
  "linkReferences": {},
  "deployedLinkReferences": {}
}