{
  "_format": "hh-sol-artifact-1",
  "contractName": "KaidexMasterChefV2",
  "sourceName": "contracts/farming/KaidexMasterChefV2.sol",
  "abi": [
    {
      "inputs": [
        {
          "internalType": "contract IMasterChef",
          "name": "_MASTER_CHEF",
          "type": "address"
        },
        {
          "internalType": "contract IERC20",
          "name": "_kdx",
          "type": "address"
        },
        {
          "internalType": "uint256",
          "name": "_MASTER_PID",
          "type": "uint256"
        }
      ],
      "stateMutability": "nonpayable",
      "type": "constructor"
    },
    {
      "anonymous": false,
      "inputs": [
        {
          "indexed": true,
          "internalType": "address",
          "name": "user",
          "type": "address"
        },
        {
          "indexed": true,
          "internalType": "uint256",
          "name": "pid",
          "type": "uint256"
        },
        {
          "indexed": false,
          "internalType": "uint256",
          "name": "amount",
          "type": "uint256"
        },
        {
          "indexed": true,
          "internalType": "address",
          "name": "to",
          "type": "address"
        }
      ],
      "name": "Deposit",
      "type": "event"
    },
    {
      "anonymous": false,
      "inputs": [
        {
          "indexed": true,
          "internalType": "address",
          "name": "user",
          "type": "address"
        },
        {
          "indexed": true,
          "internalType": "uint256",
          "name": "pid",
          "type": "uint256"
        },
        {
          "indexed": false,
          "internalType": "uint256",
          "name": "amount",
          "type": "uint256"
        },
        {
          "indexed": true,
          "internalType": "address",
          "name": "to",
          "type": "address"
        }
      ],
      "name": "EmergencyWithdraw",
      "type": "event"
    },
    {
      "anonymous": false,
      "inputs": [
        {
          "indexed": true,
          "internalType": "address",
          "name": "user",
          "type": "address"
        },
        {
          "indexed": true,
          "internalType": "uint256",
          "name": "pid",
          "type": "uint256"
        },
        {
          "indexed": false,
          "internalType": "uint256",
          "name": "amount",
          "type": "uint256"
        }
      ],
      "name": "Harvest",
      "type": "event"
    },
    {
      "anonymous": false,
      "inputs": [],
      "name": "LogInit",
      "type": "event"
    },
    {
      "anonymous": false,
      "inputs": [
        {
          "indexed": true,
          "internalType": "uint256",
          "name": "pid",
          "type": "uint256"
        },
        {
          "indexed": false,
          "internalType": "uint256",
          "name": "allocPoint",
          "type": "uint256"
        },
        {
          "indexed": true,
          "internalType": "contract IERC20",
          "name": "lpToken",
          "type": "address"
        },
        {
          "indexed": true,
          "internalType": "contract IRewarder",
          "name": "rewarder",
          "type": "address"
        }
      ],
      "name": "LogPoolAddition",
      "type": "event"
    },
    {
      "anonymous": false,
      "inputs": [
        {
          "indexed": true,
          "internalType": "uint256",
          "name": "pid",
          "type": "uint256"
        },
        {
          "indexed": false,
          "internalType": "uint256",
          "name": "allocPoint",
          "type": "uint256"
        },
        {
          "indexed": true,
          "internalType": "contract IRewarder",
          "name": "rewarder",
          "type": "address"
        },
        {
          "indexed": false,
          "internalType": "bool",
          "name": "overwrite",
          "type": "bool"
        }
      ],
      "name": "LogSetPool",
      "type": "event"
    },
    {
      "anonymous": false,
      "inputs": [
        {
          "indexed": true,
          "internalType": "uint256",
          "name": "pid",
          "type": "uint256"
        },
        {
          "indexed": false,
          "internalType": "uint64",
          "name": "lastRewardBlock",
          "type": "uint64"
        },
        {
          "indexed": false,
          "internalType": "uint256",
          "name": "lpSupply",
          "type": "uint256"
        },
        {
          "indexed": false,
          "internalType": "uint256",
          "name": "accKdxPerShare",
          "type": "uint256"
        }
      ],
      "name": "LogUpdatePool",
      "type": "event"
    },
    {
      "anonymous": false,
      "inputs": [
        {
          "indexed": true,
          "internalType": "address",
          "name": "previousOwner",
          "type": "address"
        },
        {
          "indexed": true,
          "internalType": "address",
          "name": "newOwner",
          "type": "address"
        }
      ],
      "name": "OwnershipTransferred",
      "type": "event"
    },
    {
      "anonymous": false,
      "inputs": [
        {
          "indexed": true,
          "internalType": "address",
          "name": "user",
          "type": "address"
        },
        {
          "indexed": true,
          "internalType": "uint256",
          "name": "pid",
          "type": "uint256"
        },
        {
          "indexed": false,
          "internalType": "uint256",
          "name": "amount",
          "type": "uint256"
        },
        {
          "indexed": true,
          "internalType": "address",
          "name": "to",
          "type": "address"
        }
      ],
      "name": "Withdraw",
      "type": "event"
    },
    {
      "inputs": [],
      "name": "KDX",
      "outputs": [
        {
          "internalType": "contract IERC20",
          "name": "",
          "type": "address"
        }
      ],
      "stateMutability": "view",
      "type": "function"
    },
    {
      "inputs": [],
      "name": "MASTER_CHEF",
      "outputs": [
        {
          "internalType": "contract IMasterChef",
          "name": "",
          "type": "address"
        }
      ],
      "stateMutability": "view",
      "type": "function"
    },
    {
      "inputs": [],
      "name": "MASTER_PID",
      "outputs": [
        {
          "internalType": "uint256",
          "name": "",
          "type": "uint256"
        }
      ],
      "stateMutability": "view",
      "type": "function"
    },
    {
      "inputs": [
        {
          "internalType": "uint256",
          "name": "allocPoint",
          "type": "uint256"
        },
        {
          "internalType": "contract IERC20",
          "name": "_lpToken",
          "type": "address"
        },
        {
          "internalType": "contract IRewarder",
          "name": "_rewarder",
          "type": "address"
        },
        {
          "internalType": "bool",
          "name": "_withUpdate",
          "type": "bool"
        }
      ],
      "name": "add",
      "outputs": [],
      "stateMutability": "nonpayable",
      "type": "function"
    },
    {
      "inputs": [
        {
          "internalType": "bytes[]",
          "name": "calls",
          "type": "bytes[]"
        },
        {
          "internalType": "bool",
          "name": "revertOnFail",
          "type": "bool"
        }
      ],
      "name": "batch",
      "outputs": [
        {
          "internalType": "bool[]",
          "name": "successes",
          "type": "bool[]"
        },
        {
          "internalType": "bytes[]",
          "name": "results",
          "type": "bytes[]"
        }
      ],
      "stateMutability": "payable",
      "type": "function"
    },
    {
      "inputs": [
        {
          "internalType": "uint256",
          "name": "pid",
          "type": "uint256"
        },
        {
          "internalType": "uint256",
          "name": "amount",
          "type": "uint256"
        },
        {
          "internalType": "address",
          "name": "to",
          "type": "address"
        }
      ],
      "name": "deposit",
      "outputs": [],
      "stateMutability": "nonpayable",
      "type": "function"
    },
    {
      "inputs": [
        {
          "internalType": "uint256",
          "name": "pid",
          "type": "uint256"
        },
        {
          "internalType": "address",
          "name": "to",
          "type": "address"
        }
      ],
      "name": "emergencyWithdraw",
      "outputs": [],
      "stateMutability": "nonpayable",
      "type": "function"
    },
    {
      "inputs": [
        {
          "internalType": "uint256",
          "name": "pid",
          "type": "uint256"
        }
      ],
      "name": "getTotalDepositAmount",
      "outputs": [
        {
          "internalType": "uint256",
          "name": "",
          "type": "uint256"
        }
      ],
      "stateMutability": "view",
      "type": "function"
    },
    {
      "inputs": [
        {
          "internalType": "uint256",
          "name": "pid",
          "type": "uint256"
        },
        {
          "internalType": "address",
          "name": "to",
          "type": "address"
        }
      ],
      "name": "harvest",
      "outputs": [],
      "stateMutability": "nonpayable",
      "type": "function"
    },
    {
      "inputs": [],
      "name": "harvestFromMasterChef",
      "outputs": [],
      "stateMutability": "nonpayable",
      "type": "function"
    },
    {
      "inputs": [
        {
          "internalType": "contract IERC20",
          "name": "dummyToken",
          "type": "address"
        }
      ],
      "name": "init",
      "outputs": [],
      "stateMutability": "nonpayable",
      "type": "function"
    },
    {
      "inputs": [],
      "name": "kdxPerBlock",
      "outputs": [
        {
          "internalType": "uint256",
          "name": "amount",
          "type": "uint256"
        }
      ],
      "stateMutability": "view",
      "type": "function"
    },
    {
      "inputs": [
        {
          "internalType": "uint256",
          "name": "",
          "type": "uint256"
        }
      ],
      "name": "lpToken",
      "outputs": [
        {
          "internalType": "contract IERC20",
          "name": "",
          "type": "address"
        }
      ],
      "stateMutability": "view",
      "type": "function"
    },
    {
      "inputs": [],
      "name": "massUpdatePools",
      "outputs": [],
      "stateMutability": "nonpayable",
      "type": "function"
    },
    {
      "inputs": [],
      "name": "owner",
      "outputs": [
        {
          "internalType": "address",
          "name": "",
          "type": "address"
        }
      ],
      "stateMutability": "view",
      "type": "function"
    },
    {
      "inputs": [
        {
          "internalType": "uint256",
          "name": "_pid",
          "type": "uint256"
        },
        {
          "internalType": "address",
          "name": "_user",
          "type": "address"
        }
      ],
      "name": "pendingKDX",
      "outputs": [
        {
          "internalType": "uint256",
          "name": "pending",
          "type": "uint256"
        }
      ],
      "stateMutability": "view",
      "type": "function"
    },
    {
      "inputs": [
        {
          "internalType": "contract IKRC20Permit",
          "name": "token",
          "type": "address"
        },
        {
          "internalType": "address",
          "name": "from",
          "type": "address"
        },
        {
          "internalType": "address",
          "name": "to",
          "type": "address"
        },
        {
          "internalType": "uint256",
          "name": "amount",
          "type": "uint256"
        },
        {
          "internalType": "uint256",
          "name": "deadline",
          "type": "uint256"
        },
        {
          "internalType": "uint8",
          "name": "v",
          "type": "uint8"
        },
        {
          "internalType": "bytes32",
          "name": "r",
          "type": "bytes32"
        },
        {
          "internalType": "bytes32",
          "name": "s",
          "type": "bytes32"
        }
      ],
      "name": "permitToken",
      "outputs": [],
      "stateMutability": "nonpayable",
      "type": "function"
    },
    {
      "inputs": [
        {
          "internalType": "uint256",
          "name": "",
          "type": "uint256"
        }
      ],
      "name": "poolInfo",
      "outputs": [
        {
          "internalType": "uint128",
          "name": "accKdxPerShare",
          "type": "uint128"
        },
        {
          "internalType": "uint64",
          "name": "lastRewardBlock",
          "type": "uint64"
        },
        {
          "internalType": "uint64",
          "name": "allocPoint",
          "type": "uint64"
        },
        {
          "internalType": "uint256",
          "name": "totalAmount",
          "type": "uint256"
        }
      ],
      "stateMutability": "view",
      "type": "function"
    },
    {
      "inputs": [],
      "name": "poolLength",
      "outputs": [
        {
          "internalType": "uint256",
          "name": "pools",
          "type": "uint256"
        }
      ],
      "stateMutability": "view",
      "type": "function"
    },
    {
      "inputs": [],
      "name": "renounceOwnership",
      "outputs": [],
      "stateMutability": "nonpayable",
      "type": "function"
    },
    {
      "inputs": [
        {
          "internalType": "uint256",
          "name": "",
          "type": "uint256"
        }
      ],
      "name": "rewarder",
      "outputs": [
        {
          "internalType": "contract IRewarder",
          "name": "",
          "type": "address"
        }
      ],
      "stateMutability": "view",
      "type": "function"
    },
    {
      "inputs": [
        {
          "internalType": "uint256",
          "name": "_pid",
          "type": "uint256"
        },
        {
          "internalType": "uint256",
          "name": "_allocPoint",
          "type": "uint256"
        },
        {
          "internalType": "contract IRewarder",
          "name": "_rewarder",
          "type": "address"
        },
        {
          "internalType": "bool",
          "name": "overwrite",
          "type": "bool"
        },
        {
          "internalType": "bool",
          "name": "_withUpdate",
          "type": "bool"
        }
      ],
      "name": "set",
      "outputs": [],
      "stateMutability": "nonpayable",
      "type": "function"
    },
    {
      "inputs": [],
      "name": "totalAllocPoint",
      "outputs": [
        {
          "internalType": "uint256",
          "name": "",
          "type": "uint256"
        }
      ],
      "stateMutability": "view",
      "type": "function"
    },
    {
      "inputs": [
        {
          "internalType": "address",
          "name": "newOwner",
          "type": "address"
        }
      ],
      "name": "transferOwnership",
      "outputs": [],
      "stateMutability": "nonpayable",
      "type": "function"
    },
    {
      "inputs": [
        {
          "internalType": "uint256",
          "name": "pid",
          "type": "uint256"
        }
      ],
      "name": "updatePool",
      "outputs": [
        {
          "components": [
            {
              "internalType": "uint128",
              "name": "accKdxPerShare",
              "type": "uint128"
            },
            {
              "internalType": "uint64",
              "name": "lastRewardBlock",
              "type": "uint64"
            },
            {
              "internalType": "uint64",
              "name": "allocPoint",
              "type": "uint64"
            },
            {
              "internalType": "uint256",
              "name": "totalAmount",
              "type": "uint256"
            }
          ],
          "internalType": "struct KaidexMasterChefV2.PoolInfo",
          "name": "pool",
          "type": "tuple"
        }
      ],
      "stateMutability": "nonpayable",
      "type": "function"
    },
    {
      "inputs": [
        {
          "internalType": "uint256",
          "name": "",
          "type": "uint256"
        },
        {
          "internalType": "address",
          "name": "",
          "type": "address"
        }
      ],
      "name": "userInfo",
      "outputs": [
        {
          "internalType": "uint256",
          "name": "amount",
          "type": "uint256"
        },
        {
          "internalType": "int256",
          "name": "rewardDebt",
          "type": "int256"
        }
      ],
      "stateMutability": "view",
      "type": "function"
    },
    {
      "inputs": [
        {
          "internalType": "uint256",
          "name": "pid",
          "type": "uint256"
        },
        {
          "internalType": "uint256",
          "name": "amount",
          "type": "uint256"
        },
        {
          "internalType": "address",
          "name": "to",
          "type": "address"
        }
      ],
      "name": "withdraw",
      "outputs": [],
      "stateMutability": "nonpayable",
      "type": "function"
    },
    {
      "inputs": [
        {
          "internalType": "uint256",
          "name": "pid",
          "type": "uint256"
        },
        {
          "internalType": "uint256",
          "name": "amount",
          "type": "uint256"
        },
        {
          "internalType": "address",
          "name": "to",
          "type": "address"
        }
      ],
      "name": "withdrawAndHarvest",
      "outputs": [],
      "stateMutability": "nonpayable",
      "type": "function"
    }
  ],
  "bytecode": "0x60e06040523480156200001157600080fd5b5060405162003a4838038062003a488339810160408190526200003491620000b7565b6200003f3362000067565b600180556001600160601b0319606093841b81166080529190921b1660a05260c05262000117565b600080546001600160a01b038381166001600160a01b0319831681178455604051919092169283917f8be0079c531659141344cd1fd0a4f28419497f9722a3daafe3b4186f6b6457e09190a35050565b600080600060608486031215620000cc578283fd5b8351620000d981620000fe565b6020850151909350620000ec81620000fe565b80925050604084015190509250925092565b6001600160a01b03811681146200011457600080fd5b50565b60805160601c60a05160601c60c0516138ae6200019a6000396000818161038001528181610dde0152818161140a01526118750152600081816104fd01528181610b2f01526121ce0152600081816105d201528181610d4301528181610e0b01528181611437015281816117d70152818161189f015261192701526138ae6000f3fe6080604052600436106101b75760003560e01c806378ed5d1f116100ec578063c346253d1161008a578063d2423b5111610064578063d2423b511461057f578063dadf2144146105a0578063edd8b170146105c0578063f2fde38b146105f457600080fd5b8063c346253d1461051f578063c71b4b431461053f578063d1abb9071461055f57600080fd5b80638dbdbe6d116100c65780638dbdbe6d146104575780638e2e27231461047757806393f1a40b146104975780639dd02494146104eb57600080fd5b806378ed5d1f146103e15780637c516e94146104195780638da5cb5b1461043957600080fd5b80633deb2c101161015957806361621aaa1161013357806361621aaa1461036e578063630b5ba1146103a2578063662b5fbe146103b7578063715018a6146103cc57600080fd5b80633deb2c10146102cf5780634f70b15a146102ef57806351eb05a61461030457600080fd5b806317caf6f11161019557806317caf6f11461025957806318fccc761461026f57806319ab453c1461028f5780632f940c70146102af57600080fd5b8063081e3eda146101bc5780630ad58d2f146101e05780631526fe2714610202575b600080fd5b3480156101c857600080fd5b506002545b6040519081526020015b60405180910390f35b3480156101ec57600080fd5b506102006101fb366004613454565b610614565b005b34801561020e57600080fd5b5061022261021d3660046133a3565b610a25565b604080516001600160801b039590951685526001600160401b039384166020860152919092169083015260608201526080016101d7565b34801561026557600080fd5b506101cd60065481565b34801561027b57600080fd5b5061020061028a3660046133d3565b610a77565b34801561029b57600080fd5b506102006102aa36600461315a565b610c42565b3480156102bb57600080fd5b506102006102ca3660046133d3565b610e9c565b3480156102db57600080fd5b506102006102ea366004613481565b61121b565b3480156102fb57600080fd5b506102006113fb565b34801561031057600080fd5b5061032461031f3660046133a3565b61149d565b6040805182516001600160801b031681526020808401516001600160401b0390811691830191909152838301511691810191909152606091820151918101919091526080016101d7565b34801561037a57600080fd5b506101cd7f000000000000000000000000000000000000000000000000000000000000000081565b3480156103ae57600080fd5b506102006117a7565b3480156103c357600080fd5b506101cd6117d3565b3480156103d857600080fd5b506102006119c5565b3480156103ed57600080fd5b506104016103fc3660046133a3565b6119fb565b6040516001600160a01b0390911681526020016101d7565b34801561042557600080fd5b50610200610434366004613212565b611a25565b34801561044557600080fd5b506000546001600160a01b0316610401565b34801561046357600080fd5b50610200610472366004613454565b611ab7565b34801561048357600080fd5b506101cd6104923660046133a3565b611ead565b3480156104a357600080fd5b506104d66104b23660046133d3565b60056020908152600092835260408084209091529082529020805460019091015482565b604080519283526020830191909152016101d7565b3480156104f757600080fd5b506104017f000000000000000000000000000000000000000000000000000000000000000081565b34801561052b57600080fd5b5061040161053a3660046133a3565b611ee9565b34801561054b57600080fd5b5061020061055a366004613402565b611ef9565b34801561056b57600080fd5b5061020061057a366004613454565b6120db565b61059261058d366004613176565b612567565b6040516101d7929190613537565b3480156105ac57600080fd5b506101cd6105bb3660046133d3565b61275b565b3480156105cc57600080fd5b506104017f000000000000000000000000000000000000000000000000000000000000000081565b34801561060057600080fd5b5061020061060f36600461315a565b612988565b600260015414156106405760405162461bcd60e51b815260040161063790613618565b60405180910390fd5b600260015560006106508461149d565b600085815260056020908152604080832033845290915290208151919250906106a39064e8d4a510009061068e9087906001600160801b0316612a23565b610698919061374d565b600183015490612a99565b600182015580546106b49085612b2d565b81556004805460009190879081106106dc57634e487b7160e01b600052603260045260246000fd5b6000918252602090912001546001600160a01b0316905080156107625781546040516321832ff960e21b81526001600160a01b0383169163860cbfe49161072f918a9133918a916000919060040161364f565b600060405180830381600087803b15801561074957600080fd5b505af115801561075d573d6000803e3d6000fd5b505050505b60006003878154811061078557634e487b7160e01b600052603260045260246000fd5b6000918252602090912001546040516370a0823160e01b81523060048201526001600160a01b03909116906370a082319060240160206040518083038186803b1580156107d157600080fd5b505afa1580156107e5573d6000803e3d6000fd5b505050506040513d601f19601f8201168201806040525081019061080991906133bb565b905061084d858760038a8154811061083157634e487b7160e01b600052603260045260246000fd5b6000918252602090912001546001600160a01b03169190612b83565b60006003888154811061087057634e487b7160e01b600052603260045260246000fd5b6000918252602090912001546040516370a0823160e01b81523060048201526001600160a01b03909116906370a082319060240160206040518083038186803b1580156108bc57600080fd5b505afa1580156108d0573d6000803e3d6000fd5b505050506040513d601f19601f820116820180604052508101906108f491906133bb565b90506109008188612beb565b821461094e5760405162461bcd60e51b815260206004820152601760248201527f77697468647261773a206e6f74206465666c6174696f6e0000000000000000006044820152606401610637565b6109938760028a8154811061097357634e487b7160e01b600052603260045260246000fd5b906000526020600020906002020160010154612b2d90919063ffffffff16565b600289815481106109b457634e487b7160e01b600052603260045260246000fd5b906000526020600020906002020160010181905550856001600160a01b031688336001600160a01b03167f8166bf25f8a2b7ed3c85049207da4358d16edbed977d23fa2ee6f0dde3ec21328a604051610a0f91815260200190565b60405180910390a4505060018055505050505050565b60028181548110610a3557600080fd5b6000918252602090912060029091020180546001909101546001600160801b03821692506001600160401b03600160801b8304811692600160c01b9004169084565b60026001541415610a9a5760405162461bcd60e51b815260040161063790613618565b60026001556000610aaa8361149d565b6000848152600560209081526040808320338452909152812082518154939450909264e8d4a5100091610ae691906001600160801b0316612a23565b610af0919061374d565b90506000610b13610b0e846001015484612a9990919063ffffffff16565b612c44565b6001840183905590508015610b5657610b566001600160a01b037f0000000000000000000000000000000000000000000000000000000000000000168683612b83565b600060048781548110610b7957634e487b7160e01b600052603260045260246000fd5b6000918252602090912001546001600160a01b031690508015610bfe5783546040516321832ff960e21b81526001600160a01b0383169163860cbfe491610bcb918b9133918c9189919060040161364f565b600060405180830381600087803b158015610be557600080fd5b505af1158015610bf9573d6000803e3d6000fd5b505050505b604051828152879033907f71bab65ced2e5750775a0613be067df48ef06cf92a496ebf7663ae06609249549060200160405180910390a35050600180555050505050565b6040516370a0823160e01b81523360048201526000906001600160a01b038316906370a082319060240160206040518083038186803b158015610c8457600080fd5b505afa158015610c98573d6000803e3d6000fd5b505050506040513d601f19601f82011682018060405250810190610cbc91906133bb565b905080610d175760405162461bcd60e51b815260206004820152602360248201527f4d61737465724368656656323a2042616c616e6365206d75737420657863656560448201526206420360ec1b6064820152608401610637565b610d2c6001600160a01b038316333084612c88565b60405163095ea7b360e01b81526001600160a01b037f0000000000000000000000000000000000000000000000000000000000000000811660048301526024820183905283169063095ea7b390604401602060405180830381600087803b158015610d9657600080fd5b505af1158015610daa573d6000803e3d6000fd5b505050506040513d601f19601f82011682018060405250810190610dce91906131f6565b50604051631c57762b60e31b81527f00000000000000000000000000000000000000000000000000000000000000006004820152602481018290527f00000000000000000000000000000000000000000000000000000000000000006001600160a01b03169063e2bbb15890604401600060405180830381600087803b158015610e5757600080fd5b505af1158015610e6b573d6000803e3d6000fd5b50506040517f98a9bd3b7a617581fc53b1e2992534e0e0cb5091c9d44aa1a7fc978f706caa83925060009150a15050565b60026001541415610ebf5760405162461bcd60e51b815260040161063790613618565b60026001908155600083815260056020908152604080832033845290915281208054828255928101829055600480549193929186908110610f1057634e487b7160e01b600052603260045260246000fd5b6000918252602090912001546001600160a01b031690508015610f95576040516321832ff960e21b81526001600160a01b0382169063860cbfe490610f6290889033908990600090819060040161364f565b600060405180830381600087803b158015610f7c57600080fd5b505af1158015610f90573d6000803e3d6000fd5b505050505b600060038681548110610fb857634e487b7160e01b600052603260045260246000fd5b6000918252602090912001546040516370a0823160e01b81523060048201526001600160a01b03909116906370a082319060240160206040518083038186803b15801561100457600080fd5b505afa158015611018573d6000803e3d6000fd5b505050506040513d601f19601f8201168201806040525081019061103c91906133bb565b905061106485846003898154811061083157634e487b7160e01b600052603260045260246000fd5b60006003878154811061108757634e487b7160e01b600052603260045260246000fd5b6000918252602090912001546040516370a0823160e01b81523060048201526001600160a01b03909116906370a082319060240160206040518083038186803b1580156110d357600080fd5b505afa1580156110e7573d6000803e3d6000fd5b505050506040513d601f19601f8201168201806040525081019061110b91906133bb565b90506111178185612beb565b82146111655760405162461bcd60e51b815260206004820181905260248201527f656d657267656e637957697468647261773a206e6f74206465666c6174696f6e6044820152606401610637565b61118a846002898154811061097357634e487b7160e01b600052603260045260246000fd5b600288815481106111ab57634e487b7160e01b600052603260045260246000fd5b906000526020600020906002020160010181905550856001600160a01b031687336001600160a01b03167f2cac5e20e1541d836381527a43f651851e302817b71dc8e810284e69210c1c6b8760405161120691815260200190565b60405180910390a45050600180555050505050565b6000546001600160a01b031633146112455760405162461bcd60e51b8152600401610637906135e3565b8015611253576112536117a7565b6112ab846112a56002888154811061127b57634e487b7160e01b600052603260045260246000fd5b600091825260209091206002909102015460065490600160c01b90046001600160401b0316612b2d565b90612beb565b6006556112b784612cc0565b600286815481106112d857634e487b7160e01b600052603260045260246000fd5b906000526020600020906002020160000160186101000a8154816001600160401b0302191690836001600160401b03160217905550811561136457826004868154811061133557634e487b7160e01b600052603260045260246000fd5b9060005260206000200160006101000a8154816001600160a01b0302191690836001600160a01b031602179055505b816113a4576004858154811061138a57634e487b7160e01b600052603260045260246000fd5b6000918252602090912001546001600160a01b03166113a6565b825b6001600160a01b0316857f95895a6ab1df54420d241b55243258a33e61b2194db66c1179ec521aae8e186586856040516113ec9291909182521515602082015260400190565b60405180910390a35050505050565b604051631c57762b60e31b81527f00000000000000000000000000000000000000000000000000000000000000006004820152600060248201527f00000000000000000000000000000000000000000000000000000000000000006001600160a01b03169063e2bbb15890604401600060405180830381600087803b15801561148357600080fd5b505af1158015611497573d6000803e3d6000fd5b50505050565b604080516080810182526000808252602082018190529181018290526060810191909152600282815481106114e257634e487b7160e01b600052603260045260246000fd5b600091825260209182902060408051608081018252600290930290910180546001600160801b03811684526001600160401b03600160801b82048116958501869052600160c01b909104169183019190915260010154606082015291504311156117a25760006003838154811061156957634e487b7160e01b600052603260045260246000fd5b6000918252602090912001546040516370a0823160e01b81523060048201526001600160a01b03909116906370a082319060240160206040518083038186803b1580156115b557600080fd5b505afa1580156115c9573d6000803e3d6000fd5b505050506040513d601f19601f820116820180604052508101906115ed91906133bb565b905060008111801561160157506000600654115b156116a857600061162883602001516001600160401b031643612b2d90919063ffffffff16565b9050600060065461165885604001516001600160401b031661165261164b6117d3565b8690612a23565b90612a23565b611662919061374d565b905061169a6116898461167a8464e8d4a51000612a23565b611684919061374d565b612d19565b85516001600160801b031690612d72565b6001600160801b0316845250505b6116b143612cc0565b6001600160401b0316602083015260028054839190859081106116e457634e487b7160e01b600052603260045260246000fd5b60009182526020918290208351600292909202018054848401516040808701516001600160401b03908116600160c01b026001600160c01b03938216600160801b026001600160c01b03199095166001600160801b0397881617949094179290921692909217835560609586015160019093019290925586840151875182519190931681529384018690529116828201525185927f0fc9545022a542541ad085d091fb09a2ab36fee366a4576ab63714ea907ad353928290030190a2505b919050565b60025460005b818110156117cf576117be8161149d565b506117c88161380e565b90506117ad565b5050565b60007f00000000000000000000000000000000000000000000000000000000000000006001600160a01b03166317caf6f16040518163ffffffff1660e01b815260040160206040518083038186803b15801561182e57600080fd5b505afa158015611842573d6000803e3d6000fd5b505050506040513d601f19601f8201168201806040525081019061186691906133bb565b604051631526fe2760e01b81527f000000000000000000000000000000000000000000000000000000000000000060048201526119b6907f00000000000000000000000000000000000000000000000000000000000000006001600160a01b031690631526fe279060240160806040518083038186803b1580156118e957600080fd5b505afa1580156118fd573d6000803e3d6000fd5b505050506040513d601f19601f820116820180604052508101906119219190613336565b602001517f00000000000000000000000000000000000000000000000000000000000000006001600160a01b031663662b5fbe6040518163ffffffff1660e01b815260040160206040518083038186803b15801561197e57600080fd5b505afa158015611992573d6000803e3d6000fd5b505050506040513d601f19601f8201168201806040525081019061165291906133bb565b6119c0919061374d565b905090565b6000546001600160a01b031633146119ef5760405162461bcd60e51b8152600401610637906135e3565b6119f96000612ddd565b565b60038181548110611a0b57600080fd5b6000918252602090912001546001600160a01b0316905081565b60405163d505accf60e01b81526001600160a01b0388811660048301528781166024830152604482018790526064820186905260ff8516608483015260a4820184905260c4820183905289169063d505accf9060e401600060405180830381600087803b158015611a9557600080fd5b505af1158015611aa9573d6000803e3d6000fd5b505050505050505050505050565b60026001541415611ada5760405162461bcd60e51b815260040161063790613618565b60026001556000611aea8461149d565b60008581526005602090815260408083206001600160a01b03871684529091529020805491925090611b1c9085612beb565b81558151611b549064e8d4a5100090611b3f9087906001600160801b0316612a23565b611b49919061374d565b600183015490612e2d565b8160010181905550600060048681548110611b7f57634e487b7160e01b600052603260045260246000fd5b6000918252602090912001546001600160a01b031690508015611c055781546040516321832ff960e21b81526001600160a01b0383169163860cbfe491611bd2918a91899182916000919060040161364f565b600060405180830381600087803b158015611bec57600080fd5b505af1158015611c00573d6000803e3d6000fd5b505050505b600060038781548110611c2857634e487b7160e01b600052603260045260246000fd5b6000918252602090912001546040516370a0823160e01b81523060048201526001600160a01b03909116906370a082319060240160206040518083038186803b158015611c7457600080fd5b505afa158015611c88573d6000803e3d6000fd5b505050506040513d601f19601f82011682018060405250810190611cac91906133bb565b9050611cf233308860038b81548110611cd557634e487b7160e01b600052603260045260246000fd5b6000918252602090912001546001600160a01b0316929190612c88565b600060038881548110611d1557634e487b7160e01b600052603260045260246000fd5b6000918252602090912001546040516370a0823160e01b81523060048201526001600160a01b03909116906370a082319060240160206040518083038186803b158015611d6157600080fd5b505afa158015611d75573d6000803e3d6000fd5b505050506040513d601f19601f82011682018060405250810190611d9991906133bb565b9050611da58288612beb565b8114611dec5760405162461bcd60e51b81526020600482015260166024820152753232b837b9b4ba1d103737ba103232b33630ba34b7b760511b6044820152606401610637565b611e318760028a81548110611e1157634e487b7160e01b600052603260045260246000fd5b906000526020600020906002020160010154612beb90919063ffffffff16565b60028981548110611e5257634e487b7160e01b600052603260045260246000fd5b906000526020600020906002020160010181905550856001600160a01b031688336001600160a01b03167f02d7e648dd130fc184d383e55bb126ac4c9c60e8f94bf05acdf557ba2d540b478a604051610a0f91815260200190565b600060028281548110611ed057634e487b7160e01b600052603260045260246000fd5b9060005260206000209060020201600101549050919050565b60048181548110611a0b57600080fd5b6000546001600160a01b03163314611f235760405162461bcd60e51b8152600401610637906135e3565b8015611f3157611f316117a7565b6006544390611f409086612beb565b6006556003805460018181019092557fc2575a0e9e593c00f959f8c92f12db2869c3395a3b0502d05e2516446f71f85b0180546001600160a01b038088166001600160a01b03199283161790925560048054938401815560009081527f8a35acfbc15ff81a39ae7d344fd709f28e8600b4aa8c65c6b64bfe7fe36bd19b909301805492871692909116919091179055604080516080810190915290815260029060208101611fed84612cc0565b6001600160401b0316815260200161200488612cc0565b6001600160401b0390811682526000602092830181905284546001818101875595825290839020845160029092020180549385015160408601518416600160c01b026001600160c01b0391909416600160801b026001600160c01b03199095166001600160801b03909316929092179390931716178155606090910151908201556003546001600160a01b0380861692908716916120a191612b2d565b6040518881527f81ee0f8c5c46e2cb41984886f77a84181724abb86c32a5f6de539b07509d45e59060200160405180910390a45050505050565b600260015414156120fe5760405162461bcd60e51b815260040161063790613618565b6002600155600061210e8461149d565b6000858152600560209081526040808320338452909152812082518154939450909264e8d4a510009161214a91906001600160801b0316612a23565b612154919061374d565b90506000612172610b0e846001015484612a9990919063ffffffff16565b90506121ae64e8d4a5100061219d86600001516001600160801b031689612a2390919063ffffffff16565b6121a7919061374d565b8390612a99565b600184015582546121bf9087612b2d565b83556121f56001600160a01b037f0000000000000000000000000000000000000000000000000000000000000000168683612b83565b60006004888154811061221857634e487b7160e01b600052603260045260246000fd5b6000918252602090912001546001600160a01b03169050801561229d5783546040516321832ff960e21b81526001600160a01b0383169163860cbfe49161226a918c9133918c9189919060040161364f565b600060405180830381600087803b15801561228457600080fd5b505af1158015612298573d6000803e3d6000fd5b505050505b6000600389815481106122c057634e487b7160e01b600052603260045260246000fd5b6000918252602090912001546040516370a0823160e01b81523060048201526001600160a01b03909116906370a082319060240160206040518083038186803b15801561230c57600080fd5b505afa158015612320573d6000803e3d6000fd5b505050506040513d601f19601f8201168201806040525081019061234491906133bb565b905061236c878960038c8154811061083157634e487b7160e01b600052603260045260246000fd5b600060038a8154811061238f57634e487b7160e01b600052603260045260246000fd5b6000918252602090912001546040516370a0823160e01b81523060048201526001600160a01b03909116906370a082319060240160206040518083038186803b1580156123db57600080fd5b505afa1580156123ef573d6000803e3d6000fd5b505050506040513d601f19601f8201168201806040525081019061241391906133bb565b905061241f818a612beb565b82146124775760405162461bcd60e51b815260206004820152602160248201527f7769746864726177416e64486172766573743a206e6f74206465666c6174696f6044820152603760f91b6064820152608401610637565b61249c8960028c8154811061097357634e487b7160e01b600052603260045260246000fd5b60028b815481106124bd57634e487b7160e01b600052603260045260246000fd5b906000526020600020906002020160010181905550876001600160a01b03168a336001600160a01b03167f8166bf25f8a2b7ed3c85049207da4358d16edbed977d23fa2ee6f0dde3ec21328c60405161251891815260200190565b60405180910390a46040518481528a9033907f71bab65ced2e5750775a0613be067df48ef06cf92a496ebf7663ae06609249549060200160405180910390a35050600180555050505050505050565b606080836001600160401b0381111561259057634e487b7160e01b600052604160045260246000fd5b6040519080825280602002602001820160405280156125b9578160200160208202803683370190505b509150836001600160401b038111156125e257634e487b7160e01b600052604160045260246000fd5b60405190808252806020026020018201604052801561261557816020015b60608152602001906001900390816126005790505b50905060005b84811015612752576000803088888581811061264757634e487b7160e01b600052603260045260246000fd5b9050602002810190612659919061367e565b60405161266792919061350b565b600060405180830381855af49150503d80600081146126a2576040519150601f19603f3d011682016040523d82523d6000602084013e6126a7565b606091505b509150915081806126b6575085155b6126bf82612eb8565b906126dd5760405162461bcd60e51b815260040161063791906135d0565b50818584815181106126ff57634e487b7160e01b600052603260045260246000fd5b6020026020010190151590811515815250508084848151811061273257634e487b7160e01b600052603260045260246000fd5b60200260200101819052505050808061274a9061380e565b91505061261b565b50935093915050565b6000806002848154811061277f57634e487b7160e01b600052603260045260246000fd5b6000918252602080832060408051608081018252600290940290910180546001600160801b0380821686526001600160401b03600160801b8304811687870152600160c01b909204909116858401526001909101546060850152888552600583528185206001600160a01b0389168652909252832082516003805494965091949216928890811061282057634e487b7160e01b600052603260045260246000fd5b6000918252602090912001546040516370a0823160e01b81523060048201526001600160a01b03909116906370a082319060240160206040518083038186803b15801561286c57600080fd5b505afa158015612880573d6000803e3d6000fd5b505050506040513d601f19601f820116820180604052508101906128a491906133bb565b905083602001516001600160401b0316431180156128c157508015155b80156128ce575060065415155b1561294d5760006128f585602001516001600160401b031643612b2d90919063ffffffff16565b9050600060065461291887604001516001600160401b031661165261164b6117d3565b612922919061374d565b9050612948836129378364e8d4a51000612a23565b612941919061374d565b8590612beb565b935050505b6001830154835461297d91610b0e9164e8d4a510009061296d9087612a23565b612977919061374d565b90612a99565b979650505050505050565b6000546001600160a01b031633146129b25760405162461bcd60e51b8152600401610637906135e3565b6001600160a01b038116612a175760405162461bcd60e51b815260206004820152602660248201527f4f776e61626c653a206e6577206f776e657220697320746865207a65726f206160448201526564647265737360d01b6064820152608401610637565b612a2081612ddd565b50565b6000811580612a4757508282612a39818361376d565b9250612a45908361374d565b145b612a935760405162461bcd60e51b815260206004820152601860248201527f426f72696e674d6174683a204d756c204f766572666c6f7700000000000000006044820152606401610637565b92915050565b600080612aa6838561378c565b905060008312158015612ab95750838113155b80612ace5750600083128015612ace57508381135b612b265760405162461bcd60e51b8152602060048201526024808201527f5369676e6564536166654d6174683a207375627472616374696f6e206f766572604482015263666c6f7760e01b6064820152608401610637565b9392505050565b600082612b3a83826137cb565b9150811115612a935760405162461bcd60e51b8152602060048201526015602482015274426f72696e674d6174683a20556e646572666c6f7760581b6044820152606401610637565b6040516001600160a01b038316602482015260448101829052612be690849063a9059cbb60e01b906064015b60408051601f198184030181529190526020810180516001600160e01b03166001600160e01b031990931692909217909152612f17565b505050565b600081612bf88185613735565b9150811015612a935760405162461bcd60e51b8152602060048201526018602482015277426f72696e674d6174683a20416464204f766572666c6f7760401b6044820152606401610637565b600080821215612c845760405162461bcd60e51b815260206004820152600b60248201526a0496e7465676572203c20360ac1b6044820152606401610637565b5090565b6040516001600160a01b03808516602483015283166044820152606481018290526114979085906323b872dd60e01b90608401612baf565b60006001600160401b03821115612c845760405162461bcd60e51b815260206004820152601b60248201527f426f72696e674d6174683a2075696e743634204f766572666c6f7700000000006044820152606401610637565b60006001600160801b03821115612c845760405162461bcd60e51b815260206004820152601c60248201527f426f72696e674d6174683a2075696e74313238204f766572666c6f77000000006044820152606401610637565b60006001600160801b038216612d88838561370a565b9150816001600160801b03161015612a935760405162461bcd60e51b8152602060048201526018602482015277426f72696e674d6174683a20416464204f766572666c6f7760401b6044820152606401610637565b600080546001600160a01b038381166001600160a01b0319831681178455604051919092169283917f8be0079c531659141344cd1fd0a4f28419497f9722a3daafe3b4186f6b6457e09190a35050565b600080612e3a83856136c9565b905060008312158015612e4d5750838112155b80612e625750600083128015612e6257508381125b612b265760405162461bcd60e51b815260206004820152602160248201527f5369676e6564536166654d6174683a206164646974696f6e206f766572666c6f6044820152607760f81b6064820152608401610637565b6060604482511015612efd57505060408051808201909152601d81527f5472616e73616374696f6e2072657665727465642073696c656e746c79000000602082015290565b60048201915081806020019051810190612a939190613299565b6000612f6c826040518060400160405280602081526020017f5361666545524332303a206c6f772d6c6576656c2063616c6c206661696c6564815250856001600160a01b0316612fe99092919063ffffffff16565b805190915015612be65780806020019051810190612f8a91906131f6565b612be65760405162461bcd60e51b815260206004820152602a60248201527f5361666545524332303a204552433230206f7065726174696f6e20646964206e6044820152691bdd081cdd58d8d9595960b21b6064820152608401610637565b6060612ff88484600085613000565b949350505050565b6060824710156130615760405162461bcd60e51b815260206004820152602660248201527f416464726573733a20696e73756666696369656e742062616c616e636520666f6044820152651c8818d85b1b60d21b6064820152608401610637565b6001600160a01b0385163b6130b85760405162461bcd60e51b815260206004820152601d60248201527f416464726573733a2063616c6c20746f206e6f6e2d636f6e74726163740000006044820152606401610637565b600080866001600160a01b031685876040516130d4919061351b565b60006040518083038185875af1925050503d8060008114613111576040519150601f19603f3d011682016040523d82523d6000602084013e613116565b606091505b509150915061297d82828660608315613130575081612b26565b8251156131405782518084602001fd5b8160405162461bcd60e51b815260040161063791906135d0565b60006020828403121561316b578081fd5b8135612b2681613855565b60008060006040848603121561318a578182fd5b83356001600160401b03808211156131a0578384fd5b818601915086601f8301126131b3578384fd5b8135818111156131c1578485fd5b8760208260051b85010111156131d5578485fd5b602092830195509350508401356131eb8161386a565b809150509250925092565b600060208284031215613207578081fd5b8151612b268161386a565b600080600080600080600080610100898b03121561322e578384fd5b883561323981613855565b9750602089013561324981613855565b9650604089013561325981613855565b9550606089013594506080890135935060a089013560ff8116811461327c578384fd5b979a969950949793969295929450505060c08201359160e0013590565b6000602082840312156132aa578081fd5b81516001600160401b03808211156132c0578283fd5b818401915084601f8301126132d3578283fd5b8151818111156132e5576132e561383f565b604051601f8201601f19908116603f0116810190838211818310171561330d5761330d61383f565b81604052828152876020848701011115613325578586fd5b61297d8360208301602088016137e2565b600060808284031215613347578081fd5b604051608081018181106001600160401b03821117156133695761336961383f565b604052825161337781613855565b808252506020830151602082015260408301516040820152606083015160608201528091505092915050565b6000602082840312156133b4578081fd5b5035919050565b6000602082840312156133cc578081fd5b5051919050565b600080604083850312156133e5578182fd5b8235915060208301356133f781613855565b809150509250929050565b60008060008060808587031215613417578081fd5b84359350602085013561342981613855565b9250604085013561343981613855565b915060608501356134498161386a565b939692955090935050565b600080600060608486031215613468578081fd5b833592506020840135915060408401356131eb81613855565b600080600080600060a08688031215613498578283fd5b853594506020860135935060408601356134b181613855565b925060608601356134c18161386a565b915060808601356134d18161386a565b809150509295509295909350565b600081518084526134f78160208601602086016137e2565b601f01601f19169290920160200192915050565b8183823760009101908152919050565b6000825161352d8184602087016137e2565b9190910192915050565b604080825283519082018190526000906020906060840190828701845b82811015613572578151151584529284019290840190600101613554565b50505083810382850152845180825282820190600581901b83018401878501865b838110156135c157601f198684030185526135af8383516134df565b94870194925090860190600101613593565b50909998505050505050505050565b602081526000612b2660208301846134df565b6020808252818101527f4f776e61626c653a2063616c6c6572206973206e6f7420746865206f776e6572604082015260600190565b6020808252601f908201527f5265656e7472616e637947756172643a207265656e7472616e742063616c6c00604082015260600190565b9485526001600160a01b0393841660208601529190921660408401526060830191909152608082015260a00190565b6000808335601e19843603018112613694578283fd5b8301803591506001600160401b038211156136ad578283fd5b6020019150368190038213156136c257600080fd5b9250929050565b600080821280156001600160ff1b03849003851316156136eb576136eb613829565b600160ff1b839003841281161561370457613704613829565b50500190565b60006001600160801b0380831681851680830382111561372c5761372c613829565b01949350505050565b6000821982111561374857613748613829565b500190565b60008261376857634e487b7160e01b81526012600452602481fd5b500490565b600081600019048311821515161561378757613787613829565b500290565b60008083128015600160ff1b8501841216156137aa576137aa613829565b6001600160ff1b03840183138116156137c5576137c5613829565b50500390565b6000828210156137dd576137dd613829565b500390565b60005b838110156137fd5781810151838201526020016137e5565b838111156114975750506000910152565b600060001982141561382257613822613829565b5060010190565b634e487b7160e01b600052601160045260246000fd5b634e487b7160e01b600052604160045260246000fd5b6001600160a01b0381168114612a2057600080fd5b8015158114612a2057600080fdfea264697066735822122044fd76cad6da241f8d5aa3293a9feec7e25201e02a389fdfed5be5fcb2930fec64736f6c63430008040033",
  "linkReferences": {},
  "deployedLinkReferences": {}
}