{
  "_format": "hh-sol-artifact-1",
  "contractName": "KaidexMasterChefV2",
  "sourceName": "contracts/farming/KaidexMasterChefV2.sol",
  "abi": [
    {
      "inputs": [
        {
          "internalType": "contract IMasterChef",
          "name": "_MASTER_CHEF",
          "type": "address"
        },
        {
          "internalType": "contract IERC20",
          "name": "_kdx",
          "type": "address"
        },
        {
          "internalType": "uint256",
          "name": "_MASTER_PID",
          "type": "uint256"
        }
      ],
      "stateMutability": "nonpayable",
      "type": "constructor"
    },
    {
      "anonymous": false,
      "inputs": [
        {
          "indexed": true,
          "internalType": "address",
          "name": "user",
          "type": "address"
        },
        {
          "indexed": true,
          "internalType": "uint256",
          "name": "pid",
          "type": "uint256"
        },
        {
          "indexed": false,
          "internalType": "uint256",
          "name": "amount",
          "type": "uint256"
        },
        {
          "indexed": true,
          "internalType": "address",
          "name": "to",
          "type": "address"
        }
      ],
      "name": "Deposit",
      "type": "event"
    },
    {
      "anonymous": false,
      "inputs": [
        {
          "indexed": true,
          "internalType": "address",
          "name": "user",
          "type": "address"
        },
        {
          "indexed": true,
          "internalType": "uint256",
          "name": "pid",
          "type": "uint256"
        },
        {
          "indexed": false,
          "internalType": "uint256",
          "name": "amount",
          "type": "uint256"
        },
        {
          "indexed": true,
          "internalType": "address",
          "name": "to",
          "type": "address"
        }
      ],
      "name": "EmergencyWithdraw",
      "type": "event"
    },
    {
      "anonymous": false,
      "inputs": [
        {
          "indexed": true,
          "internalType": "address",
          "name": "user",
          "type": "address"
        },
        {
          "indexed": true,
          "internalType": "uint256",
          "name": "pid",
          "type": "uint256"
        },
        {
          "indexed": false,
          "internalType": "uint256",
          "name": "amount",
          "type": "uint256"
        }
      ],
      "name": "Harvest",
      "type": "event"
    },
    {
      "anonymous": false,
      "inputs": [],
      "name": "LogInit",
      "type": "event"
    },
    {
      "anonymous": false,
      "inputs": [
        {
          "indexed": true,
          "internalType": "uint256",
          "name": "pid",
          "type": "uint256"
        },
        {
          "indexed": false,
          "internalType": "uint256",
          "name": "allocPoint",
          "type": "uint256"
        },
        {
          "indexed": true,
          "internalType": "contract IERC20",
          "name": "lpToken",
          "type": "address"
        },
        {
          "indexed": true,
          "internalType": "contract IRewarder",
          "name": "rewarder",
          "type": "address"
        }
      ],
      "name": "LogPoolAddition",
      "type": "event"
    },
    {
      "anonymous": false,
      "inputs": [
        {
          "indexed": true,
          "internalType": "uint256",
          "name": "pid",
          "type": "uint256"
        },
        {
          "indexed": false,
          "internalType": "uint256",
          "name": "allocPoint",
          "type": "uint256"
        },
        {
          "indexed": true,
          "internalType": "contract IRewarder",
          "name": "rewarder",
          "type": "address"
        },
        {
          "indexed": false,
          "internalType": "bool",
          "name": "overwrite",
          "type": "bool"
        }
      ],
      "name": "LogSetPool",
      "type": "event"
    },
    {
      "anonymous": false,
      "inputs": [
        {
          "indexed": true,
          "internalType": "uint256",
          "name": "pid",
          "type": "uint256"
        },
        {
          "indexed": false,
          "internalType": "uint64",
          "name": "lastRewardBlock",
          "type": "uint64"
        },
        {
          "indexed": false,
          "internalType": "uint256",
          "name": "lpSupply",
          "type": "uint256"
        },
        {
          "indexed": false,
          "internalType": "uint256",
          "name": "accKdxPerShare",
          "type": "uint256"
        }
      ],
      "name": "LogUpdatePool",
      "type": "event"
    },
    {
      "anonymous": false,
      "inputs": [
        {
          "indexed": true,
          "internalType": "address",
          "name": "previousOwner",
          "type": "address"
        },
        {
          "indexed": true,
          "internalType": "address",
          "name": "newOwner",
          "type": "address"
        }
      ],
      "name": "OwnershipTransferred",
      "type": "event"
    },
    {
      "anonymous": false,
      "inputs": [
        {
          "indexed": true,
          "internalType": "address",
          "name": "user",
          "type": "address"
        },
        {
          "indexed": true,
          "internalType": "uint256",
          "name": "pid",
          "type": "uint256"
        },
        {
          "indexed": false,
          "internalType": "uint256",
          "name": "amount",
          "type": "uint256"
        },
        {
          "indexed": true,
          "internalType": "address",
          "name": "to",
          "type": "address"
        }
      ],
      "name": "Withdraw",
      "type": "event"
    },
    {
      "inputs": [],
      "name": "KDX",
      "outputs": [
        {
          "internalType": "contract IERC20",
          "name": "",
          "type": "address"
        }
      ],
      "stateMutability": "view",
      "type": "function"
    },
    {
      "inputs": [],
      "name": "MASTER_CHEF",
      "outputs": [
        {
          "internalType": "contract IMasterChef",
          "name": "",
          "type": "address"
        }
      ],
      "stateMutability": "view",
      "type": "function"
    },
    {
      "inputs": [],
      "name": "MASTER_PID",
      "outputs": [
        {
          "internalType": "uint256",
          "name": "",
          "type": "uint256"
        }
      ],
      "stateMutability": "view",
      "type": "function"
    },
    {
      "inputs": [
        {
          "internalType": "uint256",
          "name": "allocPoint",
          "type": "uint256"
        },
        {
          "internalType": "contract IERC20",
          "name": "_lpToken",
          "type": "address"
        },
        {
          "internalType": "contract IRewarder",
          "name": "_rewarder",
          "type": "address"
        },
        {
          "internalType": "bool",
          "name": "_withUpdate",
          "type": "bool"
        }
      ],
      "name": "add",
      "outputs": [],
      "stateMutability": "nonpayable",
      "type": "function"
    },
    {
      "inputs": [
        {
          "internalType": "bytes[]",
          "name": "calls",
          "type": "bytes[]"
        },
        {
          "internalType": "bool",
          "name": "revertOnFail",
          "type": "bool"
        }
      ],
      "name": "batch",
      "outputs": [
        {
          "internalType": "bool[]",
          "name": "successes",
          "type": "bool[]"
        },
        {
          "internalType": "bytes[]",
          "name": "results",
          "type": "bytes[]"
        }
      ],
      "stateMutability": "payable",
      "type": "function"
    },
    {
      "inputs": [
        {
          "internalType": "uint256",
          "name": "pid",
          "type": "uint256"
        },
        {
          "internalType": "uint256",
          "name": "amount",
          "type": "uint256"
        },
        {
          "internalType": "address",
          "name": "to",
          "type": "address"
        }
      ],
      "name": "deposit",
      "outputs": [],
      "stateMutability": "nonpayable",
      "type": "function"
    },
    {
      "inputs": [
        {
          "internalType": "uint256",
          "name": "pid",
          "type": "uint256"
        },
        {
          "internalType": "address",
          "name": "to",
          "type": "address"
        }
      ],
      "name": "emergencyWithdraw",
      "outputs": [],
      "stateMutability": "nonpayable",
      "type": "function"
    },
    {
      "inputs": [
        {
          "internalType": "uint256",
          "name": "pid",
          "type": "uint256"
        }
      ],
      "name": "getTotalDepositAmount",
      "outputs": [
        {
          "internalType": "uint256",
          "name": "",
          "type": "uint256"
        }
      ],
      "stateMutability": "view",
      "type": "function"
    },
    {
      "inputs": [
        {
          "internalType": "uint256",
          "name": "pid",
          "type": "uint256"
        },
        {
          "internalType": "address",
          "name": "to",
          "type": "address"
        }
      ],
      "name": "harvest",
      "outputs": [],
      "stateMutability": "nonpayable",
      "type": "function"
    },
    {
      "inputs": [],
      "name": "harvestFromMasterChef",
      "outputs": [],
      "stateMutability": "nonpayable",
      "type": "function"
    },
    {
      "inputs": [
        {
          "internalType": "contract IERC20",
          "name": "dummyToken",
          "type": "address"
        }
      ],
      "name": "init",
      "outputs": [],
      "stateMutability": "nonpayable",
      "type": "function"
    },
    {
      "inputs": [],
      "name": "kdxPerBlock",
      "outputs": [
        {
          "internalType": "uint256",
          "name": "amount",
          "type": "uint256"
        }
      ],
      "stateMutability": "view",
      "type": "function"
    },
    {
      "inputs": [
        {
          "internalType": "uint256",
          "name": "",
          "type": "uint256"
        }
      ],
      "name": "lpToken",
      "outputs": [
        {
          "internalType": "contract IERC20",
          "name": "",
          "type": "address"
        }
      ],
      "stateMutability": "view",
      "type": "function"
    },
    {
      "inputs": [],
      "name": "massUpdatePools",
      "outputs": [],
      "stateMutability": "nonpayable",
      "type": "function"
    },
    {
      "inputs": [],
      "name": "owner",
      "outputs": [
        {
          "internalType": "address",
          "name": "",
          "type": "address"
        }
      ],
      "stateMutability": "view",
      "type": "function"
    },
    {
      "inputs": [
        {
          "internalType": "uint256",
          "name": "_pid",
          "type": "uint256"
        },
        {
          "internalType": "address",
          "name": "_user",
          "type": "address"
        }
      ],
      "name": "pendingKDX",
      "outputs": [
        {
          "internalType": "uint256",
          "name": "pending",
          "type": "uint256"
        }
      ],
      "stateMutability": "view",
      "type": "function"
    },
    {
      "inputs": [
        {
          "internalType": "contract IKRC20Permit",
          "name": "token",
          "type": "address"
        },
        {
          "internalType": "address",
          "name": "from",
          "type": "address"
        },
        {
          "internalType": "address",
          "name": "to",
          "type": "address"
        },
        {
          "internalType": "uint256",
          "name": "amount",
          "type": "uint256"
        },
        {
          "internalType": "uint256",
          "name": "deadline",
          "type": "uint256"
        },
        {
          "internalType": "uint8",
          "name": "v",
          "type": "uint8"
        },
        {
          "internalType": "bytes32",
          "name": "r",
          "type": "bytes32"
        },
        {
          "internalType": "bytes32",
          "name": "s",
          "type": "bytes32"
        }
      ],
      "name": "permitToken",
      "outputs": [],
      "stateMutability": "nonpayable",
      "type": "function"
    },
    {
      "inputs": [
        {
          "internalType": "uint256",
          "name": "",
          "type": "uint256"
        }
      ],
      "name": "poolInfo",
      "outputs": [
        {
          "internalType": "uint128",
          "name": "accKdxPerShare",
          "type": "uint128"
        },
        {
          "internalType": "uint64",
          "name": "lastRewardBlock",
          "type": "uint64"
        },
        {
          "internalType": "uint64",
          "name": "allocPoint",
          "type": "uint64"
        },
        {
          "internalType": "uint256",
          "name": "totalAmount",
          "type": "uint256"
        }
      ],
      "stateMutability": "view",
      "type": "function"
    },
    {
      "inputs": [],
      "name": "poolLength",
      "outputs": [
        {
          "internalType": "uint256",
          "name": "pools",
          "type": "uint256"
        }
      ],
      "stateMutability": "view",
      "type": "function"
    },
    {
      "inputs": [],
      "name": "renounceOwnership",
      "outputs": [],
      "stateMutability": "nonpayable",
      "type": "function"
    },
    {
      "inputs": [
        {
          "internalType": "uint256",
          "name": "",
          "type": "uint256"
        }
      ],
      "name": "rewarder",
      "outputs": [
        {
          "internalType": "contract IRewarder",
          "name": "",
          "type": "address"
        }
      ],
      "stateMutability": "view",
      "type": "function"
    },
    {
      "inputs": [
        {
          "internalType": "uint256",
          "name": "_pid",
          "type": "uint256"
        },
        {
          "internalType": "uint256",
          "name": "_allocPoint",
          "type": "uint256"
        },
        {
          "internalType": "contract IRewarder",
          "name": "_rewarder",
          "type": "address"
        },
        {
          "internalType": "bool",
          "name": "overwrite",
          "type": "bool"
        },
        {
          "internalType": "bool",
          "name": "_withUpdate",
          "type": "bool"
        }
      ],
      "name": "set",
      "outputs": [],
      "stateMutability": "nonpayable",
      "type": "function"
    },
    {
      "inputs": [],
      "name": "totalAllocPoint",
      "outputs": [
        {
          "internalType": "uint256",
          "name": "",
          "type": "uint256"
        }
      ],
      "stateMutability": "view",
      "type": "function"
    },
    {
      "inputs": [
        {
          "internalType": "address",
          "name": "newOwner",
          "type": "address"
        }
      ],
      "name": "transferOwnership",
      "outputs": [],
      "stateMutability": "nonpayable",
      "type": "function"
    },
    {
      "inputs": [
        {
          "internalType": "uint256",
          "name": "pid",
          "type": "uint256"
        }
      ],
      "name": "updatePool",
      "outputs": [
        {
          "components": [
            {
              "internalType": "uint128",
              "name": "accKdxPerShare",
              "type": "uint128"
            },
            {
              "internalType": "uint64",
              "name": "lastRewardBlock",
              "type": "uint64"
            },
            {
              "internalType": "uint64",
              "name": "allocPoint",
              "type": "uint64"
            },
            {
              "internalType": "uint256",
              "name": "totalAmount",
              "type": "uint256"
            }
          ],
          "internalType": "struct KaidexMasterChefV2.PoolInfo",
          "name": "pool",
          "type": "tuple"
        }
      ],
      "stateMutability": "nonpayable",
      "type": "function"
    },
    {
      "inputs": [
        {
          "internalType": "uint256",
          "name": "",
          "type": "uint256"
        },
        {
          "internalType": "address",
          "name": "",
          "type": "address"
        }
      ],
      "name": "userInfo",
      "outputs": [
        {
          "internalType": "uint256",
          "name": "amount",
          "type": "uint256"
        },
        {
          "internalType": "int256",
          "name": "rewardDebt",
          "type": "int256"
        }
      ],
      "stateMutability": "view",
      "type": "function"
    },
    {
      "inputs": [
        {
          "internalType": "uint256",
          "name": "pid",
          "type": "uint256"
        },
        {
          "internalType": "uint256",
          "name": "amount",
          "type": "uint256"
        },
        {
          "internalType": "address",
          "name": "to",
          "type": "address"
        }
      ],
      "name": "withdraw",
      "outputs": [],
      "stateMutability": "nonpayable",
      "type": "function"
    },
    {
      "inputs": [
        {
          "internalType": "uint256",
          "name": "pid",
          "type": "uint256"
        },
        {
          "internalType": "uint256",
          "name": "amount",
          "type": "uint256"
        },
        {
          "internalType": "address",
          "name": "to",
          "type": "address"
        }
      ],
      "name": "withdrawAndHarvest",
      "outputs": [],
      "stateMutability": "nonpayable",
      "type": "function"
    }
  ],
  "bytecode": "0x60e06040523480156200001157600080fd5b50604051620039e5380380620039e58339810160408190526200003491620000b7565b6200003f3362000067565b600180556001600160601b0319606093841b81166080529190921b1660a05260c05262000117565b600080546001600160a01b038381166001600160a01b0319831681178455604051919092169283917f8be0079c531659141344cd1fd0a4f28419497f9722a3daafe3b4186f6b6457e09190a35050565b600080600060608486031215620000cc578283fd5b8351620000d981620000fe565b6020850151909350620000ec81620000fe565b80925050604084015190509250925092565b6001600160a01b03811681146200011457600080fd5b50565b60805160601c60a05160601c60c05161384b6200019a6000396000818161038001528181610dde015281816113e801526118530152600081816104fd01528181610b2f01526121680152600081816105d201528181610d4301528181610e0b01528181611415015281816117b50152818161187d0152611905015261384b6000f3fe6080604052600436106101b75760003560e01c806378ed5d1f116100ec578063c346253d1161008a578063d2423b5111610064578063d2423b511461057f578063dadf2144146105a0578063edd8b170146105c0578063f2fde38b146105f457600080fd5b8063c346253d1461051f578063c71b4b431461053f578063d1abb9071461055f57600080fd5b80638dbdbe6d116100c65780638dbdbe6d146104575780638e2e27231461047757806393f1a40b146104975780639dd02494146104eb57600080fd5b806378ed5d1f146103e15780637c516e94146104195780638da5cb5b1461043957600080fd5b80633deb2c101161015957806361621aaa1161013357806361621aaa1461036e578063630b5ba1146103a2578063662b5fbe146103b7578063715018a6146103cc57600080fd5b80633deb2c10146102cf5780634f70b15a146102ef57806351eb05a61461030457600080fd5b806317caf6f11161019557806317caf6f11461025957806318fccc761461026f57806319ab453c1461028f5780632f940c70146102af57600080fd5b8063081e3eda146101bc5780630ad58d2f146101e05780631526fe2714610202575b600080fd5b3480156101c857600080fd5b506002545b6040519081526020015b60405180910390f35b3480156101ec57600080fd5b506102006101fb366004613426565b610614565b005b34801561020e57600080fd5b5061022261021d366004613375565b610a25565b604080516001600160801b039590951685526001600160401b039384166020860152919092169083015260608201526080016101d7565b34801561026557600080fd5b506101cd60065481565b34801561027b57600080fd5b5061020061028a3660046133a5565b610a77565b34801561029b57600080fd5b506102006102aa36600461312c565b610c42565b3480156102bb57600080fd5b506102006102ca3660046133a5565b610e9c565b3480156102db57600080fd5b506102006102ea366004613453565b61121b565b3480156102fb57600080fd5b506102006113d9565b34801561031057600080fd5b5061032461031f366004613375565b61147b565b6040805182516001600160801b031681526020808401516001600160401b0390811691830191909152838301511691810191909152606091820151918101919091526080016101d7565b34801561037a57600080fd5b506101cd7f000000000000000000000000000000000000000000000000000000000000000081565b3480156103ae57600080fd5b50610200611785565b3480156103c357600080fd5b506101cd6117b1565b3480156103d857600080fd5b506102006119a3565b3480156103ed57600080fd5b506104016103fc366004613375565b6119b7565b6040516001600160a01b0390911681526020016101d7565b34801561042557600080fd5b506102006104343660046131e4565b6119e1565b34801561044557600080fd5b506000546001600160a01b0316610401565b34801561046357600080fd5b50610200610472366004613426565b611a73565b34801561048357600080fd5b506101cd610492366004613375565b611e69565b3480156104a357600080fd5b506104d66104b23660046133a5565b60056020908152600092835260408084209091529082529020805460019091015482565b604080519283526020830191909152016101d7565b3480156104f757600080fd5b506104017f000000000000000000000000000000000000000000000000000000000000000081565b34801561052b57600080fd5b5061040161053a366004613375565b611ea5565b34801561054b57600080fd5b5061020061055a3660046133d4565b611eb5565b34801561056b57600080fd5b5061020061057a366004613426565b612075565b61059261058d366004613148565b612501565b6040516101d7929190613509565b3480156105ac57600080fd5b506101cd6105bb3660046133a5565b6126f5565b3480156105cc57600080fd5b506104017f000000000000000000000000000000000000000000000000000000000000000081565b34801561060057600080fd5b5061020061060f36600461312c565b612922565b600260015414156106405760405162461bcd60e51b8152600401610637906135b5565b60405180910390fd5b600260015560006106508461147b565b600085815260056020908152604080832033845290915290208151919250906106a39064e8d4a510009061068e9087906001600160801b031661299b565b61069891906136ea565b600183015490612a11565b600182015580546106b49085612aa5565b81556004805460009190879081106106dc57634e487b7160e01b600052603260045260246000fd5b6000918252602090912001546001600160a01b0316905080156107625781546040516321832ff960e21b81526001600160a01b0383169163860cbfe49161072f918a9133918a91600091906004016135ec565b600060405180830381600087803b15801561074957600080fd5b505af115801561075d573d6000803e3d6000fd5b505050505b60006003878154811061078557634e487b7160e01b600052603260045260246000fd5b6000918252602090912001546040516370a0823160e01b81523060048201526001600160a01b03909116906370a082319060240160206040518083038186803b1580156107d157600080fd5b505afa1580156107e5573d6000803e3d6000fd5b505050506040513d601f19601f82011682018060405250810190610809919061338d565b905061084d858760038a8154811061083157634e487b7160e01b600052603260045260246000fd5b6000918252602090912001546001600160a01b03169190612afb565b60006003888154811061087057634e487b7160e01b600052603260045260246000fd5b6000918252602090912001546040516370a0823160e01b81523060048201526001600160a01b03909116906370a082319060240160206040518083038186803b1580156108bc57600080fd5b505afa1580156108d0573d6000803e3d6000fd5b505050506040513d601f19601f820116820180604052508101906108f4919061338d565b90506109008188612b63565b821461094e5760405162461bcd60e51b815260206004820152601760248201527f77697468647261773a206e6f74206465666c6174696f6e0000000000000000006044820152606401610637565b6109938760028a8154811061097357634e487b7160e01b600052603260045260246000fd5b906000526020600020906002020160010154612aa590919063ffffffff16565b600289815481106109b457634e487b7160e01b600052603260045260246000fd5b906000526020600020906002020160010181905550856001600160a01b031688336001600160a01b03167f8166bf25f8a2b7ed3c85049207da4358d16edbed977d23fa2ee6f0dde3ec21328a604051610a0f91815260200190565b60405180910390a4505060018055505050505050565b60028181548110610a3557600080fd5b6000918252602090912060029091020180546001909101546001600160801b03821692506001600160401b03600160801b8304811692600160c01b9004169084565b60026001541415610a9a5760405162461bcd60e51b8152600401610637906135b5565b60026001556000610aaa8361147b565b6000848152600560209081526040808320338452909152812082518154939450909264e8d4a5100091610ae691906001600160801b031661299b565b610af091906136ea565b90506000610b13610b0e846001015484612a1190919063ffffffff16565b612bbc565b6001840183905590508015610b5657610b566001600160a01b037f0000000000000000000000000000000000000000000000000000000000000000168683612afb565b600060048781548110610b7957634e487b7160e01b600052603260045260246000fd5b6000918252602090912001546001600160a01b031690508015610bfe5783546040516321832ff960e21b81526001600160a01b0383169163860cbfe491610bcb918b9133918c918991906004016135ec565b600060405180830381600087803b158015610be557600080fd5b505af1158015610bf9573d6000803e3d6000fd5b505050505b604051828152879033907f71bab65ced2e5750775a0613be067df48ef06cf92a496ebf7663ae06609249549060200160405180910390a35050600180555050505050565b6040516370a0823160e01b81523360048201526000906001600160a01b038316906370a082319060240160206040518083038186803b158015610c8457600080fd5b505afa158015610c98573d6000803e3d6000fd5b505050506040513d601f19601f82011682018060405250810190610cbc919061338d565b905080610d175760405162461bcd60e51b815260206004820152602360248201527f4d61737465724368656656323a2042616c616e6365206d75737420657863656560448201526206420360ec1b6064820152608401610637565b610d2c6001600160a01b038316333084612c00565b60405163095ea7b360e01b81526001600160a01b037f0000000000000000000000000000000000000000000000000000000000000000811660048301526024820183905283169063095ea7b390604401602060405180830381600087803b158015610d9657600080fd5b505af1158015610daa573d6000803e3d6000fd5b505050506040513d601f19601f82011682018060405250810190610dce91906131c8565b50604051631c57762b60e31b81527f00000000000000000000000000000000000000000000000000000000000000006004820152602481018290527f00000000000000000000000000000000000000000000000000000000000000006001600160a01b03169063e2bbb15890604401600060405180830381600087803b158015610e5757600080fd5b505af1158015610e6b573d6000803e3d6000fd5b50506040517f98a9bd3b7a617581fc53b1e2992534e0e0cb5091c9d44aa1a7fc978f706caa83925060009150a15050565b60026001541415610ebf5760405162461bcd60e51b8152600401610637906135b5565b60026001908155600083815260056020908152604080832033845290915281208054828255928101829055600480549193929186908110610f1057634e487b7160e01b600052603260045260246000fd5b6000918252602090912001546001600160a01b031690508015610f95576040516321832ff960e21b81526001600160a01b0382169063860cbfe490610f629088903390899060009081906004016135ec565b600060405180830381600087803b158015610f7c57600080fd5b505af1158015610f90573d6000803e3d6000fd5b505050505b600060038681548110610fb857634e487b7160e01b600052603260045260246000fd5b6000918252602090912001546040516370a0823160e01b81523060048201526001600160a01b03909116906370a082319060240160206040518083038186803b15801561100457600080fd5b505afa158015611018573d6000803e3d6000fd5b505050506040513d601f19601f8201168201806040525081019061103c919061338d565b905061106485846003898154811061083157634e487b7160e01b600052603260045260246000fd5b60006003878154811061108757634e487b7160e01b600052603260045260246000fd5b6000918252602090912001546040516370a0823160e01b81523060048201526001600160a01b03909116906370a082319060240160206040518083038186803b1580156110d357600080fd5b505afa1580156110e7573d6000803e3d6000fd5b505050506040513d601f19601f8201168201806040525081019061110b919061338d565b90506111178185612b63565b82146111655760405162461bcd60e51b815260206004820181905260248201527f656d657267656e637957697468647261773a206e6f74206465666c6174696f6e6044820152606401610637565b61118a846002898154811061097357634e487b7160e01b600052603260045260246000fd5b600288815481106111ab57634e487b7160e01b600052603260045260246000fd5b906000526020600020906002020160010181905550856001600160a01b031687336001600160a01b03167f2cac5e20e1541d836381527a43f651851e302817b71dc8e810284e69210c1c6b8760405161120691815260200190565b60405180910390a45050600180555050505050565b611223612c38565b801561123157611231611785565b611289846112836002888154811061125957634e487b7160e01b600052603260045260246000fd5b600091825260209091206002909102015460065490600160c01b90046001600160401b0316612aa5565b90612b63565b60065561129584612c92565b600286815481106112b657634e487b7160e01b600052603260045260246000fd5b906000526020600020906002020160000160186101000a8154816001600160401b0302191690836001600160401b03160217905550811561134257826004868154811061131357634e487b7160e01b600052603260045260246000fd5b9060005260206000200160006101000a8154816001600160a01b0302191690836001600160a01b031602179055505b81611382576004858154811061136857634e487b7160e01b600052603260045260246000fd5b6000918252602090912001546001600160a01b0316611384565b825b6001600160a01b0316857f95895a6ab1df54420d241b55243258a33e61b2194db66c1179ec521aae8e186586856040516113ca9291909182521515602082015260400190565b60405180910390a35050505050565b604051631c57762b60e31b81527f00000000000000000000000000000000000000000000000000000000000000006004820152600060248201527f00000000000000000000000000000000000000000000000000000000000000006001600160a01b03169063e2bbb15890604401600060405180830381600087803b15801561146157600080fd5b505af1158015611475573d6000803e3d6000fd5b50505050565b604080516080810182526000808252602082018190529181018290526060810191909152600282815481106114c057634e487b7160e01b600052603260045260246000fd5b600091825260209182902060408051608081018252600290930290910180546001600160801b03811684526001600160401b03600160801b82048116958501869052600160c01b909104169183019190915260010154606082015291504311156117805760006003838154811061154757634e487b7160e01b600052603260045260246000fd5b6000918252602090912001546040516370a0823160e01b81523060048201526001600160a01b03909116906370a082319060240160206040518083038186803b15801561159357600080fd5b505afa1580156115a7573d6000803e3d6000fd5b505050506040513d601f19601f820116820180604052508101906115cb919061338d565b90506000811180156115df57506000600654115b1561168657600061160683602001516001600160401b031643612aa590919063ffffffff16565b9050600060065461163685604001516001600160401b03166116306116296117b1565b869061299b565b9061299b565b61164091906136ea565b9050611678611667846116588464e8d4a5100061299b565b61166291906136ea565b612ceb565b85516001600160801b031690612d44565b6001600160801b0316845250505b61168f43612c92565b6001600160401b0316602083015260028054839190859081106116c257634e487b7160e01b600052603260045260246000fd5b60009182526020918290208351600292909202018054848401516040808701516001600160401b03908116600160c01b026001600160c01b03938216600160801b026001600160c01b03199095166001600160801b0397881617949094179290921692909217835560609586015160019093019290925586840151875182519190931681529384018690529116828201525185927f0fc9545022a542541ad085d091fb09a2ab36fee366a4576ab63714ea907ad353928290030190a2505b919050565b60025460005b818110156117ad5761179c8161147b565b506117a6816137ab565b905061178b565b5050565b60007f00000000000000000000000000000000000000000000000000000000000000006001600160a01b03166317caf6f16040518163ffffffff1660e01b815260040160206040518083038186803b15801561180c57600080fd5b505afa158015611820573d6000803e3d6000fd5b505050506040513d601f19601f82011682018060405250810190611844919061338d565b604051631526fe2760e01b81527f00000000000000000000000000000000000000000000000000000000000000006004820152611994907f00000000000000000000000000000000000000000000000000000000000000006001600160a01b031690631526fe279060240160806040518083038186803b1580156118c757600080fd5b505afa1580156118db573d6000803e3d6000fd5b505050506040513d601f19601f820116820180604052508101906118ff9190613308565b602001517f00000000000000000000000000000000000000000000000000000000000000006001600160a01b031663662b5fbe6040518163ffffffff1660e01b815260040160206040518083038186803b15801561195c57600080fd5b505afa158015611970573d6000803e3d6000fd5b505050506040513d601f19601f82011682018060405250810190611630919061338d565b61199e91906136ea565b905090565b6119ab612c38565b6119b56000612daf565b565b600381815481106119c757600080fd5b6000918252602090912001546001600160a01b0316905081565b60405163d505accf60e01b81526001600160a01b0388811660048301528781166024830152604482018790526064820186905260ff8516608483015260a4820184905260c4820183905289169063d505accf9060e401600060405180830381600087803b158015611a5157600080fd5b505af1158015611a65573d6000803e3d6000fd5b505050505050505050505050565b60026001541415611a965760405162461bcd60e51b8152600401610637906135b5565b60026001556000611aa68461147b565b60008581526005602090815260408083206001600160a01b03871684529091529020805491925090611ad89085612b63565b81558151611b109064e8d4a5100090611afb9087906001600160801b031661299b565b611b0591906136ea565b600183015490612dff565b8160010181905550600060048681548110611b3b57634e487b7160e01b600052603260045260246000fd5b6000918252602090912001546001600160a01b031690508015611bc15781546040516321832ff960e21b81526001600160a01b0383169163860cbfe491611b8e918a9189918291600091906004016135ec565b600060405180830381600087803b158015611ba857600080fd5b505af1158015611bbc573d6000803e3d6000fd5b505050505b600060038781548110611be457634e487b7160e01b600052603260045260246000fd5b6000918252602090912001546040516370a0823160e01b81523060048201526001600160a01b03909116906370a082319060240160206040518083038186803b158015611c3057600080fd5b505afa158015611c44573d6000803e3d6000fd5b505050506040513d601f19601f82011682018060405250810190611c68919061338d565b9050611cae33308860038b81548110611c9157634e487b7160e01b600052603260045260246000fd5b6000918252602090912001546001600160a01b0316929190612c00565b600060038881548110611cd157634e487b7160e01b600052603260045260246000fd5b6000918252602090912001546040516370a0823160e01b81523060048201526001600160a01b03909116906370a082319060240160206040518083038186803b158015611d1d57600080fd5b505afa158015611d31573d6000803e3d6000fd5b505050506040513d601f19601f82011682018060405250810190611d55919061338d565b9050611d618288612b63565b8114611da85760405162461bcd60e51b81526020600482015260166024820152753232b837b9b4ba1d103737ba103232b33630ba34b7b760511b6044820152606401610637565b611ded8760028a81548110611dcd57634e487b7160e01b600052603260045260246000fd5b906000526020600020906002020160010154612b6390919063ffffffff16565b60028981548110611e0e57634e487b7160e01b600052603260045260246000fd5b906000526020600020906002020160010181905550856001600160a01b031688336001600160a01b03167f02d7e648dd130fc184d383e55bb126ac4c9c60e8f94bf05acdf557ba2d540b478a604051610a0f91815260200190565b600060028281548110611e8c57634e487b7160e01b600052603260045260246000fd5b9060005260206000209060020201600101549050919050565b600481815481106119c757600080fd5b611ebd612c38565b8015611ecb57611ecb611785565b6006544390611eda9086612b63565b6006556003805460018181019092557fc2575a0e9e593c00f959f8c92f12db2869c3395a3b0502d05e2516446f71f85b0180546001600160a01b038088166001600160a01b03199283161790925560048054938401815560009081527f8a35acfbc15ff81a39ae7d344fd709f28e8600b4aa8c65c6b64bfe7fe36bd19b909301805492871692909116919091179055604080516080810190915290815260029060208101611f8784612c92565b6001600160401b03168152602001611f9e88612c92565b6001600160401b0390811682526000602092830181905284546001818101875595825290839020845160029092020180549385015160408601518416600160c01b026001600160c01b0391909416600160801b026001600160c01b03199095166001600160801b03909316929092179390931716178155606090910151908201556003546001600160a01b03808616929087169161203b91612aa5565b6040518881527f81ee0f8c5c46e2cb41984886f77a84181724abb86c32a5f6de539b07509d45e59060200160405180910390a45050505050565b600260015414156120985760405162461bcd60e51b8152600401610637906135b5565b600260015560006120a88461147b565b6000858152600560209081526040808320338452909152812082518154939450909264e8d4a51000916120e491906001600160801b031661299b565b6120ee91906136ea565b9050600061210c610b0e846001015484612a1190919063ffffffff16565b905061214864e8d4a5100061213786600001516001600160801b03168961299b90919063ffffffff16565b61214191906136ea565b8390612a11565b600184015582546121599087612aa5565b835561218f6001600160a01b037f0000000000000000000000000000000000000000000000000000000000000000168683612afb565b6000600488815481106121b257634e487b7160e01b600052603260045260246000fd5b6000918252602090912001546001600160a01b0316905080156122375783546040516321832ff960e21b81526001600160a01b0383169163860cbfe491612204918c9133918c918991906004016135ec565b600060405180830381600087803b15801561221e57600080fd5b505af1158015612232573d6000803e3d6000fd5b505050505b60006003898154811061225a57634e487b7160e01b600052603260045260246000fd5b6000918252602090912001546040516370a0823160e01b81523060048201526001600160a01b03909116906370a082319060240160206040518083038186803b1580156122a657600080fd5b505afa1580156122ba573d6000803e3d6000fd5b505050506040513d601f19601f820116820180604052508101906122de919061338d565b9050612306878960038c8154811061083157634e487b7160e01b600052603260045260246000fd5b600060038a8154811061232957634e487b7160e01b600052603260045260246000fd5b6000918252602090912001546040516370a0823160e01b81523060048201526001600160a01b03909116906370a082319060240160206040518083038186803b15801561237557600080fd5b505afa158015612389573d6000803e3d6000fd5b505050506040513d601f19601f820116820180604052508101906123ad919061338d565b90506123b9818a612b63565b82146124115760405162461bcd60e51b815260206004820152602160248201527f7769746864726177416e64486172766573743a206e6f74206465666c6174696f6044820152603760f91b6064820152608401610637565b6124368960028c8154811061097357634e487b7160e01b600052603260045260246000fd5b60028b8154811061245757634e487b7160e01b600052603260045260246000fd5b906000526020600020906002020160010181905550876001600160a01b03168a336001600160a01b03167f8166bf25f8a2b7ed3c85049207da4358d16edbed977d23fa2ee6f0dde3ec21328c6040516124b291815260200190565b60405180910390a46040518481528a9033907f71bab65ced2e5750775a0613be067df48ef06cf92a496ebf7663ae06609249549060200160405180910390a35050600180555050505050505050565b606080836001600160401b0381111561252a57634e487b7160e01b600052604160045260246000fd5b604051908082528060200260200182016040528015612553578160200160208202803683370190505b509150836001600160401b0381111561257c57634e487b7160e01b600052604160045260246000fd5b6040519080825280602002602001820160405280156125af57816020015b606081526020019060019003908161259a5790505b50905060005b848110156126ec57600080308888858181106125e157634e487b7160e01b600052603260045260246000fd5b90506020028101906125f3919061361b565b6040516126019291906134dd565b600060405180830381855af49150503d806000811461263c576040519150601f19603f3d011682016040523d82523d6000602084013e612641565b606091505b50915091508180612650575085155b61265982612e8a565b906126775760405162461bcd60e51b815260040161063791906135a2565b508185848151811061269957634e487b7160e01b600052603260045260246000fd5b602002602001019015159081151581525050808484815181106126cc57634e487b7160e01b600052603260045260246000fd5b6020026020010181905250505080806126e4906137ab565b9150506125b5565b50935093915050565b6000806002848154811061271957634e487b7160e01b600052603260045260246000fd5b6000918252602080832060408051608081018252600290940290910180546001600160801b0380821686526001600160401b03600160801b8304811687870152600160c01b909204909116858401526001909101546060850152888552600583528185206001600160a01b038916865290925283208251600380549496509194921692889081106127ba57634e487b7160e01b600052603260045260246000fd5b6000918252602090912001546040516370a0823160e01b81523060048201526001600160a01b03909116906370a082319060240160206040518083038186803b15801561280657600080fd5b505afa15801561281a573d6000803e3d6000fd5b505050506040513d601f19601f8201168201806040525081019061283e919061338d565b905083602001516001600160401b03164311801561285b57508015155b8015612868575060065415155b156128e757600061288f85602001516001600160401b031643612aa590919063ffffffff16565b905060006006546128b287604001516001600160401b03166116306116296117b1565b6128bc91906136ea565b90506128e2836128d18364e8d4a5100061299b565b6128db91906136ea565b8590612b63565b935050505b6001830154835461291791610b0e9164e8d4a5100090612907908761299b565b61291191906136ea565b90612a11565b979650505050505050565b61292a612c38565b6001600160a01b03811661298f5760405162461bcd60e51b815260206004820152602660248201527f4f776e61626c653a206e6577206f776e657220697320746865207a65726f206160448201526564647265737360d01b6064820152608401610637565b61299881612daf565b50565b60008115806129bf575082826129b1818361370a565b92506129bd90836136ea565b145b612a0b5760405162461bcd60e51b815260206004820152601860248201527f426f72696e674d6174683a204d756c204f766572666c6f7700000000000000006044820152606401610637565b92915050565b600080612a1e8385613729565b905060008312158015612a315750838113155b80612a465750600083128015612a4657508381135b612a9e5760405162461bcd60e51b8152602060048201526024808201527f5369676e6564536166654d6174683a207375627472616374696f6e206f766572604482015263666c6f7760e01b6064820152608401610637565b9392505050565b600082612ab28382613768565b9150811115612a0b5760405162461bcd60e51b8152602060048201526015602482015274426f72696e674d6174683a20556e646572666c6f7760581b6044820152606401610637565b6040516001600160a01b038316602482015260448101829052612b5e90849063a9059cbb60e01b906064015b60408051601f198184030181529190526020810180516001600160e01b03166001600160e01b031990931692909217909152612ee9565b505050565b600081612b7081856136d2565b9150811015612a0b5760405162461bcd60e51b8152602060048201526018602482015277426f72696e674d6174683a20416464204f766572666c6f7760401b6044820152606401610637565b600080821215612bfc5760405162461bcd60e51b815260206004820152600b60248201526a0496e7465676572203c20360ac1b6044820152606401610637565b5090565b6040516001600160a01b03808516602483015283166044820152606481018290526114759085906323b872dd60e01b90608401612b27565b6000546001600160a01b031633146119b55760405162461bcd60e51b815260206004820181905260248201527f4f776e61626c653a2063616c6c6572206973206e6f7420746865206f776e65726044820152606401610637565b60006001600160401b03821115612bfc5760405162461bcd60e51b815260206004820152601b60248201527f426f72696e674d6174683a2075696e743634204f766572666c6f7700000000006044820152606401610637565b60006001600160801b03821115612bfc5760405162461bcd60e51b815260206004820152601c60248201527f426f72696e674d6174683a2075696e74313238204f766572666c6f77000000006044820152606401610637565b60006001600160801b038216612d5a83856136a7565b9150816001600160801b03161015612a0b5760405162461bcd60e51b8152602060048201526018602482015277426f72696e674d6174683a20416464204f766572666c6f7760401b6044820152606401610637565b600080546001600160a01b038381166001600160a01b0319831681178455604051919092169283917f8be0079c531659141344cd1fd0a4f28419497f9722a3daafe3b4186f6b6457e09190a35050565b600080612e0c8385613666565b905060008312158015612e1f5750838112155b80612e345750600083128015612e3457508381125b612a9e5760405162461bcd60e51b815260206004820152602160248201527f5369676e6564536166654d6174683a206164646974696f6e206f766572666c6f6044820152607760f81b6064820152608401610637565b6060604482511015612ecf57505060408051808201909152601d81527f5472616e73616374696f6e2072657665727465642073696c656e746c79000000602082015290565b60048201915081806020019051810190612a0b919061326b565b6000612f3e826040518060400160405280602081526020017f5361666545524332303a206c6f772d6c6576656c2063616c6c206661696c6564815250856001600160a01b0316612fbb9092919063ffffffff16565b805190915015612b5e5780806020019051810190612f5c91906131c8565b612b5e5760405162461bcd60e51b815260206004820152602a60248201527f5361666545524332303a204552433230206f7065726174696f6e20646964206e6044820152691bdd081cdd58d8d9595960b21b6064820152608401610637565b6060612fca8484600085612fd2565b949350505050565b6060824710156130335760405162461bcd60e51b815260206004820152602660248201527f416464726573733a20696e73756666696369656e742062616c616e636520666f6044820152651c8818d85b1b60d21b6064820152608401610637565b6001600160a01b0385163b61308a5760405162461bcd60e51b815260206004820152601d60248201527f416464726573733a2063616c6c20746f206e6f6e2d636f6e74726163740000006044820152606401610637565b600080866001600160a01b031685876040516130a691906134ed565b60006040518083038185875af1925050503d80600081146130e3576040519150601f19603f3d011682016040523d82523d6000602084013e6130e8565b606091505b509150915061291782828660608315613102575081612a9e565b8251156131125782518084602001fd5b8160405162461bcd60e51b815260040161063791906135a2565b60006020828403121561313d578081fd5b8135612a9e816137f2565b60008060006040848603121561315c578182fd5b83356001600160401b0380821115613172578384fd5b818601915086601f830112613185578384fd5b813581811115613193578485fd5b8760208260051b85010111156131a7578485fd5b602092830195509350508401356131bd81613807565b809150509250925092565b6000602082840312156131d9578081fd5b8151612a9e81613807565b600080600080600080600080610100898b031215613200578384fd5b883561320b816137f2565b9750602089013561321b816137f2565b9650604089013561322b816137f2565b9550606089013594506080890135935060a089013560ff8116811461324e578384fd5b979a969950949793969295929450505060c08201359160e0013590565b60006020828403121561327c578081fd5b81516001600160401b0380821115613292578283fd5b818401915084601f8301126132a5578283fd5b8151818111156132b7576132b76137dc565b604051601f8201601f19908116603f011681019083821181831017156132df576132df6137dc565b816040528281528760208487010111156132f7578586fd5b61291783602083016020880161377f565b600060808284031215613319578081fd5b604051608081018181106001600160401b038211171561333b5761333b6137dc565b6040528251613349816137f2565b808252506020830151602082015260408301516040820152606083015160608201528091505092915050565b600060208284031215613386578081fd5b5035919050565b60006020828403121561339e578081fd5b5051919050565b600080604083850312156133b7578182fd5b8235915060208301356133c9816137f2565b809150509250929050565b600080600080608085870312156133e9578081fd5b8435935060208501356133fb816137f2565b9250604085013561340b816137f2565b9150606085013561341b81613807565b939692955090935050565b60008060006060848603121561343a578081fd5b833592506020840135915060408401356131bd816137f2565b600080600080600060a0868803121561346a578283fd5b85359450602086013593506040860135613483816137f2565b9250606086013561349381613807565b915060808601356134a381613807565b809150509295509295909350565b600081518084526134c981602086016020860161377f565b601f01601f19169290920160200192915050565b8183823760009101908152919050565b600082516134ff81846020870161377f565b9190910192915050565b604080825283519082018190526000906020906060840190828701845b82811015613544578151151584529284019290840190600101613526565b50505083810382850152845180825282820190600581901b83018401878501865b8381101561359357601f198684030185526135818383516134b1565b94870194925090860190600101613565565b50909998505050505050505050565b602081526000612a9e60208301846134b1565b6020808252601f908201527f5265656e7472616e637947756172643a207265656e7472616e742063616c6c00604082015260600190565b9485526001600160a01b0393841660208601529190921660408401526060830191909152608082015260a00190565b6000808335601e19843603018112613631578283fd5b8301803591506001600160401b0382111561364a578283fd5b60200191503681900382131561365f57600080fd5b9250929050565b600080821280156001600160ff1b0384900385131615613688576136886137c6565b600160ff1b83900384128116156136a1576136a16137c6565b50500190565b60006001600160801b038083168185168083038211156136c9576136c96137c6565b01949350505050565b600082198211156136e5576136e56137c6565b500190565b60008261370557634e487b7160e01b81526012600452602481fd5b500490565b6000816000190483118215151615613724576137246137c6565b500290565b60008083128015600160ff1b850184121615613747576137476137c6565b6001600160ff1b0384018313811615613762576137626137c6565b50500390565b60008282101561377a5761377a6137c6565b500390565b60005b8381101561379a578181015183820152602001613782565b838111156114755750506000910152565b60006000198214156137bf576137bf6137c6565b5060010190565b634e487b7160e01b600052601160045260246000fd5b634e487b7160e01b600052604160045260246000fd5b6001600160a01b038116811461299857600080fd5b801515811461299857600080fdfea26469706673582212203561879e1d3adec428c31de5bdde6d82b2ff8dfe067ba3085fc84f22bb23c53364736f6c63430008040033",
  "linkReferences": {},
  "deployedLinkReferences": {}
}