{
  "_format": "hh-sol-artifact-1",
  "contractName": "KaidexMasterChefV2",
  "sourceName": "contracts/farming/KaidexMasterChefV2.sol",
  "abi": [
    {
      "inputs": [
        {
          "internalType": "contract IMasterChef",
          "name": "_MASTER_CHEF",
          "type": "address"
        },
        {
          "internalType": "contract IERC20",
          "name": "_kdx",
          "type": "address"
        },
        {
          "internalType": "uint256",
          "name": "_MASTER_PID",
          "type": "uint256"
        }
      ],
      "stateMutability": "nonpayable",
      "type": "constructor"
    },
    {
      "anonymous": false,
      "inputs": [
        {
          "indexed": true,
          "internalType": "address",
          "name": "user",
          "type": "address"
        },
        {
          "indexed": true,
          "internalType": "uint256",
          "name": "pid",
          "type": "uint256"
        },
        {
          "indexed": false,
          "internalType": "uint256",
          "name": "amount",
          "type": "uint256"
        },
        {
          "indexed": true,
          "internalType": "address",
          "name": "to",
          "type": "address"
        }
      ],
      "name": "Deposit",
      "type": "event"
    },
    {
      "anonymous": false,
      "inputs": [
        {
          "indexed": true,
          "internalType": "address",
          "name": "user",
          "type": "address"
        },
        {
          "indexed": true,
          "internalType": "uint256",
          "name": "pid",
          "type": "uint256"
        },
        {
          "indexed": false,
          "internalType": "uint256",
          "name": "amount",
          "type": "uint256"
        },
        {
          "indexed": true,
          "internalType": "address",
          "name": "to",
          "type": "address"
        }
      ],
      "name": "EmergencyWithdraw",
      "type": "event"
    },
    {
      "anonymous": false,
      "inputs": [
        {
          "indexed": true,
          "internalType": "address",
          "name": "user",
          "type": "address"
        },
        {
          "indexed": true,
          "internalType": "uint256",
          "name": "pid",
          "type": "uint256"
        },
        {
          "indexed": false,
          "internalType": "uint256",
          "name": "amount",
          "type": "uint256"
        }
      ],
      "name": "Harvest",
      "type": "event"
    },
    {
      "anonymous": false,
      "inputs": [],
      "name": "LogInit",
      "type": "event"
    },
    {
      "anonymous": false,
      "inputs": [
        {
          "indexed": true,
          "internalType": "uint256",
          "name": "pid",
          "type": "uint256"
        },
        {
          "indexed": false,
          "internalType": "uint256",
          "name": "allocPoint",
          "type": "uint256"
        },
        {
          "indexed": true,
          "internalType": "contract IERC20",
          "name": "lpToken",
          "type": "address"
        },
        {
          "indexed": true,
          "internalType": "contract IRewarder",
          "name": "rewarder",
          "type": "address"
        }
      ],
      "name": "LogPoolAddition",
      "type": "event"
    },
    {
      "anonymous": false,
      "inputs": [
        {
          "indexed": true,
          "internalType": "uint256",
          "name": "pid",
          "type": "uint256"
        },
        {
          "indexed": false,
          "internalType": "uint256",
          "name": "allocPoint",
          "type": "uint256"
        },
        {
          "indexed": true,
          "internalType": "contract IRewarder",
          "name": "rewarder",
          "type": "address"
        },
        {
          "indexed": false,
          "internalType": "bool",
          "name": "overwrite",
          "type": "bool"
        }
      ],
      "name": "LogSetPool",
      "type": "event"
    },
    {
      "anonymous": false,
      "inputs": [
        {
          "indexed": true,
          "internalType": "uint256",
          "name": "pid",
          "type": "uint256"
        },
        {
          "indexed": false,
          "internalType": "uint64",
          "name": "lastRewardBlock",
          "type": "uint64"
        },
        {
          "indexed": false,
          "internalType": "uint256",
          "name": "lpSupply",
          "type": "uint256"
        },
        {
          "indexed": false,
          "internalType": "uint256",
          "name": "accKdxPerShare",
          "type": "uint256"
        }
      ],
      "name": "LogUpdatePool",
      "type": "event"
    },
    {
      "anonymous": false,
      "inputs": [
        {
          "indexed": true,
          "internalType": "address",
          "name": "previousOwner",
          "type": "address"
        },
        {
          "indexed": true,
          "internalType": "address",
          "name": "newOwner",
          "type": "address"
        }
      ],
      "name": "OwnershipTransferred",
      "type": "event"
    },
    {
      "anonymous": false,
      "inputs": [
        {
          "indexed": true,
          "internalType": "address",
          "name": "user",
          "type": "address"
        },
        {
          "indexed": true,
          "internalType": "uint256",
          "name": "pid",
          "type": "uint256"
        },
        {
          "indexed": false,
          "internalType": "uint256",
          "name": "amount",
          "type": "uint256"
        },
        {
          "indexed": true,
          "internalType": "address",
          "name": "to",
          "type": "address"
        }
      ],
      "name": "Withdraw",
      "type": "event"
    },
    {
      "inputs": [],
      "name": "KDX",
      "outputs": [
        {
          "internalType": "contract IERC20",
          "name": "",
          "type": "address"
        }
      ],
      "stateMutability": "view",
      "type": "function"
    },
    {
      "inputs": [],
      "name": "MASTER_CHEF",
      "outputs": [
        {
          "internalType": "contract IMasterChef",
          "name": "",
          "type": "address"
        }
      ],
      "stateMutability": "view",
      "type": "function"
    },
    {
      "inputs": [],
      "name": "MASTER_PID",
      "outputs": [
        {
          "internalType": "uint256",
          "name": "",
          "type": "uint256"
        }
      ],
      "stateMutability": "view",
      "type": "function"
    },
    {
      "inputs": [
        {
          "internalType": "uint256",
          "name": "allocPoint",
          "type": "uint256"
        },
        {
          "internalType": "contract IERC20",
          "name": "_lpToken",
          "type": "address"
        },
        {
          "internalType": "contract IRewarder",
          "name": "_rewarder",
          "type": "address"
        }
      ],
      "name": "add",
      "outputs": [],
      "stateMutability": "nonpayable",
      "type": "function"
    },
    {
      "inputs": [
        {
          "internalType": "uint256",
          "name": "pid",
          "type": "uint256"
        },
        {
          "internalType": "uint256",
          "name": "amount",
          "type": "uint256"
        },
        {
          "internalType": "address",
          "name": "to",
          "type": "address"
        }
      ],
      "name": "deposit",
      "outputs": [],
      "stateMutability": "nonpayable",
      "type": "function"
    },
    {
      "inputs": [
        {
          "internalType": "uint256",
          "name": "pid",
          "type": "uint256"
        },
        {
          "internalType": "address",
          "name": "to",
          "type": "address"
        }
      ],
      "name": "emergencyWithdraw",
      "outputs": [],
      "stateMutability": "nonpayable",
      "type": "function"
    },
    {
      "inputs": [
        {
          "internalType": "uint256",
          "name": "pid",
          "type": "uint256"
        },
        {
          "internalType": "address",
          "name": "to",
          "type": "address"
        }
      ],
      "name": "harvest",
      "outputs": [],
      "stateMutability": "nonpayable",
      "type": "function"
    },
    {
      "inputs": [],
      "name": "harvestFromMasterChef",
      "outputs": [],
      "stateMutability": "nonpayable",
      "type": "function"
    },
    {
      "inputs": [
        {
          "internalType": "contract IERC20",
          "name": "dummyToken",
          "type": "address"
        }
      ],
      "name": "init",
      "outputs": [],
      "stateMutability": "nonpayable",
      "type": "function"
    },
    {
      "inputs": [],
      "name": "kdxPerBlock",
      "outputs": [
        {
          "internalType": "uint256",
          "name": "amount",
          "type": "uint256"
        }
      ],
      "stateMutability": "view",
      "type": "function"
    },
    {
      "inputs": [
        {
          "internalType": "uint256",
          "name": "",
          "type": "uint256"
        }
      ],
      "name": "lpToken",
      "outputs": [
        {
          "internalType": "contract IERC20",
          "name": "",
          "type": "address"
        }
      ],
      "stateMutability": "view",
      "type": "function"
    },
    {
      "inputs": [
        {
          "internalType": "uint256[]",
          "name": "pids",
          "type": "uint256[]"
        }
      ],
      "name": "massUpdatePools",
      "outputs": [],
      "stateMutability": "nonpayable",
      "type": "function"
    },
    {
      "inputs": [],
      "name": "owner",
      "outputs": [
        {
          "internalType": "address",
          "name": "",
          "type": "address"
        }
      ],
      "stateMutability": "view",
      "type": "function"
    },
    {
      "inputs": [
        {
          "internalType": "uint256",
          "name": "_pid",
          "type": "uint256"
        },
        {
          "internalType": "address",
          "name": "_user",
          "type": "address"
        }
      ],
      "name": "pendingKDX",
      "outputs": [
        {
          "internalType": "uint256",
          "name": "pending",
          "type": "uint256"
        }
      ],
      "stateMutability": "view",
      "type": "function"
    },
    {
      "inputs": [
        {
          "internalType": "uint256",
          "name": "",
          "type": "uint256"
        }
      ],
      "name": "poolInfo",
      "outputs": [
        {
          "internalType": "uint128",
          "name": "accKdxPerShare",
          "type": "uint128"
        },
        {
          "internalType": "uint64",
          "name": "lastRewardBlock",
          "type": "uint64"
        },
        {
          "internalType": "uint64",
          "name": "allocPoint",
          "type": "uint64"
        }
      ],
      "stateMutability": "view",
      "type": "function"
    },
    {
      "inputs": [],
      "name": "poolLength",
      "outputs": [
        {
          "internalType": "uint256",
          "name": "pools",
          "type": "uint256"
        }
      ],
      "stateMutability": "view",
      "type": "function"
    },
    {
      "inputs": [],
      "name": "renounceOwnership",
      "outputs": [],
      "stateMutability": "nonpayable",
      "type": "function"
    },
    {
      "inputs": [
        {
          "internalType": "uint256",
          "name": "",
          "type": "uint256"
        }
      ],
      "name": "rewarder",
      "outputs": [
        {
          "internalType": "contract IRewarder",
          "name": "",
          "type": "address"
        }
      ],
      "stateMutability": "view",
      "type": "function"
    },
    {
      "inputs": [
        {
          "internalType": "uint256",
          "name": "_pid",
          "type": "uint256"
        },
        {
          "internalType": "uint256",
          "name": "_allocPoint",
          "type": "uint256"
        },
        {
          "internalType": "contract IRewarder",
          "name": "_rewarder",
          "type": "address"
        },
        {
          "internalType": "bool",
          "name": "overwrite",
          "type": "bool"
        }
      ],
      "name": "set",
      "outputs": [],
      "stateMutability": "nonpayable",
      "type": "function"
    },
    {
      "inputs": [],
      "name": "totalAllocPoint",
      "outputs": [
        {
          "internalType": "uint256",
          "name": "",
          "type": "uint256"
        }
      ],
      "stateMutability": "view",
      "type": "function"
    },
    {
      "inputs": [
        {
          "internalType": "address",
          "name": "newOwner",
          "type": "address"
        }
      ],
      "name": "transferOwnership",
      "outputs": [],
      "stateMutability": "nonpayable",
      "type": "function"
    },
    {
      "inputs": [
        {
          "internalType": "uint256",
          "name": "pid",
          "type": "uint256"
        }
      ],
      "name": "updatePool",
      "outputs": [
        {
          "components": [
            {
              "internalType": "uint128",
              "name": "accKdxPerShare",
              "type": "uint128"
            },
            {
              "internalType": "uint64",
              "name": "lastRewardBlock",
              "type": "uint64"
            },
            {
              "internalType": "uint64",
              "name": "allocPoint",
              "type": "uint64"
            }
          ],
          "internalType": "struct KaidexMasterChefV2.PoolInfo",
          "name": "pool",
          "type": "tuple"
        }
      ],
      "stateMutability": "nonpayable",
      "type": "function"
    },
    {
      "inputs": [
        {
          "internalType": "uint256",
          "name": "",
          "type": "uint256"
        },
        {
          "internalType": "address",
          "name": "",
          "type": "address"
        }
      ],
      "name": "userInfo",
      "outputs": [
        {
          "internalType": "uint256",
          "name": "amount",
          "type": "uint256"
        },
        {
          "internalType": "int256",
          "name": "rewardDebt",
          "type": "int256"
        }
      ],
      "stateMutability": "view",
      "type": "function"
    },
    {
      "inputs": [
        {
          "internalType": "uint256",
          "name": "pid",
          "type": "uint256"
        },
        {
          "internalType": "uint256",
          "name": "amount",
          "type": "uint256"
        },
        {
          "internalType": "address",
          "name": "to",
          "type": "address"
        }
      ],
      "name": "withdraw",
      "outputs": [],
      "stateMutability": "nonpayable",
      "type": "function"
    },
    {
      "inputs": [
        {
          "internalType": "uint256",
          "name": "pid",
          "type": "uint256"
        },
        {
          "internalType": "uint256",
          "name": "amount",
          "type": "uint256"
        },
        {
          "internalType": "address",
          "name": "to",
          "type": "address"
        }
      ],
      "name": "withdrawAndHarvest",
      "outputs": [],
      "stateMutability": "nonpayable",
      "type": "function"
    }
  ],
  "bytecode": "0x60e06040523480156200001157600080fd5b50604051620030c9380380620030c98339810160408190526200003491620000b7565b6200003f3362000067565b600180556001600160601b0319606093841b81166080529190921b1660a05260c05262000117565b600080546001600160a01b038381166001600160a01b0319831681178455604051919092169283917f8be0079c531659141344cd1fd0a4f28419497f9722a3daafe3b4186f6b6457e09190a35050565b600080600060608486031215620000cc578283fd5b8351620000d981620000fe565b6020850151909350620000ec81620000fe565b80925050604084015190509250925092565b6001600160a01b03811681146200011457600080fd5b50565b60805160601c60a05160601c60c051612f2f6200019a6000396000818161029701528181610b7101528181610f6201526113b4015260008181610377015281816108c20152611d7e0152600081816103ea01528181610ad601528181610b9e01528181610f8f01528181611316015281816113de01526114660152612f2f6000f3fe608060405234801561001057600080fd5b50600436106101735760003560e01c8063715018a6116100de5780639dd0249411610097578063d1abb90711610071578063d1abb907146103bf578063dadf2144146103d2578063edd8b170146103e5578063f2fde38b1461040c57600080fd5b80639dd0249414610372578063ab7de09814610399578063c346253d146103ac57600080fd5b8063715018a6146102c157806378ed5d1f146102c957806388bba42f146102f45780638da5cb5b146103075780638dbdbe6d1461031857806393f1a40b1461032b57600080fd5b80632f940c70116101305780632f940c70146102155780634f70b15a1461022857806351eb05a61461023057806357a5b58c1461027f57806361621aaa14610292578063662b5fbe146102b957600080fd5b8063081e3eda146101785780630ad58d2f1461018f5780631526fe27146101a457806317caf6f1146101e657806318fccc76146101ef57806319ab453c14610202575b600080fd5b6002545b6040519081526020015b60405180910390f35b6101a261019d366004612c00565b61041f565b005b6101b76101b2366004612b60565b6107bd565b604080516001600160801b0390941684526001600160401b039283166020850152911690820152606001610186565b61017c60065481565b6101a26101fd366004612b90565b610802565b6101a2610210366004612a40565b6109d5565b6101a2610223366004612b90565b610c2f565b6101a2610f53565b61024361023e366004612b60565b610ff5565b6040805182516001600160801b031681526020808401516001600160401b03908116918301919091529282015190921690820152606001610186565b6101a261028d366004612a5c565b6112c6565b61017c7f000000000000000000000000000000000000000000000000000000000000000081565b61017c611312565b6101a2611504565b6102dc6102d7366004612b60565b61153a565b6040516001600160a01b039091168152602001610186565b6101a2610302366004612c2d565b611564565b6000546001600160a01b03166102dc565b6101a2610326366004612c00565b61172c565b61035d610339366004612b90565b60056020908152600092835260408084209091529082529020805460019091015482565b60408051928352602083019190915201610186565b6102dc7f000000000000000000000000000000000000000000000000000000000000000081565b6101a26103a7366004612bbf565b611aaf565b6102dc6103ba366004612b60565b611c73565b6101a26103cd366004612c00565b611c83565b61017c6103e0366004612b90565b6120bc565b6102dc7f000000000000000000000000000000000000000000000000000000000000000081565b6101a261041a366004612a40565b6122cd565b6002600154141561044b5760405162461bcd60e51b815260040161044290612cfa565b60405180910390fd5b6002600155610458610f53565b600061046384610ff5565b600085815260056020908152604080832033845290915290208151919250906104b69064e8d4a51000906104a19087906001600160801b0316612368565b6104ab9190612de4565b6001830154906123de565b600182015580546104c79085612472565b81556004805460009190879081106104ef57634e487b7160e01b600052603260045260246000fd5b6000918252602090912001546001600160a01b0316905080156105755781546040516321832ff960e21b81526001600160a01b0383169163860cbfe491610542918a9133918a9160009190600401612d31565b600060405180830381600087803b15801561055c57600080fd5b505af1158015610570573d6000803e3d6000fd5b505050505b60006003878154811061059857634e487b7160e01b600052603260045260246000fd5b6000918252602090912001546040516370a0823160e01b81523060048201526001600160a01b03909116906370a082319060240160206040518083038186803b1580156105e457600080fd5b505afa1580156105f8573d6000803e3d6000fd5b505050506040513d601f19601f8201168201806040525081019061061c9190612b78565b9050610660858760038a8154811061064457634e487b7160e01b600052603260045260246000fd5b6000918252602090912001546001600160a01b031691906124c8565b60006003888154811061068357634e487b7160e01b600052603260045260246000fd5b6000918252602090912001546040516370a0823160e01b81523060048201526001600160a01b03909116906370a082319060240160206040518083038186803b1580156106cf57600080fd5b505afa1580156106e3573d6000803e3d6000fd5b505050506040513d601f19601f820116820180604052508101906107079190612b78565b90506107138188612530565b82146107615760405162461bcd60e51b815260206004820152601760248201527f77697468647261773a206e6f74206465666c6174696f6e0000000000000000006044820152606401610442565b856001600160a01b031688336001600160a01b03167f8166bf25f8a2b7ed3c85049207da4358d16edbed977d23fa2ee6f0dde3ec21328a6040516107a791815260200190565b60405180910390a4505060018055505050505050565b600281815481106107cd57600080fd5b6000918252602090912001546001600160801b03811691506001600160401b03600160801b8204811691600160c01b90041683565b600260015414156108255760405162461bcd60e51b815260040161044290612cfa565b6002600155610832610f53565b600061083d83610ff5565b6000848152600560209081526040808320338452909152812082518154939450909264e8d4a510009161087991906001600160801b0316612368565b6108839190612de4565b905060006108a66108a18460010154846123de90919063ffffffff16565b612589565b60018401839055905080156108e9576108e96001600160a01b037f00000000000000000000000000000000000000000000000000000000000000001686836124c8565b60006004878154811061090c57634e487b7160e01b600052603260045260246000fd5b6000918252602090912001546001600160a01b0316905080156109915783546040516321832ff960e21b81526001600160a01b0383169163860cbfe49161095e918b9133918c91899190600401612d31565b600060405180830381600087803b15801561097857600080fd5b505af115801561098c573d6000803e3d6000fd5b505050505b604051828152879033907f71bab65ced2e5750775a0613be067df48ef06cf92a496ebf7663ae06609249549060200160405180910390a35050600180555050505050565b6040516370a0823160e01b81523360048201526000906001600160a01b038316906370a082319060240160206040518083038186803b158015610a1757600080fd5b505afa158015610a2b573d6000803e3d6000fd5b505050506040513d601f19601f82011682018060405250810190610a4f9190612b78565b905080610aaa5760405162461bcd60e51b815260206004820152602360248201527f4d61737465724368656656323a2042616c616e6365206d75737420657863656560448201526206420360ec1b6064820152608401610442565b610abf6001600160a01b0383163330846125cd565b60405163095ea7b360e01b81526001600160a01b037f0000000000000000000000000000000000000000000000000000000000000000811660048301526024820183905283169063095ea7b390604401602060405180830381600087803b158015610b2957600080fd5b505af1158015610b3d573d6000803e3d6000fd5b505050506040513d601f19601f82011682018060405250810190610b619190612acb565b50604051631c57762b60e31b81527f00000000000000000000000000000000000000000000000000000000000000006004820152602481018290527f00000000000000000000000000000000000000000000000000000000000000006001600160a01b03169063e2bbb15890604401600060405180830381600087803b158015610bea57600080fd5b505af1158015610bfe573d6000803e3d6000fd5b50506040517f98a9bd3b7a617581fc53b1e2992534e0e0cb5091c9d44aa1a7fc978f706caa83925060009150a15050565b60026001541415610c525760405162461bcd60e51b815260040161044290612cfa565b60026001908155600083815260056020908152604080832033845290915281208054828255928101829055600480549193929186908110610ca357634e487b7160e01b600052603260045260246000fd5b6000918252602090912001546001600160a01b031690508015610d28576040516321832ff960e21b81526001600160a01b0382169063860cbfe490610cf5908890339089906000908190600401612d31565b600060405180830381600087803b158015610d0f57600080fd5b505af1158015610d23573d6000803e3d6000fd5b505050505b600060038681548110610d4b57634e487b7160e01b600052603260045260246000fd5b6000918252602090912001546040516370a0823160e01b81523060048201526001600160a01b03909116906370a082319060240160206040518083038186803b158015610d9757600080fd5b505afa158015610dab573d6000803e3d6000fd5b505050506040513d601f19601f82011682018060405250810190610dcf9190612b78565b9050610df785846003898154811061064457634e487b7160e01b600052603260045260246000fd5b600060038781548110610e1a57634e487b7160e01b600052603260045260246000fd5b6000918252602090912001546040516370a0823160e01b81523060048201526001600160a01b03909116906370a082319060240160206040518083038186803b158015610e6657600080fd5b505afa158015610e7a573d6000803e3d6000fd5b505050506040513d601f19601f82011682018060405250810190610e9e9190612b78565b9050610eaa8185612530565b8214610ef85760405162461bcd60e51b815260206004820181905260248201527f656d657267656e637957697468647261773a206e6f74206465666c6174696f6e6044820152606401610442565b856001600160a01b031687336001600160a01b03167f2cac5e20e1541d836381527a43f651851e302817b71dc8e810284e69210c1c6b87604051610f3e91815260200190565b60405180910390a45050600180555050505050565b604051631c57762b60e31b81527f00000000000000000000000000000000000000000000000000000000000000006004820152600060248201527f00000000000000000000000000000000000000000000000000000000000000006001600160a01b03169063e2bbb15890604401600060405180830381600087803b158015610fdb57600080fd5b505af1158015610fef573d6000803e3d6000fd5b50505050565b60408051606081018252600080825260208201819052918101919091526002828154811061103357634e487b7160e01b600052603260045260246000fd5b60009182526020918290206040805160608101825292909101546001600160801b03811683526001600160401b03600160801b82048116948401859052600160c01b909104169082015291504311156112c1576000600383815481106110a957634e487b7160e01b600052603260045260246000fd5b6000918252602090912001546040516370a0823160e01b81523060048201526001600160a01b03909116906370a082319060240160206040518083038186803b1580156110f557600080fd5b505afa158015611109573d6000803e3d6000fd5b505050506040513d601f19601f8201168201806040525081019061112d9190612b78565b905080156111d757600061115783602001516001600160401b03164361247290919063ffffffff16565b9050600060065461118785604001516001600160401b031661118161117a611312565b8690612368565b90612368565b6111919190612de4565b90506111c96111b8846111a98464e8d4a51000612368565b6111b39190612de4565b612605565b85516001600160801b03169061265e565b6001600160801b0316845250505b6111e0436126c9565b6001600160401b03166020830152600280548391908590811061121357634e487b7160e01b600052603260045260246000fd5b6000918252602091829020835191018054848401516040958601516001600160401b03908116600160c01b026001600160c01b03928216600160801b026001600160c01b03199094166001600160801b039687161793909317919091169190911790915585830151865185519190921681529283018590521681830152905184917f0fc9545022a542541ad085d091fb09a2ab36fee366a4576ab63714ea907ad353919081900360600190a2505b919050565b8060005b81811015610fef576113018484838181106112f557634e487b7160e01b600052603260045260246000fd5b90506020020135610ff5565b5061130b81612ea5565b90506112ca565b60007f00000000000000000000000000000000000000000000000000000000000000006001600160a01b03166317caf6f16040518163ffffffff1660e01b815260040160206040518083038186803b15801561136d57600080fd5b505afa158015611381573d6000803e3d6000fd5b505050506040513d601f19601f820116820180604052508101906113a59190612b78565b604051631526fe2760e01b81527f000000000000000000000000000000000000000000000000000000000000000060048201526114f5907f00000000000000000000000000000000000000000000000000000000000000006001600160a01b031690631526fe279060240160806040518083038186803b15801561142857600080fd5b505afa15801561143c573d6000803e3d6000fd5b505050506040513d601f19601f820116820180604052508101906114609190612ae7565b602001517f00000000000000000000000000000000000000000000000000000000000000006001600160a01b031663662b5fbe6040518163ffffffff1660e01b815260040160206040518083038186803b1580156114bd57600080fd5b505afa1580156114d1573d6000803e3d6000fd5b505050506040513d601f19601f820116820180604052508101906111819190612b78565b6114ff9190612de4565b905090565b6000546001600160a01b0316331461152e5760405162461bcd60e51b815260040161044290612cc5565b6115386000612722565b565b6003818154811061154a57600080fd5b6000918252602090912001546001600160a01b0316905081565b6000546001600160a01b0316331461158e5760405162461bcd60e51b815260040161044290612cc5565b6115e1836115db600287815481106115b657634e487b7160e01b600052603260045260246000fd5b60009182526020909120015460065490600160c01b90046001600160401b0316612472565b90612530565b6006556115ed836126c9565b6002858154811061160e57634e487b7160e01b600052603260045260246000fd5b9060005260206000200160000160186101000a8154816001600160401b0302191690836001600160401b03160217905550801561169657816004858154811061166757634e487b7160e01b600052603260045260246000fd5b9060005260206000200160006101000a8154816001600160a01b0302191690836001600160a01b031602179055505b806116d657600484815481106116bc57634e487b7160e01b600052603260045260246000fd5b6000918252602090912001546001600160a01b03166116d8565b815b6001600160a01b0316847f95895a6ab1df54420d241b55243258a33e61b2194db66c1179ec521aae8e1865858460405161171e9291909182521515602082015260400190565b60405180910390a350505050565b6002600154141561174f5760405162461bcd60e51b815260040161044290612cfa565b600260015561175c610f53565b600061176784610ff5565b60008581526005602090815260408083206001600160a01b038716845290915290208054919250906117999085612530565b815581516117d19064e8d4a51000906117bc9087906001600160801b0316612368565b6117c69190612de4565b600183015490612772565b81600101819055506000600486815481106117fc57634e487b7160e01b600052603260045260246000fd5b6000918252602090912001546001600160a01b0316905080156118825781546040516321832ff960e21b81526001600160a01b0383169163860cbfe49161184f918a918991829160009190600401612d31565b600060405180830381600087803b15801561186957600080fd5b505af115801561187d573d6000803e3d6000fd5b505050505b6000600387815481106118a557634e487b7160e01b600052603260045260246000fd5b6000918252602090912001546040516370a0823160e01b81523060048201526001600160a01b03909116906370a082319060240160206040518083038186803b1580156118f157600080fd5b505afa158015611905573d6000803e3d6000fd5b505050506040513d601f19601f820116820180604052508101906119299190612b78565b905061196f33308860038b8154811061195257634e487b7160e01b600052603260045260246000fd5b6000918252602090912001546001600160a01b03169291906125cd565b60006003888154811061199257634e487b7160e01b600052603260045260246000fd5b6000918252602090912001546040516370a0823160e01b81523060048201526001600160a01b03909116906370a082319060240160206040518083038186803b1580156119de57600080fd5b505afa1580156119f2573d6000803e3d6000fd5b505050506040513d601f19601f82011682018060405250810190611a169190612b78565b9050611a228188612530565b8214611a695760405162461bcd60e51b81526020600482015260166024820152753232b837b9b4ba1d103737ba103232b33630ba34b7b760511b6044820152606401610442565b856001600160a01b031688336001600160a01b03167f02d7e648dd130fc184d383e55bb126ac4c9c60e8f94bf05acdf557ba2d540b478a6040516107a791815260200190565b6000546001600160a01b03163314611ad95760405162461bcd60e51b815260040161044290612cc5565b6006544390611ae89085612530565b6006556003805460018181019092557fc2575a0e9e593c00f959f8c92f12db2869c3395a3b0502d05e2516446f71f85b0180546001600160a01b038087166001600160a01b03199283161790925560048054938401815560009081527f8a35acfbc15ff81a39ae7d344fd709f28e8600b4aa8c65c6b64bfe7fe36bd19b909301805492861692909116919091179055604080516060810190915290815260029060208101611b95846126c9565b6001600160401b03168152602001611bac876126c9565b6001600160401b039081169091528254600181810185556000948552602094859020845192018054958501516040909501518416600160c01b026001600160c01b0395909416600160801b026001600160c01b03199096166001600160801b039093169290921794909417929092161790556003546001600160a01b038085169290861691611c3a91612472565b6040518781527f81ee0f8c5c46e2cb41984886f77a84181724abb86c32a5f6de539b07509d45e59060200160405180910390a450505050565b6004818154811061154a57600080fd5b60026001541415611ca65760405162461bcd60e51b815260040161044290612cfa565b6002600155611cb3610f53565b6000611cbe84610ff5565b6000858152600560209081526040808320338452909152812082518154939450909264e8d4a5100091611cfa91906001600160801b0316612368565b611d049190612de4565b90506000611d226108a18460010154846123de90919063ffffffff16565b9050611d5e64e8d4a51000611d4d86600001516001600160801b03168961236890919063ffffffff16565b611d579190612de4565b83906123de565b60018401558254611d6f9087612472565b8355611da56001600160a01b037f00000000000000000000000000000000000000000000000000000000000000001686836124c8565b600060048881548110611dc857634e487b7160e01b600052603260045260246000fd5b6000918252602090912001546001600160a01b031690508015611e4d5783546040516321832ff960e21b81526001600160a01b0383169163860cbfe491611e1a918c9133918c91899190600401612d31565b600060405180830381600087803b158015611e3457600080fd5b505af1158015611e48573d6000803e3d6000fd5b505050505b600060038981548110611e7057634e487b7160e01b600052603260045260246000fd5b6000918252602090912001546040516370a0823160e01b81523060048201526001600160a01b03909116906370a082319060240160206040518083038186803b158015611ebc57600080fd5b505afa158015611ed0573d6000803e3d6000fd5b505050506040513d601f19601f82011682018060405250810190611ef49190612b78565b9050611f1c878960038c8154811061064457634e487b7160e01b600052603260045260246000fd5b600060038a81548110611f3f57634e487b7160e01b600052603260045260246000fd5b6000918252602090912001546040516370a0823160e01b81523060048201526001600160a01b03909116906370a082319060240160206040518083038186803b158015611f8b57600080fd5b505afa158015611f9f573d6000803e3d6000fd5b505050506040513d601f19601f82011682018060405250810190611fc39190612b78565b9050611fcf818a612530565b82146120275760405162461bcd60e51b815260206004820152602160248201527f7769746864726177416e64486172766573743a206e6f74206465666c6174696f6044820152603760f91b6064820152608401610442565b876001600160a01b03168a336001600160a01b03167f8166bf25f8a2b7ed3c85049207da4358d16edbed977d23fa2ee6f0dde3ec21328c60405161206d91815260200190565b60405180910390a46040518481528a9033907f71bab65ced2e5750775a0613be067df48ef06cf92a496ebf7663ae06609249549060200160405180910390a35050600180555050505050505050565b600080600284815481106120e057634e487b7160e01b600052603260045260246000fd5b600091825260208083206040805160608101825291909301546001600160801b0380821683526001600160401b03600160801b8304811684860152600160c01b90920490911682850152888552600583528385206001600160a01b038916865290925291832082516003805494965091949216928890811061217257634e487b7160e01b600052603260045260246000fd5b6000918252602090912001546040516370a0823160e01b81523060048201526001600160a01b03909116906370a082319060240160206040518083038186803b1580156121be57600080fd5b505afa1580156121d2573d6000803e3d6000fd5b505050506040513d601f19601f820116820180604052508101906121f69190612b78565b905083602001516001600160401b03164311801561221357508015155b1561229257600061223a85602001516001600160401b03164361247290919063ffffffff16565b9050600060065461225d87604001516001600160401b031661118161117a611312565b6122679190612de4565b905061228d8361227c8364e8d4a51000612368565b6122869190612de4565b8590612530565b935050505b600183015483546122c2916108a19164e8d4a51000906122b29087612368565b6122bc9190612de4565b906123de565b979650505050505050565b6000546001600160a01b031633146122f75760405162461bcd60e51b815260040161044290612cc5565b6001600160a01b03811661235c5760405162461bcd60e51b815260206004820152602660248201527f4f776e61626c653a206e6577206f776e657220697320746865207a65726f206160448201526564647265737360d01b6064820152608401610442565b61236581612722565b50565b600081158061238c5750828261237e8183612e04565b925061238a9083612de4565b145b6123d85760405162461bcd60e51b815260206004820152601860248201527f426f72696e674d6174683a204d756c204f766572666c6f7700000000000000006044820152606401610442565b92915050565b6000806123eb8385612e23565b9050600083121580156123fe5750838113155b80612413575060008312801561241357508381135b61246b5760405162461bcd60e51b8152602060048201526024808201527f5369676e6564536166654d6174683a207375627472616374696f6e206f766572604482015263666c6f7760e01b6064820152608401610442565b9392505050565b60008261247f8382612e62565b91508111156123d85760405162461bcd60e51b8152602060048201526015602482015274426f72696e674d6174683a20556e646572666c6f7760581b6044820152606401610442565b6040516001600160a01b03831660248201526044810182905261252b90849063a9059cbb60e01b906064015b60408051601f198184030181529190526020810180516001600160e01b03166001600160e01b0319909316929092179091526127fd565b505050565b60008161253d8185612dcc565b91508110156123d85760405162461bcd60e51b8152602060048201526018602482015277426f72696e674d6174683a20416464204f766572666c6f7760401b6044820152606401610442565b6000808212156125c95760405162461bcd60e51b815260206004820152600b60248201526a0496e7465676572203c20360ac1b6044820152606401610442565b5090565b6040516001600160a01b0380851660248301528316604482015260648101829052610fef9085906323b872dd60e01b906084016124f4565b60006001600160801b038211156125c95760405162461bcd60e51b815260206004820152601c60248201527f426f72696e674d6174683a2075696e74313238204f766572666c6f77000000006044820152606401610442565b60006001600160801b0382166126748385612da1565b9150816001600160801b031610156123d85760405162461bcd60e51b8152602060048201526018602482015277426f72696e674d6174683a20416464204f766572666c6f7760401b6044820152606401610442565b60006001600160401b038211156125c95760405162461bcd60e51b815260206004820152601b60248201527f426f72696e674d6174683a2075696e743634204f766572666c6f7700000000006044820152606401610442565b600080546001600160a01b038381166001600160a01b0319831681178455604051919092169283917f8be0079c531659141344cd1fd0a4f28419497f9722a3daafe3b4186f6b6457e09190a35050565b60008061277f8385612d60565b9050600083121580156127925750838112155b806127a757506000831280156127a757508381125b61246b5760405162461bcd60e51b815260206004820152602160248201527f5369676e6564536166654d6174683a206164646974696f6e206f766572666c6f6044820152607760f81b6064820152608401610442565b6000612852826040518060400160405280602081526020017f5361666545524332303a206c6f772d6c6576656c2063616c6c206661696c6564815250856001600160a01b03166128cf9092919063ffffffff16565b80519091501561252b57808060200190518101906128709190612acb565b61252b5760405162461bcd60e51b815260206004820152602a60248201527f5361666545524332303a204552433230206f7065726174696f6e20646964206e6044820152691bdd081cdd58d8d9595960b21b6064820152608401610442565b60606128de84846000856128e6565b949350505050565b6060824710156129475760405162461bcd60e51b815260206004820152602660248201527f416464726573733a20696e73756666696369656e742062616c616e636520666f6044820152651c8818d85b1b60d21b6064820152608401610442565b6001600160a01b0385163b61299e5760405162461bcd60e51b815260206004820152601d60248201527f416464726573733a2063616c6c20746f206e6f6e2d636f6e74726163740000006044820152606401610442565b600080866001600160a01b031685876040516129ba9190612c76565b60006040518083038185875af1925050503d80600081146129f7576040519150601f19603f3d011682016040523d82523d6000602084013e6129fc565b606091505b50915091506122c282828660608315612a1657508161246b565b825115612a265782518084602001fd5b8160405162461bcd60e51b81526004016104429190612c92565b600060208284031215612a51578081fd5b813561246b81612ed6565b60008060208385031215612a6e578081fd5b82356001600160401b0380821115612a84578283fd5b818501915085601f830112612a97578283fd5b813581811115612aa5578384fd5b8660208260051b8501011115612ab9578384fd5b60209290920196919550909350505050565b600060208284031215612adc578081fd5b815161246b81612eeb565b600060808284031215612af8578081fd5b604051608081018181106001600160401b0382111715612b2657634e487b7160e01b83526041600452602483fd5b6040528251612b3481612ed6565b808252506020830151602082015260408301516040820152606083015160608201528091505092915050565b600060208284031215612b71578081fd5b5035919050565b600060208284031215612b89578081fd5b5051919050565b60008060408385031215612ba2578182fd5b823591506020830135612bb481612ed6565b809150509250929050565b600080600060608486031215612bd3578081fd5b833592506020840135612be581612ed6565b91506040840135612bf581612ed6565b809150509250925092565b600080600060608486031215612c14578283fd5b83359250602084013591506040840135612bf581612ed6565b60008060008060808587031215612c42578081fd5b84359350602085013592506040850135612c5b81612ed6565b91506060850135612c6b81612eeb565b939692955090935050565b60008251612c88818460208701612e79565b9190910192915050565b6020815260008251806020840152612cb1816040850160208701612e79565b601f01601f19169190910160400192915050565b6020808252818101527f4f776e61626c653a2063616c6c6572206973206e6f7420746865206f776e6572604082015260600190565b6020808252601f908201527f5265656e7472616e637947756172643a207265656e7472616e742063616c6c00604082015260600190565b9485526001600160a01b0393841660208601529190921660408401526060830191909152608082015260a00190565b600080821280156001600160ff1b0384900385131615612d8257612d82612ec0565b600160ff1b8390038412811615612d9b57612d9b612ec0565b50500190565b60006001600160801b03808316818516808303821115612dc357612dc3612ec0565b01949350505050565b60008219821115612ddf57612ddf612ec0565b500190565b600082612dff57634e487b7160e01b81526012600452602481fd5b500490565b6000816000190483118215151615612e1e57612e1e612ec0565b500290565b60008083128015600160ff1b850184121615612e4157612e41612ec0565b6001600160ff1b0384018313811615612e5c57612e5c612ec0565b50500390565b600082821015612e7457612e74612ec0565b500390565b60005b83811015612e94578181015183820152602001612e7c565b83811115610fef5750506000910152565b6000600019821415612eb957612eb9612ec0565b5060010190565b634e487b7160e01b600052601160045260246000fd5b6001600160a01b038116811461236557600080fd5b801515811461236557600080fdfea264697066735822122047f2905f99a83d641fb5808317f424025a01d993b71a106a9b68ffa25374e63b64736f6c63430008040033",
  "linkReferences": {},
  "deployedLinkReferences": {}
}