{
  "_format": "hh-sol-artifact-1",
  "contractName": "KaidexMasterChefV2",
  "sourceName": "contracts/farming/KaidexMasterChefV2.sol",
  "abi": [
    {
      "inputs": [
        {
          "internalType": "contract IMasterChef",
          "name": "_MASTER_CHEF",
          "type": "address"
        },
        {
          "internalType": "contract IERC20",
          "name": "_kdx",
          "type": "address"
        },
        {
          "internalType": "uint256",
          "name": "_MASTER_PID",
          "type": "uint256"
        }
      ],
      "stateMutability": "nonpayable",
      "type": "constructor"
    },
    {
      "anonymous": false,
      "inputs": [
        {
          "indexed": true,
          "internalType": "address",
          "name": "user",
          "type": "address"
        },
        {
          "indexed": true,
          "internalType": "uint256",
          "name": "pid",
          "type": "uint256"
        },
        {
          "indexed": false,
          "internalType": "uint256",
          "name": "amount",
          "type": "uint256"
        },
        {
          "indexed": true,
          "internalType": "address",
          "name": "to",
          "type": "address"
        }
      ],
      "name": "Deposit",
      "type": "event"
    },
    {
      "anonymous": false,
      "inputs": [
        {
          "indexed": true,
          "internalType": "address",
          "name": "user",
          "type": "address"
        },
        {
          "indexed": true,
          "internalType": "uint256",
          "name": "pid",
          "type": "uint256"
        },
        {
          "indexed": false,
          "internalType": "uint256",
          "name": "amount",
          "type": "uint256"
        },
        {
          "indexed": true,
          "internalType": "address",
          "name": "to",
          "type": "address"
        }
      ],
      "name": "EmergencyWithdraw",
      "type": "event"
    },
    {
      "anonymous": false,
      "inputs": [
        {
          "indexed": true,
          "internalType": "address",
          "name": "user",
          "type": "address"
        },
        {
          "indexed": true,
          "internalType": "uint256",
          "name": "pid",
          "type": "uint256"
        },
        {
          "indexed": false,
          "internalType": "uint256",
          "name": "amount",
          "type": "uint256"
        }
      ],
      "name": "Harvest",
      "type": "event"
    },
    {
      "anonymous": false,
      "inputs": [],
      "name": "LogInit",
      "type": "event"
    },
    {
      "anonymous": false,
      "inputs": [
        {
          "indexed": true,
          "internalType": "uint256",
          "name": "pid",
          "type": "uint256"
        },
        {
          "indexed": false,
          "internalType": "uint256",
          "name": "allocPoint",
          "type": "uint256"
        },
        {
          "indexed": true,
          "internalType": "contract IERC20",
          "name": "lpToken",
          "type": "address"
        },
        {
          "indexed": true,
          "internalType": "contract IRewarder",
          "name": "rewarder",
          "type": "address"
        }
      ],
      "name": "LogPoolAddition",
      "type": "event"
    },
    {
      "anonymous": false,
      "inputs": [
        {
          "indexed": true,
          "internalType": "uint256",
          "name": "pid",
          "type": "uint256"
        },
        {
          "indexed": false,
          "internalType": "uint256",
          "name": "allocPoint",
          "type": "uint256"
        },
        {
          "indexed": true,
          "internalType": "contract IRewarder",
          "name": "rewarder",
          "type": "address"
        },
        {
          "indexed": false,
          "internalType": "bool",
          "name": "overwrite",
          "type": "bool"
        }
      ],
      "name": "LogSetPool",
      "type": "event"
    },
    {
      "anonymous": false,
      "inputs": [
        {
          "indexed": true,
          "internalType": "uint256",
          "name": "pid",
          "type": "uint256"
        },
        {
          "indexed": false,
          "internalType": "uint64",
          "name": "lastRewardBlock",
          "type": "uint64"
        },
        {
          "indexed": false,
          "internalType": "uint256",
          "name": "lpSupply",
          "type": "uint256"
        },
        {
          "indexed": false,
          "internalType": "uint256",
          "name": "accKdxPerShare",
          "type": "uint256"
        }
      ],
      "name": "LogUpdatePool",
      "type": "event"
    },
    {
      "anonymous": false,
      "inputs": [
        {
          "indexed": true,
          "internalType": "address",
          "name": "previousOwner",
          "type": "address"
        },
        {
          "indexed": true,
          "internalType": "address",
          "name": "newOwner",
          "type": "address"
        }
      ],
      "name": "OwnershipTransferred",
      "type": "event"
    },
    {
      "anonymous": false,
      "inputs": [
        {
          "indexed": true,
          "internalType": "address",
          "name": "user",
          "type": "address"
        },
        {
          "indexed": true,
          "internalType": "uint256",
          "name": "pid",
          "type": "uint256"
        },
        {
          "indexed": false,
          "internalType": "uint256",
          "name": "amount",
          "type": "uint256"
        },
        {
          "indexed": true,
          "internalType": "address",
          "name": "to",
          "type": "address"
        }
      ],
      "name": "Withdraw",
      "type": "event"
    },
    {
      "inputs": [],
      "name": "KDX",
      "outputs": [
        {
          "internalType": "contract IERC20",
          "name": "",
          "type": "address"
        }
      ],
      "stateMutability": "view",
      "type": "function"
    },
    {
      "inputs": [],
      "name": "MASTER_CHEF",
      "outputs": [
        {
          "internalType": "contract IMasterChef",
          "name": "",
          "type": "address"
        }
      ],
      "stateMutability": "view",
      "type": "function"
    },
    {
      "inputs": [],
      "name": "MASTER_PID",
      "outputs": [
        {
          "internalType": "uint256",
          "name": "",
          "type": "uint256"
        }
      ],
      "stateMutability": "view",
      "type": "function"
    },
    {
      "inputs": [
        {
          "internalType": "uint256",
          "name": "allocPoint",
          "type": "uint256"
        },
        {
          "internalType": "contract IERC20",
          "name": "_lpToken",
          "type": "address"
        },
        {
          "internalType": "contract IRewarder",
          "name": "_rewarder",
          "type": "address"
        }
      ],
      "name": "add",
      "outputs": [],
      "stateMutability": "nonpayable",
      "type": "function"
    },
    {
      "inputs": [
        {
          "internalType": "uint256",
          "name": "pid",
          "type": "uint256"
        },
        {
          "internalType": "uint256",
          "name": "amount",
          "type": "uint256"
        },
        {
          "internalType": "address",
          "name": "to",
          "type": "address"
        }
      ],
      "name": "deposit",
      "outputs": [],
      "stateMutability": "nonpayable",
      "type": "function"
    },
    {
      "inputs": [
        {
          "internalType": "uint256",
          "name": "pid",
          "type": "uint256"
        },
        {
          "internalType": "address",
          "name": "to",
          "type": "address"
        }
      ],
      "name": "emergencyWithdraw",
      "outputs": [],
      "stateMutability": "nonpayable",
      "type": "function"
    },
    {
      "inputs": [
        {
          "internalType": "uint256",
          "name": "pid",
          "type": "uint256"
        }
      ],
      "name": "getTotalDepositAmount",
      "outputs": [
        {
          "internalType": "uint256",
          "name": "",
          "type": "uint256"
        }
      ],
      "stateMutability": "view",
      "type": "function"
    },
    {
      "inputs": [
        {
          "internalType": "uint256",
          "name": "pid",
          "type": "uint256"
        },
        {
          "internalType": "address",
          "name": "to",
          "type": "address"
        }
      ],
      "name": "harvest",
      "outputs": [],
      "stateMutability": "nonpayable",
      "type": "function"
    },
    {
      "inputs": [],
      "name": "harvestFromMasterChef",
      "outputs": [],
      "stateMutability": "nonpayable",
      "type": "function"
    },
    {
      "inputs": [
        {
          "internalType": "contract IERC20",
          "name": "dummyToken",
          "type": "address"
        }
      ],
      "name": "init",
      "outputs": [],
      "stateMutability": "nonpayable",
      "type": "function"
    },
    {
      "inputs": [],
      "name": "kdxPerBlock",
      "outputs": [
        {
          "internalType": "uint256",
          "name": "amount",
          "type": "uint256"
        }
      ],
      "stateMutability": "view",
      "type": "function"
    },
    {
      "inputs": [
        {
          "internalType": "uint256",
          "name": "",
          "type": "uint256"
        }
      ],
      "name": "lpToken",
      "outputs": [
        {
          "internalType": "contract IERC20",
          "name": "",
          "type": "address"
        }
      ],
      "stateMutability": "view",
      "type": "function"
    },
    {
      "inputs": [
        {
          "internalType": "uint256[]",
          "name": "pids",
          "type": "uint256[]"
        }
      ],
      "name": "massUpdatePools",
      "outputs": [],
      "stateMutability": "nonpayable",
      "type": "function"
    },
    {
      "inputs": [],
      "name": "owner",
      "outputs": [
        {
          "internalType": "address",
          "name": "",
          "type": "address"
        }
      ],
      "stateMutability": "view",
      "type": "function"
    },
    {
      "inputs": [
        {
          "internalType": "uint256",
          "name": "_pid",
          "type": "uint256"
        },
        {
          "internalType": "address",
          "name": "_user",
          "type": "address"
        }
      ],
      "name": "pendingKDX",
      "outputs": [
        {
          "internalType": "uint256",
          "name": "pending",
          "type": "uint256"
        }
      ],
      "stateMutability": "view",
      "type": "function"
    },
    {
      "inputs": [
        {
          "internalType": "uint256",
          "name": "",
          "type": "uint256"
        }
      ],
      "name": "poolInfo",
      "outputs": [
        {
          "internalType": "uint128",
          "name": "accKdxPerShare",
          "type": "uint128"
        },
        {
          "internalType": "uint64",
          "name": "lastRewardBlock",
          "type": "uint64"
        },
        {
          "internalType": "uint64",
          "name": "allocPoint",
          "type": "uint64"
        },
        {
          "internalType": "uint256",
          "name": "totalAmount",
          "type": "uint256"
        }
      ],
      "stateMutability": "view",
      "type": "function"
    },
    {
      "inputs": [],
      "name": "poolLength",
      "outputs": [
        {
          "internalType": "uint256",
          "name": "pools",
          "type": "uint256"
        }
      ],
      "stateMutability": "view",
      "type": "function"
    },
    {
      "inputs": [],
      "name": "renounceOwnership",
      "outputs": [],
      "stateMutability": "nonpayable",
      "type": "function"
    },
    {
      "inputs": [
        {
          "internalType": "uint256",
          "name": "",
          "type": "uint256"
        }
      ],
      "name": "rewarder",
      "outputs": [
        {
          "internalType": "contract IRewarder",
          "name": "",
          "type": "address"
        }
      ],
      "stateMutability": "view",
      "type": "function"
    },
    {
      "inputs": [
        {
          "internalType": "uint256",
          "name": "_pid",
          "type": "uint256"
        },
        {
          "internalType": "uint256",
          "name": "_allocPoint",
          "type": "uint256"
        },
        {
          "internalType": "contract IRewarder",
          "name": "_rewarder",
          "type": "address"
        },
        {
          "internalType": "bool",
          "name": "overwrite",
          "type": "bool"
        }
      ],
      "name": "set",
      "outputs": [],
      "stateMutability": "nonpayable",
      "type": "function"
    },
    {
      "inputs": [],
      "name": "totalAllocPoint",
      "outputs": [
        {
          "internalType": "uint256",
          "name": "",
          "type": "uint256"
        }
      ],
      "stateMutability": "view",
      "type": "function"
    },
    {
      "inputs": [
        {
          "internalType": "address",
          "name": "newOwner",
          "type": "address"
        }
      ],
      "name": "transferOwnership",
      "outputs": [],
      "stateMutability": "nonpayable",
      "type": "function"
    },
    {
      "inputs": [
        {
          "internalType": "uint256",
          "name": "pid",
          "type": "uint256"
        }
      ],
      "name": "updatePool",
      "outputs": [
        {
          "components": [
            {
              "internalType": "uint128",
              "name": "accKdxPerShare",
              "type": "uint128"
            },
            {
              "internalType": "uint64",
              "name": "lastRewardBlock",
              "type": "uint64"
            },
            {
              "internalType": "uint64",
              "name": "allocPoint",
              "type": "uint64"
            },
            {
              "internalType": "uint256",
              "name": "totalAmount",
              "type": "uint256"
            }
          ],
          "internalType": "struct KaidexMasterChefV2.PoolInfo",
          "name": "pool",
          "type": "tuple"
        }
      ],
      "stateMutability": "nonpayable",
      "type": "function"
    },
    {
      "inputs": [
        {
          "internalType": "uint256",
          "name": "",
          "type": "uint256"
        },
        {
          "internalType": "address",
          "name": "",
          "type": "address"
        }
      ],
      "name": "userInfo",
      "outputs": [
        {
          "internalType": "uint256",
          "name": "amount",
          "type": "uint256"
        },
        {
          "internalType": "int256",
          "name": "rewardDebt",
          "type": "int256"
        }
      ],
      "stateMutability": "view",
      "type": "function"
    },
    {
      "inputs": [
        {
          "internalType": "uint256",
          "name": "pid",
          "type": "uint256"
        },
        {
          "internalType": "uint256",
          "name": "amount",
          "type": "uint256"
        },
        {
          "internalType": "address",
          "name": "to",
          "type": "address"
        }
      ],
      "name": "withdraw",
      "outputs": [],
      "stateMutability": "nonpayable",
      "type": "function"
    },
    {
      "inputs": [
        {
          "internalType": "uint256",
          "name": "pid",
          "type": "uint256"
        },
        {
          "internalType": "uint256",
          "name": "amount",
          "type": "uint256"
        },
        {
          "internalType": "address",
          "name": "to",
          "type": "address"
        }
      ],
      "name": "withdrawAndHarvest",
      "outputs": [],
      "stateMutability": "nonpayable",
      "type": "function"
    }
  ],
  "bytecode": "0x60e06040523480156200001157600080fd5b5060405162003351380380620033518339810160408190526200003491620000b7565b6200003f3362000067565b600180556001600160601b0319606093841b81166080529190921b1660a05260c05262000117565b600080546001600160a01b038381166001600160a01b0319831681178455604051919092169283917f8be0079c531659141344cd1fd0a4f28419497f9722a3daafe3b4186f6b6457e09190a35050565b600080600060608486031215620000cc578283fd5b8351620000d981620000fe565b6020850151909350620000ec81620000fe565b80925050604084015190509250925092565b6001600160a01b03811681146200011457600080fd5b50565b60805160601c60a05160601c60c0516131b76200019a600039600081816102c801528181610c3d0152818161108901526115030152600081816103bb0152818161098e0152611f9c01526000818161042e01528181610ba201528181610c6a015281816110b6015281816114650152818161152d01526115b501526131b76000f3fe608060405234801561001057600080fd5b506004361061018e5760003560e01c806378ed5d1f116100de5780639dd0249411610097578063d1abb90711610071578063d1abb90714610403578063dadf214414610416578063edd8b17014610429578063f2fde38b1461045057600080fd5b80639dd02494146103b6578063ab7de098146103dd578063c346253d146103f057600080fd5b806378ed5d1f146102fa57806388bba42f146103255780638da5cb5b146103385780638dbdbe6d146103495780638e2e27231461035c57806393f1a40b1461036f57600080fd5b80632f940c701161014b57806357a5b58c1161012557806357a5b58c146102b057806361621aaa146102c3578063662b5fbe146102ea578063715018a6146102f257600080fd5b80632f940c70146102385780634f70b15a1461024b57806351eb05a61461025357600080fd5b8063081e3eda146101935780630ad58d2f146101aa5780631526fe27146101bf57806317caf6f11461020957806318fccc761461021257806319ab453c14610225575b600080fd5b6002545b6040519081526020015b60405180910390f35b6101bd6101b8366004612e88565b610463565b005b6101d26101cd366004612de8565b61087c565b604080516001600160801b039590951685526001600160401b039384166020860152919092169083015260608201526080016101a1565b61019760065481565b6101bd610220366004612e18565b6108ce565b6101bd610233366004612cc8565b610aa1565b6101bd610246366004612e18565b610cfb565b6101bd61107a565b610266610261366004612de8565b61111c565b6040805182516001600160801b031681526020808401516001600160401b0390811691830191909152838301511691810191909152606091820151918101919091526080016101a1565b6101bd6102be366004612ce4565b611415565b6101977f000000000000000000000000000000000000000000000000000000000000000081565b610197611461565b6101bd611653565b61030d610308366004612de8565b611689565b6040516001600160a01b0390911681526020016101a1565b6101bd610333366004612eb5565b6116b3565b6000546001600160a01b031661030d565b6101bd610357366004612e88565b611884565b61019761036a366004612de8565b611c82565b6103a161037d366004612e18565b60056020908152600092835260408084209091529082529020805460019091015482565b604080519283526020830191909152016101a1565b61030d7f000000000000000000000000000000000000000000000000000000000000000081565b6101bd6103eb366004612e47565b611cbe565b61030d6103fe366004612de8565b611e91565b6101bd610411366004612e88565b611ea1565b610197610424366004612e18565b612335565b61030d7f000000000000000000000000000000000000000000000000000000000000000081565b6101bd61045e366004612cc8565b612555565b6002600154141561048f5760405162461bcd60e51b815260040161048690612f82565b60405180910390fd5b600260015561049c61107a565b60006104a78461111c565b600085815260056020908152604080832033845290915290208151919250906104fa9064e8d4a51000906104e59087906001600160801b03166125f0565b6104ef919061306c565b600183015490612666565b6001820155805461050b90856126fa565b815560048054600091908790811061053357634e487b7160e01b600052603260045260246000fd5b6000918252602090912001546001600160a01b0316905080156105b95781546040516321832ff960e21b81526001600160a01b0383169163860cbfe491610586918a9133918a9160009190600401612fb9565b600060405180830381600087803b1580156105a057600080fd5b505af11580156105b4573d6000803e3d6000fd5b505050505b6000600387815481106105dc57634e487b7160e01b600052603260045260246000fd5b6000918252602090912001546040516370a0823160e01b81523060048201526001600160a01b03909116906370a082319060240160206040518083038186803b15801561062857600080fd5b505afa15801561063c573d6000803e3d6000fd5b505050506040513d601f19601f820116820180604052508101906106609190612e00565b90506106a4858760038a8154811061068857634e487b7160e01b600052603260045260246000fd5b6000918252602090912001546001600160a01b03169190612750565b6000600388815481106106c757634e487b7160e01b600052603260045260246000fd5b6000918252602090912001546040516370a0823160e01b81523060048201526001600160a01b03909116906370a082319060240160206040518083038186803b15801561071357600080fd5b505afa158015610727573d6000803e3d6000fd5b505050506040513d601f19601f8201168201806040525081019061074b9190612e00565b905061075781886127b8565b82146107a55760405162461bcd60e51b815260206004820152601760248201527f77697468647261773a206e6f74206465666c6174696f6e0000000000000000006044820152606401610486565b6107ea8760028a815481106107ca57634e487b7160e01b600052603260045260246000fd5b9060005260206000209060020201600101546126fa90919063ffffffff16565b6002898154811061080b57634e487b7160e01b600052603260045260246000fd5b906000526020600020906002020160010181905550856001600160a01b031688336001600160a01b03167f8166bf25f8a2b7ed3c85049207da4358d16edbed977d23fa2ee6f0dde3ec21328a60405161086691815260200190565b60405180910390a4505060018055505050505050565b6002818154811061088c57600080fd5b6000918252602090912060029091020180546001909101546001600160801b03821692506001600160401b03600160801b8304811692600160c01b9004169084565b600260015414156108f15760405162461bcd60e51b815260040161048690612f82565b60026001556108fe61107a565b60006109098361111c565b6000848152600560209081526040808320338452909152812082518154939450909264e8d4a510009161094591906001600160801b03166125f0565b61094f919061306c565b9050600061097261096d84600101548461266690919063ffffffff16565b612811565b60018401839055905080156109b5576109b56001600160a01b037f0000000000000000000000000000000000000000000000000000000000000000168683612750565b6000600487815481106109d857634e487b7160e01b600052603260045260246000fd5b6000918252602090912001546001600160a01b031690508015610a5d5783546040516321832ff960e21b81526001600160a01b0383169163860cbfe491610a2a918b9133918c91899190600401612fb9565b600060405180830381600087803b158015610a4457600080fd5b505af1158015610a58573d6000803e3d6000fd5b505050505b604051828152879033907f71bab65ced2e5750775a0613be067df48ef06cf92a496ebf7663ae06609249549060200160405180910390a35050600180555050505050565b6040516370a0823160e01b81523360048201526000906001600160a01b038316906370a082319060240160206040518083038186803b158015610ae357600080fd5b505afa158015610af7573d6000803e3d6000fd5b505050506040513d601f19601f82011682018060405250810190610b1b9190612e00565b905080610b765760405162461bcd60e51b815260206004820152602360248201527f4d61737465724368656656323a2042616c616e6365206d75737420657863656560448201526206420360ec1b6064820152608401610486565b610b8b6001600160a01b038316333084612855565b60405163095ea7b360e01b81526001600160a01b037f0000000000000000000000000000000000000000000000000000000000000000811660048301526024820183905283169063095ea7b390604401602060405180830381600087803b158015610bf557600080fd5b505af1158015610c09573d6000803e3d6000fd5b505050506040513d601f19601f82011682018060405250810190610c2d9190612d53565b50604051631c57762b60e31b81527f00000000000000000000000000000000000000000000000000000000000000006004820152602481018290527f00000000000000000000000000000000000000000000000000000000000000006001600160a01b03169063e2bbb15890604401600060405180830381600087803b158015610cb657600080fd5b505af1158015610cca573d6000803e3d6000fd5b50506040517f98a9bd3b7a617581fc53b1e2992534e0e0cb5091c9d44aa1a7fc978f706caa83925060009150a15050565b60026001541415610d1e5760405162461bcd60e51b815260040161048690612f82565b60026001908155600083815260056020908152604080832033845290915281208054828255928101829055600480549193929186908110610d6f57634e487b7160e01b600052603260045260246000fd5b6000918252602090912001546001600160a01b031690508015610df4576040516321832ff960e21b81526001600160a01b0382169063860cbfe490610dc1908890339089906000908190600401612fb9565b600060405180830381600087803b158015610ddb57600080fd5b505af1158015610def573d6000803e3d6000fd5b505050505b600060038681548110610e1757634e487b7160e01b600052603260045260246000fd5b6000918252602090912001546040516370a0823160e01b81523060048201526001600160a01b03909116906370a082319060240160206040518083038186803b158015610e6357600080fd5b505afa158015610e77573d6000803e3d6000fd5b505050506040513d601f19601f82011682018060405250810190610e9b9190612e00565b9050610ec385846003898154811061068857634e487b7160e01b600052603260045260246000fd5b600060038781548110610ee657634e487b7160e01b600052603260045260246000fd5b6000918252602090912001546040516370a0823160e01b81523060048201526001600160a01b03909116906370a082319060240160206040518083038186803b158015610f3257600080fd5b505afa158015610f46573d6000803e3d6000fd5b505050506040513d601f19601f82011682018060405250810190610f6a9190612e00565b9050610f7681856127b8565b8214610fc45760405162461bcd60e51b815260206004820181905260248201527f656d657267656e637957697468647261773a206e6f74206465666c6174696f6e6044820152606401610486565b610fe984600289815481106107ca57634e487b7160e01b600052603260045260246000fd5b6002888154811061100a57634e487b7160e01b600052603260045260246000fd5b906000526020600020906002020160010181905550856001600160a01b031687336001600160a01b03167f2cac5e20e1541d836381527a43f651851e302817b71dc8e810284e69210c1c6b8760405161106591815260200190565b60405180910390a45050600180555050505050565b604051631c57762b60e31b81527f00000000000000000000000000000000000000000000000000000000000000006004820152600060248201527f00000000000000000000000000000000000000000000000000000000000000006001600160a01b03169063e2bbb15890604401600060405180830381600087803b15801561110257600080fd5b505af1158015611116573d6000803e3d6000fd5b50505050565b6040805160808101825260008082526020820181905291810182905260608101919091526002828154811061116157634e487b7160e01b600052603260045260246000fd5b600091825260209182902060408051608081018252600290930290910180546001600160801b03811684526001600160401b03600160801b82048116958501869052600160c01b90910416918301919091526001015460608201529150431115611410576000600383815481106111e857634e487b7160e01b600052603260045260246000fd5b6000918252602090912001546040516370a0823160e01b81523060048201526001600160a01b03909116906370a082319060240160206040518083038186803b15801561123457600080fd5b505afa158015611248573d6000803e3d6000fd5b505050506040513d601f19601f8201168201806040525081019061126c9190612e00565b9050801561131657600061129683602001516001600160401b0316436126fa90919063ffffffff16565b905060006006546112c685604001516001600160401b03166112c06112b9611461565b86906125f0565b906125f0565b6112d0919061306c565b90506113086112f7846112e88464e8d4a510006125f0565b6112f2919061306c565b61288d565b85516001600160801b0316906128e6565b6001600160801b0316845250505b61131f43612951565b6001600160401b03166020830152600280548391908590811061135257634e487b7160e01b600052603260045260246000fd5b60009182526020918290208351600292909202018054848401516040808701516001600160401b03908116600160c01b026001600160c01b03938216600160801b026001600160c01b03199095166001600160801b0397881617949094179290921692909217835560609586015160019093019290925586840151875182519190931681529384018690529116828201525185927f0fc9545022a542541ad085d091fb09a2ab36fee366a4576ab63714ea907ad353928290030190a2505b919050565b8060005b818110156111165761145084848381811061144457634e487b7160e01b600052603260045260246000fd5b9050602002013561111c565b5061145a8161312d565b9050611419565b60007f00000000000000000000000000000000000000000000000000000000000000006001600160a01b03166317caf6f16040518163ffffffff1660e01b815260040160206040518083038186803b1580156114bc57600080fd5b505afa1580156114d0573d6000803e3d6000fd5b505050506040513d601f19601f820116820180604052508101906114f49190612e00565b604051631526fe2760e01b81527f00000000000000000000000000000000000000000000000000000000000000006004820152611644907f00000000000000000000000000000000000000000000000000000000000000006001600160a01b031690631526fe279060240160806040518083038186803b15801561157757600080fd5b505afa15801561158b573d6000803e3d6000fd5b505050506040513d601f19601f820116820180604052508101906115af9190612d6f565b602001517f00000000000000000000000000000000000000000000000000000000000000006001600160a01b031663662b5fbe6040518163ffffffff1660e01b815260040160206040518083038186803b15801561160c57600080fd5b505afa158015611620573d6000803e3d6000fd5b505050506040513d601f19601f820116820180604052508101906112c09190612e00565b61164e919061306c565b905090565b6000546001600160a01b0316331461167d5760405162461bcd60e51b815260040161048690612f4d565b61168760006129aa565b565b6003818154811061169957600080fd5b6000918252602090912001546001600160a01b0316905081565b6000546001600160a01b031633146116dd5760405162461bcd60e51b815260040161048690612f4d565b6117358361172f6002878154811061170557634e487b7160e01b600052603260045260246000fd5b600091825260209091206002909102015460065490600160c01b90046001600160401b03166126fa565b906127b8565b60065561174183612951565b6002858154811061176257634e487b7160e01b600052603260045260246000fd5b906000526020600020906002020160000160186101000a8154816001600160401b0302191690836001600160401b0316021790555080156117ee5781600485815481106117bf57634e487b7160e01b600052603260045260246000fd5b9060005260206000200160006101000a8154816001600160a01b0302191690836001600160a01b031602179055505b8061182e576004848154811061181457634e487b7160e01b600052603260045260246000fd5b6000918252602090912001546001600160a01b0316611830565b815b6001600160a01b0316847f95895a6ab1df54420d241b55243258a33e61b2194db66c1179ec521aae8e186585846040516118769291909182521515602082015260400190565b60405180910390a350505050565b600260015414156118a75760405162461bcd60e51b815260040161048690612f82565b60026001556118b461107a565b60006118bf8461111c565b60008581526005602090815260408083206001600160a01b038716845290915290208054919250906118f190856127b8565b815581516119299064e8d4a51000906119149087906001600160801b03166125f0565b61191e919061306c565b6001830154906129fa565b816001018190555060006004868154811061195457634e487b7160e01b600052603260045260246000fd5b6000918252602090912001546001600160a01b0316905080156119da5781546040516321832ff960e21b81526001600160a01b0383169163860cbfe4916119a7918a918991829160009190600401612fb9565b600060405180830381600087803b1580156119c157600080fd5b505af11580156119d5573d6000803e3d6000fd5b505050505b6000600387815481106119fd57634e487b7160e01b600052603260045260246000fd5b6000918252602090912001546040516370a0823160e01b81523060048201526001600160a01b03909116906370a082319060240160206040518083038186803b158015611a4957600080fd5b505afa158015611a5d573d6000803e3d6000fd5b505050506040513d601f19601f82011682018060405250810190611a819190612e00565b9050611ac733308860038b81548110611aaa57634e487b7160e01b600052603260045260246000fd5b6000918252602090912001546001600160a01b0316929190612855565b600060038881548110611aea57634e487b7160e01b600052603260045260246000fd5b6000918252602090912001546040516370a0823160e01b81523060048201526001600160a01b03909116906370a082319060240160206040518083038186803b158015611b3657600080fd5b505afa158015611b4a573d6000803e3d6000fd5b505050506040513d601f19601f82011682018060405250810190611b6e9190612e00565b9050611b7a82886127b8565b8114611bc15760405162461bcd60e51b81526020600482015260166024820152753232b837b9b4ba1d103737ba103232b33630ba34b7b760511b6044820152606401610486565b611c068760028a81548110611be657634e487b7160e01b600052603260045260246000fd5b9060005260206000209060020201600101546127b890919063ffffffff16565b60028981548110611c2757634e487b7160e01b600052603260045260246000fd5b906000526020600020906002020160010181905550856001600160a01b031688336001600160a01b03167f02d7e648dd130fc184d383e55bb126ac4c9c60e8f94bf05acdf557ba2d540b478a60405161086691815260200190565b600060028281548110611ca557634e487b7160e01b600052603260045260246000fd5b9060005260206000209060020201600101549050919050565b6000546001600160a01b03163314611ce85760405162461bcd60e51b815260040161048690612f4d565b6006544390611cf790856127b8565b6006556003805460018181019092557fc2575a0e9e593c00f959f8c92f12db2869c3395a3b0502d05e2516446f71f85b0180546001600160a01b038087166001600160a01b03199283161790925560048054938401815560009081527f8a35acfbc15ff81a39ae7d344fd709f28e8600b4aa8c65c6b64bfe7fe36bd19b909301805492861692909116919091179055604080516080810190915290815260029060208101611da484612951565b6001600160401b03168152602001611dbb87612951565b6001600160401b0390811682526000602092830181905284546001818101875595825290839020845160029092020180549385015160408601518416600160c01b026001600160c01b0391909416600160801b026001600160c01b03199095166001600160801b03909316929092179390931716178155606090910151908201556003546001600160a01b038085169290861691611e58916126fa565b6040518781527f81ee0f8c5c46e2cb41984886f77a84181724abb86c32a5f6de539b07509d45e59060200160405180910390a450505050565b6004818154811061169957600080fd5b60026001541415611ec45760405162461bcd60e51b815260040161048690612f82565b6002600155611ed161107a565b6000611edc8461111c565b6000858152600560209081526040808320338452909152812082518154939450909264e8d4a5100091611f1891906001600160801b03166125f0565b611f22919061306c565b90506000611f4061096d84600101548461266690919063ffffffff16565b9050611f7c64e8d4a51000611f6b86600001516001600160801b0316896125f090919063ffffffff16565b611f75919061306c565b8390612666565b60018401558254611f8d90876126fa565b8355611fc36001600160a01b037f0000000000000000000000000000000000000000000000000000000000000000168683612750565b600060048881548110611fe657634e487b7160e01b600052603260045260246000fd5b6000918252602090912001546001600160a01b03169050801561206b5783546040516321832ff960e21b81526001600160a01b0383169163860cbfe491612038918c9133918c91899190600401612fb9565b600060405180830381600087803b15801561205257600080fd5b505af1158015612066573d6000803e3d6000fd5b505050505b60006003898154811061208e57634e487b7160e01b600052603260045260246000fd5b6000918252602090912001546040516370a0823160e01b81523060048201526001600160a01b03909116906370a082319060240160206040518083038186803b1580156120da57600080fd5b505afa1580156120ee573d6000803e3d6000fd5b505050506040513d601f19601f820116820180604052508101906121129190612e00565b905061213a878960038c8154811061068857634e487b7160e01b600052603260045260246000fd5b600060038a8154811061215d57634e487b7160e01b600052603260045260246000fd5b6000918252602090912001546040516370a0823160e01b81523060048201526001600160a01b03909116906370a082319060240160206040518083038186803b1580156121a957600080fd5b505afa1580156121bd573d6000803e3d6000fd5b505050506040513d601f19601f820116820180604052508101906121e19190612e00565b90506121ed818a6127b8565b82146122455760405162461bcd60e51b815260206004820152602160248201527f7769746864726177416e64486172766573743a206e6f74206465666c6174696f6044820152603760f91b6064820152608401610486565b61226a8960028c815481106107ca57634e487b7160e01b600052603260045260246000fd5b60028b8154811061228b57634e487b7160e01b600052603260045260246000fd5b906000526020600020906002020160010181905550876001600160a01b03168a336001600160a01b03167f8166bf25f8a2b7ed3c85049207da4358d16edbed977d23fa2ee6f0dde3ec21328c6040516122e691815260200190565b60405180910390a46040518481528a9033907f71bab65ced2e5750775a0613be067df48ef06cf92a496ebf7663ae06609249549060200160405180910390a35050600180555050505050505050565b6000806002848154811061235957634e487b7160e01b600052603260045260246000fd5b6000918252602080832060408051608081018252600290940290910180546001600160801b0380821686526001600160401b03600160801b8304811687870152600160c01b909204909116858401526001909101546060850152888552600583528185206001600160a01b038916865290925283208251600380549496509194921692889081106123fa57634e487b7160e01b600052603260045260246000fd5b6000918252602090912001546040516370a0823160e01b81523060048201526001600160a01b03909116906370a082319060240160206040518083038186803b15801561244657600080fd5b505afa15801561245a573d6000803e3d6000fd5b505050506040513d601f19601f8201168201806040525081019061247e9190612e00565b905083602001516001600160401b03164311801561249b57508015155b1561251a5760006124c285602001516001600160401b0316436126fa90919063ffffffff16565b905060006006546124e587604001516001600160401b03166112c06112b9611461565b6124ef919061306c565b9050612515836125048364e8d4a510006125f0565b61250e919061306c565b85906127b8565b935050505b6001830154835461254a9161096d9164e8d4a510009061253a90876125f0565b612544919061306c565b90612666565b979650505050505050565b6000546001600160a01b0316331461257f5760405162461bcd60e51b815260040161048690612f4d565b6001600160a01b0381166125e45760405162461bcd60e51b815260206004820152602660248201527f4f776e61626c653a206e6577206f776e657220697320746865207a65726f206160448201526564647265737360d01b6064820152608401610486565b6125ed816129aa565b50565b600081158061261457508282612606818361308c565b9250612612908361306c565b145b6126605760405162461bcd60e51b815260206004820152601860248201527f426f72696e674d6174683a204d756c204f766572666c6f7700000000000000006044820152606401610486565b92915050565b60008061267383856130ab565b9050600083121580156126865750838113155b8061269b575060008312801561269b57508381135b6126f35760405162461bcd60e51b8152602060048201526024808201527f5369676e6564536166654d6174683a207375627472616374696f6e206f766572604482015263666c6f7760e01b6064820152608401610486565b9392505050565b60008261270783826130ea565b91508111156126605760405162461bcd60e51b8152602060048201526015602482015274426f72696e674d6174683a20556e646572666c6f7760581b6044820152606401610486565b6040516001600160a01b0383166024820152604481018290526127b390849063a9059cbb60e01b906064015b60408051601f198184030181529190526020810180516001600160e01b03166001600160e01b031990931692909217909152612a85565b505050565b6000816127c58185613054565b91508110156126605760405162461bcd60e51b8152602060048201526018602482015277426f72696e674d6174683a20416464204f766572666c6f7760401b6044820152606401610486565b6000808212156128515760405162461bcd60e51b815260206004820152600b60248201526a0496e7465676572203c20360ac1b6044820152606401610486565b5090565b6040516001600160a01b03808516602483015283166044820152606481018290526111169085906323b872dd60e01b9060840161277c565b60006001600160801b038211156128515760405162461bcd60e51b815260206004820152601c60248201527f426f72696e674d6174683a2075696e74313238204f766572666c6f77000000006044820152606401610486565b60006001600160801b0382166128fc8385613029565b9150816001600160801b031610156126605760405162461bcd60e51b8152602060048201526018602482015277426f72696e674d6174683a20416464204f766572666c6f7760401b6044820152606401610486565b60006001600160401b038211156128515760405162461bcd60e51b815260206004820152601b60248201527f426f72696e674d6174683a2075696e743634204f766572666c6f7700000000006044820152606401610486565b600080546001600160a01b038381166001600160a01b0319831681178455604051919092169283917f8be0079c531659141344cd1fd0a4f28419497f9722a3daafe3b4186f6b6457e09190a35050565b600080612a078385612fe8565b905060008312158015612a1a5750838112155b80612a2f5750600083128015612a2f57508381125b6126f35760405162461bcd60e51b815260206004820152602160248201527f5369676e6564536166654d6174683a206164646974696f6e206f766572666c6f6044820152607760f81b6064820152608401610486565b6000612ada826040518060400160405280602081526020017f5361666545524332303a206c6f772d6c6576656c2063616c6c206661696c6564815250856001600160a01b0316612b579092919063ffffffff16565b8051909150156127b35780806020019051810190612af89190612d53565b6127b35760405162461bcd60e51b815260206004820152602a60248201527f5361666545524332303a204552433230206f7065726174696f6e20646964206e6044820152691bdd081cdd58d8d9595960b21b6064820152608401610486565b6060612b668484600085612b6e565b949350505050565b606082471015612bcf5760405162461bcd60e51b815260206004820152602660248201527f416464726573733a20696e73756666696369656e742062616c616e636520666f6044820152651c8818d85b1b60d21b6064820152608401610486565b6001600160a01b0385163b612c265760405162461bcd60e51b815260206004820152601d60248201527f416464726573733a2063616c6c20746f206e6f6e2d636f6e74726163740000006044820152606401610486565b600080866001600160a01b03168587604051612c429190612efe565b60006040518083038185875af1925050503d8060008114612c7f576040519150601f19603f3d011682016040523d82523d6000602084013e612c84565b606091505b509150915061254a82828660608315612c9e5750816126f3565b825115612cae5782518084602001fd5b8160405162461bcd60e51b81526004016104869190612f1a565b600060208284031215612cd9578081fd5b81356126f38161315e565b60008060208385031215612cf6578081fd5b82356001600160401b0380821115612d0c578283fd5b818501915085601f830112612d1f578283fd5b813581811115612d2d578384fd5b8660208260051b8501011115612d41578384fd5b60209290920196919550909350505050565b600060208284031215612d64578081fd5b81516126f381613173565b600060808284031215612d80578081fd5b604051608081018181106001600160401b0382111715612dae57634e487b7160e01b83526041600452602483fd5b6040528251612dbc8161315e565b808252506020830151602082015260408301516040820152606083015160608201528091505092915050565b600060208284031215612df9578081fd5b5035919050565b600060208284031215612e11578081fd5b5051919050565b60008060408385031215612e2a578182fd5b823591506020830135612e3c8161315e565b809150509250929050565b600080600060608486031215612e5b578081fd5b833592506020840135612e6d8161315e565b91506040840135612e7d8161315e565b809150509250925092565b600080600060608486031215612e9c578283fd5b83359250602084013591506040840135612e7d8161315e565b60008060008060808587031215612eca578081fd5b84359350602085013592506040850135612ee38161315e565b91506060850135612ef381613173565b939692955090935050565b60008251612f10818460208701613101565b9190910192915050565b6020815260008251806020840152612f39816040850160208701613101565b601f01601f19169190910160400192915050565b6020808252818101527f4f776e61626c653a2063616c6c6572206973206e6f7420746865206f776e6572604082015260600190565b6020808252601f908201527f5265656e7472616e637947756172643a207265656e7472616e742063616c6c00604082015260600190565b9485526001600160a01b0393841660208601529190921660408401526060830191909152608082015260a00190565b600080821280156001600160ff1b038490038513161561300a5761300a613148565b600160ff1b839003841281161561302357613023613148565b50500190565b60006001600160801b0380831681851680830382111561304b5761304b613148565b01949350505050565b6000821982111561306757613067613148565b500190565b60008261308757634e487b7160e01b81526012600452602481fd5b500490565b60008160001904831182151516156130a6576130a6613148565b500290565b60008083128015600160ff1b8501841216156130c9576130c9613148565b6001600160ff1b03840183138116156130e4576130e4613148565b50500390565b6000828210156130fc576130fc613148565b500390565b60005b8381101561311c578181015183820152602001613104565b838111156111165750506000910152565b600060001982141561314157613141613148565b5060010190565b634e487b7160e01b600052601160045260246000fd5b6001600160a01b03811681146125ed57600080fd5b80151581146125ed57600080fdfea264697066735822122027a69ef683df65516a724591c03ec6361ae5614896d39ffc614f728ab46d30d664736f6c63430008040033",
  "linkReferences": {},
  "deployedLinkReferences": {}
}