{
  "_format": "hh-sol-artifact-1",
  "contractName": "ERC721NFTMarket",
  "sourceName": "contracts/nft-marketplace/erc721-marketplace/ERC721NFTMarket.sol",
  "abi": [
    {
      "inputs": [
        {
          "internalType": "address",
          "name": "_weth",
          "type": "address"
        },
        {
          "internalType": "address",
          "name": "_feeRecipient",
          "type": "address"
        },
        {
          "internalType": "uint256",
          "name": "_feePercent",
          "type": "uint256"
        }
      ],
      "stateMutability": "nonpayable",
      "type": "constructor"
    },
    {
      "anonymous": false,
      "inputs": [
        {
          "indexed": true,
          "internalType": "address",
          "name": "_seller",
          "type": "address"
        },
        {
          "indexed": true,
          "internalType": "address",
          "name": "bidder",
          "type": "address"
        },
        {
          "indexed": true,
          "internalType": "address",
          "name": "_nft",
          "type": "address"
        },
        {
          "indexed": false,
          "internalType": "uint256",
          "name": "_tokenId",
          "type": "uint256"
        },
        {
          "indexed": false,
          "internalType": "address",
          "name": "_quoteToken",
          "type": "address"
        },
        {
          "indexed": false,
          "internalType": "uint256",
          "name": "_price",
          "type": "uint256"
        },
        {
          "indexed": false,
          "internalType": "uint256",
          "name": "_netPrice",
          "type": "uint256"
        }
      ],
      "name": "AcceptBid",
      "type": "event"
    },
    {
      "anonymous": false,
      "inputs": [
        {
          "indexed": true,
          "internalType": "address",
          "name": "_seller",
          "type": "address"
        },
        {
          "indexed": true,
          "internalType": "address",
          "name": "_nft",
          "type": "address"
        },
        {
          "indexed": false,
          "internalType": "uint256",
          "name": "_tokenId",
          "type": "uint256"
        }
      ],
      "name": "AskCancel",
      "type": "event"
    },
    {
      "anonymous": false,
      "inputs": [
        {
          "indexed": true,
          "internalType": "address",
          "name": "_seller",
          "type": "address"
        },
        {
          "indexed": true,
          "internalType": "address",
          "name": "_nft",
          "type": "address"
        },
        {
          "indexed": false,
          "internalType": "uint256",
          "name": "_tokenId",
          "type": "uint256"
        },
        {
          "indexed": false,
          "internalType": "address",
          "name": "_quoteToken",
          "type": "address"
        },
        {
          "indexed": false,
          "internalType": "uint256",
          "name": "_price",
          "type": "uint256"
        }
      ],
      "name": "AskNew",
      "type": "event"
    },
    {
      "anonymous": false,
      "inputs": [
        {
          "indexed": true,
          "internalType": "address",
          "name": "bidder",
          "type": "address"
        },
        {
          "indexed": true,
          "internalType": "address",
          "name": "_nft",
          "type": "address"
        },
        {
          "indexed": false,
          "internalType": "uint256",
          "name": "_tokenId",
          "type": "uint256"
        },
        {
          "indexed": false,
          "internalType": "address",
          "name": "_quoteToken",
          "type": "address"
        },
        {
          "indexed": false,
          "internalType": "uint256",
          "name": "_price",
          "type": "uint256"
        }
      ],
      "name": "Bid",
      "type": "event"
    },
    {
      "anonymous": false,
      "inputs": [
        {
          "indexed": true,
          "internalType": "address",
          "name": "bidder",
          "type": "address"
        },
        {
          "indexed": true,
          "internalType": "address",
          "name": "_nft",
          "type": "address"
        },
        {
          "indexed": false,
          "internalType": "uint256",
          "name": "_tokenId",
          "type": "uint256"
        }
      ],
      "name": "CancelBid",
      "type": "event"
    },
    {
      "anonymous": false,
      "inputs": [
        {
          "indexed": true,
          "internalType": "address",
          "name": "collection",
          "type": "address"
        }
      ],
      "name": "CloseCollection",
      "type": "event"
    },
    {
      "anonymous": false,
      "inputs": [
        {
          "indexed": true,
          "internalType": "address",
          "name": "collection",
          "type": "address"
        },
        {
          "indexed": false,
          "internalType": "uint256",
          "name": "creatorFee",
          "type": "uint256"
        },
        {
          "indexed": false,
          "internalType": "address",
          "name": "creator",
          "type": "address"
        }
      ],
      "name": "ModifyCollection",
      "type": "event"
    },
    {
      "anonymous": false,
      "inputs": [
        {
          "indexed": true,
          "internalType": "address",
          "name": "collection",
          "type": "address"
        },
        {
          "indexed": false,
          "internalType": "uint256",
          "name": "creatorFee",
          "type": "uint256"
        },
        {
          "indexed": false,
          "internalType": "address",
          "name": "creator",
          "type": "address"
        }
      ],
      "name": "NewCollection",
      "type": "event"
    },
    {
      "anonymous": false,
      "inputs": [
        {
          "indexed": true,
          "internalType": "address",
          "name": "previousOwner",
          "type": "address"
        },
        {
          "indexed": true,
          "internalType": "address",
          "name": "newOwner",
          "type": "address"
        }
      ],
      "name": "OwnershipTransferred",
      "type": "event"
    },
    {
      "anonymous": false,
      "inputs": [
        {
          "indexed": true,
          "internalType": "address",
          "name": "_seller",
          "type": "address"
        },
        {
          "indexed": true,
          "internalType": "address",
          "name": "buyer",
          "type": "address"
        },
        {
          "indexed": true,
          "internalType": "address",
          "name": "_nft",
          "type": "address"
        },
        {
          "indexed": false,
          "internalType": "uint256",
          "name": "_tokenId",
          "type": "uint256"
        },
        {
          "indexed": false,
          "internalType": "address",
          "name": "_quoteToken",
          "type": "address"
        },
        {
          "indexed": false,
          "internalType": "uint256",
          "name": "_price",
          "type": "uint256"
        },
        {
          "indexed": false,
          "internalType": "uint256",
          "name": "_netPrice",
          "type": "uint256"
        }
      ],
      "name": "Trade",
      "type": "event"
    },
    {
      "inputs": [],
      "name": "MAX_FEE",
      "outputs": [
        {
          "internalType": "uint256",
          "name": "",
          "type": "uint256"
        }
      ],
      "stateMutability": "view",
      "type": "function"
    },
    {
      "inputs": [],
      "name": "WETH",
      "outputs": [
        {
          "internalType": "address",
          "name": "",
          "type": "address"
        }
      ],
      "stateMutability": "view",
      "type": "function"
    },
    {
      "inputs": [
        {
          "internalType": "address",
          "name": "_nft",
          "type": "address"
        },
        {
          "internalType": "uint256",
          "name": "_tokenId",
          "type": "uint256"
        },
        {
          "internalType": "address",
          "name": "_bidder",
          "type": "address"
        },
        {
          "internalType": "address",
          "name": "_quoteToken",
          "type": "address"
        },
        {
          "internalType": "uint256",
          "name": "_price",
          "type": "uint256"
        }
      ],
      "name": "acceptBid",
      "outputs": [],
      "stateMutability": "nonpayable",
      "type": "function"
    },
    {
      "inputs": [
        {
          "internalType": "address",
          "name": "",
          "type": "address"
        },
        {
          "internalType": "uint256",
          "name": "",
          "type": "uint256"
        }
      ],
      "name": "asks",
      "outputs": [
        {
          "internalType": "address",
          "name": "seller",
          "type": "address"
        },
        {
          "internalType": "address",
          "name": "quoteToken",
          "type": "address"
        },
        {
          "internalType": "uint256",
          "name": "price",
          "type": "uint256"
        }
      ],
      "stateMutability": "view",
      "type": "function"
    },
    {
      "inputs": [
        {
          "internalType": "address",
          "name": "",
          "type": "address"
        },
        {
          "internalType": "uint256",
          "name": "",
          "type": "uint256"
        },
        {
          "internalType": "address",
          "name": "",
          "type": "address"
        }
      ],
      "name": "bids",
      "outputs": [
        {
          "internalType": "address",
          "name": "quoteToken",
          "type": "address"
        },
        {
          "internalType": "uint256",
          "name": "price",
          "type": "uint256"
        }
      ],
      "stateMutability": "view",
      "type": "function"
    },
    {
      "inputs": [
        {
          "internalType": "address",
          "name": "_nft",
          "type": "address"
        },
        {
          "internalType": "uint256",
          "name": "_tokenId",
          "type": "uint256"
        },
        {
          "internalType": "address",
          "name": "_quoteToken",
          "type": "address"
        },
        {
          "internalType": "uint256",
          "name": "_price",
          "type": "uint256"
        },
        {
          "internalType": "bytes32",
          "name": "_fingeprint",
          "type": "bytes32"
        }
      ],
      "name": "buy",
      "outputs": [],
      "stateMutability": "nonpayable",
      "type": "function"
    },
    {
      "inputs": [
        {
          "internalType": "address",
          "name": "_nft",
          "type": "address"
        },
        {
          "internalType": "uint256",
          "name": "_tokenId",
          "type": "uint256"
        }
      ],
      "name": "buyUsingNative",
      "outputs": [],
      "stateMutability": "payable",
      "type": "function"
    },
    {
      "inputs": [
        {
          "internalType": "address",
          "name": "_nft",
          "type": "address"
        },
        {
          "internalType": "uint256",
          "name": "_tokenId",
          "type": "uint256"
        }
      ],
      "name": "cancelAsk",
      "outputs": [],
      "stateMutability": "nonpayable",
      "type": "function"
    },
    {
      "inputs": [
        {
          "internalType": "address",
          "name": "_nft",
          "type": "address"
        },
        {
          "internalType": "uint256",
          "name": "_tokenId",
          "type": "uint256"
        }
      ],
      "name": "cancelBid",
      "outputs": [],
      "stateMutability": "nonpayable",
      "type": "function"
    },
    {
      "inputs": [
        {
          "internalType": "address",
          "name": "_collection",
          "type": "address"
        }
      ],
      "name": "closeCollection",
      "outputs": [],
      "stateMutability": "nonpayable",
      "type": "function"
    },
    {
      "inputs": [
        {
          "internalType": "address",
          "name": "",
          "type": "address"
        }
      ],
      "name": "collections",
      "outputs": [
        {
          "internalType": "enum ERC721NFTCollectionManager.CollectionStatus",
          "name": "status",
          "type": "uint8"
        },
        {
          "internalType": "uint256",
          "name": "creatorFee",
          "type": "uint256"
        },
        {
          "internalType": "address",
          "name": "creator",
          "type": "address"
        }
      ],
      "stateMutability": "view",
      "type": "function"
    },
    {
      "inputs": [
        {
          "internalType": "address",
          "name": "_nft",
          "type": "address"
        },
        {
          "internalType": "uint256",
          "name": "_tokenId",
          "type": "uint256"
        },
        {
          "internalType": "address",
          "name": "_quoteToken",
          "type": "address"
        },
        {
          "internalType": "uint256",
          "name": "_price",
          "type": "uint256"
        }
      ],
      "name": "createAsk",
      "outputs": [],
      "stateMutability": "nonpayable",
      "type": "function"
    },
    {
      "inputs": [
        {
          "internalType": "address",
          "name": "_nft",
          "type": "address"
        },
        {
          "internalType": "uint256",
          "name": "_tokenId",
          "type": "uint256"
        },
        {
          "internalType": "address",
          "name": "_quoteToken",
          "type": "address"
        },
        {
          "internalType": "uint256",
          "name": "_price",
          "type": "uint256"
        }
      ],
      "name": "createBid",
      "outputs": [],
      "stateMutability": "nonpayable",
      "type": "function"
    },
    {
      "inputs": [
        {
          "internalType": "address",
          "name": "_nft",
          "type": "address"
        },
        {
          "internalType": "uint256",
          "name": "_tokenId",
          "type": "uint256"
        }
      ],
      "name": "createBidUsingNative",
      "outputs": [],
      "stateMutability": "payable",
      "type": "function"
    },
    {
      "inputs": [
        {
          "internalType": "address",
          "name": "_collection",
          "type": "address"
        },
        {
          "internalType": "address",
          "name": "_creator",
          "type": "address"
        },
        {
          "internalType": "uint256",
          "name": "_creatorFee",
          "type": "uint256"
        }
      ],
      "name": "modifyCollection",
      "outputs": [],
      "stateMutability": "nonpayable",
      "type": "function"
    },
    {
      "inputs": [
        {
          "internalType": "address",
          "name": "_collection",
          "type": "address"
        },
        {
          "internalType": "address",
          "name": "_creator",
          "type": "address"
        },
        {
          "internalType": "uint256",
          "name": "_creatorFee",
          "type": "uint256"
        }
      ],
      "name": "newCollection",
      "outputs": [],
      "stateMutability": "nonpayable",
      "type": "function"
    },
    {
      "inputs": [
        {
          "internalType": "address",
          "name": "",
          "type": "address"
        },
        {
          "internalType": "address",
          "name": "",
          "type": "address"
        },
        {
          "internalType": "uint256",
          "name": "",
          "type": "uint256"
        },
        {
          "internalType": "bytes",
          "name": "",
          "type": "bytes"
        }
      ],
      "name": "onERC721Received",
      "outputs": [
        {
          "internalType": "bytes4",
          "name": "",
          "type": "bytes4"
        }
      ],
      "stateMutability": "nonpayable",
      "type": "function"
    },
    {
      "inputs": [],
      "name": "owner",
      "outputs": [
        {
          "internalType": "address",
          "name": "",
          "type": "address"
        }
      ],
      "stateMutability": "view",
      "type": "function"
    },
    {
      "inputs": [],
      "name": "protocolFeePercent",
      "outputs": [
        {
          "internalType": "uint256",
          "name": "",
          "type": "uint256"
        }
      ],
      "stateMutability": "view",
      "type": "function"
    },
    {
      "inputs": [],
      "name": "protocolFeeRecipient",
      "outputs": [
        {
          "internalType": "address",
          "name": "",
          "type": "address"
        }
      ],
      "stateMutability": "view",
      "type": "function"
    },
    {
      "inputs": [],
      "name": "renounceOwnership",
      "outputs": [],
      "stateMutability": "nonpayable",
      "type": "function"
    },
    {
      "inputs": [
        {
          "internalType": "uint256",
          "name": "_percent",
          "type": "uint256"
        }
      ],
      "name": "setProtocolFeePercent",
      "outputs": [],
      "stateMutability": "nonpayable",
      "type": "function"
    },
    {
      "inputs": [
        {
          "internalType": "address",
          "name": "_recipient",
          "type": "address"
        }
      ],
      "name": "setProtocolFeeRecipient",
      "outputs": [],
      "stateMutability": "nonpayable",
      "type": "function"
    },
    {
      "inputs": [
        {
          "internalType": "address",
          "name": "newOwner",
          "type": "address"
        }
      ],
      "name": "transferOwnership",
      "outputs": [],
      "stateMutability": "nonpayable",
      "type": "function"
    },
    {
      "inputs": [
        {
          "internalType": "uint256",
          "name": "cursor",
          "type": "uint256"
        },
        {
          "internalType": "uint256",
          "name": "size",
          "type": "uint256"
        }
      ],
      "name": "viewCollections",
      "outputs": [
        {
          "internalType": "address[]",
          "name": "collectionAddresses",
          "type": "address[]"
        },
        {
          "components": [
            {
              "internalType": "enum ERC721NFTCollectionManager.CollectionStatus",
              "name": "status",
              "type": "uint8"
            },
            {
              "internalType": "uint256",
              "name": "creatorFee",
              "type": "uint256"
            },
            {
              "internalType": "address",
              "name": "creator",
              "type": "address"
            }
          ],
          "internalType": "struct ERC721NFTCollectionManager.Collection[]",
          "name": "collectionDetails",
          "type": "tuple[]"
        },
        {
          "internalType": "uint256",
          "name": "",
          "type": "uint256"
        }
      ],
      "stateMutability": "view",
      "type": "function"
    }
  ],
  "bytecode": "0x60a060405260fa6003556101f46005553480156200001c57600080fd5b5060405162003045380380620030458339810160408190526200003f91620000f9565b81816200004c336200008c565b60018055600280546001600160a01b0319166001600160a01b039390931692909217909155600355505060601b6001600160601b03191660805262000139565b600080546001600160a01b038381166001600160a01b0319831681178455604051919092169283917f8be0079c531659141344cd1fd0a4f28419497f9722a3daafe3b4186f6b6457e09190a35050565b80516001600160a01b0381168114620000f457600080fd5b919050565b6000806000606084860312156200010e578283fd5b6200011984620000dc565b92506200012960208501620000dc565b9150604084015190509250925092565b60805160601c612ed1620001746000396000818161038c0152818161120c01528181611285015281816118c2015261193b0152612ed16000f3fe6080604052600436106101655760003560e01c8063a4983421116100d1578063dd7689221161008a578063e521cb9211610064578063e521cb921461051b578063e80fbc901461053b578063f2fde38b1461054e578063f375ceab1461056e57600080fd5b8063dd76892214610428578063e22d4f7d14610498578063e4ce1806146104fb57600080fd5b8063a49834211461035a578063ad5c46481461037a578063bbafdf54146103ae578063bc063e1a146103ce578063bd3a27b0146103f2578063d6e6eb9f1461041257600080fd5b806351c383ea1161012357806351c383ea1461028d57806364df049e146102bc5780636fa92cb8146102f4578063715018a6146103145780638da5cb5b146103295780639e7dfc7b1461034757600080fd5b80626795d51461016a578063150b7a021461018c57806332796c7d146101d557806339b6b1e5146101f557806340b807461461021557806343add2e614610235575b600080fd5b34801561017657600080fd5b5061018a610185366004612a7f565b61058e565b005b34801561019857600080fd5b506101b76101a73660046128f2565b630a85bd0160e11b949350505050565b6040516001600160e01b031990911681526020015b60405180910390f35b3480156101e157600080fd5b5061018a6101f036600461289d565b61080e565b34801561020157600080fd5b5061018a6102103660046129c7565b6108e7565b34801561022157600080fd5b5061018a6102303660046129c7565b610921565b34801561024157600080fd5b5061027e61025036600461289d565b60066020526000908152604090208054600182015460029092015460ff90911691906001600160a01b031683565b6040516101cc93929190612c7c565b34801561029957600080fd5b506102ad6102a8366004612b47565b610ab1565b6040516101cc93929190612bca565b3480156102c857600080fd5b506002546102dc906001600160a01b031681565b6040516001600160a01b0390911681526020016101cc565b34801561030057600080fd5b5061018a61030f366004612a2b565b610d26565b34801561032057600080fd5b5061018a6110cf565b34801561033557600080fd5b506000546001600160a01b03166102dc565b61018a6103553660046129c7565b6110e3565b34801561036657600080fd5b5061018a610375366004612b2f565b6112b3565b34801561038657600080fd5b506102dc7f000000000000000000000000000000000000000000000000000000000000000081565b3480156103ba57600080fd5b5061018a6103c9366004612ac2565b6112fc565b3480156103da57600080fd5b506103e460055481565b6040519081526020016101cc565b3480156103fe57600080fd5b5061018a61040d366004612a7f565b61144d565b34801561041e57600080fd5b506103e460035481565b34801561043457600080fd5b506104796104433660046129f0565b600b602090815260009384526040808520825292845282842090528252902080546001909101546001600160a01b039091169082565b604080516001600160a01b0390931683526020830191909152016101cc565b3480156104a457600080fd5b506104ec6104b33660046129c7565b60096020908152600092835260408084209091529082529020805460018201546002909201546001600160a01b03918216929091169083565b6040516101cc93929190612ba6565b34801561050757600080fd5b5061018a6105163660046128b7565b61153a565b34801561052757600080fd5b5061018a61053636600461289d565b611771565b61018a6105493660046129c7565b6117ff565b34801561055a57600080fd5b5061018a61056936600461289d565b611960565b34801561057a57600080fd5b5061018a6105893660046128b7565b6119d9565b600260015414156105ba5760405162461bcd60e51b81526004016105b190612d41565b60405180910390fd5b6002600155333b156105de5760405162461bcd60e51b81526004016105b190612cdc565b3332146105fd5760405162461bcd60e51b81526004016105b190612d0a565b8360006001600160a01b03821660009081526006602052604090205460ff16600181111561063b57634e487b7160e01b600052602160045260246000fd5b146106585760405162461bcd60e51b81526004016105b190612d78565b600082116106b45760405162461bcd60e51b8152602060048201526024808201527f41736b3a205072696365206d7573742062652067726561746572207468616e206044820152637a65726f60e01b60648201526084016105b1565b604051632142170760e11b81526001600160a01b038616906342842e0e906106e490339030908990600401612ba6565b600060405180830381600087803b1580156106fe57600080fd5b505af1158015610712573d6000803e3d6000fd5b5050505060405180606001604052806107283390565b6001600160a01b03908116825285811660208084019190915260409283018690528882166000818152600983528481208a82528352848120865181549086166001600160a01b0319918216178255878501516001830180549190971691161790945594840151600290930192909255908352600a905290206107aa9085611c9e565b506001600160a01b03851633604080518781526001600160a01b0387811660208301529181018690529116907f9a334381123a2a5affb4d69737ab464025dee3156576bab65294d6b7e9d49dec9060600160405180910390a3505060018055505050565b610816611cb3565b610821600782611d0d565b6108815760405162461bcd60e51b815260206004820152602b60248201527f436c6f736520636f6c6c656374696f6e3a2074686520636f6c6c656374696f6e60448201526a081b9bdd081b1a5cdd195960aa1b60648201526084016105b1565b6001600160a01b0381166000908152600660205260409020805460ff191660011790556108af600782611d2f565b506040516001600160a01b038216907f9b484b84384aae1cfcf87460de468e0e38dca97450aca6f5ba47e529293a75ab90600090a250565b6002600154141561090a5760405162461bcd60e51b81526004016105b190612d41565b60026001556109198282611d44565b505060018055565b600260015414156109445760405162461bcd60e51b81526004016105b190612d41565b60026001556001600160a01b0382811660009081526009602090815260408083208584529091529020541633146109b05760405162461bcd60e51b815260206004820152601060248201526f20b9b59d1037b7363c9039b2b63632b960811b60448201526064016105b1565b604051632142170760e11b81526001600160a01b038316906342842e0e906109e090309033908690600401612ba6565b600060405180830381600087803b1580156109fa57600080fd5b505af1158015610a0e573d6000803e3d6000fd5b5050506001600160a01b0383166000818152600960209081526040808320868452825280832080546001600160a01b031990811682556001820180549091169055600201839055928252600a905220610a68915082611e5f565b506040518181526001600160a01b0383169033907fa5764ea233325154a6388255c54b9f302ec2ed8586af0a9a606cd64e88298eb79060200160405180910390a3505060018055565b60608060008385610ac26007611e6b565b610acc9190612e11565b811115610aeb5785610ade6007611e6b565b610ae89190612e11565b90505b8067ffffffffffffffff811115610b1257634e487b7160e01b600052604160045260246000fd5b604051908082528060200260200182016040528015610b3b578160200160208202803683370190505b5093508067ffffffffffffffff811115610b6557634e487b7160e01b600052604160045260246000fd5b604051908082528060200260200182016040528015610bb057816020015b6040805160608101825260008082526020808301829052928201528252600019909201910181610b835790505b50925060005b81811015610d0b57610bd3610bcb8289612dba565b600790611e75565b858281518110610bf357634e487b7160e01b600052603260045260246000fd5b60200260200101906001600160a01b031690816001600160a01b03168152505060066000868381518110610c3757634e487b7160e01b600052603260045260246000fd5b6020908102919091018101516001600160a01b0316825281019190915260409081016000208151606081019092528054829060ff166001811115610c8b57634e487b7160e01b600052602160045260246000fd5b6001811115610caa57634e487b7160e01b600052602160045260246000fd5b8152600182015460208201526002909101546001600160a01b03166040909101528451859083908110610ced57634e487b7160e01b600052603260045260246000fd5b60200260200101819052508080610d0390612e54565b915050610bb6565b508383610d188389612dba565b935093509350509250925092565b60026001541415610d495760405162461bcd60e51b81526004016105b190612d41565b60026001558460006001600160a01b03821660009081526006602052604090205460ff166001811115610d8c57634e487b7160e01b600052602160045260246000fd5b14610da95760405162461bcd60e51b81526004016105b190612d78565b6001600160a01b038087166000908152600b6020908152604080832089845282528083208885168452825291829020825180840190935280549093168252600190920154918101829052908314610e425760405162461bcd60e51b815260206004820152601860248201527f4163636570744269643a20696e76616c6964207072696365000000000000000060448201526064016105b1565b836001600160a01b031681600001516001600160a01b031614610ea75760405162461bcd60e51b815260206004820152601d60248201527f4163636570744269643a20696e76616c69642071756f7465546f6b656e00000060448201526064016105b1565b6001600160a01b0387811660009081526009602090815260408083208a84529091529020541633811415610f3c57604051632142170760e11b81526001600160a01b038916906342842e0e90610f059030908a908c90600401612ba6565b600060405180830381600087803b158015610f1f57600080fd5b505af1158015610f33573d6000803e3d6000fd5b50505050610fa2565b50604051632142170760e11b815233906001600160a01b038916906342842e0e90610f6f9084908a908c90600401612ba6565b600060405180830381600087803b158015610f8957600080fd5b505af1158015610f9d573d6000803e3d6000fd5b505050505b6000610faf898787611e81565b90506000610fbd8683611fd3565b9050610fd36001600160a01b0388168483611fdf565b6001600160a01b038a1660008181526009602090815260408083208d8452825280832080546001600160a01b031990811682556001820180549091169055600201839055928252600a905220611029908a611e5f565b506001600160a01b038a81166000818152600b602090815260408083208e845282528083208d861680855290835281842080546001600160a01b03191681556001019390935580518e81528c86169281019290925281018a90526060810185905291929091908616907f110ad5be64e5fef5d8a9433938fccf79b5b6623af1a17f0990815ed076abdb589060800160405180910390a45050600180555050505050505050565b6110d7611cb3565b6110e16000612047565b565b600260015414156111065760405162461bcd60e51b81526004016105b190612d41565b6002600155333b1561112a5760405162461bcd60e51b81526004016105b190612cdc565b3332146111495760405162461bcd60e51b81526004016105b190612d0a565b8160006001600160a01b03821660009081526006602052604090205460ff16600181111561118757634e487b7160e01b600052602160045260246000fd5b146111a45760405162461bcd60e51b81526004016105b190612d78565b6001600160a01b0383811660009081526009602090815260408083208684529091529020541661120a5760405162461bcd60e51b81526020600482015260116024820152701d1bdad95b881a5cc81b9bdd081cd95b1b607a1b60448201526064016105b1565b7f00000000000000000000000000000000000000000000000000000000000000006001600160a01b031663d0e30db0346040518263ffffffff1660e01b81526004016000604051808303818588803b15801561126557600080fd5b505af1158015611279573d6000803e3d6000fd5b50505050506112aa83837f000000000000000000000000000000000000000000000000000000000000000034612097565b50506001805550565b6112bb611cb3565b6005548111156112f75760405162461bcd60e51b81526020600482015260076024820152666d61785f66656560c81b60448201526064016105b1565b600355565b333b1561131b5760405162461bcd60e51b81526004016105b190612cdc565b33321461133a5760405162461bcd60e51b81526004016105b190612d0a565b6002600154141561135d5760405162461bcd60e51b81526004016105b190612d41565b60026001558460006001600160a01b03821660009081526006602052604090205460ff1660018111156113a057634e487b7160e01b600052602160045260246000fd5b146113bd5760405162461bcd60e51b81526004016105b190612d78565b6001600160a01b0386166000908152600a602052604090206113df90866122d1565b6114205760405162461bcd60e51b81526020600482015260126024820152711d1bdad95b881dd85cc81b9bdd081cd95b1b60721b60448201526064016105b1565b6114356001600160a01b0385163330866122e9565b61144186868686612097565b50506001805550505050565b333b1561146c5760405162461bcd60e51b81526004016105b190612cdc565b33321461148b5760405162461bcd60e51b81526004016105b190612d0a565b600260015414156114ae5760405162461bcd60e51b81526004016105b190612d41565b60026001558360006001600160a01b03821660009081526006602052604090205460ff1660018111156114f157634e487b7160e01b600052602160045260246000fd5b1461150e5760405162461bcd60e51b81526004016105b190612d78565b6115236001600160a01b0384163330856122e9565b61152f85858585612310565b505060018055505050565b611542611cb3565b6001600160a01b03831660009081526006602052604081205460ff16600181111561157d57634e487b7160e01b600052602160045260246000fd5b146115dd5760405162461bcd60e51b815260206004820152602a60248201527f4d6f6469667920636f6c6c656374696f6e3a207468652073746174757320776160448201526939903737ba1037b832b760b11b60648201526084016105b1565b6115e8600784611d0d565b6116495760405162461bcd60e51b815260206004820152602c60248201527f4d6f6469667920636f6c6c656374696f6e3a2074686520636f6c6c656374696f60448201526b1b881b9bdd081b1a5cdd195960a21b60648201526084016105b1565b60055481111561169b5760405162461bcd60e51b815260206004820152601a60248201527f4d6f6469667920636f6c6c656374696f6e3a206d61785f66656500000000000060448201526064016105b1565b60408051606081018252600080825260208083018590526001600160a01b038681168486015287168252600690529190912081518154829060ff1916600183818111156116f857634e487b7160e01b600052602160045260246000fd5b02179055506020828101516001830155604092830151600290920180546001600160a01b0319166001600160a01b03938416179055825184815285831691810191909152908516917f6e3b53943b1a25c1f026d78d5ca41ca93327767504df7be6bfeada1660989d9891015b60405180910390a2505050565b611779611cb3565b6001600160a01b0381166117dd5760405162461bcd60e51b815260206004820152602560248201527f4572633732314e46544665654469737472696275746f723a207a65726f206164604482015264647265737360d81b60648201526084016105b1565b600280546001600160a01b0319166001600160a01b0392909216919091179055565b333b1561181e5760405162461bcd60e51b81526004016105b190612cdc565b33321461183d5760405162461bcd60e51b81526004016105b190612d0a565b600260015414156118605760405162461bcd60e51b81526004016105b190612d41565b60026001558160006001600160a01b03821660009081526006602052604090205460ff1660018111156118a357634e487b7160e01b600052602160045260246000fd5b146118c05760405162461bcd60e51b81526004016105b190612d78565b7f00000000000000000000000000000000000000000000000000000000000000006001600160a01b031663d0e30db0346040518263ffffffff1660e01b81526004016000604051808303818588803b15801561191b57600080fd5b505af115801561192f573d6000803e3d6000fd5b50505050506112aa83837f000000000000000000000000000000000000000000000000000000000000000034612310565b611968611cb3565b6001600160a01b0381166119cd5760405162461bcd60e51b815260206004820152602660248201527f4f776e61626c653a206e6577206f776e657220697320746865207a65726f206160448201526564647265737360d01b60648201526084016105b1565b6119d681612047565b50565b6119e1611cb3565b600554811115611a335760405162461bcd60e51b815260206004820152601760248201527f4e657720636f6c6c656374696f6e3a206d61785f66656500000000000000000060448201526064016105b1565b6001600160a01b038316611a895760405162461bcd60e51b815260206004820152601c60248201527f4e657720636f6c6c656374696f6e3a207a65726f20616464726573730000000060448201526064016105b1565b611a94600784611d0d565b611af25760405162461bcd60e51b815260206004820152602960248201527f4e657720636f6c6c656374696f6e3a20636f6c6c656374696f6e20616c726561604482015268191e481b1a5cdd195960ba1b60648201526084016105b1565b6040516301ffc9a760e01b81526380ac58cd60e01b60048201526001600160a01b038416906301ffc9a79060240160206040518083038186803b158015611b3857600080fd5b505afa158015611b4c573d6000803e3d6000fd5b505050506040513d601f19601f82011682018060405250810190611b709190612b0f565b611bbc5760405162461bcd60e51b815260206004820152601a60248201527f4e657720636f6c6c656374696f6e3a204e6f742045524337323100000000000060448201526064016105b1565b60408051606081018252600080825260208083018590526001600160a01b038681168486015287168252600690529190912081518154829060ff191660018381811115611c1957634e487b7160e01b600052602160045260246000fd5b021790555060208201516001820155604090910151600290910180546001600160a01b0319166001600160a01b03909216919091179055611c5b600784612455565b50604080518281526001600160a01b0384811660208301528516917f3d29e008d3c3ac1e8e834e55c2f088c20d73040d0a033b09e10de9193ed771199101611764565b6000611caa8383612466565b90505b92915050565b6000546001600160a01b031633146110e15760405162461bcd60e51b815260206004820181905260248201527f4f776e61626c653a2063616c6c6572206973206e6f7420746865206f776e657260448201526064016105b1565b6001600160a01b03811660009081526001830160205260408120541515611caa565b6000611caa836001600160a01b0384166124b5565b6001600160a01b038281166000908152600b60209081526040808320858452825280832033845282529182902082518084019093528054909316825260019092015491810182905290611dce5760405162461bcd60e51b8152602060048201526012602482015271109a590e88189a59081b9bdd08199bdd5b9960721b60448201526064016105b1565b611de933602083015183516001600160a01b03169190611fdf565b6001600160a01b0383166000818152600b6020908152604080832086845282528083203380855290835281842080546001600160a01b031916815560010193909355518581527fbd3087862a2ef6b9693b39cf415bf0c5ebd9238566d9b2778d3b1cee2c76ef9a910160405180910390a3505050565b6000611caa83836124b5565b6000611cad825490565b6000611caa83836125d2565b600254600090819081906001600160a01b031615611ee457611eba612710611eb46003548761260a90919063ffffffff16565b90612616565b600254909250611ed7906001600160a01b03878116911684611fdf565b611ee18183612622565b90505b6001600160a01b0386166000908152600660205260408082208151606081019092528054829060ff166001811115611f2c57634e487b7160e01b600052602160045260246000fd5b6001811115611f4b57634e487b7160e01b600052602160045260246000fd5b8152600182015460208201526002909101546001600160a01b03908116604092830152908201519192501615611fc757611f98612710611eb483602001518861260a90919063ffffffff16565b92508215611fba576040810151611fba906001600160a01b0388169085611fdf565b611fc48284612622565b91505b509150505b9392505050565b6000611caa8284612e11565b6040516001600160a01b03831660248201526044810182905261204290849063a9059cbb60e01b906064015b60408051601f198184030181529190526020810180516001600160e01b03166001600160e01b03199093169290921790915261262e565b505050565b600080546001600160a01b038381166001600160a01b0319831681178455604051919092169283917f8be0079c531659141344cd1fd0a4f28419497f9722a3daafe3b4186f6b6457e09190a35050565b6001600160a01b0380851660009081526009602090815260408083208784528252918290208251606081018452815485168152600182015485169281018390526002909101549281019290925290918416146121355760405162461bcd60e51b815260206004820152601a60248201527f4275793a20496e636f727265637420716f75746520746f6b656e00000000000060448201526064016105b1565b8181604001511461217f5760405162461bcd60e51b81526020600482015260146024820152734275793a20496e636f727265637420707269636560601b60448201526064016105b1565b600061218c868585611e81565b9050600061219a8483611fd3565b83519091506121b4906001600160a01b0387169083611fdf565b604051632142170760e11b81526001600160a01b038816906342842e0e906121e490309033908b90600401612ba6565b600060405180830381600087803b1580156121fe57600080fd5b505af1158015612212573d6000803e3d6000fd5b5050506001600160a01b03881660008181526009602090815260408083208b8452825280832080546001600160a01b031990811682556001820180549091169055600201839055928252600a90522061226c915087611e5f565b508251604080518881526001600160a01b0388811660208301528183018890526060820185905291518a831693339316917f8a181b821b6fbc45fb158a5ade70964c9d58849c1ac3cd4078aa9cff7f5d2049919081900360800190a450505050505050565b60008181526001830160205260408120541515611caa565b61230a846323b872dd60e01b85858560405160240161200b93929190612ba6565b50505050565b6000811161236c5760405162461bcd60e51b8152602060048201526024808201527f4269643a205072696365206d757374206265206772616e746572207468616e206044820152637a65726f60e01b60648201526084016105b1565b6001600160a01b0384166000908152600b602090815260408083208684528252808320338452909152902060010154156123aa576123aa8484611d44565b6040805180820182526001600160a01b0384811680835260208084018681528984166000818152600b84528781208b825284528781203380835290855290889020965187546001600160a01b031916961695909517865590516001909501949094558451888152908101919091528084018590529251919290917fdbd3618f64e1cad826227a83ae8ea52db3d7b6f308a388b197180168a722a3db916060908290030190a350505050565b6000611caa836001600160a01b0384165b60008181526001830160205260408120546124ad57508154600181810184556000848152602080822090930184905584548482528286019093526040902091909155611cad565b506000611cad565b600081815260018301602052604081205480156125c85760006124d9600183612e11565b85549091506000906124ed90600190612e11565b905081811461256e57600086600001828154811061251b57634e487b7160e01b600052603260045260246000fd5b906000526020600020015490508087600001848154811061254c57634e487b7160e01b600052603260045260246000fd5b6000918252602080832090910192909255918252600188019052604090208390555b855486908061258d57634e487b7160e01b600052603160045260246000fd5b600190038181906000526020600020016000905590558560010160008681526020019081526020016000206000905560019350505050611cad565b6000915050611cad565b60008260000182815481106125f757634e487b7160e01b600052603260045260246000fd5b9060005260206000200154905092915050565b6000611caa8284612df2565b6000611caa8284612dd2565b6000611caa8284612dba565b6000612683826040518060400160405280602081526020017f5361666545524332303a206c6f772d6c6576656c2063616c6c206661696c6564815250856001600160a01b03166127009092919063ffffffff16565b80519091501561204257808060200190518101906126a19190612b0f565b6120425760405162461bcd60e51b815260206004820152602a60248201527f5361666545524332303a204552433230206f7065726174696f6e20646964206e6044820152691bdd081cdd58d8d9595960b21b60648201526084016105b1565b606061270f8484600085612717565b949350505050565b6060824710156127785760405162461bcd60e51b815260206004820152602660248201527f416464726573733a20696e73756666696369656e742062616c616e636520666f6044820152651c8818d85b1b60d21b60648201526084016105b1565b6001600160a01b0385163b6127cf5760405162461bcd60e51b815260206004820152601d60248201527f416464726573733a2063616c6c20746f206e6f6e2d636f6e747261637400000060448201526064016105b1565b600080866001600160a01b031685876040516127eb9190612b8a565b60006040518083038185875af1925050503d8060008114612828576040519150601f19603f3d011682016040523d82523d6000602084013e61282d565b606091505b509150915061283d828286612848565b979650505050505050565b60608315612857575081611fcc565b8251156128675782518084602001fd5b8160405162461bcd60e51b81526004016105b19190612ca9565b80356001600160a01b038116811461289857600080fd5b919050565b6000602082840312156128ae578081fd5b611caa82612881565b6000806000606084860312156128cb578182fd5b6128d484612881565b92506128e260208501612881565b9150604084013590509250925092565b60008060008060808587031215612907578081fd5b61291085612881565b935061291e60208601612881565b925060408501359150606085013567ffffffffffffffff80821115612941578283fd5b818701915087601f830112612954578283fd5b81358181111561296657612966612e85565b604051601f8201601f19908116603f0116810190838211818310171561298e5761298e612e85565b816040528281528a60208487010111156129a6578586fd5b82602086016020830137918201602001949094529598949750929550505050565b600080604083850312156129d9578182fd5b6129e283612881565b946020939093013593505050565b600080600060608486031215612a04578283fd5b612a0d84612881565b925060208401359150612a2260408501612881565b90509250925092565b600080600080600060a08688031215612a42578081fd5b612a4b86612881565b945060208601359350612a6060408701612881565b9250612a6e60608701612881565b949793965091946080013592915050565b60008060008060808587031215612a94578384fd5b612a9d85612881565b935060208501359250612ab260408601612881565b9396929550929360600135925050565b600080600080600060a08688031215612ad9578081fd5b612ae286612881565b945060208601359350612af760408701612881565b94979396509394606081013594506080013592915050565b600060208284031215612b20578081fd5b81518015158114611fcc578182fd5b600060208284031215612b40578081fd5b5035919050565b60008060408385031215612b59578182fd5b50508035926020909101359150565b60028110612b8657634e487b7160e01b600052602160045260246000fd5b9052565b60008251612b9c818460208701612e28565b9190910192915050565b6001600160a01b039384168152919092166020820152604081019190915260600190565b60608082528451828201819052600091906020906080850190828901855b82811015612c0d5781516001600160a01b031684529284019290840190600101612be8565b50505084810382860152865180825287830191830190855b81811015612c65578351612c3a848251612b68565b80860151848701526040908101516001600160a01b0316908401529284019291850191600101612c25565b505080945050505050826040830152949350505050565b60608101612c8a8286612b68565b60208201939093526001600160a01b0391909116604090910152919050565b6020815260008251806020840152612cc8816040850160208701612e28565b601f01601f19169190910160400192915050565b60208082526014908201527310dbdb9d1c9858dd081b9bdd08185b1b1bddd95960621b604082015260600190565b6020808252601a908201527f50726f787920636f6e7472616374206e6f7420616c6c6f776564000000000000604082015260600190565b6020808252601f908201527f5265656e7472616e637947756172643a207265656e7472616e742063616c6c00604082015260600190565b60208082526022908201527f54686520636f6c6c656374696f6e2073746174757320776173206e6f74206f7060408201526132b760f11b606082015260800190565b60008219821115612dcd57612dcd612e6f565b500190565b600082612ded57634e487b7160e01b81526012600452602481fd5b500490565b6000816000190483118215151615612e0c57612e0c612e6f565b500290565b600082821015612e2357612e23612e6f565b500390565b60005b83811015612e43578181015183820152602001612e2b565b8381111561230a5750506000910152565b6000600019821415612e6857612e68612e6f565b5060010190565b634e487b7160e01b600052601160045260246000fd5b634e487b7160e01b600052604160045260246000fdfea2646970667358221220d6d2967d0239c0820df0330b4fa0a132c71608f57f4ecae7a63baf66620007e164736f6c63430008040033",
  "linkReferences": {},
  "deployedLinkReferences": {}
}