{
  "_format": "hh-sol-artifact-1",
  "contractName": "ERC721NFTMarket",
  "sourceName": "contracts/nft-marketplace/erc721-marketplace/ERC721NFTMarket.sol",
  "abi": [
    {
      "inputs": [
        {
          "internalType": "address",
          "name": "_weth",
          "type": "address"
        },
        {
          "internalType": "address",
          "name": "_feeRecipient",
          "type": "address"
        },
        {
          "internalType": "uint256",
          "name": "_feePercent",
          "type": "uint256"
        }
      ],
      "stateMutability": "nonpayable",
      "type": "constructor"
    },
    {
      "anonymous": false,
      "inputs": [
        {
          "indexed": true,
          "internalType": "address",
          "name": "_seller",
          "type": "address"
        },
        {
          "indexed": true,
          "internalType": "address",
          "name": "bidder",
          "type": "address"
        },
        {
          "indexed": true,
          "internalType": "address",
          "name": "_nft",
          "type": "address"
        },
        {
          "indexed": false,
          "internalType": "uint256",
          "name": "_tokenId",
          "type": "uint256"
        },
        {
          "indexed": false,
          "internalType": "address",
          "name": "_quoteToken",
          "type": "address"
        },
        {
          "indexed": false,
          "internalType": "uint256",
          "name": "_price",
          "type": "uint256"
        },
        {
          "indexed": false,
          "internalType": "uint256",
          "name": "_netPrice",
          "type": "uint256"
        }
      ],
      "name": "AcceptBid",
      "type": "event"
    },
    {
      "anonymous": false,
      "inputs": [
        {
          "indexed": true,
          "internalType": "address",
          "name": "_seller",
          "type": "address"
        },
        {
          "indexed": true,
          "internalType": "address",
          "name": "_nft",
          "type": "address"
        },
        {
          "indexed": false,
          "internalType": "uint256",
          "name": "_tokenId",
          "type": "uint256"
        }
      ],
      "name": "AskCancel",
      "type": "event"
    },
    {
      "anonymous": false,
      "inputs": [
        {
          "indexed": true,
          "internalType": "address",
          "name": "_seller",
          "type": "address"
        },
        {
          "indexed": true,
          "internalType": "address",
          "name": "_nft",
          "type": "address"
        },
        {
          "indexed": false,
          "internalType": "uint256",
          "name": "_tokenId",
          "type": "uint256"
        },
        {
          "indexed": false,
          "internalType": "address",
          "name": "_quoteToken",
          "type": "address"
        },
        {
          "indexed": false,
          "internalType": "uint256",
          "name": "_price",
          "type": "uint256"
        }
      ],
      "name": "AskNew",
      "type": "event"
    },
    {
      "anonymous": false,
      "inputs": [
        {
          "indexed": true,
          "internalType": "address",
          "name": "bidder",
          "type": "address"
        },
        {
          "indexed": true,
          "internalType": "address",
          "name": "_nft",
          "type": "address"
        },
        {
          "indexed": false,
          "internalType": "uint256",
          "name": "_tokenId",
          "type": "uint256"
        },
        {
          "indexed": false,
          "internalType": "address",
          "name": "_quoteToken",
          "type": "address"
        },
        {
          "indexed": false,
          "internalType": "uint256",
          "name": "_price",
          "type": "uint256"
        }
      ],
      "name": "Bid",
      "type": "event"
    },
    {
      "anonymous": false,
      "inputs": [
        {
          "indexed": true,
          "internalType": "address",
          "name": "bidder",
          "type": "address"
        },
        {
          "indexed": true,
          "internalType": "address",
          "name": "_nft",
          "type": "address"
        },
        {
          "indexed": false,
          "internalType": "uint256",
          "name": "_tokenId",
          "type": "uint256"
        }
      ],
      "name": "CancelBid",
      "type": "event"
    },
    {
      "anonymous": false,
      "inputs": [
        {
          "indexed": true,
          "internalType": "address",
          "name": "collection",
          "type": "address"
        }
      ],
      "name": "CloseCollection",
      "type": "event"
    },
    {
      "anonymous": false,
      "inputs": [
        {
          "indexed": true,
          "internalType": "address",
          "name": "collection",
          "type": "address"
        },
        {
          "indexed": false,
          "internalType": "uint256",
          "name": "creatorFee",
          "type": "uint256"
        },
        {
          "indexed": false,
          "internalType": "address",
          "name": "creator",
          "type": "address"
        }
      ],
      "name": "ModifyCollection",
      "type": "event"
    },
    {
      "anonymous": false,
      "inputs": [
        {
          "indexed": true,
          "internalType": "address",
          "name": "collection",
          "type": "address"
        },
        {
          "indexed": false,
          "internalType": "uint256",
          "name": "creatorFee",
          "type": "uint256"
        },
        {
          "indexed": false,
          "internalType": "address",
          "name": "creator",
          "type": "address"
        }
      ],
      "name": "NewCollection",
      "type": "event"
    },
    {
      "anonymous": false,
      "inputs": [
        {
          "indexed": true,
          "internalType": "address",
          "name": "previousOwner",
          "type": "address"
        },
        {
          "indexed": true,
          "internalType": "address",
          "name": "newOwner",
          "type": "address"
        }
      ],
      "name": "OwnershipTransferred",
      "type": "event"
    },
    {
      "anonymous": false,
      "inputs": [
        {
          "indexed": true,
          "internalType": "address",
          "name": "_seller",
          "type": "address"
        },
        {
          "indexed": true,
          "internalType": "address",
          "name": "buyer",
          "type": "address"
        },
        {
          "indexed": true,
          "internalType": "address",
          "name": "_nft",
          "type": "address"
        },
        {
          "indexed": false,
          "internalType": "uint256",
          "name": "_tokenId",
          "type": "uint256"
        },
        {
          "indexed": false,
          "internalType": "address",
          "name": "_quoteToken",
          "type": "address"
        },
        {
          "indexed": false,
          "internalType": "uint256",
          "name": "_price",
          "type": "uint256"
        },
        {
          "indexed": false,
          "internalType": "uint256",
          "name": "_netPrice",
          "type": "uint256"
        }
      ],
      "name": "Trade",
      "type": "event"
    },
    {
      "inputs": [],
      "name": "MAX_FEE",
      "outputs": [
        {
          "internalType": "uint256",
          "name": "",
          "type": "uint256"
        }
      ],
      "stateMutability": "view",
      "type": "function"
    },
    {
      "inputs": [],
      "name": "WETH",
      "outputs": [
        {
          "internalType": "address",
          "name": "",
          "type": "address"
        }
      ],
      "stateMutability": "view",
      "type": "function"
    },
    {
      "inputs": [
        {
          "internalType": "address",
          "name": "_nft",
          "type": "address"
        },
        {
          "internalType": "uint256",
          "name": "_tokenId",
          "type": "uint256"
        },
        {
          "internalType": "address",
          "name": "_bidder",
          "type": "address"
        },
        {
          "internalType": "address",
          "name": "_quoteToken",
          "type": "address"
        },
        {
          "internalType": "uint256",
          "name": "_price",
          "type": "uint256"
        }
      ],
      "name": "acceptBid",
      "outputs": [],
      "stateMutability": "nonpayable",
      "type": "function"
    },
    {
      "inputs": [
        {
          "internalType": "address",
          "name": "",
          "type": "address"
        },
        {
          "internalType": "uint256",
          "name": "",
          "type": "uint256"
        }
      ],
      "name": "asks",
      "outputs": [
        {
          "internalType": "address",
          "name": "seller",
          "type": "address"
        },
        {
          "internalType": "address",
          "name": "quoteToken",
          "type": "address"
        },
        {
          "internalType": "uint256",
          "name": "price",
          "type": "uint256"
        }
      ],
      "stateMutability": "view",
      "type": "function"
    },
    {
      "inputs": [
        {
          "internalType": "address",
          "name": "",
          "type": "address"
        },
        {
          "internalType": "uint256",
          "name": "",
          "type": "uint256"
        },
        {
          "internalType": "address",
          "name": "",
          "type": "address"
        }
      ],
      "name": "bids",
      "outputs": [
        {
          "internalType": "address",
          "name": "quoteToken",
          "type": "address"
        },
        {
          "internalType": "uint256",
          "name": "price",
          "type": "uint256"
        }
      ],
      "stateMutability": "view",
      "type": "function"
    },
    {
      "inputs": [
        {
          "internalType": "address",
          "name": "_nft",
          "type": "address"
        },
        {
          "internalType": "uint256",
          "name": "_tokenId",
          "type": "uint256"
        },
        {
          "internalType": "address",
          "name": "_quoteToken",
          "type": "address"
        },
        {
          "internalType": "uint256",
          "name": "_price",
          "type": "uint256"
        },
        {
          "internalType": "bytes32",
          "name": "_fingeprint",
          "type": "bytes32"
        }
      ],
      "name": "buy",
      "outputs": [],
      "stateMutability": "nonpayable",
      "type": "function"
    },
    {
      "inputs": [
        {
          "internalType": "address",
          "name": "_nft",
          "type": "address"
        },
        {
          "internalType": "uint256",
          "name": "_tokenId",
          "type": "uint256"
        }
      ],
      "name": "buyUsingNative",
      "outputs": [],
      "stateMutability": "payable",
      "type": "function"
    },
    {
      "inputs": [
        {
          "internalType": "address",
          "name": "_nft",
          "type": "address"
        },
        {
          "internalType": "uint256",
          "name": "_tokenId",
          "type": "uint256"
        }
      ],
      "name": "cancelAsk",
      "outputs": [],
      "stateMutability": "nonpayable",
      "type": "function"
    },
    {
      "inputs": [
        {
          "internalType": "address",
          "name": "_nft",
          "type": "address"
        },
        {
          "internalType": "uint256",
          "name": "_tokenId",
          "type": "uint256"
        }
      ],
      "name": "cancelBid",
      "outputs": [],
      "stateMutability": "nonpayable",
      "type": "function"
    },
    {
      "inputs": [
        {
          "internalType": "address",
          "name": "_collection",
          "type": "address"
        }
      ],
      "name": "closeCollection",
      "outputs": [],
      "stateMutability": "nonpayable",
      "type": "function"
    },
    {
      "inputs": [
        {
          "internalType": "address",
          "name": "",
          "type": "address"
        }
      ],
      "name": "collections",
      "outputs": [
        {
          "internalType": "enum ERC721NFTCollectionManager.CollectionStatus",
          "name": "status",
          "type": "uint8"
        },
        {
          "internalType": "uint256",
          "name": "creatorFee",
          "type": "uint256"
        },
        {
          "internalType": "address",
          "name": "creator",
          "type": "address"
        }
      ],
      "stateMutability": "view",
      "type": "function"
    },
    {
      "inputs": [
        {
          "internalType": "address",
          "name": "_nft",
          "type": "address"
        },
        {
          "internalType": "uint256",
          "name": "_tokenId",
          "type": "uint256"
        },
        {
          "internalType": "address",
          "name": "_quoteToken",
          "type": "address"
        },
        {
          "internalType": "uint256",
          "name": "_price",
          "type": "uint256"
        }
      ],
      "name": "createAsk",
      "outputs": [],
      "stateMutability": "nonpayable",
      "type": "function"
    },
    {
      "inputs": [
        {
          "internalType": "address",
          "name": "_nft",
          "type": "address"
        },
        {
          "internalType": "uint256",
          "name": "_tokenId",
          "type": "uint256"
        },
        {
          "internalType": "address",
          "name": "_quoteToken",
          "type": "address"
        },
        {
          "internalType": "uint256",
          "name": "_price",
          "type": "uint256"
        }
      ],
      "name": "createBid",
      "outputs": [],
      "stateMutability": "nonpayable",
      "type": "function"
    },
    {
      "inputs": [
        {
          "internalType": "address",
          "name": "_nft",
          "type": "address"
        },
        {
          "internalType": "uint256",
          "name": "_tokenId",
          "type": "uint256"
        }
      ],
      "name": "createBidUsingNative",
      "outputs": [],
      "stateMutability": "payable",
      "type": "function"
    },
    {
      "inputs": [
        {
          "internalType": "address",
          "name": "_collection",
          "type": "address"
        },
        {
          "internalType": "address",
          "name": "_creator",
          "type": "address"
        },
        {
          "internalType": "uint256",
          "name": "_creatorFee",
          "type": "uint256"
        }
      ],
      "name": "modifyCollection",
      "outputs": [],
      "stateMutability": "nonpayable",
      "type": "function"
    },
    {
      "inputs": [
        {
          "internalType": "address",
          "name": "_collection",
          "type": "address"
        },
        {
          "internalType": "address",
          "name": "_creator",
          "type": "address"
        },
        {
          "internalType": "uint256",
          "name": "_creatorFee",
          "type": "uint256"
        }
      ],
      "name": "newCollection",
      "outputs": [],
      "stateMutability": "nonpayable",
      "type": "function"
    },
    {
      "inputs": [
        {
          "internalType": "address",
          "name": "",
          "type": "address"
        },
        {
          "internalType": "address",
          "name": "",
          "type": "address"
        },
        {
          "internalType": "uint256",
          "name": "",
          "type": "uint256"
        },
        {
          "internalType": "bytes",
          "name": "",
          "type": "bytes"
        }
      ],
      "name": "onERC721Received",
      "outputs": [
        {
          "internalType": "bytes4",
          "name": "",
          "type": "bytes4"
        }
      ],
      "stateMutability": "nonpayable",
      "type": "function"
    },
    {
      "inputs": [],
      "name": "owner",
      "outputs": [
        {
          "internalType": "address",
          "name": "",
          "type": "address"
        }
      ],
      "stateMutability": "view",
      "type": "function"
    },
    {
      "inputs": [],
      "name": "protocolFeePercent",
      "outputs": [
        {
          "internalType": "uint256",
          "name": "",
          "type": "uint256"
        }
      ],
      "stateMutability": "view",
      "type": "function"
    },
    {
      "inputs": [],
      "name": "protocolFeeRecipient",
      "outputs": [
        {
          "internalType": "address",
          "name": "",
          "type": "address"
        }
      ],
      "stateMutability": "view",
      "type": "function"
    },
    {
      "inputs": [],
      "name": "renounceOwnership",
      "outputs": [],
      "stateMutability": "nonpayable",
      "type": "function"
    },
    {
      "inputs": [
        {
          "internalType": "uint256",
          "name": "_percent",
          "type": "uint256"
        }
      ],
      "name": "setProtocolFeePercent",
      "outputs": [],
      "stateMutability": "nonpayable",
      "type": "function"
    },
    {
      "inputs": [
        {
          "internalType": "address",
          "name": "_recipient",
          "type": "address"
        }
      ],
      "name": "setProtocolFeeRecipient",
      "outputs": [],
      "stateMutability": "nonpayable",
      "type": "function"
    },
    {
      "inputs": [
        {
          "internalType": "address",
          "name": "newOwner",
          "type": "address"
        }
      ],
      "name": "transferOwnership",
      "outputs": [],
      "stateMutability": "nonpayable",
      "type": "function"
    },
    {
      "inputs": [
        {
          "internalType": "address",
          "name": "_collection",
          "type": "address"
        },
        {
          "internalType": "uint256",
          "name": "_cursor",
          "type": "uint256"
        },
        {
          "internalType": "uint256",
          "name": "_size",
          "type": "uint256"
        }
      ],
      "name": "viewAsksByCollection",
      "outputs": [
        {
          "internalType": "uint256[]",
          "name": "tokenIds",
          "type": "uint256[]"
        },
        {
          "components": [
            {
              "internalType": "address",
              "name": "seller",
              "type": "address"
            },
            {
              "internalType": "address",
              "name": "quoteToken",
              "type": "address"
            },
            {
              "internalType": "uint256",
              "name": "price",
              "type": "uint256"
            }
          ],
          "internalType": "struct ERC721NFTMarket.Ask[]",
          "name": "askInfo",
          "type": "tuple[]"
        },
        {
          "internalType": "uint256",
          "name": "",
          "type": "uint256"
        }
      ],
      "stateMutability": "view",
      "type": "function"
    },
    {
      "inputs": [
        {
          "internalType": "address",
          "name": "_collection",
          "type": "address"
        },
        {
          "internalType": "uint256[]",
          "name": "_tokenIds",
          "type": "uint256[]"
        }
      ],
      "name": "viewAsksByCollectionAndTokenIds",
      "outputs": [
        {
          "internalType": "bool[]",
          "name": "statuses",
          "type": "bool[]"
        },
        {
          "components": [
            {
              "internalType": "address",
              "name": "seller",
              "type": "address"
            },
            {
              "internalType": "address",
              "name": "quoteToken",
              "type": "address"
            },
            {
              "internalType": "uint256",
              "name": "price",
              "type": "uint256"
            }
          ],
          "internalType": "struct ERC721NFTMarket.Ask[]",
          "name": "askInfo",
          "type": "tuple[]"
        }
      ],
      "stateMutability": "view",
      "type": "function"
    },
    {
      "inputs": [
        {
          "internalType": "uint256",
          "name": "cursor",
          "type": "uint256"
        },
        {
          "internalType": "uint256",
          "name": "size",
          "type": "uint256"
        }
      ],
      "name": "viewCollections",
      "outputs": [
        {
          "internalType": "address[]",
          "name": "collectionAddresses",
          "type": "address[]"
        },
        {
          "components": [
            {
              "internalType": "enum ERC721NFTCollectionManager.CollectionStatus",
              "name": "status",
              "type": "uint8"
            },
            {
              "internalType": "uint256",
              "name": "creatorFee",
              "type": "uint256"
            },
            {
              "internalType": "address",
              "name": "creator",
              "type": "address"
            }
          ],
          "internalType": "struct ERC721NFTCollectionManager.Collection[]",
          "name": "collectionDetails",
          "type": "tuple[]"
        },
        {
          "internalType": "uint256",
          "name": "",
          "type": "uint256"
        }
      ],
      "stateMutability": "view",
      "type": "function"
    }
  ],
  "bytecode": "0x60a060405260fa6003556101f46005553480156200001c57600080fd5b506040516200377f3803806200377f8339810160408190526200003f91620000f9565b81816200004c336200008c565b60018055600280546001600160a01b0319166001600160a01b039390931692909217909155600355505060601b6001600160601b03191660805262000139565b600080546001600160a01b038381166001600160a01b0319831681178455604051919092169283917f8be0079c531659141344cd1fd0a4f28419497f9722a3daafe3b4186f6b6457e09190a35050565b80516001600160a01b0381168114620000f457600080fd5b919050565b6000806000606084860312156200010e578283fd5b6200011984620000dc565b92506200012960208501620000dc565b9150604084015190509250925092565b60805160601c61360b620001746000396000818161041f0152818161177c015281816117f501528181611e350152611eae015261360b6000f3fe60806040526004361061019b5760003560e01c80639e7dfc7b116100ec578063dd7689221161008a578063e521cb9211610064578063e521cb92146105ae578063e80fbc90146105ce578063f2fde38b146105e1578063f375ceab1461060157600080fd5b8063dd768922146104bb578063e22d4f7d1461052b578063e4ce18061461058e57600080fd5b8063bbafdf54116100c6578063bbafdf5414610441578063bc063e1a14610461578063bd3a27b014610485578063d6e6eb9f146104a557600080fd5b80639e7dfc7b146103da578063a4983421146103ed578063ad5c46481461040d57600080fd5b806343add2e6116101595780636fa92cb8116101335780636fa92cb814610358578063715018a61461037857806384a408641461038d5780638da5cb5b146103bc57600080fd5b806343add2e61461029957806351c383ea146102f157806364df049e1461032057600080fd5b80626795d5146101a0578063150b7a02146101c257806322f67b6d1461020b57806332796c7d1461023957806339b6b1e51461025957806340b8074614610279575b600080fd5b3480156101ac57600080fd5b506101c06101bb366004613073565b610621565b005b3480156101ce57600080fd5b506101ed6101dd366004612e65565b630a85bd0160e11b949350505050565b6040516001600160e01b031990911681526020015b60405180910390f35b34801561021757600080fd5b5061022b610226366004612f3a565b6108a1565b6040516102029291906132fe565b34801561024557600080fd5b506101c0610254366004612e10565b610afc565b34801561026557600080fd5b506101c0610274366004612fbb565b610bd5565b34801561028557600080fd5b506101c0610294366004612fbb565b610c0f565b3480156102a557600080fd5b506102e26102b4366004612e10565b60066020526000908152604090208054600182015460029092015460ff90911691906001600160a01b031683565b604051610202939291906133b6565b3480156102fd57600080fd5b5061031161030c36600461316d565b610d9f565b6040516102029392919061324c565b34801561032c57600080fd5b50600254610340906001600160a01b031681565b6040516001600160a01b039091168152602001610202565b34801561036457600080fd5b506101c061037336600461301f565b611014565b34801561038457600080fd5b506101c06113bd565b34801561039957600080fd5b506103ad6103a8366004613103565b6113d1565b60405161020293929190613357565b3480156103c857600080fd5b506000546001600160a01b0316610340565b6101c06103e8366004612fbb565b611653565b3480156103f957600080fd5b506101c0610408366004613155565b611823565b34801561041957600080fd5b506103407f000000000000000000000000000000000000000000000000000000000000000081565b34801561044d57600080fd5b506101c061045c3660046130b6565b61186c565b34801561046d57600080fd5b5061047760055481565b604051908152602001610202565b34801561049157600080fd5b506101c06104a0366004613073565b6119bd565b3480156104b157600080fd5b5061047760035481565b3480156104c757600080fd5b5061050c6104d6366004612fe4565b600b602090815260009384526040808520825292845282842090528252902080546001909101546001600160a01b039091169082565b604080516001600160a01b039093168352602083019190915201610202565b34801561053757600080fd5b5061057f610546366004612fbb565b60096020908152600092835260408084209091529082529020805460018201546002909201546001600160a01b03918216929091169083565b60405161020293929190613228565b34801561059a57600080fd5b506101c06105a9366004612e2a565b611aaa565b3480156105ba57600080fd5b506101c06105c9366004612e10565b611ce1565b6101c06105dc366004612fbb565b611d72565b3480156105ed57600080fd5b506101c06105fc366004612e10565b611ed3565b34801561060d57600080fd5b506101c061061c366004612e2a565b611f4c565b6002600154141561064d5760405162461bcd60e51b81526004016106449061347b565b60405180910390fd5b6002600155333b156106715760405162461bcd60e51b815260040161064490613416565b3332146106905760405162461bcd60e51b815260040161064490613444565b8360006001600160a01b03821660009081526006602052604090205460ff1660018111156106ce57634e487b7160e01b600052602160045260246000fd5b146106eb5760405162461bcd60e51b8152600401610644906134b2565b600082116107475760405162461bcd60e51b8152602060048201526024808201527f41736b3a205072696365206d7573742062652067726561746572207468616e206044820152637a65726f60e01b6064820152608401610644565b604051632142170760e11b81526001600160a01b038616906342842e0e9061077790339030908990600401613228565b600060405180830381600087803b15801561079157600080fd5b505af11580156107a5573d6000803e3d6000fd5b5050505060405180606001604052806107bb3390565b6001600160a01b03908116825285811660208084019190915260409283018690528882166000818152600983528481208a82528352848120865181549086166001600160a01b0319918216178255878501516001830180549190971691161790945594840151600290930192909255908352600a9052902061083d9085612211565b506001600160a01b03851633604080518781526001600160a01b0387811660208301529181018690529116907f9a334381123a2a5affb4d69737ab464025dee3156576bab65294d6b7e9d49dec9060600160405180910390a3505060018055505050565b606080828067ffffffffffffffff8111156108cc57634e487b7160e01b600052604160045260246000fd5b6040519080825280602002602001820160405280156108f5578160200160208202803683370190505b5092508067ffffffffffffffff81111561091f57634e487b7160e01b600052604160045260246000fd5b60405190808252806020026020018201604052801561096a57816020015b604080516060810182526000808252602080830182905292820152825260001990920191018161093d5790505b50915060005b81811015610af2576109c286868381811061099b57634e487b7160e01b600052603260045260246000fd5b6001600160a01b038b166000908152600a6020908152604090912093910201359050612226565b156109fe5760018482815181106109e957634e487b7160e01b600052603260045260246000fd5b91151560209283029190910190910152610a31565b6000848281518110610a2057634e487b7160e01b600052603260045260246000fd5b911515602092830291909101909101525b6001600160a01b038716600090815260096020526040812090878784818110610a6a57634e487b7160e01b600052603260045260246000fd5b60209081029290920135835250818101929092526040908101600020815160608101835281546001600160a01b0390811682526001830154169381019390935260020154908201528351849083908110610ad457634e487b7160e01b600052603260045260246000fd5b60200260200101819052508080610aea9061358e565b915050610970565b5050935093915050565b610b0461223e565b610b0f600782612298565b610b6f5760405162461bcd60e51b815260206004820152602b60248201527f436c6f736520636f6c6c656374696f6e3a2074686520636f6c6c656374696f6e60448201526a081b9bdd081b1a5cdd195960aa1b6064820152608401610644565b6001600160a01b0381166000908152600660205260409020805460ff19166001179055610b9d6007826122ba565b506040516001600160a01b038216907f9b484b84384aae1cfcf87460de468e0e38dca97450aca6f5ba47e529293a75ab90600090a250565b60026001541415610bf85760405162461bcd60e51b81526004016106449061347b565b6002600155610c0782826122cf565b505060018055565b60026001541415610c325760405162461bcd60e51b81526004016106449061347b565b60026001556001600160a01b038281166000908152600960209081526040808320858452909152902054163314610c9e5760405162461bcd60e51b815260206004820152601060248201526f20b9b59d1037b7363c9039b2b63632b960811b6044820152606401610644565b604051632142170760e11b81526001600160a01b038316906342842e0e90610cce90309033908690600401613228565b600060405180830381600087803b158015610ce857600080fd5b505af1158015610cfc573d6000803e3d6000fd5b5050506001600160a01b0383166000818152600960209081526040808320868452825280832080546001600160a01b031990811682556001820180549091169055600201839055928252600a905220610d569150826123ea565b506040518181526001600160a01b0383169033907fa5764ea233325154a6388255c54b9f302ec2ed8586af0a9a606cd64e88298eb79060200160405180910390a3505060018055565b60608060008385610db060076123f6565b610dba919061354b565b811115610dd95785610dcc60076123f6565b610dd6919061354b565b90505b8067ffffffffffffffff811115610e0057634e487b7160e01b600052604160045260246000fd5b604051908082528060200260200182016040528015610e29578160200160208202803683370190505b5093508067ffffffffffffffff811115610e5357634e487b7160e01b600052604160045260246000fd5b604051908082528060200260200182016040528015610e9e57816020015b6040805160608101825260008082526020808301829052928201528252600019909201910181610e715790505b50925060005b81811015610ff957610ec1610eb982896134f4565b600790612400565b858281518110610ee157634e487b7160e01b600052603260045260246000fd5b60200260200101906001600160a01b031690816001600160a01b03168152505060066000868381518110610f2557634e487b7160e01b600052603260045260246000fd5b6020908102919091018101516001600160a01b0316825281019190915260409081016000208151606081019092528054829060ff166001811115610f7957634e487b7160e01b600052602160045260246000fd5b6001811115610f9857634e487b7160e01b600052602160045260246000fd5b8152600182015460208201526002909101546001600160a01b03166040909101528451859083908110610fdb57634e487b7160e01b600052603260045260246000fd5b60200260200101819052508080610ff19061358e565b915050610ea4565b50838361100683896134f4565b935093509350509250925092565b600260015414156110375760405162461bcd60e51b81526004016106449061347b565b60026001558460006001600160a01b03821660009081526006602052604090205460ff16600181111561107a57634e487b7160e01b600052602160045260246000fd5b146110975760405162461bcd60e51b8152600401610644906134b2565b6001600160a01b038087166000908152600b60209081526040808320898452825280832088851684528252918290208251808401909352805490931682526001909201549181018290529083146111305760405162461bcd60e51b815260206004820152601860248201527f4163636570744269643a20696e76616c696420707269636500000000000000006044820152606401610644565b836001600160a01b031681600001516001600160a01b0316146111955760405162461bcd60e51b815260206004820152601d60248201527f4163636570744269643a20696e76616c69642071756f7465546f6b656e0000006044820152606401610644565b6001600160a01b0387811660009081526009602090815260408083208a8452909152902054163381141561122a57604051632142170760e11b81526001600160a01b038916906342842e0e906111f39030908a908c90600401613228565b600060405180830381600087803b15801561120d57600080fd5b505af1158015611221573d6000803e3d6000fd5b50505050611290565b50604051632142170760e11b815233906001600160a01b038916906342842e0e9061125d9084908a908c90600401613228565b600060405180830381600087803b15801561127757600080fd5b505af115801561128b573d6000803e3d6000fd5b505050505b600061129d89878761240c565b905060006112ab868361255e565b90506112c16001600160a01b038816848361256a565b6001600160a01b038a1660008181526009602090815260408083208d8452825280832080546001600160a01b031990811682556001820180549091169055600201839055928252600a905220611317908a6123ea565b506001600160a01b038a81166000818152600b602090815260408083208e845282528083208d861680855290835281842080546001600160a01b03191681556001019390935580518e81528c86169281019290925281018a90526060810185905291929091908616907f110ad5be64e5fef5d8a9433938fccf79b5b6623af1a17f0990815ed076abdb589060800160405180910390a45050600180555050505050505050565b6113c561223e565b6113cf60006125d2565b565b6001600160a01b0383166000908152600a602052604081206060918291849086906113fb906123f6565b611405919061354b565b81111561143c576001600160a01b0387166000908152600a60205260409020869061142f906123f6565b611439919061354b565b90505b8067ffffffffffffffff81111561146357634e487b7160e01b600052604160045260246000fd5b60405190808252806020026020018201604052801561148c578160200160208202803683370190505b5093508067ffffffffffffffff8111156114b657634e487b7160e01b600052604160045260246000fd5b60405190808252806020026020018201604052801561150157816020015b60408051606081018252600080825260208083018290529282015282526000199092019101816114d45790505b50925060005b818110156116365761153a61151c82896134f4565b6001600160a01b038a166000908152600a6020526040902090612400565b85828151811061155a57634e487b7160e01b600052603260045260246000fd5b60200260200101818152505060096000896001600160a01b03166001600160a01b0316815260200190815260200160002060008683815181106115ad57634e487b7160e01b600052603260045260246000fd5b6020908102919091018101518252818101929092526040908101600020815160608101835281546001600160a01b039081168252600183015416938101939093526002015490820152845185908390811061161857634e487b7160e01b600052603260045260246000fd5b6020026020010181905250808061162e9061358e565b915050611507565b50838361164383896134f4565b9350935093505093509350939050565b600260015414156116765760405162461bcd60e51b81526004016106449061347b565b6002600155333b1561169a5760405162461bcd60e51b815260040161064490613416565b3332146116b95760405162461bcd60e51b815260040161064490613444565b8160006001600160a01b03821660009081526006602052604090205460ff1660018111156116f757634e487b7160e01b600052602160045260246000fd5b146117145760405162461bcd60e51b8152600401610644906134b2565b6001600160a01b0383811660009081526009602090815260408083208684529091529020541661177a5760405162461bcd60e51b81526020600482015260116024820152701d1bdad95b881a5cc81b9bdd081cd95b1b607a1b6044820152606401610644565b7f00000000000000000000000000000000000000000000000000000000000000006001600160a01b031663d0e30db0346040518263ffffffff1660e01b81526004016000604051808303818588803b1580156117d557600080fd5b505af11580156117e9573d6000803e3d6000fd5b505050505061181a83837f000000000000000000000000000000000000000000000000000000000000000034612622565b50506001805550565b61182b61223e565b6005548111156118675760405162461bcd60e51b81526020600482015260076024820152666d61785f66656560c81b6044820152606401610644565b600355565b333b1561188b5760405162461bcd60e51b815260040161064490613416565b3332146118aa5760405162461bcd60e51b815260040161064490613444565b600260015414156118cd5760405162461bcd60e51b81526004016106449061347b565b60026001558460006001600160a01b03821660009081526006602052604090205460ff16600181111561191057634e487b7160e01b600052602160045260246000fd5b1461192d5760405162461bcd60e51b8152600401610644906134b2565b6001600160a01b0386166000908152600a6020526040902061194f9086612226565b6119905760405162461bcd60e51b81526020600482015260126024820152711d1bdad95b881dd85cc81b9bdd081cd95b1b60721b6044820152606401610644565b6119a56001600160a01b03851633308661285c565b6119b186868686612622565b50506001805550505050565b333b156119dc5760405162461bcd60e51b815260040161064490613416565b3332146119fb5760405162461bcd60e51b815260040161064490613444565b60026001541415611a1e5760405162461bcd60e51b81526004016106449061347b565b60026001558360006001600160a01b03821660009081526006602052604090205460ff166001811115611a6157634e487b7160e01b600052602160045260246000fd5b14611a7e5760405162461bcd60e51b8152600401610644906134b2565b611a936001600160a01b03841633308561285c565b611a9f85858585612883565b505060018055505050565b611ab261223e565b6001600160a01b03831660009081526006602052604081205460ff166001811115611aed57634e487b7160e01b600052602160045260246000fd5b14611b4d5760405162461bcd60e51b815260206004820152602a60248201527f4d6f6469667920636f6c6c656374696f6e3a207468652073746174757320776160448201526939903737ba1037b832b760b11b6064820152608401610644565b611b58600784612298565b611bb95760405162461bcd60e51b815260206004820152602c60248201527f4d6f6469667920636f6c6c656374696f6e3a2074686520636f6c6c656374696f60448201526b1b881b9bdd081b1a5cdd195960a21b6064820152608401610644565b600554811115611c0b5760405162461bcd60e51b815260206004820152601a60248201527f4d6f6469667920636f6c6c656374696f6e3a206d61785f6665650000000000006044820152606401610644565b60408051606081018252600080825260208083018590526001600160a01b038681168486015287168252600690529190912081518154829060ff191660018381811115611c6857634e487b7160e01b600052602160045260246000fd5b02179055506020828101516001830155604092830151600290920180546001600160a01b0319166001600160a01b03938416179055825184815285831691810191909152908516917f6e3b53943b1a25c1f026d78d5ca41ca93327767504df7be6bfeada1660989d9891015b60405180910390a2505050565b611ce961223e565b6001600160a01b038116611d505760405162461bcd60e51b815260206004820152602860248201527f4552433732314e4654436f6c6c656374696f6e4d616e616765723a207a65726f604482015267206164647265737360c01b6064820152608401610644565b600280546001600160a01b0319166001600160a01b0392909216919091179055565b333b15611d915760405162461bcd60e51b815260040161064490613416565b333214611db05760405162461bcd60e51b815260040161064490613444565b60026001541415611dd35760405162461bcd60e51b81526004016106449061347b565b60026001558160006001600160a01b03821660009081526006602052604090205460ff166001811115611e1657634e487b7160e01b600052602160045260246000fd5b14611e335760405162461bcd60e51b8152600401610644906134b2565b7f00000000000000000000000000000000000000000000000000000000000000006001600160a01b031663d0e30db0346040518263ffffffff1660e01b81526004016000604051808303818588803b158015611e8e57600080fd5b505af1158015611ea2573d6000803e3d6000fd5b505050505061181a83837f000000000000000000000000000000000000000000000000000000000000000034612883565b611edb61223e565b6001600160a01b038116611f405760405162461bcd60e51b815260206004820152602660248201527f4f776e61626c653a206e6577206f776e657220697320746865207a65726f206160448201526564647265737360d01b6064820152608401610644565b611f49816125d2565b50565b611f5461223e565b600554811115611fa65760405162461bcd60e51b815260206004820152601760248201527f4e657720636f6c6c656374696f6e3a206d61785f6665650000000000000000006044820152606401610644565b6001600160a01b038316611ffc5760405162461bcd60e51b815260206004820152601c60248201527f4e657720636f6c6c656374696f6e3a207a65726f2061646472657373000000006044820152606401610644565b612007600784612298565b6120655760405162461bcd60e51b815260206004820152602960248201527f4e657720636f6c6c656374696f6e3a20636f6c6c656374696f6e20616c726561604482015268191e481b1a5cdd195960ba1b6064820152608401610644565b6040516301ffc9a760e01b81526380ac58cd60e01b60048201526001600160a01b038416906301ffc9a79060240160206040518083038186803b1580156120ab57600080fd5b505afa1580156120bf573d6000803e3d6000fd5b505050506040513d601f19601f820116820180604052508101906120e39190613135565b61212f5760405162461bcd60e51b815260206004820152601a60248201527f4e657720636f6c6c656374696f6e3a204e6f74204552433732310000000000006044820152606401610644565b60408051606081018252600080825260208083018590526001600160a01b038681168486015287168252600690529190912081518154829060ff19166001838181111561218c57634e487b7160e01b600052602160045260246000fd5b021790555060208201516001820155604090910151600290910180546001600160a01b0319166001600160a01b039092169190911790556121ce6007846129c8565b50604080518281526001600160a01b0384811660208301528516917f3d29e008d3c3ac1e8e834e55c2f088c20d73040d0a033b09e10de9193ed771199101611cd4565b600061221d83836129d9565b90505b92915050565b6000818152600183016020526040812054151561221d565b6000546001600160a01b031633146113cf5760405162461bcd60e51b815260206004820181905260248201527f4f776e61626c653a2063616c6c6572206973206e6f7420746865206f776e65726044820152606401610644565b6001600160a01b0381166000908152600183016020526040812054151561221d565b600061221d836001600160a01b038416612a28565b6001600160a01b038281166000908152600b602090815260408083208584528252808320338452825291829020825180840190935280549093168252600190920154918101829052906123595760405162461bcd60e51b8152602060048201526012602482015271109a590e88189a59081b9bdd08199bdd5b9960721b6044820152606401610644565b61237433602083015183516001600160a01b0316919061256a565b6001600160a01b0383166000818152600b6020908152604080832086845282528083203380855290835281842080546001600160a01b031916815560010193909355518581527fbd3087862a2ef6b9693b39cf415bf0c5ebd9238566d9b2778d3b1cee2c76ef9a910160405180910390a3505050565b600061221d8383612a28565b6000612220825490565b600061221d8383612b45565b600254600090819081906001600160a01b03161561246f5761244561271061243f60035487612b7d90919063ffffffff16565b90612b89565b600254909250612462906001600160a01b0387811691168461256a565b61246c8183612b95565b90505b6001600160a01b0386166000908152600660205260408082208151606081019092528054829060ff1660018111156124b757634e487b7160e01b600052602160045260246000fd5b60018111156124d657634e487b7160e01b600052602160045260246000fd5b8152600182015460208201526002909101546001600160a01b039081166040928301529082015191925016156125525761252361271061243f836020015188612b7d90919063ffffffff16565b92508215612545576040810151612545906001600160a01b038816908561256a565b61254f8284612b95565b91505b509150505b9392505050565b600061221d828461354b565b6040516001600160a01b0383166024820152604481018290526125cd90849063a9059cbb60e01b906064015b60408051601f198184030181529190526020810180516001600160e01b03166001600160e01b031990931692909217909152612ba1565b505050565b600080546001600160a01b038381166001600160a01b0319831681178455604051919092169283917f8be0079c531659141344cd1fd0a4f28419497f9722a3daafe3b4186f6b6457e09190a35050565b6001600160a01b0380851660009081526009602090815260408083208784528252918290208251606081018452815485168152600182015485169281018390526002909101549281019290925290918416146126c05760405162461bcd60e51b815260206004820152601a60248201527f4275793a20496e636f727265637420716f75746520746f6b656e0000000000006044820152606401610644565b8181604001511461270a5760405162461bcd60e51b81526020600482015260146024820152734275793a20496e636f727265637420707269636560601b6044820152606401610644565b600061271786858561240c565b90506000612725848361255e565b835190915061273f906001600160a01b038716908361256a565b604051632142170760e11b81526001600160a01b038816906342842e0e9061276f90309033908b90600401613228565b600060405180830381600087803b15801561278957600080fd5b505af115801561279d573d6000803e3d6000fd5b5050506001600160a01b03881660008181526009602090815260408083208b8452825280832080546001600160a01b031990811682556001820180549091169055600201839055928252600a9052206127f79150876123ea565b508251604080518881526001600160a01b0388811660208301528183018890526060820185905291518a831693339316917f8a181b821b6fbc45fb158a5ade70964c9d58849c1ac3cd4078aa9cff7f5d2049919081900360800190a450505050505050565b61287d846323b872dd60e01b85858560405160240161259693929190613228565b50505050565b600081116128df5760405162461bcd60e51b8152602060048201526024808201527f4269643a205072696365206d757374206265206772616e746572207468616e206044820152637a65726f60e01b6064820152608401610644565b6001600160a01b0384166000908152600b6020908152604080832086845282528083203384529091529020600101541561291d5761291d84846122cf565b6040805180820182526001600160a01b0384811680835260208084018681528984166000818152600b84528781208b825284528781203380835290855290889020965187546001600160a01b031916961695909517865590516001909501949094558451888152908101919091528084018590529251919290917fdbd3618f64e1cad826227a83ae8ea52db3d7b6f308a388b197180168a722a3db916060908290030190a350505050565b600061221d836001600160a01b0384165b6000818152600183016020526040812054612a2057508154600181810184556000848152602080822090930184905584548482528286019093526040902091909155612220565b506000612220565b60008181526001830160205260408120548015612b3b576000612a4c60018361354b565b8554909150600090612a609060019061354b565b9050818114612ae1576000866000018281548110612a8e57634e487b7160e01b600052603260045260246000fd5b9060005260206000200154905080876000018481548110612abf57634e487b7160e01b600052603260045260246000fd5b6000918252602080832090910192909255918252600188019052604090208390555b8554869080612b0057634e487b7160e01b600052603160045260246000fd5b600190038181906000526020600020016000905590558560010160008681526020019081526020016000206000905560019350505050612220565b6000915050612220565b6000826000018281548110612b6a57634e487b7160e01b600052603260045260246000fd5b9060005260206000200154905092915050565b600061221d828461352c565b600061221d828461350c565b600061221d82846134f4565b6000612bf6826040518060400160405280602081526020017f5361666545524332303a206c6f772d6c6576656c2063616c6c206661696c6564815250856001600160a01b0316612c739092919063ffffffff16565b8051909150156125cd5780806020019051810190612c149190613135565b6125cd5760405162461bcd60e51b815260206004820152602a60248201527f5361666545524332303a204552433230206f7065726174696f6e20646964206e6044820152691bdd081cdd58d8d9595960b21b6064820152608401610644565b6060612c828484600085612c8a565b949350505050565b606082471015612ceb5760405162461bcd60e51b815260206004820152602660248201527f416464726573733a20696e73756666696369656e742062616c616e636520666f6044820152651c8818d85b1b60d21b6064820152608401610644565b6001600160a01b0385163b612d425760405162461bcd60e51b815260206004820152601d60248201527f416464726573733a2063616c6c20746f206e6f6e2d636f6e74726163740000006044820152606401610644565b600080866001600160a01b03168587604051612d5e919061320c565b60006040518083038185875af1925050503d8060008114612d9b576040519150601f19603f3d011682016040523d82523d6000602084013e612da0565b606091505b5091509150612db0828286612dbb565b979650505050505050565b60608315612dca575081612557565b825115612dda5782518084602001fd5b8160405162461bcd60e51b815260040161064491906133e3565b80356001600160a01b0381168114612e0b57600080fd5b919050565b600060208284031215612e21578081fd5b61221d82612df4565b600080600060608486031215612e3e578182fd5b612e4784612df4565b9250612e5560208501612df4565b9150604084013590509250925092565b60008060008060808587031215612e7a578081fd5b612e8385612df4565b9350612e9160208601612df4565b925060408501359150606085013567ffffffffffffffff80821115612eb4578283fd5b818701915087601f830112612ec7578283fd5b813581811115612ed957612ed96135bf565b604051601f8201601f19908116603f01168101908382118183101715612f0157612f016135bf565b816040528281528a6020848701011115612f19578586fd5b82602086016020830137918201602001949094529598949750929550505050565b600080600060408486031215612f4e578283fd5b612f5784612df4565b9250602084013567ffffffffffffffff80821115612f73578384fd5b818601915086601f830112612f86578384fd5b813581811115612f94578485fd5b8760208260051b8501011115612fa8578485fd5b6020830194508093505050509250925092565b60008060408385031215612fcd578182fd5b612fd683612df4565b946020939093013593505050565b600080600060608486031215612ff8578283fd5b61300184612df4565b92506020840135915061301660408501612df4565b90509250925092565b600080600080600060a08688031215613036578081fd5b61303f86612df4565b94506020860135935061305460408701612df4565b925061306260608701612df4565b949793965091946080013592915050565b60008060008060808587031215613088578384fd5b61309185612df4565b9350602085013592506130a660408601612df4565b9396929550929360600135925050565b600080600080600060a086880312156130cd578081fd5b6130d686612df4565b9450602086013593506130eb60408701612df4565b94979396509394606081013594506080013592915050565b600080600060608486031215613117578283fd5b61312084612df4565b95602085013595506040909401359392505050565b600060208284031215613146578081fd5b81518015158114612557578182fd5b600060208284031215613166578081fd5b5035919050565b6000806040838503121561317f578182fd5b50508035926020909101359150565b6000815180845260208085019450808401835b838110156131df57815180516001600160a01b03908116895284820151168489015260409081015190880152606090960195908201906001016131a1565b509495945050505050565b6002811061320857634e487b7160e01b600052602160045260246000fd5b9052565b6000825161321e818460208701613562565b9190910192915050565b6001600160a01b039384168152919092166020820152604081019190915260600190565b60608082528451828201819052600091906020906080850190828901855b8281101561328f5781516001600160a01b03168452928401929084019060010161326a565b50505084810382860152865180825287830191830190855b818110156132e75783516132bc8482516131ea565b80860151848701526040908101516001600160a01b03169084015292840192918501916001016132a7565b505080945050505050826040830152949350505050565b604080825283519082018190526000906020906060840190828701845b8281101561333957815115158452928401929084019060010161331b565b5050508381038285015261334d818661318e565b9695505050505050565b606080825284519082018190526000906020906080840190828801845b8281101561339057815184529284019290840190600101613374565b505050838103828501526133a4818761318e565b92505050826040830152949350505050565b606081016133c482866131ea565b60208201939093526001600160a01b0391909116604090910152919050565b6020815260008251806020840152613402816040850160208701613562565b601f01601f19169190910160400192915050565b60208082526014908201527310dbdb9d1c9858dd081b9bdd08185b1b1bddd95960621b604082015260600190565b6020808252601a908201527f50726f787920636f6e7472616374206e6f7420616c6c6f776564000000000000604082015260600190565b6020808252601f908201527f5265656e7472616e637947756172643a207265656e7472616e742063616c6c00604082015260600190565b60208082526022908201527f54686520636f6c6c656374696f6e2073746174757320776173206e6f74206f7060408201526132b760f11b606082015260800190565b60008219821115613507576135076135a9565b500190565b60008261352757634e487b7160e01b81526012600452602481fd5b500490565b6000816000190483118215151615613546576135466135a9565b500290565b60008282101561355d5761355d6135a9565b500390565b60005b8381101561357d578181015183820152602001613565565b8381111561287d5750506000910152565b60006000198214156135a2576135a26135a9565b5060010190565b634e487b7160e01b600052601160045260246000fd5b634e487b7160e01b600052604160045260246000fdfea26469706673582212204c82615e0af83406c9af9381a00a749955c401487bea7a1268ca222154a5d27364736f6c63430008040033",
  "linkReferences": {},
  "deployedLinkReferences": {}
}