{
  "_format": "hh-sol-artifact-1",
  "contractName": "WhitelistRaising",
  "sourceName": "contracts/launchpad/whitelist/WhitelistRaising.sol",
  "abi": [
    {
      "inputs": [
        {
          "internalType": "contract ERC20",
          "name": "_offeringToken",
          "type": "address"
        },
        {
          "internalType": "uint256",
          "name": "_startTime",
          "type": "uint256"
        },
        {
          "internalType": "uint256",
          "name": "_endTime",
          "type": "uint256"
        },
        {
          "internalType": "uint256",
          "name": "_harvestTime",
          "type": "uint256"
        },
        {
          "internalType": "uint256",
          "name": "_offeringAmount",
          "type": "uint256"
        },
        {
          "internalType": "uint256",
          "name": "_raisingAmount",
          "type": "uint256"
        },
        {
          "internalType": "uint256",
          "name": "_maxAddr",
          "type": "uint256"
        }
      ],
      "stateMutability": "nonpayable",
      "type": "constructor"
    },
    {
      "anonymous": false,
      "inputs": [
        {
          "indexed": true,
          "internalType": "address",
          "name": "user",
          "type": "address"
        },
        {
          "indexed": false,
          "internalType": "uint256",
          "name": "amount",
          "type": "uint256"
        }
      ],
      "name": "Deposit",
      "type": "event"
    },
    {
      "anonymous": false,
      "inputs": [
        {
          "indexed": true,
          "internalType": "address",
          "name": "user",
          "type": "address"
        },
        {
          "indexed": false,
          "internalType": "uint256",
          "name": "offeringAmount",
          "type": "uint256"
        }
      ],
      "name": "Harvest",
      "type": "event"
    },
    {
      "anonymous": false,
      "inputs": [
        {
          "indexed": true,
          "internalType": "address",
          "name": "previousOwner",
          "type": "address"
        },
        {
          "indexed": true,
          "internalType": "address",
          "name": "newOwner",
          "type": "address"
        }
      ],
      "name": "OwnershipTransferred",
      "type": "event"
    },
    {
      "anonymous": false,
      "inputs": [
        {
          "indexed": false,
          "internalType": "address",
          "name": "account",
          "type": "address"
        }
      ],
      "name": "Paused",
      "type": "event"
    },
    {
      "anonymous": false,
      "inputs": [
        {
          "indexed": false,
          "internalType": "address",
          "name": "account",
          "type": "address"
        }
      ],
      "name": "Unpaused",
      "type": "event"
    },
    {
      "anonymous": false,
      "inputs": [
        {
          "indexed": false,
          "internalType": "address",
          "name": "addr",
          "type": "address"
        }
      ],
      "name": "WhitelistedAddressAdded",
      "type": "event"
    },
    {
      "anonymous": false,
      "inputs": [
        {
          "indexed": false,
          "internalType": "address",
          "name": "addr",
          "type": "address"
        }
      ],
      "name": "WhitelistedAddressRemoved",
      "type": "event"
    },
    {
      "inputs": [
        {
          "internalType": "address",
          "name": "addr",
          "type": "address"
        }
      ],
      "name": "addAddressToWhitelist",
      "outputs": [
        {
          "internalType": "bool",
          "name": "success",
          "type": "bool"
        }
      ],
      "stateMutability": "nonpayable",
      "type": "function"
    },
    {
      "inputs": [
        {
          "internalType": "address[]",
          "name": "addrs",
          "type": "address[]"
        }
      ],
      "name": "addAddressesToWhitelist",
      "outputs": [
        {
          "internalType": "bool",
          "name": "success",
          "type": "bool"
        }
      ],
      "stateMutability": "nonpayable",
      "type": "function"
    },
    {
      "inputs": [
        {
          "internalType": "uint256",
          "name": "",
          "type": "uint256"
        }
      ],
      "name": "addressList",
      "outputs": [
        {
          "internalType": "address",
          "name": "",
          "type": "address"
        }
      ],
      "stateMutability": "view",
      "type": "function"
    },
    {
      "inputs": [
        {
          "internalType": "uint256",
          "name": "_amount",
          "type": "uint256"
        }
      ],
      "name": "deposit",
      "outputs": [],
      "stateMutability": "payable",
      "type": "function"
    },
    {
      "inputs": [
        {
          "internalType": "address",
          "name": "token",
          "type": "address"
        },
        {
          "internalType": "address payable",
          "name": "to",
          "type": "address"
        }
      ],
      "name": "emergencyWithdraw",
      "outputs": [],
      "stateMutability": "nonpayable",
      "type": "function"
    },
    {
      "inputs": [],
      "name": "endTime",
      "outputs": [
        {
          "internalType": "uint256",
          "name": "",
          "type": "uint256"
        }
      ],
      "stateMutability": "view",
      "type": "function"
    },
    {
      "inputs": [
        {
          "internalType": "address",
          "name": "_destination",
          "type": "address"
        }
      ],
      "name": "finalWithdraw",
      "outputs": [],
      "stateMutability": "nonpayable",
      "type": "function"
    },
    {
      "inputs": [],
      "name": "getAddressListLength",
      "outputs": [
        {
          "internalType": "uint256",
          "name": "",
          "type": "uint256"
        }
      ],
      "stateMutability": "view",
      "type": "function"
    },
    {
      "inputs": [
        {
          "internalType": "address",
          "name": "_user",
          "type": "address"
        }
      ],
      "name": "getOfferingAmount",
      "outputs": [
        {
          "internalType": "uint256",
          "name": "",
          "type": "uint256"
        }
      ],
      "stateMutability": "view",
      "type": "function"
    },
    {
      "inputs": [],
      "name": "harvest",
      "outputs": [],
      "stateMutability": "nonpayable",
      "type": "function"
    },
    {
      "inputs": [],
      "name": "harvestTime",
      "outputs": [
        {
          "internalType": "uint256",
          "name": "",
          "type": "uint256"
        }
      ],
      "stateMutability": "view",
      "type": "function"
    },
    {
      "inputs": [],
      "name": "maxAllocation",
      "outputs": [
        {
          "internalType": "uint256",
          "name": "",
          "type": "uint256"
        }
      ],
      "stateMutability": "view",
      "type": "function"
    },
    {
      "inputs": [],
      "name": "maximumAddress",
      "outputs": [
        {
          "internalType": "uint256",
          "name": "",
          "type": "uint256"
        }
      ],
      "stateMutability": "view",
      "type": "function"
    },
    {
      "inputs": [],
      "name": "offeringAmount",
      "outputs": [
        {
          "internalType": "uint256",
          "name": "",
          "type": "uint256"
        }
      ],
      "stateMutability": "view",
      "type": "function"
    },
    {
      "inputs": [],
      "name": "offeringToken",
      "outputs": [
        {
          "internalType": "contract ERC20",
          "name": "",
          "type": "address"
        }
      ],
      "stateMutability": "view",
      "type": "function"
    },
    {
      "inputs": [],
      "name": "owner",
      "outputs": [
        {
          "internalType": "address",
          "name": "",
          "type": "address"
        }
      ],
      "stateMutability": "view",
      "type": "function"
    },
    {
      "inputs": [],
      "name": "pause",
      "outputs": [],
      "stateMutability": "nonpayable",
      "type": "function"
    },
    {
      "inputs": [],
      "name": "paused",
      "outputs": [
        {
          "internalType": "bool",
          "name": "",
          "type": "bool"
        }
      ],
      "stateMutability": "view",
      "type": "function"
    },
    {
      "inputs": [],
      "name": "raisingAmount",
      "outputs": [
        {
          "internalType": "uint256",
          "name": "",
          "type": "uint256"
        }
      ],
      "stateMutability": "view",
      "type": "function"
    },
    {
      "inputs": [
        {
          "internalType": "address",
          "name": "addr",
          "type": "address"
        }
      ],
      "name": "removeAddressFromWhitelist",
      "outputs": [
        {
          "internalType": "bool",
          "name": "success",
          "type": "bool"
        }
      ],
      "stateMutability": "nonpayable",
      "type": "function"
    },
    {
      "inputs": [
        {
          "internalType": "address[]",
          "name": "addrs",
          "type": "address[]"
        }
      ],
      "name": "removeAddressesFromWhitelist",
      "outputs": [
        {
          "internalType": "bool",
          "name": "success",
          "type": "bool"
        }
      ],
      "stateMutability": "nonpayable",
      "type": "function"
    },
    {
      "inputs": [],
      "name": "renounceOwnership",
      "outputs": [],
      "stateMutability": "nonpayable",
      "type": "function"
    },
    {
      "inputs": [
        {
          "internalType": "uint256",
          "name": "_offerAmount",
          "type": "uint256"
        }
      ],
      "name": "setOfferingAmount",
      "outputs": [],
      "stateMutability": "nonpayable",
      "type": "function"
    },
    {
      "inputs": [
        {
          "internalType": "uint256",
          "name": "_raisingAmount",
          "type": "uint256"
        }
      ],
      "name": "setRaisingAmount",
      "outputs": [],
      "stateMutability": "nonpayable",
      "type": "function"
    },
    {
      "inputs": [],
      "name": "startTime",
      "outputs": [
        {
          "internalType": "uint256",
          "name": "",
          "type": "uint256"
        }
      ],
      "stateMutability": "view",
      "type": "function"
    },
    {
      "inputs": [],
      "name": "totalAddress",
      "outputs": [
        {
          "internalType": "uint256",
          "name": "",
          "type": "uint256"
        }
      ],
      "stateMutability": "view",
      "type": "function"
    },
    {
      "inputs": [],
      "name": "totalAmount",
      "outputs": [
        {
          "internalType": "uint256",
          "name": "",
          "type": "uint256"
        }
      ],
      "stateMutability": "view",
      "type": "function"
    },
    {
      "inputs": [
        {
          "internalType": "address",
          "name": "newOwner",
          "type": "address"
        }
      ],
      "name": "transferOwnership",
      "outputs": [],
      "stateMutability": "nonpayable",
      "type": "function"
    },
    {
      "inputs": [],
      "name": "unpause",
      "outputs": [],
      "stateMutability": "nonpayable",
      "type": "function"
    },
    {
      "inputs": [
        {
          "internalType": "uint256",
          "name": "_newTime",
          "type": "uint256"
        }
      ],
      "name": "updateEndTime",
      "outputs": [],
      "stateMutability": "nonpayable",
      "type": "function"
    },
    {
      "inputs": [
        {
          "internalType": "uint256",
          "name": "_newTime",
          "type": "uint256"
        }
      ],
      "name": "updateHarvestTime",
      "outputs": [],
      "stateMutability": "nonpayable",
      "type": "function"
    },
    {
      "inputs": [
        {
          "internalType": "uint256",
          "name": "_newTime",
          "type": "uint256"
        }
      ],
      "name": "updateStartTime",
      "outputs": [],
      "stateMutability": "nonpayable",
      "type": "function"
    },
    {
      "inputs": [
        {
          "internalType": "address",
          "name": "",
          "type": "address"
        }
      ],
      "name": "userInfo",
      "outputs": [
        {
          "internalType": "uint256",
          "name": "amount",
          "type": "uint256"
        },
        {
          "internalType": "bool",
          "name": "claimed",
          "type": "bool"
        }
      ],
      "stateMutability": "view",
      "type": "function"
    },
    {
      "inputs": [
        {
          "internalType": "address",
          "name": "",
          "type": "address"
        }
      ],
      "name": "whitelist",
      "outputs": [
        {
          "internalType": "bool",
          "name": "",
          "type": "bool"
        }
      ],
      "stateMutability": "view",
      "type": "function"
    }
  ],
  "bytecode": "0x60806040523480156200001157600080fd5b5060405162001a6538038062001a6583398101604081905262000034916200010d565b60016000556200004433620000bb565b6001805460ff60a01b191690558484108015906200006157508585115b80156200006d57504286115b6200007757600080fd5b600480546001600160a01b0319166001600160a01b039890981697909717909655600594909455600692909255600755600955600855600d556000600a5562000176565b600180546001600160a01b038381166001600160a01b0319831681179093556040519116919082907f8be0079c531659141344cd1fd0a4f28419497f9722a3daafe3b4186f6b6457e090600090a35050565b600080600080600080600060e0888a03121562000128578283fd5b87516001600160a01b03811681146200013f578384fd5b602089015160408a015160608b015160808c015160a08d015160c0909d0151949e939d50919b909a50909850965090945092505050565b6118df80620001866000396000f3fe6080604052600436106101f95760003560e01c80637b9417c81161010d578063ac3ff912116100a0578063e1af9a951161006f578063e1af9a9514610590578063e2ec6ec3146105a6578063f2fde38b146105c6578063f4808210146105e6578063fc00358e146105fc57600080fd5b8063ac3ff9121461051d578063b6b55f251461053d578063b781360714610550578063b810fb431461057057600080fd5b80638da5cb5b116100dc5780638da5cb5b146104905780639b19251a146104c25780639b3ba79f146104f25780639c0a76691461050757600080fd5b80637b9417c8146104255780637e45e942146104455780638456cb591461045b57806387e97bc61461047057600080fd5b80633f4ba83a116101905780636382d9ad1161015f5780636382d9ad1461039a5780636ab3846b146103ba578063715018a6146103da57806376ea6ee0146103ef57806378e979251461040f57600080fd5b80633f4ba83a146103315780634225c32f146103465780634641257d146103665780635c975abb1461037b57600080fd5b806327d1b1a2116101cc57806327d1b1a2146102c5578063286dd3f5146102e557806329b0a86a146103055780633197cbb61461031b57600080fd5b806306bcf02f146101fe5780631959a002146102205780631a39d8ef1461027157806324953eaa14610295575b600080fd5b34801561020a57600080fd5b5061021e6102193660046116f1565b610611565b005b34801561022c57600080fd5b5061025761023b3660046115b6565b600b602052600090815260409020805460019091015460ff1682565b604080519283529015156020830152015b60405180910390f35b34801561027d57600080fd5b50610287600a5481565b604051908152602001610268565b3480156102a157600080fd5b506102b56102b036600461160a565b610653565b6040519015158152602001610268565b3480156102d157600080fd5b5061021e6102e03660046116f1565b6106bb565b3480156102f157600080fd5b506102b56103003660046115b6565b6106fe565b34801561031157600080fd5b50610287600d5481565b34801561032757600080fd5b5061028760065481565b34801561033d57600080fd5b5061021e61079b565b34801561035257600080fd5b5061021e6103613660046116f1565b6107ad565b34801561037257600080fd5b5061021e6107f0565b34801561038757600080fd5b50600154600160a01b900460ff166102b5565b3480156103a657600080fd5b5061021e6103b53660046115d2565b6109c7565b3480156103c657600080fd5b5061021e6103d53660046116f1565b610aa9565b3480156103e657600080fd5b5061021e610ae2565b3480156103fb57600080fd5b5061021e61040a3660046116f1565b610af4565b34801561041b57600080fd5b5061028760055481565b34801561043157600080fd5b506102b56104403660046115b6565b610b2d565b34801561045157600080fd5b5061028760035481565b34801561046757600080fd5b5061021e610bc1565b34801561047c57600080fd5b5061028761048b3660046115b6565b610bd1565b34801561049c57600080fd5b506001546001600160a01b03165b6040516001600160a01b039091168152602001610268565b3480156104ce57600080fd5b506102b56104dd3660046115b6565b60026020526000908152604090205460ff1681565b3480156104fe57600080fd5b50610287610c0d565b34801561051357600080fd5b5061028760085481565b34801561052957600080fd5b5061021e6105383660046115b6565b610c2b565b61021e61054b3660046116f1565b610c40565b34801561055c57600080fd5b506004546104aa906001600160a01b031681565b34801561057c57600080fd5b506104aa61058b3660046116f1565b610f2f565b34801561059c57600080fd5b5061028760095481565b3480156105b257600080fd5b506102b56105c136600461160a565b610f59565b3480156105d257600080fd5b5061021e6105e13660046115b6565b610fbb565b3480156105f257600080fd5b5061028760075481565b34801561060857600080fd5b50600c54610287565b610619611031565b4281118015610629575060065481105b61064e5760405162461bcd60e51b815260040161064590611770565b60405180910390fd5b600555565b600061065d611031565b60005b82518110156106b55761069983828151811061068c57634e487b7160e01b600052603260045260246000fd5b60200260200101516106fe565b156106a357600191505b806106ad8161184d565b915050610660565b50919050565b6106c3611031565b60055442106106f95760405162461bcd60e51b81526020600482015260026024820152616e6f60f01b6044820152606401610645565b600955565b6000610708611031565b6001600160a01b03821660009081526002602052604090205460ff1615610796576001600160a01b038216600081815260026020908152604091829020805460ff1916905590519182527ff1abf01a1043b7c244d128e8595cf0c1d10743b022b03a02dffd8ca3bf729f5a910160405180910390a15060038054600191600061079083611836565b91905055505b919050565b6107a3611031565b6107ab61108b565b565b6107b5611031565b60055442106107eb5760405162461bcd60e51b81526020600482015260026024820152616e6f60f01b6044820152606401610645565b600855565b600260005414156108435760405162461bcd60e51b815260206004820152601f60248201527f5265656e7472616e637947756172643a207265656e7472616e742063616c6c006044820152606401610645565b6002600055600754421161088c5760405162461bcd60e51b815260206004820152601060248201526f6e6f7420686172766573742074696d6560801b6044820152606401610645565b336000908152600b60205260409020546108e15760405162461bcd60e51b81526020600482015260166024820152756861766520796f75207061727469636970617465643f60501b6044820152606401610645565b336000908152600b602052604090206001015460ff16156109395760405162461bcd60e51b81526020600482015260126024820152711b9bdd1a1a5b99c81d1bc81a185c9d995cdd60721b6044820152606401610645565b6109416110e0565b600061094c33610bd1565b600454909150610966906001600160a01b0316338361112d565b336000818152600b6020526040908190206001908101805460ff19169091179055517fc9695243a805adb74c91f28311176c65b417e842d5699893cef56d18bfa48cba906109b79084815260200190565b60405180910390a2506001600055565b6109cf611031565b6001600160a01b038216610a17576040516001600160a01b038216904780156108fc02916000818181858888f19350505050158015610a12573d6000803e3d6000fd5b505050565b6040516370a0823160e01b8152306004820152610aa59082906001600160a01b038516906370a082319060240160206040518083038186803b158015610a5c57600080fd5b505afa158015610a70573d6000803e3d6000fd5b505050506040513d601f19601f82011682018060405250810190610a949190611709565b6001600160a01b038516919061112d565b5050565b610ab1611031565b4281118015610ac1575060075481105b610add5760405162461bcd60e51b815260040161064590611770565b600655565b610aea611031565b6107ab600061117f565b610afc611031565b4281118015610b0c575060065481115b610b285760405162461bcd60e51b815260040161064590611770565b600755565b6000610b37611031565b6001600160a01b03821660009081526002602052604090205460ff16610796576001600160a01b038216600081815260026020908152604091829020805460ff1916600117905590519182527fd1bba68c128cc3f427e5831b3c6f99f480b6efa6b9e80c757768f6124158cc3f910160405180910390a1506003805460019160006107908361184d565b610bc9611031565b6107ab6111d1565b6008546009546001600160a01b0383166000908152600b60205260408120549092610c07929091610c0191611214565b90611227565b92915050565b6000610c26600d5460085461122790919063ffffffff16565b905090565b610c33611031565b610c3d8147611233565b50565b60026000541415610c935760405162461bcd60e51b815260206004820152601f60248201527f5265656e7472616e637947756172643a207265656e7472616e742063616c6c006044820152606401610645565b6002600055600554819042118015610cac575060065442105b610ceb5760405162461bcd60e51b815260206004820152601060248201526f6e6f742072616973696e672074696d6560801b6044820152606401610645565b60008111610d2e5760405162461bcd60e51b815260206004820152601060248201526f06e656564205f616d6f756e74203e20360841b6044820152606401610645565b600d54600c5410610d6a5760405162461bcd60e51b815260040161064590602080825260049082015263199d5b1b60e21b604082015260600190565b610d726110e0565b336000908152600b6020526040902054610d8a610c0d565b11610dcf5760405162461bcd60e51b81526020600482015260156024820152746e6f7420656c696769626c6520616d6f756e74212160581b6044820152606401610645565b336000908152600b6020526040812054610de7610c0d565b610df191906117ef565b90508280821015610dff5750805b80341015610e435760405162461bcd60e51b81526020600482015260116024820152700c2dadeeadce840dcdee840cadcdeeaced607b1b6044820152606401610645565b80341115610e5e57610e5e33610e5983346117ef565b611233565b336000908152600b6020526040902054610eb557600c80546001810182556000919091527fdf6966c971051c3d54ec59162606531493a51404a002842f56009d7e5cf4a8c70180546001600160a01b031916331790555b336000908152600b6020526040902054610ecf90826112fc565b336000908152600b6020526040902055600a54610eec90826112fc565b600a5560405181815233907fe1fffcc4923d04b559f4d29a8bfc6cda04eb5b0d3c460751c2402c5c5cc9109c9060200160405180910390a2505060016000555050565b600c8181548110610f3f57600080fd5b6000918252602090912001546001600160a01b0316905081565b6000610f63611031565b60005b82518110156106b557610f9f838281518110610f9257634e487b7160e01b600052603260045260246000fd5b6020026020010151610b2d565b15610fa957600191505b80610fb38161184d565b915050610f66565b610fc3611031565b6001600160a01b0381166110285760405162461bcd60e51b815260206004820152602660248201527f4f776e61626c653a206e6577206f776e657220697320746865207a65726f206160448201526564647265737360d01b6064820152608401610645565b610c3d8161117f565b6001546001600160a01b031633146107ab5760405162461bcd60e51b815260206004820181905260248201527f4f776e61626c653a2063616c6c6572206973206e6f7420746865206f776e65726044820152606401610645565b611093611308565b6001805460ff60a01b191690557f5db9ee0a495bf2e6ff9c91a7834c1ba4fdd244a5e8aa4e537bd38aeae4b073aa335b6040516001600160a01b03909116815260200160405180910390a1565b600154600160a01b900460ff16156107ab5760405162461bcd60e51b815260206004820152601060248201526f14185d5cd8589b194e881c185d5cd95960821b6044820152606401610645565b604080516001600160a01b038416602482015260448082018490528251808303909101815260649091019091526020810180516001600160e01b031663a9059cbb60e01b179052610a12908490611358565b600180546001600160a01b038381166001600160a01b0319831681179093556040519116919082907f8be0079c531659141344cd1fd0a4f28419497f9722a3daafe3b4186f6b6457e090600090a35050565b6111d96110e0565b6001805460ff60a01b1916600160a01b1790557f62e78cea01bee320cd4e420270b5ea74000d11b0c9f74754ebdbfc544b05a2586110c33390565b600061122082846117d0565b9392505050565b600061122082846117b0565b604080516000808252602082019092526001600160a01b03841690839060405161125d9190611721565b60006040518083038185875af1925050503d806000811461129a576040519150601f19603f3d011682016040523d82523d6000602084013e61129f565b606091505b5050905080610a125760405162461bcd60e51b815260206004820152602360248201527f5472616e7366657248656c7065723a204b41495f5452414e534645525f46414960448201526213115160ea1b6064820152608401610645565b60006112208284611798565b600154600160a01b900460ff166107ab5760405162461bcd60e51b815260206004820152601460248201527314185d5cd8589b194e881b9bdd081c185d5cd95960621b6044820152606401610645565b60006113ad826040518060400160405280602081526020017f5361666545524332303a206c6f772d6c6576656c2063616c6c206661696c6564815250856001600160a01b031661142a9092919063ffffffff16565b805190915015610a1257808060200190518101906113cb91906116d1565b610a125760405162461bcd60e51b815260206004820152602a60248201527f5361666545524332303a204552433230206f7065726174696f6e20646964206e6044820152691bdd081cdd58d8d9595960b21b6064820152608401610645565b60606114398484600085611441565b949350505050565b6060824710156114a25760405162461bcd60e51b815260206004820152602660248201527f416464726573733a20696e73756666696369656e742062616c616e636520666f6044820152651c8818d85b1b60d21b6064820152608401610645565b6001600160a01b0385163b6114f95760405162461bcd60e51b815260206004820152601d60248201527f416464726573733a2063616c6c20746f206e6f6e2d636f6e74726163740000006044820152606401610645565b600080866001600160a01b031685876040516115159190611721565b60006040518083038185875af1925050503d8060008114611552576040519150601f19603f3d011682016040523d82523d6000602084013e611557565b606091505b5091509150611567828286611572565b979650505050505050565b60608315611581575081611220565b8251156115915782518084602001fd5b8160405162461bcd60e51b8152600401610645919061173d565b803561079681611894565b6000602082840312156115c7578081fd5b813561122081611894565b600080604083850312156115e4578081fd5b82356115ef81611894565b915060208301356115ff81611894565b809150509250929050565b6000602080838503121561161c578182fd5b823567ffffffffffffffff80821115611633578384fd5b818501915085601f830112611646578384fd5b8135818111156116585761165861187e565b8060051b604051601f19603f8301168101818110858211171561167d5761167d61187e565b604052828152858101935084860182860187018a101561169b578788fd5b8795505b838610156116c4576116b0816115ab565b85526001959095019493860193860161169f565b5098975050505050505050565b6000602082840312156116e2578081fd5b81518015158114611220578182fd5b600060208284031215611702578081fd5b5035919050565b60006020828403121561171a578081fd5b5051919050565b60008251611733818460208701611806565b9190910192915050565b602081526000825180602084015261175c816040850160208701611806565b601f01601f19169190910160400192915050565b6020808252600e908201526d74696d6520696e76616c6964212160901b604082015260600190565b600082198211156117ab576117ab611868565b500190565b6000826117cb57634e487b7160e01b81526012600452602481fd5b500490565b60008160001904831182151516156117ea576117ea611868565b500290565b60008282101561180157611801611868565b500390565b60005b83811015611821578181015183820152602001611809565b83811115611830576000848401525b50505050565b60008161184557611845611868565b506000190190565b600060001982141561186157611861611868565b5060010190565b634e487b7160e01b600052601160045260246000fd5b634e487b7160e01b600052604160045260246000fd5b6001600160a01b0381168114610c3d57600080fdfea2646970667358221220d813cca1df335665266932e685b84215b671823357ddfc24d0073bd23ee9669664736f6c63430008040033",
  "linkReferences": {},
  "deployedLinkReferences": {}
}