{
  "_format": "hh-sol-artifact-1",
  "contractName": "WhitelistRaising",
  "sourceName": "contracts/launchpad/whitelist/WhitelistRaising.sol",
  "abi": [
    {
      "inputs": [
        {
          "internalType": "contract ERC20",
          "name": "_offeringToken",
          "type": "address"
        },
        {
          "internalType": "uint256",
          "name": "_startTime",
          "type": "uint256"
        },
        {
          "internalType": "uint256",
          "name": "_endTime",
          "type": "uint256"
        },
        {
          "internalType": "uint256",
          "name": "_harvestTime",
          "type": "uint256"
        },
        {
          "internalType": "uint256",
          "name": "_offeringAmount",
          "type": "uint256"
        },
        {
          "internalType": "uint256",
          "name": "_raisingAmount",
          "type": "uint256"
        },
        {
          "internalType": "uint256",
          "name": "_maxAddrWhitelist",
          "type": "uint256"
        }
      ],
      "stateMutability": "nonpayable",
      "type": "constructor"
    },
    {
      "anonymous": false,
      "inputs": [
        {
          "indexed": true,
          "internalType": "address",
          "name": "user",
          "type": "address"
        },
        {
          "indexed": false,
          "internalType": "uint256",
          "name": "amount",
          "type": "uint256"
        }
      ],
      "name": "Deposit",
      "type": "event"
    },
    {
      "anonymous": false,
      "inputs": [
        {
          "indexed": true,
          "internalType": "address",
          "name": "user",
          "type": "address"
        },
        {
          "indexed": false,
          "internalType": "uint256",
          "name": "offeringAmount",
          "type": "uint256"
        }
      ],
      "name": "Harvest",
      "type": "event"
    },
    {
      "anonymous": false,
      "inputs": [
        {
          "indexed": true,
          "internalType": "address",
          "name": "previousOwner",
          "type": "address"
        },
        {
          "indexed": true,
          "internalType": "address",
          "name": "newOwner",
          "type": "address"
        }
      ],
      "name": "OwnershipTransferred",
      "type": "event"
    },
    {
      "anonymous": false,
      "inputs": [
        {
          "indexed": false,
          "internalType": "address",
          "name": "account",
          "type": "address"
        }
      ],
      "name": "Paused",
      "type": "event"
    },
    {
      "anonymous": false,
      "inputs": [
        {
          "indexed": false,
          "internalType": "address",
          "name": "account",
          "type": "address"
        }
      ],
      "name": "Unpaused",
      "type": "event"
    },
    {
      "anonymous": false,
      "inputs": [
        {
          "indexed": false,
          "internalType": "address",
          "name": "addr",
          "type": "address"
        }
      ],
      "name": "WhitelistedAddressAdded",
      "type": "event"
    },
    {
      "anonymous": false,
      "inputs": [
        {
          "indexed": false,
          "internalType": "address",
          "name": "addr",
          "type": "address"
        }
      ],
      "name": "WhitelistedAddressRemoved",
      "type": "event"
    },
    {
      "inputs": [
        {
          "internalType": "address",
          "name": "addr",
          "type": "address"
        }
      ],
      "name": "addAddressToWhitelist",
      "outputs": [
        {
          "internalType": "bool",
          "name": "success",
          "type": "bool"
        }
      ],
      "stateMutability": "nonpayable",
      "type": "function"
    },
    {
      "inputs": [
        {
          "internalType": "address[]",
          "name": "addrs",
          "type": "address[]"
        }
      ],
      "name": "addAddressesToWhitelist",
      "outputs": [
        {
          "internalType": "bool",
          "name": "success",
          "type": "bool"
        }
      ],
      "stateMutability": "nonpayable",
      "type": "function"
    },
    {
      "inputs": [
        {
          "internalType": "uint256",
          "name": "",
          "type": "uint256"
        }
      ],
      "name": "addressList",
      "outputs": [
        {
          "internalType": "address",
          "name": "",
          "type": "address"
        }
      ],
      "stateMutability": "view",
      "type": "function"
    },
    {
      "inputs": [
        {
          "internalType": "uint256",
          "name": "_amount",
          "type": "uint256"
        }
      ],
      "name": "deposit",
      "outputs": [],
      "stateMutability": "payable",
      "type": "function"
    },
    {
      "inputs": [
        {
          "internalType": "address",
          "name": "token",
          "type": "address"
        },
        {
          "internalType": "address payable",
          "name": "to",
          "type": "address"
        }
      ],
      "name": "emergencyWithdraw",
      "outputs": [],
      "stateMutability": "nonpayable",
      "type": "function"
    },
    {
      "inputs": [],
      "name": "endTime",
      "outputs": [
        {
          "internalType": "uint256",
          "name": "",
          "type": "uint256"
        }
      ],
      "stateMutability": "view",
      "type": "function"
    },
    {
      "inputs": [
        {
          "internalType": "address",
          "name": "_destination",
          "type": "address"
        }
      ],
      "name": "finalWithdraw",
      "outputs": [],
      "stateMutability": "nonpayable",
      "type": "function"
    },
    {
      "inputs": [],
      "name": "getAddressListLength",
      "outputs": [
        {
          "internalType": "uint256",
          "name": "",
          "type": "uint256"
        }
      ],
      "stateMutability": "view",
      "type": "function"
    },
    {
      "inputs": [
        {
          "internalType": "address",
          "name": "_user",
          "type": "address"
        }
      ],
      "name": "getOfferingAmount",
      "outputs": [
        {
          "internalType": "uint256",
          "name": "",
          "type": "uint256"
        }
      ],
      "stateMutability": "view",
      "type": "function"
    },
    {
      "inputs": [],
      "name": "harvest",
      "outputs": [],
      "stateMutability": "nonpayable",
      "type": "function"
    },
    {
      "inputs": [],
      "name": "harvestTime",
      "outputs": [
        {
          "internalType": "uint256",
          "name": "",
          "type": "uint256"
        }
      ],
      "stateMutability": "view",
      "type": "function"
    },
    {
      "inputs": [],
      "name": "maxAllocation",
      "outputs": [
        {
          "internalType": "uint256",
          "name": "",
          "type": "uint256"
        }
      ],
      "stateMutability": "view",
      "type": "function"
    },
    {
      "inputs": [],
      "name": "maximumAddrWhitelist",
      "outputs": [
        {
          "internalType": "uint256",
          "name": "",
          "type": "uint256"
        }
      ],
      "stateMutability": "view",
      "type": "function"
    },
    {
      "inputs": [],
      "name": "offeringAmount",
      "outputs": [
        {
          "internalType": "uint256",
          "name": "",
          "type": "uint256"
        }
      ],
      "stateMutability": "view",
      "type": "function"
    },
    {
      "inputs": [],
      "name": "offeringToken",
      "outputs": [
        {
          "internalType": "contract ERC20",
          "name": "",
          "type": "address"
        }
      ],
      "stateMutability": "view",
      "type": "function"
    },
    {
      "inputs": [],
      "name": "owner",
      "outputs": [
        {
          "internalType": "address",
          "name": "",
          "type": "address"
        }
      ],
      "stateMutability": "view",
      "type": "function"
    },
    {
      "inputs": [],
      "name": "pause",
      "outputs": [],
      "stateMutability": "nonpayable",
      "type": "function"
    },
    {
      "inputs": [],
      "name": "paused",
      "outputs": [
        {
          "internalType": "bool",
          "name": "",
          "type": "bool"
        }
      ],
      "stateMutability": "view",
      "type": "function"
    },
    {
      "inputs": [],
      "name": "raisingAmount",
      "outputs": [
        {
          "internalType": "uint256",
          "name": "",
          "type": "uint256"
        }
      ],
      "stateMutability": "view",
      "type": "function"
    },
    {
      "inputs": [
        {
          "internalType": "address",
          "name": "addr",
          "type": "address"
        }
      ],
      "name": "removeAddressFromWhitelist",
      "outputs": [
        {
          "internalType": "bool",
          "name": "success",
          "type": "bool"
        }
      ],
      "stateMutability": "nonpayable",
      "type": "function"
    },
    {
      "inputs": [
        {
          "internalType": "address[]",
          "name": "addrs",
          "type": "address[]"
        }
      ],
      "name": "removeAddressesFromWhitelist",
      "outputs": [
        {
          "internalType": "bool",
          "name": "success",
          "type": "bool"
        }
      ],
      "stateMutability": "nonpayable",
      "type": "function"
    },
    {
      "inputs": [],
      "name": "renounceOwnership",
      "outputs": [],
      "stateMutability": "nonpayable",
      "type": "function"
    },
    {
      "inputs": [
        {
          "internalType": "uint256",
          "name": "_offerAmount",
          "type": "uint256"
        }
      ],
      "name": "setOfferingAmount",
      "outputs": [],
      "stateMutability": "nonpayable",
      "type": "function"
    },
    {
      "inputs": [
        {
          "internalType": "uint256",
          "name": "_raisingAmount",
          "type": "uint256"
        }
      ],
      "name": "setRaisingAmount",
      "outputs": [],
      "stateMutability": "nonpayable",
      "type": "function"
    },
    {
      "inputs": [],
      "name": "startTime",
      "outputs": [
        {
          "internalType": "uint256",
          "name": "",
          "type": "uint256"
        }
      ],
      "stateMutability": "view",
      "type": "function"
    },
    {
      "inputs": [],
      "name": "totalAddress",
      "outputs": [
        {
          "internalType": "uint256",
          "name": "",
          "type": "uint256"
        }
      ],
      "stateMutability": "view",
      "type": "function"
    },
    {
      "inputs": [],
      "name": "totalAmount",
      "outputs": [
        {
          "internalType": "uint256",
          "name": "",
          "type": "uint256"
        }
      ],
      "stateMutability": "view",
      "type": "function"
    },
    {
      "inputs": [
        {
          "internalType": "address",
          "name": "newOwner",
          "type": "address"
        }
      ],
      "name": "transferOwnership",
      "outputs": [],
      "stateMutability": "nonpayable",
      "type": "function"
    },
    {
      "inputs": [],
      "name": "unpause",
      "outputs": [],
      "stateMutability": "nonpayable",
      "type": "function"
    },
    {
      "inputs": [
        {
          "internalType": "uint256",
          "name": "_newTime",
          "type": "uint256"
        }
      ],
      "name": "updateEndTime",
      "outputs": [],
      "stateMutability": "nonpayable",
      "type": "function"
    },
    {
      "inputs": [
        {
          "internalType": "uint256",
          "name": "_newTime",
          "type": "uint256"
        }
      ],
      "name": "updateHarvestTime",
      "outputs": [],
      "stateMutability": "nonpayable",
      "type": "function"
    },
    {
      "inputs": [
        {
          "internalType": "uint256",
          "name": "_newTime",
          "type": "uint256"
        }
      ],
      "name": "updateStartTime",
      "outputs": [],
      "stateMutability": "nonpayable",
      "type": "function"
    },
    {
      "inputs": [
        {
          "internalType": "address",
          "name": "",
          "type": "address"
        }
      ],
      "name": "userInfo",
      "outputs": [
        {
          "internalType": "uint256",
          "name": "amount",
          "type": "uint256"
        },
        {
          "internalType": "bool",
          "name": "claimed",
          "type": "bool"
        }
      ],
      "stateMutability": "view",
      "type": "function"
    },
    {
      "inputs": [
        {
          "internalType": "address",
          "name": "",
          "type": "address"
        }
      ],
      "name": "whitelist",
      "outputs": [
        {
          "internalType": "bool",
          "name": "",
          "type": "bool"
        }
      ],
      "stateMutability": "view",
      "type": "function"
    }
  ],
  "bytecode": "0x60806040523480156200001157600080fd5b5060405162001cd038038062001cd083398101604081905262000034916200010f565b6001600055806200004533620000bd565b6001805460ff60a01b191690556004558484108015906200006557508585115b80156200007157504286115b6200007b57600080fd5b50600580546001600160a01b0319166001600160a01b039790971696909617909555600693909355600791909155600855600a556009556000600b5562000178565b600180546001600160a01b038381166001600160a01b0319831681179093556040519116919082907f8be0079c531659141344cd1fd0a4f28419497f9722a3daafe3b4186f6b6457e090600090a35050565b600080600080600080600060e0888a0312156200012a578283fd5b87516001600160a01b038116811462000141578384fd5b602089015160408a015160608b015160808c015160a08d015160c0909d0151949e939d50919b909a50909850965090945092505050565b611b4880620001886000396000f3fe6080604052600436106101f95760003560e01c80637b9417c81161010d578063ac3ff912116100a0578063e1af9a951161006f578063e1af9a9514610590578063e2ec6ec3146105a6578063f2fde38b146105c6578063f4808210146105e6578063fc00358e146105fc57600080fd5b8063ac3ff9121461051d578063b6b55f251461053d578063b781360714610550578063b810fb431461057057600080fd5b80638da5cb5b116100dc5780638da5cb5b146104905780639b19251a146104c25780639b3ba79f146104f25780639c0a76691461050757600080fd5b80637b9417c8146104255780637e45e942146104455780638456cb591461045b57806387e97bc61461047057600080fd5b80633f4ba83a116101905780636382d9ad1161015f5780636382d9ad1461039a5780636ab3846b146103ba578063715018a6146103da57806376ea6ee0146103ef57806378e979251461040f57600080fd5b80633f4ba83a146103315780634225c32f146103465780634641257d146103665780635c975abb1461037b57600080fd5b806327d1b1a2116101cc57806327d1b1a2146102c5578063286dd3f5146102e55780633197cbb6146103055780633d2b494b1461031b57600080fd5b806306bcf02f146101fe5780631959a002146102205780631a39d8ef1461027157806324953eaa14610295575b600080fd5b34801561020a57600080fd5b5061021e6102193660046118fb565b610611565b005b34801561022c57600080fd5b5061025761023b3660046117c0565b600c602052600090815260409020805460019091015460ff1682565b604080519283529015156020830152015b60405180910390f35b34801561027d57600080fd5b50610287600b5481565b604051908152602001610268565b3480156102a157600080fd5b506102b56102b0366004611814565b610675565b6040519015158152602001610268565b3480156102d157600080fd5b5061021e6102e03660046118fb565b610700565b3480156102f157600080fd5b506102b56103003660046117c0565b610765565b34801561031157600080fd5b5061028760075481565b34801561032757600080fd5b5061028760045481565b34801561033d57600080fd5b5061021e610825565b34801561035257600080fd5b5061021e6103613660046118fb565b610859565b34801561037257600080fd5b5061021e6108be565b34801561038757600080fd5b50600154600160a01b900460ff166102b5565b3480156103a657600080fd5b5061021e6103b53660046117dc565b610ab7565b3480156103c657600080fd5b5061021e6103d53660046118fb565b610bbb565b3480156103e657600080fd5b5061021e610c16565b3480156103fb57600080fd5b5061021e61040a3660046118fb565b610c4a565b34801561041b57600080fd5b5061028760065481565b34801561043157600080fd5b506102b56104403660046117c0565b610ca5565b34801561045157600080fd5b5061028760035481565b34801561046757600080fd5b5061021e610d98565b34801561047c57600080fd5b5061028761048b3660046117c0565b610dca565b34801561049c57600080fd5b506001546001600160a01b03165b6040516001600160a01b039091168152602001610268565b3480156104ce57600080fd5b506102b56104dd3660046117c0565b60026020526000908152604090205460ff1681565b3480156104fe57600080fd5b50610287610e06565b34801561051357600080fd5b5061028760095481565b34801561052957600080fd5b5061021e6105383660046117c0565b610e24565b61021e61054b3660046118fb565b610e5b565b34801561055c57600080fd5b506005546104aa906001600160a01b031681565b34801561057c57600080fd5b506104aa61058b3660046118fb565b611181565b34801561059c57600080fd5b50610287600a5481565b3480156105b257600080fd5b506102b56105c1366004611814565b6111ab565b3480156105d257600080fd5b5061021e6105e13660046117c0565b611230565b3480156105f257600080fd5b5061028760085481565b34801561060857600080fd5b50600d54610287565b6001546001600160a01b031633146106445760405162461bcd60e51b815260040161063b906119cc565b60405180910390fd5b4281118015610654575060075481105b6106705760405162461bcd60e51b815260040161063b9061197a565b600655565b6001546000906001600160a01b031633146106a25760405162461bcd60e51b815260040161063b906119cc565b60005b82518110156106fa576106de8382815181106106d157634e487b7160e01b600052603260045260246000fd5b6020026020010151610765565b156106e857600191505b806106f281611ab6565b9150506106a5565b50919050565b6001546001600160a01b0316331461072a5760405162461bcd60e51b815260040161063b906119cc565b60065442106107605760405162461bcd60e51b81526020600482015260026024820152616e6f60f01b604482015260640161063b565b600a55565b6001546000906001600160a01b031633146107925760405162461bcd60e51b815260040161063b906119cc565b6001600160a01b03821660009081526002602052604090205460ff1615610820576001600160a01b038216600081815260026020908152604091829020805460ff1916905590519182527ff1abf01a1043b7c244d128e8595cf0c1d10743b022b03a02dffd8ca3bf729f5a910160405180910390a15060038054600191600061081a83611a9f565b91905055505b919050565b6001546001600160a01b0316331461084f5760405162461bcd60e51b815260040161063b906119cc565b6108576112c8565b565b6001546001600160a01b031633146108835760405162461bcd60e51b815260040161063b906119cc565b60065442106108b95760405162461bcd60e51b81526020600482015260026024820152616e6f60f01b604482015260640161063b565b600955565b600260005414156109115760405162461bcd60e51b815260206004820152601f60248201527f5265656e7472616e637947756172643a207265656e7472616e742063616c6c00604482015260640161063b565b6002600055600854421161095a5760405162461bcd60e51b815260206004820152601060248201526f6e6f7420686172766573742074696d6560801b604482015260640161063b565b336000908152600c60205260409020546109af5760405162461bcd60e51b81526020600482015260166024820152756861766520796f75207061727469636970617465643f60501b604482015260640161063b565b336000908152600c602052604090206001015460ff1615610a075760405162461bcd60e51b81526020600482015260126024820152711b9bdd1a1a5b99c81d1bc81a185c9d995cdd60721b604482015260640161063b565b600154600160a01b900460ff1615610a315760405162461bcd60e51b815260040161063b906119a2565b6000610a3c33610dca565b600554909150610a56906001600160a01b03163383611365565b336000818152600c6020526040908190206001908101805460ff19169091179055517fc9695243a805adb74c91f28311176c65b417e842d5699893cef56d18bfa48cba90610aa79084815260200190565b60405180910390a2506001600055565b6001546001600160a01b03163314610ae15760405162461bcd60e51b815260040161063b906119cc565b6001600160a01b038216610b29576040516001600160a01b038216904780156108fc02916000818181858888f19350505050158015610b24573d6000803e3d6000fd5b505050565b6040516370a0823160e01b8152306004820152610bb79082906001600160a01b038516906370a082319060240160206040518083038186803b158015610b6e57600080fd5b505afa158015610b82573d6000803e3d6000fd5b505050506040513d601f19601f82011682018060405250810190610ba69190611913565b6001600160a01b0385169190611365565b5050565b6001546001600160a01b03163314610be55760405162461bcd60e51b815260040161063b906119cc565b4281118015610bf5575060085481105b610c115760405162461bcd60e51b815260040161063b9061197a565b600755565b6001546001600160a01b03163314610c405760405162461bcd60e51b815260040161063b906119cc565b61085760006113b7565b6001546001600160a01b03163314610c745760405162461bcd60e51b815260040161063b906119cc565b4281118015610c84575060075481115b610ca05760405162461bcd60e51b815260040161063b9061197a565b600855565b6001546000906001600160a01b03163314610cd25760405162461bcd60e51b815260040161063b906119cc565b60035460045411610d0e5760405162461bcd60e51b815260040161063b90602080825260049082015263199d5b1b60e21b604082015260600190565b6001600160a01b03821660009081526002602052604090205460ff16610820576001600160a01b038216600081815260026020908152604091829020805460ff1916600117905590519182527fd1bba68c128cc3f427e5831b3c6f99f480b6efa6b9e80c757768f6124158cc3f910160405180910390a15060038054600191600061081a83611ab6565b6001546001600160a01b03163314610dc25760405162461bcd60e51b815260040161063b906119cc565b610857611409565b600954600a546001600160a01b0383166000908152600c60205260408120549092610e00929091610dfa9161146e565b90611481565b92915050565b6000610e1f60045460095461148190919063ffffffff16565b905090565b6001546001600160a01b03163314610e4e5760405162461bcd60e51b815260040161063b906119cc565b610e58814761148d565b50565b60026000541415610eae5760405162461bcd60e51b815260206004820152601f60248201527f5265656e7472616e637947756172643a207265656e7472616e742063616c6c00604482015260640161063b565b6002600055600654819042118015610ec7575060075442105b610f065760405162461bcd60e51b815260206004820152601060248201526f6e6f742072616973696e672074696d6560801b604482015260640161063b565b60008111610f495760405162461bcd60e51b815260206004820152601060248201526f06e656564205f616d6f756e74203e20360841b604482015260640161063b565b600154600160a01b900460ff1615610f735760405162461bcd60e51b815260040161063b906119a2565b3360009081526002602052604090205460ff16610fc45760405162461bcd60e51b815260206004820152600f60248201526e1b9bdd081dda1a5d195b1a5cdd1959608a1b604482015260640161063b565b336000908152600c6020526040902054610fdc610e06565b116110215760405162461bcd60e51b81526020600482015260156024820152746e6f7420656c696769626c6520616d6f756e74212160581b604482015260640161063b565b336000908152600c6020526040812054611039610e06565b6110439190611a58565b905082808210156110515750805b803410156110955760405162461bcd60e51b81526020600482015260116024820152700c2dadeeadce840dcdee840cadcdeeaced607b1b604482015260640161063b565b803411156110b0576110b0336110ab8334611a58565b61148d565b336000908152600c602052604090205461110757600d80546001810182556000919091527fd7b6990105719101dabeb77144f2a3385c8033acd3af97e9423a695e81ad1eb50180546001600160a01b031916331790555b336000908152600c60205260409020546111219082611556565b336000908152600c6020526040902055600b5461113e9082611556565b600b5560405181815233907fe1fffcc4923d04b559f4d29a8bfc6cda04eb5b0d3c460751c2402c5c5cc9109c9060200160405180910390a2505060016000555050565b600d818154811061119157600080fd5b6000918252602090912001546001600160a01b0316905081565b6001546000906001600160a01b031633146111d85760405162461bcd60e51b815260040161063b906119cc565b60005b82518110156106fa5761121483828151811061120757634e487b7160e01b600052603260045260246000fd5b6020026020010151610ca5565b1561121e57600191505b8061122881611ab6565b9150506111db565b6001546001600160a01b0316331461125a5760405162461bcd60e51b815260040161063b906119cc565b6001600160a01b0381166112bf5760405162461bcd60e51b815260206004820152602660248201527f4f776e61626c653a206e6577206f776e657220697320746865207a65726f206160448201526564647265737360d01b606482015260840161063b565b610e58816113b7565b600154600160a01b900460ff166113185760405162461bcd60e51b815260206004820152601460248201527314185d5cd8589b194e881b9bdd081c185d5cd95960621b604482015260640161063b565b6001805460ff60a01b191690557f5db9ee0a495bf2e6ff9c91a7834c1ba4fdd244a5e8aa4e537bd38aeae4b073aa335b6040516001600160a01b03909116815260200160405180910390a1565b604080516001600160a01b038416602482015260448082018490528251808303909101815260649091019091526020810180516001600160e01b031663a9059cbb60e01b179052610b24908490611562565b600180546001600160a01b038381166001600160a01b0319831681179093556040519116919082907f8be0079c531659141344cd1fd0a4f28419497f9722a3daafe3b4186f6b6457e090600090a35050565b600154600160a01b900460ff16156114335760405162461bcd60e51b815260040161063b906119a2565b6001805460ff60a01b1916600160a01b1790557f62e78cea01bee320cd4e420270b5ea74000d11b0c9f74754ebdbfc544b05a2586113483390565b600061147a8284611a39565b9392505050565b600061147a8284611a19565b604080516000808252602082019092526001600160a01b0384169083906040516114b7919061192b565b60006040518083038185875af1925050503d80600081146114f4576040519150601f19603f3d011682016040523d82523d6000602084013e6114f9565b606091505b5050905080610b245760405162461bcd60e51b815260206004820152602360248201527f5472616e7366657248656c7065723a204b41495f5452414e534645525f46414960448201526213115160ea1b606482015260840161063b565b600061147a8284611a01565b60006115b7826040518060400160405280602081526020017f5361666545524332303a206c6f772d6c6576656c2063616c6c206661696c6564815250856001600160a01b03166116349092919063ffffffff16565b805190915015610b2457808060200190518101906115d591906118db565b610b245760405162461bcd60e51b815260206004820152602a60248201527f5361666545524332303a204552433230206f7065726174696f6e20646964206e6044820152691bdd081cdd58d8d9595960b21b606482015260840161063b565b6060611643848460008561164b565b949350505050565b6060824710156116ac5760405162461bcd60e51b815260206004820152602660248201527f416464726573733a20696e73756666696369656e742062616c616e636520666f6044820152651c8818d85b1b60d21b606482015260840161063b565b6001600160a01b0385163b6117035760405162461bcd60e51b815260206004820152601d60248201527f416464726573733a2063616c6c20746f206e6f6e2d636f6e7472616374000000604482015260640161063b565b600080866001600160a01b0316858760405161171f919061192b565b60006040518083038185875af1925050503d806000811461175c576040519150601f19603f3d011682016040523d82523d6000602084013e611761565b606091505b509150915061177182828661177c565b979650505050505050565b6060831561178b57508161147a565b82511561179b5782518084602001fd5b8160405162461bcd60e51b815260040161063b9190611947565b803561082081611afd565b6000602082840312156117d1578081fd5b813561147a81611afd565b600080604083850312156117ee578081fd5b82356117f981611afd565b9150602083013561180981611afd565b809150509250929050565b60006020808385031215611826578182fd5b823567ffffffffffffffff8082111561183d578384fd5b818501915085601f830112611850578384fd5b81358181111561186257611862611ae7565b8060051b604051601f19603f8301168101818110858211171561188757611887611ae7565b604052828152858101935084860182860187018a10156118a5578788fd5b8795505b838610156118ce576118ba816117b5565b8552600195909501949386019386016118a9565b5098975050505050505050565b6000602082840312156118ec578081fd5b8151801515811461147a578182fd5b60006020828403121561190c578081fd5b5035919050565b600060208284031215611924578081fd5b5051919050565b6000825161193d818460208701611a6f565b9190910192915050565b6020815260008251806020840152611966816040850160208701611a6f565b601f01601f19169190910160400192915050565b6020808252600e908201526d74696d6520696e76616c6964212160901b604082015260600190565b60208082526010908201526f14185d5cd8589b194e881c185d5cd95960821b604082015260600190565b6020808252818101527f4f776e61626c653a2063616c6c6572206973206e6f7420746865206f776e6572604082015260600190565b60008219821115611a1457611a14611ad1565b500190565b600082611a3457634e487b7160e01b81526012600452602481fd5b500490565b6000816000190483118215151615611a5357611a53611ad1565b500290565b600082821015611a6a57611a6a611ad1565b500390565b60005b83811015611a8a578181015183820152602001611a72565b83811115611a99576000848401525b50505050565b600081611aae57611aae611ad1565b506000190190565b6000600019821415611aca57611aca611ad1565b5060010190565b634e487b7160e01b600052601160045260246000fd5b634e487b7160e01b600052604160045260246000fd5b6001600160a01b0381168114610e5857600080fdfea26469706673582212205c8fa0d9fe6d742207224c84f80f58740975249f7c8281f4b9e55369a999308664736f6c63430008040033",
  "linkReferences": {},
  "deployedLinkReferences": {}
}