{
  "_format": "hh-sol-artifact-1",
  "contractName": "WhitelistRaising",
  "sourceName": "contracts/launchpad/whitelist/WhitelistRaising.sol",
  "abi": [
    {
      "inputs": [
        {
          "internalType": "contract ERC20",
          "name": "_offeringToken",
          "type": "address"
        },
        {
          "internalType": "uint256",
          "name": "_startTime",
          "type": "uint256"
        },
        {
          "internalType": "uint256",
          "name": "_endTime",
          "type": "uint256"
        },
        {
          "internalType": "uint256",
          "name": "_harvestTime",
          "type": "uint256"
        },
        {
          "internalType": "uint256",
          "name": "_offeringAmount",
          "type": "uint256"
        },
        {
          "internalType": "uint256",
          "name": "_raisingAmount",
          "type": "uint256"
        },
        {
          "internalType": "uint256",
          "name": "_maxAllocation",
          "type": "uint256"
        },
        {
          "internalType": "uint256",
          "name": "_maxAddrWhitelist",
          "type": "uint256"
        }
      ],
      "stateMutability": "nonpayable",
      "type": "constructor"
    },
    {
      "anonymous": false,
      "inputs": [
        {
          "indexed": true,
          "internalType": "address",
          "name": "user",
          "type": "address"
        },
        {
          "indexed": false,
          "internalType": "uint256",
          "name": "amount",
          "type": "uint256"
        }
      ],
      "name": "Deposit",
      "type": "event"
    },
    {
      "anonymous": false,
      "inputs": [
        {
          "indexed": true,
          "internalType": "address",
          "name": "user",
          "type": "address"
        },
        {
          "indexed": false,
          "internalType": "uint256",
          "name": "offeringAmount",
          "type": "uint256"
        }
      ],
      "name": "Harvest",
      "type": "event"
    },
    {
      "anonymous": false,
      "inputs": [
        {
          "indexed": true,
          "internalType": "address",
          "name": "previousOwner",
          "type": "address"
        },
        {
          "indexed": true,
          "internalType": "address",
          "name": "newOwner",
          "type": "address"
        }
      ],
      "name": "OwnershipTransferred",
      "type": "event"
    },
    {
      "anonymous": false,
      "inputs": [
        {
          "indexed": false,
          "internalType": "address",
          "name": "account",
          "type": "address"
        }
      ],
      "name": "Paused",
      "type": "event"
    },
    {
      "anonymous": false,
      "inputs": [
        {
          "indexed": false,
          "internalType": "address",
          "name": "account",
          "type": "address"
        }
      ],
      "name": "Unpaused",
      "type": "event"
    },
    {
      "anonymous": false,
      "inputs": [
        {
          "indexed": false,
          "internalType": "address",
          "name": "addr",
          "type": "address"
        }
      ],
      "name": "WhitelistedAddressAdded",
      "type": "event"
    },
    {
      "anonymous": false,
      "inputs": [
        {
          "indexed": false,
          "internalType": "address",
          "name": "addr",
          "type": "address"
        }
      ],
      "name": "WhitelistedAddressRemoved",
      "type": "event"
    },
    {
      "inputs": [
        {
          "internalType": "address",
          "name": "addr",
          "type": "address"
        }
      ],
      "name": "addAddressToWhitelist",
      "outputs": [
        {
          "internalType": "bool",
          "name": "success",
          "type": "bool"
        }
      ],
      "stateMutability": "nonpayable",
      "type": "function"
    },
    {
      "inputs": [
        {
          "internalType": "address[]",
          "name": "addrs",
          "type": "address[]"
        }
      ],
      "name": "addAddressesToWhitelist",
      "outputs": [
        {
          "internalType": "bool",
          "name": "success",
          "type": "bool"
        }
      ],
      "stateMutability": "nonpayable",
      "type": "function"
    },
    {
      "inputs": [
        {
          "internalType": "uint256",
          "name": "",
          "type": "uint256"
        }
      ],
      "name": "addressList",
      "outputs": [
        {
          "internalType": "address",
          "name": "",
          "type": "address"
        }
      ],
      "stateMutability": "view",
      "type": "function"
    },
    {
      "inputs": [
        {
          "internalType": "uint256",
          "name": "_amount",
          "type": "uint256"
        }
      ],
      "name": "deposit",
      "outputs": [],
      "stateMutability": "payable",
      "type": "function"
    },
    {
      "inputs": [
        {
          "internalType": "address",
          "name": "token",
          "type": "address"
        },
        {
          "internalType": "address payable",
          "name": "to",
          "type": "address"
        }
      ],
      "name": "emergencyWithdraw",
      "outputs": [],
      "stateMutability": "nonpayable",
      "type": "function"
    },
    {
      "inputs": [],
      "name": "endTime",
      "outputs": [
        {
          "internalType": "uint256",
          "name": "",
          "type": "uint256"
        }
      ],
      "stateMutability": "view",
      "type": "function"
    },
    {
      "inputs": [
        {
          "internalType": "address",
          "name": "_destination",
          "type": "address"
        }
      ],
      "name": "finalWithdraw",
      "outputs": [],
      "stateMutability": "nonpayable",
      "type": "function"
    },
    {
      "inputs": [],
      "name": "getAddressListLength",
      "outputs": [
        {
          "internalType": "uint256",
          "name": "",
          "type": "uint256"
        }
      ],
      "stateMutability": "view",
      "type": "function"
    },
    {
      "inputs": [
        {
          "internalType": "address",
          "name": "_user",
          "type": "address"
        }
      ],
      "name": "getOfferingAmount",
      "outputs": [
        {
          "internalType": "uint256",
          "name": "",
          "type": "uint256"
        }
      ],
      "stateMutability": "view",
      "type": "function"
    },
    {
      "inputs": [],
      "name": "harvest",
      "outputs": [],
      "stateMutability": "nonpayable",
      "type": "function"
    },
    {
      "inputs": [],
      "name": "harvestTime",
      "outputs": [
        {
          "internalType": "uint256",
          "name": "",
          "type": "uint256"
        }
      ],
      "stateMutability": "view",
      "type": "function"
    },
    {
      "inputs": [],
      "name": "maxAllocation",
      "outputs": [
        {
          "internalType": "uint256",
          "name": "",
          "type": "uint256"
        }
      ],
      "stateMutability": "view",
      "type": "function"
    },
    {
      "inputs": [],
      "name": "maximumAddrWhitelist",
      "outputs": [
        {
          "internalType": "uint256",
          "name": "",
          "type": "uint256"
        }
      ],
      "stateMutability": "view",
      "type": "function"
    },
    {
      "inputs": [],
      "name": "offeringAmount",
      "outputs": [
        {
          "internalType": "uint256",
          "name": "",
          "type": "uint256"
        }
      ],
      "stateMutability": "view",
      "type": "function"
    },
    {
      "inputs": [],
      "name": "offeringToken",
      "outputs": [
        {
          "internalType": "contract ERC20",
          "name": "",
          "type": "address"
        }
      ],
      "stateMutability": "view",
      "type": "function"
    },
    {
      "inputs": [],
      "name": "owner",
      "outputs": [
        {
          "internalType": "address",
          "name": "",
          "type": "address"
        }
      ],
      "stateMutability": "view",
      "type": "function"
    },
    {
      "inputs": [],
      "name": "pause",
      "outputs": [],
      "stateMutability": "nonpayable",
      "type": "function"
    },
    {
      "inputs": [],
      "name": "paused",
      "outputs": [
        {
          "internalType": "bool",
          "name": "",
          "type": "bool"
        }
      ],
      "stateMutability": "view",
      "type": "function"
    },
    {
      "inputs": [],
      "name": "raisingAmount",
      "outputs": [
        {
          "internalType": "uint256",
          "name": "",
          "type": "uint256"
        }
      ],
      "stateMutability": "view",
      "type": "function"
    },
    {
      "inputs": [
        {
          "internalType": "address",
          "name": "addr",
          "type": "address"
        }
      ],
      "name": "removeAddressFromWhitelist",
      "outputs": [
        {
          "internalType": "bool",
          "name": "success",
          "type": "bool"
        }
      ],
      "stateMutability": "nonpayable",
      "type": "function"
    },
    {
      "inputs": [
        {
          "internalType": "address[]",
          "name": "addrs",
          "type": "address[]"
        }
      ],
      "name": "removeAddressesFromWhitelist",
      "outputs": [
        {
          "internalType": "bool",
          "name": "success",
          "type": "bool"
        }
      ],
      "stateMutability": "nonpayable",
      "type": "function"
    },
    {
      "inputs": [],
      "name": "renounceOwnership",
      "outputs": [],
      "stateMutability": "nonpayable",
      "type": "function"
    },
    {
      "inputs": [
        {
          "internalType": "uint256",
          "name": "_offerAmount",
          "type": "uint256"
        }
      ],
      "name": "setOfferingAmount",
      "outputs": [],
      "stateMutability": "nonpayable",
      "type": "function"
    },
    {
      "inputs": [
        {
          "internalType": "uint256",
          "name": "_raisingAmount",
          "type": "uint256"
        }
      ],
      "name": "setRaisingAmount",
      "outputs": [],
      "stateMutability": "nonpayable",
      "type": "function"
    },
    {
      "inputs": [],
      "name": "startTime",
      "outputs": [
        {
          "internalType": "uint256",
          "name": "",
          "type": "uint256"
        }
      ],
      "stateMutability": "view",
      "type": "function"
    },
    {
      "inputs": [],
      "name": "totalAddress",
      "outputs": [
        {
          "internalType": "uint256",
          "name": "",
          "type": "uint256"
        }
      ],
      "stateMutability": "view",
      "type": "function"
    },
    {
      "inputs": [],
      "name": "totalAmount",
      "outputs": [
        {
          "internalType": "uint256",
          "name": "",
          "type": "uint256"
        }
      ],
      "stateMutability": "view",
      "type": "function"
    },
    {
      "inputs": [
        {
          "internalType": "address",
          "name": "newOwner",
          "type": "address"
        }
      ],
      "name": "transferOwnership",
      "outputs": [],
      "stateMutability": "nonpayable",
      "type": "function"
    },
    {
      "inputs": [],
      "name": "unpause",
      "outputs": [],
      "stateMutability": "nonpayable",
      "type": "function"
    },
    {
      "inputs": [
        {
          "internalType": "uint256",
          "name": "_newTime",
          "type": "uint256"
        }
      ],
      "name": "updateEndTime",
      "outputs": [],
      "stateMutability": "nonpayable",
      "type": "function"
    },
    {
      "inputs": [
        {
          "internalType": "uint256",
          "name": "_newTime",
          "type": "uint256"
        }
      ],
      "name": "updateHarvestTime",
      "outputs": [],
      "stateMutability": "nonpayable",
      "type": "function"
    },
    {
      "inputs": [
        {
          "internalType": "address",
          "name": "",
          "type": "address"
        }
      ],
      "name": "userInfo",
      "outputs": [
        {
          "internalType": "uint256",
          "name": "amount",
          "type": "uint256"
        },
        {
          "internalType": "bool",
          "name": "claimed",
          "type": "bool"
        }
      ],
      "stateMutability": "view",
      "type": "function"
    },
    {
      "inputs": [
        {
          "internalType": "address",
          "name": "",
          "type": "address"
        }
      ],
      "name": "whitelist",
      "outputs": [
        {
          "internalType": "bool",
          "name": "",
          "type": "bool"
        }
      ],
      "stateMutability": "view",
      "type": "function"
    }
  ],
  "bytecode": "0x60806040523480156200001157600080fd5b5060405162001c0838038062001c08833981016040819052620000349162000112565b6001600055806200004533620000c0565b6001805460ff60a01b191690556004558585108015906200006557508686115b80156200007157504287115b6200007b57600080fd5b50600580546001600160a01b0319166001600160a01b039890981697909717909655600694909455600792909255600855600a556009556000600b55600e5562000188565b600180546001600160a01b038381166001600160a01b0319831681179093556040519116919082907f8be0079c531659141344cd1fd0a4f28419497f9722a3daafe3b4186f6b6457e090600090a35050565b600080600080600080600080610100898b0312156200012f578384fd5b88516001600160a01b038116811462000146578485fd5b809850506020890151965060408901519550606089015194506080890151935060a0890151925060c0890151915060e089015190509295985092959890939650565b611a7080620001986000396000f3fe6080604052600436106101ee5760003560e01c80637b9417c81161010d578063ac3ff912116100a0578063e1af9a951161006f578063e1af9a9514610566578063e2ec6ec31461057c578063f2fde38b1461059c578063f4808210146105bc578063fc00358e146105d257600080fd5b8063ac3ff912146104f3578063b6b55f2514610513578063b781360714610526578063b810fb431461054657600080fd5b80638da5cb5b116100dc5780638da5cb5b146104655780639b19251a146104975780639b3ba79f146104c75780639c0a7669146104dd57600080fd5b80637b9417c8146103fa5780637e45e9421461041a5780638456cb591461043057806387e97bc61461044557600080fd5b80634225c32f116101855780636ab3846b116101545780636ab3846b1461038f578063715018a6146103af57806376ea6ee0146103c457806378e97925146103e457600080fd5b80634225c32f1461031b5780634641257d1461033b5780635c975abb146103505780636382d9ad1461036f57600080fd5b8063286dd3f5116101c1578063286dd3f5146102ba5780633197cbb6146102da5780633d2b494b146102f05780633f4ba83a1461030657600080fd5b80631959a002146101f35780631a39d8ef1461024457806324953eaa1461026857806327d1b1a214610298575b600080fd5b3480156101ff57600080fd5b5061022a61020e366004611710565b600c602052600090815260409020805460019091015460ff1682565b604080519283529015156020830152015b60405180910390f35b34801561025057600080fd5b5061025a600b5481565b60405190815260200161023b565b34801561027457600080fd5b50610288610283366004611764565b6105e7565b604051901515815260200161023b565b3480156102a457600080fd5b506102b86102b336600461184b565b61067b565b005b3480156102c657600080fd5b506102886102d5366004611710565b6106e0565b3480156102e657600080fd5b5061025a60075481565b3480156102fc57600080fd5b5061025a60045481565b34801561031257600080fd5b506102b86107a0565b34801561032757600080fd5b506102b861033636600461184b565b6107d4565b34801561034757600080fd5b506102b8610839565b34801561035c57600080fd5b50600154600160a01b900460ff16610288565b34801561037b57600080fd5b506102b861038a36600461172c565b6109ed565b34801561039b57600080fd5b506102b86103aa36600461184b565b610af1565b3480156103bb57600080fd5b506102b8610b6d565b3480156103d057600080fd5b506102b86103df36600461184b565b610ba1565b3480156103f057600080fd5b5061025a60065481565b34801561040657600080fd5b50610288610415366004611710565b610c1d565b34801561042657600080fd5b5061025a60035481565b34801561043c57600080fd5b506102b8610d10565b34801561045157600080fd5b5061025a610460366004611710565b610d42565b34801561047157600080fd5b506001546001600160a01b03165b6040516001600160a01b03909116815260200161023b565b3480156104a357600080fd5b506102886104b2366004611710565b60026020526000908152604090205460ff1681565b3480156104d357600080fd5b5061025a600e5481565b3480156104e957600080fd5b5061025a60095481565b3480156104ff57600080fd5b506102b861050e366004611710565b610d7e565b6102b861052136600461184b565b610db5565b34801561053257600080fd5b5060055461047f906001600160a01b031681565b34801561055257600080fd5b5061047f61056136600461184b565b6110d1565b34801561057257600080fd5b5061025a600a5481565b34801561058857600080fd5b50610288610597366004611764565b6110fb565b3480156105a857600080fd5b506102b86105b7366004611710565b611180565b3480156105c857600080fd5b5061025a60085481565b3480156105de57600080fd5b50600d5461025a565b6001546000906001600160a01b0316331461061d5760405162461bcd60e51b8152600401610614906118f4565b60405180910390fd5b60005b82518110156106755761065983828151811061064c57634e487b7160e01b600052603260045260246000fd5b60200260200101516106e0565b1561066357600191505b8061066d816119de565b915050610620565b50919050565b6001546001600160a01b031633146106a55760405162461bcd60e51b8152600401610614906118f4565b60065442106106db5760405162461bcd60e51b81526020600482015260026024820152616e6f60f01b6044820152606401610614565b600a55565b6001546000906001600160a01b0316331461070d5760405162461bcd60e51b8152600401610614906118f4565b6001600160a01b03821660009081526002602052604090205460ff161561079b576001600160a01b038216600081815260026020908152604091829020805460ff1916905590519182527ff1abf01a1043b7c244d128e8595cf0c1d10743b022b03a02dffd8ca3bf729f5a910160405180910390a150600380546001916000610795836119c7565b91905055505b919050565b6001546001600160a01b031633146107ca5760405162461bcd60e51b8152600401610614906118f4565b6107d2611218565b565b6001546001600160a01b031633146107fe5760405162461bcd60e51b8152600401610614906118f4565b60065442106108345760405162461bcd60e51b81526020600482015260026024820152616e6f60f01b6044820152606401610614565b600955565b6002600054141561088c5760405162461bcd60e51b815260206004820152601f60248201527f5265656e7472616e637947756172643a207265656e7472616e742063616c6c006044820152606401610614565b60026000908155338152600c60205260409020546108e55760405162461bcd60e51b81526020600482015260166024820152756861766520796f75207061727469636970617465643f60501b6044820152606401610614565b336000908152600c602052604090206001015460ff161561093d5760405162461bcd60e51b81526020600482015260126024820152711b9bdd1a1a5b99c81d1bc81a185c9d995cdd60721b6044820152606401610614565b600154600160a01b900460ff16156109675760405162461bcd60e51b8152600401610614906118ca565b600061097233610d42565b60055490915061098c906001600160a01b031633836112b5565b336000818152600c6020526040908190206001908101805460ff19169091179055517fc9695243a805adb74c91f28311176c65b417e842d5699893cef56d18bfa48cba906109dd9084815260200190565b60405180910390a2506001600055565b6001546001600160a01b03163314610a175760405162461bcd60e51b8152600401610614906118f4565b6001600160a01b038216610a5f576040516001600160a01b038216904780156108fc02916000818181858888f19350505050158015610a5a573d6000803e3d6000fd5b505050565b6040516370a0823160e01b8152306004820152610aed9082906001600160a01b038516906370a082319060240160206040518083038186803b158015610aa457600080fd5b505afa158015610ab8573d6000803e3d6000fd5b505050506040513d601f19601f82011682018060405250810190610adc9190611863565b6001600160a01b03851691906112b5565b5050565b6001546001600160a01b03163314610b1b5760405162461bcd60e51b8152600401610614906118f4565b4281118015610b2b575060085481105b610b685760405162461bcd60e51b815260206004820152600e60248201526d74696d6520696e76616c6964212160901b6044820152606401610614565b600755565b6001546001600160a01b03163314610b975760405162461bcd60e51b8152600401610614906118f4565b6107d26000611307565b6001546001600160a01b03163314610bcb5760405162461bcd60e51b8152600401610614906118f4565b4281118015610bdb575060075481115b610c185760405162461bcd60e51b815260206004820152600e60248201526d74696d6520696e76616c6964212160901b6044820152606401610614565b600855565b6001546000906001600160a01b03163314610c4a5760405162461bcd60e51b8152600401610614906118f4565b60035460045411610c865760405162461bcd60e51b815260040161061490602080825260049082015263199d5b1b60e21b604082015260600190565b6001600160a01b03821660009081526002602052604090205460ff1661079b576001600160a01b038216600081815260026020908152604091829020805460ff1916600117905590519182527fd1bba68c128cc3f427e5831b3c6f99f480b6efa6b9e80c757768f6124158cc3f910160405180910390a150600380546001916000610795836119de565b6001546001600160a01b03163314610d3a5760405162461bcd60e51b8152600401610614906118f4565b6107d2611359565b600954600a546001600160a01b0383166000908152600c60205260408120549092610d78929091610d72916113be565b906113d1565b92915050565b6001546001600160a01b03163314610da85760405162461bcd60e51b8152600401610614906118f4565b610db281476113dd565b50565b60026000541415610e085760405162461bcd60e51b815260206004820152601f60248201527f5265656e7472616e637947756172643a207265656e7472616e742063616c6c006044820152606401610614565b6002600055600654819042118015610e21575060075442105b610e605760405162461bcd60e51b815260206004820152601060248201526f6e6f742072616973696e672074696d6560801b6044820152606401610614565b60008111610ea35760405162461bcd60e51b815260206004820152601060248201526f06e656564205f616d6f756e74203e20360841b6044820152606401610614565b600154600160a01b900460ff1615610ecd5760405162461bcd60e51b8152600401610614906118ca565b3360009081526002602052604090205460ff16610f1e5760405162461bcd60e51b815260206004820152600f60248201526e1b9bdd081dda1a5d195b1a5cdd1959608a1b6044820152606401610614565b336000908152600c6020526040902054600e5411610f765760405162461bcd60e51b81526020600482015260156024820152746e6f7420656c696769626c6520616d6f756e74212160581b6044820152606401610614565b336000908152600c6020526040812054600e54610f939190611980565b90508280821015610fa15750805b80341015610fe55760405162461bcd60e51b81526020600482015260116024820152700c2dadeeadce840dcdee840cadcdeeaced607b1b6044820152606401610614565b803411156110005761100033610ffb8334611980565b6113dd565b336000908152600c602052604090205461105757600d80546001810182556000919091527fd7b6990105719101dabeb77144f2a3385c8033acd3af97e9423a695e81ad1eb50180546001600160a01b031916331790555b336000908152600c602052604090205461107190826114a6565b336000908152600c6020526040902055600b5461108e90826114a6565b600b5560405181815233907fe1fffcc4923d04b559f4d29a8bfc6cda04eb5b0d3c460751c2402c5c5cc9109c9060200160405180910390a2505060016000555050565b600d81815481106110e157600080fd5b6000918252602090912001546001600160a01b0316905081565b6001546000906001600160a01b031633146111285760405162461bcd60e51b8152600401610614906118f4565b60005b82518110156106755761116483828151811061115757634e487b7160e01b600052603260045260246000fd5b6020026020010151610c1d565b1561116e57600191505b80611178816119de565b91505061112b565b6001546001600160a01b031633146111aa5760405162461bcd60e51b8152600401610614906118f4565b6001600160a01b03811661120f5760405162461bcd60e51b815260206004820152602660248201527f4f776e61626c653a206e6577206f776e657220697320746865207a65726f206160448201526564647265737360d01b6064820152608401610614565b610db281611307565b600154600160a01b900460ff166112685760405162461bcd60e51b815260206004820152601460248201527314185d5cd8589b194e881b9bdd081c185d5cd95960621b6044820152606401610614565b6001805460ff60a01b191690557f5db9ee0a495bf2e6ff9c91a7834c1ba4fdd244a5e8aa4e537bd38aeae4b073aa335b6040516001600160a01b03909116815260200160405180910390a1565b604080516001600160a01b038416602482015260448082018490528251808303909101815260649091019091526020810180516001600160e01b031663a9059cbb60e01b179052610a5a9084906114b2565b600180546001600160a01b038381166001600160a01b0319831681179093556040519116919082907f8be0079c531659141344cd1fd0a4f28419497f9722a3daafe3b4186f6b6457e090600090a35050565b600154600160a01b900460ff16156113835760405162461bcd60e51b8152600401610614906118ca565b6001805460ff60a01b1916600160a01b1790557f62e78cea01bee320cd4e420270b5ea74000d11b0c9f74754ebdbfc544b05a2586112983390565b60006113ca8284611961565b9392505050565b60006113ca8284611941565b604080516000808252602082019092526001600160a01b038416908390604051611407919061187b565b60006040518083038185875af1925050503d8060008114611444576040519150601f19603f3d011682016040523d82523d6000602084013e611449565b606091505b5050905080610a5a5760405162461bcd60e51b815260206004820152602360248201527f5472616e7366657248656c7065723a204b41495f5452414e534645525f46414960448201526213115160ea1b6064820152608401610614565b60006113ca8284611929565b6000611507826040518060400160405280602081526020017f5361666545524332303a206c6f772d6c6576656c2063616c6c206661696c6564815250856001600160a01b03166115849092919063ffffffff16565b805190915015610a5a5780806020019051810190611525919061182b565b610a5a5760405162461bcd60e51b815260206004820152602a60248201527f5361666545524332303a204552433230206f7065726174696f6e20646964206e6044820152691bdd081cdd58d8d9595960b21b6064820152608401610614565b6060611593848460008561159b565b949350505050565b6060824710156115fc5760405162461bcd60e51b815260206004820152602660248201527f416464726573733a20696e73756666696369656e742062616c616e636520666f6044820152651c8818d85b1b60d21b6064820152608401610614565b6001600160a01b0385163b6116535760405162461bcd60e51b815260206004820152601d60248201527f416464726573733a2063616c6c20746f206e6f6e2d636f6e74726163740000006044820152606401610614565b600080866001600160a01b0316858760405161166f919061187b565b60006040518083038185875af1925050503d80600081146116ac576040519150601f19603f3d011682016040523d82523d6000602084013e6116b1565b606091505b50915091506116c18282866116cc565b979650505050505050565b606083156116db5750816113ca565b8251156116eb5782518084602001fd5b8160405162461bcd60e51b81526004016106149190611897565b803561079b81611a25565b600060208284031215611721578081fd5b81356113ca81611a25565b6000806040838503121561173e578081fd5b823561174981611a25565b9150602083013561175981611a25565b809150509250929050565b60006020808385031215611776578182fd5b823567ffffffffffffffff8082111561178d578384fd5b818501915085601f8301126117a0578384fd5b8135818111156117b2576117b2611a0f565b8060051b604051601f19603f830116810181811085821117156117d7576117d7611a0f565b604052828152858101935084860182860187018a10156117f5578788fd5b8795505b8386101561181e5761180a81611705565b8552600195909501949386019386016117f9565b5098975050505050505050565b60006020828403121561183c578081fd5b815180151581146113ca578182fd5b60006020828403121561185c578081fd5b5035919050565b600060208284031215611874578081fd5b5051919050565b6000825161188d818460208701611997565b9190910192915050565b60208152600082518060208401526118b6816040850160208701611997565b601f01601f19169190910160400192915050565b60208082526010908201526f14185d5cd8589b194e881c185d5cd95960821b604082015260600190565b6020808252818101527f4f776e61626c653a2063616c6c6572206973206e6f7420746865206f776e6572604082015260600190565b6000821982111561193c5761193c6119f9565b500190565b60008261195c57634e487b7160e01b81526012600452602481fd5b500490565b600081600019048311821515161561197b5761197b6119f9565b500290565b600082821015611992576119926119f9565b500390565b60005b838110156119b257818101518382015260200161199a565b838111156119c1576000848401525b50505050565b6000816119d6576119d66119f9565b506000190190565b60006000198214156119f2576119f26119f9565b5060010190565b634e487b7160e01b600052601160045260246000fd5b634e487b7160e01b600052604160045260246000fd5b6001600160a01b0381168114610db257600080fdfea2646970667358221220d20d185166cab926f9a3ffaf4fd3178e5c0624527bbd709cc3182a78dfc826c564736f6c63430008040033",
  "linkReferences": {},
  "deployedLinkReferences": {}
}