{
  "_format": "hh-sol-artifact-1",
  "contractName": "WhitelistRaising",
  "sourceName": "contracts/launchpad/whitelist/WhitelistRaising.sol",
  "abi": [
    {
      "inputs": [
        {
          "internalType": "contract ERC20",
          "name": "_offeringToken",
          "type": "address"
        },
        {
          "internalType": "uint256",
          "name": "_startTime",
          "type": "uint256"
        },
        {
          "internalType": "uint256",
          "name": "_endTime",
          "type": "uint256"
        },
        {
          "internalType": "uint256",
          "name": "_harvestTime",
          "type": "uint256"
        },
        {
          "internalType": "uint256",
          "name": "_offeringAmount",
          "type": "uint256"
        },
        {
          "internalType": "uint256",
          "name": "_raisingAmount",
          "type": "uint256"
        },
        {
          "internalType": "uint256",
          "name": "_maxAllocation",
          "type": "uint256"
        },
        {
          "internalType": "uint256",
          "name": "_maxAddrWhitelist",
          "type": "uint256"
        }
      ],
      "stateMutability": "nonpayable",
      "type": "constructor"
    },
    {
      "anonymous": false,
      "inputs": [
        {
          "indexed": true,
          "internalType": "address",
          "name": "user",
          "type": "address"
        },
        {
          "indexed": false,
          "internalType": "uint256",
          "name": "amount",
          "type": "uint256"
        }
      ],
      "name": "Deposit",
      "type": "event"
    },
    {
      "anonymous": false,
      "inputs": [
        {
          "indexed": true,
          "internalType": "address",
          "name": "user",
          "type": "address"
        },
        {
          "indexed": false,
          "internalType": "uint256",
          "name": "offeringAmount",
          "type": "uint256"
        }
      ],
      "name": "Harvest",
      "type": "event"
    },
    {
      "anonymous": false,
      "inputs": [
        {
          "indexed": true,
          "internalType": "address",
          "name": "previousOwner",
          "type": "address"
        },
        {
          "indexed": true,
          "internalType": "address",
          "name": "newOwner",
          "type": "address"
        }
      ],
      "name": "OwnershipTransferred",
      "type": "event"
    },
    {
      "anonymous": false,
      "inputs": [
        {
          "indexed": false,
          "internalType": "address",
          "name": "account",
          "type": "address"
        }
      ],
      "name": "Paused",
      "type": "event"
    },
    {
      "anonymous": false,
      "inputs": [
        {
          "indexed": false,
          "internalType": "address",
          "name": "account",
          "type": "address"
        }
      ],
      "name": "Unpaused",
      "type": "event"
    },
    {
      "anonymous": false,
      "inputs": [
        {
          "indexed": false,
          "internalType": "address",
          "name": "addr",
          "type": "address"
        }
      ],
      "name": "WhitelistedAddressAdded",
      "type": "event"
    },
    {
      "anonymous": false,
      "inputs": [
        {
          "indexed": false,
          "internalType": "address",
          "name": "addr",
          "type": "address"
        }
      ],
      "name": "WhitelistedAddressRemoved",
      "type": "event"
    },
    {
      "inputs": [
        {
          "internalType": "address",
          "name": "addr",
          "type": "address"
        }
      ],
      "name": "addAddressToWhitelist",
      "outputs": [
        {
          "internalType": "bool",
          "name": "success",
          "type": "bool"
        }
      ],
      "stateMutability": "nonpayable",
      "type": "function"
    },
    {
      "inputs": [
        {
          "internalType": "address[]",
          "name": "addrs",
          "type": "address[]"
        }
      ],
      "name": "addAddressesToWhitelist",
      "outputs": [
        {
          "internalType": "bool",
          "name": "success",
          "type": "bool"
        }
      ],
      "stateMutability": "nonpayable",
      "type": "function"
    },
    {
      "inputs": [
        {
          "internalType": "uint256",
          "name": "",
          "type": "uint256"
        }
      ],
      "name": "addressList",
      "outputs": [
        {
          "internalType": "address",
          "name": "",
          "type": "address"
        }
      ],
      "stateMutability": "view",
      "type": "function"
    },
    {
      "inputs": [
        {
          "internalType": "uint256",
          "name": "_amount",
          "type": "uint256"
        }
      ],
      "name": "deposit",
      "outputs": [],
      "stateMutability": "payable",
      "type": "function"
    },
    {
      "inputs": [
        {
          "internalType": "address",
          "name": "token",
          "type": "address"
        },
        {
          "internalType": "address payable",
          "name": "to",
          "type": "address"
        }
      ],
      "name": "emergencyWithdraw",
      "outputs": [],
      "stateMutability": "nonpayable",
      "type": "function"
    },
    {
      "inputs": [],
      "name": "endTime",
      "outputs": [
        {
          "internalType": "uint256",
          "name": "",
          "type": "uint256"
        }
      ],
      "stateMutability": "view",
      "type": "function"
    },
    {
      "inputs": [
        {
          "internalType": "address",
          "name": "_destination",
          "type": "address"
        }
      ],
      "name": "finalWithdraw",
      "outputs": [],
      "stateMutability": "nonpayable",
      "type": "function"
    },
    {
      "inputs": [],
      "name": "getAddressListLength",
      "outputs": [
        {
          "internalType": "uint256",
          "name": "",
          "type": "uint256"
        }
      ],
      "stateMutability": "view",
      "type": "function"
    },
    {
      "inputs": [
        {
          "internalType": "address",
          "name": "_user",
          "type": "address"
        }
      ],
      "name": "getOfferingAmount",
      "outputs": [
        {
          "internalType": "uint256",
          "name": "",
          "type": "uint256"
        }
      ],
      "stateMutability": "view",
      "type": "function"
    },
    {
      "inputs": [],
      "name": "harvest",
      "outputs": [],
      "stateMutability": "nonpayable",
      "type": "function"
    },
    {
      "inputs": [],
      "name": "harvestTime",
      "outputs": [
        {
          "internalType": "uint256",
          "name": "",
          "type": "uint256"
        }
      ],
      "stateMutability": "view",
      "type": "function"
    },
    {
      "inputs": [],
      "name": "maxAllocation",
      "outputs": [
        {
          "internalType": "uint256",
          "name": "",
          "type": "uint256"
        }
      ],
      "stateMutability": "view",
      "type": "function"
    },
    {
      "inputs": [],
      "name": "maximumAddrWhitelist",
      "outputs": [
        {
          "internalType": "uint256",
          "name": "",
          "type": "uint256"
        }
      ],
      "stateMutability": "view",
      "type": "function"
    },
    {
      "inputs": [],
      "name": "offeringAmount",
      "outputs": [
        {
          "internalType": "uint256",
          "name": "",
          "type": "uint256"
        }
      ],
      "stateMutability": "view",
      "type": "function"
    },
    {
      "inputs": [],
      "name": "offeringToken",
      "outputs": [
        {
          "internalType": "contract ERC20",
          "name": "",
          "type": "address"
        }
      ],
      "stateMutability": "view",
      "type": "function"
    },
    {
      "inputs": [],
      "name": "owner",
      "outputs": [
        {
          "internalType": "address",
          "name": "",
          "type": "address"
        }
      ],
      "stateMutability": "view",
      "type": "function"
    },
    {
      "inputs": [],
      "name": "pause",
      "outputs": [],
      "stateMutability": "nonpayable",
      "type": "function"
    },
    {
      "inputs": [],
      "name": "paused",
      "outputs": [
        {
          "internalType": "bool",
          "name": "",
          "type": "bool"
        }
      ],
      "stateMutability": "view",
      "type": "function"
    },
    {
      "inputs": [],
      "name": "raisingAmount",
      "outputs": [
        {
          "internalType": "uint256",
          "name": "",
          "type": "uint256"
        }
      ],
      "stateMutability": "view",
      "type": "function"
    },
    {
      "inputs": [
        {
          "internalType": "address",
          "name": "addr",
          "type": "address"
        }
      ],
      "name": "removeAddressFromWhitelist",
      "outputs": [
        {
          "internalType": "bool",
          "name": "success",
          "type": "bool"
        }
      ],
      "stateMutability": "nonpayable",
      "type": "function"
    },
    {
      "inputs": [
        {
          "internalType": "address[]",
          "name": "addrs",
          "type": "address[]"
        }
      ],
      "name": "removeAddressesFromWhitelist",
      "outputs": [
        {
          "internalType": "bool",
          "name": "success",
          "type": "bool"
        }
      ],
      "stateMutability": "nonpayable",
      "type": "function"
    },
    {
      "inputs": [],
      "name": "renounceOwnership",
      "outputs": [],
      "stateMutability": "nonpayable",
      "type": "function"
    },
    {
      "inputs": [
        {
          "internalType": "uint256",
          "name": "_offerAmount",
          "type": "uint256"
        }
      ],
      "name": "setOfferingAmount",
      "outputs": [],
      "stateMutability": "nonpayable",
      "type": "function"
    },
    {
      "inputs": [
        {
          "internalType": "uint256",
          "name": "_raisingAmount",
          "type": "uint256"
        }
      ],
      "name": "setRaisingAmount",
      "outputs": [],
      "stateMutability": "nonpayable",
      "type": "function"
    },
    {
      "inputs": [],
      "name": "startTime",
      "outputs": [
        {
          "internalType": "uint256",
          "name": "",
          "type": "uint256"
        }
      ],
      "stateMutability": "view",
      "type": "function"
    },
    {
      "inputs": [],
      "name": "totalAddress",
      "outputs": [
        {
          "internalType": "uint256",
          "name": "",
          "type": "uint256"
        }
      ],
      "stateMutability": "view",
      "type": "function"
    },
    {
      "inputs": [],
      "name": "totalAmount",
      "outputs": [
        {
          "internalType": "uint256",
          "name": "",
          "type": "uint256"
        }
      ],
      "stateMutability": "view",
      "type": "function"
    },
    {
      "inputs": [
        {
          "internalType": "address",
          "name": "newOwner",
          "type": "address"
        }
      ],
      "name": "transferOwnership",
      "outputs": [],
      "stateMutability": "nonpayable",
      "type": "function"
    },
    {
      "inputs": [],
      "name": "unpause",
      "outputs": [],
      "stateMutability": "nonpayable",
      "type": "function"
    },
    {
      "inputs": [
        {
          "internalType": "uint256",
          "name": "_newTime",
          "type": "uint256"
        }
      ],
      "name": "updateEndTime",
      "outputs": [],
      "stateMutability": "nonpayable",
      "type": "function"
    },
    {
      "inputs": [
        {
          "internalType": "uint256",
          "name": "_newTime",
          "type": "uint256"
        }
      ],
      "name": "updateHarvestTime",
      "outputs": [],
      "stateMutability": "nonpayable",
      "type": "function"
    },
    {
      "inputs": [
        {
          "internalType": "address",
          "name": "",
          "type": "address"
        }
      ],
      "name": "userInfo",
      "outputs": [
        {
          "internalType": "uint256",
          "name": "amount",
          "type": "uint256"
        },
        {
          "internalType": "bool",
          "name": "claimed",
          "type": "bool"
        }
      ],
      "stateMutability": "view",
      "type": "function"
    },
    {
      "inputs": [
        {
          "internalType": "address",
          "name": "",
          "type": "address"
        }
      ],
      "name": "whitelist",
      "outputs": [
        {
          "internalType": "bool",
          "name": "",
          "type": "bool"
        }
      ],
      "stateMutability": "view",
      "type": "function"
    }
  ],
  "bytecode": "0x60806040523480156200001157600080fd5b506040516200387a3803806200387a833981810160405281019062000037919062000226565b80600160008190555062000060620000546200012a60201b60201c565b6200013260201b60201c565b6000600160146101000a81548160ff02191690831515021790555080600481905550508585101580156200009357508686115b80156200009f57504287115b620000a957600080fd5b87600560006101000a81548173ffffffffffffffffffffffffffffffffffffffff021916908373ffffffffffffffffffffffffffffffffffffffff16021790555086600681905550856007819055508460088190555083600a81905550826009819055506000600b8190555081600e8190555050505050505050506200036f565b600033905090565b6000600160009054906101000a900473ffffffffffffffffffffffffffffffffffffffff16905081600160006101000a81548173ffffffffffffffffffffffffffffffffffffffff021916908373ffffffffffffffffffffffffffffffffffffffff1602179055508173ffffffffffffffffffffffffffffffffffffffff168173ffffffffffffffffffffffffffffffffffffffff167f8be0079c531659141344cd1fd0a4f28419497f9722a3daafe3b4186f6b6457e060405160405180910390a35050565b60008151905062000209816200033b565b92915050565b600081519050620002208162000355565b92915050565b600080600080600080600080610100898b0312156200024457600080fd5b6000620002548b828c01620001f8565b9850506020620002678b828c016200020f565b97505060406200027a8b828c016200020f565b96505060606200028d8b828c016200020f565b9550506080620002a08b828c016200020f565b94505060a0620002b38b828c016200020f565b93505060c0620002c68b828c016200020f565b92505060e0620002d98b828c016200020f565b9150509295985092959890939650565b6000620002f68262000311565b9050919050565b60006200030a82620002e9565b9050919050565b600073ffffffffffffffffffffffffffffffffffffffff82169050919050565b6000819050919050565b6200034681620002fd565b81146200035257600080fd5b50565b620003608162000331565b81146200036c57600080fd5b50565b6134fb806200037f6000396000f3fe6080604052600436106101ee5760003560e01c80637b9417c81161010d578063ac3ff912116100a0578063e1af9a951161006f578063e1af9a95146106bb578063e2ec6ec3146106e6578063f2fde38b14610723578063f48082101461074c578063fc00358e14610777576101ee565b8063ac3ff9121461060e578063b6b55f2514610637578063b781360714610653578063b810fb431461067e576101ee565b80638da5cb5b116100dc5780638da5cb5b146105505780639b19251a1461057b5780639b3ba79f146105b85780639c0a7669146105e3576101ee565b80637b9417c8146104945780637e45e942146104d15780638456cb59146104fc57806387e97bc614610513576101ee565b80634225c32f116101855780636ab3846b116101545780636ab3846b14610400578063715018a61461042957806376ea6ee01461044057806378e9792514610469576101ee565b80634225c32f1461036c5780634641257d146103955780635c975abb146103ac5780636382d9ad146103d7576101ee565b8063286dd3f5116101c1578063286dd3f5146102c25780633197cbb6146102ff5780633d2b494b1461032a5780633f4ba83a14610355576101ee565b80631959a002146101f35780631a39d8ef1461023157806324953eaa1461025c57806327d1b1a214610299575b600080fd5b3480156101ff57600080fd5b5061021a60048036038101906102159190612584565b6107a2565b604051610228929190612d12565b60405180910390f35b34801561023d57600080fd5b506102466107d3565b6040516102539190612cf7565b60405180910390f35b34801561026857600080fd5b50610283600480360381019061027e91906125e9565b6107d9565b6040516102909190612a3f565b60405180910390f35b3480156102a557600080fd5b506102c060048036038101906102bb9190612653565b6108cf565b005b3480156102ce57600080fd5b506102e960048036038101906102e49190612584565b610999565b6040516102f69190612a3f565b60405180910390f35b34801561030b57600080fd5b50610314610b1a565b6040516103219190612cf7565b60405180910390f35b34801561033657600080fd5b5061033f610b20565b60405161034c9190612cf7565b60405180910390f35b34801561036157600080fd5b5061036a610b26565b005b34801561037857600080fd5b50610393600480360381019061038e9190612653565b610bac565b005b3480156103a157600080fd5b506103aa610c76565b005b3480156103b857600080fd5b506103c1610f2f565b6040516103ce9190612a3f565b60405180910390f35b3480156103e357600080fd5b506103fe60048036038101906103f991906125ad565b610f46565b005b34801561040c57600080fd5b5061042760048036038101906104229190612653565b6110fb565b005b34801561043557600080fd5b5061043e6111d0565b005b34801561044c57600080fd5b5061046760048036038101906104629190612653565b611258565b005b34801561047557600080fd5b5061047e61132d565b60405161048b9190612cf7565b60405180910390f35b3480156104a057600080fd5b506104bb60048036038101906104b69190612584565b611333565b6040516104c89190612a3f565b60405180910390f35b3480156104dd57600080fd5b506104e66114f9565b6040516104f39190612cf7565b60405180910390f35b34801561050857600080fd5b506105116114ff565b005b34801561051f57600080fd5b5061053a60048036038101906105359190612584565b611585565b6040516105479190612cf7565b60405180910390f35b34801561055c57600080fd5b506105656115f9565b60405161057291906129fb565b60405180910390f35b34801561058757600080fd5b506105a2600480360381019061059d9190612584565b611623565b6040516105af9190612a3f565b60405180910390f35b3480156105c457600080fd5b506105cd611643565b6040516105da9190612cf7565b60405180910390f35b3480156105ef57600080fd5b506105f8611649565b6040516106059190612cf7565b60405180910390f35b34801561061a57600080fd5b5061063560048036038101906106309190612584565b61164f565b005b610651600480360381019061064c9190612653565b6116d8565b005b34801561065f57600080fd5b50610668611b9c565b6040516106759190612a5a565b60405180910390f35b34801561068a57600080fd5b506106a560048036038101906106a09190612653565b611bc2565b6040516106b291906129fb565b60405180910390f35b3480156106c757600080fd5b506106d0611c01565b6040516106dd9190612cf7565b60405180910390f35b3480156106f257600080fd5b5061070d600480360381019061070891906125e9565b611c07565b60405161071a9190612a3f565b60405180910390f35b34801561072f57600080fd5b5061074a60048036038101906107459190612584565b611cfd565b005b34801561075857600080fd5b50610761611df5565b60405161076e9190612cf7565b60405180910390f35b34801561078357600080fd5b5061078c611dfb565b6040516107999190612cf7565b60405180910390f35b600c6020528060005260406000206000915090508060000154908060010160009054906101000a900460ff16905082565b600b5481565b60006107e3611e08565b73ffffffffffffffffffffffffffffffffffffffff166108016115f9565b73ffffffffffffffffffffffffffffffffffffffff1614610857576040517f08c379a000000000000000000000000000000000000000000000000000000000815260040161084e90612bf7565b60405180910390fd5b60005b82518110156108c9576108ac83828151811061089f577f4e487b7100000000000000000000000000000000000000000000000000000000600052603260045260246000fd5b6020026020010151610999565b156108b657600191505b80806108c190612fdf565b91505061085a565b50919050565b6108d7611e08565b73ffffffffffffffffffffffffffffffffffffffff166108f56115f9565b73ffffffffffffffffffffffffffffffffffffffff161461094b576040517f08c379a000000000000000000000000000000000000000000000000000000000815260040161094290612bf7565b60405180910390fd5b600654421061098f576040517f08c379a000000000000000000000000000000000000000000000000000000000815260040161098690612b97565b60405180910390fd5b80600a8190555050565b60006109a3611e08565b73ffffffffffffffffffffffffffffffffffffffff166109c16115f9565b73ffffffffffffffffffffffffffffffffffffffff1614610a17576040517f08c379a0000000000000000000000000000000000000000000000000000000008152600401610a0e90612bf7565b60405180910390fd5b600260008373ffffffffffffffffffffffffffffffffffffffff1673ffffffffffffffffffffffffffffffffffffffff16815260200190815260200160002060009054906101000a900460ff1615610b15576000600260008473ffffffffffffffffffffffffffffffffffffffff1673ffffffffffffffffffffffffffffffffffffffff16815260200190815260200160002060006101000a81548160ff0219169083151502179055507ff1abf01a1043b7c244d128e8595cf0c1d10743b022b03a02dffd8ca3bf729f5a82604051610af091906129fb565b60405180910390a16001905060036000815480929190610b0f90612f84565b91905055505b919050565b60075481565b60045481565b610b2e611e08565b73ffffffffffffffffffffffffffffffffffffffff16610b4c6115f9565b73ffffffffffffffffffffffffffffffffffffffff1614610ba2576040517f08c379a0000000000000000000000000000000000000000000000000000000008152600401610b9990612bf7565b60405180910390fd5b610baa611e10565b565b610bb4611e08565b73ffffffffffffffffffffffffffffffffffffffff16610bd26115f9565b73ffffffffffffffffffffffffffffffffffffffff1614610c28576040517f08c379a0000000000000000000000000000000000000000000000000000000008152600401610c1f90612bf7565b60405180910390fd5b6006544210610c6c576040517f08c379a0000000000000000000000000000000000000000000000000000000008152600401610c6390612b97565b60405180910390fd5b8060098190555050565b60026000541415610cbc576040517f08c379a0000000000000000000000000000000000000000000000000000000008152600401610cb390612cb7565b60405180910390fd5b60026000819055506000600c60003373ffffffffffffffffffffffffffffffffffffffff1673ffffffffffffffffffffffffffffffffffffffff1681526020019081526020016000206000015411610d49576040517f08c379a0000000000000000000000000000000000000000000000000000000008152600401610d4090612bd7565b60405180910390fd5b600c60003373ffffffffffffffffffffffffffffffffffffffff1673ffffffffffffffffffffffffffffffffffffffff16815260200190815260200160002060010160009054906101000a900460ff1615610dd9576040517f08c379a0000000000000000000000000000000000000000000000000000000008152600401610dd090612cd7565b60405180910390fd5b610de1610f2f565b15610e21576040517f08c379a0000000000000000000000000000000000000000000000000000000008152600401610e1890612b57565b60405180910390fd5b6000610e2c33611585565b9050610e7b3382600560009054906101000a900473ffffffffffffffffffffffffffffffffffffffff1673ffffffffffffffffffffffffffffffffffffffff16611eb29092919063ffffffff16565b6001600c60003373ffffffffffffffffffffffffffffffffffffffff1673ffffffffffffffffffffffffffffffffffffffff16815260200190815260200160002060010160006101000a81548160ff0219169083151502179055503373ffffffffffffffffffffffffffffffffffffffff167fc9695243a805adb74c91f28311176c65b417e842d5699893cef56d18bfa48cba82604051610f1c9190612cf7565b60405180910390a2506001600081905550565b6000600160149054906101000a900460ff16905090565b610f4e611e08565b73ffffffffffffffffffffffffffffffffffffffff16610f6c6115f9565b73ffffffffffffffffffffffffffffffffffffffff1614610fc2576040517f08c379a0000000000000000000000000000000000000000000000000000000008152600401610fb990612bf7565b60405180910390fd5b600073ffffffffffffffffffffffffffffffffffffffff168273ffffffffffffffffffffffffffffffffffffffff161415611043578073ffffffffffffffffffffffffffffffffffffffff166108fc479081150290604051600060405180830381858888f1935050505015801561103d573d6000803e3d6000fd5b506110f7565b6110f6818373ffffffffffffffffffffffffffffffffffffffff166370a08231306040518263ffffffff1660e01b815260040161108091906129fb565b60206040518083038186803b15801561109857600080fd5b505afa1580156110ac573d6000803e3d6000fd5b505050506040513d601f19601f820116820180604052508101906110d0919061267c565b8473ffffffffffffffffffffffffffffffffffffffff16611eb29092919063ffffffff16565b5b5050565b611103611e08565b73ffffffffffffffffffffffffffffffffffffffff166111216115f9565b73ffffffffffffffffffffffffffffffffffffffff1614611177576040517f08c379a000000000000000000000000000000000000000000000000000000000815260040161116e90612bf7565b60405180910390fd5b4281118015611187575060085481105b6111c6576040517f08c379a00000000000000000000000000000000000000000000000000000000081526004016111bd90612b17565b60405180910390fd5b8060078190555050565b6111d8611e08565b73ffffffffffffffffffffffffffffffffffffffff166111f66115f9565b73ffffffffffffffffffffffffffffffffffffffff161461124c576040517f08c379a000000000000000000000000000000000000000000000000000000000815260040161124390612bf7565b60405180910390fd5b6112566000611f38565b565b611260611e08565b73ffffffffffffffffffffffffffffffffffffffff1661127e6115f9565b73ffffffffffffffffffffffffffffffffffffffff16146112d4576040517f08c379a00000000000000000000000000000000000000000000000000000000081526004016112cb90612bf7565b60405180910390fd5b42811180156112e4575060075481115b611323576040517f08c379a000000000000000000000000000000000000000000000000000000000815260040161131a90612b17565b60405180910390fd5b8060088190555050565b60065481565b600061133d611e08565b73ffffffffffffffffffffffffffffffffffffffff1661135b6115f9565b73ffffffffffffffffffffffffffffffffffffffff16146113b1576040517f08c379a00000000000000000000000000000000000000000000000000000000081526004016113a890612bf7565b60405180910390fd5b600354600454116113f7576040517f08c379a00000000000000000000000000000000000000000000000000000000081526004016113ee90612c17565b60405180910390fd5b600260008373ffffffffffffffffffffffffffffffffffffffff1673ffffffffffffffffffffffffffffffffffffffff16815260200190815260200160002060009054906101000a900460ff166114f4576001600260008473ffffffffffffffffffffffffffffffffffffffff1673ffffffffffffffffffffffffffffffffffffffff16815260200190815260200160002060006101000a81548160ff0219169083151502179055507fd1bba68c128cc3f427e5831b3c6f99f480b6efa6b9e80c757768f6124158cc3f826040516114cf91906129fb565b60405180910390a160019050600360008154809291906114ee90612fdf565b91905055505b919050565b60035481565b611507611e08565b73ffffffffffffffffffffffffffffffffffffffff166115256115f9565b73ffffffffffffffffffffffffffffffffffffffff161461157b576040517f08c379a000000000000000000000000000000000000000000000000000000000815260040161157290612bf7565b60405180910390fd5b611583611ffe565b565b60006115f26009546115e4600a54600c60008773ffffffffffffffffffffffffffffffffffffffff1673ffffffffffffffffffffffffffffffffffffffff168152602001908152602001600020600001546120a090919063ffffffff16565b6120b690919063ffffffff16565b9050919050565b6000600160009054906101000a900473ffffffffffffffffffffffffffffffffffffffff16905090565b60026020528060005260406000206000915054906101000a900460ff1681565b600e5481565b60095481565b611657611e08565b73ffffffffffffffffffffffffffffffffffffffff166116756115f9565b73ffffffffffffffffffffffffffffffffffffffff16146116cb576040517f08c379a00000000000000000000000000000000000000000000000000000000081526004016116c290612bf7565b60405180910390fd5b6116d581476120cc565b50565b6002600054141561171e576040517f08c379a000000000000000000000000000000000000000000000000000000000815260040161171590612cb7565b60405180910390fd5b60026000819055508060065442118015611739575060075442105b611778576040517f08c379a000000000000000000000000000000000000000000000000000000000815260040161176f90612af7565b60405180910390fd5b600081116117bb576040517f08c379a00000000000000000000000000000000000000000000000000000000081526004016117b290612a97565b60405180910390fd5b6117c3610f2f565b15611803576040517f08c379a00000000000000000000000000000000000000000000000000000000081526004016117fa90612b57565b60405180910390fd5b600260003373ffffffffffffffffffffffffffffffffffffffff1673ffffffffffffffffffffffffffffffffffffffff16815260200190815260200160002060009054906101000a900460ff1661188f576040517f08c379a000000000000000000000000000000000000000000000000000000000815260040161188690612c77565b60405180910390fd5b600c60003373ffffffffffffffffffffffffffffffffffffffff1673ffffffffffffffffffffffffffffffffffffffff16815260200190815260200160002060000154600e5411611915576040517f08c379a000000000000000000000000000000000000000000000000000000000815260040161190c90612b77565b60405180910390fd5b6000600c60003373ffffffffffffffffffffffffffffffffffffffff1673ffffffffffffffffffffffffffffffffffffffff16815260200190815260200160002060000154600e546119679190612e9f565b905060008390508382101561197a578190505b803410156119bd576040517f08c379a00000000000000000000000000000000000000000000000000000000081526004016119b490612bb7565b60405180910390fd5b803411156119db576119da3382346119d59190612e9f565b6120cc565b5b6000600c60003373ffffffffffffffffffffffffffffffffffffffff1673ffffffffffffffffffffffffffffffffffffffff168152602001908152602001600020600001541415611a8a57600d339080600181540180825580915050600190039060005260206000200160009091909190916101000a81548173ffffffffffffffffffffffffffffffffffffffff021916908373ffffffffffffffffffffffffffffffffffffffff1602179055505b611adf81600c60003373ffffffffffffffffffffffffffffffffffffffff1673ffffffffffffffffffffffffffffffffffffffff168152602001908152602001600020600001546121f290919063ffffffff16565b600c60003373ffffffffffffffffffffffffffffffffffffffff1673ffffffffffffffffffffffffffffffffffffffff16815260200190815260200160002060000181905550611b3a81600b546121f290919063ffffffff16565b600b819055503373ffffffffffffffffffffffffffffffffffffffff167fe1fffcc4923d04b559f4d29a8bfc6cda04eb5b0d3c460751c2402c5c5cc9109c82604051611b869190612cf7565b60405180910390a2505050600160008190555050565b600560009054906101000a900473ffffffffffffffffffffffffffffffffffffffff1681565b600d8181548110611bd257600080fd5b906000526020600020016000915054906101000a900473ffffffffffffffffffffffffffffffffffffffff1681565b600a5481565b6000611c11611e08565b73ffffffffffffffffffffffffffffffffffffffff16611c2f6115f9565b73ffffffffffffffffffffffffffffffffffffffff1614611c85576040517f08c379a0000000000000000000000000000000000000000000000000000000008152600401611c7c90612bf7565b60405180910390fd5b60005b8251811015611cf757611cda838281518110611ccd577f4e487b7100000000000000000000000000000000000000000000000000000000600052603260045260246000fd5b6020026020010151611333565b15611ce457600191505b8080611cef90612fdf565b915050611c88565b50919050565b611d05611e08565b73ffffffffffffffffffffffffffffffffffffffff16611d236115f9565b73ffffffffffffffffffffffffffffffffffffffff1614611d79576040517f08c379a0000000000000000000000000000000000000000000000000000000008152600401611d7090612bf7565b60405180910390fd5b600073ffffffffffffffffffffffffffffffffffffffff168173ffffffffffffffffffffffffffffffffffffffff161415611de9576040517f08c379a0000000000000000000000000000000000000000000000000000000008152600401611de090612ad7565b60405180910390fd5b611df281611f38565b50565b60085481565b6000600d80549050905090565b600033905090565b611e18610f2f565b611e57576040517f08c379a0000000000000000000000000000000000000000000000000000000008152600401611e4e90612ab7565b60405180910390fd5b6000600160146101000a81548160ff0219169083151502179055507f5db9ee0a495bf2e6ff9c91a7834c1ba4fdd244a5e8aa4e537bd38aeae4b073aa611e9b611e08565b604051611ea891906129fb565b60405180910390a1565b611f338363a9059cbb60e01b8484604051602401611ed1929190612a16565b604051602081830303815290604052907bffffffffffffffffffffffffffffffffffffffffffffffffffffffff19166020820180517bffffffffffffffffffffffffffffffffffffffffffffffffffffffff8381831617835250505050612208565b505050565b6000600160009054906101000a900473ffffffffffffffffffffffffffffffffffffffff16905081600160006101000a81548173ffffffffffffffffffffffffffffffffffffffff021916908373ffffffffffffffffffffffffffffffffffffffff1602179055508173ffffffffffffffffffffffffffffffffffffffff168173ffffffffffffffffffffffffffffffffffffffff167f8be0079c531659141344cd1fd0a4f28419497f9722a3daafe3b4186f6b6457e060405160405180910390a35050565b612006610f2f565b15612046576040517f08c379a000000000000000000000000000000000000000000000000000000000815260040161203d90612b57565b60405180910390fd5b60018060146101000a81548160ff0219169083151502179055507f62e78cea01bee320cd4e420270b5ea74000d11b0c9f74754ebdbfc544b05a258612089611e08565b60405161209691906129fb565b60405180910390a1565b600081836120ae9190612e45565b905092915050565b600081836120c49190612e14565b905092915050565b60008273ffffffffffffffffffffffffffffffffffffffff1682600067ffffffffffffffff811115612127577f4e487b7100000000000000000000000000000000000000000000000000000000600052604160045260246000fd5b6040519080825280601f01601f1916602001820160405280156121595781602001600182028036833780820191505090505b5060405161216791906129e4565b60006040518083038185875af1925050503d80600081146121a4576040519150601f19603f3d011682016040523d82523d6000602084013e6121a9565b606091505b50509050806121ed576040517f08c379a00000000000000000000000000000000000000000000000000000000081526004016121e490612c57565b60405180910390fd5b505050565b600081836122009190612dbe565b905092915050565b600061226a826040518060400160405280602081526020017f5361666545524332303a206c6f772d6c6576656c2063616c6c206661696c65648152508573ffffffffffffffffffffffffffffffffffffffff166122cf9092919063ffffffff16565b90506000815111156122ca578080602001905181019061228a919061262a565b6122c9576040517f08c379a00000000000000000000000000000000000000000000000000000000081526004016122c090612c97565b60405180910390fd5b5b505050565b60606122de84846000856122e7565b90509392505050565b60608247101561232c576040517f08c379a000000000000000000000000000000000000000000000000000000000815260040161232390612b37565b60405180910390fd5b612335856123fb565b612374576040517f08c379a000000000000000000000000000000000000000000000000000000000815260040161236b90612c37565b60405180910390fd5b6000808673ffffffffffffffffffffffffffffffffffffffff16858760405161239d91906129e4565b60006040518083038185875af1925050503d80600081146123da576040519150601f19603f3d011682016040523d82523d6000602084013e6123df565b606091505b50915091506123ef82828661241e565b92505050949350505050565b6000808273ffffffffffffffffffffffffffffffffffffffff163b119050919050565b6060831561242e5782905061247e565b6000835111156124415782518084602001fd5b816040517f08c379a00000000000000000000000000000000000000000000000000000000081526004016124759190612a75565b60405180910390fd5b9392505050565b600061249861249384612d60565b612d3b565b905080838252602082019050828560208602820111156124b757600080fd5b60005b858110156124e757816124cd88826124f1565b8452602084019350602083019250506001810190506124ba565b5050509392505050565b60008135905061250081613469565b92915050565b60008135905061251581613480565b92915050565b600082601f83011261252c57600080fd5b813561253c848260208601612485565b91505092915050565b60008151905061255481613497565b92915050565b600081359050612569816134ae565b92915050565b60008151905061257e816134ae565b92915050565b60006020828403121561259657600080fd5b60006125a4848285016124f1565b91505092915050565b600080604083850312156125c057600080fd5b60006125ce858286016124f1565b92505060206125df85828601612506565b9150509250929050565b6000602082840312156125fb57600080fd5b600082013567ffffffffffffffff81111561261557600080fd5b6126218482850161251b565b91505092915050565b60006020828403121561263c57600080fd5b600061264a84828501612545565b91505092915050565b60006020828403121561266557600080fd5b60006126738482850161255a565b91505092915050565b60006020828403121561268e57600080fd5b600061269c8482850161256f565b91505092915050565b6126ae81612ed3565b82525050565b6126bd81612ef7565b82525050565b60006126ce82612d8c565b6126d88185612da2565b93506126e8818560208601612f51565b80840191505092915050565b6126fd81612f2d565b82525050565b600061270e82612d97565b6127188185612dad565b9350612728818560208601612f51565b612731816130b5565b840191505092915050565b6000612749601083612dad565b9150612754826130c6565b602082019050919050565b600061276c601483612dad565b9150612777826130ef565b602082019050919050565b600061278f602683612dad565b915061279a82613118565b604082019050919050565b60006127b2601083612dad565b91506127bd82613167565b602082019050919050565b60006127d5600e83612dad565b91506127e082613190565b602082019050919050565b60006127f8602683612dad565b9150612803826131b9565b604082019050919050565b600061281b601083612dad565b915061282682613208565b602082019050919050565b600061283e601583612dad565b915061284982613231565b602082019050919050565b6000612861600283612dad565b915061286c8261325a565b602082019050919050565b6000612884601183612dad565b915061288f82613283565b602082019050919050565b60006128a7601683612dad565b91506128b2826132ac565b602082019050919050565b60006128ca602083612dad565b91506128d5826132d5565b602082019050919050565b60006128ed600483612dad565b91506128f8826132fe565b602082019050919050565b6000612910601d83612dad565b915061291b82613327565b602082019050919050565b6000612933602383612dad565b915061293e82613350565b604082019050919050565b6000612956600f83612dad565b91506129618261339f565b602082019050919050565b6000612979602a83612dad565b9150612984826133c8565b604082019050919050565b600061299c601f83612dad565b91506129a782613417565b602082019050919050565b60006129bf601283612dad565b91506129ca82613440565b602082019050919050565b6129de81612f23565b82525050565b60006129f082846126c3565b915081905092915050565b6000602082019050612a1060008301846126a5565b92915050565b6000604082019050612a2b60008301856126a5565b612a3860208301846129d5565b9392505050565b6000602082019050612a5460008301846126b4565b92915050565b6000602082019050612a6f60008301846126f4565b92915050565b60006020820190508181036000830152612a8f8184612703565b905092915050565b60006020820190508181036000830152612ab08161273c565b9050919050565b60006020820190508181036000830152612ad08161275f565b9050919050565b60006020820190508181036000830152612af081612782565b9050919050565b60006020820190508181036000830152612b10816127a5565b9050919050565b60006020820190508181036000830152612b30816127c8565b9050919050565b60006020820190508181036000830152612b50816127eb565b9050919050565b60006020820190508181036000830152612b708161280e565b9050919050565b60006020820190508181036000830152612b9081612831565b9050919050565b60006020820190508181036000830152612bb081612854565b9050919050565b60006020820190508181036000830152612bd081612877565b9050919050565b60006020820190508181036000830152612bf08161289a565b9050919050565b60006020820190508181036000830152612c10816128bd565b9050919050565b60006020820190508181036000830152612c30816128e0565b9050919050565b60006020820190508181036000830152612c5081612903565b9050919050565b60006020820190508181036000830152612c7081612926565b9050919050565b60006020820190508181036000830152612c9081612949565b9050919050565b60006020820190508181036000830152612cb08161296c565b9050919050565b60006020820190508181036000830152612cd08161298f565b9050919050565b60006020820190508181036000830152612cf0816129b2565b9050919050565b6000602082019050612d0c60008301846129d5565b92915050565b6000604082019050612d2760008301856129d5565b612d3460208301846126b4565b9392505050565b6000612d45612d56565b9050612d518282612fae565b919050565b6000604051905090565b600067ffffffffffffffff821115612d7b57612d7a613086565b5b602082029050602081019050919050565b600081519050919050565b600081519050919050565b600081905092915050565b600082825260208201905092915050565b6000612dc982612f23565b9150612dd483612f23565b9250827fffffffffffffffffffffffffffffffffffffffffffffffffffffffffffffffff03821115612e0957612e08613028565b5b828201905092915050565b6000612e1f82612f23565b9150612e2a83612f23565b925082612e3a57612e39613057565b5b828204905092915050565b6000612e5082612f23565b9150612e5b83612f23565b9250817fffffffffffffffffffffffffffffffffffffffffffffffffffffffffffffffff0483118215151615612e9457612e93613028565b5b828202905092915050565b6000612eaa82612f23565b9150612eb583612f23565b925082821015612ec857612ec7613028565b5b828203905092915050565b6000612ede82612f03565b9050919050565b6000612ef082612f03565b9050919050565b60008115159050919050565b600073ffffffffffffffffffffffffffffffffffffffff82169050919050565b6000819050919050565b6000612f3882612f3f565b9050919050565b6000612f4a82612f03565b9050919050565b60005b83811015612f6f578082015181840152602081019050612f54565b83811115612f7e576000848401525b50505050565b6000612f8f82612f23565b91506000821415612fa357612fa2613028565b5b600182039050919050565b612fb7826130b5565b810181811067ffffffffffffffff82111715612fd657612fd5613086565b5b80604052505050565b6000612fea82612f23565b91507fffffffffffffffffffffffffffffffffffffffffffffffffffffffffffffffff82141561301d5761301c613028565b5b600182019050919050565b7f4e487b7100000000000000000000000000000000000000000000000000000000600052601160045260246000fd5b7f4e487b7100000000000000000000000000000000000000000000000000000000600052601260045260246000fd5b7f4e487b7100000000000000000000000000000000000000000000000000000000600052604160045260246000fd5b6000601f19601f8301169050919050565b7f6e656564205f616d6f756e74203e203000000000000000000000000000000000600082015250565b7f5061757361626c653a206e6f7420706175736564000000000000000000000000600082015250565b7f4f776e61626c653a206e6577206f776e657220697320746865207a65726f206160008201527f6464726573730000000000000000000000000000000000000000000000000000602082015250565b7f6e6f742072616973696e672074696d6500000000000000000000000000000000600082015250565b7f74696d6520696e76616c69642121000000000000000000000000000000000000600082015250565b7f416464726573733a20696e73756666696369656e742062616c616e636520666f60008201527f722063616c6c0000000000000000000000000000000000000000000000000000602082015250565b7f5061757361626c653a2070617573656400000000000000000000000000000000600082015250565b7f6e6f7420656c696769626c6520616d6f756e7421210000000000000000000000600082015250565b7f6e6f000000000000000000000000000000000000000000000000000000000000600082015250565b7f616d6f756e74206e6f7420656e6f756768000000000000000000000000000000600082015250565b7f6861766520796f75207061727469636970617465643f00000000000000000000600082015250565b7f4f776e61626c653a2063616c6c6572206973206e6f7420746865206f776e6572600082015250565b7f66756c6c00000000000000000000000000000000000000000000000000000000600082015250565b7f416464726573733a2063616c6c20746f206e6f6e2d636f6e7472616374000000600082015250565b7f5472616e7366657248656c7065723a204b41495f5452414e534645525f46414960008201527f4c45440000000000000000000000000000000000000000000000000000000000602082015250565b7f6e6f742077686974656c69737465640000000000000000000000000000000000600082015250565b7f5361666545524332303a204552433230206f7065726174696f6e20646964206e60008201527f6f74207375636365656400000000000000000000000000000000000000000000602082015250565b7f5265656e7472616e637947756172643a207265656e7472616e742063616c6c00600082015250565b7f6e6f7468696e6720746f20686172766573740000000000000000000000000000600082015250565b61347281612ed3565b811461347d57600080fd5b50565b61348981612ee5565b811461349457600080fd5b50565b6134a081612ef7565b81146134ab57600080fd5b50565b6134b781612f23565b81146134c257600080fd5b5056fea2646970667358221220e1223903792b97c7ad18679ef623ce04f3f313bcbf4ac9975ba947773676b61d64736f6c63430008040033",
  "linkReferences": {},
  "deployedLinkReferences": {}
}