{
  "_format": "hh-sol-artifact-1",
  "contractName": "WhitelistRaising",
  "sourceName": "contracts/launchpad/whitelist/WhitelistRaising.sol",
  "abi": [
    {
      "inputs": [
        {
          "internalType": "contract ERC20",
          "name": "_offeringToken",
          "type": "address"
        },
        {
          "internalType": "uint256",
          "name": "_startTime",
          "type": "uint256"
        },
        {
          "internalType": "uint256",
          "name": "_endTime",
          "type": "uint256"
        },
        {
          "internalType": "uint256",
          "name": "_harvestTime",
          "type": "uint256"
        },
        {
          "internalType": "uint256",
          "name": "_offeringAmount",
          "type": "uint256"
        },
        {
          "internalType": "uint256",
          "name": "_raisingAmount",
          "type": "uint256"
        },
        {
          "internalType": "uint256",
          "name": "_maxAllocation",
          "type": "uint256"
        },
        {
          "internalType": "uint256",
          "name": "_maxAddrWhitelist",
          "type": "uint256"
        }
      ],
      "stateMutability": "nonpayable",
      "type": "constructor"
    },
    {
      "anonymous": false,
      "inputs": [
        {
          "indexed": true,
          "internalType": "address",
          "name": "user",
          "type": "address"
        },
        {
          "indexed": false,
          "internalType": "uint256",
          "name": "amount",
          "type": "uint256"
        }
      ],
      "name": "Deposit",
      "type": "event"
    },
    {
      "anonymous": false,
      "inputs": [
        {
          "indexed": true,
          "internalType": "address",
          "name": "user",
          "type": "address"
        },
        {
          "indexed": false,
          "internalType": "uint256",
          "name": "offeringAmount",
          "type": "uint256"
        }
      ],
      "name": "Harvest",
      "type": "event"
    },
    {
      "anonymous": false,
      "inputs": [
        {
          "indexed": true,
          "internalType": "address",
          "name": "previousOwner",
          "type": "address"
        },
        {
          "indexed": true,
          "internalType": "address",
          "name": "newOwner",
          "type": "address"
        }
      ],
      "name": "OwnershipTransferred",
      "type": "event"
    },
    {
      "anonymous": false,
      "inputs": [
        {
          "indexed": false,
          "internalType": "address",
          "name": "account",
          "type": "address"
        }
      ],
      "name": "Paused",
      "type": "event"
    },
    {
      "anonymous": false,
      "inputs": [
        {
          "indexed": false,
          "internalType": "address",
          "name": "account",
          "type": "address"
        }
      ],
      "name": "Unpaused",
      "type": "event"
    },
    {
      "anonymous": false,
      "inputs": [
        {
          "indexed": false,
          "internalType": "address",
          "name": "addr",
          "type": "address"
        }
      ],
      "name": "WhitelistedAddressAdded",
      "type": "event"
    },
    {
      "anonymous": false,
      "inputs": [
        {
          "indexed": false,
          "internalType": "address",
          "name": "addr",
          "type": "address"
        }
      ],
      "name": "WhitelistedAddressRemoved",
      "type": "event"
    },
    {
      "inputs": [
        {
          "internalType": "address",
          "name": "addr",
          "type": "address"
        }
      ],
      "name": "addAddressToWhitelist",
      "outputs": [
        {
          "internalType": "bool",
          "name": "success",
          "type": "bool"
        }
      ],
      "stateMutability": "nonpayable",
      "type": "function"
    },
    {
      "inputs": [
        {
          "internalType": "address[]",
          "name": "addrs",
          "type": "address[]"
        }
      ],
      "name": "addAddressesToWhitelist",
      "outputs": [
        {
          "internalType": "bool",
          "name": "success",
          "type": "bool"
        }
      ],
      "stateMutability": "nonpayable",
      "type": "function"
    },
    {
      "inputs": [
        {
          "internalType": "uint256",
          "name": "",
          "type": "uint256"
        }
      ],
      "name": "addressList",
      "outputs": [
        {
          "internalType": "address",
          "name": "",
          "type": "address"
        }
      ],
      "stateMutability": "view",
      "type": "function"
    },
    {
      "inputs": [
        {
          "internalType": "uint256",
          "name": "_amount",
          "type": "uint256"
        }
      ],
      "name": "deposit",
      "outputs": [],
      "stateMutability": "payable",
      "type": "function"
    },
    {
      "inputs": [
        {
          "internalType": "address",
          "name": "token",
          "type": "address"
        },
        {
          "internalType": "address payable",
          "name": "to",
          "type": "address"
        }
      ],
      "name": "emergencyWithdraw",
      "outputs": [],
      "stateMutability": "nonpayable",
      "type": "function"
    },
    {
      "inputs": [],
      "name": "endTime",
      "outputs": [
        {
          "internalType": "uint256",
          "name": "",
          "type": "uint256"
        }
      ],
      "stateMutability": "view",
      "type": "function"
    },
    {
      "inputs": [
        {
          "internalType": "address",
          "name": "_destination",
          "type": "address"
        }
      ],
      "name": "finalWithdraw",
      "outputs": [],
      "stateMutability": "nonpayable",
      "type": "function"
    },
    {
      "inputs": [],
      "name": "getAddressListLength",
      "outputs": [
        {
          "internalType": "uint256",
          "name": "",
          "type": "uint256"
        }
      ],
      "stateMutability": "view",
      "type": "function"
    },
    {
      "inputs": [
        {
          "internalType": "address",
          "name": "_user",
          "type": "address"
        }
      ],
      "name": "getOfferingAmount",
      "outputs": [
        {
          "internalType": "uint256",
          "name": "",
          "type": "uint256"
        }
      ],
      "stateMutability": "view",
      "type": "function"
    },
    {
      "inputs": [],
      "name": "harvest",
      "outputs": [],
      "stateMutability": "nonpayable",
      "type": "function"
    },
    {
      "inputs": [],
      "name": "harvestTime",
      "outputs": [
        {
          "internalType": "uint256",
          "name": "",
          "type": "uint256"
        }
      ],
      "stateMutability": "view",
      "type": "function"
    },
    {
      "inputs": [],
      "name": "maxAllocation",
      "outputs": [
        {
          "internalType": "uint256",
          "name": "",
          "type": "uint256"
        }
      ],
      "stateMutability": "view",
      "type": "function"
    },
    {
      "inputs": [],
      "name": "maximumAddrWhitelist",
      "outputs": [
        {
          "internalType": "uint256",
          "name": "",
          "type": "uint256"
        }
      ],
      "stateMutability": "view",
      "type": "function"
    },
    {
      "inputs": [],
      "name": "offeringAmount",
      "outputs": [
        {
          "internalType": "uint256",
          "name": "",
          "type": "uint256"
        }
      ],
      "stateMutability": "view",
      "type": "function"
    },
    {
      "inputs": [],
      "name": "offeringToken",
      "outputs": [
        {
          "internalType": "contract ERC20",
          "name": "",
          "type": "address"
        }
      ],
      "stateMutability": "view",
      "type": "function"
    },
    {
      "inputs": [],
      "name": "owner",
      "outputs": [
        {
          "internalType": "address",
          "name": "",
          "type": "address"
        }
      ],
      "stateMutability": "view",
      "type": "function"
    },
    {
      "inputs": [],
      "name": "pause",
      "outputs": [],
      "stateMutability": "nonpayable",
      "type": "function"
    },
    {
      "inputs": [],
      "name": "paused",
      "outputs": [
        {
          "internalType": "bool",
          "name": "",
          "type": "bool"
        }
      ],
      "stateMutability": "view",
      "type": "function"
    },
    {
      "inputs": [],
      "name": "raisingAmount",
      "outputs": [
        {
          "internalType": "uint256",
          "name": "",
          "type": "uint256"
        }
      ],
      "stateMutability": "view",
      "type": "function"
    },
    {
      "inputs": [
        {
          "internalType": "address",
          "name": "addr",
          "type": "address"
        }
      ],
      "name": "removeAddressFromWhitelist",
      "outputs": [
        {
          "internalType": "bool",
          "name": "success",
          "type": "bool"
        }
      ],
      "stateMutability": "nonpayable",
      "type": "function"
    },
    {
      "inputs": [
        {
          "internalType": "address[]",
          "name": "addrs",
          "type": "address[]"
        }
      ],
      "name": "removeAddressesFromWhitelist",
      "outputs": [
        {
          "internalType": "bool",
          "name": "success",
          "type": "bool"
        }
      ],
      "stateMutability": "nonpayable",
      "type": "function"
    },
    {
      "inputs": [],
      "name": "renounceOwnership",
      "outputs": [],
      "stateMutability": "nonpayable",
      "type": "function"
    },
    {
      "inputs": [
        {
          "internalType": "uint256",
          "name": "_offerAmount",
          "type": "uint256"
        }
      ],
      "name": "setOfferingAmount",
      "outputs": [],
      "stateMutability": "nonpayable",
      "type": "function"
    },
    {
      "inputs": [
        {
          "internalType": "uint256",
          "name": "_raisingAmount",
          "type": "uint256"
        }
      ],
      "name": "setRaisingAmount",
      "outputs": [],
      "stateMutability": "nonpayable",
      "type": "function"
    },
    {
      "inputs": [],
      "name": "startTime",
      "outputs": [
        {
          "internalType": "uint256",
          "name": "",
          "type": "uint256"
        }
      ],
      "stateMutability": "view",
      "type": "function"
    },
    {
      "inputs": [],
      "name": "totalAddress",
      "outputs": [
        {
          "internalType": "uint256",
          "name": "",
          "type": "uint256"
        }
      ],
      "stateMutability": "view",
      "type": "function"
    },
    {
      "inputs": [],
      "name": "totalAmount",
      "outputs": [
        {
          "internalType": "uint256",
          "name": "",
          "type": "uint256"
        }
      ],
      "stateMutability": "view",
      "type": "function"
    },
    {
      "inputs": [
        {
          "internalType": "address",
          "name": "newOwner",
          "type": "address"
        }
      ],
      "name": "transferOwnership",
      "outputs": [],
      "stateMutability": "nonpayable",
      "type": "function"
    },
    {
      "inputs": [],
      "name": "unpause",
      "outputs": [],
      "stateMutability": "nonpayable",
      "type": "function"
    },
    {
      "inputs": [
        {
          "internalType": "uint256",
          "name": "_newTime",
          "type": "uint256"
        }
      ],
      "name": "updateEndTime",
      "outputs": [],
      "stateMutability": "nonpayable",
      "type": "function"
    },
    {
      "inputs": [
        {
          "internalType": "uint256",
          "name": "_newTime",
          "type": "uint256"
        }
      ],
      "name": "updateHarvestTime",
      "outputs": [],
      "stateMutability": "nonpayable",
      "type": "function"
    },
    {
      "inputs": [
        {
          "internalType": "uint256",
          "name": "_newTime",
          "type": "uint256"
        }
      ],
      "name": "updateStartTime",
      "outputs": [],
      "stateMutability": "nonpayable",
      "type": "function"
    },
    {
      "inputs": [
        {
          "internalType": "address",
          "name": "",
          "type": "address"
        }
      ],
      "name": "userInfo",
      "outputs": [
        {
          "internalType": "uint256",
          "name": "amount",
          "type": "uint256"
        },
        {
          "internalType": "bool",
          "name": "claimed",
          "type": "bool"
        }
      ],
      "stateMutability": "view",
      "type": "function"
    },
    {
      "inputs": [
        {
          "internalType": "address",
          "name": "",
          "type": "address"
        }
      ],
      "name": "whitelist",
      "outputs": [
        {
          "internalType": "bool",
          "name": "",
          "type": "bool"
        }
      ],
      "stateMutability": "view",
      "type": "function"
    }
  ],
  "bytecode": "0x60806040523480156200001157600080fd5b5060405162001cb938038062001cb9833981016040819052620000349162000112565b6001600055806200004533620000c0565b6001805460ff60a01b191690556004558585108015906200006557508686115b80156200007157504287115b6200007b57600080fd5b50600580546001600160a01b0319166001600160a01b039890981697909717909655600694909455600792909255600855600a556009556000600b55600e5562000188565b600180546001600160a01b038381166001600160a01b0319831681179093556040519116919082907f8be0079c531659141344cd1fd0a4f28419497f9722a3daafe3b4186f6b6457e090600090a35050565b600080600080600080600080610100898b0312156200012f578384fd5b88516001600160a01b038116811462000146578485fd5b809850506020890151965060408901519550606089015194506080890151935060a0890151925060c0890151915060e089015190509295985092959890939650565b611b2180620001986000396000f3fe6080604052600436106101f95760003560e01c80637b9417c81161010d578063ac3ff912116100a0578063e1af9a951161006f578063e1af9a9514610591578063e2ec6ec3146105a7578063f2fde38b146105c7578063f4808210146105e7578063fc00358e146105fd57600080fd5b8063ac3ff9121461051e578063b6b55f251461053e578063b781360714610551578063b810fb431461057157600080fd5b80638da5cb5b116100dc5780638da5cb5b146104905780639b19251a146104c25780639b3ba79f146104f25780639c0a76691461050857600080fd5b80637b9417c8146104255780637e45e942146104455780638456cb591461045b57806387e97bc61461047057600080fd5b80633f4ba83a116101905780636382d9ad1161015f5780636382d9ad1461039a5780636ab3846b146103ba578063715018a6146103da57806376ea6ee0146103ef57806378e979251461040f57600080fd5b80633f4ba83a146103315780634225c32f146103465780634641257d146103665780635c975abb1461037b57600080fd5b806327d1b1a2116101cc57806327d1b1a2146102c5578063286dd3f5146102e55780633197cbb6146103055780633d2b494b1461031b57600080fd5b806306bcf02f146101fe5780631959a002146102205780631a39d8ef1461027157806324953eaa14610295575b600080fd5b34801561020a57600080fd5b5061021e6102193660046118d4565b610612565b005b34801561022c57600080fd5b5061025761023b366004611799565b600c602052600090815260409020805460019091015460ff1682565b604080519283529015156020830152015b60405180910390f35b34801561027d57600080fd5b50610287600b5481565b604051908152602001610268565b3480156102a157600080fd5b506102b56102b03660046117ed565b610676565b6040519015158152602001610268565b3480156102d157600080fd5b5061021e6102e03660046118d4565b610701565b3480156102f157600080fd5b506102b5610300366004611799565b610766565b34801561031157600080fd5b5061028760075481565b34801561032757600080fd5b5061028760045481565b34801561033d57600080fd5b5061021e610826565b34801561035257600080fd5b5061021e6103613660046118d4565b61085a565b34801561037257600080fd5b5061021e6108bf565b34801561038757600080fd5b50600154600160a01b900460ff166102b5565b3480156103a657600080fd5b5061021e6103b53660046117b5565b610ab8565b3480156103c657600080fd5b5061021e6103d53660046118d4565b610bbc565b3480156103e657600080fd5b5061021e610c17565b3480156103fb57600080fd5b5061021e61040a3660046118d4565b610c4b565b34801561041b57600080fd5b5061028760065481565b34801561043157600080fd5b506102b5610440366004611799565b610ca6565b34801561045157600080fd5b5061028760035481565b34801561046757600080fd5b5061021e610d99565b34801561047c57600080fd5b5061028761048b366004611799565b610dcb565b34801561049c57600080fd5b506001546001600160a01b03165b6040516001600160a01b039091168152602001610268565b3480156104ce57600080fd5b506102b56104dd366004611799565b60026020526000908152604090205460ff1681565b3480156104fe57600080fd5b50610287600e5481565b34801561051457600080fd5b5061028760095481565b34801561052a57600080fd5b5061021e610539366004611799565b610e07565b61021e61054c3660046118d4565b610e3e565b34801561055d57600080fd5b506005546104aa906001600160a01b031681565b34801561057d57600080fd5b506104aa61058c3660046118d4565b61115a565b34801561059d57600080fd5b50610287600a5481565b3480156105b357600080fd5b506102b56105c23660046117ed565b611184565b3480156105d357600080fd5b5061021e6105e2366004611799565b611209565b3480156105f357600080fd5b5061028760085481565b34801561060957600080fd5b50600d54610287565b6001546001600160a01b031633146106455760405162461bcd60e51b815260040161063c906119a5565b60405180910390fd5b4281118015610655575060075481105b6106715760405162461bcd60e51b815260040161063c90611953565b600655565b6001546000906001600160a01b031633146106a35760405162461bcd60e51b815260040161063c906119a5565b60005b82518110156106fb576106df8382815181106106d257634e487b7160e01b600052603260045260246000fd5b6020026020010151610766565b156106e957600191505b806106f381611a8f565b9150506106a6565b50919050565b6001546001600160a01b0316331461072b5760405162461bcd60e51b815260040161063c906119a5565b60065442106107615760405162461bcd60e51b81526020600482015260026024820152616e6f60f01b604482015260640161063c565b600a55565b6001546000906001600160a01b031633146107935760405162461bcd60e51b815260040161063c906119a5565b6001600160a01b03821660009081526002602052604090205460ff1615610821576001600160a01b038216600081815260026020908152604091829020805460ff1916905590519182527ff1abf01a1043b7c244d128e8595cf0c1d10743b022b03a02dffd8ca3bf729f5a910160405180910390a15060038054600191600061081b83611a78565b91905055505b919050565b6001546001600160a01b031633146108505760405162461bcd60e51b815260040161063c906119a5565b6108586112a1565b565b6001546001600160a01b031633146108845760405162461bcd60e51b815260040161063c906119a5565b60065442106108ba5760405162461bcd60e51b81526020600482015260026024820152616e6f60f01b604482015260640161063c565b600955565b600260005414156109125760405162461bcd60e51b815260206004820152601f60248201527f5265656e7472616e637947756172643a207265656e7472616e742063616c6c00604482015260640161063c565b6002600055600854421161095b5760405162461bcd60e51b815260206004820152601060248201526f6e6f7420686172766573742074696d6560801b604482015260640161063c565b336000908152600c60205260409020546109b05760405162461bcd60e51b81526020600482015260166024820152756861766520796f75207061727469636970617465643f60501b604482015260640161063c565b336000908152600c602052604090206001015460ff1615610a085760405162461bcd60e51b81526020600482015260126024820152711b9bdd1a1a5b99c81d1bc81a185c9d995cdd60721b604482015260640161063c565b600154600160a01b900460ff1615610a325760405162461bcd60e51b815260040161063c9061197b565b6000610a3d33610dcb565b600554909150610a57906001600160a01b0316338361133e565b336000818152600c6020526040908190206001908101805460ff19169091179055517fc9695243a805adb74c91f28311176c65b417e842d5699893cef56d18bfa48cba90610aa89084815260200190565b60405180910390a2506001600055565b6001546001600160a01b03163314610ae25760405162461bcd60e51b815260040161063c906119a5565b6001600160a01b038216610b2a576040516001600160a01b038216904780156108fc02916000818181858888f19350505050158015610b25573d6000803e3d6000fd5b505050565b6040516370a0823160e01b8152306004820152610bb89082906001600160a01b038516906370a082319060240160206040518083038186803b158015610b6f57600080fd5b505afa158015610b83573d6000803e3d6000fd5b505050506040513d601f19601f82011682018060405250810190610ba791906118ec565b6001600160a01b038516919061133e565b5050565b6001546001600160a01b03163314610be65760405162461bcd60e51b815260040161063c906119a5565b4281118015610bf6575060085481105b610c125760405162461bcd60e51b815260040161063c90611953565b600755565b6001546001600160a01b03163314610c415760405162461bcd60e51b815260040161063c906119a5565b6108586000611390565b6001546001600160a01b03163314610c755760405162461bcd60e51b815260040161063c906119a5565b4281118015610c85575060075481115b610ca15760405162461bcd60e51b815260040161063c90611953565b600855565b6001546000906001600160a01b03163314610cd35760405162461bcd60e51b815260040161063c906119a5565b60035460045411610d0f5760405162461bcd60e51b815260040161063c90602080825260049082015263199d5b1b60e21b604082015260600190565b6001600160a01b03821660009081526002602052604090205460ff16610821576001600160a01b038216600081815260026020908152604091829020805460ff1916600117905590519182527fd1bba68c128cc3f427e5831b3c6f99f480b6efa6b9e80c757768f6124158cc3f910160405180910390a15060038054600191600061081b83611a8f565b6001546001600160a01b03163314610dc35760405162461bcd60e51b815260040161063c906119a5565b6108586113e2565b600954600a546001600160a01b0383166000908152600c60205260408120549092610e01929091610dfb91611447565b9061145a565b92915050565b6001546001600160a01b03163314610e315760405162461bcd60e51b815260040161063c906119a5565b610e3b8147611466565b50565b60026000541415610e915760405162461bcd60e51b815260206004820152601f60248201527f5265656e7472616e637947756172643a207265656e7472616e742063616c6c00604482015260640161063c565b6002600055600654819042118015610eaa575060075442105b610ee95760405162461bcd60e51b815260206004820152601060248201526f6e6f742072616973696e672074696d6560801b604482015260640161063c565b60008111610f2c5760405162461bcd60e51b815260206004820152601060248201526f06e656564205f616d6f756e74203e20360841b604482015260640161063c565b600154600160a01b900460ff1615610f565760405162461bcd60e51b815260040161063c9061197b565b3360009081526002602052604090205460ff16610fa75760405162461bcd60e51b815260206004820152600f60248201526e1b9bdd081dda1a5d195b1a5cdd1959608a1b604482015260640161063c565b336000908152600c6020526040902054600e5411610fff5760405162461bcd60e51b81526020600482015260156024820152746e6f7420656c696769626c6520616d6f756e74212160581b604482015260640161063c565b336000908152600c6020526040812054600e5461101c9190611a31565b9050828082101561102a5750805b8034101561106e5760405162461bcd60e51b81526020600482015260116024820152700c2dadeeadce840dcdee840cadcdeeaced607b1b604482015260640161063c565b8034111561108957611089336110848334611a31565b611466565b336000908152600c60205260409020546110e057600d80546001810182556000919091527fd7b6990105719101dabeb77144f2a3385c8033acd3af97e9423a695e81ad1eb50180546001600160a01b031916331790555b336000908152600c60205260409020546110fa908261152f565b336000908152600c6020526040902055600b54611117908261152f565b600b5560405181815233907fe1fffcc4923d04b559f4d29a8bfc6cda04eb5b0d3c460751c2402c5c5cc9109c9060200160405180910390a2505060016000555050565b600d818154811061116a57600080fd5b6000918252602090912001546001600160a01b0316905081565b6001546000906001600160a01b031633146111b15760405162461bcd60e51b815260040161063c906119a5565b60005b82518110156106fb576111ed8382815181106111e057634e487b7160e01b600052603260045260246000fd5b6020026020010151610ca6565b156111f757600191505b8061120181611a8f565b9150506111b4565b6001546001600160a01b031633146112335760405162461bcd60e51b815260040161063c906119a5565b6001600160a01b0381166112985760405162461bcd60e51b815260206004820152602660248201527f4f776e61626c653a206e6577206f776e657220697320746865207a65726f206160448201526564647265737360d01b606482015260840161063c565b610e3b81611390565b600154600160a01b900460ff166112f15760405162461bcd60e51b815260206004820152601460248201527314185d5cd8589b194e881b9bdd081c185d5cd95960621b604482015260640161063c565b6001805460ff60a01b191690557f5db9ee0a495bf2e6ff9c91a7834c1ba4fdd244a5e8aa4e537bd38aeae4b073aa335b6040516001600160a01b03909116815260200160405180910390a1565b604080516001600160a01b038416602482015260448082018490528251808303909101815260649091019091526020810180516001600160e01b031663a9059cbb60e01b179052610b2590849061153b565b600180546001600160a01b038381166001600160a01b0319831681179093556040519116919082907f8be0079c531659141344cd1fd0a4f28419497f9722a3daafe3b4186f6b6457e090600090a35050565b600154600160a01b900460ff161561140c5760405162461bcd60e51b815260040161063c9061197b565b6001805460ff60a01b1916600160a01b1790557f62e78cea01bee320cd4e420270b5ea74000d11b0c9f74754ebdbfc544b05a2586113213390565b60006114538284611a12565b9392505050565b600061145382846119f2565b604080516000808252602082019092526001600160a01b0384169083906040516114909190611904565b60006040518083038185875af1925050503d80600081146114cd576040519150601f19603f3d011682016040523d82523d6000602084013e6114d2565b606091505b5050905080610b255760405162461bcd60e51b815260206004820152602360248201527f5472616e7366657248656c7065723a204b41495f5452414e534645525f46414960448201526213115160ea1b606482015260840161063c565b600061145382846119da565b6000611590826040518060400160405280602081526020017f5361666545524332303a206c6f772d6c6576656c2063616c6c206661696c6564815250856001600160a01b031661160d9092919063ffffffff16565b805190915015610b2557808060200190518101906115ae91906118b4565b610b255760405162461bcd60e51b815260206004820152602a60248201527f5361666545524332303a204552433230206f7065726174696f6e20646964206e6044820152691bdd081cdd58d8d9595960b21b606482015260840161063c565b606061161c8484600085611624565b949350505050565b6060824710156116855760405162461bcd60e51b815260206004820152602660248201527f416464726573733a20696e73756666696369656e742062616c616e636520666f6044820152651c8818d85b1b60d21b606482015260840161063c565b6001600160a01b0385163b6116dc5760405162461bcd60e51b815260206004820152601d60248201527f416464726573733a2063616c6c20746f206e6f6e2d636f6e7472616374000000604482015260640161063c565b600080866001600160a01b031685876040516116f89190611904565b60006040518083038185875af1925050503d8060008114611735576040519150601f19603f3d011682016040523d82523d6000602084013e61173a565b606091505b509150915061174a828286611755565b979650505050505050565b60608315611764575081611453565b8251156117745782518084602001fd5b8160405162461bcd60e51b815260040161063c9190611920565b803561082181611ad6565b6000602082840312156117aa578081fd5b813561145381611ad6565b600080604083850312156117c7578081fd5b82356117d281611ad6565b915060208301356117e281611ad6565b809150509250929050565b600060208083850312156117ff578182fd5b823567ffffffffffffffff80821115611816578384fd5b818501915085601f830112611829578384fd5b81358181111561183b5761183b611ac0565b8060051b604051601f19603f8301168101818110858211171561186057611860611ac0565b604052828152858101935084860182860187018a101561187e578788fd5b8795505b838610156118a7576118938161178e565b855260019590950194938601938601611882565b5098975050505050505050565b6000602082840312156118c5578081fd5b81518015158114611453578182fd5b6000602082840312156118e5578081fd5b5035919050565b6000602082840312156118fd578081fd5b5051919050565b60008251611916818460208701611a48565b9190910192915050565b602081526000825180602084015261193f816040850160208701611a48565b601f01601f19169190910160400192915050565b6020808252600e908201526d74696d6520696e76616c6964212160901b604082015260600190565b60208082526010908201526f14185d5cd8589b194e881c185d5cd95960821b604082015260600190565b6020808252818101527f4f776e61626c653a2063616c6c6572206973206e6f7420746865206f776e6572604082015260600190565b600082198211156119ed576119ed611aaa565b500190565b600082611a0d57634e487b7160e01b81526012600452602481fd5b500490565b6000816000190483118215151615611a2c57611a2c611aaa565b500290565b600082821015611a4357611a43611aaa565b500390565b60005b83811015611a63578181015183820152602001611a4b565b83811115611a72576000848401525b50505050565b600081611a8757611a87611aaa565b506000190190565b6000600019821415611aa357611aa3611aaa565b5060010190565b634e487b7160e01b600052601160045260246000fd5b634e487b7160e01b600052604160045260246000fd5b6001600160a01b0381168114610e3b57600080fdfea26469706673582212201aa2b04b0dbe80c1b9cf741bde0450e085c28c20981de58133ba896320115de964736f6c63430008040033",
  "linkReferences": {},
  "deployedLinkReferences": {}
}