{
  "_format": "hh-sol-artifact-1",
  "contractName": "FundRaising",
  "sourceName": "contracts/launchpad/FundRaising.sol",
  "abi": [
    {
      "inputs": [
        {
          "internalType": "contract ERC20",
          "name": "_buyToken",
          "type": "address"
        },
        {
          "internalType": "contract ERC20",
          "name": "_offeringToken",
          "type": "address"
        },
        {
          "internalType": "uint256",
          "name": "_startTime",
          "type": "uint256"
        },
        {
          "internalType": "uint256",
          "name": "_endTime",
          "type": "uint256"
        },
        {
          "internalType": "uint256",
          "name": "_harvestTime",
          "type": "uint256"
        },
        {
          "internalType": "uint256",
          "name": "_offeringAmount",
          "type": "uint256"
        },
        {
          "internalType": "uint256",
          "name": "_raisingAmount",
          "type": "uint256"
        },
        {
          "internalType": "contract ITierSystem",
          "name": "_tierSystem",
          "type": "address"
        },
        {
          "internalType": "uint256",
          "name": "_snapshotFrom",
          "type": "uint256"
        },
        {
          "internalType": "uint256",
          "name": "_snapshotTo",
          "type": "uint256"
        },
        {
          "internalType": "uint256",
          "name": "_multiplier",
          "type": "uint256"
        }
      ],
      "stateMutability": "nonpayable",
      "type": "constructor"
    },
    {
      "anonymous": false,
      "inputs": [
        {
          "indexed": true,
          "internalType": "address",
          "name": "user",
          "type": "address"
        },
        {
          "indexed": false,
          "internalType": "uint256",
          "name": "amount",
          "type": "uint256"
        }
      ],
      "name": "Deposit",
      "type": "event"
    },
    {
      "anonymous": false,
      "inputs": [
        {
          "indexed": true,
          "internalType": "address",
          "name": "user",
          "type": "address"
        },
        {
          "indexed": false,
          "internalType": "uint256",
          "name": "offeringAmount",
          "type": "uint256"
        },
        {
          "indexed": false,
          "internalType": "uint256",
          "name": "excessAmount",
          "type": "uint256"
        }
      ],
      "name": "Harvest",
      "type": "event"
    },
    {
      "anonymous": false,
      "inputs": [
        {
          "indexed": true,
          "internalType": "address",
          "name": "previousOwner",
          "type": "address"
        },
        {
          "indexed": true,
          "internalType": "address",
          "name": "newOwner",
          "type": "address"
        }
      ],
      "name": "OwnershipTransferred",
      "type": "event"
    },
    {
      "anonymous": false,
      "inputs": [
        {
          "indexed": false,
          "internalType": "address",
          "name": "account",
          "type": "address"
        }
      ],
      "name": "Paused",
      "type": "event"
    },
    {
      "anonymous": false,
      "inputs": [
        {
          "indexed": false,
          "internalType": "address",
          "name": "account",
          "type": "address"
        }
      ],
      "name": "Unpaused",
      "type": "event"
    },
    {
      "inputs": [
        {
          "internalType": "uint256",
          "name": "",
          "type": "uint256"
        }
      ],
      "name": "addressList",
      "outputs": [
        {
          "internalType": "address",
          "name": "",
          "type": "address"
        }
      ],
      "stateMutability": "view",
      "type": "function"
    },
    {
      "inputs": [
        {
          "internalType": "uint256",
          "name": "_tier",
          "type": "uint256"
        }
      ],
      "name": "allocations",
      "outputs": [
        {
          "internalType": "uint256",
          "name": "",
          "type": "uint256"
        }
      ],
      "stateMutability": "view",
      "type": "function"
    },
    {
      "inputs": [],
      "name": "buyToken",
      "outputs": [
        {
          "internalType": "contract ERC20",
          "name": "",
          "type": "address"
        }
      ],
      "stateMutability": "view",
      "type": "function"
    },
    {
      "inputs": [
        {
          "internalType": "uint256",
          "name": "_amount",
          "type": "uint256"
        }
      ],
      "name": "deposit",
      "outputs": [],
      "stateMutability": "payable",
      "type": "function"
    },
    {
      "inputs": [
        {
          "internalType": "address",
          "name": "token",
          "type": "address"
        },
        {
          "internalType": "address payable",
          "name": "to",
          "type": "address"
        }
      ],
      "name": "emergencyWithdraw",
      "outputs": [],
      "stateMutability": "nonpayable",
      "type": "function"
    },
    {
      "inputs": [],
      "name": "endTime",
      "outputs": [
        {
          "internalType": "uint256",
          "name": "",
          "type": "uint256"
        }
      ],
      "stateMutability": "view",
      "type": "function"
    },
    {
      "inputs": [
        {
          "internalType": "address",
          "name": "_destination",
          "type": "address"
        }
      ],
      "name": "finalWithdraw",
      "outputs": [],
      "stateMutability": "nonpayable",
      "type": "function"
    },
    {
      "inputs": [],
      "name": "getAddressListLength",
      "outputs": [
        {
          "internalType": "uint256",
          "name": "",
          "type": "uint256"
        }
      ],
      "stateMutability": "view",
      "type": "function"
    },
    {
      "inputs": [
        {
          "internalType": "address",
          "name": "_account",
          "type": "address"
        }
      ],
      "name": "getAllocation",
      "outputs": [
        {
          "internalType": "uint256",
          "name": "",
          "type": "uint256"
        }
      ],
      "stateMutability": "view",
      "type": "function"
    },
    {
      "inputs": [
        {
          "internalType": "address",
          "name": "_account",
          "type": "address"
        }
      ],
      "name": "getAllocationPoint",
      "outputs": [
        {
          "internalType": "uint256",
          "name": "",
          "type": "uint256"
        }
      ],
      "stateMutability": "view",
      "type": "function"
    },
    {
      "inputs": [],
      "name": "getInfo",
      "outputs": [
        {
          "components": [
            {
              "internalType": "contract ERC20",
              "name": "token",
              "type": "address"
            },
            {
              "internalType": "uint256",
              "name": "decimals",
              "type": "uint256"
            },
            {
              "internalType": "string",
              "name": "name",
              "type": "string"
            },
            {
              "internalType": "string",
              "name": "symbol",
              "type": "string"
            }
          ],
          "internalType": "struct FundRaising.TokenInfo",
          "name": "",
          "type": "tuple"
        },
        {
          "components": [
            {
              "internalType": "contract ERC20",
              "name": "token",
              "type": "address"
            },
            {
              "internalType": "uint256",
              "name": "decimals",
              "type": "uint256"
            },
            {
              "internalType": "string",
              "name": "name",
              "type": "string"
            },
            {
              "internalType": "string",
              "name": "symbol",
              "type": "string"
            }
          ],
          "internalType": "struct FundRaising.TokenInfo",
          "name": "",
          "type": "tuple"
        },
        {
          "internalType": "uint256",
          "name": "",
          "type": "uint256"
        },
        {
          "internalType": "uint256",
          "name": "",
          "type": "uint256"
        },
        {
          "internalType": "uint256",
          "name": "",
          "type": "uint256"
        },
        {
          "internalType": "uint256",
          "name": "",
          "type": "uint256"
        },
        {
          "internalType": "uint256",
          "name": "",
          "type": "uint256"
        }
      ],
      "stateMutability": "view",
      "type": "function"
    },
    {
      "inputs": [
        {
          "internalType": "address",
          "name": "_user",
          "type": "address"
        }
      ],
      "name": "getOfferingAmount",
      "outputs": [
        {
          "internalType": "uint256",
          "name": "",
          "type": "uint256"
        }
      ],
      "stateMutability": "view",
      "type": "function"
    },
    {
      "inputs": [
        {
          "internalType": "address",
          "name": "_user",
          "type": "address"
        }
      ],
      "name": "getRefundingAmount",
      "outputs": [
        {
          "internalType": "uint256",
          "name": "",
          "type": "uint256"
        }
      ],
      "stateMutability": "view",
      "type": "function"
    },
    {
      "inputs": [
        {
          "internalType": "address",
          "name": "_account",
          "type": "address"
        }
      ],
      "name": "getTier",
      "outputs": [
        {
          "internalType": "uint256",
          "name": "",
          "type": "uint256"
        }
      ],
      "stateMutability": "view",
      "type": "function"
    },
    {
      "inputs": [
        {
          "internalType": "address",
          "name": "_user",
          "type": "address"
        }
      ],
      "name": "getUserAllocation",
      "outputs": [
        {
          "internalType": "uint256",
          "name": "",
          "type": "uint256"
        }
      ],
      "stateMutability": "view",
      "type": "function"
    },
    {
      "inputs": [],
      "name": "harvest",
      "outputs": [],
      "stateMutability": "nonpayable",
      "type": "function"
    },
    {
      "inputs": [],
      "name": "harvestTime",
      "outputs": [
        {
          "internalType": "uint256",
          "name": "",
          "type": "uint256"
        }
      ],
      "stateMutability": "view",
      "type": "function"
    },
    {
      "inputs": [
        {
          "internalType": "address",
          "name": "_user",
          "type": "address"
        }
      ],
      "name": "hasHarvest",
      "outputs": [
        {
          "internalType": "bool",
          "name": "",
          "type": "bool"
        }
      ],
      "stateMutability": "view",
      "type": "function"
    },
    {
      "inputs": [],
      "name": "multiplier",
      "outputs": [
        {
          "internalType": "uint256",
          "name": "",
          "type": "uint256"
        }
      ],
      "stateMutability": "view",
      "type": "function"
    },
    {
      "inputs": [],
      "name": "offeringAmount",
      "outputs": [
        {
          "internalType": "uint256",
          "name": "",
          "type": "uint256"
        }
      ],
      "stateMutability": "view",
      "type": "function"
    },
    {
      "inputs": [],
      "name": "offeringToken",
      "outputs": [
        {
          "internalType": "contract ERC20",
          "name": "",
          "type": "address"
        }
      ],
      "stateMutability": "view",
      "type": "function"
    },
    {
      "inputs": [],
      "name": "owner",
      "outputs": [
        {
          "internalType": "address",
          "name": "",
          "type": "address"
        }
      ],
      "stateMutability": "view",
      "type": "function"
    },
    {
      "inputs": [],
      "name": "pause",
      "outputs": [],
      "stateMutability": "nonpayable",
      "type": "function"
    },
    {
      "inputs": [],
      "name": "paused",
      "outputs": [
        {
          "internalType": "bool",
          "name": "",
          "type": "bool"
        }
      ],
      "stateMutability": "view",
      "type": "function"
    },
    {
      "inputs": [],
      "name": "raisingAmount",
      "outputs": [
        {
          "internalType": "uint256",
          "name": "",
          "type": "uint256"
        }
      ],
      "stateMutability": "view",
      "type": "function"
    },
    {
      "inputs": [],
      "name": "renounceOwnership",
      "outputs": [],
      "stateMutability": "nonpayable",
      "type": "function"
    },
    {
      "inputs": [
        {
          "internalType": "uint256",
          "name": "_offerAmount",
          "type": "uint256"
        }
      ],
      "name": "setOfferingAmount",
      "outputs": [],
      "stateMutability": "nonpayable",
      "type": "function"
    },
    {
      "inputs": [
        {
          "internalType": "uint256",
          "name": "_raisingAmount",
          "type": "uint256"
        }
      ],
      "name": "setRaisingAmount",
      "outputs": [],
      "stateMutability": "nonpayable",
      "type": "function"
    },
    {
      "inputs": [
        {
          "internalType": "uint256",
          "name": "id",
          "type": "uint256"
        }
      ],
      "name": "setSnapshotFrom",
      "outputs": [],
      "stateMutability": "nonpayable",
      "type": "function"
    },
    {
      "inputs": [
        {
          "internalType": "uint256",
          "name": "id",
          "type": "uint256"
        }
      ],
      "name": "setSnapshotTo",
      "outputs": [],
      "stateMutability": "nonpayable",
      "type": "function"
    },
    {
      "inputs": [],
      "name": "snapshotFrom",
      "outputs": [
        {
          "internalType": "uint256",
          "name": "",
          "type": "uint256"
        }
      ],
      "stateMutability": "view",
      "type": "function"
    },
    {
      "inputs": [],
      "name": "snapshotTo",
      "outputs": [
        {
          "internalType": "uint256",
          "name": "",
          "type": "uint256"
        }
      ],
      "stateMutability": "view",
      "type": "function"
    },
    {
      "inputs": [],
      "name": "startTime",
      "outputs": [
        {
          "internalType": "uint256",
          "name": "",
          "type": "uint256"
        }
      ],
      "stateMutability": "view",
      "type": "function"
    },
    {
      "inputs": [],
      "name": "tierSystem",
      "outputs": [
        {
          "internalType": "contract ITierSystem",
          "name": "",
          "type": "address"
        }
      ],
      "stateMutability": "view",
      "type": "function"
    },
    {
      "inputs": [],
      "name": "totalAmount",
      "outputs": [
        {
          "internalType": "uint256",
          "name": "",
          "type": "uint256"
        }
      ],
      "stateMutability": "view",
      "type": "function"
    },
    {
      "inputs": [
        {
          "internalType": "address",
          "name": "newOwner",
          "type": "address"
        }
      ],
      "name": "transferOwnership",
      "outputs": [],
      "stateMutability": "nonpayable",
      "type": "function"
    },
    {
      "inputs": [],
      "name": "unpause",
      "outputs": [],
      "stateMutability": "nonpayable",
      "type": "function"
    },
    {
      "inputs": [
        {
          "internalType": "uint256",
          "name": "_newTime",
          "type": "uint256"
        }
      ],
      "name": "updateEndTime",
      "outputs": [],
      "stateMutability": "nonpayable",
      "type": "function"
    },
    {
      "inputs": [
        {
          "internalType": "uint256",
          "name": "_newTime",
          "type": "uint256"
        }
      ],
      "name": "updateHarvestTime",
      "outputs": [],
      "stateMutability": "nonpayable",
      "type": "function"
    },
    {
      "inputs": [
        {
          "internalType": "address",
          "name": "",
          "type": "address"
        }
      ],
      "name": "userInfo",
      "outputs": [
        {
          "internalType": "uint256",
          "name": "amount",
          "type": "uint256"
        },
        {
          "internalType": "bool",
          "name": "claimed",
          "type": "bool"
        }
      ],
      "stateMutability": "view",
      "type": "function"
    }
  ],
  "bytecode": "0x60806040523480156200001157600080fd5b50604051620045dd380380620045dd8339818101604052810190620000379190620002a1565b60016000819055506200005f620000536200018e60201b60201c565b6200019660201b60201c565b6000600160146101000a81548160ff0219169083151502179055508a600260006101000a81548173ffffffffffffffffffffffffffffffffffffffff021916908373ffffffffffffffffffffffffffffffffffffffff16021790555089600360006101000a81548173ffffffffffffffffffffffffffffffffffffffff021916908373ffffffffffffffffffffffffffffffffffffffff1602179055508860048190555087600581905550866006819055508560088190555084600781905550600060098190555083600c60006101000a81548173ffffffffffffffffffffffffffffffffffffffff021916908373ffffffffffffffffffffffffffffffffffffffff16021790555082600d8190555081600e8190555080600f8190555050505050505050505050506200045c565b600033905090565b6000600160009054906101000a900473ffffffffffffffffffffffffffffffffffffffff16905081600160006101000a81548173ffffffffffffffffffffffffffffffffffffffff021916908373ffffffffffffffffffffffffffffffffffffffff1602179055508173ffffffffffffffffffffffffffffffffffffffff168173ffffffffffffffffffffffffffffffffffffffff167f8be0079c531659141344cd1fd0a4f28419497f9722a3daafe3b4186f6b6457e060405160405180910390a35050565b6000815190506200026d816200040e565b92915050565b600081519050620002848162000428565b92915050565b6000815190506200029b8162000442565b92915050565b60008060008060008060008060008060006101608c8e031215620002c457600080fd5b6000620002d48e828f016200025c565b9b50506020620002e78e828f016200025c565b9a50506040620002fa8e828f016200028a565b99505060606200030d8e828f016200028a565b9850506080620003208e828f016200028a565b97505060a0620003338e828f016200028a565b96505060c0620003468e828f016200028a565b95505060e0620003598e828f0162000273565b9450506101006200036d8e828f016200028a565b935050610120620003818e828f016200028a565b925050610140620003958e828f016200028a565b9150509295989b509295989b9093969950565b6000620003b582620003e4565b9050919050565b6000620003c982620003a8565b9050919050565b6000620003dd82620003a8565b9050919050565b600073ffffffffffffffffffffffffffffffffffffffff82169050919050565b6000819050919050565b6200041981620003bc565b81146200042557600080fd5b50565b6200043381620003d0565b81146200043f57600080fd5b50565b6200044d8162000404565b81146200045957600080fd5b50565b614171806200046c6000396000f3fe60806040526004361061023b5760003560e01c806376ea6ee01161012e578063b7813607116100ab578063e1af9a951161006f578063e1af9a951461086d578063f2fde38b14610898578063f4808210146108c1578063f8caa7e5146108ec578063fc00358e146109175761023b565b8063b781360714610776578063b810fb43146107a1578063b920ade2146107de578063c2c9721b1461081b578063d16bba94146108445761023b565b80639c0a7669116100f25780639c0a76691461069e578063a4821719146106c9578063ac3ff912146106f4578063b45aae521461071d578063b6b55f251461075a5761023b565b806376ea6ee0146105cb57806378e97925146105f45780638456cb591461061f57806387e97bc6146106365780638da5cb5b146106735761023b565b80633f4ba83a116101bc5780636382d9ad116101805780636382d9ad146104e857806364ce9fff146105115780636a2ce5131461054e5780636ab3846b1461058b578063715018a6146105b45761023b565b80633f4ba83a146104355780634225c32f1461044c5780634641257d146104755780635a9b0b891461048c5780635c975abb146104bd5761023b565b806322b331751161020357806322b331751461034e57806327d1b1a2146103795780632f5105f8146103a25780633197cbb6146103df578063343e31f51461040a5761023b565b80630a2642bf146102405780630e0229231461027d5780631959a002146102ba5780631a39d8ef146102f85780631b3ed72214610323575b600080fd5b34801561024c57600080fd5b506102676004803603810190610262919061318e565b610942565b60405161027491906139ab565b60405180910390f35b34801561028957600080fd5b506102a4600480360381019061029f91906130bf565b610a84565b6040516102b191906139ab565b60405180910390f35b3480156102c657600080fd5b506102e160048036038101906102dc91906130bf565b610b61565b6040516102ef9291906139c6565b60405180910390f35b34801561030457600080fd5b5061030d610b92565b60405161031a91906139ab565b60405180910390f35b34801561032f57600080fd5b50610338610b98565b60405161034591906139ab565b60405180910390f35b34801561035a57600080fd5b50610363610b9e565b60405161037091906139ab565b60405180910390f35b34801561038557600080fd5b506103a0600480360381019061039b919061318e565b610ba4565b005b3480156103ae57600080fd5b506103c960048036038101906103c491906130bf565b610c6e565b6040516103d691906139ab565b60405180910390f35b3480156103eb57600080fd5b506103f4610d23565b60405161040191906139ab565b60405180910390f35b34801561041657600080fd5b5061041f610d29565b60405161042c91906139ab565b60405180910390f35b34801561044157600080fd5b5061044a610d2f565b005b34801561045857600080fd5b50610473600480360381019061046e919061318e565b610db5565b005b34801561048157600080fd5b5061048a610e7f565b005b34801561049857600080fd5b506104a1611181565b6040516104b4979695949392919061392e565b60405180910390f35b3480156104c957600080fd5b506104d2611329565b6040516104df919061369b565b60405180910390f35b3480156104f457600080fd5b5061050f600480360381019061050a91906130e8565b611340565b005b34801561051d57600080fd5b50610538600480360381019061053391906130bf565b6114f5565b604051610545919061369b565b60405180910390f35b34801561055a57600080fd5b50610575600480360381019061057091906130bf565b61154e565b60405161058291906139ab565b60405180910390f35b34801561059757600080fd5b506105b260048036038101906105ad919061318e565b6116cd565b005b3480156105c057600080fd5b506105c96117a2565b005b3480156105d757600080fd5b506105f260048036038101906105ed919061318e565b61182a565b005b34801561060057600080fd5b506106096118ff565b60405161061691906139ab565b60405180910390f35b34801561062b57600080fd5b50610634611905565b005b34801561064257600080fd5b5061065d600480360381019061065891906130bf565b61198b565b60405161066a91906139ab565b60405180910390f35b34801561067f57600080fd5b50610688611a50565b60405161069591906135e9565b60405180910390f35b3480156106aa57600080fd5b506106b3611a7a565b6040516106c091906139ab565b60405180910390f35b3480156106d557600080fd5b506106de611a80565b6040516106eb91906136b6565b60405180910390f35b34801561070057600080fd5b5061071b600480360381019061071691906130bf565b611aa6565b005b34801561072957600080fd5b50610744600480360381019061073f91906130bf565b611c83565b60405161075191906139ab565b60405180910390f35b610774600480360381019061076f919061318e565b611d3f565b005b34801561078257600080fd5b5061078b6121dc565b60405161079891906136b6565b60405180910390f35b3480156107ad57600080fd5b506107c860048036038101906107c3919061318e565b612202565b6040516107d591906135e9565b60405180910390f35b3480156107ea57600080fd5b50610805600480360381019061080091906130bf565b612241565b60405161081291906139ab565b60405180910390f35b34801561082757600080fd5b50610842600480360381019061083d919061318e565b6122bb565b005b34801561085057600080fd5b5061086b6004803603810190610866919061318e565b612384565b005b34801561087957600080fd5b5061088261244d565b60405161088f91906139ab565b60405180910390f35b3480156108a457600080fd5b506108bf60048036038101906108ba91906130bf565b612453565b005b3480156108cd57600080fd5b506108d661254b565b6040516108e391906139ab565b60405180910390f35b3480156108f857600080fd5b50610901612551565b60405161090e91906136d1565b60405180910390f35b34801561092357600080fd5b5061092c612577565b60405161093991906139ab565b60405180910390f35b600080600c60009054906101000a900473ffffffffffffffffffffffffffffffffffffffff1673ffffffffffffffffffffffffffffffffffffffff1663bbc3f7cf846040518263ffffffff1660e01b81526004016109a091906139ab565b60206040518083038186803b1580156109b857600080fd5b505afa1580156109cc573d6000803e3d6000fd5b505050506040513d601f19601f820116820180604052508101906109f091906131b7565b9050600073ffffffffffffffffffffffffffffffffffffffff16600260009054906101000a900473ffffffffffffffffffffffffffffffffffffffff1673ffffffffffffffffffffffffffffffffffffffff161415610a6657610a5e600f548261258490919063ffffffff16565b915050610a7f565b610a7b600f548261258490919063ffffffff16565b9150505b919050565b600080600c60009054906101000a900473ffffffffffffffffffffffffffffffffffffffff1673ffffffffffffffffffffffffffffffffffffffff16636002de6784600d54600e546040518463ffffffff1660e01b8152600401610aea93929190613664565b60206040518083038186803b158015610b0257600080fd5b505afa158015610b16573d6000803e3d6000fd5b505050506040513d601f19601f82011682018060405250810190610b3a91906131b7565b90506000811415610b4f576000915050610b5c565b610b5881610942565b9150505b919050565b600a6020528060005260406000206000915090508060000154908060010160009054906101000a900460ff16905082565b60095481565b600f5481565b600e5481565b610bac61259a565b73ffffffffffffffffffffffffffffffffffffffff16610bca611a50565b73ffffffffffffffffffffffffffffffffffffffff1614610c20576040517f08c379a0000000000000000000000000000000000000000000000000000000008152600401610c179061384e565b60405180910390fd5b6004544210610c64576040517f08c379a0000000000000000000000000000000000000000000000000000000008152600401610c5b9061380e565b60405180910390fd5b8060088190555050565b600060075460095411610c845760009050610d1e565b6000610c8f83612241565b90506000610cc2670de0b6b3a7640000610cb48460075461258490919063ffffffff16565b6125a290919063ffffffff16565b9050610d1981600a60008773ffffffffffffffffffffffffffffffffffffffff1673ffffffffffffffffffffffffffffffffffffffff168152602001908152602001600020600001546125b890919063ffffffff16565b925050505b919050565b60055481565b600d5481565b610d3761259a565b73ffffffffffffffffffffffffffffffffffffffff16610d55611a50565b73ffffffffffffffffffffffffffffffffffffffff1614610dab576040517f08c379a0000000000000000000000000000000000000000000000000000000008152600401610da29061384e565b60405180910390fd5b610db36125ce565b565b610dbd61259a565b73ffffffffffffffffffffffffffffffffffffffff16610ddb611a50565b73ffffffffffffffffffffffffffffffffffffffff1614610e31576040517f08c379a0000000000000000000000000000000000000000000000000000000008152600401610e289061384e565b60405180910390fd5b6004544210610e75576040517f08c379a0000000000000000000000000000000000000000000000000000000008152600401610e6c9061380e565b60405180910390fd5b8060078190555050565b60026000541415610ec5576040517f08c379a0000000000000000000000000000000000000000000000000000000008152600401610ebc906138ee565b60405180910390fd5b6002600081905550600a60003373ffffffffffffffffffffffffffffffffffffffff1673ffffffffffffffffffffffffffffffffffffffff16815260200190815260200160002060010160009054906101000a900460ff1615610f5d576040517f08c379a0000000000000000000000000000000000000000000000000000000008152600401610f549061390e565b60405180910390fd5b610f65611329565b15610fa5576040517f08c379a0000000000000000000000000000000000000000000000000000000008152600401610f9c906137ce565b60405180910390fd5b6000610fb03361198b565b90506000610fbd33610c6e565b905061100c3383600360009054906101000a900473ffffffffffffffffffffffffffffffffffffffff1673ffffffffffffffffffffffffffffffffffffffff166126709092919063ffffffff16565b60008111156110ca57600073ffffffffffffffffffffffffffffffffffffffff16600260009054906101000a900473ffffffffffffffffffffffffffffffffffffffff1673ffffffffffffffffffffffffffffffffffffffff16141561107b5761107633826126f6565b6110c9565b6110c83382600260009054906101000a900473ffffffffffffffffffffffffffffffffffffffff1673ffffffffffffffffffffffffffffffffffffffff166126709092919063ffffffff16565b5b5b6001600a60003373ffffffffffffffffffffffffffffffffffffffff1673ffffffffffffffffffffffffffffffffffffffff16815260200190815260200160002060010160006101000a81548160ff0219169083151502179055503373ffffffffffffffffffffffffffffffffffffffff167f71bab65ced2e5750775a0613be067df48ef06cf92a496ebf7663ae0660924954838360405161116d9291906139ef565b60405180910390a250506001600081905550565b611189612f9b565b611191612f9b565b60008060008060006111a1612f9b565b600073ffffffffffffffffffffffffffffffffffffffff16600260009054906101000a900473ffffffffffffffffffffffffffffffffffffffff1673ffffffffffffffffffffffffffffffffffffffff1614156112a2576040518060800160405280600073ffffffffffffffffffffffffffffffffffffffff168152602001601281526020016040518060400160405280600b81526020017f4b6172646961436861696e00000000000000000000000000000000000000000081525081526020016040518060400160405280600381526020017f4b4149000000000000000000000000000000000000000000000000000000000081525081525090506112d0565b6112cd600260009054906101000a900473ffffffffffffffffffffffffffffffffffffffff1661281c565b90505b60006112fd600360009054906101000a900473ffffffffffffffffffffffffffffffffffffffff1661281c565b905081816004546005546006546008546007549850985098509850985098509850505090919293949596565b6000600160149054906101000a900460ff16905090565b61134861259a565b73ffffffffffffffffffffffffffffffffffffffff16611366611a50565b73ffffffffffffffffffffffffffffffffffffffff16146113bc576040517f08c379a00000000000000000000000000000000000000000000000000000000081526004016113b39061384e565b60405180910390fd5b600073ffffffffffffffffffffffffffffffffffffffff168273ffffffffffffffffffffffffffffffffffffffff16141561143d578073ffffffffffffffffffffffffffffffffffffffff166108fc479081150290604051600060405180830381858888f19350505050158015611437573d6000803e3d6000fd5b506114f1565b6114f0818373ffffffffffffffffffffffffffffffffffffffff166370a08231306040518263ffffffff1660e01b815260040161147a91906135e9565b60206040518083038186803b15801561149257600080fd5b505afa1580156114a6573d6000803e3d6000fd5b505050506040513d601f19601f820116820180604052508101906114ca91906131b7565b8473ffffffffffffffffffffffffffffffffffffffff166126709092919063ffffffff16565b5b5050565b6000600a60008373ffffffffffffffffffffffffffffffffffffffff1673ffffffffffffffffffffffffffffffffffffffff16815260200190815260200160002060010160009054906101000a900460ff169050919050565b600080600c60009054906101000a900473ffffffffffffffffffffffffffffffffffffffff1673ffffffffffffffffffffffffffffffffffffffff16636002de6784600d54600e546040518463ffffffff1660e01b81526004016115b493929190613664565b60206040518083038186803b1580156115cc57600080fd5b505afa1580156115e0573d6000803e3d6000fd5b505050506040513d601f19601f8201168201806040525081019061160491906131b7565b905060008114156116195760009150506116c8565b600c60009054906101000a900473ffffffffffffffffffffffffffffffffffffffff1673ffffffffffffffffffffffffffffffffffffffff1663bbc3f7cf826040518263ffffffff1660e01b815260040161167491906139ab565b60206040518083038186803b15801561168c57600080fd5b505afa1580156116a0573d6000803e3d6000fd5b505050506040513d601f19601f820116820180604052508101906116c491906131b7565b9150505b919050565b6116d561259a565b73ffffffffffffffffffffffffffffffffffffffff166116f3611a50565b73ffffffffffffffffffffffffffffffffffffffff1614611749576040517f08c379a00000000000000000000000000000000000000000000000000000000081526004016117409061384e565b60405180910390fd5b4281118015611759575060065481105b611798576040517f08c379a000000000000000000000000000000000000000000000000000000000815260040161178f9061378e565b60405180910390fd5b8060058190555050565b6117aa61259a565b73ffffffffffffffffffffffffffffffffffffffff166117c8611a50565b73ffffffffffffffffffffffffffffffffffffffff161461181e576040517f08c379a00000000000000000000000000000000000000000000000000000000081526004016118159061384e565b60405180910390fd5b61182860006129e6565b565b61183261259a565b73ffffffffffffffffffffffffffffffffffffffff16611850611a50565b73ffffffffffffffffffffffffffffffffffffffff16146118a6576040517f08c379a000000000000000000000000000000000000000000000000000000000815260040161189d9061384e565b60405180910390fd5b42811180156118b6575060055481115b6118f5576040517f08c379a00000000000000000000000000000000000000000000000000000000081526004016118ec9061378e565b60405180910390fd5b8060068190555050565b60045481565b61190d61259a565b73ffffffffffffffffffffffffffffffffffffffff1661192b611a50565b73ffffffffffffffffffffffffffffffffffffffff1614611981576040517f08c379a00000000000000000000000000000000000000000000000000000000081526004016119789061384e565b60405180910390fd5b611989612aac565b565b600060075460095411156119dd5760006119a483612241565b90506119d5670de0b6b3a76400006119c78360085461258490919063ffffffff16565b6125a290919063ffffffff16565b915050611a4b565b611a48600754611a3a600854600a60008773ffffffffffffffffffffffffffffffffffffffff1673ffffffffffffffffffffffffffffffffffffffff1681526020019081526020016000206000015461258490919063ffffffff16565b6125a290919063ffffffff16565b90505b919050565b6000600160009054906101000a900473ffffffffffffffffffffffffffffffffffffffff16905090565b60075481565b600260009054906101000a900473ffffffffffffffffffffffffffffffffffffffff1681565b611aae61259a565b73ffffffffffffffffffffffffffffffffffffffff16611acc611a50565b73ffffffffffffffffffffffffffffffffffffffff1614611b22576040517f08c379a0000000000000000000000000000000000000000000000000000000008152600401611b199061384e565b60405180910390fd5b600073ffffffffffffffffffffffffffffffffffffffff16600260009054906101000a900473ffffffffffffffffffffffffffffffffffffffff1673ffffffffffffffffffffffffffffffffffffffff161415611b8857611b8381476126f6565b611c80565b611c7f81600260009054906101000a900473ffffffffffffffffffffffffffffffffffffffff1673ffffffffffffffffffffffffffffffffffffffff166370a08231306040518263ffffffff1660e01b8152600401611be791906135e9565b60206040518083038186803b158015611bff57600080fd5b505afa158015611c13573d6000803e3d6000fd5b505050506040513d601f19601f82011682018060405250810190611c3791906131b7565b600260009054906101000a900473ffffffffffffffffffffffffffffffffffffffff1673ffffffffffffffffffffffffffffffffffffffff166126709092919063ffffffff16565b5b50565b6000600c60009054906101000a900473ffffffffffffffffffffffffffffffffffffffff1673ffffffffffffffffffffffffffffffffffffffff16636002de6783600d54600e546040518463ffffffff1660e01b8152600401611ce893929190613664565b60206040518083038186803b158015611d0057600080fd5b505afa158015611d14573d6000803e3d6000fd5b505050506040513d601f19601f82011682018060405250810190611d3891906131b7565b9050919050565b60026000541415611d85576040517f08c379a0000000000000000000000000000000000000000000000000000000008152600401611d7c906138ee565b60405180910390fd5b60026000819055508060008111611dd1576040517f08c379a0000000000000000000000000000000000000000000000000000000008152600401611dc89061370e565b60405180910390fd5b611dd9611329565b15611e19576040517f08c379a0000000000000000000000000000000000000000000000000000000008152600401611e10906137ce565b60405180910390fd5b6000611e2433612b4e565b9050600a60003373ffffffffffffffffffffffffffffffffffffffff1673ffffffffffffffffffffffffffffffffffffffff168152602001908152602001600020600001548111611eaa576040517f08c379a0000000000000000000000000000000000000000000000000000000008152600401611ea1906137ee565b60405180910390fd5b6000600a60003373ffffffffffffffffffffffffffffffffffffffff1673ffffffffffffffffffffffffffffffffffffffff1681526020019081526020016000206000015482611efa9190613b92565b9050600084905084821015611f0d578190505b600073ffffffffffffffffffffffffffffffffffffffff16600260009054906101000a900473ffffffffffffffffffffffffffffffffffffffff1673ffffffffffffffffffffffffffffffffffffffff161415611fca5780341015611fa7576040517f08c379a0000000000000000000000000000000000000000000000000000000008152600401611f9e9061382e565b60405180910390fd5b80341115611fc557611fc4338234611fbf9190613b92565b6126f6565b5b61201a565b612019333083600260009054906101000a900473ffffffffffffffffffffffffffffffffffffffff1673ffffffffffffffffffffffffffffffffffffffff16612c7f909392919063ffffffff16565b5b6000600a60003373ffffffffffffffffffffffffffffffffffffffff1673ffffffffffffffffffffffffffffffffffffffff1681526020019081526020016000206000015414156120c957600b339080600181540180825580915050600190039060005260206000200160009091909190916101000a81548173ffffffffffffffffffffffffffffffffffffffff021916908373ffffffffffffffffffffffffffffffffffffffff1602179055505b61211e81600a60003373ffffffffffffffffffffffffffffffffffffffff1673ffffffffffffffffffffffffffffffffffffffff16815260200190815260200160002060000154612d0890919063ffffffff16565b600a60003373ffffffffffffffffffffffffffffffffffffffff1673ffffffffffffffffffffffffffffffffffffffff1681526020019081526020016000206000018190555061217981600954612d0890919063ffffffff16565b6009819055503373ffffffffffffffffffffffffffffffffffffffff167fe1fffcc4923d04b559f4d29a8bfc6cda04eb5b0d3c460751c2402c5c5cc9109c826040516121c591906139ab565b60405180910390a250505050600160008190555050565b600360009054906101000a900473ffffffffffffffffffffffffffffffffffffffff1681565b600b818154811061221257600080fd5b906000526020600020016000915054906101000a900473ffffffffffffffffffffffffffffffffffffffff1681565b60006122b46009546122a6670de0b6b3a7640000600a60008773ffffffffffffffffffffffffffffffffffffffff1673ffffffffffffffffffffffffffffffffffffffff1681526020019081526020016000206000015461258490919063ffffffff16565b6125a290919063ffffffff16565b9050919050565b6122c361259a565b73ffffffffffffffffffffffffffffffffffffffff166122e1611a50565b73ffffffffffffffffffffffffffffffffffffffff1614612337576040517f08c379a000000000000000000000000000000000000000000000000000000000815260040161232e9061384e565b60405180910390fd5b6000811161237a576040517f08c379a00000000000000000000000000000000000000000000000000000000081526004016123719061386e565b60405180910390fd5b80600e8190555050565b61238c61259a565b73ffffffffffffffffffffffffffffffffffffffff166123aa611a50565b73ffffffffffffffffffffffffffffffffffffffff1614612400576040517f08c379a00000000000000000000000000000000000000000000000000000000081526004016123f79061384e565b60405180910390fd5b60008111612443576040517f08c379a000000000000000000000000000000000000000000000000000000000815260040161243a9061386e565b60405180910390fd5b80600d8190555050565b60085481565b61245b61259a565b73ffffffffffffffffffffffffffffffffffffffff16612479611a50565b73ffffffffffffffffffffffffffffffffffffffff16146124cf576040517f08c379a00000000000000000000000000000000000000000000000000000000081526004016124c69061384e565b60405180910390fd5b600073ffffffffffffffffffffffffffffffffffffffff168173ffffffffffffffffffffffffffffffffffffffff16141561253f576040517f08c379a00000000000000000000000000000000000000000000000000000000081526004016125369061374e565b60405180910390fd5b612548816129e6565b50565b60065481565b600c60009054906101000a900473ffffffffffffffffffffffffffffffffffffffff1681565b6000600b80549050905090565b600081836125929190613b38565b905092915050565b600033905090565b600081836125b09190613b07565b905092915050565b600081836125c69190613b92565b905092915050565b6125d6611329565b612615576040517f08c379a000000000000000000000000000000000000000000000000000000000815260040161260c9061372e565b60405180910390fd5b6000600160146101000a81548160ff0219169083151502179055507f5db9ee0a495bf2e6ff9c91a7834c1ba4fdd244a5e8aa4e537bd38aeae4b073aa61265961259a565b60405161266691906135e9565b60405180910390a1565b6126f18363a9059cbb60e01b848460405160240161268f92919061363b565b604051602081830303815290604052907bffffffffffffffffffffffffffffffffffffffffffffffffffffffff19166020820180517bffffffffffffffffffffffffffffffffffffffffffffffffffffffff8381831617835250505050612d1e565b505050565b60008273ffffffffffffffffffffffffffffffffffffffff1682600067ffffffffffffffff811115612751577f4e487b7100000000000000000000000000000000000000000000000000000000600052604160045260246000fd5b6040519080825280601f01601f1916602001820160405280156127835781602001600182028036833780820191505090505b5060405161279191906135d2565b60006040518083038185875af1925050503d80600081146127ce576040519150601f19603f3d011682016040523d82523d6000602084013e6127d3565b606091505b5050905080612817576040517f08c379a000000000000000000000000000000000000000000000000000000000815260040161280e906138ae565b60405180910390fd5b505050565b612824612f9b565b60405180608001604052808373ffffffffffffffffffffffffffffffffffffffff1681526020018373ffffffffffffffffffffffffffffffffffffffff1663313ce5676040518163ffffffff1660e01b815260040160206040518083038186803b15801561289157600080fd5b505afa1580156128a5573d6000803e3d6000fd5b505050506040513d601f19601f820116820180604052508101906128c991906131e0565b60ff1681526020018373ffffffffffffffffffffffffffffffffffffffff166306fdde036040518163ffffffff1660e01b815260040160006040518083038186803b15801561291757600080fd5b505afa15801561292b573d6000803e3d6000fd5b505050506040513d6000823e3d601f19601f82011682018060405250810190612954919061314d565b81526020018373ffffffffffffffffffffffffffffffffffffffff166395d89b416040518163ffffffff1660e01b815260040160006040518083038186803b15801561299f57600080fd5b505afa1580156129b3573d6000803e3d6000fd5b505050506040513d6000823e3d601f19601f820116820180604052508101906129dc919061314d565b8152509050919050565b6000600160009054906101000a900473ffffffffffffffffffffffffffffffffffffffff16905081600160006101000a81548173ffffffffffffffffffffffffffffffffffffffff021916908373ffffffffffffffffffffffffffffffffffffffff1602179055508173ffffffffffffffffffffffffffffffffffffffff168173ffffffffffffffffffffffffffffffffffffffff167f8be0079c531659141344cd1fd0a4f28419497f9722a3daafe3b4186f6b6457e060405160405180910390a35050565b612ab4611329565b15612af4576040517f08c379a0000000000000000000000000000000000000000000000000000000008152600401612aeb906137ce565b60405180910390fd5b60018060146101000a81548160ff0219169083151502179055507f62e78cea01bee320cd4e420270b5ea74000d11b0c9f74754ebdbfc544b05a258612b3761259a565b604051612b4491906135e9565b60405180910390a1565b600080600d54118015612b645750600d54600e54115b612ba3576040517f08c379a0000000000000000000000000000000000000000000000000000000008152600401612b9a9061376e565b60405180910390fd5b6000600c60009054906101000a900473ffffffffffffffffffffffffffffffffffffffff1673ffffffffffffffffffffffffffffffffffffffff16636002de6784600d54600e546040518463ffffffff1660e01b8152600401612c0893929190613664565b60206040518083038186803b158015612c2057600080fd5b505afa158015612c34573d6000803e3d6000fd5b505050506040513d601f19601f82011682018060405250810190612c5891906131b7565b90506000811415612c6d576000915050612c7a565b612c7681610942565b9150505b919050565b612d02846323b872dd60e01b858585604051602401612ca093929190613604565b604051602081830303815290604052907bffffffffffffffffffffffffffffffffffffffffffffffffffffffff19166020820180517bffffffffffffffffffffffffffffffffffffffffffffffffffffffff8381831617835250505050612d1e565b50505050565b60008183612d169190613ab1565b905092915050565b6000612d80826040518060400160405280602081526020017f5361666545524332303a206c6f772d6c6576656c2063616c6c206661696c65648152508573ffffffffffffffffffffffffffffffffffffffff16612de59092919063ffffffff16565b9050600081511115612de05780806020019051810190612da09190613124565b612ddf576040517f08c379a0000000000000000000000000000000000000000000000000000000008152600401612dd6906138ce565b60405180910390fd5b5b505050565b6060612df48484600085612dfd565b90509392505050565b606082471015612e42576040517f08c379a0000000000000000000000000000000000000000000000000000000008152600401612e39906137ae565b60405180910390fd5b612e4b85612f11565b612e8a576040517f08c379a0000000000000000000000000000000000000000000000000000000008152600401612e819061388e565b60405180910390fd5b6000808673ffffffffffffffffffffffffffffffffffffffff168587604051612eb391906135d2565b60006040518083038185875af1925050503d8060008114612ef0576040519150601f19603f3d011682016040523d82523d6000602084013e612ef5565b606091505b5091509150612f05828286612f34565b92505050949350505050565b6000808273ffffffffffffffffffffffffffffffffffffffff163b119050919050565b60608315612f4457829050612f94565b600083511115612f575782518084602001fd5b816040517f08c379a0000000000000000000000000000000000000000000000000000000008152600401612f8b91906136ec565b60405180910390fd5b9392505050565b6040518060800160405280600073ffffffffffffffffffffffffffffffffffffffff1681526020016000815260200160608152602001606081525090565b6000612fec612fe784613a3d565b613a18565b90508281526020810184848401111561300457600080fd5b61300f848285613c75565b509392505050565b600081359050613026816140c8565b92915050565b60008135905061303b816140df565b92915050565b600081519050613050816140f6565b92915050565b600082601f83011261306757600080fd5b8151613077848260208601612fd9565b91505092915050565b60008135905061308f8161410d565b92915050565b6000815190506130a48161410d565b92915050565b6000815190506130b981614124565b92915050565b6000602082840312156130d157600080fd5b60006130df84828501613017565b91505092915050565b600080604083850312156130fb57600080fd5b600061310985828601613017565b925050602061311a8582860161302c565b9150509250929050565b60006020828403121561313657600080fd5b600061314484828501613041565b91505092915050565b60006020828403121561315f57600080fd5b600082015167ffffffffffffffff81111561317957600080fd5b61318584828501613056565b91505092915050565b6000602082840312156131a057600080fd5b60006131ae84828501613080565b91505092915050565b6000602082840312156131c957600080fd5b60006131d784828501613095565b91505092915050565b6000602082840312156131f257600080fd5b6000613200848285016130aa565b91505092915050565b61321281613bc6565b82525050565b61322181613bea565b82525050565b600061323282613a6e565b61323c8185613a84565b935061324c818560208601613c75565b80840191505092915050565b61326181613c2d565b82525050565b61327081613c2d565b82525050565b61327f81613c51565b82525050565b600061329082613a79565b61329a8185613a8f565b93506132aa818560208601613c75565b6132b381613d66565b840191505092915050565b60006132c982613a79565b6132d38185613aa0565b93506132e3818560208601613c75565b6132ec81613d66565b840191505092915050565b6000613304601083613aa0565b915061330f82613d77565b602082019050919050565b6000613327601483613aa0565b915061333282613da0565b602082019050919050565b600061334a602683613aa0565b915061335582613dc9565b604082019050919050565b600061336d601383613aa0565b915061337882613e18565b602082019050919050565b6000613390600e83613aa0565b915061339b82613e41565b602082019050919050565b60006133b3602683613aa0565b91506133be82613e6a565b604082019050919050565b60006133d6601083613aa0565b91506133e182613eb9565b602082019050919050565b60006133f9601583613aa0565b915061340482613ee2565b602082019050919050565b600061341c600283613aa0565b915061342782613f0b565b602082019050919050565b600061343f601183613aa0565b915061344a82613f34565b602082019050919050565b6000613462602083613aa0565b915061346d82613f5d565b602082019050919050565b6000613485600a83613aa0565b915061349082613f86565b602082019050919050565b60006134a8601d83613aa0565b91506134b382613faf565b602082019050919050565b60006134cb602383613aa0565b91506134d682613fd8565b604082019050919050565b60006134ee602a83613aa0565b91506134f982614027565b604082019050919050565b6000613511601f83613aa0565b915061351c82614076565b602082019050919050565b6000613534601283613aa0565b915061353f8261409f565b602082019050919050565b60006080830160008301516135626000860182613258565b50602083015161357560208601826135b4565b506040830151848203604086015261358d8282613285565b915050606083015184820360608601526135a78282613285565b9150508091505092915050565b6135bd81613c16565b82525050565b6135cc81613c16565b82525050565b60006135de8284613227565b915081905092915050565b60006020820190506135fe6000830184613209565b92915050565b60006060820190506136196000830186613209565b6136266020830185613209565b61363360408301846135c3565b949350505050565b60006040820190506136506000830185613209565b61365d60208301846135c3565b9392505050565b60006060820190506136796000830186613209565b61368660208301856135c3565b61369360408301846135c3565b949350505050565b60006020820190506136b06000830184613218565b92915050565b60006020820190506136cb6000830184613267565b92915050565b60006020820190506136e66000830184613276565b92915050565b6000602082019050818103600083015261370681846132be565b905092915050565b60006020820190508181036000830152613727816132f7565b9050919050565b600060208201905081810360008301526137478161331a565b9050919050565b600060208201905081810360008301526137678161333d565b9050919050565b6000602082019050818103600083015261378781613360565b9050919050565b600060208201905081810360008301526137a781613383565b9050919050565b600060208201905081810360008301526137c7816133a6565b9050919050565b600060208201905081810360008301526137e7816133c9565b9050919050565b60006020820190508181036000830152613807816133ec565b9050919050565b600060208201905081810360008301526138278161340f565b9050919050565b6000602082019050818103600083015261384781613432565b9050919050565b6000602082019050818103600083015261386781613455565b9050919050565b6000602082019050818103600083015261388781613478565b9050919050565b600060208201905081810360008301526138a78161349b565b9050919050565b600060208201905081810360008301526138c7816134be565b9050919050565b600060208201905081810360008301526138e7816134e1565b9050919050565b6000602082019050818103600083015261390781613504565b9050919050565b6000602082019050818103600083015261392781613527565b9050919050565b600060e0820190508181036000830152613948818a61354a565b9050818103602083015261395c818961354a565b905061396b60408301886135c3565b61397860608301876135c3565b61398560808301866135c3565b61399260a08301856135c3565b61399f60c08301846135c3565b98975050505050505050565b60006020820190506139c060008301846135c3565b92915050565b60006040820190506139db60008301856135c3565b6139e86020830184613218565b9392505050565b6000604082019050613a0460008301856135c3565b613a1160208301846135c3565b9392505050565b6000613a22613a33565b9050613a2e8282613ca8565b919050565b6000604051905090565b600067ffffffffffffffff821115613a5857613a57613d37565b5b613a6182613d66565b9050602081019050919050565b600081519050919050565b600081519050919050565b600081905092915050565b600082825260208201905092915050565b600082825260208201905092915050565b6000613abc82613c16565b9150613ac783613c16565b9250827fffffffffffffffffffffffffffffffffffffffffffffffffffffffffffffffff03821115613afc57613afb613cd9565b5b828201905092915050565b6000613b1282613c16565b9150613b1d83613c16565b925082613b2d57613b2c613d08565b5b828204905092915050565b6000613b4382613c16565b9150613b4e83613c16565b9250817fffffffffffffffffffffffffffffffffffffffffffffffffffffffffffffffff0483118215151615613b8757613b86613cd9565b5b828202905092915050565b6000613b9d82613c16565b9150613ba883613c16565b925082821015613bbb57613bba613cd9565b5b828203905092915050565b6000613bd182613bf6565b9050919050565b6000613be382613bf6565b9050919050565b60008115159050919050565b600073ffffffffffffffffffffffffffffffffffffffff82169050919050565b6000819050919050565b600060ff82169050919050565b6000613c3882613c3f565b9050919050565b6000613c4a82613bf6565b9050919050565b6000613c5c82613c63565b9050919050565b6000613c6e82613bf6565b9050919050565b60005b83811015613c93578082015181840152602081019050613c78565b83811115613ca2576000848401525b50505050565b613cb182613d66565b810181811067ffffffffffffffff82111715613cd057613ccf613d37565b5b80604052505050565b7f4e487b7100000000000000000000000000000000000000000000000000000000600052601160045260246000fd5b7f4e487b7100000000000000000000000000000000000000000000000000000000600052601260045260246000fd5b7f4e487b7100000000000000000000000000000000000000000000000000000000600052604160045260246000fd5b6000601f19601f8301169050919050565b7f6e656564205f616d6f756e74203e203000000000000000000000000000000000600082015250565b7f5061757361626c653a206e6f7420706175736564000000000000000000000000600082015250565b7f4f776e61626c653a206e6577206f776e657220697320746865207a65726f206160008201527f6464726573730000000000000000000000000000000000000000000000000000602082015250565b7f536e617073686f74206964206e6f742073657400000000000000000000000000600082015250565b7f74696d6520696e76616c69642121000000000000000000000000000000000000600082015250565b7f416464726573733a20696e73756666696369656e742062616c616e636520666f60008201527f722063616c6c0000000000000000000000000000000000000000000000000000602082015250565b7f5061757361626c653a2070617573656400000000000000000000000000000000600082015250565b7f6e6f7420656c696769626c6520616d6f756e7421210000000000000000000000600082015250565b7f6e6f000000000000000000000000000000000000000000000000000000000000600082015250565b7f616d6f756e74206e6f7420656e6f756768000000000000000000000000000000600082015250565b7f4f776e61626c653a2063616c6c6572206973206e6f7420746865206f776e6572600082015250565b7f496420696e76616c696400000000000000000000000000000000000000000000600082015250565b7f416464726573733a2063616c6c20746f206e6f6e2d636f6e7472616374000000600082015250565b7f5472616e7366657248656c7065723a204b41495f5452414e534645525f46414960008201527f4c45440000000000000000000000000000000000000000000000000000000000602082015250565b7f5361666545524332303a204552433230206f7065726174696f6e20646964206e60008201527f6f74207375636365656400000000000000000000000000000000000000000000602082015250565b7f5265656e7472616e637947756172643a207265656e7472616e742063616c6c00600082015250565b7f6e6f7468696e6720746f20686172766573740000000000000000000000000000600082015250565b6140d181613bc6565b81146140dc57600080fd5b50565b6140e881613bd8565b81146140f357600080fd5b50565b6140ff81613bea565b811461410a57600080fd5b50565b61411681613c16565b811461412157600080fd5b50565b61412d81613c20565b811461413857600080fd5b5056fea26469706673582212205bf53ed0056f9a1235f2dfa67ecc81ddd368f366b9cb93aee8029e32f6095e2864736f6c63430008040033",
  "linkReferences": {},
  "deployedLinkReferences": {}
}