{
  "_format": "hh-sol-artifact-1",
  "contractName": "FundRaising",
  "sourceName": "contracts/launchpad/FundRaising.sol",
  "abi": [
    {
      "inputs": [
        {
          "internalType": "contract ERC20",
          "name": "_buyToken",
          "type": "address"
        },
        {
          "internalType": "contract ERC20",
          "name": "_offeringToken",
          "type": "address"
        },
        {
          "internalType": "uint256",
          "name": "_startTime",
          "type": "uint256"
        },
        {
          "internalType": "uint256",
          "name": "_endTime",
          "type": "uint256"
        },
        {
          "internalType": "uint256",
          "name": "_harvestTime",
          "type": "uint256"
        },
        {
          "internalType": "uint256",
          "name": "_offeringAmount",
          "type": "uint256"
        },
        {
          "internalType": "uint256",
          "name": "_raisingAmount",
          "type": "uint256"
        },
        {
          "internalType": "contract ITierSystem",
          "name": "_tierSystem",
          "type": "address"
        }
      ],
      "stateMutability": "nonpayable",
      "type": "constructor"
    },
    {
      "anonymous": false,
      "inputs": [
        {
          "indexed": true,
          "internalType": "address",
          "name": "user",
          "type": "address"
        },
        {
          "indexed": false,
          "internalType": "uint256",
          "name": "amount",
          "type": "uint256"
        }
      ],
      "name": "Deposit",
      "type": "event"
    },
    {
      "anonymous": false,
      "inputs": [
        {
          "indexed": true,
          "internalType": "address",
          "name": "user",
          "type": "address"
        },
        {
          "indexed": false,
          "internalType": "uint256",
          "name": "offeringAmount",
          "type": "uint256"
        },
        {
          "indexed": false,
          "internalType": "uint256",
          "name": "excessAmount",
          "type": "uint256"
        }
      ],
      "name": "Harvest",
      "type": "event"
    },
    {
      "anonymous": false,
      "inputs": [
        {
          "indexed": true,
          "internalType": "address",
          "name": "previousOwner",
          "type": "address"
        },
        {
          "indexed": true,
          "internalType": "address",
          "name": "newOwner",
          "type": "address"
        }
      ],
      "name": "OwnershipTransferred",
      "type": "event"
    },
    {
      "anonymous": false,
      "inputs": [
        {
          "indexed": false,
          "internalType": "address",
          "name": "account",
          "type": "address"
        }
      ],
      "name": "Paused",
      "type": "event"
    },
    {
      "anonymous": false,
      "inputs": [
        {
          "indexed": false,
          "internalType": "address",
          "name": "account",
          "type": "address"
        }
      ],
      "name": "Unpaused",
      "type": "event"
    },
    {
      "inputs": [
        {
          "internalType": "uint256",
          "name": "",
          "type": "uint256"
        }
      ],
      "name": "addressList",
      "outputs": [
        {
          "internalType": "address",
          "name": "",
          "type": "address"
        }
      ],
      "stateMutability": "view",
      "type": "function"
    },
    {
      "inputs": [
        {
          "internalType": "uint256",
          "name": "",
          "type": "uint256"
        }
      ],
      "name": "allocations",
      "outputs": [
        {
          "internalType": "uint256",
          "name": "",
          "type": "uint256"
        }
      ],
      "stateMutability": "view",
      "type": "function"
    },
    {
      "inputs": [],
      "name": "buyToken",
      "outputs": [
        {
          "internalType": "contract ERC20",
          "name": "",
          "type": "address"
        }
      ],
      "stateMutability": "view",
      "type": "function"
    },
    {
      "inputs": [
        {
          "internalType": "uint256",
          "name": "_amount",
          "type": "uint256"
        }
      ],
      "name": "deposit",
      "outputs": [],
      "stateMutability": "payable",
      "type": "function"
    },
    {
      "inputs": [
        {
          "internalType": "address",
          "name": "token",
          "type": "address"
        },
        {
          "internalType": "address payable",
          "name": "to",
          "type": "address"
        }
      ],
      "name": "emergencyWithdraw",
      "outputs": [],
      "stateMutability": "nonpayable",
      "type": "function"
    },
    {
      "inputs": [],
      "name": "endTime",
      "outputs": [
        {
          "internalType": "uint256",
          "name": "",
          "type": "uint256"
        }
      ],
      "stateMutability": "view",
      "type": "function"
    },
    {
      "inputs": [
        {
          "internalType": "address",
          "name": "_destination",
          "type": "address"
        }
      ],
      "name": "finalWithdraw",
      "outputs": [],
      "stateMutability": "nonpayable",
      "type": "function"
    },
    {
      "inputs": [],
      "name": "getAddressListLength",
      "outputs": [
        {
          "internalType": "uint256",
          "name": "",
          "type": "uint256"
        }
      ],
      "stateMutability": "view",
      "type": "function"
    },
    {
      "inputs": [],
      "name": "getInfo",
      "outputs": [
        {
          "components": [
            {
              "internalType": "contract ERC20",
              "name": "token",
              "type": "address"
            },
            {
              "internalType": "uint256",
              "name": "decimals",
              "type": "uint256"
            },
            {
              "internalType": "string",
              "name": "name",
              "type": "string"
            },
            {
              "internalType": "string",
              "name": "symbol",
              "type": "string"
            }
          ],
          "internalType": "struct FundRaising.TokenInfo",
          "name": "",
          "type": "tuple"
        },
        {
          "components": [
            {
              "internalType": "contract ERC20",
              "name": "token",
              "type": "address"
            },
            {
              "internalType": "uint256",
              "name": "decimals",
              "type": "uint256"
            },
            {
              "internalType": "string",
              "name": "name",
              "type": "string"
            },
            {
              "internalType": "string",
              "name": "symbol",
              "type": "string"
            }
          ],
          "internalType": "struct FundRaising.TokenInfo",
          "name": "",
          "type": "tuple"
        },
        {
          "internalType": "uint256",
          "name": "",
          "type": "uint256"
        },
        {
          "internalType": "uint256",
          "name": "",
          "type": "uint256"
        },
        {
          "internalType": "uint256",
          "name": "",
          "type": "uint256"
        },
        {
          "internalType": "uint256",
          "name": "",
          "type": "uint256"
        }
      ],
      "stateMutability": "view",
      "type": "function"
    },
    {
      "inputs": [
        {
          "internalType": "address",
          "name": "_user",
          "type": "address"
        }
      ],
      "name": "getOfferingAmount",
      "outputs": [
        {
          "internalType": "uint256",
          "name": "",
          "type": "uint256"
        }
      ],
      "stateMutability": "view",
      "type": "function"
    },
    {
      "inputs": [
        {
          "internalType": "address",
          "name": "_user",
          "type": "address"
        }
      ],
      "name": "getRefundingAmount",
      "outputs": [
        {
          "internalType": "uint256",
          "name": "",
          "type": "uint256"
        }
      ],
      "stateMutability": "view",
      "type": "function"
    },
    {
      "inputs": [
        {
          "internalType": "address",
          "name": "_user",
          "type": "address"
        }
      ],
      "name": "getUserAllocation",
      "outputs": [
        {
          "internalType": "uint256",
          "name": "",
          "type": "uint256"
        }
      ],
      "stateMutability": "view",
      "type": "function"
    },
    {
      "inputs": [],
      "name": "harvest",
      "outputs": [],
      "stateMutability": "nonpayable",
      "type": "function"
    },
    {
      "inputs": [],
      "name": "harvestTime",
      "outputs": [
        {
          "internalType": "uint256",
          "name": "",
          "type": "uint256"
        }
      ],
      "stateMutability": "view",
      "type": "function"
    },
    {
      "inputs": [
        {
          "internalType": "address",
          "name": "_user",
          "type": "address"
        }
      ],
      "name": "hasHarvest",
      "outputs": [
        {
          "internalType": "bool",
          "name": "",
          "type": "bool"
        }
      ],
      "stateMutability": "view",
      "type": "function"
    },
    {
      "inputs": [],
      "name": "offeringAmount",
      "outputs": [
        {
          "internalType": "uint256",
          "name": "",
          "type": "uint256"
        }
      ],
      "stateMutability": "view",
      "type": "function"
    },
    {
      "inputs": [],
      "name": "offeringToken",
      "outputs": [
        {
          "internalType": "contract ERC20",
          "name": "",
          "type": "address"
        }
      ],
      "stateMutability": "view",
      "type": "function"
    },
    {
      "inputs": [],
      "name": "owner",
      "outputs": [
        {
          "internalType": "address",
          "name": "",
          "type": "address"
        }
      ],
      "stateMutability": "view",
      "type": "function"
    },
    {
      "inputs": [],
      "name": "pause",
      "outputs": [],
      "stateMutability": "nonpayable",
      "type": "function"
    },
    {
      "inputs": [],
      "name": "paused",
      "outputs": [
        {
          "internalType": "bool",
          "name": "",
          "type": "bool"
        }
      ],
      "stateMutability": "view",
      "type": "function"
    },
    {
      "inputs": [],
      "name": "raisingAmount",
      "outputs": [
        {
          "internalType": "uint256",
          "name": "",
          "type": "uint256"
        }
      ],
      "stateMutability": "view",
      "type": "function"
    },
    {
      "inputs": [],
      "name": "renounceOwnership",
      "outputs": [],
      "stateMutability": "nonpayable",
      "type": "function"
    },
    {
      "inputs": [
        {
          "internalType": "uint256",
          "name": "_offerAmount",
          "type": "uint256"
        }
      ],
      "name": "setOfferingAmount",
      "outputs": [],
      "stateMutability": "nonpayable",
      "type": "function"
    },
    {
      "inputs": [
        {
          "internalType": "uint256",
          "name": "_raisingAmount",
          "type": "uint256"
        }
      ],
      "name": "setRaisingAmount",
      "outputs": [],
      "stateMutability": "nonpayable",
      "type": "function"
    },
    {
      "inputs": [],
      "name": "startTime",
      "outputs": [
        {
          "internalType": "uint256",
          "name": "",
          "type": "uint256"
        }
      ],
      "stateMutability": "view",
      "type": "function"
    },
    {
      "inputs": [],
      "name": "tierSystem",
      "outputs": [
        {
          "internalType": "contract ITierSystem",
          "name": "",
          "type": "address"
        }
      ],
      "stateMutability": "view",
      "type": "function"
    },
    {
      "inputs": [],
      "name": "totalAmount",
      "outputs": [
        {
          "internalType": "uint256",
          "name": "",
          "type": "uint256"
        }
      ],
      "stateMutability": "view",
      "type": "function"
    },
    {
      "inputs": [
        {
          "internalType": "address",
          "name": "newOwner",
          "type": "address"
        }
      ],
      "name": "transferOwnership",
      "outputs": [],
      "stateMutability": "nonpayable",
      "type": "function"
    },
    {
      "inputs": [],
      "name": "unpause",
      "outputs": [],
      "stateMutability": "nonpayable",
      "type": "function"
    },
    {
      "inputs": [
        {
          "internalType": "uint256",
          "name": "_newTime",
          "type": "uint256"
        }
      ],
      "name": "updateEndTime",
      "outputs": [],
      "stateMutability": "nonpayable",
      "type": "function"
    },
    {
      "inputs": [
        {
          "internalType": "uint256",
          "name": "_newTime",
          "type": "uint256"
        }
      ],
      "name": "updateHarvestTime",
      "outputs": [],
      "stateMutability": "nonpayable",
      "type": "function"
    },
    {
      "inputs": [
        {
          "internalType": "address",
          "name": "",
          "type": "address"
        }
      ],
      "name": "userInfo",
      "outputs": [
        {
          "internalType": "uint256",
          "name": "amount",
          "type": "uint256"
        },
        {
          "internalType": "bool",
          "name": "claimed",
          "type": "bool"
        }
      ],
      "stateMutability": "view",
      "type": "function"
    }
  ],
  "bytecode": "0x60806040526040518060800160405280683635c9adc5dea00000815260200168a2a15d09519be00000815260200169021e19e0c9bab2400000815260200169065a4da25d3016c00000815250600d9060046200005d929190620002c4565b503480156200006b57600080fd5b5060405162003eb338038062003eb383398181016040528101906200009191906200036d565b6001600081905550620000b9620000ad620001f660201b60201c565b620001fe60201b60201c565b6000600160146101000a81548160ff021916908315150217905550848410158015620000e457508585115b8015620000f057504286115b620000fa57600080fd5b87600260006101000a81548173ffffffffffffffffffffffffffffffffffffffff021916908373ffffffffffffffffffffffffffffffffffffffff16021790555086600360006101000a81548173ffffffffffffffffffffffffffffffffffffffff021916908373ffffffffffffffffffffffffffffffffffffffff1602179055508560048190555084600581905550836006819055508260088190555081600781905550600060098190555080600c60006101000a81548173ffffffffffffffffffffffffffffffffffffffff021916908373ffffffffffffffffffffffffffffffffffffffff1602179055505050505050505050620004e4565b600033905090565b6000600160009054906101000a900473ffffffffffffffffffffffffffffffffffffffff16905081600160006101000a81548173ffffffffffffffffffffffffffffffffffffffff021916908373ffffffffffffffffffffffffffffffffffffffff1602179055508173ffffffffffffffffffffffffffffffffffffffff168173ffffffffffffffffffffffffffffffffffffffff167f8be0079c531659141344cd1fd0a4f28419497f9722a3daafe3b4186f6b6457e060405160405180910390a35050565b8260048101928215620002f6579160200282015b82811115620002f5578251825591602001919060010190620002d8565b5b50905062000305919062000309565b5090565b5b80821115620003245760008160009055506001016200030a565b5090565b600081519050620003398162000496565b92915050565b6000815190506200035081620004b0565b92915050565b6000815190506200036781620004ca565b92915050565b600080600080600080600080610100898b0312156200038b57600080fd5b60006200039b8b828c0162000328565b9850506020620003ae8b828c0162000328565b9750506040620003c18b828c0162000356565b9650506060620003d48b828c0162000356565b9550506080620003e78b828c0162000356565b94505060a0620003fa8b828c0162000356565b93505060c06200040d8b828c0162000356565b92505060e0620004208b828c016200033f565b9150509295985092959890939650565b60006200043d826200046c565b9050919050565b6000620004518262000430565b9050919050565b6000620004658262000430565b9050919050565b600073ffffffffffffffffffffffffffffffffffffffff82169050919050565b6000819050919050565b620004a18162000444565b8114620004ad57600080fd5b50565b620004bb8162000458565b8114620004c757600080fd5b50565b620004d5816200048c565b8114620004e157600080fd5b50565b6139bf80620004f46000396000f3fe6080604052600436106101e35760003560e01c806378e9792511610102578063b781360711610095578063f2fde38b11610064578063f2fde38b146106b5578063f4808210146106de578063f8caa7e514610709578063fc00358e14610734576101e3565b8063b7813607146105e5578063b810fb4314610610578063b920ade21461064d578063e1af9a951461068a576101e3565b80639c0a7669116100d15780639c0a76691461054a578063a482171914610575578063ac3ff912146105a0578063b6b55f25146105c9576101e3565b806378e97925146104a05780638456cb59146104cb57806387e97bc6146104e25780638da5cb5b1461051f576101e3565b80634641257d1161017a57806364ce9fff1161014957806364ce9fff146103fa5780636ab3846b14610437578063715018a61461046057806376ea6ee014610477576101e3565b80634641257d1461035f5780635a9b0b89146103765780635c975abb146103a65780636382d9ad146103d1576101e3565b80632f5105f8116101b65780632f5105f8146102b75780633197cbb6146102f45780633f4ba83a1461031f5780634225c32f14610336576101e3565b80630a2642bf146101e85780631959a002146102255780631a39d8ef1461026357806327d1b1a21461028e575b600080fd5b3480156101f457600080fd5b5061020f600480360381019061020a91906129b5565b61075f565b60405161021c91906131d0565b60405180910390f35b34801561023157600080fd5b5061024c600480360381019061024791906128e6565b61077a565b60405161025a9291906131eb565b60405180910390f35b34801561026f57600080fd5b506102786107ab565b60405161028591906131d0565b60405180910390f35b34801561029a57600080fd5b506102b560048036038101906102b091906129b5565b6107b1565b005b3480156102c357600080fd5b506102de60048036038101906102d991906128e6565b61087b565b6040516102eb91906131d0565b60405180910390f35b34801561030057600080fd5b50610309610930565b60405161031691906131d0565b60405180910390f35b34801561032b57600080fd5b50610334610936565b005b34801561034257600080fd5b5061035d600480360381019061035891906129b5565b6109bc565b005b34801561036b57600080fd5b50610374610a86565b005b34801561038257600080fd5b5061038b610e51565b60405161039d96959493929190613161565b60405180910390f35b3480156103b257600080fd5b506103bb610ee9565b6040516103c89190612eae565b60405180910390f35b3480156103dd57600080fd5b506103f860048036038101906103f3919061290f565b610f00565b005b34801561040657600080fd5b50610421600480360381019061041c91906128e6565b6110b5565b60405161042e9190612eae565b60405180910390f35b34801561044357600080fd5b5061045e600480360381019061045991906129b5565b61110e565b005b34801561046c57600080fd5b506104756111e3565b005b34801561048357600080fd5b5061049e600480360381019061049991906129b5565b61126b565b005b3480156104ac57600080fd5b506104b5611340565b6040516104c291906131d0565b60405180910390f35b3480156104d757600080fd5b506104e0611346565b005b3480156104ee57600080fd5b50610509600480360381019061050491906128e6565b6113cc565b60405161051691906131d0565b60405180910390f35b34801561052b57600080fd5b50610534611491565b6040516105419190612e33565b60405180910390f35b34801561055657600080fd5b5061055f6114bb565b60405161056c91906131d0565b60405180910390f35b34801561058157600080fd5b5061058a6114c1565b6040516105979190612ec9565b60405180910390f35b3480156105ac57600080fd5b506105c760048036038101906105c291906128e6565b6114e7565b005b6105e360048036038101906105de91906129b5565b6116c4565b005b3480156105f157600080fd5b506105fa611bb2565b6040516106079190612ec9565b60405180910390f35b34801561061c57600080fd5b50610637600480360381019061063291906129b5565b611bd8565b6040516106449190612e33565b60405180910390f35b34801561065957600080fd5b50610674600480360381019061066f91906128e6565b611c17565b60405161068191906131d0565b60405180910390f35b34801561069657600080fd5b5061069f611c91565b6040516106ac91906131d0565b60405180910390f35b3480156106c157600080fd5b506106dc60048036038101906106d791906128e6565b611c97565b005b3480156106ea57600080fd5b506106f3611d8f565b60405161070091906131d0565b60405180910390f35b34801561071557600080fd5b5061071e611d95565b60405161072b9190612ee4565b60405180910390f35b34801561074057600080fd5b50610749611dbb565b60405161075691906131d0565b60405180910390f35b600d816004811061076f57600080fd5b016000915090505481565b600a6020528060005260406000206000915090508060000154908060010160009054906101000a900460ff16905082565b60095481565b6107b9611dc8565b73ffffffffffffffffffffffffffffffffffffffff166107d7611491565b73ffffffffffffffffffffffffffffffffffffffff161461082d576040517f08c379a000000000000000000000000000000000000000000000000000000000815260040161082490613081565b60405180910390fd5b6004544210610871576040517f08c379a000000000000000000000000000000000000000000000000000000000815260040161086890613021565b60405180910390fd5b8060088190555050565b600060075460095411610891576000905061092b565b600061089c83611c17565b905060006108cf670de0b6b3a76400006108c184600754611dd090919063ffffffff16565b611de690919063ffffffff16565b905061092681600a60008773ffffffffffffffffffffffffffffffffffffffff1673ffffffffffffffffffffffffffffffffffffffff16815260200190815260200160002060000154611dfc90919063ffffffff16565b925050505b919050565b60055481565b61093e611dc8565b73ffffffffffffffffffffffffffffffffffffffff1661095c611491565b73ffffffffffffffffffffffffffffffffffffffff16146109b2576040517f08c379a00000000000000000000000000000000000000000000000000000000081526004016109a990613081565b60405180910390fd5b6109ba611e12565b565b6109c4611dc8565b73ffffffffffffffffffffffffffffffffffffffff166109e2611491565b73ffffffffffffffffffffffffffffffffffffffff1614610a38576040517f08c379a0000000000000000000000000000000000000000000000000000000008152600401610a2f90613081565b60405180910390fd5b6004544210610a7c576040517f08c379a0000000000000000000000000000000000000000000000000000000008152600401610a7390613021565b60405180910390fd5b8060078190555050565b60026000541415610acc576040517f08c379a0000000000000000000000000000000000000000000000000000000008152600401610ac390613121565b60405180910390fd5b60026000819055506006544211610b18576040517f08c379a0000000000000000000000000000000000000000000000000000000008152600401610b0f906130a1565b60405180910390fd5b6000600a60003373ffffffffffffffffffffffffffffffffffffffff1673ffffffffffffffffffffffffffffffffffffffff1681526020019081526020016000206000015411610b9d576040517f08c379a0000000000000000000000000000000000000000000000000000000008152600401610b9490613061565b60405180910390fd5b600a60003373ffffffffffffffffffffffffffffffffffffffff1673ffffffffffffffffffffffffffffffffffffffff16815260200190815260200160002060010160009054906101000a900460ff1615610c2d576040517f08c379a0000000000000000000000000000000000000000000000000000000008152600401610c2490613141565b60405180910390fd5b610c35610ee9565b15610c75576040517f08c379a0000000000000000000000000000000000000000000000000000000008152600401610c6c90612fe1565b60405180910390fd5b6000610c80336113cc565b90506000610c8d3361087b565b9050610cdc3383600360009054906101000a900473ffffffffffffffffffffffffffffffffffffffff1673ffffffffffffffffffffffffffffffffffffffff16611eb49092919063ffffffff16565b6000811115610d9a57600073ffffffffffffffffffffffffffffffffffffffff16600260009054906101000a900473ffffffffffffffffffffffffffffffffffffffff1673ffffffffffffffffffffffffffffffffffffffff161415610d4b57610d463382611f3a565b610d99565b610d983382600260009054906101000a900473ffffffffffffffffffffffffffffffffffffffff1673ffffffffffffffffffffffffffffffffffffffff16611eb49092919063ffffffff16565b5b5b6001600a60003373ffffffffffffffffffffffffffffffffffffffff1673ffffffffffffffffffffffffffffffffffffffff16815260200190815260200160002060010160006101000a81548160ff0219169083151502179055503373ffffffffffffffffffffffffffffffffffffffff167f71bab65ced2e5750775a0613be067df48ef06cf92a496ebf7663ae06609249548383604051610e3d929190613214565b60405180910390a250506001600081905550565b610e596127c2565b610e616127c2565b6000806000806000610e94600260009054906101000a900473ffffffffffffffffffffffffffffffffffffffff16612060565b90506000610ec3600360009054906101000a900473ffffffffffffffffffffffffffffffffffffffff16612060565b905081816004546005546008546007549750975097509750975097505050909192939495565b6000600160149054906101000a900460ff16905090565b610f08611dc8565b73ffffffffffffffffffffffffffffffffffffffff16610f26611491565b73ffffffffffffffffffffffffffffffffffffffff1614610f7c576040517f08c379a0000000000000000000000000000000000000000000000000000000008152600401610f7390613081565b60405180910390fd5b600073ffffffffffffffffffffffffffffffffffffffff168273ffffffffffffffffffffffffffffffffffffffff161415610ffd578073ffffffffffffffffffffffffffffffffffffffff166108fc479081150290604051600060405180830381858888f19350505050158015610ff7573d6000803e3d6000fd5b506110b1565b6110b0818373ffffffffffffffffffffffffffffffffffffffff166370a08231306040518263ffffffff1660e01b815260040161103a9190612e33565b60206040518083038186803b15801561105257600080fd5b505afa158015611066573d6000803e3d6000fd5b505050506040513d601f19601f8201168201806040525081019061108a91906129de565b8473ffffffffffffffffffffffffffffffffffffffff16611eb49092919063ffffffff16565b5b5050565b6000600a60008373ffffffffffffffffffffffffffffffffffffffff1673ffffffffffffffffffffffffffffffffffffffff16815260200190815260200160002060010160009054906101000a900460ff169050919050565b611116611dc8565b73ffffffffffffffffffffffffffffffffffffffff16611134611491565b73ffffffffffffffffffffffffffffffffffffffff161461118a576040517f08c379a000000000000000000000000000000000000000000000000000000000815260040161118190613081565b60405180910390fd5b428111801561119a575060065481105b6111d9576040517f08c379a00000000000000000000000000000000000000000000000000000000081526004016111d090612fa1565b60405180910390fd5b8060058190555050565b6111eb611dc8565b73ffffffffffffffffffffffffffffffffffffffff16611209611491565b73ffffffffffffffffffffffffffffffffffffffff161461125f576040517f08c379a000000000000000000000000000000000000000000000000000000000815260040161125690613081565b60405180910390fd5b611269600061222a565b565b611273611dc8565b73ffffffffffffffffffffffffffffffffffffffff16611291611491565b73ffffffffffffffffffffffffffffffffffffffff16146112e7576040517f08c379a00000000000000000000000000000000000000000000000000000000081526004016112de90613081565b60405180910390fd5b42811180156112f7575060055481115b611336576040517f08c379a000000000000000000000000000000000000000000000000000000000815260040161132d90612fa1565b60405180910390fd5b8060068190555050565b60045481565b61134e611dc8565b73ffffffffffffffffffffffffffffffffffffffff1661136c611491565b73ffffffffffffffffffffffffffffffffffffffff16146113c2576040517f08c379a00000000000000000000000000000000000000000000000000000000081526004016113b990613081565b60405180910390fd5b6113ca6122f0565b565b6000600754600954111561141e5760006113e583611c17565b9050611416670de0b6b3a764000061140883600854611dd090919063ffffffff16565b611de690919063ffffffff16565b91505061148c565b61148960075461147b600854600a60008773ffffffffffffffffffffffffffffffffffffffff1673ffffffffffffffffffffffffffffffffffffffff16815260200190815260200160002060000154611dd090919063ffffffff16565b611de690919063ffffffff16565b90505b919050565b6000600160009054906101000a900473ffffffffffffffffffffffffffffffffffffffff16905090565b60075481565b600260009054906101000a900473ffffffffffffffffffffffffffffffffffffffff1681565b6114ef611dc8565b73ffffffffffffffffffffffffffffffffffffffff1661150d611491565b73ffffffffffffffffffffffffffffffffffffffff1614611563576040517f08c379a000000000000000000000000000000000000000000000000000000000815260040161155a90613081565b60405180910390fd5b600073ffffffffffffffffffffffffffffffffffffffff16600260009054906101000a900473ffffffffffffffffffffffffffffffffffffffff1673ffffffffffffffffffffffffffffffffffffffff1614156115c9576115c48147611f3a565b6116c1565b6116c081600260009054906101000a900473ffffffffffffffffffffffffffffffffffffffff1673ffffffffffffffffffffffffffffffffffffffff166370a08231306040518263ffffffff1660e01b81526004016116289190612e33565b60206040518083038186803b15801561164057600080fd5b505afa158015611654573d6000803e3d6000fd5b505050506040513d601f19601f8201168201806040525081019061167891906129de565b600260009054906101000a900473ffffffffffffffffffffffffffffffffffffffff1673ffffffffffffffffffffffffffffffffffffffff16611eb49092919063ffffffff16565b5b50565b6002600054141561170a576040517f08c379a000000000000000000000000000000000000000000000000000000000815260040161170190613121565b60405180910390fd5b60026000819055508060045442118015611725575060055442105b611764576040517f08c379a000000000000000000000000000000000000000000000000000000000815260040161175b90612f81565b60405180910390fd5b600081116117a7576040517f08c379a000000000000000000000000000000000000000000000000000000000815260040161179e90612f21565b60405180910390fd5b6117af610ee9565b156117ef576040517f08c379a00000000000000000000000000000000000000000000000000000000081526004016117e690612fe1565b60405180910390fd5b60006117fa33612392565b9050600a60003373ffffffffffffffffffffffffffffffffffffffff1673ffffffffffffffffffffffffffffffffffffffff168152602001908152602001600020600001548111611880576040517f08c379a000000000000000000000000000000000000000000000000000000000815260040161187790613001565b60405180910390fd5b6000600a60003373ffffffffffffffffffffffffffffffffffffffff1673ffffffffffffffffffffffffffffffffffffffff16815260200190815260200160002060000154826118d091906133b7565b90506000849050848210156118e3578190505b600073ffffffffffffffffffffffffffffffffffffffff16600260009054906101000a900473ffffffffffffffffffffffffffffffffffffffff1673ffffffffffffffffffffffffffffffffffffffff1614156119a0578034101561197d576040517f08c379a000000000000000000000000000000000000000000000000000000000815260040161197490613041565b60405180910390fd5b8034111561199b5761199a33823461199591906133b7565b611f3a565b5b6119f0565b6119ef333083600260009054906101000a900473ffffffffffffffffffffffffffffffffffffffff1673ffffffffffffffffffffffffffffffffffffffff166124a6909392919063ffffffff16565b5b6000600a60003373ffffffffffffffffffffffffffffffffffffffff1673ffffffffffffffffffffffffffffffffffffffff168152602001908152602001600020600001541415611a9f57600b339080600181540180825580915050600190039060005260206000200160009091909190916101000a81548173ffffffffffffffffffffffffffffffffffffffff021916908373ffffffffffffffffffffffffffffffffffffffff1602179055505b611af481600a60003373ffffffffffffffffffffffffffffffffffffffff1673ffffffffffffffffffffffffffffffffffffffff1681526020019081526020016000206000015461252f90919063ffffffff16565b600a60003373ffffffffffffffffffffffffffffffffffffffff1673ffffffffffffffffffffffffffffffffffffffff16815260200190815260200160002060000181905550611b4f8160095461252f90919063ffffffff16565b6009819055503373ffffffffffffffffffffffffffffffffffffffff167fe1fffcc4923d04b559f4d29a8bfc6cda04eb5b0d3c460751c2402c5c5cc9109c82604051611b9b91906131d0565b60405180910390a250505050600160008190555050565b600360009054906101000a900473ffffffffffffffffffffffffffffffffffffffff1681565b600b8181548110611be857600080fd5b906000526020600020016000915054906101000a900473ffffffffffffffffffffffffffffffffffffffff1681565b6000611c8a600954611c7c670de0b6b3a7640000600a60008773ffffffffffffffffffffffffffffffffffffffff1673ffffffffffffffffffffffffffffffffffffffff16815260200190815260200160002060000154611dd090919063ffffffff16565b611de690919063ffffffff16565b9050919050565b60085481565b611c9f611dc8565b73ffffffffffffffffffffffffffffffffffffffff16611cbd611491565b73ffffffffffffffffffffffffffffffffffffffff1614611d13576040517f08c379a0000000000000000000000000000000000000000000000000000000008152600401611d0a90613081565b60405180910390fd5b600073ffffffffffffffffffffffffffffffffffffffff168173ffffffffffffffffffffffffffffffffffffffff161415611d83576040517f08c379a0000000000000000000000000000000000000000000000000000000008152600401611d7a90612f61565b60405180910390fd5b611d8c8161222a565b50565b60065481565b600c60009054906101000a900473ffffffffffffffffffffffffffffffffffffffff1681565b6000600b80549050905090565b600033905090565b60008183611dde919061335d565b905092915050565b60008183611df4919061332c565b905092915050565b60008183611e0a91906133b7565b905092915050565b611e1a610ee9565b611e59576040517f08c379a0000000000000000000000000000000000000000000000000000000008152600401611e5090612f41565b60405180910390fd5b6000600160146101000a81548160ff0219169083151502179055507f5db9ee0a495bf2e6ff9c91a7834c1ba4fdd244a5e8aa4e537bd38aeae4b073aa611e9d611dc8565b604051611eaa9190612e33565b60405180910390a1565b611f358363a9059cbb60e01b8484604051602401611ed3929190612e85565b604051602081830303815290604052907bffffffffffffffffffffffffffffffffffffffffffffffffffffffff19166020820180517bffffffffffffffffffffffffffffffffffffffffffffffffffffffff8381831617835250505050612545565b505050565b60008273ffffffffffffffffffffffffffffffffffffffff1682600067ffffffffffffffff811115611f95577f4e487b7100000000000000000000000000000000000000000000000000000000600052604160045260246000fd5b6040519080825280601f01601f191660200182016040528015611fc75781602001600182028036833780820191505090505b50604051611fd59190612e1c565b60006040518083038185875af1925050503d8060008114612012576040519150601f19603f3d011682016040523d82523d6000602084013e612017565b606091505b505090508061205b576040517f08c379a0000000000000000000000000000000000000000000000000000000008152600401612052906130e1565b60405180910390fd5b505050565b6120686127c2565b60405180608001604052808373ffffffffffffffffffffffffffffffffffffffff1681526020018373ffffffffffffffffffffffffffffffffffffffff1663313ce5676040518163ffffffff1660e01b815260040160206040518083038186803b1580156120d557600080fd5b505afa1580156120e9573d6000803e3d6000fd5b505050506040513d601f19601f8201168201806040525081019061210d9190612a07565b60ff1681526020018373ffffffffffffffffffffffffffffffffffffffff166306fdde036040518163ffffffff1660e01b815260040160006040518083038186803b15801561215b57600080fd5b505afa15801561216f573d6000803e3d6000fd5b505050506040513d6000823e3d601f19601f820116820180604052508101906121989190612974565b81526020018373ffffffffffffffffffffffffffffffffffffffff166395d89b416040518163ffffffff1660e01b815260040160006040518083038186803b1580156121e357600080fd5b505afa1580156121f7573d6000803e3d6000fd5b505050506040513d6000823e3d601f19601f820116820180604052508101906122209190612974565b8152509050919050565b6000600160009054906101000a900473ffffffffffffffffffffffffffffffffffffffff16905081600160006101000a81548173ffffffffffffffffffffffffffffffffffffffff021916908373ffffffffffffffffffffffffffffffffffffffff1602179055508173ffffffffffffffffffffffffffffffffffffffff168173ffffffffffffffffffffffffffffffffffffffff167f8be0079c531659141344cd1fd0a4f28419497f9722a3daafe3b4186f6b6457e060405160405180910390a35050565b6122f8610ee9565b15612338576040517f08c379a000000000000000000000000000000000000000000000000000000000815260040161232f90612fe1565b60405180910390fd5b60018060146101000a81548160ff0219169083151502179055507f62e78cea01bee320cd4e420270b5ea74000d11b0c9f74754ebdbfc544b05a25861237b611dc8565b6040516123889190612e33565b60405180910390a1565b600080600c60009054906101000a900473ffffffffffffffffffffffffffffffffffffffff1673ffffffffffffffffffffffffffffffffffffffff1663b45aae52846040518263ffffffff1660e01b81526004016123f09190612e33565b60206040518083038186803b15801561240857600080fd5b505afa15801561241c573d6000803e3d6000fd5b505050506040513d601f19601f8201168201806040525081019061244091906129de565b905060008114156124555760009150506124a1565b600d60018261246491906133b7565b6004811061249b577f4e487b7100000000000000000000000000000000000000000000000000000000600052603260045260246000fd5b01549150505b919050565b612529846323b872dd60e01b8585856040516024016124c793929190612e4e565b604051602081830303815290604052907bffffffffffffffffffffffffffffffffffffffffffffffffffffffff19166020820180517bffffffffffffffffffffffffffffffffffffffffffffffffffffffff8381831617835250505050612545565b50505050565b6000818361253d91906132d6565b905092915050565b60006125a7826040518060400160405280602081526020017f5361666545524332303a206c6f772d6c6576656c2063616c6c206661696c65648152508573ffffffffffffffffffffffffffffffffffffffff1661260c9092919063ffffffff16565b905060008151111561260757808060200190518101906125c7919061294b565b612606576040517f08c379a00000000000000000000000000000000000000000000000000000000081526004016125fd90613101565b60405180910390fd5b5b505050565b606061261b8484600085612624565b90509392505050565b606082471015612669576040517f08c379a000000000000000000000000000000000000000000000000000000000815260040161266090612fc1565b60405180910390fd5b61267285612738565b6126b1576040517f08c379a00000000000000000000000000000000000000000000000000000000081526004016126a8906130c1565b60405180910390fd5b6000808673ffffffffffffffffffffffffffffffffffffffff1685876040516126da9190612e1c565b60006040518083038185875af1925050503d8060008114612717576040519150601f19603f3d011682016040523d82523d6000602084013e61271c565b606091505b509150915061272c82828661275b565b92505050949350505050565b6000808273ffffffffffffffffffffffffffffffffffffffff163b119050919050565b6060831561276b578290506127bb565b60008351111561277e5782518084602001fd5b816040517f08c379a00000000000000000000000000000000000000000000000000000000081526004016127b29190612eff565b60405180910390fd5b9392505050565b6040518060800160405280600073ffffffffffffffffffffffffffffffffffffffff1681526020016000815260200160608152602001606081525090565b600061281361280e84613262565b61323d565b90508281526020810184848401111561282b57600080fd5b61283684828561349a565b509392505050565b60008135905061284d81613916565b92915050565b6000813590506128628161392d565b92915050565b60008151905061287781613944565b92915050565b600082601f83011261288e57600080fd5b815161289e848260208601612800565b91505092915050565b6000813590506128b68161395b565b92915050565b6000815190506128cb8161395b565b92915050565b6000815190506128e081613972565b92915050565b6000602082840312156128f857600080fd5b60006129068482850161283e565b91505092915050565b6000806040838503121561292257600080fd5b60006129308582860161283e565b925050602061294185828601612853565b9150509250929050565b60006020828403121561295d57600080fd5b600061296b84828501612868565b91505092915050565b60006020828403121561298657600080fd5b600082015167ffffffffffffffff8111156129a057600080fd5b6129ac8482850161287d565b91505092915050565b6000602082840312156129c757600080fd5b60006129d5848285016128a7565b91505092915050565b6000602082840312156129f057600080fd5b60006129fe848285016128bc565b91505092915050565b600060208284031215612a1957600080fd5b6000612a27848285016128d1565b91505092915050565b612a39816133eb565b82525050565b612a488161340f565b82525050565b6000612a5982613293565b612a6381856132a9565b9350612a7381856020860161349a565b80840191505092915050565b612a8881613452565b82525050565b612a9781613452565b82525050565b612aa681613476565b82525050565b6000612ab78261329e565b612ac181856132b4565b9350612ad181856020860161349a565b612ada8161358b565b840191505092915050565b6000612af08261329e565b612afa81856132c5565b9350612b0a81856020860161349a565b612b138161358b565b840191505092915050565b6000612b2b6010836132c5565b9150612b368261359c565b602082019050919050565b6000612b4e6014836132c5565b9150612b59826135c5565b602082019050919050565b6000612b716026836132c5565b9150612b7c826135ee565b604082019050919050565b6000612b946010836132c5565b9150612b9f8261363d565b602082019050919050565b6000612bb7600e836132c5565b9150612bc282613666565b602082019050919050565b6000612bda6026836132c5565b9150612be58261368f565b604082019050919050565b6000612bfd6010836132c5565b9150612c08826136de565b602082019050919050565b6000612c206015836132c5565b9150612c2b82613707565b602082019050919050565b6000612c436002836132c5565b9150612c4e82613730565b602082019050919050565b6000612c666011836132c5565b9150612c7182613759565b602082019050919050565b6000612c896016836132c5565b9150612c9482613782565b602082019050919050565b6000612cac6020836132c5565b9150612cb7826137ab565b602082019050919050565b6000612ccf6010836132c5565b9150612cda826137d4565b602082019050919050565b6000612cf2601d836132c5565b9150612cfd826137fd565b602082019050919050565b6000612d156023836132c5565b9150612d2082613826565b604082019050919050565b6000612d38602a836132c5565b9150612d4382613875565b604082019050919050565b6000612d5b601f836132c5565b9150612d66826138c4565b602082019050919050565b6000612d7e6012836132c5565b9150612d89826138ed565b602082019050919050565b6000608083016000830151612dac6000860182612a7f565b506020830151612dbf6020860182612dfe565b5060408301518482036040860152612dd78282612aac565b91505060608301518482036060860152612df18282612aac565b9150508091505092915050565b612e078161343b565b82525050565b612e168161343b565b82525050565b6000612e288284612a4e565b915081905092915050565b6000602082019050612e486000830184612a30565b92915050565b6000606082019050612e636000830186612a30565b612e706020830185612a30565b612e7d6040830184612e0d565b949350505050565b6000604082019050612e9a6000830185612a30565b612ea76020830184612e0d565b9392505050565b6000602082019050612ec36000830184612a3f565b92915050565b6000602082019050612ede6000830184612a8e565b92915050565b6000602082019050612ef96000830184612a9d565b92915050565b60006020820190508181036000830152612f198184612ae5565b905092915050565b60006020820190508181036000830152612f3a81612b1e565b9050919050565b60006020820190508181036000830152612f5a81612b41565b9050919050565b60006020820190508181036000830152612f7a81612b64565b9050919050565b60006020820190508181036000830152612f9a81612b87565b9050919050565b60006020820190508181036000830152612fba81612baa565b9050919050565b60006020820190508181036000830152612fda81612bcd565b9050919050565b60006020820190508181036000830152612ffa81612bf0565b9050919050565b6000602082019050818103600083015261301a81612c13565b9050919050565b6000602082019050818103600083015261303a81612c36565b9050919050565b6000602082019050818103600083015261305a81612c59565b9050919050565b6000602082019050818103600083015261307a81612c7c565b9050919050565b6000602082019050818103600083015261309a81612c9f565b9050919050565b600060208201905081810360008301526130ba81612cc2565b9050919050565b600060208201905081810360008301526130da81612ce5565b9050919050565b600060208201905081810360008301526130fa81612d08565b9050919050565b6000602082019050818103600083015261311a81612d2b565b9050919050565b6000602082019050818103600083015261313a81612d4e565b9050919050565b6000602082019050818103600083015261315a81612d71565b9050919050565b600060c082019050818103600083015261317b8189612d94565b9050818103602083015261318f8188612d94565b905061319e6040830187612e0d565b6131ab6060830186612e0d565b6131b86080830185612e0d565b6131c560a0830184612e0d565b979650505050505050565b60006020820190506131e56000830184612e0d565b92915050565b60006040820190506132006000830185612e0d565b61320d6020830184612a3f565b9392505050565b60006040820190506132296000830185612e0d565b6132366020830184612e0d565b9392505050565b6000613247613258565b905061325382826134cd565b919050565b6000604051905090565b600067ffffffffffffffff82111561327d5761327c61355c565b5b6132868261358b565b9050602081019050919050565b600081519050919050565b600081519050919050565b600081905092915050565b600082825260208201905092915050565b600082825260208201905092915050565b60006132e18261343b565b91506132ec8361343b565b9250827fffffffffffffffffffffffffffffffffffffffffffffffffffffffffffffffff03821115613321576133206134fe565b5b828201905092915050565b60006133378261343b565b91506133428361343b565b9250826133525761335161352d565b5b828204905092915050565b60006133688261343b565b91506133738361343b565b9250817fffffffffffffffffffffffffffffffffffffffffffffffffffffffffffffffff04831182151516156133ac576133ab6134fe565b5b828202905092915050565b60006133c28261343b565b91506133cd8361343b565b9250828210156133e0576133df6134fe565b5b828203905092915050565b60006133f68261341b565b9050919050565b60006134088261341b565b9050919050565b60008115159050919050565b600073ffffffffffffffffffffffffffffffffffffffff82169050919050565b6000819050919050565b600060ff82169050919050565b600061345d82613464565b9050919050565b600061346f8261341b565b9050919050565b600061348182613488565b9050919050565b60006134938261341b565b9050919050565b60005b838110156134b857808201518184015260208101905061349d565b838111156134c7576000848401525b50505050565b6134d68261358b565b810181811067ffffffffffffffff821117156134f5576134f461355c565b5b80604052505050565b7f4e487b7100000000000000000000000000000000000000000000000000000000600052601160045260246000fd5b7f4e487b7100000000000000000000000000000000000000000000000000000000600052601260045260246000fd5b7f4e487b7100000000000000000000000000000000000000000000000000000000600052604160045260246000fd5b6000601f19601f8301169050919050565b7f6e656564205f616d6f756e74203e203000000000000000000000000000000000600082015250565b7f5061757361626c653a206e6f7420706175736564000000000000000000000000600082015250565b7f4f776e61626c653a206e6577206f776e657220697320746865207a65726f206160008201527f6464726573730000000000000000000000000000000000000000000000000000602082015250565b7f6e6f742072616973696e672074696d6500000000000000000000000000000000600082015250565b7f74696d6520696e76616c69642121000000000000000000000000000000000000600082015250565b7f416464726573733a20696e73756666696369656e742062616c616e636520666f60008201527f722063616c6c0000000000000000000000000000000000000000000000000000602082015250565b7f5061757361626c653a2070617573656400000000000000000000000000000000600082015250565b7f6e6f7420656c696769626c6520616d6f756e7421210000000000000000000000600082015250565b7f6e6f000000000000000000000000000000000000000000000000000000000000600082015250565b7f616d6f756e74206e6f7420656e6f756768000000000000000000000000000000600082015250565b7f6861766520796f75207061727469636970617465643f00000000000000000000600082015250565b7f4f776e61626c653a2063616c6c6572206973206e6f7420746865206f776e6572600082015250565b7f6e6f7420686172766573742074696d6500000000000000000000000000000000600082015250565b7f416464726573733a2063616c6c20746f206e6f6e2d636f6e7472616374000000600082015250565b7f5472616e7366657248656c7065723a204b41495f5452414e534645525f46414960008201527f4c45440000000000000000000000000000000000000000000000000000000000602082015250565b7f5361666545524332303a204552433230206f7065726174696f6e20646964206e60008201527f6f74207375636365656400000000000000000000000000000000000000000000602082015250565b7f5265656e7472616e637947756172643a207265656e7472616e742063616c6c00600082015250565b7f6e6f7468696e6720746f20686172766573740000000000000000000000000000600082015250565b61391f816133eb565b811461392a57600080fd5b50565b613936816133fd565b811461394157600080fd5b50565b61394d8161340f565b811461395857600080fd5b50565b6139648161343b565b811461396f57600080fd5b50565b61397b81613445565b811461398657600080fd5b5056fea26469706673582212202a29b0d05af6ebe47a73af7c9873caeb9d5a82a1d07b011ebc5042ff7c91c71a64736f6c63430008040033",
  "linkReferences": {},
  "deployedLinkReferences": {}
}