{
  "_format": "hh-sol-artifact-1",
  "contractName": "FundRaising",
  "sourceName": "contracts/launchpad/FundRaising.sol",
  "abi": [
    {
      "inputs": [
        {
          "internalType": "contract ERC20",
          "name": "_buyToken",
          "type": "address"
        },
        {
          "internalType": "contract ERC20",
          "name": "_offeringToken",
          "type": "address"
        },
        {
          "internalType": "uint256",
          "name": "_startTime",
          "type": "uint256"
        },
        {
          "internalType": "uint256",
          "name": "_endTime",
          "type": "uint256"
        },
        {
          "internalType": "uint256",
          "name": "_harvestTime",
          "type": "uint256"
        },
        {
          "internalType": "uint256",
          "name": "_offeringAmount",
          "type": "uint256"
        },
        {
          "internalType": "uint256",
          "name": "_raisingAmount",
          "type": "uint256"
        },
        {
          "internalType": "contract ITierSystem",
          "name": "_tierSystem",
          "type": "address"
        }
      ],
      "stateMutability": "nonpayable",
      "type": "constructor"
    },
    {
      "anonymous": false,
      "inputs": [
        {
          "indexed": true,
          "internalType": "address",
          "name": "user",
          "type": "address"
        },
        {
          "indexed": false,
          "internalType": "uint256",
          "name": "amount",
          "type": "uint256"
        }
      ],
      "name": "Deposit",
      "type": "event"
    },
    {
      "anonymous": false,
      "inputs": [
        {
          "indexed": true,
          "internalType": "address",
          "name": "user",
          "type": "address"
        },
        {
          "indexed": false,
          "internalType": "uint256",
          "name": "offeringAmount",
          "type": "uint256"
        },
        {
          "indexed": false,
          "internalType": "uint256",
          "name": "excessAmount",
          "type": "uint256"
        }
      ],
      "name": "Harvest",
      "type": "event"
    },
    {
      "anonymous": false,
      "inputs": [
        {
          "indexed": true,
          "internalType": "address",
          "name": "previousOwner",
          "type": "address"
        },
        {
          "indexed": true,
          "internalType": "address",
          "name": "newOwner",
          "type": "address"
        }
      ],
      "name": "OwnershipTransferred",
      "type": "event"
    },
    {
      "anonymous": false,
      "inputs": [
        {
          "indexed": false,
          "internalType": "address",
          "name": "account",
          "type": "address"
        }
      ],
      "name": "Paused",
      "type": "event"
    },
    {
      "anonymous": false,
      "inputs": [
        {
          "indexed": false,
          "internalType": "address",
          "name": "account",
          "type": "address"
        }
      ],
      "name": "Unpaused",
      "type": "event"
    },
    {
      "inputs": [
        {
          "internalType": "uint256",
          "name": "",
          "type": "uint256"
        }
      ],
      "name": "addressList",
      "outputs": [
        {
          "internalType": "address",
          "name": "",
          "type": "address"
        }
      ],
      "stateMutability": "view",
      "type": "function"
    },
    {
      "inputs": [
        {
          "internalType": "uint256",
          "name": "",
          "type": "uint256"
        }
      ],
      "name": "allocations",
      "outputs": [
        {
          "internalType": "uint256",
          "name": "",
          "type": "uint256"
        }
      ],
      "stateMutability": "view",
      "type": "function"
    },
    {
      "inputs": [],
      "name": "buyToken",
      "outputs": [
        {
          "internalType": "contract ERC20",
          "name": "",
          "type": "address"
        }
      ],
      "stateMutability": "view",
      "type": "function"
    },
    {
      "inputs": [
        {
          "internalType": "uint256",
          "name": "_amount",
          "type": "uint256"
        }
      ],
      "name": "deposit",
      "outputs": [],
      "stateMutability": "payable",
      "type": "function"
    },
    {
      "inputs": [
        {
          "internalType": "address",
          "name": "token",
          "type": "address"
        },
        {
          "internalType": "address payable",
          "name": "to",
          "type": "address"
        }
      ],
      "name": "emergencyWithdraw",
      "outputs": [],
      "stateMutability": "nonpayable",
      "type": "function"
    },
    {
      "inputs": [],
      "name": "endTime",
      "outputs": [
        {
          "internalType": "uint256",
          "name": "",
          "type": "uint256"
        }
      ],
      "stateMutability": "view",
      "type": "function"
    },
    {
      "inputs": [
        {
          "internalType": "address",
          "name": "_destination",
          "type": "address"
        }
      ],
      "name": "finalWithdraw",
      "outputs": [],
      "stateMutability": "nonpayable",
      "type": "function"
    },
    {
      "inputs": [],
      "name": "getAddressListLength",
      "outputs": [
        {
          "internalType": "uint256",
          "name": "",
          "type": "uint256"
        }
      ],
      "stateMutability": "view",
      "type": "function"
    },
    {
      "inputs": [],
      "name": "getInfo",
      "outputs": [
        {
          "components": [
            {
              "internalType": "contract ERC20",
              "name": "token",
              "type": "address"
            },
            {
              "internalType": "uint256",
              "name": "decimals",
              "type": "uint256"
            },
            {
              "internalType": "string",
              "name": "name",
              "type": "string"
            },
            {
              "internalType": "string",
              "name": "symbol",
              "type": "string"
            }
          ],
          "internalType": "struct FundRaising.TokenInfo",
          "name": "",
          "type": "tuple"
        },
        {
          "components": [
            {
              "internalType": "contract ERC20",
              "name": "token",
              "type": "address"
            },
            {
              "internalType": "uint256",
              "name": "decimals",
              "type": "uint256"
            },
            {
              "internalType": "string",
              "name": "name",
              "type": "string"
            },
            {
              "internalType": "string",
              "name": "symbol",
              "type": "string"
            }
          ],
          "internalType": "struct FundRaising.TokenInfo",
          "name": "",
          "type": "tuple"
        },
        {
          "internalType": "uint256",
          "name": "",
          "type": "uint256"
        },
        {
          "internalType": "uint256",
          "name": "",
          "type": "uint256"
        },
        {
          "internalType": "uint256",
          "name": "",
          "type": "uint256"
        },
        {
          "internalType": "uint256",
          "name": "",
          "type": "uint256"
        },
        {
          "internalType": "uint256",
          "name": "",
          "type": "uint256"
        }
      ],
      "stateMutability": "view",
      "type": "function"
    },
    {
      "inputs": [
        {
          "internalType": "address",
          "name": "_user",
          "type": "address"
        }
      ],
      "name": "getOfferingAmount",
      "outputs": [
        {
          "internalType": "uint256",
          "name": "",
          "type": "uint256"
        }
      ],
      "stateMutability": "view",
      "type": "function"
    },
    {
      "inputs": [
        {
          "internalType": "address",
          "name": "_user",
          "type": "address"
        }
      ],
      "name": "getRefundingAmount",
      "outputs": [
        {
          "internalType": "uint256",
          "name": "",
          "type": "uint256"
        }
      ],
      "stateMutability": "view",
      "type": "function"
    },
    {
      "inputs": [
        {
          "internalType": "address",
          "name": "_user",
          "type": "address"
        }
      ],
      "name": "getUserAllocation",
      "outputs": [
        {
          "internalType": "uint256",
          "name": "",
          "type": "uint256"
        }
      ],
      "stateMutability": "view",
      "type": "function"
    },
    {
      "inputs": [],
      "name": "harvest",
      "outputs": [],
      "stateMutability": "nonpayable",
      "type": "function"
    },
    {
      "inputs": [],
      "name": "harvestTime",
      "outputs": [
        {
          "internalType": "uint256",
          "name": "",
          "type": "uint256"
        }
      ],
      "stateMutability": "view",
      "type": "function"
    },
    {
      "inputs": [
        {
          "internalType": "address",
          "name": "_user",
          "type": "address"
        }
      ],
      "name": "hasHarvest",
      "outputs": [
        {
          "internalType": "bool",
          "name": "",
          "type": "bool"
        }
      ],
      "stateMutability": "view",
      "type": "function"
    },
    {
      "inputs": [],
      "name": "offeringAmount",
      "outputs": [
        {
          "internalType": "uint256",
          "name": "",
          "type": "uint256"
        }
      ],
      "stateMutability": "view",
      "type": "function"
    },
    {
      "inputs": [],
      "name": "offeringToken",
      "outputs": [
        {
          "internalType": "contract ERC20",
          "name": "",
          "type": "address"
        }
      ],
      "stateMutability": "view",
      "type": "function"
    },
    {
      "inputs": [],
      "name": "owner",
      "outputs": [
        {
          "internalType": "address",
          "name": "",
          "type": "address"
        }
      ],
      "stateMutability": "view",
      "type": "function"
    },
    {
      "inputs": [],
      "name": "pause",
      "outputs": [],
      "stateMutability": "nonpayable",
      "type": "function"
    },
    {
      "inputs": [],
      "name": "paused",
      "outputs": [
        {
          "internalType": "bool",
          "name": "",
          "type": "bool"
        }
      ],
      "stateMutability": "view",
      "type": "function"
    },
    {
      "inputs": [],
      "name": "raisingAmount",
      "outputs": [
        {
          "internalType": "uint256",
          "name": "",
          "type": "uint256"
        }
      ],
      "stateMutability": "view",
      "type": "function"
    },
    {
      "inputs": [],
      "name": "renounceOwnership",
      "outputs": [],
      "stateMutability": "nonpayable",
      "type": "function"
    },
    {
      "inputs": [
        {
          "internalType": "uint256",
          "name": "_offerAmount",
          "type": "uint256"
        }
      ],
      "name": "setOfferingAmount",
      "outputs": [],
      "stateMutability": "nonpayable",
      "type": "function"
    },
    {
      "inputs": [
        {
          "internalType": "uint256",
          "name": "_raisingAmount",
          "type": "uint256"
        }
      ],
      "name": "setRaisingAmount",
      "outputs": [],
      "stateMutability": "nonpayable",
      "type": "function"
    },
    {
      "inputs": [
        {
          "internalType": "uint256[]",
          "name": "_snapshotIds",
          "type": "uint256[]"
        }
      ],
      "name": "setSnapshotIds",
      "outputs": [],
      "stateMutability": "nonpayable",
      "type": "function"
    },
    {
      "inputs": [
        {
          "internalType": "uint256",
          "name": "",
          "type": "uint256"
        }
      ],
      "name": "snapshotIds",
      "outputs": [
        {
          "internalType": "uint256",
          "name": "",
          "type": "uint256"
        }
      ],
      "stateMutability": "view",
      "type": "function"
    },
    {
      "inputs": [],
      "name": "startTime",
      "outputs": [
        {
          "internalType": "uint256",
          "name": "",
          "type": "uint256"
        }
      ],
      "stateMutability": "view",
      "type": "function"
    },
    {
      "inputs": [],
      "name": "tierSystem",
      "outputs": [
        {
          "internalType": "contract ITierSystem",
          "name": "",
          "type": "address"
        }
      ],
      "stateMutability": "view",
      "type": "function"
    },
    {
      "inputs": [],
      "name": "totalAmount",
      "outputs": [
        {
          "internalType": "uint256",
          "name": "",
          "type": "uint256"
        }
      ],
      "stateMutability": "view",
      "type": "function"
    },
    {
      "inputs": [
        {
          "internalType": "address",
          "name": "newOwner",
          "type": "address"
        }
      ],
      "name": "transferOwnership",
      "outputs": [],
      "stateMutability": "nonpayable",
      "type": "function"
    },
    {
      "inputs": [],
      "name": "unpause",
      "outputs": [],
      "stateMutability": "nonpayable",
      "type": "function"
    },
    {
      "inputs": [
        {
          "internalType": "uint256",
          "name": "_newTime",
          "type": "uint256"
        }
      ],
      "name": "updateEndTime",
      "outputs": [],
      "stateMutability": "nonpayable",
      "type": "function"
    },
    {
      "inputs": [
        {
          "internalType": "uint256",
          "name": "_newTime",
          "type": "uint256"
        }
      ],
      "name": "updateHarvestTime",
      "outputs": [],
      "stateMutability": "nonpayable",
      "type": "function"
    },
    {
      "inputs": [
        {
          "internalType": "address",
          "name": "",
          "type": "address"
        }
      ],
      "name": "userInfo",
      "outputs": [
        {
          "internalType": "uint256",
          "name": "amount",
          "type": "uint256"
        },
        {
          "internalType": "bool",
          "name": "claimed",
          "type": "bool"
        }
      ],
      "stateMutability": "view",
      "type": "function"
    }
  ],
  "bytecode": "0x60806040526040518060800160405280683635c9adc5dea00000815260200168a2a15d09519be00000815260200169021e19e0c9bab2400000815260200169065a4da25d3016c00000815250600d9060046200005d929190620002c4565b503480156200006b57600080fd5b506040516200445b3803806200445b83398181016040528101906200009191906200036d565b6001600081905550620000b9620000ad620001f660201b60201c565b620001fe60201b60201c565b6000600160146101000a81548160ff021916908315150217905550848410158015620000e457508585115b8015620000f057504286115b620000fa57600080fd5b87600260006101000a81548173ffffffffffffffffffffffffffffffffffffffff021916908373ffffffffffffffffffffffffffffffffffffffff16021790555086600360006101000a81548173ffffffffffffffffffffffffffffffffffffffff021916908373ffffffffffffffffffffffffffffffffffffffff1602179055508560048190555084600581905550836006819055508260088190555081600781905550600060098190555080600c60006101000a81548173ffffffffffffffffffffffffffffffffffffffff021916908373ffffffffffffffffffffffffffffffffffffffff1602179055505050505050505050620004e4565b600033905090565b6000600160009054906101000a900473ffffffffffffffffffffffffffffffffffffffff16905081600160006101000a81548173ffffffffffffffffffffffffffffffffffffffff021916908373ffffffffffffffffffffffffffffffffffffffff1602179055508173ffffffffffffffffffffffffffffffffffffffff168173ffffffffffffffffffffffffffffffffffffffff167f8be0079c531659141344cd1fd0a4f28419497f9722a3daafe3b4186f6b6457e060405160405180910390a35050565b8260048101928215620002f6579160200282015b82811115620002f5578251825591602001919060010190620002d8565b5b50905062000305919062000309565b5090565b5b80821115620003245760008160009055506001016200030a565b5090565b600081519050620003398162000496565b92915050565b6000815190506200035081620004b0565b92915050565b6000815190506200036781620004ca565b92915050565b600080600080600080600080610100898b0312156200038b57600080fd5b60006200039b8b828c0162000328565b9850506020620003ae8b828c0162000328565b9750506040620003c18b828c0162000356565b9650506060620003d48b828c0162000356565b9550506080620003e78b828c0162000356565b94505060a0620003fa8b828c0162000356565b93505060c06200040d8b828c0162000356565b92505060e0620004208b828c016200033f565b9150509295985092959890939650565b60006200043d826200046c565b9050919050565b6000620004518262000430565b9050919050565b6000620004658262000430565b9050919050565b600073ffffffffffffffffffffffffffffffffffffffff82169050919050565b6000819050919050565b620004a18162000444565b8114620004ad57600080fd5b50565b620004bb8162000458565b8114620004c757600080fd5b50565b620004d5816200048c565b8114620004e157600080fd5b50565b613f6780620004f46000396000f3fe6080604052600436106101f95760003560e01c8063774142bb1161010d578063b6b55f25116100a0578063e1af9a951161006f578063e1af9a9514610707578063f2fde38b14610732578063f48082101461075b578063f8caa7e514610786578063fc00358e146107b1576101f9565b8063b6b55f2514610646578063b781360714610662578063b810fb431461068d578063b920ade2146106ca576101f9565b80638da5cb5b116100dc5780638da5cb5b1461059c5780639c0a7669146105c7578063a4821719146105f2578063ac3ff9121461061d576101f9565b8063774142bb146104e057806378e979251461051d5780638456cb591461054857806387e97bc61461055f576101f9565b80634369ac2d116101905780636382d9ad1161015f5780636382d9ad1461041157806364ce9fff1461043a5780636ab3846b14610477578063715018a6146104a057806376ea6ee0146104b7576101f9565b80634369ac2d146103755780634641257d1461039e5780635a9b0b89146103b55780635c975abb146103e6576101f9565b80632f5105f8116101cc5780632f5105f8146102cd5780633197cbb61461030a5780633f4ba83a146103355780634225c32f1461034c576101f9565b80630a2642bf146101fe5780631959a0021461023b5780631a39d8ef1461027957806327d1b1a2146102a4575b600080fd5b34801561020a57600080fd5b5061022560048036038101906102209190612d88565b6107dc565b60405161023291906136a1565b60405180910390f35b34801561024757600080fd5b50610262600480360381019061025d9190612c78565b6107f7565b6040516102709291906136bc565b60405180910390f35b34801561028557600080fd5b5061028e610828565b60405161029b91906136a1565b60405180910390f35b3480156102b057600080fd5b506102cb60048036038101906102c69190612d88565b61082e565b005b3480156102d957600080fd5b506102f460048036038101906102ef9190612c78565b6108f8565b60405161030191906136a1565b60405180910390f35b34801561031657600080fd5b5061031f6109ad565b60405161032c91906136a1565b60405180910390f35b34801561034157600080fd5b5061034a6109b3565b005b34801561035857600080fd5b50610373600480360381019061036e9190612d88565b610a39565b005b34801561038157600080fd5b5061039c60048036038101906103979190612cdd565b610b03565b005b3480156103aa57600080fd5b506103b3610b99565b005b3480156103c157600080fd5b506103ca610f64565b6040516103dd9796959493929190613624565b60405180910390f35b3480156103f257600080fd5b506103fb61110c565b6040516104089190613351565b60405180910390f35b34801561041d57600080fd5b5061043860048036038101906104339190612ca1565b611123565b005b34801561044657600080fd5b50610461600480360381019061045c9190612c78565b6112d8565b60405161046e9190613351565b60405180910390f35b34801561048357600080fd5b5061049e60048036038101906104999190612d88565b611331565b005b3480156104ac57600080fd5b506104b5611406565b005b3480156104c357600080fd5b506104de60048036038101906104d99190612d88565b61148e565b005b3480156104ec57600080fd5b5061050760048036038101906105029190612d88565b611563565b60405161051491906136a1565b60405180910390f35b34801561052957600080fd5b50610532611587565b60405161053f91906136a1565b60405180910390f35b34801561055457600080fd5b5061055d61158d565b005b34801561056b57600080fd5b5061058660048036038101906105819190612c78565b611613565b60405161059391906136a1565b60405180910390f35b3480156105a857600080fd5b506105b16116d8565b6040516105be91906132a6565b60405180910390f35b3480156105d357600080fd5b506105dc611702565b6040516105e991906136a1565b60405180910390f35b3480156105fe57600080fd5b50610607611708565b604051610614919061336c565b60405180910390f35b34801561062957600080fd5b50610644600480360381019061063f9190612c78565b61172e565b005b610660600480360381019061065b9190612d88565b61190b565b005b34801561066e57600080fd5b50610677611df9565b604051610684919061336c565b60405180910390f35b34801561069957600080fd5b506106b460048036038101906106af9190612d88565b611e1f565b6040516106c191906132a6565b60405180910390f35b3480156106d657600080fd5b506106f160048036038101906106ec9190612c78565b611e5e565b6040516106fe91906136a1565b60405180910390f35b34801561071357600080fd5b5061071c611ed8565b60405161072991906136a1565b60405180910390f35b34801561073e57600080fd5b5061075960048036038101906107549190612c78565b611ede565b005b34801561076757600080fd5b50610770611fd6565b60405161077d91906136a1565b60405180910390f35b34801561079257600080fd5b5061079b611fdc565b6040516107a89190613387565b60405180910390f35b3480156107bd57600080fd5b506107c6612002565b6040516107d391906136a1565b60405180910390f35b600d81600481106107ec57600080fd5b016000915090505481565b600a6020528060005260406000206000915090508060000154908060010160009054906101000a900460ff16905082565b60095481565b61083661200f565b73ffffffffffffffffffffffffffffffffffffffff166108546116d8565b73ffffffffffffffffffffffffffffffffffffffff16146108aa576040517f08c379a00000000000000000000000000000000000000000000000000000000081526004016108a190613544565b60405180910390fd5b60045442106108ee576040517f08c379a00000000000000000000000000000000000000000000000000000000081526004016108e5906134e4565b60405180910390fd5b8060088190555050565b60006007546009541161090e57600090506109a8565b600061091983611e5e565b9050600061094c670de0b6b3a764000061093e8460075461201790919063ffffffff16565b61202d90919063ffffffff16565b90506109a381600a60008773ffffffffffffffffffffffffffffffffffffffff1673ffffffffffffffffffffffffffffffffffffffff1681526020019081526020016000206000015461204390919063ffffffff16565b925050505b919050565b60055481565b6109bb61200f565b73ffffffffffffffffffffffffffffffffffffffff166109d96116d8565b73ffffffffffffffffffffffffffffffffffffffff1614610a2f576040517f08c379a0000000000000000000000000000000000000000000000000000000008152600401610a2690613544565b60405180910390fd5b610a37612059565b565b610a4161200f565b73ffffffffffffffffffffffffffffffffffffffff16610a5f6116d8565b73ffffffffffffffffffffffffffffffffffffffff1614610ab5576040517f08c379a0000000000000000000000000000000000000000000000000000000008152600401610aac90613544565b60405180910390fd5b6004544210610af9576040517f08c379a0000000000000000000000000000000000000000000000000000000008152600401610af0906134e4565b60405180910390fd5b8060078190555050565b610b0b61200f565b73ffffffffffffffffffffffffffffffffffffffff16610b296116d8565b73ffffffffffffffffffffffffffffffffffffffff1614610b7f576040517f08c379a0000000000000000000000000000000000000000000000000000000008152600401610b7690613544565b60405180910390fd5b8060119080519060200190610b95929190612a54565b5050565b60026000541415610bdf576040517f08c379a0000000000000000000000000000000000000000000000000000000008152600401610bd6906135e4565b60405180910390fd5b60026000819055506006544211610c2b576040517f08c379a0000000000000000000000000000000000000000000000000000000008152600401610c2290613564565b60405180910390fd5b6000600a60003373ffffffffffffffffffffffffffffffffffffffff1673ffffffffffffffffffffffffffffffffffffffff1681526020019081526020016000206000015411610cb0576040517f08c379a0000000000000000000000000000000000000000000000000000000008152600401610ca790613524565b60405180910390fd5b600a60003373ffffffffffffffffffffffffffffffffffffffff1673ffffffffffffffffffffffffffffffffffffffff16815260200190815260200160002060010160009054906101000a900460ff1615610d40576040517f08c379a0000000000000000000000000000000000000000000000000000000008152600401610d3790613604565b60405180910390fd5b610d4861110c565b15610d88576040517f08c379a0000000000000000000000000000000000000000000000000000000008152600401610d7f906134a4565b60405180910390fd5b6000610d9333611613565b90506000610da0336108f8565b9050610def3383600360009054906101000a900473ffffffffffffffffffffffffffffffffffffffff1673ffffffffffffffffffffffffffffffffffffffff166120fb9092919063ffffffff16565b6000811115610ead57600073ffffffffffffffffffffffffffffffffffffffff16600260009054906101000a900473ffffffffffffffffffffffffffffffffffffffff1673ffffffffffffffffffffffffffffffffffffffff161415610e5e57610e593382612181565b610eac565b610eab3382600260009054906101000a900473ffffffffffffffffffffffffffffffffffffffff1673ffffffffffffffffffffffffffffffffffffffff166120fb9092919063ffffffff16565b5b5b6001600a60003373ffffffffffffffffffffffffffffffffffffffff1673ffffffffffffffffffffffffffffffffffffffff16815260200190815260200160002060010160006101000a81548160ff0219169083151502179055503373ffffffffffffffffffffffffffffffffffffffff167f71bab65ced2e5750775a0613be067df48ef06cf92a496ebf7663ae06609249548383604051610f509291906136e5565b60405180910390a250506001600081905550565b610f6c612aa1565b610f74612aa1565b6000806000806000610f84612aa1565b600073ffffffffffffffffffffffffffffffffffffffff16600260009054906101000a900473ffffffffffffffffffffffffffffffffffffffff1673ffffffffffffffffffffffffffffffffffffffff161415611085576040518060800160405280600073ffffffffffffffffffffffffffffffffffffffff168152602001601281526020016040518060400160405280600b81526020017f4b6172646961436861696e00000000000000000000000000000000000000000081525081526020016040518060400160405280600381526020017f4b4149000000000000000000000000000000000000000000000000000000000081525081525090506110b3565b6110b0600260009054906101000a900473ffffffffffffffffffffffffffffffffffffffff166122a7565b90505b60006110e0600360009054906101000a900473ffffffffffffffffffffffffffffffffffffffff166122a7565b905081816004546005546006546008546007549850985098509850985098509850505090919293949596565b6000600160149054906101000a900460ff16905090565b61112b61200f565b73ffffffffffffffffffffffffffffffffffffffff166111496116d8565b73ffffffffffffffffffffffffffffffffffffffff161461119f576040517f08c379a000000000000000000000000000000000000000000000000000000000815260040161119690613544565b60405180910390fd5b600073ffffffffffffffffffffffffffffffffffffffff168273ffffffffffffffffffffffffffffffffffffffff161415611220578073ffffffffffffffffffffffffffffffffffffffff166108fc479081150290604051600060405180830381858888f1935050505015801561121a573d6000803e3d6000fd5b506112d4565b6112d3818373ffffffffffffffffffffffffffffffffffffffff166370a08231306040518263ffffffff1660e01b815260040161125d91906132a6565b60206040518083038186803b15801561127557600080fd5b505afa158015611289573d6000803e3d6000fd5b505050506040513d601f19601f820116820180604052508101906112ad9190612db1565b8473ffffffffffffffffffffffffffffffffffffffff166120fb9092919063ffffffff16565b5b5050565b6000600a60008373ffffffffffffffffffffffffffffffffffffffff1673ffffffffffffffffffffffffffffffffffffffff16815260200190815260200160002060010160009054906101000a900460ff169050919050565b61133961200f565b73ffffffffffffffffffffffffffffffffffffffff166113576116d8565b73ffffffffffffffffffffffffffffffffffffffff16146113ad576040517f08c379a00000000000000000000000000000000000000000000000000000000081526004016113a490613544565b60405180910390fd5b42811180156113bd575060065481105b6113fc576040517f08c379a00000000000000000000000000000000000000000000000000000000081526004016113f390613464565b60405180910390fd5b8060058190555050565b61140e61200f565b73ffffffffffffffffffffffffffffffffffffffff1661142c6116d8565b73ffffffffffffffffffffffffffffffffffffffff1614611482576040517f08c379a000000000000000000000000000000000000000000000000000000000815260040161147990613544565b60405180910390fd5b61148c6000612471565b565b61149661200f565b73ffffffffffffffffffffffffffffffffffffffff166114b46116d8565b73ffffffffffffffffffffffffffffffffffffffff161461150a576040517f08c379a000000000000000000000000000000000000000000000000000000000815260040161150190613544565b60405180910390fd5b428111801561151a575060055481115b611559576040517f08c379a000000000000000000000000000000000000000000000000000000000815260040161155090613464565b60405180910390fd5b8060068190555050565b6011818154811061157357600080fd5b906000526020600020016000915090505481565b60045481565b61159561200f565b73ffffffffffffffffffffffffffffffffffffffff166115b36116d8565b73ffffffffffffffffffffffffffffffffffffffff1614611609576040517f08c379a000000000000000000000000000000000000000000000000000000000815260040161160090613544565b60405180910390fd5b611611612537565b565b6000600754600954111561166557600061162c83611e5e565b905061165d670de0b6b3a764000061164f8360085461201790919063ffffffff16565b61202d90919063ffffffff16565b9150506116d3565b6116d06007546116c2600854600a60008773ffffffffffffffffffffffffffffffffffffffff1673ffffffffffffffffffffffffffffffffffffffff1681526020019081526020016000206000015461201790919063ffffffff16565b61202d90919063ffffffff16565b90505b919050565b6000600160009054906101000a900473ffffffffffffffffffffffffffffffffffffffff16905090565b60075481565b600260009054906101000a900473ffffffffffffffffffffffffffffffffffffffff1681565b61173661200f565b73ffffffffffffffffffffffffffffffffffffffff166117546116d8565b73ffffffffffffffffffffffffffffffffffffffff16146117aa576040517f08c379a00000000000000000000000000000000000000000000000000000000081526004016117a190613544565b60405180910390fd5b600073ffffffffffffffffffffffffffffffffffffffff16600260009054906101000a900473ffffffffffffffffffffffffffffffffffffffff1673ffffffffffffffffffffffffffffffffffffffff1614156118105761180b8147612181565b611908565b61190781600260009054906101000a900473ffffffffffffffffffffffffffffffffffffffff1673ffffffffffffffffffffffffffffffffffffffff166370a08231306040518263ffffffff1660e01b815260040161186f91906132a6565b60206040518083038186803b15801561188757600080fd5b505afa15801561189b573d6000803e3d6000fd5b505050506040513d601f19601f820116820180604052508101906118bf9190612db1565b600260009054906101000a900473ffffffffffffffffffffffffffffffffffffffff1673ffffffffffffffffffffffffffffffffffffffff166120fb9092919063ffffffff16565b5b50565b60026000541415611951576040517f08c379a0000000000000000000000000000000000000000000000000000000008152600401611948906135e4565b60405180910390fd5b6002600081905550806004544211801561196c575060055442105b6119ab576040517f08c379a00000000000000000000000000000000000000000000000000000000081526004016119a290613424565b60405180910390fd5b600081116119ee576040517f08c379a00000000000000000000000000000000000000000000000000000000081526004016119e5906133c4565b60405180910390fd5b6119f661110c565b15611a36576040517f08c379a0000000000000000000000000000000000000000000000000000000008152600401611a2d906134a4565b60405180910390fd5b6000611a41336125d9565b9050600a60003373ffffffffffffffffffffffffffffffffffffffff1673ffffffffffffffffffffffffffffffffffffffff168152602001908152602001600020600001548111611ac7576040517f08c379a0000000000000000000000000000000000000000000000000000000008152600401611abe906134c4565b60405180910390fd5b6000600a60003373ffffffffffffffffffffffffffffffffffffffff1673ffffffffffffffffffffffffffffffffffffffff1681526020019081526020016000206000015482611b1791906138f2565b9050600084905084821015611b2a578190505b600073ffffffffffffffffffffffffffffffffffffffff16600260009054906101000a900473ffffffffffffffffffffffffffffffffffffffff1673ffffffffffffffffffffffffffffffffffffffff161415611be75780341015611bc4576040517f08c379a0000000000000000000000000000000000000000000000000000000008152600401611bbb90613504565b60405180910390fd5b80341115611be257611be1338234611bdc91906138f2565b612181565b5b611c37565b611c36333083600260009054906101000a900473ffffffffffffffffffffffffffffffffffffffff1673ffffffffffffffffffffffffffffffffffffffff16612738909392919063ffffffff16565b5b6000600a60003373ffffffffffffffffffffffffffffffffffffffff1673ffffffffffffffffffffffffffffffffffffffff168152602001908152602001600020600001541415611ce657600b339080600181540180825580915050600190039060005260206000200160009091909190916101000a81548173ffffffffffffffffffffffffffffffffffffffff021916908373ffffffffffffffffffffffffffffffffffffffff1602179055505b611d3b81600a60003373ffffffffffffffffffffffffffffffffffffffff1673ffffffffffffffffffffffffffffffffffffffff168152602001908152602001600020600001546127c190919063ffffffff16565b600a60003373ffffffffffffffffffffffffffffffffffffffff1673ffffffffffffffffffffffffffffffffffffffff16815260200190815260200160002060000181905550611d96816009546127c190919063ffffffff16565b6009819055503373ffffffffffffffffffffffffffffffffffffffff167fe1fffcc4923d04b559f4d29a8bfc6cda04eb5b0d3c460751c2402c5c5cc9109c82604051611de291906136a1565b60405180910390a250505050600160008190555050565b600360009054906101000a900473ffffffffffffffffffffffffffffffffffffffff1681565b600b8181548110611e2f57600080fd5b906000526020600020016000915054906101000a900473ffffffffffffffffffffffffffffffffffffffff1681565b6000611ed1600954611ec3670de0b6b3a7640000600a60008773ffffffffffffffffffffffffffffffffffffffff1673ffffffffffffffffffffffffffffffffffffffff1681526020019081526020016000206000015461201790919063ffffffff16565b61202d90919063ffffffff16565b9050919050565b60085481565b611ee661200f565b73ffffffffffffffffffffffffffffffffffffffff16611f046116d8565b73ffffffffffffffffffffffffffffffffffffffff1614611f5a576040517f08c379a0000000000000000000000000000000000000000000000000000000008152600401611f5190613544565b60405180910390fd5b600073ffffffffffffffffffffffffffffffffffffffff168173ffffffffffffffffffffffffffffffffffffffff161415611fca576040517f08c379a0000000000000000000000000000000000000000000000000000000008152600401611fc190613404565b60405180910390fd5b611fd381612471565b50565b60065481565b600c60009054906101000a900473ffffffffffffffffffffffffffffffffffffffff1681565b6000600b80549050905090565b600033905090565b600081836120259190613898565b905092915050565b6000818361203b9190613867565b905092915050565b6000818361205191906138f2565b905092915050565b61206161110c565b6120a0576040517f08c379a0000000000000000000000000000000000000000000000000000000008152600401612097906133e4565b60405180910390fd5b6000600160146101000a81548160ff0219169083151502179055507f5db9ee0a495bf2e6ff9c91a7834c1ba4fdd244a5e8aa4e537bd38aeae4b073aa6120e461200f565b6040516120f191906132a6565b60405180910390a1565b61217c8363a9059cbb60e01b848460405160240161211a929190613328565b604051602081830303815290604052907bffffffffffffffffffffffffffffffffffffffffffffffffffffffff19166020820180517bffffffffffffffffffffffffffffffffffffffffffffffffffffffff83818316178352505050506127d7565b505050565b60008273ffffffffffffffffffffffffffffffffffffffff1682600067ffffffffffffffff8111156121dc577f4e487b7100000000000000000000000000000000000000000000000000000000600052604160045260246000fd5b6040519080825280601f01601f19166020018201604052801561220e5781602001600182028036833780820191505090505b5060405161221c919061328f565b60006040518083038185875af1925050503d8060008114612259576040519150601f19603f3d011682016040523d82523d6000602084013e61225e565b606091505b50509050806122a2576040517f08c379a0000000000000000000000000000000000000000000000000000000008152600401612299906135a4565b60405180910390fd5b505050565b6122af612aa1565b60405180608001604052808373ffffffffffffffffffffffffffffffffffffffff1681526020018373ffffffffffffffffffffffffffffffffffffffff1663313ce5676040518163ffffffff1660e01b815260040160206040518083038186803b15801561231c57600080fd5b505afa158015612330573d6000803e3d6000fd5b505050506040513d601f19601f820116820180604052508101906123549190612dda565b60ff1681526020018373ffffffffffffffffffffffffffffffffffffffff166306fdde036040518163ffffffff1660e01b815260040160006040518083038186803b1580156123a257600080fd5b505afa1580156123b6573d6000803e3d6000fd5b505050506040513d6000823e3d601f19601f820116820180604052508101906123df9190612d47565b81526020018373ffffffffffffffffffffffffffffffffffffffff166395d89b416040518163ffffffff1660e01b815260040160006040518083038186803b15801561242a57600080fd5b505afa15801561243e573d6000803e3d6000fd5b505050506040513d6000823e3d601f19601f820116820180604052508101906124679190612d47565b8152509050919050565b6000600160009054906101000a900473ffffffffffffffffffffffffffffffffffffffff16905081600160006101000a81548173ffffffffffffffffffffffffffffffffffffffff021916908373ffffffffffffffffffffffffffffffffffffffff1602179055508173ffffffffffffffffffffffffffffffffffffffff168173ffffffffffffffffffffffffffffffffffffffff167f8be0079c531659141344cd1fd0a4f28419497f9722a3daafe3b4186f6b6457e060405160405180910390a35050565b61253f61110c565b1561257f576040517f08c379a0000000000000000000000000000000000000000000000000000000008152600401612576906134a4565b60405180910390fd5b60018060146101000a81548160ff0219169083151502179055507f62e78cea01bee320cd4e420270b5ea74000d11b0c9f74754ebdbfc544b05a2586125c261200f565b6040516125cf91906132a6565b60405180910390a1565b60008060118054905011612622576040517f08c379a000000000000000000000000000000000000000000000000000000000815260040161261990613444565b60405180910390fd5b6000600c60009054906101000a900473ffffffffffffffffffffffffffffffffffffffff1673ffffffffffffffffffffffffffffffffffffffff16635d1e37ad8460116040518363ffffffff1660e01b81526004016126829291906132f8565b60206040518083038186803b15801561269a57600080fd5b505afa1580156126ae573d6000803e3d6000fd5b505050506040513d601f19601f820116820180604052508101906126d29190612db1565b905060008114156126e7576000915050612733565b600d6001826126f691906138f2565b6004811061272d577f4e487b7100000000000000000000000000000000000000000000000000000000600052603260045260246000fd5b01549150505b919050565b6127bb846323b872dd60e01b858585604051602401612759939291906132c1565b604051602081830303815290604052907bffffffffffffffffffffffffffffffffffffffffffffffffffffffff19166020820180517bffffffffffffffffffffffffffffffffffffffffffffffffffffffff83818316178352505050506127d7565b50505050565b600081836127cf9190613811565b905092915050565b6000612839826040518060400160405280602081526020017f5361666545524332303a206c6f772d6c6576656c2063616c6c206661696c65648152508573ffffffffffffffffffffffffffffffffffffffff1661289e9092919063ffffffff16565b905060008151111561289957808060200190518101906128599190612d1e565b612898576040517f08c379a000000000000000000000000000000000000000000000000000000000815260040161288f906135c4565b60405180910390fd5b5b505050565b60606128ad84846000856128b6565b90509392505050565b6060824710156128fb576040517f08c379a00000000000000000000000000000000000000000000000000000000081526004016128f290613484565b60405180910390fd5b612904856129ca565b612943576040517f08c379a000000000000000000000000000000000000000000000000000000000815260040161293a90613584565b60405180910390fd5b6000808673ffffffffffffffffffffffffffffffffffffffff16858760405161296c919061328f565b60006040518083038185875af1925050503d80600081146129a9576040519150601f19603f3d011682016040523d82523d6000602084013e6129ae565b606091505b50915091506129be8282866129ed565b92505050949350505050565b6000808273ffffffffffffffffffffffffffffffffffffffff163b119050919050565b606083156129fd57829050612a4d565b600083511115612a105782518084602001fd5b816040517f08c379a0000000000000000000000000000000000000000000000000000000008152600401612a4491906133a2565b60405180910390fd5b9392505050565b828054828255906000526020600020908101928215612a90579160200282015b82811115612a8f578251825591602001919060010190612a74565b5b509050612a9d9190612adf565b5090565b6040518060800160405280600073ffffffffffffffffffffffffffffffffffffffff1681526020016000815260200160608152602001606081525090565b5b80821115612af8576000816000905550600101612ae0565b5090565b6000612b0f612b0a84613733565b61370e565b90508083825260208201905082856020860282011115612b2e57600080fd5b60005b85811015612b5e5781612b448882612c39565b845260208401935060208301925050600181019050612b31565b5050509392505050565b6000612b7b612b768461375f565b61370e565b905082815260208101848484011115612b9357600080fd5b612b9e8482856139df565b509392505050565b600081359050612bb581613ebe565b92915050565b600081359050612bca81613ed5565b92915050565b600082601f830112612be157600080fd5b8135612bf1848260208601612afc565b91505092915050565b600081519050612c0981613eec565b92915050565b600082601f830112612c2057600080fd5b8151612c30848260208601612b68565b91505092915050565b600081359050612c4881613f03565b92915050565b600081519050612c5d81613f03565b92915050565b600081519050612c7281613f1a565b92915050565b600060208284031215612c8a57600080fd5b6000612c9884828501612ba6565b91505092915050565b60008060408385031215612cb457600080fd5b6000612cc285828601612ba6565b9250506020612cd385828601612bbb565b9150509250929050565b600060208284031215612cef57600080fd5b600082013567ffffffffffffffff811115612d0957600080fd5b612d1584828501612bd0565b91505092915050565b600060208284031215612d3057600080fd5b6000612d3e84828501612bfa565b91505092915050565b600060208284031215612d5957600080fd5b600082015167ffffffffffffffff811115612d7357600080fd5b612d7f84828501612c0f565b91505092915050565b600060208284031215612d9a57600080fd5b6000612da884828501612c39565b91505092915050565b600060208284031215612dc357600080fd5b6000612dd184828501612c4e565b91505092915050565b600060208284031215612dec57600080fd5b6000612dfa84828501612c63565b91505092915050565b6000612e0f8383613271565b60208301905092915050565b612e2481613930565b82525050565b6000612e35826137a5565b612e3f81856137d3565b9350612e4a83613790565b8060005b83811015612e8257612e5f82613aea565b612e698882612e03565b9750612e74836137c6565b925050600181019050612e4e565b5085935050505092915050565b612e9881613954565b82525050565b6000612ea9826137b0565b612eb381856137e4565b9350612ec38185602086016139df565b80840191505092915050565b612ed881613997565b82525050565b612ee781613997565b82525050565b612ef6816139bb565b82525050565b6000612f07826137bb565b612f1181856137ef565b9350612f218185602086016139df565b612f2a81613afd565b840191505092915050565b6000612f40826137bb565b612f4a8185613800565b9350612f5a8185602086016139df565b612f6381613afd565b840191505092915050565b6000612f7b601083613800565b9150612f8682613b1b565b602082019050919050565b6000612f9e601483613800565b9150612fa982613b44565b602082019050919050565b6000612fc1602683613800565b9150612fcc82613b6d565b604082019050919050565b6000612fe4601083613800565b9150612fef82613bbc565b602082019050919050565b6000613007601383613800565b915061301282613be5565b602082019050919050565b600061302a600e83613800565b915061303582613c0e565b602082019050919050565b600061304d602683613800565b915061305882613c37565b604082019050919050565b6000613070601083613800565b915061307b82613c86565b602082019050919050565b6000613093601583613800565b915061309e82613caf565b602082019050919050565b60006130b6600283613800565b91506130c182613cd8565b602082019050919050565b60006130d9601183613800565b91506130e482613d01565b602082019050919050565b60006130fc601683613800565b915061310782613d2a565b602082019050919050565b600061311f602083613800565b915061312a82613d53565b602082019050919050565b6000613142601083613800565b915061314d82613d7c565b602082019050919050565b6000613165601d83613800565b915061317082613da5565b602082019050919050565b6000613188602383613800565b915061319382613dce565b604082019050919050565b60006131ab602a83613800565b91506131b682613e1d565b604082019050919050565b60006131ce601f83613800565b91506131d982613e6c565b602082019050919050565b60006131f1601283613800565b91506131fc82613e95565b602082019050919050565b600060808301600083015161321f6000860182612ecf565b5060208301516132326020860182613271565b506040830151848203604086015261324a8282612efc565b915050606083015184820360608601526132648282612efc565b9150508091505092915050565b61327a81613980565b82525050565b61328981613980565b82525050565b600061329b8284612e9e565b915081905092915050565b60006020820190506132bb6000830184612e1b565b92915050565b60006060820190506132d66000830186612e1b565b6132e36020830185612e1b565b6132f06040830184613280565b949350505050565b600060408201905061330d6000830185612e1b565b818103602083015261331f8184612e2a565b90509392505050565b600060408201905061333d6000830185612e1b565b61334a6020830184613280565b9392505050565b60006020820190506133666000830184612e8f565b92915050565b60006020820190506133816000830184612ede565b92915050565b600060208201905061339c6000830184612eed565b92915050565b600060208201905081810360008301526133bc8184612f35565b905092915050565b600060208201905081810360008301526133dd81612f6e565b9050919050565b600060208201905081810360008301526133fd81612f91565b9050919050565b6000602082019050818103600083015261341d81612fb4565b9050919050565b6000602082019050818103600083015261343d81612fd7565b9050919050565b6000602082019050818103600083015261345d81612ffa565b9050919050565b6000602082019050818103600083015261347d8161301d565b9050919050565b6000602082019050818103600083015261349d81613040565b9050919050565b600060208201905081810360008301526134bd81613063565b9050919050565b600060208201905081810360008301526134dd81613086565b9050919050565b600060208201905081810360008301526134fd816130a9565b9050919050565b6000602082019050818103600083015261351d816130cc565b9050919050565b6000602082019050818103600083015261353d816130ef565b9050919050565b6000602082019050818103600083015261355d81613112565b9050919050565b6000602082019050818103600083015261357d81613135565b9050919050565b6000602082019050818103600083015261359d81613158565b9050919050565b600060208201905081810360008301526135bd8161317b565b9050919050565b600060208201905081810360008301526135dd8161319e565b9050919050565b600060208201905081810360008301526135fd816131c1565b9050919050565b6000602082019050818103600083015261361d816131e4565b9050919050565b600060e082019050818103600083015261363e818a613207565b905081810360208301526136528189613207565b90506136616040830188613280565b61366e6060830187613280565b61367b6080830186613280565b61368860a0830185613280565b61369560c0830184613280565b98975050505050505050565b60006020820190506136b66000830184613280565b92915050565b60006040820190506136d16000830185613280565b6136de6020830184612e8f565b9392505050565b60006040820190506136fa6000830185613280565b6137076020830184613280565b9392505050565b6000613718613729565b90506137248282613a2c565b919050565b6000604051905090565b600067ffffffffffffffff82111561374e5761374d613abb565b5b602082029050602081019050919050565b600067ffffffffffffffff82111561377a57613779613abb565b5b61378382613afd565b9050602081019050919050565b60008190508160005260206000209050919050565b600081549050919050565b600081519050919050565b600081519050919050565b6000600182019050919050565b600082825260208201905092915050565b600081905092915050565b600082825260208201905092915050565b600082825260208201905092915050565b600061381c82613980565b915061382783613980565b9250827fffffffffffffffffffffffffffffffffffffffffffffffffffffffffffffffff0382111561385c5761385b613a5d565b5b828201905092915050565b600061387282613980565b915061387d83613980565b92508261388d5761388c613a8c565b5b828204905092915050565b60006138a382613980565b91506138ae83613980565b9250817fffffffffffffffffffffffffffffffffffffffffffffffffffffffffffffffff04831182151516156138e7576138e6613a5d565b5b828202905092915050565b60006138fd82613980565b915061390883613980565b92508282101561391b5761391a613a5d565b5b828203905092915050565b6000819050919050565b600061393b82613960565b9050919050565b600061394d82613960565b9050919050565b60008115159050919050565b600073ffffffffffffffffffffffffffffffffffffffff82169050919050565b6000819050919050565b600060ff82169050919050565b60006139a2826139a9565b9050919050565b60006139b482613960565b9050919050565b60006139c6826139cd565b9050919050565b60006139d882613960565b9050919050565b60005b838110156139fd5780820151818401526020810190506139e2565b83811115613a0c576000848401525b50505050565b6000613a25613a2083613b0e565b613926565b9050919050565b613a3582613afd565b810181811067ffffffffffffffff82111715613a5457613a53613abb565b5b80604052505050565b7f4e487b7100000000000000000000000000000000000000000000000000000000600052601160045260246000fd5b7f4e487b7100000000000000000000000000000000000000000000000000000000600052601260045260246000fd5b7f4e487b7100000000000000000000000000000000000000000000000000000000600052604160045260246000fd5b6000613af68254613a12565b9050919050565b6000601f19601f8301169050919050565b60008160001c9050919050565b7f6e656564205f616d6f756e74203e203000000000000000000000000000000000600082015250565b7f5061757361626c653a206e6f7420706175736564000000000000000000000000600082015250565b7f4f776e61626c653a206e6577206f776e657220697320746865207a65726f206160008201527f6464726573730000000000000000000000000000000000000000000000000000602082015250565b7f6e6f742072616973696e672074696d6500000000000000000000000000000000600082015250565b7f536e617073686f74206964206e6f742073657400000000000000000000000000600082015250565b7f74696d6520696e76616c69642121000000000000000000000000000000000000600082015250565b7f416464726573733a20696e73756666696369656e742062616c616e636520666f60008201527f722063616c6c0000000000000000000000000000000000000000000000000000602082015250565b7f5061757361626c653a2070617573656400000000000000000000000000000000600082015250565b7f6e6f7420656c696769626c6520616d6f756e7421210000000000000000000000600082015250565b7f6e6f000000000000000000000000000000000000000000000000000000000000600082015250565b7f616d6f756e74206e6f7420656e6f756768000000000000000000000000000000600082015250565b7f6861766520796f75207061727469636970617465643f00000000000000000000600082015250565b7f4f776e61626c653a2063616c6c6572206973206e6f7420746865206f776e6572600082015250565b7f6e6f7420686172766573742074696d6500000000000000000000000000000000600082015250565b7f416464726573733a2063616c6c20746f206e6f6e2d636f6e7472616374000000600082015250565b7f5472616e7366657248656c7065723a204b41495f5452414e534645525f46414960008201527f4c45440000000000000000000000000000000000000000000000000000000000602082015250565b7f5361666545524332303a204552433230206f7065726174696f6e20646964206e60008201527f6f74207375636365656400000000000000000000000000000000000000000000602082015250565b7f5265656e7472616e637947756172643a207265656e7472616e742063616c6c00600082015250565b7f6e6f7468696e6720746f20686172766573740000000000000000000000000000600082015250565b613ec781613930565b8114613ed257600080fd5b50565b613ede81613942565b8114613ee957600080fd5b50565b613ef581613954565b8114613f0057600080fd5b50565b613f0c81613980565b8114613f1757600080fd5b50565b613f238161398a565b8114613f2e57600080fd5b5056fea264697066735822122034dbe1000dd62c9630bdc538ba483d42504b39d0681f4c1fe4330a10bf127bba64736f6c63430008040033",
  "linkReferences": {},
  "deployedLinkReferences": {}
}