{
  "_format": "hh-sol-artifact-1",
  "contractName": "FundRaising",
  "sourceName": "contracts/launchpad/FundRaising.sol",
  "abi": [
    {
      "inputs": [
        {
          "internalType": "contract ERC20",
          "name": "_buyToken",
          "type": "address"
        },
        {
          "internalType": "contract ERC20",
          "name": "_offeringToken",
          "type": "address"
        },
        {
          "internalType": "uint256",
          "name": "_startTime",
          "type": "uint256"
        },
        {
          "internalType": "uint256",
          "name": "_endTime",
          "type": "uint256"
        },
        {
          "internalType": "uint256",
          "name": "_harvestTime",
          "type": "uint256"
        },
        {
          "internalType": "uint256",
          "name": "_offeringAmount",
          "type": "uint256"
        },
        {
          "internalType": "uint256",
          "name": "_raisingAmount",
          "type": "uint256"
        },
        {
          "internalType": "contract ITierSystem",
          "name": "_tierSystem",
          "type": "address"
        },
        {
          "internalType": "uint256",
          "name": "_snapshotFrom",
          "type": "uint256"
        },
        {
          "internalType": "uint256",
          "name": "_snapshotTo",
          "type": "uint256"
        }
      ],
      "stateMutability": "nonpayable",
      "type": "constructor"
    },
    {
      "anonymous": false,
      "inputs": [
        {
          "indexed": true,
          "internalType": "address",
          "name": "user",
          "type": "address"
        },
        {
          "indexed": false,
          "internalType": "uint256",
          "name": "amount",
          "type": "uint256"
        }
      ],
      "name": "Deposit",
      "type": "event"
    },
    {
      "anonymous": false,
      "inputs": [
        {
          "indexed": true,
          "internalType": "address",
          "name": "user",
          "type": "address"
        },
        {
          "indexed": false,
          "internalType": "uint256",
          "name": "offeringAmount",
          "type": "uint256"
        },
        {
          "indexed": false,
          "internalType": "uint256",
          "name": "excessAmount",
          "type": "uint256"
        }
      ],
      "name": "Harvest",
      "type": "event"
    },
    {
      "anonymous": false,
      "inputs": [
        {
          "indexed": true,
          "internalType": "address",
          "name": "previousOwner",
          "type": "address"
        },
        {
          "indexed": true,
          "internalType": "address",
          "name": "newOwner",
          "type": "address"
        }
      ],
      "name": "OwnershipTransferred",
      "type": "event"
    },
    {
      "anonymous": false,
      "inputs": [
        {
          "indexed": false,
          "internalType": "address",
          "name": "account",
          "type": "address"
        }
      ],
      "name": "Paused",
      "type": "event"
    },
    {
      "anonymous": false,
      "inputs": [
        {
          "indexed": false,
          "internalType": "address",
          "name": "account",
          "type": "address"
        }
      ],
      "name": "Unpaused",
      "type": "event"
    },
    {
      "inputs": [
        {
          "internalType": "uint256",
          "name": "",
          "type": "uint256"
        }
      ],
      "name": "addressList",
      "outputs": [
        {
          "internalType": "address",
          "name": "",
          "type": "address"
        }
      ],
      "stateMutability": "view",
      "type": "function"
    },
    {
      "inputs": [
        {
          "internalType": "uint256",
          "name": "_index",
          "type": "uint256"
        }
      ],
      "name": "allocations",
      "outputs": [
        {
          "internalType": "uint256",
          "name": "",
          "type": "uint256"
        }
      ],
      "stateMutability": "view",
      "type": "function"
    },
    {
      "inputs": [],
      "name": "buyToken",
      "outputs": [
        {
          "internalType": "contract ERC20",
          "name": "",
          "type": "address"
        }
      ],
      "stateMutability": "view",
      "type": "function"
    },
    {
      "inputs": [
        {
          "internalType": "uint256",
          "name": "_amount",
          "type": "uint256"
        }
      ],
      "name": "deposit",
      "outputs": [],
      "stateMutability": "payable",
      "type": "function"
    },
    {
      "inputs": [
        {
          "internalType": "address",
          "name": "token",
          "type": "address"
        },
        {
          "internalType": "address payable",
          "name": "to",
          "type": "address"
        }
      ],
      "name": "emergencyWithdraw",
      "outputs": [],
      "stateMutability": "nonpayable",
      "type": "function"
    },
    {
      "inputs": [],
      "name": "endTime",
      "outputs": [
        {
          "internalType": "uint256",
          "name": "",
          "type": "uint256"
        }
      ],
      "stateMutability": "view",
      "type": "function"
    },
    {
      "inputs": [
        {
          "internalType": "address",
          "name": "_destination",
          "type": "address"
        }
      ],
      "name": "finalWithdraw",
      "outputs": [],
      "stateMutability": "nonpayable",
      "type": "function"
    },
    {
      "inputs": [],
      "name": "getAddressListLength",
      "outputs": [
        {
          "internalType": "uint256",
          "name": "",
          "type": "uint256"
        }
      ],
      "stateMutability": "view",
      "type": "function"
    },
    {
      "inputs": [
        {
          "internalType": "address",
          "name": "_account",
          "type": "address"
        }
      ],
      "name": "getAllocation",
      "outputs": [
        {
          "internalType": "uint256",
          "name": "",
          "type": "uint256"
        }
      ],
      "stateMutability": "view",
      "type": "function"
    },
    {
      "inputs": [],
      "name": "getInfo",
      "outputs": [
        {
          "components": [
            {
              "internalType": "contract ERC20",
              "name": "token",
              "type": "address"
            },
            {
              "internalType": "uint256",
              "name": "decimals",
              "type": "uint256"
            },
            {
              "internalType": "string",
              "name": "name",
              "type": "string"
            },
            {
              "internalType": "string",
              "name": "symbol",
              "type": "string"
            }
          ],
          "internalType": "struct FundRaising.TokenInfo",
          "name": "",
          "type": "tuple"
        },
        {
          "components": [
            {
              "internalType": "contract ERC20",
              "name": "token",
              "type": "address"
            },
            {
              "internalType": "uint256",
              "name": "decimals",
              "type": "uint256"
            },
            {
              "internalType": "string",
              "name": "name",
              "type": "string"
            },
            {
              "internalType": "string",
              "name": "symbol",
              "type": "string"
            }
          ],
          "internalType": "struct FundRaising.TokenInfo",
          "name": "",
          "type": "tuple"
        },
        {
          "internalType": "uint256",
          "name": "",
          "type": "uint256"
        },
        {
          "internalType": "uint256",
          "name": "",
          "type": "uint256"
        },
        {
          "internalType": "uint256",
          "name": "",
          "type": "uint256"
        },
        {
          "internalType": "uint256",
          "name": "",
          "type": "uint256"
        },
        {
          "internalType": "uint256",
          "name": "",
          "type": "uint256"
        }
      ],
      "stateMutability": "view",
      "type": "function"
    },
    {
      "inputs": [
        {
          "internalType": "address",
          "name": "_user",
          "type": "address"
        }
      ],
      "name": "getOfferingAmount",
      "outputs": [
        {
          "internalType": "uint256",
          "name": "",
          "type": "uint256"
        }
      ],
      "stateMutability": "view",
      "type": "function"
    },
    {
      "inputs": [
        {
          "internalType": "address",
          "name": "_user",
          "type": "address"
        }
      ],
      "name": "getRefundingAmount",
      "outputs": [
        {
          "internalType": "uint256",
          "name": "",
          "type": "uint256"
        }
      ],
      "stateMutability": "view",
      "type": "function"
    },
    {
      "inputs": [
        {
          "internalType": "address",
          "name": "_account",
          "type": "address"
        }
      ],
      "name": "getTier",
      "outputs": [
        {
          "internalType": "uint256",
          "name": "",
          "type": "uint256"
        }
      ],
      "stateMutability": "view",
      "type": "function"
    },
    {
      "inputs": [
        {
          "internalType": "address",
          "name": "_user",
          "type": "address"
        }
      ],
      "name": "getUserAllocation",
      "outputs": [
        {
          "internalType": "uint256",
          "name": "",
          "type": "uint256"
        }
      ],
      "stateMutability": "view",
      "type": "function"
    },
    {
      "inputs": [],
      "name": "harvest",
      "outputs": [],
      "stateMutability": "nonpayable",
      "type": "function"
    },
    {
      "inputs": [],
      "name": "harvestTime",
      "outputs": [
        {
          "internalType": "uint256",
          "name": "",
          "type": "uint256"
        }
      ],
      "stateMutability": "view",
      "type": "function"
    },
    {
      "inputs": [
        {
          "internalType": "address",
          "name": "_user",
          "type": "address"
        }
      ],
      "name": "hasHarvest",
      "outputs": [
        {
          "internalType": "bool",
          "name": "",
          "type": "bool"
        }
      ],
      "stateMutability": "view",
      "type": "function"
    },
    {
      "inputs": [],
      "name": "offeringAmount",
      "outputs": [
        {
          "internalType": "uint256",
          "name": "",
          "type": "uint256"
        }
      ],
      "stateMutability": "view",
      "type": "function"
    },
    {
      "inputs": [],
      "name": "offeringToken",
      "outputs": [
        {
          "internalType": "contract ERC20",
          "name": "",
          "type": "address"
        }
      ],
      "stateMutability": "view",
      "type": "function"
    },
    {
      "inputs": [],
      "name": "owner",
      "outputs": [
        {
          "internalType": "address",
          "name": "",
          "type": "address"
        }
      ],
      "stateMutability": "view",
      "type": "function"
    },
    {
      "inputs": [],
      "name": "pause",
      "outputs": [],
      "stateMutability": "nonpayable",
      "type": "function"
    },
    {
      "inputs": [],
      "name": "paused",
      "outputs": [
        {
          "internalType": "bool",
          "name": "",
          "type": "bool"
        }
      ],
      "stateMutability": "view",
      "type": "function"
    },
    {
      "inputs": [],
      "name": "raisingAmount",
      "outputs": [
        {
          "internalType": "uint256",
          "name": "",
          "type": "uint256"
        }
      ],
      "stateMutability": "view",
      "type": "function"
    },
    {
      "inputs": [],
      "name": "renounceOwnership",
      "outputs": [],
      "stateMutability": "nonpayable",
      "type": "function"
    },
    {
      "inputs": [
        {
          "internalType": "uint256",
          "name": "_offerAmount",
          "type": "uint256"
        }
      ],
      "name": "setOfferingAmount",
      "outputs": [],
      "stateMutability": "nonpayable",
      "type": "function"
    },
    {
      "inputs": [
        {
          "internalType": "uint256",
          "name": "_raisingAmount",
          "type": "uint256"
        }
      ],
      "name": "setRaisingAmount",
      "outputs": [],
      "stateMutability": "nonpayable",
      "type": "function"
    },
    {
      "inputs": [
        {
          "internalType": "uint256",
          "name": "id",
          "type": "uint256"
        }
      ],
      "name": "setSnapshotFrom",
      "outputs": [],
      "stateMutability": "nonpayable",
      "type": "function"
    },
    {
      "inputs": [
        {
          "internalType": "uint256",
          "name": "id",
          "type": "uint256"
        }
      ],
      "name": "setSnapshotTo",
      "outputs": [],
      "stateMutability": "nonpayable",
      "type": "function"
    },
    {
      "inputs": [],
      "name": "snapshotFrom",
      "outputs": [
        {
          "internalType": "uint256",
          "name": "",
          "type": "uint256"
        }
      ],
      "stateMutability": "view",
      "type": "function"
    },
    {
      "inputs": [],
      "name": "snapshotTo",
      "outputs": [
        {
          "internalType": "uint256",
          "name": "",
          "type": "uint256"
        }
      ],
      "stateMutability": "view",
      "type": "function"
    },
    {
      "inputs": [],
      "name": "startTime",
      "outputs": [
        {
          "internalType": "uint256",
          "name": "",
          "type": "uint256"
        }
      ],
      "stateMutability": "view",
      "type": "function"
    },
    {
      "inputs": [],
      "name": "tierSystem",
      "outputs": [
        {
          "internalType": "contract ITierSystem",
          "name": "",
          "type": "address"
        }
      ],
      "stateMutability": "view",
      "type": "function"
    },
    {
      "inputs": [],
      "name": "totalAmount",
      "outputs": [
        {
          "internalType": "uint256",
          "name": "",
          "type": "uint256"
        }
      ],
      "stateMutability": "view",
      "type": "function"
    },
    {
      "inputs": [
        {
          "internalType": "address",
          "name": "newOwner",
          "type": "address"
        }
      ],
      "name": "transferOwnership",
      "outputs": [],
      "stateMutability": "nonpayable",
      "type": "function"
    },
    {
      "inputs": [],
      "name": "unpause",
      "outputs": [],
      "stateMutability": "nonpayable",
      "type": "function"
    },
    {
      "inputs": [
        {
          "internalType": "uint256",
          "name": "_newTime",
          "type": "uint256"
        }
      ],
      "name": "updateEndTime",
      "outputs": [],
      "stateMutability": "nonpayable",
      "type": "function"
    },
    {
      "inputs": [
        {
          "internalType": "uint256",
          "name": "_newTime",
          "type": "uint256"
        }
      ],
      "name": "updateHarvestTime",
      "outputs": [],
      "stateMutability": "nonpayable",
      "type": "function"
    },
    {
      "inputs": [
        {
          "internalType": "address",
          "name": "",
          "type": "address"
        }
      ],
      "name": "userInfo",
      "outputs": [
        {
          "internalType": "uint256",
          "name": "amount",
          "type": "uint256"
        },
        {
          "internalType": "bool",
          "name": "claimed",
          "type": "bool"
        }
      ],
      "stateMutability": "view",
      "type": "function"
    }
  ],
  "bytecode": "0x608060405260405180608001604052806103e88152602001610bb881526020016127108152602001617530815250600d9060046200003f929190620002b6565b503480156200004d57600080fd5b50604051620048f7380380620048f783398181016040528101906200007391906200035f565b60016000819055506200009b6200008f620001e860201b60201c565b620001f060201b60201c565b6000600160146101000a81548160ff021916908315150217905550868610158015620000c657508787115b8015620000d257504288115b620000dc57600080fd5b89600260006101000a81548173ffffffffffffffffffffffffffffffffffffffff021916908373ffffffffffffffffffffffffffffffffffffffff16021790555088600360006101000a81548173ffffffffffffffffffffffffffffffffffffffff021916908373ffffffffffffffffffffffffffffffffffffffff1602179055508760048190555086600581905550856006819055508460088190555083600781905550600060098190555082600c60006101000a81548173ffffffffffffffffffffffffffffffffffffffff021916908373ffffffffffffffffffffffffffffffffffffffff16021790555081601181905550806012819055505050505050505050505062000503565b600033905090565b6000600160009054906101000a900473ffffffffffffffffffffffffffffffffffffffff16905081600160006101000a81548173ffffffffffffffffffffffffffffffffffffffff021916908373ffffffffffffffffffffffffffffffffffffffff1602179055508173ffffffffffffffffffffffffffffffffffffffff168173ffffffffffffffffffffffffffffffffffffffff167f8be0079c531659141344cd1fd0a4f28419497f9722a3daafe3b4186f6b6457e060405160405180910390a35050565b8260048101928215620002e8579160200282015b82811115620002e7578251825591602001919060010190620002ca565b5b509050620002f79190620002fb565b5090565b5b8082111562000316576000816000905550600101620002fc565b5090565b6000815190506200032b81620004b5565b92915050565b6000815190506200034281620004cf565b92915050565b6000815190506200035981620004e9565b92915050565b6000806000806000806000806000806101408b8d0312156200038057600080fd5b6000620003908d828e016200031a565b9a50506020620003a38d828e016200031a565b9950506040620003b68d828e0162000348565b9850506060620003c98d828e0162000348565b9750506080620003dc8d828e0162000348565b96505060a0620003ef8d828e0162000348565b95505060c0620004028d828e0162000348565b94505060e0620004158d828e0162000331565b935050610100620004298d828e0162000348565b9250506101206200043d8d828e0162000348565b9150509295989b9194979a5092959850565b60006200045c826200048b565b9050919050565b600062000470826200044f565b9050919050565b600062000484826200044f565b9050919050565b600073ffffffffffffffffffffffffffffffffffffffff82169050919050565b6000819050919050565b620004c08162000463565b8114620004cc57600080fd5b50565b620004da8162000477565b8114620004e657600080fd5b50565b620004f481620004ab565b81146200050057600080fd5b50565b6143e480620005136000396000f3fe6080604052600436106102255760003560e01c806378e9792511610123578063b7813607116100ab578063e1af9a951161006f578063e1af9a95146107ef578063f2fde38b1461081a578063f480821014610843578063f8caa7e51461086e578063fc00358e1461089957610225565b8063b7813607146106f8578063b810fb4314610723578063b920ade214610760578063c2c9721b1461079d578063d16bba94146107c657610225565b80639c0a7669116100f25780639c0a766914610620578063a48217191461064b578063ac3ff91214610676578063b45aae521461069f578063b6b55f25146106dc57610225565b806378e97925146105765780638456cb59146105a157806387e97bc6146105b85780638da5cb5b146105f557610225565b80633f4ba83a116101b15780636382d9ad116101755780636382d9ad146104a757806364ce9fff146104d05780636ab3846b1461050d578063715018a61461053657806376ea6ee01461054d57610225565b80633f4ba83a146103f45780634225c32f1461040b5780634641257d146104345780635a9b0b891461044b5780635c975abb1461047c57610225565b806322b33175116101f857806322b331751461030d57806327d1b1a2146103385780632f5105f8146103615780633197cbb61461039e578063343e31f5146103c957610225565b80630a2642bf1461022a5780630e022923146102675780631959a002146102a45780631a39d8ef146102e2575b600080fd5b34801561023657600080fd5b50610251600480360381019061024c919061313f565b6108c4565b60405161025e9190613a25565b60405180910390f35b34801561027357600080fd5b5061028e60048036038101906102899190613070565b610a88565b60405161029b9190613a25565b60405180910390f35b3480156102b057600080fd5b506102cb60048036038101906102c69190613070565b610b71565b6040516102d9929190613a40565b60405180910390f35b3480156102ee57600080fd5b506102f7610ba2565b6040516103049190613a25565b60405180910390f35b34801561031957600080fd5b50610322610ba8565b60405161032f9190613a25565b60405180910390f35b34801561034457600080fd5b5061035f600480360381019061035a919061313f565b610bae565b005b34801561036d57600080fd5b5061038860048036038101906103839190613070565b610c78565b6040516103959190613a25565b60405180910390f35b3480156103aa57600080fd5b506103b3610d2d565b6040516103c09190613a25565b60405180910390f35b3480156103d557600080fd5b506103de610d33565b6040516103eb9190613a25565b60405180910390f35b34801561040057600080fd5b50610409610d39565b005b34801561041757600080fd5b50610432600480360381019061042d919061313f565b610dbf565b005b34801561044057600080fd5b50610449610e89565b005b34801561045757600080fd5b50610460611254565b60405161047397969594939291906139a8565b60405180910390f35b34801561048857600080fd5b506104916113fc565b60405161049e91906136b5565b60405180910390f35b3480156104b357600080fd5b506104ce60048036038101906104c99190613099565b611413565b005b3480156104dc57600080fd5b506104f760048036038101906104f29190613070565b6115c8565b60405161050491906136b5565b60405180910390f35b34801561051957600080fd5b50610534600480360381019061052f919061313f565b611621565b005b34801561054257600080fd5b5061054b6116f6565b005b34801561055957600080fd5b50610574600480360381019061056f919061313f565b61177e565b005b34801561058257600080fd5b5061058b611853565b6040516105989190613a25565b60405180910390f35b3480156105ad57600080fd5b506105b6611859565b005b3480156105c457600080fd5b506105df60048036038101906105da9190613070565b6118df565b6040516105ec9190613a25565b60405180910390f35b34801561060157600080fd5b5061060a6119a4565b6040516106179190613603565b60405180910390f35b34801561062c57600080fd5b506106356119ce565b6040516106429190613a25565b60405180910390f35b34801561065757600080fd5b506106606119d4565b60405161066d91906136d0565b60405180910390f35b34801561068257600080fd5b5061069d60048036038101906106989190613070565b6119fa565b005b3480156106ab57600080fd5b506106c660048036038101906106c19190613070565b611bd7565b6040516106d39190613a25565b60405180910390f35b6106f660048036038101906106f1919061313f565b611c93565b005b34801561070457600080fd5b5061070d612181565b60405161071a91906136d0565b60405180910390f35b34801561072f57600080fd5b5061074a6004803603810190610745919061313f565b6121a7565b6040516107579190613603565b60405180910390f35b34801561076c57600080fd5b5061078760048036038101906107829190613070565b6121e6565b6040516107949190613a25565b60405180910390f35b3480156107a957600080fd5b506107c460048036038101906107bf919061313f565b612260565b005b3480156107d257600080fd5b506107ed60048036038101906107e8919061313f565b612329565b005b3480156107fb57600080fd5b506108046123f2565b6040516108119190613a25565b60405180910390f35b34801561082657600080fd5b50610841600480360381019061083c9190613070565b6123f8565b005b34801561084f57600080fd5b506108586124f0565b6040516108659190613a25565b60405180910390f35b34801561087a57600080fd5b506108836124f6565b60405161089091906136eb565b60405180910390f35b3480156108a557600080fd5b506108ae61251c565b6040516108bb9190613a25565b60405180910390f35b6000600482106108d357600080fd5b600073ffffffffffffffffffffffffffffffffffffffff16600260009054906101000a900473ffffffffffffffffffffffffffffffffffffffff1673ffffffffffffffffffffffffffffffffffffffff16141561098757610980670de0b6b3a7640000600d8460048110610970577f4e487b7100000000000000000000000000000000000000000000000000000000600052603260045260246000fd5b015461252990919063ffffffff16565b9050610a83565b610a80600260009054906101000a900473ffffffffffffffffffffffffffffffffffffffff1673ffffffffffffffffffffffffffffffffffffffff1663313ce5676040518163ffffffff1660e01b815260040160206040518083038186803b1580156109f257600080fd5b505afa158015610a06573d6000803e3d6000fd5b505050506040513d601f19601f82011682018060405250810190610a2a9190613191565b600a610a369190613c05565b600d8460048110610a70577f4e487b7100000000000000000000000000000000000000000000000000000000600052603260045260246000fd5b015461252990919063ffffffff16565b90505b919050565b600080600c60009054906101000a900473ffffffffffffffffffffffffffffffffffffffff1673ffffffffffffffffffffffffffffffffffffffff16636002de67846011546012546040518463ffffffff1660e01b8152600401610aee9392919061367e565b60206040518083038186803b158015610b0657600080fd5b505afa158015610b1a573d6000803e3d6000fd5b505050506040513d601f19601f82011682018060405250810190610b3e9190613168565b90506000811415610b53576000915050610b6c565b610b68600182610b639190613d7d565b6108c4565b9150505b919050565b600a6020528060005260406000206000915090508060000154908060010160009054906101000a900460ff16905082565b60095481565b60125481565b610bb661253f565b73ffffffffffffffffffffffffffffffffffffffff16610bd46119a4565b73ffffffffffffffffffffffffffffffffffffffff1614610c2a576040517f08c379a0000000000000000000000000000000000000000000000000000000008152600401610c21906138a8565b60405180910390fd5b6004544210610c6e576040517f08c379a0000000000000000000000000000000000000000000000000000000008152600401610c6590613848565b60405180910390fd5b8060088190555050565b600060075460095411610c8e5760009050610d28565b6000610c99836121e6565b90506000610ccc670de0b6b3a7640000610cbe8460075461252990919063ffffffff16565b61254790919063ffffffff16565b9050610d2381600a60008773ffffffffffffffffffffffffffffffffffffffff1673ffffffffffffffffffffffffffffffffffffffff1681526020019081526020016000206000015461255d90919063ffffffff16565b925050505b919050565b60055481565b60115481565b610d4161253f565b73ffffffffffffffffffffffffffffffffffffffff16610d5f6119a4565b73ffffffffffffffffffffffffffffffffffffffff1614610db5576040517f08c379a0000000000000000000000000000000000000000000000000000000008152600401610dac906138a8565b60405180910390fd5b610dbd612573565b565b610dc761253f565b73ffffffffffffffffffffffffffffffffffffffff16610de56119a4565b73ffffffffffffffffffffffffffffffffffffffff1614610e3b576040517f08c379a0000000000000000000000000000000000000000000000000000000008152600401610e32906138a8565b60405180910390fd5b6004544210610e7f576040517f08c379a0000000000000000000000000000000000000000000000000000000008152600401610e7690613848565b60405180910390fd5b8060078190555050565b60026000541415610ecf576040517f08c379a0000000000000000000000000000000000000000000000000000000008152600401610ec690613968565b60405180910390fd5b60026000819055506006544211610f1b576040517f08c379a0000000000000000000000000000000000000000000000000000000008152600401610f12906138c8565b60405180910390fd5b6000600a60003373ffffffffffffffffffffffffffffffffffffffff1673ffffffffffffffffffffffffffffffffffffffff1681526020019081526020016000206000015411610fa0576040517f08c379a0000000000000000000000000000000000000000000000000000000008152600401610f9790613888565b60405180910390fd5b600a60003373ffffffffffffffffffffffffffffffffffffffff1673ffffffffffffffffffffffffffffffffffffffff16815260200190815260200160002060010160009054906101000a900460ff1615611030576040517f08c379a000000000000000000000000000000000000000000000000000000000815260040161102790613988565b60405180910390fd5b6110386113fc565b15611078576040517f08c379a000000000000000000000000000000000000000000000000000000000815260040161106f90613808565b60405180910390fd5b6000611083336118df565b9050600061109033610c78565b90506110df3383600360009054906101000a900473ffffffffffffffffffffffffffffffffffffffff1673ffffffffffffffffffffffffffffffffffffffff166126159092919063ffffffff16565b600081111561119d57600073ffffffffffffffffffffffffffffffffffffffff16600260009054906101000a900473ffffffffffffffffffffffffffffffffffffffff1673ffffffffffffffffffffffffffffffffffffffff16141561114e57611149338261269b565b61119c565b61119b3382600260009054906101000a900473ffffffffffffffffffffffffffffffffffffffff1673ffffffffffffffffffffffffffffffffffffffff166126159092919063ffffffff16565b5b5b6001600a60003373ffffffffffffffffffffffffffffffffffffffff1673ffffffffffffffffffffffffffffffffffffffff16815260200190815260200160002060010160006101000a81548160ff0219169083151502179055503373ffffffffffffffffffffffffffffffffffffffff167f71bab65ced2e5750775a0613be067df48ef06cf92a496ebf7663ae06609249548383604051611240929190613a69565b60405180910390a250506001600081905550565b61125c612f4c565b611264612f4c565b6000806000806000611274612f4c565b600073ffffffffffffffffffffffffffffffffffffffff16600260009054906101000a900473ffffffffffffffffffffffffffffffffffffffff1673ffffffffffffffffffffffffffffffffffffffff161415611375576040518060800160405280600073ffffffffffffffffffffffffffffffffffffffff168152602001601281526020016040518060400160405280600b81526020017f4b6172646961436861696e00000000000000000000000000000000000000000081525081526020016040518060400160405280600381526020017f4b4149000000000000000000000000000000000000000000000000000000000081525081525090506113a3565b6113a0600260009054906101000a900473ffffffffffffffffffffffffffffffffffffffff166127c1565b90505b60006113d0600360009054906101000a900473ffffffffffffffffffffffffffffffffffffffff166127c1565b905081816004546005546006546008546007549850985098509850985098509850505090919293949596565b6000600160149054906101000a900460ff16905090565b61141b61253f565b73ffffffffffffffffffffffffffffffffffffffff166114396119a4565b73ffffffffffffffffffffffffffffffffffffffff161461148f576040517f08c379a0000000000000000000000000000000000000000000000000000000008152600401611486906138a8565b60405180910390fd5b600073ffffffffffffffffffffffffffffffffffffffff168273ffffffffffffffffffffffffffffffffffffffff161415611510578073ffffffffffffffffffffffffffffffffffffffff166108fc479081150290604051600060405180830381858888f1935050505015801561150a573d6000803e3d6000fd5b506115c4565b6115c3818373ffffffffffffffffffffffffffffffffffffffff166370a08231306040518263ffffffff1660e01b815260040161154d9190613603565b60206040518083038186803b15801561156557600080fd5b505afa158015611579573d6000803e3d6000fd5b505050506040513d601f19601f8201168201806040525081019061159d9190613168565b8473ffffffffffffffffffffffffffffffffffffffff166126159092919063ffffffff16565b5b5050565b6000600a60008373ffffffffffffffffffffffffffffffffffffffff1673ffffffffffffffffffffffffffffffffffffffff16815260200190815260200160002060010160009054906101000a900460ff169050919050565b61162961253f565b73ffffffffffffffffffffffffffffffffffffffff166116476119a4565b73ffffffffffffffffffffffffffffffffffffffff161461169d576040517f08c379a0000000000000000000000000000000000000000000000000000000008152600401611694906138a8565b60405180910390fd5b42811180156116ad575060065481105b6116ec576040517f08c379a00000000000000000000000000000000000000000000000000000000081526004016116e3906137c8565b60405180910390fd5b8060058190555050565b6116fe61253f565b73ffffffffffffffffffffffffffffffffffffffff1661171c6119a4565b73ffffffffffffffffffffffffffffffffffffffff1614611772576040517f08c379a0000000000000000000000000000000000000000000000000000000008152600401611769906138a8565b60405180910390fd5b61177c600061298b565b565b61178661253f565b73ffffffffffffffffffffffffffffffffffffffff166117a46119a4565b73ffffffffffffffffffffffffffffffffffffffff16146117fa576040517f08c379a00000000000000000000000000000000000000000000000000000000081526004016117f1906138a8565b60405180910390fd5b428111801561180a575060055481115b611849576040517f08c379a0000000000000000000000000000000000000000000000000000000008152600401611840906137c8565b60405180910390fd5b8060068190555050565b60045481565b61186161253f565b73ffffffffffffffffffffffffffffffffffffffff1661187f6119a4565b73ffffffffffffffffffffffffffffffffffffffff16146118d5576040517f08c379a00000000000000000000000000000000000000000000000000000000081526004016118cc906138a8565b60405180910390fd5b6118dd612a51565b565b600060075460095411156119315760006118f8836121e6565b9050611929670de0b6b3a764000061191b8360085461252990919063ffffffff16565b61254790919063ffffffff16565b91505061199f565b61199c60075461198e600854600a60008773ffffffffffffffffffffffffffffffffffffffff1673ffffffffffffffffffffffffffffffffffffffff1681526020019081526020016000206000015461252990919063ffffffff16565b61254790919063ffffffff16565b90505b919050565b6000600160009054906101000a900473ffffffffffffffffffffffffffffffffffffffff16905090565b60075481565b600260009054906101000a900473ffffffffffffffffffffffffffffffffffffffff1681565b611a0261253f565b73ffffffffffffffffffffffffffffffffffffffff16611a206119a4565b73ffffffffffffffffffffffffffffffffffffffff1614611a76576040517f08c379a0000000000000000000000000000000000000000000000000000000008152600401611a6d906138a8565b60405180910390fd5b600073ffffffffffffffffffffffffffffffffffffffff16600260009054906101000a900473ffffffffffffffffffffffffffffffffffffffff1673ffffffffffffffffffffffffffffffffffffffff161415611adc57611ad7814761269b565b611bd4565b611bd381600260009054906101000a900473ffffffffffffffffffffffffffffffffffffffff1673ffffffffffffffffffffffffffffffffffffffff166370a08231306040518263ffffffff1660e01b8152600401611b3b9190613603565b60206040518083038186803b158015611b5357600080fd5b505afa158015611b67573d6000803e3d6000fd5b505050506040513d601f19601f82011682018060405250810190611b8b9190613168565b600260009054906101000a900473ffffffffffffffffffffffffffffffffffffffff1673ffffffffffffffffffffffffffffffffffffffff166126159092919063ffffffff16565b5b50565b6000600c60009054906101000a900473ffffffffffffffffffffffffffffffffffffffff1673ffffffffffffffffffffffffffffffffffffffff16636002de67836011546012546040518463ffffffff1660e01b8152600401611c3c9392919061367e565b60206040518083038186803b158015611c5457600080fd5b505afa158015611c68573d6000803e3d6000fd5b505050506040513d601f19601f82011682018060405250810190611c8c9190613168565b9050919050565b60026000541415611cd9576040517f08c379a0000000000000000000000000000000000000000000000000000000008152600401611cd090613968565b60405180910390fd5b60026000819055508060045442118015611cf4575060055442105b611d33576040517f08c379a0000000000000000000000000000000000000000000000000000000008152600401611d2a90613788565b60405180910390fd5b60008111611d76576040517f08c379a0000000000000000000000000000000000000000000000000000000008152600401611d6d90613728565b60405180910390fd5b611d7e6113fc565b15611dbe576040517f08c379a0000000000000000000000000000000000000000000000000000000008152600401611db590613808565b60405180910390fd5b6000611dc933612af3565b9050600a60003373ffffffffffffffffffffffffffffffffffffffff1673ffffffffffffffffffffffffffffffffffffffff168152602001908152602001600020600001548111611e4f576040517f08c379a0000000000000000000000000000000000000000000000000000000008152600401611e4690613828565b60405180910390fd5b6000600a60003373ffffffffffffffffffffffffffffffffffffffff1673ffffffffffffffffffffffffffffffffffffffff1681526020019081526020016000206000015482611e9f9190613d7d565b9050600084905084821015611eb2578190505b600073ffffffffffffffffffffffffffffffffffffffff16600260009054906101000a900473ffffffffffffffffffffffffffffffffffffffff1673ffffffffffffffffffffffffffffffffffffffff161415611f6f5780341015611f4c576040517f08c379a0000000000000000000000000000000000000000000000000000000008152600401611f4390613868565b60405180910390fd5b80341115611f6a57611f69338234611f649190613d7d565b61269b565b5b611fbf565b611fbe333083600260009054906101000a900473ffffffffffffffffffffffffffffffffffffffff1673ffffffffffffffffffffffffffffffffffffffff16612c30909392919063ffffffff16565b5b6000600a60003373ffffffffffffffffffffffffffffffffffffffff1673ffffffffffffffffffffffffffffffffffffffff16815260200190815260200160002060000154141561206e57600b339080600181540180825580915050600190039060005260206000200160009091909190916101000a81548173ffffffffffffffffffffffffffffffffffffffff021916908373ffffffffffffffffffffffffffffffffffffffff1602179055505b6120c381600a60003373ffffffffffffffffffffffffffffffffffffffff1673ffffffffffffffffffffffffffffffffffffffff16815260200190815260200160002060000154612cb990919063ffffffff16565b600a60003373ffffffffffffffffffffffffffffffffffffffff1673ffffffffffffffffffffffffffffffffffffffff1681526020019081526020016000206000018190555061211e81600954612cb990919063ffffffff16565b6009819055503373ffffffffffffffffffffffffffffffffffffffff167fe1fffcc4923d04b559f4d29a8bfc6cda04eb5b0d3c460751c2402c5c5cc9109c8260405161216a9190613a25565b60405180910390a250505050600160008190555050565b600360009054906101000a900473ffffffffffffffffffffffffffffffffffffffff1681565b600b81815481106121b757600080fd5b906000526020600020016000915054906101000a900473ffffffffffffffffffffffffffffffffffffffff1681565b600061225960095461224b670de0b6b3a7640000600a60008773ffffffffffffffffffffffffffffffffffffffff1673ffffffffffffffffffffffffffffffffffffffff1681526020019081526020016000206000015461252990919063ffffffff16565b61254790919063ffffffff16565b9050919050565b61226861253f565b73ffffffffffffffffffffffffffffffffffffffff166122866119a4565b73ffffffffffffffffffffffffffffffffffffffff16146122dc576040517f08c379a00000000000000000000000000000000000000000000000000000000081526004016122d3906138a8565b60405180910390fd5b6000811161231f576040517f08c379a0000000000000000000000000000000000000000000000000000000008152600401612316906138e8565b60405180910390fd5b8060128190555050565b61233161253f565b73ffffffffffffffffffffffffffffffffffffffff1661234f6119a4565b73ffffffffffffffffffffffffffffffffffffffff16146123a5576040517f08c379a000000000000000000000000000000000000000000000000000000000815260040161239c906138a8565b60405180910390fd5b600081116123e8576040517f08c379a00000000000000000000000000000000000000000000000000000000081526004016123df906138e8565b60405180910390fd5b8060118190555050565b60085481565b61240061253f565b73ffffffffffffffffffffffffffffffffffffffff1661241e6119a4565b73ffffffffffffffffffffffffffffffffffffffff1614612474576040517f08c379a000000000000000000000000000000000000000000000000000000000815260040161246b906138a8565b60405180910390fd5b600073ffffffffffffffffffffffffffffffffffffffff168173ffffffffffffffffffffffffffffffffffffffff1614156124e4576040517f08c379a00000000000000000000000000000000000000000000000000000000081526004016124db90613768565b60405180910390fd5b6124ed8161298b565b50565b60065481565b600c60009054906101000a900473ffffffffffffffffffffffffffffffffffffffff1681565b6000600b80549050905090565b600081836125379190613d23565b905092915050565b600033905090565b600081836125559190613b81565b905092915050565b6000818361256b9190613d7d565b905092915050565b61257b6113fc565b6125ba576040517f08c379a00000000000000000000000000000000000000000000000000000000081526004016125b190613748565b60405180910390fd5b6000600160146101000a81548160ff0219169083151502179055507f5db9ee0a495bf2e6ff9c91a7834c1ba4fdd244a5e8aa4e537bd38aeae4b073aa6125fe61253f565b60405161260b9190613603565b60405180910390a1565b6126968363a9059cbb60e01b8484604051602401612634929190613655565b604051602081830303815290604052907bffffffffffffffffffffffffffffffffffffffffffffffffffffffff19166020820180517bffffffffffffffffffffffffffffffffffffffffffffffffffffffff8381831617835250505050612ccf565b505050565b60008273ffffffffffffffffffffffffffffffffffffffff1682600067ffffffffffffffff8111156126f6577f4e487b7100000000000000000000000000000000000000000000000000000000600052604160045260246000fd5b6040519080825280601f01601f1916602001820160405280156127285781602001600182028036833780820191505090505b5060405161273691906135ec565b60006040518083038185875af1925050503d8060008114612773576040519150601f19603f3d011682016040523d82523d6000602084013e612778565b606091505b50509050806127bc576040517f08c379a00000000000000000000000000000000000000000000000000000000081526004016127b390613928565b60405180910390fd5b505050565b6127c9612f4c565b60405180608001604052808373ffffffffffffffffffffffffffffffffffffffff1681526020018373ffffffffffffffffffffffffffffffffffffffff1663313ce5676040518163ffffffff1660e01b815260040160206040518083038186803b15801561283657600080fd5b505afa15801561284a573d6000803e3d6000fd5b505050506040513d601f19601f8201168201806040525081019061286e9190613191565b60ff1681526020018373ffffffffffffffffffffffffffffffffffffffff166306fdde036040518163ffffffff1660e01b815260040160006040518083038186803b1580156128bc57600080fd5b505afa1580156128d0573d6000803e3d6000fd5b505050506040513d6000823e3d601f19601f820116820180604052508101906128f991906130fe565b81526020018373ffffffffffffffffffffffffffffffffffffffff166395d89b416040518163ffffffff1660e01b815260040160006040518083038186803b15801561294457600080fd5b505afa158015612958573d6000803e3d6000fd5b505050506040513d6000823e3d601f19601f8201168201806040525081019061298191906130fe565b8152509050919050565b6000600160009054906101000a900473ffffffffffffffffffffffffffffffffffffffff16905081600160006101000a81548173ffffffffffffffffffffffffffffffffffffffff021916908373ffffffffffffffffffffffffffffffffffffffff1602179055508173ffffffffffffffffffffffffffffffffffffffff168173ffffffffffffffffffffffffffffffffffffffff167f8be0079c531659141344cd1fd0a4f28419497f9722a3daafe3b4186f6b6457e060405160405180910390a35050565b612a596113fc565b15612a99576040517f08c379a0000000000000000000000000000000000000000000000000000000008152600401612a9090613808565b60405180910390fd5b60018060146101000a81548160ff0219169083151502179055507f62e78cea01bee320cd4e420270b5ea74000d11b0c9f74754ebdbfc544b05a258612adc61253f565b604051612ae99190613603565b60405180910390a1565b600080601154118015612b095750601154601254115b612b48576040517f08c379a0000000000000000000000000000000000000000000000000000000008152600401612b3f906137a8565b60405180910390fd5b6000600c60009054906101000a900473ffffffffffffffffffffffffffffffffffffffff1673ffffffffffffffffffffffffffffffffffffffff16636002de67846011546012546040518463ffffffff1660e01b8152600401612bad9392919061367e565b60206040518083038186803b158015612bc557600080fd5b505afa158015612bd9573d6000803e3d6000fd5b505050506040513d601f19601f82011682018060405250810190612bfd9190613168565b90506000811415612c12576000915050612c2b565b612c27600182612c229190613d7d565b6108c4565b9150505b919050565b612cb3846323b872dd60e01b858585604051602401612c519392919061361e565b604051602081830303815290604052907bffffffffffffffffffffffffffffffffffffffffffffffffffffffff19166020820180517bffffffffffffffffffffffffffffffffffffffffffffffffffffffff8381831617835250505050612ccf565b50505050565b60008183612cc79190613b2b565b905092915050565b6000612d31826040518060400160405280602081526020017f5361666545524332303a206c6f772d6c6576656c2063616c6c206661696c65648152508573ffffffffffffffffffffffffffffffffffffffff16612d969092919063ffffffff16565b9050600081511115612d915780806020019051810190612d5191906130d5565b612d90576040517f08c379a0000000000000000000000000000000000000000000000000000000008152600401612d8790613948565b60405180910390fd5b5b505050565b6060612da58484600085612dae565b90509392505050565b606082471015612df3576040517f08c379a0000000000000000000000000000000000000000000000000000000008152600401612dea906137e8565b60405180910390fd5b612dfc85612ec2565b612e3b576040517f08c379a0000000000000000000000000000000000000000000000000000000008152600401612e3290613908565b60405180910390fd5b6000808673ffffffffffffffffffffffffffffffffffffffff168587604051612e6491906135ec565b60006040518083038185875af1925050503d8060008114612ea1576040519150601f19603f3d011682016040523d82523d6000602084013e612ea6565b606091505b5091509150612eb6828286612ee5565b92505050949350505050565b6000808273ffffffffffffffffffffffffffffffffffffffff163b119050919050565b60608315612ef557829050612f45565b600083511115612f085782518084602001fd5b816040517f08c379a0000000000000000000000000000000000000000000000000000000008152600401612f3c9190613706565b60405180910390fd5b9392505050565b6040518060800160405280600073ffffffffffffffffffffffffffffffffffffffff1681526020016000815260200160608152602001606081525090565b6000612f9d612f9884613ab7565b613a92565b905082815260208101848484011115612fb557600080fd5b612fc0848285613e60565b509392505050565b600081359050612fd78161433b565b92915050565b600081359050612fec81614352565b92915050565b60008151905061300181614369565b92915050565b600082601f83011261301857600080fd5b8151613028848260208601612f8a565b91505092915050565b60008135905061304081614380565b92915050565b60008151905061305581614380565b92915050565b60008151905061306a81614397565b92915050565b60006020828403121561308257600080fd5b600061309084828501612fc8565b91505092915050565b600080604083850312156130ac57600080fd5b60006130ba85828601612fc8565b92505060206130cb85828601612fdd565b9150509250929050565b6000602082840312156130e757600080fd5b60006130f584828501612ff2565b91505092915050565b60006020828403121561311057600080fd5b600082015167ffffffffffffffff81111561312a57600080fd5b61313684828501613007565b91505092915050565b60006020828403121561315157600080fd5b600061315f84828501613031565b91505092915050565b60006020828403121561317a57600080fd5b600061318884828501613046565b91505092915050565b6000602082840312156131a357600080fd5b60006131b18482850161305b565b91505092915050565b6131c381613db1565b82525050565b6131d281613dd5565b82525050565b60006131e382613ae8565b6131ed8185613afe565b93506131fd818560208601613e60565b80840191505092915050565b61321281613e18565b82525050565b61322181613e18565b82525050565b61323081613e3c565b82525050565b600061324182613af3565b61324b8185613b09565b935061325b818560208601613e60565b61326481613f51565b840191505092915050565b600061327a82613af3565b6132848185613b1a565b9350613294818560208601613e60565b61329d81613f51565b840191505092915050565b60006132b5601083613b1a565b91506132c082613f6f565b602082019050919050565b60006132d8601483613b1a565b91506132e382613f98565b602082019050919050565b60006132fb602683613b1a565b915061330682613fc1565b604082019050919050565b600061331e601083613b1a565b915061332982614010565b602082019050919050565b6000613341601383613b1a565b915061334c82614039565b602082019050919050565b6000613364600e83613b1a565b915061336f82614062565b602082019050919050565b6000613387602683613b1a565b91506133928261408b565b604082019050919050565b60006133aa601083613b1a565b91506133b5826140da565b602082019050919050565b60006133cd601583613b1a565b91506133d882614103565b602082019050919050565b60006133f0600283613b1a565b91506133fb8261412c565b602082019050919050565b6000613413601183613b1a565b915061341e82614155565b602082019050919050565b6000613436601683613b1a565b91506134418261417e565b602082019050919050565b6000613459602083613b1a565b9150613464826141a7565b602082019050919050565b600061347c601083613b1a565b9150613487826141d0565b602082019050919050565b600061349f600a83613b1a565b91506134aa826141f9565b602082019050919050565b60006134c2601d83613b1a565b91506134cd82614222565b602082019050919050565b60006134e5602383613b1a565b91506134f08261424b565b604082019050919050565b6000613508602a83613b1a565b91506135138261429a565b604082019050919050565b600061352b601f83613b1a565b9150613536826142e9565b602082019050919050565b600061354e601283613b1a565b915061355982614312565b602082019050919050565b600060808301600083015161357c6000860182613209565b50602083015161358f60208601826135ce565b50604083015184820360408601526135a78282613236565b915050606083015184820360608601526135c18282613236565b9150508091505092915050565b6135d781613e01565b82525050565b6135e681613e01565b82525050565b60006135f882846131d8565b915081905092915050565b600060208201905061361860008301846131ba565b92915050565b600060608201905061363360008301866131ba565b61364060208301856131ba565b61364d60408301846135dd565b949350505050565b600060408201905061366a60008301856131ba565b61367760208301846135dd565b9392505050565b600060608201905061369360008301866131ba565b6136a060208301856135dd565b6136ad60408301846135dd565b949350505050565b60006020820190506136ca60008301846131c9565b92915050565b60006020820190506136e56000830184613218565b92915050565b60006020820190506137006000830184613227565b92915050565b60006020820190508181036000830152613720818461326f565b905092915050565b60006020820190508181036000830152613741816132a8565b9050919050565b60006020820190508181036000830152613761816132cb565b9050919050565b60006020820190508181036000830152613781816132ee565b9050919050565b600060208201905081810360008301526137a181613311565b9050919050565b600060208201905081810360008301526137c181613334565b9050919050565b600060208201905081810360008301526137e181613357565b9050919050565b600060208201905081810360008301526138018161337a565b9050919050565b600060208201905081810360008301526138218161339d565b9050919050565b60006020820190508181036000830152613841816133c0565b9050919050565b60006020820190508181036000830152613861816133e3565b9050919050565b6000602082019050818103600083015261388181613406565b9050919050565b600060208201905081810360008301526138a181613429565b9050919050565b600060208201905081810360008301526138c18161344c565b9050919050565b600060208201905081810360008301526138e18161346f565b9050919050565b6000602082019050818103600083015261390181613492565b9050919050565b60006020820190508181036000830152613921816134b5565b9050919050565b60006020820190508181036000830152613941816134d8565b9050919050565b60006020820190508181036000830152613961816134fb565b9050919050565b600060208201905081810360008301526139818161351e565b9050919050565b600060208201905081810360008301526139a181613541565b9050919050565b600060e08201905081810360008301526139c2818a613564565b905081810360208301526139d68189613564565b90506139e560408301886135dd565b6139f260608301876135dd565b6139ff60808301866135dd565b613a0c60a08301856135dd565b613a1960c08301846135dd565b98975050505050505050565b6000602082019050613a3a60008301846135dd565b92915050565b6000604082019050613a5560008301856135dd565b613a6260208301846131c9565b9392505050565b6000604082019050613a7e60008301856135dd565b613a8b60208301846135dd565b9392505050565b6000613a9c613aad565b9050613aa88282613e93565b919050565b6000604051905090565b600067ffffffffffffffff821115613ad257613ad1613f22565b5b613adb82613f51565b9050602081019050919050565b600081519050919050565b600081519050919050565b600081905092915050565b600082825260208201905092915050565b600082825260208201905092915050565b6000613b3682613e01565b9150613b4183613e01565b9250827fffffffffffffffffffffffffffffffffffffffffffffffffffffffffffffffff03821115613b7657613b75613ec4565b5b828201905092915050565b6000613b8c82613e01565b9150613b9783613e01565b925082613ba757613ba6613ef3565b5b828204905092915050565b6000808291508390505b6001851115613bfc57808604811115613bd857613bd7613ec4565b5b6001851615613be75780820291505b8081029050613bf585613f62565b9450613bbc565b94509492505050565b6000613c1082613e01565b9150613c1b83613e0b565b9250613c487fffffffffffffffffffffffffffffffffffffffffffffffffffffffffffffffff8484613c50565b905092915050565b600082613c605760019050613d1c565b81613c6e5760009050613d1c565b8160018114613c845760028114613c8e57613cbd565b6001915050613d1c565b60ff841115613ca057613c9f613ec4565b5b8360020a915084821115613cb757613cb6613ec4565b5b50613d1c565b5060208310610133831016604e8410600b8410161715613cf25782820a905083811115613ced57613cec613ec4565b5b613d1c565b613cff8484846001613bb2565b92509050818404811115613d1657613d15613ec4565b5b81810290505b9392505050565b6000613d2e82613e01565b9150613d3983613e01565b9250817fffffffffffffffffffffffffffffffffffffffffffffffffffffffffffffffff0483118215151615613d7257613d71613ec4565b5b828202905092915050565b6000613d8882613e01565b9150613d9383613e01565b925082821015613da657613da5613ec4565b5b828203905092915050565b6000613dbc82613de1565b9050919050565b6000613dce82613de1565b9050919050565b60008115159050919050565b600073ffffffffffffffffffffffffffffffffffffffff82169050919050565b6000819050919050565b600060ff82169050919050565b6000613e2382613e2a565b9050919050565b6000613e3582613de1565b9050919050565b6000613e4782613e4e565b9050919050565b6000613e5982613de1565b9050919050565b60005b83811015613e7e578082015181840152602081019050613e63565b83811115613e8d576000848401525b50505050565b613e9c82613f51565b810181811067ffffffffffffffff82111715613ebb57613eba613f22565b5b80604052505050565b7f4e487b7100000000000000000000000000000000000000000000000000000000600052601160045260246000fd5b7f4e487b7100000000000000000000000000000000000000000000000000000000600052601260045260246000fd5b7f4e487b7100000000000000000000000000000000000000000000000000000000600052604160045260246000fd5b6000601f19601f8301169050919050565b60008160011c9050919050565b7f6e656564205f616d6f756e74203e203000000000000000000000000000000000600082015250565b7f5061757361626c653a206e6f7420706175736564000000000000000000000000600082015250565b7f4f776e61626c653a206e6577206f776e657220697320746865207a65726f206160008201527f6464726573730000000000000000000000000000000000000000000000000000602082015250565b7f6e6f742072616973696e672074696d6500000000000000000000000000000000600082015250565b7f536e617073686f74206964206e6f742073657400000000000000000000000000600082015250565b7f74696d6520696e76616c69642121000000000000000000000000000000000000600082015250565b7f416464726573733a20696e73756666696369656e742062616c616e636520666f60008201527f722063616c6c0000000000000000000000000000000000000000000000000000602082015250565b7f5061757361626c653a2070617573656400000000000000000000000000000000600082015250565b7f6e6f7420656c696769626c6520616d6f756e7421210000000000000000000000600082015250565b7f6e6f000000000000000000000000000000000000000000000000000000000000600082015250565b7f616d6f756e74206e6f7420656e6f756768000000000000000000000000000000600082015250565b7f6861766520796f75207061727469636970617465643f00000000000000000000600082015250565b7f4f776e61626c653a2063616c6c6572206973206e6f7420746865206f776e6572600082015250565b7f6e6f7420686172766573742074696d6500000000000000000000000000000000600082015250565b7f496420696e76616c696400000000000000000000000000000000000000000000600082015250565b7f416464726573733a2063616c6c20746f206e6f6e2d636f6e7472616374000000600082015250565b7f5472616e7366657248656c7065723a204b41495f5452414e534645525f46414960008201527f4c45440000000000000000000000000000000000000000000000000000000000602082015250565b7f5361666545524332303a204552433230206f7065726174696f6e20646964206e60008201527f6f74207375636365656400000000000000000000000000000000000000000000602082015250565b7f5265656e7472616e637947756172643a207265656e7472616e742063616c6c00600082015250565b7f6e6f7468696e6720746f20686172766573740000000000000000000000000000600082015250565b61434481613db1565b811461434f57600080fd5b50565b61435b81613dc3565b811461436657600080fd5b50565b61437281613dd5565b811461437d57600080fd5b50565b61438981613e01565b811461439457600080fd5b50565b6143a081613e0b565b81146143ab57600080fd5b5056fea26469706673582212201f95f00225d51b9096abc9867ee32122e1d4edca1c11724202a98190f557581a64736f6c63430008040033",
  "linkReferences": {},
  "deployedLinkReferences": {}
}