{
  "_format": "hh-sol-artifact-1",
  "contractName": "FundRaising",
  "sourceName": "contracts/launchpad/FundRaising.sol",
  "abi": [
    {
      "inputs": [
        {
          "internalType": "contract ERC20",
          "name": "_buyToken",
          "type": "address"
        },
        {
          "internalType": "contract ERC20",
          "name": "_offeringToken",
          "type": "address"
        },
        {
          "internalType": "uint256",
          "name": "_startTime",
          "type": "uint256"
        },
        {
          "internalType": "uint256",
          "name": "_endTime",
          "type": "uint256"
        },
        {
          "internalType": "uint256",
          "name": "_harvestTime",
          "type": "uint256"
        },
        {
          "internalType": "uint256",
          "name": "_offeringAmount",
          "type": "uint256"
        },
        {
          "internalType": "uint256",
          "name": "_raisingAmount",
          "type": "uint256"
        },
        {
          "internalType": "contract ITierSystem",
          "name": "_tierSystem",
          "type": "address"
        },
        {
          "internalType": "uint256",
          "name": "_snapshotFrom",
          "type": "uint256"
        },
        {
          "internalType": "uint256",
          "name": "_snapshotTo",
          "type": "uint256"
        }
      ],
      "stateMutability": "nonpayable",
      "type": "constructor"
    },
    {
      "anonymous": false,
      "inputs": [
        {
          "indexed": true,
          "internalType": "address",
          "name": "user",
          "type": "address"
        },
        {
          "indexed": false,
          "internalType": "uint256",
          "name": "amount",
          "type": "uint256"
        }
      ],
      "name": "Deposit",
      "type": "event"
    },
    {
      "anonymous": false,
      "inputs": [
        {
          "indexed": true,
          "internalType": "address",
          "name": "user",
          "type": "address"
        },
        {
          "indexed": false,
          "internalType": "uint256",
          "name": "offeringAmount",
          "type": "uint256"
        },
        {
          "indexed": false,
          "internalType": "uint256",
          "name": "excessAmount",
          "type": "uint256"
        }
      ],
      "name": "Harvest",
      "type": "event"
    },
    {
      "anonymous": false,
      "inputs": [
        {
          "indexed": true,
          "internalType": "address",
          "name": "previousOwner",
          "type": "address"
        },
        {
          "indexed": true,
          "internalType": "address",
          "name": "newOwner",
          "type": "address"
        }
      ],
      "name": "OwnershipTransferred",
      "type": "event"
    },
    {
      "anonymous": false,
      "inputs": [
        {
          "indexed": false,
          "internalType": "address",
          "name": "account",
          "type": "address"
        }
      ],
      "name": "Paused",
      "type": "event"
    },
    {
      "anonymous": false,
      "inputs": [
        {
          "indexed": false,
          "internalType": "address",
          "name": "account",
          "type": "address"
        }
      ],
      "name": "Unpaused",
      "type": "event"
    },
    {
      "inputs": [
        {
          "internalType": "uint256",
          "name": "",
          "type": "uint256"
        }
      ],
      "name": "addressList",
      "outputs": [
        {
          "internalType": "address",
          "name": "",
          "type": "address"
        }
      ],
      "stateMutability": "view",
      "type": "function"
    },
    {
      "inputs": [
        {
          "internalType": "uint256",
          "name": "",
          "type": "uint256"
        }
      ],
      "name": "allocations",
      "outputs": [
        {
          "internalType": "uint256",
          "name": "",
          "type": "uint256"
        }
      ],
      "stateMutability": "view",
      "type": "function"
    },
    {
      "inputs": [],
      "name": "buyToken",
      "outputs": [
        {
          "internalType": "contract ERC20",
          "name": "",
          "type": "address"
        }
      ],
      "stateMutability": "view",
      "type": "function"
    },
    {
      "inputs": [
        {
          "internalType": "uint256",
          "name": "_amount",
          "type": "uint256"
        }
      ],
      "name": "deposit",
      "outputs": [],
      "stateMutability": "payable",
      "type": "function"
    },
    {
      "inputs": [
        {
          "internalType": "address",
          "name": "token",
          "type": "address"
        },
        {
          "internalType": "address payable",
          "name": "to",
          "type": "address"
        }
      ],
      "name": "emergencyWithdraw",
      "outputs": [],
      "stateMutability": "nonpayable",
      "type": "function"
    },
    {
      "inputs": [],
      "name": "endTime",
      "outputs": [
        {
          "internalType": "uint256",
          "name": "",
          "type": "uint256"
        }
      ],
      "stateMutability": "view",
      "type": "function"
    },
    {
      "inputs": [
        {
          "internalType": "address",
          "name": "_destination",
          "type": "address"
        }
      ],
      "name": "finalWithdraw",
      "outputs": [],
      "stateMutability": "nonpayable",
      "type": "function"
    },
    {
      "inputs": [],
      "name": "getAddressListLength",
      "outputs": [
        {
          "internalType": "uint256",
          "name": "",
          "type": "uint256"
        }
      ],
      "stateMutability": "view",
      "type": "function"
    },
    {
      "inputs": [
        {
          "internalType": "address",
          "name": "_account",
          "type": "address"
        }
      ],
      "name": "getAllocation",
      "outputs": [
        {
          "internalType": "uint256",
          "name": "",
          "type": "uint256"
        }
      ],
      "stateMutability": "view",
      "type": "function"
    },
    {
      "inputs": [],
      "name": "getInfo",
      "outputs": [
        {
          "components": [
            {
              "internalType": "contract ERC20",
              "name": "token",
              "type": "address"
            },
            {
              "internalType": "uint256",
              "name": "decimals",
              "type": "uint256"
            },
            {
              "internalType": "string",
              "name": "name",
              "type": "string"
            },
            {
              "internalType": "string",
              "name": "symbol",
              "type": "string"
            }
          ],
          "internalType": "struct FundRaising.TokenInfo",
          "name": "",
          "type": "tuple"
        },
        {
          "components": [
            {
              "internalType": "contract ERC20",
              "name": "token",
              "type": "address"
            },
            {
              "internalType": "uint256",
              "name": "decimals",
              "type": "uint256"
            },
            {
              "internalType": "string",
              "name": "name",
              "type": "string"
            },
            {
              "internalType": "string",
              "name": "symbol",
              "type": "string"
            }
          ],
          "internalType": "struct FundRaising.TokenInfo",
          "name": "",
          "type": "tuple"
        },
        {
          "internalType": "uint256",
          "name": "",
          "type": "uint256"
        },
        {
          "internalType": "uint256",
          "name": "",
          "type": "uint256"
        },
        {
          "internalType": "uint256",
          "name": "",
          "type": "uint256"
        },
        {
          "internalType": "uint256",
          "name": "",
          "type": "uint256"
        },
        {
          "internalType": "uint256",
          "name": "",
          "type": "uint256"
        }
      ],
      "stateMutability": "view",
      "type": "function"
    },
    {
      "inputs": [
        {
          "internalType": "address",
          "name": "_user",
          "type": "address"
        }
      ],
      "name": "getOfferingAmount",
      "outputs": [
        {
          "internalType": "uint256",
          "name": "",
          "type": "uint256"
        }
      ],
      "stateMutability": "view",
      "type": "function"
    },
    {
      "inputs": [
        {
          "internalType": "address",
          "name": "_user",
          "type": "address"
        }
      ],
      "name": "getRefundingAmount",
      "outputs": [
        {
          "internalType": "uint256",
          "name": "",
          "type": "uint256"
        }
      ],
      "stateMutability": "view",
      "type": "function"
    },
    {
      "inputs": [
        {
          "internalType": "address",
          "name": "_account",
          "type": "address"
        }
      ],
      "name": "getTier",
      "outputs": [
        {
          "internalType": "uint256",
          "name": "",
          "type": "uint256"
        }
      ],
      "stateMutability": "view",
      "type": "function"
    },
    {
      "inputs": [
        {
          "internalType": "address",
          "name": "_user",
          "type": "address"
        }
      ],
      "name": "getUserAllocation",
      "outputs": [
        {
          "internalType": "uint256",
          "name": "",
          "type": "uint256"
        }
      ],
      "stateMutability": "view",
      "type": "function"
    },
    {
      "inputs": [],
      "name": "harvest",
      "outputs": [],
      "stateMutability": "nonpayable",
      "type": "function"
    },
    {
      "inputs": [],
      "name": "harvestTime",
      "outputs": [
        {
          "internalType": "uint256",
          "name": "",
          "type": "uint256"
        }
      ],
      "stateMutability": "view",
      "type": "function"
    },
    {
      "inputs": [
        {
          "internalType": "address",
          "name": "_user",
          "type": "address"
        }
      ],
      "name": "hasHarvest",
      "outputs": [
        {
          "internalType": "bool",
          "name": "",
          "type": "bool"
        }
      ],
      "stateMutability": "view",
      "type": "function"
    },
    {
      "inputs": [],
      "name": "offeringAmount",
      "outputs": [
        {
          "internalType": "uint256",
          "name": "",
          "type": "uint256"
        }
      ],
      "stateMutability": "view",
      "type": "function"
    },
    {
      "inputs": [],
      "name": "offeringToken",
      "outputs": [
        {
          "internalType": "contract ERC20",
          "name": "",
          "type": "address"
        }
      ],
      "stateMutability": "view",
      "type": "function"
    },
    {
      "inputs": [],
      "name": "owner",
      "outputs": [
        {
          "internalType": "address",
          "name": "",
          "type": "address"
        }
      ],
      "stateMutability": "view",
      "type": "function"
    },
    {
      "inputs": [],
      "name": "pause",
      "outputs": [],
      "stateMutability": "nonpayable",
      "type": "function"
    },
    {
      "inputs": [],
      "name": "paused",
      "outputs": [
        {
          "internalType": "bool",
          "name": "",
          "type": "bool"
        }
      ],
      "stateMutability": "view",
      "type": "function"
    },
    {
      "inputs": [],
      "name": "raisingAmount",
      "outputs": [
        {
          "internalType": "uint256",
          "name": "",
          "type": "uint256"
        }
      ],
      "stateMutability": "view",
      "type": "function"
    },
    {
      "inputs": [],
      "name": "renounceOwnership",
      "outputs": [],
      "stateMutability": "nonpayable",
      "type": "function"
    },
    {
      "inputs": [
        {
          "internalType": "uint256",
          "name": "_offerAmount",
          "type": "uint256"
        }
      ],
      "name": "setOfferingAmount",
      "outputs": [],
      "stateMutability": "nonpayable",
      "type": "function"
    },
    {
      "inputs": [
        {
          "internalType": "uint256",
          "name": "_raisingAmount",
          "type": "uint256"
        }
      ],
      "name": "setRaisingAmount",
      "outputs": [],
      "stateMutability": "nonpayable",
      "type": "function"
    },
    {
      "inputs": [
        {
          "internalType": "uint256",
          "name": "id",
          "type": "uint256"
        }
      ],
      "name": "setSnapshotFrom",
      "outputs": [],
      "stateMutability": "nonpayable",
      "type": "function"
    },
    {
      "inputs": [
        {
          "internalType": "uint256",
          "name": "id",
          "type": "uint256"
        }
      ],
      "name": "setSnapshotTo",
      "outputs": [],
      "stateMutability": "nonpayable",
      "type": "function"
    },
    {
      "inputs": [],
      "name": "snapshotFrom",
      "outputs": [
        {
          "internalType": "uint256",
          "name": "",
          "type": "uint256"
        }
      ],
      "stateMutability": "view",
      "type": "function"
    },
    {
      "inputs": [],
      "name": "snapshotTo",
      "outputs": [
        {
          "internalType": "uint256",
          "name": "",
          "type": "uint256"
        }
      ],
      "stateMutability": "view",
      "type": "function"
    },
    {
      "inputs": [],
      "name": "startTime",
      "outputs": [
        {
          "internalType": "uint256",
          "name": "",
          "type": "uint256"
        }
      ],
      "stateMutability": "view",
      "type": "function"
    },
    {
      "inputs": [],
      "name": "tierSystem",
      "outputs": [
        {
          "internalType": "contract ITierSystem",
          "name": "",
          "type": "address"
        }
      ],
      "stateMutability": "view",
      "type": "function"
    },
    {
      "inputs": [],
      "name": "totalAmount",
      "outputs": [
        {
          "internalType": "uint256",
          "name": "",
          "type": "uint256"
        }
      ],
      "stateMutability": "view",
      "type": "function"
    },
    {
      "inputs": [
        {
          "internalType": "address",
          "name": "newOwner",
          "type": "address"
        }
      ],
      "name": "transferOwnership",
      "outputs": [],
      "stateMutability": "nonpayable",
      "type": "function"
    },
    {
      "inputs": [],
      "name": "unpause",
      "outputs": [],
      "stateMutability": "nonpayable",
      "type": "function"
    },
    {
      "inputs": [
        {
          "internalType": "uint256",
          "name": "_newTime",
          "type": "uint256"
        }
      ],
      "name": "updateEndTime",
      "outputs": [],
      "stateMutability": "nonpayable",
      "type": "function"
    },
    {
      "inputs": [
        {
          "internalType": "uint256",
          "name": "_newTime",
          "type": "uint256"
        }
      ],
      "name": "updateHarvestTime",
      "outputs": [],
      "stateMutability": "nonpayable",
      "type": "function"
    },
    {
      "inputs": [
        {
          "internalType": "address",
          "name": "",
          "type": "address"
        }
      ],
      "name": "userInfo",
      "outputs": [
        {
          "internalType": "uint256",
          "name": "amount",
          "type": "uint256"
        },
        {
          "internalType": "bool",
          "name": "claimed",
          "type": "bool"
        }
      ],
      "stateMutability": "view",
      "type": "function"
    }
  ],
  "bytecode": "0x60806040526040518060800160405280683635c9adc5dea00000815260200168a2a15d09519be00000815260200169021e19e0c9bab2400000815260200169065a4da25d3016c00000815250600d9060046200005d929190620002d4565b503480156200006b57600080fd5b50604051620046543803806200465483398181016040528101906200009191906200037d565b6001600081905550620000b9620000ad6200020660201b60201c565b6200020e60201b60201c565b6000600160146101000a81548160ff021916908315150217905550868610158015620000e457508787115b8015620000f057504288115b620000fa57600080fd5b89600260006101000a81548173ffffffffffffffffffffffffffffffffffffffff021916908373ffffffffffffffffffffffffffffffffffffffff16021790555088600360006101000a81548173ffffffffffffffffffffffffffffffffffffffff021916908373ffffffffffffffffffffffffffffffffffffffff1602179055508760048190555086600581905550856006819055508460088190555083600781905550600060098190555082600c60006101000a81548173ffffffffffffffffffffffffffffffffffffffff021916908373ffffffffffffffffffffffffffffffffffffffff16021790555081601181905550806012819055505050505050505050505062000521565b600033905090565b6000600160009054906101000a900473ffffffffffffffffffffffffffffffffffffffff16905081600160006101000a81548173ffffffffffffffffffffffffffffffffffffffff021916908373ffffffffffffffffffffffffffffffffffffffff1602179055508173ffffffffffffffffffffffffffffffffffffffff168173ffffffffffffffffffffffffffffffffffffffff167f8be0079c531659141344cd1fd0a4f28419497f9722a3daafe3b4186f6b6457e060405160405180910390a35050565b826004810192821562000306579160200282015b8281111562000305578251825591602001919060010190620002e8565b5b50905062000315919062000319565b5090565b5b80821115620003345760008160009055506001016200031a565b5090565b6000815190506200034981620004d3565b92915050565b6000815190506200036081620004ed565b92915050565b600081519050620003778162000507565b92915050565b6000806000806000806000806000806101408b8d0312156200039e57600080fd5b6000620003ae8d828e0162000338565b9a50506020620003c18d828e0162000338565b9950506040620003d48d828e0162000366565b9850506060620003e78d828e0162000366565b9750506080620003fa8d828e0162000366565b96505060a06200040d8d828e0162000366565b95505060c0620004208d828e0162000366565b94505060e0620004338d828e016200034f565b935050610100620004478d828e0162000366565b9250506101206200045b8d828e0162000366565b9150509295989b9194979a5092959850565b60006200047a82620004a9565b9050919050565b60006200048e826200046d565b9050919050565b6000620004a2826200046d565b9050919050565b600073ffffffffffffffffffffffffffffffffffffffff82169050919050565b6000819050919050565b620004de8162000481565b8114620004ea57600080fd5b50565b620004f88162000495565b81146200050457600080fd5b50565b6200051281620004c9565b81146200051e57600080fd5b50565b61412380620005316000396000f3fe6080604052600436106102255760003560e01c806378e9792511610123578063b7813607116100ab578063e1af9a951161006f578063e1af9a95146107ef578063f2fde38b1461081a578063f480821014610843578063f8caa7e51461086e578063fc00358e1461089957610225565b8063b7813607146106f8578063b810fb4314610723578063b920ade214610760578063c2c9721b1461079d578063d16bba94146107c657610225565b80639c0a7669116100f25780639c0a766914610620578063a48217191461064b578063ac3ff91214610676578063b45aae521461069f578063b6b55f25146106dc57610225565b806378e97925146105765780638456cb59146105a157806387e97bc6146105b85780638da5cb5b146105f557610225565b80633f4ba83a116101b15780636382d9ad116101755780636382d9ad146104a757806364ce9fff146104d05780636ab3846b1461050d578063715018a61461053657806376ea6ee01461054d57610225565b80633f4ba83a146103f45780634225c32f1461040b5780634641257d146104345780635a9b0b891461044b5780635c975abb1461047c57610225565b806322b33175116101f857806322b331751461030d57806327d1b1a2146103385780632f5105f8146103615780633197cbb61461039e578063343e31f5146103c957610225565b80630a2642bf1461022a5780630e022923146102675780631959a002146102a45780631a39d8ef146102e2575b600080fd5b34801561023657600080fd5b50610251600480360381019061024c9190612ffc565b6108c4565b60405161025e91906138e2565b60405180910390f35b34801561027357600080fd5b5061028e60048036038101906102899190612f2d565b6108df565b60405161029b91906138e2565b60405180910390f35b3480156102b057600080fd5b506102cb60048036038101906102c69190612f2d565b6109fb565b6040516102d99291906138fd565b60405180910390f35b3480156102ee57600080fd5b506102f7610a2c565b60405161030491906138e2565b60405180910390f35b34801561031957600080fd5b50610322610a32565b60405161032f91906138e2565b60405180910390f35b34801561034457600080fd5b5061035f600480360381019061035a9190612ffc565b610a38565b005b34801561036d57600080fd5b5061038860048036038101906103839190612f2d565b610b02565b60405161039591906138e2565b60405180910390f35b3480156103aa57600080fd5b506103b3610bb7565b6040516103c091906138e2565b60405180910390f35b3480156103d557600080fd5b506103de610bbd565b6040516103eb91906138e2565b60405180910390f35b34801561040057600080fd5b50610409610bc3565b005b34801561041757600080fd5b50610432600480360381019061042d9190612ffc565b610c49565b005b34801561044057600080fd5b50610449610d13565b005b34801561045757600080fd5b506104606110de565b6040516104739796959493929190613865565b60405180910390f35b34801561048857600080fd5b50610491611286565b60405161049e9190613572565b60405180910390f35b3480156104b357600080fd5b506104ce60048036038101906104c99190612f56565b61129d565b005b3480156104dc57600080fd5b506104f760048036038101906104f29190612f2d565b611452565b6040516105049190613572565b60405180910390f35b34801561051957600080fd5b50610534600480360381019061052f9190612ffc565b6114ab565b005b34801561054257600080fd5b5061054b611580565b005b34801561055957600080fd5b50610574600480360381019061056f9190612ffc565b611608565b005b34801561058257600080fd5b5061058b6116dd565b60405161059891906138e2565b60405180910390f35b3480156105ad57600080fd5b506105b66116e3565b005b3480156105c457600080fd5b506105df60048036038101906105da9190612f2d565b611769565b6040516105ec91906138e2565b60405180910390f35b34801561060157600080fd5b5061060a61182e565b60405161061791906134c0565b60405180910390f35b34801561062c57600080fd5b50610635611858565b60405161064291906138e2565b60405180910390f35b34801561065757600080fd5b5061066061185e565b60405161066d919061358d565b60405180910390f35b34801561068257600080fd5b5061069d60048036038101906106989190612f2d565b611884565b005b3480156106ab57600080fd5b506106c660048036038101906106c19190612f2d565b611a61565b6040516106d391906138e2565b60405180910390f35b6106f660048036038101906106f19190612ffc565b611b1d565b005b34801561070457600080fd5b5061070d61200b565b60405161071a919061358d565b60405180910390f35b34801561072f57600080fd5b5061074a60048036038101906107459190612ffc565b612031565b60405161075791906134c0565b60405180910390f35b34801561076c57600080fd5b5061078760048036038101906107829190612f2d565b612070565b60405161079491906138e2565b60405180910390f35b3480156107a957600080fd5b506107c460048036038101906107bf9190612ffc565b6120ea565b005b3480156107d257600080fd5b506107ed60048036038101906107e89190612ffc565b6121b3565b005b3480156107fb57600080fd5b5061080461227c565b60405161081191906138e2565b60405180910390f35b34801561082657600080fd5b50610841600480360381019061083c9190612f2d565b612282565b005b34801561084f57600080fd5b5061085861237a565b60405161086591906138e2565b60405180910390f35b34801561087a57600080fd5b50610883612380565b60405161089091906135a8565b60405180910390f35b3480156108a557600080fd5b506108ae6123a6565b6040516108bb91906138e2565b60405180910390f35b600d81600481106108d457600080fd5b016000915090505481565b600080600c60009054906101000a900473ffffffffffffffffffffffffffffffffffffffff1673ffffffffffffffffffffffffffffffffffffffff16636002de67846011546012546040518463ffffffff1660e01b81526004016109459392919061353b565b60206040518083038186803b15801561095d57600080fd5b505afa158015610971573d6000803e3d6000fd5b505050506040513d601f19601f820116820180604052508101906109959190613025565b905060008114156109aa5760009150506109f6565b600d6001826109b99190613ac9565b600481106109f0577f4e487b7100000000000000000000000000000000000000000000000000000000600052603260045260246000fd5b01549150505b919050565b600a6020528060005260406000206000915090508060000154908060010160009054906101000a900460ff16905082565b60095481565b60125481565b610a406123b3565b73ffffffffffffffffffffffffffffffffffffffff16610a5e61182e565b73ffffffffffffffffffffffffffffffffffffffff1614610ab4576040517f08c379a0000000000000000000000000000000000000000000000000000000008152600401610aab90613765565b60405180910390fd5b6004544210610af8576040517f08c379a0000000000000000000000000000000000000000000000000000000008152600401610aef90613705565b60405180910390fd5b8060088190555050565b600060075460095411610b185760009050610bb2565b6000610b2383612070565b90506000610b56670de0b6b3a7640000610b48846007546123bb90919063ffffffff16565b6123d190919063ffffffff16565b9050610bad81600a60008773ffffffffffffffffffffffffffffffffffffffff1673ffffffffffffffffffffffffffffffffffffffff168152602001908152602001600020600001546123e790919063ffffffff16565b925050505b919050565b60055481565b60115481565b610bcb6123b3565b73ffffffffffffffffffffffffffffffffffffffff16610be961182e565b73ffffffffffffffffffffffffffffffffffffffff1614610c3f576040517f08c379a0000000000000000000000000000000000000000000000000000000008152600401610c3690613765565b60405180910390fd5b610c476123fd565b565b610c516123b3565b73ffffffffffffffffffffffffffffffffffffffff16610c6f61182e565b73ffffffffffffffffffffffffffffffffffffffff1614610cc5576040517f08c379a0000000000000000000000000000000000000000000000000000000008152600401610cbc90613765565b60405180910390fd5b6004544210610d09576040517f08c379a0000000000000000000000000000000000000000000000000000000008152600401610d0090613705565b60405180910390fd5b8060078190555050565b60026000541415610d59576040517f08c379a0000000000000000000000000000000000000000000000000000000008152600401610d5090613825565b60405180910390fd5b60026000819055506006544211610da5576040517f08c379a0000000000000000000000000000000000000000000000000000000008152600401610d9c90613785565b60405180910390fd5b6000600a60003373ffffffffffffffffffffffffffffffffffffffff1673ffffffffffffffffffffffffffffffffffffffff1681526020019081526020016000206000015411610e2a576040517f08c379a0000000000000000000000000000000000000000000000000000000008152600401610e2190613745565b60405180910390fd5b600a60003373ffffffffffffffffffffffffffffffffffffffff1673ffffffffffffffffffffffffffffffffffffffff16815260200190815260200160002060010160009054906101000a900460ff1615610eba576040517f08c379a0000000000000000000000000000000000000000000000000000000008152600401610eb190613845565b60405180910390fd5b610ec2611286565b15610f02576040517f08c379a0000000000000000000000000000000000000000000000000000000008152600401610ef9906136c5565b60405180910390fd5b6000610f0d33611769565b90506000610f1a33610b02565b9050610f693383600360009054906101000a900473ffffffffffffffffffffffffffffffffffffffff1673ffffffffffffffffffffffffffffffffffffffff1661249f9092919063ffffffff16565b600081111561102757600073ffffffffffffffffffffffffffffffffffffffff16600260009054906101000a900473ffffffffffffffffffffffffffffffffffffffff1673ffffffffffffffffffffffffffffffffffffffff161415610fd857610fd33382612525565b611026565b6110253382600260009054906101000a900473ffffffffffffffffffffffffffffffffffffffff1673ffffffffffffffffffffffffffffffffffffffff1661249f9092919063ffffffff16565b5b5b6001600a60003373ffffffffffffffffffffffffffffffffffffffff1673ffffffffffffffffffffffffffffffffffffffff16815260200190815260200160002060010160006101000a81548160ff0219169083151502179055503373ffffffffffffffffffffffffffffffffffffffff167f71bab65ced2e5750775a0613be067df48ef06cf92a496ebf7663ae066092495483836040516110ca929190613926565b60405180910390a250506001600081905550565b6110e6612e09565b6110ee612e09565b60008060008060006110fe612e09565b600073ffffffffffffffffffffffffffffffffffffffff16600260009054906101000a900473ffffffffffffffffffffffffffffffffffffffff1673ffffffffffffffffffffffffffffffffffffffff1614156111ff576040518060800160405280600073ffffffffffffffffffffffffffffffffffffffff168152602001601281526020016040518060400160405280600b81526020017f4b6172646961436861696e00000000000000000000000000000000000000000081525081526020016040518060400160405280600381526020017f4b41490000000000000000000000000000000000000000000000000000000000815250815250905061122d565b61122a600260009054906101000a900473ffffffffffffffffffffffffffffffffffffffff1661264b565b90505b600061125a600360009054906101000a900473ffffffffffffffffffffffffffffffffffffffff1661264b565b905081816004546005546006546008546007549850985098509850985098509850505090919293949596565b6000600160149054906101000a900460ff16905090565b6112a56123b3565b73ffffffffffffffffffffffffffffffffffffffff166112c361182e565b73ffffffffffffffffffffffffffffffffffffffff1614611319576040517f08c379a000000000000000000000000000000000000000000000000000000000815260040161131090613765565b60405180910390fd5b600073ffffffffffffffffffffffffffffffffffffffff168273ffffffffffffffffffffffffffffffffffffffff16141561139a578073ffffffffffffffffffffffffffffffffffffffff166108fc479081150290604051600060405180830381858888f19350505050158015611394573d6000803e3d6000fd5b5061144e565b61144d818373ffffffffffffffffffffffffffffffffffffffff166370a08231306040518263ffffffff1660e01b81526004016113d791906134c0565b60206040518083038186803b1580156113ef57600080fd5b505afa158015611403573d6000803e3d6000fd5b505050506040513d601f19601f820116820180604052508101906114279190613025565b8473ffffffffffffffffffffffffffffffffffffffff1661249f9092919063ffffffff16565b5b5050565b6000600a60008373ffffffffffffffffffffffffffffffffffffffff1673ffffffffffffffffffffffffffffffffffffffff16815260200190815260200160002060010160009054906101000a900460ff169050919050565b6114b36123b3565b73ffffffffffffffffffffffffffffffffffffffff166114d161182e565b73ffffffffffffffffffffffffffffffffffffffff1614611527576040517f08c379a000000000000000000000000000000000000000000000000000000000815260040161151e90613765565b60405180910390fd5b4281118015611537575060065481105b611576576040517f08c379a000000000000000000000000000000000000000000000000000000000815260040161156d90613685565b60405180910390fd5b8060058190555050565b6115886123b3565b73ffffffffffffffffffffffffffffffffffffffff166115a661182e565b73ffffffffffffffffffffffffffffffffffffffff16146115fc576040517f08c379a00000000000000000000000000000000000000000000000000000000081526004016115f390613765565b60405180910390fd5b6116066000612815565b565b6116106123b3565b73ffffffffffffffffffffffffffffffffffffffff1661162e61182e565b73ffffffffffffffffffffffffffffffffffffffff1614611684576040517f08c379a000000000000000000000000000000000000000000000000000000000815260040161167b90613765565b60405180910390fd5b4281118015611694575060055481115b6116d3576040517f08c379a00000000000000000000000000000000000000000000000000000000081526004016116ca90613685565b60405180910390fd5b8060068190555050565b60045481565b6116eb6123b3565b73ffffffffffffffffffffffffffffffffffffffff1661170961182e565b73ffffffffffffffffffffffffffffffffffffffff161461175f576040517f08c379a000000000000000000000000000000000000000000000000000000000815260040161175690613765565b60405180910390fd5b6117676128db565b565b600060075460095411156117bb57600061178283612070565b90506117b3670de0b6b3a76400006117a5836008546123bb90919063ffffffff16565b6123d190919063ffffffff16565b915050611829565b611826600754611818600854600a60008773ffffffffffffffffffffffffffffffffffffffff1673ffffffffffffffffffffffffffffffffffffffff168152602001908152602001600020600001546123bb90919063ffffffff16565b6123d190919063ffffffff16565b90505b919050565b6000600160009054906101000a900473ffffffffffffffffffffffffffffffffffffffff16905090565b60075481565b600260009054906101000a900473ffffffffffffffffffffffffffffffffffffffff1681565b61188c6123b3565b73ffffffffffffffffffffffffffffffffffffffff166118aa61182e565b73ffffffffffffffffffffffffffffffffffffffff1614611900576040517f08c379a00000000000000000000000000000000000000000000000000000000081526004016118f790613765565b60405180910390fd5b600073ffffffffffffffffffffffffffffffffffffffff16600260009054906101000a900473ffffffffffffffffffffffffffffffffffffffff1673ffffffffffffffffffffffffffffffffffffffff161415611966576119618147612525565b611a5e565b611a5d81600260009054906101000a900473ffffffffffffffffffffffffffffffffffffffff1673ffffffffffffffffffffffffffffffffffffffff166370a08231306040518263ffffffff1660e01b81526004016119c591906134c0565b60206040518083038186803b1580156119dd57600080fd5b505afa1580156119f1573d6000803e3d6000fd5b505050506040513d601f19601f82011682018060405250810190611a159190613025565b600260009054906101000a900473ffffffffffffffffffffffffffffffffffffffff1673ffffffffffffffffffffffffffffffffffffffff1661249f9092919063ffffffff16565b5b50565b6000600c60009054906101000a900473ffffffffffffffffffffffffffffffffffffffff1673ffffffffffffffffffffffffffffffffffffffff16636002de67836011546012546040518463ffffffff1660e01b8152600401611ac69392919061353b565b60206040518083038186803b158015611ade57600080fd5b505afa158015611af2573d6000803e3d6000fd5b505050506040513d601f19601f82011682018060405250810190611b169190613025565b9050919050565b60026000541415611b63576040517f08c379a0000000000000000000000000000000000000000000000000000000008152600401611b5a90613825565b60405180910390fd5b60026000819055508060045442118015611b7e575060055442105b611bbd576040517f08c379a0000000000000000000000000000000000000000000000000000000008152600401611bb490613645565b60405180910390fd5b60008111611c00576040517f08c379a0000000000000000000000000000000000000000000000000000000008152600401611bf7906135e5565b60405180910390fd5b611c08611286565b15611c48576040517f08c379a0000000000000000000000000000000000000000000000000000000008152600401611c3f906136c5565b60405180910390fd5b6000611c533361297d565b9050600a60003373ffffffffffffffffffffffffffffffffffffffff1673ffffffffffffffffffffffffffffffffffffffff168152602001908152602001600020600001548111611cd9576040517f08c379a0000000000000000000000000000000000000000000000000000000008152600401611cd0906136e5565b60405180910390fd5b6000600a60003373ffffffffffffffffffffffffffffffffffffffff1673ffffffffffffffffffffffffffffffffffffffff1681526020019081526020016000206000015482611d299190613ac9565b9050600084905084821015611d3c578190505b600073ffffffffffffffffffffffffffffffffffffffff16600260009054906101000a900473ffffffffffffffffffffffffffffffffffffffff1673ffffffffffffffffffffffffffffffffffffffff161415611df95780341015611dd6576040517f08c379a0000000000000000000000000000000000000000000000000000000008152600401611dcd90613725565b60405180910390fd5b80341115611df457611df3338234611dee9190613ac9565b612525565b5b611e49565b611e48333083600260009054906101000a900473ffffffffffffffffffffffffffffffffffffffff1673ffffffffffffffffffffffffffffffffffffffff16612aed909392919063ffffffff16565b5b6000600a60003373ffffffffffffffffffffffffffffffffffffffff1673ffffffffffffffffffffffffffffffffffffffff168152602001908152602001600020600001541415611ef857600b339080600181540180825580915050600190039060005260206000200160009091909190916101000a81548173ffffffffffffffffffffffffffffffffffffffff021916908373ffffffffffffffffffffffffffffffffffffffff1602179055505b611f4d81600a60003373ffffffffffffffffffffffffffffffffffffffff1673ffffffffffffffffffffffffffffffffffffffff16815260200190815260200160002060000154612b7690919063ffffffff16565b600a60003373ffffffffffffffffffffffffffffffffffffffff1673ffffffffffffffffffffffffffffffffffffffff16815260200190815260200160002060000181905550611fa881600954612b7690919063ffffffff16565b6009819055503373ffffffffffffffffffffffffffffffffffffffff167fe1fffcc4923d04b559f4d29a8bfc6cda04eb5b0d3c460751c2402c5c5cc9109c82604051611ff491906138e2565b60405180910390a250505050600160008190555050565b600360009054906101000a900473ffffffffffffffffffffffffffffffffffffffff1681565b600b818154811061204157600080fd5b906000526020600020016000915054906101000a900473ffffffffffffffffffffffffffffffffffffffff1681565b60006120e36009546120d5670de0b6b3a7640000600a60008773ffffffffffffffffffffffffffffffffffffffff1673ffffffffffffffffffffffffffffffffffffffff168152602001908152602001600020600001546123bb90919063ffffffff16565b6123d190919063ffffffff16565b9050919050565b6120f26123b3565b73ffffffffffffffffffffffffffffffffffffffff1661211061182e565b73ffffffffffffffffffffffffffffffffffffffff1614612166576040517f08c379a000000000000000000000000000000000000000000000000000000000815260040161215d90613765565b60405180910390fd5b600081116121a9576040517f08c379a00000000000000000000000000000000000000000000000000000000081526004016121a0906137a5565b60405180910390fd5b8060128190555050565b6121bb6123b3565b73ffffffffffffffffffffffffffffffffffffffff166121d961182e565b73ffffffffffffffffffffffffffffffffffffffff161461222f576040517f08c379a000000000000000000000000000000000000000000000000000000000815260040161222690613765565b60405180910390fd5b60008111612272576040517f08c379a0000000000000000000000000000000000000000000000000000000008152600401612269906137a5565b60405180910390fd5b8060118190555050565b60085481565b61228a6123b3565b73ffffffffffffffffffffffffffffffffffffffff166122a861182e565b73ffffffffffffffffffffffffffffffffffffffff16146122fe576040517f08c379a00000000000000000000000000000000000000000000000000000000081526004016122f590613765565b60405180910390fd5b600073ffffffffffffffffffffffffffffffffffffffff168173ffffffffffffffffffffffffffffffffffffffff16141561236e576040517f08c379a000000000000000000000000000000000000000000000000000000000815260040161236590613625565b60405180910390fd5b61237781612815565b50565b60065481565b600c60009054906101000a900473ffffffffffffffffffffffffffffffffffffffff1681565b6000600b80549050905090565b600033905090565b600081836123c99190613a6f565b905092915050565b600081836123df9190613a3e565b905092915050565b600081836123f59190613ac9565b905092915050565b612405611286565b612444576040517f08c379a000000000000000000000000000000000000000000000000000000000815260040161243b90613605565b60405180910390fd5b6000600160146101000a81548160ff0219169083151502179055507f5db9ee0a495bf2e6ff9c91a7834c1ba4fdd244a5e8aa4e537bd38aeae4b073aa6124886123b3565b60405161249591906134c0565b60405180910390a1565b6125208363a9059cbb60e01b84846040516024016124be929190613512565b604051602081830303815290604052907bffffffffffffffffffffffffffffffffffffffffffffffffffffffff19166020820180517bffffffffffffffffffffffffffffffffffffffffffffffffffffffff8381831617835250505050612b8c565b505050565b60008273ffffffffffffffffffffffffffffffffffffffff1682600067ffffffffffffffff811115612580577f4e487b7100000000000000000000000000000000000000000000000000000000600052604160045260246000fd5b6040519080825280601f01601f1916602001820160405280156125b25781602001600182028036833780820191505090505b506040516125c091906134a9565b60006040518083038185875af1925050503d80600081146125fd576040519150601f19603f3d011682016040523d82523d6000602084013e612602565b606091505b5050905080612646576040517f08c379a000000000000000000000000000000000000000000000000000000000815260040161263d906137e5565b60405180910390fd5b505050565b612653612e09565b60405180608001604052808373ffffffffffffffffffffffffffffffffffffffff1681526020018373ffffffffffffffffffffffffffffffffffffffff1663313ce5676040518163ffffffff1660e01b815260040160206040518083038186803b1580156126c057600080fd5b505afa1580156126d4573d6000803e3d6000fd5b505050506040513d601f19601f820116820180604052508101906126f8919061304e565b60ff1681526020018373ffffffffffffffffffffffffffffffffffffffff166306fdde036040518163ffffffff1660e01b815260040160006040518083038186803b15801561274657600080fd5b505afa15801561275a573d6000803e3d6000fd5b505050506040513d6000823e3d601f19601f820116820180604052508101906127839190612fbb565b81526020018373ffffffffffffffffffffffffffffffffffffffff166395d89b416040518163ffffffff1660e01b815260040160006040518083038186803b1580156127ce57600080fd5b505afa1580156127e2573d6000803e3d6000fd5b505050506040513d6000823e3d601f19601f8201168201806040525081019061280b9190612fbb565b8152509050919050565b6000600160009054906101000a900473ffffffffffffffffffffffffffffffffffffffff16905081600160006101000a81548173ffffffffffffffffffffffffffffffffffffffff021916908373ffffffffffffffffffffffffffffffffffffffff1602179055508173ffffffffffffffffffffffffffffffffffffffff168173ffffffffffffffffffffffffffffffffffffffff167f8be0079c531659141344cd1fd0a4f28419497f9722a3daafe3b4186f6b6457e060405160405180910390a35050565b6128e3611286565b15612923576040517f08c379a000000000000000000000000000000000000000000000000000000000815260040161291a906136c5565b60405180910390fd5b60018060146101000a81548160ff0219169083151502179055507f62e78cea01bee320cd4e420270b5ea74000d11b0c9f74754ebdbfc544b05a2586129666123b3565b60405161297391906134c0565b60405180910390a1565b6000806011541180156129935750601154601254115b6129d2576040517f08c379a00000000000000000000000000000000000000000000000000000000081526004016129c990613665565b60405180910390fd5b6000600c60009054906101000a900473ffffffffffffffffffffffffffffffffffffffff1673ffffffffffffffffffffffffffffffffffffffff16636002de67846011546012546040518463ffffffff1660e01b8152600401612a379392919061353b565b60206040518083038186803b158015612a4f57600080fd5b505afa158015612a63573d6000803e3d6000fd5b505050506040513d601f19601f82011682018060405250810190612a879190613025565b90506000811415612a9c576000915050612ae8565b600d600182612aab9190613ac9565b60048110612ae2577f4e487b7100000000000000000000000000000000000000000000000000000000600052603260045260246000fd5b01549150505b919050565b612b70846323b872dd60e01b858585604051602401612b0e939291906134db565b604051602081830303815290604052907bffffffffffffffffffffffffffffffffffffffffffffffffffffffff19166020820180517bffffffffffffffffffffffffffffffffffffffffffffffffffffffff8381831617835250505050612b8c565b50505050565b60008183612b8491906139e8565b905092915050565b6000612bee826040518060400160405280602081526020017f5361666545524332303a206c6f772d6c6576656c2063616c6c206661696c65648152508573ffffffffffffffffffffffffffffffffffffffff16612c539092919063ffffffff16565b9050600081511115612c4e5780806020019051810190612c0e9190612f92565b612c4d576040517f08c379a0000000000000000000000000000000000000000000000000000000008152600401612c4490613805565b60405180910390fd5b5b505050565b6060612c628484600085612c6b565b90509392505050565b606082471015612cb0576040517f08c379a0000000000000000000000000000000000000000000000000000000008152600401612ca7906136a5565b60405180910390fd5b612cb985612d7f565b612cf8576040517f08c379a0000000000000000000000000000000000000000000000000000000008152600401612cef906137c5565b60405180910390fd5b6000808673ffffffffffffffffffffffffffffffffffffffff168587604051612d2191906134a9565b60006040518083038185875af1925050503d8060008114612d5e576040519150601f19603f3d011682016040523d82523d6000602084013e612d63565b606091505b5091509150612d73828286612da2565b92505050949350505050565b6000808273ffffffffffffffffffffffffffffffffffffffff163b119050919050565b60608315612db257829050612e02565b600083511115612dc55782518084602001fd5b816040517f08c379a0000000000000000000000000000000000000000000000000000000008152600401612df991906135c3565b60405180910390fd5b9392505050565b6040518060800160405280600073ffffffffffffffffffffffffffffffffffffffff1681526020016000815260200160608152602001606081525090565b6000612e5a612e5584613974565b61394f565b905082815260208101848484011115612e7257600080fd5b612e7d848285613bac565b509392505050565b600081359050612e948161407a565b92915050565b600081359050612ea981614091565b92915050565b600081519050612ebe816140a8565b92915050565b600082601f830112612ed557600080fd5b8151612ee5848260208601612e47565b91505092915050565b600081359050612efd816140bf565b92915050565b600081519050612f12816140bf565b92915050565b600081519050612f27816140d6565b92915050565b600060208284031215612f3f57600080fd5b6000612f4d84828501612e85565b91505092915050565b60008060408385031215612f6957600080fd5b6000612f7785828601612e85565b9250506020612f8885828601612e9a565b9150509250929050565b600060208284031215612fa457600080fd5b6000612fb284828501612eaf565b91505092915050565b600060208284031215612fcd57600080fd5b600082015167ffffffffffffffff811115612fe757600080fd5b612ff384828501612ec4565b91505092915050565b60006020828403121561300e57600080fd5b600061301c84828501612eee565b91505092915050565b60006020828403121561303757600080fd5b600061304584828501612f03565b91505092915050565b60006020828403121561306057600080fd5b600061306e84828501612f18565b91505092915050565b61308081613afd565b82525050565b61308f81613b21565b82525050565b60006130a0826139a5565b6130aa81856139bb565b93506130ba818560208601613bac565b80840191505092915050565b6130cf81613b64565b82525050565b6130de81613b64565b82525050565b6130ed81613b88565b82525050565b60006130fe826139b0565b61310881856139c6565b9350613118818560208601613bac565b61312181613c9d565b840191505092915050565b6000613137826139b0565b61314181856139d7565b9350613151818560208601613bac565b61315a81613c9d565b840191505092915050565b60006131726010836139d7565b915061317d82613cae565b602082019050919050565b60006131956014836139d7565b91506131a082613cd7565b602082019050919050565b60006131b86026836139d7565b91506131c382613d00565b604082019050919050565b60006131db6010836139d7565b91506131e682613d4f565b602082019050919050565b60006131fe6013836139d7565b915061320982613d78565b602082019050919050565b6000613221600e836139d7565b915061322c82613da1565b602082019050919050565b60006132446026836139d7565b915061324f82613dca565b604082019050919050565b60006132676010836139d7565b915061327282613e19565b602082019050919050565b600061328a6015836139d7565b915061329582613e42565b602082019050919050565b60006132ad6002836139d7565b91506132b882613e6b565b602082019050919050565b60006132d06011836139d7565b91506132db82613e94565b602082019050919050565b60006132f36016836139d7565b91506132fe82613ebd565b602082019050919050565b60006133166020836139d7565b915061332182613ee6565b602082019050919050565b60006133396010836139d7565b915061334482613f0f565b602082019050919050565b600061335c600a836139d7565b915061336782613f38565b602082019050919050565b600061337f601d836139d7565b915061338a82613f61565b602082019050919050565b60006133a26023836139d7565b91506133ad82613f8a565b604082019050919050565b60006133c5602a836139d7565b91506133d082613fd9565b604082019050919050565b60006133e8601f836139d7565b91506133f382614028565b602082019050919050565b600061340b6012836139d7565b915061341682614051565b602082019050919050565b600060808301600083015161343960008601826130c6565b50602083015161344c602086018261348b565b506040830151848203604086015261346482826130f3565b9150506060830151848203606086015261347e82826130f3565b9150508091505092915050565b61349481613b4d565b82525050565b6134a381613b4d565b82525050565b60006134b58284613095565b915081905092915050565b60006020820190506134d56000830184613077565b92915050565b60006060820190506134f06000830186613077565b6134fd6020830185613077565b61350a604083018461349a565b949350505050565b60006040820190506135276000830185613077565b613534602083018461349a565b9392505050565b60006060820190506135506000830186613077565b61355d602083018561349a565b61356a604083018461349a565b949350505050565b60006020820190506135876000830184613086565b92915050565b60006020820190506135a260008301846130d5565b92915050565b60006020820190506135bd60008301846130e4565b92915050565b600060208201905081810360008301526135dd818461312c565b905092915050565b600060208201905081810360008301526135fe81613165565b9050919050565b6000602082019050818103600083015261361e81613188565b9050919050565b6000602082019050818103600083015261363e816131ab565b9050919050565b6000602082019050818103600083015261365e816131ce565b9050919050565b6000602082019050818103600083015261367e816131f1565b9050919050565b6000602082019050818103600083015261369e81613214565b9050919050565b600060208201905081810360008301526136be81613237565b9050919050565b600060208201905081810360008301526136de8161325a565b9050919050565b600060208201905081810360008301526136fe8161327d565b9050919050565b6000602082019050818103600083015261371e816132a0565b9050919050565b6000602082019050818103600083015261373e816132c3565b9050919050565b6000602082019050818103600083015261375e816132e6565b9050919050565b6000602082019050818103600083015261377e81613309565b9050919050565b6000602082019050818103600083015261379e8161332c565b9050919050565b600060208201905081810360008301526137be8161334f565b9050919050565b600060208201905081810360008301526137de81613372565b9050919050565b600060208201905081810360008301526137fe81613395565b9050919050565b6000602082019050818103600083015261381e816133b8565b9050919050565b6000602082019050818103600083015261383e816133db565b9050919050565b6000602082019050818103600083015261385e816133fe565b9050919050565b600060e082019050818103600083015261387f818a613421565b905081810360208301526138938189613421565b90506138a2604083018861349a565b6138af606083018761349a565b6138bc608083018661349a565b6138c960a083018561349a565b6138d660c083018461349a565b98975050505050505050565b60006020820190506138f7600083018461349a565b92915050565b6000604082019050613912600083018561349a565b61391f6020830184613086565b9392505050565b600060408201905061393b600083018561349a565b613948602083018461349a565b9392505050565b600061395961396a565b90506139658282613bdf565b919050565b6000604051905090565b600067ffffffffffffffff82111561398f5761398e613c6e565b5b61399882613c9d565b9050602081019050919050565b600081519050919050565b600081519050919050565b600081905092915050565b600082825260208201905092915050565b600082825260208201905092915050565b60006139f382613b4d565b91506139fe83613b4d565b9250827fffffffffffffffffffffffffffffffffffffffffffffffffffffffffffffffff03821115613a3357613a32613c10565b5b828201905092915050565b6000613a4982613b4d565b9150613a5483613b4d565b925082613a6457613a63613c3f565b5b828204905092915050565b6000613a7a82613b4d565b9150613a8583613b4d565b9250817fffffffffffffffffffffffffffffffffffffffffffffffffffffffffffffffff0483118215151615613abe57613abd613c10565b5b828202905092915050565b6000613ad482613b4d565b9150613adf83613b4d565b925082821015613af257613af1613c10565b5b828203905092915050565b6000613b0882613b2d565b9050919050565b6000613b1a82613b2d565b9050919050565b60008115159050919050565b600073ffffffffffffffffffffffffffffffffffffffff82169050919050565b6000819050919050565b600060ff82169050919050565b6000613b6f82613b76565b9050919050565b6000613b8182613b2d565b9050919050565b6000613b9382613b9a565b9050919050565b6000613ba582613b2d565b9050919050565b60005b83811015613bca578082015181840152602081019050613baf565b83811115613bd9576000848401525b50505050565b613be882613c9d565b810181811067ffffffffffffffff82111715613c0757613c06613c6e565b5b80604052505050565b7f4e487b7100000000000000000000000000000000000000000000000000000000600052601160045260246000fd5b7f4e487b7100000000000000000000000000000000000000000000000000000000600052601260045260246000fd5b7f4e487b7100000000000000000000000000000000000000000000000000000000600052604160045260246000fd5b6000601f19601f8301169050919050565b7f6e656564205f616d6f756e74203e203000000000000000000000000000000000600082015250565b7f5061757361626c653a206e6f7420706175736564000000000000000000000000600082015250565b7f4f776e61626c653a206e6577206f776e657220697320746865207a65726f206160008201527f6464726573730000000000000000000000000000000000000000000000000000602082015250565b7f6e6f742072616973696e672074696d6500000000000000000000000000000000600082015250565b7f536e617073686f74206964206e6f742073657400000000000000000000000000600082015250565b7f74696d6520696e76616c69642121000000000000000000000000000000000000600082015250565b7f416464726573733a20696e73756666696369656e742062616c616e636520666f60008201527f722063616c6c0000000000000000000000000000000000000000000000000000602082015250565b7f5061757361626c653a2070617573656400000000000000000000000000000000600082015250565b7f6e6f7420656c696769626c6520616d6f756e7421210000000000000000000000600082015250565b7f6e6f000000000000000000000000000000000000000000000000000000000000600082015250565b7f616d6f756e74206e6f7420656e6f756768000000000000000000000000000000600082015250565b7f6861766520796f75207061727469636970617465643f00000000000000000000600082015250565b7f4f776e61626c653a2063616c6c6572206973206e6f7420746865206f776e6572600082015250565b7f6e6f7420686172766573742074696d6500000000000000000000000000000000600082015250565b7f496420696e76616c696400000000000000000000000000000000000000000000600082015250565b7f416464726573733a2063616c6c20746f206e6f6e2d636f6e7472616374000000600082015250565b7f5472616e7366657248656c7065723a204b41495f5452414e534645525f46414960008201527f4c45440000000000000000000000000000000000000000000000000000000000602082015250565b7f5361666545524332303a204552433230206f7065726174696f6e20646964206e60008201527f6f74207375636365656400000000000000000000000000000000000000000000602082015250565b7f5265656e7472616e637947756172643a207265656e7472616e742063616c6c00600082015250565b7f6e6f7468696e6720746f20686172766573740000000000000000000000000000600082015250565b61408381613afd565b811461408e57600080fd5b50565b61409a81613b0f565b81146140a557600080fd5b50565b6140b181613b21565b81146140bc57600080fd5b50565b6140c881613b4d565b81146140d357600080fd5b50565b6140df81613b57565b81146140ea57600080fd5b5056fea2646970667358221220a7548b2fb477453b4759ad5484ee36bb9bd0dc0fad1cd6f33ee9013691a0570964736f6c63430008040033",
  "linkReferences": {},
  "deployedLinkReferences": {}
}