{
  "_format": "hh-sol-artifact-1",
  "contractName": "FundRaising",
  "sourceName": "contracts/launchpad/FundRaising.sol",
  "abi": [
    {
      "inputs": [
        {
          "internalType": "contract ERC20",
          "name": "_buyToken",
          "type": "address"
        },
        {
          "internalType": "contract ERC20",
          "name": "_offeringToken",
          "type": "address"
        },
        {
          "internalType": "uint256",
          "name": "_startTime",
          "type": "uint256"
        },
        {
          "internalType": "uint256",
          "name": "_endTime",
          "type": "uint256"
        },
        {
          "internalType": "uint256",
          "name": "_harvestTime",
          "type": "uint256"
        },
        {
          "internalType": "uint256",
          "name": "_offeringAmount",
          "type": "uint256"
        },
        {
          "internalType": "uint256",
          "name": "_raisingAmount",
          "type": "uint256"
        },
        {
          "internalType": "contract ITierSystem",
          "name": "_tierSystem",
          "type": "address"
        }
      ],
      "stateMutability": "nonpayable",
      "type": "constructor"
    },
    {
      "anonymous": false,
      "inputs": [
        {
          "indexed": true,
          "internalType": "address",
          "name": "user",
          "type": "address"
        },
        {
          "indexed": false,
          "internalType": "uint256",
          "name": "amount",
          "type": "uint256"
        }
      ],
      "name": "Deposit",
      "type": "event"
    },
    {
      "anonymous": false,
      "inputs": [
        {
          "indexed": true,
          "internalType": "address",
          "name": "user",
          "type": "address"
        },
        {
          "indexed": false,
          "internalType": "uint256",
          "name": "offeringAmount",
          "type": "uint256"
        },
        {
          "indexed": false,
          "internalType": "uint256",
          "name": "excessAmount",
          "type": "uint256"
        }
      ],
      "name": "Harvest",
      "type": "event"
    },
    {
      "anonymous": false,
      "inputs": [
        {
          "indexed": true,
          "internalType": "address",
          "name": "previousOwner",
          "type": "address"
        },
        {
          "indexed": true,
          "internalType": "address",
          "name": "newOwner",
          "type": "address"
        }
      ],
      "name": "OwnershipTransferred",
      "type": "event"
    },
    {
      "anonymous": false,
      "inputs": [
        {
          "indexed": false,
          "internalType": "address",
          "name": "account",
          "type": "address"
        }
      ],
      "name": "Paused",
      "type": "event"
    },
    {
      "anonymous": false,
      "inputs": [
        {
          "indexed": false,
          "internalType": "address",
          "name": "account",
          "type": "address"
        }
      ],
      "name": "Unpaused",
      "type": "event"
    },
    {
      "inputs": [
        {
          "internalType": "uint256",
          "name": "",
          "type": "uint256"
        }
      ],
      "name": "addressList",
      "outputs": [
        {
          "internalType": "address",
          "name": "",
          "type": "address"
        }
      ],
      "stateMutability": "view",
      "type": "function"
    },
    {
      "inputs": [
        {
          "internalType": "uint256",
          "name": "",
          "type": "uint256"
        }
      ],
      "name": "allocations",
      "outputs": [
        {
          "internalType": "uint256",
          "name": "",
          "type": "uint256"
        }
      ],
      "stateMutability": "view",
      "type": "function"
    },
    {
      "inputs": [],
      "name": "buyToken",
      "outputs": [
        {
          "internalType": "contract ERC20",
          "name": "",
          "type": "address"
        }
      ],
      "stateMutability": "view",
      "type": "function"
    },
    {
      "inputs": [
        {
          "internalType": "uint256",
          "name": "_amount",
          "type": "uint256"
        }
      ],
      "name": "deposit",
      "outputs": [],
      "stateMutability": "payable",
      "type": "function"
    },
    {
      "inputs": [
        {
          "internalType": "address",
          "name": "token",
          "type": "address"
        },
        {
          "internalType": "address payable",
          "name": "to",
          "type": "address"
        }
      ],
      "name": "emergencyWithdraw",
      "outputs": [],
      "stateMutability": "nonpayable",
      "type": "function"
    },
    {
      "inputs": [],
      "name": "endTime",
      "outputs": [
        {
          "internalType": "uint256",
          "name": "",
          "type": "uint256"
        }
      ],
      "stateMutability": "view",
      "type": "function"
    },
    {
      "inputs": [
        {
          "internalType": "address",
          "name": "_destination",
          "type": "address"
        }
      ],
      "name": "finalWithdraw",
      "outputs": [],
      "stateMutability": "nonpayable",
      "type": "function"
    },
    {
      "inputs": [],
      "name": "getAddressListLength",
      "outputs": [
        {
          "internalType": "uint256",
          "name": "",
          "type": "uint256"
        }
      ],
      "stateMutability": "view",
      "type": "function"
    },
    {
      "inputs": [],
      "name": "getInfo",
      "outputs": [
        {
          "components": [
            {
              "internalType": "contract ERC20",
              "name": "token",
              "type": "address"
            },
            {
              "internalType": "uint256",
              "name": "decimals",
              "type": "uint256"
            },
            {
              "internalType": "string",
              "name": "name",
              "type": "string"
            },
            {
              "internalType": "string",
              "name": "symbol",
              "type": "string"
            }
          ],
          "internalType": "struct FundRaising.TokenInfo",
          "name": "",
          "type": "tuple"
        },
        {
          "components": [
            {
              "internalType": "contract ERC20",
              "name": "token",
              "type": "address"
            },
            {
              "internalType": "uint256",
              "name": "decimals",
              "type": "uint256"
            },
            {
              "internalType": "string",
              "name": "name",
              "type": "string"
            },
            {
              "internalType": "string",
              "name": "symbol",
              "type": "string"
            }
          ],
          "internalType": "struct FundRaising.TokenInfo",
          "name": "",
          "type": "tuple"
        },
        {
          "internalType": "uint256",
          "name": "",
          "type": "uint256"
        },
        {
          "internalType": "uint256",
          "name": "",
          "type": "uint256"
        },
        {
          "internalType": "uint256",
          "name": "",
          "type": "uint256"
        },
        {
          "internalType": "uint256",
          "name": "",
          "type": "uint256"
        }
      ],
      "stateMutability": "view",
      "type": "function"
    },
    {
      "inputs": [
        {
          "internalType": "address",
          "name": "_user",
          "type": "address"
        }
      ],
      "name": "getOfferingAmount",
      "outputs": [
        {
          "internalType": "uint256",
          "name": "",
          "type": "uint256"
        }
      ],
      "stateMutability": "view",
      "type": "function"
    },
    {
      "inputs": [
        {
          "internalType": "address",
          "name": "_user",
          "type": "address"
        }
      ],
      "name": "getRefundingAmount",
      "outputs": [
        {
          "internalType": "uint256",
          "name": "",
          "type": "uint256"
        }
      ],
      "stateMutability": "view",
      "type": "function"
    },
    {
      "inputs": [
        {
          "internalType": "address",
          "name": "_user",
          "type": "address"
        }
      ],
      "name": "getUserAllocation",
      "outputs": [
        {
          "internalType": "uint256",
          "name": "",
          "type": "uint256"
        }
      ],
      "stateMutability": "view",
      "type": "function"
    },
    {
      "inputs": [],
      "name": "harvest",
      "outputs": [],
      "stateMutability": "nonpayable",
      "type": "function"
    },
    {
      "inputs": [],
      "name": "harvestTime",
      "outputs": [
        {
          "internalType": "uint256",
          "name": "",
          "type": "uint256"
        }
      ],
      "stateMutability": "view",
      "type": "function"
    },
    {
      "inputs": [
        {
          "internalType": "address",
          "name": "_user",
          "type": "address"
        }
      ],
      "name": "hasHarvest",
      "outputs": [
        {
          "internalType": "bool",
          "name": "",
          "type": "bool"
        }
      ],
      "stateMutability": "view",
      "type": "function"
    },
    {
      "inputs": [],
      "name": "offeringAmount",
      "outputs": [
        {
          "internalType": "uint256",
          "name": "",
          "type": "uint256"
        }
      ],
      "stateMutability": "view",
      "type": "function"
    },
    {
      "inputs": [],
      "name": "offeringToken",
      "outputs": [
        {
          "internalType": "contract ERC20",
          "name": "",
          "type": "address"
        }
      ],
      "stateMutability": "view",
      "type": "function"
    },
    {
      "inputs": [],
      "name": "owner",
      "outputs": [
        {
          "internalType": "address",
          "name": "",
          "type": "address"
        }
      ],
      "stateMutability": "view",
      "type": "function"
    },
    {
      "inputs": [],
      "name": "pause",
      "outputs": [],
      "stateMutability": "nonpayable",
      "type": "function"
    },
    {
      "inputs": [],
      "name": "paused",
      "outputs": [
        {
          "internalType": "bool",
          "name": "",
          "type": "bool"
        }
      ],
      "stateMutability": "view",
      "type": "function"
    },
    {
      "inputs": [],
      "name": "raisingAmount",
      "outputs": [
        {
          "internalType": "uint256",
          "name": "",
          "type": "uint256"
        }
      ],
      "stateMutability": "view",
      "type": "function"
    },
    {
      "inputs": [],
      "name": "renounceOwnership",
      "outputs": [],
      "stateMutability": "nonpayable",
      "type": "function"
    },
    {
      "inputs": [
        {
          "internalType": "uint256",
          "name": "_offerAmount",
          "type": "uint256"
        }
      ],
      "name": "setOfferingAmount",
      "outputs": [],
      "stateMutability": "nonpayable",
      "type": "function"
    },
    {
      "inputs": [
        {
          "internalType": "uint256",
          "name": "_raisingAmount",
          "type": "uint256"
        }
      ],
      "name": "setRaisingAmount",
      "outputs": [],
      "stateMutability": "nonpayable",
      "type": "function"
    },
    {
      "inputs": [
        {
          "internalType": "uint256[]",
          "name": "_snapshotIds",
          "type": "uint256[]"
        }
      ],
      "name": "setSnapshotIds",
      "outputs": [],
      "stateMutability": "nonpayable",
      "type": "function"
    },
    {
      "inputs": [
        {
          "internalType": "uint256",
          "name": "",
          "type": "uint256"
        }
      ],
      "name": "snapshotIds",
      "outputs": [
        {
          "internalType": "uint256",
          "name": "",
          "type": "uint256"
        }
      ],
      "stateMutability": "view",
      "type": "function"
    },
    {
      "inputs": [],
      "name": "startTime",
      "outputs": [
        {
          "internalType": "uint256",
          "name": "",
          "type": "uint256"
        }
      ],
      "stateMutability": "view",
      "type": "function"
    },
    {
      "inputs": [],
      "name": "tierSystem",
      "outputs": [
        {
          "internalType": "contract ITierSystem",
          "name": "",
          "type": "address"
        }
      ],
      "stateMutability": "view",
      "type": "function"
    },
    {
      "inputs": [],
      "name": "totalAmount",
      "outputs": [
        {
          "internalType": "uint256",
          "name": "",
          "type": "uint256"
        }
      ],
      "stateMutability": "view",
      "type": "function"
    },
    {
      "inputs": [
        {
          "internalType": "address",
          "name": "newOwner",
          "type": "address"
        }
      ],
      "name": "transferOwnership",
      "outputs": [],
      "stateMutability": "nonpayable",
      "type": "function"
    },
    {
      "inputs": [],
      "name": "unpause",
      "outputs": [],
      "stateMutability": "nonpayable",
      "type": "function"
    },
    {
      "inputs": [
        {
          "internalType": "uint256",
          "name": "_newTime",
          "type": "uint256"
        }
      ],
      "name": "updateEndTime",
      "outputs": [],
      "stateMutability": "nonpayable",
      "type": "function"
    },
    {
      "inputs": [
        {
          "internalType": "uint256",
          "name": "_newTime",
          "type": "uint256"
        }
      ],
      "name": "updateHarvestTime",
      "outputs": [],
      "stateMutability": "nonpayable",
      "type": "function"
    },
    {
      "inputs": [
        {
          "internalType": "address",
          "name": "",
          "type": "address"
        }
      ],
      "name": "userInfo",
      "outputs": [
        {
          "internalType": "uint256",
          "name": "amount",
          "type": "uint256"
        },
        {
          "internalType": "bool",
          "name": "claimed",
          "type": "bool"
        }
      ],
      "stateMutability": "view",
      "type": "function"
    }
  ],
  "bytecode": "0x60806040526040518060800160405280683635c9adc5dea00000815260200168a2a15d09519be00000815260200169021e19e0c9bab2400000815260200169065a4da25d3016c00000815250600d9060046200005d929190620002c4565b503480156200006b57600080fd5b506040516200433c3803806200433c83398181016040528101906200009191906200036d565b6001600081905550620000b9620000ad620001f660201b60201c565b620001fe60201b60201c565b6000600160146101000a81548160ff021916908315150217905550848410158015620000e457508585115b8015620000f057504286115b620000fa57600080fd5b87600260006101000a81548173ffffffffffffffffffffffffffffffffffffffff021916908373ffffffffffffffffffffffffffffffffffffffff16021790555086600360006101000a81548173ffffffffffffffffffffffffffffffffffffffff021916908373ffffffffffffffffffffffffffffffffffffffff1602179055508560048190555084600581905550836006819055508260088190555081600781905550600060098190555080600c60006101000a81548173ffffffffffffffffffffffffffffffffffffffff021916908373ffffffffffffffffffffffffffffffffffffffff1602179055505050505050505050620004e4565b600033905090565b6000600160009054906101000a900473ffffffffffffffffffffffffffffffffffffffff16905081600160006101000a81548173ffffffffffffffffffffffffffffffffffffffff021916908373ffffffffffffffffffffffffffffffffffffffff1602179055508173ffffffffffffffffffffffffffffffffffffffff168173ffffffffffffffffffffffffffffffffffffffff167f8be0079c531659141344cd1fd0a4f28419497f9722a3daafe3b4186f6b6457e060405160405180910390a35050565b8260048101928215620002f6579160200282015b82811115620002f5578251825591602001919060010190620002d8565b5b50905062000305919062000309565b5090565b5b80821115620003245760008160009055506001016200030a565b5090565b600081519050620003398162000496565b92915050565b6000815190506200035081620004b0565b92915050565b6000815190506200036781620004ca565b92915050565b600080600080600080600080610100898b0312156200038b57600080fd5b60006200039b8b828c0162000328565b9850506020620003ae8b828c0162000328565b9750506040620003c18b828c0162000356565b9650506060620003d48b828c0162000356565b9550506080620003e78b828c0162000356565b94505060a0620003fa8b828c0162000356565b93505060c06200040d8b828c0162000356565b92505060e0620004208b828c016200033f565b9150509295985092959890939650565b60006200043d826200046c565b9050919050565b6000620004518262000430565b9050919050565b6000620004658262000430565b9050919050565b600073ffffffffffffffffffffffffffffffffffffffff82169050919050565b6000819050919050565b620004a18162000444565b8114620004ad57600080fd5b50565b620004bb8162000458565b8114620004c757600080fd5b50565b620004d5816200048c565b8114620004e157600080fd5b50565b613e4880620004f46000396000f3fe6080604052600436106101f95760003560e01c8063774142bb1161010d578063b6b55f25116100a0578063e1af9a951161006f578063e1af9a9514610706578063f2fde38b14610731578063f48082101461075a578063f8caa7e514610785578063fc00358e146107b0576101f9565b8063b6b55f2514610645578063b781360714610661578063b810fb431461068c578063b920ade2146106c9576101f9565b80638da5cb5b116100dc5780638da5cb5b1461059b5780639c0a7669146105c6578063a4821719146105f1578063ac3ff9121461061c576101f9565b8063774142bb146104df57806378e979251461051c5780638456cb591461054757806387e97bc61461055e576101f9565b80634369ac2d116101905780636382d9ad1161015f5780636382d9ad1461041057806364ce9fff146104395780636ab3846b14610476578063715018a61461049f57806376ea6ee0146104b6576101f9565b80634369ac2d146103755780634641257d1461039e5780635a9b0b89146103b55780635c975abb146103e5576101f9565b80632f5105f8116101cc5780632f5105f8146102cd5780633197cbb61461030a5780633f4ba83a146103355780634225c32f1461034c576101f9565b80630a2642bf146101fe5780631959a0021461023b5780631a39d8ef1461027957806327d1b1a2146102a4575b600080fd5b34801561020a57600080fd5b5061022560048036038101906102209190612c77565b6107db565b6040516102329190613582565b60405180910390f35b34801561024757600080fd5b50610262600480360381019061025d9190612b67565b6107f6565b60405161027092919061359d565b60405180910390f35b34801561028557600080fd5b5061028e610827565b60405161029b9190613582565b60405180910390f35b3480156102b057600080fd5b506102cb60048036038101906102c69190612c77565b61082d565b005b3480156102d957600080fd5b506102f460048036038101906102ef9190612b67565b6108f7565b6040516103019190613582565b60405180910390f35b34801561031657600080fd5b5061031f6109ac565b60405161032c9190613582565b60405180910390f35b34801561034157600080fd5b5061034a6109b2565b005b34801561035857600080fd5b50610373600480360381019061036e9190612c77565b610a38565b005b34801561038157600080fd5b5061039c60048036038101906103979190612bcc565b610b02565b005b3480156103aa57600080fd5b506103b3610b98565b005b3480156103c157600080fd5b506103ca610f63565b6040516103dc96959493929190613513565b60405180910390f35b3480156103f157600080fd5b506103fa610ffb565b6040516104079190613240565b60405180910390f35b34801561041c57600080fd5b5061043760048036038101906104329190612b90565b611012565b005b34801561044557600080fd5b50610460600480360381019061045b9190612b67565b6111c7565b60405161046d9190613240565b60405180910390f35b34801561048257600080fd5b5061049d60048036038101906104989190612c77565b611220565b005b3480156104ab57600080fd5b506104b46112f5565b005b3480156104c257600080fd5b506104dd60048036038101906104d89190612c77565b61137d565b005b3480156104eb57600080fd5b5061050660048036038101906105019190612c77565b611452565b6040516105139190613582565b60405180910390f35b34801561052857600080fd5b50610531611476565b60405161053e9190613582565b60405180910390f35b34801561055357600080fd5b5061055c61147c565b005b34801561056a57600080fd5b5061058560048036038101906105809190612b67565b611502565b6040516105929190613582565b60405180910390f35b3480156105a757600080fd5b506105b06115c7565b6040516105bd9190613195565b60405180910390f35b3480156105d257600080fd5b506105db6115f1565b6040516105e89190613582565b60405180910390f35b3480156105fd57600080fd5b506106066115f7565b604051610613919061325b565b60405180910390f35b34801561062857600080fd5b50610643600480360381019061063e9190612b67565b61161d565b005b61065f600480360381019061065a9190612c77565b6117fa565b005b34801561066d57600080fd5b50610676611ce8565b604051610683919061325b565b60405180910390f35b34801561069857600080fd5b506106b360048036038101906106ae9190612c77565b611d0e565b6040516106c09190613195565b60405180910390f35b3480156106d557600080fd5b506106f060048036038101906106eb9190612b67565b611d4d565b6040516106fd9190613582565b60405180910390f35b34801561071257600080fd5b5061071b611dc7565b6040516107289190613582565b60405180910390f35b34801561073d57600080fd5b5061075860048036038101906107539190612b67565b611dcd565b005b34801561076657600080fd5b5061076f611ec5565b60405161077c9190613582565b60405180910390f35b34801561079157600080fd5b5061079a611ecb565b6040516107a79190613276565b60405180910390f35b3480156107bc57600080fd5b506107c5611ef1565b6040516107d29190613582565b60405180910390f35b600d81600481106107eb57600080fd5b016000915090505481565b600a6020528060005260406000206000915090508060000154908060010160009054906101000a900460ff16905082565b60095481565b610835611efe565b73ffffffffffffffffffffffffffffffffffffffff166108536115c7565b73ffffffffffffffffffffffffffffffffffffffff16146108a9576040517f08c379a00000000000000000000000000000000000000000000000000000000081526004016108a090613433565b60405180910390fd5b60045442106108ed576040517f08c379a00000000000000000000000000000000000000000000000000000000081526004016108e4906133d3565b60405180910390fd5b8060088190555050565b60006007546009541161090d57600090506109a7565b600061091883611d4d565b9050600061094b670de0b6b3a764000061093d84600754611f0690919063ffffffff16565b611f1c90919063ffffffff16565b90506109a281600a60008773ffffffffffffffffffffffffffffffffffffffff1673ffffffffffffffffffffffffffffffffffffffff16815260200190815260200160002060000154611f3290919063ffffffff16565b925050505b919050565b60055481565b6109ba611efe565b73ffffffffffffffffffffffffffffffffffffffff166109d86115c7565b73ffffffffffffffffffffffffffffffffffffffff1614610a2e576040517f08c379a0000000000000000000000000000000000000000000000000000000008152600401610a2590613433565b60405180910390fd5b610a36611f48565b565b610a40611efe565b73ffffffffffffffffffffffffffffffffffffffff16610a5e6115c7565b73ffffffffffffffffffffffffffffffffffffffff1614610ab4576040517f08c379a0000000000000000000000000000000000000000000000000000000008152600401610aab90613433565b60405180910390fd5b6004544210610af8576040517f08c379a0000000000000000000000000000000000000000000000000000000008152600401610aef906133d3565b60405180910390fd5b8060078190555050565b610b0a611efe565b73ffffffffffffffffffffffffffffffffffffffff16610b286115c7565b73ffffffffffffffffffffffffffffffffffffffff1614610b7e576040517f08c379a0000000000000000000000000000000000000000000000000000000008152600401610b7590613433565b60405180910390fd5b8060119080519060200190610b94929190612943565b5050565b60026000541415610bde576040517f08c379a0000000000000000000000000000000000000000000000000000000008152600401610bd5906134d3565b60405180910390fd5b60026000819055506006544211610c2a576040517f08c379a0000000000000000000000000000000000000000000000000000000008152600401610c2190613453565b60405180910390fd5b6000600a60003373ffffffffffffffffffffffffffffffffffffffff1673ffffffffffffffffffffffffffffffffffffffff1681526020019081526020016000206000015411610caf576040517f08c379a0000000000000000000000000000000000000000000000000000000008152600401610ca690613413565b60405180910390fd5b600a60003373ffffffffffffffffffffffffffffffffffffffff1673ffffffffffffffffffffffffffffffffffffffff16815260200190815260200160002060010160009054906101000a900460ff1615610d3f576040517f08c379a0000000000000000000000000000000000000000000000000000000008152600401610d36906134f3565b60405180910390fd5b610d47610ffb565b15610d87576040517f08c379a0000000000000000000000000000000000000000000000000000000008152600401610d7e90613393565b60405180910390fd5b6000610d9233611502565b90506000610d9f336108f7565b9050610dee3383600360009054906101000a900473ffffffffffffffffffffffffffffffffffffffff1673ffffffffffffffffffffffffffffffffffffffff16611fea9092919063ffffffff16565b6000811115610eac57600073ffffffffffffffffffffffffffffffffffffffff16600260009054906101000a900473ffffffffffffffffffffffffffffffffffffffff1673ffffffffffffffffffffffffffffffffffffffff161415610e5d57610e583382612070565b610eab565b610eaa3382600260009054906101000a900473ffffffffffffffffffffffffffffffffffffffff1673ffffffffffffffffffffffffffffffffffffffff16611fea9092919063ffffffff16565b5b5b6001600a60003373ffffffffffffffffffffffffffffffffffffffff1673ffffffffffffffffffffffffffffffffffffffff16815260200190815260200160002060010160006101000a81548160ff0219169083151502179055503373ffffffffffffffffffffffffffffffffffffffff167f71bab65ced2e5750775a0613be067df48ef06cf92a496ebf7663ae06609249548383604051610f4f9291906135c6565b60405180910390a250506001600081905550565b610f6b612990565b610f73612990565b6000806000806000610fa6600260009054906101000a900473ffffffffffffffffffffffffffffffffffffffff16612196565b90506000610fd5600360009054906101000a900473ffffffffffffffffffffffffffffffffffffffff16612196565b905081816004546005546008546007549750975097509750975097505050909192939495565b6000600160149054906101000a900460ff16905090565b61101a611efe565b73ffffffffffffffffffffffffffffffffffffffff166110386115c7565b73ffffffffffffffffffffffffffffffffffffffff161461108e576040517f08c379a000000000000000000000000000000000000000000000000000000000815260040161108590613433565b60405180910390fd5b600073ffffffffffffffffffffffffffffffffffffffff168273ffffffffffffffffffffffffffffffffffffffff16141561110f578073ffffffffffffffffffffffffffffffffffffffff166108fc479081150290604051600060405180830381858888f19350505050158015611109573d6000803e3d6000fd5b506111c3565b6111c2818373ffffffffffffffffffffffffffffffffffffffff166370a08231306040518263ffffffff1660e01b815260040161114c9190613195565b60206040518083038186803b15801561116457600080fd5b505afa158015611178573d6000803e3d6000fd5b505050506040513d601f19601f8201168201806040525081019061119c9190612ca0565b8473ffffffffffffffffffffffffffffffffffffffff16611fea9092919063ffffffff16565b5b5050565b6000600a60008373ffffffffffffffffffffffffffffffffffffffff1673ffffffffffffffffffffffffffffffffffffffff16815260200190815260200160002060010160009054906101000a900460ff169050919050565b611228611efe565b73ffffffffffffffffffffffffffffffffffffffff166112466115c7565b73ffffffffffffffffffffffffffffffffffffffff161461129c576040517f08c379a000000000000000000000000000000000000000000000000000000000815260040161129390613433565b60405180910390fd5b42811180156112ac575060065481105b6112eb576040517f08c379a00000000000000000000000000000000000000000000000000000000081526004016112e290613353565b60405180910390fd5b8060058190555050565b6112fd611efe565b73ffffffffffffffffffffffffffffffffffffffff1661131b6115c7565b73ffffffffffffffffffffffffffffffffffffffff1614611371576040517f08c379a000000000000000000000000000000000000000000000000000000000815260040161136890613433565b60405180910390fd5b61137b6000612360565b565b611385611efe565b73ffffffffffffffffffffffffffffffffffffffff166113a36115c7565b73ffffffffffffffffffffffffffffffffffffffff16146113f9576040517f08c379a00000000000000000000000000000000000000000000000000000000081526004016113f090613433565b60405180910390fd5b4281118015611409575060055481115b611448576040517f08c379a000000000000000000000000000000000000000000000000000000000815260040161143f90613353565b60405180910390fd5b8060068190555050565b6011818154811061146257600080fd5b906000526020600020016000915090505481565b60045481565b611484611efe565b73ffffffffffffffffffffffffffffffffffffffff166114a26115c7565b73ffffffffffffffffffffffffffffffffffffffff16146114f8576040517f08c379a00000000000000000000000000000000000000000000000000000000081526004016114ef90613433565b60405180910390fd5b611500612426565b565b6000600754600954111561155457600061151b83611d4d565b905061154c670de0b6b3a764000061153e83600854611f0690919063ffffffff16565b611f1c90919063ffffffff16565b9150506115c2565b6115bf6007546115b1600854600a60008773ffffffffffffffffffffffffffffffffffffffff1673ffffffffffffffffffffffffffffffffffffffff16815260200190815260200160002060000154611f0690919063ffffffff16565b611f1c90919063ffffffff16565b90505b919050565b6000600160009054906101000a900473ffffffffffffffffffffffffffffffffffffffff16905090565b60075481565b600260009054906101000a900473ffffffffffffffffffffffffffffffffffffffff1681565b611625611efe565b73ffffffffffffffffffffffffffffffffffffffff166116436115c7565b73ffffffffffffffffffffffffffffffffffffffff1614611699576040517f08c379a000000000000000000000000000000000000000000000000000000000815260040161169090613433565b60405180910390fd5b600073ffffffffffffffffffffffffffffffffffffffff16600260009054906101000a900473ffffffffffffffffffffffffffffffffffffffff1673ffffffffffffffffffffffffffffffffffffffff1614156116ff576116fa8147612070565b6117f7565b6117f681600260009054906101000a900473ffffffffffffffffffffffffffffffffffffffff1673ffffffffffffffffffffffffffffffffffffffff166370a08231306040518263ffffffff1660e01b815260040161175e9190613195565b60206040518083038186803b15801561177657600080fd5b505afa15801561178a573d6000803e3d6000fd5b505050506040513d601f19601f820116820180604052508101906117ae9190612ca0565b600260009054906101000a900473ffffffffffffffffffffffffffffffffffffffff1673ffffffffffffffffffffffffffffffffffffffff16611fea9092919063ffffffff16565b5b50565b60026000541415611840576040517f08c379a0000000000000000000000000000000000000000000000000000000008152600401611837906134d3565b60405180910390fd5b6002600081905550806004544211801561185b575060055442105b61189a576040517f08c379a000000000000000000000000000000000000000000000000000000000815260040161189190613313565b60405180910390fd5b600081116118dd576040517f08c379a00000000000000000000000000000000000000000000000000000000081526004016118d4906132b3565b60405180910390fd5b6118e5610ffb565b15611925576040517f08c379a000000000000000000000000000000000000000000000000000000000815260040161191c90613393565b60405180910390fd5b6000611930336124c8565b9050600a60003373ffffffffffffffffffffffffffffffffffffffff1673ffffffffffffffffffffffffffffffffffffffff1681526020019081526020016000206000015481116119b6576040517f08c379a00000000000000000000000000000000000000000000000000000000081526004016119ad906133b3565b60405180910390fd5b6000600a60003373ffffffffffffffffffffffffffffffffffffffff1673ffffffffffffffffffffffffffffffffffffffff1681526020019081526020016000206000015482611a0691906137d3565b9050600084905084821015611a19578190505b600073ffffffffffffffffffffffffffffffffffffffff16600260009054906101000a900473ffffffffffffffffffffffffffffffffffffffff1673ffffffffffffffffffffffffffffffffffffffff161415611ad65780341015611ab3576040517f08c379a0000000000000000000000000000000000000000000000000000000008152600401611aaa906133f3565b60405180910390fd5b80341115611ad157611ad0338234611acb91906137d3565b612070565b5b611b26565b611b25333083600260009054906101000a900473ffffffffffffffffffffffffffffffffffffffff1673ffffffffffffffffffffffffffffffffffffffff16612627909392919063ffffffff16565b5b6000600a60003373ffffffffffffffffffffffffffffffffffffffff1673ffffffffffffffffffffffffffffffffffffffff168152602001908152602001600020600001541415611bd557600b339080600181540180825580915050600190039060005260206000200160009091909190916101000a81548173ffffffffffffffffffffffffffffffffffffffff021916908373ffffffffffffffffffffffffffffffffffffffff1602179055505b611c2a81600a60003373ffffffffffffffffffffffffffffffffffffffff1673ffffffffffffffffffffffffffffffffffffffff168152602001908152602001600020600001546126b090919063ffffffff16565b600a60003373ffffffffffffffffffffffffffffffffffffffff1673ffffffffffffffffffffffffffffffffffffffff16815260200190815260200160002060000181905550611c85816009546126b090919063ffffffff16565b6009819055503373ffffffffffffffffffffffffffffffffffffffff167fe1fffcc4923d04b559f4d29a8bfc6cda04eb5b0d3c460751c2402c5c5cc9109c82604051611cd19190613582565b60405180910390a250505050600160008190555050565b600360009054906101000a900473ffffffffffffffffffffffffffffffffffffffff1681565b600b8181548110611d1e57600080fd5b906000526020600020016000915054906101000a900473ffffffffffffffffffffffffffffffffffffffff1681565b6000611dc0600954611db2670de0b6b3a7640000600a60008773ffffffffffffffffffffffffffffffffffffffff1673ffffffffffffffffffffffffffffffffffffffff16815260200190815260200160002060000154611f0690919063ffffffff16565b611f1c90919063ffffffff16565b9050919050565b60085481565b611dd5611efe565b73ffffffffffffffffffffffffffffffffffffffff16611df36115c7565b73ffffffffffffffffffffffffffffffffffffffff1614611e49576040517f08c379a0000000000000000000000000000000000000000000000000000000008152600401611e4090613433565b60405180910390fd5b600073ffffffffffffffffffffffffffffffffffffffff168173ffffffffffffffffffffffffffffffffffffffff161415611eb9576040517f08c379a0000000000000000000000000000000000000000000000000000000008152600401611eb0906132f3565b60405180910390fd5b611ec281612360565b50565b60065481565b600c60009054906101000a900473ffffffffffffffffffffffffffffffffffffffff1681565b6000600b80549050905090565b600033905090565b60008183611f149190613779565b905092915050565b60008183611f2a9190613748565b905092915050565b60008183611f4091906137d3565b905092915050565b611f50610ffb565b611f8f576040517f08c379a0000000000000000000000000000000000000000000000000000000008152600401611f86906132d3565b60405180910390fd5b6000600160146101000a81548160ff0219169083151502179055507f5db9ee0a495bf2e6ff9c91a7834c1ba4fdd244a5e8aa4e537bd38aeae4b073aa611fd3611efe565b604051611fe09190613195565b60405180910390a1565b61206b8363a9059cbb60e01b8484604051602401612009929190613217565b604051602081830303815290604052907bffffffffffffffffffffffffffffffffffffffffffffffffffffffff19166020820180517bffffffffffffffffffffffffffffffffffffffffffffffffffffffff83818316178352505050506126c6565b505050565b60008273ffffffffffffffffffffffffffffffffffffffff1682600067ffffffffffffffff8111156120cb577f4e487b7100000000000000000000000000000000000000000000000000000000600052604160045260246000fd5b6040519080825280601f01601f1916602001820160405280156120fd5781602001600182028036833780820191505090505b5060405161210b919061317e565b60006040518083038185875af1925050503d8060008114612148576040519150601f19603f3d011682016040523d82523d6000602084013e61214d565b606091505b5050905080612191576040517f08c379a000000000000000000000000000000000000000000000000000000000815260040161218890613493565b60405180910390fd5b505050565b61219e612990565b60405180608001604052808373ffffffffffffffffffffffffffffffffffffffff1681526020018373ffffffffffffffffffffffffffffffffffffffff1663313ce5676040518163ffffffff1660e01b815260040160206040518083038186803b15801561220b57600080fd5b505afa15801561221f573d6000803e3d6000fd5b505050506040513d601f19601f820116820180604052508101906122439190612cc9565b60ff1681526020018373ffffffffffffffffffffffffffffffffffffffff166306fdde036040518163ffffffff1660e01b815260040160006040518083038186803b15801561229157600080fd5b505afa1580156122a5573d6000803e3d6000fd5b505050506040513d6000823e3d601f19601f820116820180604052508101906122ce9190612c36565b81526020018373ffffffffffffffffffffffffffffffffffffffff166395d89b416040518163ffffffff1660e01b815260040160006040518083038186803b15801561231957600080fd5b505afa15801561232d573d6000803e3d6000fd5b505050506040513d6000823e3d601f19601f820116820180604052508101906123569190612c36565b8152509050919050565b6000600160009054906101000a900473ffffffffffffffffffffffffffffffffffffffff16905081600160006101000a81548173ffffffffffffffffffffffffffffffffffffffff021916908373ffffffffffffffffffffffffffffffffffffffff1602179055508173ffffffffffffffffffffffffffffffffffffffff168173ffffffffffffffffffffffffffffffffffffffff167f8be0079c531659141344cd1fd0a4f28419497f9722a3daafe3b4186f6b6457e060405160405180910390a35050565b61242e610ffb565b1561246e576040517f08c379a000000000000000000000000000000000000000000000000000000000815260040161246590613393565b60405180910390fd5b60018060146101000a81548160ff0219169083151502179055507f62e78cea01bee320cd4e420270b5ea74000d11b0c9f74754ebdbfc544b05a2586124b1611efe565b6040516124be9190613195565b60405180910390a1565b60008060118054905011612511576040517f08c379a000000000000000000000000000000000000000000000000000000000815260040161250890613333565b60405180910390fd5b6000600c60009054906101000a900473ffffffffffffffffffffffffffffffffffffffff1673ffffffffffffffffffffffffffffffffffffffff16635d1e37ad8460116040518363ffffffff1660e01b81526004016125719291906131e7565b60206040518083038186803b15801561258957600080fd5b505afa15801561259d573d6000803e3d6000fd5b505050506040513d601f19601f820116820180604052508101906125c19190612ca0565b905060008114156125d6576000915050612622565b600d6001826125e591906137d3565b6004811061261c577f4e487b7100000000000000000000000000000000000000000000000000000000600052603260045260246000fd5b01549150505b919050565b6126aa846323b872dd60e01b858585604051602401612648939291906131b0565b604051602081830303815290604052907bffffffffffffffffffffffffffffffffffffffffffffffffffffffff19166020820180517bffffffffffffffffffffffffffffffffffffffffffffffffffffffff83818316178352505050506126c6565b50505050565b600081836126be91906136f2565b905092915050565b6000612728826040518060400160405280602081526020017f5361666545524332303a206c6f772d6c6576656c2063616c6c206661696c65648152508573ffffffffffffffffffffffffffffffffffffffff1661278d9092919063ffffffff16565b905060008151111561278857808060200190518101906127489190612c0d565b612787576040517f08c379a000000000000000000000000000000000000000000000000000000000815260040161277e906134b3565b60405180910390fd5b5b505050565b606061279c84846000856127a5565b90509392505050565b6060824710156127ea576040517f08c379a00000000000000000000000000000000000000000000000000000000081526004016127e190613373565b60405180910390fd5b6127f3856128b9565b612832576040517f08c379a000000000000000000000000000000000000000000000000000000000815260040161282990613473565b60405180910390fd5b6000808673ffffffffffffffffffffffffffffffffffffffff16858760405161285b919061317e565b60006040518083038185875af1925050503d8060008114612898576040519150601f19603f3d011682016040523d82523d6000602084013e61289d565b606091505b50915091506128ad8282866128dc565b92505050949350505050565b6000808273ffffffffffffffffffffffffffffffffffffffff163b119050919050565b606083156128ec5782905061293c565b6000835111156128ff5782518084602001fd5b816040517f08c379a00000000000000000000000000000000000000000000000000000000081526004016129339190613291565b60405180910390fd5b9392505050565b82805482825590600052602060002090810192821561297f579160200282015b8281111561297e578251825591602001919060010190612963565b5b50905061298c91906129ce565b5090565b6040518060800160405280600073ffffffffffffffffffffffffffffffffffffffff1681526020016000815260200160608152602001606081525090565b5b808211156129e75760008160009055506001016129cf565b5090565b60006129fe6129f984613614565b6135ef565b90508083825260208201905082856020860282011115612a1d57600080fd5b60005b85811015612a4d5781612a338882612b28565b845260208401935060208301925050600181019050612a20565b5050509392505050565b6000612a6a612a6584613640565b6135ef565b905082815260208101848484011115612a8257600080fd5b612a8d8482856138c0565b509392505050565b600081359050612aa481613d9f565b92915050565b600081359050612ab981613db6565b92915050565b600082601f830112612ad057600080fd5b8135612ae08482602086016129eb565b91505092915050565b600081519050612af881613dcd565b92915050565b600082601f830112612b0f57600080fd5b8151612b1f848260208601612a57565b91505092915050565b600081359050612b3781613de4565b92915050565b600081519050612b4c81613de4565b92915050565b600081519050612b6181613dfb565b92915050565b600060208284031215612b7957600080fd5b6000612b8784828501612a95565b91505092915050565b60008060408385031215612ba357600080fd5b6000612bb185828601612a95565b9250506020612bc285828601612aaa565b9150509250929050565b600060208284031215612bde57600080fd5b600082013567ffffffffffffffff811115612bf857600080fd5b612c0484828501612abf565b91505092915050565b600060208284031215612c1f57600080fd5b6000612c2d84828501612ae9565b91505092915050565b600060208284031215612c4857600080fd5b600082015167ffffffffffffffff811115612c6257600080fd5b612c6e84828501612afe565b91505092915050565b600060208284031215612c8957600080fd5b6000612c9784828501612b28565b91505092915050565b600060208284031215612cb257600080fd5b6000612cc084828501612b3d565b91505092915050565b600060208284031215612cdb57600080fd5b6000612ce984828501612b52565b91505092915050565b6000612cfe8383613160565b60208301905092915050565b612d1381613811565b82525050565b6000612d2482613686565b612d2e81856136b4565b9350612d3983613671565b8060005b83811015612d7157612d4e826139cb565b612d588882612cf2565b9750612d63836136a7565b925050600181019050612d3d565b5085935050505092915050565b612d8781613835565b82525050565b6000612d9882613691565b612da281856136c5565b9350612db28185602086016138c0565b80840191505092915050565b612dc781613878565b82525050565b612dd681613878565b82525050565b612de58161389c565b82525050565b6000612df68261369c565b612e0081856136d0565b9350612e108185602086016138c0565b612e19816139de565b840191505092915050565b6000612e2f8261369c565b612e3981856136e1565b9350612e498185602086016138c0565b612e52816139de565b840191505092915050565b6000612e6a6010836136e1565b9150612e75826139fc565b602082019050919050565b6000612e8d6014836136e1565b9150612e9882613a25565b602082019050919050565b6000612eb06026836136e1565b9150612ebb82613a4e565b604082019050919050565b6000612ed36010836136e1565b9150612ede82613a9d565b602082019050919050565b6000612ef66013836136e1565b9150612f0182613ac6565b602082019050919050565b6000612f19600e836136e1565b9150612f2482613aef565b602082019050919050565b6000612f3c6026836136e1565b9150612f4782613b18565b604082019050919050565b6000612f5f6010836136e1565b9150612f6a82613b67565b602082019050919050565b6000612f826015836136e1565b9150612f8d82613b90565b602082019050919050565b6000612fa56002836136e1565b9150612fb082613bb9565b602082019050919050565b6000612fc86011836136e1565b9150612fd382613be2565b602082019050919050565b6000612feb6016836136e1565b9150612ff682613c0b565b602082019050919050565b600061300e6020836136e1565b915061301982613c34565b602082019050919050565b60006130316010836136e1565b915061303c82613c5d565b602082019050919050565b6000613054601d836136e1565b915061305f82613c86565b602082019050919050565b60006130776023836136e1565b915061308282613caf565b604082019050919050565b600061309a602a836136e1565b91506130a582613cfe565b604082019050919050565b60006130bd601f836136e1565b91506130c882613d4d565b602082019050919050565b60006130e06012836136e1565b91506130eb82613d76565b602082019050919050565b600060808301600083015161310e6000860182612dbe565b5060208301516131216020860182613160565b50604083015184820360408601526131398282612deb565b915050606083015184820360608601526131538282612deb565b9150508091505092915050565b61316981613861565b82525050565b61317881613861565b82525050565b600061318a8284612d8d565b915081905092915050565b60006020820190506131aa6000830184612d0a565b92915050565b60006060820190506131c56000830186612d0a565b6131d26020830185612d0a565b6131df604083018461316f565b949350505050565b60006040820190506131fc6000830185612d0a565b818103602083015261320e8184612d19565b90509392505050565b600060408201905061322c6000830185612d0a565b613239602083018461316f565b9392505050565b60006020820190506132556000830184612d7e565b92915050565b60006020820190506132706000830184612dcd565b92915050565b600060208201905061328b6000830184612ddc565b92915050565b600060208201905081810360008301526132ab8184612e24565b905092915050565b600060208201905081810360008301526132cc81612e5d565b9050919050565b600060208201905081810360008301526132ec81612e80565b9050919050565b6000602082019050818103600083015261330c81612ea3565b9050919050565b6000602082019050818103600083015261332c81612ec6565b9050919050565b6000602082019050818103600083015261334c81612ee9565b9050919050565b6000602082019050818103600083015261336c81612f0c565b9050919050565b6000602082019050818103600083015261338c81612f2f565b9050919050565b600060208201905081810360008301526133ac81612f52565b9050919050565b600060208201905081810360008301526133cc81612f75565b9050919050565b600060208201905081810360008301526133ec81612f98565b9050919050565b6000602082019050818103600083015261340c81612fbb565b9050919050565b6000602082019050818103600083015261342c81612fde565b9050919050565b6000602082019050818103600083015261344c81613001565b9050919050565b6000602082019050818103600083015261346c81613024565b9050919050565b6000602082019050818103600083015261348c81613047565b9050919050565b600060208201905081810360008301526134ac8161306a565b9050919050565b600060208201905081810360008301526134cc8161308d565b9050919050565b600060208201905081810360008301526134ec816130b0565b9050919050565b6000602082019050818103600083015261350c816130d3565b9050919050565b600060c082019050818103600083015261352d81896130f6565b9050818103602083015261354181886130f6565b9050613550604083018761316f565b61355d606083018661316f565b61356a608083018561316f565b61357760a083018461316f565b979650505050505050565b6000602082019050613597600083018461316f565b92915050565b60006040820190506135b2600083018561316f565b6135bf6020830184612d7e565b9392505050565b60006040820190506135db600083018561316f565b6135e8602083018461316f565b9392505050565b60006135f961360a565b9050613605828261390d565b919050565b6000604051905090565b600067ffffffffffffffff82111561362f5761362e61399c565b5b602082029050602081019050919050565b600067ffffffffffffffff82111561365b5761365a61399c565b5b613664826139de565b9050602081019050919050565b60008190508160005260206000209050919050565b600081549050919050565b600081519050919050565b600081519050919050565b6000600182019050919050565b600082825260208201905092915050565b600081905092915050565b600082825260208201905092915050565b600082825260208201905092915050565b60006136fd82613861565b915061370883613861565b9250827fffffffffffffffffffffffffffffffffffffffffffffffffffffffffffffffff0382111561373d5761373c61393e565b5b828201905092915050565b600061375382613861565b915061375e83613861565b92508261376e5761376d61396d565b5b828204905092915050565b600061378482613861565b915061378f83613861565b9250817fffffffffffffffffffffffffffffffffffffffffffffffffffffffffffffffff04831182151516156137c8576137c761393e565b5b828202905092915050565b60006137de82613861565b91506137e983613861565b9250828210156137fc576137fb61393e565b5b828203905092915050565b6000819050919050565b600061381c82613841565b9050919050565b600061382e82613841565b9050919050565b60008115159050919050565b600073ffffffffffffffffffffffffffffffffffffffff82169050919050565b6000819050919050565b600060ff82169050919050565b60006138838261388a565b9050919050565b600061389582613841565b9050919050565b60006138a7826138ae565b9050919050565b60006138b982613841565b9050919050565b60005b838110156138de5780820151818401526020810190506138c3565b838111156138ed576000848401525b50505050565b6000613906613901836139ef565b613807565b9050919050565b613916826139de565b810181811067ffffffffffffffff821117156139355761393461399c565b5b80604052505050565b7f4e487b7100000000000000000000000000000000000000000000000000000000600052601160045260246000fd5b7f4e487b7100000000000000000000000000000000000000000000000000000000600052601260045260246000fd5b7f4e487b7100000000000000000000000000000000000000000000000000000000600052604160045260246000fd5b60006139d782546138f3565b9050919050565b6000601f19601f8301169050919050565b60008160001c9050919050565b7f6e656564205f616d6f756e74203e203000000000000000000000000000000000600082015250565b7f5061757361626c653a206e6f7420706175736564000000000000000000000000600082015250565b7f4f776e61626c653a206e6577206f776e657220697320746865207a65726f206160008201527f6464726573730000000000000000000000000000000000000000000000000000602082015250565b7f6e6f742072616973696e672074696d6500000000000000000000000000000000600082015250565b7f536e617073686f74206964206e6f742073657400000000000000000000000000600082015250565b7f74696d6520696e76616c69642121000000000000000000000000000000000000600082015250565b7f416464726573733a20696e73756666696369656e742062616c616e636520666f60008201527f722063616c6c0000000000000000000000000000000000000000000000000000602082015250565b7f5061757361626c653a2070617573656400000000000000000000000000000000600082015250565b7f6e6f7420656c696769626c6520616d6f756e7421210000000000000000000000600082015250565b7f6e6f000000000000000000000000000000000000000000000000000000000000600082015250565b7f616d6f756e74206e6f7420656e6f756768000000000000000000000000000000600082015250565b7f6861766520796f75207061727469636970617465643f00000000000000000000600082015250565b7f4f776e61626c653a2063616c6c6572206973206e6f7420746865206f776e6572600082015250565b7f6e6f7420686172766573742074696d6500000000000000000000000000000000600082015250565b7f416464726573733a2063616c6c20746f206e6f6e2d636f6e7472616374000000600082015250565b7f5472616e7366657248656c7065723a204b41495f5452414e534645525f46414960008201527f4c45440000000000000000000000000000000000000000000000000000000000602082015250565b7f5361666545524332303a204552433230206f7065726174696f6e20646964206e60008201527f6f74207375636365656400000000000000000000000000000000000000000000602082015250565b7f5265656e7472616e637947756172643a207265656e7472616e742063616c6c00600082015250565b7f6e6f7468696e6720746f20686172766573740000000000000000000000000000600082015250565b613da881613811565b8114613db357600080fd5b50565b613dbf81613823565b8114613dca57600080fd5b50565b613dd681613835565b8114613de157600080fd5b50565b613ded81613861565b8114613df857600080fd5b50565b613e048161386b565b8114613e0f57600080fd5b5056fea26469706673582212207c4f4c8551fa1af84eba9b4f89986c7d3f8afc281526a0077bea666fa2ea3be564736f6c63430008040033",
  "linkReferences": {},
  "deployedLinkReferences": {}
}