{
  "_format": "hh-sol-artifact-1",
  "contractName": "INO",
  "sourceName": "contracts/nft-marketplace/INO/INO.sol",
  "abi": [
    {
      "inputs": [
        {
          "internalType": "address",
          "name": "_buyToken",
          "type": "address"
        },
        {
          "internalType": "address",
          "name": "_minter",
          "type": "address"
        },
        {
          "internalType": "uint256",
          "name": "_startTime",
          "type": "uint256"
        },
        {
          "internalType": "uint256",
          "name": "_endTime",
          "type": "uint256"
        }
      ],
      "stateMutability": "nonpayable",
      "type": "constructor"
    },
    {
      "anonymous": false,
      "inputs": [
        {
          "indexed": true,
          "internalType": "address",
          "name": "user",
          "type": "address"
        },
        {
          "indexed": false,
          "internalType": "uint8",
          "name": "_ticket",
          "type": "uint8"
        }
      ],
      "name": "Buy",
      "type": "event"
    },
    {
      "anonymous": false,
      "inputs": [],
      "name": "Claim",
      "type": "event"
    },
    {
      "anonymous": false,
      "inputs": [
        {
          "indexed": true,
          "internalType": "address",
          "name": "previousOwner",
          "type": "address"
        },
        {
          "indexed": true,
          "internalType": "address",
          "name": "newOwner",
          "type": "address"
        }
      ],
      "name": "OwnershipTransferred",
      "type": "event"
    },
    {
      "anonymous": false,
      "inputs": [
        {
          "indexed": false,
          "internalType": "address",
          "name": "account",
          "type": "address"
        }
      ],
      "name": "Paused",
      "type": "event"
    },
    {
      "anonymous": false,
      "inputs": [
        {
          "indexed": false,
          "internalType": "address",
          "name": "account",
          "type": "address"
        }
      ],
      "name": "Unpaused",
      "type": "event"
    },
    {
      "inputs": [],
      "name": "NFT_PRICE",
      "outputs": [
        {
          "internalType": "uint256",
          "name": "",
          "type": "uint256"
        }
      ],
      "stateMutability": "view",
      "type": "function"
    },
    {
      "inputs": [
        {
          "internalType": "uint8",
          "name": "_ticket",
          "type": "uint8"
        }
      ],
      "name": "buy",
      "outputs": [],
      "stateMutability": "payable",
      "type": "function"
    },
    {
      "inputs": [],
      "name": "buyToken",
      "outputs": [
        {
          "internalType": "address",
          "name": "",
          "type": "address"
        }
      ],
      "stateMutability": "view",
      "type": "function"
    },
    {
      "inputs": [],
      "name": "claim",
      "outputs": [],
      "stateMutability": "nonpayable",
      "type": "function"
    },
    {
      "inputs": [
        {
          "internalType": "address",
          "name": "token",
          "type": "address"
        },
        {
          "internalType": "address payable",
          "name": "to",
          "type": "address"
        }
      ],
      "name": "emergencyWithdraw",
      "outputs": [],
      "stateMutability": "nonpayable",
      "type": "function"
    },
    {
      "inputs": [],
      "name": "endTime",
      "outputs": [
        {
          "internalType": "uint256",
          "name": "",
          "type": "uint256"
        }
      ],
      "stateMutability": "view",
      "type": "function"
    },
    {
      "inputs": [],
      "name": "minter",
      "outputs": [
        {
          "internalType": "address",
          "name": "",
          "type": "address"
        }
      ],
      "stateMutability": "view",
      "type": "function"
    },
    {
      "inputs": [],
      "name": "owner",
      "outputs": [
        {
          "internalType": "address",
          "name": "",
          "type": "address"
        }
      ],
      "stateMutability": "view",
      "type": "function"
    },
    {
      "inputs": [],
      "name": "pause",
      "outputs": [],
      "stateMutability": "nonpayable",
      "type": "function"
    },
    {
      "inputs": [],
      "name": "paused",
      "outputs": [
        {
          "internalType": "bool",
          "name": "",
          "type": "bool"
        }
      ],
      "stateMutability": "view",
      "type": "function"
    },
    {
      "inputs": [],
      "name": "renounceOwnership",
      "outputs": [],
      "stateMutability": "nonpayable",
      "type": "function"
    },
    {
      "inputs": [
        {
          "internalType": "address",
          "name": "_newMinter",
          "type": "address"
        }
      ],
      "name": "setMinter",
      "outputs": [],
      "stateMutability": "nonpayable",
      "type": "function"
    },
    {
      "inputs": [],
      "name": "startTime",
      "outputs": [
        {
          "internalType": "uint256",
          "name": "",
          "type": "uint256"
        }
      ],
      "stateMutability": "view",
      "type": "function"
    },
    {
      "inputs": [],
      "name": "totalTicket",
      "outputs": [
        {
          "internalType": "uint256",
          "name": "",
          "type": "uint256"
        }
      ],
      "stateMutability": "view",
      "type": "function"
    },
    {
      "inputs": [],
      "name": "totalUsedTicked",
      "outputs": [
        {
          "internalType": "uint256",
          "name": "",
          "type": "uint256"
        }
      ],
      "stateMutability": "view",
      "type": "function"
    },
    {
      "inputs": [],
      "name": "totalUsers",
      "outputs": [
        {
          "internalType": "uint256",
          "name": "",
          "type": "uint256"
        }
      ],
      "stateMutability": "view",
      "type": "function"
    },
    {
      "inputs": [
        {
          "internalType": "address",
          "name": "newOwner",
          "type": "address"
        }
      ],
      "name": "transferOwnership",
      "outputs": [],
      "stateMutability": "nonpayable",
      "type": "function"
    },
    {
      "inputs": [],
      "name": "unpause",
      "outputs": [],
      "stateMutability": "nonpayable",
      "type": "function"
    },
    {
      "inputs": [
        {
          "internalType": "address",
          "name": "",
          "type": "address"
        }
      ],
      "name": "users",
      "outputs": [
        {
          "internalType": "uint8",
          "name": "ticket",
          "type": "uint8"
        },
        {
          "internalType": "uint8",
          "name": "usedTicket",
          "type": "uint8"
        }
      ],
      "stateMutability": "view",
      "type": "function"
    }
  ],
  "bytecode": "0x608060405234801561001057600080fd5b50604051610f66380380610f6683398101604081905261002f916101a4565b61003833610138565b6000805460ff60a01b19169055600180556001600160a01b0384161580159061006957506001600160a01b03831615155b6100ac5760405162461bcd60e51b815260206004820152600f60248201526e1059191c995cdcc81a5b9d985b1a59608a1b60448201526064015b60405180910390fd5b81811180156100bc575042600854115b6100fa5760405162461bcd60e51b815260206004820152600f60248201526e151a5b59481a5cc81a5b9d985b1a59608a1b60448201526064016100a3565b600380546001600160a01b039586166001600160a01b03199182161790915560028054949095169316929092179092556008919091556009556101e6565b600080546001600160a01b038381166001600160a01b0319831681178455604051919092169283917f8be0079c531659141344cd1fd0a4f28419497f9722a3daafe3b4186f6b6457e09190a35050565b80516001600160a01b038116811461019f57600080fd5b919050565b600080600080608085870312156101b9578384fd5b6101c285610188565b93506101d060208601610188565b6040860151606090960151949790965092505050565b610d71806101f56000396000f3fe6080604052600436106101145760003560e01c806378e97925116100a0578063b3794eed11610064578063b3794eed146102f0578063b8a2833614610306578063bff1f9e11461031c578063f2fde38b14610332578063fca3b5aa1461035257600080fd5b806378e97925146102345780638456cb591461024a5780638da5cb5b1461025f578063a48217191461027d578063a87430ba1461029d57600080fd5b80634e71d92d116100e75780634e71d92d146101a45780635c975abb146101b95780636382d9ad146101e3578063676dd56314610203578063715018a61461021f57600080fd5b8063075461721461011957806314107f3c146101565780633197cbb61461016b5780633f4ba83a1461018f575b600080fd5b34801561012557600080fd5b50600254610139906001600160a01b031681565b6040516001600160a01b0390911681526020015b60405180910390f35b610169610164366004610c28565b610372565b005b34801561017757600080fd5b5061018160095481565b60405190815260200161014d565b34801561019b57600080fd5b50610169610610565b3480156101b057600080fd5b50610169610622565b3480156101c557600080fd5b50600054600160a01b900460ff16604051901515815260200161014d565b3480156101ef57600080fd5b506101696101fe366004610bb8565b610683565b34801561020f57600080fd5b50610181674563918244f4000081565b34801561022b57600080fd5b506101696107d2565b34801561024057600080fd5b5061018160085481565b34801561025657600080fd5b506101696107e4565b34801561026b57600080fd5b506000546001600160a01b0316610139565b34801561028957600080fd5b50600354610139906001600160a01b031681565b3480156102a957600080fd5b506102d66102b8366004610b9c565b60046020526000908152604090205460ff8082169161010090041682565b6040805160ff93841681529290911660208301520161014d565b3480156102fc57600080fd5b5061018160075481565b34801561031257600080fd5b5061018160065481565b34801561032857600080fd5b5061018160055481565b34801561033e57600080fd5b5061016961034d366004610b9c565b6107f4565b34801561035e57600080fd5b5061016961036d366004610b9c565b61086d565b61037a6108e1565b600260015414156103d25760405162461bcd60e51b815260206004820152601f60248201527f5265656e7472616e637947756172643a207265656e7472616e742063616c6c0060448201526064015b60405180910390fd5b60026001558060ff81166104345760405162461bcd60e51b815260206004820152602360248201527f74686520616d6f756e74206861766520746f20626967676572207468616e207a60448201526265726f60e81b60648201526084016103c9565b600061044b674563918244f4000060ff851661092e565b6003549091506001600160a01b03166104c157803410156104a15760405162461bcd60e51b815260206004820152601060248201526f0ecc2d8eaca40dcdee840cadcdeeaced60831b60448201526064016103c9565b803411156104bc576104bc336104b78334610cde565b610941565b61054d565b6003546040516323b872dd60e01b8152336004820152306024820152604481018390526001600160a01b03909116906323b872dd90606401602060405180830381600087803b15801561051357600080fd5b505af1158015610527573d6000803e3d6000fd5b505050506040513d601f19601f8201168201806040525081019061054b9190610bf0565b505b3360009081526004602052604090205460ff1661057a576005805490600061057483610cf5565b91905055505b336000908152600460205260408120805485929061059c90849060ff16610c9a565b92506101000a81548160ff021916908360ff1602179055508260ff16600660008282546105c99190610c82565b90915550506040805160ff85168152905133917f7c755a1366d3677c32d564a33709398b567d818a6b1da906ea316fd984b3073f919081900360200190a250506001805550565b610618610a0a565b610620610a64565b565b61062a6108e1565b6002600154141561067d5760405162461bcd60e51b815260206004820152601f60248201527f5265656e7472616e637947756172643a207265656e7472616e742063616c6c0060448201526064016103c9565b60018055565b61068b610a0a565b6001600160a01b0382166106d3576040516001600160a01b038216904780156108fc02916000818181858888f193505050501580156106ce573d6000803e3d6000fd5b505050565b6040516370a0823160e01b81523060048201526001600160a01b0383169063a9059cbb90839083906370a082319060240160206040518083038186803b15801561071c57600080fd5b505afa158015610730573d6000803e3d6000fd5b505050506040513d601f19601f820116820180604052508101906107549190610c10565b6040516001600160e01b031960e085901b1681526001600160a01b0390921660048301526024820152604401602060405180830381600087803b15801561079a57600080fd5b505af11580156107ae573d6000803e3d6000fd5b505050506040513d601f19601f820116820180604052508101906106ce9190610bf0565b6107da610a0a565b6106206000610ab9565b6107ec610a0a565b610620610b09565b6107fc610a0a565b6001600160a01b0381166108615760405162461bcd60e51b815260206004820152602660248201527f4f776e61626c653a206e6577206f776e657220697320746865207a65726f206160448201526564647265737360d01b60648201526084016103c9565b61086a81610ab9565b50565b610875610a0a565b6001600160a01b0381166108bf5760405162461bcd60e51b8152602060048201526011602482015270135a5b9d195c881a5cc81a5b9d985b1a59607a1b60448201526064016103c9565b600280546001600160a01b0319166001600160a01b0392909216919091179055565b600054600160a01b900460ff16156106205760405162461bcd60e51b815260206004820152601060248201526f14185d5cd8589b194e881c185d5cd95960821b60448201526064016103c9565b600061093a8284610cbf565b9392505050565b604080516000808252602082019092526001600160a01b03841690839060405161096b9190610c49565b60006040518083038185875af1925050503d80600081146109a8576040519150601f19603f3d011682016040523d82523d6000602084013e6109ad565b606091505b50509050806106ce5760405162461bcd60e51b815260206004820152602360248201527f5472616e7366657248656c7065723a204b41495f5452414e534645525f46414960448201526213115160ea1b60648201526084016103c9565b6000546001600160a01b031633146106205760405162461bcd60e51b815260206004820181905260248201527f4f776e61626c653a2063616c6c6572206973206e6f7420746865206f776e657260448201526064016103c9565b610a6c610b4c565b6000805460ff60a01b191690557f5db9ee0a495bf2e6ff9c91a7834c1ba4fdd244a5e8aa4e537bd38aeae4b073aa335b6040516001600160a01b03909116815260200160405180910390a1565b600080546001600160a01b038381166001600160a01b0319831681178455604051919092169283917f8be0079c531659141344cd1fd0a4f28419497f9722a3daafe3b4186f6b6457e09190a35050565b610b116108e1565b6000805460ff60a01b1916600160a01b1790557f62e78cea01bee320cd4e420270b5ea74000d11b0c9f74754ebdbfc544b05a258610a9c3390565b600054600160a01b900460ff166106205760405162461bcd60e51b815260206004820152601460248201527314185d5cd8589b194e881b9bdd081c185d5cd95960621b60448201526064016103c9565b600060208284031215610bad578081fd5b813561093a81610d26565b60008060408385031215610bca578081fd5b8235610bd581610d26565b91506020830135610be581610d26565b809150509250929050565b600060208284031215610c01578081fd5b8151801515811461093a578182fd5b600060208284031215610c21578081fd5b5051919050565b600060208284031215610c39578081fd5b813560ff8116811461093a578182fd5b60008251815b81811015610c695760208186018101518583015201610c4f565b81811115610c775782828501525b509190910192915050565b60008219821115610c9557610c95610d10565b500190565b600060ff821660ff84168060ff03821115610cb757610cb7610d10565b019392505050565b6000816000190483118215151615610cd957610cd9610d10565b500290565b600082821015610cf057610cf0610d10565b500390565b6000600019821415610d0957610d09610d10565b5060010190565b634e487b7160e01b600052601160045260246000fd5b6001600160a01b038116811461086a57600080fdfea26469706673582212202c804062f6a92c8c4abf9f14f142d5530137d85e690a0cbdc98eac2b0334adf764736f6c63430008040033",
  "linkReferences": {},
  "deployedLinkReferences": {}
}