{
  "_format": "hh-sol-artifact-1",
  "contractName": "FundRaisingRefundable",
  "sourceName": "contracts/launchpad/tier/FundRaisingRefundable.sol",
  "abi": [
    {
      "inputs": [
        {
          "internalType": "contract ERC20",
          "name": "_buyToken",
          "type": "address"
        },
        {
          "internalType": "contract ERC20",
          "name": "_offeringToken",
          "type": "address"
        },
        {
          "internalType": "uint256",
          "name": "_offeringAmount",
          "type": "uint256"
        },
        {
          "internalType": "uint256",
          "name": "_raisingAmount",
          "type": "uint256"
        },
        {
          "internalType": "contract ITierSystem",
          "name": "_tierSystem",
          "type": "address"
        },
        {
          "internalType": "uint256",
          "name": "_snapshotFrom",
          "type": "uint256"
        },
        {
          "internalType": "uint256",
          "name": "_snapshotTo",
          "type": "uint256"
        },
        {
          "internalType": "uint256",
          "name": "_multiplier",
          "type": "uint256"
        }
      ],
      "stateMutability": "nonpayable",
      "type": "constructor"
    },
    {
      "anonymous": false,
      "inputs": [
        {
          "indexed": true,
          "internalType": "address",
          "name": "user",
          "type": "address"
        },
        {
          "indexed": false,
          "internalType": "uint256",
          "name": "amount",
          "type": "uint256"
        }
      ],
      "name": "Deposit",
      "type": "event"
    },
    {
      "anonymous": false,
      "inputs": [
        {
          "indexed": true,
          "internalType": "address",
          "name": "user",
          "type": "address"
        },
        {
          "indexed": false,
          "internalType": "uint256",
          "name": "offeringAmount",
          "type": "uint256"
        },
        {
          "indexed": false,
          "internalType": "uint256",
          "name": "excessAmount",
          "type": "uint256"
        }
      ],
      "name": "Harvest",
      "type": "event"
    },
    {
      "anonymous": false,
      "inputs": [
        {
          "indexed": true,
          "internalType": "address",
          "name": "previousOwner",
          "type": "address"
        },
        {
          "indexed": true,
          "internalType": "address",
          "name": "newOwner",
          "type": "address"
        }
      ],
      "name": "OwnershipTransferred",
      "type": "event"
    },
    {
      "anonymous": false,
      "inputs": [
        {
          "indexed": false,
          "internalType": "address",
          "name": "account",
          "type": "address"
        }
      ],
      "name": "Paused",
      "type": "event"
    },
    {
      "anonymous": false,
      "inputs": [
        {
          "indexed": true,
          "internalType": "address",
          "name": "user",
          "type": "address"
        },
        {
          "indexed": false,
          "internalType": "uint256",
          "name": "amount",
          "type": "uint256"
        },
        {
          "indexed": false,
          "internalType": "uint256",
          "name": "fees",
          "type": "uint256"
        }
      ],
      "name": "Refund",
      "type": "event"
    },
    {
      "anonymous": false,
      "inputs": [
        {
          "indexed": false,
          "internalType": "address",
          "name": "account",
          "type": "address"
        }
      ],
      "name": "Unpaused",
      "type": "event"
    },
    {
      "stateMutability": "payable",
      "type": "fallback"
    },
    {
      "inputs": [],
      "name": "REFUND_FEE",
      "outputs": [
        {
          "internalType": "uint256",
          "name": "",
          "type": "uint256"
        }
      ],
      "stateMutability": "view",
      "type": "function"
    },
    {
      "inputs": [
        {
          "internalType": "uint256",
          "name": "",
          "type": "uint256"
        }
      ],
      "name": "addressList",
      "outputs": [
        {
          "internalType": "address",
          "name": "",
          "type": "address"
        }
      ],
      "stateMutability": "view",
      "type": "function"
    },
    {
      "inputs": [
        {
          "internalType": "uint256",
          "name": "_tier",
          "type": "uint256"
        }
      ],
      "name": "allocations",
      "outputs": [
        {
          "internalType": "uint256",
          "name": "",
          "type": "uint256"
        }
      ],
      "stateMutability": "view",
      "type": "function"
    },
    {
      "inputs": [],
      "name": "buyToken",
      "outputs": [
        {
          "internalType": "contract ERC20",
          "name": "",
          "type": "address"
        }
      ],
      "stateMutability": "view",
      "type": "function"
    },
    {
      "inputs": [
        {
          "internalType": "uint256",
          "name": "_amount",
          "type": "uint256"
        }
      ],
      "name": "deposit",
      "outputs": [],
      "stateMutability": "payable",
      "type": "function"
    },
    {
      "inputs": [
        {
          "internalType": "address",
          "name": "token",
          "type": "address"
        },
        {
          "internalType": "address payable",
          "name": "to",
          "type": "address"
        },
        {
          "internalType": "uint256",
          "name": "amount",
          "type": "uint256"
        }
      ],
      "name": "emergencyWithdraw",
      "outputs": [],
      "stateMutability": "nonpayable",
      "type": "function"
    },
    {
      "inputs": [],
      "name": "endTime",
      "outputs": [
        {
          "internalType": "uint256",
          "name": "",
          "type": "uint256"
        }
      ],
      "stateMutability": "view",
      "type": "function"
    },
    {
      "inputs": [
        {
          "internalType": "address",
          "name": "_destination",
          "type": "address"
        }
      ],
      "name": "finalWithdraw",
      "outputs": [],
      "stateMutability": "nonpayable",
      "type": "function"
    },
    {
      "inputs": [],
      "name": "getAddressListLength",
      "outputs": [
        {
          "internalType": "uint256",
          "name": "",
          "type": "uint256"
        }
      ],
      "stateMutability": "view",
      "type": "function"
    },
    {
      "inputs": [
        {
          "internalType": "address",
          "name": "_account",
          "type": "address"
        }
      ],
      "name": "getAllocation",
      "outputs": [
        {
          "internalType": "uint256",
          "name": "",
          "type": "uint256"
        }
      ],
      "stateMutability": "view",
      "type": "function"
    },
    {
      "inputs": [
        {
          "internalType": "address",
          "name": "_account",
          "type": "address"
        }
      ],
      "name": "getAllocationPoint",
      "outputs": [
        {
          "internalType": "uint256",
          "name": "",
          "type": "uint256"
        }
      ],
      "stateMutability": "view",
      "type": "function"
    },
    {
      "inputs": [],
      "name": "getInfo",
      "outputs": [
        {
          "components": [
            {
              "internalType": "contract ERC20",
              "name": "token",
              "type": "address"
            },
            {
              "internalType": "uint256",
              "name": "decimals",
              "type": "uint256"
            },
            {
              "internalType": "string",
              "name": "name",
              "type": "string"
            },
            {
              "internalType": "string",
              "name": "symbol",
              "type": "string"
            }
          ],
          "internalType": "struct FundRaisingRefundable.TokenInfo",
          "name": "",
          "type": "tuple"
        },
        {
          "components": [
            {
              "internalType": "contract ERC20",
              "name": "token",
              "type": "address"
            },
            {
              "internalType": "uint256",
              "name": "decimals",
              "type": "uint256"
            },
            {
              "internalType": "string",
              "name": "name",
              "type": "string"
            },
            {
              "internalType": "string",
              "name": "symbol",
              "type": "string"
            }
          ],
          "internalType": "struct FundRaisingRefundable.TokenInfo",
          "name": "",
          "type": "tuple"
        },
        {
          "internalType": "uint256",
          "name": "",
          "type": "uint256"
        },
        {
          "internalType": "uint256",
          "name": "",
          "type": "uint256"
        },
        {
          "internalType": "uint256",
          "name": "",
          "type": "uint256"
        },
        {
          "internalType": "uint256",
          "name": "",
          "type": "uint256"
        },
        {
          "internalType": "uint256",
          "name": "",
          "type": "uint256"
        }
      ],
      "stateMutability": "view",
      "type": "function"
    },
    {
      "inputs": [
        {
          "internalType": "address",
          "name": "_user",
          "type": "address"
        }
      ],
      "name": "getOfferingAmount",
      "outputs": [
        {
          "internalType": "uint256",
          "name": "",
          "type": "uint256"
        }
      ],
      "stateMutability": "view",
      "type": "function"
    },
    {
      "inputs": [
        {
          "internalType": "address",
          "name": "_user",
          "type": "address"
        }
      ],
      "name": "getRefundingAmount",
      "outputs": [
        {
          "internalType": "uint256",
          "name": "",
          "type": "uint256"
        }
      ],
      "stateMutability": "view",
      "type": "function"
    },
    {
      "inputs": [
        {
          "internalType": "address",
          "name": "_account",
          "type": "address"
        }
      ],
      "name": "getTier",
      "outputs": [
        {
          "internalType": "uint256",
          "name": "",
          "type": "uint256"
        }
      ],
      "stateMutability": "view",
      "type": "function"
    },
    {
      "inputs": [
        {
          "internalType": "address",
          "name": "_user",
          "type": "address"
        }
      ],
      "name": "getUserAllocation",
      "outputs": [
        {
          "internalType": "uint256",
          "name": "",
          "type": "uint256"
        }
      ],
      "stateMutability": "view",
      "type": "function"
    },
    {
      "inputs": [],
      "name": "harvest",
      "outputs": [],
      "stateMutability": "nonpayable",
      "type": "function"
    },
    {
      "inputs": [],
      "name": "harvestTime",
      "outputs": [
        {
          "internalType": "uint256",
          "name": "",
          "type": "uint256"
        }
      ],
      "stateMutability": "view",
      "type": "function"
    },
    {
      "inputs": [
        {
          "internalType": "address",
          "name": "_user",
          "type": "address"
        }
      ],
      "name": "hasHarvest",
      "outputs": [
        {
          "internalType": "bool",
          "name": "",
          "type": "bool"
        }
      ],
      "stateMutability": "view",
      "type": "function"
    },
    {
      "inputs": [
        {
          "internalType": "uint256",
          "name": "_startTime",
          "type": "uint256"
        },
        {
          "internalType": "uint256",
          "name": "_endTime",
          "type": "uint256"
        },
        {
          "internalType": "uint256",
          "name": "_harvestTime",
          "type": "uint256"
        },
        {
          "internalType": "uint256",
          "name": "_refundStartTime",
          "type": "uint256"
        },
        {
          "internalType": "uint256",
          "name": "_refundEndTime",
          "type": "uint256"
        }
      ],
      "name": "initTime",
      "outputs": [],
      "stateMutability": "nonpayable",
      "type": "function"
    },
    {
      "inputs": [],
      "name": "multiplier",
      "outputs": [
        {
          "internalType": "uint256",
          "name": "",
          "type": "uint256"
        }
      ],
      "stateMutability": "view",
      "type": "function"
    },
    {
      "inputs": [],
      "name": "offeringAmount",
      "outputs": [
        {
          "internalType": "uint256",
          "name": "",
          "type": "uint256"
        }
      ],
      "stateMutability": "view",
      "type": "function"
    },
    {
      "inputs": [],
      "name": "offeringToken",
      "outputs": [
        {
          "internalType": "contract ERC20",
          "name": "",
          "type": "address"
        }
      ],
      "stateMutability": "view",
      "type": "function"
    },
    {
      "inputs": [],
      "name": "owner",
      "outputs": [
        {
          "internalType": "address",
          "name": "",
          "type": "address"
        }
      ],
      "stateMutability": "view",
      "type": "function"
    },
    {
      "inputs": [],
      "name": "pause",
      "outputs": [],
      "stateMutability": "nonpayable",
      "type": "function"
    },
    {
      "inputs": [],
      "name": "paused",
      "outputs": [
        {
          "internalType": "bool",
          "name": "",
          "type": "bool"
        }
      ],
      "stateMutability": "view",
      "type": "function"
    },
    {
      "inputs": [],
      "name": "raisingAmount",
      "outputs": [
        {
          "internalType": "uint256",
          "name": "",
          "type": "uint256"
        }
      ],
      "stateMutability": "view",
      "type": "function"
    },
    {
      "inputs": [],
      "name": "refund",
      "outputs": [],
      "stateMutability": "nonpayable",
      "type": "function"
    },
    {
      "inputs": [],
      "name": "refundEndTime",
      "outputs": [
        {
          "internalType": "uint256",
          "name": "",
          "type": "uint256"
        }
      ],
      "stateMutability": "view",
      "type": "function"
    },
    {
      "inputs": [],
      "name": "refundFees",
      "outputs": [
        {
          "internalType": "uint256",
          "name": "",
          "type": "uint256"
        }
      ],
      "stateMutability": "view",
      "type": "function"
    },
    {
      "inputs": [],
      "name": "refundStartTime",
      "outputs": [
        {
          "internalType": "uint256",
          "name": "",
          "type": "uint256"
        }
      ],
      "stateMutability": "view",
      "type": "function"
    },
    {
      "inputs": [],
      "name": "remainingToken",
      "outputs": [
        {
          "internalType": "uint256",
          "name": "",
          "type": "uint256"
        }
      ],
      "stateMutability": "view",
      "type": "function"
    },
    {
      "inputs": [],
      "name": "renounceOwnership",
      "outputs": [],
      "stateMutability": "nonpayable",
      "type": "function"
    },
    {
      "inputs": [
        {
          "internalType": "uint256",
          "name": "mul",
          "type": "uint256"
        }
      ],
      "name": "setMultiplier",
      "outputs": [],
      "stateMutability": "nonpayable",
      "type": "function"
    },
    {
      "inputs": [
        {
          "internalType": "uint256",
          "name": "_offerAmount",
          "type": "uint256"
        }
      ],
      "name": "setOfferingAmount",
      "outputs": [],
      "stateMutability": "nonpayable",
      "type": "function"
    },
    {
      "inputs": [
        {
          "internalType": "uint256",
          "name": "_raisingAmount",
          "type": "uint256"
        }
      ],
      "name": "setRaisingAmount",
      "outputs": [],
      "stateMutability": "nonpayable",
      "type": "function"
    },
    {
      "inputs": [
        {
          "internalType": "uint256",
          "name": "id",
          "type": "uint256"
        }
      ],
      "name": "setSnapshotFrom",
      "outputs": [],
      "stateMutability": "nonpayable",
      "type": "function"
    },
    {
      "inputs": [
        {
          "internalType": "uint256",
          "name": "id",
          "type": "uint256"
        }
      ],
      "name": "setSnapshotTo",
      "outputs": [],
      "stateMutability": "nonpayable",
      "type": "function"
    },
    {
      "inputs": [],
      "name": "snapshotFrom",
      "outputs": [
        {
          "internalType": "uint256",
          "name": "",
          "type": "uint256"
        }
      ],
      "stateMutability": "view",
      "type": "function"
    },
    {
      "inputs": [],
      "name": "snapshotTo",
      "outputs": [
        {
          "internalType": "uint256",
          "name": "",
          "type": "uint256"
        }
      ],
      "stateMutability": "view",
      "type": "function"
    },
    {
      "inputs": [],
      "name": "soldTokenAmount",
      "outputs": [
        {
          "internalType": "uint256",
          "name": "",
          "type": "uint256"
        }
      ],
      "stateMutability": "view",
      "type": "function"
    },
    {
      "inputs": [],
      "name": "startTime",
      "outputs": [
        {
          "internalType": "uint256",
          "name": "",
          "type": "uint256"
        }
      ],
      "stateMutability": "view",
      "type": "function"
    },
    {
      "inputs": [],
      "name": "tierSystem",
      "outputs": [
        {
          "internalType": "contract ITierSystem",
          "name": "",
          "type": "address"
        }
      ],
      "stateMutability": "view",
      "type": "function"
    },
    {
      "inputs": [],
      "name": "totalAmount",
      "outputs": [
        {
          "internalType": "uint256",
          "name": "",
          "type": "uint256"
        }
      ],
      "stateMutability": "view",
      "type": "function"
    },
    {
      "inputs": [],
      "name": "totalRefund",
      "outputs": [
        {
          "internalType": "uint256",
          "name": "",
          "type": "uint256"
        }
      ],
      "stateMutability": "view",
      "type": "function"
    },
    {
      "inputs": [
        {
          "internalType": "address",
          "name": "newOwner",
          "type": "address"
        }
      ],
      "name": "transferOwnership",
      "outputs": [],
      "stateMutability": "nonpayable",
      "type": "function"
    },
    {
      "inputs": [],
      "name": "unpause",
      "outputs": [],
      "stateMutability": "nonpayable",
      "type": "function"
    },
    {
      "inputs": [
        {
          "internalType": "uint256",
          "name": "_newTime",
          "type": "uint256"
        }
      ],
      "name": "updateEndTime",
      "outputs": [],
      "stateMutability": "nonpayable",
      "type": "function"
    },
    {
      "inputs": [
        {
          "internalType": "uint256",
          "name": "_newTime",
          "type": "uint256"
        }
      ],
      "name": "updateHarvestTime",
      "outputs": [],
      "stateMutability": "nonpayable",
      "type": "function"
    },
    {
      "inputs": [
        {
          "internalType": "address",
          "name": "_newToken",
          "type": "address"
        }
      ],
      "name": "updateOfferingToken",
      "outputs": [],
      "stateMutability": "nonpayable",
      "type": "function"
    },
    {
      "inputs": [
        {
          "internalType": "uint256",
          "name": "_refundEndTime",
          "type": "uint256"
        }
      ],
      "name": "updateRefundEndTime",
      "outputs": [],
      "stateMutability": "nonpayable",
      "type": "function"
    },
    {
      "inputs": [
        {
          "internalType": "uint256",
          "name": "_refundStartTime",
          "type": "uint256"
        }
      ],
      "name": "updateRefundStartTime",
      "outputs": [],
      "stateMutability": "nonpayable",
      "type": "function"
    },
    {
      "inputs": [
        {
          "internalType": "address",
          "name": "",
          "type": "address"
        }
      ],
      "name": "userInfo",
      "outputs": [
        {
          "internalType": "uint256",
          "name": "amount",
          "type": "uint256"
        },
        {
          "internalType": "bool",
          "name": "claimed",
          "type": "bool"
        },
        {
          "internalType": "bool",
          "name": "refunded",
          "type": "bool"
        }
      ],
      "stateMutability": "view",
      "type": "function"
    },
    {
      "inputs": [
        {
          "internalType": "address",
          "name": "_destination",
          "type": "address"
        }
      ],
      "name": "withdrawRemainingOfferingToken",
      "outputs": [],
      "stateMutability": "nonpayable",
      "type": "function"
    }
  ],
  "bytecode": "0x60806040526101f46012553480156200001757600080fd5b5060405162002b9e38038062002b9e8339810160408190526200003a9162000105565b60016000556200004a33620000b3565b6001805460ff60a01b19169055600280546001600160a01b03199081166001600160a01b039a8b1617909155600380548216988a1698909817909755600a95909555600993909355600e80549095169190951617909255600f92909255601055601155620001a1565b600180546001600160a01b038381166001600160a01b0319831681179093556040519116919082907f8be0079c531659141344cd1fd0a4f28419497f9722a3daafe3b4186f6b6457e090600090a35050565b600080600080600080600080610100898b03121562000122578384fd5b88516200012f8162000188565b60208a0151909850620001428162000188565b8097505060408901519550606089015194506080890151620001648162000188565b60a08a015160c08b015160e0909b0151999c989b5096999598909790945092505050565b6001600160a01b03811681146200019e57600080fd5b50565b6129ed80620001b16000396000f3fe60806040526004361061030e5760003560e01c806370647c2111610196578063b45aae52116100eb578063e1af9a951161008f578063f2fde38b1161006c578063f2fde38b14610905578063f480821014610925578063f8caa7e51461093b578063fc00358e1461095b57005b8063e1af9a95146108af578063e63ea408146108c5578063eadbd788146108e557005b8063b810fb43116100c8578063b810fb431461082f578063b920ade21461084f578063c2c9721b1461086f578063d16bba941461088f57005b8063b45aae52146107dc578063b6b55f25146107fc578063b78136071461080f57005b80638456cb59116101525780638ed762871161012f5780638ed76287146107715780639c0a766914610786578063a48217191461079c578063ac3ff912146107bc57005b80638456cb591461070a57806387e97bc61461071f5780638da5cb5b1461073f57005b806370647c211461066957806371394f5114610689578063715018a6146106a957806373fddd16146106be57806376ea6ee0146106d457806378e97925146106f457005b80633a5cfcc0116102645780635c975abb1161020857806364ce9fff116101e557806364ce9fff146105d75780636a2ce513146106135780636ab3846b146106335780636aba899b1461065357005b80635c975abb1461056c5780636036057a14610597578063641579a6146105b757005b80634641257d116102415780634641257d1461050557806347bfbab01461051a578063590e1ae31461052f5780635a9b0b891461054457005b80633a5cfcc0146104b05780633f4ba83a146104d05780634225c32f146104e557005b806320af09ab116102cb5780632b1dd8da116102a85780632b1dd8da1461044e5780632f5105f8146104645780633197cbb614610484578063343e31f51461049a57005b806320af09ab1461040257806322b331751461041857806327d1b1a21461042e57005b806301541fe3146103105780630a2642bf146103395780630e022923146103595780631959a002146103795780631a39d8ef146103d65780631b3ed722146103ec575b005b34801561031c57600080fd5b5061032660145481565b6040519081526020015b60405180910390f35b34801561034557600080fd5b506103266103543660046125a1565b610970565b34801561036557600080fd5b50610326610374366004612487565b610ae6565b34801561038557600080fd5b506103b9610394366004612487565b600c602052600090815260409020805460019091015460ff8082169161010090041683565b604080519384529115156020840152151590820152606001610330565b3480156103e257600080fd5b50610326600b5481565b3480156103f857600080fd5b5061032660115481565b34801561040e57600080fd5b5061032660125481565b34801561042457600080fd5b5061032660105481565b34801561043a57600080fd5b5061030e6104493660046125a1565b610b8c565b34801561045a57600080fd5b5061032660135481565b34801561047057600080fd5b5061032661047f366004612487565b610bc3565b34801561049057600080fd5b5061032660055481565b3480156104a657600080fd5b50610326600f5481565b3480156104bc57600080fd5b5061030e6104cb3660046125d1565b610c44565b3480156104dc57600080fd5b5061030e610cef565b3480156104f157600080fd5b5061030e6105003660046125a1565b610d01565b34801561051157600080fd5b5061030e610d2f565b34801561052657600080fd5b50610326610f98565b34801561053b57600080fd5b5061030e610fdf565b34801561055057600080fd5b50610559611274565b604051610330979695949392919061279e565b34801561057857600080fd5b50600154600160a01b900460ff165b6040519015158152602001610330565b3480156105a357600080fd5b5061030e6105b23660046125a1565b61136c565b3480156105c357600080fd5b5061030e6105d23660046125a1565b6113a5565b3480156105e357600080fd5b506105876105f2366004612487565b6001600160a01b03166000908152600c602052604090206001015460ff1690565b34801561061f57600080fd5b5061032661062e366004612487565b6113b2565b34801561063f57600080fd5b5061030e61064e3660046125a1565b6114cb565b34801561065f57600080fd5b5061032660075481565b34801561067557600080fd5b5061030e610684366004612487565b611504565b34801561069557600080fd5b5061030e6106a43660046125a1565b61157a565b3480156106b557600080fd5b5061030e6115b3565b3480156106ca57600080fd5b5061032660085481565b3480156106e057600080fd5b5061030e6106ef3660046125a1565b6115c5565b34801561070057600080fd5b5061032660045481565b34801561071657600080fd5b5061030e6115fe565b34801561072b57600080fd5b5061032661073a366004612487565b61160e565b34801561074b57600080fd5b506001546001600160a01b03165b6040516001600160a01b039091168152602001610330565b34801561077d57600080fd5b5061032661167e565b34801561079257600080fd5b5061032660095481565b3480156107a857600080fd5b50600254610759906001600160a01b031681565b3480156107c857600080fd5b5061030e6107d7366004612487565b61169f565b3480156107e857600080fd5b506103266107f7366004612487565b611757565b61030e61080a3660046125a1565b6117e0565b34801561081b57600080fd5b50600354610759906001600160a01b031681565b34801561083b57600080fd5b5061075961084a3660046125a1565b611ab2565b34801561085b57600080fd5b5061032661086a366004612487565b611adc565b34801561087b57600080fd5b5061030e61088a3660046125a1565b611b10565b34801561089b57600080fd5b5061030e6108aa3660046125a1565b611b5a565b3480156108bb57600080fd5b50610326600a5481565b3480156108d157600080fd5b5061030e6108e03660046124a3565b611ba4565b3480156108f157600080fd5b5061030e610900366004612487565b611c0f565b34801561091157600080fd5b5061030e610920366004612487565b611c5f565b34801561093157600080fd5b5061032660065481565b34801561094757600080fd5b50600e54610759906001600160a01b031681565b34801561096757600080fd5b50600d54610326565b600e5460405163bbc3f7cf60e01b81526004810183905260009182916001600160a01b039091169063bbc3f7cf9060240160206040518083038186803b1580156109b957600080fd5b505afa1580156109cd573d6000803e3d6000fd5b505050506040513d601f19601f820116820180604052508101906109f191906125b9565b6002549091506001600160a01b0316610a3e57610a37612710610a31670de0b6b3a7640000610a2b60115486611cd890919063ffffffff16565b90611cd8565b90611ce4565b9392505050565b610a37612710610a31600260009054906101000a90046001600160a01b03166001600160a01b031663313ce5676040518163ffffffff1660e01b815260040160206040518083038186803b158015610a9557600080fd5b505afa158015610aa9573d6000803e3d6000fd5b505050506040513d601f19601f82011682018060405250810190610acd919061260b565b610ad890600a612869565b601154610a2b908690611cd8565b600e54600f54601054604051636002de6760e01b815260009384936001600160a01b0390911692636002de6792610b2392889290916004016126c7565b60206040518083038186803b158015610b3b57600080fd5b505afa158015610b4f573d6000803e3d6000fd5b505050506040513d601f19601f82011682018060405250810190610b7391906125b9565b905080610b835750600092915050565b610a3781610970565b610b94611cf0565b6004544210610bbe5760405162461bcd60e51b8152600401610bb590612723565b60405180910390fd5b600a55565b6000600954600b5411610bd857506000919050565b6000610be383611adc565b90506000610c08670de0b6b3a7640000610a3184600954611cd890919063ffffffff16565b6001600160a01b0385166000908152600c6020526040902054909150610c3c9061271090610c369084611d4a565b90611d4a565b949350505050565b610c4c611cf0565b60155460ff1615610c915760405162461bcd60e51b815260206004820152600f60248201526e1a185cc81a5b9a5d1a585b1a5e9959608a1b6044820152606401610bb5565b838310158015610ca057508484115b8015610cab57504285115b8015610cb75750838210155b8015610cc257508082105b610ccb57600080fd5b6004949094556005929092556006556007556008556015805460ff19166001179055565b610cf7611cf0565b610cff611d56565b565b610d09611cf0565b6004544210610d2a5760405162461bcd60e51b8152600401610bb590612723565b600955565b60026000541415610d525760405162461bcd60e51b8152600401610bb590612767565b600260005560155460ff16610d795760405162461bcd60e51b8152600401610bb59061273f565b6006544211610dbd5760405162461bcd60e51b815260206004820152601060248201526f6e6f7420686172766573742074696d6560801b6044820152606401610bb5565b336000908152600c6020526040902054610e125760405162461bcd60e51b81526020600482015260166024820152756861766520796f75207061727469636970617465643f60501b6044820152606401610bb5565b336000908152600c602052604090206001015460ff1615610e6a5760405162461bcd60e51b81526020600482015260126024820152711b9bdd1a1a5b99c81d1bc81a185c9d995cdd60721b6044820152606401610bb5565b336000908152600c6020526040902060010154610100900460ff1615610ec05760405162461bcd60e51b815260206004820152600b60248201526a1a185cc81c99599d5b995960aa1b6044820152606401610bb5565b610ec8611dab565b6000610ed33361160e565b90506000610ee033610bc3565b600354909150610efa906001600160a01b03163384611df8565b8015610f36576002546001600160a01b0316610f1f57610f1a3382611e5b565b610f36565b600254610f36906001600160a01b03163383611df8565b336000818152600c60209081526040918290206001908101805460ff1916909117905581518581529081018490527f71bab65ced2e5750775a0613be067df48ef06cf92a496ebf7663ae0660924954910160405180910390a250506001600055565b6000600b5460001415610fab5750600090565b600954600b5410610fbd5750600a5490565b610fda600954610a31600b54600a54611cd890919063ffffffff16565b905090565b600260005414156110025760405162461bcd60e51b8152600401610bb590612767565b600260005561100f611dab565b60155460ff166110315760405162461bcd60e51b8152600401610bb59061273f565b6007544211801561104457506008544211155b6110825760405162461bcd60e51b815260206004820152600f60248201526e6e6f7420726566756e642074696d6560881b6044820152606401610bb5565b336000908152600c60205260409020546110d75760405162461bcd60e51b81526020600482015260166024820152756861766520796f75207061727469636970617465643f60501b6044820152606401610bb5565b336000908152600c602052604090206001015460ff161561112a5760405162461bcd60e51b815260206004820152600d60248201526c1a185cc81a185c9d995cdd1959609a1b6044820152606401610bb5565b336000908152600c6020526040902060010154610100900460ff16156111805760405162461bcd60e51b815260206004820152600b60248201526a1a185cc81c99599d5b995960aa1b6044820152606401610bb5565b336000908152600c60205260408120546012549091906111a99061271090610a31908590611cd8565b905060006111b78284612933565b6002549091506001600160a01b03166111d9576111d43382611e5b565b6111f0565b6002546111f0906001600160a01b03163383611df8565b336000908152600c60205260409020600101805461ff00191661010017905560135461121c9083611f24565b60135560145461122c9082611f24565b601455604080518281526020810184905233917f73f04af9dcc582a923ec15d3eea990fe34adabfff2879e28d44572e01a54abb6910160405180910390a25050600160005550565b61127c612456565b611284612456565b6000806000806000611294612456565b6002546001600160a01b031661131557604051806080016040528060006001600160a01b03168152602001601281526020016040518060400160405280600b81526020016a25b0b93234b0a1b430b4b760a91b8152508152602001604051806040016040528060038152602001624b414960e81b815250815250905061132d565b60025461132a906001600160a01b0316611f30565b90505b600354600090611345906001600160a01b0316611f30565b600454600554600654600a54600954969e949d50929b509099509750955091935090915050565b611374611cf0565b4281118015611384575060055481115b6113a05760405162461bcd60e51b8152600401610bb5906126fb565b600755565b6113ad611cf0565b601155565b600e54600f54601054604051636002de6760e01b815260009384936001600160a01b0390911692636002de67926113ef92889290916004016126c7565b60206040518083038186803b15801561140757600080fd5b505afa15801561141b573d6000803e3d6000fd5b505050506040513d601f19601f8201168201806040525081019061143f91906125b9565b90508061144f5750600092915050565b600e5460405163bbc3f7cf60e01b8152600481018390526001600160a01b039091169063bbc3f7cf9060240160206040518083038186803b15801561149357600080fd5b505afa1580156114a7573d6000803e3d6000fd5b505050506040513d601f19601f82011682018060405250810190610a3791906125b9565b6114d3611cf0565b42811180156114e3575060065481105b6114ff5760405162461bcd60e51b8152600401610bb5906126fb565b600555565b61150c611cf0565b42600554106115525760405162461bcd60e51b81526020600482015260126024820152711d1a5b59481a185cc81b9bdd08195b99195960721b6044820152606401610bb5565b600061155c61167e565b600354909150611576906001600160a01b03168383611df8565b5050565b611582611cf0565b4281118015611592575060075481115b6115ae5760405162461bcd60e51b8152600401610bb5906126fb565b600855565b6115bb611cf0565b610cff60006120c2565b6115cd611cf0565b42811180156115dd575060055481115b6115f95760405162461bcd60e51b8152600401610bb5906126fb565b600655565b611606611cf0565b610cff612114565b6000600954600b54111561164a57600061162783611adc565b9050610a37670de0b6b3a7640000610a3183600a54611cd890919063ffffffff16565b600954600a546001600160a01b0384166000908152600c60205260409020546116789291610a319190611cd8565b92915050565b600080611689610f98565b600a549091506116999082611d4a565b91505090565b6116a7611cf0565b426005541080156116b9575042600854105b6116fa5760405162461bcd60e51b81526020600482015260126024820152711d1a5b59481a185cc81b9bdd08195b99195960721b6044820152606401610bb5565b6000600954600b541061170f57600954611713565b600b545b9050601454816117239190612933565b6002549091506001600160a01b0316611740576115768282611e5b565b600254611576906001600160a01b03168383611df8565b600e54600f54601054604051636002de6760e01b81526000936001600160a01b031692636002de679261179092879291906004016126c7565b60206040518083038186803b1580156117a857600080fd5b505afa1580156117bc573d6000803e3d6000fd5b505050506040513d601f19601f8201168201806040525081019061167891906125b9565b600260005414156118035760405162461bcd60e51b8152600401610bb590612767565b6002600055601554819060ff1661182c5760405162461bcd60e51b8152600401610bb59061273f565b6004544211801561183e575060055442105b61187d5760405162461bcd60e51b815260206004820152601060248201526f6e6f742072616973696e672074696d6560801b6044820152606401610bb5565b600081116118c05760405162461bcd60e51b815260206004820152601060248201526f06e656564205f616d6f756e74203e20360841b6044820152606401610bb5565b6118c8611dab565b60006118d333612157565b336000908152600c6020526040902054909150811161192c5760405162461bcd60e51b81526020600482015260156024820152746e6f7420656c696769626c6520616d6f756e74212160581b6044820152606401610bb5565b336000908152600c60205260408120546119469083612933565b905083808210156119545750805b6002546001600160a01b03166119c857803410156119a85760405162461bcd60e51b81526020600482015260116024820152700c2dadeeadce840dcdee840cadcdeeaced607b1b6044820152606401610bb5565b803411156119c3576119c3336119be8334612933565b611e5b565b6119e0565b6002546119e0906001600160a01b03163330846121e8565b336000908152600c6020526040902054611a3757600d80546001810182556000919091527fd7b6990105719101dabeb77144f2a3385c8033acd3af97e9423a695e81ad1eb50180546001600160a01b031916331790555b336000908152600c6020526040902054611a519082611f24565b336000908152600c6020526040902055600b54611a6e9082611f24565b600b5560405181815233907fe1fffcc4923d04b559f4d29a8bfc6cda04eb5b0d3c460751c2402c5c5cc9109c9060200160405180910390a250506001600055505050565b600d8181548110611ac257600080fd5b6000918252602090912001546001600160a01b0316905081565b600b546001600160a01b0382166000908152600c6020526040812054909161167891610a3190670de0b6b3a7640000611cd8565b611b18611cf0565b60008111611b555760405162461bcd60e51b815260206004820152600a6024820152691259081a5b9d985b1a5960b21b6044820152606401610bb5565b601055565b611b62611cf0565b60008111611b9f5760405162461bcd60e51b815260206004820152600a6024820152691259081a5b9d985b1a5960b21b6044820152606401610bb5565b600f55565b611bac611cf0565b6001600160a01b038316611bf6576040516001600160a01b0383169082156108fc029083906000818181858888f19350505050158015611bf0573d6000803e3d6000fd5b50505050565b611c0a6001600160a01b0384168383611df8565b505050565b611c17611cf0565b6001600160a01b038116611c3d5760405162461bcd60e51b8152600401610bb590612723565b600380546001600160a01b0319166001600160a01b0392909216919091179055565b611c67611cf0565b6001600160a01b038116611ccc5760405162461bcd60e51b815260206004820152602660248201527f4f776e61626c653a206e6577206f776e657220697320746865207a65726f206160448201526564647265737360d01b6064820152608401610bb5565b611cd5816120c2565b50565b6000610a378284612914565b6000610a378284612806565b6001546001600160a01b03163314610cff5760405162461bcd60e51b815260206004820181905260248201527f4f776e61626c653a2063616c6c6572206973206e6f7420746865206f776e65726044820152606401610bb5565b6000610a378284612933565b611d5e612220565b6001805460ff60a01b191690557f5db9ee0a495bf2e6ff9c91a7834c1ba4fdd244a5e8aa4e537bd38aeae4b073aa335b6040516001600160a01b03909116815260200160405180910390a1565b600154600160a01b900460ff1615610cff5760405162461bcd60e51b815260206004820152601060248201526f14185d5cd8589b194e881c185d5cd95960821b6044820152606401610bb5565b6040516001600160a01b038316602482015260448101829052611c0a90849063a9059cbb60e01b906064015b60408051601f198184030181529190526020810180516001600160e01b03166001600160e01b031990931692909217909152612270565b604080516000808252602082019092526001600160a01b038416908390604051611e8591906126ab565b60006040518083038185875af1925050503d8060008114611ec2576040519150601f19603f3d011682016040523d82523d6000602084013e611ec7565b606091505b5050905080611c0a5760405162461bcd60e51b815260206004820152602360248201527f5472616e7366657248656c7065723a204b41495f5452414e534645525f46414960448201526213115160ea1b6064820152608401610bb5565b6000610a3782846127ee565b611f38612456565b6040518060800160405280836001600160a01b03168152602001836001600160a01b031663313ce5676040518163ffffffff1660e01b815260040160206040518083038186803b158015611f8b57600080fd5b505afa158015611f9f573d6000803e3d6000fd5b505050506040513d601f19601f82011682018060405250810190611fc3919061260b565b60ff168152602001836001600160a01b03166306fdde036040518163ffffffff1660e01b815260040160006040518083038186803b15801561200457600080fd5b505afa158015612018573d6000803e3d6000fd5b505050506040513d6000823e601f3d908101601f191682016040526120409190810190612503565b8152602001836001600160a01b03166395d89b416040518163ffffffff1660e01b815260040160006040518083038186803b15801561207e57600080fd5b505afa158015612092573d6000803e3d6000fd5b505050506040513d6000823e601f3d908101601f191682016040526120ba9190810190612503565b905292915050565b600180546001600160a01b038381166001600160a01b0319831681179093556040519116919082907f8be0079c531659141344cd1fd0a4f28419497f9722a3daafe3b4186f6b6457e090600090a35050565b61211c611dab565b6001805460ff60a01b1916600160a01b1790557f62e78cea01bee320cd4e420270b5ea74000d11b0c9f74754ebdbfc544b05a258611d8e3390565b600080600f5411801561216d5750600f54601054115b6121af5760405162461bcd60e51b815260206004820152601360248201527214db985c1cda1bdd081a59081b9bdd081cd95d606a1b6044820152606401610bb5565b600e54600f54601054604051636002de6760e01b81526000936001600160a01b031692636002de6792610b2392889291906004016126c7565b6040516001600160a01b0380851660248301528316604482015260648101829052611bf09085906323b872dd60e01b90608401611e24565b600154600160a01b900460ff16610cff5760405162461bcd60e51b815260206004820152601460248201527314185d5cd8589b194e881b9bdd081c185d5cd95960621b6044820152606401610bb5565b60006122c5826040518060400160405280602081526020017f5361666545524332303a206c6f772d6c6576656c2063616c6c206661696c6564815250856001600160a01b03166123429092919063ffffffff16565b805190915015611c0a57808060200190518101906122e391906124e3565b611c0a5760405162461bcd60e51b815260206004820152602a60248201527f5361666545524332303a204552433230206f7065726174696f6e20646964206e6044820152691bdd081cdd58d8d9595960b21b6064820152608401610bb5565b6060610c3c8484600085856001600160a01b0385163b6123a45760405162461bcd60e51b815260206004820152601d60248201527f416464726573733a2063616c6c20746f206e6f6e2d636f6e74726163740000006044820152606401610bb5565b600080866001600160a01b031685876040516123c091906126ab565b60006040518083038185875af1925050503d80600081146123fd576040519150601f19603f3d011682016040523d82523d6000602084013e612402565b606091505b509150915061241282828661241d565b979650505050505050565b6060831561242c575081610a37565b82511561243c5782518084602001fd5b8160405162461bcd60e51b8152600401610bb591906126e8565b604051806080016040528060006001600160a01b031681526020016000815260200160608152602001606081525090565b600060208284031215612498578081fd5b8135610a37816129a2565b6000806000606084860312156124b7578182fd5b83356124c2816129a2565b925060208401356124d2816129a2565b929592945050506040919091013590565b6000602082840312156124f4578081fd5b81518015158114610a37578182fd5b600060208284031215612514578081fd5b815167ffffffffffffffff8082111561252b578283fd5b818401915084601f83011261253e578283fd5b8151818111156125505761255061298c565b604051601f8201601f19908116603f011681019083821181831017156125785761257861298c565b81604052828152876020848701011115612590578586fd5b61241283602083016020880161294a565b6000602082840312156125b2578081fd5b5035919050565b6000602082840312156125ca578081fd5b5051919050565b600080600080600060a086880312156125e8578081fd5b505083359560208501359550604085013594606081013594506080013592509050565b60006020828403121561261c578081fd5b815160ff81168114610a37578182fd5b6000815180845261264481602086016020860161294a565b601f01601f19169290920160200192915050565b60018060a01b038151168252602081015160208301526000604082015160806040850152612689608085018261262c565b9050606083015184820360608601526126a2828261262c565b95945050505050565b600082516126bd81846020870161294a565b9190910192915050565b6001600160a01b039390931683526020830191909152604082015260600190565b602081526000610a37602083018461262c565b6020808252600e908201526d74696d6520696e76616c6964212160901b604082015260600190565b6020808252600290820152616e6f60f01b604082015260600190565b6020808252600e908201526d6861736e277420616c726561647960901b604082015260600190565b6020808252601f908201527f5265656e7472616e637947756172643a207265656e7472616e742063616c6c00604082015260600190565b60e0815260006127b160e083018a612658565b82810360208401526127c3818a612658565b604084019890985250506060810194909452608084019290925260a083015260c09091015292915050565b6000821982111561280157612801612976565b500190565b60008261282157634e487b7160e01b81526012600452602481fd5b500490565b600181815b8085111561286157816000190482111561284757612847612976565b8085161561285457918102915b93841c939080029061282b565b509250929050565b6000610a3760ff84168360008261288257506001611678565b8161288f57506000611678565b81600181146128a557600281146128af576128cb565b6001915050611678565b60ff8411156128c0576128c0612976565b50506001821b611678565b5060208310610133831016604e8410600b84101617156128ee575081810a611678565b6128f88383612826565b806000190482111561290c5761290c612976565b029392505050565b600081600019048311821515161561292e5761292e612976565b500290565b60008282101561294557612945612976565b500390565b60005b8381101561296557818101518382015260200161294d565b83811115611bf05750506000910152565b634e487b7160e01b600052601160045260246000fd5b634e487b7160e01b600052604160045260246000fd5b6001600160a01b0381168114611cd557600080fdfea26469706673582212200ed21df8cf636b35fdbdb0e694ef0483d654280fda07f0e5efa6d9967997c87464736f6c63430008040033",
  "linkReferences": {},
  "deployedLinkReferences": {}
}