{
  "_format": "hh-sol-artifact-1",
  "contractName": "FundRaisingRefundable",
  "sourceName": "contracts/launchpad/tier/FundRaisingRefundable.sol",
  "abi": [
    {
      "inputs": [
        {
          "internalType": "contract ERC20",
          "name": "_buyToken",
          "type": "address"
        },
        {
          "internalType": "contract ERC20",
          "name": "_offeringToken",
          "type": "address"
        },
        {
          "internalType": "uint256",
          "name": "_startTime",
          "type": "uint256"
        },
        {
          "internalType": "uint256",
          "name": "_endTime",
          "type": "uint256"
        },
        {
          "internalType": "uint256",
          "name": "_harvestTime",
          "type": "uint256"
        },
        {
          "internalType": "uint256",
          "name": "_offeringAmount",
          "type": "uint256"
        },
        {
          "internalType": "uint256",
          "name": "_raisingAmount",
          "type": "uint256"
        },
        {
          "internalType": "contract ITierSystem",
          "name": "_tierSystem",
          "type": "address"
        },
        {
          "internalType": "uint256",
          "name": "_snapshotFrom",
          "type": "uint256"
        },
        {
          "internalType": "uint256",
          "name": "_snapshotTo",
          "type": "uint256"
        },
        {
          "internalType": "uint256",
          "name": "_multiplier",
          "type": "uint256"
        }
      ],
      "stateMutability": "nonpayable",
      "type": "constructor"
    },
    {
      "anonymous": false,
      "inputs": [
        {
          "indexed": true,
          "internalType": "address",
          "name": "user",
          "type": "address"
        },
        {
          "indexed": false,
          "internalType": "uint256",
          "name": "amount",
          "type": "uint256"
        }
      ],
      "name": "Deposit",
      "type": "event"
    },
    {
      "anonymous": false,
      "inputs": [
        {
          "indexed": true,
          "internalType": "address",
          "name": "user",
          "type": "address"
        },
        {
          "indexed": false,
          "internalType": "uint256",
          "name": "offeringAmount",
          "type": "uint256"
        },
        {
          "indexed": false,
          "internalType": "uint256",
          "name": "excessAmount",
          "type": "uint256"
        }
      ],
      "name": "Harvest",
      "type": "event"
    },
    {
      "anonymous": false,
      "inputs": [
        {
          "indexed": true,
          "internalType": "address",
          "name": "previousOwner",
          "type": "address"
        },
        {
          "indexed": true,
          "internalType": "address",
          "name": "newOwner",
          "type": "address"
        }
      ],
      "name": "OwnershipTransferred",
      "type": "event"
    },
    {
      "anonymous": false,
      "inputs": [
        {
          "indexed": false,
          "internalType": "address",
          "name": "account",
          "type": "address"
        }
      ],
      "name": "Paused",
      "type": "event"
    },
    {
      "anonymous": false,
      "inputs": [
        {
          "indexed": false,
          "internalType": "address",
          "name": "account",
          "type": "address"
        }
      ],
      "name": "Unpaused",
      "type": "event"
    },
    {
      "stateMutability": "payable",
      "type": "fallback"
    },
    {
      "inputs": [
        {
          "internalType": "uint256",
          "name": "",
          "type": "uint256"
        }
      ],
      "name": "addressList",
      "outputs": [
        {
          "internalType": "address",
          "name": "",
          "type": "address"
        }
      ],
      "stateMutability": "view",
      "type": "function"
    },
    {
      "inputs": [
        {
          "internalType": "uint256",
          "name": "_tier",
          "type": "uint256"
        }
      ],
      "name": "allocations",
      "outputs": [
        {
          "internalType": "uint256",
          "name": "",
          "type": "uint256"
        }
      ],
      "stateMutability": "view",
      "type": "function"
    },
    {
      "inputs": [],
      "name": "buyToken",
      "outputs": [
        {
          "internalType": "contract ERC20",
          "name": "",
          "type": "address"
        }
      ],
      "stateMutability": "view",
      "type": "function"
    },
    {
      "inputs": [
        {
          "internalType": "uint256",
          "name": "_amount",
          "type": "uint256"
        }
      ],
      "name": "deposit",
      "outputs": [],
      "stateMutability": "payable",
      "type": "function"
    },
    {
      "inputs": [
        {
          "internalType": "address",
          "name": "token",
          "type": "address"
        },
        {
          "internalType": "address payable",
          "name": "to",
          "type": "address"
        }
      ],
      "name": "emergencyWithdraw",
      "outputs": [],
      "stateMutability": "nonpayable",
      "type": "function"
    },
    {
      "inputs": [],
      "name": "endTime",
      "outputs": [
        {
          "internalType": "uint256",
          "name": "",
          "type": "uint256"
        }
      ],
      "stateMutability": "view",
      "type": "function"
    },
    {
      "inputs": [
        {
          "internalType": "address",
          "name": "_destination",
          "type": "address"
        }
      ],
      "name": "finalWithdraw",
      "outputs": [],
      "stateMutability": "nonpayable",
      "type": "function"
    },
    {
      "inputs": [],
      "name": "getAddressListLength",
      "outputs": [
        {
          "internalType": "uint256",
          "name": "",
          "type": "uint256"
        }
      ],
      "stateMutability": "view",
      "type": "function"
    },
    {
      "inputs": [
        {
          "internalType": "address",
          "name": "_account",
          "type": "address"
        }
      ],
      "name": "getAllocation",
      "outputs": [
        {
          "internalType": "uint256",
          "name": "",
          "type": "uint256"
        }
      ],
      "stateMutability": "view",
      "type": "function"
    },
    {
      "inputs": [
        {
          "internalType": "address",
          "name": "_account",
          "type": "address"
        }
      ],
      "name": "getAllocationPoint",
      "outputs": [
        {
          "internalType": "uint256",
          "name": "",
          "type": "uint256"
        }
      ],
      "stateMutability": "view",
      "type": "function"
    },
    {
      "inputs": [],
      "name": "getInfo",
      "outputs": [
        {
          "components": [
            {
              "internalType": "contract ERC20",
              "name": "token",
              "type": "address"
            },
            {
              "internalType": "uint256",
              "name": "decimals",
              "type": "uint256"
            },
            {
              "internalType": "string",
              "name": "name",
              "type": "string"
            },
            {
              "internalType": "string",
              "name": "symbol",
              "type": "string"
            }
          ],
          "internalType": "struct FundRaisingRefundable.TokenInfo",
          "name": "",
          "type": "tuple"
        },
        {
          "components": [
            {
              "internalType": "contract ERC20",
              "name": "token",
              "type": "address"
            },
            {
              "internalType": "uint256",
              "name": "decimals",
              "type": "uint256"
            },
            {
              "internalType": "string",
              "name": "name",
              "type": "string"
            },
            {
              "internalType": "string",
              "name": "symbol",
              "type": "string"
            }
          ],
          "internalType": "struct FundRaisingRefundable.TokenInfo",
          "name": "",
          "type": "tuple"
        },
        {
          "internalType": "uint256",
          "name": "",
          "type": "uint256"
        },
        {
          "internalType": "uint256",
          "name": "",
          "type": "uint256"
        },
        {
          "internalType": "uint256",
          "name": "",
          "type": "uint256"
        },
        {
          "internalType": "uint256",
          "name": "",
          "type": "uint256"
        },
        {
          "internalType": "uint256",
          "name": "",
          "type": "uint256"
        }
      ],
      "stateMutability": "view",
      "type": "function"
    },
    {
      "inputs": [
        {
          "internalType": "address",
          "name": "_user",
          "type": "address"
        }
      ],
      "name": "getOfferingAmount",
      "outputs": [
        {
          "internalType": "uint256",
          "name": "",
          "type": "uint256"
        }
      ],
      "stateMutability": "view",
      "type": "function"
    },
    {
      "inputs": [
        {
          "internalType": "address",
          "name": "_user",
          "type": "address"
        }
      ],
      "name": "getRefundingAmount",
      "outputs": [
        {
          "internalType": "uint256",
          "name": "",
          "type": "uint256"
        }
      ],
      "stateMutability": "view",
      "type": "function"
    },
    {
      "inputs": [
        {
          "internalType": "address",
          "name": "_account",
          "type": "address"
        }
      ],
      "name": "getTier",
      "outputs": [
        {
          "internalType": "uint256",
          "name": "",
          "type": "uint256"
        }
      ],
      "stateMutability": "view",
      "type": "function"
    },
    {
      "inputs": [
        {
          "internalType": "address",
          "name": "_user",
          "type": "address"
        }
      ],
      "name": "getUserAllocation",
      "outputs": [
        {
          "internalType": "uint256",
          "name": "",
          "type": "uint256"
        }
      ],
      "stateMutability": "view",
      "type": "function"
    },
    {
      "inputs": [],
      "name": "harvest",
      "outputs": [],
      "stateMutability": "nonpayable",
      "type": "function"
    },
    {
      "inputs": [],
      "name": "harvestTime",
      "outputs": [
        {
          "internalType": "uint256",
          "name": "",
          "type": "uint256"
        }
      ],
      "stateMutability": "view",
      "type": "function"
    },
    {
      "inputs": [
        {
          "internalType": "address",
          "name": "_user",
          "type": "address"
        }
      ],
      "name": "hasHarvest",
      "outputs": [
        {
          "internalType": "bool",
          "name": "",
          "type": "bool"
        }
      ],
      "stateMutability": "view",
      "type": "function"
    },
    {
      "inputs": [],
      "name": "multiplier",
      "outputs": [
        {
          "internalType": "uint256",
          "name": "",
          "type": "uint256"
        }
      ],
      "stateMutability": "view",
      "type": "function"
    },
    {
      "inputs": [],
      "name": "offeringAmount",
      "outputs": [
        {
          "internalType": "uint256",
          "name": "",
          "type": "uint256"
        }
      ],
      "stateMutability": "view",
      "type": "function"
    },
    {
      "inputs": [],
      "name": "offeringToken",
      "outputs": [
        {
          "internalType": "contract ERC20",
          "name": "",
          "type": "address"
        }
      ],
      "stateMutability": "view",
      "type": "function"
    },
    {
      "inputs": [],
      "name": "owner",
      "outputs": [
        {
          "internalType": "address",
          "name": "",
          "type": "address"
        }
      ],
      "stateMutability": "view",
      "type": "function"
    },
    {
      "inputs": [],
      "name": "pause",
      "outputs": [],
      "stateMutability": "nonpayable",
      "type": "function"
    },
    {
      "inputs": [],
      "name": "paused",
      "outputs": [
        {
          "internalType": "bool",
          "name": "",
          "type": "bool"
        }
      ],
      "stateMutability": "view",
      "type": "function"
    },
    {
      "inputs": [],
      "name": "raisingAmount",
      "outputs": [
        {
          "internalType": "uint256",
          "name": "",
          "type": "uint256"
        }
      ],
      "stateMutability": "view",
      "type": "function"
    },
    {
      "inputs": [],
      "name": "renounceOwnership",
      "outputs": [],
      "stateMutability": "nonpayable",
      "type": "function"
    },
    {
      "inputs": [
        {
          "internalType": "uint256",
          "name": "mul",
          "type": "uint256"
        }
      ],
      "name": "setMultiplier",
      "outputs": [],
      "stateMutability": "nonpayable",
      "type": "function"
    },
    {
      "inputs": [
        {
          "internalType": "uint256",
          "name": "_offerAmount",
          "type": "uint256"
        }
      ],
      "name": "setOfferingAmount",
      "outputs": [],
      "stateMutability": "nonpayable",
      "type": "function"
    },
    {
      "inputs": [
        {
          "internalType": "uint256",
          "name": "_raisingAmount",
          "type": "uint256"
        }
      ],
      "name": "setRaisingAmount",
      "outputs": [],
      "stateMutability": "nonpayable",
      "type": "function"
    },
    {
      "inputs": [
        {
          "internalType": "uint256",
          "name": "id",
          "type": "uint256"
        }
      ],
      "name": "setSnapshotFrom",
      "outputs": [],
      "stateMutability": "nonpayable",
      "type": "function"
    },
    {
      "inputs": [
        {
          "internalType": "uint256",
          "name": "id",
          "type": "uint256"
        }
      ],
      "name": "setSnapshotTo",
      "outputs": [],
      "stateMutability": "nonpayable",
      "type": "function"
    },
    {
      "inputs": [],
      "name": "snapshotFrom",
      "outputs": [
        {
          "internalType": "uint256",
          "name": "",
          "type": "uint256"
        }
      ],
      "stateMutability": "view",
      "type": "function"
    },
    {
      "inputs": [],
      "name": "snapshotTo",
      "outputs": [
        {
          "internalType": "uint256",
          "name": "",
          "type": "uint256"
        }
      ],
      "stateMutability": "view",
      "type": "function"
    },
    {
      "inputs": [],
      "name": "startTime",
      "outputs": [
        {
          "internalType": "uint256",
          "name": "",
          "type": "uint256"
        }
      ],
      "stateMutability": "view",
      "type": "function"
    },
    {
      "inputs": [],
      "name": "tierSystem",
      "outputs": [
        {
          "internalType": "contract ITierSystem",
          "name": "",
          "type": "address"
        }
      ],
      "stateMutability": "view",
      "type": "function"
    },
    {
      "inputs": [],
      "name": "totalAmount",
      "outputs": [
        {
          "internalType": "uint256",
          "name": "",
          "type": "uint256"
        }
      ],
      "stateMutability": "view",
      "type": "function"
    },
    {
      "inputs": [
        {
          "internalType": "address",
          "name": "newOwner",
          "type": "address"
        }
      ],
      "name": "transferOwnership",
      "outputs": [],
      "stateMutability": "nonpayable",
      "type": "function"
    },
    {
      "inputs": [],
      "name": "unpause",
      "outputs": [],
      "stateMutability": "nonpayable",
      "type": "function"
    },
    {
      "inputs": [
        {
          "internalType": "uint256",
          "name": "_newTime",
          "type": "uint256"
        }
      ],
      "name": "updateEndTime",
      "outputs": [],
      "stateMutability": "nonpayable",
      "type": "function"
    },
    {
      "inputs": [
        {
          "internalType": "uint256",
          "name": "_newTime",
          "type": "uint256"
        }
      ],
      "name": "updateHarvestTime",
      "outputs": [],
      "stateMutability": "nonpayable",
      "type": "function"
    },
    {
      "inputs": [
        {
          "internalType": "address",
          "name": "_newToken",
          "type": "address"
        }
      ],
      "name": "updateOfferingToken",
      "outputs": [],
      "stateMutability": "nonpayable",
      "type": "function"
    },
    {
      "inputs": [
        {
          "internalType": "address",
          "name": "",
          "type": "address"
        }
      ],
      "name": "userInfo",
      "outputs": [
        {
          "internalType": "uint256",
          "name": "amount",
          "type": "uint256"
        },
        {
          "internalType": "bool",
          "name": "claimed",
          "type": "bool"
        }
      ],
      "stateMutability": "view",
      "type": "function"
    }
  ],
  "bytecode": "0x60806040523480156200001157600080fd5b50604051620027ec380380620027ec83398101604081905262000034916200013a565b60016000556200004433620000e8565b6001805460ff60a01b191690558787108015906200006157508888115b80156200006d57504289115b6200007757600080fd5b600280546001600160a01b03199081166001600160a01b039d8e16179091556003805482169b8d169b909b17909a556004989098556005969096556006949094556008929092556007556000600955600c8054909516951694909417909255600d92909255600e55600f55620001f8565b600180546001600160a01b038381166001600160a01b0319831681179093556040519116919082907f8be0079c531659141344cd1fd0a4f28419497f9722a3daafe3b4186f6b6457e090600090a35050565b60008060008060008060008060008060006101608c8e0312156200015c578687fd5b8b516200016981620001df565b60208d0151909b506200017c81620001df565b809a505060408c0151985060608c0151975060808c0151965060a08c0151955060c08c0151945060e08c0151620001b381620001df565b809450506101008c015192506101208c015191506101408c015190509295989b509295989b9093969950565b6001600160a01b0381168114620001f557600080fd5b50565b6125e480620002086000396000f3fe60806040526004361061023c5760003560e01c806376ea6ee01161012d578063b7813607116100b0578063e1af9a9511610077578063e1af9a95146106bf578063eadbd788146106d5578063f2fde38b146106f5578063f480821014610715578063f8caa7e51461072b578063fc00358e1461074b57005b8063b78136071461061f578063b810fb431461063f578063b920ade21461065f578063c2c9721b1461067f578063d16bba941461069f57005b80639c0a7669116100f45780639c0a766914610596578063a4821719146105ac578063ac3ff912146105cc578063b45aae52146105ec578063b6b55f251461060c57005b806376ea6ee0146104f957806378e97925146105195780638456cb591461052f57806387e97bc6146105445780638da5cb5b1461056457005b80633f4ba83a116101c05780636382d9ad116101875780636382d9ad14610428578063641579a61461044857806364ce9fff146104685780636a2ce513146104a45780636ab3846b146104c4578063715018a6146104e457005b80633f4ba83a1461038b5780634225c32f146103a05780634641257d146103c05780635a9b0b89146103d55780635c975abb146103fd57005b806322b331751161020457806322b331751461030957806327d1b1a21461031f5780632f5105f81461033f5780633197cbb61461035f578063343e31f51461037557005b80630a2642bf1461023e5780630e022923146102715780631959a002146102915780631a39d8ef146102dd5780631b3ed722146102f3575b005b34801561024a57600080fd5b5061025e6102593660046121fa565b610760565b6040519081526020015b60405180910390f35b34801561027d57600080fd5b5061025e61028c3660046120e8565b6108d6565b34801561029d57600080fd5b506102c86102ac3660046120e8565b600a602052600090815260409020805460019091015460ff1682565b60408051928352901515602083015201610268565b3480156102e957600080fd5b5061025e60095481565b3480156102ff57600080fd5b5061025e600f5481565b34801561031557600080fd5b5061025e600e5481565b34801561032b57600080fd5b5061023c61033a3660046121fa565b61097c565b34801561034b57600080fd5b5061025e61035a3660046120e8565b6109d5565b34801561036b57600080fd5b5061025e60055481565b34801561038157600080fd5b5061025e600d5481565b34801561039757600080fd5b5061023c610a56565b3480156103ac57600080fd5b5061023c6103bb3660046121fa565b610a8a565b3480156103cc57600080fd5b5061023c610ada565b3480156103e157600080fd5b506103ea610d1d565b6040516102689796959493929190612395565b34801561040957600080fd5b50600154600160a01b900460ff165b6040519015158152602001610268565b34801561043457600080fd5b5061023c610443366004612104565b610e15565b34801561045457600080fd5b5061023c6104633660046121fa565b610f19565b34801561047457600080fd5b506104186104833660046120e8565b6001600160a01b03166000908152600a602052604090206001015460ff1690565b3480156104b057600080fd5b5061025e6104bf3660046120e8565b610f48565b3480156104d057600080fd5b5061023c6104df3660046121fa565b611061565b3480156104f057600080fd5b5061023c6110dd565b34801561050557600080fd5b5061023c6105143660046121fa565b611111565b34801561052557600080fd5b5061025e60045481565b34801561053b57600080fd5b5061023c61118d565b34801561055057600080fd5b5061025e61055f3660046120e8565b6111bf565b34801561057057600080fd5b506001546001600160a01b03165b6040516001600160a01b039091168152602001610268565b3480156105a257600080fd5b5061025e60075481565b3480156105b857600080fd5b5060025461057e906001600160a01b031681565b3480156105d857600080fd5b5061023c6105e73660046120e8565b61122f565b3480156105f857600080fd5b5061025e6106073660046120e8565b6113f5565b61023c61061a3660046121fa565b61147e565b34801561062b57600080fd5b5060035461057e906001600160a01b031681565b34801561064b57600080fd5b5061057e61065a3660046121fa565b611780565b34801561066b57600080fd5b5061025e61067a3660046120e8565b6117aa565b34801561068b57600080fd5b5061023c61069a3660046121fa565b6117de565b3480156106ab57600080fd5b5061023c6106ba3660046121fa565b61184a565b3480156106cb57600080fd5b5061025e60085481565b3480156106e157600080fd5b5061023c6106f03660046120e8565b6118b6565b34801561070157600080fd5b5061023c6107103660046120e8565b611928565b34801561072157600080fd5b5061025e60065481565b34801561073757600080fd5b50600c5461057e906001600160a01b031681565b34801561075757600080fd5b50600b5461025e565b600c5460405163bbc3f7cf60e01b81526004810183905260009182916001600160a01b039091169063bbc3f7cf9060240160206040518083038186803b1580156107a957600080fd5b505afa1580156107bd573d6000803e3d6000fd5b505050506040513d601f19601f820116820180604052508101906107e19190612212565b6002549091506001600160a01b031661082e57610827612710610821670de0b6b3a764000061081b600f54866119c090919063ffffffff16565b906119c0565b906119cc565b9392505050565b610827612710610821600260009054906101000a90046001600160a01b03166001600160a01b031663313ce5676040518163ffffffff1660e01b815260040160206040518083038186803b15801561088557600080fd5b505afa158015610899573d6000803e3d6000fd5b505050506040513d601f19601f820116820180604052508101906108bd919061222a565b6108c890600a612460565b600f5461081b9086906119c0565b600c54600d54600e54604051636002de6760e01b815260009384936001600160a01b0390911692636002de679261091392889290916004016122e6565b60206040518083038186803b15801561092b57600080fd5b505afa15801561093f573d6000803e3d6000fd5b505050506040513d601f19601f820116820180604052508101906109639190612212565b9050806109735750600092915050565b61082781610760565b6001546001600160a01b031633146109af5760405162461bcd60e51b81526004016109a690612360565b60405180910390fd5b60045442106109d05760405162461bcd60e51b81526004016109a690612344565b600855565b6000600754600954116109ea57506000919050565b60006109f5836117aa565b90506000610a1a670de0b6b3a7640000610821846007546119c090919063ffffffff16565b6001600160a01b0385166000908152600a6020526040902054909150610a4e9061271090610a4890846119d8565b906119d8565b949350505050565b6001546001600160a01b03163314610a805760405162461bcd60e51b81526004016109a690612360565b610a886119e4565b565b6001546001600160a01b03163314610ab45760405162461bcd60e51b81526004016109a690612360565b6004544210610ad55760405162461bcd60e51b81526004016109a690612344565b600755565b60026000541415610b2d5760405162461bcd60e51b815260206004820152601f60248201527f5265656e7472616e637947756172643a207265656e7472616e742063616c6c0060448201526064016109a6565b60026000556006544211610b765760405162461bcd60e51b815260206004820152601060248201526f6e6f7420686172766573742074696d6560801b60448201526064016109a6565b336000908152600a6020526040902054610bcb5760405162461bcd60e51b81526020600482015260166024820152756861766520796f75207061727469636970617465643f60501b60448201526064016109a6565b336000908152600a602052604090206001015460ff1615610c235760405162461bcd60e51b81526020600482015260126024820152711b9bdd1a1a5b99c81d1bc81a185c9d995cdd60721b60448201526064016109a6565b600154600160a01b900460ff1615610c4d5760405162461bcd60e51b81526004016109a69061231a565b6000610c58336111bf565b90506000610c65336109d5565b600354909150610c7f906001600160a01b03163384611a81565b8015610cbb576002546001600160a01b0316610ca457610c9f3382611ae4565b610cbb565b600254610cbb906001600160a01b03163383611a81565b336000818152600a60209081526040918290206001908101805460ff1916909117905581518581529081018490527f71bab65ced2e5750775a0613be067df48ef06cf92a496ebf7663ae0660924954910160405180910390a250506001600055565b610d256120b7565b610d2d6120b7565b6000806000806000610d3d6120b7565b6002546001600160a01b0316610dbe57604051806080016040528060006001600160a01b03168152602001601281526020016040518060400160405280600b81526020016a25b0b93234b0a1b430b4b760a91b8152508152602001604051806040016040528060038152602001624b414960e81b8152508152509050610dd6565b600254610dd3906001600160a01b0316611bad565b90505b600354600090610dee906001600160a01b0316611bad565b600454600554600654600854600754969e949d50929b509099509750955091935090915050565b6001546001600160a01b03163314610e3f5760405162461bcd60e51b81526004016109a690612360565b6001600160a01b038216610e87576040516001600160a01b038216904780156108fc02916000818181858888f19350505050158015610e82573d6000803e3d6000fd5b505050565b6040516370a0823160e01b8152306004820152610f159082906001600160a01b038516906370a082319060240160206040518083038186803b158015610ecc57600080fd5b505afa158015610ee0573d6000803e3d6000fd5b505050506040513d601f19601f82011682018060405250810190610f049190612212565b6001600160a01b0385169190611a81565b5050565b6001546001600160a01b03163314610f435760405162461bcd60e51b81526004016109a690612360565b600f55565b600c54600d54600e54604051636002de6760e01b815260009384936001600160a01b0390911692636002de6792610f8592889290916004016122e6565b60206040518083038186803b158015610f9d57600080fd5b505afa158015610fb1573d6000803e3d6000fd5b505050506040513d601f19601f82011682018060405250810190610fd59190612212565b905080610fe55750600092915050565b600c5460405163bbc3f7cf60e01b8152600481018390526001600160a01b039091169063bbc3f7cf9060240160206040518083038186803b15801561102957600080fd5b505afa15801561103d573d6000803e3d6000fd5b505050506040513d601f19601f820116820180604052508101906108279190612212565b6001546001600160a01b0316331461108b5760405162461bcd60e51b81526004016109a690612360565b428111801561109b575060065481105b6110d85760405162461bcd60e51b815260206004820152600e60248201526d74696d6520696e76616c6964212160901b60448201526064016109a6565b600555565b6001546001600160a01b031633146111075760405162461bcd60e51b81526004016109a690612360565b610a886000611d3f565b6001546001600160a01b0316331461113b5760405162461bcd60e51b81526004016109a690612360565b428111801561114b575060055481115b6111885760405162461bcd60e51b815260206004820152600e60248201526d74696d6520696e76616c6964212160901b60448201526064016109a6565b600655565b6001546001600160a01b031633146111b75760405162461bcd60e51b81526004016109a690612360565b610a88611d91565b600060075460095411156111fb5760006111d8836117aa565b9050610827670de0b6b3a7640000610821836008546119c090919063ffffffff16565b6007546008546001600160a01b0384166000908152600a6020526040902054611229929161082191906119c0565b92915050565b6001546001600160a01b031633146112595760405162461bcd60e51b81526004016109a690612360565b426005541061129f5760405162461bcd60e51b81526020600482015260126024820152711d1a5b59481a185cc81b9bdd08195b99195960721b60448201526064016109a6565b6002546001600160a01b03166112d057600060075447106112c2576007546112c4565b475b9050610f158282611ae4565b6007546002546040516370a0823160e01b8152306004820152600092916001600160a01b0316906370a082319060240160206040518083038186803b15801561131857600080fd5b505afa15801561132c573d6000803e3d6000fd5b505050506040513d601f19601f820116820180604052508101906113509190612212565b1061135d576007546113d8565b6002546040516370a0823160e01b81523060048201526001600160a01b03909116906370a082319060240160206040518083038186803b1580156113a057600080fd5b505afa1580156113b4573d6000803e3d6000fd5b505050506040513d601f19601f820116820180604052508101906113d89190612212565b600254909150610f15906001600160a01b03168383611a81565b50565b600c54600d54600e54604051636002de6760e01b81526000936001600160a01b031692636002de679261142e92879291906004016122e6565b60206040518083038186803b15801561144657600080fd5b505afa15801561145a573d6000803e3d6000fd5b505050506040513d601f19601f820116820180604052508101906112299190612212565b600260005414156114d15760405162461bcd60e51b815260206004820152601f60248201527f5265656e7472616e637947756172643a207265656e7472616e742063616c6c0060448201526064016109a6565b60026000556004548190421180156114ea575060055442105b6115295760405162461bcd60e51b815260206004820152601060248201526f6e6f742072616973696e672074696d6560801b60448201526064016109a6565b6000811161156c5760405162461bcd60e51b815260206004820152601060248201526f06e656564205f616d6f756e74203e20360841b60448201526064016109a6565b600154600160a01b900460ff16156115965760405162461bcd60e51b81526004016109a69061231a565b60006115a133611df6565b336000908152600a602052604090205490915081116115fa5760405162461bcd60e51b81526020600482015260156024820152746e6f7420656c696769626c6520616d6f756e74212160581b60448201526064016109a6565b336000908152600a6020526040812054611614908361252a565b905083808210156116225750805b6002546001600160a01b031661169657803410156116765760405162461bcd60e51b81526020600482015260116024820152700c2dadeeadce840dcdee840cadcdeeaced607b1b60448201526064016109a6565b80341115611691576116913361168c833461252a565b611ae4565b6116ae565b6002546116ae906001600160a01b0316333084611e87565b336000908152600a602052604090205461170557600b80546001810182556000919091527f0175b7a638427703f0dbe7bb9bbf987a2551717b34e79f33b5b1008d1fa01db90180546001600160a01b031916331790555b336000908152600a602052604090205461171f9082611ec5565b336000908152600a602052604090205560095461173c9082611ec5565b60095560405181815233907fe1fffcc4923d04b559f4d29a8bfc6cda04eb5b0d3c460751c2402c5c5cc9109c9060200160405180910390a250506001600055505050565b600b818154811061179057600080fd5b6000918252602090912001546001600160a01b0316905081565b6009546001600160a01b0382166000908152600a602052604081205490916112299161082190670de0b6b3a76400006119c0565b6001546001600160a01b031633146118085760405162461bcd60e51b81526004016109a690612360565b600081116118455760405162461bcd60e51b815260206004820152600a6024820152691259081a5b9d985b1a5960b21b60448201526064016109a6565b600e55565b6001546001600160a01b031633146118745760405162461bcd60e51b81526004016109a690612360565b600081116118b15760405162461bcd60e51b815260206004820152600a6024820152691259081a5b9d985b1a5960b21b60448201526064016109a6565b600d55565b6001546001600160a01b031633146118e05760405162461bcd60e51b81526004016109a690612360565b6001600160a01b0381166119065760405162461bcd60e51b81526004016109a690612344565b600380546001600160a01b0319166001600160a01b0392909216919091179055565b6001546001600160a01b031633146119525760405162461bcd60e51b81526004016109a690612360565b6001600160a01b0381166119b75760405162461bcd60e51b815260206004820152602660248201527f4f776e61626c653a206e6577206f776e657220697320746865207a65726f206160448201526564647265737360d01b60648201526084016109a6565b6113f281611d3f565b6000610827828461250b565b600061082782846123fd565b6000610827828461252a565b600154600160a01b900460ff16611a345760405162461bcd60e51b815260206004820152601460248201527314185d5cd8589b194e881b9bdd081c185d5cd95960621b60448201526064016109a6565b6001805460ff60a01b191690557f5db9ee0a495bf2e6ff9c91a7834c1ba4fdd244a5e8aa4e537bd38aeae4b073aa335b6040516001600160a01b03909116815260200160405180910390a1565b6040516001600160a01b038316602482015260448101829052610e8290849063a9059cbb60e01b906064015b60408051601f198184030181529190526020810180516001600160e01b03166001600160e01b031990931692909217909152611ed1565b604080516000808252602082019092526001600160a01b038416908390604051611b0e91906122ca565b60006040518083038185875af1925050503d8060008114611b4b576040519150601f19603f3d011682016040523d82523d6000602084013e611b50565b606091505b5050905080610e825760405162461bcd60e51b815260206004820152602360248201527f5472616e7366657248656c7065723a204b41495f5452414e534645525f46414960448201526213115160ea1b60648201526084016109a6565b611bb56120b7565b6040518060800160405280836001600160a01b03168152602001836001600160a01b031663313ce5676040518163ffffffff1660e01b815260040160206040518083038186803b158015611c0857600080fd5b505afa158015611c1c573d6000803e3d6000fd5b505050506040513d601f19601f82011682018060405250810190611c40919061222a565b60ff168152602001836001600160a01b03166306fdde036040518163ffffffff1660e01b815260040160006040518083038186803b158015611c8157600080fd5b505afa158015611c95573d6000803e3d6000fd5b505050506040513d6000823e601f3d908101601f19168201604052611cbd919081019061215c565b8152602001836001600160a01b03166395d89b416040518163ffffffff1660e01b815260040160006040518083038186803b158015611cfb57600080fd5b505afa158015611d0f573d6000803e3d6000fd5b505050506040513d6000823e601f3d908101601f19168201604052611d37919081019061215c565b905292915050565b600180546001600160a01b038381166001600160a01b0319831681179093556040519116919082907f8be0079c531659141344cd1fd0a4f28419497f9722a3daafe3b4186f6b6457e090600090a35050565b600154600160a01b900460ff1615611dbb5760405162461bcd60e51b81526004016109a69061231a565b6001805460ff60a01b1916600160a01b1790557f62e78cea01bee320cd4e420270b5ea74000d11b0c9f74754ebdbfc544b05a258611a643390565b600080600d54118015611e0c5750600d54600e54115b611e4e5760405162461bcd60e51b815260206004820152601360248201527214db985c1cda1bdd081a59081b9bdd081cd95d606a1b60448201526064016109a6565b600c54600d54600e54604051636002de6760e01b81526000936001600160a01b031692636002de679261091392889291906004016122e6565b6040516001600160a01b0380851660248301528316604482015260648101829052611ebf9085906323b872dd60e01b90608401611aad565b50505050565b600061082782846123e5565b6000611f26826040518060400160405280602081526020017f5361666545524332303a206c6f772d6c6576656c2063616c6c206661696c6564815250856001600160a01b0316611fa39092919063ffffffff16565b805190915015610e825780806020019051810190611f44919061213c565b610e825760405162461bcd60e51b815260206004820152602a60248201527f5361666545524332303a204552433230206f7065726174696f6e20646964206e6044820152691bdd081cdd58d8d9595960b21b60648201526084016109a6565b6060610a4e8484600085856001600160a01b0385163b6120055760405162461bcd60e51b815260206004820152601d60248201527f416464726573733a2063616c6c20746f206e6f6e2d636f6e747261637400000060448201526064016109a6565b600080866001600160a01b0316858760405161202191906122ca565b60006040518083038185875af1925050503d806000811461205e576040519150601f19603f3d011682016040523d82523d6000602084013e612063565b606091505b509150915061207382828661207e565b979650505050505050565b6060831561208d575081610827565b82511561209d5782518084602001fd5b8160405162461bcd60e51b81526004016109a69190612307565b604051806080016040528060006001600160a01b031681526020016000815260200160608152602001606081525090565b6000602082840312156120f9578081fd5b813561082781612599565b60008060408385031215612116578081fd5b823561212181612599565b9150602083013561213181612599565b809150509250929050565b60006020828403121561214d578081fd5b81518015158114610827578182fd5b60006020828403121561216d578081fd5b815167ffffffffffffffff80821115612184578283fd5b818401915084601f830112612197578283fd5b8151818111156121a9576121a9612583565b604051601f8201601f19908116603f011681019083821181831017156121d1576121d1612583565b816040528281528760208487010111156121e9578586fd5b612073836020830160208801612541565b60006020828403121561220b578081fd5b5035919050565b600060208284031215612223578081fd5b5051919050565b60006020828403121561223b578081fd5b815160ff81168114610827578182fd5b60008151808452612263816020860160208601612541565b601f01601f19169290920160200192915050565b60018060a01b0381511682526020810151602083015260006040820151608060408501526122a8608085018261224b565b9050606083015184820360608601526122c1828261224b565b95945050505050565b600082516122dc818460208701612541565b9190910192915050565b6001600160a01b039390931683526020830191909152604082015260600190565b602081526000610827602083018461224b565b60208082526010908201526f14185d5cd8589b194e881c185d5cd95960821b604082015260600190565b6020808252600290820152616e6f60f01b604082015260600190565b6020808252818101527f4f776e61626c653a2063616c6c6572206973206e6f7420746865206f776e6572604082015260600190565b60e0815260006123a860e083018a612277565b82810360208401526123ba818a612277565b604084019890985250506060810194909452608084019290925260a083015260c09091015292915050565b600082198211156123f8576123f861256d565b500190565b60008261241857634e487b7160e01b81526012600452602481fd5b500490565b600181815b8085111561245857816000190482111561243e5761243e61256d565b8085161561244b57918102915b93841c9390800290612422565b509250929050565b600061082760ff84168360008261247957506001611229565b8161248657506000611229565b816001811461249c57600281146124a6576124c2565b6001915050611229565b60ff8411156124b7576124b761256d565b50506001821b611229565b5060208310610133831016604e8410600b84101617156124e5575081810a611229565b6124ef838361241d565b80600019048211156125035761250361256d565b029392505050565b60008160001904831182151516156125255761252561256d565b500290565b60008282101561253c5761253c61256d565b500390565b60005b8381101561255c578181015183820152602001612544565b83811115611ebf5750506000910152565b634e487b7160e01b600052601160045260246000fd5b634e487b7160e01b600052604160045260246000fd5b6001600160a01b03811681146113f257600080fdfea26469706673582212202e455bdb654d511c2c829497674535f5912d4b9d2e339fe63cf70a6a5db87b2c64736f6c63430008040033",
  "linkReferences": {},
  "deployedLinkReferences": {}
}