{
  "_format": "hh-sol-artifact-1",
  "contractName": "FundRaisingRefundable",
  "sourceName": "contracts/launchpad/tier/FundRaisingRefundable.sol",
  "abi": [
    {
      "inputs": [
        {
          "internalType": "contract ERC20",
          "name": "_buyToken",
          "type": "address"
        },
        {
          "internalType": "contract ERC20",
          "name": "_offeringToken",
          "type": "address"
        },
        {
          "internalType": "uint256",
          "name": "_offeringAmount",
          "type": "uint256"
        },
        {
          "internalType": "uint256",
          "name": "_raisingAmount",
          "type": "uint256"
        },
        {
          "internalType": "contract ITierSystem",
          "name": "_tierSystem",
          "type": "address"
        },
        {
          "internalType": "uint256",
          "name": "_snapshotFrom",
          "type": "uint256"
        },
        {
          "internalType": "uint256",
          "name": "_snapshotTo",
          "type": "uint256"
        },
        {
          "internalType": "uint256",
          "name": "_multiplier",
          "type": "uint256"
        }
      ],
      "stateMutability": "nonpayable",
      "type": "constructor"
    },
    {
      "anonymous": false,
      "inputs": [
        {
          "indexed": true,
          "internalType": "address",
          "name": "user",
          "type": "address"
        },
        {
          "indexed": false,
          "internalType": "uint256",
          "name": "amount",
          "type": "uint256"
        }
      ],
      "name": "Deposit",
      "type": "event"
    },
    {
      "anonymous": false,
      "inputs": [
        {
          "indexed": true,
          "internalType": "address",
          "name": "user",
          "type": "address"
        },
        {
          "indexed": false,
          "internalType": "uint256",
          "name": "offeringAmount",
          "type": "uint256"
        },
        {
          "indexed": false,
          "internalType": "uint256",
          "name": "excessAmount",
          "type": "uint256"
        }
      ],
      "name": "Harvest",
      "type": "event"
    },
    {
      "anonymous": false,
      "inputs": [
        {
          "indexed": true,
          "internalType": "address",
          "name": "previousOwner",
          "type": "address"
        },
        {
          "indexed": true,
          "internalType": "address",
          "name": "newOwner",
          "type": "address"
        }
      ],
      "name": "OwnershipTransferred",
      "type": "event"
    },
    {
      "anonymous": false,
      "inputs": [
        {
          "indexed": false,
          "internalType": "address",
          "name": "account",
          "type": "address"
        }
      ],
      "name": "Paused",
      "type": "event"
    },
    {
      "anonymous": false,
      "inputs": [
        {
          "indexed": true,
          "internalType": "address",
          "name": "user",
          "type": "address"
        },
        {
          "indexed": false,
          "internalType": "uint256",
          "name": "amount",
          "type": "uint256"
        },
        {
          "indexed": false,
          "internalType": "uint256",
          "name": "fees",
          "type": "uint256"
        }
      ],
      "name": "Refund",
      "type": "event"
    },
    {
      "anonymous": false,
      "inputs": [
        {
          "indexed": false,
          "internalType": "address",
          "name": "account",
          "type": "address"
        }
      ],
      "name": "Unpaused",
      "type": "event"
    },
    {
      "stateMutability": "payable",
      "type": "fallback"
    },
    {
      "inputs": [],
      "name": "REFUND_FEE",
      "outputs": [
        {
          "internalType": "uint256",
          "name": "",
          "type": "uint256"
        }
      ],
      "stateMutability": "view",
      "type": "function"
    },
    {
      "inputs": [
        {
          "internalType": "uint256",
          "name": "",
          "type": "uint256"
        }
      ],
      "name": "addressList",
      "outputs": [
        {
          "internalType": "address",
          "name": "",
          "type": "address"
        }
      ],
      "stateMutability": "view",
      "type": "function"
    },
    {
      "inputs": [
        {
          "internalType": "uint256",
          "name": "_tier",
          "type": "uint256"
        }
      ],
      "name": "allocations",
      "outputs": [
        {
          "internalType": "uint256",
          "name": "",
          "type": "uint256"
        }
      ],
      "stateMutability": "view",
      "type": "function"
    },
    {
      "inputs": [],
      "name": "buyToken",
      "outputs": [
        {
          "internalType": "contract ERC20",
          "name": "",
          "type": "address"
        }
      ],
      "stateMutability": "view",
      "type": "function"
    },
    {
      "inputs": [
        {
          "internalType": "uint256",
          "name": "_amount",
          "type": "uint256"
        }
      ],
      "name": "deposit",
      "outputs": [],
      "stateMutability": "payable",
      "type": "function"
    },
    {
      "inputs": [
        {
          "internalType": "address",
          "name": "token",
          "type": "address"
        },
        {
          "internalType": "address payable",
          "name": "to",
          "type": "address"
        },
        {
          "internalType": "uint256",
          "name": "amount",
          "type": "uint256"
        }
      ],
      "name": "emergencyWithdraw",
      "outputs": [],
      "stateMutability": "nonpayable",
      "type": "function"
    },
    {
      "inputs": [],
      "name": "endTime",
      "outputs": [
        {
          "internalType": "uint256",
          "name": "",
          "type": "uint256"
        }
      ],
      "stateMutability": "view",
      "type": "function"
    },
    {
      "inputs": [
        {
          "internalType": "address",
          "name": "_destination",
          "type": "address"
        }
      ],
      "name": "finalWithdraw",
      "outputs": [],
      "stateMutability": "nonpayable",
      "type": "function"
    },
    {
      "inputs": [],
      "name": "finalWithdrawAmount",
      "outputs": [
        {
          "internalType": "uint256",
          "name": "",
          "type": "uint256"
        }
      ],
      "stateMutability": "view",
      "type": "function"
    },
    {
      "inputs": [],
      "name": "getAddressListLength",
      "outputs": [
        {
          "internalType": "uint256",
          "name": "",
          "type": "uint256"
        }
      ],
      "stateMutability": "view",
      "type": "function"
    },
    {
      "inputs": [
        {
          "internalType": "address",
          "name": "_account",
          "type": "address"
        }
      ],
      "name": "getAllocation",
      "outputs": [
        {
          "internalType": "uint256",
          "name": "",
          "type": "uint256"
        }
      ],
      "stateMutability": "view",
      "type": "function"
    },
    {
      "inputs": [
        {
          "internalType": "address",
          "name": "_account",
          "type": "address"
        }
      ],
      "name": "getAllocationPoint",
      "outputs": [
        {
          "internalType": "uint256",
          "name": "",
          "type": "uint256"
        }
      ],
      "stateMutability": "view",
      "type": "function"
    },
    {
      "inputs": [],
      "name": "getInfo",
      "outputs": [
        {
          "components": [
            {
              "internalType": "contract ERC20",
              "name": "token",
              "type": "address"
            },
            {
              "internalType": "uint256",
              "name": "decimals",
              "type": "uint256"
            },
            {
              "internalType": "string",
              "name": "name",
              "type": "string"
            },
            {
              "internalType": "string",
              "name": "symbol",
              "type": "string"
            }
          ],
          "internalType": "struct FundRaisingRefundable.TokenInfo",
          "name": "",
          "type": "tuple"
        },
        {
          "components": [
            {
              "internalType": "contract ERC20",
              "name": "token",
              "type": "address"
            },
            {
              "internalType": "uint256",
              "name": "decimals",
              "type": "uint256"
            },
            {
              "internalType": "string",
              "name": "name",
              "type": "string"
            },
            {
              "internalType": "string",
              "name": "symbol",
              "type": "string"
            }
          ],
          "internalType": "struct FundRaisingRefundable.TokenInfo",
          "name": "",
          "type": "tuple"
        },
        {
          "internalType": "uint256",
          "name": "",
          "type": "uint256"
        },
        {
          "internalType": "uint256",
          "name": "",
          "type": "uint256"
        },
        {
          "internalType": "uint256",
          "name": "",
          "type": "uint256"
        },
        {
          "internalType": "uint256",
          "name": "",
          "type": "uint256"
        },
        {
          "internalType": "uint256",
          "name": "",
          "type": "uint256"
        }
      ],
      "stateMutability": "view",
      "type": "function"
    },
    {
      "inputs": [
        {
          "internalType": "address",
          "name": "_user",
          "type": "address"
        }
      ],
      "name": "getOfferingAmount",
      "outputs": [
        {
          "internalType": "uint256",
          "name": "",
          "type": "uint256"
        }
      ],
      "stateMutability": "view",
      "type": "function"
    },
    {
      "inputs": [
        {
          "internalType": "address",
          "name": "_user",
          "type": "address"
        }
      ],
      "name": "getRefundingAmount",
      "outputs": [
        {
          "internalType": "uint256",
          "name": "",
          "type": "uint256"
        }
      ],
      "stateMutability": "view",
      "type": "function"
    },
    {
      "inputs": [
        {
          "internalType": "address",
          "name": "_account",
          "type": "address"
        }
      ],
      "name": "getTier",
      "outputs": [
        {
          "internalType": "uint256",
          "name": "",
          "type": "uint256"
        }
      ],
      "stateMutability": "view",
      "type": "function"
    },
    {
      "inputs": [
        {
          "internalType": "address",
          "name": "_user",
          "type": "address"
        }
      ],
      "name": "getUserAllocation",
      "outputs": [
        {
          "internalType": "uint256",
          "name": "",
          "type": "uint256"
        }
      ],
      "stateMutability": "view",
      "type": "function"
    },
    {
      "inputs": [],
      "name": "harvest",
      "outputs": [],
      "stateMutability": "nonpayable",
      "type": "function"
    },
    {
      "inputs": [],
      "name": "harvestTime",
      "outputs": [
        {
          "internalType": "uint256",
          "name": "",
          "type": "uint256"
        }
      ],
      "stateMutability": "view",
      "type": "function"
    },
    {
      "inputs": [
        {
          "internalType": "address",
          "name": "_user",
          "type": "address"
        }
      ],
      "name": "hasHarvest",
      "outputs": [
        {
          "internalType": "bool",
          "name": "",
          "type": "bool"
        }
      ],
      "stateMutability": "view",
      "type": "function"
    },
    {
      "inputs": [
        {
          "internalType": "uint256",
          "name": "_startTime",
          "type": "uint256"
        },
        {
          "internalType": "uint256",
          "name": "_endTime",
          "type": "uint256"
        },
        {
          "internalType": "uint256",
          "name": "_harvestTime",
          "type": "uint256"
        },
        {
          "internalType": "uint256",
          "name": "_refundStartTime",
          "type": "uint256"
        },
        {
          "internalType": "uint256",
          "name": "_refundEndTime",
          "type": "uint256"
        }
      ],
      "name": "initTime",
      "outputs": [],
      "stateMutability": "nonpayable",
      "type": "function"
    },
    {
      "inputs": [],
      "name": "multiplier",
      "outputs": [
        {
          "internalType": "uint256",
          "name": "",
          "type": "uint256"
        }
      ],
      "stateMutability": "view",
      "type": "function"
    },
    {
      "inputs": [],
      "name": "offeringAmount",
      "outputs": [
        {
          "internalType": "uint256",
          "name": "",
          "type": "uint256"
        }
      ],
      "stateMutability": "view",
      "type": "function"
    },
    {
      "inputs": [],
      "name": "offeringToken",
      "outputs": [
        {
          "internalType": "contract ERC20",
          "name": "",
          "type": "address"
        }
      ],
      "stateMutability": "view",
      "type": "function"
    },
    {
      "inputs": [],
      "name": "offeringTokenRefund",
      "outputs": [
        {
          "internalType": "uint256",
          "name": "",
          "type": "uint256"
        }
      ],
      "stateMutability": "view",
      "type": "function"
    },
    {
      "inputs": [],
      "name": "owner",
      "outputs": [
        {
          "internalType": "address",
          "name": "",
          "type": "address"
        }
      ],
      "stateMutability": "view",
      "type": "function"
    },
    {
      "inputs": [],
      "name": "pause",
      "outputs": [],
      "stateMutability": "nonpayable",
      "type": "function"
    },
    {
      "inputs": [],
      "name": "paused",
      "outputs": [
        {
          "internalType": "bool",
          "name": "",
          "type": "bool"
        }
      ],
      "stateMutability": "view",
      "type": "function"
    },
    {
      "inputs": [],
      "name": "raisingAmount",
      "outputs": [
        {
          "internalType": "uint256",
          "name": "",
          "type": "uint256"
        }
      ],
      "stateMutability": "view",
      "type": "function"
    },
    {
      "inputs": [],
      "name": "refund",
      "outputs": [],
      "stateMutability": "nonpayable",
      "type": "function"
    },
    {
      "inputs": [],
      "name": "refundEndTime",
      "outputs": [
        {
          "internalType": "uint256",
          "name": "",
          "type": "uint256"
        }
      ],
      "stateMutability": "view",
      "type": "function"
    },
    {
      "inputs": [],
      "name": "refundFees",
      "outputs": [
        {
          "internalType": "uint256",
          "name": "",
          "type": "uint256"
        }
      ],
      "stateMutability": "view",
      "type": "function"
    },
    {
      "inputs": [],
      "name": "refundStartTime",
      "outputs": [
        {
          "internalType": "uint256",
          "name": "",
          "type": "uint256"
        }
      ],
      "stateMutability": "view",
      "type": "function"
    },
    {
      "inputs": [],
      "name": "remainingToken",
      "outputs": [
        {
          "internalType": "uint256",
          "name": "",
          "type": "uint256"
        }
      ],
      "stateMutability": "view",
      "type": "function"
    },
    {
      "inputs": [],
      "name": "remainingTokenAfterRefund",
      "outputs": [
        {
          "internalType": "uint256",
          "name": "",
          "type": "uint256"
        }
      ],
      "stateMutability": "view",
      "type": "function"
    },
    {
      "inputs": [],
      "name": "renounceOwnership",
      "outputs": [],
      "stateMutability": "nonpayable",
      "type": "function"
    },
    {
      "inputs": [
        {
          "internalType": "uint256",
          "name": "mul",
          "type": "uint256"
        }
      ],
      "name": "setMultiplier",
      "outputs": [],
      "stateMutability": "nonpayable",
      "type": "function"
    },
    {
      "inputs": [
        {
          "internalType": "uint256",
          "name": "_offerAmount",
          "type": "uint256"
        }
      ],
      "name": "setOfferingAmount",
      "outputs": [],
      "stateMutability": "nonpayable",
      "type": "function"
    },
    {
      "inputs": [
        {
          "internalType": "uint256",
          "name": "_raisingAmount",
          "type": "uint256"
        }
      ],
      "name": "setRaisingAmount",
      "outputs": [],
      "stateMutability": "nonpayable",
      "type": "function"
    },
    {
      "inputs": [
        {
          "internalType": "uint256",
          "name": "id",
          "type": "uint256"
        }
      ],
      "name": "setSnapshotFrom",
      "outputs": [],
      "stateMutability": "nonpayable",
      "type": "function"
    },
    {
      "inputs": [
        {
          "internalType": "uint256",
          "name": "id",
          "type": "uint256"
        }
      ],
      "name": "setSnapshotTo",
      "outputs": [],
      "stateMutability": "nonpayable",
      "type": "function"
    },
    {
      "inputs": [],
      "name": "snapshotFrom",
      "outputs": [
        {
          "internalType": "uint256",
          "name": "",
          "type": "uint256"
        }
      ],
      "stateMutability": "view",
      "type": "function"
    },
    {
      "inputs": [],
      "name": "snapshotTo",
      "outputs": [
        {
          "internalType": "uint256",
          "name": "",
          "type": "uint256"
        }
      ],
      "stateMutability": "view",
      "type": "function"
    },
    {
      "inputs": [],
      "name": "soldTokenAmount",
      "outputs": [
        {
          "internalType": "uint256",
          "name": "",
          "type": "uint256"
        }
      ],
      "stateMutability": "view",
      "type": "function"
    },
    {
      "inputs": [],
      "name": "soldTokenAmountAferRefund",
      "outputs": [
        {
          "internalType": "uint256",
          "name": "",
          "type": "uint256"
        }
      ],
      "stateMutability": "view",
      "type": "function"
    },
    {
      "inputs": [],
      "name": "startTime",
      "outputs": [
        {
          "internalType": "uint256",
          "name": "",
          "type": "uint256"
        }
      ],
      "stateMutability": "view",
      "type": "function"
    },
    {
      "inputs": [],
      "name": "tierSystem",
      "outputs": [
        {
          "internalType": "contract ITierSystem",
          "name": "",
          "type": "address"
        }
      ],
      "stateMutability": "view",
      "type": "function"
    },
    {
      "inputs": [],
      "name": "totalAmount",
      "outputs": [
        {
          "internalType": "uint256",
          "name": "",
          "type": "uint256"
        }
      ],
      "stateMutability": "view",
      "type": "function"
    },
    {
      "inputs": [],
      "name": "totalRefund",
      "outputs": [
        {
          "internalType": "uint256",
          "name": "",
          "type": "uint256"
        }
      ],
      "stateMutability": "view",
      "type": "function"
    },
    {
      "inputs": [
        {
          "internalType": "address",
          "name": "newOwner",
          "type": "address"
        }
      ],
      "name": "transferOwnership",
      "outputs": [],
      "stateMutability": "nonpayable",
      "type": "function"
    },
    {
      "inputs": [],
      "name": "unpause",
      "outputs": [],
      "stateMutability": "nonpayable",
      "type": "function"
    },
    {
      "inputs": [
        {
          "internalType": "uint256",
          "name": "_newTime",
          "type": "uint256"
        }
      ],
      "name": "updateEndTime",
      "outputs": [],
      "stateMutability": "nonpayable",
      "type": "function"
    },
    {
      "inputs": [
        {
          "internalType": "uint256",
          "name": "_newTime",
          "type": "uint256"
        }
      ],
      "name": "updateHarvestTime",
      "outputs": [],
      "stateMutability": "nonpayable",
      "type": "function"
    },
    {
      "inputs": [
        {
          "internalType": "address",
          "name": "_newToken",
          "type": "address"
        }
      ],
      "name": "updateOfferingToken",
      "outputs": [],
      "stateMutability": "nonpayable",
      "type": "function"
    },
    {
      "inputs": [
        {
          "internalType": "uint256",
          "name": "_refundEndTime",
          "type": "uint256"
        }
      ],
      "name": "updateRefundEndTime",
      "outputs": [],
      "stateMutability": "nonpayable",
      "type": "function"
    },
    {
      "inputs": [
        {
          "internalType": "uint256",
          "name": "_refundStartTime",
          "type": "uint256"
        }
      ],
      "name": "updateRefundStartTime",
      "outputs": [],
      "stateMutability": "nonpayable",
      "type": "function"
    },
    {
      "inputs": [
        {
          "internalType": "address",
          "name": "",
          "type": "address"
        }
      ],
      "name": "userInfo",
      "outputs": [
        {
          "internalType": "uint256",
          "name": "amount",
          "type": "uint256"
        },
        {
          "internalType": "bool",
          "name": "claimed",
          "type": "bool"
        },
        {
          "internalType": "bool",
          "name": "refunded",
          "type": "bool"
        }
      ],
      "stateMutability": "view",
      "type": "function"
    }
  ],
  "bytecode": "0x60806040526101f46012553480156200001757600080fd5b5060405162002aae38038062002aae8339810160408190526200003a9162000105565b60016000556200004a33620000b3565b6001805460ff60a01b19169055600280546001600160a01b03199081166001600160a01b039a8b1617909155600380548216988a1698909817909755600a95909555600993909355600e80549095169190951617909255600f92909255601055601155620001a1565b600180546001600160a01b038381166001600160a01b0319831681179093556040519116919082907f8be0079c531659141344cd1fd0a4f28419497f9722a3daafe3b4186f6b6457e090600090a35050565b600080600080600080600080610100898b03121562000122578384fd5b88516200012f8162000188565b60208a0151909850620001428162000188565b8097505060408901519550606089015194506080890151620001648162000188565b60a08a015160c08b015160e0909b0151999c989b5096999598909790945092505050565b6001600160a01b03811681146200019e57600080fd5b50565b6128fd80620001b16000396000f3fe6080604052600436106103495760003560e01c8063715018a6116101b9578063b6b55f25116100f6578063d995c9291161009a578063f2fde38b1161006c578063f2fde38b14610975578063f480821014610995578063f8caa7e5146109ab578063fc00358e146109cb57005b8063d995c9291461090a578063e1af9a951461091f578063e63ea40814610935578063eadbd7881461095557005b8063b920ade2116100d3578063b920ade214610894578063c2c9721b146108b4578063c3b5e900146108d4578063d16bba94146108ea57005b8063b6b55f2514610841578063b781360714610854578063b810fb431461087457005b80638ed762871161015d578063a48217191161013a578063a4821719146107cc578063a55c1f4e146107ec578063ac3ff91214610801578063b45aae521461082157005b80638ed762871461078c5780639c0a7669146107a1578063a42ee206146107b757005b806378e979251161019657806378e979251461070f5780638456cb591461072557806387e97bc61461073a5780638da5cb5b1461075a57005b8063715018a6146106c457806373fddd16146106d957806376ea6ee0146106ef57005b80633f4ba83a116102875780636036057a1161022b5780636a2ce513116102085780636a2ce5131461064e5780636ab3846b1461066e5780636aba899b1461068e57806371394f51146106a457005b80636036057a146105d2578063641579a6146105f257806364ce9fff1461061257005b806347bfbab01161026457806347bfbab014610555578063590e1ae31461056a5780635a9b0b891461057f5780635c975abb146105a757005b80633f4ba83a1461050b5780634225c32f146105205780634641257d1461054057005b806322b33175116102ee5780632f5105f8116102cb5780632f5105f81461049f5780633197cbb6146104bf578063343e31f5146104d55780633a5cfcc0146104eb57005b806322b331751461045357806327d1b1a2146104695780632b1dd8da1461048957005b80631959a002116103275780631959a002146103b45780631a39d8ef146104115780631b3ed7221461042757806320af09ab1461043d57005b806301541fe31461034b5780630a2642bf146103745780630e02292314610394575b005b34801561035757600080fd5b5061036160145481565b6040519081526020015b60405180910390f35b34801561038057600080fd5b5061036161038f3660046124d2565b6109e0565b3480156103a057600080fd5b506103616103af3660046123b8565b610b56565b3480156103c057600080fd5b506103f46103cf3660046123b8565b600c602052600090815260409020805460019091015460ff8082169161010090041683565b60408051938452911515602084015215159082015260600161036b565b34801561041d57600080fd5b50610361600b5481565b34801561043357600080fd5b5061036160115481565b34801561044957600080fd5b5061036160125481565b34801561045f57600080fd5b5061036160105481565b34801561047557600080fd5b506103496104843660046124d2565b610b68565b34801561049557600080fd5b5061036160135481565b3480156104ab57600080fd5b506103616104ba3660046123b8565b610b9f565b3480156104cb57600080fd5b5061036160055481565b3480156104e157600080fd5b50610361600f5481565b3480156104f757600080fd5b50610349610506366004612502565b610c20565b34801561051757600080fd5b50610349610ccb565b34801561052c57600080fd5b5061034961053b3660046124d2565b610cdd565b34801561054c57600080fd5b50610349610d0b565b34801561056157600080fd5b50610361610f74565b34801561057657600080fd5b50610349610fbb565b34801561058b57600080fd5b5061059461128e565b60405161036b97969594939291906126ae565b3480156105b357600080fd5b50600154600160a01b900460ff165b604051901515815260200161036b565b3480156105de57600080fd5b506103496105ed3660046124d2565b611386565b3480156105fe57600080fd5b5061034961060d3660046124d2565b6113bf565b34801561061e57600080fd5b506105c261062d3660046123b8565b6001600160a01b03166000908152600c602052604090206001015460ff1690565b34801561065a57600080fd5b506103616106693660046123b8565b6113cc565b34801561067a57600080fd5b506103496106893660046124d2565b61144a565b34801561069a57600080fd5b5061036160075481565b3480156106b057600080fd5b506103496106bf3660046124d2565b611483565b3480156106d057600080fd5b506103496114bc565b3480156106e557600080fd5b5061036160085481565b3480156106fb57600080fd5b5061034961070a3660046124d2565b6114ce565b34801561071b57600080fd5b5061036160045481565b34801561073157600080fd5b50610349611507565b34801561074657600080fd5b506103616107553660046123b8565b611517565b34801561076657600080fd5b506001546001600160a01b03165b6040516001600160a01b03909116815260200161036b565b34801561079857600080fd5b50610361611581565b3480156107ad57600080fd5b5061036160095481565b3480156107c357600080fd5b506103616115a2565b3480156107d857600080fd5b50600254610774906001600160a01b031681565b3480156107f857600080fd5b506103616115f4565b34801561080d57600080fd5b5061034961081c3660046123b8565b6115ff565b34801561082d57600080fd5b5061036161083c3660046123b8565b61169c565b61034961084f3660046124d2565b6116e8565b34801561086057600080fd5b50600354610774906001600160a01b031681565b34801561088057600080fd5b5061077461088f3660046124d2565b6119ba565b3480156108a057600080fd5b506103616108af3660046123b8565b6119e4565b3480156108c057600080fd5b506103496108cf3660046124d2565b611a18565b3480156108e057600080fd5b5061036160155481565b3480156108f657600080fd5b506103496109053660046124d2565b611a62565b34801561091657600080fd5b50610361611aac565b34801561092b57600080fd5b50610361600a5481565b34801561094157600080fd5b506103496109503660046123d4565b611b04565b34801561096157600080fd5b506103496109703660046123b8565b611b6f565b34801561098157600080fd5b506103496109903660046123b8565b611bbf565b3480156109a157600080fd5b5061036160065481565b3480156109b757600080fd5b50600e54610774906001600160a01b031681565b3480156109d757600080fd5b50600d54610361565b600e5460405163bbc3f7cf60e01b81526004810183905260009182916001600160a01b039091169063bbc3f7cf9060240160206040518083038186803b158015610a2957600080fd5b505afa158015610a3d573d6000803e3d6000fd5b505050506040513d601f19601f82011682018060405250810190610a6191906124ea565b6002549091506001600160a01b0316610aae57610aa7612710610aa1670de0b6b3a7640000610a9b60115486611c3890919063ffffffff16565b90611c38565b90611c44565b9392505050565b610aa7612710610aa1600260009054906101000a90046001600160a01b03166001600160a01b031663313ce5676040518163ffffffff1660e01b815260040160206040518083038186803b158015610b0557600080fd5b505afa158015610b19573d6000803e3d6000fd5b505050506040513d601f19601f82011682018060405250810190610b3d919061253c565b610b4890600a612779565b601154610a9b908690611c38565b6000610b6260036109e0565b92915050565b610b70611c50565b6004544210610b9a5760405162461bcd60e51b8152600401610b9190612633565b60405180910390fd5b600a55565b6000600954600b5411610bb457506000919050565b6000610bbf836119e4565b90506000610be4670de0b6b3a7640000610aa184600954611c3890919063ffffffff16565b6001600160a01b0385166000908152600c6020526040902054909150610c189061271090610c129084611caa565b90611caa565b949350505050565b610c28611c50565b60165460ff1615610c6d5760405162461bcd60e51b815260206004820152600f60248201526e1a185cc81a5b9a5d1a585b1a5e9959608a1b6044820152606401610b91565b838310158015610c7c57508484115b8015610c8757504285115b8015610c935750838210155b8015610c9e57508082105b610ca757600080fd5b6004949094556005929092556006556007556008556016805460ff19166001179055565b610cd3611c50565b610cdb611cb6565b565b610ce5611c50565b6004544210610d065760405162461bcd60e51b8152600401610b9190612633565b600955565b60026000541415610d2e5760405162461bcd60e51b8152600401610b9190612677565b600260005560165460ff16610d555760405162461bcd60e51b8152600401610b919061264f565b6006544211610d995760405162461bcd60e51b815260206004820152601060248201526f6e6f7420686172766573742074696d6560801b6044820152606401610b91565b336000908152600c6020526040902054610dee5760405162461bcd60e51b81526020600482015260166024820152756861766520796f75207061727469636970617465643f60501b6044820152606401610b91565b336000908152600c602052604090206001015460ff1615610e465760405162461bcd60e51b81526020600482015260126024820152711b9bdd1a1a5b99c81d1bc81a185c9d995cdd60721b6044820152606401610b91565b336000908152600c6020526040902060010154610100900460ff1615610e9c5760405162461bcd60e51b815260206004820152600b60248201526a1a185cc81c99599d5b995960aa1b6044820152606401610b91565b610ea4611d0b565b6000610eaf33611517565b90506000610ebc33610b9f565b600354909150610ed6906001600160a01b03163384611d58565b8015610f12576002546001600160a01b0316610efb57610ef63382611dbb565b610f12565b600254610f12906001600160a01b03163383611d58565b336000818152600c60209081526040918290206001908101805460ff1916909117905581518581529081018490527f71bab65ced2e5750775a0613be067df48ef06cf92a496ebf7663ae0660924954910160405180910390a250506001600055565b6000600b5460001415610f875750600090565b600954600b5410610f995750600a5490565b610fb6600954610aa1600b54600a54611c3890919063ffffffff16565b905090565b60026000541415610fde5760405162461bcd60e51b8152600401610b9190612677565b6002600055610feb611d0b565b60165460ff1661100d5760405162461bcd60e51b8152600401610b919061264f565b6007544211801561102057506008544211155b61105e5760405162461bcd60e51b815260206004820152600f60248201526e6e6f7420726566756e642074696d6560881b6044820152606401610b91565b336000908152600c60205260409020546110b35760405162461bcd60e51b81526020600482015260166024820152756861766520796f75207061727469636970617465643f60501b6044820152606401610b91565b336000908152600c602052604090206001015460ff16156111065760405162461bcd60e51b815260206004820152600d60248201526c1a185cc81a185c9d995cdd1959609a1b6044820152606401610b91565b336000908152600c6020526040902060010154610100900460ff161561115c5760405162461bcd60e51b815260206004820152600b60248201526a1a185cc81c99599d5b995960aa1b6044820152606401610b91565b336000818152600c60205260408120549161117690610b9f565b9050600061118333611517565b905060006111918484611caa565b905060006111b0612710610aa160125485611c3890919063ffffffff16565b905060006111be8287612843565b6002549091506001600160a01b03166111e0576111db3382611dbb565b6111f7565b6002546111f7906001600160a01b03163383611d58565b336000908152600c60205260409020600101805461ff0019166101001790556013546112239083611e84565b6013556014546112339082611e84565b6014556015546112439085611e84565b601555604080518281526020810184905233917f73f04af9dcc582a923ec15d3eea990fe34adabfff2879e28d44572e01a54abb6910160405180910390a25050600160005550505050565b611296612387565b61129e612387565b60008060008060006112ae612387565b6002546001600160a01b031661132f57604051806080016040528060006001600160a01b03168152602001601281526020016040518060400160405280600b81526020016a25b0b93234b0a1b430b4b760a91b8152508152602001604051806040016040528060038152602001624b414960e81b8152508152509050611347565b600254611344906001600160a01b0316611e90565b90505b60035460009061135f906001600160a01b0316611e90565b600454600554600654600a54600954969e949d50929b509099509750955091935090915050565b61138e611c50565b428111801561139e575060055481115b6113ba5760405162461bcd60e51b8152600401610b919061260b565b600755565b6113c7611c50565b601155565b600e5460405163bbc3f7cf60e01b8152600360048201526000916001600160a01b03169063bbc3f7cf906024015b60206040518083038186803b15801561141257600080fd5b505afa158015611426573d6000803e3d6000fd5b505050506040513d601f19601f82011682018060405250810190610b6291906124ea565b611452611c50565b4281118015611462575060065481105b61147e5760405162461bcd60e51b8152600401610b919061260b565b600555565b61148b611c50565b428111801561149b575060075481115b6114b75760405162461bcd60e51b8152600401610b919061260b565b600855565b6114c4611c50565b610cdb6000612022565b6114d6611c50565b42811180156114e6575060055481115b6115025760405162461bcd60e51b8152600401610b919061260b565b600655565b61150f611c50565b610cdb612074565b6000600954600b541115611553576000611530836119e4565b9050610aa7670de0b6b3a7640000610aa183600a54611c3890919063ffffffff16565b600954600a546001600160a01b0384166000908152600c6020526040902054610b629291610aa19190611c38565b60008061158c610f74565b600a5490915061159c9082611caa565b91505090565b6000600954600b5411156115e45760006115ba611aac565b90506013546115da600a54610aa160095485611c3890919063ffffffff16565b61159c91906126fe565b601454600b54610fb69190612843565b60008061158c611aac565b611607611c50565b42600554108015611619575042600854105b61165a5760405162461bcd60e51b81526020600482015260126024820152711d1a5b59481a185cc81b9bdd08195b99195960721b6044820152606401610b91565b60006116646115a2565b6002549091506001600160a01b0316611685576116818282611dbb565b5050565b600254611681906001600160a01b03168383611d58565b600e54600f54601054604051636002de6760e01b81526001600160a01b038581166004830152602482019390935260448101919091526000929190911690636002de67906064016113fa565b6002600054141561170b5760405162461bcd60e51b8152600401610b9190612677565b6002600055601654819060ff166117345760405162461bcd60e51b8152600401610b919061264f565b60045442118015611746575060055442105b6117855760405162461bcd60e51b815260206004820152601060248201526f6e6f742072616973696e672074696d6560801b6044820152606401610b91565b600081116117c85760405162461bcd60e51b815260206004820152601060248201526f06e656564205f616d6f756e74203e20360841b6044820152606401610b91565b6117d0611d0b565b60006117db336120b7565b336000908152600c602052604090205490915081116118345760405162461bcd60e51b81526020600482015260156024820152746e6f7420656c696769626c6520616d6f756e74212160581b6044820152606401610b91565b336000908152600c602052604081205461184e9083612843565b9050838082101561185c5750805b6002546001600160a01b03166118d057803410156118b05760405162461bcd60e51b81526020600482015260116024820152700c2dadeeadce840dcdee840cadcdeeaced607b1b6044820152606401610b91565b803411156118cb576118cb336118c68334612843565b611dbb565b6118e8565b6002546118e8906001600160a01b0316333084612119565b336000908152600c602052604090205461193f57600d80546001810182556000919091527fd7b6990105719101dabeb77144f2a3385c8033acd3af97e9423a695e81ad1eb50180546001600160a01b031916331790555b336000908152600c60205260409020546119599082611e84565b336000908152600c6020526040902055600b546119769082611e84565b600b5560405181815233907fe1fffcc4923d04b559f4d29a8bfc6cda04eb5b0d3c460751c2402c5c5cc9109c9060200160405180910390a250506001600055505050565b600d81815481106119ca57600080fd5b6000918252602090912001546001600160a01b0316905081565b600b546001600160a01b0382166000908152600c60205260408120549091610b6291610aa190670de0b6b3a7640000611c38565b611a20611c50565b60008111611a5d5760405162461bcd60e51b815260206004820152600a6024820152691259081a5b9d985b1a5960b21b6044820152606401610b91565b601055565b611a6a611c50565b60008111611aa75760405162461bcd60e51b815260206004820152600a6024820152691259081a5b9d985b1a5960b21b6044820152606401610b91565b600f55565b6000600b5460001415611abf5750600090565b600954600b5410611ada57601554600a54610fb69190612843565b601554611afa600954610aa1600b54600a54611c3890919063ffffffff16565b610fb69190612843565b611b0c611c50565b6001600160a01b038316611b56576040516001600160a01b0383169082156108fc029083906000818181858888f19350505050158015611b50573d6000803e3d6000fd5b50505050565b611b6a6001600160a01b0384168383611d58565b505050565b611b77611c50565b6001600160a01b038116611b9d5760405162461bcd60e51b8152600401610b9190612633565b600380546001600160a01b0319166001600160a01b0392909216919091179055565b611bc7611c50565b6001600160a01b038116611c2c5760405162461bcd60e51b815260206004820152602660248201527f4f776e61626c653a206e6577206f776e657220697320746865207a65726f206160448201526564647265737360d01b6064820152608401610b91565b611c3581612022565b50565b6000610aa78284612824565b6000610aa78284612716565b6001546001600160a01b03163314610cdb5760405162461bcd60e51b815260206004820181905260248201527f4f776e61626c653a2063616c6c6572206973206e6f7420746865206f776e65726044820152606401610b91565b6000610aa78284612843565b611cbe612151565b6001805460ff60a01b191690557f5db9ee0a495bf2e6ff9c91a7834c1ba4fdd244a5e8aa4e537bd38aeae4b073aa335b6040516001600160a01b03909116815260200160405180910390a1565b600154600160a01b900460ff1615610cdb5760405162461bcd60e51b815260206004820152601060248201526f14185d5cd8589b194e881c185d5cd95960821b6044820152606401610b91565b6040516001600160a01b038316602482015260448101829052611b6a90849063a9059cbb60e01b906064015b60408051601f198184030181529190526020810180516001600160e01b03166001600160e01b0319909316929092179091526121a1565b604080516000808252602082019092526001600160a01b038416908390604051611de591906125dc565b60006040518083038185875af1925050503d8060008114611e22576040519150601f19603f3d011682016040523d82523d6000602084013e611e27565b606091505b5050905080611b6a5760405162461bcd60e51b815260206004820152602360248201527f5472616e7366657248656c7065723a204b41495f5452414e534645525f46414960448201526213115160ea1b6064820152608401610b91565b6000610aa782846126fe565b611e98612387565b6040518060800160405280836001600160a01b03168152602001836001600160a01b031663313ce5676040518163ffffffff1660e01b815260040160206040518083038186803b158015611eeb57600080fd5b505afa158015611eff573d6000803e3d6000fd5b505050506040513d601f19601f82011682018060405250810190611f23919061253c565b60ff168152602001836001600160a01b03166306fdde036040518163ffffffff1660e01b815260040160006040518083038186803b158015611f6457600080fd5b505afa158015611f78573d6000803e3d6000fd5b505050506040513d6000823e601f3d908101601f19168201604052611fa09190810190612434565b8152602001836001600160a01b03166395d89b416040518163ffffffff1660e01b815260040160006040518083038186803b158015611fde57600080fd5b505afa158015611ff2573d6000803e3d6000fd5b505050506040513d6000823e601f3d908101601f1916820160405261201a9190810190612434565b905292915050565b600180546001600160a01b038381166001600160a01b0319831681179093556040519116919082907f8be0079c531659141344cd1fd0a4f28419497f9722a3daafe3b4186f6b6457e090600090a35050565b61207c611d0b565b6001805460ff60a01b1916600160a01b1790557f62e78cea01bee320cd4e420270b5ea74000d11b0c9f74754ebdbfc544b05a258611cee3390565b600080600f541180156120cd5750600f54601054115b61210f5760405162461bcd60e51b815260206004820152601360248201527214db985c1cda1bdd081a59081b9bdd081cd95d606a1b6044820152606401610b91565b610b6260036109e0565b6040516001600160a01b0380851660248301528316604482015260648101829052611b509085906323b872dd60e01b90608401611d84565b600154600160a01b900460ff16610cdb5760405162461bcd60e51b815260206004820152601460248201527314185d5cd8589b194e881b9bdd081c185d5cd95960621b6044820152606401610b91565b60006121f6826040518060400160405280602081526020017f5361666545524332303a206c6f772d6c6576656c2063616c6c206661696c6564815250856001600160a01b03166122739092919063ffffffff16565b805190915015611b6a57808060200190518101906122149190612414565b611b6a5760405162461bcd60e51b815260206004820152602a60248201527f5361666545524332303a204552433230206f7065726174696f6e20646964206e6044820152691bdd081cdd58d8d9595960b21b6064820152608401610b91565b6060610c188484600085856001600160a01b0385163b6122d55760405162461bcd60e51b815260206004820152601d60248201527f416464726573733a2063616c6c20746f206e6f6e2d636f6e74726163740000006044820152606401610b91565b600080866001600160a01b031685876040516122f191906125dc565b60006040518083038185875af1925050503d806000811461232e576040519150601f19603f3d011682016040523d82523d6000602084013e612333565b606091505b509150915061234382828661234e565b979650505050505050565b6060831561235d575081610aa7565b82511561236d5782518084602001fd5b8160405162461bcd60e51b8152600401610b9191906125f8565b604051806080016040528060006001600160a01b031681526020016000815260200160608152602001606081525090565b6000602082840312156123c9578081fd5b8135610aa7816128b2565b6000806000606084860312156123e8578182fd5b83356123f3816128b2565b92506020840135612403816128b2565b929592945050506040919091013590565b600060208284031215612425578081fd5b81518015158114610aa7578182fd5b600060208284031215612445578081fd5b815167ffffffffffffffff8082111561245c578283fd5b818401915084601f83011261246f578283fd5b8151818111156124815761248161289c565b604051601f8201601f19908116603f011681019083821181831017156124a9576124a961289c565b816040528281528760208487010111156124c1578586fd5b61234383602083016020880161285a565b6000602082840312156124e3578081fd5b5035919050565b6000602082840312156124fb578081fd5b5051919050565b600080600080600060a08688031215612519578081fd5b505083359560208501359550604085013594606081013594506080013592509050565b60006020828403121561254d578081fd5b815160ff81168114610aa7578182fd5b6000815180845261257581602086016020860161285a565b601f01601f19169290920160200192915050565b60018060a01b0381511682526020810151602083015260006040820151608060408501526125ba608085018261255d565b9050606083015184820360608601526125d3828261255d565b95945050505050565b600082516125ee81846020870161285a565b9190910192915050565b602081526000610aa7602083018461255d565b6020808252600e908201526d74696d6520696e76616c6964212160901b604082015260600190565b6020808252600290820152616e6f60f01b604082015260600190565b6020808252600e908201526d6861736e277420616c726561647960901b604082015260600190565b6020808252601f908201527f5265656e7472616e637947756172643a207265656e7472616e742063616c6c00604082015260600190565b60e0815260006126c160e083018a612589565b82810360208401526126d3818a612589565b604084019890985250506060810194909452608084019290925260a083015260c09091015292915050565b6000821982111561271157612711612886565b500190565b60008261273157634e487b7160e01b81526012600452602481fd5b500490565b600181815b8085111561277157816000190482111561275757612757612886565b8085161561276457918102915b93841c939080029061273b565b509250929050565b6000610aa760ff84168360008261279257506001610b62565b8161279f57506000610b62565b81600181146127b557600281146127bf576127db565b6001915050610b62565b60ff8411156127d0576127d0612886565b50506001821b610b62565b5060208310610133831016604e8410600b84101617156127fe575081810a610b62565b6128088383612736565b806000190482111561281c5761281c612886565b029392505050565b600081600019048311821515161561283e5761283e612886565b500290565b60008282101561285557612855612886565b500390565b60005b8381101561287557818101518382015260200161285d565b83811115611b505750506000910152565b634e487b7160e01b600052601160045260246000fd5b634e487b7160e01b600052604160045260246000fd5b6001600160a01b0381168114611c3557600080fdfea264697066735822122075abaf85e7d5c915d6fb544d62b2d1b562e251a6ae26437d830cf4d9fc7edf5864736f6c63430008040033",
  "linkReferences": {},
  "deployedLinkReferences": {}
}