{
  "_format": "hh-sol-artifact-1",
  "contractName": "FundRaisingRefundable",
  "sourceName": "contracts/launchpad/tier/FundRaisingRefundable.sol",
  "abi": [
    {
      "inputs": [
        {
          "internalType": "contract ERC20",
          "name": "_buyToken",
          "type": "address"
        },
        {
          "internalType": "contract ERC20",
          "name": "_offeringToken",
          "type": "address"
        },
        {
          "internalType": "uint256",
          "name": "_offeringAmount",
          "type": "uint256"
        },
        {
          "internalType": "uint256",
          "name": "_raisingAmount",
          "type": "uint256"
        },
        {
          "internalType": "contract ITierSystem",
          "name": "_tierSystem",
          "type": "address"
        },
        {
          "internalType": "uint256",
          "name": "_snapshotFrom",
          "type": "uint256"
        },
        {
          "internalType": "uint256",
          "name": "_snapshotTo",
          "type": "uint256"
        },
        {
          "internalType": "uint256",
          "name": "_multiplier",
          "type": "uint256"
        }
      ],
      "stateMutability": "nonpayable",
      "type": "constructor"
    },
    {
      "anonymous": false,
      "inputs": [
        {
          "indexed": true,
          "internalType": "address",
          "name": "user",
          "type": "address"
        },
        {
          "indexed": false,
          "internalType": "uint256",
          "name": "amount",
          "type": "uint256"
        }
      ],
      "name": "Deposit",
      "type": "event"
    },
    {
      "anonymous": false,
      "inputs": [
        {
          "indexed": true,
          "internalType": "address",
          "name": "user",
          "type": "address"
        },
        {
          "indexed": false,
          "internalType": "uint256",
          "name": "offeringAmount",
          "type": "uint256"
        },
        {
          "indexed": false,
          "internalType": "uint256",
          "name": "excessAmount",
          "type": "uint256"
        }
      ],
      "name": "Harvest",
      "type": "event"
    },
    {
      "anonymous": false,
      "inputs": [
        {
          "indexed": true,
          "internalType": "address",
          "name": "previousOwner",
          "type": "address"
        },
        {
          "indexed": true,
          "internalType": "address",
          "name": "newOwner",
          "type": "address"
        }
      ],
      "name": "OwnershipTransferred",
      "type": "event"
    },
    {
      "anonymous": false,
      "inputs": [
        {
          "indexed": false,
          "internalType": "address",
          "name": "account",
          "type": "address"
        }
      ],
      "name": "Paused",
      "type": "event"
    },
    {
      "anonymous": false,
      "inputs": [
        {
          "indexed": true,
          "internalType": "address",
          "name": "user",
          "type": "address"
        },
        {
          "indexed": false,
          "internalType": "uint256",
          "name": "amount",
          "type": "uint256"
        },
        {
          "indexed": false,
          "internalType": "uint256",
          "name": "fees",
          "type": "uint256"
        }
      ],
      "name": "Refund",
      "type": "event"
    },
    {
      "anonymous": false,
      "inputs": [
        {
          "indexed": false,
          "internalType": "address",
          "name": "account",
          "type": "address"
        }
      ],
      "name": "Unpaused",
      "type": "event"
    },
    {
      "stateMutability": "payable",
      "type": "fallback"
    },
    {
      "inputs": [],
      "name": "REFUND_FEE",
      "outputs": [
        {
          "internalType": "uint256",
          "name": "",
          "type": "uint256"
        }
      ],
      "stateMutability": "view",
      "type": "function"
    },
    {
      "inputs": [
        {
          "internalType": "uint256",
          "name": "",
          "type": "uint256"
        }
      ],
      "name": "addressList",
      "outputs": [
        {
          "internalType": "address",
          "name": "",
          "type": "address"
        }
      ],
      "stateMutability": "view",
      "type": "function"
    },
    {
      "inputs": [
        {
          "internalType": "uint256",
          "name": "_tier",
          "type": "uint256"
        }
      ],
      "name": "allocations",
      "outputs": [
        {
          "internalType": "uint256",
          "name": "",
          "type": "uint256"
        }
      ],
      "stateMutability": "view",
      "type": "function"
    },
    {
      "inputs": [],
      "name": "buyToken",
      "outputs": [
        {
          "internalType": "contract ERC20",
          "name": "",
          "type": "address"
        }
      ],
      "stateMutability": "view",
      "type": "function"
    },
    {
      "inputs": [
        {
          "internalType": "uint256",
          "name": "_amount",
          "type": "uint256"
        }
      ],
      "name": "deposit",
      "outputs": [],
      "stateMutability": "payable",
      "type": "function"
    },
    {
      "inputs": [
        {
          "internalType": "address",
          "name": "token",
          "type": "address"
        },
        {
          "internalType": "address payable",
          "name": "to",
          "type": "address"
        },
        {
          "internalType": "uint256",
          "name": "amount",
          "type": "uint256"
        }
      ],
      "name": "emergencyWithdraw",
      "outputs": [],
      "stateMutability": "nonpayable",
      "type": "function"
    },
    {
      "inputs": [],
      "name": "endTime",
      "outputs": [
        {
          "internalType": "uint256",
          "name": "",
          "type": "uint256"
        }
      ],
      "stateMutability": "view",
      "type": "function"
    },
    {
      "inputs": [
        {
          "internalType": "address",
          "name": "_destination",
          "type": "address"
        }
      ],
      "name": "finalWithdraw",
      "outputs": [],
      "stateMutability": "nonpayable",
      "type": "function"
    },
    {
      "inputs": [],
      "name": "finalWithdrawAmount",
      "outputs": [
        {
          "internalType": "uint256",
          "name": "",
          "type": "uint256"
        }
      ],
      "stateMutability": "view",
      "type": "function"
    },
    {
      "inputs": [],
      "name": "getAddressListLength",
      "outputs": [
        {
          "internalType": "uint256",
          "name": "",
          "type": "uint256"
        }
      ],
      "stateMutability": "view",
      "type": "function"
    },
    {
      "inputs": [
        {
          "internalType": "address",
          "name": "_account",
          "type": "address"
        }
      ],
      "name": "getAllocation",
      "outputs": [
        {
          "internalType": "uint256",
          "name": "",
          "type": "uint256"
        }
      ],
      "stateMutability": "view",
      "type": "function"
    },
    {
      "inputs": [
        {
          "internalType": "address",
          "name": "_account",
          "type": "address"
        }
      ],
      "name": "getAllocationPoint",
      "outputs": [
        {
          "internalType": "uint256",
          "name": "",
          "type": "uint256"
        }
      ],
      "stateMutability": "view",
      "type": "function"
    },
    {
      "inputs": [],
      "name": "getInfo",
      "outputs": [
        {
          "components": [
            {
              "internalType": "contract ERC20",
              "name": "token",
              "type": "address"
            },
            {
              "internalType": "uint256",
              "name": "decimals",
              "type": "uint256"
            },
            {
              "internalType": "string",
              "name": "name",
              "type": "string"
            },
            {
              "internalType": "string",
              "name": "symbol",
              "type": "string"
            }
          ],
          "internalType": "struct FundRaisingRefundable.TokenInfo",
          "name": "",
          "type": "tuple"
        },
        {
          "components": [
            {
              "internalType": "contract ERC20",
              "name": "token",
              "type": "address"
            },
            {
              "internalType": "uint256",
              "name": "decimals",
              "type": "uint256"
            },
            {
              "internalType": "string",
              "name": "name",
              "type": "string"
            },
            {
              "internalType": "string",
              "name": "symbol",
              "type": "string"
            }
          ],
          "internalType": "struct FundRaisingRefundable.TokenInfo",
          "name": "",
          "type": "tuple"
        },
        {
          "internalType": "uint256",
          "name": "",
          "type": "uint256"
        },
        {
          "internalType": "uint256",
          "name": "",
          "type": "uint256"
        },
        {
          "internalType": "uint256",
          "name": "",
          "type": "uint256"
        },
        {
          "internalType": "uint256",
          "name": "",
          "type": "uint256"
        },
        {
          "internalType": "uint256",
          "name": "",
          "type": "uint256"
        }
      ],
      "stateMutability": "view",
      "type": "function"
    },
    {
      "inputs": [
        {
          "internalType": "address",
          "name": "_user",
          "type": "address"
        }
      ],
      "name": "getOfferingAmount",
      "outputs": [
        {
          "internalType": "uint256",
          "name": "",
          "type": "uint256"
        }
      ],
      "stateMutability": "view",
      "type": "function"
    },
    {
      "inputs": [
        {
          "internalType": "address",
          "name": "_user",
          "type": "address"
        }
      ],
      "name": "getRefundingAmount",
      "outputs": [
        {
          "internalType": "uint256",
          "name": "",
          "type": "uint256"
        }
      ],
      "stateMutability": "view",
      "type": "function"
    },
    {
      "inputs": [
        {
          "internalType": "address",
          "name": "_account",
          "type": "address"
        }
      ],
      "name": "getTier",
      "outputs": [
        {
          "internalType": "uint256",
          "name": "",
          "type": "uint256"
        }
      ],
      "stateMutability": "view",
      "type": "function"
    },
    {
      "inputs": [
        {
          "internalType": "address",
          "name": "_user",
          "type": "address"
        }
      ],
      "name": "getUserAllocation",
      "outputs": [
        {
          "internalType": "uint256",
          "name": "",
          "type": "uint256"
        }
      ],
      "stateMutability": "view",
      "type": "function"
    },
    {
      "inputs": [],
      "name": "harvest",
      "outputs": [],
      "stateMutability": "nonpayable",
      "type": "function"
    },
    {
      "inputs": [],
      "name": "harvestTime",
      "outputs": [
        {
          "internalType": "uint256",
          "name": "",
          "type": "uint256"
        }
      ],
      "stateMutability": "view",
      "type": "function"
    },
    {
      "inputs": [
        {
          "internalType": "address",
          "name": "_user",
          "type": "address"
        }
      ],
      "name": "hasHarvest",
      "outputs": [
        {
          "internalType": "bool",
          "name": "",
          "type": "bool"
        }
      ],
      "stateMutability": "view",
      "type": "function"
    },
    {
      "inputs": [
        {
          "internalType": "uint256",
          "name": "_startTime",
          "type": "uint256"
        },
        {
          "internalType": "uint256",
          "name": "_endTime",
          "type": "uint256"
        },
        {
          "internalType": "uint256",
          "name": "_harvestTime",
          "type": "uint256"
        },
        {
          "internalType": "uint256",
          "name": "_refundStartTime",
          "type": "uint256"
        },
        {
          "internalType": "uint256",
          "name": "_refundEndTime",
          "type": "uint256"
        }
      ],
      "name": "initTime",
      "outputs": [],
      "stateMutability": "nonpayable",
      "type": "function"
    },
    {
      "inputs": [],
      "name": "multiplier",
      "outputs": [
        {
          "internalType": "uint256",
          "name": "",
          "type": "uint256"
        }
      ],
      "stateMutability": "view",
      "type": "function"
    },
    {
      "inputs": [],
      "name": "offeringAmount",
      "outputs": [
        {
          "internalType": "uint256",
          "name": "",
          "type": "uint256"
        }
      ],
      "stateMutability": "view",
      "type": "function"
    },
    {
      "inputs": [],
      "name": "offeringToken",
      "outputs": [
        {
          "internalType": "contract ERC20",
          "name": "",
          "type": "address"
        }
      ],
      "stateMutability": "view",
      "type": "function"
    },
    {
      "inputs": [],
      "name": "offeringTokenRefund",
      "outputs": [
        {
          "internalType": "uint256",
          "name": "",
          "type": "uint256"
        }
      ],
      "stateMutability": "view",
      "type": "function"
    },
    {
      "inputs": [],
      "name": "owner",
      "outputs": [
        {
          "internalType": "address",
          "name": "",
          "type": "address"
        }
      ],
      "stateMutability": "view",
      "type": "function"
    },
    {
      "inputs": [],
      "name": "pause",
      "outputs": [],
      "stateMutability": "nonpayable",
      "type": "function"
    },
    {
      "inputs": [],
      "name": "paused",
      "outputs": [
        {
          "internalType": "bool",
          "name": "",
          "type": "bool"
        }
      ],
      "stateMutability": "view",
      "type": "function"
    },
    {
      "inputs": [],
      "name": "raisingAmount",
      "outputs": [
        {
          "internalType": "uint256",
          "name": "",
          "type": "uint256"
        }
      ],
      "stateMutability": "view",
      "type": "function"
    },
    {
      "inputs": [],
      "name": "refund",
      "outputs": [],
      "stateMutability": "nonpayable",
      "type": "function"
    },
    {
      "inputs": [],
      "name": "refundEndTime",
      "outputs": [
        {
          "internalType": "uint256",
          "name": "",
          "type": "uint256"
        }
      ],
      "stateMutability": "view",
      "type": "function"
    },
    {
      "inputs": [],
      "name": "refundFees",
      "outputs": [
        {
          "internalType": "uint256",
          "name": "",
          "type": "uint256"
        }
      ],
      "stateMutability": "view",
      "type": "function"
    },
    {
      "inputs": [],
      "name": "refundStartTime",
      "outputs": [
        {
          "internalType": "uint256",
          "name": "",
          "type": "uint256"
        }
      ],
      "stateMutability": "view",
      "type": "function"
    },
    {
      "inputs": [],
      "name": "remainingToken",
      "outputs": [
        {
          "internalType": "uint256",
          "name": "",
          "type": "uint256"
        }
      ],
      "stateMutability": "view",
      "type": "function"
    },
    {
      "inputs": [],
      "name": "remainingTokenAfterRefund",
      "outputs": [
        {
          "internalType": "uint256",
          "name": "",
          "type": "uint256"
        }
      ],
      "stateMutability": "view",
      "type": "function"
    },
    {
      "inputs": [],
      "name": "renounceOwnership",
      "outputs": [],
      "stateMutability": "nonpayable",
      "type": "function"
    },
    {
      "inputs": [
        {
          "internalType": "uint256",
          "name": "mul",
          "type": "uint256"
        }
      ],
      "name": "setMultiplier",
      "outputs": [],
      "stateMutability": "nonpayable",
      "type": "function"
    },
    {
      "inputs": [
        {
          "internalType": "uint256",
          "name": "_offerAmount",
          "type": "uint256"
        }
      ],
      "name": "setOfferingAmount",
      "outputs": [],
      "stateMutability": "nonpayable",
      "type": "function"
    },
    {
      "inputs": [
        {
          "internalType": "uint256",
          "name": "_raisingAmount",
          "type": "uint256"
        }
      ],
      "name": "setRaisingAmount",
      "outputs": [],
      "stateMutability": "nonpayable",
      "type": "function"
    },
    {
      "inputs": [
        {
          "internalType": "uint256",
          "name": "id",
          "type": "uint256"
        }
      ],
      "name": "setSnapshotFrom",
      "outputs": [],
      "stateMutability": "nonpayable",
      "type": "function"
    },
    {
      "inputs": [
        {
          "internalType": "uint256",
          "name": "id",
          "type": "uint256"
        }
      ],
      "name": "setSnapshotTo",
      "outputs": [],
      "stateMutability": "nonpayable",
      "type": "function"
    },
    {
      "inputs": [],
      "name": "snapshotFrom",
      "outputs": [
        {
          "internalType": "uint256",
          "name": "",
          "type": "uint256"
        }
      ],
      "stateMutability": "view",
      "type": "function"
    },
    {
      "inputs": [],
      "name": "snapshotTo",
      "outputs": [
        {
          "internalType": "uint256",
          "name": "",
          "type": "uint256"
        }
      ],
      "stateMutability": "view",
      "type": "function"
    },
    {
      "inputs": [],
      "name": "soldTokenAmount",
      "outputs": [
        {
          "internalType": "uint256",
          "name": "",
          "type": "uint256"
        }
      ],
      "stateMutability": "view",
      "type": "function"
    },
    {
      "inputs": [],
      "name": "soldTokenAmountAferRefund",
      "outputs": [
        {
          "internalType": "uint256",
          "name": "",
          "type": "uint256"
        }
      ],
      "stateMutability": "view",
      "type": "function"
    },
    {
      "inputs": [],
      "name": "startTime",
      "outputs": [
        {
          "internalType": "uint256",
          "name": "",
          "type": "uint256"
        }
      ],
      "stateMutability": "view",
      "type": "function"
    },
    {
      "inputs": [],
      "name": "tierSystem",
      "outputs": [
        {
          "internalType": "contract ITierSystem",
          "name": "",
          "type": "address"
        }
      ],
      "stateMutability": "view",
      "type": "function"
    },
    {
      "inputs": [],
      "name": "totalAmount",
      "outputs": [
        {
          "internalType": "uint256",
          "name": "",
          "type": "uint256"
        }
      ],
      "stateMutability": "view",
      "type": "function"
    },
    {
      "inputs": [],
      "name": "totalRefund",
      "outputs": [
        {
          "internalType": "uint256",
          "name": "",
          "type": "uint256"
        }
      ],
      "stateMutability": "view",
      "type": "function"
    },
    {
      "inputs": [
        {
          "internalType": "address",
          "name": "newOwner",
          "type": "address"
        }
      ],
      "name": "transferOwnership",
      "outputs": [],
      "stateMutability": "nonpayable",
      "type": "function"
    },
    {
      "inputs": [],
      "name": "unpause",
      "outputs": [],
      "stateMutability": "nonpayable",
      "type": "function"
    },
    {
      "inputs": [
        {
          "internalType": "uint256",
          "name": "_newTime",
          "type": "uint256"
        }
      ],
      "name": "updateEndTime",
      "outputs": [],
      "stateMutability": "nonpayable",
      "type": "function"
    },
    {
      "inputs": [
        {
          "internalType": "uint256",
          "name": "_newTime",
          "type": "uint256"
        }
      ],
      "name": "updateHarvestTime",
      "outputs": [],
      "stateMutability": "nonpayable",
      "type": "function"
    },
    {
      "inputs": [
        {
          "internalType": "address",
          "name": "_newToken",
          "type": "address"
        }
      ],
      "name": "updateOfferingToken",
      "outputs": [],
      "stateMutability": "nonpayable",
      "type": "function"
    },
    {
      "inputs": [
        {
          "internalType": "uint256",
          "name": "_refundEndTime",
          "type": "uint256"
        }
      ],
      "name": "updateRefundEndTime",
      "outputs": [],
      "stateMutability": "nonpayable",
      "type": "function"
    },
    {
      "inputs": [
        {
          "internalType": "uint256",
          "name": "_refundStartTime",
          "type": "uint256"
        }
      ],
      "name": "updateRefundStartTime",
      "outputs": [],
      "stateMutability": "nonpayable",
      "type": "function"
    },
    {
      "inputs": [
        {
          "internalType": "address",
          "name": "",
          "type": "address"
        }
      ],
      "name": "userInfo",
      "outputs": [
        {
          "internalType": "uint256",
          "name": "amount",
          "type": "uint256"
        },
        {
          "internalType": "bool",
          "name": "claimed",
          "type": "bool"
        },
        {
          "internalType": "bool",
          "name": "refunded",
          "type": "bool"
        }
      ],
      "stateMutability": "view",
      "type": "function"
    }
  ],
  "bytecode": "0x60806040526101f46012553480156200001757600080fd5b5060405162002c7038038062002c708339810160408190526200003a9162000105565b60016000556200004a33620000b3565b6001805460ff60a01b19169055600280546001600160a01b03199081166001600160a01b039a8b1617909155600380548216988a1698909817909755600a95909555600993909355600e80549095169190951617909255600f92909255601055601155620001a1565b600180546001600160a01b038381166001600160a01b0319831681179093556040519116919082907f8be0079c531659141344cd1fd0a4f28419497f9722a3daafe3b4186f6b6457e090600090a35050565b600080600080600080600080610100898b03121562000122578384fd5b88516200012f8162000188565b60208a0151909850620001428162000188565b8097505060408901519550606089015194506080890151620001648162000188565b60a08a015160c08b015160e0909b0151999c989b5096999598909790945092505050565b6001600160a01b03811681146200019e57600080fd5b50565b612abf80620001b16000396000f3fe6080604052600436106103495760003560e01c8063715018a6116101b9578063b6b55f25116100f6578063d995c9291161009a578063f2fde38b1161006c578063f2fde38b14610975578063f480821014610995578063f8caa7e5146109ab578063fc00358e146109cb57005b8063d995c9291461090a578063e1af9a951461091f578063e63ea40814610935578063eadbd7881461095557005b8063b920ade2116100d3578063b920ade214610894578063c2c9721b146108b4578063c3b5e900146108d4578063d16bba94146108ea57005b8063b6b55f2514610841578063b781360714610854578063b810fb431461087457005b80638ed762871161015d578063a48217191161013a578063a4821719146107cc578063a55c1f4e146107ec578063ac3ff91214610801578063b45aae521461082157005b80638ed762871461078c5780639c0a7669146107a1578063a42ee206146107b757005b806378e979251161019657806378e979251461070f5780638456cb591461072557806387e97bc61461073a5780638da5cb5b1461075a57005b8063715018a6146106c457806373fddd16146106d957806376ea6ee0146106ef57005b80633f4ba83a116102875780636036057a1161022b5780636a2ce513116102085780636a2ce5131461064e5780636ab3846b1461066e5780636aba899b1461068e57806371394f51146106a457005b80636036057a146105d2578063641579a6146105f257806364ce9fff1461061257005b806347bfbab01161026457806347bfbab014610555578063590e1ae31461056a5780635a9b0b891461057f5780635c975abb146105a757005b80633f4ba83a1461050b5780634225c32f146105205780634641257d1461054057005b806322b33175116102ee5780632f5105f8116102cb5780632f5105f81461049f5780633197cbb6146104bf578063343e31f5146104d55780633a5cfcc0146104eb57005b806322b331751461045357806327d1b1a2146104695780632b1dd8da1461048957005b80631959a002116103275780631959a002146103b45780631a39d8ef146104115780631b3ed7221461042757806320af09ab1461043d57005b806301541fe31461034b5780630a2642bf146103745780630e02292314610394575b005b34801561035757600080fd5b5061036160145481565b6040519081526020015b60405180910390f35b34801561038057600080fd5b5061036161038f366004612673565b6109e0565b3480156103a057600080fd5b506103616103af366004612559565b610b56565b3480156103c057600080fd5b506103f46103cf366004612559565b600c602052600090815260409020805460019091015460ff8082169161010090041683565b60408051938452911515602084015215159082015260600161036b565b34801561041d57600080fd5b50610361600b5481565b34801561043357600080fd5b5061036160115481565b34801561044957600080fd5b5061036160125481565b34801561045f57600080fd5b5061036160105481565b34801561047557600080fd5b50610349610484366004612673565b610bfc565b34801561049557600080fd5b5061036160135481565b3480156104ab57600080fd5b506103616104ba366004612559565b610c33565b3480156104cb57600080fd5b5061036160055481565b3480156104e157600080fd5b50610361600f5481565b3480156104f757600080fd5b506103496105063660046126a3565b610cb4565b34801561051757600080fd5b50610349610d5f565b34801561052c57600080fd5b5061034961053b366004612673565b610d71565b34801561054c57600080fd5b50610349610d9f565b34801561056157600080fd5b50610361611008565b34801561057657600080fd5b5061034961104f565b34801561058b57600080fd5b50610594611322565b60405161036b9796959493929190612870565b3480156105b357600080fd5b50600154600160a01b900460ff165b604051901515815260200161036b565b3480156105de57600080fd5b506103496105ed366004612673565b61141a565b3480156105fe57600080fd5b5061034961060d366004612673565b611453565b34801561061e57600080fd5b506105c261062d366004612559565b6001600160a01b03166000908152600c602052604090206001015460ff1690565b34801561065a57600080fd5b50610361610669366004612559565b611460565b34801561067a57600080fd5b50610349610689366004612673565b611579565b34801561069a57600080fd5b5061036160075481565b3480156106b057600080fd5b506103496106bf366004612673565b6115b2565b3480156106d057600080fd5b506103496115eb565b3480156106e557600080fd5b5061036160085481565b3480156106fb57600080fd5b5061034961070a366004612673565b6115fd565b34801561071b57600080fd5b5061036160045481565b34801561073157600080fd5b50610349611636565b34801561074657600080fd5b50610361610755366004612559565b611646565b34801561076657600080fd5b506001546001600160a01b03165b6040516001600160a01b03909116815260200161036b565b34801561079857600080fd5b506103616116b6565b3480156107ad57600080fd5b5061036160095481565b3480156107c357600080fd5b506103616116d7565b3480156107d857600080fd5b50600254610774906001600160a01b031681565b3480156107f857600080fd5b50610361611729565b34801561080d57600080fd5b5061034961081c366004612559565b611734565b34801561082d57600080fd5b5061036161083c366004612559565b6117d1565b61034961084f366004612673565b61185a565b34801561086057600080fd5b50600354610774906001600160a01b031681565b34801561088057600080fd5b5061077461088f366004612673565b611b2c565b3480156108a057600080fd5b506103616108af366004612559565b611b56565b3480156108c057600080fd5b506103496108cf366004612673565b611b8a565b3480156108e057600080fd5b5061036160155481565b3480156108f657600080fd5b50610349610905366004612673565b611bd4565b34801561091657600080fd5b50610361611c1e565b34801561092b57600080fd5b50610361600a5481565b34801561094157600080fd5b50610349610950366004612575565b611c76565b34801561096157600080fd5b50610349610970366004612559565b611ce1565b34801561098157600080fd5b50610349610990366004612559565b611d31565b3480156109a157600080fd5b5061036160065481565b3480156109b757600080fd5b50600e54610774906001600160a01b031681565b3480156109d757600080fd5b50600d54610361565b600e5460405163bbc3f7cf60e01b81526004810183905260009182916001600160a01b039091169063bbc3f7cf9060240160206040518083038186803b158015610a2957600080fd5b505afa158015610a3d573d6000803e3d6000fd5b505050506040513d601f19601f82011682018060405250810190610a61919061268b565b6002549091506001600160a01b0316610aae57610aa7612710610aa1670de0b6b3a7640000610a9b60115486611daa90919063ffffffff16565b90611daa565b90611db6565b9392505050565b610aa7612710610aa1600260009054906101000a90046001600160a01b03166001600160a01b031663313ce5676040518163ffffffff1660e01b815260040160206040518083038186803b158015610b0557600080fd5b505afa158015610b19573d6000803e3d6000fd5b505050506040513d601f19601f82011682018060405250810190610b3d91906126dd565b610b4890600a61293b565b601154610a9b908690611daa565b600e54600f54601054604051636002de6760e01b815260009384936001600160a01b0390911692636002de6792610b939288929091600401612799565b60206040518083038186803b158015610bab57600080fd5b505afa158015610bbf573d6000803e3d6000fd5b505050506040513d601f19601f82011682018060405250810190610be3919061268b565b905080610bf35750600092915050565b610aa7816109e0565b610c04611dc2565b6004544210610c2e5760405162461bcd60e51b8152600401610c25906127f5565b60405180910390fd5b600a55565b6000600954600b5411610c4857506000919050565b6000610c5383611b56565b90506000610c78670de0b6b3a7640000610aa184600954611daa90919063ffffffff16565b6001600160a01b0385166000908152600c6020526040902054909150610cac9061271090610ca69084611e1c565b90611e1c565b949350505050565b610cbc611dc2565b60165460ff1615610d015760405162461bcd60e51b815260206004820152600f60248201526e1a185cc81a5b9a5d1a585b1a5e9959608a1b6044820152606401610c25565b838310158015610d1057508484115b8015610d1b57504285115b8015610d275750838210155b8015610d3257508082105b610d3b57600080fd5b6004949094556005929092556006556007556008556016805460ff19166001179055565b610d67611dc2565b610d6f611e28565b565b610d79611dc2565b6004544210610d9a5760405162461bcd60e51b8152600401610c25906127f5565b600955565b60026000541415610dc25760405162461bcd60e51b8152600401610c2590612839565b600260005560165460ff16610de95760405162461bcd60e51b8152600401610c2590612811565b6006544211610e2d5760405162461bcd60e51b815260206004820152601060248201526f6e6f7420686172766573742074696d6560801b6044820152606401610c25565b336000908152600c6020526040902054610e825760405162461bcd60e51b81526020600482015260166024820152756861766520796f75207061727469636970617465643f60501b6044820152606401610c25565b336000908152600c602052604090206001015460ff1615610eda5760405162461bcd60e51b81526020600482015260126024820152711b9bdd1a1a5b99c81d1bc81a185c9d995cdd60721b6044820152606401610c25565b336000908152600c6020526040902060010154610100900460ff1615610f305760405162461bcd60e51b815260206004820152600b60248201526a1a185cc81c99599d5b995960aa1b6044820152606401610c25565b610f38611e7d565b6000610f4333611646565b90506000610f5033610c33565b600354909150610f6a906001600160a01b03163384611eca565b8015610fa6576002546001600160a01b0316610f8f57610f8a3382611f2d565b610fa6565b600254610fa6906001600160a01b03163383611eca565b336000818152600c60209081526040918290206001908101805460ff1916909117905581518581529081018490527f71bab65ced2e5750775a0613be067df48ef06cf92a496ebf7663ae0660924954910160405180910390a250506001600055565b6000600b546000141561101b5750600090565b600954600b541061102d5750600a5490565b61104a600954610aa1600b54600a54611daa90919063ffffffff16565b905090565b600260005414156110725760405162461bcd60e51b8152600401610c2590612839565b600260005561107f611e7d565b60165460ff166110a15760405162461bcd60e51b8152600401610c2590612811565b600754421180156110b457506008544211155b6110f25760405162461bcd60e51b815260206004820152600f60248201526e6e6f7420726566756e642074696d6560881b6044820152606401610c25565b336000908152600c60205260409020546111475760405162461bcd60e51b81526020600482015260166024820152756861766520796f75207061727469636970617465643f60501b6044820152606401610c25565b336000908152600c602052604090206001015460ff161561119a5760405162461bcd60e51b815260206004820152600d60248201526c1a185cc81a185c9d995cdd1959609a1b6044820152606401610c25565b336000908152600c6020526040902060010154610100900460ff16156111f05760405162461bcd60e51b815260206004820152600b60248201526a1a185cc81c99599d5b995960aa1b6044820152606401610c25565b336000818152600c60205260408120549161120a90610c33565b9050600061121733611646565b905060006112258484611e1c565b90506000611244612710610aa160125485611daa90919063ffffffff16565b905060006112528287612a05565b6002549091506001600160a01b03166112745761126f3382611f2d565b61128b565b60025461128b906001600160a01b03163383611eca565b336000908152600c60205260409020600101805461ff0019166101001790556013546112b79083611ff6565b6013556014546112c79082611ff6565b6014556015546112d79085611ff6565b601555604080518281526020810184905233917f73f04af9dcc582a923ec15d3eea990fe34adabfff2879e28d44572e01a54abb6910160405180910390a25050600160005550505050565b61132a612528565b611332612528565b6000806000806000611342612528565b6002546001600160a01b03166113c357604051806080016040528060006001600160a01b03168152602001601281526020016040518060400160405280600b81526020016a25b0b93234b0a1b430b4b760a91b8152508152602001604051806040016040528060038152602001624b414960e81b81525081525090506113db565b6002546113d8906001600160a01b0316612002565b90505b6003546000906113f3906001600160a01b0316612002565b600454600554600654600a54600954969e949d50929b509099509750955091935090915050565b611422611dc2565b4281118015611432575060055481115b61144e5760405162461bcd60e51b8152600401610c25906127cd565b600755565b61145b611dc2565b601155565b600e54600f54601054604051636002de6760e01b815260009384936001600160a01b0390911692636002de679261149d9288929091600401612799565b60206040518083038186803b1580156114b557600080fd5b505afa1580156114c9573d6000803e3d6000fd5b505050506040513d601f19601f820116820180604052508101906114ed919061268b565b9050806114fd5750600092915050565b600e5460405163bbc3f7cf60e01b8152600481018390526001600160a01b039091169063bbc3f7cf9060240160206040518083038186803b15801561154157600080fd5b505afa158015611555573d6000803e3d6000fd5b505050506040513d601f19601f82011682018060405250810190610aa7919061268b565b611581611dc2565b4281118015611591575060065481105b6115ad5760405162461bcd60e51b8152600401610c25906127cd565b600555565b6115ba611dc2565b42811180156115ca575060075481115b6115e65760405162461bcd60e51b8152600401610c25906127cd565b600855565b6115f3611dc2565b610d6f6000612194565b611605611dc2565b4281118015611615575060055481115b6116315760405162461bcd60e51b8152600401610c25906127cd565b600655565b61163e611dc2565b610d6f6121e6565b6000600954600b54111561168257600061165f83611b56565b9050610aa7670de0b6b3a7640000610aa183600a54611daa90919063ffffffff16565b600954600a546001600160a01b0384166000908152600c60205260409020546116b09291610aa19190611daa565b92915050565b6000806116c1611008565b600a549091506116d19082611e1c565b91505090565b6000600954600b5411156117195760006116ef611c1e565b905060135461170f600a54610aa160095485611daa90919063ffffffff16565b6116d191906128c0565b601454600b5461104a9190612a05565b6000806116c1611c1e565b61173c611dc2565b4260055410801561174e575042600854105b61178f5760405162461bcd60e51b81526020600482015260126024820152711d1a5b59481a185cc81b9bdd08195b99195960721b6044820152606401610c25565b60006117996116d7565b6002549091506001600160a01b03166117ba576117b68282611f2d565b5050565b6002546117b6906001600160a01b03168383611eca565b600e54600f54601054604051636002de6760e01b81526000936001600160a01b031692636002de679261180a9287929190600401612799565b60206040518083038186803b15801561182257600080fd5b505afa158015611836573d6000803e3d6000fd5b505050506040513d601f19601f820116820180604052508101906116b0919061268b565b6002600054141561187d5760405162461bcd60e51b8152600401610c2590612839565b6002600055601654819060ff166118a65760405162461bcd60e51b8152600401610c2590612811565b600454421180156118b8575060055442105b6118f75760405162461bcd60e51b815260206004820152601060248201526f6e6f742072616973696e672074696d6560801b6044820152606401610c25565b6000811161193a5760405162461bcd60e51b815260206004820152601060248201526f06e656564205f616d6f756e74203e20360841b6044820152606401610c25565b611942611e7d565b600061194d33612229565b336000908152600c602052604090205490915081116119a65760405162461bcd60e51b81526020600482015260156024820152746e6f7420656c696769626c6520616d6f756e74212160581b6044820152606401610c25565b336000908152600c60205260408120546119c09083612a05565b905083808210156119ce5750805b6002546001600160a01b0316611a425780341015611a225760405162461bcd60e51b81526020600482015260116024820152700c2dadeeadce840dcdee840cadcdeeaced607b1b6044820152606401610c25565b80341115611a3d57611a3d33611a388334612a05565b611f2d565b611a5a565b600254611a5a906001600160a01b03163330846122ba565b336000908152600c6020526040902054611ab157600d80546001810182556000919091527fd7b6990105719101dabeb77144f2a3385c8033acd3af97e9423a695e81ad1eb50180546001600160a01b031916331790555b336000908152600c6020526040902054611acb9082611ff6565b336000908152600c6020526040902055600b54611ae89082611ff6565b600b5560405181815233907fe1fffcc4923d04b559f4d29a8bfc6cda04eb5b0d3c460751c2402c5c5cc9109c9060200160405180910390a250506001600055505050565b600d8181548110611b3c57600080fd5b6000918252602090912001546001600160a01b0316905081565b600b546001600160a01b0382166000908152600c602052604081205490916116b091610aa190670de0b6b3a7640000611daa565b611b92611dc2565b60008111611bcf5760405162461bcd60e51b815260206004820152600a6024820152691259081a5b9d985b1a5960b21b6044820152606401610c25565b601055565b611bdc611dc2565b60008111611c195760405162461bcd60e51b815260206004820152600a6024820152691259081a5b9d985b1a5960b21b6044820152606401610c25565b600f55565b6000600b5460001415611c315750600090565b600954600b5410611c4c57601554600a5461104a9190612a05565b601554611c6c600954610aa1600b54600a54611daa90919063ffffffff16565b61104a9190612a05565b611c7e611dc2565b6001600160a01b038316611cc8576040516001600160a01b0383169082156108fc029083906000818181858888f19350505050158015611cc2573d6000803e3d6000fd5b50505050565b611cdc6001600160a01b0384168383611eca565b505050565b611ce9611dc2565b6001600160a01b038116611d0f5760405162461bcd60e51b8152600401610c25906127f5565b600380546001600160a01b0319166001600160a01b0392909216919091179055565b611d39611dc2565b6001600160a01b038116611d9e5760405162461bcd60e51b815260206004820152602660248201527f4f776e61626c653a206e6577206f776e657220697320746865207a65726f206160448201526564647265737360d01b6064820152608401610c25565b611da781612194565b50565b6000610aa782846129e6565b6000610aa782846128d8565b6001546001600160a01b03163314610d6f5760405162461bcd60e51b815260206004820181905260248201527f4f776e61626c653a2063616c6c6572206973206e6f7420746865206f776e65726044820152606401610c25565b6000610aa78284612a05565b611e306122f2565b6001805460ff60a01b191690557f5db9ee0a495bf2e6ff9c91a7834c1ba4fdd244a5e8aa4e537bd38aeae4b073aa335b6040516001600160a01b03909116815260200160405180910390a1565b600154600160a01b900460ff1615610d6f5760405162461bcd60e51b815260206004820152601060248201526f14185d5cd8589b194e881c185d5cd95960821b6044820152606401610c25565b6040516001600160a01b038316602482015260448101829052611cdc90849063a9059cbb60e01b906064015b60408051601f198184030181529190526020810180516001600160e01b03166001600160e01b031990931692909217909152612342565b604080516000808252602082019092526001600160a01b038416908390604051611f57919061277d565b60006040518083038185875af1925050503d8060008114611f94576040519150601f19603f3d011682016040523d82523d6000602084013e611f99565b606091505b5050905080611cdc5760405162461bcd60e51b815260206004820152602360248201527f5472616e7366657248656c7065723a204b41495f5452414e534645525f46414960448201526213115160ea1b6064820152608401610c25565b6000610aa782846128c0565b61200a612528565b6040518060800160405280836001600160a01b03168152602001836001600160a01b031663313ce5676040518163ffffffff1660e01b815260040160206040518083038186803b15801561205d57600080fd5b505afa158015612071573d6000803e3d6000fd5b505050506040513d601f19601f8201168201806040525081019061209591906126dd565b60ff168152602001836001600160a01b03166306fdde036040518163ffffffff1660e01b815260040160006040518083038186803b1580156120d657600080fd5b505afa1580156120ea573d6000803e3d6000fd5b505050506040513d6000823e601f3d908101601f1916820160405261211291908101906125d5565b8152602001836001600160a01b03166395d89b416040518163ffffffff1660e01b815260040160006040518083038186803b15801561215057600080fd5b505afa158015612164573d6000803e3d6000fd5b505050506040513d6000823e601f3d908101601f1916820160405261218c91908101906125d5565b905292915050565b600180546001600160a01b038381166001600160a01b0319831681179093556040519116919082907f8be0079c531659141344cd1fd0a4f28419497f9722a3daafe3b4186f6b6457e090600090a35050565b6121ee611e7d565b6001805460ff60a01b1916600160a01b1790557f62e78cea01bee320cd4e420270b5ea74000d11b0c9f74754ebdbfc544b05a258611e603390565b600080600f5411801561223f5750600f54601054115b6122815760405162461bcd60e51b815260206004820152601360248201527214db985c1cda1bdd081a59081b9bdd081cd95d606a1b6044820152606401610c25565b600e54600f54601054604051636002de6760e01b81526000936001600160a01b031692636002de6792610b939288929190600401612799565b6040516001600160a01b0380851660248301528316604482015260648101829052611cc29085906323b872dd60e01b90608401611ef6565b600154600160a01b900460ff16610d6f5760405162461bcd60e51b815260206004820152601460248201527314185d5cd8589b194e881b9bdd081c185d5cd95960621b6044820152606401610c25565b6000612397826040518060400160405280602081526020017f5361666545524332303a206c6f772d6c6576656c2063616c6c206661696c6564815250856001600160a01b03166124149092919063ffffffff16565b805190915015611cdc57808060200190518101906123b591906125b5565b611cdc5760405162461bcd60e51b815260206004820152602a60248201527f5361666545524332303a204552433230206f7065726174696f6e20646964206e6044820152691bdd081cdd58d8d9595960b21b6064820152608401610c25565b6060610cac8484600085856001600160a01b0385163b6124765760405162461bcd60e51b815260206004820152601d60248201527f416464726573733a2063616c6c20746f206e6f6e2d636f6e74726163740000006044820152606401610c25565b600080866001600160a01b03168587604051612492919061277d565b60006040518083038185875af1925050503d80600081146124cf576040519150601f19603f3d011682016040523d82523d6000602084013e6124d4565b606091505b50915091506124e48282866124ef565b979650505050505050565b606083156124fe575081610aa7565b82511561250e5782518084602001fd5b8160405162461bcd60e51b8152600401610c2591906127ba565b604051806080016040528060006001600160a01b031681526020016000815260200160608152602001606081525090565b60006020828403121561256a578081fd5b8135610aa781612a74565b600080600060608486031215612589578182fd5b833561259481612a74565b925060208401356125a481612a74565b929592945050506040919091013590565b6000602082840312156125c6578081fd5b81518015158114610aa7578182fd5b6000602082840312156125e6578081fd5b815167ffffffffffffffff808211156125fd578283fd5b818401915084601f830112612610578283fd5b81518181111561262257612622612a5e565b604051601f8201601f19908116603f0116810190838211818310171561264a5761264a612a5e565b81604052828152876020848701011115612662578586fd5b6124e4836020830160208801612a1c565b600060208284031215612684578081fd5b5035919050565b60006020828403121561269c578081fd5b5051919050565b600080600080600060a086880312156126ba578081fd5b505083359560208501359550604085013594606081013594506080013592509050565b6000602082840312156126ee578081fd5b815160ff81168114610aa7578182fd5b60008151808452612716816020860160208601612a1c565b601f01601f19169290920160200192915050565b60018060a01b03815116825260208101516020830152600060408201516080604085015261275b60808501826126fe565b90506060830151848203606086015261277482826126fe565b95945050505050565b6000825161278f818460208701612a1c565b9190910192915050565b6001600160a01b039390931683526020830191909152604082015260600190565b602081526000610aa760208301846126fe565b6020808252600e908201526d74696d6520696e76616c6964212160901b604082015260600190565b6020808252600290820152616e6f60f01b604082015260600190565b6020808252600e908201526d6861736e277420616c726561647960901b604082015260600190565b6020808252601f908201527f5265656e7472616e637947756172643a207265656e7472616e742063616c6c00604082015260600190565b60e08152600061288360e083018a61272a565b8281036020840152612895818a61272a565b604084019890985250506060810194909452608084019290925260a083015260c09091015292915050565b600082198211156128d3576128d3612a48565b500190565b6000826128f357634e487b7160e01b81526012600452602481fd5b500490565b600181815b8085111561293357816000190482111561291957612919612a48565b8085161561292657918102915b93841c93908002906128fd565b509250929050565b6000610aa760ff841683600082612954575060016116b0565b81612961575060006116b0565b816001811461297757600281146129815761299d565b60019150506116b0565b60ff84111561299257612992612a48565b50506001821b6116b0565b5060208310610133831016604e8410600b84101617156129c0575081810a6116b0565b6129ca83836128f8565b80600019048211156129de576129de612a48565b029392505050565b6000816000190483118215151615612a0057612a00612a48565b500290565b600082821015612a1757612a17612a48565b500390565b60005b83811015612a37578181015183820152602001612a1f565b83811115611cc25750506000910152565b634e487b7160e01b600052601160045260246000fd5b634e487b7160e01b600052604160045260246000fd5b6001600160a01b0381168114611da757600080fdfea26469706673582212202ef728ebd5d79712db923a32f0baa792450fcac12d9b9913daf562bf3b25d1df64736f6c63430008040033",
  "linkReferences": {},
  "deployedLinkReferences": {}
}