{
  "_format": "hh-sol-artifact-1",
  "contractName": "IDOVesting",
  "sourceName": "contracts/launchpad/vesting/IDOVesting.sol",
  "abi": [
    {
      "inputs": [
        {
          "internalType": "contract ERC20",
          "name": "_buyToken",
          "type": "address"
        },
        {
          "internalType": "contract ERC20",
          "name": "_offeringToken",
          "type": "address"
        },
        {
          "internalType": "uint256",
          "name": "_startTime",
          "type": "uint256"
        },
        {
          "internalType": "uint256",
          "name": "_endTime",
          "type": "uint256"
        },
        {
          "internalType": "uint256",
          "name": "_harvestTime",
          "type": "uint256"
        },
        {
          "internalType": "uint256",
          "name": "_offeringAmount",
          "type": "uint256"
        },
        {
          "internalType": "uint256",
          "name": "_raisingAmount",
          "type": "uint256"
        },
        {
          "internalType": "contract ITierSystem",
          "name": "_tierSystem",
          "type": "address"
        },
        {
          "internalType": "uint256",
          "name": "_snapshotFrom",
          "type": "uint256"
        },
        {
          "internalType": "uint256",
          "name": "_snapshotTo",
          "type": "uint256"
        },
        {
          "internalType": "uint256",
          "name": "_multiplier",
          "type": "uint256"
        }
      ],
      "stateMutability": "nonpayable",
      "type": "constructor"
    },
    {
      "anonymous": false,
      "inputs": [
        {
          "indexed": true,
          "internalType": "address",
          "name": "user",
          "type": "address"
        },
        {
          "indexed": false,
          "internalType": "uint256",
          "name": "amount",
          "type": "uint256"
        }
      ],
      "name": "Deposit",
      "type": "event"
    },
    {
      "anonymous": false,
      "inputs": [
        {
          "indexed": true,
          "internalType": "address",
          "name": "user",
          "type": "address"
        },
        {
          "indexed": false,
          "internalType": "uint256",
          "name": "offeringAmount",
          "type": "uint256"
        },
        {
          "indexed": false,
          "internalType": "uint256",
          "name": "excessAmount",
          "type": "uint256"
        },
        {
          "indexed": false,
          "internalType": "uint256",
          "name": "vestingSchedule",
          "type": "uint256"
        }
      ],
      "name": "Harvest",
      "type": "event"
    },
    {
      "anonymous": false,
      "inputs": [
        {
          "indexed": true,
          "internalType": "address",
          "name": "previousOwner",
          "type": "address"
        },
        {
          "indexed": true,
          "internalType": "address",
          "name": "newOwner",
          "type": "address"
        }
      ],
      "name": "OwnershipTransferred",
      "type": "event"
    },
    {
      "anonymous": false,
      "inputs": [
        {
          "indexed": false,
          "internalType": "address",
          "name": "account",
          "type": "address"
        }
      ],
      "name": "Paused",
      "type": "event"
    },
    {
      "anonymous": false,
      "inputs": [
        {
          "indexed": false,
          "internalType": "address",
          "name": "account",
          "type": "address"
        }
      ],
      "name": "Unpaused",
      "type": "event"
    },
    {
      "stateMutability": "payable",
      "type": "fallback"
    },
    {
      "inputs": [
        {
          "internalType": "uint256",
          "name": "",
          "type": "uint256"
        }
      ],
      "name": "addressList",
      "outputs": [
        {
          "internalType": "address",
          "name": "",
          "type": "address"
        }
      ],
      "stateMutability": "view",
      "type": "function"
    },
    {
      "inputs": [
        {
          "internalType": "uint256",
          "name": "_tier",
          "type": "uint256"
        }
      ],
      "name": "allocations",
      "outputs": [
        {
          "internalType": "uint256",
          "name": "",
          "type": "uint256"
        }
      ],
      "stateMutability": "view",
      "type": "function"
    },
    {
      "inputs": [],
      "name": "buyToken",
      "outputs": [
        {
          "internalType": "contract ERC20",
          "name": "",
          "type": "address"
        }
      ],
      "stateMutability": "view",
      "type": "function"
    },
    {
      "inputs": [
        {
          "internalType": "uint256",
          "name": "_amount",
          "type": "uint256"
        }
      ],
      "name": "deposit",
      "outputs": [],
      "stateMutability": "payable",
      "type": "function"
    },
    {
      "inputs": [
        {
          "internalType": "address",
          "name": "token",
          "type": "address"
        },
        {
          "internalType": "address payable",
          "name": "to",
          "type": "address"
        }
      ],
      "name": "emergencyWithdraw",
      "outputs": [],
      "stateMutability": "nonpayable",
      "type": "function"
    },
    {
      "inputs": [],
      "name": "endTime",
      "outputs": [
        {
          "internalType": "uint256",
          "name": "",
          "type": "uint256"
        }
      ],
      "stateMutability": "view",
      "type": "function"
    },
    {
      "inputs": [
        {
          "internalType": "address",
          "name": "_destination",
          "type": "address"
        }
      ],
      "name": "finalWithdraw",
      "outputs": [],
      "stateMutability": "nonpayable",
      "type": "function"
    },
    {
      "inputs": [],
      "name": "getAddressListLength",
      "outputs": [
        {
          "internalType": "uint256",
          "name": "",
          "type": "uint256"
        }
      ],
      "stateMutability": "view",
      "type": "function"
    },
    {
      "inputs": [
        {
          "internalType": "address",
          "name": "_account",
          "type": "address"
        }
      ],
      "name": "getAllocation",
      "outputs": [
        {
          "internalType": "uint256",
          "name": "",
          "type": "uint256"
        }
      ],
      "stateMutability": "view",
      "type": "function"
    },
    {
      "inputs": [
        {
          "internalType": "address",
          "name": "_account",
          "type": "address"
        }
      ],
      "name": "getAllocationPoint",
      "outputs": [
        {
          "internalType": "uint256",
          "name": "",
          "type": "uint256"
        }
      ],
      "stateMutability": "view",
      "type": "function"
    },
    {
      "inputs": [],
      "name": "getCurrentValidVestingSchedule",
      "outputs": [
        {
          "internalType": "uint256",
          "name": "id",
          "type": "uint256"
        }
      ],
      "stateMutability": "view",
      "type": "function"
    },
    {
      "inputs": [],
      "name": "getInfo",
      "outputs": [
        {
          "components": [
            {
              "internalType": "contract ERC20",
              "name": "token",
              "type": "address"
            },
            {
              "internalType": "uint256",
              "name": "decimals",
              "type": "uint256"
            },
            {
              "internalType": "string",
              "name": "name",
              "type": "string"
            },
            {
              "internalType": "string",
              "name": "symbol",
              "type": "string"
            }
          ],
          "internalType": "struct IDOVesting.TokenInfo",
          "name": "",
          "type": "tuple"
        },
        {
          "components": [
            {
              "internalType": "contract ERC20",
              "name": "token",
              "type": "address"
            },
            {
              "internalType": "uint256",
              "name": "decimals",
              "type": "uint256"
            },
            {
              "internalType": "string",
              "name": "name",
              "type": "string"
            },
            {
              "internalType": "string",
              "name": "symbol",
              "type": "string"
            }
          ],
          "internalType": "struct IDOVesting.TokenInfo",
          "name": "",
          "type": "tuple"
        },
        {
          "internalType": "uint256",
          "name": "",
          "type": "uint256"
        },
        {
          "internalType": "uint256",
          "name": "",
          "type": "uint256"
        },
        {
          "internalType": "uint256",
          "name": "",
          "type": "uint256"
        },
        {
          "internalType": "uint256",
          "name": "",
          "type": "uint256"
        },
        {
          "internalType": "uint256",
          "name": "",
          "type": "uint256"
        }
      ],
      "stateMutability": "view",
      "type": "function"
    },
    {
      "inputs": [
        {
          "internalType": "address",
          "name": "_user",
          "type": "address"
        }
      ],
      "name": "getOfferingClaimableAmount",
      "outputs": [
        {
          "internalType": "uint256",
          "name": "claimableAmount",
          "type": "uint256"
        }
      ],
      "stateMutability": "view",
      "type": "function"
    },
    {
      "inputs": [
        {
          "internalType": "address",
          "name": "_user",
          "type": "address"
        }
      ],
      "name": "getRefundingAmount",
      "outputs": [
        {
          "internalType": "uint256",
          "name": "",
          "type": "uint256"
        }
      ],
      "stateMutability": "view",
      "type": "function"
    },
    {
      "inputs": [
        {
          "internalType": "address",
          "name": "_account",
          "type": "address"
        }
      ],
      "name": "getTier",
      "outputs": [
        {
          "internalType": "uint256",
          "name": "",
          "type": "uint256"
        }
      ],
      "stateMutability": "view",
      "type": "function"
    },
    {
      "inputs": [
        {
          "internalType": "address",
          "name": "_user",
          "type": "address"
        }
      ],
      "name": "getTotalOfferingAmount",
      "outputs": [
        {
          "internalType": "uint256",
          "name": "",
          "type": "uint256"
        }
      ],
      "stateMutability": "view",
      "type": "function"
    },
    {
      "inputs": [
        {
          "internalType": "address",
          "name": "_user",
          "type": "address"
        }
      ],
      "name": "getUserAllocation",
      "outputs": [
        {
          "internalType": "uint256",
          "name": "",
          "type": "uint256"
        }
      ],
      "stateMutability": "view",
      "type": "function"
    },
    {
      "inputs": [],
      "name": "harvest",
      "outputs": [],
      "stateMutability": "nonpayable",
      "type": "function"
    },
    {
      "inputs": [],
      "name": "harvestTime",
      "outputs": [
        {
          "internalType": "uint256",
          "name": "",
          "type": "uint256"
        }
      ],
      "stateMutability": "view",
      "type": "function"
    },
    {
      "inputs": [],
      "name": "multiplier",
      "outputs": [
        {
          "internalType": "uint256",
          "name": "",
          "type": "uint256"
        }
      ],
      "stateMutability": "view",
      "type": "function"
    },
    {
      "inputs": [],
      "name": "nextVestingSchedule",
      "outputs": [
        {
          "internalType": "uint8",
          "name": "",
          "type": "uint8"
        }
      ],
      "stateMutability": "view",
      "type": "function"
    },
    {
      "inputs": [],
      "name": "offeringAmount",
      "outputs": [
        {
          "internalType": "uint256",
          "name": "",
          "type": "uint256"
        }
      ],
      "stateMutability": "view",
      "type": "function"
    },
    {
      "inputs": [],
      "name": "offeringToken",
      "outputs": [
        {
          "internalType": "contract ERC20",
          "name": "",
          "type": "address"
        }
      ],
      "stateMutability": "view",
      "type": "function"
    },
    {
      "inputs": [],
      "name": "owner",
      "outputs": [
        {
          "internalType": "address",
          "name": "",
          "type": "address"
        }
      ],
      "stateMutability": "view",
      "type": "function"
    },
    {
      "inputs": [],
      "name": "pause",
      "outputs": [],
      "stateMutability": "nonpayable",
      "type": "function"
    },
    {
      "inputs": [],
      "name": "paused",
      "outputs": [
        {
          "internalType": "bool",
          "name": "",
          "type": "bool"
        }
      ],
      "stateMutability": "view",
      "type": "function"
    },
    {
      "inputs": [],
      "name": "raisingAmount",
      "outputs": [
        {
          "internalType": "uint256",
          "name": "",
          "type": "uint256"
        }
      ],
      "stateMutability": "view",
      "type": "function"
    },
    {
      "inputs": [],
      "name": "renounceOwnership",
      "outputs": [],
      "stateMutability": "nonpayable",
      "type": "function"
    },
    {
      "inputs": [
        {
          "internalType": "uint256",
          "name": "mul",
          "type": "uint256"
        }
      ],
      "name": "setMultiplier",
      "outputs": [],
      "stateMutability": "nonpayable",
      "type": "function"
    },
    {
      "inputs": [
        {
          "internalType": "uint256",
          "name": "_offerAmount",
          "type": "uint256"
        }
      ],
      "name": "setOfferingAmount",
      "outputs": [],
      "stateMutability": "nonpayable",
      "type": "function"
    },
    {
      "inputs": [
        {
          "internalType": "uint256",
          "name": "_raisingAmount",
          "type": "uint256"
        }
      ],
      "name": "setRaisingAmount",
      "outputs": [],
      "stateMutability": "nonpayable",
      "type": "function"
    },
    {
      "inputs": [
        {
          "internalType": "uint256",
          "name": "id",
          "type": "uint256"
        }
      ],
      "name": "setSnapshotFrom",
      "outputs": [],
      "stateMutability": "nonpayable",
      "type": "function"
    },
    {
      "inputs": [
        {
          "internalType": "uint256",
          "name": "id",
          "type": "uint256"
        }
      ],
      "name": "setSnapshotTo",
      "outputs": [],
      "stateMutability": "nonpayable",
      "type": "function"
    },
    {
      "inputs": [
        {
          "internalType": "uint256",
          "name": "vestingTime",
          "type": "uint256"
        },
        {
          "internalType": "uint256",
          "name": "vestingAlloc",
          "type": "uint256"
        }
      ],
      "name": "setVestingSchedule",
      "outputs": [],
      "stateMutability": "nonpayable",
      "type": "function"
    },
    {
      "inputs": [],
      "name": "snapshotFrom",
      "outputs": [
        {
          "internalType": "uint256",
          "name": "",
          "type": "uint256"
        }
      ],
      "stateMutability": "view",
      "type": "function"
    },
    {
      "inputs": [],
      "name": "snapshotTo",
      "outputs": [
        {
          "internalType": "uint256",
          "name": "",
          "type": "uint256"
        }
      ],
      "stateMutability": "view",
      "type": "function"
    },
    {
      "inputs": [],
      "name": "startTime",
      "outputs": [
        {
          "internalType": "uint256",
          "name": "",
          "type": "uint256"
        }
      ],
      "stateMutability": "view",
      "type": "function"
    },
    {
      "inputs": [],
      "name": "tierSystem",
      "outputs": [
        {
          "internalType": "contract ITierSystem",
          "name": "",
          "type": "address"
        }
      ],
      "stateMutability": "view",
      "type": "function"
    },
    {
      "inputs": [],
      "name": "totalAmount",
      "outputs": [
        {
          "internalType": "uint256",
          "name": "",
          "type": "uint256"
        }
      ],
      "stateMutability": "view",
      "type": "function"
    },
    {
      "inputs": [
        {
          "internalType": "address",
          "name": "newOwner",
          "type": "address"
        }
      ],
      "name": "transferOwnership",
      "outputs": [],
      "stateMutability": "nonpayable",
      "type": "function"
    },
    {
      "inputs": [],
      "name": "unpause",
      "outputs": [],
      "stateMutability": "nonpayable",
      "type": "function"
    },
    {
      "inputs": [
        {
          "internalType": "uint256",
          "name": "_newTime",
          "type": "uint256"
        }
      ],
      "name": "updateEndTime",
      "outputs": [],
      "stateMutability": "nonpayable",
      "type": "function"
    },
    {
      "inputs": [
        {
          "internalType": "uint256",
          "name": "_newTime",
          "type": "uint256"
        }
      ],
      "name": "updateHarvestTime",
      "outputs": [],
      "stateMutability": "nonpayable",
      "type": "function"
    },
    {
      "inputs": [
        {
          "internalType": "address",
          "name": "_newToken",
          "type": "address"
        }
      ],
      "name": "updateOfferingToken",
      "outputs": [],
      "stateMutability": "nonpayable",
      "type": "function"
    },
    {
      "inputs": [
        {
          "internalType": "address",
          "name": "",
          "type": "address"
        }
      ],
      "name": "userInfo",
      "outputs": [
        {
          "internalType": "uint256",
          "name": "amount",
          "type": "uint256"
        },
        {
          "internalType": "uint256",
          "name": "claimedAmount",
          "type": "uint256"
        },
        {
          "internalType": "uint256",
          "name": "latestVesting",
          "type": "uint256"
        },
        {
          "internalType": "bool",
          "name": "refunded",
          "type": "bool"
        }
      ],
      "stateMutability": "view",
      "type": "function"
    },
    {
      "inputs": [],
      "name": "vestingAllocRemaining",
      "outputs": [
        {
          "internalType": "uint256",
          "name": "",
          "type": "uint256"
        }
      ],
      "stateMutability": "view",
      "type": "function"
    },
    {
      "inputs": [
        {
          "internalType": "uint256",
          "name": "",
          "type": "uint256"
        }
      ],
      "name": "vestingSchedules",
      "outputs": [
        {
          "internalType": "uint256",
          "name": "vestingTime",
          "type": "uint256"
        },
        {
          "internalType": "uint256",
          "name": "vestingAllocation",
          "type": "uint256"
        }
      ],
      "stateMutability": "view",
      "type": "function"
    }
  ],
  "bytecode": "0x60806040526127106012553480156200001757600080fd5b5060405162002adf38038062002adf8339810160408190526200003a9162000140565b60016000556200004a33620000ee565b6001805460ff60a01b191690558787108015906200006757508888115b80156200007357504289115b6200007d57600080fd5b600280546001600160a01b03199081166001600160a01b039d8e16179091556003805482169b8d169b909b17909a556004989098556005969096556006949094556008929092556007556000600955600c8054909516951694909417909255600d92909255600e55600f55620001fe565b600180546001600160a01b038381166001600160a01b0319831681179093556040519116919082907f8be0079c531659141344cd1fd0a4f28419497f9722a3daafe3b4186f6b6457e090600090a35050565b60008060008060008060008060008060006101608c8e03121562000162578687fd5b8b516200016f81620001e5565b60208d0151909b506200018281620001e5565b809a505060408c0151985060608c0151975060808c0151965060a08c0151955060c08c0151945060e08c0151620001b981620001e5565b809450506101008c015192506101208c015191506101408c015190509295989b509295989b9093969950565b6001600160a01b0381168114620001fb57600080fd5b50565b6128d1806200020e6000396000f3fe6080604052600436106102735760003560e01c8063715018a61161014e578063b920ade2116100bb578063f2fde38b11610077578063f2fde38b146107a0578063f432228f146107c0578063f4808210146107e0578063f5bf9524146107f6578063f8caa7e51461080c578063fc00358e1461082c57005b8063b920ade2146106f5578063c2c9721b14610715578063d0e02ddb14610735578063d16bba941461074a578063e1af9a951461076a578063eadbd7881461078057005b8063a48217191161010a578063a482171914610642578063ac3ff91214610662578063b45aae5214610682578063b6b55f25146106a2578063b7813607146106b5578063b810fb43146106d557005b8063715018a61461059a57806376ea6ee0146105af57806378e97925146105cf5780638456cb59146105e55780638da5cb5b146105fa5780639c0a76691461062c57005b80633f4ba83a116101ec5780635c975abb116101a85780635c975abb146104bb5780636382d9ad146104e5578063641579a6146105055780636a2ce513146105255780636ab3846b146105455780636d3cbe211461056557005b80633f4ba83a146103fd5780634225c32f146104125780634641257d14610432578063467f9cc0146104475780634de18ffa146104735780635a9b0b891461049357005b806322b331751161023b57806322b331751461035b57806327d1b1a2146103715780632f5105f8146103915780632fad01a3146103b15780633197cbb6146103d1578063343e31f5146103e757005b80630a2642bf146102755780630e022923146102a85780631959a002146102c85780631a39d8ef1461032f5780631b3ed72214610345575b005b34801561028157600080fd5b5061029561029036600461250a565b610841565b6040519081526020015b60405180910390f35b3480156102b457600080fd5b506102956102c33660046123f8565b6109b7565b3480156102d457600080fd5b5061030d6102e33660046123f8565b600a6020526000908152604090208054600182015460028301546003909301549192909160ff1684565b604080519485526020850193909352918301521515606082015260800161029f565b34801561033b57600080fd5b5061029560095481565b34801561035157600080fd5b50610295600f5481565b34801561036757600080fd5b50610295600e5481565b34801561037d57600080fd5b5061027361038c36600461250a565b610a5d565b34801561039d57600080fd5b506102956103ac3660046123f8565b610a94565b3480156103bd57600080fd5b506102956103cc3660046123f8565b610b15565b3480156103dd57600080fd5b5061029560055481565b3480156103f357600080fd5b50610295600d5481565b34801561040957600080fd5b50610273610b85565b34801561041e57600080fd5b5061027361042d36600461250a565b610b97565b34801561043e57600080fd5b50610273610bc5565b34801561045357600080fd5b506011546104619060ff1681565b60405160ff909116815260200161029f565b34801561047f57600080fd5b5061029561048e3660046123f8565b610e3f565b34801561049f57600080fd5b506104a8610f06565b60405161029f9796959493929190612667565b3480156104c757600080fd5b50600154600160a01b900460ff16604051901515815260200161029f565b3480156104f157600080fd5b50610273610500366004612414565b610ffe565b34801561051157600080fd5b5061027361052036600461250a565b6110e0565b34801561053157600080fd5b506102956105403660046123f8565b6110ed565b34801561055157600080fd5b5061027361056036600461250a565b611206565b34801561057157600080fd5b5061058561058036600461250a565b611260565b6040805192835260208301919091520161029f565b3480156105a657600080fd5b5061027361128e565b3480156105bb57600080fd5b506102736105ca36600461250a565b6112a0565b3480156105db57600080fd5b5061029560045481565b3480156105f157600080fd5b506102736112fa565b34801561060657600080fd5b506001546001600160a01b03165b6040516001600160a01b03909116815260200161029f565b34801561063857600080fd5b5061029560075481565b34801561064e57600080fd5b50600254610614906001600160a01b031681565b34801561066e57600080fd5b5061027361067d3660046123f8565b61130a565b34801561068e57600080fd5b5061029561069d3660046123f8565b611468565b6102736106b036600461250a565b6114f1565b3480156106c157600080fd5b50600354610614906001600160a01b031681565b3480156106e157600080fd5b506106146106f036600461250a565b6117d1565b34801561070157600080fd5b506102956107103660046123f8565b6117fb565b34801561072157600080fd5b5061027361073036600461250a565b61182f565b34801561074157600080fd5b50610295611879565b34801561075657600080fd5b5061027361076536600461250a565b6118e4565b34801561077657600080fd5b5061029560085481565b34801561078c57600080fd5b5061027361079b3660046123f8565b61192e565b3480156107ac57600080fd5b506102736107bb3660046123f8565b61197e565b3480156107cc57600080fd5b506102736107db36600461253a565b6119f4565b3480156107ec57600080fd5b5061029560065481565b34801561080257600080fd5b5061029560125481565b34801561081857600080fd5b50600c54610614906001600160a01b031681565b34801561083857600080fd5b50600b54610295565b600c5460405163bbc3f7cf60e01b81526004810183905260009182916001600160a01b039091169063bbc3f7cf9060240160206040518083038186803b15801561088a57600080fd5b505afa15801561089e573d6000803e3d6000fd5b505050506040513d601f19601f820116820180604052508101906108c29190612522565b6002549091506001600160a01b031661090f57610908612710610902670de0b6b3a76400006108fc600f5486611c4390919063ffffffff16565b90611c43565b90611c4f565b9392505050565b610908612710610902600260009054906101000a90046001600160a01b03166001600160a01b031663313ce5676040518163ffffffff1660e01b815260040160206040518083038186803b15801561096657600080fd5b505afa15801561097a573d6000803e3d6000fd5b505050506040513d601f19601f8201168201806040525081019061099e919061255b565b6109a990600a612732565b600f546108fc908690611c43565b600c54600d54600e54604051636002de6760e01b815260009384936001600160a01b0390911692636002de67926109f49288929091600401612617565b60206040518083038186803b158015610a0c57600080fd5b505afa158015610a20573d6000803e3d6000fd5b505050506040513d601f19601f82011682018060405250810190610a449190612522565b905080610a545750600092915050565b61090881610841565b610a65611c5b565b6004544210610a8f5760405162461bcd60e51b8152600401610a869061264b565b60405180910390fd5b600855565b600060075460095411610aa957506000919050565b6000610ab4836117fb565b90506000610ad9670de0b6b3a764000061090284600754611c4390919063ffffffff16565b6001600160a01b0385166000908152600a6020526040902054909150610b0d9061271090610b079084611cb5565b90611cb5565b949350505050565b60006007546009541115610b51576000610b2e836117fb565b9050610908670de0b6b3a764000061090283600854611c4390919063ffffffff16565b6007546008546001600160a01b0384166000908152600a6020526040902054610b7f92916109029190611c43565b92915050565b610b8d611c5b565b610b95611cc1565b565b610b9f611c5b565b6004544210610bc05760405162461bcd60e51b8152600401610a869061264b565b600755565b60026000541415610c185760405162461bcd60e51b815260206004820152601f60248201527f5265656e7472616e637947756172643a207265656e7472616e742063616c6c006044820152606401610a86565b60026000556006544211610c615760405162461bcd60e51b815260206004820152601060248201526f6e6f7420686172766573742074696d6560801b6044820152606401610a86565b336000908152600a6020526040902054610cb65760405162461bcd60e51b81526020600482015260166024820152756861766520796f75207061727469636970617465643f60501b6044820152606401610a86565b610cbe611d16565b6000610cc933610e3f565b905060008111610d0c5760405162461bcd60e51b815260206004820152600e60248201526d6e6f7420636c61696d61626c652160901b6044820152606401610a86565b6000610d1733610a94565b600354909150610d31906001600160a01b03163384611d63565b600081118015610d545750336000908152600a602052604090206003015460ff16155b15610dad576002546001600160a01b0316610d7857610d733382611dc6565b610d8f565b600254610d8f906001600160a01b03163383611d63565b336000908152600a60205260409020600301805460ff191660011790555b336000908152600a602052604081206001018054849290610dcf9084906126b7565b90915550610ddd9050611879565b336000818152600a6020908152604091829020600201849055815186815290810185905290810192909252907f4534f107610758c3931de9ad1e176476fcfb8c74adf920167e1d54ee84fcfe769060600160405180910390a250506001600055565b600080610e4b83610b15565b90506000610e57611879565b6001600160a01b0385166000908152600a60205260409020600201549091508115801590610e8457508181105b15610efe57805b82811015610efc57610ede61271061090260108481548110610ebd57634e487b7160e01b600052603260045260246000fd5b90600052602060002090600202016001015487611c4390919063ffffffff16565b610ee890866126b7565b945080610ef48161283f565b915050610e8b565b505b505050919050565b610f0e6123c7565b610f166123c7565b6000806000806000610f266123c7565b6002546001600160a01b0316610fa757604051806080016040528060006001600160a01b03168152602001601281526020016040518060400160405280600b81526020016a25b0b93234b0a1b430b4b760a91b8152508152602001604051806040016040528060038152602001624b414960e81b8152508152509050610fbf565b600254610fbc906001600160a01b0316611e8f565b90505b600354600090610fd7906001600160a01b0316611e8f565b600454600554600654600854600754969e949d50929b509099509750955091935090915050565b611006611c5b565b6001600160a01b03821661104e576040516001600160a01b038216904780156108fc02916000818181858888f19350505050158015611049573d6000803e3d6000fd5b505050565b6040516370a0823160e01b81523060048201526110dc9082906001600160a01b038516906370a082319060240160206040518083038186803b15801561109357600080fd5b505afa1580156110a7573d6000803e3d6000fd5b505050506040513d601f19601f820116820180604052508101906110cb9190612522565b6001600160a01b0385169190611d63565b5050565b6110e8611c5b565b600f55565b600c54600d54600e54604051636002de6760e01b815260009384936001600160a01b0390911692636002de679261112a9288929091600401612617565b60206040518083038186803b15801561114257600080fd5b505afa158015611156573d6000803e3d6000fd5b505050506040513d601f19601f8201168201806040525081019061117a9190612522565b90508061118a5750600092915050565b600c5460405163bbc3f7cf60e01b8152600481018390526001600160a01b039091169063bbc3f7cf9060240160206040518083038186803b1580156111ce57600080fd5b505afa1580156111e2573d6000803e3d6000fd5b505050506040513d601f19601f820116820180604052508101906109089190612522565b61120e611c5b565b428111801561121e575060065481105b61125b5760405162461bcd60e51b815260206004820152600e60248201526d74696d6520696e76616c6964212160901b6044820152606401610a86565b600555565b6010818154811061127057600080fd5b60009182526020909120600290910201805460019091015490915082565b611296611c5b565b610b956000612021565b6112a8611c5b565b42811180156112b8575060055481115b6112f55760405162461bcd60e51b815260206004820152600e60248201526d74696d6520696e76616c6964212160901b6044820152606401610a86565b600655565b611302611c5b565b610b95612073565b611312611c5b565b6002546001600160a01b0316611343576000600754471061133557600754611337565b475b90506110dc8282611dc6565b6007546002546040516370a0823160e01b8152306004820152600092916001600160a01b0316906370a082319060240160206040518083038186803b15801561138b57600080fd5b505afa15801561139f573d6000803e3d6000fd5b505050506040513d601f19601f820116820180604052508101906113c39190612522565b106113d05760075461144b565b6002546040516370a0823160e01b81523060048201526001600160a01b03909116906370a082319060240160206040518083038186803b15801561141357600080fd5b505afa158015611427573d6000803e3d6000fd5b505050506040513d601f19601f8201168201806040525081019061144b9190612522565b6002549091506110dc906001600160a01b03168383611d63565b50565b600c54600d54600e54604051636002de6760e01b81526000936001600160a01b031692636002de67926114a19287929190600401612617565b60206040518083038186803b1580156114b957600080fd5b505afa1580156114cd573d6000803e3d6000fd5b505050506040513d601f19601f82011682018060405250810190610b7f9190612522565b600260005414156115445760405162461bcd60e51b815260206004820152601f60248201527f5265656e7472616e637947756172643a207265656e7472616e742063616c6c006044820152606401610a86565b600260005560045481904211801561155d575060055442105b61159c5760405162461bcd60e51b815260206004820152601060248201526f6e6f742072616973696e672074696d6560801b6044820152606401610a86565b600081116115df5760405162461bcd60e51b815260206004820152601060248201526f06e656564205f616d6f756e74203e20360841b6044820152606401610a86565b6115e7611d16565b60006115f2336120b6565b336000908152600a6020526040902054909150811161164b5760405162461bcd60e51b81526020600482015260156024820152746e6f7420656c696769626c6520616d6f756e74212160581b6044820152606401610a86565b336000908152600a602052604081205461166590836127fc565b905083808210156116735750805b6002546001600160a01b03166116e757803410156116c75760405162461bcd60e51b81526020600482015260116024820152700c2dadeeadce840dcdee840cadcdeeaced607b1b6044820152606401610a86565b803411156116e2576116e2336116dd83346127fc565b611dc6565b6116ff565b6002546116ff906001600160a01b0316333084612147565b336000908152600a602052604090205461175657600b80546001810182556000919091527f0175b7a638427703f0dbe7bb9bbf987a2551717b34e79f33b5b1008d1fa01db90180546001600160a01b031916331790555b336000908152600a60205260409020546117709082612185565b336000908152600a602052604090205560095461178d9082612185565b60095560405181815233907fe1fffcc4923d04b559f4d29a8bfc6cda04eb5b0d3c460751c2402c5c5cc9109c9060200160405180910390a250506001600055505050565b600b81815481106117e157600080fd5b6000918252602090912001546001600160a01b0316905081565b6009546001600160a01b0382166000908152600a60205260408120549091610b7f9161090290670de0b6b3a7640000611c43565b611837611c5b565b600081116118745760405162461bcd60e51b815260206004820152600a6024820152691259081a5b9d985b1a5960b21b6044820152606401610a86565b600e55565b6000805b6010548110156118e05742601082815481106118a957634e487b7160e01b600052603260045260246000fd5b906000526020600020906002020160000154106118ce576118cb8160016126b7565b91505b806118d88161283f565b91505061187d565b5090565b6118ec611c5b565b600081116119295760405162461bcd60e51b815260206004820152600a6024820152691259081a5b9d985b1a5960b21b6044820152606401610a86565b600d55565b611936611c5b565b6001600160a01b03811661195c5760405162461bcd60e51b8152600401610a869061264b565b600380546001600160a01b0319166001600160a01b0392909216919091179055565b611986611c5b565b6001600160a01b0381166119eb5760405162461bcd60e51b815260206004820152602660248201527f4f776e61626c653a206e6577206f776e657220697320746865207a65726f206160448201526564647265737360d01b6064820152608401610a86565b61146581612021565b6119fc611c5b565b4282118015611a0d57506127108111155b611a485760405162461bcd60e51b815260206004820152600c60248201526b1859dc9cc81a5b9d985b1a5960a21b6044820152606401610a86565b601254811115611a905760405162461bcd60e51b8152602060048201526013602482015272185b1b1bd8d85d1a5bdb881bdd995c9b1bd859606a1b6044820152606401610a86565b8060126000828254611aa291906127fc565b90915550506040805180820190915282815260208101829052601054611b2d576010805460018101825560009190915281517f1b6847dc741a1b0cd08d278845f9d819d87b734759afb55fe2de5cb82a9ae6726002909202918201556020909101517f1b6847dc741a1b0cd08d278845f9d819d87b734759afb55fe2de5cb82a9ae673909101555050565b6010805460009190611b41906001906127fc565b81548110611b5f57634e487b7160e01b600052603260045260246000fd5b906000526020600020906002020160405180604001604052908160008201548152602001600182015481525050905080600001518411611bd75760405162461bcd60e51b815260206004820152601360248201527276657374696e672074696d652077726f6e672160681b6044820152606401610a86565b506010805460018101825560009190915281517f1b6847dc741a1b0cd08d278845f9d819d87b734759afb55fe2de5cb82a9ae67260029092029182015560208201517f1b6847dc741a1b0cd08d278845f9d819d87b734759afb55fe2de5cb82a9ae67390910155505050565b600061090882846127dd565b600061090882846126cf565b6001546001600160a01b03163314610b955760405162461bcd60e51b815260206004820181905260248201527f4f776e61626c653a2063616c6c6572206973206e6f7420746865206f776e65726044820152606401610a86565b600061090882846127fc565b611cc9612191565b6001805460ff60a01b191690557f5db9ee0a495bf2e6ff9c91a7834c1ba4fdd244a5e8aa4e537bd38aeae4b073aa335b6040516001600160a01b03909116815260200160405180910390a1565b600154600160a01b900460ff1615610b955760405162461bcd60e51b815260206004820152601060248201526f14185d5cd8589b194e881c185d5cd95960821b6044820152606401610a86565b6040516001600160a01b03831660248201526044810182905261104990849063a9059cbb60e01b906064015b60408051601f198184030181529190526020810180516001600160e01b03166001600160e01b0319909316929092179091526121e1565b604080516000808252602082019092526001600160a01b038416908390604051611df091906125fb565b60006040518083038185875af1925050503d8060008114611e2d576040519150601f19603f3d011682016040523d82523d6000602084013e611e32565b606091505b50509050806110495760405162461bcd60e51b815260206004820152602360248201527f5472616e7366657248656c7065723a204b41495f5452414e534645525f46414960448201526213115160ea1b6064820152608401610a86565b611e976123c7565b6040518060800160405280836001600160a01b03168152602001836001600160a01b031663313ce5676040518163ffffffff1660e01b815260040160206040518083038186803b158015611eea57600080fd5b505afa158015611efe573d6000803e3d6000fd5b505050506040513d601f19601f82011682018060405250810190611f22919061255b565b60ff168152602001836001600160a01b03166306fdde036040518163ffffffff1660e01b815260040160006040518083038186803b158015611f6357600080fd5b505afa158015611f77573d6000803e3d6000fd5b505050506040513d6000823e601f3d908101601f19168201604052611f9f919081019061246c565b8152602001836001600160a01b03166395d89b416040518163ffffffff1660e01b815260040160006040518083038186803b158015611fdd57600080fd5b505afa158015611ff1573d6000803e3d6000fd5b505050506040513d6000823e601f3d908101601f19168201604052612019919081019061246c565b905292915050565b600180546001600160a01b038381166001600160a01b0319831681179093556040519116919082907f8be0079c531659141344cd1fd0a4f28419497f9722a3daafe3b4186f6b6457e090600090a35050565b61207b611d16565b6001805460ff60a01b1916600160a01b1790557f62e78cea01bee320cd4e420270b5ea74000d11b0c9f74754ebdbfc544b05a258611cf93390565b600080600d541180156120cc5750600d54600e54115b61210e5760405162461bcd60e51b815260206004820152601360248201527214db985c1cda1bdd081a59081b9bdd081cd95d606a1b6044820152606401610a86565b600c54600d54600e54604051636002de6760e01b81526000936001600160a01b031692636002de67926109f49288929190600401612617565b6040516001600160a01b038085166024830152831660448201526064810182905261217f9085906323b872dd60e01b90608401611d8f565b50505050565b600061090882846126b7565b600154600160a01b900460ff16610b955760405162461bcd60e51b815260206004820152601460248201527314185d5cd8589b194e881b9bdd081c185d5cd95960621b6044820152606401610a86565b6000612236826040518060400160405280602081526020017f5361666545524332303a206c6f772d6c6576656c2063616c6c206661696c6564815250856001600160a01b03166122b39092919063ffffffff16565b8051909150156110495780806020019051810190612254919061244c565b6110495760405162461bcd60e51b815260206004820152602a60248201527f5361666545524332303a204552433230206f7065726174696f6e20646964206e6044820152691bdd081cdd58d8d9595960b21b6064820152608401610a86565b6060610b0d8484600085856001600160a01b0385163b6123155760405162461bcd60e51b815260206004820152601d60248201527f416464726573733a2063616c6c20746f206e6f6e2d636f6e74726163740000006044820152606401610a86565b600080866001600160a01b0316858760405161233191906125fb565b60006040518083038185875af1925050503d806000811461236e576040519150601f19603f3d011682016040523d82523d6000602084013e612373565b606091505b509150915061238382828661238e565b979650505050505050565b6060831561239d575081610908565b8251156123ad5782518084602001fd5b8160405162461bcd60e51b8152600401610a869190612638565b604051806080016040528060006001600160a01b031681526020016000815260200160608152602001606081525090565b600060208284031215612409578081fd5b813561090881612886565b60008060408385031215612426578081fd5b823561243181612886565b9150602083013561244181612886565b809150509250929050565b60006020828403121561245d578081fd5b81518015158114610908578182fd5b60006020828403121561247d578081fd5b815167ffffffffffffffff80821115612494578283fd5b818401915084601f8301126124a7578283fd5b8151818111156124b9576124b9612870565b604051601f8201601f19908116603f011681019083821181831017156124e1576124e1612870565b816040528281528760208487010111156124f9578586fd5b612383836020830160208801612813565b60006020828403121561251b578081fd5b5035919050565b600060208284031215612533578081fd5b5051919050565b6000806040838503121561254c578182fd5b50508035926020909101359150565b60006020828403121561256c578081fd5b815160ff81168114610908578182fd5b60008151808452612594816020860160208601612813565b601f01601f19169290920160200192915050565b60018060a01b0381511682526020810151602083015260006040820151608060408501526125d9608085018261257c565b9050606083015184820360608601526125f2828261257c565b95945050505050565b6000825161260d818460208701612813565b9190910192915050565b6001600160a01b039390931683526020830191909152604082015260600190565b602081526000610908602083018461257c565b6020808252600290820152616e6f60f01b604082015260600190565b60e08152600061267a60e083018a6125a8565b828103602084015261268c818a6125a8565b604084019890985250506060810194909452608084019290925260a083015260c09091015292915050565b600082198211156126ca576126ca61285a565b500190565b6000826126ea57634e487b7160e01b81526012600452602481fd5b500490565b600181815b8085111561272a5781600019048211156127105761271061285a565b8085161561271d57918102915b93841c93908002906126f4565b509250929050565b600061090860ff84168360008261274b57506001610b7f565b8161275857506000610b7f565b816001811461276e576002811461277857612794565b6001915050610b7f565b60ff8411156127895761278961285a565b50506001821b610b7f565b5060208310610133831016604e8410600b84101617156127b7575081810a610b7f565b6127c183836126ef565b80600019048211156127d5576127d561285a565b029392505050565b60008160001904831182151516156127f7576127f761285a565b500290565b60008282101561280e5761280e61285a565b500390565b60005b8381101561282e578181015183820152602001612816565b8381111561217f5750506000910152565b60006000198214156128535761285361285a565b5060010190565b634e487b7160e01b600052601160045260246000fd5b634e487b7160e01b600052604160045260246000fd5b6001600160a01b038116811461146557600080fdfea26469706673582212205e44ed7d1592ac9cdbaafdb9927aeb1af9d78fa7444bc5ca8a9e53f7a358be3164736f6c63430008040033",
  "linkReferences": {},
  "deployedLinkReferences": {}
}