{
  "_format": "hh-sol-artifact-1",
  "contractName": "IDOVesting",
  "sourceName": "contracts/launchpad/vesting/IDOVesting.sol",
  "abi": [
    {
      "inputs": [
        {
          "internalType": "contract ERC20",
          "name": "_buyToken",
          "type": "address"
        },
        {
          "internalType": "contract ERC20",
          "name": "_offeringToken",
          "type": "address"
        },
        {
          "internalType": "uint256",
          "name": "_startTime",
          "type": "uint256"
        },
        {
          "internalType": "uint256",
          "name": "_endTime",
          "type": "uint256"
        },
        {
          "internalType": "uint256",
          "name": "_harvestTime",
          "type": "uint256"
        },
        {
          "internalType": "uint256",
          "name": "_offeringAmount",
          "type": "uint256"
        },
        {
          "internalType": "uint256",
          "name": "_raisingAmount",
          "type": "uint256"
        },
        {
          "internalType": "contract ITierSystem",
          "name": "_tierSystem",
          "type": "address"
        },
        {
          "internalType": "uint256",
          "name": "_snapshotFrom",
          "type": "uint256"
        },
        {
          "internalType": "uint256",
          "name": "_snapshotTo",
          "type": "uint256"
        },
        {
          "internalType": "uint256",
          "name": "_multiplier",
          "type": "uint256"
        }
      ],
      "stateMutability": "nonpayable",
      "type": "constructor"
    },
    {
      "anonymous": false,
      "inputs": [
        {
          "indexed": false,
          "internalType": "uint256",
          "name": "scheduleId",
          "type": "uint256"
        },
        {
          "indexed": false,
          "internalType": "uint256",
          "name": "vestingTime",
          "type": "uint256"
        },
        {
          "indexed": false,
          "internalType": "uint256",
          "name": "vestingAlloc",
          "type": "uint256"
        }
      ],
      "name": "AddVestingSchedule",
      "type": "event"
    },
    {
      "anonymous": false,
      "inputs": [
        {
          "indexed": true,
          "internalType": "address",
          "name": "user",
          "type": "address"
        },
        {
          "indexed": false,
          "internalType": "uint256",
          "name": "amount",
          "type": "uint256"
        }
      ],
      "name": "Deposit",
      "type": "event"
    },
    {
      "anonymous": false,
      "inputs": [
        {
          "indexed": true,
          "internalType": "address",
          "name": "user",
          "type": "address"
        },
        {
          "indexed": false,
          "internalType": "uint256",
          "name": "offeringAmount",
          "type": "uint256"
        },
        {
          "indexed": false,
          "internalType": "uint256",
          "name": "excessAmount",
          "type": "uint256"
        },
        {
          "indexed": false,
          "internalType": "uint256",
          "name": "vestingSchedule",
          "type": "uint256"
        }
      ],
      "name": "Harvest",
      "type": "event"
    },
    {
      "anonymous": false,
      "inputs": [
        {
          "indexed": true,
          "internalType": "address",
          "name": "previousOwner",
          "type": "address"
        },
        {
          "indexed": true,
          "internalType": "address",
          "name": "newOwner",
          "type": "address"
        }
      ],
      "name": "OwnershipTransferred",
      "type": "event"
    },
    {
      "anonymous": false,
      "inputs": [
        {
          "indexed": false,
          "internalType": "address",
          "name": "account",
          "type": "address"
        }
      ],
      "name": "Paused",
      "type": "event"
    },
    {
      "anonymous": false,
      "inputs": [
        {
          "indexed": false,
          "internalType": "address",
          "name": "account",
          "type": "address"
        }
      ],
      "name": "Unpaused",
      "type": "event"
    },
    {
      "anonymous": false,
      "inputs": [
        {
          "indexed": false,
          "internalType": "uint256",
          "name": "scheduleId",
          "type": "uint256"
        },
        {
          "indexed": false,
          "internalType": "uint256",
          "name": "newVestingTime",
          "type": "uint256"
        },
        {
          "indexed": false,
          "internalType": "uint256",
          "name": "newVestingAlloc",
          "type": "uint256"
        }
      ],
      "name": "UpdateVestingSchedule",
      "type": "event"
    },
    {
      "stateMutability": "payable",
      "type": "fallback"
    },
    {
      "inputs": [
        {
          "internalType": "uint256",
          "name": "",
          "type": "uint256"
        }
      ],
      "name": "addressList",
      "outputs": [
        {
          "internalType": "address",
          "name": "",
          "type": "address"
        }
      ],
      "stateMutability": "view",
      "type": "function"
    },
    {
      "inputs": [
        {
          "internalType": "uint256",
          "name": "_tier",
          "type": "uint256"
        }
      ],
      "name": "allocations",
      "outputs": [
        {
          "internalType": "uint256",
          "name": "",
          "type": "uint256"
        }
      ],
      "stateMutability": "view",
      "type": "function"
    },
    {
      "inputs": [],
      "name": "buyToken",
      "outputs": [
        {
          "internalType": "contract ERC20",
          "name": "",
          "type": "address"
        }
      ],
      "stateMutability": "view",
      "type": "function"
    },
    {
      "inputs": [
        {
          "internalType": "uint256",
          "name": "_amount",
          "type": "uint256"
        }
      ],
      "name": "deposit",
      "outputs": [],
      "stateMutability": "payable",
      "type": "function"
    },
    {
      "inputs": [
        {
          "internalType": "address",
          "name": "token",
          "type": "address"
        },
        {
          "internalType": "address payable",
          "name": "to",
          "type": "address"
        }
      ],
      "name": "emergencyWithdraw",
      "outputs": [],
      "stateMutability": "nonpayable",
      "type": "function"
    },
    {
      "inputs": [],
      "name": "endTime",
      "outputs": [
        {
          "internalType": "uint256",
          "name": "",
          "type": "uint256"
        }
      ],
      "stateMutability": "view",
      "type": "function"
    },
    {
      "inputs": [
        {
          "internalType": "address",
          "name": "_destination",
          "type": "address"
        }
      ],
      "name": "finalWithdraw",
      "outputs": [],
      "stateMutability": "nonpayable",
      "type": "function"
    },
    {
      "inputs": [],
      "name": "getAddressListLength",
      "outputs": [
        {
          "internalType": "uint256",
          "name": "",
          "type": "uint256"
        }
      ],
      "stateMutability": "view",
      "type": "function"
    },
    {
      "inputs": [
        {
          "internalType": "address",
          "name": "_account",
          "type": "address"
        }
      ],
      "name": "getAllocation",
      "outputs": [
        {
          "internalType": "uint256",
          "name": "",
          "type": "uint256"
        }
      ],
      "stateMutability": "view",
      "type": "function"
    },
    {
      "inputs": [
        {
          "internalType": "address",
          "name": "_account",
          "type": "address"
        }
      ],
      "name": "getAllocationPoint",
      "outputs": [
        {
          "internalType": "uint256",
          "name": "",
          "type": "uint256"
        }
      ],
      "stateMutability": "view",
      "type": "function"
    },
    {
      "inputs": [],
      "name": "getCurrentValidVestingSchedule",
      "outputs": [
        {
          "internalType": "uint256",
          "name": "id",
          "type": "uint256"
        }
      ],
      "stateMutability": "view",
      "type": "function"
    },
    {
      "inputs": [],
      "name": "getInfo",
      "outputs": [
        {
          "components": [
            {
              "internalType": "contract ERC20",
              "name": "token",
              "type": "address"
            },
            {
              "internalType": "uint256",
              "name": "decimals",
              "type": "uint256"
            },
            {
              "internalType": "string",
              "name": "name",
              "type": "string"
            },
            {
              "internalType": "string",
              "name": "symbol",
              "type": "string"
            }
          ],
          "internalType": "struct IDOVesting.TokenInfo",
          "name": "",
          "type": "tuple"
        },
        {
          "components": [
            {
              "internalType": "contract ERC20",
              "name": "token",
              "type": "address"
            },
            {
              "internalType": "uint256",
              "name": "decimals",
              "type": "uint256"
            },
            {
              "internalType": "string",
              "name": "name",
              "type": "string"
            },
            {
              "internalType": "string",
              "name": "symbol",
              "type": "string"
            }
          ],
          "internalType": "struct IDOVesting.TokenInfo",
          "name": "",
          "type": "tuple"
        },
        {
          "internalType": "uint256",
          "name": "",
          "type": "uint256"
        },
        {
          "internalType": "uint256",
          "name": "",
          "type": "uint256"
        },
        {
          "internalType": "uint256",
          "name": "",
          "type": "uint256"
        },
        {
          "internalType": "uint256",
          "name": "",
          "type": "uint256"
        },
        {
          "internalType": "uint256",
          "name": "",
          "type": "uint256"
        }
      ],
      "stateMutability": "view",
      "type": "function"
    },
    {
      "inputs": [
        {
          "internalType": "address",
          "name": "_user",
          "type": "address"
        }
      ],
      "name": "getOfferingClaimableAmount",
      "outputs": [
        {
          "internalType": "uint256",
          "name": "claimableAmount",
          "type": "uint256"
        }
      ],
      "stateMutability": "view",
      "type": "function"
    },
    {
      "inputs": [
        {
          "internalType": "address",
          "name": "_user",
          "type": "address"
        }
      ],
      "name": "getRefundingAmount",
      "outputs": [
        {
          "internalType": "uint256",
          "name": "",
          "type": "uint256"
        }
      ],
      "stateMutability": "view",
      "type": "function"
    },
    {
      "inputs": [
        {
          "internalType": "address",
          "name": "_account",
          "type": "address"
        }
      ],
      "name": "getTier",
      "outputs": [
        {
          "internalType": "uint256",
          "name": "",
          "type": "uint256"
        }
      ],
      "stateMutability": "view",
      "type": "function"
    },
    {
      "inputs": [
        {
          "internalType": "address",
          "name": "_user",
          "type": "address"
        }
      ],
      "name": "getTotalOfferingAmount",
      "outputs": [
        {
          "internalType": "uint256",
          "name": "",
          "type": "uint256"
        }
      ],
      "stateMutability": "view",
      "type": "function"
    },
    {
      "inputs": [
        {
          "internalType": "address",
          "name": "_user",
          "type": "address"
        }
      ],
      "name": "getUserAllocation",
      "outputs": [
        {
          "internalType": "uint256",
          "name": "",
          "type": "uint256"
        }
      ],
      "stateMutability": "view",
      "type": "function"
    },
    {
      "inputs": [],
      "name": "getVestingScheduleLength",
      "outputs": [
        {
          "internalType": "uint256",
          "name": "",
          "type": "uint256"
        }
      ],
      "stateMutability": "view",
      "type": "function"
    },
    {
      "inputs": [],
      "name": "harvest",
      "outputs": [],
      "stateMutability": "nonpayable",
      "type": "function"
    },
    {
      "inputs": [],
      "name": "harvestTime",
      "outputs": [
        {
          "internalType": "uint256",
          "name": "",
          "type": "uint256"
        }
      ],
      "stateMutability": "view",
      "type": "function"
    },
    {
      "inputs": [],
      "name": "multiplier",
      "outputs": [
        {
          "internalType": "uint256",
          "name": "",
          "type": "uint256"
        }
      ],
      "stateMutability": "view",
      "type": "function"
    },
    {
      "inputs": [],
      "name": "offeringAmount",
      "outputs": [
        {
          "internalType": "uint256",
          "name": "",
          "type": "uint256"
        }
      ],
      "stateMutability": "view",
      "type": "function"
    },
    {
      "inputs": [],
      "name": "offeringToken",
      "outputs": [
        {
          "internalType": "contract ERC20",
          "name": "",
          "type": "address"
        }
      ],
      "stateMutability": "view",
      "type": "function"
    },
    {
      "inputs": [],
      "name": "owner",
      "outputs": [
        {
          "internalType": "address",
          "name": "",
          "type": "address"
        }
      ],
      "stateMutability": "view",
      "type": "function"
    },
    {
      "inputs": [],
      "name": "pause",
      "outputs": [],
      "stateMutability": "nonpayable",
      "type": "function"
    },
    {
      "inputs": [],
      "name": "paused",
      "outputs": [
        {
          "internalType": "bool",
          "name": "",
          "type": "bool"
        }
      ],
      "stateMutability": "view",
      "type": "function"
    },
    {
      "inputs": [],
      "name": "raisingAmount",
      "outputs": [
        {
          "internalType": "uint256",
          "name": "",
          "type": "uint256"
        }
      ],
      "stateMutability": "view",
      "type": "function"
    },
    {
      "inputs": [],
      "name": "renounceOwnership",
      "outputs": [],
      "stateMutability": "nonpayable",
      "type": "function"
    },
    {
      "inputs": [
        {
          "internalType": "uint256",
          "name": "mul",
          "type": "uint256"
        }
      ],
      "name": "setMultiplier",
      "outputs": [],
      "stateMutability": "nonpayable",
      "type": "function"
    },
    {
      "inputs": [
        {
          "internalType": "uint256",
          "name": "_offerAmount",
          "type": "uint256"
        }
      ],
      "name": "setOfferingAmount",
      "outputs": [],
      "stateMutability": "nonpayable",
      "type": "function"
    },
    {
      "inputs": [
        {
          "internalType": "uint256",
          "name": "_raisingAmount",
          "type": "uint256"
        }
      ],
      "name": "setRaisingAmount",
      "outputs": [],
      "stateMutability": "nonpayable",
      "type": "function"
    },
    {
      "inputs": [
        {
          "internalType": "uint256",
          "name": "id",
          "type": "uint256"
        }
      ],
      "name": "setSnapshotFrom",
      "outputs": [],
      "stateMutability": "nonpayable",
      "type": "function"
    },
    {
      "inputs": [
        {
          "internalType": "uint256",
          "name": "id",
          "type": "uint256"
        }
      ],
      "name": "setSnapshotTo",
      "outputs": [],
      "stateMutability": "nonpayable",
      "type": "function"
    },
    {
      "inputs": [
        {
          "internalType": "uint256",
          "name": "vestingTime",
          "type": "uint256"
        },
        {
          "internalType": "uint256",
          "name": "vestingAlloc",
          "type": "uint256"
        }
      ],
      "name": "setVestingSchedule",
      "outputs": [],
      "stateMutability": "nonpayable",
      "type": "function"
    },
    {
      "inputs": [],
      "name": "snapshotFrom",
      "outputs": [
        {
          "internalType": "uint256",
          "name": "",
          "type": "uint256"
        }
      ],
      "stateMutability": "view",
      "type": "function"
    },
    {
      "inputs": [],
      "name": "snapshotTo",
      "outputs": [
        {
          "internalType": "uint256",
          "name": "",
          "type": "uint256"
        }
      ],
      "stateMutability": "view",
      "type": "function"
    },
    {
      "inputs": [],
      "name": "startTime",
      "outputs": [
        {
          "internalType": "uint256",
          "name": "",
          "type": "uint256"
        }
      ],
      "stateMutability": "view",
      "type": "function"
    },
    {
      "inputs": [],
      "name": "tierSystem",
      "outputs": [
        {
          "internalType": "contract ITierSystem",
          "name": "",
          "type": "address"
        }
      ],
      "stateMutability": "view",
      "type": "function"
    },
    {
      "inputs": [],
      "name": "totalAmount",
      "outputs": [
        {
          "internalType": "uint256",
          "name": "",
          "type": "uint256"
        }
      ],
      "stateMutability": "view",
      "type": "function"
    },
    {
      "inputs": [
        {
          "internalType": "address",
          "name": "newOwner",
          "type": "address"
        }
      ],
      "name": "transferOwnership",
      "outputs": [],
      "stateMutability": "nonpayable",
      "type": "function"
    },
    {
      "inputs": [],
      "name": "unpause",
      "outputs": [],
      "stateMutability": "nonpayable",
      "type": "function"
    },
    {
      "inputs": [
        {
          "internalType": "uint256",
          "name": "_newTime",
          "type": "uint256"
        }
      ],
      "name": "updateEndTime",
      "outputs": [],
      "stateMutability": "nonpayable",
      "type": "function"
    },
    {
      "inputs": [
        {
          "internalType": "uint256",
          "name": "_newTime",
          "type": "uint256"
        }
      ],
      "name": "updateHarvestTime",
      "outputs": [],
      "stateMutability": "nonpayable",
      "type": "function"
    },
    {
      "inputs": [
        {
          "internalType": "address",
          "name": "_newToken",
          "type": "address"
        }
      ],
      "name": "updateOfferingToken",
      "outputs": [],
      "stateMutability": "nonpayable",
      "type": "function"
    },
    {
      "inputs": [
        {
          "internalType": "uint256",
          "name": "id",
          "type": "uint256"
        },
        {
          "internalType": "uint256",
          "name": "vestingTime",
          "type": "uint256"
        },
        {
          "internalType": "uint256",
          "name": "vestingAlloc",
          "type": "uint256"
        }
      ],
      "name": "updateVestingSchedule",
      "outputs": [],
      "stateMutability": "nonpayable",
      "type": "function"
    },
    {
      "inputs": [
        {
          "internalType": "address",
          "name": "",
          "type": "address"
        }
      ],
      "name": "userInfo",
      "outputs": [
        {
          "internalType": "uint256",
          "name": "amount",
          "type": "uint256"
        },
        {
          "internalType": "uint256",
          "name": "claimedAmount",
          "type": "uint256"
        },
        {
          "internalType": "uint256",
          "name": "latestVesting",
          "type": "uint256"
        },
        {
          "internalType": "bool",
          "name": "refunded",
          "type": "bool"
        }
      ],
      "stateMutability": "view",
      "type": "function"
    },
    {
      "inputs": [],
      "name": "vestingAllocRemaining",
      "outputs": [
        {
          "internalType": "uint256",
          "name": "",
          "type": "uint256"
        }
      ],
      "stateMutability": "view",
      "type": "function"
    },
    {
      "inputs": [
        {
          "internalType": "uint256",
          "name": "",
          "type": "uint256"
        }
      ],
      "name": "vestingSchedules",
      "outputs": [
        {
          "internalType": "uint256",
          "name": "vestingTime",
          "type": "uint256"
        },
        {
          "internalType": "uint256",
          "name": "vestingAllocation",
          "type": "uint256"
        }
      ],
      "stateMutability": "view",
      "type": "function"
    }
  ],
  "bytecode": "0x60806040526127106011553480156200001757600080fd5b506040516200312b3803806200312b8339810160408190526200003a9162000140565b60016000556200004a33620000ee565b6001805460ff60a01b191690558787108015906200006757508888115b80156200007357504289115b6200007d57600080fd5b600280546001600160a01b03199081166001600160a01b039d8e16179091556003805482169b8d169b909b17909a556004989098556005969096556006949094556008929092556007556000600955600c8054909516951694909417909255600d92909255600e55600f55620001fe565b600180546001600160a01b038381166001600160a01b0319831681179093556040519116919082907f8be0079c531659141344cd1fd0a4f28419497f9722a3daafe3b4186f6b6457e090600090a35050565b60008060008060008060008060008060006101608c8e03121562000162578687fd5b8b516200016f81620001e5565b60208d0151909b506200018281620001e5565b809a505060408c0151985060608c0151975060808c0151965060a08c0151955060c08c0151945060e08c0151620001b981620001e5565b809450506101008c015192506101208c015191506101408c015190509295989b509295989b9093969950565b6001600160a01b0381168114620001fb57600080fd5b50565b612f1d806200020e6000396000f3fe60806040526004361061027e5760003560e01c806378e979251161014e578063c2c9721b116100bb578063f2fde38b11610077578063f2fde38b146107b4578063f432228f146107d4578063f4808210146107f4578063f5bf95241461080a578063f8caa7e514610820578063fc00358e1461084057005b8063c2c9721b14610709578063d0e02ddb14610729578063d16bba941461073e578063dd271e931461075e578063e1af9a951461077e578063eadbd7881461079457005b8063ac3ff9121161010a578063ac3ff91214610656578063b45aae5214610676578063b6b55f2514610696578063b7813607146106a9578063b810fb43146106c9578063b920ade2146106e957005b806378e97925146105ae5780638456cb59146105c45780638da5cb5b146105d95780639bd11abe1461060b5780639c0a766914610620578063a48217191461063657005b80634225c32f116101ec578063641579a6116101a8578063641579a6146104e45780636a2ce513146105045780636ab3846b146105245780636d3cbe2114610544578063715018a61461057957806376ea6ee01461058e57005b80634225c32f1461041d5780634641257d1461043d5780634de18ffa146104525780635a9b0b89146104725780635c975abb1461049a5780636382d9ad146104c457005b806327d1b1a21161023b57806327d1b1a21461037c5780632f5105f81461039c5780632fad01a3146103bc5780633197cbb6146103dc578063343e31f5146103f25780633f4ba83a1461040857005b80630a2642bf146102805780630e022923146102b35780631959a002146102d35780631a39d8ef1461033a5780631b3ed7221461035057806322b3317514610366575b005b34801561028c57600080fd5b506102a061029b366004612acc565b610855565b6040519081526020015b60405180910390f35b3480156102bf57600080fd5b506102a06102ce3660046129ba565b6109cb565b3480156102df57600080fd5b506103186102ee3660046129ba565b600a6020526000908152604090208054600182015460028301546003909301549192909160ff1684565b60408051948552602085019390935291830152151560608201526080016102aa565b34801561034657600080fd5b506102a060095481565b34801561035c57600080fd5b506102a0600f5481565b34801561037257600080fd5b506102a0600e5481565b34801561038857600080fd5b5061027e610397366004612acc565b610a71565b3480156103a857600080fd5b506102a06103b73660046129ba565b610aca565b3480156103c857600080fd5b506102a06103d73660046129ba565b610b4b565b3480156103e857600080fd5b506102a060055481565b3480156103fe57600080fd5b506102a0600d5481565b34801561041457600080fd5b5061027e610bbb565b34801561042957600080fd5b5061027e610438366004612acc565b610bef565b34801561044957600080fd5b5061027e610c3f565b34801561045e57600080fd5b506102a061046d3660046129ba565b610f2a565b34801561047e57600080fd5b50610487610ff1565b6040516102aa9796959493929190612cb3565b3480156104a657600080fd5b50600154600160a01b900460ff1660405190151581526020016102aa565b3480156104d057600080fd5b5061027e6104df3660046129d6565b6110e9565b3480156104f057600080fd5b5061027e6104ff366004612acc565b6111ed565b34801561051057600080fd5b506102a061051f3660046129ba565b61121c565b34801561053057600080fd5b5061027e61053f366004612acc565b611335565b34801561055057600080fd5b5061056461055f366004612acc565b6113b1565b604080519283526020830191909152016102aa565b34801561058557600080fd5b5061027e6113df565b34801561059a57600080fd5b5061027e6105a9366004612acc565b611413565b3480156105ba57600080fd5b506102a060045481565b3480156105d057600080fd5b5061027e61148f565b3480156105e557600080fd5b506001546001600160a01b03165b6040516001600160a01b0390911681526020016102aa565b34801561061757600080fd5b506010546102a0565b34801561062c57600080fd5b506102a060075481565b34801561064257600080fd5b506002546105f3906001600160a01b031681565b34801561066257600080fd5b5061027e6106713660046129ba565b6114c1565b34801561068257600080fd5b506102a06106913660046129ba565b611641565b61027e6106a4366004612acc565b6116ca565b3480156106b557600080fd5b506003546105f3906001600160a01b031681565b3480156106d557600080fd5b506105f36106e4366004612acc565b6119cc565b3480156106f557600080fd5b506102a06107043660046129ba565b6119f6565b34801561071557600080fd5b5061027e610724366004612acc565b611a2a565b34801561073557600080fd5b506102a0611a96565b34801561074a57600080fd5b5061027e610759366004612acc565b611b02565b34801561076a57600080fd5b5061027e610779366004612b1d565b611b6e565b34801561078a57600080fd5b506102a060085481565b3480156107a057600080fd5b5061027e6107af3660046129ba565b611e94565b3480156107c057600080fd5b5061027e6107cf3660046129ba565b611f06565b3480156107e057600080fd5b5061027e6107ef366004612afc565b611f9e565b34801561080057600080fd5b506102a060065481565b34801561081657600080fd5b506102a060115481565b34801561082c57600080fd5b50600c546105f3906001600160a01b031681565b34801561084c57600080fd5b50600b546102a0565b600c5460405163bbc3f7cf60e01b81526004810183905260009182916001600160a01b039091169063bbc3f7cf9060240160206040518083038186803b15801561089e57600080fd5b505afa1580156108b2573d6000803e3d6000fd5b505050506040513d601f19601f820116820180604052508101906108d69190612ae4565b6002549091506001600160a01b03166109235761091c612710610916670de0b6b3a7640000610910600f548661226c90919063ffffffff16565b9061226c565b90612278565b9392505050565b61091c612710610916600260009054906101000a90046001600160a01b03166001600160a01b031663313ce5676040518163ffffffff1660e01b815260040160206040518083038186803b15801561097a57600080fd5b505afa15801561098e573d6000803e3d6000fd5b505050506040513d601f19601f820116820180604052508101906109b29190612b48565b6109bd90600a612d7e565b600f5461091090869061226c565b600c54600d54600e54604051636002de6760e01b815260009384936001600160a01b0390911692636002de6792610a089288929091600401612c04565b60206040518083038186803b158015610a2057600080fd5b505afa158015610a34573d6000803e3d6000fd5b505050506040513d601f19601f82011682018060405250810190610a589190612ae4565b905080610a685750600092915050565b61091c81610855565b6001546001600160a01b03163314610aa45760405162461bcd60e51b8152600401610a9b90612c7e565b60405180910390fd5b6004544210610ac55760405162461bcd60e51b8152600401610a9b90612c62565b600855565b600060075460095411610adf57506000919050565b6000610aea836119f6565b90506000610b0f670de0b6b3a76400006109168460075461226c90919063ffffffff16565b6001600160a01b0385166000908152600a6020526040902054909150610b439061271090610b3d9084612284565b90612284565b949350505050565b60006007546009541115610b87576000610b64836119f6565b905061091c670de0b6b3a76400006109168360085461226c90919063ffffffff16565b6007546008546001600160a01b0384166000908152600a6020526040902054610bb59291610916919061226c565b92915050565b6001546001600160a01b03163314610be55760405162461bcd60e51b8152600401610a9b90612c7e565b610bed612290565b565b6001546001600160a01b03163314610c195760405162461bcd60e51b8152600401610a9b90612c7e565b6004544210610c3a5760405162461bcd60e51b8152600401610a9b90612c62565b600755565b60026000541415610c925760405162461bcd60e51b815260206004820152601f60248201527f5265656e7472616e637947756172643a207265656e7472616e742063616c6c006044820152606401610a9b565b60026000556006544211610cdb5760405162461bcd60e51b815260206004820152601060248201526f6e6f7420686172766573742074696d6560801b6044820152606401610a9b565b336000908152600a6020526040902054610d305760405162461bcd60e51b81526020600482015260166024820152756861766520796f75207061727469636970617465643f60501b6044820152606401610a9b565b601054610d7f5760405162461bcd60e51b815260206004820152601960248201527f76657374696e67207363686564756c65206e6f742073657421000000000000006044820152606401610a9b565b600154600160a01b900460ff1615610da95760405162461bcd60e51b8152600401610a9b90612c38565b6000610db433610f2a565b905060008111610df75760405162461bcd60e51b815260206004820152600e60248201526d6e6f7420636c61696d61626c652160901b6044820152606401610a9b565b6000610e0233610aca565b600354909150610e1c906001600160a01b0316338461232d565b600081118015610e3f5750336000908152600a602052604090206003015460ff16155b15610e98576002546001600160a01b0316610e6357610e5e3382612390565b610e7a565b600254610e7a906001600160a01b0316338361232d565b336000908152600a60205260409020600301805460ff191660011790555b336000908152600a602052604081206001018054849290610eba908490612d03565b90915550610ec89050611a96565b336000818152600a6020908152604091829020600201849055815186815290810185905290810192909252907f4534f107610758c3931de9ad1e176476fcfb8c74adf920167e1d54ee84fcfe769060600160405180910390a250506001600055565b600080610f3683610b4b565b90506000610f42611a96565b6001600160a01b0385166000908152600a60205260409020600201549091508115801590610f6f57508181105b15610fe957805b82811015610fe757610fc961271061091660108481548110610fa857634e487b7160e01b600052603260045260246000fd5b9060005260206000209060020201600101548761226c90919063ffffffff16565b610fd39086612d03565b945080610fdf81612e8b565b915050610f76565b505b505050919050565b610ff9612989565b611001612989565b6000806000806000611011612989565b6002546001600160a01b031661109257604051806080016040528060006001600160a01b03168152602001601281526020016040518060400160405280600b81526020016a25b0b93234b0a1b430b4b760a91b8152508152602001604051806040016040528060038152602001624b414960e81b81525081525090506110aa565b6002546110a7906001600160a01b0316612459565b90505b6003546000906110c2906001600160a01b0316612459565b600454600554600654600854600754969e949d50929b509099509750955091935090915050565b6001546001600160a01b031633146111135760405162461bcd60e51b8152600401610a9b90612c7e565b6001600160a01b03821661115b576040516001600160a01b038216904780156108fc02916000818181858888f19350505050158015611156573d6000803e3d6000fd5b505050565b6040516370a0823160e01b81523060048201526111e99082906001600160a01b038516906370a082319060240160206040518083038186803b1580156111a057600080fd5b505afa1580156111b4573d6000803e3d6000fd5b505050506040513d601f19601f820116820180604052508101906111d89190612ae4565b6001600160a01b038516919061232d565b5050565b6001546001600160a01b031633146112175760405162461bcd60e51b8152600401610a9b90612c7e565b600f55565b600c54600d54600e54604051636002de6760e01b815260009384936001600160a01b0390911692636002de67926112599288929091600401612c04565b60206040518083038186803b15801561127157600080fd5b505afa158015611285573d6000803e3d6000fd5b505050506040513d601f19601f820116820180604052508101906112a99190612ae4565b9050806112b95750600092915050565b600c5460405163bbc3f7cf60e01b8152600481018390526001600160a01b039091169063bbc3f7cf9060240160206040518083038186803b1580156112fd57600080fd5b505afa158015611311573d6000803e3d6000fd5b505050506040513d601f19601f8201168201806040525081019061091c9190612ae4565b6001546001600160a01b0316331461135f5760405162461bcd60e51b8152600401610a9b90612c7e565b428111801561136f575060065481105b6113ac5760405162461bcd60e51b815260206004820152600e60248201526d74696d6520696e76616c6964212160901b6044820152606401610a9b565b600555565b601081815481106113c157600080fd5b60009182526020909120600290910201805460019091015490915082565b6001546001600160a01b031633146114095760405162461bcd60e51b8152600401610a9b90612c7e565b610bed60006125eb565b6001546001600160a01b0316331461143d5760405162461bcd60e51b8152600401610a9b90612c7e565b428111801561144d575060055481115b61148a5760405162461bcd60e51b815260206004820152600e60248201526d74696d6520696e76616c6964212160901b6044820152606401610a9b565b600655565b6001546001600160a01b031633146114b95760405162461bcd60e51b8152600401610a9b90612c7e565b610bed61263d565b6001546001600160a01b031633146114eb5760405162461bcd60e51b8152600401610a9b90612c7e565b6002546001600160a01b031661151c576000600754471061150e57600754611510565b475b90506111e98282612390565b6007546002546040516370a0823160e01b8152306004820152600092916001600160a01b0316906370a082319060240160206040518083038186803b15801561156457600080fd5b505afa158015611578573d6000803e3d6000fd5b505050506040513d601f19601f8201168201806040525081019061159c9190612ae4565b106115a957600754611624565b6002546040516370a0823160e01b81523060048201526001600160a01b03909116906370a082319060240160206040518083038186803b1580156115ec57600080fd5b505afa158015611600573d6000803e3d6000fd5b505050506040513d601f19601f820116820180604052508101906116249190612ae4565b6002549091506111e9906001600160a01b0316838361232d565b50565b600c54600d54600e54604051636002de6760e01b81526000936001600160a01b031692636002de679261167a9287929190600401612c04565b60206040518083038186803b15801561169257600080fd5b505afa1580156116a6573d6000803e3d6000fd5b505050506040513d601f19601f82011682018060405250810190610bb59190612ae4565b6002600054141561171d5760405162461bcd60e51b815260206004820152601f60248201527f5265656e7472616e637947756172643a207265656e7472616e742063616c6c006044820152606401610a9b565b6002600055600454819042118015611736575060055442105b6117755760405162461bcd60e51b815260206004820152601060248201526f6e6f742072616973696e672074696d6560801b6044820152606401610a9b565b600081116117b85760405162461bcd60e51b815260206004820152601060248201526f06e656564205f616d6f756e74203e20360841b6044820152606401610a9b565b600154600160a01b900460ff16156117e25760405162461bcd60e51b8152600401610a9b90612c38565b60006117ed336126a2565b336000908152600a602052604090205490915081116118465760405162461bcd60e51b81526020600482015260156024820152746e6f7420656c696769626c6520616d6f756e74212160581b6044820152606401610a9b565b336000908152600a60205260408120546118609083612e48565b9050838082101561186e5750805b6002546001600160a01b03166118e257803410156118c25760405162461bcd60e51b81526020600482015260116024820152700c2dadeeadce840dcdee840cadcdeeaced607b1b6044820152606401610a9b565b803411156118dd576118dd336118d88334612e48565b612390565b6118fa565b6002546118fa906001600160a01b0316333084612733565b336000908152600a602052604090205461195157600b80546001810182556000919091527f0175b7a638427703f0dbe7bb9bbf987a2551717b34e79f33b5b1008d1fa01db90180546001600160a01b031916331790555b336000908152600a602052604090205461196b9082612771565b336000908152600a60205260409020556009546119889082612771565b60095560405181815233907fe1fffcc4923d04b559f4d29a8bfc6cda04eb5b0d3c460751c2402c5c5cc9109c9060200160405180910390a250506001600055505050565b600b81815481106119dc57600080fd5b6000918252602090912001546001600160a01b0316905081565b6009546001600160a01b0382166000908152600a60205260408120549091610bb59161091690670de0b6b3a764000061226c565b6001546001600160a01b03163314611a545760405162461bcd60e51b8152600401610a9b90612c7e565b60008111611a915760405162461bcd60e51b815260206004820152600a6024820152691259081a5b9d985b1a5960b21b6044820152606401610a9b565b600e55565b6000805b601054811015611afe574260108281548110611ac657634e487b7160e01b600052603260045260246000fd5b9060005260206000209060020201600001541015611aec57611ae9816001612d03565b91505b80611af681612e8b565b915050611a9a565b5090565b6001546001600160a01b03163314611b2c5760405162461bcd60e51b8152600401610a9b90612c7e565b60008111611b695760405162461bcd60e51b815260206004820152600a6024820152691259081a5b9d985b1a5960b21b6044820152606401610a9b565b600d55565b6001546001600160a01b03163314611b985760405162461bcd60e51b8152600401610a9b90612c7e565b6010548310611bd65760405162461bcd60e51b815260206004820152600a6024820152691a59081a5b9d985b1a5960b21b6044820152606401610a9b565b4282118015611be6575060065482115b611c285760405162461bcd60e51b81526020600482015260136024820152721d995cdd1a5b99d51a5b59481a5b9d985b1a59606a1b6044820152606401610a9b565b600060108481548110611c4b57634e487b7160e01b600052603260045260246000fd5b9060005260206000209060020201905042816000015411611ca65760405162461bcd60e51b815260206004820152601560248201527414d8da19591d5b19481dd85cc81a185c1c195b9959605a1b6044820152606401610a9b565b611cb1846001612d03565b6010541115611d37576010611cc7856001612d03565b81548110611ce557634e487b7160e01b600052603260045260246000fd5b9060005260206000209060020201600001548310611d375760405162461bcd60e51b815260206004820152600f60248201526e6e6578742074696d652077726f6e6760881b6044820152606401610a9b565b6010546001108015611d495750600084115b15611dcf576010611d5b600186612e48565b81548110611d7957634e487b7160e01b600052603260045260246000fd5b9060005260206000209060020201600001548311611dcf5760405162461bcd60e51b815260206004820152601360248201527270726576696f75732074696d652077726f6e6760681b6044820152606401610a9b565b600080611df584611def856001015460115461277190919063ffffffff16565b9061277d565b9150915081611e3c5760405162461bcd60e51b8152602060048201526013602482015272616c6c6f636174696f6e20696e76616c69642160681b6044820152606401610a9b565b60118190558483556001830184905560408051878152602081018790529081018590527fb5dde0136ce4851e81eb871b719bcb9b036b8a17382821ee7bb204de220dee689060600160405180910390a1505050505050565b6001546001600160a01b03163314611ebe5760405162461bcd60e51b8152600401610a9b90612c7e565b6001600160a01b038116611ee45760405162461bcd60e51b8152600401610a9b90612c62565b600380546001600160a01b0319166001600160a01b0392909216919091179055565b6001546001600160a01b03163314611f305760405162461bcd60e51b8152600401610a9b90612c7e565b6001600160a01b038116611f955760405162461bcd60e51b815260206004820152602660248201527f4f776e61626c653a206e6577206f776e657220697320746865207a65726f206160448201526564647265737360d01b6064820152608401610a9b565b61163e816125eb565b6001546001600160a01b03163314611fc85760405162461bcd60e51b8152600401610a9b90612c7e565b4282118015611fd8575060065482115b8015611fe657506127108111155b6120215760405162461bcd60e51b815260206004820152600c60248201526b1859dc9cc81a5b9d985b1a5960a21b6044820152606401610a9b565b6011548111156120695760405162461bcd60e51b8152602060048201526013602482015272185b1b1bd8d85d1a5bdb881bdd995c9b1bd859606a1b6044820152606401610a9b565b806011600082825461207b9190612e48565b90915550506040805180820190915282815260208101829052601054612106576010805460018101825560009190915281517f1b6847dc741a1b0cd08d278845f9d819d87b734759afb55fe2de5cb82a9ae67260029092029182015560208201517f1b6847dc741a1b0cd08d278845f9d819d87b734759afb55fe2de5cb82a9ae67390910155612218565b601080546000919061211a90600190612e48565b8154811061213857634e487b7160e01b600052603260045260246000fd5b9060005260206000209060020201604051806040016040529081600082015481526020016001820154815250509050806000015184116121b05760405162461bcd60e51b815260206004820152601360248201527276657374696e672074696d652077726f6e672160681b6044820152606401610a9b565b506010805460018101825560009190915281517f1b6847dc741a1b0cd08d278845f9d819d87b734759afb55fe2de5cb82a9ae67260029092029182015560208201517f1b6847dc741a1b0cd08d278845f9d819d87b734759afb55fe2de5cb82a9ae673909101555b6010547f5edfe841f42afce7b83669388f1054e0928fa51e32d7c0bd6d5dac15c0b64e699061224990600190612e48565b6040805191825260208201869052810184905260600160405180910390a1505050565b600061091c8284612e29565b600061091c8284612d1b565b600061091c8284612e48565b600154600160a01b900460ff166122e05760405162461bcd60e51b815260206004820152601460248201527314185d5cd8589b194e881b9bdd081c185d5cd95960621b6044820152606401610a9b565b6001805460ff60a01b191690557f5db9ee0a495bf2e6ff9c91a7834c1ba4fdd244a5e8aa4e537bd38aeae4b073aa335b6040516001600160a01b03909116815260200160405180910390a1565b6040516001600160a01b03831660248201526044810182905261115690849063a9059cbb60e01b906064015b60408051601f198184030181529190526020810180516001600160e01b03166001600160e01b0319909316929092179091526127a3565b604080516000808252602082019092526001600160a01b0384169083906040516123ba9190612be8565b60006040518083038185875af1925050503d80600081146123f7576040519150601f19603f3d011682016040523d82523d6000602084013e6123fc565b606091505b50509050806111565760405162461bcd60e51b815260206004820152602360248201527f5472616e7366657248656c7065723a204b41495f5452414e534645525f46414960448201526213115160ea1b6064820152608401610a9b565b612461612989565b6040518060800160405280836001600160a01b03168152602001836001600160a01b031663313ce5676040518163ffffffff1660e01b815260040160206040518083038186803b1580156124b457600080fd5b505afa1580156124c8573d6000803e3d6000fd5b505050506040513d601f19601f820116820180604052508101906124ec9190612b48565b60ff168152602001836001600160a01b03166306fdde036040518163ffffffff1660e01b815260040160006040518083038186803b15801561252d57600080fd5b505afa158015612541573d6000803e3d6000fd5b505050506040513d6000823e601f3d908101601f191682016040526125699190810190612a2e565b8152602001836001600160a01b03166395d89b416040518163ffffffff1660e01b815260040160006040518083038186803b1580156125a757600080fd5b505afa1580156125bb573d6000803e3d6000fd5b505050506040513d6000823e601f3d908101601f191682016040526125e39190810190612a2e565b905292915050565b600180546001600160a01b038381166001600160a01b0319831681179093556040519116919082907f8be0079c531659141344cd1fd0a4f28419497f9722a3daafe3b4186f6b6457e090600090a35050565b600154600160a01b900460ff16156126675760405162461bcd60e51b8152600401610a9b90612c38565b6001805460ff60a01b1916600160a01b1790557f62e78cea01bee320cd4e420270b5ea74000d11b0c9f74754ebdbfc544b05a2586123103390565b600080600d541180156126b85750600d54600e54115b6126fa5760405162461bcd60e51b815260206004820152601360248201527214db985c1cda1bdd081a59081b9bdd081cd95d606a1b6044820152606401610a9b565b600c54600d54600e54604051636002de6760e01b81526000936001600160a01b031692636002de6792610a089288929190600401612c04565b6040516001600160a01b038085166024830152831660448201526064810182905261276b9085906323b872dd60e01b90608401612359565b50505050565b600061091c8284612d03565b600080838311156127935750600090508061279c565b50600190508183035b9250929050565b60006127f8826040518060400160405280602081526020017f5361666545524332303a206c6f772d6c6576656c2063616c6c206661696c6564815250856001600160a01b03166128759092919063ffffffff16565b80519091501561115657808060200190518101906128169190612a0e565b6111565760405162461bcd60e51b815260206004820152602a60248201527f5361666545524332303a204552433230206f7065726174696f6e20646964206e6044820152691bdd081cdd58d8d9595960b21b6064820152608401610a9b565b6060610b438484600085856001600160a01b0385163b6128d75760405162461bcd60e51b815260206004820152601d60248201527f416464726573733a2063616c6c20746f206e6f6e2d636f6e74726163740000006044820152606401610a9b565b600080866001600160a01b031685876040516128f39190612be8565b60006040518083038185875af1925050503d8060008114612930576040519150601f19603f3d011682016040523d82523d6000602084013e612935565b606091505b5091509150612945828286612950565b979650505050505050565b6060831561295f57508161091c565b82511561296f5782518084602001fd5b8160405162461bcd60e51b8152600401610a9b9190612c25565b604051806080016040528060006001600160a01b031681526020016000815260200160608152602001606081525090565b6000602082840312156129cb578081fd5b813561091c81612ed2565b600080604083850312156129e8578081fd5b82356129f381612ed2565b91506020830135612a0381612ed2565b809150509250929050565b600060208284031215612a1f578081fd5b8151801515811461091c578182fd5b600060208284031215612a3f578081fd5b815167ffffffffffffffff80821115612a56578283fd5b818401915084601f830112612a69578283fd5b815181811115612a7b57612a7b612ebc565b604051601f8201601f19908116603f01168101908382118183101715612aa357612aa3612ebc565b81604052828152876020848701011115612abb578586fd5b612945836020830160208801612e5f565b600060208284031215612add578081fd5b5035919050565b600060208284031215612af5578081fd5b5051919050565b60008060408385031215612b0e578182fd5b50508035926020909101359150565b600080600060608486031215612b31578081fd5b505081359360208301359350604090920135919050565b600060208284031215612b59578081fd5b815160ff8116811461091c578182fd5b60008151808452612b81816020860160208601612e5f565b601f01601f19169290920160200192915050565b60018060a01b038151168252602081015160208301526000604082015160806040850152612bc66080850182612b69565b905060608301518482036060860152612bdf8282612b69565b95945050505050565b60008251612bfa818460208701612e5f565b9190910192915050565b6001600160a01b039390931683526020830191909152604082015260600190565b60208152600061091c6020830184612b69565b60208082526010908201526f14185d5cd8589b194e881c185d5cd95960821b604082015260600190565b6020808252600290820152616e6f60f01b604082015260600190565b6020808252818101527f4f776e61626c653a2063616c6c6572206973206e6f7420746865206f776e6572604082015260600190565b60e081526000612cc660e083018a612b95565b8281036020840152612cd8818a612b95565b604084019890985250506060810194909452608084019290925260a083015260c09091015292915050565b60008219821115612d1657612d16612ea6565b500190565b600082612d3657634e487b7160e01b81526012600452602481fd5b500490565b600181815b80851115612d76578160001904821115612d5c57612d5c612ea6565b80851615612d6957918102915b93841c9390800290612d40565b509250929050565b600061091c60ff841683600082612d9757506001610bb5565b81612da457506000610bb5565b8160018114612dba5760028114612dc457612de0565b6001915050610bb5565b60ff841115612dd557612dd5612ea6565b50506001821b610bb5565b5060208310610133831016604e8410600b8410161715612e03575081810a610bb5565b612e0d8383612d3b565b8060001904821115612e2157612e21612ea6565b029392505050565b6000816000190483118215151615612e4357612e43612ea6565b500290565b600082821015612e5a57612e5a612ea6565b500390565b60005b83811015612e7a578181015183820152602001612e62565b8381111561276b5750506000910152565b6000600019821415612e9f57612e9f612ea6565b5060010190565b634e487b7160e01b600052601160045260246000fd5b634e487b7160e01b600052604160045260246000fd5b6001600160a01b038116811461163e57600080fdfea26469706673582212208bfd6f1a9799cca50955e93b0b6d38732cee9feeb662b6fd714626294fceeff364736f6c63430008040033",
  "linkReferences": {},
  "deployedLinkReferences": {}
}