{
  "_format": "hh-sol-artifact-1",
  "contractName": "IDOVesting",
  "sourceName": "contracts/launchpad/vesting/IDOVesting.sol",
  "abi": [
    {
      "inputs": [
        {
          "internalType": "contract ERC20",
          "name": "_buyToken",
          "type": "address"
        },
        {
          "internalType": "contract ERC20",
          "name": "_offeringToken",
          "type": "address"
        },
        {
          "internalType": "uint256",
          "name": "_startTime",
          "type": "uint256"
        },
        {
          "internalType": "uint256",
          "name": "_endTime",
          "type": "uint256"
        },
        {
          "internalType": "uint256",
          "name": "_harvestTime",
          "type": "uint256"
        },
        {
          "internalType": "uint256",
          "name": "_offeringAmount",
          "type": "uint256"
        },
        {
          "internalType": "uint256",
          "name": "_raisingAmount",
          "type": "uint256"
        },
        {
          "internalType": "contract ITierSystem",
          "name": "_tierSystem",
          "type": "address"
        },
        {
          "internalType": "uint256",
          "name": "_snapshotFrom",
          "type": "uint256"
        },
        {
          "internalType": "uint256",
          "name": "_snapshotTo",
          "type": "uint256"
        },
        {
          "internalType": "uint256",
          "name": "_multiplier",
          "type": "uint256"
        }
      ],
      "stateMutability": "nonpayable",
      "type": "constructor"
    },
    {
      "anonymous": false,
      "inputs": [
        {
          "indexed": false,
          "internalType": "uint256",
          "name": "scheduleId",
          "type": "uint256"
        },
        {
          "indexed": false,
          "internalType": "uint256",
          "name": "vestingTime",
          "type": "uint256"
        },
        {
          "indexed": false,
          "internalType": "uint256",
          "name": "vestingAlloc",
          "type": "uint256"
        }
      ],
      "name": "AddVestingSchedule",
      "type": "event"
    },
    {
      "anonymous": false,
      "inputs": [
        {
          "indexed": true,
          "internalType": "address",
          "name": "user",
          "type": "address"
        },
        {
          "indexed": false,
          "internalType": "uint256",
          "name": "amount",
          "type": "uint256"
        }
      ],
      "name": "Deposit",
      "type": "event"
    },
    {
      "anonymous": false,
      "inputs": [
        {
          "indexed": true,
          "internalType": "address",
          "name": "user",
          "type": "address"
        },
        {
          "indexed": false,
          "internalType": "uint256",
          "name": "offeringAmount",
          "type": "uint256"
        },
        {
          "indexed": false,
          "internalType": "uint256",
          "name": "excessAmount",
          "type": "uint256"
        },
        {
          "indexed": false,
          "internalType": "uint256",
          "name": "vestingSchedule",
          "type": "uint256"
        }
      ],
      "name": "Harvest",
      "type": "event"
    },
    {
      "anonymous": false,
      "inputs": [
        {
          "indexed": true,
          "internalType": "address",
          "name": "previousOwner",
          "type": "address"
        },
        {
          "indexed": true,
          "internalType": "address",
          "name": "newOwner",
          "type": "address"
        }
      ],
      "name": "OwnershipTransferred",
      "type": "event"
    },
    {
      "anonymous": false,
      "inputs": [
        {
          "indexed": false,
          "internalType": "address",
          "name": "account",
          "type": "address"
        }
      ],
      "name": "Paused",
      "type": "event"
    },
    {
      "anonymous": false,
      "inputs": [
        {
          "indexed": false,
          "internalType": "address",
          "name": "account",
          "type": "address"
        }
      ],
      "name": "Unpaused",
      "type": "event"
    },
    {
      "anonymous": false,
      "inputs": [
        {
          "indexed": false,
          "internalType": "uint256",
          "name": "scheduleId",
          "type": "uint256"
        },
        {
          "indexed": false,
          "internalType": "uint256",
          "name": "newVestingTime",
          "type": "uint256"
        },
        {
          "indexed": false,
          "internalType": "uint256",
          "name": "newVestingAlloc",
          "type": "uint256"
        }
      ],
      "name": "UpdateVestingSchedule",
      "type": "event"
    },
    {
      "stateMutability": "payable",
      "type": "fallback"
    },
    {
      "inputs": [
        {
          "internalType": "uint256",
          "name": "",
          "type": "uint256"
        }
      ],
      "name": "addressList",
      "outputs": [
        {
          "internalType": "address",
          "name": "",
          "type": "address"
        }
      ],
      "stateMutability": "view",
      "type": "function"
    },
    {
      "inputs": [
        {
          "internalType": "uint256",
          "name": "_tier",
          "type": "uint256"
        }
      ],
      "name": "allocations",
      "outputs": [
        {
          "internalType": "uint256",
          "name": "",
          "type": "uint256"
        }
      ],
      "stateMutability": "view",
      "type": "function"
    },
    {
      "inputs": [],
      "name": "buyToken",
      "outputs": [
        {
          "internalType": "contract ERC20",
          "name": "",
          "type": "address"
        }
      ],
      "stateMutability": "view",
      "type": "function"
    },
    {
      "inputs": [
        {
          "internalType": "uint256",
          "name": "_amount",
          "type": "uint256"
        }
      ],
      "name": "deposit",
      "outputs": [],
      "stateMutability": "payable",
      "type": "function"
    },
    {
      "inputs": [
        {
          "internalType": "address",
          "name": "token",
          "type": "address"
        },
        {
          "internalType": "address payable",
          "name": "to",
          "type": "address"
        }
      ],
      "name": "emergencyWithdraw",
      "outputs": [],
      "stateMutability": "nonpayable",
      "type": "function"
    },
    {
      "inputs": [],
      "name": "endTime",
      "outputs": [
        {
          "internalType": "uint256",
          "name": "",
          "type": "uint256"
        }
      ],
      "stateMutability": "view",
      "type": "function"
    },
    {
      "inputs": [
        {
          "internalType": "address",
          "name": "_destination",
          "type": "address"
        }
      ],
      "name": "finalWithdraw",
      "outputs": [],
      "stateMutability": "nonpayable",
      "type": "function"
    },
    {
      "inputs": [],
      "name": "getAddressListLength",
      "outputs": [
        {
          "internalType": "uint256",
          "name": "",
          "type": "uint256"
        }
      ],
      "stateMutability": "view",
      "type": "function"
    },
    {
      "inputs": [
        {
          "internalType": "address",
          "name": "_account",
          "type": "address"
        }
      ],
      "name": "getAllocation",
      "outputs": [
        {
          "internalType": "uint256",
          "name": "",
          "type": "uint256"
        }
      ],
      "stateMutability": "view",
      "type": "function"
    },
    {
      "inputs": [
        {
          "internalType": "address",
          "name": "_account",
          "type": "address"
        }
      ],
      "name": "getAllocationPoint",
      "outputs": [
        {
          "internalType": "uint256",
          "name": "",
          "type": "uint256"
        }
      ],
      "stateMutability": "view",
      "type": "function"
    },
    {
      "inputs": [],
      "name": "getCurrentValidVestingSchedule",
      "outputs": [
        {
          "internalType": "uint256",
          "name": "id",
          "type": "uint256"
        }
      ],
      "stateMutability": "view",
      "type": "function"
    },
    {
      "inputs": [],
      "name": "getInfo",
      "outputs": [
        {
          "components": [
            {
              "internalType": "contract ERC20",
              "name": "token",
              "type": "address"
            },
            {
              "internalType": "uint256",
              "name": "decimals",
              "type": "uint256"
            },
            {
              "internalType": "string",
              "name": "name",
              "type": "string"
            },
            {
              "internalType": "string",
              "name": "symbol",
              "type": "string"
            }
          ],
          "internalType": "struct IDOVesting.TokenInfo",
          "name": "",
          "type": "tuple"
        },
        {
          "components": [
            {
              "internalType": "contract ERC20",
              "name": "token",
              "type": "address"
            },
            {
              "internalType": "uint256",
              "name": "decimals",
              "type": "uint256"
            },
            {
              "internalType": "string",
              "name": "name",
              "type": "string"
            },
            {
              "internalType": "string",
              "name": "symbol",
              "type": "string"
            }
          ],
          "internalType": "struct IDOVesting.TokenInfo",
          "name": "",
          "type": "tuple"
        },
        {
          "internalType": "uint256",
          "name": "",
          "type": "uint256"
        },
        {
          "internalType": "uint256",
          "name": "",
          "type": "uint256"
        },
        {
          "internalType": "uint256",
          "name": "",
          "type": "uint256"
        },
        {
          "internalType": "uint256",
          "name": "",
          "type": "uint256"
        },
        {
          "internalType": "uint256",
          "name": "",
          "type": "uint256"
        }
      ],
      "stateMutability": "view",
      "type": "function"
    },
    {
      "inputs": [
        {
          "internalType": "address",
          "name": "_user",
          "type": "address"
        }
      ],
      "name": "getOfferingClaimableAmount",
      "outputs": [
        {
          "internalType": "uint256",
          "name": "claimableAmount",
          "type": "uint256"
        }
      ],
      "stateMutability": "view",
      "type": "function"
    },
    {
      "inputs": [
        {
          "internalType": "address",
          "name": "_user",
          "type": "address"
        }
      ],
      "name": "getRefundingAmount",
      "outputs": [
        {
          "internalType": "uint256",
          "name": "",
          "type": "uint256"
        }
      ],
      "stateMutability": "view",
      "type": "function"
    },
    {
      "inputs": [
        {
          "internalType": "address",
          "name": "_account",
          "type": "address"
        }
      ],
      "name": "getTier",
      "outputs": [
        {
          "internalType": "uint256",
          "name": "",
          "type": "uint256"
        }
      ],
      "stateMutability": "view",
      "type": "function"
    },
    {
      "inputs": [
        {
          "internalType": "address",
          "name": "_user",
          "type": "address"
        }
      ],
      "name": "getTotalOfferingAmount",
      "outputs": [
        {
          "internalType": "uint256",
          "name": "",
          "type": "uint256"
        }
      ],
      "stateMutability": "view",
      "type": "function"
    },
    {
      "inputs": [
        {
          "internalType": "address",
          "name": "_user",
          "type": "address"
        }
      ],
      "name": "getUserAllocation",
      "outputs": [
        {
          "internalType": "uint256",
          "name": "",
          "type": "uint256"
        }
      ],
      "stateMutability": "view",
      "type": "function"
    },
    {
      "inputs": [],
      "name": "getVestingScheduleLength",
      "outputs": [
        {
          "internalType": "uint256",
          "name": "",
          "type": "uint256"
        }
      ],
      "stateMutability": "view",
      "type": "function"
    },
    {
      "inputs": [],
      "name": "harvest",
      "outputs": [],
      "stateMutability": "nonpayable",
      "type": "function"
    },
    {
      "inputs": [],
      "name": "harvestTime",
      "outputs": [
        {
          "internalType": "uint256",
          "name": "",
          "type": "uint256"
        }
      ],
      "stateMutability": "view",
      "type": "function"
    },
    {
      "inputs": [],
      "name": "multiplier",
      "outputs": [
        {
          "internalType": "uint256",
          "name": "",
          "type": "uint256"
        }
      ],
      "stateMutability": "view",
      "type": "function"
    },
    {
      "inputs": [],
      "name": "offeringAmount",
      "outputs": [
        {
          "internalType": "uint256",
          "name": "",
          "type": "uint256"
        }
      ],
      "stateMutability": "view",
      "type": "function"
    },
    {
      "inputs": [],
      "name": "offeringToken",
      "outputs": [
        {
          "internalType": "contract ERC20",
          "name": "",
          "type": "address"
        }
      ],
      "stateMutability": "view",
      "type": "function"
    },
    {
      "inputs": [],
      "name": "owner",
      "outputs": [
        {
          "internalType": "address",
          "name": "",
          "type": "address"
        }
      ],
      "stateMutability": "view",
      "type": "function"
    },
    {
      "inputs": [],
      "name": "pause",
      "outputs": [],
      "stateMutability": "nonpayable",
      "type": "function"
    },
    {
      "inputs": [],
      "name": "paused",
      "outputs": [
        {
          "internalType": "bool",
          "name": "",
          "type": "bool"
        }
      ],
      "stateMutability": "view",
      "type": "function"
    },
    {
      "inputs": [],
      "name": "raisingAmount",
      "outputs": [
        {
          "internalType": "uint256",
          "name": "",
          "type": "uint256"
        }
      ],
      "stateMutability": "view",
      "type": "function"
    },
    {
      "inputs": [],
      "name": "renounceOwnership",
      "outputs": [],
      "stateMutability": "nonpayable",
      "type": "function"
    },
    {
      "inputs": [
        {
          "internalType": "uint256",
          "name": "mul",
          "type": "uint256"
        }
      ],
      "name": "setMultiplier",
      "outputs": [],
      "stateMutability": "nonpayable",
      "type": "function"
    },
    {
      "inputs": [
        {
          "internalType": "uint256",
          "name": "_offerAmount",
          "type": "uint256"
        }
      ],
      "name": "setOfferingAmount",
      "outputs": [],
      "stateMutability": "nonpayable",
      "type": "function"
    },
    {
      "inputs": [
        {
          "internalType": "uint256",
          "name": "_raisingAmount",
          "type": "uint256"
        }
      ],
      "name": "setRaisingAmount",
      "outputs": [],
      "stateMutability": "nonpayable",
      "type": "function"
    },
    {
      "inputs": [
        {
          "internalType": "uint256",
          "name": "id",
          "type": "uint256"
        }
      ],
      "name": "setSnapshotFrom",
      "outputs": [],
      "stateMutability": "nonpayable",
      "type": "function"
    },
    {
      "inputs": [
        {
          "internalType": "uint256",
          "name": "id",
          "type": "uint256"
        }
      ],
      "name": "setSnapshotTo",
      "outputs": [],
      "stateMutability": "nonpayable",
      "type": "function"
    },
    {
      "inputs": [
        {
          "internalType": "uint256",
          "name": "vestingTime",
          "type": "uint256"
        },
        {
          "internalType": "uint256",
          "name": "vestingAlloc",
          "type": "uint256"
        }
      ],
      "name": "setVestingSchedule",
      "outputs": [],
      "stateMutability": "nonpayable",
      "type": "function"
    },
    {
      "inputs": [],
      "name": "snapshotFrom",
      "outputs": [
        {
          "internalType": "uint256",
          "name": "",
          "type": "uint256"
        }
      ],
      "stateMutability": "view",
      "type": "function"
    },
    {
      "inputs": [],
      "name": "snapshotTo",
      "outputs": [
        {
          "internalType": "uint256",
          "name": "",
          "type": "uint256"
        }
      ],
      "stateMutability": "view",
      "type": "function"
    },
    {
      "inputs": [],
      "name": "startTime",
      "outputs": [
        {
          "internalType": "uint256",
          "name": "",
          "type": "uint256"
        }
      ],
      "stateMutability": "view",
      "type": "function"
    },
    {
      "inputs": [],
      "name": "tierSystem",
      "outputs": [
        {
          "internalType": "contract ITierSystem",
          "name": "",
          "type": "address"
        }
      ],
      "stateMutability": "view",
      "type": "function"
    },
    {
      "inputs": [],
      "name": "totalAmount",
      "outputs": [
        {
          "internalType": "uint256",
          "name": "",
          "type": "uint256"
        }
      ],
      "stateMutability": "view",
      "type": "function"
    },
    {
      "inputs": [
        {
          "internalType": "address",
          "name": "newOwner",
          "type": "address"
        }
      ],
      "name": "transferOwnership",
      "outputs": [],
      "stateMutability": "nonpayable",
      "type": "function"
    },
    {
      "inputs": [],
      "name": "unpause",
      "outputs": [],
      "stateMutability": "nonpayable",
      "type": "function"
    },
    {
      "inputs": [
        {
          "internalType": "uint256",
          "name": "_newTime",
          "type": "uint256"
        }
      ],
      "name": "updateEndTime",
      "outputs": [],
      "stateMutability": "nonpayable",
      "type": "function"
    },
    {
      "inputs": [
        {
          "internalType": "uint256",
          "name": "_newTime",
          "type": "uint256"
        }
      ],
      "name": "updateHarvestTime",
      "outputs": [],
      "stateMutability": "nonpayable",
      "type": "function"
    },
    {
      "inputs": [
        {
          "internalType": "address",
          "name": "_newToken",
          "type": "address"
        }
      ],
      "name": "updateOfferingToken",
      "outputs": [],
      "stateMutability": "nonpayable",
      "type": "function"
    },
    {
      "inputs": [
        {
          "internalType": "uint256",
          "name": "id",
          "type": "uint256"
        },
        {
          "internalType": "uint256",
          "name": "vestingTime",
          "type": "uint256"
        },
        {
          "internalType": "uint256",
          "name": "vestingAlloc",
          "type": "uint256"
        }
      ],
      "name": "updateVestingSchedule",
      "outputs": [],
      "stateMutability": "nonpayable",
      "type": "function"
    },
    {
      "inputs": [
        {
          "internalType": "address",
          "name": "",
          "type": "address"
        }
      ],
      "name": "userInfo",
      "outputs": [
        {
          "internalType": "uint256",
          "name": "amount",
          "type": "uint256"
        },
        {
          "internalType": "uint256",
          "name": "claimedAmount",
          "type": "uint256"
        },
        {
          "internalType": "uint256",
          "name": "latestVesting",
          "type": "uint256"
        },
        {
          "internalType": "bool",
          "name": "refunded",
          "type": "bool"
        }
      ],
      "stateMutability": "view",
      "type": "function"
    },
    {
      "inputs": [],
      "name": "vestingAllocRemaining",
      "outputs": [
        {
          "internalType": "uint256",
          "name": "",
          "type": "uint256"
        }
      ],
      "stateMutability": "view",
      "type": "function"
    },
    {
      "inputs": [
        {
          "internalType": "uint256",
          "name": "",
          "type": "uint256"
        }
      ],
      "name": "vestingSchedules",
      "outputs": [
        {
          "internalType": "uint256",
          "name": "vestingTime",
          "type": "uint256"
        },
        {
          "internalType": "uint256",
          "name": "vestingAllocation",
          "type": "uint256"
        }
      ],
      "stateMutability": "view",
      "type": "function"
    }
  ],
  "bytecode": "0x60806040526127106011553480156200001757600080fd5b5060405162002ef638038062002ef68339810160408190526200003a9162000140565b60016000556200004a33620000ee565b6001805460ff60a01b191690558787108015906200006757508888115b80156200007357504289115b6200007d57600080fd5b600280546001600160a01b03199081166001600160a01b039d8e16179091556003805482169b8d169b909b17909a556004989098556005969096556006949094556008929092556007556000600955600c8054909516951694909417909255600d92909255600e55600f55620001fe565b600180546001600160a01b038381166001600160a01b0319831681179093556040519116919082907f8be0079c531659141344cd1fd0a4f28419497f9722a3daafe3b4186f6b6457e090600090a35050565b60008060008060008060008060008060006101608c8e03121562000162578687fd5b8b516200016f81620001e5565b60208d0151909b506200018281620001e5565b809a505060408c0151985060608c0151975060808c0151965060a08c0151955060c08c0151945060e08c0151620001b981620001e5565b809450506101008c015192506101208c015191506101408c015190509295989b509295989b9093969950565b6001600160a01b0381168114620001fb57600080fd5b50565b612ce8806200020e6000396000f3fe60806040526004361061027e5760003560e01c806378e979251161014e578063c2c9721b116100bb578063f2fde38b11610077578063f2fde38b146107b4578063f432228f146107d4578063f4808210146107f4578063f5bf95241461080a578063f8caa7e514610820578063fc00358e1461084057005b8063c2c9721b14610709578063d0e02ddb14610729578063d16bba941461073e578063dd271e931461075e578063e1af9a951461077e578063eadbd7881461079457005b8063ac3ff9121161010a578063ac3ff91214610656578063b45aae5214610676578063b6b55f2514610696578063b7813607146106a9578063b810fb43146106c9578063b920ade2146106e957005b806378e97925146105ae5780638456cb59146105c45780638da5cb5b146105d95780639bd11abe1461060b5780639c0a766914610620578063a48217191461063657005b80634225c32f116101ec578063641579a6116101a8578063641579a6146104e45780636a2ce513146105045780636ab3846b146105245780636d3cbe2114610544578063715018a61461057957806376ea6ee01461058e57005b80634225c32f1461041d5780634641257d1461043d5780634de18ffa146104525780635a9b0b89146104725780635c975abb1461049a5780636382d9ad146104c457005b806327d1b1a21161023b57806327d1b1a21461037c5780632f5105f81461039c5780632fad01a3146103bc5780633197cbb6146103dc578063343e31f5146103f25780633f4ba83a1461040857005b80630a2642bf146102805780630e022923146102b35780631959a002146102d35780631a39d8ef1461033a5780631b3ed7221461035057806322b3317514610366575b005b34801561028c57600080fd5b506102a061029b3660046128f6565b610855565b6040519081526020015b60405180910390f35b3480156102bf57600080fd5b506102a06102ce3660046127e4565b6109cb565b3480156102df57600080fd5b506103186102ee3660046127e4565b600a6020526000908152604090208054600182015460028301546003909301549192909160ff1684565b60408051948552602085019390935291830152151560608201526080016102aa565b34801561034657600080fd5b506102a060095481565b34801561035c57600080fd5b506102a0600f5481565b34801561037257600080fd5b506102a0600e5481565b34801561038857600080fd5b5061027e6103973660046128f6565b610a71565b3480156103a857600080fd5b506102a06103b73660046127e4565b610aa8565b3480156103c857600080fd5b506102a06103d73660046127e4565b610b29565b3480156103e857600080fd5b506102a060055481565b3480156103fe57600080fd5b506102a0600d5481565b34801561041457600080fd5b5061027e610b99565b34801561042957600080fd5b5061027e6104383660046128f6565b610bab565b34801561044957600080fd5b5061027e610bd9565b34801561045e57600080fd5b506102a061046d3660046127e4565b610ea2565b34801561047e57600080fd5b50610487610f69565b6040516102aa9796959493929190612a7e565b3480156104a657600080fd5b50600154600160a01b900460ff1660405190151581526020016102aa565b3480156104d057600080fd5b5061027e6104df366004612800565b611061565b3480156104f057600080fd5b5061027e6104ff3660046128f6565b611143565b34801561051057600080fd5b506102a061051f3660046127e4565b611150565b34801561053057600080fd5b5061027e61053f3660046128f6565b611269565b34801561055057600080fd5b5061056461055f3660046128f6565b6112c3565b604080519283526020830191909152016102aa565b34801561058557600080fd5b5061027e6112f1565b34801561059a57600080fd5b5061027e6105a93660046128f6565b611303565b3480156105ba57600080fd5b506102a060045481565b3480156105d057600080fd5b5061027e61135d565b3480156105e557600080fd5b506001546001600160a01b03165b6040516001600160a01b0390911681526020016102aa565b34801561061757600080fd5b506010546102a0565b34801561062c57600080fd5b506102a060075481565b34801561064257600080fd5b506002546105f3906001600160a01b031681565b34801561066257600080fd5b5061027e6106713660046127e4565b61136d565b34801561068257600080fd5b506102a06106913660046127e4565b6114cb565b61027e6106a43660046128f6565b611554565b3480156106b557600080fd5b506003546105f3906001600160a01b031681565b3480156106d557600080fd5b506105f36106e43660046128f6565b611834565b3480156106f557600080fd5b506102a06107043660046127e4565b61185e565b34801561071557600080fd5b5061027e6107243660046128f6565b611892565b34801561073557600080fd5b506102a06118dc565b34801561074a57600080fd5b5061027e6107593660046128f6565b611948565b34801561076a57600080fd5b5061027e610779366004612947565b611992565b34801561078a57600080fd5b506102a060085481565b3480156107a057600080fd5b5061027e6107af3660046127e4565b611c96565b3480156107c057600080fd5b5061027e6107cf3660046127e4565b611ce6565b3480156107e057600080fd5b5061027e6107ef366004612926565b611d5c565b34801561080057600080fd5b506102a060065481565b34801561081657600080fd5b506102a060115481565b34801561082c57600080fd5b50600c546105f3906001600160a01b031681565b34801561084c57600080fd5b50600b546102a0565b600c5460405163bbc3f7cf60e01b81526004810183905260009182916001600160a01b039091169063bbc3f7cf9060240160206040518083038186803b15801561089e57600080fd5b505afa1580156108b2573d6000803e3d6000fd5b505050506040513d601f19601f820116820180604052508101906108d6919061290e565b6002549091506001600160a01b03166109235761091c612710610916670de0b6b3a7640000610910600f548661200990919063ffffffff16565b90612009565b90612015565b9392505050565b61091c612710610916600260009054906101000a90046001600160a01b03166001600160a01b031663313ce5676040518163ffffffff1660e01b815260040160206040518083038186803b15801561097a57600080fd5b505afa15801561098e573d6000803e3d6000fd5b505050506040513d601f19601f820116820180604052508101906109b29190612972565b6109bd90600a612b49565b600f54610910908690612009565b600c54600d54600e54604051636002de6760e01b815260009384936001600160a01b0390911692636002de6792610a089288929091600401612a2e565b60206040518083038186803b158015610a2057600080fd5b505afa158015610a34573d6000803e3d6000fd5b505050506040513d601f19601f82011682018060405250810190610a58919061290e565b905080610a685750600092915050565b61091c81610855565b610a79612021565b6004544210610aa35760405162461bcd60e51b8152600401610a9a90612a62565b60405180910390fd5b600855565b600060075460095411610abd57506000919050565b6000610ac88361185e565b90506000610aed670de0b6b3a76400006109168460075461200990919063ffffffff16565b6001600160a01b0385166000908152600a6020526040902054909150610b219061271090610b1b908461207b565b9061207b565b949350505050565b60006007546009541115610b65576000610b428361185e565b905061091c670de0b6b3a76400006109168360085461200990919063ffffffff16565b6007546008546001600160a01b0384166000908152600a6020526040902054610b9392916109169190612009565b92915050565b610ba1612021565b610ba9612087565b565b610bb3612021565b6004544210610bd45760405162461bcd60e51b8152600401610a9a90612a62565b600755565b60026000541415610c2c5760405162461bcd60e51b815260206004820152601f60248201527f5265656e7472616e637947756172643a207265656e7472616e742063616c6c006044820152606401610a9a565b60026000556006544211610c755760405162461bcd60e51b815260206004820152601060248201526f6e6f7420686172766573742074696d6560801b6044820152606401610a9a565b336000908152600a6020526040902054610cca5760405162461bcd60e51b81526020600482015260166024820152756861766520796f75207061727469636970617465643f60501b6044820152606401610a9a565b601054610d195760405162461bcd60e51b815260206004820152601960248201527f76657374696e67207363686564756c65206e6f742073657421000000000000006044820152606401610a9a565b610d216120dc565b6000610d2c33610ea2565b905060008111610d6f5760405162461bcd60e51b815260206004820152600e60248201526d6e6f7420636c61696d61626c652160901b6044820152606401610a9a565b6000610d7a33610aa8565b600354909150610d94906001600160a01b03163384612129565b600081118015610db75750336000908152600a602052604090206003015460ff16155b15610e10576002546001600160a01b0316610ddb57610dd6338261218c565b610df2565b600254610df2906001600160a01b03163383612129565b336000908152600a60205260409020600301805460ff191660011790555b336000908152600a602052604081206001018054849290610e32908490612ace565b90915550610e4090506118dc565b336000818152600a6020908152604091829020600201849055815186815290810185905290810192909252907f4534f107610758c3931de9ad1e176476fcfb8c74adf920167e1d54ee84fcfe769060600160405180910390a250506001600055565b600080610eae83610b29565b90506000610eba6118dc565b6001600160a01b0385166000908152600a60205260409020600201549091508115801590610ee757508181105b15610f6157805b82811015610f5f57610f4161271061091660108481548110610f2057634e487b7160e01b600052603260045260246000fd5b9060005260206000209060020201600101548761200990919063ffffffff16565b610f4b9086612ace565b945080610f5781612c56565b915050610eee565b505b505050919050565b610f716127b3565b610f796127b3565b6000806000806000610f896127b3565b6002546001600160a01b031661100a57604051806080016040528060006001600160a01b03168152602001601281526020016040518060400160405280600b81526020016a25b0b93234b0a1b430b4b760a91b8152508152602001604051806040016040528060038152602001624b414960e81b8152508152509050611022565b60025461101f906001600160a01b0316612255565b90505b60035460009061103a906001600160a01b0316612255565b600454600554600654600854600754969e949d50929b509099509750955091935090915050565b611069612021565b6001600160a01b0382166110b1576040516001600160a01b038216904780156108fc02916000818181858888f193505050501580156110ac573d6000803e3d6000fd5b505050565b6040516370a0823160e01b815230600482015261113f9082906001600160a01b038516906370a082319060240160206040518083038186803b1580156110f657600080fd5b505afa15801561110a573d6000803e3d6000fd5b505050506040513d601f19601f8201168201806040525081019061112e919061290e565b6001600160a01b0385169190612129565b5050565b61114b612021565b600f55565b600c54600d54600e54604051636002de6760e01b815260009384936001600160a01b0390911692636002de679261118d9288929091600401612a2e565b60206040518083038186803b1580156111a557600080fd5b505afa1580156111b9573d6000803e3d6000fd5b505050506040513d601f19601f820116820180604052508101906111dd919061290e565b9050806111ed5750600092915050565b600c5460405163bbc3f7cf60e01b8152600481018390526001600160a01b039091169063bbc3f7cf9060240160206040518083038186803b15801561123157600080fd5b505afa158015611245573d6000803e3d6000fd5b505050506040513d601f19601f8201168201806040525081019061091c919061290e565b611271612021565b4281118015611281575060065481105b6112be5760405162461bcd60e51b815260206004820152600e60248201526d74696d6520696e76616c6964212160901b6044820152606401610a9a565b600555565b601081815481106112d357600080fd5b60009182526020909120600290910201805460019091015490915082565b6112f9612021565b610ba960006123e7565b61130b612021565b428111801561131b575060055481115b6113585760405162461bcd60e51b815260206004820152600e60248201526d74696d6520696e76616c6964212160901b6044820152606401610a9a565b600655565b611365612021565b610ba9612439565b611375612021565b6002546001600160a01b03166113a657600060075447106113985760075461139a565b475b905061113f828261218c565b6007546002546040516370a0823160e01b8152306004820152600092916001600160a01b0316906370a082319060240160206040518083038186803b1580156113ee57600080fd5b505afa158015611402573d6000803e3d6000fd5b505050506040513d601f19601f82011682018060405250810190611426919061290e565b10611433576007546114ae565b6002546040516370a0823160e01b81523060048201526001600160a01b03909116906370a082319060240160206040518083038186803b15801561147657600080fd5b505afa15801561148a573d6000803e3d6000fd5b505050506040513d601f19601f820116820180604052508101906114ae919061290e565b60025490915061113f906001600160a01b03168383612129565b50565b600c54600d54600e54604051636002de6760e01b81526000936001600160a01b031692636002de67926115049287929190600401612a2e565b60206040518083038186803b15801561151c57600080fd5b505afa158015611530573d6000803e3d6000fd5b505050506040513d601f19601f82011682018060405250810190610b93919061290e565b600260005414156115a75760405162461bcd60e51b815260206004820152601f60248201527f5265656e7472616e637947756172643a207265656e7472616e742063616c6c006044820152606401610a9a565b60026000556004548190421180156115c0575060055442105b6115ff5760405162461bcd60e51b815260206004820152601060248201526f6e6f742072616973696e672074696d6560801b6044820152606401610a9a565b600081116116425760405162461bcd60e51b815260206004820152601060248201526f06e656564205f616d6f756e74203e20360841b6044820152606401610a9a565b61164a6120dc565b60006116553361247c565b336000908152600a602052604090205490915081116116ae5760405162461bcd60e51b81526020600482015260156024820152746e6f7420656c696769626c6520616d6f756e74212160581b6044820152606401610a9a565b336000908152600a60205260408120546116c89083612c13565b905083808210156116d65750805b6002546001600160a01b031661174a578034101561172a5760405162461bcd60e51b81526020600482015260116024820152700c2dadeeadce840dcdee840cadcdeeaced607b1b6044820152606401610a9a565b8034111561174557611745336117408334612c13565b61218c565b611762565b600254611762906001600160a01b031633308461250d565b336000908152600a60205260409020546117b957600b80546001810182556000919091527f0175b7a638427703f0dbe7bb9bbf987a2551717b34e79f33b5b1008d1fa01db90180546001600160a01b031916331790555b336000908152600a60205260409020546117d3908261254b565b336000908152600a60205260409020556009546117f0908261254b565b60095560405181815233907fe1fffcc4923d04b559f4d29a8bfc6cda04eb5b0d3c460751c2402c5c5cc9109c9060200160405180910390a250506001600055505050565b600b818154811061184457600080fd5b6000918252602090912001546001600160a01b0316905081565b6009546001600160a01b0382166000908152600a60205260408120549091610b939161091690670de0b6b3a7640000612009565b61189a612021565b600081116118d75760405162461bcd60e51b815260206004820152600a6024820152691259081a5b9d985b1a5960b21b6044820152606401610a9a565b600e55565b6000805b60105481101561194457426010828154811061190c57634e487b7160e01b600052603260045260246000fd5b90600052602060002090600202016000015410156119325761192f816001612ace565b91505b8061193c81612c56565b9150506118e0565b5090565b611950612021565b6000811161198d5760405162461bcd60e51b815260206004820152600a6024820152691259081a5b9d985b1a5960b21b6044820152606401610a9a565b600d55565b61199a612021565b60105483106119d85760405162461bcd60e51b815260206004820152600a6024820152691a59081a5b9d985b1a5960b21b6044820152606401610a9a565b42821180156119e8575060065482115b611a2a5760405162461bcd60e51b81526020600482015260136024820152721d995cdd1a5b99d51a5b59481a5b9d985b1a59606a1b6044820152606401610a9a565b600060108481548110611a4d57634e487b7160e01b600052603260045260246000fd5b9060005260206000209060020201905042816000015411611aa85760405162461bcd60e51b815260206004820152601560248201527414d8da19591d5b19481dd85cc81a185c1c195b9959605a1b6044820152606401610a9a565b611ab3846001612ace565b6010541115611b39576010611ac9856001612ace565b81548110611ae757634e487b7160e01b600052603260045260246000fd5b9060005260206000209060020201600001548310611b395760405162461bcd60e51b815260206004820152600f60248201526e6e6578742074696d652077726f6e6760881b6044820152606401610a9a565b6010546001108015611b4b5750600084115b15611bd1576010611b5d600186612c13565b81548110611b7b57634e487b7160e01b600052603260045260246000fd5b9060005260206000209060020201600001548311611bd15760405162461bcd60e51b815260206004820152601360248201527270726576696f75732074696d652077726f6e6760681b6044820152606401610a9a565b600080611bf784611bf1856001015460115461254b90919063ffffffff16565b90612557565b9150915081611c3e5760405162461bcd60e51b8152602060048201526013602482015272616c6c6f636174696f6e20696e76616c69642160681b6044820152606401610a9a565b60118190558483556001830184905560408051878152602081018790529081018590527fb5dde0136ce4851e81eb871b719bcb9b036b8a17382821ee7bb204de220dee689060600160405180910390a1505050505050565b611c9e612021565b6001600160a01b038116611cc45760405162461bcd60e51b8152600401610a9a90612a62565b600380546001600160a01b0319166001600160a01b0392909216919091179055565b611cee612021565b6001600160a01b038116611d535760405162461bcd60e51b815260206004820152602660248201527f4f776e61626c653a206e6577206f776e657220697320746865207a65726f206160448201526564647265737360d01b6064820152608401610a9a565b6114c8816123e7565b611d64612021565b4282118015611d7557506006548210155b8015611d8357506127108111155b611dbe5760405162461bcd60e51b815260206004820152600c60248201526b1859dc9cc81a5b9d985b1a5960a21b6044820152606401610a9a565b601154811115611e065760405162461bcd60e51b8152602060048201526013602482015272185b1b1bd8d85d1a5bdb881bdd995c9b1bd859606a1b6044820152606401610a9a565b8060116000828254611e189190612c13565b90915550506040805180820190915282815260208101829052601054611ea3576010805460018101825560009190915281517f1b6847dc741a1b0cd08d278845f9d819d87b734759afb55fe2de5cb82a9ae67260029092029182015560208201517f1b6847dc741a1b0cd08d278845f9d819d87b734759afb55fe2de5cb82a9ae67390910155611fb5565b6010805460009190611eb790600190612c13565b81548110611ed557634e487b7160e01b600052603260045260246000fd5b906000526020600020906002020160405180604001604052908160008201548152602001600182015481525050905080600001518411611f4d5760405162461bcd60e51b815260206004820152601360248201527276657374696e672074696d652077726f6e672160681b6044820152606401610a9a565b506010805460018101825560009190915281517f1b6847dc741a1b0cd08d278845f9d819d87b734759afb55fe2de5cb82a9ae67260029092029182015560208201517f1b6847dc741a1b0cd08d278845f9d819d87b734759afb55fe2de5cb82a9ae673909101555b6010547f5edfe841f42afce7b83669388f1054e0928fa51e32d7c0bd6d5dac15c0b64e6990611fe690600190612c13565b6040805191825260208201869052810184905260600160405180910390a1505050565b600061091c8284612bf4565b600061091c8284612ae6565b6001546001600160a01b03163314610ba95760405162461bcd60e51b815260206004820181905260248201527f4f776e61626c653a2063616c6c6572206973206e6f7420746865206f776e65726044820152606401610a9a565b600061091c8284612c13565b61208f61257d565b6001805460ff60a01b191690557f5db9ee0a495bf2e6ff9c91a7834c1ba4fdd244a5e8aa4e537bd38aeae4b073aa335b6040516001600160a01b03909116815260200160405180910390a1565b600154600160a01b900460ff1615610ba95760405162461bcd60e51b815260206004820152601060248201526f14185d5cd8589b194e881c185d5cd95960821b6044820152606401610a9a565b6040516001600160a01b0383166024820152604481018290526110ac90849063a9059cbb60e01b906064015b60408051601f198184030181529190526020810180516001600160e01b03166001600160e01b0319909316929092179091526125cd565b604080516000808252602082019092526001600160a01b0384169083906040516121b69190612a12565b60006040518083038185875af1925050503d80600081146121f3576040519150601f19603f3d011682016040523d82523d6000602084013e6121f8565b606091505b50509050806110ac5760405162461bcd60e51b815260206004820152602360248201527f5472616e7366657248656c7065723a204b41495f5452414e534645525f46414960448201526213115160ea1b6064820152608401610a9a565b61225d6127b3565b6040518060800160405280836001600160a01b03168152602001836001600160a01b031663313ce5676040518163ffffffff1660e01b815260040160206040518083038186803b1580156122b057600080fd5b505afa1580156122c4573d6000803e3d6000fd5b505050506040513d601f19601f820116820180604052508101906122e89190612972565b60ff168152602001836001600160a01b03166306fdde036040518163ffffffff1660e01b815260040160006040518083038186803b15801561232957600080fd5b505afa15801561233d573d6000803e3d6000fd5b505050506040513d6000823e601f3d908101601f191682016040526123659190810190612858565b8152602001836001600160a01b03166395d89b416040518163ffffffff1660e01b815260040160006040518083038186803b1580156123a357600080fd5b505afa1580156123b7573d6000803e3d6000fd5b505050506040513d6000823e601f3d908101601f191682016040526123df9190810190612858565b905292915050565b600180546001600160a01b038381166001600160a01b0319831681179093556040519116919082907f8be0079c531659141344cd1fd0a4f28419497f9722a3daafe3b4186f6b6457e090600090a35050565b6124416120dc565b6001805460ff60a01b1916600160a01b1790557f62e78cea01bee320cd4e420270b5ea74000d11b0c9f74754ebdbfc544b05a2586120bf3390565b600080600d541180156124925750600d54600e54115b6124d45760405162461bcd60e51b815260206004820152601360248201527214db985c1cda1bdd081a59081b9bdd081cd95d606a1b6044820152606401610a9a565b600c54600d54600e54604051636002de6760e01b81526000936001600160a01b031692636002de6792610a089288929190600401612a2e565b6040516001600160a01b03808516602483015283166044820152606481018290526125459085906323b872dd60e01b90608401612155565b50505050565b600061091c8284612ace565b6000808383111561256d57506000905080612576565b50600190508183035b9250929050565b600154600160a01b900460ff16610ba95760405162461bcd60e51b815260206004820152601460248201527314185d5cd8589b194e881b9bdd081c185d5cd95960621b6044820152606401610a9a565b6000612622826040518060400160405280602081526020017f5361666545524332303a206c6f772d6c6576656c2063616c6c206661696c6564815250856001600160a01b031661269f9092919063ffffffff16565b8051909150156110ac57808060200190518101906126409190612838565b6110ac5760405162461bcd60e51b815260206004820152602a60248201527f5361666545524332303a204552433230206f7065726174696f6e20646964206e6044820152691bdd081cdd58d8d9595960b21b6064820152608401610a9a565b6060610b218484600085856001600160a01b0385163b6127015760405162461bcd60e51b815260206004820152601d60248201527f416464726573733a2063616c6c20746f206e6f6e2d636f6e74726163740000006044820152606401610a9a565b600080866001600160a01b0316858760405161271d9190612a12565b60006040518083038185875af1925050503d806000811461275a576040519150601f19603f3d011682016040523d82523d6000602084013e61275f565b606091505b509150915061276f82828661277a565b979650505050505050565b6060831561278957508161091c565b8251156127995782518084602001fd5b8160405162461bcd60e51b8152600401610a9a9190612a4f565b604051806080016040528060006001600160a01b031681526020016000815260200160608152602001606081525090565b6000602082840312156127f5578081fd5b813561091c81612c9d565b60008060408385031215612812578081fd5b823561281d81612c9d565b9150602083013561282d81612c9d565b809150509250929050565b600060208284031215612849578081fd5b8151801515811461091c578182fd5b600060208284031215612869578081fd5b815167ffffffffffffffff80821115612880578283fd5b818401915084601f830112612893578283fd5b8151818111156128a5576128a5612c87565b604051601f8201601f19908116603f011681019083821181831017156128cd576128cd612c87565b816040528281528760208487010111156128e5578586fd5b61276f836020830160208801612c2a565b600060208284031215612907578081fd5b5035919050565b60006020828403121561291f578081fd5b5051919050565b60008060408385031215612938578182fd5b50508035926020909101359150565b60008060006060848603121561295b578081fd5b505081359360208301359350604090920135919050565b600060208284031215612983578081fd5b815160ff8116811461091c578182fd5b600081518084526129ab816020860160208601612c2a565b601f01601f19169290920160200192915050565b60018060a01b0381511682526020810151602083015260006040820151608060408501526129f06080850182612993565b905060608301518482036060860152612a098282612993565b95945050505050565b60008251612a24818460208701612c2a565b9190910192915050565b6001600160a01b039390931683526020830191909152604082015260600190565b60208152600061091c6020830184612993565b6020808252600290820152616e6f60f01b604082015260600190565b60e081526000612a9160e083018a6129bf565b8281036020840152612aa3818a6129bf565b604084019890985250506060810194909452608084019290925260a083015260c09091015292915050565b60008219821115612ae157612ae1612c71565b500190565b600082612b0157634e487b7160e01b81526012600452602481fd5b500490565b600181815b80851115612b41578160001904821115612b2757612b27612c71565b80851615612b3457918102915b93841c9390800290612b0b565b509250929050565b600061091c60ff841683600082612b6257506001610b93565b81612b6f57506000610b93565b8160018114612b855760028114612b8f57612bab565b6001915050610b93565b60ff841115612ba057612ba0612c71565b50506001821b610b93565b5060208310610133831016604e8410600b8410161715612bce575081810a610b93565b612bd88383612b06565b8060001904821115612bec57612bec612c71565b029392505050565b6000816000190483118215151615612c0e57612c0e612c71565b500290565b600082821015612c2557612c25612c71565b500390565b60005b83811015612c45578181015183820152602001612c2d565b838111156125455750506000910152565b6000600019821415612c6a57612c6a612c71565b5060010190565b634e487b7160e01b600052601160045260246000fd5b634e487b7160e01b600052604160045260246000fd5b6001600160a01b03811681146114c857600080fdfea2646970667358221220f07d19e4a07a6ce6ac84697927e67d2829e087e509effd6059f803f43a3a1d9164736f6c63430008040033",
  "linkReferences": {},
  "deployedLinkReferences": {}
}