{
  "_format": "hh-sol-artifact-1",
  "contractName": "ERC1155NFTMarket",
  "sourceName": "contracts/nft-marketplace/erc1155-marketplace/ERC1155NFTMarket.sol",
  "abi": [
    {
      "inputs": [
        {
          "internalType": "address",
          "name": "_weth",
          "type": "address"
        },
        {
          "internalType": "address",
          "name": "_feeRecipient",
          "type": "address"
        },
        {
          "internalType": "uint256",
          "name": "_feePercent",
          "type": "uint256"
        }
      ],
      "stateMutability": "nonpayable",
      "type": "constructor"
    },
    {
      "anonymous": false,
      "inputs": [
        {
          "indexed": true,
          "internalType": "address",
          "name": "_seller",
          "type": "address"
        },
        {
          "indexed": true,
          "internalType": "address",
          "name": "bidder",
          "type": "address"
        },
        {
          "indexed": true,
          "internalType": "address",
          "name": "_nft",
          "type": "address"
        },
        {
          "indexed": false,
          "internalType": "uint256",
          "name": "_tokenId",
          "type": "uint256"
        },
        {
          "indexed": false,
          "internalType": "address",
          "name": "_quoteToken",
          "type": "address"
        },
        {
          "indexed": false,
          "internalType": "uint256",
          "name": "_price",
          "type": "uint256"
        },
        {
          "indexed": false,
          "internalType": "uint256",
          "name": "_netPay",
          "type": "uint256"
        },
        {
          "indexed": false,
          "internalType": "uint256",
          "name": "_amounts",
          "type": "uint256"
        }
      ],
      "name": "AcceptBid",
      "type": "event"
    },
    {
      "anonymous": false,
      "inputs": [
        {
          "indexed": true,
          "internalType": "address",
          "name": "_seller",
          "type": "address"
        },
        {
          "indexed": true,
          "internalType": "address",
          "name": "_nft",
          "type": "address"
        },
        {
          "indexed": false,
          "internalType": "uint256",
          "name": "_tokenId",
          "type": "uint256"
        },
        {
          "indexed": false,
          "internalType": "uint256",
          "name": "_amounts",
          "type": "uint256"
        }
      ],
      "name": "AskCancel",
      "type": "event"
    },
    {
      "anonymous": false,
      "inputs": [
        {
          "indexed": true,
          "internalType": "address",
          "name": "_seller",
          "type": "address"
        },
        {
          "indexed": true,
          "internalType": "address",
          "name": "_nft",
          "type": "address"
        },
        {
          "indexed": false,
          "internalType": "uint256",
          "name": "_tokenId",
          "type": "uint256"
        },
        {
          "indexed": false,
          "internalType": "address",
          "name": "_quoteToken",
          "type": "address"
        },
        {
          "indexed": false,
          "internalType": "uint256",
          "name": "_price",
          "type": "uint256"
        },
        {
          "indexed": false,
          "internalType": "uint256",
          "name": "_amounts",
          "type": "uint256"
        }
      ],
      "name": "AskNew",
      "type": "event"
    },
    {
      "anonymous": false,
      "inputs": [
        {
          "indexed": true,
          "internalType": "address",
          "name": "bidder",
          "type": "address"
        },
        {
          "indexed": true,
          "internalType": "address",
          "name": "_nft",
          "type": "address"
        },
        {
          "indexed": false,
          "internalType": "uint256",
          "name": "_tokenId",
          "type": "uint256"
        },
        {
          "indexed": false,
          "internalType": "address",
          "name": "_quoteToken",
          "type": "address"
        },
        {
          "indexed": false,
          "internalType": "uint256",
          "name": "_price",
          "type": "uint256"
        },
        {
          "indexed": false,
          "internalType": "uint256",
          "name": "_amounts",
          "type": "uint256"
        }
      ],
      "name": "Bid",
      "type": "event"
    },
    {
      "anonymous": false,
      "inputs": [
        {
          "indexed": true,
          "internalType": "address",
          "name": "bidder",
          "type": "address"
        },
        {
          "indexed": true,
          "internalType": "address",
          "name": "_nft",
          "type": "address"
        },
        {
          "indexed": false,
          "internalType": "uint256",
          "name": "_tokenId",
          "type": "uint256"
        },
        {
          "indexed": false,
          "internalType": "uint256",
          "name": "_amounts",
          "type": "uint256"
        }
      ],
      "name": "CancelBid",
      "type": "event"
    },
    {
      "anonymous": false,
      "inputs": [
        {
          "indexed": true,
          "internalType": "address",
          "name": "collection",
          "type": "address"
        }
      ],
      "name": "CloseCollection",
      "type": "event"
    },
    {
      "anonymous": false,
      "inputs": [
        {
          "indexed": true,
          "internalType": "address",
          "name": "collection",
          "type": "address"
        },
        {
          "indexed": false,
          "internalType": "uint256",
          "name": "creatorFee",
          "type": "uint256"
        },
        {
          "indexed": false,
          "internalType": "address",
          "name": "creator",
          "type": "address"
        }
      ],
      "name": "ModifyCollection",
      "type": "event"
    },
    {
      "anonymous": false,
      "inputs": [
        {
          "indexed": true,
          "internalType": "address",
          "name": "collection",
          "type": "address"
        },
        {
          "indexed": false,
          "internalType": "uint256",
          "name": "creatorFee",
          "type": "uint256"
        },
        {
          "indexed": false,
          "internalType": "address",
          "name": "creator",
          "type": "address"
        }
      ],
      "name": "NewCollection",
      "type": "event"
    },
    {
      "anonymous": false,
      "inputs": [
        {
          "indexed": true,
          "internalType": "address",
          "name": "previousOwner",
          "type": "address"
        },
        {
          "indexed": true,
          "internalType": "address",
          "name": "newOwner",
          "type": "address"
        }
      ],
      "name": "OwnershipTransferred",
      "type": "event"
    },
    {
      "anonymous": false,
      "inputs": [
        {
          "indexed": true,
          "internalType": "address",
          "name": "_seller",
          "type": "address"
        },
        {
          "indexed": true,
          "internalType": "address",
          "name": "buyer",
          "type": "address"
        },
        {
          "indexed": true,
          "internalType": "address",
          "name": "_nft",
          "type": "address"
        },
        {
          "indexed": false,
          "internalType": "uint256",
          "name": "_tokenId",
          "type": "uint256"
        },
        {
          "indexed": false,
          "internalType": "address",
          "name": "_quoteToken",
          "type": "address"
        },
        {
          "indexed": false,
          "internalType": "uint256",
          "name": "_price",
          "type": "uint256"
        },
        {
          "indexed": false,
          "internalType": "uint256",
          "name": "_netPay",
          "type": "uint256"
        },
        {
          "indexed": false,
          "internalType": "uint256",
          "name": "_amounts",
          "type": "uint256"
        }
      ],
      "name": "Trade",
      "type": "event"
    },
    {
      "inputs": [],
      "name": "MAX_FEE",
      "outputs": [
        {
          "internalType": "uint256",
          "name": "",
          "type": "uint256"
        }
      ],
      "stateMutability": "view",
      "type": "function"
    },
    {
      "inputs": [],
      "name": "WETH",
      "outputs": [
        {
          "internalType": "address",
          "name": "",
          "type": "address"
        }
      ],
      "stateMutability": "view",
      "type": "function"
    },
    {
      "inputs": [
        {
          "internalType": "address",
          "name": "_nft",
          "type": "address"
        },
        {
          "internalType": "uint256",
          "name": "_tokenId",
          "type": "uint256"
        },
        {
          "internalType": "address",
          "name": "_bidder",
          "type": "address"
        },
        {
          "internalType": "address",
          "name": "_quoteToken",
          "type": "address"
        },
        {
          "internalType": "uint256",
          "name": "_price",
          "type": "uint256"
        },
        {
          "internalType": "uint256",
          "name": "_amounts",
          "type": "uint256"
        }
      ],
      "name": "acceptBid",
      "outputs": [],
      "stateMutability": "nonpayable",
      "type": "function"
    },
    {
      "inputs": [
        {
          "internalType": "address",
          "name": "",
          "type": "address"
        },
        {
          "internalType": "uint256",
          "name": "",
          "type": "uint256"
        }
      ],
      "name": "asks",
      "outputs": [
        {
          "internalType": "address",
          "name": "seller",
          "type": "address"
        },
        {
          "internalType": "address",
          "name": "quoteToken",
          "type": "address"
        },
        {
          "internalType": "uint256",
          "name": "price",
          "type": "uint256"
        },
        {
          "internalType": "uint256",
          "name": "amounts",
          "type": "uint256"
        }
      ],
      "stateMutability": "view",
      "type": "function"
    },
    {
      "inputs": [
        {
          "internalType": "address",
          "name": "",
          "type": "address"
        },
        {
          "internalType": "uint256",
          "name": "",
          "type": "uint256"
        },
        {
          "internalType": "address",
          "name": "",
          "type": "address"
        }
      ],
      "name": "bids",
      "outputs": [
        {
          "internalType": "address",
          "name": "quoteToken",
          "type": "address"
        },
        {
          "internalType": "uint256",
          "name": "price",
          "type": "uint256"
        },
        {
          "internalType": "uint256",
          "name": "amounts",
          "type": "uint256"
        }
      ],
      "stateMutability": "view",
      "type": "function"
    },
    {
      "inputs": [
        {
          "internalType": "address",
          "name": "_nft",
          "type": "address"
        },
        {
          "internalType": "uint256",
          "name": "_tokenId",
          "type": "uint256"
        },
        {
          "internalType": "address",
          "name": "_quoteToken",
          "type": "address"
        },
        {
          "internalType": "uint256",
          "name": "_price",
          "type": "uint256"
        },
        {
          "internalType": "uint256",
          "name": "_amounts",
          "type": "uint256"
        }
      ],
      "name": "buy",
      "outputs": [],
      "stateMutability": "nonpayable",
      "type": "function"
    },
    {
      "inputs": [
        {
          "internalType": "address",
          "name": "_nft",
          "type": "address"
        },
        {
          "internalType": "uint256",
          "name": "_tokenId",
          "type": "uint256"
        },
        {
          "internalType": "uint256",
          "name": "_amounts",
          "type": "uint256"
        },
        {
          "internalType": "uint256",
          "name": "_price",
          "type": "uint256"
        }
      ],
      "name": "buyUsingNative",
      "outputs": [],
      "stateMutability": "payable",
      "type": "function"
    },
    {
      "inputs": [
        {
          "internalType": "address",
          "name": "_nft",
          "type": "address"
        },
        {
          "internalType": "uint256",
          "name": "_tokenId",
          "type": "uint256"
        },
        {
          "internalType": "uint256",
          "name": "_amounts",
          "type": "uint256"
        }
      ],
      "name": "cancelAsk",
      "outputs": [],
      "stateMutability": "nonpayable",
      "type": "function"
    },
    {
      "inputs": [
        {
          "internalType": "address",
          "name": "_nft",
          "type": "address"
        },
        {
          "internalType": "uint256",
          "name": "_tokenId",
          "type": "uint256"
        },
        {
          "internalType": "uint256",
          "name": "_amounts",
          "type": "uint256"
        }
      ],
      "name": "cancelBid",
      "outputs": [],
      "stateMutability": "nonpayable",
      "type": "function"
    },
    {
      "inputs": [
        {
          "internalType": "address",
          "name": "_collection",
          "type": "address"
        }
      ],
      "name": "closeCollection",
      "outputs": [],
      "stateMutability": "nonpayable",
      "type": "function"
    },
    {
      "inputs": [
        {
          "internalType": "address",
          "name": "",
          "type": "address"
        }
      ],
      "name": "collections",
      "outputs": [
        {
          "internalType": "enum ERC1155NFTCollectionManager.CollectionStatus",
          "name": "status",
          "type": "uint8"
        },
        {
          "internalType": "uint256",
          "name": "creatorFee",
          "type": "uint256"
        },
        {
          "internalType": "address",
          "name": "creator",
          "type": "address"
        }
      ],
      "stateMutability": "view",
      "type": "function"
    },
    {
      "inputs": [
        {
          "internalType": "address",
          "name": "_nft",
          "type": "address"
        },
        {
          "internalType": "uint256",
          "name": "_tokenId",
          "type": "uint256"
        },
        {
          "internalType": "address",
          "name": "_quoteToken",
          "type": "address"
        },
        {
          "internalType": "uint256",
          "name": "_price",
          "type": "uint256"
        },
        {
          "internalType": "uint256",
          "name": "_amounts",
          "type": "uint256"
        }
      ],
      "name": "createAsk",
      "outputs": [],
      "stateMutability": "nonpayable",
      "type": "function"
    },
    {
      "inputs": [
        {
          "internalType": "address",
          "name": "_nft",
          "type": "address"
        },
        {
          "internalType": "uint256",
          "name": "_tokenId",
          "type": "uint256"
        },
        {
          "internalType": "address",
          "name": "_quoteToken",
          "type": "address"
        },
        {
          "internalType": "uint256",
          "name": "_price",
          "type": "uint256"
        },
        {
          "internalType": "uint256",
          "name": "_amounts",
          "type": "uint256"
        }
      ],
      "name": "createBid",
      "outputs": [],
      "stateMutability": "nonpayable",
      "type": "function"
    },
    {
      "inputs": [
        {
          "internalType": "address",
          "name": "_nft",
          "type": "address"
        },
        {
          "internalType": "uint256",
          "name": "_tokenId",
          "type": "uint256"
        },
        {
          "internalType": "uint256",
          "name": "_price",
          "type": "uint256"
        },
        {
          "internalType": "uint256",
          "name": "_amounts",
          "type": "uint256"
        }
      ],
      "name": "createBidUsingNative",
      "outputs": [],
      "stateMutability": "payable",
      "type": "function"
    },
    {
      "inputs": [
        {
          "internalType": "address",
          "name": "_collection",
          "type": "address"
        },
        {
          "internalType": "address",
          "name": "_creator",
          "type": "address"
        },
        {
          "internalType": "uint256",
          "name": "_creatorFee",
          "type": "uint256"
        }
      ],
      "name": "modifyCollection",
      "outputs": [],
      "stateMutability": "nonpayable",
      "type": "function"
    },
    {
      "inputs": [
        {
          "internalType": "address",
          "name": "_collection",
          "type": "address"
        },
        {
          "internalType": "address",
          "name": "_creator",
          "type": "address"
        },
        {
          "internalType": "uint256",
          "name": "_creatorFee",
          "type": "uint256"
        }
      ],
      "name": "newCollection",
      "outputs": [],
      "stateMutability": "nonpayable",
      "type": "function"
    },
    {
      "inputs": [],
      "name": "owner",
      "outputs": [
        {
          "internalType": "address",
          "name": "",
          "type": "address"
        }
      ],
      "stateMutability": "view",
      "type": "function"
    },
    {
      "inputs": [],
      "name": "protocolFeePercent",
      "outputs": [
        {
          "internalType": "uint256",
          "name": "",
          "type": "uint256"
        }
      ],
      "stateMutability": "view",
      "type": "function"
    },
    {
      "inputs": [],
      "name": "protocolFeeRecipient",
      "outputs": [
        {
          "internalType": "address",
          "name": "",
          "type": "address"
        }
      ],
      "stateMutability": "view",
      "type": "function"
    },
    {
      "inputs": [],
      "name": "renounceOwnership",
      "outputs": [],
      "stateMutability": "nonpayable",
      "type": "function"
    },
    {
      "inputs": [
        {
          "internalType": "uint256",
          "name": "_percent",
          "type": "uint256"
        }
      ],
      "name": "setProtocolFeePercent",
      "outputs": [],
      "stateMutability": "nonpayable",
      "type": "function"
    },
    {
      "inputs": [
        {
          "internalType": "address",
          "name": "_recipient",
          "type": "address"
        }
      ],
      "name": "setProtocolFeeRecipient",
      "outputs": [],
      "stateMutability": "nonpayable",
      "type": "function"
    },
    {
      "inputs": [
        {
          "internalType": "address",
          "name": "newOwner",
          "type": "address"
        }
      ],
      "name": "transferOwnership",
      "outputs": [],
      "stateMutability": "nonpayable",
      "type": "function"
    },
    {
      "inputs": [
        {
          "internalType": "address",
          "name": "_collection",
          "type": "address"
        },
        {
          "internalType": "uint256",
          "name": "_cursor",
          "type": "uint256"
        },
        {
          "internalType": "uint256",
          "name": "_size",
          "type": "uint256"
        }
      ],
      "name": "viewAsksByCollection",
      "outputs": [
        {
          "internalType": "uint256[]",
          "name": "tokenIds",
          "type": "uint256[]"
        },
        {
          "components": [
            {
              "internalType": "address",
              "name": "seller",
              "type": "address"
            },
            {
              "internalType": "address",
              "name": "quoteToken",
              "type": "address"
            },
            {
              "internalType": "uint256",
              "name": "price",
              "type": "uint256"
            },
            {
              "internalType": "uint256",
              "name": "amounts",
              "type": "uint256"
            }
          ],
          "internalType": "struct ERC1155NFTMarket.Ask[]",
          "name": "askInfo",
          "type": "tuple[]"
        },
        {
          "internalType": "uint256",
          "name": "",
          "type": "uint256"
        }
      ],
      "stateMutability": "view",
      "type": "function"
    },
    {
      "inputs": [
        {
          "internalType": "address",
          "name": "_collection",
          "type": "address"
        },
        {
          "internalType": "uint256[]",
          "name": "_tokenIds",
          "type": "uint256[]"
        }
      ],
      "name": "viewAsksByCollectionAndTokenIds",
      "outputs": [
        {
          "internalType": "bool[]",
          "name": "statuses",
          "type": "bool[]"
        },
        {
          "components": [
            {
              "internalType": "address",
              "name": "seller",
              "type": "address"
            },
            {
              "internalType": "address",
              "name": "quoteToken",
              "type": "address"
            },
            {
              "internalType": "uint256",
              "name": "price",
              "type": "uint256"
            },
            {
              "internalType": "uint256",
              "name": "amounts",
              "type": "uint256"
            }
          ],
          "internalType": "struct ERC1155NFTMarket.Ask[]",
          "name": "askInfo",
          "type": "tuple[]"
        }
      ],
      "stateMutability": "view",
      "type": "function"
    },
    {
      "inputs": [
        {
          "internalType": "uint256",
          "name": "cursor",
          "type": "uint256"
        },
        {
          "internalType": "uint256",
          "name": "size",
          "type": "uint256"
        }
      ],
      "name": "viewCollections",
      "outputs": [
        {
          "internalType": "address[]",
          "name": "collectionAddresses",
          "type": "address[]"
        },
        {
          "components": [
            {
              "internalType": "enum ERC1155NFTCollectionManager.CollectionStatus",
              "name": "status",
              "type": "uint8"
            },
            {
              "internalType": "uint256",
              "name": "creatorFee",
              "type": "uint256"
            },
            {
              "internalType": "address",
              "name": "creator",
              "type": "address"
            }
          ],
          "internalType": "struct ERC1155NFTCollectionManager.Collection[]",
          "name": "collectionDetails",
          "type": "tuple[]"
        },
        {
          "internalType": "uint256",
          "name": "",
          "type": "uint256"
        }
      ],
      "stateMutability": "view",
      "type": "function"
    }
  ],
  "bytecode": "0x60a060405260fa6002556101f46004553480156200001c57600080fd5b5060405162003ada38038062003ada8339810160408190526200003f91620000f7565b81816200004c336200008a565b600180546001600160a01b0319166001600160a01b0393909316929092178255600255600855505060601b6001600160601b03191660805262000137565b600080546001600160a01b038381166001600160a01b0319831681178455604051919092169283917f8be0079c531659141344cd1fd0a4f28419497f9722a3daafe3b4186f6b6457e09190a35050565b80516001600160a01b0381168114620000f257600080fd5b919050565b6000806000606084860312156200010c578283fd5b6200011784620000da565b92506200012760208501620000da565b9150604084015190509250925092565b60805160601c6139686200017260003960008181610418015281816106d30152818161074c0152818161195a01526119d301526139686000f3fe6080604052600436106101815760003560e01c8063800fe083116100d1578063d6e6eb9f1161008a578063e4ce180611610064578063e4ce180614610575578063e521cb9214610595578063f2fde38b146105b5578063f375ceab146105d557600080fd5b8063d6e6eb9f1461045e578063dd76892214610474578063e22d4f7d146104f057600080fd5b8063800fe0831461037957806384a40864146103995780638da5cb5b146103c8578063a4983421146103e6578063ad5c464814610406578063bc063e1a1461043a57600080fd5b806343add2e61161013e57806364df049e1161011857806364df049e146102f9578063715018a61461033157806373e89020146103465780637ef679b41461036657600080fd5b806343add2e6146102525780634eaeefd6146102aa57806351c383ea146102ca57600080fd5b806305d94e72146101865780630c06979d1461019b57806318a8a55b146101bb57806322f67b6d146101db57806332796c7d146102125780633290463b14610232575b600080fd5b61019961019436600461347c565b6105f5565b005b3480156101a757600080fd5b506101996101b63660046133fd565b61077e565b3480156101c757600080fd5b506101996101d63660046133fd565b610a93565b3480156101e757600080fd5b506101fb6101f63660046132ba565b610b38565b6040516102099291906136b3565b60405180910390f35b34801561021e57600080fd5b5061019961022d366004613265565b610d8e565b34801561023e57600080fd5b5061019961024d36600461344a565b610e67565b34801561025e57600080fd5b5061029b61026d366004613265565b60056020526000908152604090208054600182015460029092015460ff90911691906001600160a01b031683565b6040516102099392919061376b565b3480156102b657600080fd5b506101996102c536600461344a565b610ea4565b3480156102d657600080fd5b506102ea6102e5366004613504565b61111e565b60405161020993929190613601565b34801561030557600080fd5b50600154610319906001600160a01b031681565b6040516001600160a01b039091168152602001610209565b34801561033d57600080fd5b50610199611393565b34801561035257600080fd5b5061019961036136600461339f565b6113a7565b61019961037436600461347c565b611824565b34801561038557600080fd5b506101996103943660046133fd565b6119fa565b3480156103a557600080fd5b506103b96103b436600461344a565b611aeb565b6040516102099392919061370c565b3480156103d457600080fd5b506000546001600160a01b0316610319565b3480156103f257600080fd5b506101996104013660046134d4565b611d68565b34801561041257600080fd5b506103197f000000000000000000000000000000000000000000000000000000000000000081565b34801561044657600080fd5b5061045060045481565b604051908152602001610209565b34801561046a57600080fd5b5061045060025481565b34801561048057600080fd5b506104cb61048f366004613364565b600b6020908152600093845260408085208252928452828420905282529020805460018201546002909201546001600160a01b03909116919083565b604080516001600160a01b039094168452602084019290925290820152606001610209565b3480156104fc57600080fd5b5061054a61050b36600461333b565b600960209081526000928352604080842090915290825290208054600182015460028301546003909301546001600160a01b0392831693919092169184565b604080516001600160a01b039586168152949093166020850152918301526060820152608001610209565b34801561058157600080fd5b5061019961059036600461327f565b611db1565b3480156105a157600080fd5b506101996105b0366004613265565b611fe8565b3480156105c157600080fd5b506101996105d0366004613265565b61207a565b3480156105e157600080fd5b506101996105f036600461327f565b6120f3565b333b1561061d5760405162461bcd60e51b8152600401610614906137cb565b60405180910390fd5b33321461063c5760405162461bcd60e51b8152600401610614906137f9565b6002600854141561065f5760405162461bcd60e51b815260040161061490613830565b6002600855600061067083836123b8565b9050803410156106b65760405162461bcd60e51b81526020600482015260116024820152700c2dadeeadce840dcdee840cadcdeeaced607b1b6044820152606401610614565b803411156106d1576106d1336106cc83346138be565b6123cd565b7f00000000000000000000000000000000000000000000000000000000000000006001600160a01b031663d0e30db0826040518263ffffffff1660e01b81526004016000604051808303818588803b15801561072c57600080fd5b505af1158015610740573d6000803e3d6000fd5b505050505061077285857f0000000000000000000000000000000000000000000000000000000000000000868661249b565b50506001600855505050565b600260085414156107a15760405162461bcd60e51b815260040161061490613830565b6002600855333b156107c55760405162461bcd60e51b8152600401610614906137cb565b3332146107e45760405162461bcd60e51b8152600401610614906137f9565b600082116108405760405162461bcd60e51b8152602060048201526024808201527f41736b3a205072696365206d7573742062652067726561746572207468616e206044820152637a65726f60e01b6064820152608401610614565b806001600160a01b03861662fdd58e336040516001600160e01b031960e084901b1681526001600160a01b0390911660048201526024810188905260440160206040518083038186803b15801561089657600080fd5b505afa1580156108aa573d6000803e3d6000fd5b505050506040513d601f19601f820116820180604052508101906108ce91906134ec565b101561091c5760405162461bcd60e51b815260206004820152601f60248201527f41736b3a2054686520616d6f756e747320617265206e6f7420656e6f756768006044820152606401610614565b604051637921219560e11b81526001600160a01b0386169063f242432a9061094e9033903090899087906004016135c9565b600060405180830381600087803b15801561096857600080fd5b505af115801561097c573d6000803e3d6000fd5b5050505060405180608001604052806109923390565b6001600160a01b039081168252858116602080840191909152604080840187905260609384018690528983166000818152600984528281208b82528452828120875181549087166001600160a01b031991821617825588860151600183018054919098169116179095558683015160028601559590940151600390930192909255918352600a9091529020610a2790856125f5565b506001600160a01b03851633604080518781526001600160a01b038781166020830152918101869052606081018590529116907f51ed6233a1b8d203c2152620c91e1690f84439bd3e6896a1e147d145c6807e8d9060800160405180910390a350506001600855505050565b333b15610ab25760405162461bcd60e51b8152600401610614906137cb565b333214610ad15760405162461bcd60e51b8152600401610614906137f9565b60026008541415610af45760405162461bcd60e51b815260040161061490613830565b60026008556000610b0582846123b8565b9050610b1e335b6001600160a01b038616903084612601565b610b2b868686868661249b565b5050600160085550505050565b606080828067ffffffffffffffff811115610b6357634e487b7160e01b600052604160045260246000fd5b604051908082528060200260200182016040528015610b8c578160200160208202803683370190505b5092508067ffffffffffffffff811115610bb657634e487b7160e01b600052604160045260246000fd5b604051908082528060200260200182016040528015610bef57816020015b610bdc61320f565b815260200190600190039081610bd45790505b50915060005b81811015610d8457610c47868683818110610c2057634e487b7160e01b600052603260045260246000fd5b6001600160a01b038b166000908152600a6020908152604090912093910201359050612672565b15610c83576001848281518110610c6e57634e487b7160e01b600052603260045260246000fd5b91151560209283029190910190910152610cb6565b6000848281518110610ca557634e487b7160e01b600052603260045260246000fd5b911515602092830291909101909101525b6001600160a01b038716600090815260096020526040812090878784818110610cef57634e487b7160e01b600052603260045260246000fd5b60209081029290920135835250818101929092526040908101600020815160808101835281546001600160a01b039081168252600183015416938101939093526002810154918301919091526003015460608201528351849083908110610d6657634e487b7160e01b600052603260045260246000fd5b60200260200101819052508080610d7c90613901565b915050610bf5565b5050935093915050565b610d9661268a565b610da16006826126e4565b610e015760405162461bcd60e51b815260206004820152602b60248201527f436c6f736520636f6c6c656374696f6e3a2074686520636f6c6c656374696f6e60448201526a081b9bdd081b1a5cdd195960aa1b6064820152608401610614565b6001600160a01b0381166000908152600560205260409020805460ff19166001179055610e2f600682612706565b506040516001600160a01b038216907f9b484b84384aae1cfcf87460de468e0e38dca97450aca6f5ba47e529293a75ab90600090a250565b60026008541415610e8a5760405162461bcd60e51b815260040161061490613830565b6002600855610e9a83838361271b565b5050600160085550565b60026008541415610ec75760405162461bcd60e51b815260040161061490613830565b60026008556001600160a01b038381166000908152600960209081526040808320868452909152902054163314610f335760405162461bcd60e51b815260206004820152601060248201526f20b9b59d1037b7363c9039b2b63632b960811b6044820152606401610614565b6001600160a01b0383166000908152600960209081526040808320858452909152902060030154811115610f9d5760405162461bcd60e51b815260206004820152601160248201527041736b3a206f76657220616d6f756e747360781b6044820152606401610614565b604051637921219560e11b81526001600160a01b0384169063f242432a90610fcf9030903390879087906004016135c9565b600060405180830381600087803b158015610fe957600080fd5b505af1158015610ffd573d6000803e3d6000fd5b505050506001600160a01b0383166000908152600960209081526040808320858452909152902060030154811415611092576001600160a01b0383166000818152600960209081526040808320868452825280832080546001600160a01b03199081168255600182018054909116905560028101849055600301839055928252600a90522061108c9083612901565b506110ce565b6001600160a01b0383166000908152600960209081526040808320858452909152812060030180548392906110c89084906138be565b90915550505b60408051838152602081018390526001600160a01b0385169133917ff37ca569c6a2bd40c5ceb6e4991ec6a7e34fccd7dc6e83298cd98737062135cd910160405180910390a35050600160085550565b6060806000838561112f600661290d565b61113991906138be565b811115611158578561114b600661290d565b61115591906138be565b90505b8067ffffffffffffffff81111561117f57634e487b7160e01b600052604160045260246000fd5b6040519080825280602002602001820160405280156111a8578160200160208202803683370190505b5093508067ffffffffffffffff8111156111d257634e487b7160e01b600052604160045260246000fd5b60405190808252806020026020018201604052801561121d57816020015b60408051606081018252600080825260208083018290529282015282526000199092019101816111f05790505b50925060005b81811015611378576112406112388289613867565b600690612917565b85828151811061126057634e487b7160e01b600052603260045260246000fd5b60200260200101906001600160a01b031690816001600160a01b031681525050600560008683815181106112a457634e487b7160e01b600052603260045260246000fd5b6020908102919091018101516001600160a01b0316825281019190915260409081016000208151606081019092528054829060ff1660018111156112f857634e487b7160e01b600052602160045260246000fd5b600181111561131757634e487b7160e01b600052602160045260246000fd5b8152600182015460208201526002909101546001600160a01b0316604090910152845185908390811061135a57634e487b7160e01b600052603260045260246000fd5b6020026020010181905250808061137090613901565b915050611223565b5083836113858389613867565b935093509350509250925092565b61139b61268a565b6113a56000612923565b565b600260085414156113ca5760405162461bcd60e51b815260040161061490613830565b600260088190556001600160a01b038088166000908152600b602090815260408083208a845282528083208985168452825291829020825160608101845281549094168452600181015491840182905290930154908201529083146114715760405162461bcd60e51b815260206004820152601860248201527f4163636570744269643a20696e76616c696420707269636500000000000000006044820152606401610614565b836001600160a01b031681600001516001600160a01b0316146114d65760405162461bcd60e51b815260206004820152601d60248201527f4163636570744269643a20696e76616c69642071756f7465546f6b656e0000006044820152606401610614565b6001600160a01b0387811660009081526009602090815260408083208a8452909152902054163381141561156d57604051637921219560e11b81526001600160a01b0389169063f242432a906115369030908a908c9089906004016135c9565b600060405180830381600087803b15801561155057600080fd5b505af1158015611564573d6000803e3d6000fd5b505050506115d5565b50604051637921219560e11b815233906001600160a01b0389169063f242432a906115a29084908a908c9089906004016135c9565b600060405180830381600087803b1580156115bc57600080fd5b505af11580156115d0573d6000803e3d6000fd5b505050505b60006115e184866123b8565b905060006115f08a8884612973565b905060006115fe8383612ac5565b90506116146001600160a01b0389168583612ad1565b6001600160a01b038b1660009081526009602090815260408083208d84529091529020600301548614156116a5576001600160a01b038b1660008181526009602090815260408083208e8452825280832080546001600160a01b03199081168255600182018054909116905560028101849055600301839055928252600a90522061169f908b612901565b506116e1565b6001600160a01b038b1660009081526009602090815260408083208d8452909152812060030180548892906116db9084906138be565b90915550505b6001600160a01b03808c166000908152600b602090815260408083208e84528252808320938d1683529290522060020154861415611766576001600160a01b03808c166000908152600b602090815260408083208e84528252808320938d16835292905290812080546001600160a01b031916815560018101829055600201556117ae565b6001600160a01b03808c166000908152600b602090815260408083208e84528252808320938d16835292905290812060020180548892906117a89084906138be565b90915550505b604080518b81526001600160a01b038a811660208301529181018990526060810185905260808101889052818d16918b811691908716907ffab6a4ead67be9cd65b98514cf02fc2638c74b10ca24cf7b0d2e8aa3fe6ec3d39060a00160405180910390a450506001600855505050505050505050565b600260085414156118475760405162461bcd60e51b815260040161061490613830565b6002600855333b1561186b5760405162461bcd60e51b8152600401610614906137cb565b33321461188a5760405162461bcd60e51b8152600401610614906137f9565b6001600160a01b038481166000908152600960209081526040808320878452909152902054166118f05760405162461bcd60e51b81526020600482015260116024820152701d1bdad95b881a5cc81b9bdd081cd95b1b607a1b6044820152606401610614565b60006118fc82846123b8565b9050803410156119425760405162461bcd60e51b81526020600482015260116024820152700c2dadeeadce840dcdee840cadcdeeaced607b1b6044820152606401610614565b8034111561195857611958336106cc83346138be565b7f00000000000000000000000000000000000000000000000000000000000000006001600160a01b031663d0e30db0826040518263ffffffff1660e01b81526004016000604051808303818588803b1580156119b357600080fd5b505af11580156119c7573d6000803e3d6000fd5b505050505061077285857f0000000000000000000000000000000000000000000000000000000000000000858786612b01565b333b15611a195760405162461bcd60e51b8152600401610614906137cb565b333214611a385760405162461bcd60e51b8152600401610614906137f9565b60026008541415611a5b5760405162461bcd60e51b815260040161061490613830565b60026008556001600160a01b03858116600090815260096020908152604080832088845290915290205416611ac65760405162461bcd60e51b81526020600482015260116024820152701d1bdad95b881a5cc81b9bdd081cd95b1b607a1b6044820152606401610614565b6000611ad283836123b8565b9050611add33610b0c565b610b2b868686868686612b01565b6001600160a01b0383166000908152600a60205260408120606091829184908690611b159061290d565b611b1f91906138be565b811115611b56576001600160a01b0387166000908152600a602052604090208690611b499061290d565b611b5391906138be565b90505b8067ffffffffffffffff811115611b7d57634e487b7160e01b600052604160045260246000fd5b604051908082528060200260200182016040528015611ba6578160200160208202803683370190505b5093508067ffffffffffffffff811115611bd057634e487b7160e01b600052604160045260246000fd5b604051908082528060200260200182016040528015611c0957816020015b611bf661320f565b815260200190600190039081611bee5790505b50925060005b81811015611d4b57611c42611c248289613867565b6001600160a01b038a166000908152600a6020526040902090612917565b858281518110611c6257634e487b7160e01b600052603260045260246000fd5b60200260200101818152505060096000896001600160a01b03166001600160a01b031681526020019081526020016000206000868381518110611cb557634e487b7160e01b600052603260045260246000fd5b6020908102919091018101518252818101929092526040908101600020815160808101835281546001600160a01b039081168252600183015416938101939093526002810154918301919091526003015460608201528451859083908110611d2d57634e487b7160e01b600052603260045260246000fd5b60200260200101819052508080611d4390613901565b915050611c0f565b508383611d588389613867565b9350935093505093509350939050565b611d7061268a565b600454811115611dac5760405162461bcd60e51b81526020600482015260076024820152666d61785f66656560c81b6044820152606401610614565b600255565b611db961268a565b6001600160a01b03831660009081526005602052604081205460ff166001811115611df457634e487b7160e01b600052602160045260246000fd5b14611e545760405162461bcd60e51b815260206004820152602a60248201527f4d6f6469667920636f6c6c656374696f6e3a207468652073746174757320776160448201526939903737ba1037b832b760b11b6064820152608401610614565b611e5f6006846126e4565b611ec05760405162461bcd60e51b815260206004820152602c60248201527f4d6f6469667920636f6c6c656374696f6e3a2074686520636f6c6c656374696f60448201526b1b881b9bdd081b1a5cdd195960a21b6064820152608401610614565b600454811115611f125760405162461bcd60e51b815260206004820152601a60248201527f4d6f6469667920636f6c6c656374696f6e3a206d61785f6665650000000000006044820152606401610614565b60408051606081018252600080825260208083018590526001600160a01b038681168486015287168252600590529190912081518154829060ff191660018381811115611f6f57634e487b7160e01b600052602160045260246000fd5b02179055506020828101516001830155604092830151600290920180546001600160a01b0319166001600160a01b03938416179055825184815285831691810191909152908516917f6e3b53943b1a25c1f026d78d5ca41ca93327767504df7be6bfeada1660989d9891015b60405180910390a2505050565b611ff061268a565b6001600160a01b0381166120585760405162461bcd60e51b815260206004820152602960248201527f455243313135354e4654436f6c6c656374696f6e4d616e616765723a207a65726044820152686f206164647265737360b81b6064820152608401610614565b600180546001600160a01b0319166001600160a01b0392909216919091179055565b61208261268a565b6001600160a01b0381166120e75760405162461bcd60e51b815260206004820152602660248201527f4f776e61626c653a206e6577206f776e657220697320746865207a65726f206160448201526564647265737360d01b6064820152608401610614565b6120f081612923565b50565b6120fb61268a565b60045481111561214d5760405162461bcd60e51b815260206004820152601760248201527f4e657720636f6c6c656374696f6e3a206d61785f6665650000000000000000006044820152606401610614565b6001600160a01b0383166121a35760405162461bcd60e51b815260206004820152601c60248201527f4e657720636f6c6c656374696f6e3a207a65726f2061646472657373000000006044820152606401610614565b6121ae6006846126e4565b61220c5760405162461bcd60e51b815260206004820152602960248201527f4e657720636f6c6c656374696f6e3a20636f6c6c656374696f6e20616c726561604482015268191e481b1a5cdd195960ba1b6064820152608401610614565b6040516301ffc9a760e01b8152636cdb3d1360e11b60048201526001600160a01b038416906301ffc9a79060240160206040518083038186803b15801561225257600080fd5b505afa158015612266573d6000803e3d6000fd5b505050506040513d601f19601f8201168201806040525081019061228a91906134b4565b6122d65760405162461bcd60e51b815260206004820152601b60248201527f4e657720636f6c6c656374696f6e3a204e6f74204552433131353500000000006044820152606401610614565b60408051606081018252600080825260208083018590526001600160a01b038681168486015287168252600590529190912081518154829060ff19166001838181111561233357634e487b7160e01b600052602160045260246000fd5b021790555060208201516001820155604090910151600290910180546001600160a01b0319166001600160a01b03909216919091179055612375600684612def565b50604080518281526001600160a01b0384811660208301528516917f3d29e008d3c3ac1e8e834e55c2f088c20d73040d0a033b09e10de9193ed771199101611fdb565b60006123c4828461389f565b90505b92915050565b604080516000808252602082019092526001600160a01b0384169083906040516123f791906135ad565b60006040518083038185875af1925050503d8060008114612434576040519150601f19603f3d011682016040523d82523d6000602084013e612439565b606091505b50509050806124965760405162461bcd60e51b815260206004820152602360248201527f5472616e7366657248656c7065723a204b41495f5452414e534645525f46414960448201526213115160ea1b6064820152608401610614565b505050565b600082116124f75760405162461bcd60e51b8152602060048201526024808201527f4269643a205072696365206d757374206265206772616e746572207468616e206044820152637a65726f60e01b6064820152608401610614565b6001600160a01b0385166000908152600b602090815260408083208784528252808320338452909152902060010154156125365761253685858361271b565b60408051606080820183526001600160a01b0386811680845260208085018881528587018881528c85166000818152600b85528981208e8252855289812033808352908652908a9020985189546001600160a01b0319169716969096178855915160018801555160029096019590955585518a81529081019190915293840186905290830184905290917f4f2ba8a69ff33f399774e6b002d84d73ac2da9597030a88251649b17622937e5906080015b60405180910390a35050505050565b60006123c48383612e00565b6040516001600160a01b038085166024830152831660448201526064810182905261266c9085906323b872dd60e01b906084015b60408051601f198184030181529190526020810180516001600160e01b03166001600160e01b031990931692909217909152612e4f565b50505050565b600081815260018301602052604081205415156123c4565b6000546001600160a01b031633146113a55760405162461bcd60e51b815260206004820181905260248201527f4f776e61626c653a2063616c6c6572206973206e6f7420746865206f776e65726044820152606401610614565b6001600160a01b038116600090815260018301602052604081205415156123c4565b60006123c4836001600160a01b038416612f21565b6001600160a01b038381166000908152600b602090815260408083208684528252808320338452825291829020825160608101845281549094168452600181015491840182905260020154918301919091526127ae5760405162461bcd60e51b8152602060048201526012602482015271109a590e88189a59081b9bdd08199bdd5b9960721b6044820152606401610614565b81816040015110156127fb5760405162461bcd60e51b81526020600482015260166024820152754269643a20496e636f727265637420616d6f756e747360501b6044820152606401610614565b602081015160009061280d90846123b8565b90506128253383516001600160a01b03169083612ad1565b828260400151141561287a576001600160a01b0385166000908152600b602090815260408083208784528252808320338452909152812080546001600160a01b031916815560018101829055600201556128be565b6001600160a01b0385166000908152600b602090815260408083208784528252808320338452909152812060020180548592906128b89084906138be565b90915550505b60408051858152602081018590526001600160a01b0387169133917f99a3761c98d7a0c3980cbeb3d8009b315a463f8020b43ca1e6901611b06547f991016125e6565b60006123c48383612f21565b60006123c7825490565b60006123c4838361303e565b600080546001600160a01b038381166001600160a01b0319831681178455604051919092169283917f8be0079c531659141344cd1fd0a4f28419497f9722a3daafe3b4186f6b6457e09190a35050565b600154600090819081906001600160a01b0316156129d6576129ac6127106129a6600254876123b890919063ffffffff16565b90613076565b6001549092506129c9906001600160a01b03878116911684612ad1565b6129d38183613082565b90505b6001600160a01b0386166000908152600560205260408082208151606081019092528054829060ff166001811115612a1e57634e487b7160e01b600052602160045260246000fd5b6001811115612a3d57634e487b7160e01b600052602160045260246000fd5b8152600182015460208201526002909101546001600160a01b03908116604092830152908201519192501615612ab957612a8a6127106129a68360200151886123b890919063ffffffff16565b92508215612aac576040810151612aac906001600160a01b0388169085612ad1565b612ab68284613082565b91505b509150505b9392505050565b60006123c482846138be565b6040516001600160a01b03831660248201526044810182905261249690849063a9059cbb60e01b90606401612635565b6001600160a01b0380871660009081526009602090815260408083208984528252918290208251608081018452815485168152600182015485169281018390526002820154938101939093526003015460608301529091861614612ba75760405162461bcd60e51b815260206004820152601a60248201527f4275793a20496e636f727265637420716f75746520746f6b656e0000000000006044820152606401610614565b83816040015114612bf15760405162461bcd60e51b81526020600482015260146024820152734275793a20496e636f727265637420707269636560601b6044820152606401610614565b8281606001511015612c3e5760405162461bcd60e51b81526020600482015260166024820152754275793a20496e636f727265637420616d6f756e747360501b6044820152606401610614565b6000612c4b888785612973565b90506000612c598483612ac5565b8351909150612c73906001600160a01b0389169083612ad1565b604051637921219560e11b81526001600160a01b038a169063f242432a90612ca590309033908d908b906004016135c9565b600060405180830381600087803b158015612cbf57600080fd5b505af1158015612cd3573d6000803e3d6000fd5b505050508260600151851415612d46576001600160a01b03891660008181526009602090815260408083208c8452825280832080546001600160a01b03199081168255600182018054909116905560028101849055600301839055928252600a905220612d409089612901565b50612d82565b6001600160a01b03891660009081526009602090815260408083208b845290915281206003018054879290612d7c9084906138be565b90915550505b8251604080518a81526001600160a01b038a811660208301528183018a9052606082018590526080820189905291518c831693339316917f965954b42cc9fb2625659cd031f8cbbd4b409525e0b0d1c95a8bb15918b436dd919081900360a00190a4505050505050505050565b60006123c4836001600160a01b0384165b6000818152600183016020526040812054612e47575081546001818101845560008481526020808220909301849055845484825282860190935260409020919091556123c7565b5060006123c7565b6000612ea4826040518060400160405280602081526020017f5361666545524332303a206c6f772d6c6576656c2063616c6c206661696c6564815250856001600160a01b031661308e9092919063ffffffff16565b8051909150156124965780806020019051810190612ec291906134b4565b6124965760405162461bcd60e51b815260206004820152602a60248201527f5361666545524332303a204552433230206f7065726174696f6e20646964206e6044820152691bdd081cdd58d8d9595960b21b6064820152608401610614565b60008181526001830160205260408120548015613034576000612f456001836138be565b8554909150600090612f59906001906138be565b9050818114612fda576000866000018281548110612f8757634e487b7160e01b600052603260045260246000fd5b9060005260206000200154905080876000018481548110612fb857634e487b7160e01b600052603260045260246000fd5b6000918252602080832090910192909255918252600188019052604090208390555b8554869080612ff957634e487b7160e01b600052603160045260246000fd5b6001900381819060005260206000200160009055905585600101600086815260200190815260200160002060009055600193505050506123c7565b60009150506123c7565b600082600001828154811061306357634e487b7160e01b600052603260045260246000fd5b9060005260206000200154905092915050565b60006123c4828461387f565b60006123c48284613867565b606061309d84846000856130a5565b949350505050565b6060824710156131065760405162461bcd60e51b815260206004820152602660248201527f416464726573733a20696e73756666696369656e742062616c616e636520666f6044820152651c8818d85b1b60d21b6064820152608401610614565b6001600160a01b0385163b61315d5760405162461bcd60e51b815260206004820152601d60248201527f416464726573733a2063616c6c20746f206e6f6e2d636f6e74726163740000006044820152606401610614565b600080866001600160a01b0316858760405161317991906135ad565b60006040518083038185875af1925050503d80600081146131b6576040519150601f19603f3d011682016040523d82523d6000602084013e6131bb565b606091505b50915091506131cb8282866131d6565b979650505050505050565b606083156131e5575081612abe565b8251156131f55782518084602001fd5b8160405162461bcd60e51b81526004016106149190613798565b604051806080016040528060006001600160a01b0316815260200160006001600160a01b0316815260200160008152602001600081525090565b80356001600160a01b038116811461326057600080fd5b919050565b600060208284031215613276578081fd5b6123c482613249565b600080600060608486031215613293578182fd5b61329c84613249565b92506132aa60208501613249565b9150604084013590509250925092565b6000806000604084860312156132ce578283fd5b6132d784613249565b9250602084013567ffffffffffffffff808211156132f3578384fd5b818601915086601f830112613306578384fd5b813581811115613314578485fd5b8760208260051b8501011115613328578485fd5b6020830194508093505050509250925092565b6000806040838503121561334d578182fd5b61335683613249565b946020939093013593505050565b600080600060608486031215613378578283fd5b61338184613249565b92506020840135915061339660408501613249565b90509250925092565b60008060008060008060c087890312156133b7578182fd5b6133c087613249565b9550602087013594506133d560408801613249565b93506133e360608801613249565b92506080870135915060a087013590509295509295509295565b600080600080600060a08688031215613414578081fd5b61341d86613249565b94506020860135935061343260408701613249565b94979396509394606081013594506080013592915050565b60008060006060848603121561345e578283fd5b61346784613249565b95602085013595506040909401359392505050565b60008060008060808587031215613491578384fd5b61349a85613249565b966020860135965060408601359560600135945092505050565b6000602082840312156134c5578081fd5b81518015158114612abe578182fd5b6000602082840312156134e5578081fd5b5035919050565b6000602082840312156134fd578081fd5b5051919050565b60008060408385031215613516578182fd5b50508035926020909101359150565b6000815180845260208085019450808401835b8381101561358057815180516001600160a01b039081168952848201511684890152604080820151908901526060908101519088015260809096019590820190600101613538565b509495945050505050565b600281106135a957634e487b7160e01b600052602160045260246000fd5b9052565b600082516135bf8184602087016138d5565b9190910192915050565b6001600160a01b0394851681529290931660208301526040820152606081019190915260a06080820181905260009082015260c00190565b60608082528451828201819052600091906020906080850190828901855b828110156136445781516001600160a01b03168452928401929084019060010161361f565b50505084810382860152865180825287830191830190855b8181101561369c57835161367184825161358b565b80860151848701526040908101516001600160a01b031690840152928401929185019160010161365c565b505080945050505050826040830152949350505050565b604080825283519082018190526000906020906060840190828701845b828110156136ee5781511515845292840192908401906001016136d0565b505050838103828501526137028186613525565b9695505050505050565b606080825284519082018190526000906020906080840190828801845b8281101561374557815184529284019290840190600101613729565b505050838103828501526137598187613525565b92505050826040830152949350505050565b60608101613779828661358b565b60208201939093526001600160a01b0391909116604090910152919050565b60208152600082518060208401526137b78160408501602087016138d5565b601f01601f19169190910160400192915050565b60208082526014908201527310dbdb9d1c9858dd081b9bdd08185b1b1bddd95960621b604082015260600190565b6020808252601a908201527f50726f787920636f6e7472616374206e6f7420616c6c6f776564000000000000604082015260600190565b6020808252601f908201527f5265656e7472616e637947756172643a207265656e7472616e742063616c6c00604082015260600190565b6000821982111561387a5761387a61391c565b500190565b60008261389a57634e487b7160e01b81526012600452602481fd5b500490565b60008160001904831182151516156138b9576138b961391c565b500290565b6000828210156138d0576138d061391c565b500390565b60005b838110156138f05781810151838201526020016138d8565b8381111561266c5750506000910152565b60006000198214156139155761391561391c565b5060010190565b634e487b7160e01b600052601160045260246000fdfea2646970667358221220d4e89965515697034733db129dfda15087f62193d44023835af1fd3c8928728d64736f6c63430008040033",
  "linkReferences": {},
  "deployedLinkReferences": {}
}