{
  "_format": "hh-sol-artifact-1",
  "contractName": "ERC1155NFTMarket",
  "sourceName": "contracts/nft-marketplace/erc1155-marketplace/ERC1155NFTMarket.sol",
  "abi": [
    {
      "inputs": [
        {
          "internalType": "address",
          "name": "_weth",
          "type": "address"
        },
        {
          "internalType": "address",
          "name": "_feeRecipient",
          "type": "address"
        },
        {
          "internalType": "uint256",
          "name": "_feePercent",
          "type": "uint256"
        }
      ],
      "stateMutability": "nonpayable",
      "type": "constructor"
    },
    {
      "anonymous": false,
      "inputs": [
        {
          "indexed": true,
          "internalType": "address",
          "name": "_seller",
          "type": "address"
        },
        {
          "indexed": true,
          "internalType": "address",
          "name": "bidder",
          "type": "address"
        },
        {
          "indexed": true,
          "internalType": "address",
          "name": "_nft",
          "type": "address"
        },
        {
          "indexed": false,
          "internalType": "uint256",
          "name": "_tokenId",
          "type": "uint256"
        },
        {
          "indexed": false,
          "internalType": "address",
          "name": "_quoteToken",
          "type": "address"
        },
        {
          "indexed": false,
          "internalType": "uint256",
          "name": "_price",
          "type": "uint256"
        },
        {
          "indexed": false,
          "internalType": "uint256",
          "name": "_netPay",
          "type": "uint256"
        },
        {
          "indexed": false,
          "internalType": "uint256",
          "name": "_amounts",
          "type": "uint256"
        }
      ],
      "name": "AcceptBid",
      "type": "event"
    },
    {
      "anonymous": false,
      "inputs": [
        {
          "indexed": true,
          "internalType": "address",
          "name": "_seller",
          "type": "address"
        },
        {
          "indexed": true,
          "internalType": "address",
          "name": "_nft",
          "type": "address"
        },
        {
          "indexed": false,
          "internalType": "uint256",
          "name": "_tokenId",
          "type": "uint256"
        },
        {
          "indexed": false,
          "internalType": "uint256",
          "name": "_amounts",
          "type": "uint256"
        }
      ],
      "name": "AskCancel",
      "type": "event"
    },
    {
      "anonymous": false,
      "inputs": [
        {
          "indexed": true,
          "internalType": "address",
          "name": "_seller",
          "type": "address"
        },
        {
          "indexed": true,
          "internalType": "address",
          "name": "_nft",
          "type": "address"
        },
        {
          "indexed": false,
          "internalType": "uint256",
          "name": "_tokenId",
          "type": "uint256"
        },
        {
          "indexed": false,
          "internalType": "address",
          "name": "_quoteToken",
          "type": "address"
        },
        {
          "indexed": false,
          "internalType": "uint256",
          "name": "_price",
          "type": "uint256"
        },
        {
          "indexed": false,
          "internalType": "uint256",
          "name": "_amounts",
          "type": "uint256"
        }
      ],
      "name": "AskNew",
      "type": "event"
    },
    {
      "anonymous": false,
      "inputs": [
        {
          "indexed": true,
          "internalType": "address",
          "name": "bidder",
          "type": "address"
        },
        {
          "indexed": true,
          "internalType": "address",
          "name": "_nft",
          "type": "address"
        },
        {
          "indexed": false,
          "internalType": "uint256",
          "name": "_tokenId",
          "type": "uint256"
        },
        {
          "indexed": false,
          "internalType": "address",
          "name": "_quoteToken",
          "type": "address"
        },
        {
          "indexed": false,
          "internalType": "uint256",
          "name": "_price",
          "type": "uint256"
        },
        {
          "indexed": false,
          "internalType": "uint256",
          "name": "_amounts",
          "type": "uint256"
        }
      ],
      "name": "Bid",
      "type": "event"
    },
    {
      "anonymous": false,
      "inputs": [
        {
          "indexed": true,
          "internalType": "address",
          "name": "bidder",
          "type": "address"
        },
        {
          "indexed": true,
          "internalType": "address",
          "name": "_nft",
          "type": "address"
        },
        {
          "indexed": false,
          "internalType": "uint256",
          "name": "_tokenId",
          "type": "uint256"
        },
        {
          "indexed": false,
          "internalType": "uint256",
          "name": "_amounts",
          "type": "uint256"
        }
      ],
      "name": "CancelBid",
      "type": "event"
    },
    {
      "anonymous": false,
      "inputs": [
        {
          "indexed": false,
          "internalType": "address",
          "name": "owner",
          "type": "address"
        },
        {
          "components": [
            {
              "internalType": "uint256",
              "name": "loyaltyFeePercent",
              "type": "uint256"
            },
            {
              "internalType": "address",
              "name": "loyaltyFeeRecipient",
              "type": "address"
            }
          ],
          "indexed": false,
          "internalType": "struct ERC1155NFTFeeDistributor.Collection",
          "name": "collection",
          "type": "tuple"
        }
      ],
      "name": "CollectionUpdated",
      "type": "event"
    },
    {
      "anonymous": false,
      "inputs": [
        {
          "indexed": true,
          "internalType": "address",
          "name": "previousOwner",
          "type": "address"
        },
        {
          "indexed": true,
          "internalType": "address",
          "name": "newOwner",
          "type": "address"
        }
      ],
      "name": "OwnershipTransferred",
      "type": "event"
    },
    {
      "anonymous": false,
      "inputs": [
        {
          "indexed": true,
          "internalType": "address",
          "name": "_seller",
          "type": "address"
        },
        {
          "indexed": true,
          "internalType": "address",
          "name": "buyer",
          "type": "address"
        },
        {
          "indexed": true,
          "internalType": "address",
          "name": "_nft",
          "type": "address"
        },
        {
          "indexed": false,
          "internalType": "uint256",
          "name": "_tokenId",
          "type": "uint256"
        },
        {
          "indexed": false,
          "internalType": "address",
          "name": "_quoteToken",
          "type": "address"
        },
        {
          "indexed": false,
          "internalType": "uint256",
          "name": "_price",
          "type": "uint256"
        },
        {
          "indexed": false,
          "internalType": "uint256",
          "name": "_netPay",
          "type": "uint256"
        },
        {
          "indexed": false,
          "internalType": "uint256",
          "name": "_amounts",
          "type": "uint256"
        }
      ],
      "name": "Trade",
      "type": "event"
    },
    {
      "inputs": [],
      "name": "MAX_FEE",
      "outputs": [
        {
          "internalType": "uint256",
          "name": "",
          "type": "uint256"
        }
      ],
      "stateMutability": "view",
      "type": "function"
    },
    {
      "inputs": [],
      "name": "WETH",
      "outputs": [
        {
          "internalType": "address",
          "name": "",
          "type": "address"
        }
      ],
      "stateMutability": "view",
      "type": "function"
    },
    {
      "inputs": [
        {
          "internalType": "address",
          "name": "_nft",
          "type": "address"
        },
        {
          "internalType": "uint256",
          "name": "_tokenId",
          "type": "uint256"
        },
        {
          "internalType": "address",
          "name": "_bidder",
          "type": "address"
        },
        {
          "internalType": "address",
          "name": "_quoteToken",
          "type": "address"
        },
        {
          "internalType": "uint256",
          "name": "_price",
          "type": "uint256"
        },
        {
          "internalType": "uint256",
          "name": "_amounts",
          "type": "uint256"
        }
      ],
      "name": "acceptBid",
      "outputs": [],
      "stateMutability": "nonpayable",
      "type": "function"
    },
    {
      "inputs": [
        {
          "internalType": "address",
          "name": "",
          "type": "address"
        },
        {
          "internalType": "uint256",
          "name": "",
          "type": "uint256"
        }
      ],
      "name": "asks",
      "outputs": [
        {
          "internalType": "address",
          "name": "seller",
          "type": "address"
        },
        {
          "internalType": "address",
          "name": "quoteToken",
          "type": "address"
        },
        {
          "internalType": "uint256",
          "name": "price",
          "type": "uint256"
        },
        {
          "internalType": "uint256",
          "name": "amounts",
          "type": "uint256"
        }
      ],
      "stateMutability": "view",
      "type": "function"
    },
    {
      "inputs": [
        {
          "internalType": "address",
          "name": "",
          "type": "address"
        },
        {
          "internalType": "uint256",
          "name": "",
          "type": "uint256"
        },
        {
          "internalType": "address",
          "name": "",
          "type": "address"
        }
      ],
      "name": "bids",
      "outputs": [
        {
          "internalType": "address",
          "name": "quoteToken",
          "type": "address"
        },
        {
          "internalType": "uint256",
          "name": "price",
          "type": "uint256"
        },
        {
          "internalType": "uint256",
          "name": "amounts",
          "type": "uint256"
        }
      ],
      "stateMutability": "view",
      "type": "function"
    },
    {
      "inputs": [
        {
          "internalType": "address",
          "name": "_nft",
          "type": "address"
        },
        {
          "internalType": "uint256",
          "name": "_tokenId",
          "type": "uint256"
        },
        {
          "internalType": "address",
          "name": "_quoteToken",
          "type": "address"
        },
        {
          "internalType": "uint256",
          "name": "_price",
          "type": "uint256"
        },
        {
          "internalType": "uint256",
          "name": "_amounts",
          "type": "uint256"
        }
      ],
      "name": "buy",
      "outputs": [],
      "stateMutability": "nonpayable",
      "type": "function"
    },
    {
      "inputs": [
        {
          "internalType": "address",
          "name": "_nft",
          "type": "address"
        },
        {
          "internalType": "uint256",
          "name": "_tokenId",
          "type": "uint256"
        },
        {
          "internalType": "uint256",
          "name": "_amounts",
          "type": "uint256"
        },
        {
          "internalType": "uint256",
          "name": "_price",
          "type": "uint256"
        }
      ],
      "name": "buyUsingNative",
      "outputs": [],
      "stateMutability": "payable",
      "type": "function"
    },
    {
      "inputs": [
        {
          "internalType": "address",
          "name": "_nft",
          "type": "address"
        },
        {
          "internalType": "uint256",
          "name": "_tokenId",
          "type": "uint256"
        },
        {
          "internalType": "uint256",
          "name": "_amounts",
          "type": "uint256"
        }
      ],
      "name": "cancelAsk",
      "outputs": [],
      "stateMutability": "nonpayable",
      "type": "function"
    },
    {
      "inputs": [
        {
          "internalType": "address",
          "name": "_nft",
          "type": "address"
        },
        {
          "internalType": "uint256",
          "name": "_tokenId",
          "type": "uint256"
        },
        {
          "internalType": "uint256",
          "name": "_amounts",
          "type": "uint256"
        }
      ],
      "name": "cancelBid",
      "outputs": [],
      "stateMutability": "nonpayable",
      "type": "function"
    },
    {
      "inputs": [
        {
          "internalType": "address",
          "name": "",
          "type": "address"
        }
      ],
      "name": "collections",
      "outputs": [
        {
          "internalType": "uint256",
          "name": "loyaltyFeePercent",
          "type": "uint256"
        },
        {
          "internalType": "address",
          "name": "loyaltyFeeRecipient",
          "type": "address"
        }
      ],
      "stateMutability": "view",
      "type": "function"
    },
    {
      "inputs": [
        {
          "internalType": "address",
          "name": "_nft",
          "type": "address"
        },
        {
          "internalType": "uint256",
          "name": "_tokenId",
          "type": "uint256"
        },
        {
          "internalType": "address",
          "name": "_quoteToken",
          "type": "address"
        },
        {
          "internalType": "uint256",
          "name": "_price",
          "type": "uint256"
        },
        {
          "internalType": "uint256",
          "name": "_amounts",
          "type": "uint256"
        }
      ],
      "name": "createAsk",
      "outputs": [],
      "stateMutability": "nonpayable",
      "type": "function"
    },
    {
      "inputs": [
        {
          "internalType": "address",
          "name": "_nft",
          "type": "address"
        },
        {
          "internalType": "uint256",
          "name": "_tokenId",
          "type": "uint256"
        },
        {
          "internalType": "address",
          "name": "_quoteToken",
          "type": "address"
        },
        {
          "internalType": "uint256",
          "name": "_price",
          "type": "uint256"
        },
        {
          "internalType": "uint256",
          "name": "_amounts",
          "type": "uint256"
        }
      ],
      "name": "createBid",
      "outputs": [],
      "stateMutability": "nonpayable",
      "type": "function"
    },
    {
      "inputs": [
        {
          "internalType": "address",
          "name": "_nft",
          "type": "address"
        },
        {
          "internalType": "uint256",
          "name": "_tokenId",
          "type": "uint256"
        },
        {
          "internalType": "uint256",
          "name": "_price",
          "type": "uint256"
        },
        {
          "internalType": "uint256",
          "name": "_amounts",
          "type": "uint256"
        }
      ],
      "name": "createBidUsingNative",
      "outputs": [],
      "stateMutability": "payable",
      "type": "function"
    },
    {
      "inputs": [],
      "name": "owner",
      "outputs": [
        {
          "internalType": "address",
          "name": "",
          "type": "address"
        }
      ],
      "stateMutability": "view",
      "type": "function"
    },
    {
      "inputs": [],
      "name": "protocolFeePercent",
      "outputs": [
        {
          "internalType": "uint256",
          "name": "",
          "type": "uint256"
        }
      ],
      "stateMutability": "view",
      "type": "function"
    },
    {
      "inputs": [],
      "name": "protocolFeeRecipient",
      "outputs": [
        {
          "internalType": "address",
          "name": "",
          "type": "address"
        }
      ],
      "stateMutability": "view",
      "type": "function"
    },
    {
      "inputs": [],
      "name": "renounceOwnership",
      "outputs": [],
      "stateMutability": "nonpayable",
      "type": "function"
    },
    {
      "inputs": [
        {
          "internalType": "address",
          "name": "_nft",
          "type": "address"
        },
        {
          "internalType": "address",
          "name": "_recipient",
          "type": "address"
        },
        {
          "internalType": "uint256",
          "name": "_percent",
          "type": "uint256"
        }
      ],
      "name": "setCollection",
      "outputs": [],
      "stateMutability": "nonpayable",
      "type": "function"
    },
    {
      "inputs": [
        {
          "internalType": "uint256",
          "name": "_percent",
          "type": "uint256"
        }
      ],
      "name": "setProtocolFeePercent",
      "outputs": [],
      "stateMutability": "nonpayable",
      "type": "function"
    },
    {
      "inputs": [
        {
          "internalType": "address",
          "name": "_recipient",
          "type": "address"
        }
      ],
      "name": "setProtocolFeeRecipient",
      "outputs": [],
      "stateMutability": "nonpayable",
      "type": "function"
    },
    {
      "inputs": [
        {
          "internalType": "address",
          "name": "newOwner",
          "type": "address"
        }
      ],
      "name": "transferOwnership",
      "outputs": [],
      "stateMutability": "nonpayable",
      "type": "function"
    }
  ],
  "bytecode": "0x60a060405260fa6002556101f46004553480156200001c57600080fd5b50604051620027dc380380620027dc8339810160408190526200003f91620000f7565b81816200004c336200008a565b600180546001600160a01b0319166001600160a01b0393909316929092178255600255600655505060601b6001600160601b03191660805262000137565b600080546001600160a01b038381166001600160a01b0319831681178455604051919092169283917f8be0079c531659141344cd1fd0a4f28419497f9722a3daafe3b4186f6b6457e09190a35050565b80516001600160a01b0381168114620000f257600080fd5b919050565b6000806000606084860312156200010c578283fd5b6200011784620000da565b92506200012760208501620000da565b9150604084015190509250925092565b60805160601c61266a6200017260003960008181610313015281816105ae015281816106270152818161123701526112b0015261266a6000f3fe60806040526004361061012a5760003560e01c8063800fe083116100ab578063d6e6eb9f1161006f578063d6e6eb9f14610359578063dce97c511461036f578063dd7689221461038f578063e22d4f7d1461040b578063e521cb9214610490578063f2fde38b146104b057600080fd5b8063800fe083146102a35780638da5cb5b146102c3578063a4983421146102e1578063ad5c464814610301578063bc063e1a1461033557600080fd5b80634eaeefd6116100f25780634eaeefd61461020357806364df049e14610223578063715018a61461025b57806373e89020146102705780637ef679b41461029057600080fd5b806305d94e721461012f5780630c06979d1461014457806318a8a55b146101645780633290463b1461018457806343add2e6146101a4575b600080fd5b61014261013d3660046123d9565b6104d0565b005b34801561015057600080fd5b5061014261015f36600461235a565b610659565b34801561017057600080fd5b5061014261017f36600461235a565b61093e565b34801561019057600080fd5b5061014261019f3660046123a7565b6109e3565b3480156101b057600080fd5b506101e16101bf366004612243565b600560205260009081526040902080546001909101546001600160a01b031682565b604080519283526001600160a01b039091166020830152015b60405180910390f35b34801561020f57600080fd5b5061014261021e3660046123a7565b610a20565b34801561022f57600080fd5b50600154610243906001600160a01b031681565b6040516001600160a01b0390911681526020016101fa565b34801561026757600080fd5b50610142610c85565b34801561027c57600080fd5b5061014261028b3660046122fc565b610c99565b61014261029e3660046123d9565b611101565b3480156102af57600080fd5b506101426102be36600461235a565b6112d7565b3480156102cf57600080fd5b506000546001600160a01b0316610243565b3480156102ed57600080fd5b506101426102fc366004612431565b6113c8565b34801561030d57600080fd5b506102437f000000000000000000000000000000000000000000000000000000000000000081565b34801561034157600080fd5b5061034b60045481565b6040519081526020016101fa565b34801561036557600080fd5b5061034b60025481565b34801561037b57600080fd5b5061014261038a36600461225d565b611411565b34801561039b57600080fd5b506103e66103aa3660046122c1565b60086020908152600093845260408085208252928452828420905282529020805460018201546002909201546001600160a01b03909116919083565b604080516001600160a01b0390941684526020840192909252908201526060016101fa565b34801561041757600080fd5b50610465610426366004612298565b600760209081526000928352604080842090915290825290208054600182015460028301546003909301546001600160a01b0392831693919092169184565b604080516001600160a01b0395861681529490931660208501529183015260608201526080016101fa565b34801561049c57600080fd5b506101426104ab366004612243565b611571565b3480156104bc57600080fd5b506101426104cb366004612243565b611600565b333b156104f85760405162461bcd60e51b81526004016104ef906124e8565b60405180910390fd5b3332146105175760405162461bcd60e51b81526004016104ef90612516565b6002600654141561053a5760405162461bcd60e51b81526004016104ef9061254d565b6002600655600061054b8383611679565b9050803410156105915760405162461bcd60e51b81526020600482015260116024820152700c2dadeeadce840dcdee840cadcdeeaced607b1b60448201526064016104ef565b803411156105ac576105ac336105a783346125db565b61168c565b7f00000000000000000000000000000000000000000000000000000000000000006001600160a01b031663d0e30db0826040518263ffffffff1660e01b81526004016000604051808303818588803b15801561060757600080fd5b505af115801561061b573d6000803e3d6000fd5b505050505061064d85857f0000000000000000000000000000000000000000000000000000000000000000868661175a565b50506001600655505050565b6002600654141561067c5760405162461bcd60e51b81526004016104ef9061254d565b6002600655333b156106a05760405162461bcd60e51b81526004016104ef906124e8565b3332146106bf5760405162461bcd60e51b81526004016104ef90612516565b6000821161071b5760405162461bcd60e51b8152602060048201526024808201527f41736b3a205072696365206d7573742062652067726561746572207468616e206044820152637a65726f60e01b60648201526084016104ef565b806001600160a01b03861662fdd58e336040516001600160e01b031960e084901b1681526001600160a01b0390911660048201526024810188905260440160206040518083038186803b15801561077157600080fd5b505afa158015610785573d6000803e3d6000fd5b505050506040513d601f19601f820116820180604052508101906107a99190612449565b10156107f75760405162461bcd60e51b815260206004820152601f60248201527f41736b3a2054686520616d6f756e747320617265206e6f7420656e6f7567680060448201526064016104ef565b604051637921219560e11b81526001600160a01b0386169063f242432a9061082990339030908990879060040161247d565b600060405180830381600087803b15801561084357600080fd5b505af1158015610857573d6000803e3d6000fd5b50505050604051806080016040528061086d3390565b6001600160a01b0390811682528581166020808401829052604080850188905260609485018790528a84166000818152600784528281208c82528452829020875181549087166001600160a01b03199182161782558885015160018301805491909816911617909555868201516002860155958501516003909401939093558251898152908101919091528082018690529182018490525133917f51ed6233a1b8d203c2152620c91e1690f84439bd3e6896a1e147d145c6807e8d919081900360800190a350506001600655505050565b333b1561095d5760405162461bcd60e51b81526004016104ef906124e8565b33321461097c5760405162461bcd60e51b81526004016104ef90612516565b6002600654141561099f5760405162461bcd60e51b81526004016104ef9061254d565b600260065560006109b08284611679565b90506109c9335b6001600160a01b0386169030846118b4565b6109d6868686868661175a565b5050600160065550505050565b60026006541415610a065760405162461bcd60e51b81526004016104ef9061254d565b6002600655610a16838383611925565b5050600160065550565b60026006541415610a435760405162461bcd60e51b81526004016104ef9061254d565b60026006556001600160a01b038381166000908152600760209081526040808320868452909152902054163314610aaf5760405162461bcd60e51b815260206004820152601060248201526f20b9b59d1037b7363c9039b2b63632b960811b60448201526064016104ef565b6001600160a01b0383166000908152600760209081526040808320858452909152902060030154811115610b195760405162461bcd60e51b815260206004820152601160248201527041736b3a206f76657220616d6f756e747360781b60448201526064016104ef565b604051637921219560e11b81526001600160a01b0384169063f242432a90610b4b90309033908790879060040161247d565b600060405180830381600087803b158015610b6557600080fd5b505af1158015610b79573d6000803e3d6000fd5b505050506001600160a01b0383166000908152600760209081526040808320858452909152902060030154811415610bf9576001600160a01b0383166000908152600760209081526040808320858452909152812080546001600160a01b0319908116825560018201805490911690556002810182905560030155610c35565b6001600160a01b038316600090815260076020908152604080832085845290915281206003018054839290610c2f9084906125db565b90915550505b60408051838152602081018390526001600160a01b0385169133917ff37ca569c6a2bd40c5ceb6e4991ec6a7e34fccd7dc6e83298cd98737062135cd910160405180910390a35050600160065550565b610c8d611b10565b610c976000611b6a565b565b60026006541415610cbc5760405162461bcd60e51b81526004016104ef9061254d565b600260068190556001600160a01b0380881660009081526008602090815260408083208a84528252808320898516845282529182902082516060810184528154909416845260018101549184018290529093015490820152908314610d635760405162461bcd60e51b815260206004820152601860248201527f4163636570744269643a20696e76616c6964207072696365000000000000000060448201526064016104ef565b836001600160a01b031681600001516001600160a01b031614610dc85760405162461bcd60e51b815260206004820152601d60248201527f4163636570744269643a20696e76616c69642071756f7465546f6b656e00000060448201526064016104ef565b6001600160a01b0387811660009081526007602090815260408083208a84529091529020541633811415610e5f57604051637921219560e11b81526001600160a01b0389169063f242432a90610e289030908a908c90899060040161247d565b600060405180830381600087803b158015610e4257600080fd5b505af1158015610e56573d6000803e3d6000fd5b50505050610ec7565b50604051637921219560e11b815233906001600160a01b0389169063f242432a90610e949084908a908c90899060040161247d565b600060405180830381600087803b158015610eae57600080fd5b505af1158015610ec2573d6000803e3d6000fd5b505050505b6000610ed38486611679565b90506000610ee28a8884611bba565b90506000610ef08383611ca7565b9050610f066001600160a01b0389168583611cb3565b6001600160a01b038b1660009081526007602090815260408083208d8452909152902060030154861415610f82576001600160a01b038b1660009081526007602090815260408083208d8452909152812080546001600160a01b0319908116825560018201805490911690556002810182905560030155610fbe565b6001600160a01b038b1660009081526007602090815260408083208d845290915281206003018054889290610fb89084906125db565b90915550505b6001600160a01b03808c1660009081526008602090815260408083208e84528252808320938d1683529290522060020154861415611043576001600160a01b03808c1660009081526008602090815260408083208e84528252808320938d16835292905290812080546001600160a01b0319168155600181018290556002015561108b565b6001600160a01b03808c1660009081526008602090815260408083208e84528252808320938d16835292905290812060020180548892906110859084906125db565b90915550505b604080518b81526001600160a01b038a811660208301529181018990526060810185905260808101889052818d16918b811691908716907ffab6a4ead67be9cd65b98514cf02fc2638c74b10ca24cf7b0d2e8aa3fe6ec3d39060a00160405180910390a450506001600655505050505050505050565b600260065414156111245760405162461bcd60e51b81526004016104ef9061254d565b6002600655333b156111485760405162461bcd60e51b81526004016104ef906124e8565b3332146111675760405162461bcd60e51b81526004016104ef90612516565b6001600160a01b038481166000908152600760209081526040808320878452909152902054166111cd5760405162461bcd60e51b81526020600482015260116024820152701d1bdad95b881a5cc81b9bdd081cd95b1b607a1b60448201526064016104ef565b60006111d98284611679565b90508034101561121f5760405162461bcd60e51b81526020600482015260116024820152700c2dadeeadce840dcdee840cadcdeeaced607b1b60448201526064016104ef565b8034111561123557611235336105a783346125db565b7f00000000000000000000000000000000000000000000000000000000000000006001600160a01b031663d0e30db0826040518263ffffffff1660e01b81526004016000604051808303818588803b15801561129057600080fd5b505af11580156112a4573d6000803e3d6000fd5b505050505061064d85857f0000000000000000000000000000000000000000000000000000000000000000858786611ce3565b333b156112f65760405162461bcd60e51b81526004016104ef906124e8565b3332146113155760405162461bcd60e51b81526004016104ef90612516565b600260065414156113385760405162461bcd60e51b81526004016104ef9061254d565b60026006556001600160a01b038581166000908152600760209081526040808320888452909152902054166113a35760405162461bcd60e51b81526020600482015260116024820152701d1bdad95b881a5cc81b9bdd081cd95b1b607a1b60448201526064016104ef565b60006113af8383611679565b90506113ba336109b7565b6109d6868686868686611ce3565b6113d0611b10565b60045481111561140c5760405162461bcd60e51b81526020600482015260076024820152666d61785f66656560c81b60448201526064016104ef565b600255565b611419611b10565b6004548111156114555760405162461bcd60e51b81526020600482015260076024820152666d61785f66656560c81b60448201526064016104ef565b6001600160a01b03831661149a5760405162461bcd60e51b815260206004820152600c60248201526b7a65726f206164647265737360a01b60448201526064016104ef565b6001600160a01b0382166114df5760405162461bcd60e51b815260206004820152600c60248201526b7a65726f206164647265737360a01b60448201526064016104ef565b6040805180820182528281526001600160a01b0384811660208084019182528783166000908152600582528590209351808555915160019094018054949093166001600160a01b031990941684179092558351338152918201528083019190915290517fff46874afead5e80822ecf46dda060808cd504220df8a1b17acbdf840e1545419181900360600190a1505050565b611579611b10565b6001600160a01b0381166115de5760405162461bcd60e51b815260206004820152602660248201527f455243313135354e46544665654469737472696275746f723a207a65726f206160448201526564647265737360d01b60648201526084016104ef565b600180546001600160a01b0319166001600160a01b0392909216919091179055565b611608611b10565b6001600160a01b03811661166d5760405162461bcd60e51b815260206004820152602660248201527f4f776e61626c653a206e6577206f776e657220697320746865207a65726f206160448201526564647265737360d01b60648201526084016104ef565b61167681611b6a565b50565b600061168582846125bc565b9392505050565b604080516000808252602082019092526001600160a01b0384169083906040516116b69190612461565b60006040518083038185875af1925050503d80600081146116f3576040519150601f19603f3d011682016040523d82523d6000602084013e6116f8565b606091505b50509050806117555760405162461bcd60e51b815260206004820152602360248201527f5472616e7366657248656c7065723a204b41495f5452414e534645525f46414960448201526213115160ea1b60648201526084016104ef565b505050565b600082116117b65760405162461bcd60e51b8152602060048201526024808201527f4269643a205072696365206d757374206265206772616e746572207468616e206044820152637a65726f60e01b60648201526084016104ef565b6001600160a01b03851660009081526008602090815260408083208784528252808320338452909152902060010154156117f5576117f5858583611925565b60408051606080820183526001600160a01b0386811680845260208085018881528587018881528c85166000818152600885528981208e8252855289812033808352908652908a9020985189546001600160a01b0319169716969096178855915160018801555160029096019590955585518a81529081019190915293840186905290830184905290917f4f2ba8a69ff33f399774e6b002d84d73ac2da9597030a88251649b17622937e5906080015b60405180910390a35050505050565b6040516001600160a01b038085166024830152831660448201526064810182905261191f9085906323b872dd60e01b906084015b60408051601f198184030181529190526020810180516001600160e01b03166001600160e01b031990931692909217909152611fbc565b50505050565b6001600160a01b0383811660009081526008602090815260408083208684528252808320338452825291829020825160608101845281549094168452600181015491840182905260020154918301919091526119b85760405162461bcd60e51b8152602060048201526012602482015271109a590e88189a59081b9bdd08199bdd5b9960721b60448201526064016104ef565b8181604001511015611a055760405162461bcd60e51b81526020600482015260166024820152754269643a20496e636f727265637420616d6f756e747360501b60448201526064016104ef565b6020810151600090611a179084611679565b9050611a3433602084015184516001600160a01b03169190611cb3565b8282604001511415611a89576001600160a01b03851660009081526008602090815260408083208784528252808320338452909152812080546001600160a01b03191681556001810182905560020155611acd565b6001600160a01b0385166000908152600860209081526040808320878452825280832033845290915281206002018054859290611ac79084906125db565b90915550505b60408051858152602081018590526001600160a01b0387169133917f99a3761c98d7a0c3980cbeb3d8009b315a463f8020b43ca1e6901611b06547f991016118a5565b6000546001600160a01b03163314610c975760405162461bcd60e51b815260206004820181905260248201527f4f776e61626c653a2063616c6c6572206973206e6f7420746865206f776e657260448201526064016104ef565b600080546001600160a01b038381166001600160a01b0319831681178455604051919092169283917f8be0079c531659141344cd1fd0a4f28419497f9722a3daafe3b4186f6b6457e09190a35050565b600154600090819081906001600160a01b031615611c1d57611bf3612710611bed6002548761167990919063ffffffff16565b9061208e565b600154909250611c10906001600160a01b03878116911684611cb3565b611c1a818361209a565b90505b6001600160a01b03808716600090815260056020908152604091829020825180840190935280548352600101549092169181018290529015611c9d578051611c6e9061271090611bed908890611679565b92508215611c90576020810151611c90906001600160a01b0388169085611cb3565b611c9a828461209a565b91505b5095945050505050565b600061168582846125db565b6040516001600160a01b03831660248201526044810182905261175590849063a9059cbb60e01b906064016118e8565b6001600160a01b0380871660009081526007602090815260408083208984528252918290208251608081018452815485168152600182015485169281018390526002820154938101939093526003015460608301529091861614611d895760405162461bcd60e51b815260206004820152601a60248201527f4275793a20496e636f727265637420716f75746520746f6b656e00000000000060448201526064016104ef565b83816040015114611dd35760405162461bcd60e51b81526020600482015260146024820152734275793a20496e636f727265637420707269636560601b60448201526064016104ef565b8281606001511015611e205760405162461bcd60e51b81526020600482015260166024820152754275793a20496e636f727265637420616d6f756e747360501b60448201526064016104ef565b6000611e2d888785611bba565b90506000611e3b8483611ca7565b8351909150611e55906001600160a01b0389169083611cb3565b604051637921219560e11b81526001600160a01b038a169063f242432a90611e8790309033908d908b9060040161247d565b600060405180830381600087803b158015611ea157600080fd5b505af1158015611eb5573d6000803e3d6000fd5b505050508260600151851415611f13576001600160a01b03891660009081526007602090815260408083208b8452909152812080546001600160a01b0319908116825560018201805490911690556002810182905560030155611f4f565b6001600160a01b03891660009081526007602090815260408083208b845290915281206003018054879290611f499084906125db565b90915550505b8251604080518a81526001600160a01b038a811660208301528183018a9052606082018590526080820189905291518c831693339316917f965954b42cc9fb2625659cd031f8cbbd4b409525e0b0d1c95a8bb15918b436dd919081900360a00190a4505050505050505050565b6000612011826040518060400160405280602081526020017f5361666545524332303a206c6f772d6c6576656c2063616c6c206661696c6564815250856001600160a01b03166120a69092919063ffffffff16565b805190915015611755578080602001905181019061202f9190612411565b6117555760405162461bcd60e51b815260206004820152602a60248201527f5361666545524332303a204552433230206f7065726174696f6e20646964206e6044820152691bdd081cdd58d8d9595960b21b60648201526084016104ef565b6000611685828461259c565b60006116858284612584565b60606120b584846000856120bd565b949350505050565b60608247101561211e5760405162461bcd60e51b815260206004820152602660248201527f416464726573733a20696e73756666696369656e742062616c616e636520666f6044820152651c8818d85b1b60d21b60648201526084016104ef565b6001600160a01b0385163b6121755760405162461bcd60e51b815260206004820152601d60248201527f416464726573733a2063616c6c20746f206e6f6e2d636f6e747261637400000060448201526064016104ef565b600080866001600160a01b031685876040516121919190612461565b60006040518083038185875af1925050503d80600081146121ce576040519150601f19603f3d011682016040523d82523d6000602084013e6121d3565b606091505b50915091506121e38282866121ee565b979650505050505050565b606083156121fd575081611685565b82511561220d5782518084602001fd5b8160405162461bcd60e51b81526004016104ef91906124b5565b80356001600160a01b038116811461223e57600080fd5b919050565b600060208284031215612254578081fd5b61168582612227565b600080600060608486031215612271578182fd5b61227a84612227565b925061228860208501612227565b9150604084013590509250925092565b600080604083850312156122aa578182fd5b6122b383612227565b946020939093013593505050565b6000806000606084860312156122d5578283fd5b6122de84612227565b9250602084013591506122f360408501612227565b90509250925092565b60008060008060008060c08789031215612314578182fd5b61231d87612227565b95506020870135945061233260408801612227565b935061234060608801612227565b92506080870135915060a087013590509295509295509295565b600080600080600060a08688031215612371578081fd5b61237a86612227565b94506020860135935061238f60408701612227565b94979396509394606081013594506080013592915050565b6000806000606084860312156123bb578283fd5b6123c484612227565b95602085013595506040909401359392505050565b600080600080608085870312156123ee578384fd5b6123f785612227565b966020860135965060408601359560600135945092505050565b600060208284031215612422578081fd5b81518015158114611685578182fd5b600060208284031215612442578081fd5b5035919050565b60006020828403121561245a578081fd5b5051919050565b600082516124738184602087016125f2565b9190910192915050565b6001600160a01b0394851681529290931660208301526040820152606081019190915260a06080820181905260009082015260c00190565b60208152600082518060208401526124d48160408501602087016125f2565b601f01601f19169190910160400192915050565b60208082526014908201527310dbdb9d1c9858dd081b9bdd08185b1b1bddd95960621b604082015260600190565b6020808252601a908201527f50726f787920636f6e7472616374206e6f7420616c6c6f776564000000000000604082015260600190565b6020808252601f908201527f5265656e7472616e637947756172643a207265656e7472616e742063616c6c00604082015260600190565b600082198211156125975761259761261e565b500190565b6000826125b757634e487b7160e01b81526012600452602481fd5b500490565b60008160001904831182151516156125d6576125d661261e565b500290565b6000828210156125ed576125ed61261e565b500390565b60005b8381101561260d5781810151838201526020016125f5565b8381111561191f5750506000910152565b634e487b7160e01b600052601160045260246000fdfea2646970667358221220b69ca8a403777e3ab3a20742e71234c9e344c031c8dc966007f1f8a6cf0f8a1f64736f6c63430008040033",
  "linkReferences": {},
  "deployedLinkReferences": {}
}