{
  "_format": "hh-sol-artifact-1",
  "contractName": "CloneRewarder",
  "sourceName": "contracts/farming/CloneRewarder.sol",
  "abi": [
    {
      "inputs": [
        {
          "internalType": "address",
          "name": "_MASTERCHEF_V2",
          "type": "address"
        }
      ],
      "stateMutability": "nonpayable",
      "type": "constructor"
    },
    {
      "anonymous": false,
      "inputs": [
        {
          "indexed": true,
          "internalType": "contract IERC20",
          "name": "rewardToken",
          "type": "address"
        },
        {
          "indexed": false,
          "internalType": "address",
          "name": "owner",
          "type": "address"
        },
        {
          "indexed": false,
          "internalType": "uint256",
          "name": "rewardPerSecond",
          "type": "uint256"
        },
        {
          "indexed": true,
          "internalType": "contract IERC20",
          "name": "masterLpToken",
          "type": "address"
        }
      ],
      "name": "LogInit",
      "type": "event"
    },
    {
      "anonymous": false,
      "inputs": [
        {
          "indexed": true,
          "internalType": "address",
          "name": "user",
          "type": "address"
        },
        {
          "indexed": true,
          "internalType": "uint256",
          "name": "pid",
          "type": "uint256"
        },
        {
          "indexed": false,
          "internalType": "uint256",
          "name": "amount",
          "type": "uint256"
        },
        {
          "indexed": true,
          "internalType": "address",
          "name": "to",
          "type": "address"
        }
      ],
      "name": "LogOnReward",
      "type": "event"
    },
    {
      "anonymous": false,
      "inputs": [
        {
          "indexed": false,
          "internalType": "uint256",
          "name": "rewardPerSecond",
          "type": "uint256"
        }
      ],
      "name": "LogRewardPerSecond",
      "type": "event"
    },
    {
      "anonymous": false,
      "inputs": [
        {
          "indexed": true,
          "internalType": "uint256",
          "name": "pid",
          "type": "uint256"
        },
        {
          "indexed": false,
          "internalType": "uint64",
          "name": "lastRewardTime",
          "type": "uint64"
        },
        {
          "indexed": false,
          "internalType": "uint256",
          "name": "lpSupply",
          "type": "uint256"
        },
        {
          "indexed": false,
          "internalType": "uint256",
          "name": "accToken1PerShare",
          "type": "uint256"
        }
      ],
      "name": "LogUpdatePool",
      "type": "event"
    },
    {
      "anonymous": false,
      "inputs": [
        {
          "indexed": true,
          "internalType": "address",
          "name": "previousOwner",
          "type": "address"
        },
        {
          "indexed": true,
          "internalType": "address",
          "name": "newOwner",
          "type": "address"
        }
      ],
      "name": "OwnershipTransferred",
      "type": "event"
    },
    {
      "inputs": [],
      "name": "MASTERCHEF_V2",
      "outputs": [
        {
          "internalType": "address",
          "name": "",
          "type": "address"
        }
      ],
      "stateMutability": "view",
      "type": "function"
    },
    {
      "inputs": [],
      "name": "endRewardTime",
      "outputs": [
        {
          "internalType": "uint256",
          "name": "",
          "type": "uint256"
        }
      ],
      "stateMutability": "view",
      "type": "function"
    },
    {
      "inputs": [
        {
          "internalType": "address",
          "name": "_rewardToken",
          "type": "address"
        },
        {
          "internalType": "uint256",
          "name": "_rewardPerSecond",
          "type": "uint256"
        },
        {
          "internalType": "address",
          "name": "_masterLpToken",
          "type": "address"
        },
        {
          "internalType": "uint256",
          "name": "_startRewardTime",
          "type": "uint256"
        },
        {
          "internalType": "uint256",
          "name": "_endRewardTime",
          "type": "uint256"
        }
      ],
      "name": "init",
      "outputs": [],
      "stateMutability": "payable",
      "type": "function"
    },
    {
      "inputs": [],
      "name": "masterLpToken",
      "outputs": [
        {
          "internalType": "contract IERC20",
          "name": "",
          "type": "address"
        }
      ],
      "stateMutability": "view",
      "type": "function"
    },
    {
      "inputs": [
        {
          "internalType": "uint256",
          "name": "pid",
          "type": "uint256"
        },
        {
          "internalType": "address",
          "name": "_user",
          "type": "address"
        },
        {
          "internalType": "address",
          "name": "to",
          "type": "address"
        },
        {
          "internalType": "uint256",
          "name": "",
          "type": "uint256"
        },
        {
          "internalType": "uint256",
          "name": "lpTokenAmount",
          "type": "uint256"
        }
      ],
      "name": "onKdxReward",
      "outputs": [],
      "stateMutability": "nonpayable",
      "type": "function"
    },
    {
      "inputs": [],
      "name": "owner",
      "outputs": [
        {
          "internalType": "address",
          "name": "",
          "type": "address"
        }
      ],
      "stateMutability": "view",
      "type": "function"
    },
    {
      "inputs": [
        {
          "internalType": "uint256",
          "name": "_pid",
          "type": "uint256"
        },
        {
          "internalType": "address",
          "name": "_user",
          "type": "address"
        }
      ],
      "name": "pendingToken",
      "outputs": [
        {
          "internalType": "uint256",
          "name": "pending",
          "type": "uint256"
        }
      ],
      "stateMutability": "view",
      "type": "function"
    },
    {
      "inputs": [
        {
          "internalType": "uint256",
          "name": "pid",
          "type": "uint256"
        },
        {
          "internalType": "address",
          "name": "user",
          "type": "address"
        },
        {
          "internalType": "uint256",
          "name": "",
          "type": "uint256"
        }
      ],
      "name": "pendingTokens",
      "outputs": [
        {
          "internalType": "contract IERC20[]",
          "name": "rewardTokens",
          "type": "address[]"
        },
        {
          "internalType": "uint256[]",
          "name": "rewardAmounts",
          "type": "uint256[]"
        }
      ],
      "stateMutability": "view",
      "type": "function"
    },
    {
      "inputs": [
        {
          "internalType": "uint256",
          "name": "",
          "type": "uint256"
        }
      ],
      "name": "poolInfo",
      "outputs": [
        {
          "internalType": "uint128",
          "name": "accToken1PerShare",
          "type": "uint128"
        },
        {
          "internalType": "uint64",
          "name": "lastRewardTime",
          "type": "uint64"
        }
      ],
      "stateMutability": "view",
      "type": "function"
    },
    {
      "inputs": [
        {
          "internalType": "address",
          "name": "token",
          "type": "address"
        },
        {
          "internalType": "uint256",
          "name": "amount",
          "type": "uint256"
        },
        {
          "internalType": "address payable",
          "name": "to",
          "type": "address"
        }
      ],
      "name": "reclaimTokens",
      "outputs": [],
      "stateMutability": "nonpayable",
      "type": "function"
    },
    {
      "inputs": [],
      "name": "renounceOwnership",
      "outputs": [],
      "stateMutability": "nonpayable",
      "type": "function"
    },
    {
      "inputs": [],
      "name": "rewardPerSecond",
      "outputs": [
        {
          "internalType": "uint256",
          "name": "",
          "type": "uint256"
        }
      ],
      "stateMutability": "view",
      "type": "function"
    },
    {
      "inputs": [],
      "name": "rewardRates",
      "outputs": [
        {
          "internalType": "uint256[]",
          "name": "",
          "type": "uint256[]"
        }
      ],
      "stateMutability": "view",
      "type": "function"
    },
    {
      "inputs": [],
      "name": "rewardToken",
      "outputs": [
        {
          "internalType": "contract IERC20",
          "name": "",
          "type": "address"
        }
      ],
      "stateMutability": "view",
      "type": "function"
    },
    {
      "inputs": [
        {
          "internalType": "uint256",
          "name": "_rewardPerSecond",
          "type": "uint256"
        }
      ],
      "name": "setRewardPerSecond",
      "outputs": [],
      "stateMutability": "nonpayable",
      "type": "function"
    },
    {
      "inputs": [],
      "name": "startRewardTime",
      "outputs": [
        {
          "internalType": "uint256",
          "name": "",
          "type": "uint256"
        }
      ],
      "stateMutability": "view",
      "type": "function"
    },
    {
      "inputs": [
        {
          "internalType": "address",
          "name": "newOwner",
          "type": "address"
        }
      ],
      "name": "transferOwnership",
      "outputs": [],
      "stateMutability": "nonpayable",
      "type": "function"
    },
    {
      "inputs": [
        {
          "internalType": "uint256",
          "name": "_endRewardTime",
          "type": "uint256"
        }
      ],
      "name": "updateEndRewardTime",
      "outputs": [],
      "stateMutability": "nonpayable",
      "type": "function"
    },
    {
      "inputs": [
        {
          "internalType": "uint256",
          "name": "pid",
          "type": "uint256"
        }
      ],
      "name": "updatePool",
      "outputs": [
        {
          "components": [
            {
              "internalType": "uint128",
              "name": "accToken1PerShare",
              "type": "uint128"
            },
            {
              "internalType": "uint64",
              "name": "lastRewardTime",
              "type": "uint64"
            }
          ],
          "internalType": "struct CloneRewarder.PoolInfo",
          "name": "pool",
          "type": "tuple"
        }
      ],
      "stateMutability": "nonpayable",
      "type": "function"
    },
    {
      "inputs": [
        {
          "internalType": "uint256",
          "name": "",
          "type": "uint256"
        },
        {
          "internalType": "address",
          "name": "",
          "type": "address"
        }
      ],
      "name": "userInfo",
      "outputs": [
        {
          "internalType": "uint256",
          "name": "amount",
          "type": "uint256"
        },
        {
          "internalType": "uint256",
          "name": "rewardDebt",
          "type": "uint256"
        },
        {
          "internalType": "uint256",
          "name": "unpaidRewards",
          "type": "uint256"
        }
      ],
      "stateMutability": "view",
      "type": "function"
    }
  ],
  "bytecode": "0x60a060405234801561001057600080fd5b5060405161193b38038061193b83398101604081905261002f9161009d565b6100383361004d565b60601b6001600160601b0319166080526100cb565b600080546001600160a01b038381166001600160a01b0319831681178455604051919092169283917f8be0079c531659141344cd1fd0a4f28419497f9722a3daafe3b4186f6b6457e09190a35050565b6000602082840312156100ae578081fd5b81516001600160a01b03811681146100c4578182fd5b9392505050565b60805160601c611836610105600039600081816102530152818161069a0152818161087d01528181610ae10152610bbd01526118366000f3fe60806040526004361061011f5760003560e01c80638f10369a116100a0578063ad93f56611610064578063ad93f566146103d0578063c1ea3868146103f0578063d63b3c4914610410578063f2fde38b1461043e578063f7c618c11461045e57600080fd5b80638f10369a1461030057806393f1a40b1461031657806395e9d97314610378578063a8594dab1461038e578063a88a5c16146103ae57600080fd5b80635a894421116100e75780635a8944211461024157806366da58151461028d578063715018a6146102ad578063860cbfe4146102c25780638da5cb5b146102e257600080fd5b806302a24770146101245780631526fe271461014d578063270fa80c146101be57806348e43af4146101d357806351eb05a6146101f3575b600080fd5b34801561013057600080fd5b5061013a60085481565b6040519081526020015b60405180910390f35b34801561015957600080fd5b50610196610168366004611587565b6002602052600090815260409020546001600160801b03811690600160801b900467ffffffffffffffff1682565b604080516001600160801b03909316835267ffffffffffffffff909116602083015201610144565b6101d16101cc3660046114fa565b61047e565b005b3480156101df57600080fd5b5061013a6101ee3660046115b7565b610620565b3480156101ff57600080fd5b5061021361020e366004611587565b610811565b6040805182516001600160801b0316815260209283015167ffffffffffffffff169281019290925201610144565b34801561024d57600080fd5b506102757f000000000000000000000000000000000000000000000000000000000000000081565b6040516001600160a01b039091168152602001610144565b34801561029957600080fd5b506101d16102a8366004611587565b610a7f565b3480156102b957600080fd5b506101d1610ac2565b3480156102ce57600080fd5b506101d16102dd3660046115e6565b610ad6565b3480156102ee57600080fd5b506000546001600160a01b0316610275565b34801561030c57600080fd5b5061013a60045481565b34801561032257600080fd5b5061035d6103313660046115b7565b600360209081526000928352604080842090915290825290208054600182015460029092015490919083565b60408051938452602084019290925290820152606001610144565b34801561038457600080fd5b5061013a60075481565b34801561039a57600080fd5b50600554610275906001600160a01b031681565b3480156103ba57600080fd5b506103c3610e31565b6040516101449190611729565b3480156103dc57600080fd5b506101d16103eb366004611587565b610e8b565b3480156103fc57600080fd5b506101d161040b3660046114b9565b610ed2565b34801561041c57600080fd5b5061043061042b36600461161f565b610f3d565b6040516101449291906116c9565b34801561044a57600080fd5b506101d1610459366004611496565b611011565b34801561046a57600080fd5b50600154610275906001600160a01b031681565b61048661108a565b6001546001600160a01b0316156104e45760405162461bcd60e51b815260206004820152601d60248201527f52657761726465723a20616c726561647920696e697469616c697a656400000060448201526064015b60405180910390fd5b600180546001600160a01b038088166001600160a01b03199283168117909355600487905560058054918716919092161790556105595760405162461bcd60e51b81526020600482015260136024820152722932bbb0b93232b91d103130b2103a37b5b2b760691b60448201526064016104db565b428211801561056757508181115b61059e5760405162461bcd60e51b81526020600482015260086024820152676261642074696d6560c01b60448201526064016104db565b600782905560088190556001600681905560055490546001600160a01b0391821691167f4df6005d9c1e62d1d95592850d1c3256ee902631dd819a342f1756ab834894396105f46000546001600160a01b031690565b600454604080516001600160a01b03909316835260208301919091520160405180910390a35050505050565b60008281526002602090815260408083208151808301835290546001600160801b038082168352600160801b90910467ffffffffffffffff1682850152868552600384528285206001600160a01b038781168752945282852082519351638e2e272360e01b815260048101899052929490939091169185917f00000000000000000000000000000000000000000000000000000000000000001690638e2e27239060240160206040518083038186803b1580156106dc57600080fd5b505afa1580156106f0573d6000803e3d6000fd5b505050506040513d601f19601f82011682018060405250810190610714919061159f565b9050836020015167ffffffffffffffff164211801561073257508015155b156107c35760008060085411801561074b575060085442115b6107555742610759565b6008545b9050600061077e866020015167ffffffffffffffff16836110e490919063ffffffff16565b905060006107976004548361114090919063ffffffff16565b90506107bd846107ac8364e8d4a51000611140565b6107b6919061177f565b86906111b0565b94505050505b6108068360020154610800856001015464e8d4a510006107f087896000015461114090919063ffffffff16565b6107fa919061177f565b906110e4565b906111b0565b979650505050505050565b60408051808201825260008082526020918201819052838152600282528290208251808401909352546001600160801b0381168352600160801b900467ffffffffffffffff16908201819052421115610a7a57604051638e2e272360e01b8152600481018390526000907f00000000000000000000000000000000000000000000000000000000000000006001600160a01b031690638e2e27239060240160206040518083038186803b1580156108c757600080fd5b505afa1580156108db573d6000803e3d6000fd5b505050506040513d601f19601f820116820180604052508101906108ff919061159f565b600854909150429015801590610916575060085442115b1561092057506008545b60008211801561093d5750826020015167ffffffffffffffff1681115b156109c4576000610965846020015167ffffffffffffffff16836110e490919063ffffffff16565b9050600061097e6004548361114090919063ffffffff16565b90506109b66109a5856109968464e8d4a51000611140565b6109a0919061177f565b611209565b86516001600160801b031690611266565b6001600160801b0316855250505b60075442106109db576109d6816112d1565b6109e6565b6109e66007546112d1565b67ffffffffffffffff90811660208581019182526000878152600282526040908190208751815494516001600160801b039091166001600160c01b03199095168517600160801b91909616908102959095179055805193845290830185905282015284907f0fc9545022a542541ad085d091fb09a2ab36fee366a4576ab63714ea907ad3539060600160405180910390a250505b919050565b610a8761108a565b60048190556040518181527fde89cb17ac7f58f94792b3e91e086ed85403819c24ceea882491f960ccb1a2789060200160405180910390a150565b610aca61108a565b610ad4600061132b565b565b336001600160a01b037f00000000000000000000000000000000000000000000000000000000000000001614610b585760405162461bcd60e51b815260206004820152602160248201527f4f6e6c79204d4356322063616e2063616c6c20746869732066756e6374696f6e6044820152601760f91b60648201526084016104db565b600654600114610b935760405162461bcd60e51b81526020600482015260066024820152651313d0d2d15160d21b60448201526064016104db565b60026006556005546040516378ed5d1f60e01b8152600481018790526001600160a01b03918216917f000000000000000000000000000000000000000000000000000000000000000016906378ed5d1f9060240160206040518083038186803b158015610bff57600080fd5b505afa158015610c13573d6000803e3d6000fd5b505050506040513d601f19601f82011682018060405250810190610c37919061156b565b6001600160a01b031614610c4a57600080fd5b6000610c5586610811565b60008781526003602090815260408083206001600160a01b038a168452909152812080549293509115610d9957610cbc8260020154610800846001015464e8d4a510006107f088600001516001600160801b0316886000015461114090919063ffffffff16565b6001546040516370a0823160e01b81523060048201529192506000916001600160a01b03909116906370a082319060240160206040518083038186803b158015610d0557600080fd5b505afa158015610d19573d6000803e3d6000fd5b505050506040513d601f19601f82011682018060405250810190610d3d919061159f565b90508115610d975780821115610d7857600154610d64906001600160a01b0316888361137b565b610d6e81836117be565b6002840155610d97565b600154610d8f906001600160a01b0316888461137b565b600060028401555b505b838255825164e8d4a5100090610db99086906001600160801b0316611140565b610dc3919061177f565b8260010181905550856001600160a01b031688886001600160a01b03167f2ece88ca2bc08dd018db50e1d25a20bf1241e5fab1c396caa51f01a54bd2f75b856002015485610e1191906117be565b60405190815260200160405180910390a450506001600655505050505050565b604080516001808252818301909252606091600091906020808301908036833701905050905060045481600081518110610e7b57634e487b7160e01b600052603260045260246000fd5b6020908102919091010152919050565b610e9361108a565b428111610ecd5760405162461bcd60e51b81526020600482015260086024820152676261642074696d6560c01b60448201526064016104db565b600855565b610eda61108a565b6001600160a01b038316610f24576040516001600160a01b0382169083156108fc029084906000818181858888f19350505050158015610f1e573d6000803e3d6000fd5b50505050565b610f386001600160a01b038416828461137b565b505050565b604080516001808252818301909252606091829160009160208083019080368337505060015482519293506001600160a01b031691839150600090610f9257634e487b7160e01b600052603260045260246000fd5b6001600160a01b039290921660209283029190910190910152604080516001808252818301909252600091816020016020820280368337019050509050610fd98787610620565b81600081518110610ffa57634e487b7160e01b600052603260045260246000fd5b602090810291909101015290969095509350505050565b61101961108a565b6001600160a01b03811661107e5760405162461bcd60e51b815260206004820152602660248201527f4f776e61626c653a206e6577206f776e657220697320746865207a65726f206160448201526564647265737360d01b60648201526084016104db565b6110878161132b565b50565b6000546001600160a01b03163314610ad45760405162461bcd60e51b815260206004820181905260248201527f4f776e61626c653a2063616c6c6572206973206e6f7420746865206f776e657260448201526064016104db565b6000826110f183826117be565b915081111561113a5760405162461bcd60e51b8152602060048201526015602482015274426f72696e674d6174683a20556e646572666c6f7760581b60448201526064016104db565b92915050565b600081158061116457508282611156818361179f565b9250611162908361177f565b145b61113a5760405162461bcd60e51b815260206004820152601860248201527f426f72696e674d6174683a204d756c204f766572666c6f77000000000000000060448201526064016104db565b6000816111bd8185611767565b915081101561113a5760405162461bcd60e51b8152602060048201526018602482015277426f72696e674d6174683a20416464204f766572666c6f7760401b60448201526064016104db565b60006001600160801b038211156112625760405162461bcd60e51b815260206004820152601c60248201527f426f72696e674d6174683a2075696e74313238204f766572666c6f770000000060448201526064016104db565b5090565b60006001600160801b03821661127c838561173c565b9150816001600160801b0316101561113a5760405162461bcd60e51b8152602060048201526018602482015277426f72696e674d6174683a20416464204f766572666c6f7760401b60448201526064016104db565b600067ffffffffffffffff8211156112625760405162461bcd60e51b815260206004820152601b60248201527f426f72696e674d6174683a2075696e743634204f766572666c6f77000000000060448201526064016104db565b600080546001600160a01b038381166001600160a01b0319831681178455604051919092169283917f8be0079c531659141344cd1fd0a4f28419497f9722a3daafe3b4186f6b6457e09190a35050565b604080516001600160a01b038481166024830152604480830185905283518084039091018152606490920183526020820180516001600160e01b031663a9059cbb60e01b17905291516000928392908716916113d79190611690565b6000604051808303816000865af19150503d8060008114611414576040519150601f19603f3d011682016040523d82523d6000602084013e611419565b606091505b5091509150818015611443575080511580611443575080806020019051810190611443919061154b565b61148f5760405162461bcd60e51b815260206004820152601c60248201527f426f72696e6745524332303a205472616e73666572206661696c65640000000060448201526064016104db565b5050505050565b6000602082840312156114a7578081fd5b81356114b2816117eb565b9392505050565b6000806000606084860312156114cd578182fd5b83356114d8816117eb565b92506020840135915060408401356114ef816117eb565b809150509250925092565b600080600080600060a08688031215611511578081fd5b853561151c816117eb565b9450602086013593506040860135611533816117eb565b94979396509394606081013594506080013592915050565b60006020828403121561155c578081fd5b815180151581146114b2578182fd5b60006020828403121561157c578081fd5b81516114b2816117eb565b600060208284031215611598578081fd5b5035919050565b6000602082840312156115b0578081fd5b5051919050565b600080604083850312156115c9578182fd5b8235915060208301356115db816117eb565b809150509250929050565b600080600080600060a086880312156115fd578081fd5b85359450602086013561160f816117eb565b93506040860135611533816117eb565b600080600060608486031215611633578283fd5b833592506020840135611645816117eb565b929592945050506040919091013590565b6000815180845260208085019450808401835b8381101561168557815187529582019590820190600101611669565b509495945050505050565b60008251815b818110156116b05760208186018101518583015201611696565b818111156116be5782828501525b509190910192915050565b604080825283519082018190526000906020906060840190828701845b8281101561170b5781516001600160a01b0316845292840192908401906001016116e6565b5050508381038285015261171f8186611656565b9695505050505050565b6020815260006114b26020830184611656565b60006001600160801b0380831681851680830382111561175e5761175e6117d5565b01949350505050565b6000821982111561177a5761177a6117d5565b500190565b60008261179a57634e487b7160e01b81526012600452602481fd5b500490565b60008160001904831182151516156117b9576117b96117d5565b500290565b6000828210156117d0576117d06117d5565b500390565b634e487b7160e01b600052601160045260246000fd5b6001600160a01b038116811461108757600080fdfea2646970667358221220c94ba3734b8896b45dc42523efaac12cf0c8a941c99602211d91ed43eb88f94564736f6c63430008040033",
  "linkReferences": {},
  "deployedLinkReferences": {}
}