{
  "_format": "hh-sol-artifact-1",
  "contractName": "CloneRewarder",
  "sourceName": "contracts/farming/CloneRewarder.sol",
  "abi": [
    {
      "inputs": [
        {
          "internalType": "address",
          "name": "_MASTERCHEF_V2",
          "type": "address"
        }
      ],
      "stateMutability": "nonpayable",
      "type": "constructor"
    },
    {
      "anonymous": false,
      "inputs": [
        {
          "indexed": true,
          "internalType": "contract IERC20",
          "name": "rewardToken",
          "type": "address"
        },
        {
          "indexed": false,
          "internalType": "address",
          "name": "owner",
          "type": "address"
        },
        {
          "indexed": false,
          "internalType": "uint256",
          "name": "rewardPerSecond",
          "type": "uint256"
        },
        {
          "indexed": true,
          "internalType": "contract IERC20",
          "name": "masterLpToken",
          "type": "address"
        }
      ],
      "name": "LogInit",
      "type": "event"
    },
    {
      "anonymous": false,
      "inputs": [
        {
          "indexed": true,
          "internalType": "address",
          "name": "user",
          "type": "address"
        },
        {
          "indexed": true,
          "internalType": "uint256",
          "name": "pid",
          "type": "uint256"
        },
        {
          "indexed": false,
          "internalType": "uint256",
          "name": "amount",
          "type": "uint256"
        },
        {
          "indexed": true,
          "internalType": "address",
          "name": "to",
          "type": "address"
        }
      ],
      "name": "LogOnReward",
      "type": "event"
    },
    {
      "anonymous": false,
      "inputs": [
        {
          "indexed": false,
          "internalType": "uint256",
          "name": "rewardPerSecond",
          "type": "uint256"
        }
      ],
      "name": "LogRewardPerSecond",
      "type": "event"
    },
    {
      "anonymous": false,
      "inputs": [
        {
          "indexed": true,
          "internalType": "uint256",
          "name": "pid",
          "type": "uint256"
        },
        {
          "indexed": false,
          "internalType": "uint64",
          "name": "lastRewardTime",
          "type": "uint64"
        },
        {
          "indexed": false,
          "internalType": "uint256",
          "name": "lpSupply",
          "type": "uint256"
        },
        {
          "indexed": false,
          "internalType": "uint256",
          "name": "accToken1PerShare",
          "type": "uint256"
        }
      ],
      "name": "LogUpdatePool",
      "type": "event"
    },
    {
      "anonymous": false,
      "inputs": [
        {
          "indexed": true,
          "internalType": "address",
          "name": "previousOwner",
          "type": "address"
        },
        {
          "indexed": true,
          "internalType": "address",
          "name": "newOwner",
          "type": "address"
        }
      ],
      "name": "OwnershipTransferred",
      "type": "event"
    },
    {
      "inputs": [],
      "name": "MASTERCHEF_V2",
      "outputs": [
        {
          "internalType": "address",
          "name": "",
          "type": "address"
        }
      ],
      "stateMutability": "view",
      "type": "function"
    },
    {
      "inputs": [],
      "name": "endRewardTime",
      "outputs": [
        {
          "internalType": "uint256",
          "name": "",
          "type": "uint256"
        }
      ],
      "stateMutability": "view",
      "type": "function"
    },
    {
      "inputs": [
        {
          "internalType": "address",
          "name": "_rewardToken",
          "type": "address"
        },
        {
          "internalType": "uint256",
          "name": "_rewardPerSecond",
          "type": "uint256"
        },
        {
          "internalType": "address",
          "name": "_masterLpToken",
          "type": "address"
        },
        {
          "internalType": "uint256",
          "name": "_startRewardTime",
          "type": "uint256"
        },
        {
          "internalType": "uint256",
          "name": "_endRewardTime",
          "type": "uint256"
        }
      ],
      "name": "init",
      "outputs": [],
      "stateMutability": "payable",
      "type": "function"
    },
    {
      "inputs": [],
      "name": "masterLpToken",
      "outputs": [
        {
          "internalType": "contract IERC20",
          "name": "",
          "type": "address"
        }
      ],
      "stateMutability": "view",
      "type": "function"
    },
    {
      "inputs": [
        {
          "internalType": "uint256",
          "name": "pid",
          "type": "uint256"
        },
        {
          "internalType": "address",
          "name": "_user",
          "type": "address"
        },
        {
          "internalType": "address",
          "name": "to",
          "type": "address"
        },
        {
          "internalType": "uint256",
          "name": "",
          "type": "uint256"
        },
        {
          "internalType": "uint256",
          "name": "lpTokenAmount",
          "type": "uint256"
        }
      ],
      "name": "onKdxReward",
      "outputs": [],
      "stateMutability": "nonpayable",
      "type": "function"
    },
    {
      "inputs": [],
      "name": "owner",
      "outputs": [
        {
          "internalType": "address",
          "name": "",
          "type": "address"
        }
      ],
      "stateMutability": "view",
      "type": "function"
    },
    {
      "inputs": [
        {
          "internalType": "uint256",
          "name": "_pid",
          "type": "uint256"
        },
        {
          "internalType": "address",
          "name": "_user",
          "type": "address"
        }
      ],
      "name": "pendingToken",
      "outputs": [
        {
          "internalType": "uint256",
          "name": "pending",
          "type": "uint256"
        }
      ],
      "stateMutability": "view",
      "type": "function"
    },
    {
      "inputs": [
        {
          "internalType": "uint256",
          "name": "pid",
          "type": "uint256"
        },
        {
          "internalType": "address",
          "name": "user",
          "type": "address"
        },
        {
          "internalType": "uint256",
          "name": "",
          "type": "uint256"
        }
      ],
      "name": "pendingTokens",
      "outputs": [
        {
          "internalType": "contract IERC20[]",
          "name": "rewardTokens",
          "type": "address[]"
        },
        {
          "internalType": "uint256[]",
          "name": "rewardAmounts",
          "type": "uint256[]"
        }
      ],
      "stateMutability": "view",
      "type": "function"
    },
    {
      "inputs": [
        {
          "internalType": "uint256",
          "name": "",
          "type": "uint256"
        }
      ],
      "name": "poolInfo",
      "outputs": [
        {
          "internalType": "uint128",
          "name": "accToken1PerShare",
          "type": "uint128"
        },
        {
          "internalType": "uint64",
          "name": "lastRewardTime",
          "type": "uint64"
        }
      ],
      "stateMutability": "view",
      "type": "function"
    },
    {
      "inputs": [
        {
          "internalType": "address",
          "name": "token",
          "type": "address"
        },
        {
          "internalType": "uint256",
          "name": "amount",
          "type": "uint256"
        },
        {
          "internalType": "address payable",
          "name": "to",
          "type": "address"
        }
      ],
      "name": "reclaimTokens",
      "outputs": [],
      "stateMutability": "nonpayable",
      "type": "function"
    },
    {
      "inputs": [],
      "name": "renounceOwnership",
      "outputs": [],
      "stateMutability": "nonpayable",
      "type": "function"
    },
    {
      "inputs": [],
      "name": "rewardPerSecond",
      "outputs": [
        {
          "internalType": "uint256",
          "name": "",
          "type": "uint256"
        }
      ],
      "stateMutability": "view",
      "type": "function"
    },
    {
      "inputs": [],
      "name": "rewardRates",
      "outputs": [
        {
          "internalType": "uint256[]",
          "name": "",
          "type": "uint256[]"
        }
      ],
      "stateMutability": "view",
      "type": "function"
    },
    {
      "inputs": [],
      "name": "rewardToken",
      "outputs": [
        {
          "internalType": "contract IERC20",
          "name": "",
          "type": "address"
        }
      ],
      "stateMutability": "view",
      "type": "function"
    },
    {
      "inputs": [
        {
          "internalType": "uint256",
          "name": "_rewardPerSecond",
          "type": "uint256"
        }
      ],
      "name": "setRewardPerSecond",
      "outputs": [],
      "stateMutability": "nonpayable",
      "type": "function"
    },
    {
      "inputs": [],
      "name": "startRewardTime",
      "outputs": [
        {
          "internalType": "uint256",
          "name": "",
          "type": "uint256"
        }
      ],
      "stateMutability": "view",
      "type": "function"
    },
    {
      "inputs": [
        {
          "internalType": "address",
          "name": "newOwner",
          "type": "address"
        }
      ],
      "name": "transferOwnership",
      "outputs": [],
      "stateMutability": "nonpayable",
      "type": "function"
    },
    {
      "inputs": [
        {
          "internalType": "uint256",
          "name": "_endRewardTime",
          "type": "uint256"
        }
      ],
      "name": "updateEndRewardTime",
      "outputs": [],
      "stateMutability": "nonpayable",
      "type": "function"
    },
    {
      "inputs": [
        {
          "internalType": "uint256",
          "name": "pid",
          "type": "uint256"
        }
      ],
      "name": "updatePool",
      "outputs": [
        {
          "components": [
            {
              "internalType": "uint128",
              "name": "accToken1PerShare",
              "type": "uint128"
            },
            {
              "internalType": "uint64",
              "name": "lastRewardTime",
              "type": "uint64"
            }
          ],
          "internalType": "struct CloneRewarder.PoolInfo",
          "name": "pool",
          "type": "tuple"
        }
      ],
      "stateMutability": "nonpayable",
      "type": "function"
    },
    {
      "inputs": [
        {
          "internalType": "uint256",
          "name": "",
          "type": "uint256"
        },
        {
          "internalType": "address",
          "name": "",
          "type": "address"
        }
      ],
      "name": "userInfo",
      "outputs": [
        {
          "internalType": "uint256",
          "name": "amount",
          "type": "uint256"
        },
        {
          "internalType": "uint256",
          "name": "rewardDebt",
          "type": "uint256"
        },
        {
          "internalType": "uint256",
          "name": "unpaidRewards",
          "type": "uint256"
        }
      ],
      "stateMutability": "view",
      "type": "function"
    }
  ],
  "bytecode": "0x60a060405234801561001057600080fd5b506040516119e03803806119e083398101604081905261002f9161009d565b6100383361004d565b60601b6001600160601b0319166080526100cb565b600080546001600160a01b038381166001600160a01b0319831681178455604051919092169283917f8be0079c531659141344cd1fd0a4f28419497f9722a3daafe3b4186f6b6457e09190a35050565b6000602082840312156100ae578081fd5b81516001600160a01b03811681146100c4578182fd5b9392505050565b60805160601c6118db61010560003960008181610253015281816106c0015281816108a301528181610b4b0152610c2701526118db6000f3fe60806040526004361061011f5760003560e01c80638f10369a116100a0578063ad93f56611610064578063ad93f566146103d0578063c1ea3868146103f0578063d63b3c4914610410578063f2fde38b1461043e578063f7c618c11461045e57600080fd5b80638f10369a1461030057806393f1a40b1461031657806395e9d97314610378578063a8594dab1461038e578063a88a5c16146103ae57600080fd5b80635a894421116100e75780635a8944211461024157806366da58151461028d578063715018a6146102ad578063860cbfe4146102c25780638da5cb5b146102e257600080fd5b806302a24770146101245780631526fe271461014d578063270fa80c146101be57806348e43af4146101d357806351eb05a6146101f3575b600080fd5b34801561013057600080fd5b5061013a60085481565b6040519081526020015b60405180910390f35b34801561015957600080fd5b506101966101683660046115f7565b6002602052600090815260409020546001600160801b03811690600160801b900467ffffffffffffffff1682565b604080516001600160801b03909316835267ffffffffffffffff909116602083015201610144565b6101d16101cc36600461156a565b61047e565b005b3480156101df57600080fd5b5061013a6101ee366004611627565b610646565b3480156101ff57600080fd5b5061021361020e3660046115f7565b610837565b6040805182516001600160801b0316815260209283015167ffffffffffffffff169281019290925201610144565b34801561024d57600080fd5b506102757f000000000000000000000000000000000000000000000000000000000000000081565b6040516001600160a01b039091168152602001610144565b34801561029957600080fd5b506101d16102a83660046115f7565b610aa5565b3480156102b957600080fd5b506101d1610b0a565b3480156102ce57600080fd5b506101d16102dd366004611656565b610b40565b3480156102ee57600080fd5b506000546001600160a01b0316610275565b34801561030c57600080fd5b5061013a60045481565b34801561032257600080fd5b5061035d610331366004611627565b600360209081526000928352604080842090915290825290208054600182015460029092015490919083565b60408051938452602084019290925290820152606001610144565b34801561038457600080fd5b5061013a60075481565b34801561039a57600080fd5b50600554610275906001600160a01b031681565b3480156103ba57600080fd5b506103c3610e95565b6040516101449190611799565b3480156103dc57600080fd5b506101d16103eb3660046115f7565b610eef565b3480156103fc57600080fd5b506101d161040b366004611529565b610f58565b34801561041c57600080fd5b5061043061042b36600461168f565b610fe5565b604051610144929190611739565b34801561044a57600080fd5b506101d1610459366004611506565b6110b9565b34801561046a57600080fd5b50600154610275906001600160a01b031681565b6000546001600160a01b031633146104b15760405162461bcd60e51b81526004016104a8906117ac565b60405180910390fd5b6001546001600160a01b03161561050a5760405162461bcd60e51b815260206004820152601d60248201527f52657761726465723a20616c726561647920696e697469616c697a656400000060448201526064016104a8565b600180546001600160a01b038088166001600160a01b031992831681179093556004879055600580549187169190921617905561057f5760405162461bcd60e51b81526020600482015260136024820152722932bbb0b93232b91d103130b2103a37b5b2b760691b60448201526064016104a8565b428211801561058d57508181115b6105c45760405162461bcd60e51b81526020600482015260086024820152676261642074696d6560c01b60448201526064016104a8565b600782905560088190556001600681905560055490546001600160a01b0391821691167f4df6005d9c1e62d1d95592850d1c3256ee902631dd819a342f1756ab8348943961061a6000546001600160a01b031690565b600454604080516001600160a01b03909316835260208301919091520160405180910390a35050505050565b60008281526002602090815260408083208151808301835290546001600160801b038082168352600160801b90910467ffffffffffffffff1682850152868552600384528285206001600160a01b038781168752945282852082519351638e2e272360e01b815260048101899052929490939091169185917f00000000000000000000000000000000000000000000000000000000000000001690638e2e27239060240160206040518083038186803b15801561070257600080fd5b505afa158015610716573d6000803e3d6000fd5b505050506040513d601f19601f8201168201806040525081019061073a919061160f565b9050836020015167ffffffffffffffff164211801561075857508015155b156107e957600080600854118015610771575060085442115b61077b574261077f565b6008545b905060006107a4866020015167ffffffffffffffff168361115490919063ffffffff16565b905060006107bd600454836111b090919063ffffffff16565b90506107e3846107d28364e8d4a510006111b0565b6107dc9190611824565b8690611220565b94505050505b61082c8360020154610826856001015464e8d4a510006108168789600001546111b090919063ffffffff16565b6108209190611824565b90611154565b90611220565b979650505050505050565b60408051808201825260008082526020918201819052838152600282528290208251808401909352546001600160801b0381168352600160801b900467ffffffffffffffff16908201819052421115610aa057604051638e2e272360e01b8152600481018390526000907f00000000000000000000000000000000000000000000000000000000000000006001600160a01b031690638e2e27239060240160206040518083038186803b1580156108ed57600080fd5b505afa158015610901573d6000803e3d6000fd5b505050506040513d601f19601f82011682018060405250810190610925919061160f565b60085490915042901580159061093c575060085442115b1561094657506008545b6000821180156109635750826020015167ffffffffffffffff1681115b156109ea57600061098b846020015167ffffffffffffffff168361115490919063ffffffff16565b905060006109a4600454836111b090919063ffffffff16565b90506109dc6109cb856109bc8464e8d4a510006111b0565b6109c69190611824565b611279565b86516001600160801b0316906112d6565b6001600160801b0316855250505b6007544210610a01576109fc81611341565b610a0c565b610a0c600754611341565b67ffffffffffffffff90811660208581019182526000878152600282526040908190208751815494516001600160801b039091166001600160c01b03199095168517600160801b91909616908102959095179055805193845290830185905282015284907f0fc9545022a542541ad085d091fb09a2ab36fee366a4576ab63714ea907ad3539060600160405180910390a250505b919050565b6000546001600160a01b03163314610acf5760405162461bcd60e51b81526004016104a8906117ac565b60048190556040518181527fde89cb17ac7f58f94792b3e91e086ed85403819c24ceea882491f960ccb1a2789060200160405180910390a150565b6000546001600160a01b03163314610b345760405162461bcd60e51b81526004016104a8906117ac565b610b3e600061139b565b565b336001600160a01b037f00000000000000000000000000000000000000000000000000000000000000001614610bc25760405162461bcd60e51b815260206004820152602160248201527f4f6e6c79204d4356322063616e2063616c6c20746869732066756e6374696f6e6044820152601760f91b60648201526084016104a8565b600654600114610bfd5760405162461bcd60e51b81526020600482015260066024820152651313d0d2d15160d21b60448201526064016104a8565b60026006556005546040516378ed5d1f60e01b8152600481018790526001600160a01b03918216917f000000000000000000000000000000000000000000000000000000000000000016906378ed5d1f9060240160206040518083038186803b158015610c6957600080fd5b505afa158015610c7d573d6000803e3d6000fd5b505050506040513d601f19601f82011682018060405250810190610ca191906115db565b6001600160a01b031614610cb457600080fd5b6000610cbf86610837565b60008781526003602090815260408083206001600160a01b038a168452909152812080549293509115610dfd57610d268260020154610826846001015464e8d4a5100061081688600001516001600160801b031688600001546111b090919063ffffffff16565b6001546040516370a0823160e01b81523060048201529192506000916001600160a01b03909116906370a082319060240160206040518083038186803b158015610d6f57600080fd5b505afa158015610d83573d6000803e3d6000fd5b505050506040513d601f19601f82011682018060405250810190610da7919061160f565b905080821115610ddc57600154610dc8906001600160a01b031688836113eb565b610dd28183611863565b6002840155610dfb565b600154610df3906001600160a01b031688846113eb565b600060028401555b505b838255825164e8d4a5100090610e1d9086906001600160801b03166111b0565b610e279190611824565b8260010181905550856001600160a01b031688886001600160a01b03167f2ece88ca2bc08dd018db50e1d25a20bf1241e5fab1c396caa51f01a54bd2f75b856002015485610e759190611863565b60405190815260200160405180910390a450506001600655505050505050565b604080516001808252818301909252606091600091906020808301908036833701905050905060045481600081518110610edf57634e487b7160e01b600052603260045260246000fd5b6020908102919091010152919050565b6000546001600160a01b03163314610f195760405162461bcd60e51b81526004016104a8906117ac565b428111610f535760405162461bcd60e51b81526020600482015260086024820152676261642074696d6560c01b60448201526064016104a8565b600855565b6000546001600160a01b03163314610f825760405162461bcd60e51b81526004016104a8906117ac565b6001600160a01b038316610fcc576040516001600160a01b0382169083156108fc029084906000818181858888f19350505050158015610fc6573d6000803e3d6000fd5b50505050565b610fe06001600160a01b03841682846113eb565b505050565b604080516001808252818301909252606091829160009160208083019080368337505060015482519293506001600160a01b03169183915060009061103a57634e487b7160e01b600052603260045260246000fd5b6001600160a01b0392909216602092830291909101909101526040805160018082528183019092526000918160200160208202803683370190505090506110818787610646565b816000815181106110a257634e487b7160e01b600052603260045260246000fd5b602090810291909101015290969095509350505050565b6000546001600160a01b031633146110e35760405162461bcd60e51b81526004016104a8906117ac565b6001600160a01b0381166111485760405162461bcd60e51b815260206004820152602660248201527f4f776e61626c653a206e6577206f776e657220697320746865207a65726f206160448201526564647265737360d01b60648201526084016104a8565b6111518161139b565b50565b6000826111618382611863565b91508111156111aa5760405162461bcd60e51b8152602060048201526015602482015274426f72696e674d6174683a20556e646572666c6f7760581b60448201526064016104a8565b92915050565b60008115806111d4575082826111c68183611844565b92506111d29083611824565b145b6111aa5760405162461bcd60e51b815260206004820152601860248201527f426f72696e674d6174683a204d756c204f766572666c6f77000000000000000060448201526064016104a8565b60008161122d818561180c565b91508110156111aa5760405162461bcd60e51b8152602060048201526018602482015277426f72696e674d6174683a20416464204f766572666c6f7760401b60448201526064016104a8565b60006001600160801b038211156112d25760405162461bcd60e51b815260206004820152601c60248201527f426f72696e674d6174683a2075696e74313238204f766572666c6f770000000060448201526064016104a8565b5090565b60006001600160801b0382166112ec83856117e1565b9150816001600160801b031610156111aa5760405162461bcd60e51b8152602060048201526018602482015277426f72696e674d6174683a20416464204f766572666c6f7760401b60448201526064016104a8565b600067ffffffffffffffff8211156112d25760405162461bcd60e51b815260206004820152601b60248201527f426f72696e674d6174683a2075696e743634204f766572666c6f77000000000060448201526064016104a8565b600080546001600160a01b038381166001600160a01b0319831681178455604051919092169283917f8be0079c531659141344cd1fd0a4f28419497f9722a3daafe3b4186f6b6457e09190a35050565b604080516001600160a01b038481166024830152604480830185905283518084039091018152606490920183526020820180516001600160e01b031663a9059cbb60e01b17905291516000928392908716916114479190611700565b6000604051808303816000865af19150503d8060008114611484576040519150601f19603f3d011682016040523d82523d6000602084013e611489565b606091505b50915091508180156114b35750805115806114b35750808060200190518101906114b391906115bb565b6114ff5760405162461bcd60e51b815260206004820152601c60248201527f426f72696e6745524332303a205472616e73666572206661696c65640000000060448201526064016104a8565b5050505050565b600060208284031215611517578081fd5b813561152281611890565b9392505050565b60008060006060848603121561153d578182fd5b833561154881611890565b925060208401359150604084013561155f81611890565b809150509250925092565b600080600080600060a08688031215611581578081fd5b853561158c81611890565b94506020860135935060408601356115a381611890565b94979396509394606081013594506080013592915050565b6000602082840312156115cc578081fd5b81518015158114611522578182fd5b6000602082840312156115ec578081fd5b815161152281611890565b600060208284031215611608578081fd5b5035919050565b600060208284031215611620578081fd5b5051919050565b60008060408385031215611639578182fd5b82359150602083013561164b81611890565b809150509250929050565b600080600080600060a0868803121561166d578081fd5b85359450602086013561167f81611890565b935060408601356115a381611890565b6000806000606084860312156116a3578283fd5b8335925060208401356116b581611890565b929592945050506040919091013590565b6000815180845260208085019450808401835b838110156116f5578151875295820195908201906001016116d9565b509495945050505050565b60008251815b818110156117205760208186018101518583015201611706565b8181111561172e5782828501525b509190910192915050565b604080825283519082018190526000906020906060840190828701845b8281101561177b5781516001600160a01b031684529284019290840190600101611756565b5050508381038285015261178f81866116c6565b9695505050505050565b60208152600061152260208301846116c6565b6020808252818101527f4f776e61626c653a2063616c6c6572206973206e6f7420746865206f776e6572604082015260600190565b60006001600160801b038083168185168083038211156118035761180361187a565b01949350505050565b6000821982111561181f5761181f61187a565b500190565b60008261183f57634e487b7160e01b81526012600452602481fd5b500490565b600081600019048311821515161561185e5761185e61187a565b500290565b6000828210156118755761187561187a565b500390565b634e487b7160e01b600052601160045260246000fd5b6001600160a01b038116811461115157600080fdfea2646970667358221220782d7aeaf21278015e475ade241bc687f960791422a95b96067b72b45b942d5264736f6c63430008040033",
  "linkReferences": {},
  "deployedLinkReferences": {}
}