{
  "_format": "hh-sol-artifact-1",
  "contractName": "CloneRewarder",
  "sourceName": "contracts/farming/CloneRewarder.sol",
  "abi": [
    {
      "inputs": [
        {
          "internalType": "address",
          "name": "_MASTERCHEF_V2",
          "type": "address"
        }
      ],
      "stateMutability": "nonpayable",
      "type": "constructor"
    },
    {
      "anonymous": false,
      "inputs": [
        {
          "indexed": true,
          "internalType": "contract IERC20",
          "name": "rewardToken",
          "type": "address"
        },
        {
          "indexed": false,
          "internalType": "address",
          "name": "owner",
          "type": "address"
        },
        {
          "indexed": false,
          "internalType": "uint256",
          "name": "rewardPerSecond",
          "type": "uint256"
        },
        {
          "indexed": true,
          "internalType": "contract IERC20",
          "name": "masterLpToken",
          "type": "address"
        }
      ],
      "name": "LogInit",
      "type": "event"
    },
    {
      "anonymous": false,
      "inputs": [
        {
          "indexed": true,
          "internalType": "address",
          "name": "user",
          "type": "address"
        },
        {
          "indexed": true,
          "internalType": "uint256",
          "name": "pid",
          "type": "uint256"
        },
        {
          "indexed": false,
          "internalType": "uint256",
          "name": "amount",
          "type": "uint256"
        },
        {
          "indexed": true,
          "internalType": "address",
          "name": "to",
          "type": "address"
        }
      ],
      "name": "LogOnReward",
      "type": "event"
    },
    {
      "anonymous": false,
      "inputs": [
        {
          "indexed": false,
          "internalType": "uint256",
          "name": "rewardPerSecond",
          "type": "uint256"
        }
      ],
      "name": "LogRewardPerSecond",
      "type": "event"
    },
    {
      "anonymous": false,
      "inputs": [
        {
          "indexed": true,
          "internalType": "uint256",
          "name": "pid",
          "type": "uint256"
        },
        {
          "indexed": false,
          "internalType": "uint64",
          "name": "lastRewardTime",
          "type": "uint64"
        },
        {
          "indexed": false,
          "internalType": "uint256",
          "name": "lpSupply",
          "type": "uint256"
        },
        {
          "indexed": false,
          "internalType": "uint256",
          "name": "accToken1PerShare",
          "type": "uint256"
        }
      ],
      "name": "LogUpdatePool",
      "type": "event"
    },
    {
      "anonymous": false,
      "inputs": [
        {
          "indexed": true,
          "internalType": "address",
          "name": "previousOwner",
          "type": "address"
        },
        {
          "indexed": true,
          "internalType": "address",
          "name": "newOwner",
          "type": "address"
        }
      ],
      "name": "OwnershipTransferred",
      "type": "event"
    },
    {
      "inputs": [],
      "name": "MASTERCHEF_V2",
      "outputs": [
        {
          "internalType": "address",
          "name": "",
          "type": "address"
        }
      ],
      "stateMutability": "view",
      "type": "function"
    },
    {
      "inputs": [
        {
          "internalType": "address",
          "name": "_rewardToken",
          "type": "address"
        },
        {
          "internalType": "uint256",
          "name": "_rewardPerSecond",
          "type": "uint256"
        },
        {
          "internalType": "address",
          "name": "_masterLpToken",
          "type": "address"
        }
      ],
      "name": "init",
      "outputs": [],
      "stateMutability": "payable",
      "type": "function"
    },
    {
      "inputs": [],
      "name": "masterLpToken",
      "outputs": [
        {
          "internalType": "contract IERC20",
          "name": "",
          "type": "address"
        }
      ],
      "stateMutability": "view",
      "type": "function"
    },
    {
      "inputs": [
        {
          "internalType": "uint256",
          "name": "pid",
          "type": "uint256"
        },
        {
          "internalType": "address",
          "name": "_user",
          "type": "address"
        },
        {
          "internalType": "address",
          "name": "to",
          "type": "address"
        },
        {
          "internalType": "uint256",
          "name": "",
          "type": "uint256"
        },
        {
          "internalType": "uint256",
          "name": "lpTokenAmount",
          "type": "uint256"
        }
      ],
      "name": "onKdxReward",
      "outputs": [],
      "stateMutability": "nonpayable",
      "type": "function"
    },
    {
      "inputs": [],
      "name": "owner",
      "outputs": [
        {
          "internalType": "address",
          "name": "",
          "type": "address"
        }
      ],
      "stateMutability": "view",
      "type": "function"
    },
    {
      "inputs": [
        {
          "internalType": "uint256",
          "name": "_pid",
          "type": "uint256"
        },
        {
          "internalType": "address",
          "name": "_user",
          "type": "address"
        }
      ],
      "name": "pendingToken",
      "outputs": [
        {
          "internalType": "uint256",
          "name": "pending",
          "type": "uint256"
        }
      ],
      "stateMutability": "view",
      "type": "function"
    },
    {
      "inputs": [
        {
          "internalType": "uint256",
          "name": "pid",
          "type": "uint256"
        },
        {
          "internalType": "address",
          "name": "user",
          "type": "address"
        },
        {
          "internalType": "uint256",
          "name": "",
          "type": "uint256"
        }
      ],
      "name": "pendingTokens",
      "outputs": [
        {
          "internalType": "contract IERC20[]",
          "name": "rewardTokens",
          "type": "address[]"
        },
        {
          "internalType": "uint256[]",
          "name": "rewardAmounts",
          "type": "uint256[]"
        }
      ],
      "stateMutability": "view",
      "type": "function"
    },
    {
      "inputs": [
        {
          "internalType": "uint256",
          "name": "",
          "type": "uint256"
        }
      ],
      "name": "poolInfo",
      "outputs": [
        {
          "internalType": "uint128",
          "name": "accToken1PerShare",
          "type": "uint128"
        },
        {
          "internalType": "uint64",
          "name": "lastRewardTime",
          "type": "uint64"
        }
      ],
      "stateMutability": "view",
      "type": "function"
    },
    {
      "inputs": [
        {
          "internalType": "address",
          "name": "token",
          "type": "address"
        },
        {
          "internalType": "uint256",
          "name": "amount",
          "type": "uint256"
        },
        {
          "internalType": "address payable",
          "name": "to",
          "type": "address"
        }
      ],
      "name": "reclaimTokens",
      "outputs": [],
      "stateMutability": "nonpayable",
      "type": "function"
    },
    {
      "inputs": [],
      "name": "renounceOwnership",
      "outputs": [],
      "stateMutability": "nonpayable",
      "type": "function"
    },
    {
      "inputs": [],
      "name": "rewardPerSecond",
      "outputs": [
        {
          "internalType": "uint256",
          "name": "",
          "type": "uint256"
        }
      ],
      "stateMutability": "view",
      "type": "function"
    },
    {
      "inputs": [],
      "name": "rewardRates",
      "outputs": [
        {
          "internalType": "uint256[]",
          "name": "",
          "type": "uint256[]"
        }
      ],
      "stateMutability": "view",
      "type": "function"
    },
    {
      "inputs": [],
      "name": "rewardToken",
      "outputs": [
        {
          "internalType": "contract IERC20",
          "name": "",
          "type": "address"
        }
      ],
      "stateMutability": "view",
      "type": "function"
    },
    {
      "inputs": [
        {
          "internalType": "uint256",
          "name": "_rewardPerSecond",
          "type": "uint256"
        }
      ],
      "name": "setRewardPerSecond",
      "outputs": [],
      "stateMutability": "nonpayable",
      "type": "function"
    },
    {
      "inputs": [
        {
          "internalType": "address",
          "name": "newOwner",
          "type": "address"
        }
      ],
      "name": "transferOwnership",
      "outputs": [],
      "stateMutability": "nonpayable",
      "type": "function"
    },
    {
      "inputs": [
        {
          "internalType": "uint256",
          "name": "pid",
          "type": "uint256"
        }
      ],
      "name": "updatePool",
      "outputs": [
        {
          "components": [
            {
              "internalType": "uint128",
              "name": "accToken1PerShare",
              "type": "uint128"
            },
            {
              "internalType": "uint64",
              "name": "lastRewardTime",
              "type": "uint64"
            }
          ],
          "internalType": "struct CloneRewarder.PoolInfo",
          "name": "pool",
          "type": "tuple"
        }
      ],
      "stateMutability": "nonpayable",
      "type": "function"
    },
    {
      "inputs": [
        {
          "internalType": "uint256",
          "name": "",
          "type": "uint256"
        },
        {
          "internalType": "address",
          "name": "",
          "type": "address"
        }
      ],
      "name": "userInfo",
      "outputs": [
        {
          "internalType": "uint256",
          "name": "amount",
          "type": "uint256"
        },
        {
          "internalType": "uint256",
          "name": "rewardDebt",
          "type": "uint256"
        },
        {
          "internalType": "uint256",
          "name": "unpaidRewards",
          "type": "uint256"
        }
      ],
      "stateMutability": "view",
      "type": "function"
    }
  ],
  "bytecode": "0x60a060405234801561001057600080fd5b5060405161195e38038061195e83398101604081905261002f9161009d565b6100383361004d565b60601b6001600160601b0319166080526100cb565b600080546001600160a01b038381166001600160a01b0319831681178455604051919092169283917f8be0079c531659141344cd1fd0a4f28419497f9722a3daafe3b4186f6b6457e09190a35050565b6000602082840312156100ae578081fd5b81516001600160a01b03811681146100c4578182fd5b9392505050565b60805160601c61184b6101136000396000818161021c01528181610602015281816106930152818161085b015281816108f401528181610b490152610c25015261184b6000f3fe6080604052600436106100fe5760003560e01c80638da5cb5b11610095578063a88a5c1611610064578063a88a5c1614610361578063c1ea386814610383578063d63b3c49146103a3578063f2fde38b146103d1578063f7c618c1146103f157600080fd5b80638da5cb5b146102ab5780638f10369a146102c957806393f1a40b146102df578063a8594dab1461034157600080fd5b80635a894421116100d15780635a8944211461020a57806366da581514610256578063715018a614610276578063860cbfe41461028b57600080fd5b80631526fe271461010357806343fc00b81461017957806348e43af41461018e57806351eb05a6146101bc575b600080fd5b34801561010f57600080fd5b5061014c61011e36600461154f565b6002602052600090815260409020546001600160801b03811690600160801b900467ffffffffffffffff1682565b604080516001600160801b03909316835267ffffffffffffffff9091166020830152015b60405180910390f35b61018c6101873660046114be565b610411565b005b34801561019a57600080fd5b506101ae6101a936600461157f565b610588565b604051908152602001610170565b3480156101c857600080fd5b506101dc6101d736600461154f565b6107ef565b6040805182516001600160801b0316815260209283015167ffffffffffffffff169281019290925201610170565b34801561021657600080fd5b5061023e7f000000000000000000000000000000000000000000000000000000000000000081565b6040516001600160a01b039091168152602001610170565b34801561026257600080fd5b5061018c61027136600461154f565b610aa3565b34801561028257600080fd5b5061018c610b08565b34801561029757600080fd5b5061018c6102a63660046115ae565b610b3e565b3480156102b757600080fd5b506000546001600160a01b031661023e565b3480156102d557600080fd5b506101ae60045481565b3480156102eb57600080fd5b506103266102fa36600461157f565b600360209081526000928352604080842090915290825290208054600182015460029092015490919083565b60408051938452602084019290925290820152606001610170565b34801561034d57600080fd5b5060055461023e906001600160a01b031681565b34801561036d57600080fd5b50610376610e93565b6040516101709190611709565b34801561038f57600080fd5b5061018c61039e3660046114ff565b610eed565b3480156103af57600080fd5b506103c36103be3660046115ff565b610f7a565b6040516101709291906116a9565b3480156103dd57600080fd5b5061018c6103ec36600461149b565b61104e565b3480156103fd57600080fd5b5060015461023e906001600160a01b031681565b6000546001600160a01b031633146104445760405162461bcd60e51b815260040161043b9061171c565b60405180910390fd5b6001546001600160a01b03161561049d5760405162461bcd60e51b815260206004820152601d60248201527f52657761726465723a20616c726561647920696e697469616c697a6564000000604482015260640161043b565b600180546001600160a01b038086166001600160a01b03199283168117909355600485905560058054918516919092161790556105125760405162461bcd60e51b81526020600482015260136024820152722932bbb0b93232b91d103130b2103a37b5b2b760691b604482015260640161043b565b6001600681905560055490546001600160a01b0391821691167f4df6005d9c1e62d1d95592850d1c3256ee902631dd819a342f1756ab8348943961055e6000546001600160a01b031690565b600454604080516001600160a01b03909316835260208301919091520160405180910390a3505050565b60008281526002602090815260408083208151808301835290546001600160801b038082168352600160801b90910467ffffffffffffffff1682850152868552600384528285206001600160a01b0387811687529452828520825193516378ed5d1f60e01b815260048101899052929490939091169185917f000000000000000000000000000000000000000000000000000000000000000016906378ed5d1f9060240160206040518083038186803b15801561064457600080fd5b505afa158015610658573d6000803e3d6000fd5b505050506040513d601f19601f8201168201806040525081019061067c9190611533565b6040516370a0823160e01b81526001600160a01b037f00000000000000000000000000000000000000000000000000000000000000008116600483015291909116906370a082319060240160206040518083038186803b1580156106df57600080fd5b505afa1580156106f3573d6000803e3d6000fd5b505050506040513d601f19601f820116820180604052508101906107179190611567565b9050836020015167ffffffffffffffff164211801561073557508015155b156107a157600061075d856020015167ffffffffffffffff16426110e990919063ffffffff16565b905060006107766004548361114590919063ffffffff16565b905061079c8361078b8364e8d4a51000611145565b6107959190611794565b85906111b5565b935050505b6107e483600201546107de856001015464e8d4a510006107ce87896000015461114590919063ffffffff16565b6107d89190611794565b906110e9565b906111b5565b979650505050505050565b60408051808201825260008082526020918201819052838152600282528290208251808401909352546001600160801b0381168352600160801b900467ffffffffffffffff16908201819052421115610a9e576040516378ed5d1f60e01b8152600481018390526000907f00000000000000000000000000000000000000000000000000000000000000006001600160a01b0316906378ed5d1f9060240160206040518083038186803b1580156108a557600080fd5b505afa1580156108b9573d6000803e3d6000fd5b505050506040513d601f19601f820116820180604052508101906108dd9190611533565b6040516370a0823160e01b81526001600160a01b037f00000000000000000000000000000000000000000000000000000000000000008116600483015291909116906370a082319060240160206040518083038186803b15801561094057600080fd5b505afa158015610954573d6000803e3d6000fd5b505050506040513d601f19601f820116820180604052508101906109789190611567565b90508015610a025760006109a3836020015167ffffffffffffffff16426110e990919063ffffffff16565b905060006109bc6004548361114590919063ffffffff16565b90506109f46109e3846109d48464e8d4a51000611145565b6109de9190611794565b61120e565b85516001600160801b03169061126b565b6001600160801b0316845250505b610a0b426112d6565b67ffffffffffffffff90811660208481019182526000868152600282526040908190208651815494516001600160801b039091166001600160c01b03199095168517600160801b91909616908102959095179055805193845290830184905282015283907f0fc9545022a542541ad085d091fb09a2ab36fee366a4576ab63714ea907ad3539060600160405180910390a2505b919050565b6000546001600160a01b03163314610acd5760405162461bcd60e51b815260040161043b9061171c565b60048190556040518181527fde89cb17ac7f58f94792b3e91e086ed85403819c24ceea882491f960ccb1a2789060200160405180910390a150565b6000546001600160a01b03163314610b325760405162461bcd60e51b815260040161043b9061171c565b610b3c6000611330565b565b336001600160a01b037f00000000000000000000000000000000000000000000000000000000000000001614610bc05760405162461bcd60e51b815260206004820152602160248201527f4f6e6c79204d4356322063616e2063616c6c20746869732066756e6374696f6e6044820152601760f91b606482015260840161043b565b600654600114610bfb5760405162461bcd60e51b81526020600482015260066024820152651313d0d2d15160d21b604482015260640161043b565b60026006556005546040516378ed5d1f60e01b8152600481018790526001600160a01b03918216917f000000000000000000000000000000000000000000000000000000000000000016906378ed5d1f9060240160206040518083038186803b158015610c6757600080fd5b505afa158015610c7b573d6000803e3d6000fd5b505050506040513d601f19601f82011682018060405250810190610c9f9190611533565b6001600160a01b031614610cb257600080fd5b6000610cbd866107ef565b60008781526003602090815260408083206001600160a01b038a168452909152812080549293509115610dfb57610d2482600201546107de846001015464e8d4a510006107ce88600001516001600160801b0316886000015461114590919063ffffffff16565b6001546040516370a0823160e01b81523060048201529192506000916001600160a01b03909116906370a082319060240160206040518083038186803b158015610d6d57600080fd5b505afa158015610d81573d6000803e3d6000fd5b505050506040513d601f19601f82011682018060405250810190610da59190611567565b905080821115610dda57600154610dc6906001600160a01b03168883611380565b610dd081836117d3565b6002840155610df9565b600154610df1906001600160a01b03168884611380565b600060028401555b505b838255825164e8d4a5100090610e1b9086906001600160801b0316611145565b610e259190611794565b8260010181905550856001600160a01b031688886001600160a01b03167f2ece88ca2bc08dd018db50e1d25a20bf1241e5fab1c396caa51f01a54bd2f75b856002015485610e7391906117d3565b60405190815260200160405180910390a450506001600655505050505050565b604080516001808252818301909252606091600091906020808301908036833701905050905060045481600081518110610edd57634e487b7160e01b600052603260045260246000fd5b6020908102919091010152919050565b6000546001600160a01b03163314610f175760405162461bcd60e51b815260040161043b9061171c565b6001600160a01b038316610f61576040516001600160a01b0382169083156108fc029084906000818181858888f19350505050158015610f5b573d6000803e3d6000fd5b50505050565b610f756001600160a01b0384168284611380565b505050565b604080516001808252818301909252606091829160009160208083019080368337505060015482519293506001600160a01b031691839150600090610fcf57634e487b7160e01b600052603260045260246000fd5b6001600160a01b0392909216602092830291909101909101526040805160018082528183019092526000918160200160208202803683370190505090506110168787610588565b8160008151811061103757634e487b7160e01b600052603260045260246000fd5b602090810291909101015290969095509350505050565b6000546001600160a01b031633146110785760405162461bcd60e51b815260040161043b9061171c565b6001600160a01b0381166110dd5760405162461bcd60e51b815260206004820152602660248201527f4f776e61626c653a206e6577206f776e657220697320746865207a65726f206160448201526564647265737360d01b606482015260840161043b565b6110e681611330565b50565b6000826110f683826117d3565b915081111561113f5760405162461bcd60e51b8152602060048201526015602482015274426f72696e674d6174683a20556e646572666c6f7760581b604482015260640161043b565b92915050565b60008115806111695750828261115b81836117b4565b92506111679083611794565b145b61113f5760405162461bcd60e51b815260206004820152601860248201527f426f72696e674d6174683a204d756c204f766572666c6f770000000000000000604482015260640161043b565b6000816111c2818561177c565b915081101561113f5760405162461bcd60e51b8152602060048201526018602482015277426f72696e674d6174683a20416464204f766572666c6f7760401b604482015260640161043b565b60006001600160801b038211156112675760405162461bcd60e51b815260206004820152601c60248201527f426f72696e674d6174683a2075696e74313238204f766572666c6f7700000000604482015260640161043b565b5090565b60006001600160801b0382166112818385611751565b9150816001600160801b0316101561113f5760405162461bcd60e51b8152602060048201526018602482015277426f72696e674d6174683a20416464204f766572666c6f7760401b604482015260640161043b565b600067ffffffffffffffff8211156112675760405162461bcd60e51b815260206004820152601b60248201527f426f72696e674d6174683a2075696e743634204f766572666c6f770000000000604482015260640161043b565b600080546001600160a01b038381166001600160a01b0319831681178455604051919092169283917f8be0079c531659141344cd1fd0a4f28419497f9722a3daafe3b4186f6b6457e09190a35050565b604080516001600160a01b038481166024830152604480830185905283518084039091018152606490920183526020820180516001600160e01b031663a9059cbb60e01b17905291516000928392908716916113dc9190611670565b6000604051808303816000865af19150503d8060008114611419576040519150601f19603f3d011682016040523d82523d6000602084013e61141e565b606091505b50915091508180156114485750805115806114485750808060200190518101906114489190611513565b6114945760405162461bcd60e51b815260206004820152601c60248201527f426f72696e6745524332303a205472616e73666572206661696c656400000000604482015260640161043b565b5050505050565b6000602082840312156114ac578081fd5b81356114b781611800565b9392505050565b6000806000606084860312156114d2578182fd5b83356114dd81611800565b92506020840135915060408401356114f481611800565b809150509250925092565b6000806000606084860312156114d2578283fd5b600060208284031215611524578081fd5b815180151581146114b7578182fd5b600060208284031215611544578081fd5b81516114b781611800565b600060208284031215611560578081fd5b5035919050565b600060208284031215611578578081fd5b5051919050565b60008060408385031215611591578182fd5b8235915060208301356115a381611800565b809150509250929050565b600080600080600060a086880312156115c5578081fd5b8535945060208601356115d781611800565b935060408601356115e781611800565b94979396509394606081013594506080013592915050565b600080600060608486031215611613578283fd5b83359250602084013561162581611800565b929592945050506040919091013590565b6000815180845260208085019450808401835b8381101561166557815187529582019590820190600101611649565b509495945050505050565b60008251815b818110156116905760208186018101518583015201611676565b8181111561169e5782828501525b509190910192915050565b604080825283519082018190526000906020906060840190828701845b828110156116eb5781516001600160a01b0316845292840192908401906001016116c6565b505050838103828501526116ff8186611636565b9695505050505050565b6020815260006114b76020830184611636565b6020808252818101527f4f776e61626c653a2063616c6c6572206973206e6f7420746865206f776e6572604082015260600190565b60006001600160801b03808316818516808303821115611773576117736117ea565b01949350505050565b6000821982111561178f5761178f6117ea565b500190565b6000826117af57634e487b7160e01b81526012600452602481fd5b500490565b60008160001904831182151516156117ce576117ce6117ea565b500290565b6000828210156117e5576117e56117ea565b500390565b634e487b7160e01b600052601160045260246000fd5b6001600160a01b03811681146110e657600080fdfea2646970667358221220717d313b2f6370602983cf7dadd23dab7dfe1910c891bcecdf1c0c28cd52adcf64736f6c63430008040033",
  "linkReferences": {},
  "deployedLinkReferences": {}
}