{
  "_format": "hh-sol-artifact-1",
  "contractName": "CloneRewarder",
  "sourceName": "contracts/farming/CloneRewarder.sol",
  "abi": [
    {
      "inputs": [
        {
          "internalType": "address",
          "name": "_MASTERCHEF_V2",
          "type": "address"
        }
      ],
      "stateMutability": "nonpayable",
      "type": "constructor"
    },
    {
      "anonymous": false,
      "inputs": [
        {
          "indexed": true,
          "internalType": "contract IERC20",
          "name": "rewardToken",
          "type": "address"
        },
        {
          "indexed": false,
          "internalType": "address",
          "name": "owner",
          "type": "address"
        },
        {
          "indexed": false,
          "internalType": "uint256",
          "name": "rewardPerSecond",
          "type": "uint256"
        },
        {
          "indexed": true,
          "internalType": "contract IERC20",
          "name": "masterLpToken",
          "type": "address"
        }
      ],
      "name": "LogInit",
      "type": "event"
    },
    {
      "anonymous": false,
      "inputs": [
        {
          "indexed": true,
          "internalType": "address",
          "name": "user",
          "type": "address"
        },
        {
          "indexed": true,
          "internalType": "uint256",
          "name": "pid",
          "type": "uint256"
        },
        {
          "indexed": false,
          "internalType": "uint256",
          "name": "amount",
          "type": "uint256"
        },
        {
          "indexed": true,
          "internalType": "address",
          "name": "to",
          "type": "address"
        }
      ],
      "name": "LogOnReward",
      "type": "event"
    },
    {
      "anonymous": false,
      "inputs": [
        {
          "indexed": false,
          "internalType": "uint256",
          "name": "rewardPerSecond",
          "type": "uint256"
        }
      ],
      "name": "LogRewardPerSecond",
      "type": "event"
    },
    {
      "anonymous": false,
      "inputs": [
        {
          "indexed": true,
          "internalType": "uint256",
          "name": "pid",
          "type": "uint256"
        },
        {
          "indexed": false,
          "internalType": "uint64",
          "name": "lastRewardTime",
          "type": "uint64"
        },
        {
          "indexed": false,
          "internalType": "uint256",
          "name": "lpSupply",
          "type": "uint256"
        },
        {
          "indexed": false,
          "internalType": "uint256",
          "name": "accToken1PerShare",
          "type": "uint256"
        }
      ],
      "name": "LogUpdatePool",
      "type": "event"
    },
    {
      "anonymous": false,
      "inputs": [
        {
          "indexed": true,
          "internalType": "address",
          "name": "previousOwner",
          "type": "address"
        },
        {
          "indexed": true,
          "internalType": "address",
          "name": "newOwner",
          "type": "address"
        }
      ],
      "name": "OwnershipTransferred",
      "type": "event"
    },
    {
      "inputs": [],
      "name": "MASTERCHEF_V2",
      "outputs": [
        {
          "internalType": "address",
          "name": "",
          "type": "address"
        }
      ],
      "stateMutability": "view",
      "type": "function"
    },
    {
      "inputs": [
        {
          "internalType": "address",
          "name": "_rewardToken",
          "type": "address"
        },
        {
          "internalType": "uint256",
          "name": "_rewardPerSecond",
          "type": "uint256"
        },
        {
          "internalType": "address",
          "name": "_masterLpToken",
          "type": "address"
        }
      ],
      "name": "init",
      "outputs": [],
      "stateMutability": "payable",
      "type": "function"
    },
    {
      "inputs": [],
      "name": "masterLpToken",
      "outputs": [
        {
          "internalType": "contract IERC20",
          "name": "",
          "type": "address"
        }
      ],
      "stateMutability": "view",
      "type": "function"
    },
    {
      "inputs": [
        {
          "internalType": "uint256",
          "name": "pid",
          "type": "uint256"
        },
        {
          "internalType": "address",
          "name": "_user",
          "type": "address"
        },
        {
          "internalType": "address",
          "name": "to",
          "type": "address"
        },
        {
          "internalType": "uint256",
          "name": "",
          "type": "uint256"
        },
        {
          "internalType": "uint256",
          "name": "lpTokenAmount",
          "type": "uint256"
        }
      ],
      "name": "onKdxReward",
      "outputs": [],
      "stateMutability": "nonpayable",
      "type": "function"
    },
    {
      "inputs": [],
      "name": "owner",
      "outputs": [
        {
          "internalType": "address",
          "name": "",
          "type": "address"
        }
      ],
      "stateMutability": "view",
      "type": "function"
    },
    {
      "inputs": [
        {
          "internalType": "uint256",
          "name": "_pid",
          "type": "uint256"
        },
        {
          "internalType": "address",
          "name": "_user",
          "type": "address"
        }
      ],
      "name": "pendingToken",
      "outputs": [
        {
          "internalType": "uint256",
          "name": "pending",
          "type": "uint256"
        }
      ],
      "stateMutability": "view",
      "type": "function"
    },
    {
      "inputs": [
        {
          "internalType": "uint256",
          "name": "pid",
          "type": "uint256"
        },
        {
          "internalType": "address",
          "name": "user",
          "type": "address"
        },
        {
          "internalType": "uint256",
          "name": "",
          "type": "uint256"
        }
      ],
      "name": "pendingTokens",
      "outputs": [
        {
          "internalType": "contract IERC20[]",
          "name": "rewardTokens",
          "type": "address[]"
        },
        {
          "internalType": "uint256[]",
          "name": "rewardAmounts",
          "type": "uint256[]"
        }
      ],
      "stateMutability": "view",
      "type": "function"
    },
    {
      "inputs": [
        {
          "internalType": "uint256",
          "name": "",
          "type": "uint256"
        }
      ],
      "name": "poolInfo",
      "outputs": [
        {
          "internalType": "uint128",
          "name": "accToken1PerShare",
          "type": "uint128"
        },
        {
          "internalType": "uint64",
          "name": "lastRewardTime",
          "type": "uint64"
        }
      ],
      "stateMutability": "view",
      "type": "function"
    },
    {
      "inputs": [
        {
          "internalType": "address",
          "name": "token",
          "type": "address"
        },
        {
          "internalType": "uint256",
          "name": "amount",
          "type": "uint256"
        },
        {
          "internalType": "address payable",
          "name": "to",
          "type": "address"
        }
      ],
      "name": "reclaimTokens",
      "outputs": [],
      "stateMutability": "nonpayable",
      "type": "function"
    },
    {
      "inputs": [],
      "name": "renounceOwnership",
      "outputs": [],
      "stateMutability": "nonpayable",
      "type": "function"
    },
    {
      "inputs": [],
      "name": "rewardPerSecond",
      "outputs": [
        {
          "internalType": "uint256",
          "name": "",
          "type": "uint256"
        }
      ],
      "stateMutability": "view",
      "type": "function"
    },
    {
      "inputs": [],
      "name": "rewardRates",
      "outputs": [
        {
          "internalType": "uint256[]",
          "name": "",
          "type": "uint256[]"
        }
      ],
      "stateMutability": "view",
      "type": "function"
    },
    {
      "inputs": [],
      "name": "rewardToken",
      "outputs": [
        {
          "internalType": "contract IERC20",
          "name": "",
          "type": "address"
        }
      ],
      "stateMutability": "view",
      "type": "function"
    },
    {
      "inputs": [
        {
          "internalType": "uint256",
          "name": "_rewardPerSecond",
          "type": "uint256"
        }
      ],
      "name": "setRewardPerSecond",
      "outputs": [],
      "stateMutability": "nonpayable",
      "type": "function"
    },
    {
      "inputs": [
        {
          "internalType": "address",
          "name": "newOwner",
          "type": "address"
        }
      ],
      "name": "transferOwnership",
      "outputs": [],
      "stateMutability": "nonpayable",
      "type": "function"
    },
    {
      "inputs": [
        {
          "internalType": "uint256",
          "name": "pid",
          "type": "uint256"
        }
      ],
      "name": "updatePool",
      "outputs": [
        {
          "components": [
            {
              "internalType": "uint128",
              "name": "accToken1PerShare",
              "type": "uint128"
            },
            {
              "internalType": "uint64",
              "name": "lastRewardTime",
              "type": "uint64"
            }
          ],
          "internalType": "struct CloneRewarder.PoolInfo",
          "name": "pool",
          "type": "tuple"
        }
      ],
      "stateMutability": "nonpayable",
      "type": "function"
    },
    {
      "inputs": [
        {
          "internalType": "uint256",
          "name": "",
          "type": "uint256"
        },
        {
          "internalType": "address",
          "name": "",
          "type": "address"
        }
      ],
      "name": "userInfo",
      "outputs": [
        {
          "internalType": "uint256",
          "name": "amount",
          "type": "uint256"
        },
        {
          "internalType": "uint256",
          "name": "rewardDebt",
          "type": "uint256"
        },
        {
          "internalType": "uint256",
          "name": "unpaidRewards",
          "type": "uint256"
        }
      ],
      "stateMutability": "view",
      "type": "function"
    }
  ],
  "bytecode": "0x60a06040523480156200001157600080fd5b50604051620030f0380380620030f0833981810160405281019062000037919062000178565b620000576200004b6200009560201b60201c565b6200009d60201b60201c565b8073ffffffffffffffffffffffffffffffffffffffff1660808173ffffffffffffffffffffffffffffffffffffffff1660601b8152505050620001f2565b600033905090565b60008060009054906101000a900473ffffffffffffffffffffffffffffffffffffffff169050816000806101000a81548173ffffffffffffffffffffffffffffffffffffffff021916908373ffffffffffffffffffffffffffffffffffffffff1602179055508173ffffffffffffffffffffffffffffffffffffffff168173ffffffffffffffffffffffffffffffffffffffff167f8be0079c531659141344cd1fd0a4f28419497f9722a3daafe3b4186f6b6457e060405160405180910390a35050565b6000815190506200017281620001d8565b92915050565b6000602082840312156200018b57600080fd5b60006200019b8482850162000161565b91505092915050565b6000620001b182620001b8565b9050919050565b600073ffffffffffffffffffffffffffffffffffffffff82169050919050565b620001e381620001a4565b8114620001ef57600080fd5b50565b60805160601c612eb56200023b600039600081816108600152818161092401528181610b6901528181610c2d01528181610e8001528181610fe901526110fd0152612eb56000f3fe6080604052600436106100fe5760003560e01c80638da5cb5b11610095578063a88a5c1611610064578063a88a5c161461032b578063c1ea386814610356578063d63b3c491461037f578063f2fde38b146103bd578063f7c618c1146103e6576100fe565b80638da5cb5b1461026b5780638f10369a1461029657806393f1a40b146102c1578063a8594dab14610300576100fe565b80635a894421116100d15780635a894421146101d757806366da581514610202578063715018a61461022b578063860cbfe414610242576100fe565b80631526fe271461010357806343fc00b81461014157806348e43af41461015d57806351eb05a61461019a575b600080fd5b34801561010f57600080fd5b5061012a60048036038101906101259190612087565b610411565b6040516101389291906127cb565b60405180910390f35b61015b60048036038101906101569190611f97565b610465565b005b34801561016957600080fd5b50610184600480360381019061017f91906120d9565b61074e565b60405161019191906127f4565b60405180910390f35b3480156101a657600080fd5b506101c160048036038101906101bc9190612087565b610aab565b6040516101ce91906127b0565b60405180910390f35b3480156101e357600080fd5b506101ec610e7e565b6040516101f99190612578565b60405180910390f35b34801561020e57600080fd5b5061022960048036038101906102249190612087565b610ea2565b005b34801561023757600080fd5b50610240610f5f565b005b34801561024e57600080fd5b5061026960048036038101906102649190612115565b610fe7565b005b34801561027757600080fd5b506102806114e6565b60405161028d9190612578565b60405180910390f35b3480156102a257600080fd5b506102ab61150f565b6040516102b891906127f4565b60405180910390f35b3480156102cd57600080fd5b506102e860048036038101906102e391906120d9565b611515565b6040516102f79392919061280f565b60405180910390f35b34801561030c57600080fd5b5061031561154c565b6040516103229190612615565b60405180910390f35b34801561033757600080fd5b50610340611572565b60405161034d91906125f3565b60405180910390f35b34801561036257600080fd5b5061037d60048036038101906103789190611fe6565b611638565b005b34801561038b57600080fd5b506103a660048036038101906103a1919061218c565b611766565b6040516103b49291906125bc565b60405180910390f35b3480156103c957600080fd5b506103e460048036038101906103df9190611f6e565b611948565b005b3480156103f257600080fd5b506103fb611a40565b6040516104089190612615565b60405180910390f35b60026020528060005260406000206000915090508060000160009054906101000a90046fffffffffffffffffffffffffffffffff16908060000160109054906101000a900467ffffffffffffffff16905082565b61046d611a66565b73ffffffffffffffffffffffffffffffffffffffff1661048b6114e6565b73ffffffffffffffffffffffffffffffffffffffff16146104e1576040517f08c379a00000000000000000000000000000000000000000000000000000000081526004016104d8906126f0565b60405180910390fd5b600073ffffffffffffffffffffffffffffffffffffffff16600160009054906101000a900473ffffffffffffffffffffffffffffffffffffffff1673ffffffffffffffffffffffffffffffffffffffff1614610572576040517f08c379a000000000000000000000000000000000000000000000000000000000815260040161056990612770565b60405180910390fd5b82600160006101000a81548173ffffffffffffffffffffffffffffffffffffffff021916908373ffffffffffffffffffffffffffffffffffffffff1602179055508160048190555080600560006101000a81548173ffffffffffffffffffffffffffffffffffffffff021916908373ffffffffffffffffffffffffffffffffffffffff160217905550600073ffffffffffffffffffffffffffffffffffffffff16600160009054906101000a900473ffffffffffffffffffffffffffffffffffffffff1673ffffffffffffffffffffffffffffffffffffffff16141561068d576040517f08c379a000000000000000000000000000000000000000000000000000000000815260040161068490612790565b60405180910390fd5b6001600681905550600560009054906101000a900473ffffffffffffffffffffffffffffffffffffffff1673ffffffffffffffffffffffffffffffffffffffff16600160009054906101000a900473ffffffffffffffffffffffffffffffffffffffff1673ffffffffffffffffffffffffffffffffffffffff167f4df6005d9c1e62d1d95592850d1c3256ee902631dd819a342f1756ab834894396107306114e6565b600454604051610741929190612593565b60405180910390a3505050565b600080600260008581526020019081526020016000206040518060400160405290816000820160009054906101000a90046fffffffffffffffffffffffffffffffff166fffffffffffffffffffffffffffffffff166fffffffffffffffffffffffffffffffff1681526020016000820160109054906101000a900467ffffffffffffffff1667ffffffffffffffff1667ffffffffffffffff1681525050905060006003600086815260200190815260200160002060008573ffffffffffffffffffffffffffffffffffffffff1673ffffffffffffffffffffffffffffffffffffffff1681526020019081526020016000209050600082600001516fffffffffffffffffffffffffffffffff16905060007f000000000000000000000000000000000000000000000000000000000000000073ffffffffffffffffffffffffffffffffffffffff166378ed5d1f886040518263ffffffff1660e01b81526004016108b791906127f4565b60206040518083038186803b1580156108cf57600080fd5b505afa1580156108e3573d6000803e3d6000fd5b505050506040513d601f19601f82011682018060405250810190610907919061205e565b73ffffffffffffffffffffffffffffffffffffffff166370a082317f00000000000000000000000000000000000000000000000000000000000000006040518263ffffffff1660e01b815260040161095f9190612578565b60206040518083038186803b15801561097757600080fd5b505afa15801561098b573d6000803e3d6000fd5b505050506040513d601f19601f820116820180604052508101906109af91906120b0565b9050836020015167ffffffffffffffff16421180156109cf575060008114155b15610a4c5760006109f7856020015167ffffffffffffffff1642611a6e90919063ffffffff16565b90506000610a1060045483611ac790919063ffffffff16565b9050610a4783610a2e64e8d4a5100084611ac790919063ffffffff16565b610a3891906129b2565b85611b3490919063ffffffff16565b935050505b610a9f8360020154610a91856001015464e8d4a51000610a79878960000154611ac790919063ffffffff16565b610a8391906129b2565b611a6e90919063ffffffff16565b611b3490919063ffffffff16565b94505050505092915050565b610ab3611eba565b600260008381526020019081526020016000206040518060400160405290816000820160009054906101000a90046fffffffffffffffffffffffffffffffff166fffffffffffffffffffffffffffffffff166fffffffffffffffffffffffffffffffff1681526020016000820160109054906101000a900467ffffffffffffffff1667ffffffffffffffff1667ffffffffffffffff16815250509050806020015167ffffffffffffffff16421115610e795760007f000000000000000000000000000000000000000000000000000000000000000073ffffffffffffffffffffffffffffffffffffffff166378ed5d1f846040518263ffffffff1660e01b8152600401610bc091906127f4565b60206040518083038186803b158015610bd857600080fd5b505afa158015610bec573d6000803e3d6000fd5b505050506040513d601f19601f82011682018060405250810190610c10919061205e565b73ffffffffffffffffffffffffffffffffffffffff166370a082317f00000000000000000000000000000000000000000000000000000000000000006040518263ffffffff1660e01b8152600401610c689190612578565b60206040518083038186803b158015610c8057600080fd5b505afa158015610c94573d6000803e3d6000fd5b505050506040513d601f19601f82011682018060405250810190610cb891906120b0565b90506000811115610d86576000610ce6836020015167ffffffffffffffff1642611a6e90919063ffffffff16565b90506000610cff60045483611ac790919063ffffffff16565b9050610d54610d2f84610d2064e8d4a5100085611ac790919063ffffffff16565b610d2a91906129b2565b611b8d565b85600001516fffffffffffffffffffffffffffffffff16611bec90919063ffffffff16565b84600001906fffffffffffffffffffffffffffffffff1690816fffffffffffffffffffffffffffffffff168152505050505b610d8f42611c69565b826020019067ffffffffffffffff16908167ffffffffffffffff1681525050816002600085815260200190815260200160002060008201518160000160006101000a8154816fffffffffffffffffffffffffffffffff02191690836fffffffffffffffffffffffffffffffff16021790555060208201518160000160106101000a81548167ffffffffffffffff021916908367ffffffffffffffff160217905550905050827f0fc9545022a542541ad085d091fb09a2ab36fee366a4576ab63714ea907ad3538360200151838560000151604051610e6f93929190612846565b60405180910390a2505b919050565b7f000000000000000000000000000000000000000000000000000000000000000081565b610eaa611a66565b73ffffffffffffffffffffffffffffffffffffffff16610ec86114e6565b73ffffffffffffffffffffffffffffffffffffffff1614610f1e576040517f08c379a0000000000000000000000000000000000000000000000000000000008152600401610f15906126f0565b60405180910390fd5b806004819055507fde89cb17ac7f58f94792b3e91e086ed85403819c24ceea882491f960ccb1a27881604051610f5491906127f4565b60405180910390a150565b610f67611a66565b73ffffffffffffffffffffffffffffffffffffffff16610f856114e6565b73ffffffffffffffffffffffffffffffffffffffff1614610fdb576040517f08c379a0000000000000000000000000000000000000000000000000000000008152600401610fd2906126f0565b60405180910390fd5b610fe56000611cc0565b565b7f000000000000000000000000000000000000000000000000000000000000000073ffffffffffffffffffffffffffffffffffffffff163373ffffffffffffffffffffffffffffffffffffffff1614611075576040517f08c379a000000000000000000000000000000000000000000000000000000000815260040161106c90612690565b60405180910390fd5b6001600654146110ba576040517f08c379a00000000000000000000000000000000000000000000000000000000081526004016110b190612730565b60405180910390fd5b6002600681905550600560009054906101000a900473ffffffffffffffffffffffffffffffffffffffff1673ffffffffffffffffffffffffffffffffffffffff167f000000000000000000000000000000000000000000000000000000000000000073ffffffffffffffffffffffffffffffffffffffff166378ed5d1f876040518263ffffffff1660e01b815260040161115491906127f4565b60206040518083038186803b15801561116c57600080fd5b505afa158015611180573d6000803e3d6000fd5b505050506040513d601f19601f820116820180604052508101906111a4919061205e565b73ffffffffffffffffffffffffffffffffffffffff16146111c457600080fd5b60006111cf86610aab565b905060006003600088815260200190815260200160002060008773ffffffffffffffffffffffffffffffffffffffff1673ffffffffffffffffffffffffffffffffffffffff1681526020019081526020016000209050600080826000015411156114155761129c826002015461128e846001015464e8d4a5100061127688600001516fffffffffffffffffffffffffffffffff168860000154611ac790919063ffffffff16565b61128091906129b2565b611a6e90919063ffffffff16565b611b3490919063ffffffff16565b90506000600160009054906101000a900473ffffffffffffffffffffffffffffffffffffffff1673ffffffffffffffffffffffffffffffffffffffff166370a08231306040518263ffffffff1660e01b81526004016112fb9190612578565b60206040518083038186803b15801561131357600080fd5b505afa158015611327573d6000803e3d6000fd5b505050506040513d601f19601f8201168201806040525081019061134b91906120b0565b9050808211156113bb576113a28782600160009054906101000a900473ffffffffffffffffffffffffffffffffffffffff1673ffffffffffffffffffffffffffffffffffffffff16611d849092919063ffffffff16565b80826113ae9190612a3d565b8360020181905550611413565b6114088783600160009054906101000a900473ffffffffffffffffffffffffffffffffffffffff1673ffffffffffffffffffffffffffffffffffffffff16611d849092919063ffffffff16565b600083600201819055505b505b83826000018190555064e8d4a5100061144d84600001516fffffffffffffffffffffffffffffffff1686611ac790919063ffffffff16565b61145791906129b2565b82600101819055508573ffffffffffffffffffffffffffffffffffffffff16888873ffffffffffffffffffffffffffffffffffffffff167f2ece88ca2bc08dd018db50e1d25a20bf1241e5fab1c396caa51f01a54bd2f75b8560020154856114bf9190612a3d565b6040516114cc91906127f4565b60405180910390a450505060016006819055505050505050565b60008060009054906101000a900473ffffffffffffffffffffffffffffffffffffffff16905090565b60045481565b6003602052816000526040600020602052806000526040600020600091509150508060000154908060010154908060020154905083565b600560009054906101000a900473ffffffffffffffffffffffffffffffffffffffff1681565b60606000600167ffffffffffffffff8111156115b7577f4e487b7100000000000000000000000000000000000000000000000000000000600052604160045260246000fd5b6040519080825280602002602001820160405280156115e55781602001602082028036833780820191505090505b50905060045481600081518110611625577f4e487b7100000000000000000000000000000000000000000000000000000000600052603260045260246000fd5b6020026020010181815250508091505090565b611640611a66565b73ffffffffffffffffffffffffffffffffffffffff1661165e6114e6565b73ffffffffffffffffffffffffffffffffffffffff16146116b4576040517f08c379a00000000000000000000000000000000000000000000000000000000081526004016116ab906126f0565b60405180910390fd5b600073ffffffffffffffffffffffffffffffffffffffff168373ffffffffffffffffffffffffffffffffffffffff161415611735578073ffffffffffffffffffffffffffffffffffffffff166108fc839081150290604051600060405180830381858888f1935050505015801561172f573d6000803e3d6000fd5b50611761565b61176081838573ffffffffffffffffffffffffffffffffffffffff16611d849092919063ffffffff16565b5b505050565b6060806000600167ffffffffffffffff8111156117ac577f4e487b7100000000000000000000000000000000000000000000000000000000600052604160045260246000fd5b6040519080825280602002602001820160405280156117da5781602001602082028036833780820191505090505b509050600160009054906101000a900473ffffffffffffffffffffffffffffffffffffffff168160008151811061183a577f4e487b7100000000000000000000000000000000000000000000000000000000600052603260045260246000fd5b602002602001019073ffffffffffffffffffffffffffffffffffffffff16908173ffffffffffffffffffffffffffffffffffffffff16815250506000600167ffffffffffffffff8111156118b7577f4e487b7100000000000000000000000000000000000000000000000000000000600052604160045260246000fd5b6040519080825280602002602001820160405280156118e55781602001602082028036833780820191505090505b5090506118f2878761074e565b8160008151811061192c577f4e487b7100000000000000000000000000000000000000000000000000000000600052603260045260246000fd5b6020026020010181815250508181935093505050935093915050565b611950611a66565b73ffffffffffffffffffffffffffffffffffffffff1661196e6114e6565b73ffffffffffffffffffffffffffffffffffffffff16146119c4576040517f08c379a00000000000000000000000000000000000000000000000000000000081526004016119bb906126f0565b60405180910390fd5b600073ffffffffffffffffffffffffffffffffffffffff168173ffffffffffffffffffffffffffffffffffffffff161415611a34576040517f08c379a0000000000000000000000000000000000000000000000000000000008152600401611a2b90612670565b60405180910390fd5b611a3d81611cc0565b50565b600160009054906101000a900473ffffffffffffffffffffffffffffffffffffffff1681565b600033905090565b6000828284611a7d9190612a3d565b9150811115611ac1576040517f08c379a0000000000000000000000000000000000000000000000000000000008152600401611ab890612630565b60405180910390fd5b92915050565b600080821480611aef575082828385611ae091906129e3565b925082611aed91906129b2565b145b611b2e576040517f08c379a0000000000000000000000000000000000000000000000000000000008152600401611b2590612750565b60405180910390fd5b92915050565b6000818284611b43919061295c565b9150811015611b87576040517f08c379a0000000000000000000000000000000000000000000000000000000008152600401611b7e906126d0565b60405180910390fd5b92915050565b60006fffffffffffffffffffffffffffffffff8016821115611be4576040517f08c379a0000000000000000000000000000000000000000000000000000000008152600401611bdb906126b0565b60405180910390fd5b819050919050565b6000816fffffffffffffffffffffffffffffffff168284611c0d9190612916565b9150816fffffffffffffffffffffffffffffffff161015611c63576040517f08c379a0000000000000000000000000000000000000000000000000000000008152600401611c5a906126d0565b60405180910390fd5b92915050565b600067ffffffffffffffff8016821115611cb8576040517f08c379a0000000000000000000000000000000000000000000000000000000008152600401611caf90612710565b60405180910390fd5b819050919050565b60008060009054906101000a900473ffffffffffffffffffffffffffffffffffffffff169050816000806101000a81548173ffffffffffffffffffffffffffffffffffffffff021916908373ffffffffffffffffffffffffffffffffffffffff1602179055508173ffffffffffffffffffffffffffffffffffffffff168173ffffffffffffffffffffffffffffffffffffffff167f8be0079c531659141344cd1fd0a4f28419497f9722a3daafe3b4186f6b6457e060405160405180910390a35050565b6000808473ffffffffffffffffffffffffffffffffffffffff1663a9059cbb8585604051602401611db6929190612593565b6040516020818303038152906040529060e01b6020820180517bffffffffffffffffffffffffffffffffffffffffffffffffffffffff8381831617835250505050604051611e049190612561565b6000604051808303816000865af19150503d8060008114611e41576040519150601f19603f3d011682016040523d82523d6000602084013e611e46565b606091505b5091509150818015611e745750600081511480611e73575080806020019051810190611e729190612035565b5b5b611eb3576040517f08c379a0000000000000000000000000000000000000000000000000000000008152600401611eaa90612650565b60405180910390fd5b5050505050565b604051806040016040528060006fffffffffffffffffffffffffffffffff168152602001600067ffffffffffffffff1681525090565b600081359050611eff81612e0c565b92915050565b600081359050611f1481612e23565b92915050565b600081519050611f2981612e3a565b92915050565b600081519050611f3e81612e51565b92915050565b600081359050611f5381612e68565b92915050565b600081519050611f6881612e68565b92915050565b600060208284031215611f8057600080fd5b6000611f8e84828501611ef0565b91505092915050565b600080600060608486031215611fac57600080fd5b6000611fba86828701611ef0565b9350506020611fcb86828701611f44565b9250506040611fdc86828701611ef0565b9150509250925092565b600080600060608486031215611ffb57600080fd5b600061200986828701611ef0565b935050602061201a86828701611f44565b925050604061202b86828701611f05565b9150509250925092565b60006020828403121561204757600080fd5b600061205584828501611f1a565b91505092915050565b60006020828403121561207057600080fd5b600061207e84828501611f2f565b91505092915050565b60006020828403121561209957600080fd5b60006120a784828501611f44565b91505092915050565b6000602082840312156120c257600080fd5b60006120d084828501611f59565b91505092915050565b600080604083850312156120ec57600080fd5b60006120fa85828601611f44565b925050602061210b85828601611ef0565b9150509250929050565b600080600080600060a0868803121561212d57600080fd5b600061213b88828901611f44565b955050602061214c88828901611ef0565b945050604061215d88828901611ef0565b935050606061216e88828901611f44565b925050608061217f88828901611f44565b9150509295509295909350565b6000806000606084860312156121a157600080fd5b60006121af86828701611f44565b93505060206121c086828701611ef0565b92505060406121d186828701611f44565b9150509250925092565b60006121e78383612307565b60208301905092915050565b60006121ff8383612525565b60208301905092915050565b61221481612a71565b82525050565b60006122258261289d565b61222f81856128d8565b935061223a8361287d565b8060005b8381101561226b57815161225288826121db565b975061225d836128be565b92505060018101905061223e565b5085935050505092915050565b6000612283826128a8565b61228d81856128e9565b93506122988361288d565b8060005b838110156122c95781516122b088826121f3565b97506122bb836128cb565b92505060018101905061229c565b5085935050505092915050565b60006122e1826128b3565b6122eb81856128fa565b93506122fb818560208601612b43565b80840191505092915050565b61231081612b0d565b82525050565b61231f81612b0d565b82525050565b6000612332601583612905565b915061233d82612bd4565b602082019050919050565b6000612355601c83612905565b915061236082612bfd565b602082019050919050565b6000612378602683612905565b915061238382612c26565b604082019050919050565b600061239b602183612905565b91506123a682612c75565b604082019050919050565b60006123be601c83612905565b91506123c982612cc4565b602082019050919050565b60006123e1601883612905565b91506123ec82612ced565b602082019050919050565b6000612404602083612905565b915061240f82612d16565b602082019050919050565b6000612427601b83612905565b915061243282612d3f565b602082019050919050565b600061244a600683612905565b915061245582612d68565b602082019050919050565b600061246d601883612905565b915061247882612d91565b602082019050919050565b6000612490601d83612905565b915061249b82612dba565b602082019050919050565b60006124b3601383612905565b91506124be82612de3565b602082019050919050565b6040820160008201516124df60008501826124f8565b5060208201516124f26020850182612543565b50505050565b61250181612ab3565b82525050565b61251081612ab3565b82525050565b61251f81612b31565b82525050565b61252e81612aef565b82525050565b61253d81612aef565b82525050565b61254c81612af9565b82525050565b61255b81612af9565b82525050565b600061256d82846122d6565b915081905092915050565b600060208201905061258d600083018461220b565b92915050565b60006040820190506125a8600083018561220b565b6125b56020830184612534565b9392505050565b600060408201905081810360008301526125d6818561221a565b905081810360208301526125ea8184612278565b90509392505050565b6000602082019050818103600083015261260d8184612278565b905092915050565b600060208201905061262a6000830184612316565b92915050565b6000602082019050818103600083015261264981612325565b9050919050565b6000602082019050818103600083015261266981612348565b9050919050565b600060208201905081810360008301526126898161236b565b9050919050565b600060208201905081810360008301526126a98161238e565b9050919050565b600060208201905081810360008301526126c9816123b1565b9050919050565b600060208201905081810360008301526126e9816123d4565b9050919050565b60006020820190508181036000830152612709816123f7565b9050919050565b600060208201905081810360008301526127298161241a565b9050919050565b600060208201905081810360008301526127498161243d565b9050919050565b6000602082019050818103600083015261276981612460565b9050919050565b6000602082019050818103600083015261278981612483565b9050919050565b600060208201905081810360008301526127a9816124a6565b9050919050565b60006040820190506127c560008301846124c9565b92915050565b60006040820190506127e06000830185612507565b6127ed6020830184612552565b9392505050565b60006020820190506128096000830184612534565b92915050565b60006060820190506128246000830186612534565b6128316020830185612534565b61283e6040830184612534565b949350505050565b600060608201905061285b6000830186612552565b6128686020830185612534565b6128756040830184612516565b949350505050565b6000819050602082019050919050565b6000819050602082019050919050565b600081519050919050565b600081519050919050565b600081519050919050565b6000602082019050919050565b6000602082019050919050565b600082825260208201905092915050565b600082825260208201905092915050565b600081905092915050565b600082825260208201905092915050565b600061292182612ab3565b915061292c83612ab3565b9250826fffffffffffffffffffffffffffffffff0382111561295157612950612b76565b5b828201905092915050565b600061296782612aef565b915061297283612aef565b9250827fffffffffffffffffffffffffffffffffffffffffffffffffffffffffffffffff038211156129a7576129a6612b76565b5b828201905092915050565b60006129bd82612aef565b91506129c883612aef565b9250826129d8576129d7612ba5565b5b828204905092915050565b60006129ee82612aef565b91506129f983612aef565b9250817fffffffffffffffffffffffffffffffffffffffffffffffffffffffffffffffff0483118215151615612a3257612a31612b76565b5b828202905092915050565b6000612a4882612aef565b9150612a5383612aef565b925082821015612a6657612a65612b76565b5b828203905092915050565b6000612a7c82612acf565b9050919050565b6000612a8e82612acf565b9050919050565b60008115159050919050565b6000612aac82612a71565b9050919050565b60006fffffffffffffffffffffffffffffffff82169050919050565b600073ffffffffffffffffffffffffffffffffffffffff82169050919050565b6000819050919050565b600067ffffffffffffffff82169050919050565b6000612b1882612b1f565b9050919050565b6000612b2a82612acf565b9050919050565b6000612b3c82612ab3565b9050919050565b60005b83811015612b61578082015181840152602081019050612b46565b83811115612b70576000848401525b50505050565b7f4e487b7100000000000000000000000000000000000000000000000000000000600052601160045260246000fd5b7f4e487b7100000000000000000000000000000000000000000000000000000000600052601260045260246000fd5b7f426f72696e674d6174683a20556e646572666c6f770000000000000000000000600082015250565b7f426f72696e6745524332303a205472616e73666572206661696c656400000000600082015250565b7f4f776e61626c653a206e6577206f776e657220697320746865207a65726f206160008201527f6464726573730000000000000000000000000000000000000000000000000000602082015250565b7f4f6e6c79204d4356322063616e2063616c6c20746869732066756e6374696f6e60008201527f2e00000000000000000000000000000000000000000000000000000000000000602082015250565b7f426f72696e674d6174683a2075696e74313238204f766572666c6f7700000000600082015250565b7f426f72696e674d6174683a20416464204f766572666c6f770000000000000000600082015250565b7f4f776e61626c653a2063616c6c6572206973206e6f7420746865206f776e6572600082015250565b7f426f72696e674d6174683a2075696e743634204f766572666c6f770000000000600082015250565b7f4c4f434b45440000000000000000000000000000000000000000000000000000600082015250565b7f426f72696e674d6174683a204d756c204f766572666c6f770000000000000000600082015250565b7f52657761726465723a20616c726561647920696e697469616c697a6564000000600082015250565b7f52657761726465723a2062616420746f6b656e00000000000000000000000000600082015250565b612e1581612a71565b8114612e2057600080fd5b50565b612e2c81612a83565b8114612e3757600080fd5b50565b612e4381612a95565b8114612e4e57600080fd5b50565b612e5a81612aa1565b8114612e6557600080fd5b50565b612e7181612aef565b8114612e7c57600080fd5b5056fea26469706673582212201a5730501a2601ff5388c2f136c4ba76dd5b2d542f92a9b8a8ae1147dd40a0a664736f6c63430008040033",
  "linkReferences": {},
  "deployedLinkReferences": {}
}