{
  "_format": "hh-sol-artifact-1",
  "contractName": "BaseBoringBatchable",
  "sourceName": "contracts/farming/BoringBatchable.sol",
  "abi": [
    {
      "inputs": [
        {
          "internalType": "bytes[]",
          "name": "calls",
          "type": "bytes[]"
        },
        {
          "internalType": "bool",
          "name": "revertOnFail",
          "type": "bool"
        }
      ],
      "name": "batch",
      "outputs": [
        {
          "internalType": "bool[]",
          "name": "successes",
          "type": "bool[]"
        },
        {
          "internalType": "bytes[]",
          "name": "results",
          "type": "bytes[]"
        }
      ],
      "stateMutability": "payable",
      "type": "function"
    }
  ],
  "bytecode": "0x608060405234801561001057600080fd5b506105bd806100206000396000f3fe60806040526004361061001e5760003560e01c8063d2423b5114610023575b600080fd5b6100366100313660046102b1565b61004d565b60405161004492919061041b565b60405180910390f35b6060808367ffffffffffffffff81111561007757634e487b7160e01b600052604160045260246000fd5b6040519080825280602002602001820160405280156100a0578160200160208202803683370190505b5091508367ffffffffffffffff8111156100ca57634e487b7160e01b600052604160045260246000fd5b6040519080825280602002602001820160405280156100fd57816020015b60608152602001906001900390816100e85790505b50905060005b84811015610243576000803088888581811061012f57634e487b7160e01b600052603260045260246000fd5b905060200281019061014191906104ce565b60405161014f92919061040b565b600060405180830381855af49150503d806000811461018a576040519150601f19603f3d011682016040523d82523d6000602084013e61018f565b606091505b5091509150818061019e575085155b6101a78261024c565b906101ce5760405162461bcd60e51b81526004016101c591906104b4565b60405180910390fd5b50818584815181106101f057634e487b7160e01b600052603260045260246000fd5b6020026020010190151590811515815250508084848151811061022357634e487b7160e01b600052603260045260246000fd5b60200260200101819052505050808061023b9061054a565b915050610103565b50935093915050565b606060448251101561029157505060408051808201909152601d81527f5472616e73616374696f6e2072657665727465642073696c656e746c79000000602082015290565b600482019150818060200190518101906102ab9190610336565b92915050565b6000806000604084860312156102c5578283fd5b833567ffffffffffffffff808211156102dc578485fd5b818601915086601f8301126102ef578485fd5b8135818111156102fd578586fd5b8760208260051b8501011115610311578586fd5b60209283019550935050840135801515811461032b578182fd5b809150509250925092565b600060208284031215610347578081fd5b815167ffffffffffffffff8082111561035e578283fd5b818401915084601f830112610371578283fd5b81518181111561038357610383610571565b604051601f8201601f19908116603f011681019083821181831017156103ab576103ab610571565b816040528281528760208487010111156103c3578586fd5b6103d483602083016020880161051a565b979650505050505050565b600081518084526103f781602086016020860161051a565b601f01601f19169290920160200192915050565b8183823760009101908152919050565b604080825283519082018190526000906020906060840190828701845b82811015610456578151151584529284019290840190600101610438565b50505083810382850152845180825282820190600581901b83018401878501865b838110156104a557601f198684030185526104938383516103df565b94870194925090860190600101610477565b50909998505050505050505050565b6020815260006104c760208301846103df565b9392505050565b6000808335601e198436030181126104e4578283fd5b83018035915067ffffffffffffffff8211156104fe578283fd5b60200191503681900382131561051357600080fd5b9250929050565b60005b8381101561053557818101518382015260200161051d565b83811115610544576000848401525b50505050565b600060001982141561056a57634e487b7160e01b81526011600452602481fd5b5060010190565b634e487b7160e01b600052604160045260246000fdfea2646970667358221220b7ea2f768d00c85f2866e9869ce99e26745fbdb5e803522c9d5bbbdebe0facba64736f6c63430008040033",
  "linkReferences": {},
  "deployedLinkReferences": {}
}