{
  "_format": "hh-sol-artifact-1",
  "contractName": "BoringBatchable",
  "sourceName": "contracts/farming/BoringBatchable.sol",
  "abi": [
    {
      "inputs": [
        {
          "internalType": "bytes[]",
          "name": "calls",
          "type": "bytes[]"
        },
        {
          "internalType": "bool",
          "name": "revertOnFail",
          "type": "bool"
        }
      ],
      "name": "batch",
      "outputs": [
        {
          "internalType": "bool[]",
          "name": "successes",
          "type": "bool[]"
        },
        {
          "internalType": "bytes[]",
          "name": "results",
          "type": "bytes[]"
        }
      ],
      "stateMutability": "payable",
      "type": "function"
    },
    {
      "inputs": [
        {
          "internalType": "contract IERC20Permit",
          "name": "token",
          "type": "address"
        },
        {
          "internalType": "address",
          "name": "from",
          "type": "address"
        },
        {
          "internalType": "address",
          "name": "to",
          "type": "address"
        },
        {
          "internalType": "uint256",
          "name": "amount",
          "type": "uint256"
        },
        {
          "internalType": "uint256",
          "name": "deadline",
          "type": "uint256"
        },
        {
          "internalType": "uint8",
          "name": "v",
          "type": "uint8"
        },
        {
          "internalType": "bytes32",
          "name": "r",
          "type": "bytes32"
        },
        {
          "internalType": "bytes32",
          "name": "s",
          "type": "bytes32"
        }
      ],
      "name": "permitToken",
      "outputs": [],
      "stateMutability": "nonpayable",
      "type": "function"
    }
  ],
  "bytecode": "0x608060405234801561001057600080fd5b5061071b806100206000396000f3fe6080604052600436106100295760003560e01c80637c516e941461002e578063d2423b5114610050575b600080fd5b34801561003a57600080fd5b5061004e6100493660046103f5565b61007a565b005b61006361005e366004610370565b61010c565b604051610071929190610561565b60405180910390f35b60405163d505accf60e01b81526001600160a01b0388811660048301528781166024830152604482018790526064820186905260ff8516608483015260a4820184905260c4820183905289169063d505accf9060e401600060405180830381600087803b1580156100ea57600080fd5b505af11580156100fe573d6000803e3d6000fd5b505050505050505050505050565b6060808367ffffffffffffffff81111561013657634e487b7160e01b600052604160045260246000fd5b60405190808252806020026020018201604052801561015f578160200160208202803683370190505b5091508367ffffffffffffffff81111561018957634e487b7160e01b600052604160045260246000fd5b6040519080825280602002602001820160405280156101bc57816020015b60608152602001906001900390816101a75790505b50905060005b8481101561030257600080308888858181106101ee57634e487b7160e01b600052603260045260246000fd5b90506020028101906102009190610614565b60405161020e929190610551565b600060405180830381855af49150503d8060008114610249576040519150601f19603f3d011682016040523d82523d6000602084013e61024e565b606091505b5091509150818061025d575085155b6102668261030b565b9061028d5760405162461bcd60e51b815260040161028491906105fa565b60405180910390fd5b50818584815181106102af57634e487b7160e01b600052603260045260246000fd5b602002602001019015159081151581525050808484815181106102e257634e487b7160e01b600052603260045260246000fd5b6020026020010181905250505080806102fa90610690565b9150506101c2565b50935093915050565b606060448251101561035057505060408051808201909152601d81527f5472616e73616374696f6e2072657665727465642073696c656e746c79000000602082015290565b6004820191508180602001905181019061036a919061047c565b92915050565b600080600060408486031215610384578283fd5b833567ffffffffffffffff8082111561039b578485fd5b818601915086601f8301126103ae578485fd5b8135818111156103bc578586fd5b8760208260051b85010111156103d0578586fd5b6020928301955093505084013580151581146103ea578182fd5b809150509250925092565b600080600080600080600080610100898b031215610411578384fd5b883561041c816106cd565b9750602089013561042c816106cd565b9650604089013561043c816106cd565b9550606089013594506080890135935060a089013560ff8116811461045f578384fd5b979a969950949793969295929450505060c08201359160e0013590565b60006020828403121561048d578081fd5b815167ffffffffffffffff808211156104a4578283fd5b818401915084601f8301126104b7578283fd5b8151818111156104c9576104c96106b7565b604051601f8201601f19908116603f011681019083821181831017156104f1576104f16106b7565b81604052828152876020848701011115610509578586fd5b61051a836020830160208801610660565b979650505050505050565b6000815180845261053d816020860160208601610660565b601f01601f19169290920160200192915050565b8183823760009101908152919050565b604080825283519082018190526000906020906060840190828701845b8281101561059c57815115158452928401929084019060010161057e565b50505083810382850152845180825282820190600581901b83018401878501865b838110156105eb57601f198684030185526105d9838351610525565b948701949250908601906001016105bd565b50909998505050505050505050565b60208152600061060d6020830184610525565b9392505050565b6000808335601e1984360301811261062a578283fd5b83018035915067ffffffffffffffff821115610644578283fd5b60200191503681900382131561065957600080fd5b9250929050565b60005b8381101561067b578181015183820152602001610663565b8381111561068a576000848401525b50505050565b60006000198214156106b057634e487b7160e01b81526011600452602481fd5b5060010190565b634e487b7160e01b600052604160045260246000fd5b6001600160a01b03811681146106e257600080fd5b5056fea2646970667358221220873f533f6cbcf4d96fdbb39e24ae7d6754c540fbdaba5644ac61437849b0764164736f6c63430008040033",
  "linkReferences": {},
  "deployedLinkReferences": {}
}