{
  "_format": "hh-sol-artifact-1",
  "contractName": "ERC721MinterAdapterWhitelist",
  "sourceName": "contracts/nft-marketplace/INO/whitelist-ino/ERC721MinterAdapterWhitelist.sol",
  "abi": [
    {
      "inputs": [
        {
          "internalType": "address",
          "name": "nft",
          "type": "address"
        }
      ],
      "stateMutability": "nonpayable",
      "type": "constructor"
    },
    {
      "anonymous": false,
      "inputs": [
        {
          "indexed": true,
          "internalType": "address",
          "name": "previousOwner",
          "type": "address"
        },
        {
          "indexed": true,
          "internalType": "address",
          "name": "newOwner",
          "type": "address"
        }
      ],
      "name": "OwnershipTransferred",
      "type": "event"
    },
    {
      "anonymous": false,
      "inputs": [
        {
          "indexed": false,
          "internalType": "address",
          "name": "addr",
          "type": "address"
        }
      ],
      "name": "WhitelistedAddressAdded",
      "type": "event"
    },
    {
      "anonymous": false,
      "inputs": [
        {
          "indexed": false,
          "internalType": "address",
          "name": "addr",
          "type": "address"
        }
      ],
      "name": "WhitelistedAddressRemoved",
      "type": "event"
    },
    {
      "inputs": [],
      "name": "MAX_NFT_SALES",
      "outputs": [
        {
          "internalType": "uint256",
          "name": "",
          "type": "uint256"
        }
      ],
      "stateMutability": "view",
      "type": "function"
    },
    {
      "inputs": [
        {
          "internalType": "address",
          "name": "addr",
          "type": "address"
        }
      ],
      "name": "addAddressToWhitelist",
      "outputs": [
        {
          "internalType": "bool",
          "name": "success",
          "type": "bool"
        }
      ],
      "stateMutability": "nonpayable",
      "type": "function"
    },
    {
      "inputs": [
        {
          "internalType": "address[]",
          "name": "addrs",
          "type": "address[]"
        }
      ],
      "name": "addAddressesToWhitelist",
      "outputs": [
        {
          "internalType": "bool",
          "name": "success",
          "type": "bool"
        }
      ],
      "stateMutability": "nonpayable",
      "type": "function"
    },
    {
      "inputs": [],
      "name": "erc721NFTContract",
      "outputs": [
        {
          "internalType": "contract IMinter",
          "name": "",
          "type": "address"
        }
      ],
      "stateMutability": "view",
      "type": "function"
    },
    {
      "inputs": [],
      "name": "inoContract",
      "outputs": [
        {
          "internalType": "address",
          "name": "",
          "type": "address"
        }
      ],
      "stateMutability": "view",
      "type": "function"
    },
    {
      "inputs": [],
      "name": "isMinter",
      "outputs": [
        {
          "internalType": "bool",
          "name": "",
          "type": "bool"
        }
      ],
      "stateMutability": "pure",
      "type": "function"
    },
    {
      "inputs": [],
      "name": "maxTicketForWhitelistedUser",
      "outputs": [
        {
          "internalType": "uint256",
          "name": "",
          "type": "uint256"
        }
      ],
      "stateMutability": "view",
      "type": "function"
    },
    {
      "inputs": [],
      "name": "maximumNFTSales",
      "outputs": [
        {
          "internalType": "uint256",
          "name": "",
          "type": "uint256"
        }
      ],
      "stateMutability": "view",
      "type": "function"
    },
    {
      "inputs": [
        {
          "internalType": "address",
          "name": "userAddr",
          "type": "address"
        }
      ],
      "name": "maximumTicketByUser",
      "outputs": [
        {
          "internalType": "uint256",
          "name": "",
          "type": "uint256"
        }
      ],
      "stateMutability": "view",
      "type": "function"
    },
    {
      "inputs": [
        {
          "internalType": "address",
          "name": "receiver",
          "type": "address"
        }
      ],
      "name": "mint",
      "outputs": [
        {
          "internalType": "uint256",
          "name": "",
          "type": "uint256"
        }
      ],
      "stateMutability": "nonpayable",
      "type": "function"
    },
    {
      "inputs": [],
      "name": "minted",
      "outputs": [
        {
          "internalType": "uint256",
          "name": "",
          "type": "uint256"
        }
      ],
      "stateMutability": "view",
      "type": "function"
    },
    {
      "inputs": [],
      "name": "owner",
      "outputs": [
        {
          "internalType": "address",
          "name": "",
          "type": "address"
        }
      ],
      "stateMutability": "view",
      "type": "function"
    },
    {
      "inputs": [
        {
          "internalType": "address",
          "name": "addr",
          "type": "address"
        }
      ],
      "name": "removeAddressFromWhitelist",
      "outputs": [
        {
          "internalType": "bool",
          "name": "success",
          "type": "bool"
        }
      ],
      "stateMutability": "nonpayable",
      "type": "function"
    },
    {
      "inputs": [
        {
          "internalType": "address[]",
          "name": "addrs",
          "type": "address[]"
        }
      ],
      "name": "removeAddressesFromWhitelist",
      "outputs": [
        {
          "internalType": "bool",
          "name": "success",
          "type": "bool"
        }
      ],
      "stateMutability": "nonpayable",
      "type": "function"
    },
    {
      "inputs": [],
      "name": "renounceOwnership",
      "outputs": [],
      "stateMutability": "nonpayable",
      "type": "function"
    },
    {
      "inputs": [
        {
          "internalType": "address",
          "name": "_ino",
          "type": "address"
        }
      ],
      "name": "setINOContract",
      "outputs": [],
      "stateMutability": "nonpayable",
      "type": "function"
    },
    {
      "inputs": [],
      "name": "totalAddress",
      "outputs": [
        {
          "internalType": "uint256",
          "name": "",
          "type": "uint256"
        }
      ],
      "stateMutability": "view",
      "type": "function"
    },
    {
      "inputs": [
        {
          "internalType": "address",
          "name": "newOwner",
          "type": "address"
        }
      ],
      "name": "transferOwnership",
      "outputs": [],
      "stateMutability": "nonpayable",
      "type": "function"
    },
    {
      "inputs": [
        {
          "internalType": "address",
          "name": "",
          "type": "address"
        }
      ],
      "name": "whitelist",
      "outputs": [
        {
          "internalType": "bool",
          "name": "",
          "type": "bool"
        }
      ],
      "stateMutability": "view",
      "type": "function"
    }
  ],
  "bytecode": "0x6080604052600260055534801561001557600080fd5b50604051610a91380380610a9183398101604081905261003491610101565b61003d336100b1565b6001600160a01b03811661008c5760405162461bcd60e51b81526020600482015260126024820152711859191c995cdcc81a5cc81a5b9d985b1a5960721b604482015260640160405180910390fd5b600480546001600160a01b0319166001600160a01b039290921691909117905561012f565b600080546001600160a01b038381166001600160a01b0319831681178455604051919092169283917f8be0079c531659141344cd1fd0a4f28419497f9722a3daafe3b4186f6b6457e09190a35050565b600060208284031215610112578081fd5b81516001600160a01b0381168114610128578182fd5b9392505050565b6109538061013e6000396000f3fe608060405234801561001057600080fd5b50600436106101215760003560e01c80637b9417c8116100ad578063be251c8e11610071578063be251c8e14610237578063bf6f85d51461024a578063c161d85c1461025d578063e2ec6ec314610266578063f2fde38b1461027957600080fd5b80637b9417c8146101ca5780637e45e942146101dd5780637fb25079146101e65780638da5cb5b146101ef5780639b19251a1461021457600080fd5b80634f02c420116100f45780634f02c4201461019757806350e59eb3146101a05780635bc94b4c146101a75780636a627842146101af578063715018a6146101c257600080fd5b806306ffcd141461012657806324953eaa1461013b578063286dd3f5146101635780632f5349f214610176575b600080fd5b6101396101343660046107bf565b61028c565b005b61014e6101493660046107e0565b610306565b60405190151581526020015b60405180910390f35b61014e6101713660046107bf565b61036e565b6101896101843660046107bf565b61040b565b60405190815260200161015a565b61018960065481565b600161014e565b6103e8610189565b6101896101bd3660046107bf565b61043b565b61013961057a565b61014e6101d83660046107bf565b61058e565b61018960025481565b61018960055481565b6000546001600160a01b03165b6040516001600160a01b03909116815260200161015a565b61014e6102223660046107bf565b60016020526000908152604090205460ff1681565b6003546101fc906001600160a01b031681565b6004546101fc906001600160a01b031681565b6101896103e881565b61014e6102743660046107e0565b610623565b6101396102873660046107bf565b610685565b6102946106fe565b6001600160a01b0381166102e45760405162461bcd60e51b81526020600482015260126024820152711859191c995cdcc81a5cc81a5b9d985b1a5960721b60448201526064015b60405180910390fd5b600380546001600160a01b0319166001600160a01b0392909216919091179055565b60006103106106fe565b60005b82518110156103685761034c83828151811061033f57634e487b7160e01b600052603260045260246000fd5b602002602001015161036e565b1561035657600191505b80610360816108d6565b915050610313565b50919050565b60006103786106fe565b6001600160a01b03821660009081526001602052604090205460ff1615610406576001600160a01b038216600081815260016020908152604091829020805460ff1916905590519182527ff1abf01a1043b7c244d128e8595cf0c1d10743b022b03a02dffd8ca3bf729f5a910160405180910390a150600280546001916000610400836108bf565b91905055505b919050565b6001600160a01b03811660009081526001602052604081205460ff1661043357506000919050565b505060055490565b6003546000906001600160a01b031633146104985760405162461bcd60e51b815260206004820152601960248201527f4f6e6c792063616c6c20627920696e6f20636f6e74726163740000000000000060448201526064016102db565b6103e8600654106104d75760405162461bcd60e51b81526020600482015260096024820152686d6178696d756d212160b81b60448201526064016102db565b600480546040516335313c2160e11b81526001600160a01b038581169382019390935260009290911690636a62784290602401602060405180830381600087803b15801561052457600080fd5b505af1158015610538573d6000803e3d6000fd5b505050506040513d601f19601f8201168201806040525081019061055c91906108a7565b60068054919250600061056e836108d6565b90915550909392505050565b6105826106fe565b61058c6000610758565b565b60006105986106fe565b6001600160a01b03821660009081526001602052604090205460ff16610406576001600160a01b038216600081815260016020818152604092839020805460ff191690921790915590519182527fd1bba68c128cc3f427e5831b3c6f99f480b6efa6b9e80c757768f6124158cc3f910160405180910390a150600280546001916000610400836108d6565b600061062d6106fe565b60005b82518110156103685761066983828151811061065c57634e487b7160e01b600052603260045260246000fd5b602002602001015161058e565b1561067357600191505b8061067d816108d6565b915050610630565b61068d6106fe565b6001600160a01b0381166106f25760405162461bcd60e51b815260206004820152602660248201527f4f776e61626c653a206e6577206f776e657220697320746865207a65726f206160448201526564647265737360d01b60648201526084016102db565b6106fb81610758565b50565b6000546001600160a01b0316331461058c5760405162461bcd60e51b815260206004820181905260248201527f4f776e61626c653a2063616c6c6572206973206e6f7420746865206f776e657260448201526064016102db565b600080546001600160a01b038381166001600160a01b0319831681178455604051919092169283917f8be0079c531659141344cd1fd0a4f28419497f9722a3daafe3b4186f6b6457e09190a35050565b80356001600160a01b038116811461040657600080fd5b6000602082840312156107d0578081fd5b6107d9826107a8565b9392505050565b600060208083850312156107f2578182fd5b823567ffffffffffffffff80821115610809578384fd5b818501915085601f83011261081c578384fd5b81358181111561082e5761082e610907565b8060051b604051601f19603f8301168101818110858211171561085357610853610907565b604052828152858101935084860182860187018a1015610871578788fd5b8795505b8386101561089a57610886816107a8565b855260019590950194938601938601610875565b5098975050505050505050565b6000602082840312156108b8578081fd5b5051919050565b6000816108ce576108ce6108f1565b506000190190565b60006000198214156108ea576108ea6108f1565b5060010190565b634e487b7160e01b600052601160045260246000fd5b634e487b7160e01b600052604160045260246000fdfea2646970667358221220aabe38a6a49d2b33aa5f3cda3518290cc1fd853309489554cb9dbc26e88587f064736f6c63430008040033",
  "linkReferences": {},
  "deployedLinkReferences": {}
}