{
  "_format": "hh-sol-artifact-1",
  "contractName": "ERC721INO",
  "sourceName": "contracts/nft-marketplace/INO/ERC721INO.sol",
  "abi": [
    {
      "inputs": [
        {
          "internalType": "address",
          "name": "_buyToken",
          "type": "address"
        },
        {
          "internalType": "address",
          "name": "_minter",
          "type": "address"
        },
        {
          "internalType": "uint256",
          "name": "_startTime",
          "type": "uint256"
        },
        {
          "internalType": "uint256",
          "name": "_endTime",
          "type": "uint256"
        }
      ],
      "stateMutability": "nonpayable",
      "type": "constructor"
    },
    {
      "anonymous": false,
      "inputs": [
        {
          "indexed": true,
          "internalType": "address",
          "name": "user",
          "type": "address"
        },
        {
          "indexed": false,
          "internalType": "uint8",
          "name": "_ticket",
          "type": "uint8"
        }
      ],
      "name": "Buy",
      "type": "event"
    },
    {
      "anonymous": false,
      "inputs": [
        {
          "indexed": true,
          "internalType": "address",
          "name": "user",
          "type": "address"
        }
      ],
      "name": "Claim",
      "type": "event"
    },
    {
      "anonymous": false,
      "inputs": [
        {
          "indexed": true,
          "internalType": "address",
          "name": "previousOwner",
          "type": "address"
        },
        {
          "indexed": true,
          "internalType": "address",
          "name": "newOwner",
          "type": "address"
        }
      ],
      "name": "OwnershipTransferred",
      "type": "event"
    },
    {
      "anonymous": false,
      "inputs": [
        {
          "indexed": false,
          "internalType": "address",
          "name": "account",
          "type": "address"
        }
      ],
      "name": "Paused",
      "type": "event"
    },
    {
      "anonymous": false,
      "inputs": [
        {
          "indexed": false,
          "internalType": "address",
          "name": "account",
          "type": "address"
        }
      ],
      "name": "Unpaused",
      "type": "event"
    },
    {
      "inputs": [],
      "name": "NFT_PRICE",
      "outputs": [
        {
          "internalType": "uint256",
          "name": "",
          "type": "uint256"
        }
      ],
      "stateMutability": "view",
      "type": "function"
    },
    {
      "inputs": [
        {
          "internalType": "uint8",
          "name": "_ticket",
          "type": "uint8"
        }
      ],
      "name": "buy",
      "outputs": [],
      "stateMutability": "payable",
      "type": "function"
    },
    {
      "inputs": [],
      "name": "buyToken",
      "outputs": [
        {
          "internalType": "address",
          "name": "",
          "type": "address"
        }
      ],
      "stateMutability": "view",
      "type": "function"
    },
    {
      "inputs": [],
      "name": "claim",
      "outputs": [],
      "stateMutability": "nonpayable",
      "type": "function"
    },
    {
      "inputs": [
        {
          "internalType": "address",
          "name": "token",
          "type": "address"
        },
        {
          "internalType": "address payable",
          "name": "to",
          "type": "address"
        }
      ],
      "name": "emergencyWithdraw",
      "outputs": [],
      "stateMutability": "nonpayable",
      "type": "function"
    },
    {
      "inputs": [],
      "name": "endTime",
      "outputs": [
        {
          "internalType": "uint256",
          "name": "",
          "type": "uint256"
        }
      ],
      "stateMutability": "view",
      "type": "function"
    },
    {
      "inputs": [
        {
          "internalType": "address",
          "name": "_destination",
          "type": "address"
        }
      ],
      "name": "finalWithdraw",
      "outputs": [],
      "stateMutability": "nonpayable",
      "type": "function"
    },
    {
      "inputs": [
        {
          "internalType": "uint256",
          "name": "_tier",
          "type": "uint256"
        }
      ],
      "name": "getAllocationByTier",
      "outputs": [
        {
          "internalType": "uint256",
          "name": "",
          "type": "uint256"
        }
      ],
      "stateMutability": "view",
      "type": "function"
    },
    {
      "inputs": [
        {
          "internalType": "address",
          "name": "userAddr",
          "type": "address"
        }
      ],
      "name": "getMaximumTicketByUser",
      "outputs": [
        {
          "internalType": "uint256",
          "name": "",
          "type": "uint256"
        }
      ],
      "stateMutability": "view",
      "type": "function"
    },
    {
      "inputs": [],
      "name": "getMaximumTicketSales",
      "outputs": [
        {
          "internalType": "uint256",
          "name": "",
          "type": "uint256"
        }
      ],
      "stateMutability": "view",
      "type": "function"
    },
    {
      "inputs": [],
      "name": "getSnapshotFrom",
      "outputs": [
        {
          "internalType": "uint256",
          "name": "",
          "type": "uint256"
        }
      ],
      "stateMutability": "view",
      "type": "function"
    },
    {
      "inputs": [],
      "name": "getSnapshotTo",
      "outputs": [
        {
          "internalType": "uint256",
          "name": "",
          "type": "uint256"
        }
      ],
      "stateMutability": "view",
      "type": "function"
    },
    {
      "inputs": [],
      "name": "minterAdapter",
      "outputs": [
        {
          "internalType": "address",
          "name": "",
          "type": "address"
        }
      ],
      "stateMutability": "view",
      "type": "function"
    },
    {
      "inputs": [],
      "name": "owner",
      "outputs": [
        {
          "internalType": "address",
          "name": "",
          "type": "address"
        }
      ],
      "stateMutability": "view",
      "type": "function"
    },
    {
      "inputs": [],
      "name": "pause",
      "outputs": [],
      "stateMutability": "nonpayable",
      "type": "function"
    },
    {
      "inputs": [],
      "name": "paused",
      "outputs": [
        {
          "internalType": "bool",
          "name": "",
          "type": "bool"
        }
      ],
      "stateMutability": "view",
      "type": "function"
    },
    {
      "inputs": [],
      "name": "renounceOwnership",
      "outputs": [],
      "stateMutability": "nonpayable",
      "type": "function"
    },
    {
      "inputs": [
        {
          "internalType": "uint256",
          "name": "newEndTime",
          "type": "uint256"
        }
      ],
      "name": "setEndTime",
      "outputs": [],
      "stateMutability": "nonpayable",
      "type": "function"
    },
    {
      "inputs": [
        {
          "internalType": "address",
          "name": "_newMinter",
          "type": "address"
        }
      ],
      "name": "setMinter",
      "outputs": [],
      "stateMutability": "nonpayable",
      "type": "function"
    },
    {
      "inputs": [
        {
          "internalType": "uint256",
          "name": "newStartTime",
          "type": "uint256"
        }
      ],
      "name": "setStartTime",
      "outputs": [],
      "stateMutability": "nonpayable",
      "type": "function"
    },
    {
      "inputs": [],
      "name": "startTime",
      "outputs": [
        {
          "internalType": "uint256",
          "name": "",
          "type": "uint256"
        }
      ],
      "stateMutability": "view",
      "type": "function"
    },
    {
      "inputs": [],
      "name": "totalTicket",
      "outputs": [
        {
          "internalType": "uint256",
          "name": "",
          "type": "uint256"
        }
      ],
      "stateMutability": "view",
      "type": "function"
    },
    {
      "inputs": [],
      "name": "totalUsedTicket",
      "outputs": [
        {
          "internalType": "uint256",
          "name": "",
          "type": "uint256"
        }
      ],
      "stateMutability": "view",
      "type": "function"
    },
    {
      "inputs": [],
      "name": "totalUsers",
      "outputs": [
        {
          "internalType": "uint256",
          "name": "",
          "type": "uint256"
        }
      ],
      "stateMutability": "view",
      "type": "function"
    },
    {
      "inputs": [
        {
          "internalType": "address",
          "name": "newOwner",
          "type": "address"
        }
      ],
      "name": "transferOwnership",
      "outputs": [],
      "stateMutability": "nonpayable",
      "type": "function"
    },
    {
      "inputs": [],
      "name": "unpause",
      "outputs": [],
      "stateMutability": "nonpayable",
      "type": "function"
    },
    {
      "inputs": [
        {
          "internalType": "address",
          "name": "",
          "type": "address"
        }
      ],
      "name": "users",
      "outputs": [
        {
          "internalType": "uint8",
          "name": "ticket",
          "type": "uint8"
        },
        {
          "internalType": "uint8",
          "name": "usedTicket",
          "type": "uint8"
        }
      ],
      "stateMutability": "view",
      "type": "function"
    }
  ],
  "bytecode": "0x60806040523480156200001157600080fd5b506040516200196438038062001964833981016040819052620000349162000206565b6200003f3362000199565b6000805460ff60a01b191690556001805581811180156200005f57504282115b620000a35760405162461bcd60e51b815260206004820152600f60248201526e151a5b59481a5cc81a5b9d985b1a59608a1b60448201526064015b60405180910390fd5b826001600160a01b03166350e59eb36040518163ffffffff1660e01b815260040160206040518083038186803b158015620000dd57600080fd5b505afa158015620000f2573d6000803e3d6000fd5b505050506040513d601f19601f820116820180604052508101906200011891906200024d565b6200015a5760405162461bcd60e51b81526020600482015260116024820152701b5a5b9d195c881a5cc81a5b9d985b1a59607a1b60448201526064016200009a565b600380546001600160a01b039586166001600160a01b031991821617909155600280549490951693169290921790925560089190915560095562000276565b600080546001600160a01b038381166001600160a01b0319831681178455604051919092169283917f8be0079c531659141344cd1fd0a4f28419497f9722a3daafe3b4186f6b6457e09190a35050565b80516001600160a01b03811681146200020157600080fd5b919050565b600080600080608085870312156200021c578384fd5b6200022785620001e9565b93506200023760208601620001e9565b6040860151606090960151949790965092505050565b6000602082840312156200025f578081fd5b815180151581146200026f578182fd5b9392505050565b6116de80620002866000396000f3fe60806040526004361061019c5760003560e01c8063803e647d116100ec578063ac3ff9121161008a578063ccb98ffc11610064578063ccb98ffc14610464578063f2fde38b14610484578063fbeffb98146104a4578063fca3b5aa146104b957600080fd5b8063ac3ff91214610418578063b8a2833614610438578063bff1f9e11461044e57600080fd5b80638da5cb5b116100c65780638da5cb5b146103675780639e282d8314610385578063a4821719146103a5578063a87430ba146103c557600080fd5b8063803e647d146103275780638456cb591461033d5780638d8e38ec1461035257600080fd5b80635c975abb116101595780637018f293116101335780637018f293146102af578063715018a6146102e757806378e97925146102fc5780637f4d09431461031257600080fd5b80635c975abb146102495780636382d9ad14610273578063676dd5631461029357600080fd5b806314107f3c146101a15780633197cbb6146101b65780633518a88f146101df5780633e0a322d146101ff5780633f4ba83a1461021f5780634e71d92d14610234575b600080fd5b6101b46101af366004611516565b6104d9565b005b3480156101c257600080fd5b506101cc60095481565b6040519081526020015b60405180910390f35b3480156101eb57600080fd5b506101cc6101fa366004611472565b61088e565b34801561020b57600080fd5b506101b461021a3660046114e6565b610913565b34801561022b57600080fd5b506101b4610992565b34801561024057600080fd5b506101b46109c6565b34801561025557600080fd5b50600054600160a01b900460ff1660405190151581526020016101d6565b34801561027f57600080fd5b506101b461028e36600461148e565b610c6d565b34801561029f57600080fd5b506101cc674563918244f4000081565b3480156102bb57600080fd5b506002546102cf906001600160a01b031681565b6040516001600160a01b0390911681526020016101d6565b3480156102f357600080fd5b506101b4610ddf565b34801561030857600080fd5b506101cc60085481565b34801561031e57600080fd5b506101cc610e13565b34801561033357600080fd5b506101cc60075481565b34801561034957600080fd5b506101b4610e95565b34801561035e57600080fd5b506101cc610ec7565b34801561037357600080fd5b506000546001600160a01b03166102cf565b34801561039157600080fd5b506101cc6103a03660046114e6565b610f0c565b3480156103b157600080fd5b506003546102cf906001600160a01b031681565b3480156103d157600080fd5b506103fe6103e0366004611472565b60046020526000908152604090205460ff8082169161010090041682565b6040805160ff9384168152929091166020830152016101d6565b34801561042457600080fd5b506101b4610433366004611472565b610f3e565b34801561044457600080fd5b506101cc60065481565b34801561045a57600080fd5b506101cc60055481565b34801561047057600080fd5b506101b461047f3660046114e6565b610fe1565b34801561049057600080fd5b506101b461049f366004611472565b611067565b3480156104b057600080fd5b506101cc611102565b3480156104c557600080fd5b506101b46104d4366004611472565b611147565b600054600160a01b900460ff161561050c5760405162461bcd60e51b815260040161050390611570565b60405180910390fd5b6002600154141561055f5760405162461bcd60e51b815260206004820152601f60248201527f5265656e7472616e637947756172643a207265656e7472616e742063616c6c006044820152606401610503565b60026001558060ff81166105c15760405162461bcd60e51b815260206004820152602360248201527f74686520616d6f756e74206861766520746f20626967676572207468616e207a60448201526265726f60e81b6064820152608401610503565b60085442101580156105d557506009544211155b6106175760405162461bcd60e51b8152602060048201526013602482015272109d5e481d1a5b59481a5cc81a5b9d985b1a59606a1b6044820152606401610503565b6106203361088e565b3360009081526004602052604090205461063e90839060ff166115e7565b60ff16111580156106665750610652610ec7565b8160ff1660065461066391906115cf565b11155b6106b25760405162461bcd60e51b815260206004820152601860248201527f5469636b6574206e756d62657220697320696e76616c696400000000000000006044820152606401610503565b60006106c9674563918244f4000060ff8516611244565b6003549091506001600160a01b031661073f578034101561071f5760405162461bcd60e51b815260206004820152601060248201526f0ecc2d8eaca40dcdee840cadcdeeaced60831b6044820152606401610503565b8034111561073a5761073a33610735833461162b565b611257565b6107cb565b6003546040516323b872dd60e01b8152336004820152306024820152604481018390526001600160a01b03909116906323b872dd90606401602060405180830381600087803b15801561079157600080fd5b505af11580156107a5573d6000803e3d6000fd5b505050506040513d601f19601f820116820180604052508101906107c991906114c6565b505b3360009081526004602052604090205460ff166107f857600580549060006107f283611642565b91905055505b336000908152600460205260408120805485929061081a90849060ff166115e7565b92506101000a81548160ff021916908360ff1602179055508260ff166006600082825461084791906115cf565b90915550506040805160ff85168152905133917f7c755a1366d3677c32d564a33709398b567d818a6b1da906ea316fd984b3073f919081900360200190a250506001805550565b6002546040516317a9a4f960e11b81526001600160a01b0383811660048301526000921690632f5349f2906024015b60206040518083038186803b1580156108d557600080fd5b505afa1580156108e9573d6000803e3d6000fd5b505050506040513d601f19601f8201168201806040525081019061090d91906114fe565b92915050565b6000546001600160a01b0316331461093d5760405162461bcd60e51b81526004016105039061159a565b428111801561094d575060095481105b61098d5760405162461bcd60e51b815260206004820152601160248201527054696d6520697320696e76616c6964212160781b6044820152606401610503565b600855565b6000546001600160a01b031633146109bc5760405162461bcd60e51b81526004016105039061159a565b6109c4611320565b565b600054600160a01b900460ff16156109f05760405162461bcd60e51b815260040161050390611570565b60026001541415610a435760405162461bcd60e51b815260206004820152601f60248201527f5265656e7472616e637947756172643a207265656e7472616e742063616c6c006044820152606401610503565b60026001553360009081526004602052604090205460ff1615801590610a8157503360009081526004602052604090205460ff610100820481169116115b610abe5760405162461bcd60e51b815260206004820152600e60248201526d139bdd081a185cc81d1a58dad95d60921b6044820152606401610503565b600954421015610b095760405162461bcd60e51b8152602060048201526016602482015275151a5b59481a185cc81b9bdd08195b991959081e595d60521b6044820152606401610503565b6002546000906001600160a01b0316636a627842336040516001600160e01b031960e084901b1681526001600160a01b039091166004820152602401602060405180830381600087803b158015610b5f57600080fd5b505af1158015610b73573d6000803e3d6000fd5b505050506040513d601f19601f82011682018060405250810190610b9791906114c6565b905080610bd45760405162461bcd60e51b815260206004820152600b60248201526a1b5a5b9d0819985b1a595960aa1b6044820152606401610503565b3360009081526004602052604090208054610100900460ff16906001610bf98361165d565b91906101000a81548160ff021916908360ff1602179055505060076000815480929190610c2590611642565b9190505550610c313390565b6001600160a01b03167f0c7ef932d3b91976772937f18d5ef9b39a9930bef486b576c374f047c4b512dc60405160405180910390a25060018055565b6000546001600160a01b03163314610c975760405162461bcd60e51b81526004016105039061159a565b6001600160a01b038216610cdf576040516001600160a01b038216904780156108fc02916000818181858888f19350505050158015610cda573d6000803e3d6000fd5b505050565b6040516370a0823160e01b81523060048201526001600160a01b0383169063a9059cbb90839083906370a082319060240160206040518083038186803b158015610d2857600080fd5b505afa158015610d3c573d6000803e3d6000fd5b505050506040513d601f19601f82011682018060405250810190610d6091906114fe565b6040516001600160e01b031960e085901b1681526001600160a01b03909216600483015260248201526044015b602060405180830381600087803b158015610da757600080fd5b505af1158015610dbb573d6000803e3d6000fd5b505050506040513d601f19601f82011682018060405250810190610cda91906114c6565b6000546001600160a01b03163314610e095760405162461bcd60e51b81526004016105039061159a565b6109c460006113bd565b60025460408051637f4d094360e01b815290516000926001600160a01b031691637f4d0943916004808301926020929190829003018186803b158015610e5857600080fd5b505afa158015610e6c573d6000803e3d6000fd5b505050506040513d601f19601f82011682018060405250810190610e9091906114fe565b905090565b6000546001600160a01b03163314610ebf5760405162461bcd60e51b81526004016105039061159a565b6109c461140d565b600254604080516316f252d360e21b815290516000926001600160a01b031691635bc94b4c916004808301926020929190829003018186803b158015610e5857600080fd5b600254604051639e282d8360e01b8152600481018390526000916001600160a01b031690639e282d83906024016108bd565b6000546001600160a01b03163314610f685760405162461bcd60e51b81526004016105039061159a565b6000610f87600654674563918244f4000061124490919063ffffffff16565b6003549091506001600160a01b0316610fa857610fa48282611257565b5050565b60035460405163a9059cbb60e01b81526001600160a01b038481166004830152602482018490529091169063a9059cbb90604401610d8d565b6000546001600160a01b0316331461100b5760405162461bcd60e51b81526004016105039061159a565b428111801561101b575060085481115b801561094d5750426009541161098d5760405162461bcd60e51b815260206004820152601160248201527054696d6520697320696e76616c6964212160781b6044820152606401610503565b6000546001600160a01b031633146110915760405162461bcd60e51b81526004016105039061159a565b6001600160a01b0381166110f65760405162461bcd60e51b815260206004820152602660248201527f4f776e61626c653a206e6577206f776e657220697320746865207a65726f206160448201526564647265737360d01b6064820152608401610503565b6110ff816113bd565b50565b60025460408051631f7dff7360e31b815290516000926001600160a01b03169163fbeffb98916004808301926020929190829003018186803b158015610e5857600080fd5b6000546001600160a01b031633146111715760405162461bcd60e51b81526004016105039061159a565b806001600160a01b03166350e59eb36040518163ffffffff1660e01b815260040160206040518083038186803b1580156111aa57600080fd5b505afa1580156111be573d6000803e3d6000fd5b505050506040513d601f19601f820116820180604052508101906111e291906114c6565b6112225760405162461bcd60e51b81526020600482015260116024820152701b5a5b9d195c881a5cc81a5b9d985b1a59607a1b6044820152606401610503565b600280546001600160a01b0319166001600160a01b0392909216919091179055565b6000611250828461160c565b9392505050565b604080516000808252602082019092526001600160a01b0384169083906040516112819190611537565b60006040518083038185875af1925050503d80600081146112be576040519150601f19603f3d011682016040523d82523d6000602084013e6112c3565b606091505b5050905080610cda5760405162461bcd60e51b815260206004820152602360248201527f5472616e7366657248656c7065723a204b41495f5452414e534645525f46414960448201526213115160ea1b6064820152608401610503565b600054600160a01b900460ff166113705760405162461bcd60e51b815260206004820152601460248201527314185d5cd8589b194e881b9bdd081c185d5cd95960621b6044820152606401610503565b6000805460ff60a01b191690557f5db9ee0a495bf2e6ff9c91a7834c1ba4fdd244a5e8aa4e537bd38aeae4b073aa335b6040516001600160a01b03909116815260200160405180910390a1565b600080546001600160a01b038381166001600160a01b0319831681178455604051919092169283917f8be0079c531659141344cd1fd0a4f28419497f9722a3daafe3b4186f6b6457e09190a35050565b600054600160a01b900460ff16156114375760405162461bcd60e51b815260040161050390611570565b6000805460ff60a01b1916600160a01b1790557f62e78cea01bee320cd4e420270b5ea74000d11b0c9f74754ebdbfc544b05a2586113a03390565b600060208284031215611483578081fd5b813561125081611693565b600080604083850312156114a0578081fd5b82356114ab81611693565b915060208301356114bb81611693565b809150509250929050565b6000602082840312156114d7578081fd5b81518015158114611250578182fd5b6000602082840312156114f7578081fd5b5035919050565b60006020828403121561150f578081fd5b5051919050565b600060208284031215611527578081fd5b813560ff81168114611250578182fd5b60008251815b81811015611557576020818601810151858301520161153d565b818111156115655782828501525b509190910192915050565b60208082526010908201526f14185d5cd8589b194e881c185d5cd95960821b604082015260600190565b6020808252818101527f4f776e61626c653a2063616c6c6572206973206e6f7420746865206f776e6572604082015260600190565b600082198211156115e2576115e261167d565b500190565b600060ff821660ff84168060ff038211156116045761160461167d565b019392505050565b60008160001904831182151516156116265761162661167d565b500290565b60008282101561163d5761163d61167d565b500390565b60006000198214156116565761165661167d565b5060010190565b600060ff821660ff8114156116745761167461167d565b60010192915050565b634e487b7160e01b600052601160045260246000fd5b6001600160a01b03811681146110ff57600080fdfea264697066735822122098518b51bebccd395959d1145e4d46f0182c4e6184c0df55b9097c922cc5a71e64736f6c63430008040033",
  "linkReferences": {},
  "deployedLinkReferences": {}
}