{
  "_format": "hh-sol-artifact-1",
  "contractName": "ERC721INO",
  "sourceName": "contracts/nft-marketplace/INO/ERC721INO.sol",
  "abi": [
    {
      "inputs": [
        {
          "internalType": "address",
          "name": "_buyToken",
          "type": "address"
        },
        {
          "internalType": "address",
          "name": "_minter",
          "type": "address"
        },
        {
          "internalType": "uint256",
          "name": "_startTime",
          "type": "uint256"
        },
        {
          "internalType": "uint256",
          "name": "_endTime",
          "type": "uint256"
        }
      ],
      "stateMutability": "nonpayable",
      "type": "constructor"
    },
    {
      "anonymous": false,
      "inputs": [
        {
          "indexed": true,
          "internalType": "address",
          "name": "user",
          "type": "address"
        },
        {
          "indexed": false,
          "internalType": "uint8",
          "name": "_ticket",
          "type": "uint8"
        }
      ],
      "name": "Buy",
      "type": "event"
    },
    {
      "anonymous": false,
      "inputs": [
        {
          "indexed": true,
          "internalType": "address",
          "name": "user",
          "type": "address"
        },
        {
          "indexed": false,
          "internalType": "uint256[]",
          "name": "tokenId",
          "type": "uint256[]"
        }
      ],
      "name": "Claim",
      "type": "event"
    },
    {
      "anonymous": false,
      "inputs": [
        {
          "indexed": true,
          "internalType": "address",
          "name": "previousOwner",
          "type": "address"
        },
        {
          "indexed": true,
          "internalType": "address",
          "name": "newOwner",
          "type": "address"
        }
      ],
      "name": "OwnershipTransferred",
      "type": "event"
    },
    {
      "anonymous": false,
      "inputs": [
        {
          "indexed": false,
          "internalType": "address",
          "name": "account",
          "type": "address"
        }
      ],
      "name": "Paused",
      "type": "event"
    },
    {
      "anonymous": false,
      "inputs": [
        {
          "indexed": false,
          "internalType": "address",
          "name": "account",
          "type": "address"
        }
      ],
      "name": "Unpaused",
      "type": "event"
    },
    {
      "inputs": [],
      "name": "NFT_PRICE",
      "outputs": [
        {
          "internalType": "uint256",
          "name": "",
          "type": "uint256"
        }
      ],
      "stateMutability": "view",
      "type": "function"
    },
    {
      "inputs": [
        {
          "internalType": "uint8",
          "name": "_ticket",
          "type": "uint8"
        }
      ],
      "name": "buy",
      "outputs": [],
      "stateMutability": "payable",
      "type": "function"
    },
    {
      "inputs": [],
      "name": "buyToken",
      "outputs": [
        {
          "internalType": "address",
          "name": "",
          "type": "address"
        }
      ],
      "stateMutability": "view",
      "type": "function"
    },
    {
      "inputs": [
        {
          "internalType": "uint256",
          "name": "_ticket",
          "type": "uint256"
        }
      ],
      "name": "claims",
      "outputs": [],
      "stateMutability": "nonpayable",
      "type": "function"
    },
    {
      "inputs": [
        {
          "internalType": "address",
          "name": "token",
          "type": "address"
        },
        {
          "internalType": "address payable",
          "name": "to",
          "type": "address"
        }
      ],
      "name": "emergencyWithdraw",
      "outputs": [],
      "stateMutability": "nonpayable",
      "type": "function"
    },
    {
      "inputs": [],
      "name": "endTime",
      "outputs": [
        {
          "internalType": "uint256",
          "name": "",
          "type": "uint256"
        }
      ],
      "stateMutability": "view",
      "type": "function"
    },
    {
      "inputs": [
        {
          "internalType": "address",
          "name": "_destination",
          "type": "address"
        }
      ],
      "name": "finalWithdraw",
      "outputs": [],
      "stateMutability": "nonpayable",
      "type": "function"
    },
    {
      "inputs": [
        {
          "internalType": "uint256",
          "name": "_tier",
          "type": "uint256"
        }
      ],
      "name": "getAllocationByTier",
      "outputs": [
        {
          "internalType": "uint256",
          "name": "",
          "type": "uint256"
        }
      ],
      "stateMutability": "view",
      "type": "function"
    },
    {
      "inputs": [
        {
          "internalType": "uint256",
          "name": "_tier",
          "type": "uint256"
        }
      ],
      "name": "getBuySchedulesBuyTier",
      "outputs": [
        {
          "internalType": "uint256",
          "name": "",
          "type": "uint256"
        }
      ],
      "stateMutability": "view",
      "type": "function"
    },
    {
      "inputs": [
        {
          "internalType": "address",
          "name": "userAddr",
          "type": "address"
        }
      ],
      "name": "getMaximumTicketByUser",
      "outputs": [
        {
          "internalType": "uint256",
          "name": "",
          "type": "uint256"
        }
      ],
      "stateMutability": "view",
      "type": "function"
    },
    {
      "inputs": [],
      "name": "getMaximumTicketSales",
      "outputs": [
        {
          "internalType": "uint256",
          "name": "",
          "type": "uint256"
        }
      ],
      "stateMutability": "view",
      "type": "function"
    },
    {
      "inputs": [],
      "name": "getSnapshotFrom",
      "outputs": [
        {
          "internalType": "uint256",
          "name": "",
          "type": "uint256"
        }
      ],
      "stateMutability": "view",
      "type": "function"
    },
    {
      "inputs": [],
      "name": "getSnapshotTo",
      "outputs": [
        {
          "internalType": "uint256",
          "name": "",
          "type": "uint256"
        }
      ],
      "stateMutability": "view",
      "type": "function"
    },
    {
      "inputs": [
        {
          "internalType": "address",
          "name": "userAddr",
          "type": "address"
        }
      ],
      "name": "getTier",
      "outputs": [
        {
          "internalType": "uint256",
          "name": "",
          "type": "uint256"
        }
      ],
      "stateMutability": "view",
      "type": "function"
    },
    {
      "inputs": [],
      "name": "minterAdapter",
      "outputs": [
        {
          "internalType": "address",
          "name": "",
          "type": "address"
        }
      ],
      "stateMutability": "view",
      "type": "function"
    },
    {
      "inputs": [],
      "name": "owner",
      "outputs": [
        {
          "internalType": "address",
          "name": "",
          "type": "address"
        }
      ],
      "stateMutability": "view",
      "type": "function"
    },
    {
      "inputs": [],
      "name": "pause",
      "outputs": [],
      "stateMutability": "nonpayable",
      "type": "function"
    },
    {
      "inputs": [],
      "name": "paused",
      "outputs": [
        {
          "internalType": "bool",
          "name": "",
          "type": "bool"
        }
      ],
      "stateMutability": "view",
      "type": "function"
    },
    {
      "inputs": [],
      "name": "renounceOwnership",
      "outputs": [],
      "stateMutability": "nonpayable",
      "type": "function"
    },
    {
      "inputs": [
        {
          "internalType": "uint256",
          "name": "newEndTime",
          "type": "uint256"
        }
      ],
      "name": "setEndTime",
      "outputs": [],
      "stateMutability": "nonpayable",
      "type": "function"
    },
    {
      "inputs": [
        {
          "internalType": "address",
          "name": "_newMinter",
          "type": "address"
        }
      ],
      "name": "setMinter",
      "outputs": [],
      "stateMutability": "nonpayable",
      "type": "function"
    },
    {
      "inputs": [
        {
          "internalType": "uint256",
          "name": "newStartTime",
          "type": "uint256"
        }
      ],
      "name": "setStartTime",
      "outputs": [],
      "stateMutability": "nonpayable",
      "type": "function"
    },
    {
      "inputs": [],
      "name": "startTime",
      "outputs": [
        {
          "internalType": "uint256",
          "name": "",
          "type": "uint256"
        }
      ],
      "stateMutability": "view",
      "type": "function"
    },
    {
      "inputs": [],
      "name": "totalTicket",
      "outputs": [
        {
          "internalType": "uint256",
          "name": "",
          "type": "uint256"
        }
      ],
      "stateMutability": "view",
      "type": "function"
    },
    {
      "inputs": [],
      "name": "totalUsedTicket",
      "outputs": [
        {
          "internalType": "uint256",
          "name": "",
          "type": "uint256"
        }
      ],
      "stateMutability": "view",
      "type": "function"
    },
    {
      "inputs": [],
      "name": "totalUsers",
      "outputs": [
        {
          "internalType": "uint256",
          "name": "",
          "type": "uint256"
        }
      ],
      "stateMutability": "view",
      "type": "function"
    },
    {
      "inputs": [
        {
          "internalType": "address",
          "name": "newOwner",
          "type": "address"
        }
      ],
      "name": "transferOwnership",
      "outputs": [],
      "stateMutability": "nonpayable",
      "type": "function"
    },
    {
      "inputs": [],
      "name": "unpause",
      "outputs": [],
      "stateMutability": "nonpayable",
      "type": "function"
    },
    {
      "inputs": [
        {
          "internalType": "address",
          "name": "",
          "type": "address"
        }
      ],
      "name": "users",
      "outputs": [
        {
          "internalType": "uint8",
          "name": "ticket",
          "type": "uint8"
        },
        {
          "internalType": "uint8",
          "name": "usedTicket",
          "type": "uint8"
        }
      ],
      "stateMutability": "view",
      "type": "function"
    }
  ],
  "bytecode": "0x60806040523480156200001157600080fd5b5060405162001af738038062001af7833981016040819052620000349162000206565b6200003f3362000199565b6000805460ff60a01b191690556001805581811180156200005f57504282115b620000a35760405162461bcd60e51b815260206004820152600f60248201526e151a5b59481a5cc81a5b9d985b1a59608a1b60448201526064015b60405180910390fd5b826001600160a01b03166350e59eb36040518163ffffffff1660e01b815260040160206040518083038186803b158015620000dd57600080fd5b505afa158015620000f2573d6000803e3d6000fd5b505050506040513d601f19601f820116820180604052508101906200011891906200024d565b6200015a5760405162461bcd60e51b81526020600482015260116024820152701b5a5b9d195c881a5cc81a5b9d985b1a59607a1b60448201526064016200009a565b600380546001600160a01b039586166001600160a01b031991821617909155600280549490951693169290921790925560089190915560095562000276565b600080546001600160a01b038381166001600160a01b0319831681178455604051919092169283917f8be0079c531659141344cd1fd0a4f28419497f9722a3daafe3b4186f6b6457e09190a35050565b80516001600160a01b03811681146200020157600080fd5b919050565b600080600080608085870312156200021c578384fd5b6200022785620001e9565b93506200023760208601620001e9565b6040860151606090960151949790965092505050565b6000602082840312156200025f578081fd5b815180151581146200026f578182fd5b9392505050565b61187180620002866000396000f3fe6080604052600436106101c25760003560e01c80638d8e38ec116100f7578063ac3ff91211610095578063ccb98ffc11610064578063ccb98ffc146104d5578063f2fde38b146104f5578063fbeffb9814610515578063fca3b5aa1461052a57600080fd5b8063ac3ff91214610469578063b45aae5214610489578063b8a28336146104a9578063bff1f9e1146104bf57600080fd5b8063a4821719116100d1578063a4821719146103b6578063a87430ba146103d6578063a888c2cd14610429578063a9a85f2d1461044957600080fd5b80638d8e38ec146103635780638da5cb5b146103785780639e282d831461039657600080fd5b8063676dd5631161016457806378e979251161013e57806378e979251461030d5780637f4d094314610323578063803e647d146103385780638456cb591461034e57600080fd5b8063676dd563146102a45780637018f293146102c0578063715018a6146102f857600080fd5b80633e0a322d116101a05780633e0a322d146102255780633f4ba83a146102455780635c975abb1461025a5780636382d9ad1461028457600080fd5b806314107f3c146101c75780633197cbb6146101dc5780633518a88f14610205575b600080fd5b6101da6101d53660046116a1565b61054a565b005b3480156101e857600080fd5b506101f260095481565b6040519081526020015b60405180910390f35b34801561021157600080fd5b506101f26102203660046115fd565b6109a2565b34801561023157600080fd5b506101da610240366004611671565b610a27565b34801561025157600080fd5b506101da610a84565b34801561026657600080fd5b50600054600160a01b900460ff1660405190151581526020016101fc565b34801561029057600080fd5b506101da61029f366004611619565b610a96565b3480156102b057600080fd5b506101f2674563918244f4000081565b3480156102cc57600080fd5b506002546102e0906001600160a01b031681565b6040516001600160a01b0390911681526020016101fc565b34801561030457600080fd5b506101da610be6565b34801561031957600080fd5b506101f260085481565b34801561032f57600080fd5b506101f2610bf8565b34801561034457600080fd5b506101f260075481565b34801561035a57600080fd5b506101da610c7a565b34801561036f57600080fd5b506101f2610c8a565b34801561038457600080fd5b506000546001600160a01b03166102e0565b3480156103a257600080fd5b506101f26103b1366004611671565b610ccf565b3480156103c257600080fd5b506003546102e0906001600160a01b031681565b3480156103e257600080fd5b5061040f6103f13660046115fd565b60046020526000908152604090205460ff8082169161010090041682565b6040805160ff9384168152929091166020830152016101fc565b34801561043557600080fd5b506101da610444366004611671565b610d01565b34801561045557600080fd5b506101f2610464366004611671565b611059565b34801561047557600080fd5b506101da6104843660046115fd565b61108b565b34801561049557600080fd5b506101f26104a43660046115fd565b61110c565b3480156104b557600080fd5b506101f260065481565b3480156104cb57600080fd5b506101f260055481565b3480156104e157600080fd5b506101da6104f0366004611671565b61113f565b34801561050157600080fd5b506101da6105103660046115fd565b6111a9565b34801561052157600080fd5b506101f2611222565b34801561053657600080fd5b506101da6105453660046115fd565b611267565b610552611342565b600260015414156105aa5760405162461bcd60e51b815260206004820152601f60248201527f5265656e7472616e637947756172643a207265656e7472616e742063616c6c0060448201526064015b60405180910390fd5b60026001558060ff811661060c5760405162461bcd60e51b815260206004820152602360248201527f74686520616d6f756e74206861766520746f20626967676572207468616e207a60448201526265726f60e81b60648201526084016105a1565b600854421015801561062057506009544211155b6106625760405162461bcd60e51b8152602060048201526013602482015272109d5e481d1a5b59481a5cc81a5b9d985b1a59606a1b60448201526064016105a1565b6002546001600160a01b031663b9c1109d336040516001600160e01b031960e084901b1681526001600160a01b03909116600482015260240160206040518083038186803b1580156106b357600080fd5b505afa1580156106c7573d6000803e3d6000fd5b505050506040513d601f19601f820116820180604052508101906106eb9190611651565b61072b5760405162461bcd60e51b815260206004820152601160248201527054696d6520686173206e6f7420636f6d6560781b60448201526064016105a1565b610734336109a2565b3360009081526004602052604090205461075290839060ff16611757565b60ff161115801561077a5750610766610c8a565b8160ff16600654610777919061173f565b11155b6107c65760405162461bcd60e51b815260206004820152601860248201527f5469636b6574206e756d62657220697320696e76616c6964000000000000000060448201526064016105a1565b60006107dd674563918244f4000060ff851661138f565b6003549091506001600160a01b031661085357803410156108335760405162461bcd60e51b815260206004820152601060248201526f0ecc2d8eaca40dcdee840cadcdeeaced60831b60448201526064016105a1565b8034111561084e5761084e33610849833461179b565b6113a2565b6108df565b6003546040516323b872dd60e01b8152336004820152306024820152604481018390526001600160a01b03909116906323b872dd90606401602060405180830381600087803b1580156108a557600080fd5b505af11580156108b9573d6000803e3d6000fd5b505050506040513d601f19601f820116820180604052508101906108dd9190611651565b505b3360009081526004602052604090205460ff1661090c5760058054906000610906836117d5565b91905055505b336000908152600460205260408120805485929061092e90849060ff16611757565b92506101000a81548160ff021916908360ff1602179055508260ff166006600082825461095b919061173f565b909155505060405160ff8416815233907f7c755a1366d3677c32d564a33709398b567d818a6b1da906ea316fd984b3073f906020015b60405180910390a250506001805550565b6002546040516317a9a4f960e11b81526001600160a01b0383811660048301526000921690632f5349f2906024015b60206040518083038186803b1580156109e957600080fd5b505afa1580156109fd573d6000803e3d6000fd5b505050506040513d601f19601f82011682018060405250810190610a219190611689565b92915050565b610a2f61146b565b4281118015610a3f575060095481105b610a7f5760405162461bcd60e51b815260206004820152601160248201527054696d6520697320696e76616c6964212160781b60448201526064016105a1565b600855565b610a8c61146b565b610a946114c5565b565b610a9e61146b565b6001600160a01b038216610ae6576040516001600160a01b038216904780156108fc02916000818181858888f19350505050158015610ae1573d6000803e3d6000fd5b505050565b6040516370a0823160e01b81523060048201526001600160a01b0383169063a9059cbb90839083906370a082319060240160206040518083038186803b158015610b2f57600080fd5b505afa158015610b43573d6000803e3d6000fd5b505050506040513d601f19601f82011682018060405250810190610b679190611689565b6040516001600160e01b031960e085901b1681526001600160a01b03909216600483015260248201526044015b602060405180830381600087803b158015610bae57600080fd5b505af1158015610bc2573d6000803e3d6000fd5b505050506040513d601f19601f82011682018060405250810190610ae19190611651565b610bee61146b565b610a94600061151a565b60025460408051637f4d094360e01b815290516000926001600160a01b031691637f4d0943916004808301926020929190829003018186803b158015610c3d57600080fd5b505afa158015610c51573d6000803e3d6000fd5b505050506040513d601f19601f82011682018060405250810190610c759190611689565b905090565b610c8261146b565b610a9461156a565b600254604080516316f252d360e21b815290516000926001600160a01b031691635bc94b4c916004808301926020929190829003018186803b158015610c3d57600080fd5b600254604051639e282d8360e01b8152600481018390526000916001600160a01b031690639e282d83906024016109d1565b610d09611342565b60026001541415610d5c5760405162461bcd60e51b815260206004820152601f60248201527f5265656e7472616e637947756172643a207265656e7472616e742063616c6c0060448201526064016105a1565b60026001553360009081526004602052604090205460ff1615801590610d9a57503360009081526004602052604090205460ff610100820481169116115b610dd75760405162461bcd60e51b815260206004820152600e60248201526d139bdd081a185cc81d1a58dad95d60921b60448201526064016105a1565b600954421015610e225760405162461bcd60e51b8152602060048201526016602482015275151a5b59481a185cc81b9bdd08195b991959081e595d60521b60448201526064016105a1565b33600090815260046020526040812054610e469060ff6101008204811691166117b2565b60ff16905080821115610e57578091505b60008267ffffffffffffffff811115610e8057634e487b7160e01b600052604160045260246000fd5b604051908082528060200260200182016040528015610ea9578160200160208202803683370190505b50905082156110205760005b8381101561101e576002546000906001600160a01b0316636a627842336040516001600160e01b031960e084901b1681526001600160a01b039091166004820152602401602060405180830381600087803b158015610f1357600080fd5b505af1158015610f27573d6000803e3d6000fd5b505050506040513d601f19601f82011682018060405250810190610f4b9190611689565b905060008111610f8b5760405162461bcd60e51b815260206004820152600b60248201526a1b5a5b9d0819985b1a595960aa1b60448201526064016105a1565b3360009081526004602052604090208054610100900460ff16906001610fb0836117f0565b91906101000a81548160ff021916908360ff1602179055505060076000815480929190610fdc906117d5565b91905055508083838151811061100257634e487b7160e01b600052603260045260246000fd5b602090810291909101015250611017816117d5565b9050610eb5565b505b336001600160a01b03167f62e5026cd9fe3da2857a32843590ee91bb903ce20cfd623f97b7f1ba9f2cb6d88260405161099191906116fb565b60025460405163a9a85f2d60e01b8152600481018390526000916001600160a01b03169063a9a85f2d906024016109d1565b61109361146b565b60006110b2600654674563918244f4000061138f90919063ffffffff16565b6003549091506001600160a01b03166110d3576110cf82826113a2565b5050565b60035460405163a9059cbb60e01b81526001600160a01b038481166004830152602482018490529091169063a9059cbb90604401610b94565b600254604051635a2d572960e11b81526001600160a01b038381166004830152600092169063b45aae52906024016109d1565b61114761146b565b4281118015611157575060085481115b8015611164575042600954115b6111a45760405162461bcd60e51b815260206004820152601160248201527054696d6520697320696e76616c6964212160781b60448201526064016105a1565b600955565b6111b161146b565b6001600160a01b0381166112165760405162461bcd60e51b815260206004820152602660248201527f4f776e61626c653a206e6577206f776e657220697320746865207a65726f206160448201526564647265737360d01b60648201526084016105a1565b61121f8161151a565b50565b60025460408051631f7dff7360e31b815290516000926001600160a01b03169163fbeffb98916004808301926020929190829003018186803b158015610c3d57600080fd5b61126f61146b565b806001600160a01b03166350e59eb36040518163ffffffff1660e01b815260040160206040518083038186803b1580156112a857600080fd5b505afa1580156112bc573d6000803e3d6000fd5b505050506040513d601f19601f820116820180604052508101906112e09190611651565b6113205760405162461bcd60e51b81526020600482015260116024820152701b5a5b9d195c881a5cc81a5b9d985b1a59607a1b60448201526064016105a1565b600280546001600160a01b0319166001600160a01b0392909216919091179055565b600054600160a01b900460ff1615610a945760405162461bcd60e51b815260206004820152601060248201526f14185d5cd8589b194e881c185d5cd95960821b60448201526064016105a1565b600061139b828461177c565b9392505050565b604080516000808252602082019092526001600160a01b0384169083906040516113cc91906116c2565b60006040518083038185875af1925050503d8060008114611409576040519150601f19603f3d011682016040523d82523d6000602084013e61140e565b606091505b5050905080610ae15760405162461bcd60e51b815260206004820152602360248201527f5472616e7366657248656c7065723a204b41495f5452414e534645525f46414960448201526213115160ea1b60648201526084016105a1565b6000546001600160a01b03163314610a945760405162461bcd60e51b815260206004820181905260248201527f4f776e61626c653a2063616c6c6572206973206e6f7420746865206f776e657260448201526064016105a1565b6114cd6115ad565b6000805460ff60a01b191690557f5db9ee0a495bf2e6ff9c91a7834c1ba4fdd244a5e8aa4e537bd38aeae4b073aa335b6040516001600160a01b03909116815260200160405180910390a1565b600080546001600160a01b038381166001600160a01b0319831681178455604051919092169283917f8be0079c531659141344cd1fd0a4f28419497f9722a3daafe3b4186f6b6457e09190a35050565b611572611342565b6000805460ff60a01b1916600160a01b1790557f62e78cea01bee320cd4e420270b5ea74000d11b0c9f74754ebdbfc544b05a2586114fd3390565b600054600160a01b900460ff16610a945760405162461bcd60e51b815260206004820152601460248201527314185d5cd8589b194e881b9bdd081c185d5cd95960621b60448201526064016105a1565b60006020828403121561160e578081fd5b813561139b81611826565b6000806040838503121561162b578081fd5b823561163681611826565b9150602083013561164681611826565b809150509250929050565b600060208284031215611662578081fd5b8151801515811461139b578182fd5b600060208284031215611682578081fd5b5035919050565b60006020828403121561169a578081fd5b5051919050565b6000602082840312156116b2578081fd5b813560ff8116811461139b578182fd5b60008251815b818110156116e257602081860181015185830152016116c8565b818111156116f05782828501525b509190910192915050565b6020808252825182820181905260009190848201906040850190845b8181101561173357835183529284019291840191600101611717565b50909695505050505050565b6000821982111561175257611752611810565b500190565b600060ff821660ff84168060ff0382111561177457611774611810565b019392505050565b600081600019048311821515161561179657611796611810565b500290565b6000828210156117ad576117ad611810565b500390565b600060ff821660ff8416808210156117cc576117cc611810565b90039392505050565b60006000198214156117e9576117e9611810565b5060010190565b600060ff821660ff81141561180757611807611810565b60010192915050565b634e487b7160e01b600052601160045260246000fd5b6001600160a01b038116811461121f57600080fdfea264697066735822122017396833a2509256cb846d5454d280c39c759050ef05d56a4622d1482721581a64736f6c63430008040033",
  "linkReferences": {},
  "deployedLinkReferences": {}
}