{
  "_format": "hh-sol-artifact-1",
  "contractName": "ERC721INO",
  "sourceName": "contracts/nft-marketplace/INO/ERC721INO.sol",
  "abi": [
    {
      "inputs": [
        {
          "internalType": "address",
          "name": "_buyToken",
          "type": "address"
        },
        {
          "internalType": "address",
          "name": "_minter",
          "type": "address"
        },
        {
          "internalType": "uint256",
          "name": "_startTime",
          "type": "uint256"
        },
        {
          "internalType": "uint256",
          "name": "_endTime",
          "type": "uint256"
        }
      ],
      "stateMutability": "nonpayable",
      "type": "constructor"
    },
    {
      "anonymous": false,
      "inputs": [
        {
          "indexed": true,
          "internalType": "address",
          "name": "user",
          "type": "address"
        },
        {
          "indexed": false,
          "internalType": "uint8",
          "name": "_ticket",
          "type": "uint8"
        }
      ],
      "name": "Buy",
      "type": "event"
    },
    {
      "anonymous": false,
      "inputs": [
        {
          "indexed": true,
          "internalType": "address",
          "name": "user",
          "type": "address"
        },
        {
          "indexed": false,
          "internalType": "uint256",
          "name": "tokenId",
          "type": "uint256"
        }
      ],
      "name": "Claim",
      "type": "event"
    },
    {
      "anonymous": false,
      "inputs": [
        {
          "indexed": true,
          "internalType": "address",
          "name": "previousOwner",
          "type": "address"
        },
        {
          "indexed": true,
          "internalType": "address",
          "name": "newOwner",
          "type": "address"
        }
      ],
      "name": "OwnershipTransferred",
      "type": "event"
    },
    {
      "anonymous": false,
      "inputs": [
        {
          "indexed": false,
          "internalType": "address",
          "name": "account",
          "type": "address"
        }
      ],
      "name": "Paused",
      "type": "event"
    },
    {
      "anonymous": false,
      "inputs": [
        {
          "indexed": false,
          "internalType": "address",
          "name": "account",
          "type": "address"
        }
      ],
      "name": "Unpaused",
      "type": "event"
    },
    {
      "inputs": [],
      "name": "NFT_PRICE",
      "outputs": [
        {
          "internalType": "uint256",
          "name": "",
          "type": "uint256"
        }
      ],
      "stateMutability": "view",
      "type": "function"
    },
    {
      "inputs": [
        {
          "internalType": "uint8",
          "name": "_ticket",
          "type": "uint8"
        }
      ],
      "name": "buy",
      "outputs": [],
      "stateMutability": "payable",
      "type": "function"
    },
    {
      "inputs": [],
      "name": "buyToken",
      "outputs": [
        {
          "internalType": "address",
          "name": "",
          "type": "address"
        }
      ],
      "stateMutability": "view",
      "type": "function"
    },
    {
      "inputs": [],
      "name": "claim",
      "outputs": [],
      "stateMutability": "nonpayable",
      "type": "function"
    },
    {
      "inputs": [
        {
          "internalType": "address",
          "name": "token",
          "type": "address"
        },
        {
          "internalType": "address payable",
          "name": "to",
          "type": "address"
        }
      ],
      "name": "emergencyWithdraw",
      "outputs": [],
      "stateMutability": "nonpayable",
      "type": "function"
    },
    {
      "inputs": [],
      "name": "endTime",
      "outputs": [
        {
          "internalType": "uint256",
          "name": "",
          "type": "uint256"
        }
      ],
      "stateMutability": "view",
      "type": "function"
    },
    {
      "inputs": [
        {
          "internalType": "address",
          "name": "_destination",
          "type": "address"
        }
      ],
      "name": "finalWithdraw",
      "outputs": [],
      "stateMutability": "nonpayable",
      "type": "function"
    },
    {
      "inputs": [
        {
          "internalType": "uint256",
          "name": "_tier",
          "type": "uint256"
        }
      ],
      "name": "getAllocationByTier",
      "outputs": [
        {
          "internalType": "uint256",
          "name": "",
          "type": "uint256"
        }
      ],
      "stateMutability": "view",
      "type": "function"
    },
    {
      "inputs": [
        {
          "internalType": "uint256",
          "name": "_tier",
          "type": "uint256"
        }
      ],
      "name": "getBuySchedulesBuyTier",
      "outputs": [
        {
          "internalType": "uint256",
          "name": "",
          "type": "uint256"
        }
      ],
      "stateMutability": "view",
      "type": "function"
    },
    {
      "inputs": [
        {
          "internalType": "address",
          "name": "userAddr",
          "type": "address"
        }
      ],
      "name": "getMaximumTicketByUser",
      "outputs": [
        {
          "internalType": "uint256",
          "name": "",
          "type": "uint256"
        }
      ],
      "stateMutability": "view",
      "type": "function"
    },
    {
      "inputs": [],
      "name": "getMaximumTicketSales",
      "outputs": [
        {
          "internalType": "uint256",
          "name": "",
          "type": "uint256"
        }
      ],
      "stateMutability": "view",
      "type": "function"
    },
    {
      "inputs": [],
      "name": "getSnapshotFrom",
      "outputs": [
        {
          "internalType": "uint256",
          "name": "",
          "type": "uint256"
        }
      ],
      "stateMutability": "view",
      "type": "function"
    },
    {
      "inputs": [],
      "name": "getSnapshotTo",
      "outputs": [
        {
          "internalType": "uint256",
          "name": "",
          "type": "uint256"
        }
      ],
      "stateMutability": "view",
      "type": "function"
    },
    {
      "inputs": [],
      "name": "minterAdapter",
      "outputs": [
        {
          "internalType": "address",
          "name": "",
          "type": "address"
        }
      ],
      "stateMutability": "view",
      "type": "function"
    },
    {
      "inputs": [],
      "name": "owner",
      "outputs": [
        {
          "internalType": "address",
          "name": "",
          "type": "address"
        }
      ],
      "stateMutability": "view",
      "type": "function"
    },
    {
      "inputs": [],
      "name": "pause",
      "outputs": [],
      "stateMutability": "nonpayable",
      "type": "function"
    },
    {
      "inputs": [],
      "name": "paused",
      "outputs": [
        {
          "internalType": "bool",
          "name": "",
          "type": "bool"
        }
      ],
      "stateMutability": "view",
      "type": "function"
    },
    {
      "inputs": [],
      "name": "renounceOwnership",
      "outputs": [],
      "stateMutability": "nonpayable",
      "type": "function"
    },
    {
      "inputs": [
        {
          "internalType": "uint256",
          "name": "newEndTime",
          "type": "uint256"
        }
      ],
      "name": "setEndTime",
      "outputs": [],
      "stateMutability": "nonpayable",
      "type": "function"
    },
    {
      "inputs": [
        {
          "internalType": "address",
          "name": "_newMinter",
          "type": "address"
        }
      ],
      "name": "setMinter",
      "outputs": [],
      "stateMutability": "nonpayable",
      "type": "function"
    },
    {
      "inputs": [
        {
          "internalType": "uint256",
          "name": "newStartTime",
          "type": "uint256"
        }
      ],
      "name": "setStartTime",
      "outputs": [],
      "stateMutability": "nonpayable",
      "type": "function"
    },
    {
      "inputs": [],
      "name": "startTime",
      "outputs": [
        {
          "internalType": "uint256",
          "name": "",
          "type": "uint256"
        }
      ],
      "stateMutability": "view",
      "type": "function"
    },
    {
      "inputs": [],
      "name": "totalTicket",
      "outputs": [
        {
          "internalType": "uint256",
          "name": "",
          "type": "uint256"
        }
      ],
      "stateMutability": "view",
      "type": "function"
    },
    {
      "inputs": [],
      "name": "totalUsedTicket",
      "outputs": [
        {
          "internalType": "uint256",
          "name": "",
          "type": "uint256"
        }
      ],
      "stateMutability": "view",
      "type": "function"
    },
    {
      "inputs": [],
      "name": "totalUsers",
      "outputs": [
        {
          "internalType": "uint256",
          "name": "",
          "type": "uint256"
        }
      ],
      "stateMutability": "view",
      "type": "function"
    },
    {
      "inputs": [
        {
          "internalType": "address",
          "name": "newOwner",
          "type": "address"
        }
      ],
      "name": "transferOwnership",
      "outputs": [],
      "stateMutability": "nonpayable",
      "type": "function"
    },
    {
      "inputs": [],
      "name": "unpause",
      "outputs": [],
      "stateMutability": "nonpayable",
      "type": "function"
    },
    {
      "inputs": [
        {
          "internalType": "address",
          "name": "",
          "type": "address"
        }
      ],
      "name": "users",
      "outputs": [
        {
          "internalType": "uint8",
          "name": "ticket",
          "type": "uint8"
        },
        {
          "internalType": "uint8",
          "name": "usedTicket",
          "type": "uint8"
        }
      ],
      "stateMutability": "view",
      "type": "function"
    }
  ],
  "bytecode": "0x60806040523480156200001157600080fd5b506040516200196338038062001963833981016040819052620000349162000206565b6200003f3362000199565b6000805460ff60a01b191690556001805581811180156200005f57504282115b620000a35760405162461bcd60e51b815260206004820152600f60248201526e151a5b59481a5cc81a5b9d985b1a59608a1b60448201526064015b60405180910390fd5b826001600160a01b03166350e59eb36040518163ffffffff1660e01b815260040160206040518083038186803b158015620000dd57600080fd5b505afa158015620000f2573d6000803e3d6000fd5b505050506040513d601f19601f820116820180604052508101906200011891906200024d565b6200015a5760405162461bcd60e51b81526020600482015260116024820152701b5a5b9d195c881a5cc81a5b9d985b1a59607a1b60448201526064016200009a565b600380546001600160a01b039586166001600160a01b031991821617909155600280549490951693169290921790925560089190915560095562000276565b600080546001600160a01b038381166001600160a01b0319831681178455604051919092169283917f8be0079c531659141344cd1fd0a4f28419497f9722a3daafe3b4186f6b6457e09190a35050565b80516001600160a01b03811681146200020157600080fd5b919050565b600080600080608085870312156200021c578384fd5b6200022785620001e9565b93506200023760208601620001e9565b6040860151606090960151949790965092505050565b6000602082840312156200025f578081fd5b815180151581146200026f578182fd5b9392505050565b6116dd80620002866000396000f3fe6080604052600436106101b75760003560e01c80638456cb59116100ec578063ac3ff9121161008a578063ccb98ffc11610064578063ccb98ffc1461049f578063f2fde38b146104bf578063fbeffb98146104df578063fca3b5aa146104f457600080fd5b8063ac3ff91214610453578063b8a2833614610473578063bff1f9e11461048957600080fd5b80639e282d83116100c65780639e282d83146103a0578063a4821719146103c0578063a87430ba146103e0578063a9a85f2d1461043357600080fd5b80638456cb59146103585780638d8e38ec1461036d5780638da5cb5b1461038257600080fd5b80636382d9ad11610159578063715018a611610133578063715018a61461030257806378e97925146103175780637f4d09431461032d578063803e647d1461034257600080fd5b80636382d9ad1461028e578063676dd563146102ae5780637018f293146102ca57600080fd5b80633e0a322d116101955780633e0a322d1461021a5780633f4ba83a1461023a5780634e71d92d1461024f5780635c975abb1461026457600080fd5b806314107f3c146101bc5780633197cbb6146101d15780633518a88f146101fa575b600080fd5b6101cf6101ca366004611574565b610514565b005b3480156101dd57600080fd5b506101e760095481565b6040519081526020015b60405180910390f35b34801561020657600080fd5b506101e76102153660046114d0565b61096b565b34801561022657600080fd5b506101cf610235366004611544565b6109f0565b34801561024657600080fd5b506101cf610a4d565b34801561025b57600080fd5b506101cf610a5f565b34801561027057600080fd5b50600054600160a01b900460ff1660405190151581526020016101f1565b34801561029a57600080fd5b506101cf6102a93660046114ec565b610cf4565b3480156102ba57600080fd5b506101e7674563918244f4000081565b3480156102d657600080fd5b506002546102ea906001600160a01b031681565b6040516001600160a01b0390911681526020016101f1565b34801561030e57600080fd5b506101cf610e44565b34801561032357600080fd5b506101e760085481565b34801561033957600080fd5b506101e7610e56565b34801561034e57600080fd5b506101e760075481565b34801561036457600080fd5b506101cf610ed8565b34801561037957600080fd5b506101e7610ee8565b34801561038e57600080fd5b506000546001600160a01b03166102ea565b3480156103ac57600080fd5b506101e76103bb366004611544565b610f2d565b3480156103cc57600080fd5b506003546102ea906001600160a01b031681565b3480156103ec57600080fd5b506104196103fb3660046114d0565b60046020526000908152604090205460ff8082169161010090041682565b6040805160ff9384168152929091166020830152016101f1565b34801561043f57600080fd5b506101e761044e366004611544565b610f5f565b34801561045f57600080fd5b506101cf61046e3660046114d0565b610f91565b34801561047f57600080fd5b506101e760065481565b34801561049557600080fd5b506101e760055481565b3480156104ab57600080fd5b506101cf6104ba366004611544565b611012565b3480156104cb57600080fd5b506101cf6104da3660046114d0565b61107c565b3480156104eb57600080fd5b506101e76110f5565b34801561050057600080fd5b506101cf61050f3660046114d0565b61113a565b61051c611215565b600260015414156105745760405162461bcd60e51b815260206004820152601f60248201527f5265656e7472616e637947756172643a207265656e7472616e742063616c6c0060448201526064015b60405180910390fd5b60026001558060ff81166105d65760405162461bcd60e51b815260206004820152602360248201527f74686520616d6f756e74206861766520746f20626967676572207468616e207a60448201526265726f60e81b606482015260840161056b565b60085442101580156105ea57506009544211155b61062c5760405162461bcd60e51b8152602060048201526013602482015272109d5e481d1a5b59481a5cc81a5b9d985b1a59606a1b604482015260640161056b565b6002546001600160a01b031663b9c1109d336040516001600160e01b031960e084901b1681526001600160a01b03909116600482015260240160206040518083038186803b15801561067d57600080fd5b505afa158015610691573d6000803e3d6000fd5b505050506040513d601f19601f820116820180604052508101906106b59190611524565b6106f45760405162461bcd60e51b815260206004820152601060248201526f54696d20686173206e6f7420636f6d6560801b604482015260640161056b565b6106fd3361096b565b3360009081526004602052604090205461071b90839060ff166115e6565b60ff1611158015610743575061072f610ee8565b8160ff1660065461074091906115ce565b11155b61078f5760405162461bcd60e51b815260206004820152601860248201527f5469636b6574206e756d62657220697320696e76616c69640000000000000000604482015260640161056b565b60006107a6674563918244f4000060ff8516611262565b6003549091506001600160a01b031661081c57803410156107fc5760405162461bcd60e51b815260206004820152601060248201526f0ecc2d8eaca40dcdee840cadcdeeaced60831b604482015260640161056b565b803411156108175761081733610812833461162a565b611275565b6108a8565b6003546040516323b872dd60e01b8152336004820152306024820152604481018390526001600160a01b03909116906323b872dd90606401602060405180830381600087803b15801561086e57600080fd5b505af1158015610882573d6000803e3d6000fd5b505050506040513d601f19601f820116820180604052508101906108a69190611524565b505b3360009081526004602052604090205460ff166108d557600580549060006108cf83611641565b91905055505b33600090815260046020526040812080548592906108f790849060ff166115e6565b92506101000a81548160ff021916908360ff1602179055508260ff166006600082825461092491906115ce565b90915550506040805160ff85168152905133917f7c755a1366d3677c32d564a33709398b567d818a6b1da906ea316fd984b3073f919081900360200190a250506001805550565b6002546040516317a9a4f960e11b81526001600160a01b0383811660048301526000921690632f5349f2906024015b60206040518083038186803b1580156109b257600080fd5b505afa1580156109c6573d6000803e3d6000fd5b505050506040513d601f19601f820116820180604052508101906109ea919061155c565b92915050565b6109f861133e565b4281118015610a08575060095481105b610a485760405162461bcd60e51b815260206004820152601160248201527054696d6520697320696e76616c6964212160781b604482015260640161056b565b600855565b610a5561133e565b610a5d611398565b565b610a67611215565b60026001541415610aba5760405162461bcd60e51b815260206004820152601f60248201527f5265656e7472616e637947756172643a207265656e7472616e742063616c6c00604482015260640161056b565b60026001553360009081526004602052604090205460ff1615801590610af857503360009081526004602052604090205460ff610100820481169116115b610b355760405162461bcd60e51b815260206004820152600e60248201526d139bdd081a185cc81d1a58dad95d60921b604482015260640161056b565b600954421015610b805760405162461bcd60e51b8152602060048201526016602482015275151a5b59481a185cc81b9bdd08195b991959081e595d60521b604482015260640161056b565b6002546000906001600160a01b0316636a627842336040516001600160e01b031960e084901b1681526001600160a01b039091166004820152602401602060405180830381600087803b158015610bd657600080fd5b505af1158015610bea573d6000803e3d6000fd5b505050506040513d601f19601f82011682018060405250810190610c0e919061155c565b905060008111610c4e5760405162461bcd60e51b815260206004820152600b60248201526a1b5a5b9d0819985b1a595960aa1b604482015260640161056b565b3360009081526004602052604090208054610100900460ff16906001610c738361165c565b91906101000a81548160ff021916908360ff1602179055505060076000815480929190610c9f90611641565b9190505550610cab3390565b6001600160a01b03167f47cee97cb7acd717b3c0aa1435d004cd5b3c8c57d70dbceb4e4458bbd60e39d482604051610ce591815260200190565b60405180910390a25060018055565b610cfc61133e565b6001600160a01b038216610d44576040516001600160a01b038216904780156108fc02916000818181858888f19350505050158015610d3f573d6000803e3d6000fd5b505050565b6040516370a0823160e01b81523060048201526001600160a01b0383169063a9059cbb90839083906370a082319060240160206040518083038186803b158015610d8d57600080fd5b505afa158015610da1573d6000803e3d6000fd5b505050506040513d601f19601f82011682018060405250810190610dc5919061155c565b6040516001600160e01b031960e085901b1681526001600160a01b03909216600483015260248201526044015b602060405180830381600087803b158015610e0c57600080fd5b505af1158015610e20573d6000803e3d6000fd5b505050506040513d601f19601f82011682018060405250810190610d3f9190611524565b610e4c61133e565b610a5d60006113ed565b60025460408051637f4d094360e01b815290516000926001600160a01b031691637f4d0943916004808301926020929190829003018186803b158015610e9b57600080fd5b505afa158015610eaf573d6000803e3d6000fd5b505050506040513d601f19601f82011682018060405250810190610ed3919061155c565b905090565b610ee061133e565b610a5d61143d565b600254604080516316f252d360e21b815290516000926001600160a01b031691635bc94b4c916004808301926020929190829003018186803b158015610e9b57600080fd5b600254604051639e282d8360e01b8152600481018390526000916001600160a01b031690639e282d839060240161099a565b60025460405163a9a85f2d60e01b8152600481018390526000916001600160a01b03169063a9a85f2d9060240161099a565b610f9961133e565b6000610fb8600654674563918244f4000061126290919063ffffffff16565b6003549091506001600160a01b0316610fd957610fd58282611275565b5050565b60035460405163a9059cbb60e01b81526001600160a01b038481166004830152602482018490529091169063a9059cbb90604401610df2565b61101a61133e565b428111801561102a575060085481115b8015611037575042600954115b6110775760405162461bcd60e51b815260206004820152601160248201527054696d6520697320696e76616c6964212160781b604482015260640161056b565b600955565b61108461133e565b6001600160a01b0381166110e95760405162461bcd60e51b815260206004820152602660248201527f4f776e61626c653a206e6577206f776e657220697320746865207a65726f206160448201526564647265737360d01b606482015260840161056b565b6110f2816113ed565b50565b60025460408051631f7dff7360e31b815290516000926001600160a01b03169163fbeffb98916004808301926020929190829003018186803b158015610e9b57600080fd5b61114261133e565b806001600160a01b03166350e59eb36040518163ffffffff1660e01b815260040160206040518083038186803b15801561117b57600080fd5b505afa15801561118f573d6000803e3d6000fd5b505050506040513d601f19601f820116820180604052508101906111b39190611524565b6111f35760405162461bcd60e51b81526020600482015260116024820152701b5a5b9d195c881a5cc81a5b9d985b1a59607a1b604482015260640161056b565b600280546001600160a01b0319166001600160a01b0392909216919091179055565b600054600160a01b900460ff1615610a5d5760405162461bcd60e51b815260206004820152601060248201526f14185d5cd8589b194e881c185d5cd95960821b604482015260640161056b565b600061126e828461160b565b9392505050565b604080516000808252602082019092526001600160a01b03841690839060405161129f9190611595565b60006040518083038185875af1925050503d80600081146112dc576040519150601f19603f3d011682016040523d82523d6000602084013e6112e1565b606091505b5050905080610d3f5760405162461bcd60e51b815260206004820152602360248201527f5472616e7366657248656c7065723a204b41495f5452414e534645525f46414960448201526213115160ea1b606482015260840161056b565b6000546001600160a01b03163314610a5d5760405162461bcd60e51b815260206004820181905260248201527f4f776e61626c653a2063616c6c6572206973206e6f7420746865206f776e6572604482015260640161056b565b6113a0611480565b6000805460ff60a01b191690557f5db9ee0a495bf2e6ff9c91a7834c1ba4fdd244a5e8aa4e537bd38aeae4b073aa335b6040516001600160a01b03909116815260200160405180910390a1565b600080546001600160a01b038381166001600160a01b0319831681178455604051919092169283917f8be0079c531659141344cd1fd0a4f28419497f9722a3daafe3b4186f6b6457e09190a35050565b611445611215565b6000805460ff60a01b1916600160a01b1790557f62e78cea01bee320cd4e420270b5ea74000d11b0c9f74754ebdbfc544b05a2586113d03390565b600054600160a01b900460ff16610a5d5760405162461bcd60e51b815260206004820152601460248201527314185d5cd8589b194e881b9bdd081c185d5cd95960621b604482015260640161056b565b6000602082840312156114e1578081fd5b813561126e81611692565b600080604083850312156114fe578081fd5b823561150981611692565b9150602083013561151981611692565b809150509250929050565b600060208284031215611535578081fd5b8151801515811461126e578182fd5b600060208284031215611555578081fd5b5035919050565b60006020828403121561156d578081fd5b5051919050565b600060208284031215611585578081fd5b813560ff8116811461126e578182fd5b60008251815b818110156115b5576020818601810151858301520161159b565b818111156115c35782828501525b509190910192915050565b600082198211156115e1576115e161167c565b500190565b600060ff821660ff84168060ff038211156116035761160361167c565b019392505050565b60008160001904831182151516156116255761162561167c565b500290565b60008282101561163c5761163c61167c565b500390565b60006000198214156116555761165561167c565b5060010190565b600060ff821660ff8114156116735761167361167c565b60010192915050565b634e487b7160e01b600052601160045260246000fd5b6001600160a01b03811681146110f257600080fdfea2646970667358221220387376ef3ace4cc7b77e27873c6b9571e1d3e31457027ba925c115ffe43e8d1e64736f6c63430008040033",
  "linkReferences": {},
  "deployedLinkReferences": {}
}