{
  "_format": "hh-sol-artifact-1",
  "contractName": "ERC721INO",
  "sourceName": "contracts/nft-marketplace/INO/ERC721INO.sol",
  "abi": [
    {
      "inputs": [
        {
          "internalType": "address",
          "name": "_buyToken",
          "type": "address"
        },
        {
          "internalType": "address",
          "name": "_minter",
          "type": "address"
        },
        {
          "internalType": "uint256",
          "name": "_startTime",
          "type": "uint256"
        },
        {
          "internalType": "uint256",
          "name": "_endTime",
          "type": "uint256"
        }
      ],
      "stateMutability": "nonpayable",
      "type": "constructor"
    },
    {
      "anonymous": false,
      "inputs": [
        {
          "indexed": true,
          "internalType": "address",
          "name": "user",
          "type": "address"
        },
        {
          "indexed": false,
          "internalType": "uint8",
          "name": "_ticket",
          "type": "uint8"
        }
      ],
      "name": "Buy",
      "type": "event"
    },
    {
      "anonymous": false,
      "inputs": [
        {
          "indexed": true,
          "internalType": "address",
          "name": "user",
          "type": "address"
        },
        {
          "indexed": false,
          "internalType": "uint256",
          "name": "tokenId",
          "type": "uint256"
        }
      ],
      "name": "Claim",
      "type": "event"
    },
    {
      "anonymous": false,
      "inputs": [
        {
          "indexed": true,
          "internalType": "address",
          "name": "previousOwner",
          "type": "address"
        },
        {
          "indexed": true,
          "internalType": "address",
          "name": "newOwner",
          "type": "address"
        }
      ],
      "name": "OwnershipTransferred",
      "type": "event"
    },
    {
      "anonymous": false,
      "inputs": [
        {
          "indexed": false,
          "internalType": "address",
          "name": "account",
          "type": "address"
        }
      ],
      "name": "Paused",
      "type": "event"
    },
    {
      "anonymous": false,
      "inputs": [
        {
          "indexed": false,
          "internalType": "address",
          "name": "account",
          "type": "address"
        }
      ],
      "name": "Unpaused",
      "type": "event"
    },
    {
      "inputs": [],
      "name": "NFT_PRICE",
      "outputs": [
        {
          "internalType": "uint256",
          "name": "",
          "type": "uint256"
        }
      ],
      "stateMutability": "view",
      "type": "function"
    },
    {
      "inputs": [
        {
          "internalType": "uint8",
          "name": "_ticket",
          "type": "uint8"
        }
      ],
      "name": "buy",
      "outputs": [],
      "stateMutability": "payable",
      "type": "function"
    },
    {
      "inputs": [],
      "name": "buyToken",
      "outputs": [
        {
          "internalType": "address",
          "name": "",
          "type": "address"
        }
      ],
      "stateMutability": "view",
      "type": "function"
    },
    {
      "inputs": [],
      "name": "claim",
      "outputs": [],
      "stateMutability": "nonpayable",
      "type": "function"
    },
    {
      "inputs": [
        {
          "internalType": "address",
          "name": "token",
          "type": "address"
        },
        {
          "internalType": "address payable",
          "name": "to",
          "type": "address"
        }
      ],
      "name": "emergencyWithdraw",
      "outputs": [],
      "stateMutability": "nonpayable",
      "type": "function"
    },
    {
      "inputs": [],
      "name": "endTime",
      "outputs": [
        {
          "internalType": "uint256",
          "name": "",
          "type": "uint256"
        }
      ],
      "stateMutability": "view",
      "type": "function"
    },
    {
      "inputs": [
        {
          "internalType": "address",
          "name": "_destination",
          "type": "address"
        }
      ],
      "name": "finalWithdraw",
      "outputs": [],
      "stateMutability": "nonpayable",
      "type": "function"
    },
    {
      "inputs": [
        {
          "internalType": "uint256",
          "name": "_tier",
          "type": "uint256"
        }
      ],
      "name": "getAllocationByTier",
      "outputs": [
        {
          "internalType": "uint256",
          "name": "",
          "type": "uint256"
        }
      ],
      "stateMutability": "view",
      "type": "function"
    },
    {
      "inputs": [
        {
          "internalType": "uint256",
          "name": "_tier",
          "type": "uint256"
        }
      ],
      "name": "getBuySchedulesBuyTier",
      "outputs": [
        {
          "internalType": "uint256",
          "name": "",
          "type": "uint256"
        }
      ],
      "stateMutability": "view",
      "type": "function"
    },
    {
      "inputs": [
        {
          "internalType": "address",
          "name": "userAddr",
          "type": "address"
        }
      ],
      "name": "getMaximumTicketByUser",
      "outputs": [
        {
          "internalType": "uint256",
          "name": "",
          "type": "uint256"
        }
      ],
      "stateMutability": "view",
      "type": "function"
    },
    {
      "inputs": [],
      "name": "getMaximumTicketSales",
      "outputs": [
        {
          "internalType": "uint256",
          "name": "",
          "type": "uint256"
        }
      ],
      "stateMutability": "view",
      "type": "function"
    },
    {
      "inputs": [],
      "name": "getSnapshotFrom",
      "outputs": [
        {
          "internalType": "uint256",
          "name": "",
          "type": "uint256"
        }
      ],
      "stateMutability": "view",
      "type": "function"
    },
    {
      "inputs": [],
      "name": "getSnapshotTo",
      "outputs": [
        {
          "internalType": "uint256",
          "name": "",
          "type": "uint256"
        }
      ],
      "stateMutability": "view",
      "type": "function"
    },
    {
      "inputs": [
        {
          "internalType": "address",
          "name": "userAddr",
          "type": "address"
        }
      ],
      "name": "getTier",
      "outputs": [
        {
          "internalType": "uint256",
          "name": "",
          "type": "uint256"
        }
      ],
      "stateMutability": "view",
      "type": "function"
    },
    {
      "inputs": [],
      "name": "minterAdapter",
      "outputs": [
        {
          "internalType": "address",
          "name": "",
          "type": "address"
        }
      ],
      "stateMutability": "view",
      "type": "function"
    },
    {
      "inputs": [],
      "name": "owner",
      "outputs": [
        {
          "internalType": "address",
          "name": "",
          "type": "address"
        }
      ],
      "stateMutability": "view",
      "type": "function"
    },
    {
      "inputs": [],
      "name": "pause",
      "outputs": [],
      "stateMutability": "nonpayable",
      "type": "function"
    },
    {
      "inputs": [],
      "name": "paused",
      "outputs": [
        {
          "internalType": "bool",
          "name": "",
          "type": "bool"
        }
      ],
      "stateMutability": "view",
      "type": "function"
    },
    {
      "inputs": [],
      "name": "renounceOwnership",
      "outputs": [],
      "stateMutability": "nonpayable",
      "type": "function"
    },
    {
      "inputs": [
        {
          "internalType": "uint256",
          "name": "newEndTime",
          "type": "uint256"
        }
      ],
      "name": "setEndTime",
      "outputs": [],
      "stateMutability": "nonpayable",
      "type": "function"
    },
    {
      "inputs": [
        {
          "internalType": "address",
          "name": "_newMinter",
          "type": "address"
        }
      ],
      "name": "setMinter",
      "outputs": [],
      "stateMutability": "nonpayable",
      "type": "function"
    },
    {
      "inputs": [
        {
          "internalType": "uint256",
          "name": "newStartTime",
          "type": "uint256"
        }
      ],
      "name": "setStartTime",
      "outputs": [],
      "stateMutability": "nonpayable",
      "type": "function"
    },
    {
      "inputs": [],
      "name": "startTime",
      "outputs": [
        {
          "internalType": "uint256",
          "name": "",
          "type": "uint256"
        }
      ],
      "stateMutability": "view",
      "type": "function"
    },
    {
      "inputs": [],
      "name": "totalTicket",
      "outputs": [
        {
          "internalType": "uint256",
          "name": "",
          "type": "uint256"
        }
      ],
      "stateMutability": "view",
      "type": "function"
    },
    {
      "inputs": [],
      "name": "totalUsedTicket",
      "outputs": [
        {
          "internalType": "uint256",
          "name": "",
          "type": "uint256"
        }
      ],
      "stateMutability": "view",
      "type": "function"
    },
    {
      "inputs": [],
      "name": "totalUsers",
      "outputs": [
        {
          "internalType": "uint256",
          "name": "",
          "type": "uint256"
        }
      ],
      "stateMutability": "view",
      "type": "function"
    },
    {
      "inputs": [
        {
          "internalType": "address",
          "name": "newOwner",
          "type": "address"
        }
      ],
      "name": "transferOwnership",
      "outputs": [],
      "stateMutability": "nonpayable",
      "type": "function"
    },
    {
      "inputs": [],
      "name": "unpause",
      "outputs": [],
      "stateMutability": "nonpayable",
      "type": "function"
    },
    {
      "inputs": [
        {
          "internalType": "address",
          "name": "",
          "type": "address"
        }
      ],
      "name": "users",
      "outputs": [
        {
          "internalType": "uint8",
          "name": "ticket",
          "type": "uint8"
        },
        {
          "internalType": "uint8",
          "name": "usedTicket",
          "type": "uint8"
        }
      ],
      "stateMutability": "view",
      "type": "function"
    }
  ],
  "bytecode": "0x60806040523480156200001157600080fd5b50604051620019c1380380620019c1833981016040819052620000349162000206565b6200003f3362000199565b6000805460ff60a01b191690556001805581811180156200005f57504282115b620000a35760405162461bcd60e51b815260206004820152600f60248201526e151a5b59481a5cc81a5b9d985b1a59608a1b60448201526064015b60405180910390fd5b826001600160a01b03166350e59eb36040518163ffffffff1660e01b815260040160206040518083038186803b158015620000dd57600080fd5b505afa158015620000f2573d6000803e3d6000fd5b505050506040513d601f19601f820116820180604052508101906200011891906200024d565b6200015a5760405162461bcd60e51b81526020600482015260116024820152701b5a5b9d195c881a5cc81a5b9d985b1a59607a1b60448201526064016200009a565b600380546001600160a01b039586166001600160a01b031991821617909155600280549490951693169290921790925560089190915560095562000276565b600080546001600160a01b038381166001600160a01b0319831681178455604051919092169283917f8be0079c531659141344cd1fd0a4f28419497f9722a3daafe3b4186f6b6457e09190a35050565b80516001600160a01b03811681146200020157600080fd5b919050565b600080600080608085870312156200021c578384fd5b6200022785620001e9565b93506200023760208601620001e9565b6040860151606090960151949790965092505050565b6000602082840312156200025f578081fd5b815180151581146200026f578182fd5b9392505050565b61173b80620002866000396000f3fe6080604052600436106101c25760003560e01c80638456cb59116100f7578063ac3ff91211610095578063ccb98ffc11610064578063ccb98ffc146104ca578063f2fde38b146104ea578063fbeffb981461050a578063fca3b5aa1461051f57600080fd5b8063ac3ff9121461045e578063b45aae521461047e578063b8a283361461049e578063bff1f9e1146104b457600080fd5b80639e282d83116100d15780639e282d83146103ab578063a4821719146103cb578063a87430ba146103eb578063a9a85f2d1461043e57600080fd5b80638456cb59146103635780638d8e38ec146103785780638da5cb5b1461038d57600080fd5b80636382d9ad11610164578063715018a61161013e578063715018a61461030d57806378e97925146103225780637f4d094314610338578063803e647d1461034d57600080fd5b80636382d9ad14610299578063676dd563146102b95780637018f293146102d557600080fd5b80633e0a322d116101a05780633e0a322d146102255780633f4ba83a146102455780634e71d92d1461025a5780635c975abb1461026f57600080fd5b806314107f3c146101c75780633197cbb6146101dc5780633518a88f14610205575b600080fd5b6101da6101d53660046115d2565b61053f565b005b3480156101e857600080fd5b506101f260095481565b6040519081526020015b60405180910390f35b34801561021157600080fd5b506101f261022036600461152e565b610996565b34801561023157600080fd5b506101da6102403660046115a2565b610a1b565b34801561025157600080fd5b506101da610a78565b34801561026657600080fd5b506101da610a8a565b34801561027b57600080fd5b50600054600160a01b900460ff1660405190151581526020016101fc565b3480156102a557600080fd5b506101da6102b436600461154a565b610d1f565b3480156102c557600080fd5b506101f2674563918244f4000081565b3480156102e157600080fd5b506002546102f5906001600160a01b031681565b6040516001600160a01b0390911681526020016101fc565b34801561031957600080fd5b506101da610e6f565b34801561032e57600080fd5b506101f260085481565b34801561034457600080fd5b506101f2610e81565b34801561035957600080fd5b506101f260075481565b34801561036f57600080fd5b506101da610f03565b34801561038457600080fd5b506101f2610f13565b34801561039957600080fd5b506000546001600160a01b03166102f5565b3480156103b757600080fd5b506101f26103c63660046115a2565b610f58565b3480156103d757600080fd5b506003546102f5906001600160a01b031681565b3480156103f757600080fd5b5061042461040636600461152e565b60046020526000908152604090205460ff8082169161010090041682565b6040805160ff9384168152929091166020830152016101fc565b34801561044a57600080fd5b506101f26104593660046115a2565b610f8a565b34801561046a57600080fd5b506101da61047936600461152e565b610fbc565b34801561048a57600080fd5b506101f261049936600461152e565b61103d565b3480156104aa57600080fd5b506101f260065481565b3480156104c057600080fd5b506101f260055481565b3480156104d657600080fd5b506101da6104e53660046115a2565b611070565b3480156104f657600080fd5b506101da61050536600461152e565b6110da565b34801561051657600080fd5b506101f2611153565b34801561052b57600080fd5b506101da61053a36600461152e565b611198565b610547611273565b6002600154141561059f5760405162461bcd60e51b815260206004820152601f60248201527f5265656e7472616e637947756172643a207265656e7472616e742063616c6c0060448201526064015b60405180910390fd5b60026001558060ff81166106015760405162461bcd60e51b815260206004820152602360248201527f74686520616d6f756e74206861766520746f20626967676572207468616e207a60448201526265726f60e81b6064820152608401610596565b600854421015801561061557506009544211155b6106575760405162461bcd60e51b8152602060048201526013602482015272109d5e481d1a5b59481a5cc81a5b9d985b1a59606a1b6044820152606401610596565b6002546001600160a01b031663b9c1109d336040516001600160e01b031960e084901b1681526001600160a01b03909116600482015260240160206040518083038186803b1580156106a857600080fd5b505afa1580156106bc573d6000803e3d6000fd5b505050506040513d601f19601f820116820180604052508101906106e09190611582565b61071f5760405162461bcd60e51b815260206004820152601060248201526f54696d20686173206e6f7420636f6d6560801b6044820152606401610596565b61072833610996565b3360009081526004602052604090205461074690839060ff16611644565b60ff161115801561076e575061075a610f13565b8160ff1660065461076b919061162c565b11155b6107ba5760405162461bcd60e51b815260206004820152601860248201527f5469636b6574206e756d62657220697320696e76616c696400000000000000006044820152606401610596565b60006107d1674563918244f4000060ff85166112c0565b6003549091506001600160a01b031661084757803410156108275760405162461bcd60e51b815260206004820152601060248201526f0ecc2d8eaca40dcdee840cadcdeeaced60831b6044820152606401610596565b80341115610842576108423361083d8334611688565b6112d3565b6108d3565b6003546040516323b872dd60e01b8152336004820152306024820152604481018390526001600160a01b03909116906323b872dd90606401602060405180830381600087803b15801561089957600080fd5b505af11580156108ad573d6000803e3d6000fd5b505050506040513d601f19601f820116820180604052508101906108d19190611582565b505b3360009081526004602052604090205460ff1661090057600580549060006108fa8361169f565b91905055505b336000908152600460205260408120805485929061092290849060ff16611644565b92506101000a81548160ff021916908360ff1602179055508260ff166006600082825461094f919061162c565b90915550506040805160ff85168152905133917f7c755a1366d3677c32d564a33709398b567d818a6b1da906ea316fd984b3073f919081900360200190a250506001805550565b6002546040516317a9a4f960e11b81526001600160a01b0383811660048301526000921690632f5349f2906024015b60206040518083038186803b1580156109dd57600080fd5b505afa1580156109f1573d6000803e3d6000fd5b505050506040513d601f19601f82011682018060405250810190610a1591906115ba565b92915050565b610a2361139c565b4281118015610a33575060095481105b610a735760405162461bcd60e51b815260206004820152601160248201527054696d6520697320696e76616c6964212160781b6044820152606401610596565b600855565b610a8061139c565b610a886113f6565b565b610a92611273565b60026001541415610ae55760405162461bcd60e51b815260206004820152601f60248201527f5265656e7472616e637947756172643a207265656e7472616e742063616c6c006044820152606401610596565b60026001553360009081526004602052604090205460ff1615801590610b2357503360009081526004602052604090205460ff610100820481169116115b610b605760405162461bcd60e51b815260206004820152600e60248201526d139bdd081a185cc81d1a58dad95d60921b6044820152606401610596565b600954421015610bab5760405162461bcd60e51b8152602060048201526016602482015275151a5b59481a185cc81b9bdd08195b991959081e595d60521b6044820152606401610596565b6002546000906001600160a01b0316636a627842336040516001600160e01b031960e084901b1681526001600160a01b039091166004820152602401602060405180830381600087803b158015610c0157600080fd5b505af1158015610c15573d6000803e3d6000fd5b505050506040513d601f19601f82011682018060405250810190610c3991906115ba565b905060008111610c795760405162461bcd60e51b815260206004820152600b60248201526a1b5a5b9d0819985b1a595960aa1b6044820152606401610596565b3360009081526004602052604090208054610100900460ff16906001610c9e836116ba565b91906101000a81548160ff021916908360ff1602179055505060076000815480929190610cca9061169f565b9190505550610cd63390565b6001600160a01b03167f47cee97cb7acd717b3c0aa1435d004cd5b3c8c57d70dbceb4e4458bbd60e39d482604051610d1091815260200190565b60405180910390a25060018055565b610d2761139c565b6001600160a01b038216610d6f576040516001600160a01b038216904780156108fc02916000818181858888f19350505050158015610d6a573d6000803e3d6000fd5b505050565b6040516370a0823160e01b81523060048201526001600160a01b0383169063a9059cbb90839083906370a082319060240160206040518083038186803b158015610db857600080fd5b505afa158015610dcc573d6000803e3d6000fd5b505050506040513d601f19601f82011682018060405250810190610df091906115ba565b6040516001600160e01b031960e085901b1681526001600160a01b03909216600483015260248201526044015b602060405180830381600087803b158015610e3757600080fd5b505af1158015610e4b573d6000803e3d6000fd5b505050506040513d601f19601f82011682018060405250810190610d6a9190611582565b610e7761139c565b610a88600061144b565b60025460408051637f4d094360e01b815290516000926001600160a01b031691637f4d0943916004808301926020929190829003018186803b158015610ec657600080fd5b505afa158015610eda573d6000803e3d6000fd5b505050506040513d601f19601f82011682018060405250810190610efe91906115ba565b905090565b610f0b61139c565b610a8861149b565b600254604080516316f252d360e21b815290516000926001600160a01b031691635bc94b4c916004808301926020929190829003018186803b158015610ec657600080fd5b600254604051639e282d8360e01b8152600481018390526000916001600160a01b031690639e282d83906024016109c5565b60025460405163a9a85f2d60e01b8152600481018390526000916001600160a01b03169063a9a85f2d906024016109c5565b610fc461139c565b6000610fe3600654674563918244f400006112c090919063ffffffff16565b6003549091506001600160a01b03166110045761100082826112d3565b5050565b60035460405163a9059cbb60e01b81526001600160a01b038481166004830152602482018490529091169063a9059cbb90604401610e1d565b600254604051635a2d572960e11b81526001600160a01b038381166004830152600092169063b45aae52906024016109c5565b61107861139c565b4281118015611088575060085481115b8015611095575042600954115b6110d55760405162461bcd60e51b815260206004820152601160248201527054696d6520697320696e76616c6964212160781b6044820152606401610596565b600955565b6110e261139c565b6001600160a01b0381166111475760405162461bcd60e51b815260206004820152602660248201527f4f776e61626c653a206e6577206f776e657220697320746865207a65726f206160448201526564647265737360d01b6064820152608401610596565b6111508161144b565b50565b60025460408051631f7dff7360e31b815290516000926001600160a01b03169163fbeffb98916004808301926020929190829003018186803b158015610ec657600080fd5b6111a061139c565b806001600160a01b03166350e59eb36040518163ffffffff1660e01b815260040160206040518083038186803b1580156111d957600080fd5b505afa1580156111ed573d6000803e3d6000fd5b505050506040513d601f19601f820116820180604052508101906112119190611582565b6112515760405162461bcd60e51b81526020600482015260116024820152701b5a5b9d195c881a5cc81a5b9d985b1a59607a1b6044820152606401610596565b600280546001600160a01b0319166001600160a01b0392909216919091179055565b600054600160a01b900460ff1615610a885760405162461bcd60e51b815260206004820152601060248201526f14185d5cd8589b194e881c185d5cd95960821b6044820152606401610596565b60006112cc8284611669565b9392505050565b604080516000808252602082019092526001600160a01b0384169083906040516112fd91906115f3565b60006040518083038185875af1925050503d806000811461133a576040519150601f19603f3d011682016040523d82523d6000602084013e61133f565b606091505b5050905080610d6a5760405162461bcd60e51b815260206004820152602360248201527f5472616e7366657248656c7065723a204b41495f5452414e534645525f46414960448201526213115160ea1b6064820152608401610596565b6000546001600160a01b03163314610a885760405162461bcd60e51b815260206004820181905260248201527f4f776e61626c653a2063616c6c6572206973206e6f7420746865206f776e65726044820152606401610596565b6113fe6114de565b6000805460ff60a01b191690557f5db9ee0a495bf2e6ff9c91a7834c1ba4fdd244a5e8aa4e537bd38aeae4b073aa335b6040516001600160a01b03909116815260200160405180910390a1565b600080546001600160a01b038381166001600160a01b0319831681178455604051919092169283917f8be0079c531659141344cd1fd0a4f28419497f9722a3daafe3b4186f6b6457e09190a35050565b6114a3611273565b6000805460ff60a01b1916600160a01b1790557f62e78cea01bee320cd4e420270b5ea74000d11b0c9f74754ebdbfc544b05a25861142e3390565b600054600160a01b900460ff16610a885760405162461bcd60e51b815260206004820152601460248201527314185d5cd8589b194e881b9bdd081c185d5cd95960621b6044820152606401610596565b60006020828403121561153f578081fd5b81356112cc816116f0565b6000806040838503121561155c578081fd5b8235611567816116f0565b91506020830135611577816116f0565b809150509250929050565b600060208284031215611593578081fd5b815180151581146112cc578182fd5b6000602082840312156115b3578081fd5b5035919050565b6000602082840312156115cb578081fd5b5051919050565b6000602082840312156115e3578081fd5b813560ff811681146112cc578182fd5b60008251815b8181101561161357602081860181015185830152016115f9565b818111156116215782828501525b509190910192915050565b6000821982111561163f5761163f6116da565b500190565b600060ff821660ff84168060ff03821115611661576116616116da565b019392505050565b6000816000190483118215151615611683576116836116da565b500290565b60008282101561169a5761169a6116da565b500390565b60006000198214156116b3576116b36116da565b5060010190565b600060ff821660ff8114156116d1576116d16116da565b60010192915050565b634e487b7160e01b600052601160045260246000fd5b6001600160a01b038116811461115057600080fdfea26469706673582212209f99640d82eb25fca0e1f7b835bd7f182578e0fa53fb71279e3528fcb8fae49e64736f6c63430008040033",
  "linkReferences": {},
  "deployedLinkReferences": {}
}