{
  "_format": "hh-sol-artifact-1",
  "contractName": "ERC721INO",
  "sourceName": "contracts/nft-marketplace/INO/ERC721INO.sol",
  "abi": [
    {
      "inputs": [
        {
          "internalType": "address",
          "name": "_buyToken",
          "type": "address"
        },
        {
          "internalType": "address",
          "name": "_minter",
          "type": "address"
        },
        {
          "internalType": "uint256",
          "name": "_startTime",
          "type": "uint256"
        },
        {
          "internalType": "uint256",
          "name": "_endTime",
          "type": "uint256"
        }
      ],
      "stateMutability": "nonpayable",
      "type": "constructor"
    },
    {
      "anonymous": false,
      "inputs": [
        {
          "indexed": true,
          "internalType": "address",
          "name": "user",
          "type": "address"
        },
        {
          "indexed": false,
          "internalType": "uint8",
          "name": "_ticket",
          "type": "uint8"
        }
      ],
      "name": "Buy",
      "type": "event"
    },
    {
      "anonymous": false,
      "inputs": [
        {
          "indexed": true,
          "internalType": "address",
          "name": "user",
          "type": "address"
        }
      ],
      "name": "Claim",
      "type": "event"
    },
    {
      "anonymous": false,
      "inputs": [
        {
          "indexed": true,
          "internalType": "address",
          "name": "previousOwner",
          "type": "address"
        },
        {
          "indexed": true,
          "internalType": "address",
          "name": "newOwner",
          "type": "address"
        }
      ],
      "name": "OwnershipTransferred",
      "type": "event"
    },
    {
      "anonymous": false,
      "inputs": [
        {
          "indexed": false,
          "internalType": "address",
          "name": "account",
          "type": "address"
        }
      ],
      "name": "Paused",
      "type": "event"
    },
    {
      "anonymous": false,
      "inputs": [
        {
          "indexed": false,
          "internalType": "address",
          "name": "account",
          "type": "address"
        }
      ],
      "name": "Unpaused",
      "type": "event"
    },
    {
      "inputs": [],
      "name": "NFT_PRICE",
      "outputs": [
        {
          "internalType": "uint256",
          "name": "",
          "type": "uint256"
        }
      ],
      "stateMutability": "view",
      "type": "function"
    },
    {
      "inputs": [
        {
          "internalType": "uint8",
          "name": "_ticket",
          "type": "uint8"
        }
      ],
      "name": "buy",
      "outputs": [],
      "stateMutability": "payable",
      "type": "function"
    },
    {
      "inputs": [],
      "name": "buyToken",
      "outputs": [
        {
          "internalType": "address",
          "name": "",
          "type": "address"
        }
      ],
      "stateMutability": "view",
      "type": "function"
    },
    {
      "inputs": [],
      "name": "claim",
      "outputs": [],
      "stateMutability": "nonpayable",
      "type": "function"
    },
    {
      "inputs": [
        {
          "internalType": "address",
          "name": "token",
          "type": "address"
        },
        {
          "internalType": "address payable",
          "name": "to",
          "type": "address"
        }
      ],
      "name": "emergencyWithdraw",
      "outputs": [],
      "stateMutability": "nonpayable",
      "type": "function"
    },
    {
      "inputs": [],
      "name": "endTime",
      "outputs": [
        {
          "internalType": "uint256",
          "name": "",
          "type": "uint256"
        }
      ],
      "stateMutability": "view",
      "type": "function"
    },
    {
      "inputs": [
        {
          "internalType": "address",
          "name": "_destination",
          "type": "address"
        }
      ],
      "name": "finalWithdraw",
      "outputs": [],
      "stateMutability": "nonpayable",
      "type": "function"
    },
    {
      "inputs": [
        {
          "internalType": "address",
          "name": "userAddr",
          "type": "address"
        }
      ],
      "name": "getMaximunTicketByUser",
      "outputs": [
        {
          "internalType": "uint256",
          "name": "",
          "type": "uint256"
        }
      ],
      "stateMutability": "view",
      "type": "function"
    },
    {
      "inputs": [],
      "name": "getMaximunTicketSales",
      "outputs": [
        {
          "internalType": "uint256",
          "name": "",
          "type": "uint256"
        }
      ],
      "stateMutability": "view",
      "type": "function"
    },
    {
      "inputs": [],
      "name": "minterAdapter",
      "outputs": [
        {
          "internalType": "address",
          "name": "",
          "type": "address"
        }
      ],
      "stateMutability": "view",
      "type": "function"
    },
    {
      "inputs": [],
      "name": "owner",
      "outputs": [
        {
          "internalType": "address",
          "name": "",
          "type": "address"
        }
      ],
      "stateMutability": "view",
      "type": "function"
    },
    {
      "inputs": [],
      "name": "pause",
      "outputs": [],
      "stateMutability": "nonpayable",
      "type": "function"
    },
    {
      "inputs": [],
      "name": "paused",
      "outputs": [
        {
          "internalType": "bool",
          "name": "",
          "type": "bool"
        }
      ],
      "stateMutability": "view",
      "type": "function"
    },
    {
      "inputs": [],
      "name": "renounceOwnership",
      "outputs": [],
      "stateMutability": "nonpayable",
      "type": "function"
    },
    {
      "inputs": [
        {
          "internalType": "uint256",
          "name": "newEndTime",
          "type": "uint256"
        }
      ],
      "name": "setEndTime",
      "outputs": [],
      "stateMutability": "nonpayable",
      "type": "function"
    },
    {
      "inputs": [
        {
          "internalType": "address",
          "name": "_newMinter",
          "type": "address"
        }
      ],
      "name": "setMinter",
      "outputs": [],
      "stateMutability": "nonpayable",
      "type": "function"
    },
    {
      "inputs": [
        {
          "internalType": "uint256",
          "name": "newStartTime",
          "type": "uint256"
        }
      ],
      "name": "setStartTime",
      "outputs": [],
      "stateMutability": "nonpayable",
      "type": "function"
    },
    {
      "inputs": [],
      "name": "startTime",
      "outputs": [
        {
          "internalType": "uint256",
          "name": "",
          "type": "uint256"
        }
      ],
      "stateMutability": "view",
      "type": "function"
    },
    {
      "inputs": [],
      "name": "totalTicket",
      "outputs": [
        {
          "internalType": "uint256",
          "name": "",
          "type": "uint256"
        }
      ],
      "stateMutability": "view",
      "type": "function"
    },
    {
      "inputs": [],
      "name": "totalUsedTicked",
      "outputs": [
        {
          "internalType": "uint256",
          "name": "",
          "type": "uint256"
        }
      ],
      "stateMutability": "view",
      "type": "function"
    },
    {
      "inputs": [],
      "name": "totalUsers",
      "outputs": [
        {
          "internalType": "uint256",
          "name": "",
          "type": "uint256"
        }
      ],
      "stateMutability": "view",
      "type": "function"
    },
    {
      "inputs": [
        {
          "internalType": "address",
          "name": "newOwner",
          "type": "address"
        }
      ],
      "name": "transferOwnership",
      "outputs": [],
      "stateMutability": "nonpayable",
      "type": "function"
    },
    {
      "inputs": [],
      "name": "unpause",
      "outputs": [],
      "stateMutability": "nonpayable",
      "type": "function"
    },
    {
      "inputs": [
        {
          "internalType": "address",
          "name": "",
          "type": "address"
        }
      ],
      "name": "users",
      "outputs": [
        {
          "internalType": "uint8",
          "name": "ticket",
          "type": "uint8"
        },
        {
          "internalType": "uint8",
          "name": "usedTicket",
          "type": "uint8"
        }
      ],
      "stateMutability": "view",
      "type": "function"
    }
  ],
  "bytecode": "0x60806040523480156200001157600080fd5b506040516200181238038062001812833981016040819052620000349162000206565b6200003f3362000199565b6000805460ff60a01b191690556001805581811180156200005f57504282115b620000a35760405162461bcd60e51b815260206004820152600f60248201526e151a5b59481a5cc81a5b9d985b1a59608a1b60448201526064015b60405180910390fd5b826001600160a01b03166350e59eb36040518163ffffffff1660e01b815260040160206040518083038186803b158015620000dd57600080fd5b505afa158015620000f2573d6000803e3d6000fd5b505050506040513d601f19601f820116820180604052508101906200011891906200024d565b6200015a5760405162461bcd60e51b81526020600482015260116024820152701b5a5b9d195c881a5cc81a5b9d985b1a59607a1b60448201526064016200009a565b600380546001600160a01b039586166001600160a01b031991821617909155600280549490951693169290921790925560089190915560095562000276565b600080546001600160a01b038381166001600160a01b0319831681178455604051919092169283917f8be0079c531659141344cd1fd0a4f28419497f9722a3daafe3b4186f6b6457e09190a35050565b80516001600160a01b03811681146200020157600080fd5b919050565b600080600080608085870312156200021c578384fd5b6200022785620001e9565b93506200023760208601620001e9565b6040860151606090960151949790965092505050565b6000602082840312156200025f578081fd5b815180151581146200026f578182fd5b9392505050565b61158c80620002866000396000f3fe60806040526004361061014b5760003560e01c806378e97925116100b6578063b3794eed1161006f578063b3794eed1461039c578063b8a28336146103b2578063bff1f9e1146103c8578063ccb98ffc146103de578063f2fde38b146103fe578063fca3b5aa1461041e57600080fd5b806378e97925146102c05780638456cb59146102d65780638da5cb5b146102eb578063a482171914610309578063a87430ba14610329578063ac3ff9121461037c57600080fd5b80635c975abb116101085780635c975abb146101ed578063608f531b146102175780636382d9ad14610237578063676dd563146102575780637018f29314610273578063715018a6146102ab57600080fd5b806314107f3c14610150578063221d4508146101655780633197cbb61461018d5780633e0a322d146101a35780633f4ba83a146101c35780634e71d92d146101d8575b600080fd5b61016361015e3660046113c4565b61043e565b005b34801561017157600080fd5b5061017a6107f3565b6040519081526020015b60405180910390f35b34801561019957600080fd5b5061017a60095481565b3480156101af57600080fd5b506101636101be366004611394565b610875565b3480156101cf57600080fd5b506101636108f4565b3480156101e457600080fd5b50610163610928565b3480156101f957600080fd5b50600054600160a01b900460ff166040519015158152602001610184565b34801561022357600080fd5b5061017a610232366004611320565b610bd5565b34801561024357600080fd5b5061016361025236600461133c565b610c59565b34801561026357600080fd5b5061017a674563918244f4000081565b34801561027f57600080fd5b50600254610293906001600160a01b031681565b6040516001600160a01b039091168152602001610184565b3480156102b757600080fd5b50610163610dcb565b3480156102cc57600080fd5b5061017a60085481565b3480156102e257600080fd5b50610163610dff565b3480156102f757600080fd5b506000546001600160a01b0316610293565b34801561031557600080fd5b50600354610293906001600160a01b031681565b34801561033557600080fd5b50610362610344366004611320565b60046020526000908152604090205460ff8082169161010090041682565b6040805160ff938416815292909116602083015201610184565b34801561038857600080fd5b50610163610397366004611320565b610e31565b3480156103a857600080fd5b5061017a60075481565b3480156103be57600080fd5b5061017a60065481565b3480156103d457600080fd5b5061017a60055481565b3480156103ea57600080fd5b506101636103f9366004611394565b610ed4565b34801561040a57600080fd5b50610163610419366004611320565b610f5a565b34801561042a57600080fd5b50610163610439366004611320565b610ff5565b600054600160a01b900460ff16156104715760405162461bcd60e51b81526004016104689061141e565b60405180910390fd5b600260015414156104c45760405162461bcd60e51b815260206004820152601f60248201527f5265656e7472616e637947756172643a207265656e7472616e742063616c6c006044820152606401610468565b60026001558060ff81166105265760405162461bcd60e51b815260206004820152602360248201527f74686520616d6f756e74206861766520746f20626967676572207468616e207a60448201526265726f60e81b6064820152608401610468565b600854421015801561053a57506009544211155b61057c5760405162461bcd60e51b8152602060048201526013602482015272109d5e481d1a5b59481a5cc81a5b9d985b1a59606a1b6044820152606401610468565b61058533610bd5565b336000908152600460205260409020546105a390839060ff16611495565b60ff16111580156105cb57506105b76107f3565b8160ff166006546105c8919061147d565b11155b6106175760405162461bcd60e51b815260206004820152601860248201527f5469636b6574206e756d62657220697320696e76616c696400000000000000006044820152606401610468565b600061062e674563918244f4000060ff85166110f2565b6003549091506001600160a01b03166106a457803410156106845760405162461bcd60e51b815260206004820152601060248201526f0ecc2d8eaca40dcdee840cadcdeeaced60831b6044820152606401610468565b8034111561069f5761069f3361069a83346114d9565b611105565b610730565b6003546040516323b872dd60e01b8152336004820152306024820152604481018390526001600160a01b03909116906323b872dd90606401602060405180830381600087803b1580156106f657600080fd5b505af115801561070a573d6000803e3d6000fd5b505050506040513d601f19601f8201168201806040525081019061072e9190611374565b505b3360009081526004602052604090205460ff1661075d5760058054906000610757836114f0565b91905055505b336000908152600460205260408120805485929061077f90849060ff16611495565b92506101000a81548160ff021916908360ff1602179055508260ff16600660008282546107ac919061147d565b90915550506040805160ff85168152905133917f7c755a1366d3677c32d564a33709398b567d818a6b1da906ea316fd984b3073f919081900360200190a250506001805550565b60025460408051633fb002a160e11b815290516000926001600160a01b031691637f600542916004808301926020929190829003018186803b15801561083857600080fd5b505afa15801561084c573d6000803e3d6000fd5b505050506040513d601f19601f8201168201806040525081019061087091906113ac565b905090565b6000546001600160a01b0316331461089f5760405162461bcd60e51b815260040161046890611448565b42811180156108af575060095481105b6108ef5760405162461bcd60e51b815260206004820152601160248201527054696d6520697320696e76616c6964212160781b6044820152606401610468565b600855565b6000546001600160a01b0316331461091e5760405162461bcd60e51b815260040161046890611448565b6109266111ce565b565b600054600160a01b900460ff16156109525760405162461bcd60e51b81526004016104689061141e565b600260015414156109a55760405162461bcd60e51b815260206004820152601f60248201527f5265656e7472616e637947756172643a207265656e7472616e742063616c6c006044820152606401610468565b60026001553360009081526004602052604090205460ff16158015906109e357503360009081526004602052604090205460ff610100820481169116115b610a205760405162461bcd60e51b815260206004820152600e60248201526d139bdd081a185cc81d1a58dad95d60921b6044820152606401610468565b600954421015610a6b5760405162461bcd60e51b8152602060048201526016602482015275151a5b59481a185cc81b9bdd08195b991959081e595d60521b6044820152606401610468565b6002546000906001600160a01b0316636a627842336040516001600160e01b031960e084901b1681526001600160a01b039091166004820152602401602060405180830381600087803b158015610ac157600080fd5b505af1158015610ad5573d6000803e3d6000fd5b505050506040513d601f19601f82011682018060405250810190610af99190611374565b905080610b3c5760405162461bcd60e51b81526020600482015260116024820152706d696e74207375636365737366756c6c7960781b6044820152606401610468565b3360009081526004602052604090208054610100900460ff16906001610b618361150b565b91906101000a81548160ff021916908360ff1602179055505060076000815480929190610b8d906114f0565b9190505550610b993390565b6001600160a01b03167f0c7ef932d3b91976772937f18d5ef9b39a9930bef486b576c374f047c4b512dc60405160405180910390a25060018055565b60025460405163181250cd60e01b81526001600160a01b038381166004830152600092169063181250cd9060240160206040518083038186803b158015610c1b57600080fd5b505afa158015610c2f573d6000803e3d6000fd5b505050506040513d601f19601f82011682018060405250810190610c5391906113ac565b92915050565b6000546001600160a01b03163314610c835760405162461bcd60e51b815260040161046890611448565b6001600160a01b038216610ccb576040516001600160a01b038216904780156108fc02916000818181858888f19350505050158015610cc6573d6000803e3d6000fd5b505050565b6040516370a0823160e01b81523060048201526001600160a01b0383169063a9059cbb90839083906370a082319060240160206040518083038186803b158015610d1457600080fd5b505afa158015610d28573d6000803e3d6000fd5b505050506040513d601f19601f82011682018060405250810190610d4c91906113ac565b6040516001600160e01b031960e085901b1681526001600160a01b03909216600483015260248201526044015b602060405180830381600087803b158015610d9357600080fd5b505af1158015610da7573d6000803e3d6000fd5b505050506040513d601f19601f82011682018060405250810190610cc69190611374565b6000546001600160a01b03163314610df55760405162461bcd60e51b815260040161046890611448565b610926600061126b565b6000546001600160a01b03163314610e295760405162461bcd60e51b815260040161046890611448565b6109266112bb565b6000546001600160a01b03163314610e5b5760405162461bcd60e51b815260040161046890611448565b6000610e7a600654674563918244f400006110f290919063ffffffff16565b6003549091506001600160a01b0316610e9b57610e978282611105565b5050565b60035460405163a9059cbb60e01b81526001600160a01b038481166004830152602482018490529091169063a9059cbb90604401610d79565b6000546001600160a01b03163314610efe5760405162461bcd60e51b815260040161046890611448565b4281118015610f0e575060085481115b80156108af575042600954116108ef5760405162461bcd60e51b815260206004820152601160248201527054696d6520697320696e76616c6964212160781b6044820152606401610468565b6000546001600160a01b03163314610f845760405162461bcd60e51b815260040161046890611448565b6001600160a01b038116610fe95760405162461bcd60e51b815260206004820152602660248201527f4f776e61626c653a206e6577206f776e657220697320746865207a65726f206160448201526564647265737360d01b6064820152608401610468565b610ff28161126b565b50565b6000546001600160a01b0316331461101f5760405162461bcd60e51b815260040161046890611448565b806001600160a01b03166350e59eb36040518163ffffffff1660e01b815260040160206040518083038186803b15801561105857600080fd5b505afa15801561106c573d6000803e3d6000fd5b505050506040513d601f19601f820116820180604052508101906110909190611374565b6110d05760405162461bcd60e51b81526020600482015260116024820152701b5a5b9d195c881a5cc81a5b9d985b1a59607a1b6044820152606401610468565b600280546001600160a01b0319166001600160a01b0392909216919091179055565b60006110fe82846114ba565b9392505050565b604080516000808252602082019092526001600160a01b03841690839060405161112f91906113e5565b60006040518083038185875af1925050503d806000811461116c576040519150601f19603f3d011682016040523d82523d6000602084013e611171565b606091505b5050905080610cc65760405162461bcd60e51b815260206004820152602360248201527f5472616e7366657248656c7065723a204b41495f5452414e534645525f46414960448201526213115160ea1b6064820152608401610468565b600054600160a01b900460ff1661121e5760405162461bcd60e51b815260206004820152601460248201527314185d5cd8589b194e881b9bdd081c185d5cd95960621b6044820152606401610468565b6000805460ff60a01b191690557f5db9ee0a495bf2e6ff9c91a7834c1ba4fdd244a5e8aa4e537bd38aeae4b073aa335b6040516001600160a01b03909116815260200160405180910390a1565b600080546001600160a01b038381166001600160a01b0319831681178455604051919092169283917f8be0079c531659141344cd1fd0a4f28419497f9722a3daafe3b4186f6b6457e09190a35050565b600054600160a01b900460ff16156112e55760405162461bcd60e51b81526004016104689061141e565b6000805460ff60a01b1916600160a01b1790557f62e78cea01bee320cd4e420270b5ea74000d11b0c9f74754ebdbfc544b05a25861124e3390565b600060208284031215611331578081fd5b81356110fe81611541565b6000806040838503121561134e578081fd5b823561135981611541565b9150602083013561136981611541565b809150509250929050565b600060208284031215611385578081fd5b815180151581146110fe578182fd5b6000602082840312156113a5578081fd5b5035919050565b6000602082840312156113bd578081fd5b5051919050565b6000602082840312156113d5578081fd5b813560ff811681146110fe578182fd5b60008251815b8181101561140557602081860181015185830152016113eb565b818111156114135782828501525b509190910192915050565b60208082526010908201526f14185d5cd8589b194e881c185d5cd95960821b604082015260600190565b6020808252818101527f4f776e61626c653a2063616c6c6572206973206e6f7420746865206f776e6572604082015260600190565b600082198211156114905761149061152b565b500190565b600060ff821660ff84168060ff038211156114b2576114b261152b565b019392505050565b60008160001904831182151516156114d4576114d461152b565b500290565b6000828210156114eb576114eb61152b565b500390565b60006000198214156115045761150461152b565b5060010190565b600060ff821660ff8114156115225761152261152b565b60010192915050565b634e487b7160e01b600052601160045260246000fd5b6001600160a01b0381168114610ff257600080fdfea26469706673582212202a543efc65dc67e63a3de1c9e229081b99b8f9cb40a0c26453c6b5f8b5a3ff6e64736f6c63430008040033",
  "linkReferences": {},
  "deployedLinkReferences": {}
}