{
  "_format": "hh-sol-artifact-1",
  "contractName": "ERC721INO",
  "sourceName": "contracts/nft-marketplace/INO/ERC721INO.sol",
  "abi": [
    {
      "inputs": [
        {
          "internalType": "address",
          "name": "_buyToken",
          "type": "address"
        },
        {
          "internalType": "address",
          "name": "_minter",
          "type": "address"
        },
        {
          "internalType": "uint256",
          "name": "_startTime",
          "type": "uint256"
        },
        {
          "internalType": "uint256",
          "name": "_endTime",
          "type": "uint256"
        }
      ],
      "stateMutability": "nonpayable",
      "type": "constructor"
    },
    {
      "anonymous": false,
      "inputs": [
        {
          "indexed": true,
          "internalType": "address",
          "name": "user",
          "type": "address"
        },
        {
          "indexed": false,
          "internalType": "uint8",
          "name": "_ticket",
          "type": "uint8"
        }
      ],
      "name": "Buy",
      "type": "event"
    },
    {
      "anonymous": false,
      "inputs": [
        {
          "indexed": true,
          "internalType": "address",
          "name": "user",
          "type": "address"
        }
      ],
      "name": "Claim",
      "type": "event"
    },
    {
      "anonymous": false,
      "inputs": [
        {
          "indexed": true,
          "internalType": "address",
          "name": "previousOwner",
          "type": "address"
        },
        {
          "indexed": true,
          "internalType": "address",
          "name": "newOwner",
          "type": "address"
        }
      ],
      "name": "OwnershipTransferred",
      "type": "event"
    },
    {
      "anonymous": false,
      "inputs": [
        {
          "indexed": false,
          "internalType": "address",
          "name": "account",
          "type": "address"
        }
      ],
      "name": "Paused",
      "type": "event"
    },
    {
      "anonymous": false,
      "inputs": [
        {
          "indexed": false,
          "internalType": "address",
          "name": "account",
          "type": "address"
        }
      ],
      "name": "Unpaused",
      "type": "event"
    },
    {
      "inputs": [],
      "name": "NFT_PRICE",
      "outputs": [
        {
          "internalType": "uint256",
          "name": "",
          "type": "uint256"
        }
      ],
      "stateMutability": "view",
      "type": "function"
    },
    {
      "inputs": [
        {
          "internalType": "uint8",
          "name": "_ticket",
          "type": "uint8"
        }
      ],
      "name": "buy",
      "outputs": [],
      "stateMutability": "payable",
      "type": "function"
    },
    {
      "inputs": [],
      "name": "buyToken",
      "outputs": [
        {
          "internalType": "address",
          "name": "",
          "type": "address"
        }
      ],
      "stateMutability": "view",
      "type": "function"
    },
    {
      "inputs": [],
      "name": "claim",
      "outputs": [],
      "stateMutability": "nonpayable",
      "type": "function"
    },
    {
      "inputs": [
        {
          "internalType": "address",
          "name": "token",
          "type": "address"
        },
        {
          "internalType": "address payable",
          "name": "to",
          "type": "address"
        }
      ],
      "name": "emergencyWithdraw",
      "outputs": [],
      "stateMutability": "nonpayable",
      "type": "function"
    },
    {
      "inputs": [],
      "name": "endTime",
      "outputs": [
        {
          "internalType": "uint256",
          "name": "",
          "type": "uint256"
        }
      ],
      "stateMutability": "view",
      "type": "function"
    },
    {
      "inputs": [
        {
          "internalType": "address",
          "name": "_destination",
          "type": "address"
        }
      ],
      "name": "finalWithdraw",
      "outputs": [],
      "stateMutability": "nonpayable",
      "type": "function"
    },
    {
      "inputs": [
        {
          "internalType": "address",
          "name": "userAddr",
          "type": "address"
        }
      ],
      "name": "getMaximumTicketByUser",
      "outputs": [
        {
          "internalType": "uint256",
          "name": "",
          "type": "uint256"
        }
      ],
      "stateMutability": "view",
      "type": "function"
    },
    {
      "inputs": [],
      "name": "getMaximumTicketSales",
      "outputs": [
        {
          "internalType": "uint256",
          "name": "",
          "type": "uint256"
        }
      ],
      "stateMutability": "view",
      "type": "function"
    },
    {
      "inputs": [],
      "name": "minterAdapter",
      "outputs": [
        {
          "internalType": "address",
          "name": "",
          "type": "address"
        }
      ],
      "stateMutability": "view",
      "type": "function"
    },
    {
      "inputs": [],
      "name": "owner",
      "outputs": [
        {
          "internalType": "address",
          "name": "",
          "type": "address"
        }
      ],
      "stateMutability": "view",
      "type": "function"
    },
    {
      "inputs": [],
      "name": "pause",
      "outputs": [],
      "stateMutability": "nonpayable",
      "type": "function"
    },
    {
      "inputs": [],
      "name": "paused",
      "outputs": [
        {
          "internalType": "bool",
          "name": "",
          "type": "bool"
        }
      ],
      "stateMutability": "view",
      "type": "function"
    },
    {
      "inputs": [],
      "name": "renounceOwnership",
      "outputs": [],
      "stateMutability": "nonpayable",
      "type": "function"
    },
    {
      "inputs": [
        {
          "internalType": "uint256",
          "name": "newEndTime",
          "type": "uint256"
        }
      ],
      "name": "setEndTime",
      "outputs": [],
      "stateMutability": "nonpayable",
      "type": "function"
    },
    {
      "inputs": [
        {
          "internalType": "address",
          "name": "_newMinter",
          "type": "address"
        }
      ],
      "name": "setMinter",
      "outputs": [],
      "stateMutability": "nonpayable",
      "type": "function"
    },
    {
      "inputs": [
        {
          "internalType": "uint256",
          "name": "newStartTime",
          "type": "uint256"
        }
      ],
      "name": "setStartTime",
      "outputs": [],
      "stateMutability": "nonpayable",
      "type": "function"
    },
    {
      "inputs": [],
      "name": "startTime",
      "outputs": [
        {
          "internalType": "uint256",
          "name": "",
          "type": "uint256"
        }
      ],
      "stateMutability": "view",
      "type": "function"
    },
    {
      "inputs": [],
      "name": "totalTicket",
      "outputs": [
        {
          "internalType": "uint256",
          "name": "",
          "type": "uint256"
        }
      ],
      "stateMutability": "view",
      "type": "function"
    },
    {
      "inputs": [],
      "name": "totalUsedTicket",
      "outputs": [
        {
          "internalType": "uint256",
          "name": "",
          "type": "uint256"
        }
      ],
      "stateMutability": "view",
      "type": "function"
    },
    {
      "inputs": [],
      "name": "totalUsers",
      "outputs": [
        {
          "internalType": "uint256",
          "name": "",
          "type": "uint256"
        }
      ],
      "stateMutability": "view",
      "type": "function"
    },
    {
      "inputs": [
        {
          "internalType": "address",
          "name": "newOwner",
          "type": "address"
        }
      ],
      "name": "transferOwnership",
      "outputs": [],
      "stateMutability": "nonpayable",
      "type": "function"
    },
    {
      "inputs": [],
      "name": "unpause",
      "outputs": [],
      "stateMutability": "nonpayable",
      "type": "function"
    },
    {
      "inputs": [
        {
          "internalType": "address",
          "name": "",
          "type": "address"
        }
      ],
      "name": "users",
      "outputs": [
        {
          "internalType": "uint8",
          "name": "ticket",
          "type": "uint8"
        },
        {
          "internalType": "uint8",
          "name": "usedTicket",
          "type": "uint8"
        }
      ],
      "stateMutability": "view",
      "type": "function"
    }
  ],
  "bytecode": "0x60806040523480156200001157600080fd5b506040516200180c3803806200180c833981016040819052620000349162000206565b6200003f3362000199565b6000805460ff60a01b191690556001805581811180156200005f57504282115b620000a35760405162461bcd60e51b815260206004820152600f60248201526e151a5b59481a5cc81a5b9d985b1a59608a1b60448201526064015b60405180910390fd5b826001600160a01b03166350e59eb36040518163ffffffff1660e01b815260040160206040518083038186803b158015620000dd57600080fd5b505afa158015620000f2573d6000803e3d6000fd5b505050506040513d601f19601f820116820180604052508101906200011891906200024d565b6200015a5760405162461bcd60e51b81526020600482015260116024820152701b5a5b9d195c881a5cc81a5b9d985b1a59607a1b60448201526064016200009a565b600380546001600160a01b039586166001600160a01b031991821617909155600280549490951693169290921790925560089190915560095562000276565b600080546001600160a01b038381166001600160a01b0319831681178455604051919092169283917f8be0079c531659141344cd1fd0a4f28419497f9722a3daafe3b4186f6b6457e09190a35050565b80516001600160a01b03811681146200020157600080fd5b919050565b600080600080608085870312156200021c578384fd5b6200022785620001e9565b93506200023760208601620001e9565b6040860151606090960151949790965092505050565b6000602082840312156200025f578081fd5b815180151581146200026f578182fd5b9392505050565b61158680620002866000396000f3fe60806040526004361061014b5760003560e01c8063803e647d116100b6578063ac3ff9121161006f578063ac3ff91214610392578063b8a28336146103b2578063bff1f9e1146103c8578063ccb98ffc146103de578063f2fde38b146103fe578063fca3b5aa1461041e57600080fd5b8063803e647d146102c15780638456cb59146102d75780638d8e38ec146102ec5780638da5cb5b14610301578063a48217191461031f578063a87430ba1461033f57600080fd5b80635c975abb116101085780635c975abb146101f85780636382d9ad14610222578063676dd563146102425780637018f2931461025e578063715018a61461029657806378e97925146102ab57600080fd5b806314107f3c146101505780633197cbb6146101655780633518a88f1461018e5780633e0a322d146101ae5780633f4ba83a146101ce5780634e71d92d146101e3575b600080fd5b61016361015e3660046113be565b61043e565b005b34801561017157600080fd5b5061017b60095481565b6040519081526020015b60405180910390f35b34801561019a57600080fd5b5061017b6101a936600461131a565b6107f3565b3480156101ba57600080fd5b506101636101c936600461138e565b610877565b3480156101da57600080fd5b506101636108f6565b3480156101ef57600080fd5b5061016361092a565b34801561020457600080fd5b50600054600160a01b900460ff166040519015158152602001610185565b34801561022e57600080fd5b5061016361023d366004611336565b610bd1565b34801561024e57600080fd5b5061017b674563918244f4000081565b34801561026a57600080fd5b5060025461027e906001600160a01b031681565b6040516001600160a01b039091168152602001610185565b3480156102a257600080fd5b50610163610d43565b3480156102b757600080fd5b5061017b60085481565b3480156102cd57600080fd5b5061017b60075481565b3480156102e357600080fd5b50610163610d77565b3480156102f857600080fd5b5061017b610da9565b34801561030d57600080fd5b506000546001600160a01b031661027e565b34801561032b57600080fd5b5060035461027e906001600160a01b031681565b34801561034b57600080fd5b5061037861035a36600461131a565b60046020526000908152604090205460ff8082169161010090041682565b6040805160ff938416815292909116602083015201610185565b34801561039e57600080fd5b506101636103ad36600461131a565b610e2b565b3480156103be57600080fd5b5061017b60065481565b3480156103d457600080fd5b5061017b60055481565b3480156103ea57600080fd5b506101636103f936600461138e565b610ece565b34801561040a57600080fd5b5061016361041936600461131a565b610f54565b34801561042a57600080fd5b5061016361043936600461131a565b610fef565b600054600160a01b900460ff16156104715760405162461bcd60e51b815260040161046890611418565b60405180910390fd5b600260015414156104c45760405162461bcd60e51b815260206004820152601f60248201527f5265656e7472616e637947756172643a207265656e7472616e742063616c6c006044820152606401610468565b60026001558060ff81166105265760405162461bcd60e51b815260206004820152602360248201527f74686520616d6f756e74206861766520746f20626967676572207468616e207a60448201526265726f60e81b6064820152608401610468565b600854421015801561053a57506009544211155b61057c5760405162461bcd60e51b8152602060048201526013602482015272109d5e481d1a5b59481a5cc81a5b9d985b1a59606a1b6044820152606401610468565b610585336107f3565b336000908152600460205260409020546105a390839060ff1661148f565b60ff16111580156105cb57506105b7610da9565b8160ff166006546105c89190611477565b11155b6106175760405162461bcd60e51b815260206004820152601860248201527f5469636b6574206e756d62657220697320696e76616c696400000000000000006044820152606401610468565b600061062e674563918244f4000060ff85166110ec565b6003549091506001600160a01b03166106a457803410156106845760405162461bcd60e51b815260206004820152601060248201526f0ecc2d8eaca40dcdee840cadcdeeaced60831b6044820152606401610468565b8034111561069f5761069f3361069a83346114d3565b6110ff565b610730565b6003546040516323b872dd60e01b8152336004820152306024820152604481018390526001600160a01b03909116906323b872dd90606401602060405180830381600087803b1580156106f657600080fd5b505af115801561070a573d6000803e3d6000fd5b505050506040513d601f19601f8201168201806040525081019061072e919061136e565b505b3360009081526004602052604090205460ff1661075d5760058054906000610757836114ea565b91905055505b336000908152600460205260408120805485929061077f90849060ff1661148f565b92506101000a81548160ff021916908360ff1602179055508260ff16600660008282546107ac9190611477565b90915550506040805160ff85168152905133917f7c755a1366d3677c32d564a33709398b567d818a6b1da906ea316fd984b3073f919081900360200190a250506001805550565b6002546040516317a9a4f960e11b81526001600160a01b0383811660048301526000921690632f5349f29060240160206040518083038186803b15801561083957600080fd5b505afa15801561084d573d6000803e3d6000fd5b505050506040513d601f19601f8201168201806040525081019061087191906113a6565b92915050565b6000546001600160a01b031633146108a15760405162461bcd60e51b815260040161046890611442565b42811180156108b1575060095481105b6108f15760405162461bcd60e51b815260206004820152601160248201527054696d6520697320696e76616c6964212160781b6044820152606401610468565b600855565b6000546001600160a01b031633146109205760405162461bcd60e51b815260040161046890611442565b6109286111c8565b565b600054600160a01b900460ff16156109545760405162461bcd60e51b815260040161046890611418565b600260015414156109a75760405162461bcd60e51b815260206004820152601f60248201527f5265656e7472616e637947756172643a207265656e7472616e742063616c6c006044820152606401610468565b60026001553360009081526004602052604090205460ff16158015906109e557503360009081526004602052604090205460ff610100820481169116115b610a225760405162461bcd60e51b815260206004820152600e60248201526d139bdd081a185cc81d1a58dad95d60921b6044820152606401610468565b600954421015610a6d5760405162461bcd60e51b8152602060048201526016602482015275151a5b59481a185cc81b9bdd08195b991959081e595d60521b6044820152606401610468565b6002546000906001600160a01b0316636a627842336040516001600160e01b031960e084901b1681526001600160a01b039091166004820152602401602060405180830381600087803b158015610ac357600080fd5b505af1158015610ad7573d6000803e3d6000fd5b505050506040513d601f19601f82011682018060405250810190610afb919061136e565b905080610b385760405162461bcd60e51b815260206004820152600b60248201526a1b5a5b9d0819985b1a595960aa1b6044820152606401610468565b3360009081526004602052604090208054610100900460ff16906001610b5d83611505565b91906101000a81548160ff021916908360ff1602179055505060076000815480929190610b89906114ea565b9190505550610b953390565b6001600160a01b03167f0c7ef932d3b91976772937f18d5ef9b39a9930bef486b576c374f047c4b512dc60405160405180910390a25060018055565b6000546001600160a01b03163314610bfb5760405162461bcd60e51b815260040161046890611442565b6001600160a01b038216610c43576040516001600160a01b038216904780156108fc02916000818181858888f19350505050158015610c3e573d6000803e3d6000fd5b505050565b6040516370a0823160e01b81523060048201526001600160a01b0383169063a9059cbb90839083906370a082319060240160206040518083038186803b158015610c8c57600080fd5b505afa158015610ca0573d6000803e3d6000fd5b505050506040513d601f19601f82011682018060405250810190610cc491906113a6565b6040516001600160e01b031960e085901b1681526001600160a01b03909216600483015260248201526044015b602060405180830381600087803b158015610d0b57600080fd5b505af1158015610d1f573d6000803e3d6000fd5b505050506040513d601f19601f82011682018060405250810190610c3e919061136e565b6000546001600160a01b03163314610d6d5760405162461bcd60e51b815260040161046890611442565b6109286000611265565b6000546001600160a01b03163314610da15760405162461bcd60e51b815260040161046890611442565b6109286112b5565b600254604080516316f252d360e21b815290516000926001600160a01b031691635bc94b4c916004808301926020929190829003018186803b158015610dee57600080fd5b505afa158015610e02573d6000803e3d6000fd5b505050506040513d601f19601f82011682018060405250810190610e2691906113a6565b905090565b6000546001600160a01b03163314610e555760405162461bcd60e51b815260040161046890611442565b6000610e74600654674563918244f400006110ec90919063ffffffff16565b6003549091506001600160a01b0316610e9557610e9182826110ff565b5050565b60035460405163a9059cbb60e01b81526001600160a01b038481166004830152602482018490529091169063a9059cbb90604401610cf1565b6000546001600160a01b03163314610ef85760405162461bcd60e51b815260040161046890611442565b4281118015610f08575060085481115b80156108b1575042600954116108f15760405162461bcd60e51b815260206004820152601160248201527054696d6520697320696e76616c6964212160781b6044820152606401610468565b6000546001600160a01b03163314610f7e5760405162461bcd60e51b815260040161046890611442565b6001600160a01b038116610fe35760405162461bcd60e51b815260206004820152602660248201527f4f776e61626c653a206e6577206f776e657220697320746865207a65726f206160448201526564647265737360d01b6064820152608401610468565b610fec81611265565b50565b6000546001600160a01b031633146110195760405162461bcd60e51b815260040161046890611442565b806001600160a01b03166350e59eb36040518163ffffffff1660e01b815260040160206040518083038186803b15801561105257600080fd5b505afa158015611066573d6000803e3d6000fd5b505050506040513d601f19601f8201168201806040525081019061108a919061136e565b6110ca5760405162461bcd60e51b81526020600482015260116024820152701b5a5b9d195c881a5cc81a5b9d985b1a59607a1b6044820152606401610468565b600280546001600160a01b0319166001600160a01b0392909216919091179055565b60006110f882846114b4565b9392505050565b604080516000808252602082019092526001600160a01b03841690839060405161112991906113df565b60006040518083038185875af1925050503d8060008114611166576040519150601f19603f3d011682016040523d82523d6000602084013e61116b565b606091505b5050905080610c3e5760405162461bcd60e51b815260206004820152602360248201527f5472616e7366657248656c7065723a204b41495f5452414e534645525f46414960448201526213115160ea1b6064820152608401610468565b600054600160a01b900460ff166112185760405162461bcd60e51b815260206004820152601460248201527314185d5cd8589b194e881b9bdd081c185d5cd95960621b6044820152606401610468565b6000805460ff60a01b191690557f5db9ee0a495bf2e6ff9c91a7834c1ba4fdd244a5e8aa4e537bd38aeae4b073aa335b6040516001600160a01b03909116815260200160405180910390a1565b600080546001600160a01b038381166001600160a01b0319831681178455604051919092169283917f8be0079c531659141344cd1fd0a4f28419497f9722a3daafe3b4186f6b6457e09190a35050565b600054600160a01b900460ff16156112df5760405162461bcd60e51b815260040161046890611418565b6000805460ff60a01b1916600160a01b1790557f62e78cea01bee320cd4e420270b5ea74000d11b0c9f74754ebdbfc544b05a2586112483390565b60006020828403121561132b578081fd5b81356110f88161153b565b60008060408385031215611348578081fd5b82356113538161153b565b915060208301356113638161153b565b809150509250929050565b60006020828403121561137f578081fd5b815180151581146110f8578182fd5b60006020828403121561139f578081fd5b5035919050565b6000602082840312156113b7578081fd5b5051919050565b6000602082840312156113cf578081fd5b813560ff811681146110f8578182fd5b60008251815b818110156113ff57602081860181015185830152016113e5565b8181111561140d5782828501525b509190910192915050565b60208082526010908201526f14185d5cd8589b194e881c185d5cd95960821b604082015260600190565b6020808252818101527f4f776e61626c653a2063616c6c6572206973206e6f7420746865206f776e6572604082015260600190565b6000821982111561148a5761148a611525565b500190565b600060ff821660ff84168060ff038211156114ac576114ac611525565b019392505050565b60008160001904831182151516156114ce576114ce611525565b500290565b6000828210156114e5576114e5611525565b500390565b60006000198214156114fe576114fe611525565b5060010190565b600060ff821660ff81141561151c5761151c611525565b60010192915050565b634e487b7160e01b600052601160045260246000fd5b6001600160a01b0381168114610fec57600080fdfea26469706673582212207263d7021e81dfcbd2c4c02aec115367c25cf59a3de3edadacdd035a346817ce64736f6c63430008040033",
  "linkReferences": {},
  "deployedLinkReferences": {}
}