{
  "_format": "hh-sol-artifact-1",
  "contractName": "StKDX",
  "sourceName": "contracts/staking/stKDX.sol",
  "abi": [
    {
      "inputs": [
        {
          "internalType": "contract IERC20",
          "name": "_kdx",
          "type": "address"
        }
      ],
      "stateMutability": "nonpayable",
      "type": "constructor"
    },
    {
      "anonymous": false,
      "inputs": [
        {
          "indexed": true,
          "internalType": "address",
          "name": "owner",
          "type": "address"
        },
        {
          "indexed": true,
          "internalType": "address",
          "name": "spender",
          "type": "address"
        },
        {
          "indexed": false,
          "internalType": "uint256",
          "name": "value",
          "type": "uint256"
        }
      ],
      "name": "Approval",
      "type": "event"
    },
    {
      "anonymous": false,
      "inputs": [
        {
          "indexed": true,
          "internalType": "address",
          "name": "previousOwner",
          "type": "address"
        },
        {
          "indexed": true,
          "internalType": "address",
          "name": "newOwner",
          "type": "address"
        }
      ],
      "name": "OwnershipTransferred",
      "type": "event"
    },
    {
      "anonymous": false,
      "inputs": [
        {
          "indexed": false,
          "internalType": "uint256",
          "name": "id",
          "type": "uint256"
        }
      ],
      "name": "Snapshot",
      "type": "event"
    },
    {
      "anonymous": false,
      "inputs": [
        {
          "indexed": true,
          "internalType": "address",
          "name": "from",
          "type": "address"
        },
        {
          "indexed": true,
          "internalType": "address",
          "name": "to",
          "type": "address"
        },
        {
          "indexed": false,
          "internalType": "uint256",
          "name": "value",
          "type": "uint256"
        }
      ],
      "name": "Transfer",
      "type": "event"
    },
    {
      "inputs": [
        {
          "internalType": "address",
          "name": "owner",
          "type": "address"
        },
        {
          "internalType": "address",
          "name": "spender",
          "type": "address"
        }
      ],
      "name": "allowance",
      "outputs": [
        {
          "internalType": "uint256",
          "name": "",
          "type": "uint256"
        }
      ],
      "stateMutability": "view",
      "type": "function"
    },
    {
      "inputs": [
        {
          "internalType": "address",
          "name": "spender",
          "type": "address"
        },
        {
          "internalType": "uint256",
          "name": "amount",
          "type": "uint256"
        }
      ],
      "name": "approve",
      "outputs": [
        {
          "internalType": "bool",
          "name": "",
          "type": "bool"
        }
      ],
      "stateMutability": "nonpayable",
      "type": "function"
    },
    {
      "inputs": [
        {
          "internalType": "address",
          "name": "account",
          "type": "address"
        }
      ],
      "name": "balanceOf",
      "outputs": [
        {
          "internalType": "uint256",
          "name": "",
          "type": "uint256"
        }
      ],
      "stateMutability": "view",
      "type": "function"
    },
    {
      "inputs": [
        {
          "internalType": "address",
          "name": "account",
          "type": "address"
        },
        {
          "internalType": "uint256",
          "name": "snapshotId",
          "type": "uint256"
        }
      ],
      "name": "balanceOfAt",
      "outputs": [
        {
          "internalType": "uint256",
          "name": "",
          "type": "uint256"
        }
      ],
      "stateMutability": "view",
      "type": "function"
    },
    {
      "inputs": [],
      "name": "decimals",
      "outputs": [
        {
          "internalType": "uint8",
          "name": "",
          "type": "uint8"
        }
      ],
      "stateMutability": "view",
      "type": "function"
    },
    {
      "inputs": [
        {
          "internalType": "address",
          "name": "spender",
          "type": "address"
        },
        {
          "internalType": "uint256",
          "name": "subtractedValue",
          "type": "uint256"
        }
      ],
      "name": "decreaseAllowance",
      "outputs": [
        {
          "internalType": "bool",
          "name": "",
          "type": "bool"
        }
      ],
      "stateMutability": "nonpayable",
      "type": "function"
    },
    {
      "inputs": [
        {
          "internalType": "uint256",
          "name": "_amount",
          "type": "uint256"
        }
      ],
      "name": "enter",
      "outputs": [],
      "stateMutability": "nonpayable",
      "type": "function"
    },
    {
      "inputs": [],
      "name": "getCurrentSnapshotId",
      "outputs": [
        {
          "internalType": "uint256",
          "name": "",
          "type": "uint256"
        }
      ],
      "stateMutability": "view",
      "type": "function"
    },
    {
      "inputs": [
        {
          "internalType": "address",
          "name": "_account",
          "type": "address"
        }
      ],
      "name": "getKdxBalance",
      "outputs": [
        {
          "internalType": "uint256",
          "name": "",
          "type": "uint256"
        }
      ],
      "stateMutability": "view",
      "type": "function"
    },
    {
      "inputs": [
        {
          "internalType": "address",
          "name": "_account",
          "type": "address"
        },
        {
          "internalType": "uint256",
          "name": "_snapShotId",
          "type": "uint256"
        }
      ],
      "name": "getKdxBalanceAt",
      "outputs": [
        {
          "internalType": "uint256",
          "name": "",
          "type": "uint256"
        }
      ],
      "stateMutability": "view",
      "type": "function"
    },
    {
      "inputs": [
        {
          "internalType": "uint256",
          "name": "_snapShotId",
          "type": "uint256"
        }
      ],
      "name": "getRatioAt",
      "outputs": [
        {
          "internalType": "uint256",
          "name": "",
          "type": "uint256"
        }
      ],
      "stateMutability": "view",
      "type": "function"
    },
    {
      "inputs": [
        {
          "internalType": "address",
          "name": "spender",
          "type": "address"
        },
        {
          "internalType": "uint256",
          "name": "addedValue",
          "type": "uint256"
        }
      ],
      "name": "increaseAllowance",
      "outputs": [
        {
          "internalType": "bool",
          "name": "",
          "type": "bool"
        }
      ],
      "stateMutability": "nonpayable",
      "type": "function"
    },
    {
      "inputs": [],
      "name": "kdx",
      "outputs": [
        {
          "internalType": "contract IERC20",
          "name": "",
          "type": "address"
        }
      ],
      "stateMutability": "view",
      "type": "function"
    },
    {
      "inputs": [
        {
          "internalType": "uint256",
          "name": "_share",
          "type": "uint256"
        }
      ],
      "name": "leave",
      "outputs": [],
      "stateMutability": "nonpayable",
      "type": "function"
    },
    {
      "inputs": [],
      "name": "name",
      "outputs": [
        {
          "internalType": "string",
          "name": "",
          "type": "string"
        }
      ],
      "stateMutability": "view",
      "type": "function"
    },
    {
      "inputs": [],
      "name": "owner",
      "outputs": [
        {
          "internalType": "address",
          "name": "",
          "type": "address"
        }
      ],
      "stateMutability": "view",
      "type": "function"
    },
    {
      "inputs": [],
      "name": "renounceOwnership",
      "outputs": [],
      "stateMutability": "nonpayable",
      "type": "function"
    },
    {
      "inputs": [
        {
          "internalType": "address",
          "name": "_new",
          "type": "address"
        }
      ],
      "name": "setSnapshoter",
      "outputs": [],
      "stateMutability": "nonpayable",
      "type": "function"
    },
    {
      "inputs": [],
      "name": "snapshot",
      "outputs": [],
      "stateMutability": "nonpayable",
      "type": "function"
    },
    {
      "inputs": [],
      "name": "snapshoter",
      "outputs": [
        {
          "internalType": "address",
          "name": "",
          "type": "address"
        }
      ],
      "stateMutability": "view",
      "type": "function"
    },
    {
      "inputs": [],
      "name": "symbol",
      "outputs": [
        {
          "internalType": "string",
          "name": "",
          "type": "string"
        }
      ],
      "stateMutability": "view",
      "type": "function"
    },
    {
      "inputs": [],
      "name": "totalSupply",
      "outputs": [
        {
          "internalType": "uint256",
          "name": "",
          "type": "uint256"
        }
      ],
      "stateMutability": "view",
      "type": "function"
    },
    {
      "inputs": [
        {
          "internalType": "uint256",
          "name": "snapshotId",
          "type": "uint256"
        }
      ],
      "name": "totalSupplyAt",
      "outputs": [
        {
          "internalType": "uint256",
          "name": "",
          "type": "uint256"
        }
      ],
      "stateMutability": "view",
      "type": "function"
    },
    {
      "inputs": [
        {
          "internalType": "address",
          "name": "to",
          "type": "address"
        },
        {
          "internalType": "uint256",
          "name": "amount",
          "type": "uint256"
        }
      ],
      "name": "transfer",
      "outputs": [
        {
          "internalType": "bool",
          "name": "",
          "type": "bool"
        }
      ],
      "stateMutability": "nonpayable",
      "type": "function"
    },
    {
      "inputs": [
        {
          "internalType": "address",
          "name": "from",
          "type": "address"
        },
        {
          "internalType": "address",
          "name": "to",
          "type": "address"
        },
        {
          "internalType": "uint256",
          "name": "amount",
          "type": "uint256"
        }
      ],
      "name": "transferFrom",
      "outputs": [
        {
          "internalType": "bool",
          "name": "",
          "type": "bool"
        }
      ],
      "stateMutability": "nonpayable",
      "type": "function"
    },
    {
      "inputs": [
        {
          "internalType": "address",
          "name": "newOwner",
          "type": "address"
        }
      ],
      "name": "transferOwnership",
      "outputs": [],
      "stateMutability": "nonpayable",
      "type": "function"
    }
  ],
  "bytecode": "0x60806040523480156200001157600080fd5b50604051620033bf380380620033bf833981810160405281019062000037919062000324565b6040518060400160405280600581526020017f73744b44580000000000000000000000000000000000000000000000000000008152506040518060400160405280600581526020017f73744b44580000000000000000000000000000000000000000000000000000008152508160039080519060200190620000bb9291906200025d565b508060049080519060200190620000d49291906200025d565b505050620000f7620000eb6200018f60201b60201c565b6200019760201b60201c565b80600a60006101000a81548173ffffffffffffffffffffffffffffffffffffffff021916908373ffffffffffffffffffffffffffffffffffffffff160217905550620001486200018f60201b60201c565b600c60006101000a81548173ffffffffffffffffffffffffffffffffffffffff021916908373ffffffffffffffffffffffffffffffffffffffff1602179055505062000417565b600033905090565b6000600960009054906101000a900473ffffffffffffffffffffffffffffffffffffffff16905081600960006101000a81548173ffffffffffffffffffffffffffffffffffffffff021916908373ffffffffffffffffffffffffffffffffffffffff1602179055508173ffffffffffffffffffffffffffffffffffffffff168173ffffffffffffffffffffffffffffffffffffffff167f8be0079c531659141344cd1fd0a4f28419497f9722a3daafe3b4186f6b6457e060405160405180910390a35050565b8280546200026b9062000398565b90600052602060002090601f0160209004810192826200028f5760008555620002db565b82601f10620002aa57805160ff1916838001178555620002db565b82800160010185558215620002db579182015b82811115620002da578251825591602001919060010190620002bd565b5b509050620002ea9190620002ee565b5090565b5b8082111562000309576000816000905550600101620002ef565b5090565b6000815190506200031e81620003fd565b92915050565b6000602082840312156200033757600080fd5b600062000347848285016200030d565b91505092915050565b60006200035d8262000378565b9050919050565b6000620003718262000350565b9050919050565b600073ffffffffffffffffffffffffffffffffffffffff82169050919050565b60006002820490506001821680620003b157607f821691505b60208210811415620003c857620003c7620003ce565b5b50919050565b7f4e487b7100000000000000000000000000000000000000000000000000000000600052602260045260246000fd5b620004088162000364565b81146200041457600080fd5b50565b612f9880620004276000396000f3fe608060405234801561001057600080fd5b506004361061018e5760003560e01c806370a08231116100de578063a457c2d711610097578063dae4781811610071578063dae47818146104bf578063dd62ed3e146104dd578063e137a3301461050d578063f2fde38b1461052b5761018e565b8063a457c2d714610443578063a59f3e0c14610473578063a9059cbb1461048f5761018e565b806370a0823114610393578063715018a6146103c35780638da5cb5b146103cd57806395d89b41146103eb5780639711715a14610409578063981b24d0146104135761018e565b8063290496601161014b578063395093511161012557806339509351146102f95780634ee2cd7e146103295780635439ad861461035957806367dfd4c9146103775761018e565b8063290496601461028f5780632e74eb2d146102bf578063313ce567146102db5761018e565b806306fdde0314610193578063095ea7b3146101b15780630a13177c146101e157806316b1e7451461021157806318160ddd1461024157806323b872dd1461025f575b600080fd5b61019b610547565b6040516101a89190612655565b60405180910390f35b6101cb60048036038101906101c6919061225c565b6105d9565b6040516101d8919061261f565b60405180910390f35b6101fb60048036038101906101f691906122c1565b6105fc565b6040516102089190612857565b60405180910390f35b61022b600480360381019061022691906121a8565b610619565b6040516102389190612857565b60405180910390f35b61024961070b565b6040516102569190612857565b60405180910390f35b6102796004803603810190610274919061220d565b610715565b604051610286919061261f565b60405180910390f35b6102a960048036038101906102a4919061225c565b610744565b6040516102b69190612857565b60405180910390f35b6102d960048036038101906102d491906121a8565b61079c565b005b6102e361085c565b6040516102f09190612872565b60405180910390f35b610313600480360381019061030e919061225c565b610865565b604051610320919061261f565b60405180910390f35b610343600480360381019061033e919061225c565b61090f565b6040516103509190612857565b60405180910390f35b61036161097f565b60405161036e9190612857565b60405180910390f35b610391600480360381019061038c91906122c1565b61098e565b005b6103ad60048036038101906103a891906121a8565b610b2c565b6040516103ba9190612857565b60405180910390f35b6103cb610b74565b005b6103d5610bfc565b6040516103e291906125a4565b60405180910390f35b6103f3610c26565b6040516104009190612655565b60405180910390f35b610411610cb8565b005b61042d600480360381019061042891906122c1565b610e6c565b60405161043a9190612857565b60405180910390f35b61045d6004803603810190610458919061225c565b610e9d565b60405161046a919061261f565b60405180910390f35b61048d600480360381019061048891906122c1565b610f87565b005b6104a960048036038101906104a4919061225c565b611151565b6040516104b6919061261f565b60405180910390f35b6104c7611174565b6040516104d4919061263a565b60405180910390f35b6104f760048036038101906104f291906121d1565b61119a565b6040516105049190612857565b60405180910390f35b610515611221565b60405161052291906125a4565b60405180910390f35b610545600480360381019061054091906121a8565b611247565b005b60606003805461055690612a6a565b80601f016020809104026020016040519081016040528092919081815260200182805461058290612a6a565b80156105cf5780601f106105a4576101008083540402835291602001916105cf565b820191906000526020600020905b8154815290600101906020018083116105b257829003601f168201915b5050505050905090565b6000806105e461133f565b90506105f1818585611347565b600191505092915050565b6000600b6000838152602001908152602001600020549050919050565b60008061062583610b2c565b9050600061063161070b565b9050610702816106f4600a60009054906101000a900473ffffffffffffffffffffffffffffffffffffffff1673ffffffffffffffffffffffffffffffffffffffff166370a08231306040518263ffffffff1660e01b815260040161069591906125a4565b60206040518083038186803b1580156106ad57600080fd5b505afa1580156106c1573d6000803e3d6000fd5b505050506040513d601f19601f820116820180604052508101906106e591906122ea565b8561151290919063ffffffff16565b61152890919063ffffffff16565b92505050919050565b6000600254905090565b60008061072061133f565b905061072d85828561153e565b6107388585856115ca565b60019150509392505050565b600080610751848461090f565b9050610793670de0b6b3a7640000610785600b6000878152602001908152602001600020548461151290919063ffffffff16565b61152890919063ffffffff16565b91505092915050565b6107a461133f565b73ffffffffffffffffffffffffffffffffffffffff166107c2610bfc565b73ffffffffffffffffffffffffffffffffffffffff1614610818576040517f08c379a000000000000000000000000000000000000000000000000000000000815260040161080f90612757565b60405180910390fd5b80600c60006101000a81548173ffffffffffffffffffffffffffffffffffffffff021916908373ffffffffffffffffffffffffffffffffffffffff16021790555050565b60006012905090565b60008061087061133f565b9050610904818585600160008673ffffffffffffffffffffffffffffffffffffffff1673ffffffffffffffffffffffffffffffffffffffff16815260200190815260200160002060008973ffffffffffffffffffffffffffffffffffffffff1673ffffffffffffffffffffffffffffffffffffffff168152602001908152602001600020546108ff91906128a9565b611347565b600191505092915050565b600080600061095c84600560008873ffffffffffffffffffffffffffffffffffffffff1673ffffffffffffffffffffffffffffffffffffffff16815260200190815260200160002061184b565b91509150816109735761096e85610b2c565b610975565b805b9250505092915050565b6000610989611967565b905090565b600061099861070b565b90506000610a6b82610a5d600a60009054906101000a900473ffffffffffffffffffffffffffffffffffffffff1673ffffffffffffffffffffffffffffffffffffffff166370a08231306040518263ffffffff1660e01b81526004016109fe91906125a4565b60206040518083038186803b158015610a1657600080fd5b505afa158015610a2a573d6000803e3d6000fd5b505050506040513d601f19601f82011682018060405250810190610a4e91906122ea565b8661151290919063ffffffff16565b61152890919063ffffffff16565b9050610a773384611978565b600a60009054906101000a900473ffffffffffffffffffffffffffffffffffffffff1673ffffffffffffffffffffffffffffffffffffffff1663a9059cbb33836040518363ffffffff1660e01b8152600401610ad49291906125f6565b602060405180830381600087803b158015610aee57600080fd5b505af1158015610b02573d6000803e3d6000fd5b505050506040513d601f19601f82011682018060405250810190610b269190612298565b50505050565b60008060008373ffffffffffffffffffffffffffffffffffffffff1673ffffffffffffffffffffffffffffffffffffffff168152602001908152602001600020549050919050565b610b7c61133f565b73ffffffffffffffffffffffffffffffffffffffff16610b9a610bfc565b73ffffffffffffffffffffffffffffffffffffffff1614610bf0576040517f08c379a0000000000000000000000000000000000000000000000000000000008152600401610be790612757565b60405180910390fd5b610bfa6000611b4f565b565b6000600960009054906101000a900473ffffffffffffffffffffffffffffffffffffffff16905090565b606060048054610c3590612a6a565b80601f0160208091040260200160405190810160405280929190818152602001828054610c6190612a6a565b8015610cae5780601f10610c8357610100808354040283529160200191610cae565b820191906000526020600020905b815481529060010190602001808311610c9157829003601f168201915b5050505050905090565b610cc061133f565b73ffffffffffffffffffffffffffffffffffffffff16600c60009054906101000a900473ffffffffffffffffffffffffffffffffffffffff1673ffffffffffffffffffffffffffffffffffffffff1614610d4f576040517f08c379a0000000000000000000000000000000000000000000000000000000008152600401610d4690612837565b60405180910390fd5b610d57611c15565b506000610d62611967565b90506000610d6e61070b565b90506000811115610e6857610e5081610e42670de0b6b3a7640000600a60009054906101000a900473ffffffffffffffffffffffffffffffffffffffff1673ffffffffffffffffffffffffffffffffffffffff166370a08231306040518263ffffffff1660e01b8152600401610de491906125a4565b60206040518083038186803b158015610dfc57600080fd5b505afa158015610e10573d6000803e3d6000fd5b505050506040513d601f19601f82011682018060405250810190610e3491906122ea565b61151290919063ffffffff16565b61152890919063ffffffff16565b600b6000848152602001908152602001600020819055505b5050565b6000806000610e7c84600661184b565b9150915081610e9257610e8d61070b565b610e94565b805b92505050919050565b600080610ea861133f565b90506000600160008373ffffffffffffffffffffffffffffffffffffffff1673ffffffffffffffffffffffffffffffffffffffff16815260200190815260200160002060008673ffffffffffffffffffffffffffffffffffffffff1673ffffffffffffffffffffffffffffffffffffffff16815260200190815260200160002054905083811015610f6e576040517f08c379a0000000000000000000000000000000000000000000000000000000008152600401610f65906127f7565b60405180910390fd5b610f7b8286868403611347565b60019250505092915050565b6000600a60009054906101000a900473ffffffffffffffffffffffffffffffffffffffff1673ffffffffffffffffffffffffffffffffffffffff166370a08231306040518263ffffffff1660e01b8152600401610fe491906125a4565b60206040518083038186803b158015610ffc57600080fd5b505afa158015611010573d6000803e3d6000fd5b505050506040513d601f19601f8201168201806040525081019061103491906122ea565b9050600061104061070b565b905060008114806110515750600082145b15611065576110603384611c6b565b61109a565b600061108c8361107e848761151290919063ffffffff16565b61152890919063ffffffff16565b90506110983382611c6b565b505b600a60009054906101000a900473ffffffffffffffffffffffffffffffffffffffff1673ffffffffffffffffffffffffffffffffffffffff166323b872dd3330866040518463ffffffff1660e01b81526004016110f9939291906125bf565b602060405180830381600087803b15801561111357600080fd5b505af1158015611127573d6000803e3d6000fd5b505050506040513d601f19601f8201168201806040525081019061114b9190612298565b50505050565b60008061115c61133f565b90506111698185856115ca565b600191505092915050565b600a60009054906101000a900473ffffffffffffffffffffffffffffffffffffffff1681565b6000600160008473ffffffffffffffffffffffffffffffffffffffff1673ffffffffffffffffffffffffffffffffffffffff16815260200190815260200160002060008373ffffffffffffffffffffffffffffffffffffffff1673ffffffffffffffffffffffffffffffffffffffff16815260200190815260200160002054905092915050565b600c60009054906101000a900473ffffffffffffffffffffffffffffffffffffffff1681565b61124f61133f565b73ffffffffffffffffffffffffffffffffffffffff1661126d610bfc565b73ffffffffffffffffffffffffffffffffffffffff16146112c3576040517f08c379a00000000000000000000000000000000000000000000000000000000081526004016112ba90612757565b60405180910390fd5b600073ffffffffffffffffffffffffffffffffffffffff168173ffffffffffffffffffffffffffffffffffffffff161415611333576040517f08c379a000000000000000000000000000000000000000000000000000000000815260040161132a906126d7565b60405180910390fd5b61133c81611b4f565b50565b600033905090565b600073ffffffffffffffffffffffffffffffffffffffff168373ffffffffffffffffffffffffffffffffffffffff1614156113b7576040517f08c379a00000000000000000000000000000000000000000000000000000000081526004016113ae906127b7565b60405180910390fd5b600073ffffffffffffffffffffffffffffffffffffffff168273ffffffffffffffffffffffffffffffffffffffff161415611427576040517f08c379a000000000000000000000000000000000000000000000000000000000815260040161141e906126f7565b60405180910390fd5b80600160008573ffffffffffffffffffffffffffffffffffffffff1673ffffffffffffffffffffffffffffffffffffffff16815260200190815260200160002060008473ffffffffffffffffffffffffffffffffffffffff1673ffffffffffffffffffffffffffffffffffffffff168152602001908152602001600020819055508173ffffffffffffffffffffffffffffffffffffffff168373ffffffffffffffffffffffffffffffffffffffff167f8c5be1e5ebec7d5bd14f71427d1e84f3dd0314c0f7b2291e5b200ac8c7c3b925836040516115059190612857565b60405180910390a3505050565b600081836115209190612930565b905092915050565b6000818361153691906128ff565b905092915050565b600061154a848461119a565b90507fffffffffffffffffffffffffffffffffffffffffffffffffffffffffffffffff81146115c457818110156115b6576040517f08c379a00000000000000000000000000000000000000000000000000000000081526004016115ad90612717565b60405180910390fd5b6115c38484848403611347565b5b50505050565b600073ffffffffffffffffffffffffffffffffffffffff168373ffffffffffffffffffffffffffffffffffffffff16141561163a576040517f08c379a000000000000000000000000000000000000000000000000000000000815260040161163190612797565b60405180910390fd5b600073ffffffffffffffffffffffffffffffffffffffff168273ffffffffffffffffffffffffffffffffffffffff1614156116aa576040517f08c379a00000000000000000000000000000000000000000000000000000000081526004016116a190612697565b60405180910390fd5b6116b5838383611dcb565b60008060008573ffffffffffffffffffffffffffffffffffffffff1673ffffffffffffffffffffffffffffffffffffffff1681526020019081526020016000205490508181101561173b576040517f08c379a000000000000000000000000000000000000000000000000000000000815260040161173290612737565b60405180910390fd5b8181036000808673ffffffffffffffffffffffffffffffffffffffff1673ffffffffffffffffffffffffffffffffffffffff16815260200190815260200160002081905550816000808573ffffffffffffffffffffffffffffffffffffffff1673ffffffffffffffffffffffffffffffffffffffff16815260200190815260200160002060008282546117ce91906128a9565b925050819055508273ffffffffffffffffffffffffffffffffffffffff168473ffffffffffffffffffffffffffffffffffffffff167fddf252ad1be2c89b69c2b068fc378daa952ba7f163c4a11628f55a4df523b3ef846040516118329190612857565b60405180910390a3611845848484611e85565b50505050565b60008060008411611891576040517f08c379a0000000000000000000000000000000000000000000000000000000008152600401611888906127d7565b60405180910390fd5b611899611967565b8411156118db576040517f08c379a00000000000000000000000000000000000000000000000000000000081526004016118d290612677565b60405180910390fd5b60006118f38585600001611e8a90919063ffffffff16565b90508360000180549050811415611911576000809250925050611960565b600184600101828154811061194f577f4e487b7100000000000000000000000000000000000000000000000000000000600052603260045260246000fd5b906000526020600020015492509250505b9250929050565b60006119736008611fb0565b905090565b600073ffffffffffffffffffffffffffffffffffffffff168273ffffffffffffffffffffffffffffffffffffffff1614156119e8576040517f08c379a00000000000000000000000000000000000000000000000000000000081526004016119df90612777565b60405180910390fd5b6119f482600083611dcb565b60008060008473ffffffffffffffffffffffffffffffffffffffff1673ffffffffffffffffffffffffffffffffffffffff16815260200190815260200160002054905081811015611a7a576040517f08c379a0000000000000000000000000000000000000000000000000000000008152600401611a71906126b7565b60405180910390fd5b8181036000808573ffffffffffffffffffffffffffffffffffffffff1673ffffffffffffffffffffffffffffffffffffffff168152602001908152602001600020819055508160026000828254611ad1919061298a565b92505081905550600073ffffffffffffffffffffffffffffffffffffffff168373ffffffffffffffffffffffffffffffffffffffff167fddf252ad1be2c89b69c2b068fc378daa952ba7f163c4a11628f55a4df523b3ef84604051611b369190612857565b60405180910390a3611b4a83600084611e85565b505050565b6000600960009054906101000a900473ffffffffffffffffffffffffffffffffffffffff16905081600960006101000a81548173ffffffffffffffffffffffffffffffffffffffff021916908373ffffffffffffffffffffffffffffffffffffffff1602179055508173ffffffffffffffffffffffffffffffffffffffff168173ffffffffffffffffffffffffffffffffffffffff167f8be0079c531659141344cd1fd0a4f28419497f9722a3daafe3b4186f6b6457e060405160405180910390a35050565b6000611c216008611fbe565b6000611c2b611967565b90507f8030e83b04d87bef53480e26263266d6ca66863aa8506aca6f2559d18aa1cb6781604051611c5c9190612857565b60405180910390a18091505090565b600073ffffffffffffffffffffffffffffffffffffffff168273ffffffffffffffffffffffffffffffffffffffff161415611cdb576040517f08c379a0000000000000000000000000000000000000000000000000000000008152600401611cd290612817565b60405180910390fd5b611ce760008383611dcb565b8060026000828254611cf991906128a9565b92505081905550806000808473ffffffffffffffffffffffffffffffffffffffff1673ffffffffffffffffffffffffffffffffffffffff1681526020019081526020016000206000828254611d4e91906128a9565b925050819055508173ffffffffffffffffffffffffffffffffffffffff16600073ffffffffffffffffffffffffffffffffffffffff167fddf252ad1be2c89b69c2b068fc378daa952ba7f163c4a11628f55a4df523b3ef83604051611db39190612857565b60405180910390a3611dc760008383611e85565b5050565b611dd6838383611fd4565b600073ffffffffffffffffffffffffffffffffffffffff168373ffffffffffffffffffffffffffffffffffffffff161415611e2157611e1482611fd9565b611e1c61202c565b611e80565b600073ffffffffffffffffffffffffffffffffffffffff168273ffffffffffffffffffffffffffffffffffffffff161415611e6c57611e5f83611fd9565b611e6761202c565b611e7f565b611e7583611fd9565b611e7e82611fd9565b5b5b505050565b505050565b60008083805490501415611ea15760009050611faa565b600080848054905090505b80821015611f2b576000611ec08383612040565b905084868281548110611efc577f4e487b7100000000000000000000000000000000000000000000000000000000600052603260045260246000fd5b90600052602060002001541115611f1557809150611f25565b600181611f2291906128a9565b92505b50611eac565b600082118015611f8957508385600184611f45919061298a565b81548110611f7c577f4e487b7100000000000000000000000000000000000000000000000000000000600052603260045260246000fd5b9060005260206000200154145b15611fa457600182611f9b919061298a565b92505050611faa565b81925050505b92915050565b600081600001549050919050565b6001816000016000828254019250508190555050565b505050565b612029600560008373ffffffffffffffffffffffffffffffffffffffff1673ffffffffffffffffffffffffffffffffffffffff16815260200190815260200160002061202483610b2c565b612066565b50565b61203e600661203961070b565b612066565b565b6000600282841861205191906128ff565b82841661205e91906128a9565b905092915050565b6000612070611967565b90508061207f846000016120e1565b10156120dc5782600001819080600181540180825580915050600190039060005260206000200160009091909190915055826001018290806001815401808255809150506001900390600052602060002001600090919091909150555b505050565b600080828054905014156120f8576000905061214f565b816001838054905061210a919061298a565b81548110612141577f4e487b7100000000000000000000000000000000000000000000000000000000600052603260045260246000fd5b906000526020600020015490505b919050565b60008135905061216381612f1d565b92915050565b60008151905061217881612f34565b92915050565b60008135905061218d81612f4b565b92915050565b6000815190506121a281612f4b565b92915050565b6000602082840312156121ba57600080fd5b60006121c884828501612154565b91505092915050565b600080604083850312156121e457600080fd5b60006121f285828601612154565b925050602061220385828601612154565b9150509250929050565b60008060006060848603121561222257600080fd5b600061223086828701612154565b935050602061224186828701612154565b92505060406122528682870161217e565b9150509250925092565b6000806040838503121561226f57600080fd5b600061227d85828601612154565b925050602061228e8582860161217e565b9150509250929050565b6000602082840312156122aa57600080fd5b60006122b884828501612169565b91505092915050565b6000602082840312156122d357600080fd5b60006122e18482850161217e565b91505092915050565b6000602082840312156122fc57600080fd5b600061230a84828501612193565b91505092915050565b61231c816129be565b82525050565b61232b816129d0565b82525050565b61233a81612a13565b82525050565b600061234b8261288d565b6123558185612898565b9350612365818560208601612a37565b61236e81612b29565b840191505092915050565b6000612386601d83612898565b915061239182612b3a565b602082019050919050565b60006123a9602383612898565b91506123b482612b63565b604082019050919050565b60006123cc602283612898565b91506123d782612bb2565b604082019050919050565b60006123ef602683612898565b91506123fa82612c01565b604082019050919050565b6000612412602283612898565b915061241d82612c50565b604082019050919050565b6000612435601d83612898565b915061244082612c9f565b602082019050919050565b6000612458602683612898565b915061246382612cc8565b604082019050919050565b600061247b602083612898565b915061248682612d17565b602082019050919050565b600061249e602183612898565b91506124a982612d40565b604082019050919050565b60006124c1602583612898565b91506124cc82612d8f565b604082019050919050565b60006124e4602483612898565b91506124ef82612dde565b604082019050919050565b6000612507601683612898565b915061251282612e2d565b602082019050919050565b600061252a602583612898565b915061253582612e56565b604082019050919050565b600061254d601f83612898565b915061255882612ea5565b602082019050919050565b6000612570602583612898565b915061257b82612ece565b604082019050919050565b61258f816129fc565b82525050565b61259e81612a06565b82525050565b60006020820190506125b96000830184612313565b92915050565b60006060820190506125d46000830186612313565b6125e16020830185612313565b6125ee6040830184612586565b949350505050565b600060408201905061260b6000830185612313565b6126186020830184612586565b9392505050565b60006020820190506126346000830184612322565b92915050565b600060208201905061264f6000830184612331565b92915050565b6000602082019050818103600083015261266f8184612340565b905092915050565b6000602082019050818103600083015261269081612379565b9050919050565b600060208201905081810360008301526126b08161239c565b9050919050565b600060208201905081810360008301526126d0816123bf565b9050919050565b600060208201905081810360008301526126f0816123e2565b9050919050565b6000602082019050818103600083015261271081612405565b9050919050565b6000602082019050818103600083015261273081612428565b9050919050565b600060208201905081810360008301526127508161244b565b9050919050565b600060208201905081810360008301526127708161246e565b9050919050565b6000602082019050818103600083015261279081612491565b9050919050565b600060208201905081810360008301526127b0816124b4565b9050919050565b600060208201905081810360008301526127d0816124d7565b9050919050565b600060208201905081810360008301526127f0816124fa565b9050919050565b600060208201905081810360008301526128108161251d565b9050919050565b6000602082019050818103600083015261283081612540565b9050919050565b6000602082019050818103600083015261285081612563565b9050919050565b600060208201905061286c6000830184612586565b92915050565b60006020820190506128876000830184612595565b92915050565b600081519050919050565b600082825260208201905092915050565b60006128b4826129fc565b91506128bf836129fc565b9250827fffffffffffffffffffffffffffffffffffffffffffffffffffffffffffffffff038211156128f4576128f3612a9c565b5b828201905092915050565b600061290a826129fc565b9150612915836129fc565b92508261292557612924612acb565b5b828204905092915050565b600061293b826129fc565b9150612946836129fc565b9250817fffffffffffffffffffffffffffffffffffffffffffffffffffffffffffffffff048311821515161561297f5761297e612a9c565b5b828202905092915050565b6000612995826129fc565b91506129a0836129fc565b9250828210156129b3576129b2612a9c565b5b828203905092915050565b60006129c9826129dc565b9050919050565b60008115159050919050565b600073ffffffffffffffffffffffffffffffffffffffff82169050919050565b6000819050919050565b600060ff82169050919050565b6000612a1e82612a25565b9050919050565b6000612a30826129dc565b9050919050565b60005b83811015612a55578082015181840152602081019050612a3a565b83811115612a64576000848401525b50505050565b60006002820490506001821680612a8257607f821691505b60208210811415612a9657612a95612afa565b5b50919050565b7f4e487b7100000000000000000000000000000000000000000000000000000000600052601160045260246000fd5b7f4e487b7100000000000000000000000000000000000000000000000000000000600052601260045260246000fd5b7f4e487b7100000000000000000000000000000000000000000000000000000000600052602260045260246000fd5b6000601f19601f8301169050919050565b7f4552433230536e617073686f743a206e6f6e6578697374656e74206964000000600082015250565b7f45524332303a207472616e7366657220746f20746865207a65726f206164647260008201527f6573730000000000000000000000000000000000000000000000000000000000602082015250565b7f45524332303a206275726e20616d6f756e7420657863656564732062616c616e60008201527f6365000000000000000000000000000000000000000000000000000000000000602082015250565b7f4f776e61626c653a206e6577206f776e657220697320746865207a65726f206160008201527f6464726573730000000000000000000000000000000000000000000000000000602082015250565b7f45524332303a20617070726f766520746f20746865207a65726f20616464726560008201527f7373000000000000000000000000000000000000000000000000000000000000602082015250565b7f45524332303a20696e73756666696369656e7420616c6c6f77616e6365000000600082015250565b7f45524332303a207472616e7366657220616d6f756e742065786365656473206260008201527f616c616e63650000000000000000000000000000000000000000000000000000602082015250565b7f4f776e61626c653a2063616c6c6572206973206e6f7420746865206f776e6572600082015250565b7f45524332303a206275726e2066726f6d20746865207a65726f2061646472657360008201527f7300000000000000000000000000000000000000000000000000000000000000602082015250565b7f45524332303a207472616e736665722066726f6d20746865207a65726f20616460008201527f6472657373000000000000000000000000000000000000000000000000000000602082015250565b7f45524332303a20617070726f76652066726f6d20746865207a65726f2061646460008201527f7265737300000000000000000000000000000000000000000000000000000000602082015250565b7f4552433230536e617073686f743a206964206973203000000000000000000000600082015250565b7f45524332303a2064656372656173656420616c6c6f77616e63652062656c6f7760008201527f207a65726f000000000000000000000000000000000000000000000000000000602082015250565b7f45524332303a206d696e7420746f20746865207a65726f206164647265737300600082015250565b7f4f776e61626c653a2063616c6c6572206973206e6f742074686520736e61707360008201527f686f746572000000000000000000000000000000000000000000000000000000602082015250565b612f26816129be565b8114612f3157600080fd5b50565b612f3d816129d0565b8114612f4857600080fd5b50565b612f54816129fc565b8114612f5f57600080fd5b5056fea26469706673582212204cb6f73f8d962efaa2e5ea240ae5cd857de121a101de0afa45856f3d7f1bed1064736f6c63430008040033",
  "linkReferences": {},
  "deployedLinkReferences": {}
}