{
  "_format": "hh-sol-artifact-1",
  "contractName": "StKDX",
  "sourceName": "contracts/staking/stKDX.sol",
  "abi": [
    {
      "inputs": [
        {
          "internalType": "contract IERC20",
          "name": "_kdx",
          "type": "address"
        }
      ],
      "stateMutability": "nonpayable",
      "type": "constructor"
    },
    {
      "anonymous": false,
      "inputs": [
        {
          "indexed": true,
          "internalType": "address",
          "name": "owner",
          "type": "address"
        },
        {
          "indexed": true,
          "internalType": "address",
          "name": "spender",
          "type": "address"
        },
        {
          "indexed": false,
          "internalType": "uint256",
          "name": "value",
          "type": "uint256"
        }
      ],
      "name": "Approval",
      "type": "event"
    },
    {
      "anonymous": false,
      "inputs": [
        {
          "indexed": true,
          "internalType": "address",
          "name": "previousOwner",
          "type": "address"
        },
        {
          "indexed": true,
          "internalType": "address",
          "name": "newOwner",
          "type": "address"
        }
      ],
      "name": "OwnershipTransferred",
      "type": "event"
    },
    {
      "anonymous": false,
      "inputs": [
        {
          "indexed": false,
          "internalType": "uint256",
          "name": "id",
          "type": "uint256"
        }
      ],
      "name": "Snapshot",
      "type": "event"
    },
    {
      "anonymous": false,
      "inputs": [
        {
          "indexed": true,
          "internalType": "address",
          "name": "from",
          "type": "address"
        },
        {
          "indexed": true,
          "internalType": "address",
          "name": "to",
          "type": "address"
        },
        {
          "indexed": false,
          "internalType": "uint256",
          "name": "value",
          "type": "uint256"
        }
      ],
      "name": "Transfer",
      "type": "event"
    },
    {
      "inputs": [
        {
          "internalType": "address",
          "name": "owner",
          "type": "address"
        },
        {
          "internalType": "address",
          "name": "spender",
          "type": "address"
        }
      ],
      "name": "allowance",
      "outputs": [
        {
          "internalType": "uint256",
          "name": "",
          "type": "uint256"
        }
      ],
      "stateMutability": "view",
      "type": "function"
    },
    {
      "inputs": [
        {
          "internalType": "address",
          "name": "spender",
          "type": "address"
        },
        {
          "internalType": "uint256",
          "name": "amount",
          "type": "uint256"
        }
      ],
      "name": "approve",
      "outputs": [
        {
          "internalType": "bool",
          "name": "",
          "type": "bool"
        }
      ],
      "stateMutability": "nonpayable",
      "type": "function"
    },
    {
      "inputs": [
        {
          "internalType": "address",
          "name": "account",
          "type": "address"
        }
      ],
      "name": "balanceOf",
      "outputs": [
        {
          "internalType": "uint256",
          "name": "",
          "type": "uint256"
        }
      ],
      "stateMutability": "view",
      "type": "function"
    },
    {
      "inputs": [
        {
          "internalType": "address",
          "name": "account",
          "type": "address"
        },
        {
          "internalType": "uint256",
          "name": "snapshotId",
          "type": "uint256"
        }
      ],
      "name": "balanceOfAt",
      "outputs": [
        {
          "internalType": "uint256",
          "name": "",
          "type": "uint256"
        }
      ],
      "stateMutability": "view",
      "type": "function"
    },
    {
      "inputs": [],
      "name": "decimals",
      "outputs": [
        {
          "internalType": "uint8",
          "name": "",
          "type": "uint8"
        }
      ],
      "stateMutability": "view",
      "type": "function"
    },
    {
      "inputs": [
        {
          "internalType": "address",
          "name": "spender",
          "type": "address"
        },
        {
          "internalType": "uint256",
          "name": "subtractedValue",
          "type": "uint256"
        }
      ],
      "name": "decreaseAllowance",
      "outputs": [
        {
          "internalType": "bool",
          "name": "",
          "type": "bool"
        }
      ],
      "stateMutability": "nonpayable",
      "type": "function"
    },
    {
      "inputs": [
        {
          "internalType": "uint256",
          "name": "_amount",
          "type": "uint256"
        }
      ],
      "name": "enter",
      "outputs": [],
      "stateMutability": "nonpayable",
      "type": "function"
    },
    {
      "inputs": [],
      "name": "getCurrentSnapshotId",
      "outputs": [
        {
          "internalType": "uint256",
          "name": "",
          "type": "uint256"
        }
      ],
      "stateMutability": "view",
      "type": "function"
    },
    {
      "inputs": [
        {
          "internalType": "address",
          "name": "_account",
          "type": "address"
        }
      ],
      "name": "getKdxBalance",
      "outputs": [
        {
          "internalType": "uint256",
          "name": "",
          "type": "uint256"
        }
      ],
      "stateMutability": "view",
      "type": "function"
    },
    {
      "inputs": [
        {
          "internalType": "address",
          "name": "_account",
          "type": "address"
        },
        {
          "internalType": "uint256",
          "name": "_snapShotId",
          "type": "uint256"
        }
      ],
      "name": "getKdxBalanceAt",
      "outputs": [
        {
          "internalType": "uint256",
          "name": "",
          "type": "uint256"
        }
      ],
      "stateMutability": "view",
      "type": "function"
    },
    {
      "inputs": [
        {
          "internalType": "uint256",
          "name": "_snapShotId",
          "type": "uint256"
        }
      ],
      "name": "getRatioAt",
      "outputs": [
        {
          "internalType": "uint256",
          "name": "",
          "type": "uint256"
        }
      ],
      "stateMutability": "view",
      "type": "function"
    },
    {
      "inputs": [
        {
          "internalType": "address",
          "name": "spender",
          "type": "address"
        },
        {
          "internalType": "uint256",
          "name": "addedValue",
          "type": "uint256"
        }
      ],
      "name": "increaseAllowance",
      "outputs": [
        {
          "internalType": "bool",
          "name": "",
          "type": "bool"
        }
      ],
      "stateMutability": "nonpayable",
      "type": "function"
    },
    {
      "inputs": [],
      "name": "kdx",
      "outputs": [
        {
          "internalType": "contract IERC20",
          "name": "",
          "type": "address"
        }
      ],
      "stateMutability": "view",
      "type": "function"
    },
    {
      "inputs": [
        {
          "internalType": "uint256",
          "name": "_share",
          "type": "uint256"
        }
      ],
      "name": "leave",
      "outputs": [],
      "stateMutability": "nonpayable",
      "type": "function"
    },
    {
      "inputs": [],
      "name": "name",
      "outputs": [
        {
          "internalType": "string",
          "name": "",
          "type": "string"
        }
      ],
      "stateMutability": "view",
      "type": "function"
    },
    {
      "inputs": [],
      "name": "owner",
      "outputs": [
        {
          "internalType": "address",
          "name": "",
          "type": "address"
        }
      ],
      "stateMutability": "view",
      "type": "function"
    },
    {
      "inputs": [],
      "name": "renounceOwnership",
      "outputs": [],
      "stateMutability": "nonpayable",
      "type": "function"
    },
    {
      "inputs": [
        {
          "internalType": "address",
          "name": "_new",
          "type": "address"
        }
      ],
      "name": "setSnapshoter",
      "outputs": [],
      "stateMutability": "nonpayable",
      "type": "function"
    },
    {
      "inputs": [],
      "name": "snapshot",
      "outputs": [],
      "stateMutability": "nonpayable",
      "type": "function"
    },
    {
      "inputs": [],
      "name": "snapshoter",
      "outputs": [
        {
          "internalType": "address",
          "name": "",
          "type": "address"
        }
      ],
      "stateMutability": "view",
      "type": "function"
    },
    {
      "inputs": [],
      "name": "symbol",
      "outputs": [
        {
          "internalType": "string",
          "name": "",
          "type": "string"
        }
      ],
      "stateMutability": "view",
      "type": "function"
    },
    {
      "inputs": [],
      "name": "totalSupply",
      "outputs": [
        {
          "internalType": "uint256",
          "name": "",
          "type": "uint256"
        }
      ],
      "stateMutability": "view",
      "type": "function"
    },
    {
      "inputs": [
        {
          "internalType": "uint256",
          "name": "snapshotId",
          "type": "uint256"
        }
      ],
      "name": "totalSupplyAt",
      "outputs": [
        {
          "internalType": "uint256",
          "name": "",
          "type": "uint256"
        }
      ],
      "stateMutability": "view",
      "type": "function"
    },
    {
      "inputs": [
        {
          "internalType": "address",
          "name": "to",
          "type": "address"
        },
        {
          "internalType": "uint256",
          "name": "amount",
          "type": "uint256"
        }
      ],
      "name": "transfer",
      "outputs": [
        {
          "internalType": "bool",
          "name": "",
          "type": "bool"
        }
      ],
      "stateMutability": "nonpayable",
      "type": "function"
    },
    {
      "inputs": [
        {
          "internalType": "address",
          "name": "from",
          "type": "address"
        },
        {
          "internalType": "address",
          "name": "to",
          "type": "address"
        },
        {
          "internalType": "uint256",
          "name": "amount",
          "type": "uint256"
        }
      ],
      "name": "transferFrom",
      "outputs": [
        {
          "internalType": "bool",
          "name": "",
          "type": "bool"
        }
      ],
      "stateMutability": "nonpayable",
      "type": "function"
    },
    {
      "inputs": [
        {
          "internalType": "address",
          "name": "newOwner",
          "type": "address"
        }
      ],
      "name": "transferOwnership",
      "outputs": [],
      "stateMutability": "nonpayable",
      "type": "function"
    }
  ],
  "bytecode": "0x60806040523480156200001157600080fd5b5060405162001a7d38038062001a7d833981016040819052620000349162000201565b604051806040016040528060058152602001640a6e89688b60db1b815250604051806040016040528060058152602001640e6e89688b60db1b8152508160039080519060200190620000889291906200015b565b5080516200009e9060049060208401906200015b565b505050620000bb620000b56200010560201b60201c565b62000109565b600a80546001600160a01b0319166001600160a01b038316179055620000de3390565b600c80546001600160a01b0319166001600160a01b0392909216919091179055506200026e565b3390565b600980546001600160a01b038381166001600160a01b0319831681179093556040519116919082907f8be0079c531659141344cd1fd0a4f28419497f9722a3daafe3b4186f6b6457e090600090a35050565b828054620001699062000231565b90600052602060002090601f0160209004810192826200018d5760008555620001d8565b82601f10620001a857805160ff1916838001178555620001d8565b82800160010185558215620001d8579182015b82811115620001d8578251825591602001919060010190620001bb565b50620001e6929150620001ea565b5090565b5b80821115620001e65760008155600101620001eb565b60006020828403121562000213578081fd5b81516001600160a01b03811681146200022a578182fd5b9392505050565b600181811c908216806200024657607f821691505b602082108114156200026857634e487b7160e01b600052602260045260246000fd5b50919050565b6117ff806200027e6000396000f3fe608060405234801561001057600080fd5b506004361061018e5760003560e01c806370a08231116100de578063a457c2d711610097578063dae4781811610071578063dae478181461035a578063dd62ed3e1461036d578063e137a330146103a6578063f2fde38b146103b957600080fd5b8063a457c2d714610321578063a59f3e0c14610334578063a9059cbb1461034757600080fd5b806370a08231146102a8578063715018a6146102d15780638da5cb5b146102d957806395d89b41146102fe5780639711715a14610306578063981b24d01461030e57600080fd5b8063290496601161014b578063395093511161012557806339509351146102675780634ee2cd7e1461027a5780635439ad861461028d57806367dfd4c91461029557600080fd5b806329049660146102305780632e74eb2d14610243578063313ce5671461025857600080fd5b806306fdde0314610193578063095ea7b3146101b15780630a13177c146101d457806316b1e7451461020257806318160ddd1461021557806323b872dd1461021d575b600080fd5b61019b6103cc565b6040516101a89190611682565b60405180910390f35b6101c46101bf366004611609565b61045e565b60405190151581526020016101a8565b6101f46101e2366004611652565b6000908152600b602052604090205490565b6040519081526020016101a8565b6101f4610210366004611582565b610478565b6002546101f4565b6101c461022b3660046115ce565b610539565b6101f461023e366004611609565b61055d565b610256610251366004611582565b610595565b005b604051601281526020016101a8565b6101c4610275366004611609565b6105ea565b6101f4610288366004611609565b610629565b6101f4610682565b6102566102a3366004611652565b610691565b6101f46102b6366004611582565b6001600160a01b031660009081526020819052604090205490565b6102566107c3565b6009546001600160a01b03165b6040516001600160a01b0390911681526020016101a8565b61019b6107f9565b610256610808565b6101f461031c366004611652565b610941565b6101c461032f366004611609565b610969565b610256610342366004611652565b6109fb565b6101c4610355366004611609565b610b00565b600a546102e6906001600160a01b031681565b6101f461037b36600461159c565b6001600160a01b03918216600090815260016020908152604080832093909416825291909152205490565b600c546102e6906001600160a01b031681565b6102566103c7366004611582565b610b0e565b6060600380546103db90611778565b80601f016020809104026020016040519081016040528092919081815260200182805461040790611778565b80156104545780601f1061042957610100808354040283529160200191610454565b820191906000526020600020905b81548152906001019060200180831161043757829003601f168201915b5050505050905090565b60003361046c818585610ba9565b60019150505b92915050565b6001600160a01b038116600090815260208190526040812054600061049c60025490565b600a546040516370a0823160e01b815230600482015291925061053191839161052b916001600160a01b03909116906370a082319060240160206040518083038186803b1580156104ec57600080fd5b505afa158015610500573d6000803e3d6000fd5b505050506040513d601f19601f82011682018060405250810190610524919061166a565b8590610cce565b90610cda565b949350505050565b600033610547858285610ce6565b610552858585610d72565b506001949350505050565b60008061056a8484610629565b6000848152600b602052604090205490915061053190670de0b6b3a76400009061052b908490610cce565b6009546001600160a01b031633146105c85760405162461bcd60e51b81526004016105bf906116d5565b60405180910390fd5b600c80546001600160a01b0319166001600160a01b0392909216919091179055565b3360008181526001602090815260408083206001600160a01b038716845290915281205490919061046c908290869061062490879061170a565b610ba9565b6001600160a01b038216600090815260056020526040812081908190610650908590610f4b565b9150915081610677576001600160a01b038516600090815260208190526040902054610679565b805b95945050505050565b600061068c611050565b905090565b600061069c60025490565b600a546040516370a0823160e01b815230600482015291925060009161072c91849161052b916001600160a01b0316906370a082319060240160206040518083038186803b1580156106ed57600080fd5b505afa158015610701573d6000803e3d6000fd5b505050506040513d601f19601f82011682018060405250810190610725919061166a565b8690610cce565b9050610738338461105b565b600a5460405163a9059cbb60e01b8152336004820152602481018390526001600160a01b039091169063a9059cbb906044015b602060405180830381600087803b15801561078557600080fd5b505af1158015610799573d6000803e3d6000fd5b505050506040513d601f19601f820116820180604052508101906107bd9190611632565b50505050565b6009546001600160a01b031633146107ed5760405162461bcd60e51b81526004016105bf906116d5565b6107f760006111b2565b565b6060600480546103db90611778565b600c546001600160a01b031633146108705760405162461bcd60e51b815260206004820152602560248201527f4f776e61626c653a2063616c6c6572206973206e6f742074686520736e6170736044820152643437ba32b960d91b60648201526084016105bf565b610878611204565b506000610883611050565b9050600061089060025490565b9050801561093d57600a546040516370a0823160e01b815230600482015261092d91839161052b91670de0b6b3a7640000916001600160a01b03909116906370a082319060240160206040518083038186803b1580156108ef57600080fd5b505afa158015610903573d6000803e3d6000fd5b505050506040513d601f19601f82011682018060405250810190610927919061166a565b90610cce565b6000838152600b60205260409020555b5050565b6000806000610951846006610f4b565b915091508161096257600254610531565b9392505050565b3360008181526001602090815260408083206001600160a01b0387168452909152812054909190838110156109ee5760405162461bcd60e51b815260206004820152602560248201527f45524332303a2064656372656173656420616c6c6f77616e63652062656c6f77604482015264207a65726f60d81b60648201526084016105bf565b6105528286868403610ba9565b600a546040516370a0823160e01b81523060048201526000916001600160a01b0316906370a082319060240160206040518083038186803b158015610a3f57600080fd5b505afa158015610a53573d6000803e3d6000fd5b505050506040513d601f19601f82011682018060405250810190610a77919061166a565b90506000610a8460025490565b9050801580610a91575081155b15610aa557610aa0338461125e565b610ac3565b6000610ab58361052b8685610cce565b9050610ac1338261125e565b505b600a546040516323b872dd60e01b8152336004820152306024820152604481018590526001600160a01b03909116906323b872dd9060640161076b565b60003361046c818585610d72565b6009546001600160a01b03163314610b385760405162461bcd60e51b81526004016105bf906116d5565b6001600160a01b038116610b9d5760405162461bcd60e51b815260206004820152602660248201527f4f776e61626c653a206e6577206f776e657220697320746865207a65726f206160448201526564647265737360d01b60648201526084016105bf565b610ba6816111b2565b50565b6001600160a01b038316610c0b5760405162461bcd60e51b8152602060048201526024808201527f45524332303a20617070726f76652066726f6d20746865207a65726f206164646044820152637265737360e01b60648201526084016105bf565b6001600160a01b038216610c6c5760405162461bcd60e51b815260206004820152602260248201527f45524332303a20617070726f766520746f20746865207a65726f206164647265604482015261737360f01b60648201526084016105bf565b6001600160a01b0383811660008181526001602090815260408083209487168084529482529182902085905590518481527f8c5be1e5ebec7d5bd14f71427d1e84f3dd0314c0f7b2291e5b200ac8c7c3b92591015b60405180910390a3505050565b60006109628284611742565b60006109628284611722565b6001600160a01b0383811660009081526001602090815260408083209386168352929052205460001981146107bd5781811015610d655760405162461bcd60e51b815260206004820152601d60248201527f45524332303a20696e73756666696369656e7420616c6c6f77616e636500000060448201526064016105bf565b6107bd8484848403610ba9565b6001600160a01b038316610dd65760405162461bcd60e51b815260206004820152602560248201527f45524332303a207472616e736665722066726f6d20746865207a65726f206164604482015264647265737360d81b60648201526084016105bf565b6001600160a01b038216610e385760405162461bcd60e51b815260206004820152602360248201527f45524332303a207472616e7366657220746f20746865207a65726f206164647260448201526265737360e81b60648201526084016105bf565b610e43838383611349565b6001600160a01b03831660009081526020819052604090205481811015610ebb5760405162461bcd60e51b815260206004820152602660248201527f45524332303a207472616e7366657220616d6f756e7420657863656564732062604482015265616c616e636560d01b60648201526084016105bf565b6001600160a01b03808516600090815260208190526040808220858503905591851681529081208054849290610ef290849061170a565b92505081905550826001600160a01b0316846001600160a01b03167fddf252ad1be2c89b69c2b068fc378daa952ba7f163c4a11628f55a4df523b3ef84604051610f3e91815260200190565b60405180910390a36107bd565b60008060008411610f975760405162461bcd60e51b815260206004820152601660248201527504552433230536e617073686f743a20696420697320360541b60448201526064016105bf565b610f9f611050565b841115610fee5760405162461bcd60e51b815260206004820152601d60248201527f4552433230536e617073686f743a206e6f6e6578697374656e7420696400000060448201526064016105bf565b6000610ffa8486611391565b8454909150811415611013576000809250925050611049565b600184600101828154811061103857634e487b7160e01b600052603260045260246000fd5b906000526020600020015492509250505b9250929050565b600061068c60085490565b6001600160a01b0382166110bb5760405162461bcd60e51b815260206004820152602160248201527f45524332303a206275726e2066726f6d20746865207a65726f206164647265736044820152607360f81b60648201526084016105bf565b6110c782600083611349565b6001600160a01b0382166000908152602081905260409020548181101561113b5760405162461bcd60e51b815260206004820152602260248201527f45524332303a206275726e20616d6f756e7420657863656564732062616c616e604482015261636560f01b60648201526084016105bf565b6001600160a01b038316600090815260208190526040812083830390556002805484929061116a908490611761565b90915550506040518281526000906001600160a01b038516907fddf252ad1be2c89b69c2b068fc378daa952ba7f163c4a11628f55a4df523b3ef90602001610cc1565b505050565b600980546001600160a01b038381166001600160a01b0319831681179093556040519116919082907f8be0079c531659141344cd1fd0a4f28419497f9722a3daafe3b4186f6b6457e090600090a35050565b6000611214600880546001019055565b600061121e611050565b90507f8030e83b04d87bef53480e26263266d6ca66863aa8506aca6f2559d18aa1cb678160405161125191815260200190565b60405180910390a1919050565b6001600160a01b0382166112b45760405162461bcd60e51b815260206004820152601f60248201527f45524332303a206d696e7420746f20746865207a65726f20616464726573730060448201526064016105bf565b6112c060008383611349565b80600260008282546112d2919061170a565b90915550506001600160a01b038216600090815260208190526040812080548392906112ff90849061170a565b90915550506040518181526001600160a01b038316906000907fddf252ad1be2c89b69c2b068fc378daa952ba7f163c4a11628f55a4df523b3ef9060200160405180910390a35050565b6001600160a01b0383166113685761136082611470565b6111ad6114a2565b6001600160a01b03821661137f5761136083611470565b61138883611470565b6111ad82611470565b81546000906113a257506000610472565b82546000905b8082101561140c5760006113bc83836114b0565b9050848682815481106113df57634e487b7160e01b600052603260045260246000fd5b906000526020600020015411156113f857809150611406565b61140381600161170a565b92505b506113a8565b60008211801561144f57508385611424600185611761565b8154811061144257634e487b7160e01b600052603260045260246000fd5b9060005260206000200154145b156114685761145f600183611761565b92505050610472565b509050610472565b6001600160a01b03811660009081526005602090815260408083209183905290912054610ba691906114cb565b6114cb565b6107f7600661149d60025490565b60006114bf6002848418611722565b6109629084841661170a565b60006114d5611050565b9050806114e184611515565b10156111ad578254600180820185556000858152602080822090930193909355938401805494850181558252902090910155565b805460009061152657506000919050565b8154829061153690600190611761565b8154811061155457634e487b7160e01b600052603260045260246000fd5b90600052602060002001549050919050565b919050565b80356001600160a01b038116811461156657600080fd5b600060208284031215611593578081fd5b6109628261156b565b600080604083850312156115ae578081fd5b6115b78361156b565b91506115c56020840161156b565b90509250929050565b6000806000606084860312156115e2578081fd5b6115eb8461156b565b92506115f96020850161156b565b9150604084013590509250925092565b6000806040838503121561161b578182fd5b6116248361156b565b946020939093013593505050565b600060208284031215611643578081fd5b81518015158114610962578182fd5b600060208284031215611663578081fd5b5035919050565b60006020828403121561167b578081fd5b5051919050565b6000602080835283518082850152825b818110156116ae57858101830151858201604001528201611692565b818111156116bf5783604083870101525b50601f01601f1916929092016040019392505050565b6020808252818101527f4f776e61626c653a2063616c6c6572206973206e6f7420746865206f776e6572604082015260600190565b6000821982111561171d5761171d6117b3565b500190565b60008261173d57634e487b7160e01b81526012600452602481fd5b500490565b600081600019048311821515161561175c5761175c6117b3565b500290565b600082821015611773576117736117b3565b500390565b600181811c9082168061178c57607f821691505b602082108114156117ad57634e487b7160e01b600052602260045260246000fd5b50919050565b634e487b7160e01b600052601160045260246000fdfea264697066735822122037c53b925947d4891d2faaa3a675ce6a607c50019983189cb11b7a72bd3b5d1c64736f6c63430008040033",
  "linkReferences": {},
  "deployedLinkReferences": {}
}