{
  "_format": "hh-sol-artifact-1",
  "contractName": "StKDX",
  "sourceName": "contracts/staking/stKDX.sol",
  "abi": [
    {
      "inputs": [
        {
          "internalType": "contract IERC20",
          "name": "_kdx",
          "type": "address"
        }
      ],
      "stateMutability": "nonpayable",
      "type": "constructor"
    },
    {
      "anonymous": false,
      "inputs": [
        {
          "indexed": true,
          "internalType": "address",
          "name": "owner",
          "type": "address"
        },
        {
          "indexed": true,
          "internalType": "address",
          "name": "spender",
          "type": "address"
        },
        {
          "indexed": false,
          "internalType": "uint256",
          "name": "value",
          "type": "uint256"
        }
      ],
      "name": "Approval",
      "type": "event"
    },
    {
      "anonymous": false,
      "inputs": [
        {
          "indexed": true,
          "internalType": "address",
          "name": "previousOwner",
          "type": "address"
        },
        {
          "indexed": true,
          "internalType": "address",
          "name": "newOwner",
          "type": "address"
        }
      ],
      "name": "OwnershipTransferred",
      "type": "event"
    },
    {
      "anonymous": false,
      "inputs": [
        {
          "indexed": false,
          "internalType": "uint256",
          "name": "id",
          "type": "uint256"
        }
      ],
      "name": "Snapshot",
      "type": "event"
    },
    {
      "anonymous": false,
      "inputs": [
        {
          "indexed": true,
          "internalType": "address",
          "name": "from",
          "type": "address"
        },
        {
          "indexed": true,
          "internalType": "address",
          "name": "to",
          "type": "address"
        },
        {
          "indexed": false,
          "internalType": "uint256",
          "name": "value",
          "type": "uint256"
        }
      ],
      "name": "Transfer",
      "type": "event"
    },
    {
      "inputs": [
        {
          "internalType": "address",
          "name": "owner",
          "type": "address"
        },
        {
          "internalType": "address",
          "name": "spender",
          "type": "address"
        }
      ],
      "name": "allowance",
      "outputs": [
        {
          "internalType": "uint256",
          "name": "",
          "type": "uint256"
        }
      ],
      "stateMutability": "view",
      "type": "function"
    },
    {
      "inputs": [
        {
          "internalType": "address",
          "name": "spender",
          "type": "address"
        },
        {
          "internalType": "uint256",
          "name": "amount",
          "type": "uint256"
        }
      ],
      "name": "approve",
      "outputs": [
        {
          "internalType": "bool",
          "name": "",
          "type": "bool"
        }
      ],
      "stateMutability": "nonpayable",
      "type": "function"
    },
    {
      "inputs": [
        {
          "internalType": "address",
          "name": "account",
          "type": "address"
        }
      ],
      "name": "balanceOf",
      "outputs": [
        {
          "internalType": "uint256",
          "name": "",
          "type": "uint256"
        }
      ],
      "stateMutability": "view",
      "type": "function"
    },
    {
      "inputs": [
        {
          "internalType": "address",
          "name": "account",
          "type": "address"
        },
        {
          "internalType": "uint256",
          "name": "snapshotId",
          "type": "uint256"
        }
      ],
      "name": "balanceOfAt",
      "outputs": [
        {
          "internalType": "uint256",
          "name": "",
          "type": "uint256"
        }
      ],
      "stateMutability": "view",
      "type": "function"
    },
    {
      "inputs": [],
      "name": "decimals",
      "outputs": [
        {
          "internalType": "uint8",
          "name": "",
          "type": "uint8"
        }
      ],
      "stateMutability": "view",
      "type": "function"
    },
    {
      "inputs": [
        {
          "internalType": "address",
          "name": "spender",
          "type": "address"
        },
        {
          "internalType": "uint256",
          "name": "subtractedValue",
          "type": "uint256"
        }
      ],
      "name": "decreaseAllowance",
      "outputs": [
        {
          "internalType": "bool",
          "name": "",
          "type": "bool"
        }
      ],
      "stateMutability": "nonpayable",
      "type": "function"
    },
    {
      "inputs": [
        {
          "internalType": "uint256",
          "name": "_amount",
          "type": "uint256"
        }
      ],
      "name": "enter",
      "outputs": [],
      "stateMutability": "nonpayable",
      "type": "function"
    },
    {
      "inputs": [],
      "name": "getCurrentSnapshotId",
      "outputs": [
        {
          "internalType": "uint256",
          "name": "",
          "type": "uint256"
        }
      ],
      "stateMutability": "view",
      "type": "function"
    },
    {
      "inputs": [
        {
          "internalType": "address",
          "name": "spender",
          "type": "address"
        },
        {
          "internalType": "uint256",
          "name": "addedValue",
          "type": "uint256"
        }
      ],
      "name": "increaseAllowance",
      "outputs": [
        {
          "internalType": "bool",
          "name": "",
          "type": "bool"
        }
      ],
      "stateMutability": "nonpayable",
      "type": "function"
    },
    {
      "inputs": [],
      "name": "kdx",
      "outputs": [
        {
          "internalType": "contract IERC20",
          "name": "",
          "type": "address"
        }
      ],
      "stateMutability": "view",
      "type": "function"
    },
    {
      "inputs": [
        {
          "internalType": "uint256",
          "name": "_share",
          "type": "uint256"
        }
      ],
      "name": "leave",
      "outputs": [],
      "stateMutability": "nonpayable",
      "type": "function"
    },
    {
      "inputs": [],
      "name": "name",
      "outputs": [
        {
          "internalType": "string",
          "name": "",
          "type": "string"
        }
      ],
      "stateMutability": "view",
      "type": "function"
    },
    {
      "inputs": [],
      "name": "owner",
      "outputs": [
        {
          "internalType": "address",
          "name": "",
          "type": "address"
        }
      ],
      "stateMutability": "view",
      "type": "function"
    },
    {
      "inputs": [],
      "name": "renounceOwnership",
      "outputs": [],
      "stateMutability": "nonpayable",
      "type": "function"
    },
    {
      "inputs": [],
      "name": "snapshot",
      "outputs": [],
      "stateMutability": "nonpayable",
      "type": "function"
    },
    {
      "inputs": [],
      "name": "symbol",
      "outputs": [
        {
          "internalType": "string",
          "name": "",
          "type": "string"
        }
      ],
      "stateMutability": "view",
      "type": "function"
    },
    {
      "inputs": [],
      "name": "totalSupply",
      "outputs": [
        {
          "internalType": "uint256",
          "name": "",
          "type": "uint256"
        }
      ],
      "stateMutability": "view",
      "type": "function"
    },
    {
      "inputs": [
        {
          "internalType": "uint256",
          "name": "snapshotId",
          "type": "uint256"
        }
      ],
      "name": "totalSupplyAt",
      "outputs": [
        {
          "internalType": "uint256",
          "name": "",
          "type": "uint256"
        }
      ],
      "stateMutability": "view",
      "type": "function"
    },
    {
      "inputs": [
        {
          "internalType": "address",
          "name": "to",
          "type": "address"
        },
        {
          "internalType": "uint256",
          "name": "amount",
          "type": "uint256"
        }
      ],
      "name": "transfer",
      "outputs": [
        {
          "internalType": "bool",
          "name": "",
          "type": "bool"
        }
      ],
      "stateMutability": "nonpayable",
      "type": "function"
    },
    {
      "inputs": [
        {
          "internalType": "address",
          "name": "from",
          "type": "address"
        },
        {
          "internalType": "address",
          "name": "to",
          "type": "address"
        },
        {
          "internalType": "uint256",
          "name": "amount",
          "type": "uint256"
        }
      ],
      "name": "transferFrom",
      "outputs": [
        {
          "internalType": "bool",
          "name": "",
          "type": "bool"
        }
      ],
      "stateMutability": "nonpayable",
      "type": "function"
    },
    {
      "inputs": [
        {
          "internalType": "address",
          "name": "newOwner",
          "type": "address"
        }
      ],
      "name": "transferOwnership",
      "outputs": [],
      "stateMutability": "nonpayable",
      "type": "function"
    }
  ],
  "bytecode": "0x60806040523480156200001157600080fd5b5060405162002e4238038062002e428339818101604052810190620000379190620002d4565b6040518060400160405280600581526020017f73744b44580000000000000000000000000000000000000000000000000000008152506040518060400160405280600581526020017f73744b44580000000000000000000000000000000000000000000000000000008152508160039080519060200190620000bb9291906200020d565b508060049080519060200190620000d49291906200020d565b505050620000f7620000eb6200013f60201b60201c565b6200014760201b60201c565b80600a60006101000a81548173ffffffffffffffffffffffffffffffffffffffff021916908373ffffffffffffffffffffffffffffffffffffffff16021790555050620003c7565b600033905090565b6000600960009054906101000a900473ffffffffffffffffffffffffffffffffffffffff16905081600960006101000a81548173ffffffffffffffffffffffffffffffffffffffff021916908373ffffffffffffffffffffffffffffffffffffffff1602179055508173ffffffffffffffffffffffffffffffffffffffff168173ffffffffffffffffffffffffffffffffffffffff167f8be0079c531659141344cd1fd0a4f28419497f9722a3daafe3b4186f6b6457e060405160405180910390a35050565b8280546200021b9062000348565b90600052602060002090601f0160209004810192826200023f57600085556200028b565b82601f106200025a57805160ff19168380011785556200028b565b828001600101855582156200028b579182015b828111156200028a5782518255916020019190600101906200026d565b5b5090506200029a91906200029e565b5090565b5b80821115620002b95760008160009055506001016200029f565b5090565b600081519050620002ce81620003ad565b92915050565b600060208284031215620002e757600080fd5b6000620002f784828501620002bd565b91505092915050565b60006200030d8262000328565b9050919050565b6000620003218262000300565b9050919050565b600073ffffffffffffffffffffffffffffffffffffffff82169050919050565b600060028204905060018216806200036157607f821691505b602082108114156200037857620003776200037e565b5b50919050565b7f4e487b7100000000000000000000000000000000000000000000000000000000600052602260045260246000fd5b620003b88162000314565b8114620003c457600080fd5b50565b612a6b80620003d76000396000f3fe608060405234801561001057600080fd5b50600436106101375760003560e01c8063715018a6116100b8578063a457c2d71161007c578063a457c2d714610340578063a59f3e0c14610370578063a9059cbb1461038c578063dae47818146103bc578063dd62ed3e146103da578063f2fde38b1461040a57610137565b8063715018a6146102c05780638da5cb5b146102ca57806395d89b41146102e85780639711715a14610306578063981b24d01461031057610137565b806339509351116100ff57806339509351146101f65780634ee2cd7e146102265780635439ad861461025657806367dfd4c91461027457806370a082311461029057610137565b806306fdde031461013c578063095ea7b31461015a57806318160ddd1461018a57806323b872dd146101a8578063313ce567146101d8575b600080fd5b610144610426565b6040516101519190612197565b60405180910390f35b610174600480360381019061016f9190611dc1565b6104b8565b6040516101819190612161565b60405180910390f35b6101926104db565b60405161019f9190612379565b60405180910390f35b6101c260048036038101906101bd9190611d72565b6104e5565b6040516101cf9190612161565b60405180910390f35b6101e0610514565b6040516101ed9190612394565b60405180910390f35b610210600480360381019061020b9190611dc1565b61051d565b60405161021d9190612161565b60405180910390f35b610240600480360381019061023b9190611dc1565b6105c7565b60405161024d9190612379565b60405180910390f35b61025e610637565b60405161026b9190612379565b60405180910390f35b61028e60048036038101906102899190611e26565b610646565b005b6102aa60048036038101906102a59190611d0d565b6107e4565b6040516102b79190612379565b60405180910390f35b6102c861082c565b005b6102d26108b4565b6040516102df91906120e6565b60405180910390f35b6102f06108de565b6040516102fd9190612197565b60405180910390f35b61030e610970565b005b61032a60048036038101906103259190611e26565b6109f7565b6040516103379190612379565b60405180910390f35b61035a60048036038101906103559190611dc1565b610a28565b6040516103679190612161565b60405180910390f35b61038a60048036038101906103859190611e26565b610b12565b005b6103a660048036038101906103a19190611dc1565b610cdc565b6040516103b39190612161565b60405180910390f35b6103c4610cff565b6040516103d1919061217c565b60405180910390f35b6103f460048036038101906103ef9190611d36565b610d25565b6040516104019190612379565b60405180910390f35b610424600480360381019061041f9190611d0d565b610dac565b005b6060600380546104359061258c565b80601f01602080910402602001604051908101604052809291908181526020018280546104619061258c565b80156104ae5780601f10610483576101008083540402835291602001916104ae565b820191906000526020600020905b81548152906001019060200180831161049157829003601f168201915b5050505050905090565b6000806104c3610ea4565b90506104d0818585610eac565b600191505092915050565b6000600254905090565b6000806104f0610ea4565b90506104fd858285611077565b610508858585611103565b60019150509392505050565b60006012905090565b600080610528610ea4565b90506105bc818585600160008673ffffffffffffffffffffffffffffffffffffffff1673ffffffffffffffffffffffffffffffffffffffff16815260200190815260200160002060008973ffffffffffffffffffffffffffffffffffffffff1673ffffffffffffffffffffffffffffffffffffffff168152602001908152602001600020546105b791906123cb565b610eac565b600191505092915050565b600080600061061484600560008873ffffffffffffffffffffffffffffffffffffffff1673ffffffffffffffffffffffffffffffffffffffff168152602001908152602001600020611384565b915091508161062b57610626856107e4565b61062d565b805b9250505092915050565b60006106416114a0565b905090565b60006106506104db565b9050600061072382610715600a60009054906101000a900473ffffffffffffffffffffffffffffffffffffffff1673ffffffffffffffffffffffffffffffffffffffff166370a08231306040518263ffffffff1660e01b81526004016106b691906120e6565b60206040518083038186803b1580156106ce57600080fd5b505afa1580156106e2573d6000803e3d6000fd5b505050506040513d601f19601f820116820180604052508101906107069190611e4f565b866114b190919063ffffffff16565b6114c790919063ffffffff16565b905061072f33846114dd565b600a60009054906101000a900473ffffffffffffffffffffffffffffffffffffffff1673ffffffffffffffffffffffffffffffffffffffff1663a9059cbb33836040518363ffffffff1660e01b815260040161078c929190612138565b602060405180830381600087803b1580156107a657600080fd5b505af11580156107ba573d6000803e3d6000fd5b505050506040513d601f19601f820116820180604052508101906107de9190611dfd565b50505050565b60008060008373ffffffffffffffffffffffffffffffffffffffff1673ffffffffffffffffffffffffffffffffffffffff168152602001908152602001600020549050919050565b610834610ea4565b73ffffffffffffffffffffffffffffffffffffffff166108526108b4565b73ffffffffffffffffffffffffffffffffffffffff16146108a8576040517f08c379a000000000000000000000000000000000000000000000000000000000815260040161089f90612299565b60405180910390fd5b6108b260006116b4565b565b6000600960009054906101000a900473ffffffffffffffffffffffffffffffffffffffff16905090565b6060600480546108ed9061258c565b80601f01602080910402602001604051908101604052809291908181526020018280546109199061258c565b80156109665780601f1061093b57610100808354040283529160200191610966565b820191906000526020600020905b81548152906001019060200180831161094957829003601f168201915b5050505050905090565b610978610ea4565b73ffffffffffffffffffffffffffffffffffffffff166109966108b4565b73ffffffffffffffffffffffffffffffffffffffff16146109ec576040517f08c379a00000000000000000000000000000000000000000000000000000000081526004016109e390612299565b60405180910390fd5b6109f461177a565b50565b6000806000610a07846006611384565b9150915081610a1d57610a186104db565b610a1f565b805b92505050919050565b600080610a33610ea4565b90506000600160008373ffffffffffffffffffffffffffffffffffffffff1673ffffffffffffffffffffffffffffffffffffffff16815260200190815260200160002060008673ffffffffffffffffffffffffffffffffffffffff1673ffffffffffffffffffffffffffffffffffffffff16815260200190815260200160002054905083811015610af9576040517f08c379a0000000000000000000000000000000000000000000000000000000008152600401610af090612339565b60405180910390fd5b610b068286868403610eac565b60019250505092915050565b6000600a60009054906101000a900473ffffffffffffffffffffffffffffffffffffffff1673ffffffffffffffffffffffffffffffffffffffff166370a08231306040518263ffffffff1660e01b8152600401610b6f91906120e6565b60206040518083038186803b158015610b8757600080fd5b505afa158015610b9b573d6000803e3d6000fd5b505050506040513d601f19601f82011682018060405250810190610bbf9190611e4f565b90506000610bcb6104db565b90506000811480610bdc5750600082145b15610bf057610beb33846117d0565b610c25565b6000610c1783610c0984876114b190919063ffffffff16565b6114c790919063ffffffff16565b9050610c2333826117d0565b505b600a60009054906101000a900473ffffffffffffffffffffffffffffffffffffffff1673ffffffffffffffffffffffffffffffffffffffff166323b872dd3330866040518463ffffffff1660e01b8152600401610c8493929190612101565b602060405180830381600087803b158015610c9e57600080fd5b505af1158015610cb2573d6000803e3d6000fd5b505050506040513d601f19601f82011682018060405250810190610cd69190611dfd565b50505050565b600080610ce7610ea4565b9050610cf4818585611103565b600191505092915050565b600a60009054906101000a900473ffffffffffffffffffffffffffffffffffffffff1681565b6000600160008473ffffffffffffffffffffffffffffffffffffffff1673ffffffffffffffffffffffffffffffffffffffff16815260200190815260200160002060008373ffffffffffffffffffffffffffffffffffffffff1673ffffffffffffffffffffffffffffffffffffffff16815260200190815260200160002054905092915050565b610db4610ea4565b73ffffffffffffffffffffffffffffffffffffffff16610dd26108b4565b73ffffffffffffffffffffffffffffffffffffffff1614610e28576040517f08c379a0000000000000000000000000000000000000000000000000000000008152600401610e1f90612299565b60405180910390fd5b600073ffffffffffffffffffffffffffffffffffffffff168173ffffffffffffffffffffffffffffffffffffffff161415610e98576040517f08c379a0000000000000000000000000000000000000000000000000000000008152600401610e8f90612219565b60405180910390fd5b610ea1816116b4565b50565b600033905090565b600073ffffffffffffffffffffffffffffffffffffffff168373ffffffffffffffffffffffffffffffffffffffff161415610f1c576040517f08c379a0000000000000000000000000000000000000000000000000000000008152600401610f13906122f9565b60405180910390fd5b600073ffffffffffffffffffffffffffffffffffffffff168273ffffffffffffffffffffffffffffffffffffffff161415610f8c576040517f08c379a0000000000000000000000000000000000000000000000000000000008152600401610f8390612239565b60405180910390fd5b80600160008573ffffffffffffffffffffffffffffffffffffffff1673ffffffffffffffffffffffffffffffffffffffff16815260200190815260200160002060008473ffffffffffffffffffffffffffffffffffffffff1673ffffffffffffffffffffffffffffffffffffffff168152602001908152602001600020819055508173ffffffffffffffffffffffffffffffffffffffff168373ffffffffffffffffffffffffffffffffffffffff167f8c5be1e5ebec7d5bd14f71427d1e84f3dd0314c0f7b2291e5b200ac8c7c3b9258360405161106a9190612379565b60405180910390a3505050565b60006110838484610d25565b90507fffffffffffffffffffffffffffffffffffffffffffffffffffffffffffffffff81146110fd57818110156110ef576040517f08c379a00000000000000000000000000000000000000000000000000000000081526004016110e690612259565b60405180910390fd5b6110fc8484848403610eac565b5b50505050565b600073ffffffffffffffffffffffffffffffffffffffff168373ffffffffffffffffffffffffffffffffffffffff161415611173576040517f08c379a000000000000000000000000000000000000000000000000000000000815260040161116a906122d9565b60405180910390fd5b600073ffffffffffffffffffffffffffffffffffffffff168273ffffffffffffffffffffffffffffffffffffffff1614156111e3576040517f08c379a00000000000000000000000000000000000000000000000000000000081526004016111da906121d9565b60405180910390fd5b6111ee838383611930565b60008060008573ffffffffffffffffffffffffffffffffffffffff1673ffffffffffffffffffffffffffffffffffffffff16815260200190815260200160002054905081811015611274576040517f08c379a000000000000000000000000000000000000000000000000000000000815260040161126b90612279565b60405180910390fd5b8181036000808673ffffffffffffffffffffffffffffffffffffffff1673ffffffffffffffffffffffffffffffffffffffff16815260200190815260200160002081905550816000808573ffffffffffffffffffffffffffffffffffffffff1673ffffffffffffffffffffffffffffffffffffffff168152602001908152602001600020600082825461130791906123cb565b925050819055508273ffffffffffffffffffffffffffffffffffffffff168473ffffffffffffffffffffffffffffffffffffffff167fddf252ad1be2c89b69c2b068fc378daa952ba7f163c4a11628f55a4df523b3ef8460405161136b9190612379565b60405180910390a361137e8484846119ea565b50505050565b600080600084116113ca576040517f08c379a00000000000000000000000000000000000000000000000000000000081526004016113c190612319565b60405180910390fd5b6113d26114a0565b841115611414576040517f08c379a000000000000000000000000000000000000000000000000000000000815260040161140b906121b9565b60405180910390fd5b600061142c85856000016119ef90919063ffffffff16565b9050836000018054905081141561144a576000809250925050611499565b6001846001018281548110611488577f4e487b7100000000000000000000000000000000000000000000000000000000600052603260045260246000fd5b906000526020600020015492509250505b9250929050565b60006114ac6008611b15565b905090565b600081836114bf9190612452565b905092915050565b600081836114d59190612421565b905092915050565b600073ffffffffffffffffffffffffffffffffffffffff168273ffffffffffffffffffffffffffffffffffffffff16141561154d576040517f08c379a0000000000000000000000000000000000000000000000000000000008152600401611544906122b9565b60405180910390fd5b61155982600083611930565b60008060008473ffffffffffffffffffffffffffffffffffffffff1673ffffffffffffffffffffffffffffffffffffffff168152602001908152602001600020549050818110156115df576040517f08c379a00000000000000000000000000000000000000000000000000000000081526004016115d6906121f9565b60405180910390fd5b8181036000808573ffffffffffffffffffffffffffffffffffffffff1673ffffffffffffffffffffffffffffffffffffffff16815260200190815260200160002081905550816002600082825461163691906124ac565b92505081905550600073ffffffffffffffffffffffffffffffffffffffff168373ffffffffffffffffffffffffffffffffffffffff167fddf252ad1be2c89b69c2b068fc378daa952ba7f163c4a11628f55a4df523b3ef8460405161169b9190612379565b60405180910390a36116af836000846119ea565b505050565b6000600960009054906101000a900473ffffffffffffffffffffffffffffffffffffffff16905081600960006101000a81548173ffffffffffffffffffffffffffffffffffffffff021916908373ffffffffffffffffffffffffffffffffffffffff1602179055508173ffffffffffffffffffffffffffffffffffffffff168173ffffffffffffffffffffffffffffffffffffffff167f8be0079c531659141344cd1fd0a4f28419497f9722a3daafe3b4186f6b6457e060405160405180910390a35050565b60006117866008611b23565b60006117906114a0565b90507f8030e83b04d87bef53480e26263266d6ca66863aa8506aca6f2559d18aa1cb67816040516117c19190612379565b60405180910390a18091505090565b600073ffffffffffffffffffffffffffffffffffffffff168273ffffffffffffffffffffffffffffffffffffffff161415611840576040517f08c379a000000000000000000000000000000000000000000000000000000000815260040161183790612359565b60405180910390fd5b61184c60008383611930565b806002600082825461185e91906123cb565b92505081905550806000808473ffffffffffffffffffffffffffffffffffffffff1673ffffffffffffffffffffffffffffffffffffffff16815260200190815260200160002060008282546118b391906123cb565b925050819055508173ffffffffffffffffffffffffffffffffffffffff16600073ffffffffffffffffffffffffffffffffffffffff167fddf252ad1be2c89b69c2b068fc378daa952ba7f163c4a11628f55a4df523b3ef836040516119189190612379565b60405180910390a361192c600083836119ea565b5050565b61193b838383611b39565b600073ffffffffffffffffffffffffffffffffffffffff168373ffffffffffffffffffffffffffffffffffffffff1614156119865761197982611b3e565b611981611b91565b6119e5565b600073ffffffffffffffffffffffffffffffffffffffff168273ffffffffffffffffffffffffffffffffffffffff1614156119d1576119c483611b3e565b6119cc611b91565b6119e4565b6119da83611b3e565b6119e382611b3e565b5b5b505050565b505050565b60008083805490501415611a065760009050611b0f565b600080848054905090505b80821015611a90576000611a258383611ba5565b905084868281548110611a61577f4e487b7100000000000000000000000000000000000000000000000000000000600052603260045260246000fd5b90600052602060002001541115611a7a57809150611a8a565b600181611a8791906123cb565b92505b50611a11565b600082118015611aee57508385600184611aaa91906124ac565b81548110611ae1577f4e487b7100000000000000000000000000000000000000000000000000000000600052603260045260246000fd5b9060005260206000200154145b15611b0957600182611b0091906124ac565b92505050611b0f565b81925050505b92915050565b600081600001549050919050565b6001816000016000828254019250508190555050565b505050565b611b8e600560008373ffffffffffffffffffffffffffffffffffffffff1673ffffffffffffffffffffffffffffffffffffffff168152602001908152602001600020611b89836107e4565b611bcb565b50565b611ba36006611b9e6104db565b611bcb565b565b60006002828418611bb69190612421565b828416611bc391906123cb565b905092915050565b6000611bd56114a0565b905080611be484600001611c46565b1015611c415782600001819080600181540180825580915050600190039060005260206000200160009091909190915055826001018290806001815401808255809150506001900390600052602060002001600090919091909150555b505050565b60008082805490501415611c5d5760009050611cb4565b8160018380549050611c6f91906124ac565b81548110611ca6577f4e487b7100000000000000000000000000000000000000000000000000000000600052603260045260246000fd5b906000526020600020015490505b919050565b600081359050611cc8816129f0565b92915050565b600081519050611cdd81612a07565b92915050565b600081359050611cf281612a1e565b92915050565b600081519050611d0781612a1e565b92915050565b600060208284031215611d1f57600080fd5b6000611d2d84828501611cb9565b91505092915050565b60008060408385031215611d4957600080fd5b6000611d5785828601611cb9565b9250506020611d6885828601611cb9565b9150509250929050565b600080600060608486031215611d8757600080fd5b6000611d9586828701611cb9565b9350506020611da686828701611cb9565b9250506040611db786828701611ce3565b9150509250925092565b60008060408385031215611dd457600080fd5b6000611de285828601611cb9565b9250506020611df385828601611ce3565b9150509250929050565b600060208284031215611e0f57600080fd5b6000611e1d84828501611cce565b91505092915050565b600060208284031215611e3857600080fd5b6000611e4684828501611ce3565b91505092915050565b600060208284031215611e6157600080fd5b6000611e6f84828501611cf8565b91505092915050565b611e81816124e0565b82525050565b611e90816124f2565b82525050565b611e9f81612535565b82525050565b6000611eb0826123af565b611eba81856123ba565b9350611eca818560208601612559565b611ed38161264b565b840191505092915050565b6000611eeb601d836123ba565b9150611ef68261265c565b602082019050919050565b6000611f0e6023836123ba565b9150611f1982612685565b604082019050919050565b6000611f316022836123ba565b9150611f3c826126d4565b604082019050919050565b6000611f546026836123ba565b9150611f5f82612723565b604082019050919050565b6000611f776022836123ba565b9150611f8282612772565b604082019050919050565b6000611f9a601d836123ba565b9150611fa5826127c1565b602082019050919050565b6000611fbd6026836123ba565b9150611fc8826127ea565b604082019050919050565b6000611fe06020836123ba565b9150611feb82612839565b602082019050919050565b60006120036021836123ba565b915061200e82612862565b604082019050919050565b60006120266025836123ba565b9150612031826128b1565b604082019050919050565b60006120496024836123ba565b915061205482612900565b604082019050919050565b600061206c6016836123ba565b91506120778261294f565b602082019050919050565b600061208f6025836123ba565b915061209a82612978565b604082019050919050565b60006120b2601f836123ba565b91506120bd826129c7565b602082019050919050565b6120d18161251e565b82525050565b6120e081612528565b82525050565b60006020820190506120fb6000830184611e78565b92915050565b60006060820190506121166000830186611e78565b6121236020830185611e78565b61213060408301846120c8565b949350505050565b600060408201905061214d6000830185611e78565b61215a60208301846120c8565b9392505050565b60006020820190506121766000830184611e87565b92915050565b60006020820190506121916000830184611e96565b92915050565b600060208201905081810360008301526121b18184611ea5565b905092915050565b600060208201905081810360008301526121d281611ede565b9050919050565b600060208201905081810360008301526121f281611f01565b9050919050565b6000602082019050818103600083015261221281611f24565b9050919050565b6000602082019050818103600083015261223281611f47565b9050919050565b6000602082019050818103600083015261225281611f6a565b9050919050565b6000602082019050818103600083015261227281611f8d565b9050919050565b6000602082019050818103600083015261229281611fb0565b9050919050565b600060208201905081810360008301526122b281611fd3565b9050919050565b600060208201905081810360008301526122d281611ff6565b9050919050565b600060208201905081810360008301526122f281612019565b9050919050565b600060208201905081810360008301526123128161203c565b9050919050565b600060208201905081810360008301526123328161205f565b9050919050565b6000602082019050818103600083015261235281612082565b9050919050565b60006020820190508181036000830152612372816120a5565b9050919050565b600060208201905061238e60008301846120c8565b92915050565b60006020820190506123a960008301846120d7565b92915050565b600081519050919050565b600082825260208201905092915050565b60006123d68261251e565b91506123e18361251e565b9250827fffffffffffffffffffffffffffffffffffffffffffffffffffffffffffffffff03821115612416576124156125be565b5b828201905092915050565b600061242c8261251e565b91506124378361251e565b925082612447576124466125ed565b5b828204905092915050565b600061245d8261251e565b91506124688361251e565b9250817fffffffffffffffffffffffffffffffffffffffffffffffffffffffffffffffff04831182151516156124a1576124a06125be565b5b828202905092915050565b60006124b78261251e565b91506124c28361251e565b9250828210156124d5576124d46125be565b5b828203905092915050565b60006124eb826124fe565b9050919050565b60008115159050919050565b600073ffffffffffffffffffffffffffffffffffffffff82169050919050565b6000819050919050565b600060ff82169050919050565b600061254082612547565b9050919050565b6000612552826124fe565b9050919050565b60005b8381101561257757808201518184015260208101905061255c565b83811115612586576000848401525b50505050565b600060028204905060018216806125a457607f821691505b602082108114156125b8576125b761261c565b5b50919050565b7f4e487b7100000000000000000000000000000000000000000000000000000000600052601160045260246000fd5b7f4e487b7100000000000000000000000000000000000000000000000000000000600052601260045260246000fd5b7f4e487b7100000000000000000000000000000000000000000000000000000000600052602260045260246000fd5b6000601f19601f8301169050919050565b7f4552433230536e617073686f743a206e6f6e6578697374656e74206964000000600082015250565b7f45524332303a207472616e7366657220746f20746865207a65726f206164647260008201527f6573730000000000000000000000000000000000000000000000000000000000602082015250565b7f45524332303a206275726e20616d6f756e7420657863656564732062616c616e60008201527f6365000000000000000000000000000000000000000000000000000000000000602082015250565b7f4f776e61626c653a206e6577206f776e657220697320746865207a65726f206160008201527f6464726573730000000000000000000000000000000000000000000000000000602082015250565b7f45524332303a20617070726f766520746f20746865207a65726f20616464726560008201527f7373000000000000000000000000000000000000000000000000000000000000602082015250565b7f45524332303a20696e73756666696369656e7420616c6c6f77616e6365000000600082015250565b7f45524332303a207472616e7366657220616d6f756e742065786365656473206260008201527f616c616e63650000000000000000000000000000000000000000000000000000602082015250565b7f4f776e61626c653a2063616c6c6572206973206e6f7420746865206f776e6572600082015250565b7f45524332303a206275726e2066726f6d20746865207a65726f2061646472657360008201527f7300000000000000000000000000000000000000000000000000000000000000602082015250565b7f45524332303a207472616e736665722066726f6d20746865207a65726f20616460008201527f6472657373000000000000000000000000000000000000000000000000000000602082015250565b7f45524332303a20617070726f76652066726f6d20746865207a65726f2061646460008201527f7265737300000000000000000000000000000000000000000000000000000000602082015250565b7f4552433230536e617073686f743a206964206973203000000000000000000000600082015250565b7f45524332303a2064656372656173656420616c6c6f77616e63652062656c6f7760008201527f207a65726f000000000000000000000000000000000000000000000000000000602082015250565b7f45524332303a206d696e7420746f20746865207a65726f206164647265737300600082015250565b6129f9816124e0565b8114612a0457600080fd5b50565b612a10816124f2565b8114612a1b57600080fd5b50565b612a278161251e565b8114612a3257600080fd5b5056fea26469706673582212209879ff6cfba68add0564b4944b101a4cc64243beb55427d7d83e16398485cc3564736f6c63430008040033",
  "linkReferences": {},
  "deployedLinkReferences": {}
}