{
  "_format": "hh-sol-artifact-1",
  "contractName": "StKDX",
  "sourceName": "contracts/staking/stKDX.sol",
  "abi": [
    {
      "inputs": [
        {
          "internalType": "contract IERC20",
          "name": "_kdx",
          "type": "address"
        }
      ],
      "stateMutability": "nonpayable",
      "type": "constructor"
    },
    {
      "anonymous": false,
      "inputs": [
        {
          "indexed": true,
          "internalType": "address",
          "name": "owner",
          "type": "address"
        },
        {
          "indexed": true,
          "internalType": "address",
          "name": "spender",
          "type": "address"
        },
        {
          "indexed": false,
          "internalType": "uint256",
          "name": "value",
          "type": "uint256"
        }
      ],
      "name": "Approval",
      "type": "event"
    },
    {
      "anonymous": false,
      "inputs": [
        {
          "indexed": true,
          "internalType": "address",
          "name": "previousOwner",
          "type": "address"
        },
        {
          "indexed": true,
          "internalType": "address",
          "name": "newOwner",
          "type": "address"
        }
      ],
      "name": "OwnershipTransferred",
      "type": "event"
    },
    {
      "anonymous": false,
      "inputs": [
        {
          "indexed": false,
          "internalType": "uint256",
          "name": "id",
          "type": "uint256"
        }
      ],
      "name": "Snapshot",
      "type": "event"
    },
    {
      "anonymous": false,
      "inputs": [
        {
          "indexed": true,
          "internalType": "address",
          "name": "from",
          "type": "address"
        },
        {
          "indexed": true,
          "internalType": "address",
          "name": "to",
          "type": "address"
        },
        {
          "indexed": false,
          "internalType": "uint256",
          "name": "value",
          "type": "uint256"
        }
      ],
      "name": "Transfer",
      "type": "event"
    },
    {
      "inputs": [],
      "name": "MINIMUM_LIQUIDITY",
      "outputs": [
        {
          "internalType": "uint256",
          "name": "",
          "type": "uint256"
        }
      ],
      "stateMutability": "view",
      "type": "function"
    },
    {
      "inputs": [
        {
          "internalType": "address",
          "name": "owner",
          "type": "address"
        },
        {
          "internalType": "address",
          "name": "spender",
          "type": "address"
        }
      ],
      "name": "allowance",
      "outputs": [
        {
          "internalType": "uint256",
          "name": "",
          "type": "uint256"
        }
      ],
      "stateMutability": "view",
      "type": "function"
    },
    {
      "inputs": [
        {
          "internalType": "address",
          "name": "spender",
          "type": "address"
        },
        {
          "internalType": "uint256",
          "name": "amount",
          "type": "uint256"
        }
      ],
      "name": "approve",
      "outputs": [
        {
          "internalType": "bool",
          "name": "",
          "type": "bool"
        }
      ],
      "stateMutability": "nonpayable",
      "type": "function"
    },
    {
      "inputs": [
        {
          "internalType": "address",
          "name": "account",
          "type": "address"
        }
      ],
      "name": "balanceOf",
      "outputs": [
        {
          "internalType": "uint256",
          "name": "",
          "type": "uint256"
        }
      ],
      "stateMutability": "view",
      "type": "function"
    },
    {
      "inputs": [
        {
          "internalType": "address",
          "name": "account",
          "type": "address"
        },
        {
          "internalType": "uint256",
          "name": "snapshotId",
          "type": "uint256"
        }
      ],
      "name": "balanceOfAt",
      "outputs": [
        {
          "internalType": "uint256",
          "name": "",
          "type": "uint256"
        }
      ],
      "stateMutability": "view",
      "type": "function"
    },
    {
      "inputs": [],
      "name": "decimals",
      "outputs": [
        {
          "internalType": "uint8",
          "name": "",
          "type": "uint8"
        }
      ],
      "stateMutability": "view",
      "type": "function"
    },
    {
      "inputs": [
        {
          "internalType": "address",
          "name": "spender",
          "type": "address"
        },
        {
          "internalType": "uint256",
          "name": "subtractedValue",
          "type": "uint256"
        }
      ],
      "name": "decreaseAllowance",
      "outputs": [
        {
          "internalType": "bool",
          "name": "",
          "type": "bool"
        }
      ],
      "stateMutability": "nonpayable",
      "type": "function"
    },
    {
      "inputs": [
        {
          "internalType": "uint256",
          "name": "_amount",
          "type": "uint256"
        }
      ],
      "name": "enter",
      "outputs": [],
      "stateMutability": "nonpayable",
      "type": "function"
    },
    {
      "inputs": [],
      "name": "getCurrentSnapshotId",
      "outputs": [
        {
          "internalType": "uint256",
          "name": "",
          "type": "uint256"
        }
      ],
      "stateMutability": "view",
      "type": "function"
    },
    {
      "inputs": [
        {
          "internalType": "address",
          "name": "_account",
          "type": "address"
        }
      ],
      "name": "getKdxBalance",
      "outputs": [
        {
          "internalType": "uint256",
          "name": "",
          "type": "uint256"
        }
      ],
      "stateMutability": "view",
      "type": "function"
    },
    {
      "inputs": [
        {
          "internalType": "address",
          "name": "_account",
          "type": "address"
        },
        {
          "internalType": "uint256",
          "name": "_snapShotId",
          "type": "uint256"
        }
      ],
      "name": "getKdxBalanceAt",
      "outputs": [
        {
          "internalType": "uint256",
          "name": "",
          "type": "uint256"
        }
      ],
      "stateMutability": "view",
      "type": "function"
    },
    {
      "inputs": [
        {
          "internalType": "uint256",
          "name": "_snapShotId",
          "type": "uint256"
        }
      ],
      "name": "getRatioAt",
      "outputs": [
        {
          "internalType": "uint256",
          "name": "",
          "type": "uint256"
        }
      ],
      "stateMutability": "view",
      "type": "function"
    },
    {
      "inputs": [
        {
          "internalType": "address",
          "name": "spender",
          "type": "address"
        },
        {
          "internalType": "uint256",
          "name": "addedValue",
          "type": "uint256"
        }
      ],
      "name": "increaseAllowance",
      "outputs": [
        {
          "internalType": "bool",
          "name": "",
          "type": "bool"
        }
      ],
      "stateMutability": "nonpayable",
      "type": "function"
    },
    {
      "inputs": [],
      "name": "kdx",
      "outputs": [
        {
          "internalType": "contract IERC20",
          "name": "",
          "type": "address"
        }
      ],
      "stateMutability": "view",
      "type": "function"
    },
    {
      "inputs": [
        {
          "internalType": "uint256",
          "name": "_share",
          "type": "uint256"
        }
      ],
      "name": "leave",
      "outputs": [],
      "stateMutability": "nonpayable",
      "type": "function"
    },
    {
      "inputs": [],
      "name": "name",
      "outputs": [
        {
          "internalType": "string",
          "name": "",
          "type": "string"
        }
      ],
      "stateMutability": "view",
      "type": "function"
    },
    {
      "inputs": [],
      "name": "owner",
      "outputs": [
        {
          "internalType": "address",
          "name": "",
          "type": "address"
        }
      ],
      "stateMutability": "view",
      "type": "function"
    },
    {
      "inputs": [],
      "name": "renounceOwnership",
      "outputs": [],
      "stateMutability": "nonpayable",
      "type": "function"
    },
    {
      "inputs": [
        {
          "internalType": "address",
          "name": "_new",
          "type": "address"
        }
      ],
      "name": "setSnapshoter",
      "outputs": [],
      "stateMutability": "nonpayable",
      "type": "function"
    },
    {
      "inputs": [],
      "name": "snapshot",
      "outputs": [],
      "stateMutability": "nonpayable",
      "type": "function"
    },
    {
      "inputs": [],
      "name": "snapshoter",
      "outputs": [
        {
          "internalType": "address",
          "name": "",
          "type": "address"
        }
      ],
      "stateMutability": "view",
      "type": "function"
    },
    {
      "inputs": [],
      "name": "symbol",
      "outputs": [
        {
          "internalType": "string",
          "name": "",
          "type": "string"
        }
      ],
      "stateMutability": "view",
      "type": "function"
    },
    {
      "inputs": [],
      "name": "totalSupply",
      "outputs": [
        {
          "internalType": "uint256",
          "name": "",
          "type": "uint256"
        }
      ],
      "stateMutability": "view",
      "type": "function"
    },
    {
      "inputs": [
        {
          "internalType": "uint256",
          "name": "snapshotId",
          "type": "uint256"
        }
      ],
      "name": "totalSupplyAt",
      "outputs": [
        {
          "internalType": "uint256",
          "name": "",
          "type": "uint256"
        }
      ],
      "stateMutability": "view",
      "type": "function"
    },
    {
      "inputs": [
        {
          "internalType": "address",
          "name": "to",
          "type": "address"
        },
        {
          "internalType": "uint256",
          "name": "amount",
          "type": "uint256"
        }
      ],
      "name": "transfer",
      "outputs": [
        {
          "internalType": "bool",
          "name": "",
          "type": "bool"
        }
      ],
      "stateMutability": "nonpayable",
      "type": "function"
    },
    {
      "inputs": [
        {
          "internalType": "address",
          "name": "from",
          "type": "address"
        },
        {
          "internalType": "address",
          "name": "to",
          "type": "address"
        },
        {
          "internalType": "uint256",
          "name": "amount",
          "type": "uint256"
        }
      ],
      "name": "transferFrom",
      "outputs": [
        {
          "internalType": "bool",
          "name": "",
          "type": "bool"
        }
      ],
      "stateMutability": "nonpayable",
      "type": "function"
    },
    {
      "inputs": [
        {
          "internalType": "address",
          "name": "newOwner",
          "type": "address"
        }
      ],
      "name": "transferOwnership",
      "outputs": [],
      "stateMutability": "nonpayable",
      "type": "function"
    }
  ],
  "bytecode": "0x60806040523480156200001157600080fd5b5060405162001a2738038062001a27833981016040819052620000349162000201565b604051806040016040528060058152602001640a6e89688b60db1b815250604051806040016040528060058152602001640e6e89688b60db1b8152508160039080519060200190620000889291906200015b565b5080516200009e9060049060208401906200015b565b505050620000bb620000b56200010560201b60201c565b62000109565b600a80546001600160a01b0319166001600160a01b038316179055620000de3390565b600c80546001600160a01b0319166001600160a01b0392909216919091179055506200026e565b3390565b600980546001600160a01b038381166001600160a01b0319831681179093556040519116919082907f8be0079c531659141344cd1fd0a4f28419497f9722a3daafe3b4186f6b6457e090600090a35050565b828054620001699062000231565b90600052602060002090601f0160209004810192826200018d5760008555620001d8565b82601f10620001a857805160ff1916838001178555620001d8565b82800160010185558215620001d8579182015b82811115620001d8578251825591602001919060010190620001bb565b50620001e6929150620001ea565b5090565b5b80821115620001e65760008155600101620001eb565b60006020828403121562000213578081fd5b81516001600160a01b03811681146200022a578182fd5b9392505050565b600181811c908216806200024657607f821691505b602082108114156200026857634e487b7160e01b600052602260045260246000fd5b50919050565b6117a9806200027e6000396000f3fe608060405234801561001057600080fd5b50600436106101a95760003560e01c806370a08231116100f9578063a59f3e0c11610097578063dae4781811610071578063dae478181461037e578063dd62ed3e14610391578063e137a330146103a4578063f2fde38b146103b757600080fd5b8063a59f3e0c1461034f578063a9059cbb14610362578063ba9a7a561461037557600080fd5b806395d89b41116100d357806395d89b41146103195780639711715a14610321578063981b24d014610329578063a457c2d71461033c57600080fd5b806370a08231146102c3578063715018a6146102ec5780638da5cb5b146102f457600080fd5b80632904966011610166578063395093511161014057806339509351146102825780634ee2cd7e146102955780635439ad86146102a857806367dfd4c9146102b057600080fd5b8063290496601461024b5780632e74eb2d1461025e578063313ce5671461027357600080fd5b806306fdde03146101ae578063095ea7b3146101cc5780630a13177c146101ef57806316b1e7451461021d57806318160ddd1461023057806323b872dd14610238575b600080fd5b6101b66103ca565b6040516101c39190611661565b60405180910390f35b6101df6101da3660046115e8565b61045c565b60405190151581526020016101c3565b61020f6101fd366004611631565b6000908152600b602052604090205490565b6040519081526020016101c3565b61020f61022b366004611561565b610476565b60025461020f565b6101df6102463660046115ad565b610537565b61020f6102593660046115e8565b61055b565b61027161026c366004611561565b610593565b005b604051601281526020016101c3565b6101df6102903660046115e8565b6105bd565b61020f6102a33660046115e8565b6105df565b61020f610638565b6102716102be366004611631565b610647565b61020f6102d1366004611561565b6001600160a01b031660009081526020819052604090205490565b610271610779565b6009546001600160a01b03165b6040516001600160a01b0390911681526020016101c3565b6101b661078d565b61027161079c565b61020f610337366004611631565b6108da565b6101df61034a3660046115e8565b610902565b61027161035d366004611631565b61097d565b6101df6103703660046115e8565b610a94565b61020f6103e881565b600a54610301906001600160a01b031681565b61020f61039f36600461157b565b610aa2565b600c54610301906001600160a01b031681565b6102716103c5366004611561565b610acd565b6060600380546103d990611722565b80601f016020809104026020016040519081016040528092919081815260200182805461040590611722565b80156104525780601f1061042757610100808354040283529160200191610452565b820191906000526020600020905b81548152906001019060200180831161043557829003601f168201915b5050505050905090565b60003361046a818585610b46565b60019150505b92915050565b6001600160a01b038116600090815260208190526040812054600061049a60025490565b600a546040516370a0823160e01b815230600482015291925061052f918391610529916001600160a01b03909116906370a082319060240160206040518083038186803b1580156104ea57600080fd5b505afa1580156104fe573d6000803e3d6000fd5b505050506040513d601f19601f820116820180604052508101906105229190611649565b8590610c6b565b90610c77565b949350505050565b600033610545858285610c83565b610550858585610cf7565b506001949350505050565b60008061056884846105df565b6000848152600b602052604090205490915061052f90670de0b6b3a764000090610529908490610c6b565b61059b610ed0565b600c80546001600160a01b0319166001600160a01b0392909216919091179055565b60003361046a8185856105d08383610aa2565b6105da91906116b4565b610b46565b6001600160a01b038216600090815260056020526040812081908190610606908590610f2a565b915091508161062d576001600160a01b03851660009081526020819052604090205461062f565b805b95945050505050565b600061064261102f565b905090565b600061065260025490565b600a546040516370a0823160e01b81523060048201529192506000916106e2918491610529916001600160a01b0316906370a082319060240160206040518083038186803b1580156106a357600080fd5b505afa1580156106b7573d6000803e3d6000fd5b505050506040513d601f19601f820116820180604052508101906106db9190611649565b8690610c6b565b90506106ee338461103a565b600a5460405163a9059cbb60e01b8152336004820152602481018390526001600160a01b039091169063a9059cbb906044015b602060405180830381600087803b15801561073b57600080fd5b505af115801561074f573d6000803e3d6000fd5b505050506040513d601f19601f820116820180604052508101906107739190611611565b50505050565b610781610ed0565b61078b6000611191565b565b6060600480546103d990611722565b600c546001600160a01b031633146108095760405162461bcd60e51b815260206004820152602560248201527f4f776e61626c653a2063616c6c6572206973206e6f742074686520736e6170736044820152643437ba32b960d91b60648201526084015b60405180910390fd5b6108116111e3565b50600061081c61102f565b9050600061082960025490565b905080156108d657600a546040516370a0823160e01b81523060048201526108c691839161052991670de0b6b3a7640000916001600160a01b03909116906370a082319060240160206040518083038186803b15801561088857600080fd5b505afa15801561089c573d6000803e3d6000fd5b505050506040513d601f19601f820116820180604052508101906108c09190611649565b90610c6b565b6000838152600b60205260409020555b5050565b60008060006108ea846006610f2a565b91509150816108fb5760025461052f565b9392505050565b600033816109108286610aa2565b9050838110156109705760405162461bcd60e51b815260206004820152602560248201527f45524332303a2064656372656173656420616c6c6f77616e63652062656c6f77604482015264207a65726f60d81b6064820152608401610800565b6105508286868403610b46565b600a546040516370a0823160e01b81523060048201526000916001600160a01b0316906370a082319060240160206040518083038186803b1580156109c157600080fd5b505afa1580156109d5573d6000803e3d6000fd5b505050506040513d601f19601f820116820180604052508101906109f99190611649565b90506000610a0660025490565b905080610a1a57610a1a60006103e861123d565b801580610a25575081155b15610a3957610a34338461123d565b610a57565b6000610a49836105298685610c6b565b9050610a55338261123d565b505b600a546040516323b872dd60e01b8152336004820152306024820152604481018590526001600160a01b03909116906323b872dd90606401610721565b60003361046a818585610cf7565b6001600160a01b03918216600090815260016020908152604080832093909416825291909152205490565b610ad5610ed0565b6001600160a01b038116610b3a5760405162461bcd60e51b815260206004820152602660248201527f4f776e61626c653a206e6577206f776e657220697320746865207a65726f206160448201526564647265737360d01b6064820152608401610800565b610b4381611191565b50565b6001600160a01b038316610ba85760405162461bcd60e51b8152602060048201526024808201527f45524332303a20617070726f76652066726f6d20746865207a65726f206164646044820152637265737360e01b6064820152608401610800565b6001600160a01b038216610c095760405162461bcd60e51b815260206004820152602260248201527f45524332303a20617070726f766520746f20746865207a65726f206164647265604482015261737360f01b6064820152608401610800565b6001600160a01b0383811660008181526001602090815260408083209487168084529482529182902085905590518481527f8c5be1e5ebec7d5bd14f71427d1e84f3dd0314c0f7b2291e5b200ac8c7c3b92591015b60405180910390a3505050565b60006108fb82846116ec565b60006108fb82846116cc565b6000610c8f8484610aa2565b905060001981146107735781811015610cea5760405162461bcd60e51b815260206004820152601d60248201527f45524332303a20696e73756666696369656e7420616c6c6f77616e63650000006044820152606401610800565b6107738484848403610b46565b6001600160a01b038316610d5b5760405162461bcd60e51b815260206004820152602560248201527f45524332303a207472616e736665722066726f6d20746865207a65726f206164604482015264647265737360d81b6064820152608401610800565b6001600160a01b038216610dbd5760405162461bcd60e51b815260206004820152602360248201527f45524332303a207472616e7366657220746f20746865207a65726f206164647260448201526265737360e81b6064820152608401610800565b610dc8838383611328565b6001600160a01b03831660009081526020819052604090205481811015610e405760405162461bcd60e51b815260206004820152602660248201527f45524332303a207472616e7366657220616d6f756e7420657863656564732062604482015265616c616e636560d01b6064820152608401610800565b6001600160a01b03808516600090815260208190526040808220858503905591851681529081208054849290610e779084906116b4565b92505081905550826001600160a01b0316846001600160a01b03167fddf252ad1be2c89b69c2b068fc378daa952ba7f163c4a11628f55a4df523b3ef84604051610ec391815260200190565b60405180910390a3610773565b6009546001600160a01b0316331461078b5760405162461bcd60e51b815260206004820181905260248201527f4f776e61626c653a2063616c6c6572206973206e6f7420746865206f776e65726044820152606401610800565b60008060008411610f765760405162461bcd60e51b815260206004820152601660248201527504552433230536e617073686f743a20696420697320360541b6044820152606401610800565b610f7e61102f565b841115610fcd5760405162461bcd60e51b815260206004820152601d60248201527f4552433230536e617073686f743a206e6f6e6578697374656e742069640000006044820152606401610800565b6000610fd98486611370565b8454909150811415610ff2576000809250925050611028565b600184600101828154811061101757634e487b7160e01b600052603260045260246000fd5b906000526020600020015492509250505b9250929050565b600061064260085490565b6001600160a01b03821661109a5760405162461bcd60e51b815260206004820152602160248201527f45524332303a206275726e2066726f6d20746865207a65726f206164647265736044820152607360f81b6064820152608401610800565b6110a682600083611328565b6001600160a01b0382166000908152602081905260409020548181101561111a5760405162461bcd60e51b815260206004820152602260248201527f45524332303a206275726e20616d6f756e7420657863656564732062616c616e604482015261636560f01b6064820152608401610800565b6001600160a01b038316600090815260208190526040812083830390556002805484929061114990849061170b565b90915550506040518281526000906001600160a01b038516907fddf252ad1be2c89b69c2b068fc378daa952ba7f163c4a11628f55a4df523b3ef90602001610c5e565b505050565b600980546001600160a01b038381166001600160a01b0319831681179093556040519116919082907f8be0079c531659141344cd1fd0a4f28419497f9722a3daafe3b4186f6b6457e090600090a35050565b60006111f3600880546001019055565b60006111fd61102f565b90507f8030e83b04d87bef53480e26263266d6ca66863aa8506aca6f2559d18aa1cb678160405161123091815260200190565b60405180910390a1919050565b6001600160a01b0382166112935760405162461bcd60e51b815260206004820152601f60248201527f45524332303a206d696e7420746f20746865207a65726f2061646472657373006044820152606401610800565b61129f60008383611328565b80600260008282546112b191906116b4565b90915550506001600160a01b038216600090815260208190526040812080548392906112de9084906116b4565b90915550506040518181526001600160a01b038316906000907fddf252ad1be2c89b69c2b068fc378daa952ba7f163c4a11628f55a4df523b3ef9060200160405180910390a35050565b6001600160a01b0383166113475761133f8261144f565b61118c611481565b6001600160a01b03821661135e5761133f8361144f565b6113678361144f565b61118c8261144f565b815460009061138157506000610470565b82546000905b808210156113eb57600061139b838361148f565b9050848682815481106113be57634e487b7160e01b600052603260045260246000fd5b906000526020600020015411156113d7578091506113e5565b6113e28160016116b4565b92505b50611387565b60008211801561142e5750838561140360018561170b565b8154811061142157634e487b7160e01b600052603260045260246000fd5b9060005260206000200154145b156114475761143e60018361170b565b92505050610470565b509050610470565b6001600160a01b03811660009081526005602090815260408083209183905290912054610b4391906114aa565b6114aa565b61078b600661147c60025490565b600061149e60028484186116cc565b6108fb908484166116b4565b60006114b461102f565b9050806114c0846114f4565b101561118c578254600180820185556000858152602080822090930193909355938401805494850181558252902090910155565b805460009061150557506000919050565b815482906115159060019061170b565b8154811061153357634e487b7160e01b600052603260045260246000fd5b90600052602060002001549050919050565b919050565b80356001600160a01b038116811461154557600080fd5b600060208284031215611572578081fd5b6108fb8261154a565b6000806040838503121561158d578081fd5b6115968361154a565b91506115a46020840161154a565b90509250929050565b6000806000606084860312156115c1578081fd5b6115ca8461154a565b92506115d86020850161154a565b9150604084013590509250925092565b600080604083850312156115fa578182fd5b6116038361154a565b946020939093013593505050565b600060208284031215611622578081fd5b815180151581146108fb578182fd5b600060208284031215611642578081fd5b5035919050565b60006020828403121561165a578081fd5b5051919050565b6000602080835283518082850152825b8181101561168d57858101830151858201604001528201611671565b8181111561169e5783604083870101525b50601f01601f1916929092016040019392505050565b600082198211156116c7576116c761175d565b500190565b6000826116e757634e487b7160e01b81526012600452602481fd5b500490565b60008160001904831182151516156117065761170661175d565b500290565b60008282101561171d5761171d61175d565b500390565b600181811c9082168061173657607f821691505b6020821081141561175757634e487b7160e01b600052602260045260246000fd5b50919050565b634e487b7160e01b600052601160045260246000fdfea2646970667358221220d57d767ce09dab3112b6a856e4c240a62d5355051ba6060a92c1f3b1c2f9cdc564736f6c63430008040033",
  "linkReferences": {},
  "deployedLinkReferences": {}
}