{
  "_format": "hh-sol-artifact-1",
  "contractName": "StKDX",
  "sourceName": "contracts/staking/stKDX.sol",
  "abi": [
    {
      "inputs": [
        {
          "internalType": "contract IERC20",
          "name": "_kdx",
          "type": "address"
        }
      ],
      "stateMutability": "nonpayable",
      "type": "constructor"
    },
    {
      "anonymous": false,
      "inputs": [
        {
          "indexed": true,
          "internalType": "address",
          "name": "owner",
          "type": "address"
        },
        {
          "indexed": true,
          "internalType": "address",
          "name": "spender",
          "type": "address"
        },
        {
          "indexed": false,
          "internalType": "uint256",
          "name": "value",
          "type": "uint256"
        }
      ],
      "name": "Approval",
      "type": "event"
    },
    {
      "anonymous": false,
      "inputs": [
        {
          "indexed": true,
          "internalType": "address",
          "name": "previousOwner",
          "type": "address"
        },
        {
          "indexed": true,
          "internalType": "address",
          "name": "newOwner",
          "type": "address"
        }
      ],
      "name": "OwnershipTransferred",
      "type": "event"
    },
    {
      "anonymous": false,
      "inputs": [
        {
          "indexed": false,
          "internalType": "uint256",
          "name": "id",
          "type": "uint256"
        }
      ],
      "name": "Snapshot",
      "type": "event"
    },
    {
      "anonymous": false,
      "inputs": [
        {
          "indexed": true,
          "internalType": "address",
          "name": "from",
          "type": "address"
        },
        {
          "indexed": true,
          "internalType": "address",
          "name": "to",
          "type": "address"
        },
        {
          "indexed": false,
          "internalType": "uint256",
          "name": "value",
          "type": "uint256"
        }
      ],
      "name": "Transfer",
      "type": "event"
    },
    {
      "inputs": [],
      "name": "MINIMUM_LIQUIDITY",
      "outputs": [
        {
          "internalType": "uint256",
          "name": "",
          "type": "uint256"
        }
      ],
      "stateMutability": "view",
      "type": "function"
    },
    {
      "inputs": [
        {
          "internalType": "address",
          "name": "owner",
          "type": "address"
        },
        {
          "internalType": "address",
          "name": "spender",
          "type": "address"
        }
      ],
      "name": "allowance",
      "outputs": [
        {
          "internalType": "uint256",
          "name": "",
          "type": "uint256"
        }
      ],
      "stateMutability": "view",
      "type": "function"
    },
    {
      "inputs": [
        {
          "internalType": "address",
          "name": "spender",
          "type": "address"
        },
        {
          "internalType": "uint256",
          "name": "amount",
          "type": "uint256"
        }
      ],
      "name": "approve",
      "outputs": [
        {
          "internalType": "bool",
          "name": "",
          "type": "bool"
        }
      ],
      "stateMutability": "nonpayable",
      "type": "function"
    },
    {
      "inputs": [
        {
          "internalType": "address",
          "name": "account",
          "type": "address"
        }
      ],
      "name": "balanceOf",
      "outputs": [
        {
          "internalType": "uint256",
          "name": "",
          "type": "uint256"
        }
      ],
      "stateMutability": "view",
      "type": "function"
    },
    {
      "inputs": [
        {
          "internalType": "address",
          "name": "account",
          "type": "address"
        },
        {
          "internalType": "uint256",
          "name": "snapshotId",
          "type": "uint256"
        }
      ],
      "name": "balanceOfAt",
      "outputs": [
        {
          "internalType": "uint256",
          "name": "",
          "type": "uint256"
        }
      ],
      "stateMutability": "view",
      "type": "function"
    },
    {
      "inputs": [],
      "name": "decimals",
      "outputs": [
        {
          "internalType": "uint8",
          "name": "",
          "type": "uint8"
        }
      ],
      "stateMutability": "view",
      "type": "function"
    },
    {
      "inputs": [
        {
          "internalType": "address",
          "name": "spender",
          "type": "address"
        },
        {
          "internalType": "uint256",
          "name": "subtractedValue",
          "type": "uint256"
        }
      ],
      "name": "decreaseAllowance",
      "outputs": [
        {
          "internalType": "bool",
          "name": "",
          "type": "bool"
        }
      ],
      "stateMutability": "nonpayable",
      "type": "function"
    },
    {
      "inputs": [
        {
          "internalType": "uint256",
          "name": "_amount",
          "type": "uint256"
        }
      ],
      "name": "enter",
      "outputs": [],
      "stateMutability": "nonpayable",
      "type": "function"
    },
    {
      "inputs": [],
      "name": "getCurrentSnapshotId",
      "outputs": [
        {
          "internalType": "uint256",
          "name": "",
          "type": "uint256"
        }
      ],
      "stateMutability": "view",
      "type": "function"
    },
    {
      "inputs": [
        {
          "internalType": "address",
          "name": "_account",
          "type": "address"
        }
      ],
      "name": "getKdxBalance",
      "outputs": [
        {
          "internalType": "uint256",
          "name": "",
          "type": "uint256"
        }
      ],
      "stateMutability": "view",
      "type": "function"
    },
    {
      "inputs": [
        {
          "internalType": "address",
          "name": "_account",
          "type": "address"
        },
        {
          "internalType": "uint256",
          "name": "_snapShotId",
          "type": "uint256"
        }
      ],
      "name": "getKdxBalanceAt",
      "outputs": [
        {
          "internalType": "uint256",
          "name": "",
          "type": "uint256"
        }
      ],
      "stateMutability": "view",
      "type": "function"
    },
    {
      "inputs": [
        {
          "internalType": "uint256",
          "name": "_snapShotId",
          "type": "uint256"
        }
      ],
      "name": "getRatioAt",
      "outputs": [
        {
          "internalType": "uint256",
          "name": "",
          "type": "uint256"
        }
      ],
      "stateMutability": "view",
      "type": "function"
    },
    {
      "inputs": [
        {
          "internalType": "address",
          "name": "spender",
          "type": "address"
        },
        {
          "internalType": "uint256",
          "name": "addedValue",
          "type": "uint256"
        }
      ],
      "name": "increaseAllowance",
      "outputs": [
        {
          "internalType": "bool",
          "name": "",
          "type": "bool"
        }
      ],
      "stateMutability": "nonpayable",
      "type": "function"
    },
    {
      "inputs": [],
      "name": "kdx",
      "outputs": [
        {
          "internalType": "contract IERC20",
          "name": "",
          "type": "address"
        }
      ],
      "stateMutability": "view",
      "type": "function"
    },
    {
      "inputs": [
        {
          "internalType": "uint256",
          "name": "_share",
          "type": "uint256"
        }
      ],
      "name": "leave",
      "outputs": [],
      "stateMutability": "nonpayable",
      "type": "function"
    },
    {
      "inputs": [],
      "name": "name",
      "outputs": [
        {
          "internalType": "string",
          "name": "",
          "type": "string"
        }
      ],
      "stateMutability": "view",
      "type": "function"
    },
    {
      "inputs": [],
      "name": "owner",
      "outputs": [
        {
          "internalType": "address",
          "name": "",
          "type": "address"
        }
      ],
      "stateMutability": "view",
      "type": "function"
    },
    {
      "inputs": [],
      "name": "renounceOwnership",
      "outputs": [],
      "stateMutability": "nonpayable",
      "type": "function"
    },
    {
      "inputs": [
        {
          "internalType": "address",
          "name": "_new",
          "type": "address"
        }
      ],
      "name": "setSnapshoter",
      "outputs": [],
      "stateMutability": "nonpayable",
      "type": "function"
    },
    {
      "inputs": [],
      "name": "snapshot",
      "outputs": [],
      "stateMutability": "nonpayable",
      "type": "function"
    },
    {
      "inputs": [],
      "name": "snapshoter",
      "outputs": [
        {
          "internalType": "address",
          "name": "",
          "type": "address"
        }
      ],
      "stateMutability": "view",
      "type": "function"
    },
    {
      "inputs": [],
      "name": "symbol",
      "outputs": [
        {
          "internalType": "string",
          "name": "",
          "type": "string"
        }
      ],
      "stateMutability": "view",
      "type": "function"
    },
    {
      "inputs": [],
      "name": "totalSupply",
      "outputs": [
        {
          "internalType": "uint256",
          "name": "",
          "type": "uint256"
        }
      ],
      "stateMutability": "view",
      "type": "function"
    },
    {
      "inputs": [
        {
          "internalType": "uint256",
          "name": "snapshotId",
          "type": "uint256"
        }
      ],
      "name": "totalSupplyAt",
      "outputs": [
        {
          "internalType": "uint256",
          "name": "",
          "type": "uint256"
        }
      ],
      "stateMutability": "view",
      "type": "function"
    },
    {
      "inputs": [
        {
          "internalType": "address",
          "name": "to",
          "type": "address"
        },
        {
          "internalType": "uint256",
          "name": "amount",
          "type": "uint256"
        }
      ],
      "name": "transfer",
      "outputs": [
        {
          "internalType": "bool",
          "name": "",
          "type": "bool"
        }
      ],
      "stateMutability": "nonpayable",
      "type": "function"
    },
    {
      "inputs": [
        {
          "internalType": "address",
          "name": "from",
          "type": "address"
        },
        {
          "internalType": "address",
          "name": "to",
          "type": "address"
        },
        {
          "internalType": "uint256",
          "name": "amount",
          "type": "uint256"
        }
      ],
      "name": "transferFrom",
      "outputs": [
        {
          "internalType": "bool",
          "name": "",
          "type": "bool"
        }
      ],
      "stateMutability": "nonpayable",
      "type": "function"
    },
    {
      "inputs": [
        {
          "internalType": "address",
          "name": "newOwner",
          "type": "address"
        }
      ],
      "name": "transferOwnership",
      "outputs": [],
      "stateMutability": "nonpayable",
      "type": "function"
    }
  ],
  "bytecode": "0x60806040523480156200001157600080fd5b5060405162001ab338038062001ab3833981016040819052620000349162000201565b604051806040016040528060058152602001640a6e89688b60db1b815250604051806040016040528060058152602001640e6e89688b60db1b8152508160039080519060200190620000889291906200015b565b5080516200009e9060049060208401906200015b565b505050620000bb620000b56200010560201b60201c565b62000109565b600a80546001600160a01b0319166001600160a01b038316179055620000de3390565b600c80546001600160a01b0319166001600160a01b0392909216919091179055506200026e565b3390565b600980546001600160a01b038381166001600160a01b0319831681179093556040519116919082907f8be0079c531659141344cd1fd0a4f28419497f9722a3daafe3b4186f6b6457e090600090a35050565b828054620001699062000231565b90600052602060002090601f0160209004810192826200018d5760008555620001d8565b82601f10620001a857805160ff1916838001178555620001d8565b82800160010185558215620001d8579182015b82811115620001d8578251825591602001919060010190620001bb565b50620001e6929150620001ea565b5090565b5b80821115620001e65760008155600101620001eb565b60006020828403121562000213578081fd5b81516001600160a01b03811681146200022a578182fd5b9392505050565b600181811c908216806200024657607f821691505b602082108114156200026857634e487b7160e01b600052602260045260246000fd5b50919050565b611835806200027e6000396000f3fe608060405234801561001057600080fd5b50600436106101a95760003560e01c806370a08231116100f9578063a59f3e0c11610097578063dae4781811610071578063dae478181461037e578063dd62ed3e14610391578063e137a330146103ca578063f2fde38b146103dd57600080fd5b8063a59f3e0c1461034f578063a9059cbb14610362578063ba9a7a561461037557600080fd5b806395d89b41116100d357806395d89b41146103195780639711715a14610321578063981b24d014610329578063a457c2d71461033c57600080fd5b806370a08231146102c3578063715018a6146102ec5780638da5cb5b146102f457600080fd5b80632904966011610166578063395093511161014057806339509351146102825780634ee2cd7e146102955780635439ad86146102a857806367dfd4c9146102b057600080fd5b8063290496601461024b5780632e74eb2d1461025e578063313ce5671461027357600080fd5b806306fdde03146101ae578063095ea7b3146101cc5780630a13177c146101ef57806316b1e7451461021d57806318160ddd1461023057806323b872dd14610238575b600080fd5b6101b66103f0565b6040516101c391906116b8565b60405180910390f35b6101df6101da36600461163f565b610482565b60405190151581526020016101c3565b61020f6101fd366004611688565b6000908152600b602052604090205490565b6040519081526020016101c3565b61020f61022b3660046115b8565b61049c565b60025461020f565b6101df610246366004611604565b61055d565b61020f61025936600461163f565b610581565b61027161026c3660046115b8565b6105b9565b005b604051601281526020016101c3565b6101df61029036600461163f565b61060e565b61020f6102a336600461163f565b61064d565b61020f6106a6565b6102716102be366004611688565b6106b5565b61020f6102d13660046115b8565b6001600160a01b031660009081526020819052604090205490565b6102716107e7565b6009546001600160a01b03165b6040516001600160a01b0390911681526020016101c3565b6101b661081d565b61027161082c565b61020f610337366004611688565b610965565b6101df61034a36600461163f565b61098d565b61027161035d366004611688565b610a1f565b6101df61037036600461163f565b610b36565b61020f6103e881565b600a54610301906001600160a01b031681565b61020f61039f3660046115d2565b6001600160a01b03918216600090815260016020908152604080832093909416825291909152205490565b600c54610301906001600160a01b031681565b6102716103eb3660046115b8565b610b44565b6060600380546103ff906117ae565b80601f016020809104026020016040519081016040528092919081815260200182805461042b906117ae565b80156104785780601f1061044d57610100808354040283529160200191610478565b820191906000526020600020905b81548152906001019060200180831161045b57829003601f168201915b5050505050905090565b600033610490818585610bdf565b60019150505b92915050565b6001600160a01b03811660009081526020819052604081205460006104c060025490565b600a546040516370a0823160e01b815230600482015291925061055591839161054f916001600160a01b03909116906370a082319060240160206040518083038186803b15801561051057600080fd5b505afa158015610524573d6000803e3d6000fd5b505050506040513d601f19601f8201168201806040525081019061054891906116a0565b8590610d04565b90610d10565b949350505050565b60003361056b858285610d1c565b610576858585610da8565b506001949350505050565b60008061058e848461064d565b6000848152600b602052604090205490915061055590670de0b6b3a76400009061054f908490610d04565b6009546001600160a01b031633146105ec5760405162461bcd60e51b81526004016105e39061170b565b60405180910390fd5b600c80546001600160a01b0319166001600160a01b0392909216919091179055565b3360008181526001602090815260408083206001600160a01b03871684529091528120549091906104909082908690610648908790611740565b610bdf565b6001600160a01b038216600090815260056020526040812081908190610674908590610f81565b915091508161069b576001600160a01b03851660009081526020819052604090205461069d565b805b95945050505050565b60006106b0611086565b905090565b60006106c060025490565b600a546040516370a0823160e01b815230600482015291925060009161075091849161054f916001600160a01b0316906370a082319060240160206040518083038186803b15801561071157600080fd5b505afa158015610725573d6000803e3d6000fd5b505050506040513d601f19601f8201168201806040525081019061074991906116a0565b8690610d04565b905061075c3384611091565b600a5460405163a9059cbb60e01b8152336004820152602481018390526001600160a01b039091169063a9059cbb906044015b602060405180830381600087803b1580156107a957600080fd5b505af11580156107bd573d6000803e3d6000fd5b505050506040513d601f19601f820116820180604052508101906107e19190611668565b50505050565b6009546001600160a01b031633146108115760405162461bcd60e51b81526004016105e39061170b565b61081b60006111e8565b565b6060600480546103ff906117ae565b600c546001600160a01b031633146108945760405162461bcd60e51b815260206004820152602560248201527f4f776e61626c653a2063616c6c6572206973206e6f742074686520736e6170736044820152643437ba32b960d91b60648201526084016105e3565b61089c61123a565b5060006108a7611086565b905060006108b460025490565b9050801561096157600a546040516370a0823160e01b815230600482015261095191839161054f91670de0b6b3a7640000916001600160a01b03909116906370a082319060240160206040518083038186803b15801561091357600080fd5b505afa158015610927573d6000803e3d6000fd5b505050506040513d601f19601f8201168201806040525081019061094b91906116a0565b90610d04565b6000838152600b60205260409020555b5050565b6000806000610975846006610f81565b915091508161098657600254610555565b9392505050565b3360008181526001602090815260408083206001600160a01b038716845290915281205490919083811015610a125760405162461bcd60e51b815260206004820152602560248201527f45524332303a2064656372656173656420616c6c6f77616e63652062656c6f77604482015264207a65726f60d81b60648201526084016105e3565b6105768286868403610bdf565b600a546040516370a0823160e01b81523060048201526000916001600160a01b0316906370a082319060240160206040518083038186803b158015610a6357600080fd5b505afa158015610a77573d6000803e3d6000fd5b505050506040513d601f19601f82011682018060405250810190610a9b91906116a0565b90506000610aa860025490565b905080610abc57610abc60006103e8611294565b801580610ac7575081155b15610adb57610ad63384611294565b610af9565b6000610aeb8361054f8685610d04565b9050610af73382611294565b505b600a546040516323b872dd60e01b8152336004820152306024820152604481018590526001600160a01b03909116906323b872dd9060640161078f565b600033610490818585610da8565b6009546001600160a01b03163314610b6e5760405162461bcd60e51b81526004016105e39061170b565b6001600160a01b038116610bd35760405162461bcd60e51b815260206004820152602660248201527f4f776e61626c653a206e6577206f776e657220697320746865207a65726f206160448201526564647265737360d01b60648201526084016105e3565b610bdc816111e8565b50565b6001600160a01b038316610c415760405162461bcd60e51b8152602060048201526024808201527f45524332303a20617070726f76652066726f6d20746865207a65726f206164646044820152637265737360e01b60648201526084016105e3565b6001600160a01b038216610ca25760405162461bcd60e51b815260206004820152602260248201527f45524332303a20617070726f766520746f20746865207a65726f206164647265604482015261737360f01b60648201526084016105e3565b6001600160a01b0383811660008181526001602090815260408083209487168084529482529182902085905590518481527f8c5be1e5ebec7d5bd14f71427d1e84f3dd0314c0f7b2291e5b200ac8c7c3b92591015b60405180910390a3505050565b60006109868284611778565b60006109868284611758565b6001600160a01b0383811660009081526001602090815260408083209386168352929052205460001981146107e15781811015610d9b5760405162461bcd60e51b815260206004820152601d60248201527f45524332303a20696e73756666696369656e7420616c6c6f77616e636500000060448201526064016105e3565b6107e18484848403610bdf565b6001600160a01b038316610e0c5760405162461bcd60e51b815260206004820152602560248201527f45524332303a207472616e736665722066726f6d20746865207a65726f206164604482015264647265737360d81b60648201526084016105e3565b6001600160a01b038216610e6e5760405162461bcd60e51b815260206004820152602360248201527f45524332303a207472616e7366657220746f20746865207a65726f206164647260448201526265737360e81b60648201526084016105e3565b610e7983838361137f565b6001600160a01b03831660009081526020819052604090205481811015610ef15760405162461bcd60e51b815260206004820152602660248201527f45524332303a207472616e7366657220616d6f756e7420657863656564732062604482015265616c616e636560d01b60648201526084016105e3565b6001600160a01b03808516600090815260208190526040808220858503905591851681529081208054849290610f28908490611740565b92505081905550826001600160a01b0316846001600160a01b03167fddf252ad1be2c89b69c2b068fc378daa952ba7f163c4a11628f55a4df523b3ef84604051610f7491815260200190565b60405180910390a36107e1565b60008060008411610fcd5760405162461bcd60e51b815260206004820152601660248201527504552433230536e617073686f743a20696420697320360541b60448201526064016105e3565b610fd5611086565b8411156110245760405162461bcd60e51b815260206004820152601d60248201527f4552433230536e617073686f743a206e6f6e6578697374656e7420696400000060448201526064016105e3565b600061103084866113c7565b845490915081141561104957600080925092505061107f565b600184600101828154811061106e57634e487b7160e01b600052603260045260246000fd5b906000526020600020015492509250505b9250929050565b60006106b060085490565b6001600160a01b0382166110f15760405162461bcd60e51b815260206004820152602160248201527f45524332303a206275726e2066726f6d20746865207a65726f206164647265736044820152607360f81b60648201526084016105e3565b6110fd8260008361137f565b6001600160a01b038216600090815260208190526040902054818110156111715760405162461bcd60e51b815260206004820152602260248201527f45524332303a206275726e20616d6f756e7420657863656564732062616c616e604482015261636560f01b60648201526084016105e3565b6001600160a01b03831660009081526020819052604081208383039055600280548492906111a0908490611797565b90915550506040518281526000906001600160a01b038516907fddf252ad1be2c89b69c2b068fc378daa952ba7f163c4a11628f55a4df523b3ef90602001610cf7565b505050565b600980546001600160a01b038381166001600160a01b0319831681179093556040519116919082907f8be0079c531659141344cd1fd0a4f28419497f9722a3daafe3b4186f6b6457e090600090a35050565b600061124a600880546001019055565b6000611254611086565b90507f8030e83b04d87bef53480e26263266d6ca66863aa8506aca6f2559d18aa1cb678160405161128791815260200190565b60405180910390a1919050565b6001600160a01b0382166112ea5760405162461bcd60e51b815260206004820152601f60248201527f45524332303a206d696e7420746f20746865207a65726f20616464726573730060448201526064016105e3565b6112f66000838361137f565b80600260008282546113089190611740565b90915550506001600160a01b03821660009081526020819052604081208054839290611335908490611740565b90915550506040518181526001600160a01b038316906000907fddf252ad1be2c89b69c2b068fc378daa952ba7f163c4a11628f55a4df523b3ef9060200160405180910390a35050565b6001600160a01b03831661139e57611396826114a6565b6111e36114d8565b6001600160a01b0382166113b557611396836114a6565b6113be836114a6565b6111e3826114a6565b81546000906113d857506000610496565b82546000905b808210156114425760006113f283836114e6565b90508486828154811061141557634e487b7160e01b600052603260045260246000fd5b9060005260206000200154111561142e5780915061143c565b611439816001611740565b92505b506113de565b6000821180156114855750838561145a600185611797565b8154811061147857634e487b7160e01b600052603260045260246000fd5b9060005260206000200154145b1561149e57611495600183611797565b92505050610496565b509050610496565b6001600160a01b03811660009081526005602090815260408083209183905290912054610bdc9190611501565b611501565b61081b60066114d360025490565b60006114f56002848418611758565b61098690848416611740565b600061150b611086565b9050806115178461154b565b10156111e3578254600180820185556000858152602080822090930193909355938401805494850181558252902090910155565b805460009061155c57506000919050565b8154829061156c90600190611797565b8154811061158a57634e487b7160e01b600052603260045260246000fd5b90600052602060002001549050919050565b919050565b80356001600160a01b038116811461159c57600080fd5b6000602082840312156115c9578081fd5b610986826115a1565b600080604083850312156115e4578081fd5b6115ed836115a1565b91506115fb602084016115a1565b90509250929050565b600080600060608486031215611618578081fd5b611621846115a1565b925061162f602085016115a1565b9150604084013590509250925092565b60008060408385031215611651578182fd5b61165a836115a1565b946020939093013593505050565b600060208284031215611679578081fd5b81518015158114610986578182fd5b600060208284031215611699578081fd5b5035919050565b6000602082840312156116b1578081fd5b5051919050565b6000602080835283518082850152825b818110156116e4578581018301518582016040015282016116c8565b818111156116f55783604083870101525b50601f01601f1916929092016040019392505050565b6020808252818101527f4f776e61626c653a2063616c6c6572206973206e6f7420746865206f776e6572604082015260600190565b60008219821115611753576117536117e9565b500190565b60008261177357634e487b7160e01b81526012600452602481fd5b500490565b6000816000190483118215151615611792576117926117e9565b500290565b6000828210156117a9576117a96117e9565b500390565b600181811c908216806117c257607f821691505b602082108114156117e357634e487b7160e01b600052602260045260246000fd5b50919050565b634e487b7160e01b600052601160045260246000fdfea2646970667358221220c0b1c665991feea6f3aaec558f76c4037cccd3a00cd9e166ce6483fa99ee6c5964736f6c63430008040033",
  "linkReferences": {},
  "deployedLinkReferences": {}
}