{
  "_format": "hh-sol-artifact-1",
  "contractName": "stKDX",
  "sourceName": "contracts/staking/stKDX.sol",
  "abi": [
    {
      "inputs": [
        {
          "internalType": "contract IERC20",
          "name": "_kdx",
          "type": "address"
        }
      ],
      "stateMutability": "nonpayable",
      "type": "constructor"
    },
    {
      "anonymous": false,
      "inputs": [
        {
          "indexed": true,
          "internalType": "address",
          "name": "owner",
          "type": "address"
        },
        {
          "indexed": true,
          "internalType": "address",
          "name": "spender",
          "type": "address"
        },
        {
          "indexed": false,
          "internalType": "uint256",
          "name": "value",
          "type": "uint256"
        }
      ],
      "name": "Approval",
      "type": "event"
    },
    {
      "anonymous": false,
      "inputs": [
        {
          "indexed": true,
          "internalType": "address",
          "name": "from",
          "type": "address"
        },
        {
          "indexed": true,
          "internalType": "address",
          "name": "to",
          "type": "address"
        },
        {
          "indexed": false,
          "internalType": "uint256",
          "name": "value",
          "type": "uint256"
        }
      ],
      "name": "Transfer",
      "type": "event"
    },
    {
      "inputs": [
        {
          "internalType": "address",
          "name": "owner",
          "type": "address"
        },
        {
          "internalType": "address",
          "name": "spender",
          "type": "address"
        }
      ],
      "name": "allowance",
      "outputs": [
        {
          "internalType": "uint256",
          "name": "",
          "type": "uint256"
        }
      ],
      "stateMutability": "view",
      "type": "function"
    },
    {
      "inputs": [
        {
          "internalType": "address",
          "name": "spender",
          "type": "address"
        },
        {
          "internalType": "uint256",
          "name": "amount",
          "type": "uint256"
        }
      ],
      "name": "approve",
      "outputs": [
        {
          "internalType": "bool",
          "name": "",
          "type": "bool"
        }
      ],
      "stateMutability": "nonpayable",
      "type": "function"
    },
    {
      "inputs": [
        {
          "internalType": "address",
          "name": "account",
          "type": "address"
        }
      ],
      "name": "balanceOf",
      "outputs": [
        {
          "internalType": "uint256",
          "name": "",
          "type": "uint256"
        }
      ],
      "stateMutability": "view",
      "type": "function"
    },
    {
      "inputs": [],
      "name": "decimals",
      "outputs": [
        {
          "internalType": "uint8",
          "name": "",
          "type": "uint8"
        }
      ],
      "stateMutability": "view",
      "type": "function"
    },
    {
      "inputs": [
        {
          "internalType": "address",
          "name": "spender",
          "type": "address"
        },
        {
          "internalType": "uint256",
          "name": "subtractedValue",
          "type": "uint256"
        }
      ],
      "name": "decreaseAllowance",
      "outputs": [
        {
          "internalType": "bool",
          "name": "",
          "type": "bool"
        }
      ],
      "stateMutability": "nonpayable",
      "type": "function"
    },
    {
      "inputs": [
        {
          "internalType": "uint256",
          "name": "_amount",
          "type": "uint256"
        }
      ],
      "name": "enter",
      "outputs": [],
      "stateMutability": "nonpayable",
      "type": "function"
    },
    {
      "inputs": [
        {
          "internalType": "address",
          "name": "spender",
          "type": "address"
        },
        {
          "internalType": "uint256",
          "name": "addedValue",
          "type": "uint256"
        }
      ],
      "name": "increaseAllowance",
      "outputs": [
        {
          "internalType": "bool",
          "name": "",
          "type": "bool"
        }
      ],
      "stateMutability": "nonpayable",
      "type": "function"
    },
    {
      "inputs": [],
      "name": "kdx",
      "outputs": [
        {
          "internalType": "contract IERC20",
          "name": "",
          "type": "address"
        }
      ],
      "stateMutability": "view",
      "type": "function"
    },
    {
      "inputs": [
        {
          "internalType": "uint256",
          "name": "_share",
          "type": "uint256"
        }
      ],
      "name": "leave",
      "outputs": [],
      "stateMutability": "nonpayable",
      "type": "function"
    },
    {
      "inputs": [],
      "name": "name",
      "outputs": [
        {
          "internalType": "string",
          "name": "",
          "type": "string"
        }
      ],
      "stateMutability": "view",
      "type": "function"
    },
    {
      "inputs": [],
      "name": "symbol",
      "outputs": [
        {
          "internalType": "string",
          "name": "",
          "type": "string"
        }
      ],
      "stateMutability": "view",
      "type": "function"
    },
    {
      "inputs": [],
      "name": "totalSupply",
      "outputs": [
        {
          "internalType": "uint256",
          "name": "",
          "type": "uint256"
        }
      ],
      "stateMutability": "view",
      "type": "function"
    },
    {
      "inputs": [
        {
          "internalType": "address",
          "name": "to",
          "type": "address"
        },
        {
          "internalType": "uint256",
          "name": "amount",
          "type": "uint256"
        }
      ],
      "name": "transfer",
      "outputs": [
        {
          "internalType": "bool",
          "name": "",
          "type": "bool"
        }
      ],
      "stateMutability": "nonpayable",
      "type": "function"
    },
    {
      "inputs": [
        {
          "internalType": "address",
          "name": "from",
          "type": "address"
        },
        {
          "internalType": "address",
          "name": "to",
          "type": "address"
        },
        {
          "internalType": "uint256",
          "name": "amount",
          "type": "uint256"
        }
      ],
      "name": "transferFrom",
      "outputs": [
        {
          "internalType": "bool",
          "name": "",
          "type": "bool"
        }
      ],
      "stateMutability": "nonpayable",
      "type": "function"
    }
  ],
  "bytecode": "0x60806040523480156200001157600080fd5b50604051620021bc380380620021bc8339818101604052810190620000379190620001e6565b6040518060400160405280600581526020017f73744b44580000000000000000000000000000000000000000000000000000008152506040518060400160405280600581526020017f73744b44580000000000000000000000000000000000000000000000000000008152508160039080519060200190620000bb9291906200011f565b508060049080519060200190620000d49291906200011f565b50505080600560006101000a81548173ffffffffffffffffffffffffffffffffffffffff021916908373ffffffffffffffffffffffffffffffffffffffff16021790555050620002d9565b8280546200012d906200025a565b90600052602060002090601f0160209004810192826200015157600085556200019d565b82601f106200016c57805160ff19168380011785556200019d565b828001600101855582156200019d579182015b828111156200019c5782518255916020019190600101906200017f565b5b509050620001ac9190620001b0565b5090565b5b80821115620001cb576000816000905550600101620001b1565b5090565b600081519050620001e081620002bf565b92915050565b600060208284031215620001f957600080fd5b60006200020984828501620001cf565b91505092915050565b60006200021f826200023a565b9050919050565b6000620002338262000212565b9050919050565b600073ffffffffffffffffffffffffffffffffffffffff82169050919050565b600060028204905060018216806200027357607f821691505b602082108114156200028a576200028962000290565b5b50919050565b7f4e487b7100000000000000000000000000000000000000000000000000000000600052602260045260246000fd5b620002ca8162000226565b8114620002d657600080fd5b50565b611ed380620002e96000396000f3fe608060405234801561001057600080fd5b50600436106100ea5760003560e01c806370a082311161008c578063a59f3e0c11610066578063a59f3e0c14610273578063a9059cbb1461028f578063dae47818146102bf578063dd62ed3e146102dd576100ea565b806370a08231146101f557806395d89b4114610225578063a457c2d714610243576100ea565b806323b872dd116100c857806323b872dd1461015b578063313ce5671461018b57806339509351146101a957806367dfd4c9146101d9576100ea565b806306fdde03146100ef578063095ea7b31461010d57806318160ddd1461013d575b600080fd5b6100f761030d565b6040516101049190611749565b60405180910390f35b610127600480360381019061012291906113ff565b61039f565b6040516101349190611713565b60405180910390f35b6101456103c2565b60405161015291906118ab565b60405180910390f35b610175600480360381019061017091906113b0565b6103cc565b6040516101829190611713565b60405180910390f35b6101936103fb565b6040516101a091906118c6565b60405180910390f35b6101c360048036038101906101be91906113ff565b610404565b6040516101d09190611713565b60405180910390f35b6101f360048036038101906101ee9190611464565b6104ae565b005b61020f600480360381019061020a919061134b565b61064c565b60405161021c91906118ab565b60405180910390f35b61022d610694565b60405161023a9190611749565b60405180910390f35b61025d600480360381019061025891906113ff565b610726565b60405161026a9190611713565b60405180910390f35b61028d60048036038101906102889190611464565b610810565b005b6102a960048036038101906102a491906113ff565b6109da565b6040516102b69190611713565b60405180910390f35b6102c76109fd565b6040516102d4919061172e565b60405180910390f35b6102f760048036038101906102f29190611374565b610a23565b60405161030491906118ab565b60405180910390f35b60606003805461031c90611abe565b80601f016020809104026020016040519081016040528092919081815260200182805461034890611abe565b80156103955780601f1061036a57610100808354040283529160200191610395565b820191906000526020600020905b81548152906001019060200180831161037857829003601f168201915b5050505050905090565b6000806103aa610aaa565b90506103b7818585610ab2565b600191505092915050565b6000600254905090565b6000806103d7610aaa565b90506103e4858285610c7d565b6103ef858585610d09565b60019150509392505050565b60006012905090565b60008061040f610aaa565b90506104a3818585600160008673ffffffffffffffffffffffffffffffffffffffff1673ffffffffffffffffffffffffffffffffffffffff16815260200190815260200160002060008973ffffffffffffffffffffffffffffffffffffffff1673ffffffffffffffffffffffffffffffffffffffff1681526020019081526020016000205461049e91906118fd565b610ab2565b600191505092915050565b60006104b86103c2565b9050600061058b8261057d600560009054906101000a900473ffffffffffffffffffffffffffffffffffffffff1673ffffffffffffffffffffffffffffffffffffffff166370a08231306040518263ffffffff1660e01b815260040161051e9190611698565b60206040518083038186803b15801561053657600080fd5b505afa15801561054a573d6000803e3d6000fd5b505050506040513d601f19601f8201168201806040525081019061056e919061148d565b86610f8a90919063ffffffff16565b610fa090919063ffffffff16565b90506105973384610fb6565b600560009054906101000a900473ffffffffffffffffffffffffffffffffffffffff1673ffffffffffffffffffffffffffffffffffffffff1663a9059cbb33836040518363ffffffff1660e01b81526004016105f49291906116ea565b602060405180830381600087803b15801561060e57600080fd5b505af1158015610622573d6000803e3d6000fd5b505050506040513d601f19601f82011682018060405250810190610646919061143b565b50505050565b60008060008373ffffffffffffffffffffffffffffffffffffffff1673ffffffffffffffffffffffffffffffffffffffff168152602001908152602001600020549050919050565b6060600480546106a390611abe565b80601f01602080910402602001604051908101604052809291908181526020018280546106cf90611abe565b801561071c5780601f106106f15761010080835404028352916020019161071c565b820191906000526020600020905b8154815290600101906020018083116106ff57829003601f168201915b5050505050905090565b600080610731610aaa565b90506000600160008373ffffffffffffffffffffffffffffffffffffffff1673ffffffffffffffffffffffffffffffffffffffff16815260200190815260200160002060008673ffffffffffffffffffffffffffffffffffffffff1673ffffffffffffffffffffffffffffffffffffffff168152602001908152602001600020549050838110156107f7576040517f08c379a00000000000000000000000000000000000000000000000000000000081526004016107ee9061186b565b60405180910390fd5b6108048286868403610ab2565b60019250505092915050565b6000600560009054906101000a900473ffffffffffffffffffffffffffffffffffffffff1673ffffffffffffffffffffffffffffffffffffffff166370a08231306040518263ffffffff1660e01b815260040161086d9190611698565b60206040518083038186803b15801561088557600080fd5b505afa158015610899573d6000803e3d6000fd5b505050506040513d601f19601f820116820180604052508101906108bd919061148d565b905060006108c96103c2565b905060008114806108da5750600082145b156108ee576108e9338461118d565b610923565b6000610915836109078487610f8a90919063ffffffff16565b610fa090919063ffffffff16565b9050610921338261118d565b505b600560009054906101000a900473ffffffffffffffffffffffffffffffffffffffff1673ffffffffffffffffffffffffffffffffffffffff166323b872dd3330866040518463ffffffff1660e01b8152600401610982939291906116b3565b602060405180830381600087803b15801561099c57600080fd5b505af11580156109b0573d6000803e3d6000fd5b505050506040513d601f19601f820116820180604052508101906109d4919061143b565b50505050565b6000806109e5610aaa565b90506109f2818585610d09565b600191505092915050565b600560009054906101000a900473ffffffffffffffffffffffffffffffffffffffff1681565b6000600160008473ffffffffffffffffffffffffffffffffffffffff1673ffffffffffffffffffffffffffffffffffffffff16815260200190815260200160002060008373ffffffffffffffffffffffffffffffffffffffff1673ffffffffffffffffffffffffffffffffffffffff16815260200190815260200160002054905092915050565b600033905090565b600073ffffffffffffffffffffffffffffffffffffffff168373ffffffffffffffffffffffffffffffffffffffff161415610b22576040517f08c379a0000000000000000000000000000000000000000000000000000000008152600401610b199061184b565b60405180910390fd5b600073ffffffffffffffffffffffffffffffffffffffff168273ffffffffffffffffffffffffffffffffffffffff161415610b92576040517f08c379a0000000000000000000000000000000000000000000000000000000008152600401610b89906117ab565b60405180910390fd5b80600160008573ffffffffffffffffffffffffffffffffffffffff1673ffffffffffffffffffffffffffffffffffffffff16815260200190815260200160002060008473ffffffffffffffffffffffffffffffffffffffff1673ffffffffffffffffffffffffffffffffffffffff168152602001908152602001600020819055508173ffffffffffffffffffffffffffffffffffffffff168373ffffffffffffffffffffffffffffffffffffffff167f8c5be1e5ebec7d5bd14f71427d1e84f3dd0314c0f7b2291e5b200ac8c7c3b92583604051610c7091906118ab565b60405180910390a3505050565b6000610c898484610a23565b90507fffffffffffffffffffffffffffffffffffffffffffffffffffffffffffffffff8114610d035781811015610cf5576040517f08c379a0000000000000000000000000000000000000000000000000000000008152600401610cec906117cb565b60405180910390fd5b610d028484848403610ab2565b5b50505050565b600073ffffffffffffffffffffffffffffffffffffffff168373ffffffffffffffffffffffffffffffffffffffff161415610d79576040517f08c379a0000000000000000000000000000000000000000000000000000000008152600401610d709061182b565b60405180910390fd5b600073ffffffffffffffffffffffffffffffffffffffff168273ffffffffffffffffffffffffffffffffffffffff161415610de9576040517f08c379a0000000000000000000000000000000000000000000000000000000008152600401610de09061176b565b60405180910390fd5b610df48383836112ed565b60008060008573ffffffffffffffffffffffffffffffffffffffff1673ffffffffffffffffffffffffffffffffffffffff16815260200190815260200160002054905081811015610e7a576040517f08c379a0000000000000000000000000000000000000000000000000000000008152600401610e71906117eb565b60405180910390fd5b8181036000808673ffffffffffffffffffffffffffffffffffffffff1673ffffffffffffffffffffffffffffffffffffffff16815260200190815260200160002081905550816000808573ffffffffffffffffffffffffffffffffffffffff1673ffffffffffffffffffffffffffffffffffffffff1681526020019081526020016000206000828254610f0d91906118fd565b925050819055508273ffffffffffffffffffffffffffffffffffffffff168473ffffffffffffffffffffffffffffffffffffffff167fddf252ad1be2c89b69c2b068fc378daa952ba7f163c4a11628f55a4df523b3ef84604051610f7191906118ab565b60405180910390a3610f848484846112f2565b50505050565b60008183610f989190611984565b905092915050565b60008183610fae9190611953565b905092915050565b600073ffffffffffffffffffffffffffffffffffffffff168273ffffffffffffffffffffffffffffffffffffffff161415611026576040517f08c379a000000000000000000000000000000000000000000000000000000000815260040161101d9061180b565b60405180910390fd5b611032826000836112ed565b60008060008473ffffffffffffffffffffffffffffffffffffffff1673ffffffffffffffffffffffffffffffffffffffff168152602001908152602001600020549050818110156110b8576040517f08c379a00000000000000000000000000000000000000000000000000000000081526004016110af9061178b565b60405180910390fd5b8181036000808573ffffffffffffffffffffffffffffffffffffffff1673ffffffffffffffffffffffffffffffffffffffff16815260200190815260200160002081905550816002600082825461110f91906119de565b92505081905550600073ffffffffffffffffffffffffffffffffffffffff168373ffffffffffffffffffffffffffffffffffffffff167fddf252ad1be2c89b69c2b068fc378daa952ba7f163c4a11628f55a4df523b3ef8460405161117491906118ab565b60405180910390a3611188836000846112f2565b505050565b600073ffffffffffffffffffffffffffffffffffffffff168273ffffffffffffffffffffffffffffffffffffffff1614156111fd576040517f08c379a00000000000000000000000000000000000000000000000000000000081526004016111f49061188b565b60405180910390fd5b611209600083836112ed565b806002600082825461121b91906118fd565b92505081905550806000808473ffffffffffffffffffffffffffffffffffffffff1673ffffffffffffffffffffffffffffffffffffffff168152602001908152602001600020600082825461127091906118fd565b925050819055508173ffffffffffffffffffffffffffffffffffffffff16600073ffffffffffffffffffffffffffffffffffffffff167fddf252ad1be2c89b69c2b068fc378daa952ba7f163c4a11628f55a4df523b3ef836040516112d591906118ab565b60405180910390a36112e9600083836112f2565b5050565b505050565b505050565b60008135905061130681611e58565b92915050565b60008151905061131b81611e6f565b92915050565b60008135905061133081611e86565b92915050565b60008151905061134581611e86565b92915050565b60006020828403121561135d57600080fd5b600061136b848285016112f7565b91505092915050565b6000806040838503121561138757600080fd5b6000611395858286016112f7565b92505060206113a6858286016112f7565b9150509250929050565b6000806000606084860312156113c557600080fd5b60006113d3868287016112f7565b93505060206113e4868287016112f7565b92505060406113f586828701611321565b9150509250925092565b6000806040838503121561141257600080fd5b6000611420858286016112f7565b925050602061143185828601611321565b9150509250929050565b60006020828403121561144d57600080fd5b600061145b8482850161130c565b91505092915050565b60006020828403121561147657600080fd5b600061148484828501611321565b91505092915050565b60006020828403121561149f57600080fd5b60006114ad84828501611336565b91505092915050565b6114bf81611a12565b82525050565b6114ce81611a24565b82525050565b6114dd81611a67565b82525050565b60006114ee826118e1565b6114f881856118ec565b9350611508818560208601611a8b565b61151181611b7d565b840191505092915050565b60006115296023836118ec565b915061153482611b8e565b604082019050919050565b600061154c6022836118ec565b915061155782611bdd565b604082019050919050565b600061156f6022836118ec565b915061157a82611c2c565b604082019050919050565b6000611592601d836118ec565b915061159d82611c7b565b602082019050919050565b60006115b56026836118ec565b91506115c082611ca4565b604082019050919050565b60006115d86021836118ec565b91506115e382611cf3565b604082019050919050565b60006115fb6025836118ec565b915061160682611d42565b604082019050919050565b600061161e6024836118ec565b915061162982611d91565b604082019050919050565b60006116416025836118ec565b915061164c82611de0565b604082019050919050565b6000611664601f836118ec565b915061166f82611e2f565b602082019050919050565b61168381611a50565b82525050565b61169281611a5a565b82525050565b60006020820190506116ad60008301846114b6565b92915050565b60006060820190506116c860008301866114b6565b6116d560208301856114b6565b6116e2604083018461167a565b949350505050565b60006040820190506116ff60008301856114b6565b61170c602083018461167a565b9392505050565b600060208201905061172860008301846114c5565b92915050565b600060208201905061174360008301846114d4565b92915050565b6000602082019050818103600083015261176381846114e3565b905092915050565b600060208201905081810360008301526117848161151c565b9050919050565b600060208201905081810360008301526117a48161153f565b9050919050565b600060208201905081810360008301526117c481611562565b9050919050565b600060208201905081810360008301526117e481611585565b9050919050565b60006020820190508181036000830152611804816115a8565b9050919050565b60006020820190508181036000830152611824816115cb565b9050919050565b60006020820190508181036000830152611844816115ee565b9050919050565b6000602082019050818103600083015261186481611611565b9050919050565b6000602082019050818103600083015261188481611634565b9050919050565b600060208201905081810360008301526118a481611657565b9050919050565b60006020820190506118c0600083018461167a565b92915050565b60006020820190506118db6000830184611689565b92915050565b600081519050919050565b600082825260208201905092915050565b600061190882611a50565b915061191383611a50565b9250827fffffffffffffffffffffffffffffffffffffffffffffffffffffffffffffffff0382111561194857611947611af0565b5b828201905092915050565b600061195e82611a50565b915061196983611a50565b92508261197957611978611b1f565b5b828204905092915050565b600061198f82611a50565b915061199a83611a50565b9250817fffffffffffffffffffffffffffffffffffffffffffffffffffffffffffffffff04831182151516156119d3576119d2611af0565b5b828202905092915050565b60006119e982611a50565b91506119f483611a50565b925082821015611a0757611a06611af0565b5b828203905092915050565b6000611a1d82611a30565b9050919050565b60008115159050919050565b600073ffffffffffffffffffffffffffffffffffffffff82169050919050565b6000819050919050565b600060ff82169050919050565b6000611a7282611a79565b9050919050565b6000611a8482611a30565b9050919050565b60005b83811015611aa9578082015181840152602081019050611a8e565b83811115611ab8576000848401525b50505050565b60006002820490506001821680611ad657607f821691505b60208210811415611aea57611ae9611b4e565b5b50919050565b7f4e487b7100000000000000000000000000000000000000000000000000000000600052601160045260246000fd5b7f4e487b7100000000000000000000000000000000000000000000000000000000600052601260045260246000fd5b7f4e487b7100000000000000000000000000000000000000000000000000000000600052602260045260246000fd5b6000601f19601f8301169050919050565b7f45524332303a207472616e7366657220746f20746865207a65726f206164647260008201527f6573730000000000000000000000000000000000000000000000000000000000602082015250565b7f45524332303a206275726e20616d6f756e7420657863656564732062616c616e60008201527f6365000000000000000000000000000000000000000000000000000000000000602082015250565b7f45524332303a20617070726f766520746f20746865207a65726f20616464726560008201527f7373000000000000000000000000000000000000000000000000000000000000602082015250565b7f45524332303a20696e73756666696369656e7420616c6c6f77616e6365000000600082015250565b7f45524332303a207472616e7366657220616d6f756e742065786365656473206260008201527f616c616e63650000000000000000000000000000000000000000000000000000602082015250565b7f45524332303a206275726e2066726f6d20746865207a65726f2061646472657360008201527f7300000000000000000000000000000000000000000000000000000000000000602082015250565b7f45524332303a207472616e736665722066726f6d20746865207a65726f20616460008201527f6472657373000000000000000000000000000000000000000000000000000000602082015250565b7f45524332303a20617070726f76652066726f6d20746865207a65726f2061646460008201527f7265737300000000000000000000000000000000000000000000000000000000602082015250565b7f45524332303a2064656372656173656420616c6c6f77616e63652062656c6f7760008201527f207a65726f000000000000000000000000000000000000000000000000000000602082015250565b7f45524332303a206d696e7420746f20746865207a65726f206164647265737300600082015250565b611e6181611a12565b8114611e6c57600080fd5b50565b611e7881611a24565b8114611e8357600080fd5b50565b611e8f81611a50565b8114611e9a57600080fd5b5056fea2646970667358221220b9eb803fd1572b018ea22a559dc128e4698bd590d3f2fc958a1a34cbcaeffe9964736f6c63430008040033",
  "linkReferences": {},
  "deployedLinkReferences": {}
}