{
  "_format": "hh-sol-artifact-1",
  "contractName": "StKDX",
  "sourceName": "contracts/staking/stKDX.sol",
  "abi": [
    {
      "inputs": [
        {
          "internalType": "contract IERC20",
          "name": "_kdx",
          "type": "address"
        }
      ],
      "stateMutability": "nonpayable",
      "type": "constructor"
    },
    {
      "anonymous": false,
      "inputs": [
        {
          "indexed": true,
          "internalType": "address",
          "name": "owner",
          "type": "address"
        },
        {
          "indexed": true,
          "internalType": "address",
          "name": "spender",
          "type": "address"
        },
        {
          "indexed": false,
          "internalType": "uint256",
          "name": "value",
          "type": "uint256"
        }
      ],
      "name": "Approval",
      "type": "event"
    },
    {
      "anonymous": false,
      "inputs": [
        {
          "indexed": true,
          "internalType": "address",
          "name": "previousOwner",
          "type": "address"
        },
        {
          "indexed": true,
          "internalType": "address",
          "name": "newOwner",
          "type": "address"
        }
      ],
      "name": "OwnershipTransferred",
      "type": "event"
    },
    {
      "anonymous": false,
      "inputs": [
        {
          "indexed": false,
          "internalType": "uint256",
          "name": "id",
          "type": "uint256"
        }
      ],
      "name": "Snapshot",
      "type": "event"
    },
    {
      "anonymous": false,
      "inputs": [
        {
          "indexed": true,
          "internalType": "address",
          "name": "from",
          "type": "address"
        },
        {
          "indexed": true,
          "internalType": "address",
          "name": "to",
          "type": "address"
        },
        {
          "indexed": false,
          "internalType": "uint256",
          "name": "value",
          "type": "uint256"
        }
      ],
      "name": "Transfer",
      "type": "event"
    },
    {
      "inputs": [
        {
          "internalType": "address",
          "name": "owner",
          "type": "address"
        },
        {
          "internalType": "address",
          "name": "spender",
          "type": "address"
        }
      ],
      "name": "allowance",
      "outputs": [
        {
          "internalType": "uint256",
          "name": "",
          "type": "uint256"
        }
      ],
      "stateMutability": "view",
      "type": "function"
    },
    {
      "inputs": [
        {
          "internalType": "address",
          "name": "spender",
          "type": "address"
        },
        {
          "internalType": "uint256",
          "name": "amount",
          "type": "uint256"
        }
      ],
      "name": "approve",
      "outputs": [
        {
          "internalType": "bool",
          "name": "",
          "type": "bool"
        }
      ],
      "stateMutability": "nonpayable",
      "type": "function"
    },
    {
      "inputs": [
        {
          "internalType": "address",
          "name": "account",
          "type": "address"
        }
      ],
      "name": "balanceOf",
      "outputs": [
        {
          "internalType": "uint256",
          "name": "",
          "type": "uint256"
        }
      ],
      "stateMutability": "view",
      "type": "function"
    },
    {
      "inputs": [
        {
          "internalType": "address",
          "name": "account",
          "type": "address"
        },
        {
          "internalType": "uint256",
          "name": "snapshotId",
          "type": "uint256"
        }
      ],
      "name": "balanceOfAt",
      "outputs": [
        {
          "internalType": "uint256",
          "name": "",
          "type": "uint256"
        }
      ],
      "stateMutability": "view",
      "type": "function"
    },
    {
      "inputs": [],
      "name": "decimals",
      "outputs": [
        {
          "internalType": "uint8",
          "name": "",
          "type": "uint8"
        }
      ],
      "stateMutability": "view",
      "type": "function"
    },
    {
      "inputs": [
        {
          "internalType": "address",
          "name": "spender",
          "type": "address"
        },
        {
          "internalType": "uint256",
          "name": "subtractedValue",
          "type": "uint256"
        }
      ],
      "name": "decreaseAllowance",
      "outputs": [
        {
          "internalType": "bool",
          "name": "",
          "type": "bool"
        }
      ],
      "stateMutability": "nonpayable",
      "type": "function"
    },
    {
      "inputs": [
        {
          "internalType": "uint256",
          "name": "_amount",
          "type": "uint256"
        }
      ],
      "name": "enter",
      "outputs": [],
      "stateMutability": "nonpayable",
      "type": "function"
    },
    {
      "inputs": [],
      "name": "getCurrentSnapshotId",
      "outputs": [
        {
          "internalType": "uint256",
          "name": "",
          "type": "uint256"
        }
      ],
      "stateMutability": "view",
      "type": "function"
    },
    {
      "inputs": [
        {
          "internalType": "address",
          "name": "_account",
          "type": "address"
        }
      ],
      "name": "getKdxBalance",
      "outputs": [
        {
          "internalType": "uint256",
          "name": "",
          "type": "uint256"
        }
      ],
      "stateMutability": "view",
      "type": "function"
    },
    {
      "inputs": [
        {
          "internalType": "address",
          "name": "_account",
          "type": "address"
        },
        {
          "internalType": "uint256",
          "name": "_snapShotId",
          "type": "uint256"
        }
      ],
      "name": "getKdxBalanceAt",
      "outputs": [
        {
          "internalType": "uint256",
          "name": "",
          "type": "uint256"
        }
      ],
      "stateMutability": "view",
      "type": "function"
    },
    {
      "inputs": [
        {
          "internalType": "uint256",
          "name": "_snapShotId",
          "type": "uint256"
        }
      ],
      "name": "getRatioAt",
      "outputs": [
        {
          "internalType": "uint256",
          "name": "",
          "type": "uint256"
        }
      ],
      "stateMutability": "view",
      "type": "function"
    },
    {
      "inputs": [
        {
          "internalType": "address",
          "name": "spender",
          "type": "address"
        },
        {
          "internalType": "uint256",
          "name": "addedValue",
          "type": "uint256"
        }
      ],
      "name": "increaseAllowance",
      "outputs": [
        {
          "internalType": "bool",
          "name": "",
          "type": "bool"
        }
      ],
      "stateMutability": "nonpayable",
      "type": "function"
    },
    {
      "inputs": [],
      "name": "kdx",
      "outputs": [
        {
          "internalType": "contract IERC20",
          "name": "",
          "type": "address"
        }
      ],
      "stateMutability": "view",
      "type": "function"
    },
    {
      "inputs": [
        {
          "internalType": "uint256",
          "name": "_share",
          "type": "uint256"
        }
      ],
      "name": "leave",
      "outputs": [],
      "stateMutability": "nonpayable",
      "type": "function"
    },
    {
      "inputs": [],
      "name": "name",
      "outputs": [
        {
          "internalType": "string",
          "name": "",
          "type": "string"
        }
      ],
      "stateMutability": "view",
      "type": "function"
    },
    {
      "inputs": [],
      "name": "owner",
      "outputs": [
        {
          "internalType": "address",
          "name": "",
          "type": "address"
        }
      ],
      "stateMutability": "view",
      "type": "function"
    },
    {
      "inputs": [],
      "name": "renounceOwnership",
      "outputs": [],
      "stateMutability": "nonpayable",
      "type": "function"
    },
    {
      "inputs": [],
      "name": "snapshot",
      "outputs": [],
      "stateMutability": "nonpayable",
      "type": "function"
    },
    {
      "inputs": [],
      "name": "symbol",
      "outputs": [
        {
          "internalType": "string",
          "name": "",
          "type": "string"
        }
      ],
      "stateMutability": "view",
      "type": "function"
    },
    {
      "inputs": [],
      "name": "totalSupply",
      "outputs": [
        {
          "internalType": "uint256",
          "name": "",
          "type": "uint256"
        }
      ],
      "stateMutability": "view",
      "type": "function"
    },
    {
      "inputs": [
        {
          "internalType": "uint256",
          "name": "snapshotId",
          "type": "uint256"
        }
      ],
      "name": "totalSupplyAt",
      "outputs": [
        {
          "internalType": "uint256",
          "name": "",
          "type": "uint256"
        }
      ],
      "stateMutability": "view",
      "type": "function"
    },
    {
      "inputs": [
        {
          "internalType": "address",
          "name": "to",
          "type": "address"
        },
        {
          "internalType": "uint256",
          "name": "amount",
          "type": "uint256"
        }
      ],
      "name": "transfer",
      "outputs": [
        {
          "internalType": "bool",
          "name": "",
          "type": "bool"
        }
      ],
      "stateMutability": "nonpayable",
      "type": "function"
    },
    {
      "inputs": [
        {
          "internalType": "address",
          "name": "from",
          "type": "address"
        },
        {
          "internalType": "address",
          "name": "to",
          "type": "address"
        },
        {
          "internalType": "uint256",
          "name": "amount",
          "type": "uint256"
        }
      ],
      "name": "transferFrom",
      "outputs": [
        {
          "internalType": "bool",
          "name": "",
          "type": "bool"
        }
      ],
      "stateMutability": "nonpayable",
      "type": "function"
    },
    {
      "inputs": [
        {
          "internalType": "address",
          "name": "newOwner",
          "type": "address"
        }
      ],
      "name": "transferOwnership",
      "outputs": [],
      "stateMutability": "nonpayable",
      "type": "function"
    }
  ],
  "bytecode": "0x60806040523480156200001157600080fd5b506040516200316c3803806200316c8339818101604052810190620000379190620002d4565b6040518060400160405280600581526020017f73744b44580000000000000000000000000000000000000000000000000000008152506040518060400160405280600581526020017f73744b44580000000000000000000000000000000000000000000000000000008152508160039080519060200190620000bb9291906200020d565b508060049080519060200190620000d49291906200020d565b505050620000f7620000eb6200013f60201b60201c565b6200014760201b60201c565b80600a60006101000a81548173ffffffffffffffffffffffffffffffffffffffff021916908373ffffffffffffffffffffffffffffffffffffffff16021790555050620003c7565b600033905090565b6000600960009054906101000a900473ffffffffffffffffffffffffffffffffffffffff16905081600960006101000a81548173ffffffffffffffffffffffffffffffffffffffff021916908373ffffffffffffffffffffffffffffffffffffffff1602179055508173ffffffffffffffffffffffffffffffffffffffff168173ffffffffffffffffffffffffffffffffffffffff167f8be0079c531659141344cd1fd0a4f28419497f9722a3daafe3b4186f6b6457e060405160405180910390a35050565b8280546200021b9062000348565b90600052602060002090601f0160209004810192826200023f57600085556200028b565b82601f106200025a57805160ff19168380011785556200028b565b828001600101855582156200028b579182015b828111156200028a5782518255916020019190600101906200026d565b5b5090506200029a91906200029e565b5090565b5b80821115620002b95760008160009055506001016200029f565b5090565b600081519050620002ce81620003ad565b92915050565b600060208284031215620002e757600080fd5b6000620002f784828501620002bd565b91505092915050565b60006200030d8262000328565b9050919050565b6000620003218262000300565b9050919050565b600073ffffffffffffffffffffffffffffffffffffffff82169050919050565b600060028204905060018216806200036157607f821691505b602082108114156200037857620003776200037e565b5b50919050565b7f4e487b7100000000000000000000000000000000000000000000000000000000600052602260045260246000fd5b620003b88162000314565b8114620003c457600080fd5b50565b612d9580620003d76000396000f3fe608060405234801561001057600080fd5b50600436106101585760003560e01c806370a08231116100c3578063a457c2d71161007c578063a457c2d7146103f1578063a59f3e0c14610421578063a9059cbb1461043d578063dae478181461046d578063dd62ed3e1461048b578063f2fde38b146104bb57610158565b806370a0823114610341578063715018a6146103715780638da5cb5b1461037b57806395d89b41146103995780639711715a146103b7578063981b24d0146103c157610158565b806329049660116101155780632904966014610259578063313ce5671461028957806339509351146102a75780634ee2cd7e146102d75780635439ad861461030757806367dfd4c91461032557610158565b806306fdde031461015d578063095ea7b31461017b5780630a13177c146101ab57806316b1e745146101db57806318160ddd1461020b57806323b872dd14610229575b600080fd5b6101656104d7565b60405161017291906124c1565b60405180910390f35b610195600480360381019061019091906120eb565b610569565b6040516101a2919061248b565b60405180910390f35b6101c560048036038101906101c09190612150565b61058c565b6040516101d291906126a3565b60405180910390f35b6101f560048036038101906101f09190612037565b6105a9565b60405161020291906126a3565b60405180910390f35b61021361069b565b60405161022091906126a3565b60405180910390f35b610243600480360381019061023e919061209c565b6106a5565b604051610250919061248b565b60405180910390f35b610273600480360381019061026e91906120eb565b6106d4565b60405161028091906126a3565b60405180910390f35b61029161072c565b60405161029e91906126be565b60405180910390f35b6102c160048036038101906102bc91906120eb565b610735565b6040516102ce919061248b565b60405180910390f35b6102f160048036038101906102ec91906120eb565b6107df565b6040516102fe91906126a3565b60405180910390f35b61030f61084f565b60405161031c91906126a3565b60405180910390f35b61033f600480360381019061033a9190612150565b61085e565b005b61035b60048036038101906103569190612037565b6109fc565b60405161036891906126a3565b60405180910390f35b610379610a44565b005b610383610acc565b6040516103909190612410565b60405180910390f35b6103a1610af6565b6040516103ae91906124c1565b60405180910390f35b6103bf610b88565b005b6103db60048036038101906103d69190612150565b610d21565b6040516103e891906126a3565b60405180910390f35b61040b600480360381019061040691906120eb565b610d52565b604051610418919061248b565b60405180910390f35b61043b60048036038101906104369190612150565b610e3c565b005b610457600480360381019061045291906120eb565b611006565b604051610464919061248b565b60405180910390f35b610475611029565b60405161048291906124a6565b60405180910390f35b6104a560048036038101906104a09190612060565b61104f565b6040516104b291906126a3565b60405180910390f35b6104d560048036038101906104d09190612037565b6110d6565b005b6060600380546104e6906128b6565b80601f0160208091040260200160405190810160405280929190818152602001828054610512906128b6565b801561055f5780601f106105345761010080835404028352916020019161055f565b820191906000526020600020905b81548152906001019060200180831161054257829003601f168201915b5050505050905090565b6000806105746111ce565b90506105818185856111d6565b600191505092915050565b6000600b6000838152602001908152602001600020549050919050565b6000806105b5836109fc565b905060006105c161069b565b905061069281610684600a60009054906101000a900473ffffffffffffffffffffffffffffffffffffffff1673ffffffffffffffffffffffffffffffffffffffff166370a08231306040518263ffffffff1660e01b81526004016106259190612410565b60206040518083038186803b15801561063d57600080fd5b505afa158015610651573d6000803e3d6000fd5b505050506040513d601f19601f820116820180604052508101906106759190612179565b856113a190919063ffffffff16565b6113b790919063ffffffff16565b92505050919050565b6000600254905090565b6000806106b06111ce565b90506106bd8582856113cd565b6106c8858585611459565b60019150509392505050565b6000806106e184846107df565b9050610723670de0b6b3a7640000610715600b600087815260200190815260200160002054846113a190919063ffffffff16565b6113b790919063ffffffff16565b91505092915050565b60006012905090565b6000806107406111ce565b90506107d4818585600160008673ffffffffffffffffffffffffffffffffffffffff1673ffffffffffffffffffffffffffffffffffffffff16815260200190815260200160002060008973ffffffffffffffffffffffffffffffffffffffff1673ffffffffffffffffffffffffffffffffffffffff168152602001908152602001600020546107cf91906126f5565b6111d6565b600191505092915050565b600080600061082c84600560008873ffffffffffffffffffffffffffffffffffffffff1673ffffffffffffffffffffffffffffffffffffffff1681526020019081526020016000206116da565b91509150816108435761083e856109fc565b610845565b805b9250505092915050565b60006108596117f6565b905090565b600061086861069b565b9050600061093b8261092d600a60009054906101000a900473ffffffffffffffffffffffffffffffffffffffff1673ffffffffffffffffffffffffffffffffffffffff166370a08231306040518263ffffffff1660e01b81526004016108ce9190612410565b60206040518083038186803b1580156108e657600080fd5b505afa1580156108fa573d6000803e3d6000fd5b505050506040513d601f19601f8201168201806040525081019061091e9190612179565b866113a190919063ffffffff16565b6113b790919063ffffffff16565b90506109473384611807565b600a60009054906101000a900473ffffffffffffffffffffffffffffffffffffffff1673ffffffffffffffffffffffffffffffffffffffff1663a9059cbb33836040518363ffffffff1660e01b81526004016109a4929190612462565b602060405180830381600087803b1580156109be57600080fd5b505af11580156109d2573d6000803e3d6000fd5b505050506040513d601f19601f820116820180604052508101906109f69190612127565b50505050565b60008060008373ffffffffffffffffffffffffffffffffffffffff1673ffffffffffffffffffffffffffffffffffffffff168152602001908152602001600020549050919050565b610a4c6111ce565b73ffffffffffffffffffffffffffffffffffffffff16610a6a610acc565b73ffffffffffffffffffffffffffffffffffffffff1614610ac0576040517f08c379a0000000000000000000000000000000000000000000000000000000008152600401610ab7906125c3565b60405180910390fd5b610aca60006119de565b565b6000600960009054906101000a900473ffffffffffffffffffffffffffffffffffffffff16905090565b606060048054610b05906128b6565b80601f0160208091040260200160405190810160405280929190818152602001828054610b31906128b6565b8015610b7e5780601f10610b5357610100808354040283529160200191610b7e565b820191906000526020600020905b815481529060010190602001808311610b6157829003601f168201915b5050505050905090565b610b906111ce565b73ffffffffffffffffffffffffffffffffffffffff16610bae610acc565b73ffffffffffffffffffffffffffffffffffffffff1614610c04576040517f08c379a0000000000000000000000000000000000000000000000000000000008152600401610bfb906125c3565b60405180910390fd5b610c0c611aa4565b506000610c176117f6565b90506000610c2361069b565b90506000811115610d1d57610d0581610cf7670de0b6b3a7640000600a60009054906101000a900473ffffffffffffffffffffffffffffffffffffffff1673ffffffffffffffffffffffffffffffffffffffff166370a08231306040518263ffffffff1660e01b8152600401610c999190612410565b60206040518083038186803b158015610cb157600080fd5b505afa158015610cc5573d6000803e3d6000fd5b505050506040513d601f19601f82011682018060405250810190610ce99190612179565b6113a190919063ffffffff16565b6113b790919063ffffffff16565b600b6000848152602001908152602001600020819055505b5050565b6000806000610d318460066116da565b9150915081610d4757610d4261069b565b610d49565b805b92505050919050565b600080610d5d6111ce565b90506000600160008373ffffffffffffffffffffffffffffffffffffffff1673ffffffffffffffffffffffffffffffffffffffff16815260200190815260200160002060008673ffffffffffffffffffffffffffffffffffffffff1673ffffffffffffffffffffffffffffffffffffffff16815260200190815260200160002054905083811015610e23576040517f08c379a0000000000000000000000000000000000000000000000000000000008152600401610e1a90612663565b60405180910390fd5b610e3082868684036111d6565b60019250505092915050565b6000600a60009054906101000a900473ffffffffffffffffffffffffffffffffffffffff1673ffffffffffffffffffffffffffffffffffffffff166370a08231306040518263ffffffff1660e01b8152600401610e999190612410565b60206040518083038186803b158015610eb157600080fd5b505afa158015610ec5573d6000803e3d6000fd5b505050506040513d601f19601f82011682018060405250810190610ee99190612179565b90506000610ef561069b565b90506000811480610f065750600082145b15610f1a57610f153384611afa565b610f4f565b6000610f4183610f3384876113a190919063ffffffff16565b6113b790919063ffffffff16565b9050610f4d3382611afa565b505b600a60009054906101000a900473ffffffffffffffffffffffffffffffffffffffff1673ffffffffffffffffffffffffffffffffffffffff166323b872dd3330866040518463ffffffff1660e01b8152600401610fae9392919061242b565b602060405180830381600087803b158015610fc857600080fd5b505af1158015610fdc573d6000803e3d6000fd5b505050506040513d601f19601f820116820180604052508101906110009190612127565b50505050565b6000806110116111ce565b905061101e818585611459565b600191505092915050565b600a60009054906101000a900473ffffffffffffffffffffffffffffffffffffffff1681565b6000600160008473ffffffffffffffffffffffffffffffffffffffff1673ffffffffffffffffffffffffffffffffffffffff16815260200190815260200160002060008373ffffffffffffffffffffffffffffffffffffffff1673ffffffffffffffffffffffffffffffffffffffff16815260200190815260200160002054905092915050565b6110de6111ce565b73ffffffffffffffffffffffffffffffffffffffff166110fc610acc565b73ffffffffffffffffffffffffffffffffffffffff1614611152576040517f08c379a0000000000000000000000000000000000000000000000000000000008152600401611149906125c3565b60405180910390fd5b600073ffffffffffffffffffffffffffffffffffffffff168173ffffffffffffffffffffffffffffffffffffffff1614156111c2576040517f08c379a00000000000000000000000000000000000000000000000000000000081526004016111b990612543565b60405180910390fd5b6111cb816119de565b50565b600033905090565b600073ffffffffffffffffffffffffffffffffffffffff168373ffffffffffffffffffffffffffffffffffffffff161415611246576040517f08c379a000000000000000000000000000000000000000000000000000000000815260040161123d90612623565b60405180910390fd5b600073ffffffffffffffffffffffffffffffffffffffff168273ffffffffffffffffffffffffffffffffffffffff1614156112b6576040517f08c379a00000000000000000000000000000000000000000000000000000000081526004016112ad90612563565b60405180910390fd5b80600160008573ffffffffffffffffffffffffffffffffffffffff1673ffffffffffffffffffffffffffffffffffffffff16815260200190815260200160002060008473ffffffffffffffffffffffffffffffffffffffff1673ffffffffffffffffffffffffffffffffffffffff168152602001908152602001600020819055508173ffffffffffffffffffffffffffffffffffffffff168373ffffffffffffffffffffffffffffffffffffffff167f8c5be1e5ebec7d5bd14f71427d1e84f3dd0314c0f7b2291e5b200ac8c7c3b9258360405161139491906126a3565b60405180910390a3505050565b600081836113af919061277c565b905092915050565b600081836113c5919061274b565b905092915050565b60006113d9848461104f565b90507fffffffffffffffffffffffffffffffffffffffffffffffffffffffffffffffff81146114535781811015611445576040517f08c379a000000000000000000000000000000000000000000000000000000000815260040161143c90612583565b60405180910390fd5b61145284848484036111d6565b5b50505050565b600073ffffffffffffffffffffffffffffffffffffffff168373ffffffffffffffffffffffffffffffffffffffff1614156114c9576040517f08c379a00000000000000000000000000000000000000000000000000000000081526004016114c090612603565b60405180910390fd5b600073ffffffffffffffffffffffffffffffffffffffff168273ffffffffffffffffffffffffffffffffffffffff161415611539576040517f08c379a000000000000000000000000000000000000000000000000000000000815260040161153090612503565b60405180910390fd5b611544838383611c5a565b60008060008573ffffffffffffffffffffffffffffffffffffffff1673ffffffffffffffffffffffffffffffffffffffff168152602001908152602001600020549050818110156115ca576040517f08c379a00000000000000000000000000000000000000000000000000000000081526004016115c1906125a3565b60405180910390fd5b8181036000808673ffffffffffffffffffffffffffffffffffffffff1673ffffffffffffffffffffffffffffffffffffffff16815260200190815260200160002081905550816000808573ffffffffffffffffffffffffffffffffffffffff1673ffffffffffffffffffffffffffffffffffffffff168152602001908152602001600020600082825461165d91906126f5565b925050819055508273ffffffffffffffffffffffffffffffffffffffff168473ffffffffffffffffffffffffffffffffffffffff167fddf252ad1be2c89b69c2b068fc378daa952ba7f163c4a11628f55a4df523b3ef846040516116c191906126a3565b60405180910390a36116d4848484611d14565b50505050565b60008060008411611720576040517f08c379a000000000000000000000000000000000000000000000000000000000815260040161171790612643565b60405180910390fd5b6117286117f6565b84111561176a576040517f08c379a0000000000000000000000000000000000000000000000000000000008152600401611761906124e3565b60405180910390fd5b60006117828585600001611d1990919063ffffffff16565b905083600001805490508114156117a05760008092509250506117ef565b60018460010182815481106117de577f4e487b7100000000000000000000000000000000000000000000000000000000600052603260045260246000fd5b906000526020600020015492509250505b9250929050565b60006118026008611e3f565b905090565b600073ffffffffffffffffffffffffffffffffffffffff168273ffffffffffffffffffffffffffffffffffffffff161415611877576040517f08c379a000000000000000000000000000000000000000000000000000000000815260040161186e906125e3565b60405180910390fd5b61188382600083611c5a565b60008060008473ffffffffffffffffffffffffffffffffffffffff1673ffffffffffffffffffffffffffffffffffffffff16815260200190815260200160002054905081811015611909576040517f08c379a000000000000000000000000000000000000000000000000000000000815260040161190090612523565b60405180910390fd5b8181036000808573ffffffffffffffffffffffffffffffffffffffff1673ffffffffffffffffffffffffffffffffffffffff16815260200190815260200160002081905550816002600082825461196091906127d6565b92505081905550600073ffffffffffffffffffffffffffffffffffffffff168373ffffffffffffffffffffffffffffffffffffffff167fddf252ad1be2c89b69c2b068fc378daa952ba7f163c4a11628f55a4df523b3ef846040516119c591906126a3565b60405180910390a36119d983600084611d14565b505050565b6000600960009054906101000a900473ffffffffffffffffffffffffffffffffffffffff16905081600960006101000a81548173ffffffffffffffffffffffffffffffffffffffff021916908373ffffffffffffffffffffffffffffffffffffffff1602179055508173ffffffffffffffffffffffffffffffffffffffff168173ffffffffffffffffffffffffffffffffffffffff167f8be0079c531659141344cd1fd0a4f28419497f9722a3daafe3b4186f6b6457e060405160405180910390a35050565b6000611ab06008611e4d565b6000611aba6117f6565b90507f8030e83b04d87bef53480e26263266d6ca66863aa8506aca6f2559d18aa1cb6781604051611aeb91906126a3565b60405180910390a18091505090565b600073ffffffffffffffffffffffffffffffffffffffff168273ffffffffffffffffffffffffffffffffffffffff161415611b6a576040517f08c379a0000000000000000000000000000000000000000000000000000000008152600401611b6190612683565b60405180910390fd5b611b7660008383611c5a565b8060026000828254611b8891906126f5565b92505081905550806000808473ffffffffffffffffffffffffffffffffffffffff1673ffffffffffffffffffffffffffffffffffffffff1681526020019081526020016000206000828254611bdd91906126f5565b925050819055508173ffffffffffffffffffffffffffffffffffffffff16600073ffffffffffffffffffffffffffffffffffffffff167fddf252ad1be2c89b69c2b068fc378daa952ba7f163c4a11628f55a4df523b3ef83604051611c4291906126a3565b60405180910390a3611c5660008383611d14565b5050565b611c65838383611e63565b600073ffffffffffffffffffffffffffffffffffffffff168373ffffffffffffffffffffffffffffffffffffffff161415611cb057611ca382611e68565b611cab611ebb565b611d0f565b600073ffffffffffffffffffffffffffffffffffffffff168273ffffffffffffffffffffffffffffffffffffffff161415611cfb57611cee83611e68565b611cf6611ebb565b611d0e565b611d0483611e68565b611d0d82611e68565b5b5b505050565b505050565b60008083805490501415611d305760009050611e39565b600080848054905090505b80821015611dba576000611d4f8383611ecf565b905084868281548110611d8b577f4e487b7100000000000000000000000000000000000000000000000000000000600052603260045260246000fd5b90600052602060002001541115611da457809150611db4565b600181611db191906126f5565b92505b50611d3b565b600082118015611e1857508385600184611dd491906127d6565b81548110611e0b577f4e487b7100000000000000000000000000000000000000000000000000000000600052603260045260246000fd5b9060005260206000200154145b15611e3357600182611e2a91906127d6565b92505050611e39565b81925050505b92915050565b600081600001549050919050565b6001816000016000828254019250508190555050565b505050565b611eb8600560008373ffffffffffffffffffffffffffffffffffffffff1673ffffffffffffffffffffffffffffffffffffffff168152602001908152602001600020611eb3836109fc565b611ef5565b50565b611ecd6006611ec861069b565b611ef5565b565b60006002828418611ee0919061274b565b828416611eed91906126f5565b905092915050565b6000611eff6117f6565b905080611f0e84600001611f70565b1015611f6b5782600001819080600181540180825580915050600190039060005260206000200160009091909190915055826001018290806001815401808255809150506001900390600052602060002001600090919091909150555b505050565b60008082805490501415611f875760009050611fde565b8160018380549050611f9991906127d6565b81548110611fd0577f4e487b7100000000000000000000000000000000000000000000000000000000600052603260045260246000fd5b906000526020600020015490505b919050565b600081359050611ff281612d1a565b92915050565b60008151905061200781612d31565b92915050565b60008135905061201c81612d48565b92915050565b60008151905061203181612d48565b92915050565b60006020828403121561204957600080fd5b600061205784828501611fe3565b91505092915050565b6000806040838503121561207357600080fd5b600061208185828601611fe3565b925050602061209285828601611fe3565b9150509250929050565b6000806000606084860312156120b157600080fd5b60006120bf86828701611fe3565b93505060206120d086828701611fe3565b92505060406120e18682870161200d565b9150509250925092565b600080604083850312156120fe57600080fd5b600061210c85828601611fe3565b925050602061211d8582860161200d565b9150509250929050565b60006020828403121561213957600080fd5b600061214784828501611ff8565b91505092915050565b60006020828403121561216257600080fd5b60006121708482850161200d565b91505092915050565b60006020828403121561218b57600080fd5b600061219984828501612022565b91505092915050565b6121ab8161280a565b82525050565b6121ba8161281c565b82525050565b6121c98161285f565b82525050565b60006121da826126d9565b6121e481856126e4565b93506121f4818560208601612883565b6121fd81612975565b840191505092915050565b6000612215601d836126e4565b915061222082612986565b602082019050919050565b60006122386023836126e4565b9150612243826129af565b604082019050919050565b600061225b6022836126e4565b9150612266826129fe565b604082019050919050565b600061227e6026836126e4565b915061228982612a4d565b604082019050919050565b60006122a16022836126e4565b91506122ac82612a9c565b604082019050919050565b60006122c4601d836126e4565b91506122cf82612aeb565b602082019050919050565b60006122e76026836126e4565b91506122f282612b14565b604082019050919050565b600061230a6020836126e4565b915061231582612b63565b602082019050919050565b600061232d6021836126e4565b915061233882612b8c565b604082019050919050565b60006123506025836126e4565b915061235b82612bdb565b604082019050919050565b60006123736024836126e4565b915061237e82612c2a565b604082019050919050565b60006123966016836126e4565b91506123a182612c79565b602082019050919050565b60006123b96025836126e4565b91506123c482612ca2565b604082019050919050565b60006123dc601f836126e4565b91506123e782612cf1565b602082019050919050565b6123fb81612848565b82525050565b61240a81612852565b82525050565b600060208201905061242560008301846121a2565b92915050565b600060608201905061244060008301866121a2565b61244d60208301856121a2565b61245a60408301846123f2565b949350505050565b600060408201905061247760008301856121a2565b61248460208301846123f2565b9392505050565b60006020820190506124a060008301846121b1565b92915050565b60006020820190506124bb60008301846121c0565b92915050565b600060208201905081810360008301526124db81846121cf565b905092915050565b600060208201905081810360008301526124fc81612208565b9050919050565b6000602082019050818103600083015261251c8161222b565b9050919050565b6000602082019050818103600083015261253c8161224e565b9050919050565b6000602082019050818103600083015261255c81612271565b9050919050565b6000602082019050818103600083015261257c81612294565b9050919050565b6000602082019050818103600083015261259c816122b7565b9050919050565b600060208201905081810360008301526125bc816122da565b9050919050565b600060208201905081810360008301526125dc816122fd565b9050919050565b600060208201905081810360008301526125fc81612320565b9050919050565b6000602082019050818103600083015261261c81612343565b9050919050565b6000602082019050818103600083015261263c81612366565b9050919050565b6000602082019050818103600083015261265c81612389565b9050919050565b6000602082019050818103600083015261267c816123ac565b9050919050565b6000602082019050818103600083015261269c816123cf565b9050919050565b60006020820190506126b860008301846123f2565b92915050565b60006020820190506126d36000830184612401565b92915050565b600081519050919050565b600082825260208201905092915050565b600061270082612848565b915061270b83612848565b9250827fffffffffffffffffffffffffffffffffffffffffffffffffffffffffffffffff038211156127405761273f6128e8565b5b828201905092915050565b600061275682612848565b915061276183612848565b92508261277157612770612917565b5b828204905092915050565b600061278782612848565b915061279283612848565b9250817fffffffffffffffffffffffffffffffffffffffffffffffffffffffffffffffff04831182151516156127cb576127ca6128e8565b5b828202905092915050565b60006127e182612848565b91506127ec83612848565b9250828210156127ff576127fe6128e8565b5b828203905092915050565b600061281582612828565b9050919050565b60008115159050919050565b600073ffffffffffffffffffffffffffffffffffffffff82169050919050565b6000819050919050565b600060ff82169050919050565b600061286a82612871565b9050919050565b600061287c82612828565b9050919050565b60005b838110156128a1578082015181840152602081019050612886565b838111156128b0576000848401525b50505050565b600060028204905060018216806128ce57607f821691505b602082108114156128e2576128e1612946565b5b50919050565b7f4e487b7100000000000000000000000000000000000000000000000000000000600052601160045260246000fd5b7f4e487b7100000000000000000000000000000000000000000000000000000000600052601260045260246000fd5b7f4e487b7100000000000000000000000000000000000000000000000000000000600052602260045260246000fd5b6000601f19601f8301169050919050565b7f4552433230536e617073686f743a206e6f6e6578697374656e74206964000000600082015250565b7f45524332303a207472616e7366657220746f20746865207a65726f206164647260008201527f6573730000000000000000000000000000000000000000000000000000000000602082015250565b7f45524332303a206275726e20616d6f756e7420657863656564732062616c616e60008201527f6365000000000000000000000000000000000000000000000000000000000000602082015250565b7f4f776e61626c653a206e6577206f776e657220697320746865207a65726f206160008201527f6464726573730000000000000000000000000000000000000000000000000000602082015250565b7f45524332303a20617070726f766520746f20746865207a65726f20616464726560008201527f7373000000000000000000000000000000000000000000000000000000000000602082015250565b7f45524332303a20696e73756666696369656e7420616c6c6f77616e6365000000600082015250565b7f45524332303a207472616e7366657220616d6f756e742065786365656473206260008201527f616c616e63650000000000000000000000000000000000000000000000000000602082015250565b7f4f776e61626c653a2063616c6c6572206973206e6f7420746865206f776e6572600082015250565b7f45524332303a206275726e2066726f6d20746865207a65726f2061646472657360008201527f7300000000000000000000000000000000000000000000000000000000000000602082015250565b7f45524332303a207472616e736665722066726f6d20746865207a65726f20616460008201527f6472657373000000000000000000000000000000000000000000000000000000602082015250565b7f45524332303a20617070726f76652066726f6d20746865207a65726f2061646460008201527f7265737300000000000000000000000000000000000000000000000000000000602082015250565b7f4552433230536e617073686f743a206964206973203000000000000000000000600082015250565b7f45524332303a2064656372656173656420616c6c6f77616e63652062656c6f7760008201527f207a65726f000000000000000000000000000000000000000000000000000000602082015250565b7f45524332303a206d696e7420746f20746865207a65726f206164647265737300600082015250565b612d238161280a565b8114612d2e57600080fd5b50565b612d3a8161281c565b8114612d4557600080fd5b50565b612d5181612848565b8114612d5c57600080fd5b5056fea264697066735822122084e206c192b032586f0e5f3dd37018d9c5c4a8d1f1b97d95ae1eb44ffbf7637364736f6c63430008040033",
  "linkReferences": {},
  "deployedLinkReferences": {}
}