{
  "_format": "hh-sol-artifact-1",
  "contractName": "Swapper",
  "sourceName": "contracts/crosschain-swap/Swapper.sol",
  "abi": [
    {
      "inputs": [
        {
          "internalType": "string[]",
          "name": "_funcSigs",
          "type": "string[]"
        },
        {
          "internalType": "address[]",
          "name": "_codecs",
          "type": "address[]"
        },
        {
          "internalType": "address[]",
          "name": "_supportedDexList",
          "type": "address[]"
        },
        {
          "internalType": "string[]",
          "name": "_supportedDexFuncs",
          "type": "string[]"
        }
      ],
      "stateMutability": "nonpayable",
      "type": "constructor"
    },
    {
      "anonymous": false,
      "inputs": [
        {
          "indexed": false,
          "internalType": "bytes4",
          "name": "selector",
          "type": "bytes4"
        },
        {
          "indexed": false,
          "internalType": "address",
          "name": "codec",
          "type": "address"
        }
      ],
      "name": "CodecUpdated",
      "type": "event"
    },
    {
      "anonymous": false,
      "inputs": [
        {
          "indexed": false,
          "internalType": "address",
          "name": "dex",
          "type": "address"
        },
        {
          "indexed": false,
          "internalType": "bool",
          "name": "enabled",
          "type": "bool"
        }
      ],
      "name": "ExternalSwapUpdated",
      "type": "event"
    },
    {
      "anonymous": false,
      "inputs": [
        {
          "indexed": true,
          "internalType": "address",
          "name": "previousOwner",
          "type": "address"
        },
        {
          "indexed": true,
          "internalType": "address",
          "name": "newOwner",
          "type": "address"
        }
      ],
      "name": "OwnershipTransferred",
      "type": "event"
    },
    {
      "anonymous": false,
      "inputs": [
        {
          "indexed": false,
          "internalType": "address",
          "name": "dex",
          "type": "address"
        },
        {
          "indexed": false,
          "internalType": "bytes4",
          "name": "selector",
          "type": "bytes4"
        },
        {
          "indexed": false,
          "internalType": "bool",
          "name": "enabled",
          "type": "bool"
        }
      ],
      "name": "SupportedDexUpdated",
      "type": "event"
    },
    {
      "inputs": [
        {
          "internalType": "uint256",
          "name": "",
          "type": "uint256"
        }
      ],
      "name": "codecs",
      "outputs": [
        {
          "internalType": "address",
          "name": "",
          "type": "address"
        }
      ],
      "stateMutability": "view",
      "type": "function"
    },
    {
      "inputs": [
        {
          "internalType": "address",
          "name": "",
          "type": "address"
        },
        {
          "internalType": "bytes4",
          "name": "",
          "type": "bytes4"
        }
      ],
      "name": "dexRegistry",
      "outputs": [
        {
          "internalType": "bool",
          "name": "",
          "type": "bool"
        }
      ],
      "stateMutability": "view",
      "type": "function"
    },
    {
      "inputs": [
        {
          "internalType": "address",
          "name": "",
          "type": "address"
        }
      ],
      "name": "externalSwap",
      "outputs": [
        {
          "internalType": "bool",
          "name": "",
          "type": "bool"
        }
      ],
      "stateMutability": "view",
      "type": "function"
    },
    {
      "inputs": [],
      "name": "owner",
      "outputs": [
        {
          "internalType": "address",
          "name": "",
          "type": "address"
        }
      ],
      "stateMutability": "view",
      "type": "function"
    },
    {
      "inputs": [],
      "name": "renounceOwnership",
      "outputs": [],
      "stateMutability": "nonpayable",
      "type": "function"
    },
    {
      "inputs": [
        {
          "internalType": "bytes4",
          "name": "",
          "type": "bytes4"
        }
      ],
      "name": "selector2codec",
      "outputs": [
        {
          "internalType": "contract ICodec",
          "name": "",
          "type": "address"
        }
      ],
      "stateMutability": "view",
      "type": "function"
    },
    {
      "inputs": [
        {
          "internalType": "string",
          "name": "_funcSig",
          "type": "string"
        },
        {
          "internalType": "address",
          "name": "_codec",
          "type": "address"
        }
      ],
      "name": "setCodec",
      "outputs": [],
      "stateMutability": "nonpayable",
      "type": "function"
    },
    {
      "inputs": [
        {
          "internalType": "address",
          "name": "_dex",
          "type": "address"
        },
        {
          "internalType": "bool",
          "name": "_enabled",
          "type": "bool"
        }
      ],
      "name": "setExternalSwap",
      "outputs": [],
      "stateMutability": "nonpayable",
      "type": "function"
    },
    {
      "inputs": [
        {
          "internalType": "address",
          "name": "_dex",
          "type": "address"
        },
        {
          "internalType": "string",
          "name": "_supportedFuncs",
          "type": "string"
        },
        {
          "internalType": "bool",
          "name": "_enabled",
          "type": "bool"
        }
      ],
      "name": "setSupportedDex",
      "outputs": [],
      "stateMutability": "nonpayable",
      "type": "function"
    },
    {
      "inputs": [
        {
          "internalType": "address",
          "name": "newOwner",
          "type": "address"
        }
      ],
      "name": "transferOwnership",
      "outputs": [],
      "stateMutability": "nonpayable",
      "type": "function"
    }
  ],
  "bytecode": "0x60806040523480156200001157600080fd5b5060405162000ebb38038062000ebb8339810160408190526200003491620004c6565b818185856200004333620001b7565b8051825114620000835760405162461bcd60e51b81526020600482015260066024820152656c656e206d6d60d01b60448201526064015b60405180910390fd5b60005b825181101562000114576000838281518110620000b357634e487b7160e01b600052603260045260246000fd5b6020026020010151805190602001209050620000fe81848481518110620000ea57634e487b7160e01b600052603260045260246000fd5b60200260200101516200020760201b60201c565b50806200010b81620005d3565b91505062000086565b50505060005b8251811015620001aa5760008282815181106200014757634e487b7160e01b600052603260045260246000fd5b6020026020010151805190602001209050620001948483815181106200017d57634e487b7160e01b600052603260045260246000fd5b60200260200101518260016200027960201b60201c565b5080620001a181620005d3565b9150506200011a565b5050505050505062000611565b600080546001600160a01b038381166001600160a01b0319831681178455604051919092169283917f8be0079c531659141344cd1fd0a4f28419497f9722a3daafe3b4186f6b6457e09190a35050565b6001600160e01b03199091166000908152600160208190526040822080546001600160a01b039094166001600160a01b031994851681179091556002805492830181559092527f405787fa12a823e0f2b7631cc41b3ba8828b3321ca811111fa75cd3aa3bb5ace018054909216179055565b6001600160a01b03831660009081526003602090815260408083206001600160e01b03198616845290915290205460ff168015158215151415620002e65760405162461bcd60e51b815260206004820152600360248201526206e6f760ec1b60448201526064016200007a565b506001600160a01b0390921660009081526003602090815260408083206001600160e01b0319909416835292905220805491151560ff19909216919091179055565b600082601f83011262000339578081fd5b81516020620003526200034c83620005ad565b6200057a565b80838252828201915082860187848660051b890101111562000372578586fd5b855b85811015620003a75781516001600160a01b038116811462000394578788fd5b8452928401929084019060010162000374565b5090979650505050505050565b6000601f8381840112620003c6578182fd5b82516020620003d96200034c83620005ad565b80838252828201915082870188848660051b8a01011115620003f9578687fd5b865b85811015620004b85781516001600160401b03808211156200041b57898afd5b818b0191508b603f8301126200042f57898afd5b8682015181811115620004465762000446620005fb565b62000459818b01601f191689016200057a565b915080825260408d8183860101111562000471578b8cfd5b8b5b8281101562000490578481018201518482018b0152890162000473565b82811115620004a1578c8a84860101525b5050508552509284019290840190600101620003fb565b509098975050505050505050565b60008060008060808587031215620004dc578384fd5b84516001600160401b0380821115620004f3578586fd5b6200050188838901620003b4565b9550602087015191508082111562000517578485fd5b620005258883890162000328565b945060408701519150808211156200053b578384fd5b620005498883890162000328565b935060608701519150808211156200055f578283fd5b506200056e87828801620003b4565b91505092959194509250565b604051601f8201601f191681016001600160401b0381118282101715620005a557620005a5620005fb565b604052919050565b60006001600160401b03821115620005c957620005c9620005fb565b5060051b60200190565b6000600019821415620005f457634e487b7160e01b81526011600452602481fd5b5060010190565b634e487b7160e01b600052604160045260246000fd5b61089a80620006216000396000f3fe608060405234801561001057600080fd5b506004361061009e5760003560e01c80638da5cb5b116100665780638da5cb5b1461013657806391ec04b514610147578063c5bccca314610175578063f2fde38b14610188578063fbf5d7631461019b57600080fd5b806309bd2749146100a35780632aa5fc7b146100db578063489a6d48146100f0578063715018a61461010357806382665a8f1461010b575b600080fd5b6100c66100b1366004610651565b60046020526000908152604090205460ff1681565b60405190151581526020015b60405180910390f35b6100ee6100e9366004610672565b6101c4565b005b6100ee6100fe3660046106cd565b61021d565b6100ee610295565b61011e610119366004610826565b6102a9565b6040516001600160a01b0390911681526020016100d2565b6000546001600160a01b031661011e565b6100c66101553660046106a4565b600360209081526000928352604080842090915290825290205460ff1681565b6100ee6101833660046107b3565b6102d3565b6100ee610196366004610651565b6103b6565b61011e6101a9366004610799565b6001602052600090815260409020546001600160a01b031681565b6101cc610434565b6101d6828261048e565b604080516001600160a01b038416815282151560208201527f1030ebdffe19ed06839890787ae0344a023e8c553e3fa69b7e74564e8c7965f0910160405180910390a15050565b610225610434565b81516020830120610237848284610510565b604080516001600160a01b03861681526001600160e01b031983166020820152831515918101919091527f5e20184b00709d9f103306958e9fb9d509f78bec1829ca7080f2c43eb2ff21a8906060015b60405180910390a150505050565b61029d610434565b6102a760006105bd565b565b600281815481106102b957600080fd5b6000918252602090912001546001600160a01b0316905081565b6102db610434565b600083836040516102ed92919061083e565b6040518091039020905061036e81836001600160e01b03199091166000908152600160208190526040822080546001600160a01b039094166001600160a01b031994851681179091556002805492830181559092527f405787fa12a823e0f2b7631cc41b3ba8828b3321ca811111fa75cd3aa3bb5ace018054909216179055565b604080516001600160e01b0319831681526001600160a01b03841660208201527f58ddcdb40971f55ad1b6a8a28067274a4ffc7e9d77c3ea14a17652faa705e1979101610287565b6103be610434565b6001600160a01b0381166104285760405162461bcd60e51b815260206004820152602660248201527f4f776e61626c653a206e6577206f776e657220697320746865207a65726f206160448201526564647265737360d01b60648201526084015b60405180910390fd5b610431816105bd565b50565b6000546001600160a01b031633146102a75760405162461bcd60e51b815260206004820181905260248201527f4f776e61626c653a2063616c6c6572206973206e6f7420746865206f776e6572604482015260640161041f565b6001600160a01b03821660009081526004602052604090205460ff1680151582151514156104e45760405162461bcd60e51b815260206004820152600360248201526206e6f760ec1b604482015260640161041f565b506001600160a01b03919091166000908152600460205260409020805460ff1916911515919091179055565b6001600160a01b03831660009081526003602090815260408083206001600160e01b03198616845290915290205460ff16801515821515141561057b5760405162461bcd60e51b815260206004820152600360248201526206e6f760ec1b604482015260640161041f565b506001600160a01b0390921660009081526003602090815260408083206001600160e01b0319909416835292905220805491151560ff19909216919091179055565b600080546001600160a01b038381166001600160a01b0319831681178455604051919092169283917f8be0079c531659141344cd1fd0a4f28419497f9722a3daafe3b4186f6b6457e09190a35050565b80356001600160a01b038116811461062457600080fd5b919050565b8035801515811461062457600080fd5b80356001600160e01b03198116811461062457600080fd5b600060208284031215610662578081fd5b61066b8261060d565b9392505050565b60008060408385031215610684578081fd5b61068d8361060d565b915061069b60208401610629565b90509250929050565b600080604083850312156106b6578182fd5b6106bf8361060d565b915061069b60208401610639565b6000806000606084860312156106e1578081fd5b6106ea8461060d565b9250602084013567ffffffffffffffff80821115610706578283fd5b818601915086601f830112610719578283fd5b81358181111561072b5761072b61084e565b604051601f8201601f19908116603f011681019083821181831017156107535761075361084e565b8160405282815289602084870101111561076b578586fd5b8260208601602083013791820160200185905250935061079091505060408501610629565b90509250925092565b6000602082840312156107aa578081fd5b61066b82610639565b6000806000604084860312156107c7578283fd5b833567ffffffffffffffff808211156107de578485fd5b818601915086601f8301126107f1578485fd5b8135818111156107ff578586fd5b876020828501011115610810578586fd5b602092830195509350610790918601905061060d565b600060208284031215610837578081fd5b5035919050565b8183823760009101908152919050565b634e487b7160e01b600052604160045260246000fdfea26469706673582212206df499b06887c956f03b0888cf541a0928c9b6a4b4cac28ce2918e44fe02ceba64736f6c63430008040033",
  "linkReferences": {},
  "deployedLinkReferences": {}
}