{
  "_format": "hh-sol-artifact-1",
  "contractName": "Swapper",
  "sourceName": "contracts/crosschain-swap/Swapper.sol",
  "abi": [
    {
      "inputs": [
        {
          "internalType": "string[]",
          "name": "_funcSigs",
          "type": "string[]"
        },
        {
          "internalType": "address[]",
          "name": "_codecs",
          "type": "address[]"
        },
        {
          "internalType": "address[]",
          "name": "_supportedDexList",
          "type": "address[]"
        },
        {
          "internalType": "string[]",
          "name": "_supportedDexFuncs",
          "type": "string[]"
        }
      ],
      "stateMutability": "nonpayable",
      "type": "constructor"
    },
    {
      "anonymous": false,
      "inputs": [
        {
          "indexed": false,
          "internalType": "bytes4",
          "name": "selector",
          "type": "bytes4"
        },
        {
          "indexed": false,
          "internalType": "address",
          "name": "codec",
          "type": "address"
        }
      ],
      "name": "CodecUpdated",
      "type": "event"
    },
    {
      "anonymous": false,
      "inputs": [
        {
          "indexed": true,
          "internalType": "address",
          "name": "previousOwner",
          "type": "address"
        },
        {
          "indexed": true,
          "internalType": "address",
          "name": "newOwner",
          "type": "address"
        }
      ],
      "name": "OwnershipTransferred",
      "type": "event"
    },
    {
      "anonymous": false,
      "inputs": [
        {
          "indexed": false,
          "internalType": "address",
          "name": "dex",
          "type": "address"
        },
        {
          "indexed": false,
          "internalType": "bytes4",
          "name": "selector",
          "type": "bytes4"
        },
        {
          "indexed": false,
          "internalType": "bool",
          "name": "enabled",
          "type": "bool"
        }
      ],
      "name": "SupportedDexUpdated",
      "type": "event"
    },
    {
      "inputs": [
        {
          "internalType": "uint256",
          "name": "",
          "type": "uint256"
        }
      ],
      "name": "codecs",
      "outputs": [
        {
          "internalType": "address",
          "name": "",
          "type": "address"
        }
      ],
      "stateMutability": "view",
      "type": "function"
    },
    {
      "inputs": [
        {
          "internalType": "address",
          "name": "",
          "type": "address"
        },
        {
          "internalType": "bytes4",
          "name": "",
          "type": "bytes4"
        }
      ],
      "name": "dexRegistry",
      "outputs": [
        {
          "internalType": "bool",
          "name": "",
          "type": "bool"
        }
      ],
      "stateMutability": "view",
      "type": "function"
    },
    {
      "inputs": [],
      "name": "owner",
      "outputs": [
        {
          "internalType": "address",
          "name": "",
          "type": "address"
        }
      ],
      "stateMutability": "view",
      "type": "function"
    },
    {
      "inputs": [],
      "name": "renounceOwnership",
      "outputs": [],
      "stateMutability": "nonpayable",
      "type": "function"
    },
    {
      "inputs": [
        {
          "internalType": "bytes4",
          "name": "",
          "type": "bytes4"
        }
      ],
      "name": "selector2codec",
      "outputs": [
        {
          "internalType": "contract ICodec",
          "name": "",
          "type": "address"
        }
      ],
      "stateMutability": "view",
      "type": "function"
    },
    {
      "inputs": [
        {
          "internalType": "string",
          "name": "_funcSig",
          "type": "string"
        },
        {
          "internalType": "address",
          "name": "_codec",
          "type": "address"
        }
      ],
      "name": "setCodec",
      "outputs": [],
      "stateMutability": "nonpayable",
      "type": "function"
    },
    {
      "inputs": [
        {
          "internalType": "address",
          "name": "_dex",
          "type": "address"
        },
        {
          "internalType": "bytes4",
          "name": "_selector",
          "type": "bytes4"
        },
        {
          "internalType": "bool",
          "name": "_enabled",
          "type": "bool"
        }
      ],
      "name": "setSupportedDex",
      "outputs": [],
      "stateMutability": "nonpayable",
      "type": "function"
    },
    {
      "inputs": [
        {
          "internalType": "address",
          "name": "newOwner",
          "type": "address"
        }
      ],
      "name": "transferOwnership",
      "outputs": [],
      "stateMutability": "nonpayable",
      "type": "function"
    }
  ],
  "bytecode": "0x60806040523480156200001157600080fd5b5060405162000cc838038062000cc88339810160408190526200003491620004c6565b818185856200004333620001b7565b8051825114620000835760405162461bcd60e51b81526020600482015260066024820152656c656e206d6d60d01b60448201526064015b60405180910390fd5b60005b825181101562000114576000838281518110620000b357634e487b7160e01b600052603260045260246000fd5b6020026020010151805190602001209050620000fe81848481518110620000ea57634e487b7160e01b600052603260045260246000fd5b60200260200101516200020760201b60201c565b50806200010b81620005d3565b91505062000086565b50505060005b8251811015620001aa5760008282815181106200014757634e487b7160e01b600052603260045260246000fd5b6020026020010151805190602001209050620001948483815181106200017d57634e487b7160e01b600052603260045260246000fd5b60200260200101518260016200027960201b60201c565b5080620001a181620005d3565b9150506200011a565b5050505050505062000611565b600080546001600160a01b038381166001600160a01b0319831681178455604051919092169283917f8be0079c531659141344cd1fd0a4f28419497f9722a3daafe3b4186f6b6457e09190a35050565b6001600160e01b03199091166000908152600160208190526040822080546001600160a01b039094166001600160a01b031994851681179091556002805492830181559092527f405787fa12a823e0f2b7631cc41b3ba8828b3321ca811111fa75cd3aa3bb5ace018054909216179055565b6001600160a01b03831660009081526003602090815260408083206001600160e01b03198616845290915290205460ff168015158215151415620002e65760405162461bcd60e51b815260206004820152600360248201526206e6f760ec1b60448201526064016200007a565b506001600160a01b0390921660009081526003602090815260408083206001600160e01b0319909416835292905220805491151560ff19909216919091179055565b600082601f83011262000339578081fd5b81516020620003526200034c83620005ad565b6200057a565b80838252828201915082860187848660051b890101111562000372578586fd5b855b85811015620003a75781516001600160a01b038116811462000394578788fd5b8452928401929084019060010162000374565b5090979650505050505050565b6000601f8381840112620003c6578182fd5b82516020620003d96200034c83620005ad565b80838252828201915082870188848660051b8a01011115620003f9578687fd5b865b85811015620004b85781516001600160401b03808211156200041b57898afd5b818b0191508b603f8301126200042f57898afd5b8682015181811115620004465762000446620005fb565b62000459818b01601f191689016200057a565b915080825260408d8183860101111562000471578b8cfd5b8b5b8281101562000490578481018201518482018b0152890162000473565b82811115620004a1578c8a84860101525b5050508552509284019290840190600101620003fb565b509098975050505050505050565b60008060008060808587031215620004dc578384fd5b84516001600160401b0380821115620004f3578586fd5b6200050188838901620003b4565b9550602087015191508082111562000517578485fd5b620005258883890162000328565b945060408701519150808211156200053b578384fd5b620005498883890162000328565b935060608701519150808211156200055f578283fd5b506200056e87828801620003b4565b91505092959194509250565b604051601f8201601f191681016001600160401b0381118282101715620005a557620005a5620005fb565b604052919050565b60006001600160401b03821115620005c957620005c9620005fb565b5060051b60200190565b6000600019821415620005f457634e487b7160e01b81526011600452602481fd5b5060010190565b634e487b7160e01b600052604160045260246000fd5b6106a780620006216000396000f3fe608060405234801561001057600080fd5b50600436106100885760003560e01c806391ec04b51161005b57806391ec04b5146100eb578063c5bccca314610129578063f2fde38b1461013c578063fbf5d7631461014f57600080fd5b8063675df7591461008d578063715018a6146100a257806382665a8f146100aa5780638da5cb5b146100da575b600080fd5b6100a061009b366004610569565b610178565b005b6100a06101e3565b6100bd6100b8366004610649565b6101f7565b6040516001600160a01b0390911681526020015b60405180910390f35b6000546001600160a01b03166100bd565b6101196100f9366004610537565b600360209081526000928352604080842090915290825290205460ff1681565b60405190151581526020016100d1565b6100a06101373660046105cd565b610221565b6100a061014a366004610516565b61030d565b6100bd61015d3660046105b3565b6001602052600090815260409020546001600160a01b031681565b61018061038b565b61018b8383836103e5565b604080516001600160a01b03851681526001600160e01b0319841660208201528215158183015290517f5e20184b00709d9f103306958e9fb9d509f78bec1829ca7080f2c43eb2ff21a89181900360600190a1505050565b6101eb61038b565b6101f56000610492565b565b6002818154811061020757600080fd5b6000918252602090912001546001600160a01b0316905081565b61022961038b565b6000838360405161023b929190610661565b604051809103902090506102bc81836001600160e01b03199091166000908152600160208190526040822080546001600160a01b039094166001600160a01b031994851681179091556002805492830181559092527f405787fa12a823e0f2b7631cc41b3ba8828b3321ca811111fa75cd3aa3bb5ace018054909216179055565b604080516001600160e01b0319831681526001600160a01b03841660208201527f58ddcdb40971f55ad1b6a8a28067274a4ffc7e9d77c3ea14a17652faa705e197910160405180910390a150505050565b61031561038b565b6001600160a01b03811661037f5760405162461bcd60e51b815260206004820152602660248201527f4f776e61626c653a206e6577206f776e657220697320746865207a65726f206160448201526564647265737360d01b60648201526084015b60405180910390fd5b61038881610492565b50565b6000546001600160a01b031633146101f55760405162461bcd60e51b815260206004820181905260248201527f4f776e61626c653a2063616c6c6572206973206e6f7420746865206f776e65726044820152606401610376565b6001600160a01b03831660009081526003602090815260408083206001600160e01b03198616845290915290205460ff1680151582151514156104505760405162461bcd60e51b815260206004820152600360248201526206e6f760ec1b6044820152606401610376565b506001600160a01b0390921660009081526003602090815260408083206001600160e01b0319909416835292905220805491151560ff19909216919091179055565b600080546001600160a01b038381166001600160a01b0319831681178455604051919092169283917f8be0079c531659141344cd1fd0a4f28419497f9722a3daafe3b4186f6b6457e09190a35050565b80356001600160a01b03811681146104f957600080fd5b919050565b80356001600160e01b0319811681146104f957600080fd5b600060208284031215610527578081fd5b610530826104e2565b9392505050565b60008060408385031215610549578081fd5b610552836104e2565b9150610560602084016104fe565b90509250929050565b60008060006060848603121561057d578081fd5b610586846104e2565b9250610594602085016104fe565b9150604084013580151581146105a8578182fd5b809150509250925092565b6000602082840312156105c4578081fd5b610530826104fe565b6000806000604084860312156105e1578283fd5b833567ffffffffffffffff808211156105f8578485fd5b818601915086601f83011261060b578485fd5b813581811115610619578586fd5b87602082850101111561062a578586fd5b60209283019550935061064091860190506104e2565b90509250925092565b60006020828403121561065a578081fd5b5035919050565b818382376000910190815291905056fea26469706673582212209eaa897c3e77131aeea3b1b8ab63811b9d387c99686501c2bcf2668f0ef86d2364736f6c63430008040033",
  "linkReferences": {},
  "deployedLinkReferences": {}
}