{
  "_format": "hh-sol-artifact-1",
  "contractName": "Swapper",
  "sourceName": "contracts/crosschain-swap/Swapper.sol",
  "abi": [
    {
      "inputs": [
        {
          "internalType": "string[]",
          "name": "_funcSigs",
          "type": "string[]"
        },
        {
          "internalType": "address[]",
          "name": "_codecs",
          "type": "address[]"
        },
        {
          "internalType": "address[]",
          "name": "_supportedDexList",
          "type": "address[]"
        },
        {
          "internalType": "string[]",
          "name": "_supportedDexFuncs",
          "type": "string[]"
        }
      ],
      "stateMutability": "nonpayable",
      "type": "constructor"
    },
    {
      "anonymous": false,
      "inputs": [
        {
          "indexed": false,
          "internalType": "bytes4",
          "name": "selector",
          "type": "bytes4"
        },
        {
          "indexed": false,
          "internalType": "address",
          "name": "codec",
          "type": "address"
        }
      ],
      "name": "CodecUpdated",
      "type": "event"
    },
    {
      "anonymous": false,
      "inputs": [
        {
          "indexed": true,
          "internalType": "address",
          "name": "previousOwner",
          "type": "address"
        },
        {
          "indexed": true,
          "internalType": "address",
          "name": "newOwner",
          "type": "address"
        }
      ],
      "name": "OwnershipTransferred",
      "type": "event"
    },
    {
      "anonymous": false,
      "inputs": [
        {
          "indexed": false,
          "internalType": "address",
          "name": "dex",
          "type": "address"
        },
        {
          "indexed": false,
          "internalType": "bytes4",
          "name": "selector",
          "type": "bytes4"
        },
        {
          "indexed": false,
          "internalType": "bool",
          "name": "enabled",
          "type": "bool"
        }
      ],
      "name": "SupportedDexUpdated",
      "type": "event"
    },
    {
      "inputs": [
        {
          "internalType": "uint256",
          "name": "",
          "type": "uint256"
        }
      ],
      "name": "codecs",
      "outputs": [
        {
          "internalType": "address",
          "name": "",
          "type": "address"
        }
      ],
      "stateMutability": "view",
      "type": "function"
    },
    {
      "inputs": [
        {
          "internalType": "address",
          "name": "",
          "type": "address"
        },
        {
          "internalType": "bytes4",
          "name": "",
          "type": "bytes4"
        }
      ],
      "name": "dexRegistry",
      "outputs": [
        {
          "internalType": "bool",
          "name": "",
          "type": "bool"
        }
      ],
      "stateMutability": "view",
      "type": "function"
    },
    {
      "inputs": [],
      "name": "owner",
      "outputs": [
        {
          "internalType": "address",
          "name": "",
          "type": "address"
        }
      ],
      "stateMutability": "view",
      "type": "function"
    },
    {
      "inputs": [],
      "name": "renounceOwnership",
      "outputs": [],
      "stateMutability": "nonpayable",
      "type": "function"
    },
    {
      "inputs": [
        {
          "internalType": "bytes4",
          "name": "",
          "type": "bytes4"
        }
      ],
      "name": "selector2codec",
      "outputs": [
        {
          "internalType": "contract ICodec",
          "name": "",
          "type": "address"
        }
      ],
      "stateMutability": "view",
      "type": "function"
    },
    {
      "inputs": [
        {
          "internalType": "string",
          "name": "_funcSig",
          "type": "string"
        },
        {
          "internalType": "address",
          "name": "_codec",
          "type": "address"
        }
      ],
      "name": "setCodec",
      "outputs": [],
      "stateMutability": "nonpayable",
      "type": "function"
    },
    {
      "inputs": [
        {
          "internalType": "address",
          "name": "_dex",
          "type": "address"
        },
        {
          "internalType": "string",
          "name": "_supportedFuncs",
          "type": "string"
        },
        {
          "internalType": "bool",
          "name": "_enabled",
          "type": "bool"
        }
      ],
      "name": "setSupportedDex",
      "outputs": [],
      "stateMutability": "nonpayable",
      "type": "function"
    },
    {
      "inputs": [
        {
          "internalType": "address",
          "name": "newOwner",
          "type": "address"
        }
      ],
      "name": "transferOwnership",
      "outputs": [],
      "stateMutability": "nonpayable",
      "type": "function"
    }
  ],
  "bytecode": "0x60806040523480156200001157600080fd5b5060405162000d6b38038062000d6b8339810160408190526200003491620004c6565b818185856200004333620001b7565b8051825114620000835760405162461bcd60e51b81526020600482015260066024820152656c656e206d6d60d01b60448201526064015b60405180910390fd5b60005b825181101562000114576000838281518110620000b357634e487b7160e01b600052603260045260246000fd5b6020026020010151805190602001209050620000fe81848481518110620000ea57634e487b7160e01b600052603260045260246000fd5b60200260200101516200020760201b60201c565b50806200010b81620005d3565b91505062000086565b50505060005b8251811015620001aa5760008282815181106200014757634e487b7160e01b600052603260045260246000fd5b6020026020010151805190602001209050620001948483815181106200017d57634e487b7160e01b600052603260045260246000fd5b60200260200101518260016200027960201b60201c565b5080620001a181620005d3565b9150506200011a565b5050505050505062000611565b600080546001600160a01b038381166001600160a01b0319831681178455604051919092169283917f8be0079c531659141344cd1fd0a4f28419497f9722a3daafe3b4186f6b6457e09190a35050565b6001600160e01b03199091166000908152600160208190526040822080546001600160a01b039094166001600160a01b031994851681179091556002805492830181559092527f405787fa12a823e0f2b7631cc41b3ba8828b3321ca811111fa75cd3aa3bb5ace018054909216179055565b6001600160a01b03831660009081526003602090815260408083206001600160e01b03198616845290915290205460ff168015158215151415620002e65760405162461bcd60e51b815260206004820152600360248201526206e6f760ec1b60448201526064016200007a565b506001600160a01b0390921660009081526003602090815260408083206001600160e01b0319909416835292905220805491151560ff19909216919091179055565b600082601f83011262000339578081fd5b81516020620003526200034c83620005ad565b6200057a565b80838252828201915082860187848660051b890101111562000372578586fd5b855b85811015620003a75781516001600160a01b038116811462000394578788fd5b8452928401929084019060010162000374565b5090979650505050505050565b6000601f8381840112620003c6578182fd5b82516020620003d96200034c83620005ad565b80838252828201915082870188848660051b8a01011115620003f9578687fd5b865b85811015620004b85781516001600160401b03808211156200041b57898afd5b818b0191508b603f8301126200042f57898afd5b8682015181811115620004465762000446620005fb565b62000459818b01601f191689016200057a565b915080825260408d8183860101111562000471578b8cfd5b8b5b8281101562000490578481018201518482018b0152890162000473565b82811115620004a1578c8a84860101525b5050508552509284019290840190600101620003fb565b509098975050505050505050565b60008060008060808587031215620004dc578384fd5b84516001600160401b0380821115620004f3578586fd5b6200050188838901620003b4565b9550602087015191508082111562000517578485fd5b620005258883890162000328565b945060408701519150808211156200053b578384fd5b620005498883890162000328565b935060608701519150808211156200055f578283fd5b506200056e87828801620003b4565b91505092959194509250565b604051601f8201601f191681016001600160401b0381118282101715620005a557620005a5620005fb565b604052919050565b60006001600160401b03821115620005c957620005c9620005fb565b5060051b60200190565b6000600019821415620005f457634e487b7160e01b81526011600452602481fd5b5060010190565b634e487b7160e01b600052604160045260246000fd5b61074a80620006216000396000f3fe608060405234801561001057600080fd5b50600436106100885760003560e01c806391ec04b51161005b57806391ec04b5146100eb578063c5bccca314610129578063f2fde38b1461013c578063fbf5d7631461014f57600080fd5b8063489a6d481461008d578063715018a6146100a257806382665a8f146100aa5780638da5cb5b146100da575b600080fd5b6100a061009b36600461057d565b610178565b005b6100a06101f0565b6100bd6100b83660046106d6565b610204565b6040516001600160a01b0390911681526020015b60405180910390f35b6000546001600160a01b03166100bd565b6101196100f936600461054b565b600360209081526000928352604080842090915290825290205460ff1681565b60405190151581526020016100d1565b6100a0610137366004610663565b61022e565b6100a061014a36600461052a565b610311565b6100bd61015d366004610649565b6001602052600090815260409020546001600160a01b031681565b61018061038f565b815160208301206101928482846103e9565b604080516001600160a01b03861681526001600160e01b031983166020820152831515918101919091527f5e20184b00709d9f103306958e9fb9d509f78bec1829ca7080f2c43eb2ff21a8906060015b60405180910390a150505050565b6101f861038f565b6102026000610496565b565b6002818154811061021457600080fd5b6000918252602090912001546001600160a01b0316905081565b61023661038f565b600083836040516102489291906106ee565b604051809103902090506102c981836001600160e01b03199091166000908152600160208190526040822080546001600160a01b039094166001600160a01b031994851681179091556002805492830181559092527f405787fa12a823e0f2b7631cc41b3ba8828b3321ca811111fa75cd3aa3bb5ace018054909216179055565b604080516001600160e01b0319831681526001600160a01b03841660208201527f58ddcdb40971f55ad1b6a8a28067274a4ffc7e9d77c3ea14a17652faa705e19791016101e2565b61031961038f565b6001600160a01b0381166103835760405162461bcd60e51b815260206004820152602660248201527f4f776e61626c653a206e6577206f776e657220697320746865207a65726f206160448201526564647265737360d01b60648201526084015b60405180910390fd5b61038c81610496565b50565b6000546001600160a01b031633146102025760405162461bcd60e51b815260206004820181905260248201527f4f776e61626c653a2063616c6c6572206973206e6f7420746865206f776e6572604482015260640161037a565b6001600160a01b03831660009081526003602090815260408083206001600160e01b03198616845290915290205460ff1680151582151514156104545760405162461bcd60e51b815260206004820152600360248201526206e6f760ec1b604482015260640161037a565b506001600160a01b0390921660009081526003602090815260408083206001600160e01b0319909416835292905220805491151560ff19909216919091179055565b600080546001600160a01b038381166001600160a01b0319831681178455604051919092169283917f8be0079c531659141344cd1fd0a4f28419497f9722a3daafe3b4186f6b6457e09190a35050565b80356001600160a01b03811681146104fd57600080fd5b919050565b803580151581146104fd57600080fd5b80356001600160e01b0319811681146104fd57600080fd5b60006020828403121561053b578081fd5b610544826104e6565b9392505050565b6000806040838503121561055d578081fd5b610566836104e6565b915061057460208401610512565b90509250929050565b600080600060608486031215610591578081fd5b61059a846104e6565b9250602084013567ffffffffffffffff808211156105b6578283fd5b818601915086601f8301126105c9578283fd5b8135818111156105db576105db6106fe565b604051601f8201601f19908116603f01168101908382118183101715610603576106036106fe565b8160405282815289602084870101111561061b578586fd5b8260208601602083013791820160200185905250935061064091505060408501610502565b90509250925092565b60006020828403121561065a578081fd5b61054482610512565b600080600060408486031215610677578283fd5b833567ffffffffffffffff8082111561068e578485fd5b818601915086601f8301126106a1578485fd5b8135818111156106af578586fd5b8760208285010111156106c0578586fd5b60209283019550935061064091860190506104e6565b6000602082840312156106e7578081fd5b5035919050565b8183823760009101908152919050565b634e487b7160e01b600052604160045260246000fdfea26469706673582212205f34811fd58ff3b8288b731f111339e2139c1a4838287df1061b85ce3e6cb89864736f6c63430008040033",
  "linkReferences": {},
  "deployedLinkReferences": {}
}