{
  "_format": "hh-sol-artifact-1",
  "contractName": "SimpleScrossSwap",
  "sourceName": "contracts/crosschain-swap/SimpleScrossSwap.sol",
  "abi": [
    {
      "inputs": [
        {
          "internalType": "address",
          "name": "_ammRouter",
          "type": "address"
        },
        {
          "internalType": "address",
          "name": "_anyRouter",
          "type": "address"
        }
      ],
      "stateMutability": "nonpayable",
      "type": "constructor"
    },
    {
      "anonymous": false,
      "inputs": [
        {
          "indexed": true,
          "internalType": "address",
          "name": "previousOwner",
          "type": "address"
        },
        {
          "indexed": true,
          "internalType": "address",
          "name": "newOwner",
          "type": "address"
        }
      ],
      "name": "OwnershipTransferred",
      "type": "event"
    },
    {
      "anonymous": false,
      "inputs": [
        {
          "indexed": false,
          "internalType": "address[]",
          "name": "path",
          "type": "address[]"
        },
        {
          "indexed": false,
          "internalType": "uint256",
          "name": "amountIn",
          "type": "uint256"
        },
        {
          "indexed": false,
          "internalType": "uint256",
          "name": "amountOutMin",
          "type": "uint256"
        },
        {
          "indexed": false,
          "internalType": "address",
          "name": "to",
          "type": "address"
        },
        {
          "indexed": false,
          "internalType": "uint256",
          "name": "deadline",
          "type": "uint256"
        }
      ],
      "name": "SwapOut",
      "type": "event"
    },
    {
      "inputs": [],
      "name": "ammRouter",
      "outputs": [
        {
          "internalType": "contract IPancakeSwapRouter",
          "name": "",
          "type": "address"
        }
      ],
      "stateMutability": "view",
      "type": "function"
    },
    {
      "inputs": [],
      "name": "anyKAI",
      "outputs": [
        {
          "internalType": "address",
          "name": "",
          "type": "address"
        }
      ],
      "stateMutability": "view",
      "type": "function"
    },
    {
      "inputs": [],
      "name": "anyRouter",
      "outputs": [
        {
          "internalType": "contract AnySwapRouter",
          "name": "",
          "type": "address"
        }
      ],
      "stateMutability": "view",
      "type": "function"
    },
    {
      "inputs": [],
      "name": "kai",
      "outputs": [
        {
          "internalType": "address",
          "name": "",
          "type": "address"
        }
      ],
      "stateMutability": "view",
      "type": "function"
    },
    {
      "inputs": [],
      "name": "owner",
      "outputs": [
        {
          "internalType": "address",
          "name": "",
          "type": "address"
        }
      ],
      "stateMutability": "view",
      "type": "function"
    },
    {
      "inputs": [],
      "name": "renounceOwnership",
      "outputs": [],
      "stateMutability": "nonpayable",
      "type": "function"
    },
    {
      "inputs": [
        {
          "internalType": "uint256",
          "name": "amountOutMin",
          "type": "uint256"
        },
        {
          "internalType": "address[]",
          "name": "path",
          "type": "address[]"
        },
        {
          "internalType": "address",
          "name": "to",
          "type": "address"
        },
        {
          "internalType": "uint256",
          "name": "deadline",
          "type": "uint256"
        }
      ],
      "name": "swapOutNativeToKai",
      "outputs": [],
      "stateMutability": "payable",
      "type": "function"
    },
    {
      "inputs": [],
      "name": "toChainID",
      "outputs": [
        {
          "internalType": "uint256",
          "name": "",
          "type": "uint256"
        }
      ],
      "stateMutability": "view",
      "type": "function"
    },
    {
      "inputs": [
        {
          "internalType": "address",
          "name": "newOwner",
          "type": "address"
        }
      ],
      "name": "transferOwnership",
      "outputs": [],
      "stateMutability": "nonpayable",
      "type": "function"
    },
    {
      "inputs": [
        {
          "internalType": "uint256",
          "name": "_newFees",
          "type": "uint256"
        }
      ],
      "name": "updateMinimalFees",
      "outputs": [],
      "stateMutability": "nonpayable",
      "type": "function"
    },
    {
      "inputs": [],
      "name": "wbnb",
      "outputs": [
        {
          "internalType": "address",
          "name": "",
          "type": "address"
        }
      ],
      "stateMutability": "view",
      "type": "function"
    }
  ],
  "bytecode": "0x6080604052600380546001600160a01b031990811673bb4cdb9cbd36b01bd1cbaebf2de08d9173bc095c179091556004805482167339ae8eefb05138f418bb27659c21632dc1ddab10179055600580549091167301a4229adc327220209a6d9a4842da27098c6ed11790556018600655681bc16d674ec800000060075534801561008857600080fd5b50604051610e20380380610e208339810160408190526100a7916101ae565b6100b033610142565b6001600160a01b038216158015906100d057506001600160a01b03811615155b6101115760405162461bcd60e51b815260206004820152600e60248201526d1859191c995cdcc81a5cc81b9a5b60921b604482015260640160405180910390fd5b600180546001600160a01b039384166001600160a01b031991821617909155600280549290931691161790556101e0565b600080546001600160a01b038381166001600160a01b0319831681178455604051919092169283917f8be0079c531659141344cd1fd0a4f28419497f9722a3daafe3b4186f6b6457e09190a35050565b80516001600160a01b03811681146101a957600080fd5b919050565b600080604083850312156101c0578182fd5b6101c983610192565b91506101d760208401610192565b90509250929050565b610c31806101ef6000396000f3fe60806040526004361061009c5760003560e01c80638d72647e116100645780638d72647e146101595780638da5cb5b1461017957806390b3c4e71461019757806395925104146101b7578063e8a2b16a146101ca578063f2fde38b146101ea57600080fd5b806314045b1d146100a157806332d7b076146100de578063372b72e9146101025780636ccbfad414610124578063715018a614610144575b600080fd5b3480156100ad57600080fd5b506005546100c1906001600160a01b031681565b6040516001600160a01b0390911681526020015b60405180910390f35b3480156100ea57600080fd5b506100f460065481565b6040519081526020016100d5565b34801561010e57600080fd5b5061012261011d3660046109eb565b61020a565b005b34801561013057600080fd5b506002546100c1906001600160a01b031681565b34801561015057600080fd5b50610122610242565b34801561016557600080fd5b506003546100c1906001600160a01b031681565b34801561018557600080fd5b506000546001600160a01b03166100c1565b3480156101a357600080fd5b506001546100c1906001600160a01b031681565b6101226101c5366004610a1b565b610278565b3480156101d657600080fd5b506004546100c1906001600160a01b031681565b3480156101f657600080fd5b506101226102053660046108cc565b6103bf565b6000546001600160a01b0316331461023d5760405162461bcd60e51b815260040161023490610b3a565b60405180910390fd5b600755565b6000546001600160a01b0316331461026c5760405162461bcd60e51b815260040161023490610b3a565b610276600061045a565b565b6007548510156102ca5760405162461bcd60e51b815260206004820152601760248201527f626967676572207468616e206d696e696d616c206665650000000000000000006044820152606401610234565b600360009054906101000a90046001600160a01b03166001600160a01b031663d0e30db0346040518263ffffffff1660e01b81526004016000604051808303818588803b15801561031a57600080fd5b505af115801561032e573d6000803e3d6000fd5b5050505050600061034234878787866104aa565b9050610376838260018151811061036957634e487b7160e01b600052603260045260246000fd5b60200260200101516106b2565b7fb754fc092db313922ae2b2286a489b0400e989c9c1c3422dc735d57713d4f1f18585348987876040516103af96959493929190610af8565b60405180910390a1505050505050565b6000546001600160a01b031633146103e95760405162461bcd60e51b815260040161023490610b3a565b6001600160a01b03811661044e5760405162461bcd60e51b815260206004820152602660248201527f4f776e61626c653a206e6577206f776e657220697320746865207a65726f206160448201526564647265737360d01b6064820152608401610234565b6104578161045a565b50565b600080546001600160a01b038381166001600160a01b0319831681178455604051919092169283917f8be0079c531659141344cd1fd0a4f28419497f9722a3daafe3b4186f6b6457e09190a35050565b6003546060906001600160a01b031684846000816104d857634e487b7160e01b600052603260045260246000fd5b90506020020160208101906104ed91906108cc565b6001600160a01b0316146105385760405162461bcd60e51b81526020600482015260126024820152710e6eec2e07440929cac82989288bea082a8960731b6044820152606401610234565b6004546001600160a01b03168484610551600182610bad565b81811061056e57634e487b7160e01b600052603260045260246000fd5b905060200201602081019061058391906108cc565b6001600160a01b0316146105ce5760405162461bcd60e51b81526020600482015260126024820152710e6eec2e07440929cac82989288bea082a8960731b6044820152606401610234565b610618848460008181106105f257634e487b7160e01b600052603260045260246000fd5b905060200201602081019061060791906108cc565b6001546001600160a01b03166107c0565b6001546040516338ed173960e01b81526001600160a01b03909116906338ed17399061065290899089908990899030908a90600401610b6f565b600060405180830381600087803b15801561066c57600080fd5b505af1158015610680573d6000803e3d6000fd5b505050506040513d6000823e601f3d908101601f191682016040526106a8919081019061090b565b9695505050505050565b60055460408051636f307dc360e01b81529051610741926001600160a01b031691636f307dc3916004808301926020929190829003018186803b1580156106f857600080fd5b505afa15801561070c573d6000803e3d6000fd5b505050506040513d601f19601f8201168201806040525081019061073091906108ef565b6002546001600160a01b03166107c0565b6002546005546006546040516376defaf160e11b81526001600160a01b039283166004820152858316602482015260448101859052606481019190915291169063edbdf5e290608401600060405180830381600087803b1580156107a457600080fd5b505af11580156107b8573d6000803e3d6000fd5b505050505050565b604051636eb1769f60e11b81523060048201526001600160a01b03828116602483015283169063dd62ed3e9060440160206040518083038186803b15801561080757600080fd5b505afa15801561081b573d6000803e3d6000fd5b505050506040513d601f19601f8201168201806040525081019061083f9190610a03565b6108c85760405163095ea7b360e01b81526001600160a01b038281166004830152600019602483015283169063095ea7b390604401602060405180830381600087803b15801561088e57600080fd5b505af11580156108a2573d6000803e3d6000fd5b505050506040513d601f19601f820116820180604052508101906108c691906109cb565b505b5050565b6000602082840312156108dd578081fd5b81356108e881610be6565b9392505050565b600060208284031215610900578081fd5b81516108e881610be6565b6000602080838503121561091d578182fd5b825167ffffffffffffffff80821115610934578384fd5b818501915085601f830112610947578384fd5b81518181111561095957610959610bd0565b8060051b604051601f19603f8301168101818110858211171561097e5761097e610bd0565b604052828152858101935084860182860187018a101561099c578788fd5b8795505b838610156109be5780518552600195909501949386019386016109a0565b5098975050505050505050565b6000602082840312156109dc578081fd5b815180151581146108e8578182fd5b6000602082840312156109fc578081fd5b5035919050565b600060208284031215610a14578081fd5b5051919050565b600080600080600060808688031215610a32578081fd5b85359450602086013567ffffffffffffffff80821115610a50578283fd5b818801915088601f830112610a63578283fd5b813581811115610a71578384fd5b8960208260051b8501011115610a85578384fd5b6020830196508095505050506040860135610a9f81610be6565b949793965091946060013592915050565b81835260006020808501945082825b85811015610aed578135610ad281610be6565b6001600160a01b031687529582019590820190600101610abf565b509495945050505050565b60a081526000610b0c60a08301888a610ab0565b60208301969096525060408101939093526001600160a01b0391909116606083015260809091015292915050565b6020808252818101527f4f776e61626c653a2063616c6c6572206973206e6f7420746865206f776e6572604082015260600190565b86815285602082015260a060408201526000610b8f60a083018688610ab0565b6001600160a01b039490941660608301525060800152949350505050565b600082821015610bcb57634e487b7160e01b81526011600452602481fd5b500390565b634e487b7160e01b600052604160045260246000fd5b6001600160a01b038116811461045757600080fdfea2646970667358221220fd3360448eaef23dfc89ae2e09d6af78f79a2ddfdb970240396847b8d984814964736f6c63430008040033",
  "linkReferences": {},
  "deployedLinkReferences": {}
}