{
  "_format": "hh-sol-artifact-1",
  "contractName": "WhitelistRaisingV2",
  "sourceName": "contracts/launchpad/whitelist/WhitelistRaisingV2.sol",
  "abi": [
    {
      "inputs": [
        {
          "internalType": "contract ERC20",
          "name": "_buyToken",
          "type": "address"
        },
        {
          "internalType": "contract ERC20",
          "name": "_offeringToken",
          "type": "address"
        },
        {
          "internalType": "uint256",
          "name": "_startTime",
          "type": "uint256"
        },
        {
          "internalType": "uint256",
          "name": "_endTime",
          "type": "uint256"
        },
        {
          "internalType": "uint256",
          "name": "_harvestTime",
          "type": "uint256"
        },
        {
          "internalType": "uint256",
          "name": "_offeringAmount",
          "type": "uint256"
        },
        {
          "internalType": "uint256",
          "name": "_raisingAmount",
          "type": "uint256"
        },
        {
          "internalType": "uint256",
          "name": "_maxAllocation",
          "type": "uint256"
        }
      ],
      "stateMutability": "nonpayable",
      "type": "constructor"
    },
    {
      "anonymous": false,
      "inputs": [
        {
          "indexed": true,
          "internalType": "address",
          "name": "user",
          "type": "address"
        },
        {
          "indexed": false,
          "internalType": "uint256",
          "name": "amount",
          "type": "uint256"
        }
      ],
      "name": "Deposit",
      "type": "event"
    },
    {
      "anonymous": false,
      "inputs": [
        {
          "indexed": true,
          "internalType": "address",
          "name": "user",
          "type": "address"
        },
        {
          "indexed": false,
          "internalType": "uint256",
          "name": "offeringAmount",
          "type": "uint256"
        },
        {
          "indexed": false,
          "internalType": "uint256",
          "name": "excessAmount",
          "type": "uint256"
        }
      ],
      "name": "Harvest",
      "type": "event"
    },
    {
      "anonymous": false,
      "inputs": [
        {
          "indexed": true,
          "internalType": "address",
          "name": "previousOwner",
          "type": "address"
        },
        {
          "indexed": true,
          "internalType": "address",
          "name": "newOwner",
          "type": "address"
        }
      ],
      "name": "OwnershipTransferred",
      "type": "event"
    },
    {
      "anonymous": false,
      "inputs": [
        {
          "indexed": false,
          "internalType": "address",
          "name": "account",
          "type": "address"
        }
      ],
      "name": "Paused",
      "type": "event"
    },
    {
      "anonymous": false,
      "inputs": [
        {
          "indexed": false,
          "internalType": "address",
          "name": "account",
          "type": "address"
        }
      ],
      "name": "Unpaused",
      "type": "event"
    },
    {
      "anonymous": false,
      "inputs": [
        {
          "indexed": false,
          "internalType": "address",
          "name": "addr",
          "type": "address"
        }
      ],
      "name": "WhitelistedAddressAdded",
      "type": "event"
    },
    {
      "anonymous": false,
      "inputs": [
        {
          "indexed": false,
          "internalType": "address",
          "name": "addr",
          "type": "address"
        }
      ],
      "name": "WhitelistedAddressRemoved",
      "type": "event"
    },
    {
      "inputs": [],
      "name": "IDO_FEE",
      "outputs": [
        {
          "internalType": "uint256",
          "name": "",
          "type": "uint256"
        }
      ],
      "stateMutability": "view",
      "type": "function"
    },
    {
      "inputs": [
        {
          "internalType": "address",
          "name": "addr",
          "type": "address"
        }
      ],
      "name": "addAddressToWhitelist",
      "outputs": [
        {
          "internalType": "bool",
          "name": "success",
          "type": "bool"
        }
      ],
      "stateMutability": "nonpayable",
      "type": "function"
    },
    {
      "inputs": [
        {
          "internalType": "address[]",
          "name": "addrs",
          "type": "address[]"
        }
      ],
      "name": "addAddressesToWhitelist",
      "outputs": [
        {
          "internalType": "bool",
          "name": "success",
          "type": "bool"
        }
      ],
      "stateMutability": "nonpayable",
      "type": "function"
    },
    {
      "inputs": [
        {
          "internalType": "uint256",
          "name": "",
          "type": "uint256"
        }
      ],
      "name": "addressList",
      "outputs": [
        {
          "internalType": "address",
          "name": "",
          "type": "address"
        }
      ],
      "stateMutability": "view",
      "type": "function"
    },
    {
      "inputs": [],
      "name": "buyToken",
      "outputs": [
        {
          "internalType": "contract ERC20",
          "name": "",
          "type": "address"
        }
      ],
      "stateMutability": "view",
      "type": "function"
    },
    {
      "inputs": [
        {
          "internalType": "uint256",
          "name": "_amount",
          "type": "uint256"
        }
      ],
      "name": "deposit",
      "outputs": [],
      "stateMutability": "payable",
      "type": "function"
    },
    {
      "inputs": [
        {
          "internalType": "address",
          "name": "token",
          "type": "address"
        },
        {
          "internalType": "address payable",
          "name": "to",
          "type": "address"
        }
      ],
      "name": "emergencyWithdraw",
      "outputs": [],
      "stateMutability": "nonpayable",
      "type": "function"
    },
    {
      "inputs": [],
      "name": "endTime",
      "outputs": [
        {
          "internalType": "uint256",
          "name": "",
          "type": "uint256"
        }
      ],
      "stateMutability": "view",
      "type": "function"
    },
    {
      "inputs": [
        {
          "internalType": "address",
          "name": "_destination",
          "type": "address"
        }
      ],
      "name": "finalWithdraw",
      "outputs": [],
      "stateMutability": "nonpayable",
      "type": "function"
    },
    {
      "inputs": [],
      "name": "getAddressListLength",
      "outputs": [
        {
          "internalType": "uint256",
          "name": "",
          "type": "uint256"
        }
      ],
      "stateMutability": "view",
      "type": "function"
    },
    {
      "inputs": [
        {
          "internalType": "address",
          "name": "_user",
          "type": "address"
        }
      ],
      "name": "getOfferingAmount",
      "outputs": [
        {
          "internalType": "uint256",
          "name": "",
          "type": "uint256"
        }
      ],
      "stateMutability": "view",
      "type": "function"
    },
    {
      "inputs": [
        {
          "internalType": "address",
          "name": "_user",
          "type": "address"
        }
      ],
      "name": "getRefundingAmount",
      "outputs": [
        {
          "internalType": "uint256",
          "name": "",
          "type": "uint256"
        }
      ],
      "stateMutability": "view",
      "type": "function"
    },
    {
      "inputs": [
        {
          "internalType": "address",
          "name": "_user",
          "type": "address"
        }
      ],
      "name": "getUserAllocation",
      "outputs": [
        {
          "internalType": "uint256",
          "name": "",
          "type": "uint256"
        }
      ],
      "stateMutability": "view",
      "type": "function"
    },
    {
      "inputs": [],
      "name": "harvest",
      "outputs": [],
      "stateMutability": "nonpayable",
      "type": "function"
    },
    {
      "inputs": [],
      "name": "harvestTime",
      "outputs": [
        {
          "internalType": "uint256",
          "name": "",
          "type": "uint256"
        }
      ],
      "stateMutability": "view",
      "type": "function"
    },
    {
      "inputs": [],
      "name": "maxAllocation",
      "outputs": [
        {
          "internalType": "uint256",
          "name": "",
          "type": "uint256"
        }
      ],
      "stateMutability": "view",
      "type": "function"
    },
    {
      "inputs": [],
      "name": "offeringAmount",
      "outputs": [
        {
          "internalType": "uint256",
          "name": "",
          "type": "uint256"
        }
      ],
      "stateMutability": "view",
      "type": "function"
    },
    {
      "inputs": [],
      "name": "offeringToken",
      "outputs": [
        {
          "internalType": "contract ERC20",
          "name": "",
          "type": "address"
        }
      ],
      "stateMutability": "view",
      "type": "function"
    },
    {
      "inputs": [],
      "name": "owner",
      "outputs": [
        {
          "internalType": "address",
          "name": "",
          "type": "address"
        }
      ],
      "stateMutability": "view",
      "type": "function"
    },
    {
      "inputs": [],
      "name": "pause",
      "outputs": [],
      "stateMutability": "nonpayable",
      "type": "function"
    },
    {
      "inputs": [],
      "name": "paused",
      "outputs": [
        {
          "internalType": "bool",
          "name": "",
          "type": "bool"
        }
      ],
      "stateMutability": "view",
      "type": "function"
    },
    {
      "inputs": [],
      "name": "raisingAmount",
      "outputs": [
        {
          "internalType": "uint256",
          "name": "",
          "type": "uint256"
        }
      ],
      "stateMutability": "view",
      "type": "function"
    },
    {
      "inputs": [
        {
          "internalType": "address",
          "name": "addr",
          "type": "address"
        }
      ],
      "name": "removeAddressFromWhitelist",
      "outputs": [
        {
          "internalType": "bool",
          "name": "success",
          "type": "bool"
        }
      ],
      "stateMutability": "nonpayable",
      "type": "function"
    },
    {
      "inputs": [
        {
          "internalType": "address[]",
          "name": "addrs",
          "type": "address[]"
        }
      ],
      "name": "removeAddressesFromWhitelist",
      "outputs": [
        {
          "internalType": "bool",
          "name": "success",
          "type": "bool"
        }
      ],
      "stateMutability": "nonpayable",
      "type": "function"
    },
    {
      "inputs": [],
      "name": "renounceOwnership",
      "outputs": [],
      "stateMutability": "nonpayable",
      "type": "function"
    },
    {
      "inputs": [
        {
          "internalType": "uint256",
          "name": "_offerAmount",
          "type": "uint256"
        }
      ],
      "name": "setOfferingAmount",
      "outputs": [],
      "stateMutability": "nonpayable",
      "type": "function"
    },
    {
      "inputs": [
        {
          "internalType": "uint256",
          "name": "_raisingAmount",
          "type": "uint256"
        }
      ],
      "name": "setRaisingAmount",
      "outputs": [],
      "stateMutability": "nonpayable",
      "type": "function"
    },
    {
      "inputs": [],
      "name": "startTime",
      "outputs": [
        {
          "internalType": "uint256",
          "name": "",
          "type": "uint256"
        }
      ],
      "stateMutability": "view",
      "type": "function"
    },
    {
      "inputs": [],
      "name": "totalAddress",
      "outputs": [
        {
          "internalType": "uint256",
          "name": "",
          "type": "uint256"
        }
      ],
      "stateMutability": "view",
      "type": "function"
    },
    {
      "inputs": [],
      "name": "totalAmount",
      "outputs": [
        {
          "internalType": "uint256",
          "name": "",
          "type": "uint256"
        }
      ],
      "stateMutability": "view",
      "type": "function"
    },
    {
      "inputs": [
        {
          "internalType": "address",
          "name": "newOwner",
          "type": "address"
        }
      ],
      "name": "transferOwnership",
      "outputs": [],
      "stateMutability": "nonpayable",
      "type": "function"
    },
    {
      "inputs": [],
      "name": "unpause",
      "outputs": [],
      "stateMutability": "nonpayable",
      "type": "function"
    },
    {
      "inputs": [
        {
          "internalType": "uint256",
          "name": "_newTime",
          "type": "uint256"
        }
      ],
      "name": "updateEndTime",
      "outputs": [],
      "stateMutability": "nonpayable",
      "type": "function"
    },
    {
      "inputs": [
        {
          "internalType": "uint256",
          "name": "_newTime",
          "type": "uint256"
        }
      ],
      "name": "updateHarvestTime",
      "outputs": [],
      "stateMutability": "nonpayable",
      "type": "function"
    },
    {
      "inputs": [
        {
          "internalType": "uint256",
          "name": "_newTime",
          "type": "uint256"
        }
      ],
      "name": "updateStartTime",
      "outputs": [],
      "stateMutability": "nonpayable",
      "type": "function"
    },
    {
      "inputs": [
        {
          "internalType": "address",
          "name": "",
          "type": "address"
        }
      ],
      "name": "userInfo",
      "outputs": [
        {
          "internalType": "uint256",
          "name": "amount",
          "type": "uint256"
        },
        {
          "internalType": "bool",
          "name": "claimed",
          "type": "bool"
        }
      ],
      "stateMutability": "view",
      "type": "function"
    },
    {
      "inputs": [
        {
          "internalType": "address",
          "name": "",
          "type": "address"
        }
      ],
      "name": "whitelist",
      "outputs": [
        {
          "internalType": "bool",
          "name": "",
          "type": "bool"
        }
      ],
      "stateMutability": "view",
      "type": "function"
    }
  ],
  "bytecode": "0x608060405260c8600f553480156200001657600080fd5b50604051620020fe380380620020fe833981016040819052620000399162000141565b60016000556200004933620000d2565b6001805460ff60a01b191690558484108015906200006657508585115b80156200007257504286115b6200007c57600080fd5b600480546001600160a01b03998a166001600160a01b0319918216179091556005805498909916971696909617909655600693909355600791909155600855600a556009919091556000600b55600e55620001b1565b600180546001600160a01b038381166001600160a01b0319831681179093556040519116919082907f8be0079c531659141344cd1fd0a4f28419497f9722a3daafe3b4186f6b6457e090600090a35050565b80516001600160a01b03811681146200013c57600080fd5b919050565b600080600080600080600080610100898b0312156200015e578384fd5b620001698962000124565b97506200017960208a0162000124565b60408a015160608b015160808c015160a08d015160c08e015160e0909e01519c9f949e50929c919b909a509198509650945092505050565b611f3d80620001c16000396000f3fe60806040526004361061021a5760003560e01c80637e45e94211610123578063ac3ff912116100ab578063e1af9a951161006f578063e1af9a9514610612578063e2ec6ec314610628578063f2fde38b14610648578063f480821014610668578063fc00358e1461067e57600080fd5b8063ac3ff9121461057f578063b6b55f251461059f578063b7813607146105b2578063b810fb43146105d2578063b920ade2146105f257600080fd5b806395f92254116100f257806395f92254146104ed5780639b19251a146105035780639b3ba79f146105335780639c0a766914610549578063a48217191461055f57600080fd5b80637e45e942146104705780638456cb591461048657806387e97bc61461049b5780638da5cb5b146104bb57600080fd5b80634225c32f116101a65780636ab3846b116101755780636ab3846b146103e5578063715018a61461040557806376ea6ee01461041a57806378e979251461043a5780637b9417c81461045057600080fd5b80634225c32f146103715780634641257d146103915780635c975abb146103a65780636382d9ad146103c557600080fd5b806327d1b1a2116101ed57806327d1b1a2146102e6578063286dd3f5146103065780632f5105f8146103265780633197cbb6146103465780633f4ba83a1461035c57600080fd5b806306bcf02f1461021f5780631959a002146102415780631a39d8ef1461029257806324953eaa146102b6575b600080fd5b34801561022b57600080fd5b5061023f61023a366004611cf4565b610693565b005b34801561024d57600080fd5b5061027861025c366004611bb9565b600c602052600090815260409020805460019091015460ff1682565b604080519283529015156020830152015b60405180910390f35b34801561029e57600080fd5b506102a8600b5481565b604051908152602001610289565b3480156102c257600080fd5b506102d66102d1366004611c0d565b6106f7565b6040519015158152602001610289565b3480156102f257600080fd5b5061023f610301366004611cf4565b610782565b34801561031257600080fd5b506102d6610321366004611bb9565b6107e7565b34801561033257600080fd5b506102a8610341366004611bb9565b6108a7565b34801561035257600080fd5b506102a860075481565b34801561036857600080fd5b5061023f61095c565b34801561037d57600080fd5b5061023f61038c366004611cf4565b610990565b34801561039d57600080fd5b5061023f6109f5565b3480156103b257600080fd5b50600154600160a01b900460ff166102d6565b3480156103d157600080fd5b5061023f6103e0366004611bd5565b610c38565b3480156103f157600080fd5b5061023f610400366004611cf4565b610d3c565b34801561041157600080fd5b5061023f610d97565b34801561042657600080fd5b5061023f610435366004611cf4565b610dcb565b34801561044657600080fd5b506102a860065481565b34801561045c57600080fd5b506102d661046b366004611bb9565b610e26565b34801561047c57600080fd5b506102a860035481565b34801561049257600080fd5b5061023f610edd565b3480156104a757600080fd5b506102a86104b6366004611bb9565b610f0f565b3480156104c757600080fd5b506001546001600160a01b03165b6040516001600160a01b039091168152602001610289565b3480156104f957600080fd5b506102a8600f5481565b34801561050f57600080fd5b506102d661051e366004611bb9565b60026020526000908152604090205460ff1681565b34801561053f57600080fd5b506102a8600e5481565b34801561055557600080fd5b506102a860095481565b34801561056b57600080fd5b506004546104d5906001600160a01b031681565b34801561058b57600080fd5b5061023f61059a366004611bb9565b610f86565b61023f6105ad366004611cf4565b611186565b3480156105be57600080fd5b506005546104d5906001600160a01b031681565b3480156105de57600080fd5b506104d56105ed366004611cf4565b6114f2565b3480156105fe57600080fd5b506102a861060d366004611bb9565b61151c565b34801561061e57600080fd5b506102a8600a5481565b34801561063457600080fd5b506102d6610643366004611c0d565b611550565b34801561065457600080fd5b5061023f610663366004611bb9565b6115d5565b34801561067457600080fd5b506102a860085481565b34801561068a57600080fd5b50600d546102a8565b6001546001600160a01b031633146106c65760405162461bcd60e51b81526004016106bd90611dc5565b60405180910390fd5b42811180156106d6575060075481105b6106f25760405162461bcd60e51b81526004016106bd90611d73565b600655565b6001546000906001600160a01b031633146107245760405162461bcd60e51b81526004016106bd90611dc5565b60005b825181101561077c5761076083828151811061075357634e487b7160e01b600052603260045260246000fd5b60200260200101516107e7565b1561076a57600191505b8061077481611eab565b915050610727565b50919050565b6001546001600160a01b031633146107ac5760405162461bcd60e51b81526004016106bd90611dc5565b60065442106107e25760405162461bcd60e51b81526020600482015260026024820152616e6f60f01b60448201526064016106bd565b600a55565b6001546000906001600160a01b031633146108145760405162461bcd60e51b81526004016106bd90611dc5565b6001600160a01b03821660009081526002602052604090205460ff16156108a2576001600160a01b038216600081815260026020908152604091829020805460ff1916905590519182527ff1abf01a1043b7c244d128e8595cf0c1d10743b022b03a02dffd8ca3bf729f5a910160405180910390a15060038054600191600061089c83611e94565b91905055505b919050565b6000600954600b54116108bc57506000919050565b60006108c78361151c565b905060006108f2670de0b6b3a76400006108ec8460095461166d90919063ffffffff16565b90611679565b6001600160a01b0385166000908152600c60205260408120549192509061092790612710906109219085611685565b90611685565b905060006109466127106108ec600f548561166d90919063ffffffff16565b90506109528282611691565b9695505050505050565b6001546001600160a01b031633146109865760405162461bcd60e51b81526004016106bd90611dc5565b61098e61169d565b565b6001546001600160a01b031633146109ba5760405162461bcd60e51b81526004016106bd90611dc5565b60065442106109f05760405162461bcd60e51b81526020600482015260026024820152616e6f60f01b60448201526064016106bd565b600955565b60026000541415610a485760405162461bcd60e51b815260206004820152601f60248201527f5265656e7472616e637947756172643a207265656e7472616e742063616c6c0060448201526064016106bd565b60026000556008544211610a915760405162461bcd60e51b815260206004820152601060248201526f6e6f7420686172766573742074696d6560801b60448201526064016106bd565b336000908152600c6020526040902054610ae65760405162461bcd60e51b81526020600482015260166024820152756861766520796f75207061727469636970617465643f60501b60448201526064016106bd565b336000908152600c602052604090206001015460ff1615610b3e5760405162461bcd60e51b81526020600482015260126024820152711b9bdd1a1a5b99c81d1bc81a185c9d995cdd60721b60448201526064016106bd565b600154600160a01b900460ff1615610b685760405162461bcd60e51b81526004016106bd90611d9b565b6000610b7333610f0f565b90506000610b80336108a7565b600554909150610b9a906001600160a01b0316338461173a565b8015610bd6576004546001600160a01b0316610bbf57610bba338261179d565b610bd6565b600454610bd6906001600160a01b0316338361173a565b336000818152600c60209081526040918290206001908101805460ff1916909117905581518581529081018490527f71bab65ced2e5750775a0613be067df48ef06cf92a496ebf7663ae0660924954910160405180910390a250506001600055565b6001546001600160a01b03163314610c625760405162461bcd60e51b81526004016106bd90611dc5565b6001600160a01b038216610caa576040516001600160a01b038216904780156108fc02916000818181858888f19350505050158015610ca5573d6000803e3d6000fd5b505050565b6040516370a0823160e01b8152306004820152610d389082906001600160a01b038516906370a082319060240160206040518083038186803b158015610cef57600080fd5b505afa158015610d03573d6000803e3d6000fd5b505050506040513d601f19601f82011682018060405250810190610d279190611d0c565b6001600160a01b038516919061173a565b5050565b6001546001600160a01b03163314610d665760405162461bcd60e51b81526004016106bd90611dc5565b4281118015610d76575060085481105b610d925760405162461bcd60e51b81526004016106bd90611d73565b600755565b6001546001600160a01b03163314610dc15760405162461bcd60e51b81526004016106bd90611dc5565b61098e6000611866565b6001546001600160a01b03163314610df55760405162461bcd60e51b81526004016106bd90611dc5565b4281118015610e05575060075481115b610e215760405162461bcd60e51b81526004016106bd90611d73565b600855565b6001546000906001600160a01b03163314610e535760405162461bcd60e51b81526004016106bd90611dc5565b6001600160a01b03821660009081526002602052604090205460ff166108a2576001600160a01b038216600081815260026020908152604091829020805460ff1916600117905590519182527fd1bba68c128cc3f427e5831b3c6f99f480b6efa6b9e80c757768f6124158cc3f910160405180910390a15060038054600191600061089c83611eab565b6001546001600160a01b03163314610f075760405162461bcd60e51b81526004016106bd90611dc5565b61098e6118b8565b6000600954600b541115610f52576000610f288361151c565b9050610f4b670de0b6b3a76400006108ec83600a5461166d90919063ffffffff16565b9392505050565b600954600a546001600160a01b0384166000908152600c6020526040902054610f8092916108ec919061166d565b92915050565b6001546001600160a01b03163314610fb05760405162461bcd60e51b81526004016106bd90611dc5565b4260075410610ff65760405162461bcd60e51b81526020600482015260126024820152711d1a5b59481a185cc81b9bdd08195b99195960721b60448201526064016106bd565b6004546001600160a01b031661104157600060095447106110195760095461101b565b475b9050610d388261103c6127106108ec600f548661166d90919063ffffffff16565b61179d565b600954600480546040516370a0823160e01b81523092810192909252600092916001600160a01b03909116906370a082319060240160206040518083038186803b15801561108e57600080fd5b505afa1580156110a2573d6000803e3d6000fd5b505050506040513d601f19601f820116820180604052508101906110c69190611d0c565b106110d35760095461114f565b600480546040516370a0823160e01b815230928101929092526001600160a01b0316906370a082319060240160206040518083038186803b15801561111757600080fd5b505afa15801561112b573d6000803e3d6000fd5b505050506040513d601f19601f8201168201806040525081019061114f9190611d0c565b9050610d38826111706127106108ec600f548661166d90919063ffffffff16565b6004546001600160a01b0316919061173a565b50565b600260005414156111d95760405162461bcd60e51b815260206004820152601f60248201527f5265656e7472616e637947756172643a207265656e7472616e742063616c6c0060448201526064016106bd565b60026000556006548190421180156111f2575060075442105b6112315760405162461bcd60e51b815260206004820152601060248201526f6e6f742072616973696e672074696d6560801b60448201526064016106bd565b600081116112745760405162461bcd60e51b815260206004820152601060248201526f06e656564205f616d6f756e74203e20360841b60448201526064016106bd565b600154600160a01b900460ff161561129e5760405162461bcd60e51b81526004016106bd90611d9b565b3360009081526002602052604090205460ff166112ef5760405162461bcd60e51b815260206004820152600f60248201526e1b9bdd081dda1a5d195b1a5cdd1959608a1b60448201526064016106bd565b336000908152600c6020526040902054600e54116113475760405162461bcd60e51b81526020600482015260156024820152746e6f7420656c696769626c6520616d6f756e74212160581b60448201526064016106bd565b336000908152600c6020526040812054600e546113649190611e51565b905082808210156113725750805b61138d6127106108ec600f548461166d90919063ffffffff16565b6113979082611dfa565b6004549091506001600160a01b031661140957803410156113ee5760405162461bcd60e51b81526020600482015260116024820152700c2dadeeadce840dcdee840cadcdeeaced607b1b60448201526064016106bd565b80341115611404576114043361103c8334611e51565b611421565b600454611421906001600160a01b031633308461191d565b336000908152600c602052604090205461147857600d80546001810182556000919091527fd7b6990105719101dabeb77144f2a3385c8033acd3af97e9423a695e81ad1eb50180546001600160a01b031916331790555b336000908152600c60205260409020546114929082611691565b336000908152600c6020526040902055600b546114af9082611691565b600b5560405181815233907fe1fffcc4923d04b559f4d29a8bfc6cda04eb5b0d3c460751c2402c5c5cc9109c9060200160405180910390a2505060016000555050565b600d818154811061150257600080fd5b6000918252602090912001546001600160a01b0316905081565b600b546001600160a01b0382166000908152600c60205260408120549091610f80916108ec90670de0b6b3a764000061166d565b6001546000906001600160a01b0316331461157d5760405162461bcd60e51b81526004016106bd90611dc5565b60005b825181101561077c576115b98382815181106115ac57634e487b7160e01b600052603260045260246000fd5b6020026020010151610e26565b156115c357600191505b806115cd81611eab565b915050611580565b6001546001600160a01b031633146115ff5760405162461bcd60e51b81526004016106bd90611dc5565b6001600160a01b0381166116645760405162461bcd60e51b815260206004820152602660248201527f4f776e61626c653a206e6577206f776e657220697320746865207a65726f206160448201526564647265737360d01b60648201526084016106bd565b61118381611866565b6000610f4b8284611e32565b6000610f4b8284611e12565b6000610f4b8284611e51565b6000610f4b8284611dfa565b600154600160a01b900460ff166116ed5760405162461bcd60e51b815260206004820152601460248201527314185d5cd8589b194e881b9bdd081c185d5cd95960621b60448201526064016106bd565b6001805460ff60a01b191690557f5db9ee0a495bf2e6ff9c91a7834c1ba4fdd244a5e8aa4e537bd38aeae4b073aa335b6040516001600160a01b03909116815260200160405180910390a1565b6040516001600160a01b038316602482015260448101829052610ca590849063a9059cbb60e01b906064015b60408051601f198184030181529190526020810180516001600160e01b03166001600160e01b03199093169290921790915261195b565b604080516000808252602082019092526001600160a01b0384169083906040516117c79190611d24565b60006040518083038185875af1925050503d8060008114611804576040519150601f19603f3d011682016040523d82523d6000602084013e611809565b606091505b5050905080610ca55760405162461bcd60e51b815260206004820152602360248201527f5472616e7366657248656c7065723a204b41495f5452414e534645525f46414960448201526213115160ea1b60648201526084016106bd565b600180546001600160a01b038381166001600160a01b0319831681179093556040519116919082907f8be0079c531659141344cd1fd0a4f28419497f9722a3daafe3b4186f6b6457e090600090a35050565b600154600160a01b900460ff16156118e25760405162461bcd60e51b81526004016106bd90611d9b565b6001805460ff60a01b1916600160a01b1790557f62e78cea01bee320cd4e420270b5ea74000d11b0c9f74754ebdbfc544b05a25861171d3390565b6040516001600160a01b03808516602483015283166044820152606481018290526119559085906323b872dd60e01b90608401611766565b50505050565b60006119b0826040518060400160405280602081526020017f5361666545524332303a206c6f772d6c6576656c2063616c6c206661696c6564815250856001600160a01b0316611a2d9092919063ffffffff16565b805190915015610ca557808060200190518101906119ce9190611cd4565b610ca55760405162461bcd60e51b815260206004820152602a60248201527f5361666545524332303a204552433230206f7065726174696f6e20646964206e6044820152691bdd081cdd58d8d9595960b21b60648201526084016106bd565b6060611a3c8484600085611a44565b949350505050565b606082471015611aa55760405162461bcd60e51b815260206004820152602660248201527f416464726573733a20696e73756666696369656e742062616c616e636520666f6044820152651c8818d85b1b60d21b60648201526084016106bd565b6001600160a01b0385163b611afc5760405162461bcd60e51b815260206004820152601d60248201527f416464726573733a2063616c6c20746f206e6f6e2d636f6e747261637400000060448201526064016106bd565b600080866001600160a01b03168587604051611b189190611d24565b60006040518083038185875af1925050503d8060008114611b55576040519150601f19603f3d011682016040523d82523d6000602084013e611b5a565b606091505b5091509150611b6a828286611b75565b979650505050505050565b60608315611b84575081610f4b565b825115611b945782518084602001fd5b8160405162461bcd60e51b81526004016106bd9190611d40565b80356108a281611ef2565b600060208284031215611bca578081fd5b8135610f4b81611ef2565b60008060408385031215611be7578081fd5b8235611bf281611ef2565b91506020830135611c0281611ef2565b809150509250929050565b60006020808385031215611c1f578182fd5b823567ffffffffffffffff80821115611c36578384fd5b818501915085601f830112611c49578384fd5b813581811115611c5b57611c5b611edc565b8060051b604051601f19603f83011681018181108582111715611c8057611c80611edc565b604052828152858101935084860182860187018a1015611c9e578788fd5b8795505b83861015611cc757611cb381611bae565b855260019590950194938601938601611ca2565b5098975050505050505050565b600060208284031215611ce5578081fd5b81518015158114610f4b578182fd5b600060208284031215611d05578081fd5b5035919050565b600060208284031215611d1d578081fd5b5051919050565b60008251611d36818460208701611e68565b9190910192915050565b6020815260008251806020840152611d5f816040850160208701611e68565b601f01601f19169190910160400192915050565b6020808252600e908201526d74696d6520696e76616c6964212160901b604082015260600190565b60208082526010908201526f14185d5cd8589b194e881c185d5cd95960821b604082015260600190565b6020808252818101527f4f776e61626c653a2063616c6c6572206973206e6f7420746865206f776e6572604082015260600190565b60008219821115611e0d57611e0d611ec6565b500190565b600082611e2d57634e487b7160e01b81526012600452602481fd5b500490565b6000816000190483118215151615611e4c57611e4c611ec6565b500290565b600082821015611e6357611e63611ec6565b500390565b60005b83811015611e83578181015183820152602001611e6b565b838111156119555750506000910152565b600081611ea357611ea3611ec6565b506000190190565b6000600019821415611ebf57611ebf611ec6565b5060010190565b634e487b7160e01b600052601160045260246000fd5b634e487b7160e01b600052604160045260246000fd5b6001600160a01b038116811461118357600080fdfea2646970667358221220803a20780b6f664f2c2d9e792c1614df53639b181a0a548f1dce6e6a4e6d535164736f6c63430008040033",
  "linkReferences": {},
  "deployedLinkReferences": {}
}