{
  "_format": "hh-sol-artifact-1",
  "contractName": "WhitelistRaisingV2",
  "sourceName": "contracts/launchpad/whitelist/WhitelistRaisingV2.sol",
  "abi": [
    {
      "inputs": [
        {
          "internalType": "contract ERC20",
          "name": "_buyToken",
          "type": "address"
        },
        {
          "internalType": "contract ERC20",
          "name": "_offeringToken",
          "type": "address"
        },
        {
          "internalType": "uint256",
          "name": "_startTime",
          "type": "uint256"
        },
        {
          "internalType": "uint256",
          "name": "_endTime",
          "type": "uint256"
        },
        {
          "internalType": "uint256",
          "name": "_harvestTime",
          "type": "uint256"
        },
        {
          "internalType": "uint256",
          "name": "_offeringAmount",
          "type": "uint256"
        },
        {
          "internalType": "uint256",
          "name": "_raisingAmount",
          "type": "uint256"
        },
        {
          "internalType": "uint256",
          "name": "_maxAllocation",
          "type": "uint256"
        }
      ],
      "stateMutability": "nonpayable",
      "type": "constructor"
    },
    {
      "anonymous": false,
      "inputs": [
        {
          "indexed": true,
          "internalType": "address",
          "name": "user",
          "type": "address"
        },
        {
          "indexed": false,
          "internalType": "uint256",
          "name": "amount",
          "type": "uint256"
        }
      ],
      "name": "Deposit",
      "type": "event"
    },
    {
      "anonymous": false,
      "inputs": [
        {
          "indexed": true,
          "internalType": "address",
          "name": "user",
          "type": "address"
        },
        {
          "indexed": false,
          "internalType": "uint256",
          "name": "offeringAmount",
          "type": "uint256"
        },
        {
          "indexed": false,
          "internalType": "uint256",
          "name": "excessAmount",
          "type": "uint256"
        }
      ],
      "name": "Harvest",
      "type": "event"
    },
    {
      "anonymous": false,
      "inputs": [
        {
          "indexed": true,
          "internalType": "address",
          "name": "previousOwner",
          "type": "address"
        },
        {
          "indexed": true,
          "internalType": "address",
          "name": "newOwner",
          "type": "address"
        }
      ],
      "name": "OwnershipTransferred",
      "type": "event"
    },
    {
      "anonymous": false,
      "inputs": [
        {
          "indexed": false,
          "internalType": "address",
          "name": "account",
          "type": "address"
        }
      ],
      "name": "Paused",
      "type": "event"
    },
    {
      "anonymous": false,
      "inputs": [
        {
          "indexed": false,
          "internalType": "address",
          "name": "account",
          "type": "address"
        }
      ],
      "name": "Unpaused",
      "type": "event"
    },
    {
      "anonymous": false,
      "inputs": [
        {
          "indexed": false,
          "internalType": "address",
          "name": "addr",
          "type": "address"
        }
      ],
      "name": "WhitelistedAddressAdded",
      "type": "event"
    },
    {
      "anonymous": false,
      "inputs": [
        {
          "indexed": false,
          "internalType": "address",
          "name": "addr",
          "type": "address"
        }
      ],
      "name": "WhitelistedAddressRemoved",
      "type": "event"
    },
    {
      "inputs": [],
      "name": "IDO_FEE",
      "outputs": [
        {
          "internalType": "uint256",
          "name": "",
          "type": "uint256"
        }
      ],
      "stateMutability": "view",
      "type": "function"
    },
    {
      "inputs": [
        {
          "internalType": "address",
          "name": "addr",
          "type": "address"
        }
      ],
      "name": "addAddressToWhitelist",
      "outputs": [
        {
          "internalType": "bool",
          "name": "success",
          "type": "bool"
        }
      ],
      "stateMutability": "nonpayable",
      "type": "function"
    },
    {
      "inputs": [
        {
          "internalType": "address[]",
          "name": "addrs",
          "type": "address[]"
        }
      ],
      "name": "addAddressesToWhitelist",
      "outputs": [
        {
          "internalType": "bool",
          "name": "success",
          "type": "bool"
        }
      ],
      "stateMutability": "nonpayable",
      "type": "function"
    },
    {
      "inputs": [
        {
          "internalType": "uint256",
          "name": "",
          "type": "uint256"
        }
      ],
      "name": "addressList",
      "outputs": [
        {
          "internalType": "address",
          "name": "",
          "type": "address"
        }
      ],
      "stateMutability": "view",
      "type": "function"
    },
    {
      "inputs": [],
      "name": "buyToken",
      "outputs": [
        {
          "internalType": "contract ERC20",
          "name": "",
          "type": "address"
        }
      ],
      "stateMutability": "view",
      "type": "function"
    },
    {
      "inputs": [
        {
          "internalType": "uint256",
          "name": "_amount",
          "type": "uint256"
        }
      ],
      "name": "deposit",
      "outputs": [],
      "stateMutability": "payable",
      "type": "function"
    },
    {
      "inputs": [
        {
          "internalType": "address",
          "name": "token",
          "type": "address"
        },
        {
          "internalType": "address payable",
          "name": "to",
          "type": "address"
        }
      ],
      "name": "emergencyWithdraw",
      "outputs": [],
      "stateMutability": "nonpayable",
      "type": "function"
    },
    {
      "inputs": [],
      "name": "endTime",
      "outputs": [
        {
          "internalType": "uint256",
          "name": "",
          "type": "uint256"
        }
      ],
      "stateMutability": "view",
      "type": "function"
    },
    {
      "inputs": [
        {
          "internalType": "address",
          "name": "_destination",
          "type": "address"
        }
      ],
      "name": "finalWithdraw",
      "outputs": [],
      "stateMutability": "nonpayable",
      "type": "function"
    },
    {
      "inputs": [],
      "name": "getAddressListLength",
      "outputs": [
        {
          "internalType": "uint256",
          "name": "",
          "type": "uint256"
        }
      ],
      "stateMutability": "view",
      "type": "function"
    },
    {
      "inputs": [
        {
          "internalType": "address",
          "name": "_account",
          "type": "address"
        }
      ],
      "name": "getAllocation",
      "outputs": [
        {
          "internalType": "uint256",
          "name": "",
          "type": "uint256"
        }
      ],
      "stateMutability": "view",
      "type": "function"
    },
    {
      "inputs": [],
      "name": "getInfo",
      "outputs": [
        {
          "components": [
            {
              "internalType": "contract ERC20",
              "name": "token",
              "type": "address"
            },
            {
              "internalType": "uint256",
              "name": "decimals",
              "type": "uint256"
            },
            {
              "internalType": "string",
              "name": "name",
              "type": "string"
            },
            {
              "internalType": "string",
              "name": "symbol",
              "type": "string"
            }
          ],
          "internalType": "struct WhitelistRaisingV2.TokenInfo",
          "name": "",
          "type": "tuple"
        },
        {
          "components": [
            {
              "internalType": "contract ERC20",
              "name": "token",
              "type": "address"
            },
            {
              "internalType": "uint256",
              "name": "decimals",
              "type": "uint256"
            },
            {
              "internalType": "string",
              "name": "name",
              "type": "string"
            },
            {
              "internalType": "string",
              "name": "symbol",
              "type": "string"
            }
          ],
          "internalType": "struct WhitelistRaisingV2.TokenInfo",
          "name": "",
          "type": "tuple"
        },
        {
          "internalType": "uint256",
          "name": "",
          "type": "uint256"
        },
        {
          "internalType": "uint256",
          "name": "",
          "type": "uint256"
        },
        {
          "internalType": "uint256",
          "name": "",
          "type": "uint256"
        },
        {
          "internalType": "uint256",
          "name": "",
          "type": "uint256"
        },
        {
          "internalType": "uint256",
          "name": "",
          "type": "uint256"
        }
      ],
      "stateMutability": "view",
      "type": "function"
    },
    {
      "inputs": [
        {
          "internalType": "address",
          "name": "_user",
          "type": "address"
        }
      ],
      "name": "getOfferingAmount",
      "outputs": [
        {
          "internalType": "uint256",
          "name": "",
          "type": "uint256"
        }
      ],
      "stateMutability": "view",
      "type": "function"
    },
    {
      "inputs": [
        {
          "internalType": "address",
          "name": "_user",
          "type": "address"
        }
      ],
      "name": "getRefundingAmount",
      "outputs": [
        {
          "internalType": "uint256",
          "name": "",
          "type": "uint256"
        }
      ],
      "stateMutability": "view",
      "type": "function"
    },
    {
      "inputs": [
        {
          "internalType": "address",
          "name": "_user",
          "type": "address"
        }
      ],
      "name": "getUserAllocation",
      "outputs": [
        {
          "internalType": "uint256",
          "name": "",
          "type": "uint256"
        }
      ],
      "stateMutability": "view",
      "type": "function"
    },
    {
      "inputs": [],
      "name": "harvest",
      "outputs": [],
      "stateMutability": "nonpayable",
      "type": "function"
    },
    {
      "inputs": [],
      "name": "harvestTime",
      "outputs": [
        {
          "internalType": "uint256",
          "name": "",
          "type": "uint256"
        }
      ],
      "stateMutability": "view",
      "type": "function"
    },
    {
      "inputs": [],
      "name": "maxAllocation",
      "outputs": [
        {
          "internalType": "uint256",
          "name": "",
          "type": "uint256"
        }
      ],
      "stateMutability": "view",
      "type": "function"
    },
    {
      "inputs": [],
      "name": "offeringAmount",
      "outputs": [
        {
          "internalType": "uint256",
          "name": "",
          "type": "uint256"
        }
      ],
      "stateMutability": "view",
      "type": "function"
    },
    {
      "inputs": [],
      "name": "offeringToken",
      "outputs": [
        {
          "internalType": "contract ERC20",
          "name": "",
          "type": "address"
        }
      ],
      "stateMutability": "view",
      "type": "function"
    },
    {
      "inputs": [],
      "name": "owner",
      "outputs": [
        {
          "internalType": "address",
          "name": "",
          "type": "address"
        }
      ],
      "stateMutability": "view",
      "type": "function"
    },
    {
      "inputs": [],
      "name": "pause",
      "outputs": [],
      "stateMutability": "nonpayable",
      "type": "function"
    },
    {
      "inputs": [],
      "name": "paused",
      "outputs": [
        {
          "internalType": "bool",
          "name": "",
          "type": "bool"
        }
      ],
      "stateMutability": "view",
      "type": "function"
    },
    {
      "inputs": [],
      "name": "raisingAmount",
      "outputs": [
        {
          "internalType": "uint256",
          "name": "",
          "type": "uint256"
        }
      ],
      "stateMutability": "view",
      "type": "function"
    },
    {
      "inputs": [
        {
          "internalType": "address",
          "name": "addr",
          "type": "address"
        }
      ],
      "name": "removeAddressFromWhitelist",
      "outputs": [
        {
          "internalType": "bool",
          "name": "success",
          "type": "bool"
        }
      ],
      "stateMutability": "nonpayable",
      "type": "function"
    },
    {
      "inputs": [
        {
          "internalType": "address[]",
          "name": "addrs",
          "type": "address[]"
        }
      ],
      "name": "removeAddressesFromWhitelist",
      "outputs": [
        {
          "internalType": "bool",
          "name": "success",
          "type": "bool"
        }
      ],
      "stateMutability": "nonpayable",
      "type": "function"
    },
    {
      "inputs": [],
      "name": "renounceOwnership",
      "outputs": [],
      "stateMutability": "nonpayable",
      "type": "function"
    },
    {
      "inputs": [
        {
          "internalType": "uint256",
          "name": "_offerAmount",
          "type": "uint256"
        }
      ],
      "name": "setOfferingAmount",
      "outputs": [],
      "stateMutability": "nonpayable",
      "type": "function"
    },
    {
      "inputs": [
        {
          "internalType": "uint256",
          "name": "_raisingAmount",
          "type": "uint256"
        }
      ],
      "name": "setRaisingAmount",
      "outputs": [],
      "stateMutability": "nonpayable",
      "type": "function"
    },
    {
      "inputs": [],
      "name": "startTime",
      "outputs": [
        {
          "internalType": "uint256",
          "name": "",
          "type": "uint256"
        }
      ],
      "stateMutability": "view",
      "type": "function"
    },
    {
      "inputs": [],
      "name": "totalAddress",
      "outputs": [
        {
          "internalType": "uint256",
          "name": "",
          "type": "uint256"
        }
      ],
      "stateMutability": "view",
      "type": "function"
    },
    {
      "inputs": [],
      "name": "totalAmount",
      "outputs": [
        {
          "internalType": "uint256",
          "name": "",
          "type": "uint256"
        }
      ],
      "stateMutability": "view",
      "type": "function"
    },
    {
      "inputs": [
        {
          "internalType": "address",
          "name": "newOwner",
          "type": "address"
        }
      ],
      "name": "transferOwnership",
      "outputs": [],
      "stateMutability": "nonpayable",
      "type": "function"
    },
    {
      "inputs": [],
      "name": "unpause",
      "outputs": [],
      "stateMutability": "nonpayable",
      "type": "function"
    },
    {
      "inputs": [
        {
          "internalType": "uint256",
          "name": "_newTime",
          "type": "uint256"
        }
      ],
      "name": "updateEndTime",
      "outputs": [],
      "stateMutability": "nonpayable",
      "type": "function"
    },
    {
      "inputs": [
        {
          "internalType": "uint256",
          "name": "_newTime",
          "type": "uint256"
        }
      ],
      "name": "updateHarvestTime",
      "outputs": [],
      "stateMutability": "nonpayable",
      "type": "function"
    },
    {
      "inputs": [
        {
          "internalType": "uint256",
          "name": "_newTime",
          "type": "uint256"
        }
      ],
      "name": "updateStartTime",
      "outputs": [],
      "stateMutability": "nonpayable",
      "type": "function"
    },
    {
      "inputs": [
        {
          "internalType": "address",
          "name": "",
          "type": "address"
        }
      ],
      "name": "userInfo",
      "outputs": [
        {
          "internalType": "uint256",
          "name": "amount",
          "type": "uint256"
        },
        {
          "internalType": "bool",
          "name": "claimed",
          "type": "bool"
        }
      ],
      "stateMutability": "view",
      "type": "function"
    },
    {
      "inputs": [
        {
          "internalType": "address",
          "name": "",
          "type": "address"
        }
      ],
      "name": "whitelist",
      "outputs": [
        {
          "internalType": "bool",
          "name": "",
          "type": "bool"
        }
      ],
      "stateMutability": "view",
      "type": "function"
    }
  ],
  "bytecode": "0x608060405260c8600f553480156200001657600080fd5b50604051620025ba380380620025ba833981016040819052620000399162000141565b60016000556200004933620000d2565b6001805460ff60a01b191690558484108015906200006657508585115b80156200007257504286115b6200007c57600080fd5b600480546001600160a01b03998a166001600160a01b0319918216179091556005805498909916971696909617909655600693909355600791909155600855600a556009919091556000600b55600e55620001b1565b600180546001600160a01b038381166001600160a01b0319831681179093556040519116919082907f8be0079c531659141344cd1fd0a4f28419497f9722a3daafe3b4186f6b6457e090600090a35050565b80516001600160a01b03811681146200013c57600080fd5b919050565b600080600080600080600080610100898b0312156200015e578384fd5b620001698962000124565b97506200017960208a0162000124565b60408a015160608b015160808c015160a08d015160c08e015160e0909e01519c9f949e50929c919b909a509198509650945092505050565b6123f980620001c16000396000f3fe6080604052600436106102305760003560e01c80637b9417c81161012e578063ac3ff912116100ab578063e1af9a951161006f578063e1af9a9514610670578063e2ec6ec314610686578063f2fde38b146106a6578063f4808210146106c6578063fc00358e146106dc57600080fd5b8063ac3ff912146105dd578063b6b55f25146105fd578063b781360714610610578063b810fb4314610630578063b920ade21461065057600080fd5b806395f92254116100f257806395f922541461054b5780639b19251a146105615780639b3ba79f146105915780639c0a7669146105a7578063a4821719146105bd57600080fd5b80637b9417c8146104ae5780637e45e942146104ce5780638456cb59146104e457806387e97bc6146104f95780638da5cb5b1461051957600080fd5b80633f4ba83a116101bc5780636382d9ad116101805780636382d9ad146104235780636ab3846b14610443578063715018a61461046357806376ea6ee01461047857806378e979251461049857600080fd5b80633f4ba83a146103925780634225c32f146103a75780634641257d146103c75780635a9b0b89146103dc5780635c975abb1461040457600080fd5b806324953eaa1161020357806324953eaa146102ec57806327d1b1a21461031c578063286dd3f51461033c5780632f5105f81461035c5780633197cbb61461037c57600080fd5b806306bcf02f146102355780630e022923146102575780631959a0021461028a5780631a39d8ef146102d6575b600080fd5b34801561024157600080fd5b506102556102503660046120af565b6106f1565b005b34801561026357600080fd5b50610277610272366004611ef7565b610755565b6040519081526020015b60405180910390f35b34801561029657600080fd5b506102c16102a5366004611ef7565b600c602052600090815260409020805460019091015460ff1682565b60408051928352901515602083015201610281565b3480156102e257600080fd5b50610277600b5481565b3480156102f857600080fd5b5061030c610307366004611f4b565b610785565b6040519015158152602001610281565b34801561032857600080fd5b506102556103373660046120af565b610810565b34801561034857600080fd5b5061030c610357366004611ef7565b610875565b34801561036857600080fd5b50610277610377366004611ef7565b610935565b34801561038857600080fd5b5061027760075481565b34801561039e57600080fd5b506102556109ea565b3480156103b357600080fd5b506102556103c23660046120af565b610a1e565b3480156103d357600080fd5b50610255610a83565b3480156103e857600080fd5b506103f1610cc6565b6040516102819796959493929190612235565b34801561041057600080fd5b50600154600160a01b900460ff1661030c565b34801561042f57600080fd5b5061025561043e366004611f13565b610dbe565b34801561044f57600080fd5b5061025561045e3660046120af565b610ec2565b34801561046f57600080fd5b50610255610f1d565b34801561048457600080fd5b506102556104933660046120af565b610f51565b3480156104a457600080fd5b5061027760065481565b3480156104ba57600080fd5b5061030c6104c9366004611ef7565b610fac565b3480156104da57600080fd5b5061027760035481565b3480156104f057600080fd5b50610255611063565b34801561050557600080fd5b50610277610514366004611ef7565b611095565b34801561052557600080fd5b506001546001600160a01b03165b6040516001600160a01b039091168152602001610281565b34801561055757600080fd5b50610277600f5481565b34801561056d57600080fd5b5061030c61057c366004611ef7565b60026020526000908152604090205460ff1681565b34801561059d57600080fd5b50610277600e5481565b3480156105b357600080fd5b5061027760095481565b3480156105c957600080fd5b50600454610533906001600160a01b031681565b3480156105e957600080fd5b506102556105f8366004611ef7565b61110c565b61025561060b3660046120af565b61130c565b34801561061c57600080fd5b50600554610533906001600160a01b031681565b34801561063c57600080fd5b5061053361064b3660046120af565b611678565b34801561065c57600080fd5b5061027761066b366004611ef7565b6116a2565b34801561067c57600080fd5b50610277600a5481565b34801561069257600080fd5b5061030c6106a1366004611f4b565b6116d6565b3480156106b257600080fd5b506102556106c1366004611ef7565b61175b565b3480156106d257600080fd5b5061027760085481565b3480156106e857600080fd5b50600d54610277565b6001546001600160a01b031633146107245760405162461bcd60e51b815260040161071b90612200565b60405180910390fd5b4281118015610734575060075481105b6107505760405162461bcd60e51b815260040161071b906121ae565b600655565b6001600160a01b03811660009081526002602052604081205460ff1661077d57506000919050565b5050600e5490565b6001546000906001600160a01b031633146107b25760405162461bcd60e51b815260040161071b90612200565b60005b825181101561080a576107ee8382815181106107e157634e487b7160e01b600052603260045260246000fd5b6020026020010151610875565b156107f857600191505b8061080281612367565b9150506107b5565b50919050565b6001546001600160a01b0316331461083a5760405162461bcd60e51b815260040161071b90612200565b60065442106108705760405162461bcd60e51b81526020600482015260026024820152616e6f60f01b604482015260640161071b565b600a55565b6001546000906001600160a01b031633146108a25760405162461bcd60e51b815260040161071b90612200565b6001600160a01b03821660009081526002602052604090205460ff1615610930576001600160a01b038216600081815260026020908152604091829020805460ff1916905590519182527ff1abf01a1043b7c244d128e8595cf0c1d10743b022b03a02dffd8ca3bf729f5a910160405180910390a15060038054600191600061092a83612350565b91905055505b919050565b6000600954600b541161094a57506000919050565b6000610955836116a2565b90506000610980670de0b6b3a764000061097a846009546117f390919063ffffffff16565b906117ff565b6001600160a01b0385166000908152600c6020526040812054919250906109b590612710906109af908561180b565b9061180b565b905060006109d461271061097a600f54856117f390919063ffffffff16565b90506109e08282611817565b9695505050505050565b6001546001600160a01b03163314610a145760405162461bcd60e51b815260040161071b90612200565b610a1c611823565b565b6001546001600160a01b03163314610a485760405162461bcd60e51b815260040161071b90612200565b6006544210610a7e5760405162461bcd60e51b81526020600482015260026024820152616e6f60f01b604482015260640161071b565b600955565b60026000541415610ad65760405162461bcd60e51b815260206004820152601f60248201527f5265656e7472616e637947756172643a207265656e7472616e742063616c6c00604482015260640161071b565b60026000556008544211610b1f5760405162461bcd60e51b815260206004820152601060248201526f6e6f7420686172766573742074696d6560801b604482015260640161071b565b336000908152600c6020526040902054610b745760405162461bcd60e51b81526020600482015260166024820152756861766520796f75207061727469636970617465643f60501b604482015260640161071b565b336000908152600c602052604090206001015460ff1615610bcc5760405162461bcd60e51b81526020600482015260126024820152711b9bdd1a1a5b99c81d1bc81a185c9d995cdd60721b604482015260640161071b565b600154600160a01b900460ff1615610bf65760405162461bcd60e51b815260040161071b906121d6565b6000610c0133611095565b90506000610c0e33610935565b600554909150610c28906001600160a01b031633846118c0565b8015610c64576004546001600160a01b0316610c4d57610c483382611923565b610c64565b600454610c64906001600160a01b031633836118c0565b336000818152600c60209081526040918290206001908101805460ff1916909117905581518581529081018490527f71bab65ced2e5750775a0613be067df48ef06cf92a496ebf7663ae0660924954910160405180910390a250506001600055565b610cce611ec6565b610cd6611ec6565b6000806000806000610ce6611ec6565b6004546001600160a01b0316610d6757604051806080016040528060006001600160a01b03168152602001601281526020016040518060400160405280600b81526020016a25b0b93234b0a1b430b4b760a91b8152508152602001604051806040016040528060038152602001624b414960e81b8152508152509050610d7f565b600454610d7c906001600160a01b03166119ec565b90505b600554600090610d97906001600160a01b03166119ec565b600654600754600854600a54600954969e949d50929b509099509750955091935090915050565b6001546001600160a01b03163314610de85760405162461bcd60e51b815260040161071b90612200565b6001600160a01b038216610e30576040516001600160a01b038216904780156108fc02916000818181858888f19350505050158015610e2b573d6000803e3d6000fd5b505050565b6040516370a0823160e01b8152306004820152610ebe9082906001600160a01b038516906370a082319060240160206040518083038186803b158015610e7557600080fd5b505afa158015610e89573d6000803e3d6000fd5b505050506040513d601f19601f82011682018060405250810190610ead91906120c7565b6001600160a01b03851691906118c0565b5050565b6001546001600160a01b03163314610eec5760405162461bcd60e51b815260040161071b90612200565b4281118015610efc575060085481105b610f185760405162461bcd60e51b815260040161071b906121ae565b600755565b6001546001600160a01b03163314610f475760405162461bcd60e51b815260040161071b90612200565b610a1c6000611b7e565b6001546001600160a01b03163314610f7b5760405162461bcd60e51b815260040161071b90612200565b4281118015610f8b575060075481115b610fa75760405162461bcd60e51b815260040161071b906121ae565b600855565b6001546000906001600160a01b03163314610fd95760405162461bcd60e51b815260040161071b90612200565b6001600160a01b03821660009081526002602052604090205460ff16610930576001600160a01b038216600081815260026020908152604091829020805460ff1916600117905590519182527fd1bba68c128cc3f427e5831b3c6f99f480b6efa6b9e80c757768f6124158cc3f910160405180910390a15060038054600191600061092a83612367565b6001546001600160a01b0316331461108d5760405162461bcd60e51b815260040161071b90612200565b610a1c611bd0565b6000600954600b5411156110d85760006110ae836116a2565b90506110d1670de0b6b3a764000061097a83600a546117f390919063ffffffff16565b9392505050565b600954600a546001600160a01b0384166000908152600c6020526040902054611106929161097a91906117f3565b92915050565b6001546001600160a01b031633146111365760405162461bcd60e51b815260040161071b90612200565b426007541061117c5760405162461bcd60e51b81526020600482015260126024820152711d1a5b59481a185cc81b9bdd08195b99195960721b604482015260640161071b565b6004546001600160a01b03166111c7576000600954471061119f576009546111a1565b475b9050610ebe826111c261271061097a600f54866117f390919063ffffffff16565b611923565b600954600480546040516370a0823160e01b81523092810192909252600092916001600160a01b03909116906370a082319060240160206040518083038186803b15801561121457600080fd5b505afa158015611228573d6000803e3d6000fd5b505050506040513d601f19601f8201168201806040525081019061124c91906120c7565b10611259576009546112d5565b600480546040516370a0823160e01b815230928101929092526001600160a01b0316906370a082319060240160206040518083038186803b15801561129d57600080fd5b505afa1580156112b1573d6000803e3d6000fd5b505050506040513d601f19601f820116820180604052508101906112d591906120c7565b9050610ebe826112f661271061097a600f54866117f390919063ffffffff16565b6004546001600160a01b031691906118c0565b50565b6002600054141561135f5760405162461bcd60e51b815260206004820152601f60248201527f5265656e7472616e637947756172643a207265656e7472616e742063616c6c00604482015260640161071b565b6002600055600654819042118015611378575060075442105b6113b75760405162461bcd60e51b815260206004820152601060248201526f6e6f742072616973696e672074696d6560801b604482015260640161071b565b600081116113fa5760405162461bcd60e51b815260206004820152601060248201526f06e656564205f616d6f756e74203e20360841b604482015260640161071b565b600154600160a01b900460ff16156114245760405162461bcd60e51b815260040161071b906121d6565b3360009081526002602052604090205460ff166114755760405162461bcd60e51b815260206004820152600f60248201526e1b9bdd081dda1a5d195b1a5cdd1959608a1b604482015260640161071b565b336000908152600c6020526040902054600e54116114cd5760405162461bcd60e51b81526020600482015260156024820152746e6f7420656c696769626c6520616d6f756e74212160581b604482015260640161071b565b336000908152600c6020526040812054600e546114ea919061230d565b905082808210156114f85750805b61151361271061097a600f54846117f390919063ffffffff16565b61151d90826122b6565b6004549091506001600160a01b031661158f57803410156115745760405162461bcd60e51b81526020600482015260116024820152700c2dadeeadce840dcdee840cadcdeeaced607b1b604482015260640161071b565b8034111561158a5761158a336111c2833461230d565b6115a7565b6004546115a7906001600160a01b0316333084611c35565b336000908152600c60205260409020546115fe57600d80546001810182556000919091527fd7b6990105719101dabeb77144f2a3385c8033acd3af97e9423a695e81ad1eb50180546001600160a01b031916331790555b336000908152600c60205260409020546116189082611817565b336000908152600c6020526040902055600b546116359082611817565b600b5560405181815233907fe1fffcc4923d04b559f4d29a8bfc6cda04eb5b0d3c460751c2402c5c5cc9109c9060200160405180910390a2505060016000555050565b600d818154811061168857600080fd5b6000918252602090912001546001600160a01b0316905081565b600b546001600160a01b0382166000908152600c602052604081205490916111069161097a90670de0b6b3a76400006117f3565b6001546000906001600160a01b031633146117035760405162461bcd60e51b815260040161071b90612200565b60005b825181101561080a5761173f83828151811061173257634e487b7160e01b600052603260045260246000fd5b6020026020010151610fac565b1561174957600191505b8061175381612367565b915050611706565b6001546001600160a01b031633146117855760405162461bcd60e51b815260040161071b90612200565b6001600160a01b0381166117ea5760405162461bcd60e51b815260206004820152602660248201527f4f776e61626c653a206e6577206f776e657220697320746865207a65726f206160448201526564647265737360d01b606482015260840161071b565b61130981611b7e565b60006110d182846122ee565b60006110d182846122ce565b60006110d1828461230d565b60006110d182846122b6565b600154600160a01b900460ff166118735760405162461bcd60e51b815260206004820152601460248201527314185d5cd8589b194e881b9bdd081c185d5cd95960621b604482015260640161071b565b6001805460ff60a01b191690557f5db9ee0a495bf2e6ff9c91a7834c1ba4fdd244a5e8aa4e537bd38aeae4b073aa335b6040516001600160a01b03909116815260200160405180910390a1565b6040516001600160a01b038316602482015260448101829052610e2b90849063a9059cbb60e01b906064015b60408051601f198184030181529190526020810180516001600160e01b03166001600160e01b031990931692909217909152611c73565b604080516000808252602082019092526001600160a01b03841690839060405161194d919061217f565b60006040518083038185875af1925050503d806000811461198a576040519150601f19603f3d011682016040523d82523d6000602084013e61198f565b606091505b5050905080610e2b5760405162461bcd60e51b815260206004820152602360248201527f5472616e7366657248656c7065723a204b41495f5452414e534645525f46414960448201526213115160ea1b606482015260840161071b565b6119f4611ec6565b6040518060800160405280836001600160a01b03168152602001836001600160a01b031663313ce5676040518163ffffffff1660e01b815260040160206040518083038186803b158015611a4757600080fd5b505afa158015611a5b573d6000803e3d6000fd5b505050506040513d601f19601f82011682018060405250810190611a7f91906120df565b60ff168152602001836001600160a01b03166306fdde036040518163ffffffff1660e01b815260040160006040518083038186803b158015611ac057600080fd5b505afa158015611ad4573d6000803e3d6000fd5b505050506040513d6000823e601f3d908101601f19168201604052611afc919081019061201f565b8152602001836001600160a01b03166395d89b416040518163ffffffff1660e01b815260040160006040518083038186803b158015611b3a57600080fd5b505afa158015611b4e573d6000803e3d6000fd5b505050506040513d6000823e601f3d908101601f19168201604052611b76919081019061201f565b905292915050565b600180546001600160a01b038381166001600160a01b0319831681179093556040519116919082907f8be0079c531659141344cd1fd0a4f28419497f9722a3daafe3b4186f6b6457e090600090a35050565b600154600160a01b900460ff1615611bfa5760405162461bcd60e51b815260040161071b906121d6565b6001805460ff60a01b1916600160a01b1790557f62e78cea01bee320cd4e420270b5ea74000d11b0c9f74754ebdbfc544b05a2586118a33390565b6040516001600160a01b0380851660248301528316604482015260648101829052611c6d9085906323b872dd60e01b906084016118ec565b50505050565b6000611cc8826040518060400160405280602081526020017f5361666545524332303a206c6f772d6c6576656c2063616c6c206661696c6564815250856001600160a01b0316611d459092919063ffffffff16565b805190915015610e2b5780806020019051810190611ce69190611fff565b610e2b5760405162461bcd60e51b815260206004820152602a60248201527f5361666545524332303a204552433230206f7065726174696f6e20646964206e6044820152691bdd081cdd58d8d9595960b21b606482015260840161071b565b6060611d548484600085611d5c565b949350505050565b606082471015611dbd5760405162461bcd60e51b815260206004820152602660248201527f416464726573733a20696e73756666696369656e742062616c616e636520666f6044820152651c8818d85b1b60d21b606482015260840161071b565b6001600160a01b0385163b611e145760405162461bcd60e51b815260206004820152601d60248201527f416464726573733a2063616c6c20746f206e6f6e2d636f6e7472616374000000604482015260640161071b565b600080866001600160a01b03168587604051611e30919061217f565b60006040518083038185875af1925050503d8060008114611e6d576040519150601f19603f3d011682016040523d82523d6000602084013e611e72565b606091505b5091509150611e82828286611e8d565b979650505050505050565b60608315611e9c5750816110d1565b825115611eac5782518084602001fd5b8160405162461bcd60e51b815260040161071b919061219b565b604051806080016040528060006001600160a01b031681526020016000815260200160608152602001606081525090565b600060208284031215611f08578081fd5b81356110d1816123ae565b60008060408385031215611f25578081fd5b8235611f30816123ae565b91506020830135611f40816123ae565b809150509250929050565b60006020808385031215611f5d578182fd5b823567ffffffffffffffff80821115611f74578384fd5b818501915085601f830112611f87578384fd5b813581811115611f9957611f99612398565b8060051b9150611faa848301612285565b8181528481019084860184860187018a1015611fc4578788fd5b8795505b83861015611ff25780359450611fdd856123ae565b84835260019590950194918601918601611fc8565b5098975050505050505050565b600060208284031215612010578081fd5b815180151581146110d1578182fd5b600060208284031215612030578081fd5b815167ffffffffffffffff80821115612047578283fd5b818401915084601f83011261205a578283fd5b81518181111561206c5761206c612398565b61207f601f8201601f1916602001612285565b9150808252856020828501011115612095578384fd5b6120a6816020840160208601612324565b50949350505050565b6000602082840312156120c0578081fd5b5035919050565b6000602082840312156120d8578081fd5b5051919050565b6000602082840312156120f0578081fd5b815160ff811681146110d1578182fd5b60008151808452612118816020860160208601612324565b601f01601f19169290920160200192915050565b60018060a01b03815116825260208101516020830152600060408201516080604085015261215d6080850182612100565b9050606083015184820360608601526121768282612100565b95945050505050565b60008251612191818460208701612324565b9190910192915050565b6020815260006110d16020830184612100565b6020808252600e908201526d74696d6520696e76616c6964212160901b604082015260600190565b60208082526010908201526f14185d5cd8589b194e881c185d5cd95960821b604082015260600190565b6020808252818101527f4f776e61626c653a2063616c6c6572206973206e6f7420746865206f776e6572604082015260600190565b60e08152600061224860e083018a61212c565b828103602084015261225a818a61212c565b604084019890985250506060810194909452608084019290925260a083015260c09091015292915050565b604051601f8201601f1916810167ffffffffffffffff811182821017156122ae576122ae612398565b604052919050565b600082198211156122c9576122c9612382565b500190565b6000826122e957634e487b7160e01b81526012600452602481fd5b500490565b600081600019048311821515161561230857612308612382565b500290565b60008282101561231f5761231f612382565b500390565b60005b8381101561233f578181015183820152602001612327565b83811115611c6d5750506000910152565b60008161235f5761235f612382565b506000190190565b600060001982141561237b5761237b612382565b5060010190565b634e487b7160e01b600052601160045260246000fd5b634e487b7160e01b600052604160045260246000fd5b6001600160a01b038116811461130957600080fdfea264697066735822122005664de97a5dddffa8c44d739a44037de69c3e39f558e6d7cf4e14110e99a3d464736f6c63430008040033",
  "linkReferences": {},
  "deployedLinkReferences": {}
}