{
  "_format": "hh-sol-artifact-1",
  "contractName": "WhitelistRaisingV2",
  "sourceName": "contracts/launchpad/whitelist/WhitelistRaisingV2.sol",
  "abi": [
    {
      "inputs": [
        {
          "internalType": "contract ERC20",
          "name": "_buyToken",
          "type": "address"
        },
        {
          "internalType": "contract ERC20",
          "name": "_offeringToken",
          "type": "address"
        },
        {
          "internalType": "uint256",
          "name": "_startTime",
          "type": "uint256"
        },
        {
          "internalType": "uint256",
          "name": "_endTime",
          "type": "uint256"
        },
        {
          "internalType": "uint256",
          "name": "_harvestTime",
          "type": "uint256"
        },
        {
          "internalType": "uint256",
          "name": "_offeringAmount",
          "type": "uint256"
        },
        {
          "internalType": "uint256",
          "name": "_raisingAmount",
          "type": "uint256"
        },
        {
          "internalType": "uint256",
          "name": "_maxAllocation",
          "type": "uint256"
        }
      ],
      "stateMutability": "nonpayable",
      "type": "constructor"
    },
    {
      "anonymous": false,
      "inputs": [
        {
          "indexed": true,
          "internalType": "address",
          "name": "user",
          "type": "address"
        },
        {
          "indexed": false,
          "internalType": "uint256",
          "name": "amount",
          "type": "uint256"
        }
      ],
      "name": "Deposit",
      "type": "event"
    },
    {
      "anonymous": false,
      "inputs": [
        {
          "indexed": true,
          "internalType": "address",
          "name": "user",
          "type": "address"
        },
        {
          "indexed": false,
          "internalType": "uint256",
          "name": "offeringAmount",
          "type": "uint256"
        },
        {
          "indexed": false,
          "internalType": "uint256",
          "name": "excessAmount",
          "type": "uint256"
        }
      ],
      "name": "Harvest",
      "type": "event"
    },
    {
      "anonymous": false,
      "inputs": [
        {
          "indexed": true,
          "internalType": "address",
          "name": "previousOwner",
          "type": "address"
        },
        {
          "indexed": true,
          "internalType": "address",
          "name": "newOwner",
          "type": "address"
        }
      ],
      "name": "OwnershipTransferred",
      "type": "event"
    },
    {
      "anonymous": false,
      "inputs": [
        {
          "indexed": false,
          "internalType": "address",
          "name": "account",
          "type": "address"
        }
      ],
      "name": "Paused",
      "type": "event"
    },
    {
      "anonymous": false,
      "inputs": [
        {
          "indexed": false,
          "internalType": "address",
          "name": "account",
          "type": "address"
        }
      ],
      "name": "Unpaused",
      "type": "event"
    },
    {
      "anonymous": false,
      "inputs": [
        {
          "indexed": false,
          "internalType": "address",
          "name": "addr",
          "type": "address"
        }
      ],
      "name": "WhitelistedAddressAdded",
      "type": "event"
    },
    {
      "anonymous": false,
      "inputs": [
        {
          "indexed": false,
          "internalType": "address",
          "name": "addr",
          "type": "address"
        }
      ],
      "name": "WhitelistedAddressRemoved",
      "type": "event"
    },
    {
      "inputs": [],
      "name": "IDO_FEE",
      "outputs": [
        {
          "internalType": "uint256",
          "name": "",
          "type": "uint256"
        }
      ],
      "stateMutability": "view",
      "type": "function"
    },
    {
      "inputs": [
        {
          "internalType": "address",
          "name": "addr",
          "type": "address"
        }
      ],
      "name": "addAddressToWhitelist",
      "outputs": [
        {
          "internalType": "bool",
          "name": "success",
          "type": "bool"
        }
      ],
      "stateMutability": "nonpayable",
      "type": "function"
    },
    {
      "inputs": [
        {
          "internalType": "address[]",
          "name": "addrs",
          "type": "address[]"
        }
      ],
      "name": "addAddressesToWhitelist",
      "outputs": [
        {
          "internalType": "bool",
          "name": "success",
          "type": "bool"
        }
      ],
      "stateMutability": "nonpayable",
      "type": "function"
    },
    {
      "inputs": [
        {
          "internalType": "uint256",
          "name": "",
          "type": "uint256"
        }
      ],
      "name": "addressList",
      "outputs": [
        {
          "internalType": "address",
          "name": "",
          "type": "address"
        }
      ],
      "stateMutability": "view",
      "type": "function"
    },
    {
      "inputs": [],
      "name": "buyToken",
      "outputs": [
        {
          "internalType": "contract ERC20",
          "name": "",
          "type": "address"
        }
      ],
      "stateMutability": "view",
      "type": "function"
    },
    {
      "inputs": [
        {
          "internalType": "uint256",
          "name": "_amount",
          "type": "uint256"
        }
      ],
      "name": "deposit",
      "outputs": [],
      "stateMutability": "payable",
      "type": "function"
    },
    {
      "inputs": [
        {
          "internalType": "address",
          "name": "token",
          "type": "address"
        },
        {
          "internalType": "address payable",
          "name": "to",
          "type": "address"
        }
      ],
      "name": "emergencyWithdraw",
      "outputs": [],
      "stateMutability": "nonpayable",
      "type": "function"
    },
    {
      "inputs": [],
      "name": "endTime",
      "outputs": [
        {
          "internalType": "uint256",
          "name": "",
          "type": "uint256"
        }
      ],
      "stateMutability": "view",
      "type": "function"
    },
    {
      "inputs": [
        {
          "internalType": "address",
          "name": "_destination",
          "type": "address"
        }
      ],
      "name": "finalWithdrawFees",
      "outputs": [],
      "stateMutability": "nonpayable",
      "type": "function"
    },
    {
      "inputs": [
        {
          "internalType": "address",
          "name": "_destination",
          "type": "address"
        }
      ],
      "name": "finalWithdrawRaised",
      "outputs": [],
      "stateMutability": "nonpayable",
      "type": "function"
    },
    {
      "inputs": [],
      "name": "getAddressListLength",
      "outputs": [
        {
          "internalType": "uint256",
          "name": "",
          "type": "uint256"
        }
      ],
      "stateMutability": "view",
      "type": "function"
    },
    {
      "inputs": [
        {
          "internalType": "address",
          "name": "_account",
          "type": "address"
        }
      ],
      "name": "getAllocation",
      "outputs": [
        {
          "internalType": "uint256",
          "name": "",
          "type": "uint256"
        }
      ],
      "stateMutability": "view",
      "type": "function"
    },
    {
      "inputs": [],
      "name": "getInfo",
      "outputs": [
        {
          "components": [
            {
              "internalType": "contract ERC20",
              "name": "token",
              "type": "address"
            },
            {
              "internalType": "uint256",
              "name": "decimals",
              "type": "uint256"
            },
            {
              "internalType": "string",
              "name": "name",
              "type": "string"
            },
            {
              "internalType": "string",
              "name": "symbol",
              "type": "string"
            }
          ],
          "internalType": "struct WhitelistRaisingV2.TokenInfo",
          "name": "",
          "type": "tuple"
        },
        {
          "components": [
            {
              "internalType": "contract ERC20",
              "name": "token",
              "type": "address"
            },
            {
              "internalType": "uint256",
              "name": "decimals",
              "type": "uint256"
            },
            {
              "internalType": "string",
              "name": "name",
              "type": "string"
            },
            {
              "internalType": "string",
              "name": "symbol",
              "type": "string"
            }
          ],
          "internalType": "struct WhitelistRaisingV2.TokenInfo",
          "name": "",
          "type": "tuple"
        },
        {
          "internalType": "uint256",
          "name": "",
          "type": "uint256"
        },
        {
          "internalType": "uint256",
          "name": "",
          "type": "uint256"
        },
        {
          "internalType": "uint256",
          "name": "",
          "type": "uint256"
        },
        {
          "internalType": "uint256",
          "name": "",
          "type": "uint256"
        },
        {
          "internalType": "uint256",
          "name": "",
          "type": "uint256"
        }
      ],
      "stateMutability": "view",
      "type": "function"
    },
    {
      "inputs": [
        {
          "internalType": "address",
          "name": "_user",
          "type": "address"
        }
      ],
      "name": "getOfferingAmount",
      "outputs": [
        {
          "internalType": "uint256",
          "name": "",
          "type": "uint256"
        }
      ],
      "stateMutability": "view",
      "type": "function"
    },
    {
      "inputs": [
        {
          "internalType": "address",
          "name": "_user",
          "type": "address"
        }
      ],
      "name": "getRefundingAmount",
      "outputs": [
        {
          "internalType": "uint256",
          "name": "",
          "type": "uint256"
        }
      ],
      "stateMutability": "view",
      "type": "function"
    },
    {
      "inputs": [
        {
          "internalType": "address",
          "name": "_user",
          "type": "address"
        }
      ],
      "name": "getUserAllocation",
      "outputs": [
        {
          "internalType": "uint256",
          "name": "",
          "type": "uint256"
        }
      ],
      "stateMutability": "view",
      "type": "function"
    },
    {
      "inputs": [],
      "name": "harvest",
      "outputs": [],
      "stateMutability": "nonpayable",
      "type": "function"
    },
    {
      "inputs": [],
      "name": "harvestTime",
      "outputs": [
        {
          "internalType": "uint256",
          "name": "",
          "type": "uint256"
        }
      ],
      "stateMutability": "view",
      "type": "function"
    },
    {
      "inputs": [],
      "name": "maxAllocation",
      "outputs": [
        {
          "internalType": "uint256",
          "name": "",
          "type": "uint256"
        }
      ],
      "stateMutability": "view",
      "type": "function"
    },
    {
      "inputs": [],
      "name": "offeringAmount",
      "outputs": [
        {
          "internalType": "uint256",
          "name": "",
          "type": "uint256"
        }
      ],
      "stateMutability": "view",
      "type": "function"
    },
    {
      "inputs": [],
      "name": "offeringToken",
      "outputs": [
        {
          "internalType": "contract ERC20",
          "name": "",
          "type": "address"
        }
      ],
      "stateMutability": "view",
      "type": "function"
    },
    {
      "inputs": [],
      "name": "owner",
      "outputs": [
        {
          "internalType": "address",
          "name": "",
          "type": "address"
        }
      ],
      "stateMutability": "view",
      "type": "function"
    },
    {
      "inputs": [],
      "name": "pause",
      "outputs": [],
      "stateMutability": "nonpayable",
      "type": "function"
    },
    {
      "inputs": [],
      "name": "paused",
      "outputs": [
        {
          "internalType": "bool",
          "name": "",
          "type": "bool"
        }
      ],
      "stateMutability": "view",
      "type": "function"
    },
    {
      "inputs": [],
      "name": "raisingAmount",
      "outputs": [
        {
          "internalType": "uint256",
          "name": "",
          "type": "uint256"
        }
      ],
      "stateMutability": "view",
      "type": "function"
    },
    {
      "inputs": [],
      "name": "remainingToken",
      "outputs": [
        {
          "internalType": "uint256",
          "name": "",
          "type": "uint256"
        }
      ],
      "stateMutability": "view",
      "type": "function"
    },
    {
      "inputs": [
        {
          "internalType": "address",
          "name": "addr",
          "type": "address"
        }
      ],
      "name": "removeAddressFromWhitelist",
      "outputs": [
        {
          "internalType": "bool",
          "name": "success",
          "type": "bool"
        }
      ],
      "stateMutability": "nonpayable",
      "type": "function"
    },
    {
      "inputs": [
        {
          "internalType": "address[]",
          "name": "addrs",
          "type": "address[]"
        }
      ],
      "name": "removeAddressesFromWhitelist",
      "outputs": [
        {
          "internalType": "bool",
          "name": "success",
          "type": "bool"
        }
      ],
      "stateMutability": "nonpayable",
      "type": "function"
    },
    {
      "inputs": [],
      "name": "renounceOwnership",
      "outputs": [],
      "stateMutability": "nonpayable",
      "type": "function"
    },
    {
      "inputs": [
        {
          "internalType": "uint256",
          "name": "_offerAmount",
          "type": "uint256"
        },
        {
          "internalType": "uint256",
          "name": "_raisingAmount",
          "type": "uint256"
        }
      ],
      "name": "setRaisingAndOfferingAmount",
      "outputs": [],
      "stateMutability": "nonpayable",
      "type": "function"
    },
    {
      "inputs": [],
      "name": "soldTokenAmount",
      "outputs": [
        {
          "internalType": "uint256",
          "name": "",
          "type": "uint256"
        }
      ],
      "stateMutability": "view",
      "type": "function"
    },
    {
      "inputs": [],
      "name": "startTime",
      "outputs": [
        {
          "internalType": "uint256",
          "name": "",
          "type": "uint256"
        }
      ],
      "stateMutability": "view",
      "type": "function"
    },
    {
      "inputs": [],
      "name": "totalAddress",
      "outputs": [
        {
          "internalType": "uint256",
          "name": "",
          "type": "uint256"
        }
      ],
      "stateMutability": "view",
      "type": "function"
    },
    {
      "inputs": [],
      "name": "totalAmount",
      "outputs": [
        {
          "internalType": "uint256",
          "name": "",
          "type": "uint256"
        }
      ],
      "stateMutability": "view",
      "type": "function"
    },
    {
      "inputs": [],
      "name": "totalFees",
      "outputs": [
        {
          "internalType": "uint256",
          "name": "",
          "type": "uint256"
        }
      ],
      "stateMutability": "view",
      "type": "function"
    },
    {
      "inputs": [
        {
          "internalType": "address",
          "name": "newOwner",
          "type": "address"
        }
      ],
      "name": "transferOwnership",
      "outputs": [],
      "stateMutability": "nonpayable",
      "type": "function"
    },
    {
      "inputs": [],
      "name": "unpause",
      "outputs": [],
      "stateMutability": "nonpayable",
      "type": "function"
    },
    {
      "inputs": [
        {
          "internalType": "uint256",
          "name": "_newTime",
          "type": "uint256"
        }
      ],
      "name": "updateEndTime",
      "outputs": [],
      "stateMutability": "nonpayable",
      "type": "function"
    },
    {
      "inputs": [
        {
          "internalType": "uint256",
          "name": "_newTime",
          "type": "uint256"
        }
      ],
      "name": "updateHarvestTime",
      "outputs": [],
      "stateMutability": "nonpayable",
      "type": "function"
    },
    {
      "inputs": [
        {
          "internalType": "uint256",
          "name": "_newTime",
          "type": "uint256"
        }
      ],
      "name": "updateStartTime",
      "outputs": [],
      "stateMutability": "nonpayable",
      "type": "function"
    },
    {
      "inputs": [
        {
          "internalType": "address",
          "name": "",
          "type": "address"
        }
      ],
      "name": "userInfo",
      "outputs": [
        {
          "internalType": "uint256",
          "name": "amount",
          "type": "uint256"
        },
        {
          "internalType": "bool",
          "name": "claimed",
          "type": "bool"
        }
      ],
      "stateMutability": "view",
      "type": "function"
    },
    {
      "inputs": [
        {
          "internalType": "address",
          "name": "",
          "type": "address"
        }
      ],
      "name": "whitelist",
      "outputs": [
        {
          "internalType": "bool",
          "name": "",
          "type": "bool"
        }
      ],
      "stateMutability": "view",
      "type": "function"
    },
    {
      "inputs": [
        {
          "internalType": "address",
          "name": "_destination",
          "type": "address"
        }
      ],
      "name": "withdrawRemainingOfferingToken",
      "outputs": [],
      "stateMutability": "nonpayable",
      "type": "function"
    }
  ],
  "bytecode": "0x608060405260c8600f553480156200001657600080fd5b50604051620023e9380380620023e983398101604081905262000039916200013c565b60016000556200004933620000cd565b6001805460ff60a01b191690558484108015906200006657508585115b80156200007257504286115b6200007c57600080fd5b600480546001600160a01b03998a166001600160a01b0319918216179091556005805498909916971696909617909655600693909355600791909155600855600a55600991909155600e55620001ac565b600180546001600160a01b038381166001600160a01b0319831681179093556040519116919082907f8be0079c531659141344cd1fd0a4f28419497f9722a3daafe3b4186f6b6457e090600090a35050565b80516001600160a01b03811681146200013757600080fd5b919050565b600080600080600080600080610100898b03121562000159578384fd5b62000164896200011f565b97506200017460208a016200011f565b60408a015160608b015160808c015160a08d015160c08e015160e0909e01519c9f949e50929c919b909a509198509650945092505050565b61222d80620001bc6000396000f3fe60806040526004361061025c5760003560e01c806378e9792511610144578063a4821719116100b6578063e1af9a951161007a578063e1af9a95146106dc578063e2ec6ec3146106f2578063e8f6114014610712578063f2fde38b14610732578063f480821014610752578063fc00358e1461076857600080fd5b8063a482171914610649578063b6b55f2514610669578063b78136071461067c578063b810fb431461069c578063b920ade2146106bc57600080fd5b80638da5cb5b116101085780638da5cb5b146105905780638ed76287146105c257806395f92254146105d75780639b19251a146105ed5780639b3ba79f1461061d5780639c0a76691461063357600080fd5b806378e979251461050f5780637b9417c8146105255780637e45e942146105455780638456cb591461055b57806387e97bc61461057057600080fd5b80633d0767b5116101dd5780635c975abb116101a15780635c975abb1461045b5780636382d9ad1461047a5780636ab3846b1461049a57806370647c21146104ba578063715018a6146104da57806376ea6ee0146104ef57600080fd5b80633d0767b5146103d45780633f4ba83a146103f45780634641257d1461040957806347bfbab01461041e5780635a9b0b891461043357600080fd5b806324953eaa1161022457806324953eaa1461032e578063286dd3f51461035e5780632f5105f81461037e5780633197cbb61461039e57806337b05b3c146103b457600080fd5b806306bcf02f146102615780630e0229231461028357806313114a9d146102b65780631959a002146102cc5780631a39d8ef14610318575b600080fd5b34801561026d57600080fd5b5061028161027c366004611ef5565b61077d565b005b34801561028f57600080fd5b506102a361029e366004611d3d565b6107bf565b6040519081526020015b60405180910390f35b3480156102c257600080fd5b506102a360105481565b3480156102d857600080fd5b506103036102e7366004611d3d565b600c602052600090815260409020805460019091015460ff1682565b604080519283529015156020830152016102ad565b34801561032457600080fd5b506102a3600b5481565b34801561033a57600080fd5b5061034e610349366004611d91565b6107ef565b60405190151581526020016102ad565b34801561036a57600080fd5b5061034e610379366004611d3d565b610857565b34801561038a57600080fd5b506102a3610399366004611d3d565b6108f4565b3480156103aa57600080fd5b506102a360075481565b3480156103c057600080fd5b506102816103cf366004611d3d565b610997565b3480156103e057600080fd5b506102816103ef366004611d3d565b610a1f565b34801561040057600080fd5b50610281610a99565b34801561041557600080fd5b50610281610aab565b34801561042a57600080fd5b506102a3610ccc565b34801561043f57600080fd5b50610448610d13565b6040516102ad9796959493929190612069565b34801561046757600080fd5b50600154600160a01b900460ff1661034e565b34801561048657600080fd5b50610281610495366004611d59565b610e0b565b3480156104a657600080fd5b506102816104b5366004611ef5565b610ee4565b3480156104c657600080fd5b506102816104d5366004611d3d565b610f1d565b3480156104e657600080fd5b50610281610f6a565b3480156104fb57600080fd5b5061028161050a366004611ef5565b610f7c565b34801561051b57600080fd5b506102a360065481565b34801561053157600080fd5b5061034e610540366004611d3d565b610fb5565b34801561055157600080fd5b506102a360035481565b34801561056757600080fd5b50610281611049565b34801561057c57600080fd5b506102a361058b366004611d3d565b611059565b34801561059c57600080fd5b506001546001600160a01b03165b6040516001600160a01b0390911681526020016102ad565b3480156105ce57600080fd5b506102a36110d0565b3480156105e357600080fd5b506102a3600f5481565b3480156105f957600080fd5b5061034e610608366004611d3d565b60026020526000908152604090205460ff1681565b34801561062957600080fd5b506102a3600e5481565b34801561063f57600080fd5b506102a360095481565b34801561065557600080fd5b506004546105aa906001600160a01b031681565b610281610677366004611ef5565b6110f1565b34801561068857600080fd5b506005546105aa906001600160a01b031681565b3480156106a857600080fd5b506105aa6106b7366004611ef5565b611446565b3480156106c857600080fd5b506102a36106d7366004611d3d565b611470565b3480156106e857600080fd5b506102a3600a5481565b3480156106fe57600080fd5b5061034e61070d366004611d91565b6114a4565b34801561071e57600080fd5b5061028161072d366004611f25565b611506565b34801561073e57600080fd5b5061028161074d366004611d3d565b611516565b34801561075e57600080fd5b506102a360085481565b34801561077457600080fd5b50600d546102a3565b61078561158f565b4281118015610795575060075481105b6107ba5760405162461bcd60e51b81526004016107b190612041565b60405180910390fd5b600655565b6001600160a01b03811660009081526002602052604081205460ff166107e757506000919050565b5050600e5490565b60006107f961158f565b60005b82518110156108515761083583828151811061082857634e487b7160e01b600052603260045260246000fd5b6020026020010151610857565b1561083f57600191505b806108498161219b565b9150506107fc565b50919050565b600061086161158f565b6001600160a01b03821660009081526002602052604090205460ff16156108ef576001600160a01b038216600081815260026020908152604091829020805460ff1916905590519182527ff1abf01a1043b7c244d128e8595cf0c1d10743b022b03a02dffd8ca3bf729f5a910160405180910390a1506003805460019160006108e983612184565b91905055505b919050565b6000600954600b541161090957506000919050565b600061091483611470565b9050600061093f670de0b6b3a7640000610939846009546115e990919063ffffffff16565b906115f5565b6001600160a01b0385166000908152600c602052604081205491925090610974906127109061096e9085611601565b90611601565b905060006109818261160d565b905061098d828261162a565b9695505050505050565b61099f61158f565b42600754106109c05760405162461bcd60e51b81526004016107b190612015565b6000600954600b54106109d5576009546109d9565b600b545b905060006109e68261160d565b6004549091506001600160a01b0316610a0857610a038382611636565b505050565b600454610a03906001600160a01b031684836116ff565b610a2761158f565b4260075410610a485760405162461bcd60e51b81526004016107b190612015565b6000600954600b5410610a5d57600954610a61565b600b545b6004549091506001600160a01b0316610a8257610a7e8282611636565b5050565b600454610a7e906001600160a01b031683836116ff565b610aa161158f565b610aa9611762565b565b60026000541415610afe5760405162461bcd60e51b815260206004820152601f60248201527f5265656e7472616e637947756172643a207265656e7472616e742063616c6c0060448201526064016107b1565b60026000556008544211610b475760405162461bcd60e51b815260206004820152601060248201526f6e6f7420686172766573742074696d6560801b60448201526064016107b1565b336000908152600c6020526040902054610b9c5760405162461bcd60e51b81526020600482015260166024820152756861766520796f75207061727469636970617465643f60501b60448201526064016107b1565b336000908152600c602052604090206001015460ff1615610bf45760405162461bcd60e51b81526020600482015260126024820152711b9bdd1a1a5b99c81d1bc81a185c9d995cdd60721b60448201526064016107b1565b610bfc6117b7565b6000610c0733611059565b90506000610c14336108f4565b600554909150610c2e906001600160a01b031633846116ff565b8015610c6a576004546001600160a01b0316610c5357610c4e3382611636565b610c6a565b600454610c6a906001600160a01b031633836116ff565b336000818152600c60209081526040918290206001908101805460ff1916909117905581518581529081018490527f71bab65ced2e5750775a0613be067df48ef06cf92a496ebf7663ae0660924954910160405180910390a250506001600055565b6000600b5460001415610cdf5750600090565b600954600b5410610cf15750600a5490565b610d0e600954610939600b54600a546115e990919063ffffffff16565b905090565b610d1b611d0c565b610d23611d0c565b6000806000806000610d33611d0c565b6004546001600160a01b0316610db457604051806080016040528060006001600160a01b03168152602001601281526020016040518060400160405280600b81526020016a25b0b93234b0a1b430b4b760a91b8152508152602001604051806040016040528060038152602001624b414960e81b8152508152509050610dcc565b600454610dc9906001600160a01b0316611804565b90505b600554600090610de4906001600160a01b0316611804565b600654600754600854600a54600954969e949d50929b509099509750955091935090915050565b610e1361158f565b6001600160a01b038216610e56576040516001600160a01b038216904780156108fc02916000818181858888f19350505050158015610a03573d6000803e3d6000fd5b6040516370a0823160e01b8152306004820152610a7e9082906001600160a01b038516906370a082319060240160206040518083038186803b158015610e9b57600080fd5b505afa158015610eaf573d6000803e3d6000fd5b505050506040513d601f19601f82011682018060405250810190610ed39190611f0d565b6001600160a01b03851691906116ff565b610eec61158f565b4281118015610efc575060085481105b610f185760405162461bcd60e51b81526004016107b190612041565b600755565b610f2561158f565b4260075410610f465760405162461bcd60e51b81526004016107b190612015565b6000610f506110d0565b600554909150610a7e906001600160a01b031683836116ff565b610f7261158f565b610aa96000611996565b610f8461158f565b4281118015610f94575060075481115b610fb05760405162461bcd60e51b81526004016107b190612041565b600855565b6000610fbf61158f565b6001600160a01b03821660009081526002602052604090205460ff166108ef576001600160a01b038216600081815260026020908152604091829020805460ff1916600117905590519182527fd1bba68c128cc3f427e5831b3c6f99f480b6efa6b9e80c757768f6124158cc3f910160405180910390a1506003805460019160006108e98361219b565b61105161158f565b610aa96119e8565b6000600954600b54111561109c57600061107283611470565b9050611095670de0b6b3a764000061093983600a546115e990919063ffffffff16565b9392505050565b600954600a546001600160a01b0384166000908152600c60205260409020546110ca929161093991906115e9565b92915050565b6000806110db610ccc565b600a549091506110eb9082611601565b91505090565b600260005414156111445760405162461bcd60e51b815260206004820152601f60248201527f5265656e7472616e637947756172643a207265656e7472616e742063616c6c0060448201526064016107b1565b600260005560065481904211801561115d575060075442105b61119c5760405162461bcd60e51b815260206004820152601060248201526f6e6f742072616973696e672074696d6560801b60448201526064016107b1565b600081116111df5760405162461bcd60e51b815260206004820152601060248201526f06e656564205f616d6f756e74203e20360841b60448201526064016107b1565b6111e76117b7565b3360009081526002602052604090205460ff166112385760405162461bcd60e51b815260206004820152600f60248201526e1b9bdd081dda1a5d195b1a5cdd1959608a1b60448201526064016107b1565b336000908152600c6020526040902054600e54116112905760405162461bcd60e51b81526020600482015260156024820152746e6f7420656c696769626c6520616d6f756e74212160581b60448201526064016107b1565b336000908152600c6020526040812054600e546112ad9190612141565b905082808210156112bb5750805b60006112c68261160d565b905060006112d482846120ea565b6004549091506001600160a01b031661134b578034101561132b5760405162461bcd60e51b81526020600482015260116024820152700c2dadeeadce840dcdee840cadcdeeaced607b1b60448201526064016107b1565b8034111561134657611346336113418334612141565b611636565b611363565b600454611363906001600160a01b0316333084611a2b565b336000908152600c60205260409020546113ba57600d80546001810182556000919091527fd7b6990105719101dabeb77144f2a3385c8033acd3af97e9423a695e81ad1eb50180546001600160a01b031916331790555b336000908152600c60205260409020546113d4908461162a565b336000908152600c6020526040902055600b546113f1908461162a565b600b55601054611401908361162a565b60105560405183815233907fe1fffcc4923d04b559f4d29a8bfc6cda04eb5b0d3c460751c2402c5c5cc9109c9060200160405180910390a25050600160005550505050565b600d818154811061145657600080fd5b6000918252602090912001546001600160a01b0316905081565b600b546001600160a01b0382166000908152600c602052604081205490916110ca9161093990670de0b6b3a76400006115e9565b60006114ae61158f565b60005b8251811015610851576114ea8382815181106114dd57634e487b7160e01b600052603260045260246000fd5b6020026020010151610fb5565b156114f457600191505b806114fe8161219b565b9150506114b1565b61150e61158f565b600955600a55565b61151e61158f565b6001600160a01b0381166115835760405162461bcd60e51b815260206004820152602660248201527f4f776e61626c653a206e6577206f776e657220697320746865207a65726f206160448201526564647265737360d01b60648201526084016107b1565b61158c81611996565b50565b6001546001600160a01b03163314610aa95760405162461bcd60e51b815260206004820181905260248201527f4f776e61626c653a2063616c6c6572206973206e6f7420746865206f776e657260448201526064016107b1565b60006110958284612122565b60006110958284612102565b60006110958284612141565b60006110ca612710610939600f54856115e990919063ffffffff16565b600061109582846120ea565b604080516000808252602082019092526001600160a01b0384169083906040516116609190611fe6565b60006040518083038185875af1925050503d806000811461169d576040519150601f19603f3d011682016040523d82523d6000602084013e6116a2565b606091505b5050905080610a035760405162461bcd60e51b815260206004820152602360248201527f5472616e7366657248656c7065723a204b41495f5452414e534645525f46414960448201526213115160ea1b60648201526084016107b1565b6040516001600160a01b038316602482015260448101829052610a0390849063a9059cbb60e01b906064015b60408051601f198184030181529190526020810180516001600160e01b03166001600160e01b031990931692909217909152611a69565b61176a611b3b565b6001805460ff60a01b191690557f5db9ee0a495bf2e6ff9c91a7834c1ba4fdd244a5e8aa4e537bd38aeae4b073aa335b6040516001600160a01b03909116815260200160405180910390a1565b600154600160a01b900460ff1615610aa95760405162461bcd60e51b815260206004820152601060248201526f14185d5cd8589b194e881c185d5cd95960821b60448201526064016107b1565b61180c611d0c565b6040518060800160405280836001600160a01b03168152602001836001600160a01b031663313ce5676040518163ffffffff1660e01b815260040160206040518083038186803b15801561185f57600080fd5b505afa158015611873573d6000803e3d6000fd5b505050506040513d601f19601f820116820180604052508101906118979190611f46565b60ff168152602001836001600160a01b03166306fdde036040518163ffffffff1660e01b815260040160006040518083038186803b1580156118d857600080fd5b505afa1580156118ec573d6000803e3d6000fd5b505050506040513d6000823e601f3d908101601f191682016040526119149190810190611e65565b8152602001836001600160a01b03166395d89b416040518163ffffffff1660e01b815260040160006040518083038186803b15801561195257600080fd5b505afa158015611966573d6000803e3d6000fd5b505050506040513d6000823e601f3d908101601f1916820160405261198e9190810190611e65565b905292915050565b600180546001600160a01b038381166001600160a01b0319831681179093556040519116919082907f8be0079c531659141344cd1fd0a4f28419497f9722a3daafe3b4186f6b6457e090600090a35050565b6119f06117b7565b6001805460ff60a01b1916600160a01b1790557f62e78cea01bee320cd4e420270b5ea74000d11b0c9f74754ebdbfc544b05a25861179a3390565b6040516001600160a01b0380851660248301528316604482015260648101829052611a639085906323b872dd60e01b9060840161172b565b50505050565b6000611abe826040518060400160405280602081526020017f5361666545524332303a206c6f772d6c6576656c2063616c6c206661696c6564815250856001600160a01b0316611b8b9092919063ffffffff16565b805190915015610a035780806020019051810190611adc9190611e45565b610a035760405162461bcd60e51b815260206004820152602a60248201527f5361666545524332303a204552433230206f7065726174696f6e20646964206e6044820152691bdd081cdd58d8d9595960b21b60648201526084016107b1565b600154600160a01b900460ff16610aa95760405162461bcd60e51b815260206004820152601460248201527314185d5cd8589b194e881b9bdd081c185d5cd95960621b60448201526064016107b1565b6060611b9a8484600085611ba2565b949350505050565b606082471015611c035760405162461bcd60e51b815260206004820152602660248201527f416464726573733a20696e73756666696369656e742062616c616e636520666f6044820152651c8818d85b1b60d21b60648201526084016107b1565b6001600160a01b0385163b611c5a5760405162461bcd60e51b815260206004820152601d60248201527f416464726573733a2063616c6c20746f206e6f6e2d636f6e747261637400000060448201526064016107b1565b600080866001600160a01b03168587604051611c769190611fe6565b60006040518083038185875af1925050503d8060008114611cb3576040519150601f19603f3d011682016040523d82523d6000602084013e611cb8565b606091505b5091509150611cc8828286611cd3565b979650505050505050565b60608315611ce2575081611095565b825115611cf25782518084602001fd5b8160405162461bcd60e51b81526004016107b19190612002565b604051806080016040528060006001600160a01b031681526020016000815260200160608152602001606081525090565b600060208284031215611d4e578081fd5b8135611095816121e2565b60008060408385031215611d6b578081fd5b8235611d76816121e2565b91506020830135611d86816121e2565b809150509250929050565b60006020808385031215611da3578182fd5b823567ffffffffffffffff80821115611dba578384fd5b818501915085601f830112611dcd578384fd5b813581811115611ddf57611ddf6121cc565b8060051b9150611df08483016120b9565b8181528481019084860184860187018a1015611e0a578788fd5b8795505b83861015611e385780359450611e23856121e2565b84835260019590950194918601918601611e0e565b5098975050505050505050565b600060208284031215611e56578081fd5b81518015158114611095578182fd5b600060208284031215611e76578081fd5b815167ffffffffffffffff80821115611e8d578283fd5b818401915084601f830112611ea0578283fd5b815181811115611eb257611eb26121cc565b611ec5601f8201601f19166020016120b9565b9150808252856020828501011115611edb578384fd5b611eec816020840160208601612158565b50949350505050565b600060208284031215611f06578081fd5b5035919050565b600060208284031215611f1e578081fd5b5051919050565b60008060408385031215611f37578182fd5b50508035926020909101359150565b600060208284031215611f57578081fd5b815160ff81168114611095578182fd5b60008151808452611f7f816020860160208601612158565b601f01601f19169290920160200192915050565b60018060a01b038151168252602081015160208301526000604082015160806040850152611fc46080850182611f67565b905060608301518482036060860152611fdd8282611f67565b95945050505050565b60008251611ff8818460208701612158565b9190910192915050565b6020815260006110956020830184611f67565b6020808252601290820152711d1a5b59481a185cc81b9bdd08195b99195960721b604082015260600190565b6020808252600e908201526d74696d6520696e76616c6964212160901b604082015260600190565b60e08152600061207c60e083018a611f93565b828103602084015261208e818a611f93565b604084019890985250506060810194909452608084019290925260a083015260c09091015292915050565b604051601f8201601f1916810167ffffffffffffffff811182821017156120e2576120e26121cc565b604052919050565b600082198211156120fd576120fd6121b6565b500190565b60008261211d57634e487b7160e01b81526012600452602481fd5b500490565b600081600019048311821515161561213c5761213c6121b6565b500290565b600082821015612153576121536121b6565b500390565b60005b8381101561217357818101518382015260200161215b565b83811115611a635750506000910152565b600081612193576121936121b6565b506000190190565b60006000198214156121af576121af6121b6565b5060010190565b634e487b7160e01b600052601160045260246000fd5b634e487b7160e01b600052604160045260246000fd5b6001600160a01b038116811461158c57600080fdfea264697066735822122083411b2fc4b3f16d97c641574e096392d31d598e605ea4ba76e4d23267a2be0f64736f6c63430008040033",
  "linkReferences": {},
  "deployedLinkReferences": {}
}