{
  "_format": "hh-sol-artifact-1",
  "contractName": "WhitelistRaisingV2",
  "sourceName": "contracts/launchpad/whitelist/WhitelistRaisingV2.sol",
  "abi": [
    {
      "inputs": [
        {
          "internalType": "contract ERC20",
          "name": "_buyToken",
          "type": "address"
        },
        {
          "internalType": "contract ERC20",
          "name": "_offeringToken",
          "type": "address"
        },
        {
          "internalType": "uint256",
          "name": "_startTime",
          "type": "uint256"
        },
        {
          "internalType": "uint256",
          "name": "_endTime",
          "type": "uint256"
        },
        {
          "internalType": "uint256",
          "name": "_harvestTime",
          "type": "uint256"
        },
        {
          "internalType": "uint256",
          "name": "_offeringAmount",
          "type": "uint256"
        },
        {
          "internalType": "uint256",
          "name": "_raisingAmount",
          "type": "uint256"
        },
        {
          "internalType": "uint256",
          "name": "_maxAllocation",
          "type": "uint256"
        }
      ],
      "stateMutability": "nonpayable",
      "type": "constructor"
    },
    {
      "anonymous": false,
      "inputs": [
        {
          "indexed": true,
          "internalType": "address",
          "name": "user",
          "type": "address"
        },
        {
          "indexed": false,
          "internalType": "uint256",
          "name": "amount",
          "type": "uint256"
        }
      ],
      "name": "Deposit",
      "type": "event"
    },
    {
      "anonymous": false,
      "inputs": [
        {
          "indexed": true,
          "internalType": "address",
          "name": "user",
          "type": "address"
        },
        {
          "indexed": false,
          "internalType": "uint256",
          "name": "offeringAmount",
          "type": "uint256"
        },
        {
          "indexed": false,
          "internalType": "uint256",
          "name": "excessAmount",
          "type": "uint256"
        }
      ],
      "name": "Harvest",
      "type": "event"
    },
    {
      "anonymous": false,
      "inputs": [
        {
          "indexed": true,
          "internalType": "address",
          "name": "previousOwner",
          "type": "address"
        },
        {
          "indexed": true,
          "internalType": "address",
          "name": "newOwner",
          "type": "address"
        }
      ],
      "name": "OwnershipTransferred",
      "type": "event"
    },
    {
      "anonymous": false,
      "inputs": [
        {
          "indexed": false,
          "internalType": "address",
          "name": "account",
          "type": "address"
        }
      ],
      "name": "Paused",
      "type": "event"
    },
    {
      "anonymous": false,
      "inputs": [
        {
          "indexed": false,
          "internalType": "address",
          "name": "account",
          "type": "address"
        }
      ],
      "name": "Unpaused",
      "type": "event"
    },
    {
      "anonymous": false,
      "inputs": [
        {
          "indexed": false,
          "internalType": "address",
          "name": "addr",
          "type": "address"
        }
      ],
      "name": "WhitelistedAddressAdded",
      "type": "event"
    },
    {
      "anonymous": false,
      "inputs": [
        {
          "indexed": false,
          "internalType": "address",
          "name": "addr",
          "type": "address"
        }
      ],
      "name": "WhitelistedAddressRemoved",
      "type": "event"
    },
    {
      "inputs": [],
      "name": "IDO_FEE",
      "outputs": [
        {
          "internalType": "uint256",
          "name": "",
          "type": "uint256"
        }
      ],
      "stateMutability": "view",
      "type": "function"
    },
    {
      "inputs": [
        {
          "internalType": "address",
          "name": "addr",
          "type": "address"
        }
      ],
      "name": "addAddressToWhitelist",
      "outputs": [
        {
          "internalType": "bool",
          "name": "success",
          "type": "bool"
        }
      ],
      "stateMutability": "nonpayable",
      "type": "function"
    },
    {
      "inputs": [
        {
          "internalType": "address[]",
          "name": "addrs",
          "type": "address[]"
        }
      ],
      "name": "addAddressesToWhitelist",
      "outputs": [
        {
          "internalType": "bool",
          "name": "success",
          "type": "bool"
        }
      ],
      "stateMutability": "nonpayable",
      "type": "function"
    },
    {
      "inputs": [
        {
          "internalType": "uint256",
          "name": "",
          "type": "uint256"
        }
      ],
      "name": "addressList",
      "outputs": [
        {
          "internalType": "address",
          "name": "",
          "type": "address"
        }
      ],
      "stateMutability": "view",
      "type": "function"
    },
    {
      "inputs": [],
      "name": "buyToken",
      "outputs": [
        {
          "internalType": "contract ERC20",
          "name": "",
          "type": "address"
        }
      ],
      "stateMutability": "view",
      "type": "function"
    },
    {
      "inputs": [
        {
          "internalType": "uint256",
          "name": "_amount",
          "type": "uint256"
        }
      ],
      "name": "deposit",
      "outputs": [],
      "stateMutability": "payable",
      "type": "function"
    },
    {
      "inputs": [
        {
          "internalType": "address",
          "name": "token",
          "type": "address"
        },
        {
          "internalType": "address payable",
          "name": "to",
          "type": "address"
        }
      ],
      "name": "emergencyWithdraw",
      "outputs": [],
      "stateMutability": "nonpayable",
      "type": "function"
    },
    {
      "inputs": [],
      "name": "endTime",
      "outputs": [
        {
          "internalType": "uint256",
          "name": "",
          "type": "uint256"
        }
      ],
      "stateMutability": "view",
      "type": "function"
    },
    {
      "inputs": [
        {
          "internalType": "address",
          "name": "_destination",
          "type": "address"
        }
      ],
      "name": "finalWithdraw",
      "outputs": [],
      "stateMutability": "nonpayable",
      "type": "function"
    },
    {
      "inputs": [],
      "name": "getAddressListLength",
      "outputs": [
        {
          "internalType": "uint256",
          "name": "",
          "type": "uint256"
        }
      ],
      "stateMutability": "view",
      "type": "function"
    },
    {
      "inputs": [
        {
          "internalType": "address",
          "name": "_account",
          "type": "address"
        }
      ],
      "name": "getAllocation",
      "outputs": [
        {
          "internalType": "uint256",
          "name": "",
          "type": "uint256"
        }
      ],
      "stateMutability": "view",
      "type": "function"
    },
    {
      "inputs": [
        {
          "internalType": "address",
          "name": "_user",
          "type": "address"
        }
      ],
      "name": "getOfferingAmount",
      "outputs": [
        {
          "internalType": "uint256",
          "name": "",
          "type": "uint256"
        }
      ],
      "stateMutability": "view",
      "type": "function"
    },
    {
      "inputs": [
        {
          "internalType": "address",
          "name": "_user",
          "type": "address"
        }
      ],
      "name": "getRefundingAmount",
      "outputs": [
        {
          "internalType": "uint256",
          "name": "",
          "type": "uint256"
        }
      ],
      "stateMutability": "view",
      "type": "function"
    },
    {
      "inputs": [
        {
          "internalType": "address",
          "name": "_user",
          "type": "address"
        }
      ],
      "name": "getUserAllocation",
      "outputs": [
        {
          "internalType": "uint256",
          "name": "",
          "type": "uint256"
        }
      ],
      "stateMutability": "view",
      "type": "function"
    },
    {
      "inputs": [],
      "name": "harvest",
      "outputs": [],
      "stateMutability": "nonpayable",
      "type": "function"
    },
    {
      "inputs": [],
      "name": "harvestTime",
      "outputs": [
        {
          "internalType": "uint256",
          "name": "",
          "type": "uint256"
        }
      ],
      "stateMutability": "view",
      "type": "function"
    },
    {
      "inputs": [],
      "name": "maxAllocation",
      "outputs": [
        {
          "internalType": "uint256",
          "name": "",
          "type": "uint256"
        }
      ],
      "stateMutability": "view",
      "type": "function"
    },
    {
      "inputs": [],
      "name": "offeringAmount",
      "outputs": [
        {
          "internalType": "uint256",
          "name": "",
          "type": "uint256"
        }
      ],
      "stateMutability": "view",
      "type": "function"
    },
    {
      "inputs": [],
      "name": "offeringToken",
      "outputs": [
        {
          "internalType": "contract ERC20",
          "name": "",
          "type": "address"
        }
      ],
      "stateMutability": "view",
      "type": "function"
    },
    {
      "inputs": [],
      "name": "owner",
      "outputs": [
        {
          "internalType": "address",
          "name": "",
          "type": "address"
        }
      ],
      "stateMutability": "view",
      "type": "function"
    },
    {
      "inputs": [],
      "name": "pause",
      "outputs": [],
      "stateMutability": "nonpayable",
      "type": "function"
    },
    {
      "inputs": [],
      "name": "paused",
      "outputs": [
        {
          "internalType": "bool",
          "name": "",
          "type": "bool"
        }
      ],
      "stateMutability": "view",
      "type": "function"
    },
    {
      "inputs": [],
      "name": "raisingAmount",
      "outputs": [
        {
          "internalType": "uint256",
          "name": "",
          "type": "uint256"
        }
      ],
      "stateMutability": "view",
      "type": "function"
    },
    {
      "inputs": [
        {
          "internalType": "address",
          "name": "addr",
          "type": "address"
        }
      ],
      "name": "removeAddressFromWhitelist",
      "outputs": [
        {
          "internalType": "bool",
          "name": "success",
          "type": "bool"
        }
      ],
      "stateMutability": "nonpayable",
      "type": "function"
    },
    {
      "inputs": [
        {
          "internalType": "address[]",
          "name": "addrs",
          "type": "address[]"
        }
      ],
      "name": "removeAddressesFromWhitelist",
      "outputs": [
        {
          "internalType": "bool",
          "name": "success",
          "type": "bool"
        }
      ],
      "stateMutability": "nonpayable",
      "type": "function"
    },
    {
      "inputs": [],
      "name": "renounceOwnership",
      "outputs": [],
      "stateMutability": "nonpayable",
      "type": "function"
    },
    {
      "inputs": [
        {
          "internalType": "uint256",
          "name": "_offerAmount",
          "type": "uint256"
        }
      ],
      "name": "setOfferingAmount",
      "outputs": [],
      "stateMutability": "nonpayable",
      "type": "function"
    },
    {
      "inputs": [
        {
          "internalType": "uint256",
          "name": "_raisingAmount",
          "type": "uint256"
        }
      ],
      "name": "setRaisingAmount",
      "outputs": [],
      "stateMutability": "nonpayable",
      "type": "function"
    },
    {
      "inputs": [],
      "name": "startTime",
      "outputs": [
        {
          "internalType": "uint256",
          "name": "",
          "type": "uint256"
        }
      ],
      "stateMutability": "view",
      "type": "function"
    },
    {
      "inputs": [],
      "name": "totalAddress",
      "outputs": [
        {
          "internalType": "uint256",
          "name": "",
          "type": "uint256"
        }
      ],
      "stateMutability": "view",
      "type": "function"
    },
    {
      "inputs": [],
      "name": "totalAmount",
      "outputs": [
        {
          "internalType": "uint256",
          "name": "",
          "type": "uint256"
        }
      ],
      "stateMutability": "view",
      "type": "function"
    },
    {
      "inputs": [
        {
          "internalType": "address",
          "name": "newOwner",
          "type": "address"
        }
      ],
      "name": "transferOwnership",
      "outputs": [],
      "stateMutability": "nonpayable",
      "type": "function"
    },
    {
      "inputs": [],
      "name": "unpause",
      "outputs": [],
      "stateMutability": "nonpayable",
      "type": "function"
    },
    {
      "inputs": [
        {
          "internalType": "uint256",
          "name": "_newTime",
          "type": "uint256"
        }
      ],
      "name": "updateEndTime",
      "outputs": [],
      "stateMutability": "nonpayable",
      "type": "function"
    },
    {
      "inputs": [
        {
          "internalType": "uint256",
          "name": "_newTime",
          "type": "uint256"
        }
      ],
      "name": "updateHarvestTime",
      "outputs": [],
      "stateMutability": "nonpayable",
      "type": "function"
    },
    {
      "inputs": [
        {
          "internalType": "uint256",
          "name": "_newTime",
          "type": "uint256"
        }
      ],
      "name": "updateStartTime",
      "outputs": [],
      "stateMutability": "nonpayable",
      "type": "function"
    },
    {
      "inputs": [
        {
          "internalType": "address",
          "name": "",
          "type": "address"
        }
      ],
      "name": "userInfo",
      "outputs": [
        {
          "internalType": "uint256",
          "name": "amount",
          "type": "uint256"
        },
        {
          "internalType": "bool",
          "name": "claimed",
          "type": "bool"
        }
      ],
      "stateMutability": "view",
      "type": "function"
    },
    {
      "inputs": [
        {
          "internalType": "address",
          "name": "",
          "type": "address"
        }
      ],
      "name": "whitelist",
      "outputs": [
        {
          "internalType": "bool",
          "name": "",
          "type": "bool"
        }
      ],
      "stateMutability": "view",
      "type": "function"
    }
  ],
  "bytecode": "0x608060405260c8600f553480156200001657600080fd5b506040516200215938038062002159833981016040819052620000399162000141565b60016000556200004933620000d2565b6001805460ff60a01b191690558484108015906200006657508585115b80156200007257504286115b6200007c57600080fd5b600480546001600160a01b03998a166001600160a01b0319918216179091556005805498909916971696909617909655600693909355600791909155600855600a556009919091556000600b55600e55620001b1565b600180546001600160a01b038381166001600160a01b0319831681179093556040519116919082907f8be0079c531659141344cd1fd0a4f28419497f9722a3daafe3b4186f6b6457e090600090a35050565b80516001600160a01b03811681146200013c57600080fd5b919050565b600080600080600080600080610100898b0312156200015e578384fd5b620001698962000124565b97506200017960208a0162000124565b60408a015160608b015160808c015160a08d015160c08e015160e0909e01519c9f949e50929c919b909a509198509650945092505050565b611f9880620001c16000396000f3fe6080604052600436106102255760003560e01c80637e45e94211610123578063ac3ff912116100ab578063e1af9a951161006f578063e1af9a951461063d578063e2ec6ec314610653578063f2fde38b14610673578063f480821014610693578063fc00358e146106a957600080fd5b8063ac3ff912146105aa578063b6b55f25146105ca578063b7813607146105dd578063b810fb43146105fd578063b920ade21461061d57600080fd5b806395f92254116100f257806395f92254146105185780639b19251a1461052e5780639b3ba79f1461055e5780639c0a766914610574578063a48217191461058a57600080fd5b80637e45e9421461049b5780638456cb59146104b157806387e97bc6146104c65780638da5cb5b146104e657600080fd5b80633f4ba83a116101b15780636ab3846b116101755780636ab3846b14610410578063715018a61461043057806376ea6ee01461044557806378e97925146104655780637b9417c81461047b57600080fd5b80633f4ba83a146103875780634225c32f1461039c5780634641257d146103bc5780635c975abb146103d15780636382d9ad146103f057600080fd5b806324953eaa116101f857806324953eaa146102e157806327d1b1a214610311578063286dd3f5146103315780632f5105f8146103515780633197cbb61461037157600080fd5b806306bcf02f1461022a5780630e0229231461024c5780631959a0021461027f5780631a39d8ef146102cb575b600080fd5b34801561023657600080fd5b5061024a610245366004611d4f565b6106be565b005b34801561025857600080fd5b5061026c610267366004611c14565b610722565b6040519081526020015b60405180910390f35b34801561028b57600080fd5b506102b661029a366004611c14565b600c602052600090815260409020805460019091015460ff1682565b60408051928352901515602083015201610276565b3480156102d757600080fd5b5061026c600b5481565b3480156102ed57600080fd5b506103016102fc366004611c68565b610752565b6040519015158152602001610276565b34801561031d57600080fd5b5061024a61032c366004611d4f565b6107dd565b34801561033d57600080fd5b5061030161034c366004611c14565b610842565b34801561035d57600080fd5b5061026c61036c366004611c14565b610902565b34801561037d57600080fd5b5061026c60075481565b34801561039357600080fd5b5061024a6109b7565b3480156103a857600080fd5b5061024a6103b7366004611d4f565b6109eb565b3480156103c857600080fd5b5061024a610a50565b3480156103dd57600080fd5b50600154600160a01b900460ff16610301565b3480156103fc57600080fd5b5061024a61040b366004611c30565b610c93565b34801561041c57600080fd5b5061024a61042b366004611d4f565b610d97565b34801561043c57600080fd5b5061024a610df2565b34801561045157600080fd5b5061024a610460366004611d4f565b610e26565b34801561047157600080fd5b5061026c60065481565b34801561048757600080fd5b50610301610496366004611c14565b610e81565b3480156104a757600080fd5b5061026c60035481565b3480156104bd57600080fd5b5061024a610f38565b3480156104d257600080fd5b5061026c6104e1366004611c14565b610f6a565b3480156104f257600080fd5b506001546001600160a01b03165b6040516001600160a01b039091168152602001610276565b34801561052457600080fd5b5061026c600f5481565b34801561053a57600080fd5b50610301610549366004611c14565b60026020526000908152604090205460ff1681565b34801561056a57600080fd5b5061026c600e5481565b34801561058057600080fd5b5061026c60095481565b34801561059657600080fd5b50600454610500906001600160a01b031681565b3480156105b657600080fd5b5061024a6105c5366004611c14565b610fe1565b61024a6105d8366004611d4f565b6111e1565b3480156105e957600080fd5b50600554610500906001600160a01b031681565b34801561060957600080fd5b50610500610618366004611d4f565b61154d565b34801561062957600080fd5b5061026c610638366004611c14565b611577565b34801561064957600080fd5b5061026c600a5481565b34801561065f57600080fd5b5061030161066e366004611c68565b6115ab565b34801561067f57600080fd5b5061024a61068e366004611c14565b611630565b34801561069f57600080fd5b5061026c60085481565b3480156106b557600080fd5b50600d5461026c565b6001546001600160a01b031633146106f15760405162461bcd60e51b81526004016106e890611e20565b60405180910390fd5b4281118015610701575060075481105b61071d5760405162461bcd60e51b81526004016106e890611dce565b600655565b6001600160a01b03811660009081526002602052604081205460ff1661074a57506000919050565b5050600e5490565b6001546000906001600160a01b0316331461077f5760405162461bcd60e51b81526004016106e890611e20565b60005b82518110156107d7576107bb8382815181106107ae57634e487b7160e01b600052603260045260246000fd5b6020026020010151610842565b156107c557600191505b806107cf81611f06565b915050610782565b50919050565b6001546001600160a01b031633146108075760405162461bcd60e51b81526004016106e890611e20565b600654421061083d5760405162461bcd60e51b81526020600482015260026024820152616e6f60f01b60448201526064016106e8565b600a55565b6001546000906001600160a01b0316331461086f5760405162461bcd60e51b81526004016106e890611e20565b6001600160a01b03821660009081526002602052604090205460ff16156108fd576001600160a01b038216600081815260026020908152604091829020805460ff1916905590519182527ff1abf01a1043b7c244d128e8595cf0c1d10743b022b03a02dffd8ca3bf729f5a910160405180910390a1506003805460019160006108f783611eef565b91905055505b919050565b6000600954600b541161091757506000919050565b600061092283611577565b9050600061094d670de0b6b3a7640000610947846009546116c890919063ffffffff16565b906116d4565b6001600160a01b0385166000908152600c602052604081205491925090610982906127109061097c90856116e0565b906116e0565b905060006109a1612710610947600f54856116c890919063ffffffff16565b90506109ad82826116ec565b9695505050505050565b6001546001600160a01b031633146109e15760405162461bcd60e51b81526004016106e890611e20565b6109e96116f8565b565b6001546001600160a01b03163314610a155760405162461bcd60e51b81526004016106e890611e20565b6006544210610a4b5760405162461bcd60e51b81526020600482015260026024820152616e6f60f01b60448201526064016106e8565b600955565b60026000541415610aa35760405162461bcd60e51b815260206004820152601f60248201527f5265656e7472616e637947756172643a207265656e7472616e742063616c6c0060448201526064016106e8565b60026000556008544211610aec5760405162461bcd60e51b815260206004820152601060248201526f6e6f7420686172766573742074696d6560801b60448201526064016106e8565b336000908152600c6020526040902054610b415760405162461bcd60e51b81526020600482015260166024820152756861766520796f75207061727469636970617465643f60501b60448201526064016106e8565b336000908152600c602052604090206001015460ff1615610b995760405162461bcd60e51b81526020600482015260126024820152711b9bdd1a1a5b99c81d1bc81a185c9d995cdd60721b60448201526064016106e8565b600154600160a01b900460ff1615610bc35760405162461bcd60e51b81526004016106e890611df6565b6000610bce33610f6a565b90506000610bdb33610902565b600554909150610bf5906001600160a01b03163384611795565b8015610c31576004546001600160a01b0316610c1a57610c1533826117f8565b610c31565b600454610c31906001600160a01b03163383611795565b336000818152600c60209081526040918290206001908101805460ff1916909117905581518581529081018490527f71bab65ced2e5750775a0613be067df48ef06cf92a496ebf7663ae0660924954910160405180910390a250506001600055565b6001546001600160a01b03163314610cbd5760405162461bcd60e51b81526004016106e890611e20565b6001600160a01b038216610d05576040516001600160a01b038216904780156108fc02916000818181858888f19350505050158015610d00573d6000803e3d6000fd5b505050565b6040516370a0823160e01b8152306004820152610d939082906001600160a01b038516906370a082319060240160206040518083038186803b158015610d4a57600080fd5b505afa158015610d5e573d6000803e3d6000fd5b505050506040513d601f19601f82011682018060405250810190610d829190611d67565b6001600160a01b0385169190611795565b5050565b6001546001600160a01b03163314610dc15760405162461bcd60e51b81526004016106e890611e20565b4281118015610dd1575060085481105b610ded5760405162461bcd60e51b81526004016106e890611dce565b600755565b6001546001600160a01b03163314610e1c5760405162461bcd60e51b81526004016106e890611e20565b6109e960006118c1565b6001546001600160a01b03163314610e505760405162461bcd60e51b81526004016106e890611e20565b4281118015610e60575060075481115b610e7c5760405162461bcd60e51b81526004016106e890611dce565b600855565b6001546000906001600160a01b03163314610eae5760405162461bcd60e51b81526004016106e890611e20565b6001600160a01b03821660009081526002602052604090205460ff166108fd576001600160a01b038216600081815260026020908152604091829020805460ff1916600117905590519182527fd1bba68c128cc3f427e5831b3c6f99f480b6efa6b9e80c757768f6124158cc3f910160405180910390a1506003805460019160006108f783611f06565b6001546001600160a01b03163314610f625760405162461bcd60e51b81526004016106e890611e20565b6109e9611913565b6000600954600b541115610fad576000610f8383611577565b9050610fa6670de0b6b3a764000061094783600a546116c890919063ffffffff16565b9392505050565b600954600a546001600160a01b0384166000908152600c6020526040902054610fdb929161094791906116c8565b92915050565b6001546001600160a01b0316331461100b5760405162461bcd60e51b81526004016106e890611e20565b42600754106110515760405162461bcd60e51b81526020600482015260126024820152711d1a5b59481a185cc81b9bdd08195b99195960721b60448201526064016106e8565b6004546001600160a01b031661109c576000600954471061107457600954611076565b475b9050610d9382611097612710610947600f54866116c890919063ffffffff16565b6117f8565b600954600480546040516370a0823160e01b81523092810192909252600092916001600160a01b03909116906370a082319060240160206040518083038186803b1580156110e957600080fd5b505afa1580156110fd573d6000803e3d6000fd5b505050506040513d601f19601f820116820180604052508101906111219190611d67565b1061112e576009546111aa565b600480546040516370a0823160e01b815230928101929092526001600160a01b0316906370a082319060240160206040518083038186803b15801561117257600080fd5b505afa158015611186573d6000803e3d6000fd5b505050506040513d601f19601f820116820180604052508101906111aa9190611d67565b9050610d93826111cb612710610947600f54866116c890919063ffffffff16565b6004546001600160a01b03169190611795565b50565b600260005414156112345760405162461bcd60e51b815260206004820152601f60248201527f5265656e7472616e637947756172643a207265656e7472616e742063616c6c0060448201526064016106e8565b600260005560065481904211801561124d575060075442105b61128c5760405162461bcd60e51b815260206004820152601060248201526f6e6f742072616973696e672074696d6560801b60448201526064016106e8565b600081116112cf5760405162461bcd60e51b815260206004820152601060248201526f06e656564205f616d6f756e74203e20360841b60448201526064016106e8565b600154600160a01b900460ff16156112f95760405162461bcd60e51b81526004016106e890611df6565b3360009081526002602052604090205460ff1661134a5760405162461bcd60e51b815260206004820152600f60248201526e1b9bdd081dda1a5d195b1a5cdd1959608a1b60448201526064016106e8565b336000908152600c6020526040902054600e54116113a25760405162461bcd60e51b81526020600482015260156024820152746e6f7420656c696769626c6520616d6f756e74212160581b60448201526064016106e8565b336000908152600c6020526040812054600e546113bf9190611eac565b905082808210156113cd5750805b6113e8612710610947600f54846116c890919063ffffffff16565b6113f29082611e55565b6004549091506001600160a01b031661146457803410156114495760405162461bcd60e51b81526020600482015260116024820152700c2dadeeadce840dcdee840cadcdeeaced607b1b60448201526064016106e8565b8034111561145f5761145f336110978334611eac565b61147c565b60045461147c906001600160a01b0316333084611978565b336000908152600c60205260409020546114d357600d80546001810182556000919091527fd7b6990105719101dabeb77144f2a3385c8033acd3af97e9423a695e81ad1eb50180546001600160a01b031916331790555b336000908152600c60205260409020546114ed90826116ec565b336000908152600c6020526040902055600b5461150a90826116ec565b600b5560405181815233907fe1fffcc4923d04b559f4d29a8bfc6cda04eb5b0d3c460751c2402c5c5cc9109c9060200160405180910390a2505060016000555050565b600d818154811061155d57600080fd5b6000918252602090912001546001600160a01b0316905081565b600b546001600160a01b0382166000908152600c60205260408120549091610fdb9161094790670de0b6b3a76400006116c8565b6001546000906001600160a01b031633146115d85760405162461bcd60e51b81526004016106e890611e20565b60005b82518110156107d75761161483828151811061160757634e487b7160e01b600052603260045260246000fd5b6020026020010151610e81565b1561161e57600191505b8061162881611f06565b9150506115db565b6001546001600160a01b0316331461165a5760405162461bcd60e51b81526004016106e890611e20565b6001600160a01b0381166116bf5760405162461bcd60e51b815260206004820152602660248201527f4f776e61626c653a206e6577206f776e657220697320746865207a65726f206160448201526564647265737360d01b60648201526084016106e8565b6111de816118c1565b6000610fa68284611e8d565b6000610fa68284611e6d565b6000610fa68284611eac565b6000610fa68284611e55565b600154600160a01b900460ff166117485760405162461bcd60e51b815260206004820152601460248201527314185d5cd8589b194e881b9bdd081c185d5cd95960621b60448201526064016106e8565b6001805460ff60a01b191690557f5db9ee0a495bf2e6ff9c91a7834c1ba4fdd244a5e8aa4e537bd38aeae4b073aa335b6040516001600160a01b03909116815260200160405180910390a1565b6040516001600160a01b038316602482015260448101829052610d0090849063a9059cbb60e01b906064015b60408051601f198184030181529190526020810180516001600160e01b03166001600160e01b0319909316929092179091526119b6565b604080516000808252602082019092526001600160a01b0384169083906040516118229190611d7f565b60006040518083038185875af1925050503d806000811461185f576040519150601f19603f3d011682016040523d82523d6000602084013e611864565b606091505b5050905080610d005760405162461bcd60e51b815260206004820152602360248201527f5472616e7366657248656c7065723a204b41495f5452414e534645525f46414960448201526213115160ea1b60648201526084016106e8565b600180546001600160a01b038381166001600160a01b0319831681179093556040519116919082907f8be0079c531659141344cd1fd0a4f28419497f9722a3daafe3b4186f6b6457e090600090a35050565b600154600160a01b900460ff161561193d5760405162461bcd60e51b81526004016106e890611df6565b6001805460ff60a01b1916600160a01b1790557f62e78cea01bee320cd4e420270b5ea74000d11b0c9f74754ebdbfc544b05a2586117783390565b6040516001600160a01b03808516602483015283166044820152606481018290526119b09085906323b872dd60e01b906084016117c1565b50505050565b6000611a0b826040518060400160405280602081526020017f5361666545524332303a206c6f772d6c6576656c2063616c6c206661696c6564815250856001600160a01b0316611a889092919063ffffffff16565b805190915015610d005780806020019051810190611a299190611d2f565b610d005760405162461bcd60e51b815260206004820152602a60248201527f5361666545524332303a204552433230206f7065726174696f6e20646964206e6044820152691bdd081cdd58d8d9595960b21b60648201526084016106e8565b6060611a978484600085611a9f565b949350505050565b606082471015611b005760405162461bcd60e51b815260206004820152602660248201527f416464726573733a20696e73756666696369656e742062616c616e636520666f6044820152651c8818d85b1b60d21b60648201526084016106e8565b6001600160a01b0385163b611b575760405162461bcd60e51b815260206004820152601d60248201527f416464726573733a2063616c6c20746f206e6f6e2d636f6e747261637400000060448201526064016106e8565b600080866001600160a01b03168587604051611b739190611d7f565b60006040518083038185875af1925050503d8060008114611bb0576040519150601f19603f3d011682016040523d82523d6000602084013e611bb5565b606091505b5091509150611bc5828286611bd0565b979650505050505050565b60608315611bdf575081610fa6565b825115611bef5782518084602001fd5b8160405162461bcd60e51b81526004016106e89190611d9b565b80356108fd81611f4d565b600060208284031215611c25578081fd5b8135610fa681611f4d565b60008060408385031215611c42578081fd5b8235611c4d81611f4d565b91506020830135611c5d81611f4d565b809150509250929050565b60006020808385031215611c7a578182fd5b823567ffffffffffffffff80821115611c91578384fd5b818501915085601f830112611ca4578384fd5b813581811115611cb657611cb6611f37565b8060051b604051601f19603f83011681018181108582111715611cdb57611cdb611f37565b604052828152858101935084860182860187018a1015611cf9578788fd5b8795505b83861015611d2257611d0e81611c09565b855260019590950194938601938601611cfd565b5098975050505050505050565b600060208284031215611d40578081fd5b81518015158114610fa6578182fd5b600060208284031215611d60578081fd5b5035919050565b600060208284031215611d78578081fd5b5051919050565b60008251611d91818460208701611ec3565b9190910192915050565b6020815260008251806020840152611dba816040850160208701611ec3565b601f01601f19169190910160400192915050565b6020808252600e908201526d74696d6520696e76616c6964212160901b604082015260600190565b60208082526010908201526f14185d5cd8589b194e881c185d5cd95960821b604082015260600190565b6020808252818101527f4f776e61626c653a2063616c6c6572206973206e6f7420746865206f776e6572604082015260600190565b60008219821115611e6857611e68611f21565b500190565b600082611e8857634e487b7160e01b81526012600452602481fd5b500490565b6000816000190483118215151615611ea757611ea7611f21565b500290565b600082821015611ebe57611ebe611f21565b500390565b60005b83811015611ede578181015183820152602001611ec6565b838111156119b05750506000910152565b600081611efe57611efe611f21565b506000190190565b6000600019821415611f1a57611f1a611f21565b5060010190565b634e487b7160e01b600052601160045260246000fd5b634e487b7160e01b600052604160045260246000fd5b6001600160a01b03811681146111de57600080fdfea2646970667358221220c8dd00e0d27f01e6acb02bae01c360e05963229d49c2df17f84fd5363bb9fd1e64736f6c63430008040033",
  "linkReferences": {},
  "deployedLinkReferences": {}
}