{
  "_format": "hh-sol-artifact-1",
  "contractName": "WhitelistRaisingV2",
  "sourceName": "contracts/launchpad/whitelist/WhitelistRaisingV2.sol",
  "abi": [
    {
      "inputs": [
        {
          "internalType": "contract ERC20",
          "name": "_buyToken",
          "type": "address"
        },
        {
          "internalType": "contract ERC20",
          "name": "_offeringToken",
          "type": "address"
        },
        {
          "internalType": "uint256",
          "name": "_startTime",
          "type": "uint256"
        },
        {
          "internalType": "uint256",
          "name": "_endTime",
          "type": "uint256"
        },
        {
          "internalType": "uint256",
          "name": "_harvestTime",
          "type": "uint256"
        },
        {
          "internalType": "uint256",
          "name": "_offeringAmount",
          "type": "uint256"
        },
        {
          "internalType": "uint256",
          "name": "_raisingAmount",
          "type": "uint256"
        },
        {
          "internalType": "uint256",
          "name": "_maxAllocation",
          "type": "uint256"
        }
      ],
      "stateMutability": "nonpayable",
      "type": "constructor"
    },
    {
      "anonymous": false,
      "inputs": [
        {
          "indexed": true,
          "internalType": "address",
          "name": "user",
          "type": "address"
        },
        {
          "indexed": false,
          "internalType": "uint256",
          "name": "amount",
          "type": "uint256"
        }
      ],
      "name": "Deposit",
      "type": "event"
    },
    {
      "anonymous": false,
      "inputs": [
        {
          "indexed": true,
          "internalType": "address",
          "name": "user",
          "type": "address"
        },
        {
          "indexed": false,
          "internalType": "uint256",
          "name": "offeringAmount",
          "type": "uint256"
        },
        {
          "indexed": false,
          "internalType": "uint256",
          "name": "excessAmount",
          "type": "uint256"
        }
      ],
      "name": "Harvest",
      "type": "event"
    },
    {
      "anonymous": false,
      "inputs": [
        {
          "indexed": true,
          "internalType": "address",
          "name": "previousOwner",
          "type": "address"
        },
        {
          "indexed": true,
          "internalType": "address",
          "name": "newOwner",
          "type": "address"
        }
      ],
      "name": "OwnershipTransferred",
      "type": "event"
    },
    {
      "anonymous": false,
      "inputs": [
        {
          "indexed": false,
          "internalType": "address",
          "name": "account",
          "type": "address"
        }
      ],
      "name": "Paused",
      "type": "event"
    },
    {
      "anonymous": false,
      "inputs": [
        {
          "indexed": false,
          "internalType": "address",
          "name": "account",
          "type": "address"
        }
      ],
      "name": "Unpaused",
      "type": "event"
    },
    {
      "anonymous": false,
      "inputs": [
        {
          "indexed": false,
          "internalType": "address",
          "name": "addr",
          "type": "address"
        }
      ],
      "name": "WhitelistedAddressAdded",
      "type": "event"
    },
    {
      "anonymous": false,
      "inputs": [
        {
          "indexed": false,
          "internalType": "address",
          "name": "addr",
          "type": "address"
        }
      ],
      "name": "WhitelistedAddressRemoved",
      "type": "event"
    },
    {
      "inputs": [],
      "name": "IDO_FEE",
      "outputs": [
        {
          "internalType": "uint256",
          "name": "",
          "type": "uint256"
        }
      ],
      "stateMutability": "view",
      "type": "function"
    },
    {
      "inputs": [
        {
          "internalType": "address",
          "name": "addr",
          "type": "address"
        }
      ],
      "name": "addAddressToWhitelist",
      "outputs": [
        {
          "internalType": "bool",
          "name": "success",
          "type": "bool"
        }
      ],
      "stateMutability": "nonpayable",
      "type": "function"
    },
    {
      "inputs": [
        {
          "internalType": "address[]",
          "name": "addrs",
          "type": "address[]"
        }
      ],
      "name": "addAddressesToWhitelist",
      "outputs": [
        {
          "internalType": "bool",
          "name": "success",
          "type": "bool"
        }
      ],
      "stateMutability": "nonpayable",
      "type": "function"
    },
    {
      "inputs": [
        {
          "internalType": "uint256",
          "name": "",
          "type": "uint256"
        }
      ],
      "name": "addressList",
      "outputs": [
        {
          "internalType": "address",
          "name": "",
          "type": "address"
        }
      ],
      "stateMutability": "view",
      "type": "function"
    },
    {
      "inputs": [],
      "name": "buyToken",
      "outputs": [
        {
          "internalType": "contract ERC20",
          "name": "",
          "type": "address"
        }
      ],
      "stateMutability": "view",
      "type": "function"
    },
    {
      "inputs": [
        {
          "internalType": "uint256",
          "name": "_amount",
          "type": "uint256"
        }
      ],
      "name": "deposit",
      "outputs": [],
      "stateMutability": "payable",
      "type": "function"
    },
    {
      "inputs": [
        {
          "internalType": "address",
          "name": "token",
          "type": "address"
        },
        {
          "internalType": "address payable",
          "name": "to",
          "type": "address"
        }
      ],
      "name": "emergencyWithdraw",
      "outputs": [],
      "stateMutability": "nonpayable",
      "type": "function"
    },
    {
      "inputs": [],
      "name": "endTime",
      "outputs": [
        {
          "internalType": "uint256",
          "name": "",
          "type": "uint256"
        }
      ],
      "stateMutability": "view",
      "type": "function"
    },
    {
      "inputs": [
        {
          "internalType": "address",
          "name": "_destination",
          "type": "address"
        }
      ],
      "name": "finalWithdrawFees",
      "outputs": [],
      "stateMutability": "nonpayable",
      "type": "function"
    },
    {
      "inputs": [
        {
          "internalType": "address",
          "name": "_destination",
          "type": "address"
        }
      ],
      "name": "finalWithdrawRaised",
      "outputs": [],
      "stateMutability": "nonpayable",
      "type": "function"
    },
    {
      "inputs": [],
      "name": "getAddressListLength",
      "outputs": [
        {
          "internalType": "uint256",
          "name": "",
          "type": "uint256"
        }
      ],
      "stateMutability": "view",
      "type": "function"
    },
    {
      "inputs": [
        {
          "internalType": "address",
          "name": "_account",
          "type": "address"
        }
      ],
      "name": "getAllocation",
      "outputs": [
        {
          "internalType": "uint256",
          "name": "",
          "type": "uint256"
        }
      ],
      "stateMutability": "view",
      "type": "function"
    },
    {
      "inputs": [],
      "name": "getInfo",
      "outputs": [
        {
          "components": [
            {
              "internalType": "contract ERC20",
              "name": "token",
              "type": "address"
            },
            {
              "internalType": "uint256",
              "name": "decimals",
              "type": "uint256"
            },
            {
              "internalType": "string",
              "name": "name",
              "type": "string"
            },
            {
              "internalType": "string",
              "name": "symbol",
              "type": "string"
            }
          ],
          "internalType": "struct WhitelistRaisingV2.TokenInfo",
          "name": "",
          "type": "tuple"
        },
        {
          "components": [
            {
              "internalType": "contract ERC20",
              "name": "token",
              "type": "address"
            },
            {
              "internalType": "uint256",
              "name": "decimals",
              "type": "uint256"
            },
            {
              "internalType": "string",
              "name": "name",
              "type": "string"
            },
            {
              "internalType": "string",
              "name": "symbol",
              "type": "string"
            }
          ],
          "internalType": "struct WhitelistRaisingV2.TokenInfo",
          "name": "",
          "type": "tuple"
        },
        {
          "internalType": "uint256",
          "name": "",
          "type": "uint256"
        },
        {
          "internalType": "uint256",
          "name": "",
          "type": "uint256"
        },
        {
          "internalType": "uint256",
          "name": "",
          "type": "uint256"
        },
        {
          "internalType": "uint256",
          "name": "",
          "type": "uint256"
        },
        {
          "internalType": "uint256",
          "name": "",
          "type": "uint256"
        }
      ],
      "stateMutability": "view",
      "type": "function"
    },
    {
      "inputs": [
        {
          "internalType": "address",
          "name": "_user",
          "type": "address"
        }
      ],
      "name": "getOfferingAmount",
      "outputs": [
        {
          "internalType": "uint256",
          "name": "",
          "type": "uint256"
        }
      ],
      "stateMutability": "view",
      "type": "function"
    },
    {
      "inputs": [
        {
          "internalType": "address",
          "name": "_user",
          "type": "address"
        }
      ],
      "name": "getRefundingAmount",
      "outputs": [
        {
          "internalType": "uint256",
          "name": "",
          "type": "uint256"
        }
      ],
      "stateMutability": "view",
      "type": "function"
    },
    {
      "inputs": [
        {
          "internalType": "address",
          "name": "_user",
          "type": "address"
        }
      ],
      "name": "getUserAllocation",
      "outputs": [
        {
          "internalType": "uint256",
          "name": "",
          "type": "uint256"
        }
      ],
      "stateMutability": "view",
      "type": "function"
    },
    {
      "inputs": [],
      "name": "harvest",
      "outputs": [],
      "stateMutability": "nonpayable",
      "type": "function"
    },
    {
      "inputs": [],
      "name": "harvestTime",
      "outputs": [
        {
          "internalType": "uint256",
          "name": "",
          "type": "uint256"
        }
      ],
      "stateMutability": "view",
      "type": "function"
    },
    {
      "inputs": [],
      "name": "maxAllocation",
      "outputs": [
        {
          "internalType": "uint256",
          "name": "",
          "type": "uint256"
        }
      ],
      "stateMutability": "view",
      "type": "function"
    },
    {
      "inputs": [],
      "name": "offeringAmount",
      "outputs": [
        {
          "internalType": "uint256",
          "name": "",
          "type": "uint256"
        }
      ],
      "stateMutability": "view",
      "type": "function"
    },
    {
      "inputs": [],
      "name": "offeringToken",
      "outputs": [
        {
          "internalType": "contract ERC20",
          "name": "",
          "type": "address"
        }
      ],
      "stateMutability": "view",
      "type": "function"
    },
    {
      "inputs": [],
      "name": "owner",
      "outputs": [
        {
          "internalType": "address",
          "name": "",
          "type": "address"
        }
      ],
      "stateMutability": "view",
      "type": "function"
    },
    {
      "inputs": [],
      "name": "pause",
      "outputs": [],
      "stateMutability": "nonpayable",
      "type": "function"
    },
    {
      "inputs": [],
      "name": "paused",
      "outputs": [
        {
          "internalType": "bool",
          "name": "",
          "type": "bool"
        }
      ],
      "stateMutability": "view",
      "type": "function"
    },
    {
      "inputs": [],
      "name": "raisingAmount",
      "outputs": [
        {
          "internalType": "uint256",
          "name": "",
          "type": "uint256"
        }
      ],
      "stateMutability": "view",
      "type": "function"
    },
    {
      "inputs": [],
      "name": "remainingToken",
      "outputs": [
        {
          "internalType": "uint256",
          "name": "",
          "type": "uint256"
        }
      ],
      "stateMutability": "view",
      "type": "function"
    },
    {
      "inputs": [
        {
          "internalType": "address",
          "name": "addr",
          "type": "address"
        }
      ],
      "name": "removeAddressFromWhitelist",
      "outputs": [
        {
          "internalType": "bool",
          "name": "success",
          "type": "bool"
        }
      ],
      "stateMutability": "nonpayable",
      "type": "function"
    },
    {
      "inputs": [
        {
          "internalType": "address[]",
          "name": "addrs",
          "type": "address[]"
        }
      ],
      "name": "removeAddressesFromWhitelist",
      "outputs": [
        {
          "internalType": "bool",
          "name": "success",
          "type": "bool"
        }
      ],
      "stateMutability": "nonpayable",
      "type": "function"
    },
    {
      "inputs": [],
      "name": "renounceOwnership",
      "outputs": [],
      "stateMutability": "nonpayable",
      "type": "function"
    },
    {
      "inputs": [
        {
          "internalType": "uint256",
          "name": "_offerAmount",
          "type": "uint256"
        }
      ],
      "name": "setOfferingAmount",
      "outputs": [],
      "stateMutability": "nonpayable",
      "type": "function"
    },
    {
      "inputs": [
        {
          "internalType": "uint256",
          "name": "_raisingAmount",
          "type": "uint256"
        }
      ],
      "name": "setRaisingAmount",
      "outputs": [],
      "stateMutability": "nonpayable",
      "type": "function"
    },
    {
      "inputs": [],
      "name": "soldTokenAmount",
      "outputs": [
        {
          "internalType": "uint256",
          "name": "",
          "type": "uint256"
        }
      ],
      "stateMutability": "view",
      "type": "function"
    },
    {
      "inputs": [],
      "name": "startTime",
      "outputs": [
        {
          "internalType": "uint256",
          "name": "",
          "type": "uint256"
        }
      ],
      "stateMutability": "view",
      "type": "function"
    },
    {
      "inputs": [],
      "name": "totalAddress",
      "outputs": [
        {
          "internalType": "uint256",
          "name": "",
          "type": "uint256"
        }
      ],
      "stateMutability": "view",
      "type": "function"
    },
    {
      "inputs": [],
      "name": "totalAmount",
      "outputs": [
        {
          "internalType": "uint256",
          "name": "",
          "type": "uint256"
        }
      ],
      "stateMutability": "view",
      "type": "function"
    },
    {
      "inputs": [],
      "name": "totalFees",
      "outputs": [
        {
          "internalType": "uint256",
          "name": "",
          "type": "uint256"
        }
      ],
      "stateMutability": "view",
      "type": "function"
    },
    {
      "inputs": [
        {
          "internalType": "address",
          "name": "newOwner",
          "type": "address"
        }
      ],
      "name": "transferOwnership",
      "outputs": [],
      "stateMutability": "nonpayable",
      "type": "function"
    },
    {
      "inputs": [],
      "name": "unpause",
      "outputs": [],
      "stateMutability": "nonpayable",
      "type": "function"
    },
    {
      "inputs": [
        {
          "internalType": "uint256",
          "name": "_newTime",
          "type": "uint256"
        }
      ],
      "name": "updateEndTime",
      "outputs": [],
      "stateMutability": "nonpayable",
      "type": "function"
    },
    {
      "inputs": [
        {
          "internalType": "uint256",
          "name": "_newTime",
          "type": "uint256"
        }
      ],
      "name": "updateHarvestTime",
      "outputs": [],
      "stateMutability": "nonpayable",
      "type": "function"
    },
    {
      "inputs": [
        {
          "internalType": "uint256",
          "name": "_newTime",
          "type": "uint256"
        }
      ],
      "name": "updateStartTime",
      "outputs": [],
      "stateMutability": "nonpayable",
      "type": "function"
    },
    {
      "inputs": [
        {
          "internalType": "address",
          "name": "",
          "type": "address"
        }
      ],
      "name": "userInfo",
      "outputs": [
        {
          "internalType": "uint256",
          "name": "amount",
          "type": "uint256"
        },
        {
          "internalType": "bool",
          "name": "claimed",
          "type": "bool"
        }
      ],
      "stateMutability": "view",
      "type": "function"
    },
    {
      "inputs": [
        {
          "internalType": "address",
          "name": "",
          "type": "address"
        }
      ],
      "name": "whitelist",
      "outputs": [
        {
          "internalType": "bool",
          "name": "",
          "type": "bool"
        }
      ],
      "stateMutability": "view",
      "type": "function"
    },
    {
      "inputs": [
        {
          "internalType": "address",
          "name": "_destination",
          "type": "address"
        }
      ],
      "name": "withdrawRemainingOfferingToken",
      "outputs": [],
      "stateMutability": "nonpayable",
      "type": "function"
    }
  ],
  "bytecode": "0x608060405260c8600f553480156200001657600080fd5b50604051620024693803806200246983398101604081905262000039916200013c565b60016000556200004933620000cd565b6001805460ff60a01b191690558484108015906200006657508585115b80156200007257504286115b6200007c57600080fd5b600480546001600160a01b03998a166001600160a01b0319918216179091556005805498909916971696909617909655600693909355600791909155600855600a55600991909155600e55620001ac565b600180546001600160a01b038381166001600160a01b0319831681179093556040519116919082907f8be0079c531659141344cd1fd0a4f28419497f9722a3daafe3b4186f6b6457e090600090a35050565b80516001600160a01b03811681146200013757600080fd5b919050565b600080600080600080600080610100898b03121562000159578384fd5b62000164896200011f565b97506200017460208a016200011f565b60408a015160608b015160808c015160a08d015160c08e015160e0909e01519c9f949e50929c919b909a509198509650945092505050565b6122ad80620001bc6000396000f3fe6080604052600436106102675760003560e01c806376ea6ee0116101445780639c0a7669116100b6578063b920ade21161007a578063b920ade214610707578063e1af9a9514610727578063e2ec6ec31461073d578063f2fde38b1461075d578063f48082101461077d578063fc00358e1461079357600080fd5b80639c0a76691461067e578063a482171914610694578063b6b55f25146106b4578063b7813607146106c7578063b810fb43146106e757600080fd5b806387e97bc61161010857806387e97bc6146105bb5780638da5cb5b146105db5780638ed762871461060d57806395f92254146106225780639b19251a146106385780639b3ba79f1461066857600080fd5b806376ea6ee01461053a57806378e979251461055a5780637b9417c8146105705780637e45e942146105905780638456cb59146105a657600080fd5b80633d0767b5116101dd5780635a9b0b89116101a15780635a9b0b891461047e5780635c975abb146104a65780636382d9ad146104c55780636ab3846b146104e557806370647c2114610505578063715018a61461052557600080fd5b80633d0767b5146103ff5780633f4ba83a1461041f5780634225c32f146104345780634641257d1461045457806347bfbab01461046957600080fd5b806324953eaa1161022f57806324953eaa1461033957806327d1b1a214610369578063286dd3f5146103895780632f5105f8146103a95780633197cbb6146103c957806337b05b3c146103df57600080fd5b806306bcf02f1461026c5780630e0229231461028e57806313114a9d146102c15780631959a002146102d75780631a39d8ef14610323575b600080fd5b34801561027857600080fd5b5061028c610287366004611f96565b6107a8565b005b34801561029a57600080fd5b506102ae6102a9366004611dde565b6107ea565b6040519081526020015b60405180910390f35b3480156102cd57600080fd5b506102ae60105481565b3480156102e357600080fd5b5061030e6102f2366004611dde565b600c602052600090815260409020805460019091015460ff1682565b604080519283529015156020830152016102b8565b34801561032f57600080fd5b506102ae600b5481565b34801561034557600080fd5b50610359610354366004611e32565b61081a565b60405190151581526020016102b8565b34801561037557600080fd5b5061028c610384366004611f96565b610882565b34801561039557600080fd5b506103596103a4366004611dde565b6108c5565b3480156103b557600080fd5b506102ae6103c4366004611dde565b610962565b3480156103d557600080fd5b506102ae60075481565b3480156103eb57600080fd5b5061028c6103fa366004611dde565b610a05565b34801561040b57600080fd5b5061028c61041a366004611dde565b610a8d565b34801561042b57600080fd5b5061028c610b07565b34801561044057600080fd5b5061028c61044f366004611f96565b610b19565b34801561046057600080fd5b5061028c610b5c565b34801561047557600080fd5b506102ae610d7d565b34801561048a57600080fd5b50610493610dc4565b6040516102b897969594939291906120e9565b3480156104b257600080fd5b50600154600160a01b900460ff16610359565b3480156104d157600080fd5b5061028c6104e0366004611dfa565b610ebc565b3480156104f157600080fd5b5061028c610500366004611f96565b610f95565b34801561051157600080fd5b5061028c610520366004611dde565b610fce565b34801561053157600080fd5b5061028c61101b565b34801561054657600080fd5b5061028c610555366004611f96565b61102d565b34801561056657600080fd5b506102ae60065481565b34801561057c57600080fd5b5061035961058b366004611dde565b611066565b34801561059c57600080fd5b506102ae60035481565b3480156105b257600080fd5b5061028c6110fa565b3480156105c757600080fd5b506102ae6105d6366004611dde565b61110a565b3480156105e757600080fd5b506001546001600160a01b03165b6040516001600160a01b0390911681526020016102b8565b34801561061957600080fd5b506102ae611181565b34801561062e57600080fd5b506102ae600f5481565b34801561064457600080fd5b50610359610653366004611dde565b60026020526000908152604090205460ff1681565b34801561067457600080fd5b506102ae600e5481565b34801561068a57600080fd5b506102ae60095481565b3480156106a057600080fd5b506004546105f5906001600160a01b031681565b61028c6106c2366004611f96565b6111a2565b3480156106d357600080fd5b506005546105f5906001600160a01b031681565b3480156106f357600080fd5b506105f5610702366004611f96565b6114f7565b34801561071357600080fd5b506102ae610722366004611dde565b611521565b34801561073357600080fd5b506102ae600a5481565b34801561074957600080fd5b50610359610758366004611e32565b611555565b34801561076957600080fd5b5061028c610778366004611dde565b6115b7565b34801561078957600080fd5b506102ae60085481565b34801561079f57600080fd5b50600d546102ae565b6107b0611630565b42811180156107c0575060075481105b6107e55760405162461bcd60e51b81526004016107dc906120c1565b60405180910390fd5b600655565b6001600160a01b03811660009081526002602052604081205460ff1661081257506000919050565b5050600e5490565b6000610824611630565b60005b825181101561087c5761086083828151811061085357634e487b7160e01b600052603260045260246000fd5b60200260200101516108c5565b1561086a57600191505b806108748161221b565b915050610827565b50919050565b61088a611630565b60065442106108c05760405162461bcd60e51b81526020600482015260026024820152616e6f60f01b60448201526064016107dc565b600a55565b60006108cf611630565b6001600160a01b03821660009081526002602052604090205460ff161561095d576001600160a01b038216600081815260026020908152604091829020805460ff1916905590519182527ff1abf01a1043b7c244d128e8595cf0c1d10743b022b03a02dffd8ca3bf729f5a910160405180910390a15060038054600191600061095783612204565b91905055505b919050565b6000600954600b541161097757506000919050565b600061098283611521565b905060006109ad670de0b6b3a76400006109a78460095461168a90919063ffffffff16565b90611696565b6001600160a01b0385166000908152600c6020526040812054919250906109e290612710906109dc90856116a2565b906116a2565b905060006109ef826116ae565b90506109fb82826116cb565b9695505050505050565b610a0d611630565b4260075410610a2e5760405162461bcd60e51b81526004016107dc90612095565b6000600954600b5410610a4357600954610a47565b600b545b90506000610a54826116ae565b6004549091506001600160a01b0316610a7657610a7183826116d7565b505050565b600454610a71906001600160a01b031684836117a0565b610a95611630565b4260075410610ab65760405162461bcd60e51b81526004016107dc90612095565b6000600954600b5410610acb57600954610acf565b600b545b6004549091506001600160a01b0316610af057610aec82826116d7565b5050565b600454610aec906001600160a01b031683836117a0565b610b0f611630565b610b17611803565b565b610b21611630565b6006544210610b575760405162461bcd60e51b81526020600482015260026024820152616e6f60f01b60448201526064016107dc565b600955565b60026000541415610baf5760405162461bcd60e51b815260206004820152601f60248201527f5265656e7472616e637947756172643a207265656e7472616e742063616c6c0060448201526064016107dc565b60026000556008544211610bf85760405162461bcd60e51b815260206004820152601060248201526f6e6f7420686172766573742074696d6560801b60448201526064016107dc565b336000908152600c6020526040902054610c4d5760405162461bcd60e51b81526020600482015260166024820152756861766520796f75207061727469636970617465643f60501b60448201526064016107dc565b336000908152600c602052604090206001015460ff1615610ca55760405162461bcd60e51b81526020600482015260126024820152711b9bdd1a1a5b99c81d1bc81a185c9d995cdd60721b60448201526064016107dc565b610cad611858565b6000610cb83361110a565b90506000610cc533610962565b600554909150610cdf906001600160a01b031633846117a0565b8015610d1b576004546001600160a01b0316610d0457610cff33826116d7565b610d1b565b600454610d1b906001600160a01b031633836117a0565b336000818152600c60209081526040918290206001908101805460ff1916909117905581518581529081018490527f71bab65ced2e5750775a0613be067df48ef06cf92a496ebf7663ae0660924954910160405180910390a250506001600055565b6000600b5460001415610d905750600090565b600954600b5410610da25750600a5490565b610dbf6009546109a7600b54600a5461168a90919063ffffffff16565b905090565b610dcc611dad565b610dd4611dad565b6000806000806000610de4611dad565b6004546001600160a01b0316610e6557604051806080016040528060006001600160a01b03168152602001601281526020016040518060400160405280600b81526020016a25b0b93234b0a1b430b4b760a91b8152508152602001604051806040016040528060038152602001624b414960e81b8152508152509050610e7d565b600454610e7a906001600160a01b03166118a5565b90505b600554600090610e95906001600160a01b03166118a5565b600654600754600854600a54600954969e949d50929b509099509750955091935090915050565b610ec4611630565b6001600160a01b038216610f07576040516001600160a01b038216904780156108fc02916000818181858888f19350505050158015610a71573d6000803e3d6000fd5b6040516370a0823160e01b8152306004820152610aec9082906001600160a01b038516906370a082319060240160206040518083038186803b158015610f4c57600080fd5b505afa158015610f60573d6000803e3d6000fd5b505050506040513d601f19601f82011682018060405250810190610f849190611fae565b6001600160a01b03851691906117a0565b610f9d611630565b4281118015610fad575060085481105b610fc95760405162461bcd60e51b81526004016107dc906120c1565b600755565b610fd6611630565b4260075410610ff75760405162461bcd60e51b81526004016107dc90612095565b6000611001611181565b600554909150610aec906001600160a01b031683836117a0565b611023611630565b610b176000611a37565b611035611630565b4281118015611045575060075481115b6110615760405162461bcd60e51b81526004016107dc906120c1565b600855565b6000611070611630565b6001600160a01b03821660009081526002602052604090205460ff1661095d576001600160a01b038216600081815260026020908152604091829020805460ff1916600117905590519182527fd1bba68c128cc3f427e5831b3c6f99f480b6efa6b9e80c757768f6124158cc3f910160405180910390a1506003805460019160006109578361221b565b611102611630565b610b17611a89565b6000600954600b54111561114d57600061112383611521565b9050611146670de0b6b3a76400006109a783600a5461168a90919063ffffffff16565b9392505050565b600954600a546001600160a01b0384166000908152600c602052604090205461117b92916109a7919061168a565b92915050565b60008061118c610d7d565b600a5490915061119c90826116a2565b91505090565b600260005414156111f55760405162461bcd60e51b815260206004820152601f60248201527f5265656e7472616e637947756172643a207265656e7472616e742063616c6c0060448201526064016107dc565b600260005560065481904211801561120e575060075442105b61124d5760405162461bcd60e51b815260206004820152601060248201526f6e6f742072616973696e672074696d6560801b60448201526064016107dc565b600081116112905760405162461bcd60e51b815260206004820152601060248201526f06e656564205f616d6f756e74203e20360841b60448201526064016107dc565b611298611858565b3360009081526002602052604090205460ff166112e95760405162461bcd60e51b815260206004820152600f60248201526e1b9bdd081dda1a5d195b1a5cdd1959608a1b60448201526064016107dc565b336000908152600c6020526040902054600e54116113415760405162461bcd60e51b81526020600482015260156024820152746e6f7420656c696769626c6520616d6f756e74212160581b60448201526064016107dc565b336000908152600c6020526040812054600e5461135e91906121c1565b9050828082101561136c5750805b6000611377826116ae565b90506000611385828461216a565b6004549091506001600160a01b03166113fc57803410156113dc5760405162461bcd60e51b81526020600482015260116024820152700c2dadeeadce840dcdee840cadcdeeaced607b1b60448201526064016107dc565b803411156113f7576113f7336113f283346121c1565b6116d7565b611414565b600454611414906001600160a01b0316333084611acc565b336000908152600c602052604090205461146b57600d80546001810182556000919091527fd7b6990105719101dabeb77144f2a3385c8033acd3af97e9423a695e81ad1eb50180546001600160a01b031916331790555b336000908152600c602052604090205461148590846116cb565b336000908152600c6020526040902055600b546114a290846116cb565b600b556010546114b290836116cb565b60105560405183815233907fe1fffcc4923d04b559f4d29a8bfc6cda04eb5b0d3c460751c2402c5c5cc9109c9060200160405180910390a25050600160005550505050565b600d818154811061150757600080fd5b6000918252602090912001546001600160a01b0316905081565b600b546001600160a01b0382166000908152600c6020526040812054909161117b916109a790670de0b6b3a764000061168a565b600061155f611630565b60005b825181101561087c5761159b83828151811061158e57634e487b7160e01b600052603260045260246000fd5b6020026020010151611066565b156115a557600191505b806115af8161221b565b915050611562565b6115bf611630565b6001600160a01b0381166116245760405162461bcd60e51b815260206004820152602660248201527f4f776e61626c653a206e6577206f776e657220697320746865207a65726f206160448201526564647265737360d01b60648201526084016107dc565b61162d81611a37565b50565b6001546001600160a01b03163314610b175760405162461bcd60e51b815260206004820181905260248201527f4f776e61626c653a2063616c6c6572206973206e6f7420746865206f776e657260448201526064016107dc565b600061114682846121a2565b60006111468284612182565b600061114682846121c1565b600061117b6127106109a7600f548561168a90919063ffffffff16565b6000611146828461216a565b604080516000808252602082019092526001600160a01b0384169083906040516117019190612066565b60006040518083038185875af1925050503d806000811461173e576040519150601f19603f3d011682016040523d82523d6000602084013e611743565b606091505b5050905080610a715760405162461bcd60e51b815260206004820152602360248201527f5472616e7366657248656c7065723a204b41495f5452414e534645525f46414960448201526213115160ea1b60648201526084016107dc565b6040516001600160a01b038316602482015260448101829052610a7190849063a9059cbb60e01b906064015b60408051601f198184030181529190526020810180516001600160e01b03166001600160e01b031990931692909217909152611b0a565b61180b611bdc565b6001805460ff60a01b191690557f5db9ee0a495bf2e6ff9c91a7834c1ba4fdd244a5e8aa4e537bd38aeae4b073aa335b6040516001600160a01b03909116815260200160405180910390a1565b600154600160a01b900460ff1615610b175760405162461bcd60e51b815260206004820152601060248201526f14185d5cd8589b194e881c185d5cd95960821b60448201526064016107dc565b6118ad611dad565b6040518060800160405280836001600160a01b03168152602001836001600160a01b031663313ce5676040518163ffffffff1660e01b815260040160206040518083038186803b15801561190057600080fd5b505afa158015611914573d6000803e3d6000fd5b505050506040513d601f19601f820116820180604052508101906119389190611fc6565b60ff168152602001836001600160a01b03166306fdde036040518163ffffffff1660e01b815260040160006040518083038186803b15801561197957600080fd5b505afa15801561198d573d6000803e3d6000fd5b505050506040513d6000823e601f3d908101601f191682016040526119b59190810190611f06565b8152602001836001600160a01b03166395d89b416040518163ffffffff1660e01b815260040160006040518083038186803b1580156119f357600080fd5b505afa158015611a07573d6000803e3d6000fd5b505050506040513d6000823e601f3d908101601f19168201604052611a2f9190810190611f06565b905292915050565b600180546001600160a01b038381166001600160a01b0319831681179093556040519116919082907f8be0079c531659141344cd1fd0a4f28419497f9722a3daafe3b4186f6b6457e090600090a35050565b611a91611858565b6001805460ff60a01b1916600160a01b1790557f62e78cea01bee320cd4e420270b5ea74000d11b0c9f74754ebdbfc544b05a25861183b3390565b6040516001600160a01b0380851660248301528316604482015260648101829052611b049085906323b872dd60e01b906084016117cc565b50505050565b6000611b5f826040518060400160405280602081526020017f5361666545524332303a206c6f772d6c6576656c2063616c6c206661696c6564815250856001600160a01b0316611c2c9092919063ffffffff16565b805190915015610a715780806020019051810190611b7d9190611ee6565b610a715760405162461bcd60e51b815260206004820152602a60248201527f5361666545524332303a204552433230206f7065726174696f6e20646964206e6044820152691bdd081cdd58d8d9595960b21b60648201526084016107dc565b600154600160a01b900460ff16610b175760405162461bcd60e51b815260206004820152601460248201527314185d5cd8589b194e881b9bdd081c185d5cd95960621b60448201526064016107dc565b6060611c3b8484600085611c43565b949350505050565b606082471015611ca45760405162461bcd60e51b815260206004820152602660248201527f416464726573733a20696e73756666696369656e742062616c616e636520666f6044820152651c8818d85b1b60d21b60648201526084016107dc565b6001600160a01b0385163b611cfb5760405162461bcd60e51b815260206004820152601d60248201527f416464726573733a2063616c6c20746f206e6f6e2d636f6e747261637400000060448201526064016107dc565b600080866001600160a01b03168587604051611d179190612066565b60006040518083038185875af1925050503d8060008114611d54576040519150601f19603f3d011682016040523d82523d6000602084013e611d59565b606091505b5091509150611d69828286611d74565b979650505050505050565b60608315611d83575081611146565b825115611d935782518084602001fd5b8160405162461bcd60e51b81526004016107dc9190612082565b604051806080016040528060006001600160a01b031681526020016000815260200160608152602001606081525090565b600060208284031215611def578081fd5b813561114681612262565b60008060408385031215611e0c578081fd5b8235611e1781612262565b91506020830135611e2781612262565b809150509250929050565b60006020808385031215611e44578182fd5b823567ffffffffffffffff80821115611e5b578384fd5b818501915085601f830112611e6e578384fd5b813581811115611e8057611e8061224c565b8060051b9150611e91848301612139565b8181528481019084860184860187018a1015611eab578788fd5b8795505b83861015611ed95780359450611ec485612262565b84835260019590950194918601918601611eaf565b5098975050505050505050565b600060208284031215611ef7578081fd5b81518015158114611146578182fd5b600060208284031215611f17578081fd5b815167ffffffffffffffff80821115611f2e578283fd5b818401915084601f830112611f41578283fd5b815181811115611f5357611f5361224c565b611f66601f8201601f1916602001612139565b9150808252856020828501011115611f7c578384fd5b611f8d8160208401602086016121d8565b50949350505050565b600060208284031215611fa7578081fd5b5035919050565b600060208284031215611fbf578081fd5b5051919050565b600060208284031215611fd7578081fd5b815160ff81168114611146578182fd5b60008151808452611fff8160208601602086016121d8565b601f01601f19169290920160200192915050565b60018060a01b0381511682526020810151602083015260006040820151608060408501526120446080850182611fe7565b90506060830151848203606086015261205d8282611fe7565b95945050505050565b600082516120788184602087016121d8565b9190910192915050565b6020815260006111466020830184611fe7565b6020808252601290820152711d1a5b59481a185cc81b9bdd08195b99195960721b604082015260600190565b6020808252600e908201526d74696d6520696e76616c6964212160901b604082015260600190565b60e0815260006120fc60e083018a612013565b828103602084015261210e818a612013565b604084019890985250506060810194909452608084019290925260a083015260c09091015292915050565b604051601f8201601f1916810167ffffffffffffffff811182821017156121625761216261224c565b604052919050565b6000821982111561217d5761217d612236565b500190565b60008261219d57634e487b7160e01b81526012600452602481fd5b500490565b60008160001904831182151516156121bc576121bc612236565b500290565b6000828210156121d3576121d3612236565b500390565b60005b838110156121f35781810151838201526020016121db565b83811115611b045750506000910152565b60008161221357612213612236565b506000190190565b600060001982141561222f5761222f612236565b5060010190565b634e487b7160e01b600052601160045260246000fd5b634e487b7160e01b600052604160045260246000fd5b6001600160a01b038116811461162d57600080fdfea2646970667358221220a6eff79af748ff7fc8509c1fab9c90420d79183c7e96bb727db21d894729f7b164736f6c63430008040033",
  "linkReferences": {},
  "deployedLinkReferences": {}
}