{
  "_format": "hh-sol-artifact-1",
  "contractName": "TransferSwapper",
  "sourceName": "contracts/crosschain-swap/TransferSwapper.sol",
  "abi": [
    {
      "inputs": [
        {
          "internalType": "address",
          "name": "_nativeWrap",
          "type": "address"
        },
        {
          "internalType": "string[]",
          "name": "_funcSigs",
          "type": "string[]"
        },
        {
          "internalType": "address[]",
          "name": "_codecs",
          "type": "address[]"
        },
        {
          "internalType": "address[]",
          "name": "_supportedDexList",
          "type": "address[]"
        },
        {
          "internalType": "string[]",
          "name": "_supportedDexFuncs",
          "type": "string[]"
        }
      ],
      "stateMutability": "nonpayable",
      "type": "constructor"
    },
    {
      "anonymous": false,
      "inputs": [
        {
          "indexed": false,
          "internalType": "bytes4",
          "name": "selector",
          "type": "bytes4"
        },
        {
          "indexed": false,
          "internalType": "address",
          "name": "codec",
          "type": "address"
        }
      ],
      "name": "CodecUpdated",
      "type": "event"
    },
    {
      "anonymous": false,
      "inputs": [
        {
          "indexed": false,
          "internalType": "bytes32",
          "name": "id",
          "type": "bytes32"
        },
        {
          "indexed": false,
          "internalType": "uint256",
          "name": "amountIn",
          "type": "uint256"
        },
        {
          "indexed": false,
          "internalType": "address",
          "name": "tokenIn",
          "type": "address"
        },
        {
          "indexed": false,
          "internalType": "uint256",
          "name": "amountOut",
          "type": "uint256"
        },
        {
          "indexed": false,
          "internalType": "address",
          "name": "tokenOut",
          "type": "address"
        }
      ],
      "name": "DirectSwap",
      "type": "event"
    },
    {
      "anonymous": false,
      "inputs": [
        {
          "indexed": true,
          "internalType": "address",
          "name": "previousOwner",
          "type": "address"
        },
        {
          "indexed": true,
          "internalType": "address",
          "name": "newOwner",
          "type": "address"
        }
      ],
      "name": "OwnershipTransferred",
      "type": "event"
    },
    {
      "anonymous": false,
      "inputs": [
        {
          "indexed": false,
          "internalType": "bytes32",
          "name": "id",
          "type": "bytes32"
        },
        {
          "indexed": false,
          "internalType": "bytes",
          "name": "bridgeResp",
          "type": "bytes"
        },
        {
          "indexed": false,
          "internalType": "uint64",
          "name": "dstChainId",
          "type": "uint64"
        },
        {
          "indexed": false,
          "internalType": "uint256",
          "name": "srcAmount",
          "type": "uint256"
        },
        {
          "indexed": false,
          "internalType": "address",
          "name": "srcToken",
          "type": "address"
        },
        {
          "indexed": false,
          "internalType": "address",
          "name": "dstToken",
          "type": "address"
        },
        {
          "indexed": false,
          "internalType": "address",
          "name": "bridgeOutReceiver",
          "type": "address"
        },
        {
          "indexed": false,
          "internalType": "address",
          "name": "bridgeToken",
          "type": "address"
        },
        {
          "indexed": false,
          "internalType": "uint256",
          "name": "bridgeAmount",
          "type": "uint256"
        },
        {
          "indexed": false,
          "internalType": "string",
          "name": "bridgeProvider",
          "type": "string"
        }
      ],
      "name": "RequestSent",
      "type": "event"
    },
    {
      "anonymous": false,
      "inputs": [
        {
          "indexed": false,
          "internalType": "string[]",
          "name": "_bridgeProviders",
          "type": "string[]"
        },
        {
          "indexed": false,
          "internalType": "address[]",
          "name": "_bridgeAdapters",
          "type": "address[]"
        }
      ],
      "name": "SupportedBridgesUpdated",
      "type": "event"
    },
    {
      "anonymous": false,
      "inputs": [
        {
          "indexed": false,
          "internalType": "address",
          "name": "dex",
          "type": "address"
        },
        {
          "indexed": false,
          "internalType": "bytes4",
          "name": "selector",
          "type": "bytes4"
        },
        {
          "indexed": false,
          "internalType": "bool",
          "name": "enabled",
          "type": "bool"
        }
      ],
      "name": "SupportedDexUpdated",
      "type": "event"
    },
    {
      "inputs": [],
      "name": "MULTICHAIN_PROVIDER_HASH",
      "outputs": [
        {
          "internalType": "bytes32",
          "name": "",
          "type": "bytes32"
        }
      ],
      "stateMutability": "view",
      "type": "function"
    },
    {
      "inputs": [
        {
          "internalType": "bytes32",
          "name": "",
          "type": "bytes32"
        }
      ],
      "name": "bridges",
      "outputs": [
        {
          "internalType": "contract IBridgeAdapter",
          "name": "",
          "type": "address"
        }
      ],
      "stateMutability": "view",
      "type": "function"
    },
    {
      "inputs": [
        {
          "internalType": "uint256",
          "name": "",
          "type": "uint256"
        }
      ],
      "name": "codecs",
      "outputs": [
        {
          "internalType": "address",
          "name": "",
          "type": "address"
        }
      ],
      "stateMutability": "view",
      "type": "function"
    },
    {
      "inputs": [
        {
          "internalType": "address",
          "name": "",
          "type": "address"
        },
        {
          "internalType": "bytes4",
          "name": "",
          "type": "bytes4"
        }
      ],
      "name": "dexRegistry",
      "outputs": [
        {
          "internalType": "bool",
          "name": "",
          "type": "bool"
        }
      ],
      "stateMutability": "view",
      "type": "function"
    },
    {
      "inputs": [],
      "name": "nativeWrap",
      "outputs": [
        {
          "internalType": "address",
          "name": "",
          "type": "address"
        }
      ],
      "stateMutability": "view",
      "type": "function"
    },
    {
      "inputs": [],
      "name": "owner",
      "outputs": [
        {
          "internalType": "address",
          "name": "",
          "type": "address"
        }
      ],
      "stateMutability": "view",
      "type": "function"
    },
    {
      "inputs": [],
      "name": "renounceOwnership",
      "outputs": [],
      "stateMutability": "nonpayable",
      "type": "function"
    },
    {
      "inputs": [
        {
          "internalType": "bytes4",
          "name": "",
          "type": "bytes4"
        }
      ],
      "name": "selector2codec",
      "outputs": [
        {
          "internalType": "contract ICodec",
          "name": "",
          "type": "address"
        }
      ],
      "stateMutability": "view",
      "type": "function"
    },
    {
      "inputs": [
        {
          "internalType": "string",
          "name": "_funcSig",
          "type": "string"
        },
        {
          "internalType": "address",
          "name": "_codec",
          "type": "address"
        }
      ],
      "name": "setCodec",
      "outputs": [],
      "stateMutability": "nonpayable",
      "type": "function"
    },
    {
      "inputs": [
        {
          "internalType": "string[]",
          "name": "_bridgeProviders",
          "type": "string[]"
        },
        {
          "internalType": "address[]",
          "name": "_bridgeAdapters",
          "type": "address[]"
        }
      ],
      "name": "setSupportedBridges",
      "outputs": [],
      "stateMutability": "nonpayable",
      "type": "function"
    },
    {
      "inputs": [
        {
          "internalType": "address",
          "name": "_dex",
          "type": "address"
        },
        {
          "internalType": "bytes4",
          "name": "_selector",
          "type": "bytes4"
        },
        {
          "internalType": "bool",
          "name": "_enabled",
          "type": "bool"
        }
      ],
      "name": "setSupportedDex",
      "outputs": [],
      "stateMutability": "nonpayable",
      "type": "function"
    },
    {
      "inputs": [
        {
          "internalType": "address",
          "name": "newOwner",
          "type": "address"
        }
      ],
      "name": "transferOwnership",
      "outputs": [],
      "stateMutability": "nonpayable",
      "type": "function"
    },
    {
      "inputs": [
        {
          "components": [
            {
              "internalType": "address",
              "name": "receiver",
              "type": "address"
            },
            {
              "internalType": "uint64",
              "name": "dstChainId",
              "type": "uint64"
            },
            {
              "internalType": "address",
              "name": "dstTransferSwapper",
              "type": "address"
            },
            {
              "internalType": "uint64",
              "name": "nonce",
              "type": "uint64"
            },
            {
              "internalType": "string",
              "name": "bridgeProvider",
              "type": "string"
            },
            {
              "internalType": "bytes",
              "name": "bridgeParams",
              "type": "bytes"
            },
            {
              "internalType": "bool",
              "name": "nativeIn",
              "type": "bool"
            },
            {
              "internalType": "bool",
              "name": "nativeOut",
              "type": "bool"
            },
            {
              "internalType": "uint256",
              "name": "amountIn",
              "type": "uint256"
            },
            {
              "internalType": "address",
              "name": "tokenIn",
              "type": "address"
            },
            {
              "internalType": "address",
              "name": "dstTokenOut",
              "type": "address"
            },
            {
              "internalType": "bool",
              "name": "allowPartialFill",
              "type": "bool"
            }
          ],
          "internalType": "struct Types.TransferDescription",
          "name": "_desc",
          "type": "tuple"
        },
        {
          "components": [
            {
              "internalType": "address",
              "name": "dex",
              "type": "address"
            },
            {
              "internalType": "bytes",
              "name": "data",
              "type": "bytes"
            }
          ],
          "internalType": "struct ICodec.SwapDescription[]",
          "name": "_srcSwaps",
          "type": "tuple[]"
        },
        {
          "components": [
            {
              "internalType": "address",
              "name": "dex",
              "type": "address"
            },
            {
              "internalType": "bytes",
              "name": "data",
              "type": "bytes"
            }
          ],
          "internalType": "struct ICodec.SwapDescription[]",
          "name": "_dstSwaps",
          "type": "tuple[]"
        }
      ],
      "name": "transferWithSwap",
      "outputs": [],
      "stateMutability": "payable",
      "type": "function"
    }
  ],
  "bytecode": "0x60a06040523480156200001157600080fd5b5060405162002ee538038062002ee583398101604081905262000034916200054e565b600160005583838383818185856200004c336200022c565b80518251146200008c5760405162461bcd60e51b81526020600482015260066024820152656c656e206d6d60d01b60448201526064015b60405180910390fd5b60005b82518110156200011d576000838281518110620000bc57634e487b7160e01b600052603260045260246000fd5b60200260200101518051906020012090506200010781848481518110620000f357634e487b7160e01b600052603260045260246000fd5b60200260200101516200027e60201b60201c565b508062000114816200066f565b9150506200008f565b50505060005b8251811015620001b35760008282815181106200015057634e487b7160e01b600052603260045260246000fd5b60200260200101518051906020012090506200019d8483815181106200018657634e487b7160e01b600052603260045260246000fd5b6020026020010151826001620002f060201b60201c565b5080620001aa816200066f565b91505062000123565b5050600680546001600160a01b0319166001600160a01b039b909b169a909a17909955505060408051808201909152600a81526936bab63a34b1b430b4b760b11b60209091015250507fb014aac5b0d6328e584ecc632bc05bad2f720d727ce213821a987cb58870364060805250620006ad9350505050565b600180546001600160a01b038381166001600160a01b0319831681179093556040519116919082907f8be0079c531659141344cd1fd0a4f28419497f9722a3daafe3b4186f6b6457e090600090a35050565b6001600160e01b0319909116600090815260036020526040812080546001600160a01b039093166001600160a01b031993841681179091556004805460018101825592527f8a35acfbc15ff81a39ae7d344fd709f28e8600b4aa8c65c6b64bfe7fe36bd19b9091018054909216179055565b6001600160a01b03831660009081526005602090815260408083206001600160e01b03198616845290915290205460ff1680151582151514156200035d5760405162461bcd60e51b815260206004820152600360248201526206e6f760ec1b604482015260640162000083565b506001600160a01b0390921660009081526005602090815260408083206001600160e01b0319909416835292905220805491151560ff19909216919091179055565b80516001600160a01b0381168114620003b757600080fd5b919050565b600082601f830112620003cd578081fd5b81516020620003e6620003e08362000649565b62000616565b80838252828201915082860187848660051b890101111562000406578586fd5b855b858110156200042f576200041c826200039f565b8452928401929084019060010162000408565b5090979650505050505050565b6000601f83818401126200044e578182fd5b8251602062000461620003e08362000649565b80838252828201915082870188848660051b8a0101111562000481578687fd5b865b85811015620005405781516001600160401b0380821115620004a357898afd5b818b0191508b603f830112620004b757898afd5b8682015181811115620004ce57620004ce62000697565b620004e1818b01601f1916890162000616565b915080825260408d81838601011115620004f9578b8cfd5b8b5b8281101562000518578481018201518482018b01528901620004fb565b8281111562000529578c8a84860101525b505050855250928401929084019060010162000483565b509098975050505050505050565b600080600080600060a0868803121562000566578081fd5b62000571866200039f565b60208701519095506001600160401b03808211156200058e578283fd5b6200059c89838a016200043c565b95506040880151915080821115620005b2578283fd5b620005c089838a01620003bc565b94506060880151915080821115620005d6578283fd5b620005e489838a01620003bc565b93506080880151915080821115620005fa578283fd5b5062000609888289016200043c565b9150509295509295909350565b604051601f8201601f191681016001600160401b038111828210171562000641576200064162000697565b604052919050565b60006001600160401b0382111562000665576200066562000697565b5060051b60200190565b60006000198214156200069057634e487b7160e01b81526011600452602481fd5b5060010190565b634e487b7160e01b600052604160045260246000fd5b608051612816620006cf6000396000818160d9015261082901526128166000f3fe6080604052600436106100c25760003560e01c8063918ead761161007f578063eeaaa65111610059578063eeaaa65114610246578063f2fde38b1461027c578063fab1268d1461029c578063fbf5d763146102af57600080fd5b8063918ead76146101bb57806391ec04b5146101db578063c5bccca31461022657600080fd5b806327eaae80146100c7578063457bfa2f1461010e578063675df75914610146578063715018a61461016857806382665a8f1461017d5780638da5cb5b1461019d575b600080fd5b3480156100d357600080fd5b506100fb7f000000000000000000000000000000000000000000000000000000000000000081565b6040519081526020015b60405180910390f35b34801561011a57600080fd5b5060065461012e906001600160a01b031681565b6040516001600160a01b039091168152602001610105565b34801561015257600080fd5b50610166610161366004611d9c565b6102e5565b005b34801561017457600080fd5b5061016661037b565b34801561018957600080fd5b5061012e610198366004611e84565b6103b1565b3480156101a957600080fd5b506001546001600160a01b031661012e565b3480156101c757600080fd5b506101666101d6366004611de4565b6103db565b3480156101e757600080fd5b506102166101f6366004611d68565b600560209081526000928352604080842090915290825290205460ff1681565b6040519015158152602001610105565b34801561023257600080fd5b50610166610241366004611f28565b610560565b34801561025257600080fd5b5061012e610261366004611e84565b6002602052600090815260409020546001600160a01b031681565b34801561028857600080fd5b50610166610297366004611d4c565b610665565b6101666102aa366004611f9a565b610700565b3480156102bb57600080fd5b5061012e6102ca366004611e9c565b6003602052600090815260409020546001600160a01b031681565b6001546001600160a01b031633146103185760405162461bcd60e51b815260040161030f906122ff565b60405180910390fd5b610323838383610ae8565b604080516001600160a01b03851681526001600160e01b0319841660208201528215158183015290517f5e20184b00709d9f103306958e9fb9d509f78bec1829ca7080f2c43eb2ff21a89181900360600190a1505050565b6001546001600160a01b031633146103a55760405162461bcd60e51b815260040161030f906122ff565b6103af6000610b7f565b565b600481815481106103c157600080fd5b6000918252602090912001546001600160a01b0316905081565b6001546001600160a01b031633146104055760405162461bcd60e51b815260040161030f906122ff565b82811461044b5760405162461bcd60e51b81526020600482015260146024820152730e0c2e4c2dae640e6d2f4ca40dad2e6dac2e8c6d60631b604482015260640161030f565b60005b8381101561051c5782828281811061047657634e487b7160e01b600052603260045260246000fd5b905060200201602081019061048b9190611d4c565b600260008787858181106104af57634e487b7160e01b600052603260045260246000fd5b90506020028101906104c1919061246a565b6040516104cf929190612167565b6040518091039020815260200190815260200160002060006101000a8154816001600160a01b0302191690836001600160a01b03160217905550808061051490612776565b91505061044e565b507f68d2b5e14eb61b73f2dfa46a255dcba81a3b53259093a83c90da69c3ade70b96848484846040516105529493929190612193565b60405180910390a150505050565b6001546001600160a01b0316331461058a5760405162461bcd60e51b815260040161030f906122ff565b6000838360405161059c929190612167565b6040518091039020905061061d81836001600160e01b0319909116600090815260036020526040812080546001600160a01b039093166001600160a01b031993841681179091556004805460018101825592527f8a35acfbc15ff81a39ae7d344fd709f28e8600b4aa8c65c6b64bfe7fe36bd19b9091018054909216179055565b604080516001600160e01b0319831681526001600160a01b03841660208201527f58ddcdb40971f55ad1b6a8a28067274a4ffc7e9d77c3ea14a17652faa705e1979101610552565b6001546001600160a01b0316331461068f5760405162461bcd60e51b815260040161030f906122ff565b6001600160a01b0381166106f45760405162461bcd60e51b815260206004820152602660248201527f4f776e61626c653a206e6577206f776e657220697320746865207a65726f206160448201526564647265737360d01b606482015260840161030f565b6106fd81610b7f565b50565b600260005414156107535760405162461bcd60e51b815260206004820152601f60248201527f5265656e7472616e637947756172643a207265656e7472616e742063616c6c00604482015260640161030f565b60026000558215158061078757506001600160401b03461661077b6040870160208801612081565b6001600160401b031614155b6107a35760405162461bcd60e51b815260040161030f90612334565b821515806107db5750610100850135158015906107db575060006107cf61014087016101208801611d4c565b6001600160a01b031614155b6107f75760405162461bcd60e51b815260040161030f90612334565b6000610806608087018761246a565b604051610814929190612167565b604051908190039020905081158061084b57507f000000000000000000000000000000000000000000000000000000000000000081145b6108975760405162461bcd60e51b815260206004820152601b60248201527f62726964676520646f6573206e6f7420737570706f7274206d73670000000000604482015260640161030f565b600081815260026020908152604091829020546001600160a01b0316916001600160401b034616916108cd918a01908a01612081565b6001600160401b031614806108ea57506001600160a01b03811615155b61092b5760405162461bcd60e51b8152602060048201526012602482015271756e737570706f727465642062726964676560701b604482015260640161030f565b610100870135606060006109476101408b016101208c01611d4c565b9050600061095d6101408c016101208d01611d4c565b90508815610982576109776109728a8c61255d565b610bd1565b929650919450925090505b61099260e08c0160c08d01611e4c565b15610a95576006546001600160a01b038381169116146109e95760405162461bcd60e51b81526020600482015260126024820152710746b696e206e6f206e6174697665577261760741b604482015260640161030f565b83341015610a275760405162461bcd60e51b815260206004820152600b60248201526a1a5b9cd998db9d08185b5d60aa1b604482015260640161030f565b600660009054906101000a90046001600160a01b03166001600160a01b031663d0e30db0856040518263ffffffff1660e01b81526004016000604051808303818588803b158015610a7757600080fd5b505af1158015610a8b573d6000803e3d6000fd5b5050505050610aaa565b610aaa6001600160a01b038316333087610ea6565b610ad6828286610ab98f612639565b8e8e90610ac6919061255d565b610ad08d8f61255d565b89610f17565b50506001600055505050505050505050565b6001600160a01b03831660009081526005602090815260408083206001600160e01b03198616845290915290205460ff168015158215151415610b3d5760405162461bcd60e51b815260040161030f90612334565b506001600160a01b0390921660009081526005602090815260408083206001600160e01b0319909416835292905220805491151560ff19909216919091179055565b600180546001600160a01b038381166001600160a01b0319831681179093556040519116919082907f8be0079c531659141344cd1fd0a4f28419497f9722a3daafe3b4186f6b6457e090600090a35050565b60008060006060600080610be487611091565b925060005b8751811015610e9c5760056000898381518110610c1657634e487b7160e01b600052603260045260246000fd5b6020026020010151600001516001600160a01b03166001600160a01b031681526020019081526020016000206000610c788a8481518110610c6757634e487b7160e01b600052603260045260246000fd5b602002602001015160200151611215565b6001600160e01b031916815260208101919091526040016000205460ff16610cd45760405162461bcd60e51b815260206004820152600f60248201526e0eadce6eae0e0dee4e8cac840c8caf608b1b604482015260640161030f565b6000806000868481518110610cf957634e487b7160e01b600052603260045260246000fd5b60200260200101516001600160a01b031663358f0e1c8c8681518110610d2f57634e487b7160e01b600052603260045260246000fd5b60200260200101516040518263ffffffff1660e01b8152600401610d5391906123f6565b60606040518083038186803b158015610d6b57600080fd5b505afa158015610d7f573d6000803e3d6000fd5b505050506040513d601f19601f82011682018060405250810190610da3919061204a565b919450925090506001600160a01b0386161580610dd15750816001600160a01b0316866001600160a01b0316145b610e0d5760405162461bcd60e51b815260206004820152600d60248201526c0e8d6d2dc40dad2e6dac2e8c6d609b1b604482015260640161030f565b90945084906001600160a01b0385161580610e395750806001600160a01b0316856001600160a01b0316145b610e745760405162461bcd60e51b815260206004820152600c60248201526b0e8d6de40dad2e6dac2e8c6d60a31b604482015260640161030f565b935083610e81838b61252e565b99509097509550819050610e9481612776565b915050610be9565b5050509193509193565b6040516001600160a01b0380851660248301528316604482015260648101829052610f119085906323b872dd60e01b906084015b60408051601f198184030181529190526020810180516001600160e01b03166001600160e01b031990931692909217909152611231565b50505050565b8251859015610f6b576000610f2c8584611308565b9250905080610f695760405162461bcd60e51b81526020600482015260096024820152681cddd85c0819985a5b60ba1b604482015260640161030f565b505b6000610fe4866000015187606001516040516bffffffffffffffffffffffff1933606090811b8216602084015284901b1660348201526001600160c01b03194660c090811b8216604884015283901b16605082015260009060580160405160208183030381529060405280519060200120905092915050565b9050466001600160401b031686602001516001600160401b0316141561107657611018888388600001518960e001516116d8565b60408051828152602081018990526001600160a01b038b811682840152606082018590528a16608082015290517f0e248ac8be20725176a5f0ab093c5fbb964634d4675012f3d3ad66e69e56d5b79181900360a00190a15050611088565b611085818a8a89888c88611836565b50505b50505050505050565b6060600082516001600160401b038111156110bc57634e487b7160e01b600052604160045260246000fd5b6040519080825280602002602001820160405280156110e5578160200160208202803683370190505b50905060005b835181101561120e576000611119858381518110610c6757634e487b7160e01b600052603260045260246000fd5b6001600160e01b0319811660009081526003602052604090205484519192506001600160a01b03169084908490811061116257634e487b7160e01b600052603260045260246000fd5b60200260200101906001600160a01b031690816001600160a01b03168152505060006001600160a01b03168383815181106111ad57634e487b7160e01b600052603260045260246000fd5b60200260200101516001600160a01b031614156111fb5760405162461bcd60e51b815260206004820152600c60248201526b18d918c81b9bc8199bdd5b9960a21b604482015260640161030f565b508061120681612776565b9150506110eb565b5092915050565b600081516000141561122957506000919050565b506020015190565b6000611286826040518060400160405280602081526020017f5361666545524332303a206c6f772d6c6576656c2063616c6c206661696c6564815250856001600160a01b03166119909092919063ffffffff16565b80519091501561130357808060200190518101906112a49190611e68565b6113035760405162461bcd60e51b815260206004820152602a60248201527f5361666545524332303a204552433230206f7065726174696f6e20646964206e6044820152691bdd081cdd58d8d9595960b21b606482015260840161030f565b505050565b60008060005b84518110156116cf57600080600086848151811061133c57634e487b7160e01b600052603260045260246000fd5b60200260200101516001600160a01b031663358f0e1c89868151811061137257634e487b7160e01b600052603260045260246000fd5b60200260200101516040518263ffffffff1660e01b815260040161139691906123f6565b60606040518083038186803b1580156113ae57600080fd5b505afa1580156113c2573d6000803e3d6000fd5b505050506040513d601f19601f820116820180604052508101906113e6919061204a565b925092509250600087858151811061140e57634e487b7160e01b600052603260045260246000fd5b60200260200101516001600160a01b0316634c6da2698a878151811061144457634e487b7160e01b600052603260045260246000fd5b60200260200101516020015186306040518463ffffffff1660e01b8152600401611470939291906122b9565b60006040518083038186803b15801561148857600080fd5b505afa15801561149c573d6000803e3d6000fd5b505050506040513d6000823e601f3d908101601f191682016040526114c49190810190611eb6565b90506115068986815181106114e957634e487b7160e01b600052603260045260246000fd5b6020908102919091010151516001600160a01b03851690866119a9565b6040516370a0823160e01b81523060048201526000906001600160a01b038416906370a082319060240160206040518083038186803b15801561154857600080fd5b505afa15801561155c573d6000803e3d6000fd5b505050506040513d601f19601f820116820180604052508101906115809190612032565b90508986815181106115a257634e487b7160e01b600052603260045260246000fd5b6020026020010151600001516001600160a01b0316826040516115c59190612177565b6000604051808303816000865af19150503d8060008114611602576040519150601f19603f3d011682016040523d82523d6000602084013e611607565b606091505b5050809850508761162457600080975097505050505050506116d1565b6040516370a0823160e01b81523060048201526000906001600160a01b038516906370a082319060240160206040518083038186803b15801561166657600080fd5b505afa15801561167a573d6000803e3d6000fd5b505050506040513d601f19601f8201168201806040525081019061169e9190612032565b90506116aa8282612546565b6116b4908961252e565b975050505050505080806116c790612776565b91505061130e565b505b9250929050565b8015611822576006546001600160a01b0385811691161461172a5760405162461bcd60e51b815260206004820152600c60248201526b746b206e6f206e617469766560a01b604482015260640161030f565b600654604051632e1a7d4d60e01b8152600481018590526001600160a01b0390911690632e1a7d4d90602401600060405180830381600087803b15801561177057600080fd5b505af1158015611784573d6000803e3d6000fd5b505050506000826001600160a01b03168461c35090604051600060405180830381858888f193505050503d80600081146117da576040519150601f19603f3d011682016040523d82523d6000602084013e6117df565b606091505b505090508061181c5760405162461bcd60e51b81526020600482015260096024820152681cd95b990819985a5b60ba1b604482015260640161030f565b50610f11565b610f116001600160a01b0385168385611a6a565b60008084511161184757845161184d565b84604001515b608086015180516020918201206000908152600290915260409020549091506060906001600160a01b039081169061188890891682866119a9565b60006118958b8989611a9a565b9050816001600160a01b031663834bc3ea896020015186888d8d60a00151876040518763ffffffff1660e01b81526004016118d596959493929190612409565b600060405180830381600087803b1580156118ef57600080fd5b505af1158015611903573d6000803e3d6000fd5b505050506040513d6000823e601f3d908101601f1916820160405261192b9190810190611eb6565b925050507f082e2f634ceec1af5105aa53f234b7efad94428a54a714e3b7c7115ee549308089828860200151878c8b6101400151888e8b8f6080015160405161197d9a99989796959493929190612234565b60405180910390a1505050505050505050565b606061199f8484600085611b05565b90505b9392505050565b604051636eb1769f60e11b81523060048201526001600160a01b038381166024830152600091839186169063dd62ed3e9060440160206040518083038186803b1580156119f557600080fd5b505afa158015611a09573d6000803e3d6000fd5b505050506040513d601f19601f82011682018060405250810190611a2d9190612032565b611a37919061252e565b6040516001600160a01b038516602482015260448101829052909150610f1190859063095ea7b360e01b90606401610eda565b6040516001600160a01b03831660248201526044810182905261130390849063a9059cbb60e01b90606401610eda565b60606040518060a0016040528085815260200183815260200184600001516001600160a01b031681526020018460e00151151581526020018461016001511515815250604051602001611aed9190612351565b60405160208183030381529060405290509392505050565b606082471015611b665760405162461bcd60e51b815260206004820152602660248201527f416464726573733a20696e73756666696369656e742062616c616e636520666f6044820152651c8818d85b1b60d21b606482015260840161030f565b6001600160a01b0385163b611bbd5760405162461bcd60e51b815260206004820152601d60248201527f416464726573733a2063616c6c20746f206e6f6e2d636f6e7472616374000000604482015260640161030f565b600080866001600160a01b03168587604051611bd99190612177565b60006040518083038185875af1925050503d8060008114611c16576040519150601f19603f3d011682016040523d82523d6000602084013e611c1b565b606091505b5091509150611c2b828286611c36565b979650505050505050565b60608315611c455750816119a2565b825115611c555782518084602001fd5b8160405162461bcd60e51b815260040161030f91906122ec565b8035611c7a816127bd565b919050565b60008083601f840112611c90578182fd5b5081356001600160401b03811115611ca6578182fd5b6020830191508360208260051b85010111156116d157600080fd5b8035611c7a816127d2565b80356001600160e01b031981168114611c7a57600080fd5b600082601f830112611cf4578081fd5b8135611d07611d0282612507565b6124d7565b818152846020838601011115611d1b578283fd5b816020850160208301379081016020019190915292915050565b80356001600160401b0381168114611c7a57600080fd5b600060208284031215611d5d578081fd5b81356119a2816127bd565b60008060408385031215611d7a578081fd5b8235611d85816127bd565b9150611d9360208401611ccc565b90509250929050565b600080600060608486031215611db0578081fd5b8335611dbb816127bd565b9250611dc960208501611ccc565b91506040840135611dd9816127d2565b809150509250925092565b60008060008060408587031215611df9578182fd5b84356001600160401b0380821115611e0f578384fd5b611e1b88838901611c7f565b90965094506020870135915080821115611e33578384fd5b50611e4087828801611c7f565b95989497509550505050565b600060208284031215611e5d578081fd5b81356119a2816127d2565b600060208284031215611e79578081fd5b81516119a2816127d2565b600060208284031215611e95578081fd5b5035919050565b600060208284031215611ead578081fd5b6119a282611ccc565b600060208284031215611ec7578081fd5b81516001600160401b03811115611edc578182fd5b8201601f81018413611eec578182fd5b8051611efa611d0282612507565b818152856020838501011115611f0e578384fd5b611f1f82602083016020860161274a565b95945050505050565b600080600060408486031215611f3c578081fd5b83356001600160401b0380821115611f52578283fd5b818601915086601f830112611f65578283fd5b813581811115611f73578384fd5b876020828501011115611f84578384fd5b60209283019550935050840135611dd9816127bd565b600080600080600060608688031215611fb1578283fd5b85356001600160401b0380821115611fc7578485fd5b90870190610180828a031215611fdb578485fd5b90955060208701359080821115611ff0578485fd5b611ffc89838a01611c7f565b90965094506040880135915080821115612014578283fd5b5061202188828901611c7f565b969995985093965092949392505050565b600060208284031215612043578081fd5b5051919050565b60008060006060848603121561205e578081fd5b835192506020840151612070816127bd565b6040850151909250611dd9816127bd565b600060208284031215612092578081fd5b6119a282611d35565b81835260006020808501945082825b858110156120d85781356120bd816127bd565b6001600160a01b0316875295820195908201906001016120aa565b509495945050505050565b600081518084526120fb81602086016020860161274a565b601f01601f19169290920160200192915050565b81835281816020850137506000828201602090810191909152601f909101601f19169091010190565b60018060a01b038151168252600060208201516040602085015261215f60408501826120e3565b949350505050565b8183823760009101908152919050565b6000825161218981846020870161274a565b9190910192915050565b6040808252810184905260006060600586901b8301810190830187835b8881101561221e57858403605f190183528135368b9003601e190181126121d5578586fd5b8a01803560206001600160401b038211156121ee578788fd5b8136038d13156121fc578788fd5b612209878383860161210f565b965094850194939093019250506001016121b0565b5050508281036020840152611c2b81858761209b565b60006101408c835280602084015261224e8184018d6120e3565b6001600160401b038c166040850152606084018b90526001600160a01b038a8116608086015289811660a086015288811660c0860152871660e0850152610100840186905283810361012085015290506122a881856120e3565b9d9c50505050505050505050505050565b6060815260006122cc60608301866120e3565b6020830194909452506001600160a01b0391909116604090910152919050565b6020815260006119a260208301846120e3565b6020808252818101527f4f776e61626c653a2063616c6c6572206973206e6f7420746865206f776e6572604082015260600190565b60208082526003908201526206e6f760ec1b604082015260600190565b6000602080835260c083018451828501528185015160a0604086015281815180845260e08701915060e08160051b88010193508483019250855b818110156123b95760df198886030183526123a7858551612138565b9450928501929185019160010161238b565b5050505060408501516001600160a01b03811660608601529150606085015180151560808601529150608085015180151560a0860152915061215f565b6020815260006119a26020830184612138565b6001600160401b03871681526001600160a01b038681166020830152604082018690528416606082015260c06080820181905260009061244b908301856120e3565b82810360a084015261245d81856120e3565b9998505050505050505050565b6000808335601e19843603018112612480578283fd5b8301803591506001600160401b03821115612499578283fd5b6020019150368190038213156116d157600080fd5b60405161018081016001600160401b03811182821017156124d1576124d16127a7565b60405290565b604051601f8201601f191681016001600160401b03811182821017156124ff576124ff6127a7565b604052919050565b60006001600160401b03821115612520576125206127a7565b50601f01601f191660200190565b6000821982111561254157612541612791565b500190565b60008282101561255857612558612791565b500390565b60006001600160401b0380841115612577576125776127a7565b8360051b60206125888183016124d7565b868152818101908636858201111561259e578687fd5b8694505b8885101561262d578035868111156125b8578788fd5b88016040368290038113156125cb578889fd5b80518181018181108a821117156125e4576125e46127a7565b9091528135906125f3826127bd565b90815281860135908882111561260757898afd5b61261336838501611ce4565b8188015285525050600194909401939183019183016125a2565b50979650505050505050565b6000610180823603121561264b578081fd5b6126536124ae565b61265c83611c6f565b815261266a60208401611d35565b602082015261267b60408401611c6f565b604082015261268c60608401611d35565b606082015260808301356001600160401b03808211156126aa578384fd5b6126b636838701611ce4565b608084015260a08501359150808211156126ce578384fd5b506126db36828601611ce4565b60a0830152506126ed60c08401611cc1565b60c08201526126fe60e08401611cc1565b60e0820152610100838101359082015261012061271c818501611c6f565b9082015261014061272e848201611c6f565b90820152610160612740848201611cc1565b9082015292915050565b60005b8381101561276557818101518382015260200161274d565b83811115610f115750506000910152565b600060001982141561278a5761278a612791565b5060010190565b634e487b7160e01b600052601160045260246000fd5b634e487b7160e01b600052604160045260246000fd5b6001600160a01b03811681146106fd57600080fd5b80151581146106fd57600080fdfea2646970667358221220c923945b7e0430ed09e47d97e3f4170c9e28db9a39a2785f41bd32aabe045e0564736f6c63430008040033",
  "linkReferences": {},
  "deployedLinkReferences": {}
}