{
  "_format": "hh-sol-artifact-1",
  "contractName": "TransferSwapper",
  "sourceName": "contracts/crosschain-swap/TransferSwapper.sol",
  "abi": [
    {
      "inputs": [
        {
          "internalType": "address",
          "name": "_nativeWrap",
          "type": "address"
        },
        {
          "internalType": "string[]",
          "name": "_funcSigs",
          "type": "string[]"
        },
        {
          "internalType": "address[]",
          "name": "_codecs",
          "type": "address[]"
        },
        {
          "internalType": "address[]",
          "name": "_supportedDexList",
          "type": "address[]"
        },
        {
          "internalType": "string[]",
          "name": "_supportedDexFuncs",
          "type": "string[]"
        }
      ],
      "stateMutability": "nonpayable",
      "type": "constructor"
    },
    {
      "anonymous": false,
      "inputs": [
        {
          "indexed": false,
          "internalType": "bytes4",
          "name": "selector",
          "type": "bytes4"
        },
        {
          "indexed": false,
          "internalType": "address",
          "name": "codec",
          "type": "address"
        }
      ],
      "name": "CodecUpdated",
      "type": "event"
    },
    {
      "anonymous": false,
      "inputs": [
        {
          "indexed": false,
          "internalType": "bytes32",
          "name": "id",
          "type": "bytes32"
        },
        {
          "indexed": false,
          "internalType": "uint256",
          "name": "amountIn",
          "type": "uint256"
        },
        {
          "indexed": false,
          "internalType": "address",
          "name": "tokenIn",
          "type": "address"
        },
        {
          "indexed": false,
          "internalType": "uint256",
          "name": "amountOut",
          "type": "uint256"
        },
        {
          "indexed": false,
          "internalType": "address",
          "name": "tokenOut",
          "type": "address"
        }
      ],
      "name": "DirectSwap",
      "type": "event"
    },
    {
      "anonymous": false,
      "inputs": [
        {
          "indexed": false,
          "internalType": "address",
          "name": "dex",
          "type": "address"
        },
        {
          "indexed": false,
          "internalType": "bool",
          "name": "enabled",
          "type": "bool"
        }
      ],
      "name": "ExternalSwapUpdated",
      "type": "event"
    },
    {
      "anonymous": false,
      "inputs": [
        {
          "indexed": true,
          "internalType": "address",
          "name": "previousOwner",
          "type": "address"
        },
        {
          "indexed": true,
          "internalType": "address",
          "name": "newOwner",
          "type": "address"
        }
      ],
      "name": "OwnershipTransferred",
      "type": "event"
    },
    {
      "anonymous": false,
      "inputs": [
        {
          "indexed": false,
          "internalType": "bytes32",
          "name": "id",
          "type": "bytes32"
        },
        {
          "indexed": false,
          "internalType": "bytes",
          "name": "bridgeResp",
          "type": "bytes"
        },
        {
          "indexed": false,
          "internalType": "uint64",
          "name": "dstChainId",
          "type": "uint64"
        },
        {
          "indexed": false,
          "internalType": "uint256",
          "name": "srcAmount",
          "type": "uint256"
        },
        {
          "indexed": false,
          "internalType": "address",
          "name": "srcToken",
          "type": "address"
        },
        {
          "indexed": false,
          "internalType": "address",
          "name": "dstToken",
          "type": "address"
        },
        {
          "indexed": false,
          "internalType": "address",
          "name": "bridgeOutReceiver",
          "type": "address"
        },
        {
          "indexed": false,
          "internalType": "address",
          "name": "bridgeToken",
          "type": "address"
        },
        {
          "indexed": false,
          "internalType": "uint256",
          "name": "bridgeAmount",
          "type": "uint256"
        },
        {
          "indexed": false,
          "internalType": "string",
          "name": "bridgeProvider",
          "type": "string"
        }
      ],
      "name": "RequestSent",
      "type": "event"
    },
    {
      "anonymous": false,
      "inputs": [
        {
          "indexed": false,
          "internalType": "string[]",
          "name": "_bridgeProviders",
          "type": "string[]"
        },
        {
          "indexed": false,
          "internalType": "address[]",
          "name": "_bridgeAdapters",
          "type": "address[]"
        }
      ],
      "name": "SupportedBridgesUpdated",
      "type": "event"
    },
    {
      "anonymous": false,
      "inputs": [
        {
          "indexed": false,
          "internalType": "address",
          "name": "dex",
          "type": "address"
        },
        {
          "indexed": false,
          "internalType": "bytes4",
          "name": "selector",
          "type": "bytes4"
        },
        {
          "indexed": false,
          "internalType": "bool",
          "name": "enabled",
          "type": "bool"
        }
      ],
      "name": "SupportedDexUpdated",
      "type": "event"
    },
    {
      "inputs": [],
      "name": "MULTICHAIN_PROVIDER_HASH",
      "outputs": [
        {
          "internalType": "bytes32",
          "name": "",
          "type": "bytes32"
        }
      ],
      "stateMutability": "view",
      "type": "function"
    },
    {
      "inputs": [
        {
          "internalType": "bytes32",
          "name": "",
          "type": "bytes32"
        }
      ],
      "name": "bridges",
      "outputs": [
        {
          "internalType": "contract IBridgeAdapter",
          "name": "",
          "type": "address"
        }
      ],
      "stateMutability": "view",
      "type": "function"
    },
    {
      "inputs": [
        {
          "internalType": "uint256",
          "name": "",
          "type": "uint256"
        }
      ],
      "name": "codecs",
      "outputs": [
        {
          "internalType": "address",
          "name": "",
          "type": "address"
        }
      ],
      "stateMutability": "view",
      "type": "function"
    },
    {
      "inputs": [
        {
          "internalType": "address",
          "name": "",
          "type": "address"
        },
        {
          "internalType": "bytes4",
          "name": "",
          "type": "bytes4"
        }
      ],
      "name": "dexRegistry",
      "outputs": [
        {
          "internalType": "bool",
          "name": "",
          "type": "bool"
        }
      ],
      "stateMutability": "view",
      "type": "function"
    },
    {
      "inputs": [
        {
          "internalType": "address",
          "name": "",
          "type": "address"
        }
      ],
      "name": "externalSwap",
      "outputs": [
        {
          "internalType": "bool",
          "name": "",
          "type": "bool"
        }
      ],
      "stateMutability": "view",
      "type": "function"
    },
    {
      "inputs": [],
      "name": "nativeWrap",
      "outputs": [
        {
          "internalType": "address",
          "name": "",
          "type": "address"
        }
      ],
      "stateMutability": "view",
      "type": "function"
    },
    {
      "inputs": [],
      "name": "owner",
      "outputs": [
        {
          "internalType": "address",
          "name": "",
          "type": "address"
        }
      ],
      "stateMutability": "view",
      "type": "function"
    },
    {
      "inputs": [],
      "name": "renounceOwnership",
      "outputs": [],
      "stateMutability": "nonpayable",
      "type": "function"
    },
    {
      "inputs": [
        {
          "internalType": "bytes4",
          "name": "",
          "type": "bytes4"
        }
      ],
      "name": "selector2codec",
      "outputs": [
        {
          "internalType": "contract ICodec",
          "name": "",
          "type": "address"
        }
      ],
      "stateMutability": "view",
      "type": "function"
    },
    {
      "inputs": [
        {
          "internalType": "string",
          "name": "_funcSig",
          "type": "string"
        },
        {
          "internalType": "address",
          "name": "_codec",
          "type": "address"
        }
      ],
      "name": "setCodec",
      "outputs": [],
      "stateMutability": "nonpayable",
      "type": "function"
    },
    {
      "inputs": [
        {
          "internalType": "address",
          "name": "_dex",
          "type": "address"
        },
        {
          "internalType": "bool",
          "name": "_enabled",
          "type": "bool"
        }
      ],
      "name": "setExternalSwap",
      "outputs": [],
      "stateMutability": "nonpayable",
      "type": "function"
    },
    {
      "inputs": [
        {
          "internalType": "string[]",
          "name": "_bridgeProviders",
          "type": "string[]"
        },
        {
          "internalType": "address[]",
          "name": "_bridgeAdapters",
          "type": "address[]"
        }
      ],
      "name": "setSupportedBridges",
      "outputs": [],
      "stateMutability": "nonpayable",
      "type": "function"
    },
    {
      "inputs": [
        {
          "internalType": "address",
          "name": "_dex",
          "type": "address"
        },
        {
          "internalType": "string",
          "name": "_supportedFuncs",
          "type": "string"
        },
        {
          "internalType": "bool",
          "name": "_enabled",
          "type": "bool"
        }
      ],
      "name": "setSupportedDex",
      "outputs": [],
      "stateMutability": "nonpayable",
      "type": "function"
    },
    {
      "inputs": [
        {
          "internalType": "address",
          "name": "newOwner",
          "type": "address"
        }
      ],
      "name": "transferOwnership",
      "outputs": [],
      "stateMutability": "nonpayable",
      "type": "function"
    },
    {
      "inputs": [
        {
          "components": [
            {
              "internalType": "address",
              "name": "receiver",
              "type": "address"
            },
            {
              "internalType": "uint64",
              "name": "dstChainId",
              "type": "uint64"
            },
            {
              "internalType": "address",
              "name": "dstTransferSwapper",
              "type": "address"
            },
            {
              "internalType": "uint64",
              "name": "nonce",
              "type": "uint64"
            },
            {
              "internalType": "string",
              "name": "bridgeProvider",
              "type": "string"
            },
            {
              "internalType": "bytes",
              "name": "bridgeParams",
              "type": "bytes"
            },
            {
              "internalType": "bool",
              "name": "nativeIn",
              "type": "bool"
            },
            {
              "internalType": "bool",
              "name": "nativeOut",
              "type": "bool"
            },
            {
              "internalType": "uint256",
              "name": "amountIn",
              "type": "uint256"
            },
            {
              "internalType": "address",
              "name": "tokenIn",
              "type": "address"
            },
            {
              "internalType": "address",
              "name": "bridgeTokenIn",
              "type": "address"
            },
            {
              "internalType": "address",
              "name": "dstTokenOut",
              "type": "address"
            },
            {
              "internalType": "bool",
              "name": "allowPartialFill",
              "type": "bool"
            }
          ],
          "internalType": "struct Types.TransferDescription",
          "name": "_desc",
          "type": "tuple"
        },
        {
          "components": [
            {
              "internalType": "address",
              "name": "dex",
              "type": "address"
            },
            {
              "internalType": "bytes",
              "name": "data",
              "type": "bytes"
            }
          ],
          "internalType": "struct ICodec.SwapDescription[]",
          "name": "_srcSwaps",
          "type": "tuple[]"
        },
        {
          "components": [
            {
              "internalType": "address",
              "name": "dex",
              "type": "address"
            },
            {
              "internalType": "bytes",
              "name": "data",
              "type": "bytes"
            }
          ],
          "internalType": "struct ICodec.SwapDescription[]",
          "name": "_dstSwaps",
          "type": "tuple[]"
        }
      ],
      "name": "transferWithSwap",
      "outputs": [],
      "stateMutability": "payable",
      "type": "function"
    }
  ],
  "bytecode": "0x60a06040523480156200001157600080fd5b50604051620033dc380380620033dc83398101604081905262000034916200054e565b600160005583838383818185856200004c336200022c565b80518251146200008c5760405162461bcd60e51b81526020600482015260066024820152656c656e206d6d60d01b60448201526064015b60405180910390fd5b60005b82518110156200011d576000838281518110620000bc57634e487b7160e01b600052603260045260246000fd5b60200260200101518051906020012090506200010781848481518110620000f357634e487b7160e01b600052603260045260246000fd5b60200260200101516200027e60201b60201c565b508062000114816200066f565b9150506200008f565b50505060005b8251811015620001b35760008282815181106200015057634e487b7160e01b600052603260045260246000fd5b60200260200101518051906020012090506200019d8483815181106200018657634e487b7160e01b600052603260045260246000fd5b6020026020010151826001620002f060201b60201c565b5080620001aa816200066f565b91505062000123565b5050600780546001600160a01b0319166001600160a01b039b909b169a909a17909955505060408051808201909152600a81526936bab63a34b1b430b4b760b11b60209091015250507fb014aac5b0d6328e584ecc632bc05bad2f720d727ce213821a987cb58870364060805250620006ad9350505050565b600180546001600160a01b038381166001600160a01b0319831681179093556040519116919082907f8be0079c531659141344cd1fd0a4f28419497f9722a3daafe3b4186f6b6457e090600090a35050565b6001600160e01b0319909116600090815260036020526040812080546001600160a01b039093166001600160a01b031993841681179091556004805460018101825592527f8a35acfbc15ff81a39ae7d344fd709f28e8600b4aa8c65c6b64bfe7fe36bd19b9091018054909216179055565b6001600160a01b03831660009081526005602090815260408083206001600160e01b03198616845290915290205460ff1680151582151514156200035d5760405162461bcd60e51b815260206004820152600360248201526206e6f760ec1b604482015260640162000083565b506001600160a01b0390921660009081526005602090815260408083206001600160e01b0319909416835292905220805491151560ff19909216919091179055565b80516001600160a01b0381168114620003b757600080fd5b919050565b600082601f830112620003cd578081fd5b81516020620003e6620003e08362000649565b62000616565b80838252828201915082860187848660051b890101111562000406578586fd5b855b858110156200042f576200041c826200039f565b8452928401929084019060010162000408565b5090979650505050505050565b6000601f83818401126200044e578182fd5b8251602062000461620003e08362000649565b80838252828201915082870188848660051b8a0101111562000481578687fd5b865b85811015620005405781516001600160401b0380821115620004a357898afd5b818b0191508b603f830112620004b757898afd5b8682015181811115620004ce57620004ce62000697565b620004e1818b01601f1916890162000616565b915080825260408d81838601011115620004f9578b8cfd5b8b5b8281101562000518578481018201518482018b01528901620004fb565b8281111562000529578c8a84860101525b505050855250928401929084019060010162000483565b509098975050505050505050565b600080600080600060a0868803121562000566578081fd5b62000571866200039f565b60208701519095506001600160401b03808211156200058e578283fd5b6200059c89838a016200043c565b95506040880151915080821115620005b2578283fd5b620005c089838a01620003bc565b94506060880151915080821115620005d6578283fd5b620005e489838a01620003bc565b93506080880151915080821115620005fa578283fd5b5062000609888289016200043c565b9150509295509295909350565b604051601f8201601f191681016001600160401b038111828210171562000641576200064162000697565b604052919050565b60006001600160401b0382111562000665576200066562000697565b5060051b60200190565b60006000198214156200069057634e487b7160e01b81526011600452602481fd5b5060010190565b634e487b7160e01b600052604160045260246000fd5b608051612d0c620006d06000396000818161015901526104890152612d0c6000f3fe6080604052600436106100e85760003560e01c806382665a8f1161008a578063c5bccca311610059578063c5bccca3146102af578063eeaaa651146102cf578063f2fde38b14610305578063fbf5d7631461032557600080fd5b806382665a8f146102165780638da5cb5b14610236578063918ead761461025457806391ec04b51461027457600080fd5b80632aa5fc7b116100c65780632aa5fc7b14610189578063457bfa2f146101a9578063489a6d48146101e1578063715018a61461020157600080fd5b80630802fe9e146100ed57806309bd27491461010257806327eaae8014610147575b600080fd5b6101006100fb3660046124e0565b61035b565b005b34801561010e57600080fd5b5061013261011d366004612241565b60066020526000908152604090205460ff1681565b60405190151581526020015b60405180910390f35b34801561015357600080fd5b5061017b7f000000000000000000000000000000000000000000000000000000000000000081565b60405190815260200161013e565b34801561019557600080fd5b506101006101a436600461225d565b610820565b3480156101b557600080fd5b506007546101c9906001600160a01b031681565b6040516001600160a01b03909116815260200161013e565b3480156101ed57600080fd5b506101006101fc3660046122c9565b610879565b34801561020d57600080fd5b506101006108f1565b34801561022257600080fd5b506101c96102313660046123ca565b610905565b34801561024257600080fd5b506001546001600160a01b03166101c9565b34801561026057600080fd5b5061010061026f36600461232a565b61092f565b34801561028057600080fd5b5061013261028f366004612295565b600560209081526000928352604080842090915290825290205460ff1681565b3480156102bb57600080fd5b506101006102ca36600461246e565b610a84565b3480156102db57600080fd5b506101c96102ea3660046123ca565b6002602052600090815260409020546001600160a01b031681565b34801561031157600080fd5b50610100610320366004612241565b610b67565b34801561033157600080fd5b506101c96103403660046123e2565b6003602052600090815260409020546001600160a01b031681565b600260005414156103b35760405162461bcd60e51b815260206004820152601f60248201527f5265656e7472616e637947756172643a207265656e7472616e742063616c6c0060448201526064015b60405180910390fd5b6002600055821515806103e757506001600160401b0346166103db60408701602088016125c7565b6001600160401b031614155b6104035760405162461bcd60e51b81526004016103aa90612845565b8215158061043b57506101008501351580159061043b5750600061042f61014087016101208801612241565b6001600160a01b031614155b6104575760405162461bcd60e51b81526004016103aa90612845565b6000610466608087018761297b565b6040516104749291906126ad565b60405190819003902090508115806104ab57507f000000000000000000000000000000000000000000000000000000000000000081145b6104f75760405162461bcd60e51b815260206004820152601b60248201527f62726964676520646f6573206e6f7420737570706f7274206d7367000000000060448201526064016103aa565b600081815260026020908152604091829020546001600160a01b0316916001600160401b0346169161052d918a01908a016125c7565b6001600160401b0316148061054a57506001600160a01b03811615155b61058b5760405162461bcd60e51b8152602060048201526012602482015271756e737570706f727465642062726964676560701b60448201526064016103aa565b610100870135606060006105a76101408b016101208c01612241565b905060006105bd6101408c016101208d01612241565b905088156106ba576106098a8a60008181106105e957634e487b7160e01b600052603260045260246000fd5b90506020028101906105fb91906129bf565b61060490612b0b565b610be0565b15610627576106206101608c016101408d01612241565b9050610644565b6106396106348a8c612a83565b610c86565b929650919450925090505b806001600160a01b0316826001600160a01b031614156106ba5760405162461bcd60e51b815260206004820152602b60248201527f746f6b656e20696e2f6f7574206d757374206e6f7420657175616c206966206560448201526a786973747320737761707360a81b60648201526084016103aa565b6106ca60e08c0160c08d01612392565b156107cd576007546001600160a01b038381169116146107215760405162461bcd60e51b81526020600482015260126024820152710746b696e206e6f206e6174697665577261760741b60448201526064016103aa565b8334101561075f5760405162461bcd60e51b815260206004820152600b60248201526a1a5b9cd998db9d08185b5d60aa1b60448201526064016103aa565b600760009054906101000a90046001600160a01b03166001600160a01b031663d0e30db0856040518263ffffffff1660e01b81526004016000604051808303818588803b1580156107af57600080fd5b505af11580156107c3573d6000803e3d6000fd5b50505050506107e2565b6107e26001600160a01b038316333087610f5b565b61080e8282866107f18f612b1d565b8e8e906107fe9190612a83565b6108088d8f612a83565b89610fcc565b50506001600055505050505050505050565b6108286111b9565b6108328282611213565b604080516001600160a01b038416815282151560208201527f1030ebdffe19ed06839890787ae0344a023e8c553e3fa69b7e74564e8c7965f0910160405180910390a15050565b6108816111b9565b8151602083012061089384828461127f565b604080516001600160a01b03861681526001600160e01b031983166020820152831515918101919091527f5e20184b00709d9f103306958e9fb9d509f78bec1829ca7080f2c43eb2ff21a8906060015b60405180910390a150505050565b6108f96111b9565b6109036000611316565b565b6004818154811061091557600080fd5b6000918252602090912001546001600160a01b0316905081565b6109376111b9565b82811461097d5760405162461bcd60e51b81526020600482015260146024820152730e0c2e4c2dae640e6d2f4ca40dad2e6dac2e8c6d60631b60448201526064016103aa565b60005b83811015610a4e578282828181106109a857634e487b7160e01b600052603260045260246000fd5b90506020020160208101906109bd9190612241565b600260008787858181106109e157634e487b7160e01b600052603260045260246000fd5b90506020028101906109f3919061297b565b604051610a019291906126ad565b6040518091039020815260200190815260200160002060006101000a8154816001600160a01b0302191690836001600160a01b031602179055508080610a4690612c6c565b915050610980565b507f68d2b5e14eb61b73f2dfa46a255dcba81a3b53259093a83c90da69c3ade70b96848484846040516108e394939291906126d9565b610a8c6111b9565b60008383604051610a9e9291906126ad565b60405180910390209050610b1f81836001600160e01b0319909116600090815260036020526040812080546001600160a01b039093166001600160a01b031993841681179091556004805460018101825592527f8a35acfbc15ff81a39ae7d344fd709f28e8600b4aa8c65c6b64bfe7fe36bd19b9091018054909216179055565b604080516001600160e01b0319831681526001600160a01b03841660208201527f58ddcdb40971f55ad1b6a8a28067274a4ffc7e9d77c3ea14a17652faa705e19791016108e3565b610b6f6111b9565b6001600160a01b038116610bd45760405162461bcd60e51b815260206004820152602660248201527f4f776e61626c653a206e6577206f776e657220697320746865207a65726f206160448201526564647265737360d01b60648201526084016103aa565b610bdd81611316565b50565b80516001600160a01b031660009081526005602090815260408220908301518290610c0a90611368565b6001600160e01b031916815260208101919091526040016000205460ff16610c665760405162461bcd60e51b815260206004820152600f60248201526e0eadce6eae0e0dee4e8cac840c8caf608b1b60448201526064016103aa565b50516001600160a01b031660009081526006602052604090205460ff1690565b60008060006060600080610c9987611384565b925060005b8751811015610f515760056000898381518110610ccb57634e487b7160e01b600052603260045260246000fd5b6020026020010151600001516001600160a01b03166001600160a01b031681526020019081526020016000206000610d2d8a8481518110610d1c57634e487b7160e01b600052603260045260246000fd5b602002602001015160200151611368565b6001600160e01b031916815260208101919091526040016000205460ff16610d895760405162461bcd60e51b815260206004820152600f60248201526e0eadce6eae0e0dee4e8cac840c8caf608b1b60448201526064016103aa565b6000806000868481518110610dae57634e487b7160e01b600052603260045260246000fd5b60200260200101516001600160a01b031663358f0e1c8c8681518110610de457634e487b7160e01b600052603260045260246000fd5b60200260200101516040518263ffffffff1660e01b8152600401610e089190612907565b60606040518083038186803b158015610e2057600080fd5b505afa158015610e34573d6000803e3d6000fd5b505050506040513d601f19601f82011682018060405250810190610e589190612590565b919450925090506001600160a01b0386161580610e865750816001600160a01b0316866001600160a01b0316145b610ec25760405162461bcd60e51b815260206004820152600d60248201526c0e8d6d2dc40dad2e6dac2e8c6d609b1b60448201526064016103aa565b90945084906001600160a01b0385161580610eee5750806001600160a01b0316856001600160a01b0316145b610f295760405162461bcd60e51b815260206004820152600c60248201526b0e8d6de40dad2e6dac2e8c6d60a31b60448201526064016103aa565b935083610f36838b612a54565b99509097509550819050610f4981612c6c565b915050610c9e565b5050509193509193565b6040516001600160a01b0380851660248301528316604482015260648101829052610fc69085906323b872dd60e01b906084015b60408051601f198184030181529190526020810180516001600160e01b03166001600160e01b031990931692909217909152611508565b50505050565b825185901561109357600061100885600081518110610ffb57634e487b7160e01b600052603260045260246000fd5b6020026020010151610be0565b1561104a576110418989898860008151811061103457634e487b7160e01b600052603260045260246000fd5b60200260200101516115df565b92509050611091565b6110548584611785565b92509050806110915760405162461bcd60e51b81526020600482015260096024820152681cddd85c0819985a5b60ba1b60448201526064016103aa565b505b600061110c866000015187606001516040516bffffffffffffffffffffffff1933606090811b8216602084015284901b1660348201526001600160c01b03194660c090811b8216604884015283901b16605082015260009060580160405160208183030381529060405280519060200120905092915050565b9050466001600160401b031686602001516001600160401b0316141561119e57611140888388600001518960e00151611b55565b60408051828152602081018990526001600160a01b038b811682840152606082018590528a16608082015290517f0e248ac8be20725176a5f0ab093c5fbb964634d4675012f3d3ad66e69e56d5b79181900360a00190a150506111b0565b6111ad818a8a89888c88611cb3565b50505b50505050505050565b6001546001600160a01b031633146109035760405162461bcd60e51b815260206004820181905260248201527f4f776e61626c653a2063616c6c6572206973206e6f7420746865206f776e657260448201526064016103aa565b6001600160a01b03821660009081526006602052604090205460ff1680151582151514156112535760405162461bcd60e51b81526004016103aa90612845565b506001600160a01b03919091166000908152600660205260409020805460ff1916911515919091179055565b6001600160a01b03831660009081526005602090815260408083206001600160e01b03198616845290915290205460ff1680151582151514156112d45760405162461bcd60e51b81526004016103aa90612845565b506001600160a01b0390921660009081526005602090815260408083206001600160e01b0319909416835292905220805491151560ff19909216919091179055565b600180546001600160a01b038381166001600160a01b0319831681179093556040519116919082907f8be0079c531659141344cd1fd0a4f28419497f9722a3daafe3b4186f6b6457e090600090a35050565b600081516000141561137c57506000919050565b506020015190565b6060600082516001600160401b038111156113af57634e487b7160e01b600052604160045260246000fd5b6040519080825280602002602001820160405280156113d8578160200160208202803683370190505b50905060005b835181101561150157600061140c858381518110610d1c57634e487b7160e01b600052603260045260246000fd5b6001600160e01b0319811660009081526003602052604090205484519192506001600160a01b03169084908490811061145557634e487b7160e01b600052603260045260246000fd5b60200260200101906001600160a01b031690816001600160a01b03168152505060006001600160a01b03168383815181106114a057634e487b7160e01b600052603260045260246000fd5b60200260200101516001600160a01b031614156114ee5760405162461bcd60e51b815260206004820152600c60248201526b18d918c81b9bc8199bdd5b9960a21b60448201526064016103aa565b50806114f981612c6c565b9150506113de565b5092915050565b600061155d826040518060400160405280602081526020017f5361666545524332303a206c6f772d6c6576656c2063616c6c206661696c6564815250856001600160a01b0316611e0d9092919063ffffffff16565b8051909150156115da578080602001905181019061157b91906123ae565b6115da5760405162461bcd60e51b815260206004820152602a60248201527f5361666545524332303a204552433230206f7065726174696f6e20646964206e6044820152691bdd081cdd58d8d9595960b21b60648201526084016103aa565b505050565b805160009081906115fb906001600160a01b0388169086611e26565b6040516370a0823160e01b81523060048201526000906001600160a01b038716906370a082319060240160206040518083038186803b15801561163d57600080fd5b505afa158015611651573d6000803e3d6000fd5b505050506040513d601f19601f820116820180604052508101906116759190612578565b905083600001516001600160a01b0316846020015160405161169791906126bd565b6000604051808303816000865af19150503d80600081146116d4576040519150601f19603f3d011682016040523d82523d6000602084013e6116d9565b606091505b505080935050826116f157600080925092505061177c565b6040516370a0823160e01b81523060048201526000906001600160a01b038816906370a082319060240160206040518083038186803b15801561173357600080fd5b505afa158015611747573d6000803e3d6000fd5b505050506040513d601f19601f8201168201806040525081019061176b9190612578565b90506117778282612a6c565b925050505b94509492505050565b60008060005b8451811015611b4c5760008060008684815181106117b957634e487b7160e01b600052603260045260246000fd5b60200260200101516001600160a01b031663358f0e1c8986815181106117ef57634e487b7160e01b600052603260045260246000fd5b60200260200101516040518263ffffffff1660e01b81526004016118139190612907565b60606040518083038186803b15801561182b57600080fd5b505afa15801561183f573d6000803e3d6000fd5b505050506040513d601f19601f820116820180604052508101906118639190612590565b925092509250600087858151811061188b57634e487b7160e01b600052603260045260246000fd5b60200260200101516001600160a01b0316634c6da2698a87815181106118c157634e487b7160e01b600052603260045260246000fd5b60200260200101516020015186306040518463ffffffff1660e01b81526004016118ed939291906127ff565b60006040518083038186803b15801561190557600080fd5b505afa158015611919573d6000803e3d6000fd5b505050506040513d6000823e601f3d908101601f1916820160405261194191908101906123fc565b905061198389868151811061196657634e487b7160e01b600052603260045260246000fd5b6020908102919091010151516001600160a01b0385169086611e26565b6040516370a0823160e01b81523060048201526000906001600160a01b038416906370a082319060240160206040518083038186803b1580156119c557600080fd5b505afa1580156119d9573d6000803e3d6000fd5b505050506040513d601f19601f820116820180604052508101906119fd9190612578565b9050898681518110611a1f57634e487b7160e01b600052603260045260246000fd5b6020026020010151600001516001600160a01b031682604051611a4291906126bd565b6000604051808303816000865af19150503d8060008114611a7f576040519150601f19603f3d011682016040523d82523d6000602084013e611a84565b606091505b50508098505087611aa15760008097509750505050505050611b4e565b6040516370a0823160e01b81523060048201526000906001600160a01b038516906370a082319060240160206040518083038186803b158015611ae357600080fd5b505afa158015611af7573d6000803e3d6000fd5b505050506040513d601f19601f82011682018060405250810190611b1b9190612578565b9050611b278282612a6c565b611b319089612a54565b97505050505050508080611b4490612c6c565b91505061178b565b505b9250929050565b8015611c9f576007546001600160a01b03858116911614611ba75760405162461bcd60e51b815260206004820152600c60248201526b746b206e6f206e617469766560a01b60448201526064016103aa565b600754604051632e1a7d4d60e01b8152600481018590526001600160a01b0390911690632e1a7d4d90602401600060405180830381600087803b158015611bed57600080fd5b505af1158015611c01573d6000803e3d6000fd5b505050506000826001600160a01b03168461c35090604051600060405180830381858888f193505050503d8060008114611c57576040519150601f19603f3d011682016040523d82523d6000602084013e611c5c565b606091505b5050905080611c995760405162461bcd60e51b81526020600482015260096024820152681cd95b990819985a5b60ba1b60448201526064016103aa565b50610fc6565b610fc66001600160a01b0385168385611ee7565b600080845111611cc4578451611cca565b84604001515b608086015180516020918201206000908152600290915260409020549091506060906001600160a01b0390811690611d059089168286611e26565b6000611d128b8989611f17565b9050816001600160a01b031663834bc3ea896020015186888d8d60a00151876040518763ffffffff1660e01b8152600401611d529695949392919061291a565b600060405180830381600087803b158015611d6c57600080fd5b505af1158015611d80573d6000803e3d6000fd5b505050506040513d6000823e601f3d908101601f19168201604052611da891908101906123fc565b925050507f082e2f634ceec1af5105aa53f234b7efad94428a54a714e3b7c7115ee549308089828860200151878c8b6101600151888e8b8f60800151604051611dfa9a9998979695949392919061277a565b60405180910390a1505050505050505050565b6060611e1c8484600085611f82565b90505b9392505050565b604051636eb1769f60e11b81523060048201526001600160a01b038381166024830152600091839186169063dd62ed3e9060440160206040518083038186803b158015611e7257600080fd5b505afa158015611e86573d6000803e3d6000fd5b505050506040513d601f19601f82011682018060405250810190611eaa9190612578565b611eb49190612a54565b6040516001600160a01b038516602482015260448101829052909150610fc690859063095ea7b360e01b90606401610f8f565b6040516001600160a01b0383166024820152604481018290526115da90849063a9059cbb60e01b90606401610f8f565b60606040518060a0016040528085815260200183815260200184600001516001600160a01b031681526020018460e00151151581526020018461018001511515815250604051602001611f6a9190612862565b60405160208183030381529060405290509392505050565b606082471015611fe35760405162461bcd60e51b815260206004820152602660248201527f416464726573733a20696e73756666696369656e742062616c616e636520666f6044820152651c8818d85b1b60d21b60648201526084016103aa565b6001600160a01b0385163b61203a5760405162461bcd60e51b815260206004820152601d60248201527f416464726573733a2063616c6c20746f206e6f6e2d636f6e747261637400000060448201526064016103aa565b600080866001600160a01b0316858760405161205691906126bd565b60006040518083038185875af1925050503d8060008114612093576040519150601f19603f3d011682016040523d82523d6000602084013e612098565b606091505b50915091506120a88282866120b3565b979650505050505050565b606083156120c2575081611e1f565b8251156120d25782518084602001fd5b8160405162461bcd60e51b81526004016103aa9190612832565b80356120f781612cb3565b919050565b60008083601f84011261210d578182fd5b5081356001600160401b03811115612123578182fd5b6020830191508360208260051b8501011115611b4e57600080fd5b80356120f781612cc8565b80356001600160e01b0319811681146120f757600080fd5b600082601f830112612171578081fd5b813561218461217f82612a2d565b6129fd565b818152846020838601011115612198578283fd5b816020850160208301379081016020019190915292915050565b6000604082840312156121c3578081fd5b604051604081016001600160401b0382821081831117156121e6576121e6612c9d565b81604052829350843591506121fa82612cb3565b9082526020840135908082111561221057600080fd5b5061221d85828601612161565b6020830152505092915050565b80356001600160401b03811681146120f757600080fd5b600060208284031215612252578081fd5b8135611e1f81612cb3565b6000806040838503121561226f578081fd5b823561227a81612cb3565b9150602083013561228a81612cc8565b809150509250929050565b600080604083850312156122a7578182fd5b82356122b281612cb3565b91506122c060208401612149565b90509250929050565b6000806000606084860312156122dd578081fd5b83356122e881612cb3565b925060208401356001600160401b03811115612302578182fd5b61230e86828701612161565b925050604084013561231f81612cc8565b809150509250925092565b6000806000806040858703121561233f578182fd5b84356001600160401b0380821115612355578384fd5b612361888389016120fc565b90965094506020870135915080821115612379578384fd5b50612386878288016120fc565b95989497509550505050565b6000602082840312156123a3578081fd5b8135611e1f81612cc8565b6000602082840312156123bf578081fd5b8151611e1f81612cc8565b6000602082840312156123db578081fd5b5035919050565b6000602082840312156123f3578081fd5b611e1f82612149565b60006020828403121561240d578081fd5b81516001600160401b03811115612422578182fd5b8201601f81018413612432578182fd5b805161244061217f82612a2d565b818152856020838501011115612454578384fd5b612465826020830160208601612c40565b95945050505050565b600080600060408486031215612482578081fd5b83356001600160401b0380821115612498578283fd5b818601915086601f8301126124ab578283fd5b8135818111156124b9578384fd5b8760208285010111156124ca578384fd5b6020928301955093505084013561231f81612cb3565b6000806000806000606086880312156124f7578283fd5b85356001600160401b038082111561250d578485fd5b908701906101a0828a031215612521578485fd5b90955060208701359080821115612536578485fd5b61254289838a016120fc565b9096509450604088013591508082111561255a578283fd5b50612567888289016120fc565b969995985093965092949392505050565b600060208284031215612589578081fd5b5051919050565b6000806000606084860312156125a4578081fd5b8351925060208401516125b681612cb3565b604085015190925061231f81612cb3565b6000602082840312156125d8578081fd5b611e1f8261222a565b81835260006020808501945082825b8581101561261e57813561260381612cb3565b6001600160a01b0316875295820195908201906001016125f0565b509495945050505050565b60008151808452612641816020860160208601612c40565b601f01601f19169290920160200192915050565b81835281816020850137506000828201602090810191909152601f909101601f19169091010190565b60018060a01b03815116825260006020820151604060208501526126a56040850182612629565b949350505050565b8183823760009101908152919050565b600082516126cf818460208701612c40565b9190910192915050565b6040808252810184905260006060600586901b8301810190830187835b8881101561276457858403605f190183528135368b9003601e1901811261271b578586fd5b8a01803560206001600160401b03821115612734578788fd5b8136038d1315612742578788fd5b61274f8783838601612655565b965094850194939093019250506001016126f6565b50505082810360208401526120a88185876125e1565b60006101408c83528060208401526127948184018d612629565b6001600160401b038c166040850152606084018b90526001600160a01b038a8116608086015289811660a086015288811660c0860152871660e0850152610100840186905283810361012085015290506127ee8185612629565b9d9c50505050505050505050505050565b6060815260006128126060830186612629565b6020830194909452506001600160a01b0391909116604090910152919050565b602081526000611e1f6020830184612629565b60208082526003908201526206e6f760ec1b604082015260600190565b6000602080835260c083018451828501528185015160a0604086015281815180845260e08701915060e08160051b88010193508483019250855b818110156128ca5760df198886030183526128b885855161267e565b9450928501929185019160010161289c565b5050505060408501516001600160a01b03811660608601529150606085015180151560808601529150608085015180151560a086015291506126a5565b602081526000611e1f602083018461267e565b6001600160401b03871681526001600160a01b038681166020830152604082018690528416606082015260c06080820181905260009061295c90830185612629565b82810360a084015261296e8185612629565b9998505050505050505050565b6000808335601e19843603018112612991578283fd5b8301803591506001600160401b038211156129aa578283fd5b602001915036819003821315611b4e57600080fd5b60008235603e198336030181126126cf578182fd5b6040516101a081016001600160401b03811182821017156129f7576129f7612c9d565b60405290565b604051601f8201601f191681016001600160401b0381118282101715612a2557612a25612c9d565b604052919050565b60006001600160401b03821115612a4657612a46612c9d565b50601f01601f191660200190565b60008219821115612a6757612a67612c87565b500190565b600082821015612a7e57612a7e612c87565b500390565b60006001600160401b0380841115612a9d57612a9d612c9d565b8360051b6020612aae8183016129fd565b8681528181019086368582011115612ac4578687fd5b8694505b88851015612aff57803586811115612ade578788fd5b612aea36828b016121b2565b84525060019490940193918301918301612ac8565b50979650505050505050565b6000612b1736836121b2565b92915050565b60006101a08236031215612b2f578081fd5b612b376129d4565b612b40836120ec565b8152612b4e6020840161222a565b6020820152612b5f604084016120ec565b6040820152612b706060840161222a565b606082015260808301356001600160401b0380821115612b8e578384fd5b612b9a36838701612161565b608084015260a0850135915080821115612bb2578384fd5b50612bbf36828601612161565b60a083015250612bd160c0840161213e565b60c0820152612be260e0840161213e565b60e08201526101008381013590820152610120612c008185016120ec565b90820152610140612c128482016120ec565b90820152610160612c248482016120ec565b90820152610180612c3684820161213e565b9082015292915050565b60005b83811015612c5b578181015183820152602001612c43565b83811115610fc65750506000910152565b6000600019821415612c8057612c80612c87565b5060010190565b634e487b7160e01b600052601160045260246000fd5b634e487b7160e01b600052604160045260246000fd5b6001600160a01b0381168114610bdd57600080fd5b8015158114610bdd57600080fdfea2646970667358221220d49a6ad3c471310df1fa69a5b805857a88b559a5f5ea09ff3de328b8611aaa9064736f6c63430008040033",
  "linkReferences": {},
  "deployedLinkReferences": {}
}