{
  "_format": "hh-sol-artifact-1",
  "contractName": "TransferSwapper",
  "sourceName": "contracts/crosschain-swap/TransferSwapper.sol",
  "abi": [
    {
      "inputs": [
        {
          "internalType": "address",
          "name": "_nativeWrap",
          "type": "address"
        },
        {
          "internalType": "string[]",
          "name": "_funcSigs",
          "type": "string[]"
        },
        {
          "internalType": "address[]",
          "name": "_codecs",
          "type": "address[]"
        },
        {
          "internalType": "address[]",
          "name": "_supportedDexList",
          "type": "address[]"
        },
        {
          "internalType": "string[]",
          "name": "_supportedDexFuncs",
          "type": "string[]"
        }
      ],
      "stateMutability": "nonpayable",
      "type": "constructor"
    },
    {
      "anonymous": false,
      "inputs": [
        {
          "indexed": false,
          "internalType": "bytes4",
          "name": "selector",
          "type": "bytes4"
        },
        {
          "indexed": false,
          "internalType": "address",
          "name": "codec",
          "type": "address"
        }
      ],
      "name": "CodecUpdated",
      "type": "event"
    },
    {
      "anonymous": false,
      "inputs": [
        {
          "indexed": false,
          "internalType": "bytes32",
          "name": "id",
          "type": "bytes32"
        },
        {
          "indexed": false,
          "internalType": "uint256",
          "name": "amountIn",
          "type": "uint256"
        },
        {
          "indexed": false,
          "internalType": "address",
          "name": "tokenIn",
          "type": "address"
        },
        {
          "indexed": false,
          "internalType": "uint256",
          "name": "amountOut",
          "type": "uint256"
        },
        {
          "indexed": false,
          "internalType": "address",
          "name": "tokenOut",
          "type": "address"
        }
      ],
      "name": "DirectSwap",
      "type": "event"
    },
    {
      "anonymous": false,
      "inputs": [
        {
          "indexed": true,
          "internalType": "address",
          "name": "previousOwner",
          "type": "address"
        },
        {
          "indexed": true,
          "internalType": "address",
          "name": "newOwner",
          "type": "address"
        }
      ],
      "name": "OwnershipTransferred",
      "type": "event"
    },
    {
      "anonymous": false,
      "inputs": [
        {
          "indexed": false,
          "internalType": "bytes32",
          "name": "id",
          "type": "bytes32"
        },
        {
          "indexed": false,
          "internalType": "bytes",
          "name": "bridgeResp",
          "type": "bytes"
        },
        {
          "indexed": false,
          "internalType": "uint64",
          "name": "dstChainId",
          "type": "uint64"
        },
        {
          "indexed": false,
          "internalType": "uint256",
          "name": "srcAmount",
          "type": "uint256"
        },
        {
          "indexed": false,
          "internalType": "address",
          "name": "srcToken",
          "type": "address"
        },
        {
          "indexed": false,
          "internalType": "address",
          "name": "dstToken",
          "type": "address"
        },
        {
          "indexed": false,
          "internalType": "address",
          "name": "bridgeOutReceiver",
          "type": "address"
        },
        {
          "indexed": false,
          "internalType": "address",
          "name": "bridgeToken",
          "type": "address"
        },
        {
          "indexed": false,
          "internalType": "uint256",
          "name": "bridgeAmount",
          "type": "uint256"
        },
        {
          "indexed": false,
          "internalType": "string",
          "name": "bridgeProvider",
          "type": "string"
        }
      ],
      "name": "RequestSent",
      "type": "event"
    },
    {
      "anonymous": false,
      "inputs": [
        {
          "indexed": false,
          "internalType": "string[]",
          "name": "_bridgeProviders",
          "type": "string[]"
        },
        {
          "indexed": false,
          "internalType": "address[]",
          "name": "_bridgeAdapters",
          "type": "address[]"
        }
      ],
      "name": "SupportedBridgesUpdated",
      "type": "event"
    },
    {
      "anonymous": false,
      "inputs": [
        {
          "indexed": false,
          "internalType": "address",
          "name": "dex",
          "type": "address"
        },
        {
          "indexed": false,
          "internalType": "bytes4",
          "name": "selector",
          "type": "bytes4"
        },
        {
          "indexed": false,
          "internalType": "bool",
          "name": "enabled",
          "type": "bool"
        }
      ],
      "name": "SupportedDexUpdated",
      "type": "event"
    },
    {
      "inputs": [],
      "name": "MULTICHAIN_PROVIDER_HASH",
      "outputs": [
        {
          "internalType": "bytes32",
          "name": "",
          "type": "bytes32"
        }
      ],
      "stateMutability": "view",
      "type": "function"
    },
    {
      "inputs": [
        {
          "internalType": "bytes32",
          "name": "",
          "type": "bytes32"
        }
      ],
      "name": "bridges",
      "outputs": [
        {
          "internalType": "contract IBridgeAdapter",
          "name": "",
          "type": "address"
        }
      ],
      "stateMutability": "view",
      "type": "function"
    },
    {
      "inputs": [
        {
          "internalType": "uint256",
          "name": "",
          "type": "uint256"
        }
      ],
      "name": "codecs",
      "outputs": [
        {
          "internalType": "address",
          "name": "",
          "type": "address"
        }
      ],
      "stateMutability": "view",
      "type": "function"
    },
    {
      "inputs": [
        {
          "internalType": "address",
          "name": "",
          "type": "address"
        },
        {
          "internalType": "bytes4",
          "name": "",
          "type": "bytes4"
        }
      ],
      "name": "dexRegistry",
      "outputs": [
        {
          "internalType": "bool",
          "name": "",
          "type": "bool"
        }
      ],
      "stateMutability": "view",
      "type": "function"
    },
    {
      "inputs": [],
      "name": "nativeWrap",
      "outputs": [
        {
          "internalType": "address",
          "name": "",
          "type": "address"
        }
      ],
      "stateMutability": "view",
      "type": "function"
    },
    {
      "inputs": [],
      "name": "owner",
      "outputs": [
        {
          "internalType": "address",
          "name": "",
          "type": "address"
        }
      ],
      "stateMutability": "view",
      "type": "function"
    },
    {
      "inputs": [],
      "name": "renounceOwnership",
      "outputs": [],
      "stateMutability": "nonpayable",
      "type": "function"
    },
    {
      "inputs": [
        {
          "internalType": "bytes4",
          "name": "",
          "type": "bytes4"
        }
      ],
      "name": "selector2codec",
      "outputs": [
        {
          "internalType": "contract ICodec",
          "name": "",
          "type": "address"
        }
      ],
      "stateMutability": "view",
      "type": "function"
    },
    {
      "inputs": [
        {
          "internalType": "string",
          "name": "_funcSig",
          "type": "string"
        },
        {
          "internalType": "address",
          "name": "_codec",
          "type": "address"
        }
      ],
      "name": "setCodec",
      "outputs": [],
      "stateMutability": "nonpayable",
      "type": "function"
    },
    {
      "inputs": [
        {
          "internalType": "string[]",
          "name": "_bridgeProviders",
          "type": "string[]"
        },
        {
          "internalType": "address[]",
          "name": "_bridgeAdapters",
          "type": "address[]"
        }
      ],
      "name": "setSupportedBridges",
      "outputs": [],
      "stateMutability": "nonpayable",
      "type": "function"
    },
    {
      "inputs": [
        {
          "internalType": "address",
          "name": "_dex",
          "type": "address"
        },
        {
          "internalType": "bytes4",
          "name": "_selector",
          "type": "bytes4"
        },
        {
          "internalType": "bool",
          "name": "_enabled",
          "type": "bool"
        }
      ],
      "name": "setSupportedDex",
      "outputs": [],
      "stateMutability": "nonpayable",
      "type": "function"
    },
    {
      "inputs": [
        {
          "internalType": "address",
          "name": "newOwner",
          "type": "address"
        }
      ],
      "name": "transferOwnership",
      "outputs": [],
      "stateMutability": "nonpayable",
      "type": "function"
    },
    {
      "inputs": [
        {
          "components": [
            {
              "internalType": "address",
              "name": "receiver",
              "type": "address"
            },
            {
              "internalType": "uint64",
              "name": "dstChainId",
              "type": "uint64"
            },
            {
              "internalType": "address",
              "name": "dstTransferSwapper",
              "type": "address"
            },
            {
              "internalType": "uint64",
              "name": "nonce",
              "type": "uint64"
            },
            {
              "internalType": "string",
              "name": "bridgeProvider",
              "type": "string"
            },
            {
              "internalType": "bytes",
              "name": "bridgeParams",
              "type": "bytes"
            },
            {
              "internalType": "bool",
              "name": "nativeIn",
              "type": "bool"
            },
            {
              "internalType": "bool",
              "name": "nativeOut",
              "type": "bool"
            },
            {
              "internalType": "uint256",
              "name": "amountIn",
              "type": "uint256"
            },
            {
              "internalType": "address",
              "name": "tokenIn",
              "type": "address"
            },
            {
              "internalType": "address",
              "name": "dstTokenOut",
              "type": "address"
            },
            {
              "internalType": "bool",
              "name": "allowPartialFill",
              "type": "bool"
            }
          ],
          "internalType": "struct Types.TransferDescription",
          "name": "_desc",
          "type": "tuple"
        },
        {
          "components": [
            {
              "internalType": "address",
              "name": "dex",
              "type": "address"
            },
            {
              "internalType": "bytes",
              "name": "data",
              "type": "bytes"
            }
          ],
          "internalType": "struct ICodec.SwapDescription[]",
          "name": "_srcSwaps",
          "type": "tuple[]"
        },
        {
          "components": [
            {
              "internalType": "address",
              "name": "dex",
              "type": "address"
            },
            {
              "internalType": "bytes",
              "name": "data",
              "type": "bytes"
            }
          ],
          "internalType": "struct ICodec.SwapDescription[]",
          "name": "_dstSwaps",
          "type": "tuple[]"
        }
      ],
      "name": "transferWithSwap",
      "outputs": [],
      "stateMutability": "payable",
      "type": "function"
    }
  ],
  "bytecode": "0x60a06040523480156200001157600080fd5b5060405162002e5c38038062002e5c83398101604081905262000034916200054e565b600160005583838383818185856200004c336200022c565b80518251146200008c5760405162461bcd60e51b81526020600482015260066024820152656c656e206d6d60d01b60448201526064015b60405180910390fd5b60005b82518110156200011d576000838281518110620000bc57634e487b7160e01b600052603260045260246000fd5b60200260200101518051906020012090506200010781848481518110620000f357634e487b7160e01b600052603260045260246000fd5b60200260200101516200027e60201b60201c565b508062000114816200066f565b9150506200008f565b50505060005b8251811015620001b35760008282815181106200015057634e487b7160e01b600052603260045260246000fd5b60200260200101518051906020012090506200019d8483815181106200018657634e487b7160e01b600052603260045260246000fd5b6020026020010151826001620002f060201b60201c565b5080620001aa816200066f565b91505062000123565b5050600680546001600160a01b0319166001600160a01b039b909b169a909a17909955505060408051808201909152600a81526936bab63a34b1b430b4b760b11b60209091015250507fb014aac5b0d6328e584ecc632bc05bad2f720d727ce213821a987cb58870364060805250620006ad9350505050565b600180546001600160a01b038381166001600160a01b0319831681179093556040519116919082907f8be0079c531659141344cd1fd0a4f28419497f9722a3daafe3b4186f6b6457e090600090a35050565b6001600160e01b0319909116600090815260036020526040812080546001600160a01b039093166001600160a01b031993841681179091556004805460018101825592527f8a35acfbc15ff81a39ae7d344fd709f28e8600b4aa8c65c6b64bfe7fe36bd19b9091018054909216179055565b6001600160a01b03831660009081526005602090815260408083206001600160e01b03198616845290915290205460ff1680151582151514156200035d5760405162461bcd60e51b815260206004820152600360248201526206e6f760ec1b604482015260640162000083565b506001600160a01b0390921660009081526005602090815260408083206001600160e01b0319909416835292905220805491151560ff19909216919091179055565b80516001600160a01b0381168114620003b757600080fd5b919050565b600082601f830112620003cd578081fd5b81516020620003e6620003e08362000649565b62000616565b80838252828201915082860187848660051b890101111562000406578586fd5b855b858110156200042f576200041c826200039f565b8452928401929084019060010162000408565b5090979650505050505050565b6000601f83818401126200044e578182fd5b8251602062000461620003e08362000649565b80838252828201915082870188848660051b8a0101111562000481578687fd5b865b85811015620005405781516001600160401b0380821115620004a357898afd5b818b0191508b603f830112620004b757898afd5b8682015181811115620004ce57620004ce62000697565b620004e1818b01601f1916890162000616565b915080825260408d81838601011115620004f9578b8cfd5b8b5b8281101562000518578481018201518482018b01528901620004fb565b8281111562000529578c8a84860101525b505050855250928401929084019060010162000483565b509098975050505050505050565b600080600080600060a0868803121562000566578081fd5b62000571866200039f565b60208701519095506001600160401b03808211156200058e578283fd5b6200059c89838a016200043c565b95506040880151915080821115620005b2578283fd5b620005c089838a01620003bc565b94506060880151915080821115620005d6578283fd5b620005e489838a01620003bc565b93506080880151915080821115620005fa578283fd5b5062000609888289016200043c565b9150509295509295909350565b604051601f8201601f191681016001600160401b038111828210171562000641576200064162000697565b604052919050565b60006001600160401b0382111562000665576200066562000697565b5060051b60200190565b60006000198214156200069057634e487b7160e01b81526011600452602481fd5b5060010190565b634e487b7160e01b600052604160045260246000fd5b60805161278d620006cf6000396000818160d9015261077b015261278d6000f3fe6080604052600436106100c25760003560e01c8063918ead761161007f578063eeaaa65111610059578063eeaaa65114610246578063f2fde38b1461027c578063fab1268d1461029c578063fbf5d763146102af57600080fd5b8063918ead76146101bb57806391ec04b5146101db578063c5bccca31461022657600080fd5b806327eaae80146100c7578063457bfa2f1461010e578063675df75914610146578063715018a61461016857806382665a8f1461017d5780638da5cb5b1461019d575b600080fd5b3480156100d357600080fd5b506100fb7f000000000000000000000000000000000000000000000000000000000000000081565b6040519081526020015b60405180910390f35b34801561011a57600080fd5b5060065461012e906001600160a01b031681565b6040516001600160a01b039091168152602001610105565b34801561015257600080fd5b50610166610161366004611d48565b6102e5565b005b34801561017457600080fd5b50610166610350565b34801561018957600080fd5b5061012e610198366004611e30565b610364565b3480156101a957600080fd5b506001546001600160a01b031661012e565b3480156101c757600080fd5b506101666101d6366004611d90565b61038e565b3480156101e757600080fd5b506102166101f6366004611d14565b600560209081526000928352604080842090915290825290205460ff1681565b6040519015158152602001610105565b34801561023257600080fd5b50610166610241366004611ed4565b6104f6565b34801561025257600080fd5b5061012e610261366004611e30565b6002602052600090815260409020546001600160a01b031681565b34801561028857600080fd5b50610166610297366004611cf8565b6105d9565b6101666102aa366004611f46565b610652565b3480156102bb57600080fd5b5061012e6102ca366004611e48565b6003602052600090815260409020546001600160a01b031681565b6102ed610a3a565b6102f8838383610a94565b604080516001600160a01b03851681526001600160e01b0319841660208201528215158183015290517f5e20184b00709d9f103306958e9fb9d509f78bec1829ca7080f2c43eb2ff21a89181900360600190a1505050565b610358610a3a565b6103626000610b2b565b565b6004818154811061037457600080fd5b6000918252602090912001546001600160a01b0316905081565b610396610a3a565b8281146103e15760405162461bcd60e51b81526020600482015260146024820152730e0c2e4c2dae640e6d2f4ca40dad2e6dac2e8c6d60631b60448201526064015b60405180910390fd5b60005b838110156104b25782828281811061040c57634e487b7160e01b600052603260045260246000fd5b90506020020160208101906104219190611cf8565b6002600087878581811061044557634e487b7160e01b600052603260045260246000fd5b905060200281019061045791906123e1565b604051610465929190612113565b6040518091039020815260200190815260200160002060006101000a8154816001600160a01b0302191690836001600160a01b0316021790555080806104aa906126ed565b9150506103e4565b507f68d2b5e14eb61b73f2dfa46a255dcba81a3b53259093a83c90da69c3ade70b96848484846040516104e8949392919061213f565b60405180910390a150505050565b6104fe610a3a565b60008383604051610510929190612113565b6040518091039020905061059181836001600160e01b0319909116600090815260036020526040812080546001600160a01b039093166001600160a01b031993841681179091556004805460018101825592527f8a35acfbc15ff81a39ae7d344fd709f28e8600b4aa8c65c6b64bfe7fe36bd19b9091018054909216179055565b604080516001600160e01b0319831681526001600160a01b03841660208201527f58ddcdb40971f55ad1b6a8a28067274a4ffc7e9d77c3ea14a17652faa705e19791016104e8565b6105e1610a3a565b6001600160a01b0381166106465760405162461bcd60e51b815260206004820152602660248201527f4f776e61626c653a206e6577206f776e657220697320746865207a65726f206160448201526564647265737360d01b60648201526084016103d8565b61064f81610b2b565b50565b600260005414156106a55760405162461bcd60e51b815260206004820152601f60248201527f5265656e7472616e637947756172643a207265656e7472616e742063616c6c0060448201526064016103d8565b6002600055821515806106d957506001600160401b0346166106cd604087016020880161202d565b6001600160401b031614155b6106f55760405162461bcd60e51b81526004016103d8906122ab565b8215158061072d57506101008501351580159061072d5750600061072161014087016101208801611cf8565b6001600160a01b031614155b6107495760405162461bcd60e51b81526004016103d8906122ab565b600061075860808701876123e1565b604051610766929190612113565b604051908190039020905081158061079d57507f000000000000000000000000000000000000000000000000000000000000000081145b6107e95760405162461bcd60e51b815260206004820152601b60248201527f62726964676520646f6573206e6f7420737570706f7274206d7367000000000060448201526064016103d8565b600081815260026020908152604091829020546001600160a01b0316916001600160401b0346169161081f918a01908a0161202d565b6001600160401b0316148061083c57506001600160a01b03811615155b61087d5760405162461bcd60e51b8152602060048201526012602482015271756e737570706f727465642062726964676560701b60448201526064016103d8565b610100870135606060006108996101408b016101208c01611cf8565b905060006108af6101408c016101208d01611cf8565b905088156108d4576108c96108c48a8c6124d4565b610b7d565b929650919450925090505b6108e460e08c0160c08d01611df8565b156109e7576006546001600160a01b0383811691161461093b5760405162461bcd60e51b81526020600482015260126024820152710746b696e206e6f206e6174697665577261760741b60448201526064016103d8565b833410156109795760405162461bcd60e51b815260206004820152600b60248201526a1a5b9cd998db9d08185b5d60aa1b60448201526064016103d8565b600660009054906101000a90046001600160a01b03166001600160a01b031663d0e30db0856040518263ffffffff1660e01b81526004016000604051808303818588803b1580156109c957600080fd5b505af11580156109dd573d6000803e3d6000fd5b50505050506109fc565b6109fc6001600160a01b038316333087610e52565b610a28828286610a0b8f6125b0565b8e8e90610a1891906124d4565b610a228d8f6124d4565b89610ec3565b50506001600055505050505050505050565b6001546001600160a01b031633146103625760405162461bcd60e51b815260206004820181905260248201527f4f776e61626c653a2063616c6c6572206973206e6f7420746865206f776e657260448201526064016103d8565b6001600160a01b03831660009081526005602090815260408083206001600160e01b03198616845290915290205460ff168015158215151415610ae95760405162461bcd60e51b81526004016103d8906122ab565b506001600160a01b0390921660009081526005602090815260408083206001600160e01b0319909416835292905220805491151560ff19909216919091179055565b600180546001600160a01b038381166001600160a01b0319831681179093556040519116919082907f8be0079c531659141344cd1fd0a4f28419497f9722a3daafe3b4186f6b6457e090600090a35050565b60008060006060600080610b908761103d565b925060005b8751811015610e485760056000898381518110610bc257634e487b7160e01b600052603260045260246000fd5b6020026020010151600001516001600160a01b03166001600160a01b031681526020019081526020016000206000610c248a8481518110610c1357634e487b7160e01b600052603260045260246000fd5b6020026020010151602001516111c1565b6001600160e01b031916815260208101919091526040016000205460ff16610c805760405162461bcd60e51b815260206004820152600f60248201526e0eadce6eae0e0dee4e8cac840c8caf608b1b60448201526064016103d8565b6000806000868481518110610ca557634e487b7160e01b600052603260045260246000fd5b60200260200101516001600160a01b031663358f0e1c8c8681518110610cdb57634e487b7160e01b600052603260045260246000fd5b60200260200101516040518263ffffffff1660e01b8152600401610cff919061236d565b60606040518083038186803b158015610d1757600080fd5b505afa158015610d2b573d6000803e3d6000fd5b505050506040513d601f19601f82011682018060405250810190610d4f9190611ff6565b919450925090506001600160a01b0386161580610d7d5750816001600160a01b0316866001600160a01b0316145b610db95760405162461bcd60e51b815260206004820152600d60248201526c0e8d6d2dc40dad2e6dac2e8c6d609b1b60448201526064016103d8565b90945084906001600160a01b0385161580610de55750806001600160a01b0316856001600160a01b0316145b610e205760405162461bcd60e51b815260206004820152600c60248201526b0e8d6de40dad2e6dac2e8c6d60a31b60448201526064016103d8565b935083610e2d838b6124a5565b99509097509550819050610e40816126ed565b915050610b95565b5050509193509193565b6040516001600160a01b0380851660248301528316604482015260648101829052610ebd9085906323b872dd60e01b906084015b60408051601f198184030181529190526020810180516001600160e01b03166001600160e01b0319909316929092179091526111dd565b50505050565b8251859015610f17576000610ed885846112b4565b9250905080610f155760405162461bcd60e51b81526020600482015260096024820152681cddd85c0819985a5b60ba1b60448201526064016103d8565b505b6000610f90866000015187606001516040516bffffffffffffffffffffffff1933606090811b8216602084015284901b1660348201526001600160c01b03194660c090811b8216604884015283901b16605082015260009060580160405160208183030381529060405280519060200120905092915050565b9050466001600160401b031686602001516001600160401b0316141561102257610fc4888388600001518960e00151611684565b60408051828152602081018990526001600160a01b038b811682840152606082018590528a16608082015290517f0e248ac8be20725176a5f0ab093c5fbb964634d4675012f3d3ad66e69e56d5b79181900360a00190a15050611034565b611031818a8a89888c886117e2565b50505b50505050505050565b6060600082516001600160401b0381111561106857634e487b7160e01b600052604160045260246000fd5b604051908082528060200260200182016040528015611091578160200160208202803683370190505b50905060005b83518110156111ba5760006110c5858381518110610c1357634e487b7160e01b600052603260045260246000fd5b6001600160e01b0319811660009081526003602052604090205484519192506001600160a01b03169084908490811061110e57634e487b7160e01b600052603260045260246000fd5b60200260200101906001600160a01b031690816001600160a01b03168152505060006001600160a01b031683838151811061115957634e487b7160e01b600052603260045260246000fd5b60200260200101516001600160a01b031614156111a75760405162461bcd60e51b815260206004820152600c60248201526b18d918c81b9bc8199bdd5b9960a21b60448201526064016103d8565b50806111b2816126ed565b915050611097565b5092915050565b60008151600014156111d557506000919050565b506020015190565b6000611232826040518060400160405280602081526020017f5361666545524332303a206c6f772d6c6576656c2063616c6c206661696c6564815250856001600160a01b031661193c9092919063ffffffff16565b8051909150156112af57808060200190518101906112509190611e14565b6112af5760405162461bcd60e51b815260206004820152602a60248201527f5361666545524332303a204552433230206f7065726174696f6e20646964206e6044820152691bdd081cdd58d8d9595960b21b60648201526084016103d8565b505050565b60008060005b845181101561167b5760008060008684815181106112e857634e487b7160e01b600052603260045260246000fd5b60200260200101516001600160a01b031663358f0e1c89868151811061131e57634e487b7160e01b600052603260045260246000fd5b60200260200101516040518263ffffffff1660e01b8152600401611342919061236d565b60606040518083038186803b15801561135a57600080fd5b505afa15801561136e573d6000803e3d6000fd5b505050506040513d601f19601f820116820180604052508101906113929190611ff6565b92509250925060008785815181106113ba57634e487b7160e01b600052603260045260246000fd5b60200260200101516001600160a01b0316634c6da2698a87815181106113f057634e487b7160e01b600052603260045260246000fd5b60200260200101516020015186306040518463ffffffff1660e01b815260040161141c93929190612265565b60006040518083038186803b15801561143457600080fd5b505afa158015611448573d6000803e3d6000fd5b505050506040513d6000823e601f3d908101601f191682016040526114709190810190611e62565b90506114b289868151811061149557634e487b7160e01b600052603260045260246000fd5b6020908102919091010151516001600160a01b0385169086611955565b6040516370a0823160e01b81523060048201526000906001600160a01b038416906370a082319060240160206040518083038186803b1580156114f457600080fd5b505afa158015611508573d6000803e3d6000fd5b505050506040513d601f19601f8201168201806040525081019061152c9190611fde565b905089868151811061154e57634e487b7160e01b600052603260045260246000fd5b6020026020010151600001516001600160a01b0316826040516115719190612123565b6000604051808303816000865af19150503d80600081146115ae576040519150601f19603f3d011682016040523d82523d6000602084013e6115b3565b606091505b505080985050876115d0576000809750975050505050505061167d565b6040516370a0823160e01b81523060048201526000906001600160a01b038516906370a082319060240160206040518083038186803b15801561161257600080fd5b505afa158015611626573d6000803e3d6000fd5b505050506040513d601f19601f8201168201806040525081019061164a9190611fde565b905061165682826124bd565b61166090896124a5565b97505050505050508080611673906126ed565b9150506112ba565b505b9250929050565b80156117ce576006546001600160a01b038581169116146116d65760405162461bcd60e51b815260206004820152600c60248201526b746b206e6f206e617469766560a01b60448201526064016103d8565b600654604051632e1a7d4d60e01b8152600481018590526001600160a01b0390911690632e1a7d4d90602401600060405180830381600087803b15801561171c57600080fd5b505af1158015611730573d6000803e3d6000fd5b505050506000826001600160a01b03168461c35090604051600060405180830381858888f193505050503d8060008114611786576040519150601f19603f3d011682016040523d82523d6000602084013e61178b565b606091505b50509050806117c85760405162461bcd60e51b81526020600482015260096024820152681cd95b990819985a5b60ba1b60448201526064016103d8565b50610ebd565b610ebd6001600160a01b0385168385611a16565b6000808451116117f35784516117f9565b84604001515b608086015180516020918201206000908152600290915260409020549091506060906001600160a01b03908116906118349089168286611955565b60006118418b8989611a46565b9050816001600160a01b031663834bc3ea896020015186888d8d60a00151876040518763ffffffff1660e01b815260040161188196959493929190612380565b600060405180830381600087803b15801561189b57600080fd5b505af11580156118af573d6000803e3d6000fd5b505050506040513d6000823e601f3d908101601f191682016040526118d79190810190611e62565b925050507f082e2f634ceec1af5105aa53f234b7efad94428a54a714e3b7c7115ee549308089828860200151878c8b6101400151888e8b8f608001516040516119299a999897969594939291906121e0565b60405180910390a1505050505050505050565b606061194b8484600085611ab1565b90505b9392505050565b604051636eb1769f60e11b81523060048201526001600160a01b038381166024830152600091839186169063dd62ed3e9060440160206040518083038186803b1580156119a157600080fd5b505afa1580156119b5573d6000803e3d6000fd5b505050506040513d601f19601f820116820180604052508101906119d99190611fde565b6119e391906124a5565b6040516001600160a01b038516602482015260448101829052909150610ebd90859063095ea7b360e01b90606401610e86565b6040516001600160a01b0383166024820152604481018290526112af90849063a9059cbb60e01b90606401610e86565b60606040518060a0016040528085815260200183815260200184600001516001600160a01b031681526020018460e00151151581526020018461016001511515815250604051602001611a9991906122c8565b60405160208183030381529060405290509392505050565b606082471015611b125760405162461bcd60e51b815260206004820152602660248201527f416464726573733a20696e73756666696369656e742062616c616e636520666f6044820152651c8818d85b1b60d21b60648201526084016103d8565b6001600160a01b0385163b611b695760405162461bcd60e51b815260206004820152601d60248201527f416464726573733a2063616c6c20746f206e6f6e2d636f6e747261637400000060448201526064016103d8565b600080866001600160a01b03168587604051611b859190612123565b60006040518083038185875af1925050503d8060008114611bc2576040519150601f19603f3d011682016040523d82523d6000602084013e611bc7565b606091505b5091509150611bd7828286611be2565b979650505050505050565b60608315611bf157508161194e565b825115611c015782518084602001fd5b8160405162461bcd60e51b81526004016103d89190612298565b8035611c2681612734565b919050565b60008083601f840112611c3c578182fd5b5081356001600160401b03811115611c52578182fd5b6020830191508360208260051b850101111561167d57600080fd5b8035611c2681612749565b80356001600160e01b031981168114611c2657600080fd5b600082601f830112611ca0578081fd5b8135611cb3611cae8261247e565b61244e565b818152846020838601011115611cc7578283fd5b816020850160208301379081016020019190915292915050565b80356001600160401b0381168114611c2657600080fd5b600060208284031215611d09578081fd5b813561194e81612734565b60008060408385031215611d26578081fd5b8235611d3181612734565b9150611d3f60208401611c78565b90509250929050565b600080600060608486031215611d5c578081fd5b8335611d6781612734565b9250611d7560208501611c78565b91506040840135611d8581612749565b809150509250925092565b60008060008060408587031215611da5578182fd5b84356001600160401b0380821115611dbb578384fd5b611dc788838901611c2b565b90965094506020870135915080821115611ddf578384fd5b50611dec87828801611c2b565b95989497509550505050565b600060208284031215611e09578081fd5b813561194e81612749565b600060208284031215611e25578081fd5b815161194e81612749565b600060208284031215611e41578081fd5b5035919050565b600060208284031215611e59578081fd5b61194e82611c78565b600060208284031215611e73578081fd5b81516001600160401b03811115611e88578182fd5b8201601f81018413611e98578182fd5b8051611ea6611cae8261247e565b818152856020838501011115611eba578384fd5b611ecb8260208301602086016126c1565b95945050505050565b600080600060408486031215611ee8578081fd5b83356001600160401b0380821115611efe578283fd5b818601915086601f830112611f11578283fd5b813581811115611f1f578384fd5b876020828501011115611f30578384fd5b60209283019550935050840135611d8581612734565b600080600080600060608688031215611f5d578283fd5b85356001600160401b0380821115611f73578485fd5b90870190610180828a031215611f87578485fd5b90955060208701359080821115611f9c578485fd5b611fa889838a01611c2b565b90965094506040880135915080821115611fc0578283fd5b50611fcd88828901611c2b565b969995985093965092949392505050565b600060208284031215611fef578081fd5b5051919050565b60008060006060848603121561200a578081fd5b83519250602084015161201c81612734565b6040850151909250611d8581612734565b60006020828403121561203e578081fd5b61194e82611ce1565b81835260006020808501945082825b8581101561208457813561206981612734565b6001600160a01b031687529582019590820190600101612056565b509495945050505050565b600081518084526120a78160208601602086016126c1565b601f01601f19169290920160200192915050565b81835281816020850137506000828201602090810191909152601f909101601f19169091010190565b60018060a01b038151168252600060208201516040602085015261210b604085018261208f565b949350505050565b8183823760009101908152919050565b600082516121358184602087016126c1565b9190910192915050565b6040808252810184905260006060600586901b8301810190830187835b888110156121ca57858403605f190183528135368b9003601e19018112612181578586fd5b8a01803560206001600160401b0382111561219a578788fd5b8136038d13156121a8578788fd5b6121b587838386016120bb565b9650948501949390930192505060010161215c565b5050508281036020840152611bd7818587612047565b60006101408c83528060208401526121fa8184018d61208f565b6001600160401b038c166040850152606084018b90526001600160a01b038a8116608086015289811660a086015288811660c0860152871660e085015261010084018690528381036101208501529050612254818561208f565b9d9c50505050505050505050505050565b606081526000612278606083018661208f565b6020830194909452506001600160a01b0391909116604090910152919050565b60208152600061194e602083018461208f565b60208082526003908201526206e6f760ec1b604082015260600190565b6000602080835260c083018451828501528185015160a0604086015281815180845260e08701915060e08160051b88010193508483019250855b818110156123305760df1988860301835261231e8585516120e4565b94509285019291850191600101612302565b5050505060408501516001600160a01b03811660608601529150606085015180151560808601529150608085015180151560a0860152915061210b565b60208152600061194e60208301846120e4565b6001600160401b03871681526001600160a01b038681166020830152604082018690528416606082015260c0608082018190526000906123c29083018561208f565b82810360a08401526123d4818561208f565b9998505050505050505050565b6000808335601e198436030181126123f7578283fd5b8301803591506001600160401b03821115612410578283fd5b60200191503681900382131561167d57600080fd5b60405161018081016001600160401b03811182821017156124485761244861271e565b60405290565b604051601f8201601f191681016001600160401b03811182821017156124765761247661271e565b604052919050565b60006001600160401b038211156124975761249761271e565b50601f01601f191660200190565b600082198211156124b8576124b8612708565b500190565b6000828210156124cf576124cf612708565b500390565b60006001600160401b03808411156124ee576124ee61271e565b8360051b60206124ff81830161244e565b8681528181019086368582011115612515578687fd5b8694505b888510156125a45780358681111561252f578788fd5b8801604036829003811315612542578889fd5b80518181018181108a8211171561255b5761255b61271e565b90915281359061256a82612734565b90815281860135908882111561257e57898afd5b61258a36838501611c90565b818801528552505060019490940193918301918301612519565b50979650505050505050565b600061018082360312156125c2578081fd5b6125ca612425565b6125d383611c1b565b81526125e160208401611ce1565b60208201526125f260408401611c1b565b604082015261260360608401611ce1565b606082015260808301356001600160401b0380821115612621578384fd5b61262d36838701611c90565b608084015260a0850135915080821115612645578384fd5b5061265236828601611c90565b60a08301525061266460c08401611c6d565b60c082015261267560e08401611c6d565b60e08201526101008381013590820152610120612693818501611c1b565b908201526101406126a5848201611c1b565b908201526101606126b7848201611c6d565b9082015292915050565b60005b838110156126dc5781810151838201526020016126c4565b83811115610ebd5750506000910152565b600060001982141561270157612701612708565b5060010190565b634e487b7160e01b600052601160045260246000fd5b634e487b7160e01b600052604160045260246000fd5b6001600160a01b038116811461064f57600080fd5b801515811461064f57600080fdfea2646970667358221220ca559e0a166e4a4bb793740d8f073090ff36412d50877176f2e25c868a1ba6f264736f6c63430008040033",
  "linkReferences": {},
  "deployedLinkReferences": {}
}