{
  "_format": "hh-sol-artifact-1",
  "contractName": "TransferSwapper",
  "sourceName": "contracts/crosschain-swap/TransferSwapper.sol",
  "abi": [
    {
      "inputs": [
        {
          "internalType": "address",
          "name": "_nativeWrap",
          "type": "address"
        },
        {
          "internalType": "string[]",
          "name": "_funcSigs",
          "type": "string[]"
        },
        {
          "internalType": "address[]",
          "name": "_codecs",
          "type": "address[]"
        },
        {
          "internalType": "address[]",
          "name": "_supportedDexList",
          "type": "address[]"
        },
        {
          "internalType": "string[]",
          "name": "_supportedDexFuncs",
          "type": "string[]"
        }
      ],
      "stateMutability": "nonpayable",
      "type": "constructor"
    },
    {
      "anonymous": false,
      "inputs": [
        {
          "indexed": false,
          "internalType": "bytes4",
          "name": "selector",
          "type": "bytes4"
        },
        {
          "indexed": false,
          "internalType": "address",
          "name": "codec",
          "type": "address"
        }
      ],
      "name": "CodecUpdated",
      "type": "event"
    },
    {
      "anonymous": false,
      "inputs": [
        {
          "indexed": false,
          "internalType": "bytes32",
          "name": "id",
          "type": "bytes32"
        },
        {
          "indexed": false,
          "internalType": "uint256",
          "name": "amountIn",
          "type": "uint256"
        },
        {
          "indexed": false,
          "internalType": "address",
          "name": "tokenIn",
          "type": "address"
        },
        {
          "indexed": false,
          "internalType": "uint256",
          "name": "amountOut",
          "type": "uint256"
        },
        {
          "indexed": false,
          "internalType": "address",
          "name": "tokenOut",
          "type": "address"
        }
      ],
      "name": "DirectSwap",
      "type": "event"
    },
    {
      "anonymous": false,
      "inputs": [
        {
          "indexed": false,
          "internalType": "address",
          "name": "dex",
          "type": "address"
        },
        {
          "indexed": false,
          "internalType": "bool",
          "name": "enabled",
          "type": "bool"
        }
      ],
      "name": "ExternalSwapUpdated",
      "type": "event"
    },
    {
      "anonymous": false,
      "inputs": [
        {
          "indexed": true,
          "internalType": "address",
          "name": "previousOwner",
          "type": "address"
        },
        {
          "indexed": true,
          "internalType": "address",
          "name": "newOwner",
          "type": "address"
        }
      ],
      "name": "OwnershipTransferred",
      "type": "event"
    },
    {
      "anonymous": false,
      "inputs": [
        {
          "indexed": false,
          "internalType": "bytes32",
          "name": "id",
          "type": "bytes32"
        },
        {
          "indexed": false,
          "internalType": "bytes",
          "name": "bridgeResp",
          "type": "bytes"
        },
        {
          "indexed": false,
          "internalType": "uint64",
          "name": "dstChainId",
          "type": "uint64"
        },
        {
          "indexed": false,
          "internalType": "uint256",
          "name": "srcAmount",
          "type": "uint256"
        },
        {
          "indexed": false,
          "internalType": "address",
          "name": "srcToken",
          "type": "address"
        },
        {
          "indexed": false,
          "internalType": "address",
          "name": "dstToken",
          "type": "address"
        },
        {
          "indexed": false,
          "internalType": "address",
          "name": "bridgeOutReceiver",
          "type": "address"
        },
        {
          "indexed": false,
          "internalType": "address",
          "name": "bridgeToken",
          "type": "address"
        },
        {
          "indexed": false,
          "internalType": "uint256",
          "name": "bridgeAmount",
          "type": "uint256"
        },
        {
          "indexed": false,
          "internalType": "string",
          "name": "bridgeProvider",
          "type": "string"
        }
      ],
      "name": "RequestSent",
      "type": "event"
    },
    {
      "anonymous": false,
      "inputs": [
        {
          "indexed": false,
          "internalType": "string[]",
          "name": "_bridgeProviders",
          "type": "string[]"
        },
        {
          "indexed": false,
          "internalType": "address[]",
          "name": "_bridgeAdapters",
          "type": "address[]"
        }
      ],
      "name": "SupportedBridgesUpdated",
      "type": "event"
    },
    {
      "anonymous": false,
      "inputs": [
        {
          "indexed": false,
          "internalType": "address",
          "name": "dex",
          "type": "address"
        },
        {
          "indexed": false,
          "internalType": "bytes4",
          "name": "selector",
          "type": "bytes4"
        },
        {
          "indexed": false,
          "internalType": "bool",
          "name": "enabled",
          "type": "bool"
        }
      ],
      "name": "SupportedDexUpdated",
      "type": "event"
    },
    {
      "inputs": [],
      "name": "MULTICHAIN_PROVIDER_HASH",
      "outputs": [
        {
          "internalType": "bytes32",
          "name": "",
          "type": "bytes32"
        }
      ],
      "stateMutability": "view",
      "type": "function"
    },
    {
      "inputs": [
        {
          "internalType": "bytes32",
          "name": "",
          "type": "bytes32"
        }
      ],
      "name": "bridges",
      "outputs": [
        {
          "internalType": "contract IBridgeAdapter",
          "name": "",
          "type": "address"
        }
      ],
      "stateMutability": "view",
      "type": "function"
    },
    {
      "inputs": [
        {
          "internalType": "uint256",
          "name": "",
          "type": "uint256"
        }
      ],
      "name": "codecs",
      "outputs": [
        {
          "internalType": "address",
          "name": "",
          "type": "address"
        }
      ],
      "stateMutability": "view",
      "type": "function"
    },
    {
      "inputs": [
        {
          "internalType": "address",
          "name": "",
          "type": "address"
        },
        {
          "internalType": "bytes4",
          "name": "",
          "type": "bytes4"
        }
      ],
      "name": "dexRegistry",
      "outputs": [
        {
          "internalType": "bool",
          "name": "",
          "type": "bool"
        }
      ],
      "stateMutability": "view",
      "type": "function"
    },
    {
      "inputs": [
        {
          "internalType": "address",
          "name": "",
          "type": "address"
        }
      ],
      "name": "externalSwap",
      "outputs": [
        {
          "internalType": "bool",
          "name": "",
          "type": "bool"
        }
      ],
      "stateMutability": "view",
      "type": "function"
    },
    {
      "inputs": [],
      "name": "nativeWrap",
      "outputs": [
        {
          "internalType": "address",
          "name": "",
          "type": "address"
        }
      ],
      "stateMutability": "view",
      "type": "function"
    },
    {
      "inputs": [],
      "name": "owner",
      "outputs": [
        {
          "internalType": "address",
          "name": "",
          "type": "address"
        }
      ],
      "stateMutability": "view",
      "type": "function"
    },
    {
      "inputs": [],
      "name": "renounceOwnership",
      "outputs": [],
      "stateMutability": "nonpayable",
      "type": "function"
    },
    {
      "inputs": [
        {
          "internalType": "bytes4",
          "name": "",
          "type": "bytes4"
        }
      ],
      "name": "selector2codec",
      "outputs": [
        {
          "internalType": "contract ICodec",
          "name": "",
          "type": "address"
        }
      ],
      "stateMutability": "view",
      "type": "function"
    },
    {
      "inputs": [
        {
          "internalType": "string",
          "name": "_funcSig",
          "type": "string"
        },
        {
          "internalType": "address",
          "name": "_codec",
          "type": "address"
        }
      ],
      "name": "setCodec",
      "outputs": [],
      "stateMutability": "nonpayable",
      "type": "function"
    },
    {
      "inputs": [
        {
          "internalType": "address",
          "name": "_dex",
          "type": "address"
        },
        {
          "internalType": "bool",
          "name": "_enabled",
          "type": "bool"
        }
      ],
      "name": "setExternalSwap",
      "outputs": [],
      "stateMutability": "nonpayable",
      "type": "function"
    },
    {
      "inputs": [
        {
          "internalType": "string[]",
          "name": "_bridgeProviders",
          "type": "string[]"
        },
        {
          "internalType": "address[]",
          "name": "_bridgeAdapters",
          "type": "address[]"
        }
      ],
      "name": "setSupportedBridges",
      "outputs": [],
      "stateMutability": "nonpayable",
      "type": "function"
    },
    {
      "inputs": [
        {
          "internalType": "address",
          "name": "_dex",
          "type": "address"
        },
        {
          "internalType": "string",
          "name": "_supportedFuncs",
          "type": "string"
        },
        {
          "internalType": "bool",
          "name": "_enabled",
          "type": "bool"
        }
      ],
      "name": "setSupportedDex",
      "outputs": [],
      "stateMutability": "nonpayable",
      "type": "function"
    },
    {
      "inputs": [
        {
          "internalType": "address",
          "name": "newOwner",
          "type": "address"
        }
      ],
      "name": "transferOwnership",
      "outputs": [],
      "stateMutability": "nonpayable",
      "type": "function"
    },
    {
      "inputs": [
        {
          "components": [
            {
              "internalType": "address",
              "name": "receiver",
              "type": "address"
            },
            {
              "internalType": "uint64",
              "name": "dstChainId",
              "type": "uint64"
            },
            {
              "internalType": "address",
              "name": "dstTransferSwapper",
              "type": "address"
            },
            {
              "internalType": "uint64",
              "name": "nonce",
              "type": "uint64"
            },
            {
              "internalType": "string",
              "name": "bridgeProvider",
              "type": "string"
            },
            {
              "internalType": "bytes",
              "name": "bridgeParams",
              "type": "bytes"
            },
            {
              "internalType": "bool",
              "name": "nativeIn",
              "type": "bool"
            },
            {
              "internalType": "bool",
              "name": "nativeOut",
              "type": "bool"
            },
            {
              "internalType": "uint256",
              "name": "amountIn",
              "type": "uint256"
            },
            {
              "internalType": "address",
              "name": "tokenIn",
              "type": "address"
            },
            {
              "internalType": "address",
              "name": "bridgeTokenIn",
              "type": "address"
            },
            {
              "internalType": "address",
              "name": "dstTokenOut",
              "type": "address"
            },
            {
              "internalType": "bool",
              "name": "allowPartialFill",
              "type": "bool"
            }
          ],
          "internalType": "struct Types.TransferDescription",
          "name": "_desc",
          "type": "tuple"
        },
        {
          "components": [
            {
              "internalType": "address",
              "name": "dex",
              "type": "address"
            },
            {
              "internalType": "bytes",
              "name": "data",
              "type": "bytes"
            }
          ],
          "internalType": "struct ICodec.SwapDescription[]",
          "name": "_srcSwaps",
          "type": "tuple[]"
        },
        {
          "components": [
            {
              "internalType": "address",
              "name": "dex",
              "type": "address"
            },
            {
              "internalType": "bytes",
              "name": "data",
              "type": "bytes"
            }
          ],
          "internalType": "struct ICodec.SwapDescription[]",
          "name": "_dstSwaps",
          "type": "tuple[]"
        }
      ],
      "name": "transferWithSwap",
      "outputs": [],
      "stateMutability": "payable",
      "type": "function"
    }
  ],
  "bytecode": "0x60a06040523480156200001157600080fd5b50604051620034833803806200348383398101604081905262000034916200054e565b600160005583838383818185856200004c336200022c565b80518251146200008c5760405162461bcd60e51b81526020600482015260066024820152656c656e206d6d60d01b60448201526064015b60405180910390fd5b60005b82518110156200011d576000838281518110620000bc57634e487b7160e01b600052603260045260246000fd5b60200260200101518051906020012090506200010781848481518110620000f357634e487b7160e01b600052603260045260246000fd5b60200260200101516200027e60201b60201c565b508062000114816200066f565b9150506200008f565b50505060005b8251811015620001b35760008282815181106200015057634e487b7160e01b600052603260045260246000fd5b60200260200101518051906020012090506200019d8483815181106200018657634e487b7160e01b600052603260045260246000fd5b6020026020010151826001620002f060201b60201c565b5080620001aa816200066f565b91505062000123565b5050600780546001600160a01b0319166001600160a01b039b909b169a909a17909955505060408051808201909152600a81526936bab63a34b1b430b4b760b11b60209091015250507fb014aac5b0d6328e584ecc632bc05bad2f720d727ce213821a987cb58870364060805250620006ad9350505050565b600180546001600160a01b038381166001600160a01b0319831681179093556040519116919082907f8be0079c531659141344cd1fd0a4f28419497f9722a3daafe3b4186f6b6457e090600090a35050565b6001600160e01b0319909116600090815260036020526040812080546001600160a01b039093166001600160a01b031993841681179091556004805460018101825592527f8a35acfbc15ff81a39ae7d344fd709f28e8600b4aa8c65c6b64bfe7fe36bd19b9091018054909216179055565b6001600160a01b03831660009081526005602090815260408083206001600160e01b03198616845290915290205460ff1680151582151514156200035d5760405162461bcd60e51b815260206004820152600360248201526206e6f760ec1b604482015260640162000083565b506001600160a01b0390921660009081526005602090815260408083206001600160e01b0319909416835292905220805491151560ff19909216919091179055565b80516001600160a01b0381168114620003b757600080fd5b919050565b600082601f830112620003cd578081fd5b81516020620003e6620003e08362000649565b62000616565b80838252828201915082860187848660051b890101111562000406578586fd5b855b858110156200042f576200041c826200039f565b8452928401929084019060010162000408565b5090979650505050505050565b6000601f83818401126200044e578182fd5b8251602062000461620003e08362000649565b80838252828201915082870188848660051b8a0101111562000481578687fd5b865b85811015620005405781516001600160401b0380821115620004a357898afd5b818b0191508b603f830112620004b757898afd5b8682015181811115620004ce57620004ce62000697565b620004e1818b01601f1916890162000616565b915080825260408d81838601011115620004f9578b8cfd5b8b5b8281101562000518578481018201518482018b01528901620004fb565b8281111562000529578c8a84860101525b505050855250928401929084019060010162000483565b509098975050505050505050565b600080600080600060a0868803121562000566578081fd5b62000571866200039f565b60208701519095506001600160401b03808211156200058e578283fd5b6200059c89838a016200043c565b95506040880151915080821115620005b2578283fd5b620005c089838a01620003bc565b94506060880151915080821115620005d6578283fd5b620005e489838a01620003bc565b93506080880151915080821115620005fa578283fd5b5062000609888289016200043c565b9150509295509295909350565b604051601f8201601f191681016001600160401b038111828210171562000641576200064162000697565b604052919050565b60006001600160401b0382111562000665576200066562000697565b5060051b60200190565b60006000198214156200069057634e487b7160e01b81526011600452602481fd5b5060010190565b634e487b7160e01b600052604160045260246000fd5b608051612db3620006d06000396000818161015901526104890152612db36000f3fe6080604052600436106100e85760003560e01c806382665a8f1161008a578063c5bccca311610059578063c5bccca3146102af578063eeaaa651146102cf578063f2fde38b14610305578063fbf5d7631461032557600080fd5b806382665a8f146102165780638da5cb5b14610236578063918ead761461025457806391ec04b51461027457600080fd5b80632aa5fc7b116100c65780632aa5fc7b14610189578063457bfa2f146101a9578063489a6d48146101e1578063715018a61461020157600080fd5b80630802fe9e146100ed57806309bd27491461010257806327eaae8014610147575b600080fd5b6101006100fb366004612552565b61035b565b005b34801561010e57600080fd5b5061013261011d3660046122b3565b60066020526000908152604090205460ff1681565b60405190151581526020015b60405180910390f35b34801561015357600080fd5b5061017b7f000000000000000000000000000000000000000000000000000000000000000081565b60405190815260200161013e565b34801561019557600080fd5b506101006101a43660046122cf565b610820565b3480156101b557600080fd5b506007546101c9906001600160a01b031681565b6040516001600160a01b03909116815260200161013e565b3480156101ed57600080fd5b506101006101fc36600461233b565b61089b565b34801561020d57600080fd5b50610100610935565b34801561022257600080fd5b506101c961023136600461243c565b61096b565b34801561024257600080fd5b506001546001600160a01b03166101c9565b34801561026057600080fd5b5061010061026f36600461239c565b610995565b34801561028057600080fd5b5061013261028f366004612307565b600560209081526000928352604080842090915290825290205460ff1681565b3480156102bb57600080fd5b506101006102ca3660046124e0565b610b0c565b3480156102db57600080fd5b506101c96102ea36600461243c565b6002602052600090815260409020546001600160a01b031681565b34801561031157600080fd5b506101006103203660046122b3565b610c11565b34801561033157600080fd5b506101c9610340366004612454565b6003602052600090815260409020546001600160a01b031681565b600260005414156103b35760405162461bcd60e51b815260206004820152601f60248201527f5265656e7472616e637947756172643a207265656e7472616e742063616c6c0060448201526064015b60405180910390fd5b6002600055821515806103e757506001600160401b0346166103db6040870160208801612639565b6001600160401b031614155b6104035760405162461bcd60e51b81526004016103aa906128ec565b8215158061043b57506101008501351580159061043b5750600061042f610140870161012088016122b3565b6001600160a01b031614155b6104575760405162461bcd60e51b81526004016103aa906128ec565b60006104666080870187612a22565b60405161047492919061271f565b60405190819003902090508115806104ab57507f000000000000000000000000000000000000000000000000000000000000000081145b6104f75760405162461bcd60e51b815260206004820152601b60248201527f62726964676520646f6573206e6f7420737570706f7274206d7367000000000060448201526064016103aa565b600081815260026020908152604091829020546001600160a01b0316916001600160401b0346169161052d918a01908a01612639565b6001600160401b0316148061054a57506001600160a01b03811615155b61058b5760405162461bcd60e51b8152602060048201526012602482015271756e737570706f727465642062726964676560701b60448201526064016103aa565b610100870135606060006105a76101408b016101208c016122b3565b905060006105bd6101408c016101208d016122b3565b905088156106ba576106098a8a60008181106105e957634e487b7160e01b600052603260045260246000fd5b90506020028101906105fb9190612a66565b61060490612bb2565b610cac565b15610627576106206101608c016101408d016122b3565b9050610644565b6106396106348a8c612b2a565b610d52565b929650919450925090505b806001600160a01b0316826001600160a01b031614156106ba5760405162461bcd60e51b815260206004820152602b60248201527f746f6b656e20696e2f6f7574206d757374206e6f7420657175616c206966206560448201526a786973747320737761707360a81b60648201526084016103aa565b6106ca60e08c0160c08d01612404565b156107cd576007546001600160a01b038381169116146107215760405162461bcd60e51b81526020600482015260126024820152710746b696e206e6f206e6174697665577261760741b60448201526064016103aa565b8334101561075f5760405162461bcd60e51b815260206004820152600b60248201526a1a5b9cd998db9d08185b5d60aa1b60448201526064016103aa565b600760009054906101000a90046001600160a01b03166001600160a01b031663d0e30db0856040518263ffffffff1660e01b81526004016000604051808303818588803b1580156107af57600080fd5b505af11580156107c3573d6000803e3d6000fd5b50505050506107e2565b6107e26001600160a01b038316333087611027565b61080e8282866107f18f612bc4565b8e8e906107fe9190612b2a565b6108088d8f612b2a565b89611098565b50506001600055505050505050505050565b6001546001600160a01b0316331461084a5760405162461bcd60e51b81526004016103aa906128b7565b6108548282611285565b604080516001600160a01b038416815282151560208201527f1030ebdffe19ed06839890787ae0344a023e8c553e3fa69b7e74564e8c7965f0910160405180910390a15050565b6001546001600160a01b031633146108c55760405162461bcd60e51b81526004016103aa906128b7565b815160208301206108d78482846112f1565b604080516001600160a01b03861681526001600160e01b031983166020820152831515918101919091527f5e20184b00709d9f103306958e9fb9d509f78bec1829ca7080f2c43eb2ff21a8906060015b60405180910390a150505050565b6001546001600160a01b0316331461095f5760405162461bcd60e51b81526004016103aa906128b7565b6109696000611388565b565b6004818154811061097b57600080fd5b6000918252602090912001546001600160a01b0316905081565b6001546001600160a01b031633146109bf5760405162461bcd60e51b81526004016103aa906128b7565b828114610a055760405162461bcd60e51b81526020600482015260146024820152730e0c2e4c2dae640e6d2f4ca40dad2e6dac2e8c6d60631b60448201526064016103aa565b60005b83811015610ad657828282818110610a3057634e487b7160e01b600052603260045260246000fd5b9050602002016020810190610a4591906122b3565b60026000878785818110610a6957634e487b7160e01b600052603260045260246000fd5b9050602002810190610a7b9190612a22565b604051610a8992919061271f565b6040518091039020815260200190815260200160002060006101000a8154816001600160a01b0302191690836001600160a01b031602179055508080610ace90612d13565b915050610a08565b507f68d2b5e14eb61b73f2dfa46a255dcba81a3b53259093a83c90da69c3ade70b9684848484604051610927949392919061274b565b6001546001600160a01b03163314610b365760405162461bcd60e51b81526004016103aa906128b7565b60008383604051610b4892919061271f565b60405180910390209050610bc981836001600160e01b0319909116600090815260036020526040812080546001600160a01b039093166001600160a01b031993841681179091556004805460018101825592527f8a35acfbc15ff81a39ae7d344fd709f28e8600b4aa8c65c6b64bfe7fe36bd19b9091018054909216179055565b604080516001600160e01b0319831681526001600160a01b03841660208201527f58ddcdb40971f55ad1b6a8a28067274a4ffc7e9d77c3ea14a17652faa705e1979101610927565b6001546001600160a01b03163314610c3b5760405162461bcd60e51b81526004016103aa906128b7565b6001600160a01b038116610ca05760405162461bcd60e51b815260206004820152602660248201527f4f776e61626c653a206e6577206f776e657220697320746865207a65726f206160448201526564647265737360d01b60648201526084016103aa565b610ca981611388565b50565b80516001600160a01b031660009081526005602090815260408220908301518290610cd6906113da565b6001600160e01b031916815260208101919091526040016000205460ff16610d325760405162461bcd60e51b815260206004820152600f60248201526e0eadce6eae0e0dee4e8cac840c8caf608b1b60448201526064016103aa565b50516001600160a01b031660009081526006602052604090205460ff1690565b60008060006060600080610d65876113f6565b925060005b875181101561101d5760056000898381518110610d9757634e487b7160e01b600052603260045260246000fd5b6020026020010151600001516001600160a01b03166001600160a01b031681526020019081526020016000206000610df98a8481518110610de857634e487b7160e01b600052603260045260246000fd5b6020026020010151602001516113da565b6001600160e01b031916815260208101919091526040016000205460ff16610e555760405162461bcd60e51b815260206004820152600f60248201526e0eadce6eae0e0dee4e8cac840c8caf608b1b60448201526064016103aa565b6000806000868481518110610e7a57634e487b7160e01b600052603260045260246000fd5b60200260200101516001600160a01b031663358f0e1c8c8681518110610eb057634e487b7160e01b600052603260045260246000fd5b60200260200101516040518263ffffffff1660e01b8152600401610ed491906129ae565b60606040518083038186803b158015610eec57600080fd5b505afa158015610f00573d6000803e3d6000fd5b505050506040513d601f19601f82011682018060405250810190610f249190612602565b919450925090506001600160a01b0386161580610f525750816001600160a01b0316866001600160a01b0316145b610f8e5760405162461bcd60e51b815260206004820152600d60248201526c0e8d6d2dc40dad2e6dac2e8c6d609b1b60448201526064016103aa565b90945084906001600160a01b0385161580610fba5750806001600160a01b0316856001600160a01b0316145b610ff55760405162461bcd60e51b815260206004820152600c60248201526b0e8d6de40dad2e6dac2e8c6d60a31b60448201526064016103aa565b935083611002838b612afb565b9950909750955081905061101581612d13565b915050610d6a565b5050509193509193565b6040516001600160a01b03808516602483015283166044820152606481018290526110929085906323b872dd60e01b906084015b60408051601f198184030181529190526020810180516001600160e01b03166001600160e01b03199093169290921790915261157a565b50505050565b825185901561115f5760006110d4856000815181106110c757634e487b7160e01b600052603260045260246000fd5b6020026020010151610cac565b156111165761110d8989898860008151811061110057634e487b7160e01b600052603260045260246000fd5b6020026020010151611651565b9250905061115d565b61112085846117f7565b925090508061115d5760405162461bcd60e51b81526020600482015260096024820152681cddd85c0819985a5b60ba1b60448201526064016103aa565b505b60006111d8866000015187606001516040516bffffffffffffffffffffffff1933606090811b8216602084015284901b1660348201526001600160c01b03194660c090811b8216604884015283901b16605082015260009060580160405160208183030381529060405280519060200120905092915050565b9050466001600160401b031686602001516001600160401b0316141561126a5761120c888388600001518960e00151611bc7565b60408051828152602081018990526001600160a01b038b811682840152606082018590528a16608082015290517f0e248ac8be20725176a5f0ab093c5fbb964634d4675012f3d3ad66e69e56d5b79181900360a00190a1505061127c565b611279818a8a89888c88611d25565b50505b50505050505050565b6001600160a01b03821660009081526006602052604090205460ff1680151582151514156112c55760405162461bcd60e51b81526004016103aa906128ec565b506001600160a01b03919091166000908152600660205260409020805460ff1916911515919091179055565b6001600160a01b03831660009081526005602090815260408083206001600160e01b03198616845290915290205460ff1680151582151514156113465760405162461bcd60e51b81526004016103aa906128ec565b506001600160a01b0390921660009081526005602090815260408083206001600160e01b0319909416835292905220805491151560ff19909216919091179055565b600180546001600160a01b038381166001600160a01b0319831681179093556040519116919082907f8be0079c531659141344cd1fd0a4f28419497f9722a3daafe3b4186f6b6457e090600090a35050565b60008151600014156113ee57506000919050565b506020015190565b6060600082516001600160401b0381111561142157634e487b7160e01b600052604160045260246000fd5b60405190808252806020026020018201604052801561144a578160200160208202803683370190505b50905060005b835181101561157357600061147e858381518110610de857634e487b7160e01b600052603260045260246000fd5b6001600160e01b0319811660009081526003602052604090205484519192506001600160a01b0316908490849081106114c757634e487b7160e01b600052603260045260246000fd5b60200260200101906001600160a01b031690816001600160a01b03168152505060006001600160a01b031683838151811061151257634e487b7160e01b600052603260045260246000fd5b60200260200101516001600160a01b031614156115605760405162461bcd60e51b815260206004820152600c60248201526b18d918c81b9bc8199bdd5b9960a21b60448201526064016103aa565b508061156b81612d13565b915050611450565b5092915050565b60006115cf826040518060400160405280602081526020017f5361666545524332303a206c6f772d6c6576656c2063616c6c206661696c6564815250856001600160a01b0316611e7f9092919063ffffffff16565b80519091501561164c57808060200190518101906115ed9190612420565b61164c5760405162461bcd60e51b815260206004820152602a60248201527f5361666545524332303a204552433230206f7065726174696f6e20646964206e6044820152691bdd081cdd58d8d9595960b21b60648201526084016103aa565b505050565b8051600090819061166d906001600160a01b0388169086611e98565b6040516370a0823160e01b81523060048201526000906001600160a01b038716906370a082319060240160206040518083038186803b1580156116af57600080fd5b505afa1580156116c3573d6000803e3d6000fd5b505050506040513d601f19601f820116820180604052508101906116e791906125ea565b905083600001516001600160a01b03168460200151604051611709919061272f565b6000604051808303816000865af19150503d8060008114611746576040519150601f19603f3d011682016040523d82523d6000602084013e61174b565b606091505b505080935050826117635760008092509250506117ee565b6040516370a0823160e01b81523060048201526000906001600160a01b038816906370a082319060240160206040518083038186803b1580156117a557600080fd5b505afa1580156117b9573d6000803e3d6000fd5b505050506040513d601f19601f820116820180604052508101906117dd91906125ea565b90506117e98282612b13565b925050505b94509492505050565b60008060005b8451811015611bbe57600080600086848151811061182b57634e487b7160e01b600052603260045260246000fd5b60200260200101516001600160a01b031663358f0e1c89868151811061186157634e487b7160e01b600052603260045260246000fd5b60200260200101516040518263ffffffff1660e01b815260040161188591906129ae565b60606040518083038186803b15801561189d57600080fd5b505afa1580156118b1573d6000803e3d6000fd5b505050506040513d601f19601f820116820180604052508101906118d59190612602565b92509250925060008785815181106118fd57634e487b7160e01b600052603260045260246000fd5b60200260200101516001600160a01b0316634c6da2698a878151811061193357634e487b7160e01b600052603260045260246000fd5b60200260200101516020015186306040518463ffffffff1660e01b815260040161195f93929190612871565b60006040518083038186803b15801561197757600080fd5b505afa15801561198b573d6000803e3d6000fd5b505050506040513d6000823e601f3d908101601f191682016040526119b3919081019061246e565b90506119f58986815181106119d857634e487b7160e01b600052603260045260246000fd5b6020908102919091010151516001600160a01b0385169086611e98565b6040516370a0823160e01b81523060048201526000906001600160a01b038416906370a082319060240160206040518083038186803b158015611a3757600080fd5b505afa158015611a4b573d6000803e3d6000fd5b505050506040513d601f19601f82011682018060405250810190611a6f91906125ea565b9050898681518110611a9157634e487b7160e01b600052603260045260246000fd5b6020026020010151600001516001600160a01b031682604051611ab4919061272f565b6000604051808303816000865af19150503d8060008114611af1576040519150601f19603f3d011682016040523d82523d6000602084013e611af6565b606091505b50508098505087611b135760008097509750505050505050611bc0565b6040516370a0823160e01b81523060048201526000906001600160a01b038516906370a082319060240160206040518083038186803b158015611b5557600080fd5b505afa158015611b69573d6000803e3d6000fd5b505050506040513d601f19601f82011682018060405250810190611b8d91906125ea565b9050611b998282612b13565b611ba39089612afb565b97505050505050508080611bb690612d13565b9150506117fd565b505b9250929050565b8015611d11576007546001600160a01b03858116911614611c195760405162461bcd60e51b815260206004820152600c60248201526b746b206e6f206e617469766560a01b60448201526064016103aa565b600754604051632e1a7d4d60e01b8152600481018590526001600160a01b0390911690632e1a7d4d90602401600060405180830381600087803b158015611c5f57600080fd5b505af1158015611c73573d6000803e3d6000fd5b505050506000826001600160a01b03168461c35090604051600060405180830381858888f193505050503d8060008114611cc9576040519150601f19603f3d011682016040523d82523d6000602084013e611cce565b606091505b5050905080611d0b5760405162461bcd60e51b81526020600482015260096024820152681cd95b990819985a5b60ba1b60448201526064016103aa565b50611092565b6110926001600160a01b0385168385611f59565b600080845111611d36578451611d3c565b84604001515b608086015180516020918201206000908152600290915260409020549091506060906001600160a01b0390811690611d779089168286611e98565b6000611d848b8989611f89565b9050816001600160a01b031663834bc3ea896020015186888d8d60a00151876040518763ffffffff1660e01b8152600401611dc4969594939291906129c1565b600060405180830381600087803b158015611dde57600080fd5b505af1158015611df2573d6000803e3d6000fd5b505050506040513d6000823e601f3d908101601f19168201604052611e1a919081019061246e565b925050507f082e2f634ceec1af5105aa53f234b7efad94428a54a714e3b7c7115ee549308089828860200151878c8b6101600151888e8b8f60800151604051611e6c9a999897969594939291906127ec565b60405180910390a1505050505050505050565b6060611e8e8484600085611ff4565b90505b9392505050565b604051636eb1769f60e11b81523060048201526001600160a01b038381166024830152600091839186169063dd62ed3e9060440160206040518083038186803b158015611ee457600080fd5b505afa158015611ef8573d6000803e3d6000fd5b505050506040513d601f19601f82011682018060405250810190611f1c91906125ea565b611f269190612afb565b6040516001600160a01b03851660248201526044810182905290915061109290859063095ea7b360e01b9060640161105b565b6040516001600160a01b03831660248201526044810182905261164c90849063a9059cbb60e01b9060640161105b565b60606040518060a0016040528085815260200183815260200184600001516001600160a01b031681526020018460e00151151581526020018461018001511515815250604051602001611fdc9190612909565b60405160208183030381529060405290509392505050565b6060824710156120555760405162461bcd60e51b815260206004820152602660248201527f416464726573733a20696e73756666696369656e742062616c616e636520666f6044820152651c8818d85b1b60d21b60648201526084016103aa565b6001600160a01b0385163b6120ac5760405162461bcd60e51b815260206004820152601d60248201527f416464726573733a2063616c6c20746f206e6f6e2d636f6e747261637400000060448201526064016103aa565b600080866001600160a01b031685876040516120c8919061272f565b60006040518083038185875af1925050503d8060008114612105576040519150601f19603f3d011682016040523d82523d6000602084013e61210a565b606091505b509150915061211a828286612125565b979650505050505050565b60608315612134575081611e91565b8251156121445782518084602001fd5b8160405162461bcd60e51b81526004016103aa91906128a4565b803561216981612d5a565b919050565b60008083601f84011261217f578182fd5b5081356001600160401b03811115612195578182fd5b6020830191508360208260051b8501011115611bc057600080fd5b803561216981612d6f565b80356001600160e01b03198116811461216957600080fd5b600082601f8301126121e3578081fd5b81356121f66121f182612ad4565b612aa4565b81815284602083860101111561220a578283fd5b816020850160208301379081016020019190915292915050565b600060408284031215612235578081fd5b604051604081016001600160401b03828210818311171561225857612258612d44565b816040528293508435915061226c82612d5a565b9082526020840135908082111561228257600080fd5b5061228f858286016121d3565b6020830152505092915050565b80356001600160401b038116811461216957600080fd5b6000602082840312156122c4578081fd5b8135611e9181612d5a565b600080604083850312156122e1578081fd5b82356122ec81612d5a565b915060208301356122fc81612d6f565b809150509250929050565b60008060408385031215612319578182fd5b823561232481612d5a565b9150612332602084016121bb565b90509250929050565b60008060006060848603121561234f578081fd5b833561235a81612d5a565b925060208401356001600160401b03811115612374578182fd5b612380868287016121d3565b925050604084013561239181612d6f565b809150509250925092565b600080600080604085870312156123b1578182fd5b84356001600160401b03808211156123c7578384fd5b6123d38883890161216e565b909650945060208701359150808211156123eb578384fd5b506123f88782880161216e565b95989497509550505050565b600060208284031215612415578081fd5b8135611e9181612d6f565b600060208284031215612431578081fd5b8151611e9181612d6f565b60006020828403121561244d578081fd5b5035919050565b600060208284031215612465578081fd5b611e91826121bb565b60006020828403121561247f578081fd5b81516001600160401b03811115612494578182fd5b8201601f810184136124a4578182fd5b80516124b26121f182612ad4565b8181528560208385010111156124c6578384fd5b6124d7826020830160208601612ce7565b95945050505050565b6000806000604084860312156124f4578081fd5b83356001600160401b038082111561250a578283fd5b818601915086601f83011261251d578283fd5b81358181111561252b578384fd5b87602082850101111561253c578384fd5b6020928301955093505084013561239181612d5a565b600080600080600060608688031215612569578283fd5b85356001600160401b038082111561257f578485fd5b908701906101a0828a031215612593578485fd5b909550602087013590808211156125a8578485fd5b6125b489838a0161216e565b909650945060408801359150808211156125cc578283fd5b506125d98882890161216e565b969995985093965092949392505050565b6000602082840312156125fb578081fd5b5051919050565b600080600060608486031215612616578081fd5b83519250602084015161262881612d5a565b604085015190925061239181612d5a565b60006020828403121561264a578081fd5b611e918261229c565b81835260006020808501945082825b8581101561269057813561267581612d5a565b6001600160a01b031687529582019590820190600101612662565b509495945050505050565b600081518084526126b3816020860160208601612ce7565b601f01601f19169290920160200192915050565b81835281816020850137506000828201602090810191909152601f909101601f19169091010190565b60018060a01b0381511682526000602082015160406020850152612717604085018261269b565b949350505050565b8183823760009101908152919050565b60008251612741818460208701612ce7565b9190910192915050565b6040808252810184905260006060600586901b8301810190830187835b888110156127d657858403605f190183528135368b9003601e1901811261278d578586fd5b8a01803560206001600160401b038211156127a6578788fd5b8136038d13156127b4578788fd5b6127c187838386016126c7565b96509485019493909301925050600101612768565b505050828103602084015261211a818587612653565b60006101408c83528060208401526128068184018d61269b565b6001600160401b038c166040850152606084018b90526001600160a01b038a8116608086015289811660a086015288811660c0860152871660e085015261010084018690528381036101208501529050612860818561269b565b9d9c50505050505050505050505050565b606081526000612884606083018661269b565b6020830194909452506001600160a01b0391909116604090910152919050565b602081526000611e91602083018461269b565b6020808252818101527f4f776e61626c653a2063616c6c6572206973206e6f7420746865206f776e6572604082015260600190565b60208082526003908201526206e6f760ec1b604082015260600190565b6000602080835260c083018451828501528185015160a0604086015281815180845260e08701915060e08160051b88010193508483019250855b818110156129715760df1988860301835261295f8585516126f0565b94509285019291850191600101612943565b5050505060408501516001600160a01b03811660608601529150606085015180151560808601529150608085015180151560a08601529150612717565b602081526000611e9160208301846126f0565b6001600160401b03871681526001600160a01b038681166020830152604082018690528416606082015260c060808201819052600090612a039083018561269b565b82810360a0840152612a15818561269b565b9998505050505050505050565b6000808335601e19843603018112612a38578283fd5b8301803591506001600160401b03821115612a51578283fd5b602001915036819003821315611bc057600080fd5b60008235603e19833603018112612741578182fd5b6040516101a081016001600160401b0381118282101715612a9e57612a9e612d44565b60405290565b604051601f8201601f191681016001600160401b0381118282101715612acc57612acc612d44565b604052919050565b60006001600160401b03821115612aed57612aed612d44565b50601f01601f191660200190565b60008219821115612b0e57612b0e612d2e565b500190565b600082821015612b2557612b25612d2e565b500390565b60006001600160401b0380841115612b4457612b44612d44565b8360051b6020612b55818301612aa4565b8681528181019086368582011115612b6b578687fd5b8694505b88851015612ba657803586811115612b85578788fd5b612b9136828b01612224565b84525060019490940193918301918301612b6f565b50979650505050505050565b6000612bbe3683612224565b92915050565b60006101a08236031215612bd6578081fd5b612bde612a7b565b612be78361215e565b8152612bf56020840161229c565b6020820152612c066040840161215e565b6040820152612c176060840161229c565b606082015260808301356001600160401b0380821115612c35578384fd5b612c41368387016121d3565b608084015260a0850135915080821115612c59578384fd5b50612c66368286016121d3565b60a083015250612c7860c084016121b0565b60c0820152612c8960e084016121b0565b60e08201526101008381013590820152610120612ca781850161215e565b90820152610140612cb984820161215e565b90820152610160612ccb84820161215e565b90820152610180612cdd8482016121b0565b9082015292915050565b60005b83811015612d02578181015183820152602001612cea565b838111156110925750506000910152565b6000600019821415612d2757612d27612d2e565b5060010190565b634e487b7160e01b600052601160045260246000fd5b634e487b7160e01b600052604160045260246000fd5b6001600160a01b0381168114610ca957600080fd5b8015158114610ca957600080fdfea2646970667358221220013ed3c92dc1a6ad09de4ab88abf693bb6321610657874e24dd80cfb278050d064736f6c63430008040033",
  "linkReferences": {},
  "deployedLinkReferences": {}
}